{"abi":[{"type":"constructor","inputs":[{"name":"_entryPoint","type":"address","internalType":"address"}],"stateMutability":"nonpayable"},{"type":"fallback","stateMutability":"payable"},{"type":"receive","stateMutability":"payable"},{"type":"function","name":"addHook","inputs":[{"name":"selector","type":"bytes4","internalType":"bytes4"},{"name":"implementation","type":"address","internalType":"address"}],"outputs":[],"stateMutability":"payable"},{"type":"function","name":"entrypoint","inputs":[],"outputs":[{"name":"","type":"address","internalType":"address"}],"stateMutability":"view"},{"type":"function","name":"execute","inputs":[{"name":"_payload","type":"bytes","internalType":"bytes"},{"name":"_signature","type":"bytes","internalType":"bytes"}],"outputs":[],"stateMutability":"payable"},{"type":"function","name":"executeUserOp","inputs":[{"name":"_payload","type":"bytes","internalType":"bytes"}],"outputs":[],"stateMutability":"nonpayable"},{"type":"function","name":"getImplementation","inputs":[],"outputs":[{"name":"","type":"address","internalType":"address"}],"stateMutability":"view"},{"type":"function","name":"getStaticSignature","inputs":[{"name":"_hash","type":"bytes32","internalType":"bytes32"}],"outputs":[{"name":"","type":"address","internalType":"address"},{"name":"","type":"uint256","internalType":"uint256"}],"stateMutability":"view"},{"type":"function","name":"imageHash","inputs":[],"outputs":[{"name":"","type":"bytes32","internalType":"bytes32"}],"stateMutability":"view"},{"type":"function","name":"isValidSignature","inputs":[{"name":"_hash","type":"bytes32","internalType":"bytes32"},{"name":"_signature","type":"bytes","internalType":"bytes"}],"outputs":[{"name":"","type":"bytes4","internalType":"bytes4"}],"stateMutability":"view"},{"type":"function","name":"onERC1155BatchReceived","inputs":[{"name":"","type":"address","internalType":"address"},{"name":"","type":"address","internalType":"address"},{"name":"","type":"uint256[]","internalType":"uint256[]"},{"name":"","type":"uint256[]","internalType":"uint256[]"},{"name":"","type":"bytes","internalType":"bytes"}],"outputs":[{"name":"","type":"bytes4","internalType":"bytes4"}],"stateMutability":"pure"},{"type":"function","name":"onERC1155Received","inputs":[{"name":"","type":"address","internalType":"address"},{"name":"","type":"address","internalType":"address"},{"name":"","type":"uint256","internalType":"uint256"},{"name":"","type":"uint256","internalType":"uint256"},{"name":"","type":"bytes","internalType":"bytes"}],"outputs":[{"name":"","type":"bytes4","internalType":"bytes4"}],"stateMutability":"pure"},{"type":"function","name":"onERC721Received","inputs":[{"name":"","type":"address","internalType":"address"},{"name":"","type":"address","internalType":"address"},{"name":"","type":"uint256","internalType":"uint256"},{"name":"","type":"bytes","internalType":"bytes"}],"outputs":[{"name":"","type":"bytes4","internalType":"bytes4"}],"stateMutability":"pure"},{"type":"function","name":"readHook","inputs":[{"name":"selector","type":"bytes4","internalType":"bytes4"}],"outputs":[{"name":"","type":"address","internalType":"address"}],"stateMutability":"view"},{"type":"function","name":"readNonce","inputs":[{"name":"_space","type":"uint256","internalType":"uint256"}],"outputs":[{"name":"","type":"uint256","internalType":"uint256"}],"stateMutability":"view"},{"type":"function","name":"recoverPartialSignature","inputs":[{"name":"_payload","type":"tuple","internalType":"struct Payload.Decoded","components":[{"name":"kind","type":"uint8","internalType":"uint8"},{"name":"noChainId","type":"bool","internalType":"bool"},{"name":"calls","type":"tuple[]","internalType":"struct Payload.Call[]","components":[{"name":"to","type":"address","internalType":"address"},{"name":"value","type":"uint256","internalType":"uint256"},{"name":"data","type":"bytes","internalType":"bytes"},{"name":"gasLimit","type":"uint256","internalType":"uint256"},{"name":"delegateCall","type":"bool","internalType":"bool"},{"name":"onlyFallback","type":"bool","internalType":"bool"},{"name":"behaviorOnError","type":"uint256","internalType":"uint256"}]},{"name":"space","type":"uint256","internalType":"uint256"},{"name":"nonce","type":"uint256","internalType":"uint256"},{"name":"message","type":"bytes","internalType":"bytes"},{"name":"imageHash","type":"bytes32","internalType":"bytes32"},{"name":"digest","type":"bytes32","internalType":"bytes32"},{"name":"parentWallets","type":"address[]","internalType":"address[]"}]},{"name":"_signature","type":"bytes","internalType":"bytes"}],"outputs":[{"name":"threshold","type":"uint256","internalType":"uint256"},{"name":"weight","type":"uint256","internalType":"uint256"},{"name":"isValidImage","type":"bool","internalType":"bool"},{"name":"imageHash","type":"bytes32","internalType":"bytes32"},{"name":"checkpoint","type":"uint256","internalType":"uint256"},{"name":"opHash","type":"bytes32","internalType":"bytes32"}],"stateMutability":"view"},{"type":"function","name":"recoverSapientSignature","inputs":[{"name":"_payload","type":"tuple","internalType":"struct Payload.Decoded","components":[{"name":"kind","type":"uint8","internalType":"uint8"},{"name":"noChainId","type":"bool","internalType":"bool"},{"name":"calls","type":"tuple[]","internalType":"struct Payload.Call[]","components":[{"name":"to","type":"address","internalType":"address"},{"name":"value","type":"uint256","internalType":"uint256"},{"name":"data","type":"bytes","internalType":"bytes"},{"name":"gasLimit","type":"uint256","internalType":"uint256"},{"name":"delegateCall","type":"bool","internalType":"bool"},{"name":"onlyFallback","type":"bool","internalType":"bool"},{"name":"behaviorOnError","type":"uint256","internalType":"uint256"}]},{"name":"space","type":"uint256","internalType":"uint256"},{"name":"nonce","type":"uint256","internalType":"uint256"},{"name":"message","type":"bytes","internalType":"bytes"},{"name":"imageHash","type":"bytes32","internalType":"bytes32"},{"name":"digest","type":"bytes32","internalType":"bytes32"},{"name":"parentWallets","type":"address[]","internalType":"address[]"}]},{"name":"_signature","type":"bytes","internalType":"bytes"}],"outputs":[{"name":"","type":"bytes32","internalType":"bytes32"}],"stateMutability":"view"},{"type":"function","name":"removeHook","inputs":[{"name":"selector","type":"bytes4","internalType":"bytes4"}],"outputs":[],"stateMutability":"payable"},{"type":"function","name":"selfExecute","inputs":[{"name":"_payload","type":"bytes","internalType":"bytes"}],"outputs":[],"stateMutability":"payable"},{"type":"function","name":"setStaticSignature","inputs":[{"name":"_hash","type":"bytes32","internalType":"bytes32"},{"name":"_address","type":"address","internalType":"address"},{"name":"_timestamp","type":"uint96","internalType":"uint96"}],"outputs":[],"stateMutability":"nonpayable"},{"type":"function","name":"simulate","inputs":[{"name":"_calls","type":"tuple[]","internalType":"struct Payload.Call[]","components":[{"name":"to","type":"address","internalType":"address"},{"name":"value","type":"uint256","internalType":"uint256"},{"name":"data","type":"bytes","internalType":"bytes"},{"name":"gasLimit","type":"uint256","internalType":"uint256"},{"name":"delegateCall","type":"bool","internalType":"bool"},{"name":"onlyFallback","type":"bool","internalType":"bool"},{"name":"behaviorOnError","type":"uint256","internalType":"uint256"}]}],"outputs":[{"name":"results","type":"tuple[]","internalType":"struct Simulator.Result[]","components":[{"name":"status","type":"uint8","internalType":"enum Simulator.Status"},{"name":"result","type":"bytes","internalType":"bytes"},{"name":"gasUsed","type":"uint256","internalType":"uint256"}]}],"stateMutability":"nonpayable"},{"type":"function","name":"tokenReceived","inputs":[{"name":"","type":"address","internalType":"address"},{"name":"","type":"uint256","internalType":"uint256"},{"name":"","type":"bytes","internalType":"bytes"}],"outputs":[{"name":"","type":"bytes4","internalType":"bytes4"}],"stateMutability":"pure"},{"type":"function","name":"tokensReceived","inputs":[{"name":"operator","type":"address","internalType":"address"},{"name":"from","type":"address","internalType":"address"},{"name":"to","type":"address","internalType":"address"},{"name":"amount","type":"uint256","internalType":"uint256"},{"name":"data","type":"bytes","internalType":"bytes"},{"name":"operatorData","type":"bytes","internalType":"bytes"}],"outputs":[],"stateMutability":"nonpayable"},{"type":"function","name":"updateImageHash","inputs":[{"name":"_imageHash","type":"bytes32","internalType":"bytes32"}],"outputs":[],"stateMutability":"nonpayable"},{"type":"function","name":"updateImplementation","inputs":[{"name":"_implementation","type":"address","internalType":"address"}],"outputs":[],"stateMutability":"payable"},{"type":"function","name":"validateUserOp","inputs":[{"name":"userOp","type":"tuple","internalType":"struct PackedUserOperation","components":[{"name":"sender","type":"address","internalType":"address"},{"name":"nonce","type":"uint256","internalType":"uint256"},{"name":"initCode","type":"bytes","internalType":"bytes"},{"name":"callData","type":"bytes","internalType":"bytes"},{"name":"accountGasLimits","type":"bytes32","internalType":"bytes32"},{"name":"preVerificationGas","type":"uint256","internalType":"uint256"},{"name":"gasFees","type":"bytes32","internalType":"bytes32"},{"name":"paymasterAndData","type":"bytes","internalType":"bytes"},{"name":"signature","type":"bytes","internalType":"bytes"}]},{"name":"userOpHash","type":"bytes32","internalType":"bytes32"},{"name":"missingAccountFunds","type":"uint256","internalType":"uint256"}],"outputs":[{"name":"validationData","type":"uint256","internalType":"uint256"}],"stateMutability":"nonpayable"},{"type":"event","name":"CallAborted","inputs":[{"name":"_opHash","type":"bytes32","indexed":false,"internalType":"bytes32"},{"name":"_index","type":"uint256","indexed":false,"internalType":"uint256"},{"name":"_returnData","type":"bytes","indexed":false,"internalType":"bytes"}],"anonymous":false},{"type":"event","name":"CallFailed","inputs":[{"name":"_opHash","type":"bytes32","indexed":false,"internalType":"bytes32"},{"name":"_index","type":"uint256","indexed":false,"internalType":"uint256"},{"name":"_returnData","type":"bytes","indexed":false,"internalType":"bytes"}],"anonymous":false},{"type":"event","name":"CallSkipped","inputs":[{"name":"_opHash","type":"bytes32","indexed":false,"internalType":"bytes32"},{"name":"_index","type":"uint256","indexed":false,"internalType":"uint256"}],"anonymous":false},{"type":"event","name":"CallSucceeded","inputs":[{"name":"_opHash","type":"bytes32","indexed":false,"internalType":"bytes32"},{"name":"_index","type":"uint256","indexed":false,"internalType":"uint256"}],"anonymous":false},{"type":"event","name":"DefinedHook","inputs":[{"name":"selector","type":"bytes4","indexed":false,"internalType":"bytes4"},{"name":"implementation","type":"address","indexed":false,"internalType":"address"}],"anonymous":false},{"type":"event","name":"ImageHashUpdated","inputs":[{"name":"newImageHash","type":"bytes32","indexed":false,"internalType":"bytes32"}],"anonymous":false},{"type":"event","name":"ImplementationUpdated","inputs":[{"name":"newImplementation","type":"address","indexed":false,"internalType":"address"}],"anonymous":false},{"type":"event","name":"NonceChange","inputs":[{"name":"_space","type":"uint256","indexed":false,"internalType":"uint256"},{"name":"_newNonce","type":"uint256","indexed":false,"internalType":"uint256"}],"anonymous":false},{"type":"event","name":"StaticSignatureSet","inputs":[{"name":"_hash","type":"bytes32","indexed":false,"internalType":"bytes32"},{"name":"_address","type":"address","indexed":false,"internalType":"address"},{"name":"_timestamp","type":"uint96","indexed":false,"internalType":"uint96"}],"anonymous":false},{"type":"error","name":"BadNonce","inputs":[{"name":"_space","type":"uint256","internalType":"uint256"},{"name":"_provided","type":"uint256","internalType":"uint256"},{"name":"_current","type":"uint256","internalType":"uint256"}]},{"type":"error","name":"ERC4337Disabled","inputs":[]},{"type":"error","name":"HookAlreadyExists","inputs":[{"name":"selector","type":"bytes4","internalType":"bytes4"}]},{"type":"error","name":"HookDoesNotExist","inputs":[{"name":"selector","type":"bytes4","internalType":"bytes4"}]},{"type":"error","name":"ImageHashIsZero","inputs":[]},{"type":"error","name":"InvalidERC1271Signature","inputs":[{"name":"_opHash","type":"bytes32","internalType":"bytes32"},{"name":"_signer","type":"address","internalType":"address"},{"name":"_signature","type":"bytes","internalType":"bytes"}]},{"type":"error","name":"InvalidEntryPoint","inputs":[{"name":"_entrypoint","type":"address","internalType":"address"}]},{"type":"error","name":"InvalidKind","inputs":[{"name":"kind","type":"uint8","internalType":"uint8"}]},{"type":"error","name":"InvalidSapientSignature","inputs":[{"name":"_payload","type":"tuple","internalType":"struct Payload.Decoded","components":[{"name":"kind","type":"uint8","internalType":"uint8"},{"name":"noChainId","type":"bool","internalType":"bool"},{"name":"calls","type":"tuple[]","internalType":"struct Payload.Call[]","components":[{"name":"to","type":"address","internalType":"address"},{"name":"value","type":"uint256","internalType":"uint256"},{"name":"data","type":"bytes","internalType":"bytes"},{"name":"gasLimit","type":"uint256","internalType":"uint256"},{"name":"delegateCall","type":"bool","internalType":"bool"},{"name":"onlyFallback","type":"bool","internalType":"bool"},{"name":"behaviorOnError","type":"uint256","internalType":"uint256"}]},{"name":"space","type":"uint256","internalType":"uint256"},{"name":"nonce","type":"uint256","internalType":"uint256"},{"name":"message","type":"bytes","internalType":"bytes"},{"name":"imageHash","type":"bytes32","internalType":"bytes32"},{"name":"digest","type":"bytes32","internalType":"bytes32"},{"name":"parentWallets","type":"address[]","internalType":"address[]"}]},{"name":"_signature","type":"bytes","internalType":"bytes"}]},{"type":"error","name":"InvalidSignature","inputs":[{"name":"_payload","type":"tuple","internalType":"struct Payload.Decoded","components":[{"name":"kind","type":"uint8","internalType":"uint8"},{"name":"noChainId","type":"bool","internalType":"bool"},{"name":"calls","type":"tuple[]","internalType":"struct Payload.Call[]","components":[{"name":"to","type":"address","internalType":"address"},{"name":"value","type":"uint256","internalType":"uint256"},{"name":"data","type":"bytes","internalType":"bytes"},{"name":"gasLimit","type":"uint256","internalType":"uint256"},{"name":"delegateCall","type":"bool","internalType":"bool"},{"name":"onlyFallback","type":"bool","internalType":"bool"},{"name":"behaviorOnError","type":"uint256","internalType":"uint256"}]},{"name":"space","type":"uint256","internalType":"uint256"},{"name":"nonce","type":"uint256","internalType":"uint256"},{"name":"message","type":"bytes","internalType":"bytes"},{"name":"imageHash","type":"bytes32","internalType":"bytes32"},{"name":"digest","type":"bytes32","internalType":"bytes32"},{"name":"parentWallets","type":"address[]","internalType":"address[]"}]},{"name":"_signature","type":"bytes","internalType":"bytes"}]},{"type":"error","name":"InvalidSignatureFlag","inputs":[{"name":"_flag","type":"uint256","internalType":"uint256"}]},{"type":"error","name":"InvalidSignatureWeight","inputs":[{"name":"_threshold","type":"uint256","internalType":"uint256"},{"name":"_weight","type":"uint256","internalType":"uint256"}]},{"type":"error","name":"InvalidStaticSignatureExpired","inputs":[{"name":"_opHash","type":"bytes32","internalType":"bytes32"},{"name":"_expires","type":"uint256","internalType":"uint256"}]},{"type":"error","name":"InvalidStaticSignatureWrongCaller","inputs":[{"name":"_opHash","type":"bytes32","internalType":"bytes32"},{"name":"_caller","type":"address","internalType":"address"},{"name":"_expectedCaller","type":"address","internalType":"address"}]},{"type":"error","name":"LowWeightChainedSignature","inputs":[{"name":"_signature","type":"bytes","internalType":"bytes"},{"name":"_threshold","type":"uint256","internalType":"uint256"},{"name":"_weight","type":"uint256","internalType":"uint256"}]},{"type":"error","name":"NotEnoughGas","inputs":[{"name":"_payload","type":"tuple","internalType":"struct Payload.Decoded","components":[{"name":"kind","type":"uint8","internalType":"uint8"},{"name":"noChainId","type":"bool","internalType":"bool"},{"name":"calls","type":"tuple[]","internalType":"struct Payload.Call[]","components":[{"name":"to","type":"address","internalType":"address"},{"name":"value","type":"uint256","internalType":"uint256"},{"name":"data","type":"bytes","internalType":"bytes"},{"name":"gasLimit","type":"uint256","internalType":"uint256"},{"name":"delegateCall","type":"bool","internalType":"bool"},{"name":"onlyFallback","type":"bool","internalType":"bool"},{"name":"behaviorOnError","type":"uint256","internalType":"uint256"}]},{"name":"space","type":"uint256","internalType":"uint256"},{"name":"nonce","type":"uint256","internalType":"uint256"},{"name":"message","type":"bytes","internalType":"bytes"},{"name":"imageHash","type":"bytes32","internalType":"bytes32"},{"name":"digest","type":"bytes32","internalType":"bytes32"},{"name":"parentWallets","type":"address[]","internalType":"address[]"}]},{"name":"_index","type":"uint256","internalType":"uint256"},{"name":"_gasLeft","type":"uint256","internalType":"uint256"}]},{"type":"error","name":"OnlySelf","inputs":[{"name":"_sender","type":"address","internalType":"address"}]},{"type":"error","name":"ReentrantCall","inputs":[]},{"type":"error","name":"Reverted","inputs":[{"name":"_payload","type":"tuple","internalType":"struct Payload.Decoded","components":[{"name":"kind","type":"uint8","internalType":"uint8"},{"name":"noChainId","type":"bool","internalType":"bool"},{"name":"calls","type":"tuple[]","internalType":"struct Payload.Call[]","components":[{"name":"to","type":"address","internalType":"address"},{"name":"value","type":"uint256","internalType":"uint256"},{"name":"data","type":"bytes","internalType":"bytes"},{"name":"gasLimit","type":"uint256","internalType":"uint256"},{"name":"delegateCall","type":"bool","internalType":"bool"},{"name":"onlyFallback","type":"bool","internalType":"bool"},{"name":"behaviorOnError","type":"uint256","internalType":"uint256"}]},{"name":"space","type":"uint256","internalType":"uint256"},{"name":"nonce","type":"uint256","internalType":"uint256"},{"name":"message","type":"bytes","internalType":"bytes"},{"name":"imageHash","type":"bytes32","internalType":"bytes32"},{"name":"digest","type":"bytes32","internalType":"bytes32"},{"name":"parentWallets","type":"address[]","internalType":"address[]"}]},{"name":"_index","type":"uint256","internalType":"uint256"},{"name":"_returnData","type":"bytes","internalType":"bytes"}]},{"type":"error","name":"UnusedSnapshot","inputs":[{"name":"_snapshot","type":"tuple","internalType":"struct Snapshot","components":[{"name":"imageHash","type":"bytes32","internalType":"bytes32"},{"name":"checkpoint","type":"uint256","internalType":"uint256"}]}]},{"type":"error","name":"WrongChainedCheckpointOrder","inputs":[{"name":"_nextCheckpoint","type":"uint256","internalType":"uint256"},{"name":"_checkpoint","type":"uint256","internalType":"uint256"}]}],"bytecode":{"object":"0x60a034607457601f61445838819003918201601f19168301916001600160401b03831184841017607957808492602094604052833981010312607457516001600160a01b03811681036074576080526040516143c89081610090823960805181818161105e015281816113820152611b860152f35b600080fd5b634e487b7160e01b600052604160045260246000fdfe6080604052600436101561001e575b361561001c5761001c612291565b005b60003560e01c806223de291461019d578063025b22bc1461019857806313792a4a14610193578063150b7a021461018e5780631626ba7e1461018957806319822f7c146101845780631a9b23371461017f5780631f6a1eb91461017a57806329561426146101755780634fcf3eca1461017057806351605d801461016b5780636ea44577146101665780638943ec02146101615780638c3f55631461015c57806392dcb3fc146101575780639c145aed14610152578063a27c39221461014d578063a65d69d414610148578063aaf10f4214610143578063ad55366b1461013e578063b93ea7ad14610139578063bc197c8114610134578063f23a6e611461012f5763f727ef1c0361000e576116d0565b611643565b611571565b611443565b6113f7565b6113a6565b611337565b61120a565b610feb565b610f8d565b610f51565b610ecd565b610e9e565b610dfa565b610cde565b610c25565b610b14565b610ab1565b6109fc565b610974565b6108e7565b6107ea565b6102eb565b61025f565b6004359073ffffffffffffffffffffffffffffffffffffffff821682036101c557565b600080fd5b6024359073ffffffffffffffffffffffffffffffffffffffff821682036101c557565b6044359073ffffffffffffffffffffffffffffffffffffffff821682036101c557565b359073ffffffffffffffffffffffffffffffffffffffff821682036101c557565b9181601f840112156101c55782359167ffffffffffffffff83116101c557602083818601950101116101c557565b346101c55760c07ffffffffffffffffffffffffffffffffffffffffffffffffffffffffffffffffc3601126101c5576102966101a2565b5061029f6101ca565b506102a86101ed565b5060843567ffffffffffffffff81116101c5576102c9903690600401610231565b505060a43567ffffffffffffffff81116101c55761001c903690600401610231565b60207ffffffffffffffffffffffffffffffffffffffffffffffffffffffffffffffffc3601126101c55761031d6101a2565b30330361036a576020817f310ba5f1d2ed074b51e2eccd052a47ae9ab7c6b800d1fca3db3999d6a592ca0392305573ffffffffffffffffffffffffffffffffffffffff60405191168152a1005b7fa19dbf00000000000000000000000000000000000000000000000000000000006000523360045260246000fd5b7f4e487b7100000000000000000000000000000000000000000000000000000000600052604160045260246000fd5b60e0810190811067ffffffffffffffff8211176103e357604052565b610398565b6040810190811067ffffffffffffffff8211176103e357604052565b90601f7fffffffffffffffffffffffffffffffffffffffffffffffffffffffffffffffe0910116810190811067ffffffffffffffff8211176103e357604052565b6040519061045460e083610404565b565b6040519061045461012083610404565b359060ff821682036101c557565b359081151582036101c557565b67ffffffffffffffff81116103e35760051b60200190565b67ffffffffffffffff81116103e357601f017fffffffffffffffffffffffffffffffffffffffffffffffffffffffffffffffe01660200190565b9291926104df82610499565b916104ed6040519384610404565b8294818452818301116101c5578281602093846000960137010152565b9080601f830112156101c557816020610525933591016104d3565b90565b919060e0838203126101c55761053c610445565b9261054681610210565b845260208101356020850152604081013567ffffffffffffffff81116101c55760c09261057491830161050a565b60408501526060810135606085015261058f60808201610474565b60808501526105a060a08201610474565b60a0850152013560c0830152565b9080601f830112156101c55781356105c581610481565b926105d36040519485610404565b81845260208085019260051b820101918383116101c55760208201905b8382106105ff57505050505090565b813567ffffffffffffffff81116101c55760209161062287848094880101610528565b8152019101906105f0565b9080601f830112156101c557813561064481610481565b926106526040519485610404565b81845260208085019260051b8201019283116101c557602001905b82821061067a5750505090565b6020809161068784610210565b81520191019061066d565b9060407ffffffffffffffffffffffffffffffffffffffffffffffffffffffffffffffffc8301126101c55760043567ffffffffffffffff81116101c5576101207ffffffffffffffffffffffffffffffffffffffffffffffffffffffffffffffffc82850301126101c557610704610456565b9061071181600401610466565b825261071f60248201610474565b6020830152604481013567ffffffffffffffff81116101c557846004610747928401016105ae565b6040830152606481013560608301526084810135608083015260a481013567ffffffffffffffff81116101c5578460046107839284010161050a565b60a083015260c481013560c083015260e481013560e083015261010481013567ffffffffffffffff81116101c557600485916107c093010161062d565b610100820152916024359067ffffffffffffffff82116101c5576107e691600401610231565b9091565b346101c5576107f836610692565b909161010081019261081361080e8551516117d8565b6117f8565b9160005b8551805182101561087a579061087461084f61083583600195611876565b5173ffffffffffffffffffffffffffffffffffffffff1690565b6108598388611876565b9073ffffffffffffffffffffffffffffffffffffffff169052565b01610817565b505083838661088f3361085983515185611876565b5261089b818484612363565b50156108ad5760405160018152602090f35b6108e3906040519384937ff58cc8b500000000000000000000000000000000000000000000000000000000855260048501611a72565b0390fd5b346101c55760807ffffffffffffffffffffffffffffffffffffffffffffffffffffffffffffffffc3601126101c55761091e6101a2565b506109276101ca565b5060643567ffffffffffffffff81116101c557610948903690600401610231565b505060206040517f150b7a02000000000000000000000000000000000000000000000000000000008152f35b346101c55760407ffffffffffffffffffffffffffffffffffffffffffffffffffffffffffffffffc3601126101c55760043560243567ffffffffffffffff81116101c5576020916109cc6109d2923690600401610231565b91611a97565b7fffffffff0000000000000000000000000000000000000000000000000000000060405191168152f35b346101c55760607ffffffffffffffffffffffffffffffffffffffffffffffffffffffffffffffffc3601126101c55760043567ffffffffffffffff81116101c5576101207ffffffffffffffffffffffffffffffffffffffffffffffffffffffffffffffffc82360301126101c557610a7f60209160243560443591600401611b6c565b604051908152f35b7fffffffff000000000000000000000000000000000000000000000000000000008116036101c557565b346101c55760207ffffffffffffffffffffffffffffffffffffffffffffffffffffffffffffffffc3601126101c5576020610af6600435610af181610a87565b612548565b73ffffffffffffffffffffffffffffffffffffffff60405191168152f35b60407ffffffffffffffffffffffffffffffffffffffffffffffffffffffffffffffffc3601126101c55760043567ffffffffffffffff81116101c557610b5e903690600401610231565b60243567ffffffffffffffff81116101c557610b7e903690600401610231565b9160027ffc6e07e3992c7c3694a921dc9e412b6cfe475380556756a19805a9e3ddfe2fde5414610bfb57610bd59360027ffc6e07e3992c7c3694a921dc9e412b6cfe475380556756a19805a9e3ddfe2fde55611d0d565b60017ffc6e07e3992c7c3694a921dc9e412b6cfe475380556756a19805a9e3ddfe2fde55005b7f37ed32e80000000000000000000000000000000000000000000000000000000060005260046000fd5b346101c55760207ffffffffffffffffffffffffffffffffffffffffffffffffffffffffffffffffc3601126101c55760043530330361036a578015610cb4576020817f307ed6bd941ee9fc80f369c94af5fa11e25bab5102a6140191756c5474a30bfa927fea7157fa25e3aa17d0ae2d5280fa4e24d421c61842aa85e45194e1145aa72bf855604051908152a1005b7f4294d1270000000000000000000000000000000000000000000000000000000060005260046000fd5b60207ffffffffffffffffffffffffffffffffffffffffffffffffffffffffffffffffc3601126101c557600435610d1481610a87565b30330361036a5773ffffffffffffffffffffffffffffffffffffffff610d3982612548565b1615610d9f5760407fffffffff000000000000000000000000000000000000000000000000000000007f0d7fc113eaf016db4681a1ba86d083ce3e0961f321062a75ac2b0aeb33deeed19216610d9060008261323c565b815190815260006020820152a1005b7fffffffff00000000000000000000000000000000000000000000000000000000907f1c3812cc000000000000000000000000000000000000000000000000000000006000521660045260246000fd5b60009103126101c557565b346101c55760007ffffffffffffffffffffffffffffffffffffffffffffffffffffffffffffffffc3601126101c55760207fea7157fa25e3aa17d0ae2d5280fa4e24d421c61842aa85e45194e1145aa72bf854604051908152f35b60207ffffffffffffffffffffffffffffffffffffffffffffffffffffffffffffffffc8201126101c5576004359067ffffffffffffffff82116101c5576107e691600401610231565b610ea736610e55565b9030330361036a57610ebd61001c925a9261267d565b90610ec782612cc9565b906129d6565b346101c55760607ffffffffffffffffffffffffffffffffffffffffffffffffffffffffffffffffc3601126101c557610f046101a2565b5060443567ffffffffffffffff81116101c557610f25903690600401610231565b505060206040517f8943ec02000000000000000000000000000000000000000000000000000000008152f35b346101c55760207ffffffffffffffffffffffffffffffffffffffffffffffffffffffffffffffffc3601126101c5576020610a7f600435612d5d565b346101c55760207ffffffffffffffffffffffffffffffffffffffffffffffffffffffffffffffffc3601126101c5576040610fc9600435612da3565b73ffffffffffffffffffffffffffffffffffffffff8351921682526020820152f35b346101c557610ff936610e55565b9060027ffc6e07e3992c7c3694a921dc9e412b6cfe475380556756a19805a9e3ddfe2fde5414610bfb5760027ffc6e07e3992c7c3694a921dc9e412b6cfe475380556756a19805a9e3ddfe2fde5573ffffffffffffffffffffffffffffffffffffffff7f000000000000000000000000000000000000000000000000000000000000000016801561115057330361112257303b156101c5576110cc9160009160405193849283927f6ea4457700000000000000000000000000000000000000000000000000000000845260048401611e03565b038183305af1801561111d576111025760017ffc6e07e3992c7c3694a921dc9e412b6cfe475380556756a19805a9e3ddfe2fde55005b80611111600061111793610404565b80610def565b38610bd5565b611ae3565b7f1d6ddbf4000000000000000000000000000000000000000000000000000000006000523360045260246000fd5b7fd13d78350000000000000000000000000000000000000000000000000000000060005260046000fd5b9181601f840112156101c55782359167ffffffffffffffff83116101c5576020808501948460051b0101116101c557565b919082519283825260005b8481106111f55750507fffffffffffffffffffffffffffffffffffffffffffffffffffffffffffffffe0601f8460006020809697860101520116010190565b806020809284010151828286010152016111b6565b346101c55760207ffffffffffffffffffffffffffffffffffffffffffffffffffffffffffffffffc3601126101c55760043567ffffffffffffffff81116101c55761125c61126291369060040161117a565b90611f31565b60405160208101916020825280518093526040820192602060408260051b85010192019060005b8181106112965784840385f35b9091927fffffffffffffffffffffffffffffffffffffffffffffffffffffffffffffffc0858203018652835190815160068110156113085760019282602093928493526040806112f38585015160608786015260608501906111ab565b93015191015295019601910194919094611289565b7f4e487b7100000000000000000000000000000000000000000000000000000000600052602160045260246000fd5b346101c55760007ffffffffffffffffffffffffffffffffffffffffffffffffffffffffffffffffc3601126101c557602060405173ffffffffffffffffffffffffffffffffffffffff7f0000000000000000000000000000000000000000000000000000000000000000168152f35b346101c55760007ffffffffffffffffffffffffffffffffffffffffffffffffffffffffffffffffc3601126101c5576020305473ffffffffffffffffffffffffffffffffffffffff60405191168152f35b346101c55760c061141360008061140d36610692565b91612eaa565b9261141f839293613ff3565b906040519586526020860152151560408501526060840152608083015260a0820152f35b60407ffffffffffffffffffffffffffffffffffffffffffffffffffffffffffffffffc3601126101c55760043561147981610a87565b6114816101ca565b9030330361036a5773ffffffffffffffffffffffffffffffffffffffff6114a782612548565b16611521577f0d7fc113eaf016db4681a1ba86d083ce3e0961f321062a75ac2b0aeb33deeed19173ffffffffffffffffffffffffffffffffffffffff7fffffffff00000000000000000000000000000000000000000000000000000000604093169116611514818361323c565b82519182526020820152a1005b7fffffffff00000000000000000000000000000000000000000000000000000000907f5b4d6d6a000000000000000000000000000000000000000000000000000000006000521660045260246000fd5b346101c55760a07ffffffffffffffffffffffffffffffffffffffffffffffffffffffffffffffffc3601126101c5576115a86101a2565b506115b16101ca565b5060443567ffffffffffffffff81116101c5576115d290369060040161117a565b505060643567ffffffffffffffff81116101c5576115f490369060040161117a565b505060843567ffffffffffffffff81116101c557611616903690600401610231565b50506040517fbc197c81000000000000000000000000000000000000000000000000000000008152602090f35b346101c55760a07ffffffffffffffffffffffffffffffffffffffffffffffffffffffffffffffffc3601126101c55761167a6101a2565b506116836101ca565b5060843567ffffffffffffffff81116101c5576116a4903690600401610231565b505060206040517ff23a6e61000000000000000000000000000000000000000000000000000000008152f35b346101c55760607ffffffffffffffffffffffffffffffffffffffffffffffffffffffffffffffffc3601126101c55760043561170a6101ca565b604435916bffffffffffffffffffffffff83168093036101c55730330361036a578273ffffffffffffffffffffffffffffffffffffffff836117957febf265acfac1c01de588ed7ef49743b9c3ce8d6d1edeaf510a1f5453228515b1967fffffffffffffffffffffffffffffffffffffffff000000000000000000000000606097881b1617856131b8565b6040519384521660208301526040820152a1005b7f4e487b7100000000000000000000000000000000000000000000000000000000600052601160045260246000fd5b90600182018092116117e657565b6117a9565b919082018092116117e657565b9061180282610481565b61180f6040519182610404565b8281527fffffffffffffffffffffffffffffffffffffffffffffffffffffffffffffffe061183d8294610481565b0190602036910137565b7f4e487b7100000000000000000000000000000000000000000000000000000000600052603260045260246000fd5b805182101561188a5760209160051b010190565b611847565b9080602083519182815201916020808360051b8301019401926000915b8383106118bb57505050505090565b9091929394602080827fffffffffffffffffffffffffffffffffffffffffffffffffffffffffffffffe0856001950301865288519073ffffffffffffffffffffffffffffffffffffffff8251168152828201518382015260c08061192e604085015160e0604086015260e08501906111ab565b936060810151606085015260808101511515608085015260a0810151151560a08501520151910152970193019301919392906118ac565b906020808351928381520192019060005b8181106119835750505090565b825173ffffffffffffffffffffffffffffffffffffffff16845260209384019390920191600101611976565b805160ff16825261052591602082810151151590820152610100611a0d6119e76040850151610120604086015261012085019061188f565b606085015160608501526080850151608085015260a085015184820360a08601526111ab565b9260c081015160c084015260e081015160e0840152015190610100818403910152611965565b601f82602094937fffffffffffffffffffffffffffffffffffffffffffffffffffffffffffffffe0938186528686013760008582860101520116010190565b91611a8961052594926040855260408501906119af565b926020818503910152611a33565b90611ab49291611aa56124ed565b906003825260e0820152612363565b5015611ade577f1626ba7e0000000000000000000000000000000000000000000000000000000090565b600090565b6040513d6000823e3d90fd5b9035907fffffffffffffffffffffffffffffffffffffffffffffffffffffffffffffffe1813603018212156101c5570180359067ffffffffffffffff82116101c5576020019181360383136101c557565b908160209103126101c5575161052581610a87565b604090610525949281528160208201520191611a33565b91909173ffffffffffffffffffffffffffffffffffffffff7f000000000000000000000000000000000000000000000000000000000000000016918215611150578233036111225780611c9e575b506020915080610100611bce920190611aef565b92611c0660405194859384937f1626ba7e00000000000000000000000000000000000000000000000000000000855260048501611b55565b0381305afa90811561111d577f1626ba7e00000000000000000000000000000000000000000000000000000000917fffffffff0000000000000000000000000000000000000000000000000000000091600091611c6f575b501603611c6a57600090565b600190565b611c91915060203d602011611c97575b611c898183610404565b810190611b40565b38611c5e565b503d611c7f565b823b156101c5576040517fb760faf900000000000000000000000000000000000000000000000000000000815230600482015292600091849160249183915af190811561111d57602092611bce92611cf8575b5090611bba565b806111116000611d0793610404565b38611cf1565b91939290611d1c905a9361267d565b9160608301516080840151611d3082612d5d565b818103611dcf57509060017f1f180c27086c7a39ea2a7b25239d1ab92348f07ca7bb59d1438fcf527568f881920190611d6982826131fd565b604080519182526020820192909252a1611d84828685612363565b929015611d9757506104549394506129d6565b836108e387926040519384937fa2b6d61b00000000000000000000000000000000000000000000000000000000855260048501611a72565b917f9b6514f40000000000000000000000000000000000000000000000000000000060005260045260245260445260646000fd5b916020610525938181520191611a33565b90611e1e82610481565b611e2b6040519182610404565b8281527fffffffffffffffffffffffffffffffffffffffffffffffffffffffffffffffe0611e598294610481565b0160005b818110611e6957505050565b60405190606082019180831067ffffffffffffffff8411176103e357602092604052600081526060838201526000604082015282828601015201611e5d565b919081101561188a5760051b810135907fffffffffffffffffffffffffffffffffffffffffffffffffffffffffffffff21813603018212156101c5570190565b610525903690610528565b919082039182116117e657565b909260c092610525959460008452602084015260408301526060820152600060808201528160a082015201906111ab565b90915a92600090611f4181611e14565b94825b828110611f54575b505050509050565b611f67611f62828589611ea8565b611ee8565b93611f7560a0860151151590565b80612259575b61224f57506000936060810151801590811580612246575b6121d55783611fa56080850151151590565b15612176576120509061205892935a94611fd3875173ffffffffffffffffffffffffffffffffffffffff1690565b911561217057505a905b61204b8961201f60408a01518d6040519788947f4c4e814c00000000000000000000000000000000000000000000000000000000602087015260248601611f00565b037fffffffffffffffffffffffffffffffffffffffffffffffffffffffffffffffe08101855284610404565b612e0f565b915a90611ef3565b6040612064858c611876565b5101525b156120a4575b508061208661207f6001938a611876565b5160019052565b61208e612e21565b602061209a838b611876565b5101525b01611f44565b60c00180511561213957600181511461210057516002146120c5573861206e565b9394505050506120df6120d88285611876565b5160039052565b60206120f36120ec612e21565b9285611876565b5101528038808080611f4c565b50939580955061211f93506121189250849150611876565b5160049052565b602061213361212c612e21565b9284611876565b51015290565b5092506001809361215461214d828a611876565b5160029052565b61215c612e21565b6020612168838b611876565b51015261209e565b90611fdd565b506120506121bb915a9361219e865173ffffffffffffffffffffffffffffffffffffffff1690565b916020870151916000146121cf57505a905b604087015192612dfd565b60406121c7858c611876565b510152612068565b906121b0565b50505090508594506020925061213391506121fe6121f7826122149698611876565b5160059052565b6122405a60405185810191825295869160200190565b037fffffffffffffffffffffffffffffffffffffffffffffffffffffffffffffffe08101865285610404565b84611876565b50805a10611f93565b935060019061209e565b508015611f7b565b3d1561228c573d9061227282610499565b916122806040519384610404565b82523d6000602084013e565b606090565b60043610801561229e5750565b6122d4906000357fffffffff00000000000000000000000000000000000000000000000000000000811691612326575b50612548565b73ffffffffffffffffffffffffffffffffffffffff81166122f25750565b60008091604051368382378036810184815203915af4612310612261565b901561231e57602081519101f35b602081519101fd5b7fffffffff000000000000000000000000000000000000000000000000000000008092503660040360031b1b1616386122ce565b901561188a5790565b91907f8000000000000000000000000000000000000000000000000000000000000000806123ba612394858561235a565b357fff000000000000000000000000000000000000000000000000000000000000001690565b16146124195760009182916123ce94612eaa565b9050919091928082106123e95750506123e690613ff3565b91565b7ffd41fcba0000000000000000000000000000000000000000000000000000000060005260045260245260446000fd5b505061242490612cc9565b9061242e82612da3565b428111156124bb575073ffffffffffffffffffffffffffffffffffffffff811680151590816124b0575b50612464575060019190565b7f8945c3130000000000000000000000000000000000000000000000000000000060005260048390523360245273ffffffffffffffffffffffffffffffffffffffff1660445260646000fd5b905033141538612458565b7ff95b6ab700000000000000000000000000000000000000000000000000000000600052600484905260245260446000fd5b60405190610120820182811067ffffffffffffffff8211176103e3576040526060610100836000815260006020820152826040820152600083820152600060808201528260a0820152600060c0820152600060e08201520152565b73ffffffffffffffffffffffffffffffffffffffff906040517fffffffff0000000000000000000000000000000000000000000000000000000060208201927fbe27a319efc8734e89e26ba4bc95f5c788584163b959f03fa04e2d7ab4b9a1208452166040820152604081526125bf606082610404565b519020541690565b906125d182610481565b6125de6040519182610404565b8281527fffffffffffffffffffffffffffffffffffffffffffffffffffffffffffffffe061260c8294610481565b019060005b82811061261d57505050565b60209060405161262c816103c7565b60008152600083820152606060408201526000606082015260006080820152600060a0820152600060c082015282828501015201612611565b909392938483116101c55784116101c5578101920390565b9190916126886124ed565b6000815292600190823560f81c827fffffffffffffffffffffffffffffffffffffffffffffffffffffffffffffffff8183160161292a5750600060608701525b60076126d760ff831660011c90565b16806128d9575b506010818116036128a457506001925b6126f7846125c7565b92604087019384526000905b85821061271257505050505050565b8281013560f81c9060010190918160018085160361288257506127563061273a838951611876565b519073ffffffffffffffffffffffffffffffffffffffff169052565b600280841614612862575b600480841614612814575b6008808416146127e1575b6127ca6127c460c0856127a38a608061279a8860108060019c9d16149351611876565b51019015159052565b6127ba8a60a061279a886020808716149351611876565b1660061c60031690565b60ff1690565b60c06127d7838951611876565b5101520190612703565b6001916127ca906127c49060c090878101359060200196906060612806878d51611876565b510152959450505050612777565b9061285c908481013560e81c9060030161285561283c61283484846117eb565b838a8a612665565b9190604061284b888d51611876565b51019236916104d3565b90526117eb565b9061276c565b9083810135906020019190602061287a838951611876565b510152612761565b61289f92508481013560601c90601401929061273a838951611876565b612756565b6020908116036128c65761ffff918381013560f01c906002015b9216926126ee565b60ff918381013560f81c906001016128be565b61291d919385929190928160031b7fffffffffffffffffffffffffffffffffffffffffffffffffffffffffffffffff6001821b019185013590610100031c16920190565b92906080870152386126de565b80850135606090811c9088015260140192506126c8565b612959604092959493956060835260608301906119af565b9460208201520152565b9261052596959260c09592855260208501526040840152606083015260808201528160a082015201906111ab565b61052593926060928252602082015281604082015201906111ab565b6129c361052594926060835260608301906119af565b92602082015260408184039101526111ab565b916000604082019384515190825b8281106129f5575b50505050505050565b612a00818851611876565b5193612a0f60a0860151151590565b80612cc1575b612c81575060009360608101518015801580612c78575b612c40578490612a3f6080850151151590565b15612bfa57612ab992612a66855173ffffffffffffffffffffffffffffffffffffffff1690565b9115612bf457505a905b61204b8b61201f60608d01516040890151908c8b604051998a967f4c4e814c00000000000000000000000000000000000000000000000000000000602089015260248801612963565b15612afc575b506040805187815260208101839052600192917f5a589b1d8062f33451d29cae3dabd9b2e36c62aee644178c600977ca8dda661a91a15b016129e4565b60c001805115612bab576001815114612b6c5751600214612b1d5738612abf565b9493505050507fc2c704302430fe0dc8d95f272e2f4e54bbbc51a3327fd5d75ab41f9fc8fd129b9250612b5d612b51612e21565b60405193849384612991565b0390a1388080808080806129ec565b50846108e3612b79612e21565b6040519384937f7f6b0bb1000000000000000000000000000000000000000000000000000000008552600485016129ad565b509250600180937f115f347c00e69f252cd6b63c4f81022a9564c6befe8aa719cb74640a4a306f0d612bec612bde612e21565b604051918291858c84612991565b0390a1612af6565b90612a70565b8351612c3593925073ffffffffffffffffffffffffffffffffffffffff1691602085015191600014612c3a57505a905b604085015192612dfd565b612ab9565b90612c2a565b83886108e35a6040519384937f2139527400000000000000000000000000000000000000000000000000000000855260048501612941565b50815a10612a2c565b6040805188815260208101849052919550600192917f9ae934bf8a986157c889a24c3b3fa85e74b7e4ee4b1f8fc6e7362cb4c1d19d8b9181908101612bec565b508015612a15565b612d2b612d57612ce9612ce360208501511515309061327b565b93613376565b60405192839160208301958690916042927f19010000000000000000000000000000000000000000000000000000000000008352600283015260228201520190565b037fffffffffffffffffffffffffffffffffffffffffffffffffffffffffffffffe08101835282610404565b51902090565b60405160208101917f8d0bf1fd623d628c741362c1289948e57b3e2905218c676d3e69abee36d6ae2e8352604082015260408152612d9c606082610404565b5190205490565b60405160208101917fc852adf5e97c2fc3b38f405671e91b7af1697ef0287577f227ef10494c2a8e868352604082015260408152612de2606082610404565b51902054906bffffffffffffffffffffffff8260601c921690565b9160009391849360208451940192f190565b9160009291839260208351930191f490565b3d90604051916020818401016040528083526000602084013e565b60405190612e49826103e8565b60006020838281520152565b908160409103126101c557602060405191612e6f836103e8565b805183520151602082015290565b60409073ffffffffffffffffffffffffffffffffffffffff610525949316815281602082015201906111ab565b909491939291853560f81c60019093819087612ec4612e3c565b936040808916148061319a575b61309d575b5050506001808616146130775760028581161460208501526007600286901c1688820135600382901b6101008190039190911c600190911b7fffffffffffffffffffffffffffffffffffffffffffffffffffffffffffffffff01169101908096918196602016612f469060051c90565b612f4f906117d8565b8a820135600382901b6101008190039190911c600190911b7fffffffffffffffffffffffffffffffffffffffffffffffffffffffffffffffff01169101959098899a81612f9b84612cc9565b988993612fa793612665565b91612fb19361378d565b9098612fc591600052602052604060002090565b90612fd891600052602052604060002090565b9073ffffffffffffffffffffffffffffffffffffffff1661300191600052602052604060002090565b9481519086821515928361306c575b50508161305d575b506130205750565b6040517fccbb534f000000000000000000000000000000000000000000000000000000008152815160048201526020909101516024820152604490fd5b90506020820151101538613018565b141591508638613010565b86613092979294955061308a9398612665565b93909261356b565b919394909293929190565b8a81013560601c985060140192509087908a908490156130c1575b50829150612ed6565b60038101955073ffffffffffffffffffffffffffffffffffffffff945081013560e81c9260409261314492909161310f9161310891899061310289836117eb565b92612665565b36916104d3565b83519586809481937fccce3bc80000000000000000000000000000000000000000000000000000000083523060048401612e7d565b0392165afa801561111d576131629260009161316b575b50926117eb565b863889816130b8565b61318d915060403d604011613193575b6131858183610404565b810190612e55565b3861315b565b503d61317b565b5073ffffffffffffffffffffffffffffffffffffffff891615612ed1565b60405160208101917fc852adf5e97c2fc3b38f405671e91b7af1697ef0287577f227ef10494c2a8e8683526040820152604081526131f7606082610404565b51902055565b60405160208101917f8d0bf1fd623d628c741362c1289948e57b3e2905218c676d3e69abee36d6ae2e83526040820152604081526131f7606082610404565b60405160208101917fbe27a319efc8734e89e26ba4bc95f5c788584163b959f03fa04e2d7ab4b9a12083526040820152604081526131f7606082610404565b1561332b576000905b73ffffffffffffffffffffffffffffffffffffffff6040519160208301937f8b73c3c69bb8fe3d512ecc4cf759cc79239f7b179b0ffacaa9a75d522b39400f85527f4aa45ca7ad825ceb1bf35643f0a58c295239df563b1b565c2485f96477c5631860408501527f2a80e1ef1d7842f27f2e6be0972bb708b9a135c38860dbe73c27c3486c34f4de606085015260808401521660a082015260a08152612d5760c082610404565b4690613284565b805160209091019060005b81811061334a5750505090565b825173ffffffffffffffffffffffffffffffffffffffff1684526020938401939092019160010161333d565b61010081015160405161339181612d2b602082018095613332565b519020906133a0815160ff1690565b60ff81168061341957505090612d576133bc6040840151614056565b92612d2b60806060830151920151936040519485936020850197889094939260809260a08301967f11e1e4079a79a66e4ade50033cfe2678cdd5341d2dfe5ef9513edb1a0be147a284526020840152604083015260608201520152565b6001810361347757505060a001518051602091820120604080517fe19a3b94fc3c7ece3f890d98a99bc422615537a08dea0603fa8425867d87d46693810193845290810191909152606081019290925290612d578160808101612d2b565b600281036134cd57505060c00151604080517f11fdeb7e8373a1aa96bfac8d0ea91526b2c5d15e5cee20e0543e780258f3e8e460208201908152918101929092526060820192909252612d578160808101612d2b565b600303613521575060e00151604080517fe19a3b94fc3c7ece3f890d98a99bc422615537a08dea0603fa8425867d87d46660208201908152918101929092526060820192909252612d578160808101612d2b565b7f048183200000000000000000000000000000000000000000000000000000000060005260ff1660045260246000fd5b906129599060409396959496606084526060840191611a33565b91949290926000956000956000956000956000956135876124ed565b60028152937fffffffffffffffffffffffffffffffffffffffffffffffffffffffffffffffff9460005b8281106135de575050505050505080511515806135d0575b6130205750565b5060208101518411156135c9565b600381019d50959b5093995091975092909190613602908b9085013560e81c6117eb565b958a6000848903613746575089915b7fffffffffffffffffffffffffffffffffffffffffffffffffffffffffffffffff8c03613716575090600161364b89613652948789612665565b908b612eaa565b9c939c9b929b9a919a99909a9b9d8e9d9e8f905b106136d05750928b8851146136c7575b808b101561369557508a60c085015289929592959491949390936135b1565b7f37daf62b0000000000000000000000000000000000000000000000000000000060005260048b905260245260446000fd5b60008852613676565b8d8f6108e36136e185858c8e612665565b9390926040519485947fb006aba000000000000000000000000000000000000000000000000000000000865260048601613551565b9798999a91600161372c8b61373394888a612665565b9086612eaa565b50929d919c909b929a9092918e8e613666565b91613611565b73ffffffffffffffffffffffffffffffffffffffff610525959360609383521660208201528160408201520191611a33565b908160209103126101c5575190565b9391909360009460009460005b8181106137a8575050505050565b8481013560f881901c9860019092019788979692909160fc1c988915613f8c575060018914613f4c5760028914613d8f5760038914613d605760048914613cdf5760068914613c3f5760058914613bf15760078914613b2a5760088914613ad457600989146139ab57600a8914613848577fb2505f7c00000000000000000000000000000000000000000000000000000000600052600489905260246000fd5b9091929394959697506003891697881561399a575b8381013560601c90601401909960021c60031660ff1684820135600382901b6101008190039190911c600190911b7fffffffffffffffffffffffffffffffffffffffffffffffffffffffffffffffff0116910190810190816138c0918787612665565b6040517f898bd921000000000000000000000000000000000000000000000000000000008152939184916138f8918a60048501611b55565b038373ffffffffffffffffffffffffffffffffffffffff8d1691815a93602094fa91821561111d5761393b93600093613967575b5060ff909a168091019a614322565b908015613961579061395591600052602052604060002090565b955b939291909361379a565b50613955565b60ff91935061398c9060203d8111613993575b6139848183610404565b81019061377e565b929061392c565b503d61397a565b8084013560f81c985060010161385d565b90919293949596975060038916978815613ac3575b8381013560601c90601401909960021c60031660ff1684820135600382901b6101008190039190911c600190911b7fffffffffffffffffffffffffffffffffffffffffffffffffffffffffffffffff011691019081019081613a23918787612665565b6040517f13792a4a00000000000000000000000000000000000000000000000000000000815293918491613a5b918b60048501611a72565b038373ffffffffffffffffffffffffffffffffffffffff8d1691815a93602094fa91821561111d57613a9d93600093613967575060ff909a168091019a614322565b908015613abd5790613ab791600052602052604060002090565b95613957565b50613ab7565b8084013560f81c98506001016139c0565b985060208701975094959394929391929091820135613af2866142c9565b8114613b02575b613a9d906142e3565b7fffffffffffffffffffffffffffffffffffffffffffffffffffffffffffffffff9850613af9565b975090919293949597600f16968715613bdf575b60206000613b50613bbd9a9b86614191565b9c9092918a604051613b9381612d2b8a82019485603c917f19457468657265756d205369676e6564204d6573736167653a0a3332000000008252601c8201520190565b51902092604051948594859094939260ff6060936080840197845216602083015260408201520152565b838052039060015afa1561111d57613a9d9060ff6000519a16809101996141d4565b600189019883013560f81c9750613b3e565b985060208701975094959394929391929091820135808514613c17575b613a9d9061428a565b7fffffffffffffffffffffffffffffffffffffffffffffffffffffffffffffffff9850613c0e565b989091929394959662ffffff9850613c616127c4600c8416603f9060021c1690565b918215613ccb575b6003168015613cba575b908190613c9e90613c96908781013560e81c906003019c168c01809c8989612665565b90898b61378d565b911115613cb1575b90613a9d929161423f565b99820199613ca6565b50600281019084013560f01c613c73565b8482013560f81c9250600190910190613c69565b975097613d35613d42929394959697600f613d4a93169085929190928160031b7fffffffffffffffffffffffffffffffffffffffffffffffffffffffffffffffff6001821b019185013590610100031c16920190565b9290830180938686612665565b90868861378d565b90613ab792980198600052602052604060002090565b985096509394929391929091908082013590602001968015613abd5790613ab791600052602052604060002090565b90919293949596975060038916978815613f3b575b8084013560601c99613e039160140190613dc39060021c6003166127c4565b9085929190928160031b7fffffffffffffffffffffffffffffffffffffffffffffffffffffffffffffffff6001821b019185013590610100031c16920190565b90810190613e6760208c613e1985858b8b612665565b919073ffffffffffffffffffffffffffffffffffffffff8c604051968795869485937f1626ba7e00000000000000000000000000000000000000000000000000000000855260048501611b55565b0392165afa90811561111d577f1626ba7e00000000000000000000000000000000000000000000000000000000917fffffffff0000000000000000000000000000000000000000000000000000000091600091613f1d575b501603613ed957509060ff613a9d929916809101996141d4565b6108e3613eea8c9389938989612665565b906040519485947fb2fed7ae0000000000000000000000000000000000000000000000000000000086526004860161374c565b613f35915060203d8111611c9757611c898183610404565b38613ebf565b8381013560f81c9850600101613da4565b98600f91929394959697985016968715613f7b575b6014810197613a9d9160ff9091169084013560601c6141d4565b8281013560f81c9750600101613f61565b98509091929394959698600f16978815613fde575b5060206000613fb4613bbd9a9b86614191565b9c90916040519384938c859094939260ff6060936080840197845216602083015260408201520152565b60018101995083013560f81c97506020613fa1565b8015159081614000575090565b90507fea7157fa25e3aa17d0ae2d5280fa4e24d421c61842aa85e45194e1145aa72bf8541490565b805160209091019060005b8181106140405750505090565b8251845260209384019390920191600101614033565b9081517fffffffffffffffffffffffffffffffffffffffffffffffffffffffffffffffe061409c61408683610481565b926140946040519485610404565b808452610481565b0136602083013760005b835181101561417857806140bc60019286611876565b5173ffffffffffffffffffffffffffffffffffffffff81511690602081015190604081015160208151910120906060810151608082015115159060c060a08401511515930151936040519560208701977f0603985259a953da1f65a522f589c17bd1d0117ec1d3abb7c0788aef251ef437895260408801526060870152608086015260a085015260c084015260e0830152610100820152610100815261416461012082610404565b5190206141718285611876565b52016140a6565b50909150604051612d5781612d2b602082018095614028565b8101916040602084359401359201601b7f7fffffffffffffffffffffffffffffffffffffffffffffffffffffffffffffff84169360ff1c0160ff81116117e65791565b90604051907fffffffffffffffffffffffffffffffffffffffff00000000000000000000000060208301937f53657175656e6365207369676e65723a0a000000000000000000000000000000855260601b166031830152604582015260458152612d57606582610404565b916040519160208301937f53657175656e6365206e657374656420636f6e6669673a0a0000000000000000855260388401526058830152607882015260788152612d57609882610404565b60405160208101917f53657175656e636520737461746963206469676573743a0a00000000000000008352603882015260388152612d57605882610404565b612d2b612d57612ce9612ce360006020860151151561327b565b60405160208101917f53657175656e636520616e792061646472657373207375626469676573743a0a8352604082015260408152612d57606082610404565b91604051917fffffffffffffffffffffffffffffffffffffffff00000000000000000000000060208401947f53657175656e63652073617069656e7420636f6e6669673a0a00000000000000865260601b166039840152604d830152606d820152606d8152612d57608d8261040456fea26469706673582212208572f55a41b77b00b5ead7027bffa818d3e46693b20563e6d58b8f3f90f137fc64736f6c634300081c0033","linkReferences":{}},"methodIdentifiers":{"addHook(bytes4,address)":"b93ea7ad","entrypoint()":"a65d69d4","execute(bytes,bytes)":"1f6a1eb9","executeUserOp(bytes)":"9c145aed","getImplementation()":"aaf10f42","getStaticSignature(bytes32)":"92dcb3fc","imageHash()":"51605d80","isValidSignature(bytes32,bytes)":"1626ba7e","onERC1155BatchReceived(address,address,uint256[],uint256[],bytes)":"bc197c81","onERC1155Received(address,address,uint256,uint256,bytes)":"f23a6e61","onERC721Received(address,address,uint256,bytes)":"150b7a02","readHook(bytes4)":"1a9b2337","readNonce(uint256)":"8c3f5563","recoverPartialSignature((uint8,bool,(address,uint256,bytes,uint256,bool,bool,uint256)[],uint256,uint256,bytes,bytes32,bytes32,address[]),bytes)":"ad55366b","recoverSapientSignature((uint8,bool,(address,uint256,bytes,uint256,bool,bool,uint256)[],uint256,uint256,bytes,bytes32,bytes32,address[]),bytes)":"13792a4a","removeHook(bytes4)":"4fcf3eca","selfExecute(bytes)":"6ea44577","setStaticSignature(bytes32,address,uint96)":"f727ef1c","simulate((address,uint256,bytes,uint256,bool,bool,uint256)[])":"a27c3922","tokenReceived(address,uint256,bytes)":"8943ec02","tokensReceived(address,address,address,uint256,bytes,bytes)":"0023de29","updateImageHash(bytes32)":"29561426","updateImplementation(address)":"025b22bc","validateUserOp((address,uint256,bytes,bytes,bytes32,uint256,bytes32,bytes,bytes),bytes32,uint256)":"19822f7c"},"id":45}