{
  "_format": "hh-sol-artifact-1",
  "contractName": "Stage1Module",
  "sourceName": "src/Stage1Module.sol",
  "abi": [
    {
      "inputs": [
        {
          "internalType": "address",
          "name": "_factory",
          "type": "address"
        }
      ],
      "stateMutability": "nonpayable",
      "type": "constructor"
    },
    {
      "inputs": [
        {
          "internalType": "uint256",
          "name": "_space",
          "type": "uint256"
        },
        {
          "internalType": "uint256",
          "name": "_provided",
          "type": "uint256"
        },
        {
          "internalType": "uint256",
          "name": "_current",
          "type": "uint256"
        }
      ],
      "name": "BadNonce",
      "type": "error"
    },
    {
      "inputs": [
        {
          "internalType": "bytes4",
          "name": "signature",
          "type": "bytes4"
        }
      ],
      "name": "HookAlreadyExists",
      "type": "error"
    },
    {
      "inputs": [
        {
          "internalType": "bytes4",
          "name": "signature",
          "type": "bytes4"
        }
      ],
      "name": "HookDoesNotExist",
      "type": "error"
    },
    {
      "inputs": [],
      "name": "ImageHashIsZero",
      "type": "error"
    },
    {
      "inputs": [
        {
          "internalType": "bytes32",
          "name": "_opHash",
          "type": "bytes32"
        },
        {
          "internalType": "address",
          "name": "_signer",
          "type": "address"
        },
        {
          "internalType": "bytes",
          "name": "_signature",
          "type": "bytes"
        }
      ],
      "name": "InvalidERC1271Signature",
      "type": "error"
    },
    {
      "inputs": [
        {
          "internalType": "uint8",
          "name": "kind",
          "type": "uint8"
        }
      ],
      "name": "InvalidKind",
      "type": "error"
    },
    {
      "inputs": [
        {
          "components": [
            {
              "internalType": "uint8",
              "name": "kind",
              "type": "uint8"
            },
            {
              "internalType": "bool",
              "name": "noChainId",
              "type": "bool"
            },
            {
              "components": [
                {
                  "internalType": "address",
                  "name": "to",
                  "type": "address"
                },
                {
                  "internalType": "uint256",
                  "name": "value",
                  "type": "uint256"
                },
                {
                  "internalType": "bytes",
                  "name": "data",
                  "type": "bytes"
                },
                {
                  "internalType": "uint256",
                  "name": "gasLimit",
                  "type": "uint256"
                },
                {
                  "internalType": "bool",
                  "name": "delegateCall",
                  "type": "bool"
                },
                {
                  "internalType": "bool",
                  "name": "onlyFallback",
                  "type": "bool"
                },
                {
                  "internalType": "uint256",
                  "name": "behaviorOnError",
                  "type": "uint256"
                }
              ],
              "internalType": "struct Payload.Call[]",
              "name": "calls",
              "type": "tuple[]"
            },
            {
              "internalType": "uint256",
              "name": "space",
              "type": "uint256"
            },
            {
              "internalType": "uint256",
              "name": "nonce",
              "type": "uint256"
            },
            {
              "internalType": "bytes",
              "name": "message",
              "type": "bytes"
            },
            {
              "internalType": "bytes32",
              "name": "imageHash",
              "type": "bytes32"
            },
            {
              "internalType": "bytes32",
              "name": "digest",
              "type": "bytes32"
            },
            {
              "internalType": "address[]",
              "name": "parentWallets",
              "type": "address[]"
            }
          ],
          "internalType": "struct Payload.Decoded",
          "name": "_payload",
          "type": "tuple"
        },
        {
          "internalType": "bytes",
          "name": "_signature",
          "type": "bytes"
        }
      ],
      "name": "InvalidSapientSignature",
      "type": "error"
    },
    {
      "inputs": [
        {
          "components": [
            {
              "internalType": "uint8",
              "name": "kind",
              "type": "uint8"
            },
            {
              "internalType": "bool",
              "name": "noChainId",
              "type": "bool"
            },
            {
              "components": [
                {
                  "internalType": "address",
                  "name": "to",
                  "type": "address"
                },
                {
                  "internalType": "uint256",
                  "name": "value",
                  "type": "uint256"
                },
                {
                  "internalType": "bytes",
                  "name": "data",
                  "type": "bytes"
                },
                {
                  "internalType": "uint256",
                  "name": "gasLimit",
                  "type": "uint256"
                },
                {
                  "internalType": "bool",
                  "name": "delegateCall",
                  "type": "bool"
                },
                {
                  "internalType": "bool",
                  "name": "onlyFallback",
                  "type": "bool"
                },
                {
                  "internalType": "uint256",
                  "name": "behaviorOnError",
                  "type": "uint256"
                }
              ],
              "internalType": "struct Payload.Call[]",
              "name": "calls",
              "type": "tuple[]"
            },
            {
              "internalType": "uint256",
              "name": "space",
              "type": "uint256"
            },
            {
              "internalType": "uint256",
              "name": "nonce",
              "type": "uint256"
            },
            {
              "internalType": "bytes",
              "name": "message",
              "type": "bytes"
            },
            {
              "internalType": "bytes32",
              "name": "imageHash",
              "type": "bytes32"
            },
            {
              "internalType": "bytes32",
              "name": "digest",
              "type": "bytes32"
            },
            {
              "internalType": "address[]",
              "name": "parentWallets",
              "type": "address[]"
            }
          ],
          "internalType": "struct Payload.Decoded",
          "name": "_payload",
          "type": "tuple"
        },
        {
          "internalType": "bytes",
          "name": "_signature",
          "type": "bytes"
        }
      ],
      "name": "InvalidSignature",
      "type": "error"
    },
    {
      "inputs": [
        {
          "internalType": "uint256",
          "name": "_flag",
          "type": "uint256"
        }
      ],
      "name": "InvalidSignatureFlag",
      "type": "error"
    },
    {
      "inputs": [
        {
          "internalType": "bytes1",
          "name": "_type",
          "type": "bytes1"
        }
      ],
      "name": "InvalidSignatureType",
      "type": "error"
    },
    {
      "inputs": [
        {
          "internalType": "uint256",
          "name": "_threshold",
          "type": "uint256"
        },
        {
          "internalType": "uint256",
          "name": "_weight",
          "type": "uint256"
        }
      ],
      "name": "InvalidSignatureWeight",
      "type": "error"
    },
    {
      "inputs": [
        {
          "internalType": "bytes32",
          "name": "_opHash",
          "type": "bytes32"
        },
        {
          "internalType": "uint256",
          "name": "_expires",
          "type": "uint256"
        }
      ],
      "name": "InvalidStaticSignatureExpired",
      "type": "error"
    },
    {
      "inputs": [
        {
          "internalType": "bytes32",
          "name": "_opHash",
          "type": "bytes32"
        },
        {
          "internalType": "address",
          "name": "_caller",
          "type": "address"
        },
        {
          "internalType": "address",
          "name": "_expectedCaller",
          "type": "address"
        }
      ],
      "name": "InvalidStaticSignatureWrongCaller",
      "type": "error"
    },
    {
      "inputs": [
        {
          "internalType": "bytes",
          "name": "_signature",
          "type": "bytes"
        },
        {
          "internalType": "uint256",
          "name": "_threshold",
          "type": "uint256"
        },
        {
          "internalType": "uint256",
          "name": "_weight",
          "type": "uint256"
        }
      ],
      "name": "LowWeightChainedSignature",
      "type": "error"
    },
    {
      "inputs": [
        {
          "components": [
            {
              "internalType": "uint8",
              "name": "kind",
              "type": "uint8"
            },
            {
              "internalType": "bool",
              "name": "noChainId",
              "type": "bool"
            },
            {
              "components": [
                {
                  "internalType": "address",
                  "name": "to",
                  "type": "address"
                },
                {
                  "internalType": "uint256",
                  "name": "value",
                  "type": "uint256"
                },
                {
                  "internalType": "bytes",
                  "name": "data",
                  "type": "bytes"
                },
                {
                  "internalType": "uint256",
                  "name": "gasLimit",
                  "type": "uint256"
                },
                {
                  "internalType": "bool",
                  "name": "delegateCall",
                  "type": "bool"
                },
                {
                  "internalType": "bool",
                  "name": "onlyFallback",
                  "type": "bool"
                },
                {
                  "internalType": "uint256",
                  "name": "behaviorOnError",
                  "type": "uint256"
                }
              ],
              "internalType": "struct Payload.Call[]",
              "name": "calls",
              "type": "tuple[]"
            },
            {
              "internalType": "uint256",
              "name": "space",
              "type": "uint256"
            },
            {
              "internalType": "uint256",
              "name": "nonce",
              "type": "uint256"
            },
            {
              "internalType": "bytes",
              "name": "message",
              "type": "bytes"
            },
            {
              "internalType": "bytes32",
              "name": "imageHash",
              "type": "bytes32"
            },
            {
              "internalType": "bytes32",
              "name": "digest",
              "type": "bytes32"
            },
            {
              "internalType": "address[]",
              "name": "parentWallets",
              "type": "address[]"
            }
          ],
          "internalType": "struct Payload.Decoded",
          "name": "_payload",
          "type": "tuple"
        },
        {
          "internalType": "uint256",
          "name": "_index",
          "type": "uint256"
        },
        {
          "internalType": "uint256",
          "name": "_gasLeft",
          "type": "uint256"
        }
      ],
      "name": "NotEnoughGas",
      "type": "error"
    },
    {
      "inputs": [
        {
          "internalType": "address",
          "name": "_sender",
          "type": "address"
        }
      ],
      "name": "OnlySelf",
      "type": "error"
    },
    {
      "inputs": [
        {
          "components": [
            {
              "internalType": "uint8",
              "name": "kind",
              "type": "uint8"
            },
            {
              "internalType": "bool",
              "name": "noChainId",
              "type": "bool"
            },
            {
              "components": [
                {
                  "internalType": "address",
                  "name": "to",
                  "type": "address"
                },
                {
                  "internalType": "uint256",
                  "name": "value",
                  "type": "uint256"
                },
                {
                  "internalType": "bytes",
                  "name": "data",
                  "type": "bytes"
                },
                {
                  "internalType": "uint256",
                  "name": "gasLimit",
                  "type": "uint256"
                },
                {
                  "internalType": "bool",
                  "name": "delegateCall",
                  "type": "bool"
                },
                {
                  "internalType": "bool",
                  "name": "onlyFallback",
                  "type": "bool"
                },
                {
                  "internalType": "uint256",
                  "name": "behaviorOnError",
                  "type": "uint256"
                }
              ],
              "internalType": "struct Payload.Call[]",
              "name": "calls",
              "type": "tuple[]"
            },
            {
              "internalType": "uint256",
              "name": "space",
              "type": "uint256"
            },
            {
              "internalType": "uint256",
              "name": "nonce",
              "type": "uint256"
            },
            {
              "internalType": "bytes",
              "name": "message",
              "type": "bytes"
            },
            {
              "internalType": "bytes32",
              "name": "imageHash",
              "type": "bytes32"
            },
            {
              "internalType": "bytes32",
              "name": "digest",
              "type": "bytes32"
            },
            {
              "internalType": "address[]",
              "name": "parentWallets",
              "type": "address[]"
            }
          ],
          "internalType": "struct Payload.Decoded",
          "name": "_payload",
          "type": "tuple"
        },
        {
          "internalType": "uint256",
          "name": "_index",
          "type": "uint256"
        },
        {
          "internalType": "bytes",
          "name": "_returnData",
          "type": "bytes"
        }
      ],
      "name": "Reverted",
      "type": "error"
    },
    {
      "inputs": [
        {
          "components": [
            {
              "internalType": "bytes32",
              "name": "imageHash",
              "type": "bytes32"
            },
            {
              "internalType": "uint256",
              "name": "checkpoint",
              "type": "uint256"
            }
          ],
          "internalType": "struct Snapshot",
          "name": "_snapshot",
          "type": "tuple"
        }
      ],
      "name": "UnusedSnapshot",
      "type": "error"
    },
    {
      "inputs": [
        {
          "internalType": "uint256",
          "name": "_nextCheckpoint",
          "type": "uint256"
        },
        {
          "internalType": "uint256",
          "name": "_checkpoint",
          "type": "uint256"
        }
      ],
      "name": "WrongChainedCheckpointOrder",
      "type": "error"
    },
    {
      "anonymous": false,
      "inputs": [
        {
          "indexed": false,
          "internalType": "bytes32",
          "name": "_opHash",
          "type": "bytes32"
        },
        {
          "indexed": false,
          "internalType": "uint256",
          "name": "_index",
          "type": "uint256"
        },
        {
          "indexed": false,
          "internalType": "bytes",
          "name": "_returnData",
          "type": "bytes"
        }
      ],
      "name": "CallAborted",
      "type": "event"
    },
    {
      "anonymous": false,
      "inputs": [
        {
          "indexed": false,
          "internalType": "bytes32",
          "name": "_opHash",
          "type": "bytes32"
        },
        {
          "indexed": false,
          "internalType": "uint256",
          "name": "_index",
          "type": "uint256"
        },
        {
          "indexed": false,
          "internalType": "bytes",
          "name": "_returnData",
          "type": "bytes"
        }
      ],
      "name": "CallFailed",
      "type": "event"
    },
    {
      "anonymous": false,
      "inputs": [
        {
          "indexed": false,
          "internalType": "bytes32",
          "name": "_opHash",
          "type": "bytes32"
        },
        {
          "indexed": false,
          "internalType": "uint256",
          "name": "_index",
          "type": "uint256"
        }
      ],
      "name": "CallSkipped",
      "type": "event"
    },
    {
      "anonymous": false,
      "inputs": [
        {
          "indexed": false,
          "internalType": "bytes32",
          "name": "_opHash",
          "type": "bytes32"
        },
        {
          "indexed": false,
          "internalType": "uint256",
          "name": "_index",
          "type": "uint256"
        }
      ],
      "name": "CallSucceeded",
      "type": "event"
    },
    {
      "anonymous": false,
      "inputs": [
        {
          "indexed": false,
          "internalType": "bytes4",
          "name": "signature",
          "type": "bytes4"
        },
        {
          "indexed": false,
          "internalType": "address",
          "name": "implementation",
          "type": "address"
        }
      ],
      "name": "DefinedHook",
      "type": "event"
    },
    {
      "anonymous": false,
      "inputs": [
        {
          "indexed": false,
          "internalType": "bytes32",
          "name": "newImageHash",
          "type": "bytes32"
        }
      ],
      "name": "ImageHashUpdated",
      "type": "event"
    },
    {
      "anonymous": false,
      "inputs": [
        {
          "indexed": false,
          "internalType": "address",
          "name": "newImplementation",
          "type": "address"
        }
      ],
      "name": "ImplementationUpdated",
      "type": "event"
    },
    {
      "anonymous": false,
      "inputs": [
        {
          "indexed": false,
          "internalType": "uint256",
          "name": "_space",
          "type": "uint256"
        },
        {
          "indexed": false,
          "internalType": "uint256",
          "name": "_newNonce",
          "type": "uint256"
        }
      ],
      "name": "NonceChange",
      "type": "event"
    },
    {
      "anonymous": false,
      "inputs": [
        {
          "indexed": false,
          "internalType": "bytes32",
          "name": "_hash",
          "type": "bytes32"
        },
        {
          "indexed": false,
          "internalType": "address",
          "name": "_address",
          "type": "address"
        },
        {
          "indexed": false,
          "internalType": "uint96",
          "name": "_timestamp",
          "type": "uint96"
        }
      ],
      "name": "StaticSignatureSet",
      "type": "event"
    },
    {
      "stateMutability": "payable",
      "type": "fallback"
    },
    {
      "inputs": [],
      "name": "FACTORY",
      "outputs": [
        {
          "internalType": "address",
          "name": "",
          "type": "address"
        }
      ],
      "stateMutability": "view",
      "type": "function"
    },
    {
      "inputs": [],
      "name": "INIT_CODE_HASH",
      "outputs": [
        {
          "internalType": "bytes32",
          "name": "",
          "type": "bytes32"
        }
      ],
      "stateMutability": "view",
      "type": "function"
    },
    {
      "inputs": [],
      "name": "STAGE_2_IMPLEMENTATION",
      "outputs": [
        {
          "internalType": "address",
          "name": "",
          "type": "address"
        }
      ],
      "stateMutability": "view",
      "type": "function"
    },
    {
      "inputs": [
        {
          "internalType": "bytes4",
          "name": "signature",
          "type": "bytes4"
        },
        {
          "internalType": "address",
          "name": "implementation",
          "type": "address"
        }
      ],
      "name": "addHook",
      "outputs": [],
      "stateMutability": "payable",
      "type": "function"
    },
    {
      "inputs": [
        {
          "internalType": "bytes",
          "name": "_payload",
          "type": "bytes"
        },
        {
          "internalType": "bytes",
          "name": "_signature",
          "type": "bytes"
        }
      ],
      "name": "execute",
      "outputs": [],
      "stateMutability": "payable",
      "type": "function"
    },
    {
      "inputs": [],
      "name": "getImplementation",
      "outputs": [
        {
          "internalType": "address",
          "name": "",
          "type": "address"
        }
      ],
      "stateMutability": "view",
      "type": "function"
    },
    {
      "inputs": [
        {
          "internalType": "bytes32",
          "name": "_hash",
          "type": "bytes32"
        }
      ],
      "name": "getStaticSignature",
      "outputs": [
        {
          "internalType": "address",
          "name": "",
          "type": "address"
        },
        {
          "internalType": "uint256",
          "name": "",
          "type": "uint256"
        }
      ],
      "stateMutability": "view",
      "type": "function"
    },
    {
      "inputs": [
        {
          "internalType": "bytes32",
          "name": "_hash",
          "type": "bytes32"
        },
        {
          "internalType": "bytes",
          "name": "_signature",
          "type": "bytes"
        }
      ],
      "name": "isValidSignature",
      "outputs": [
        {
          "internalType": "bytes4",
          "name": "",
          "type": "bytes4"
        }
      ],
      "stateMutability": "view",
      "type": "function"
    },
    {
      "inputs": [
        {
          "internalType": "address",
          "name": "",
          "type": "address"
        },
        {
          "internalType": "address",
          "name": "",
          "type": "address"
        },
        {
          "internalType": "uint256[]",
          "name": "",
          "type": "uint256[]"
        },
        {
          "internalType": "uint256[]",
          "name": "",
          "type": "uint256[]"
        },
        {
          "internalType": "bytes",
          "name": "",
          "type": "bytes"
        }
      ],
      "name": "onERC1155BatchReceived",
      "outputs": [
        {
          "internalType": "bytes4",
          "name": "",
          "type": "bytes4"
        }
      ],
      "stateMutability": "pure",
      "type": "function"
    },
    {
      "inputs": [
        {
          "internalType": "address",
          "name": "",
          "type": "address"
        },
        {
          "internalType": "address",
          "name": "",
          "type": "address"
        },
        {
          "internalType": "uint256",
          "name": "",
          "type": "uint256"
        },
        {
          "internalType": "uint256",
          "name": "",
          "type": "uint256"
        },
        {
          "internalType": "bytes",
          "name": "",
          "type": "bytes"
        }
      ],
      "name": "onERC1155Received",
      "outputs": [
        {
          "internalType": "bytes4",
          "name": "",
          "type": "bytes4"
        }
      ],
      "stateMutability": "pure",
      "type": "function"
    },
    {
      "inputs": [
        {
          "internalType": "address",
          "name": "",
          "type": "address"
        },
        {
          "internalType": "address",
          "name": "",
          "type": "address"
        },
        {
          "internalType": "uint256",
          "name": "",
          "type": "uint256"
        },
        {
          "internalType": "bytes",
          "name": "",
          "type": "bytes"
        }
      ],
      "name": "onERC721Received",
      "outputs": [
        {
          "internalType": "bytes4",
          "name": "",
          "type": "bytes4"
        }
      ],
      "stateMutability": "pure",
      "type": "function"
    },
    {
      "inputs": [
        {
          "internalType": "bytes4",
          "name": "signature",
          "type": "bytes4"
        }
      ],
      "name": "readHook",
      "outputs": [
        {
          "internalType": "address",
          "name": "",
          "type": "address"
        }
      ],
      "stateMutability": "view",
      "type": "function"
    },
    {
      "inputs": [
        {
          "internalType": "uint256",
          "name": "_space",
          "type": "uint256"
        }
      ],
      "name": "readNonce",
      "outputs": [
        {
          "internalType": "uint256",
          "name": "",
          "type": "uint256"
        }
      ],
      "stateMutability": "view",
      "type": "function"
    },
    {
      "inputs": [
        {
          "components": [
            {
              "internalType": "uint8",
              "name": "kind",
              "type": "uint8"
            },
            {
              "internalType": "bool",
              "name": "noChainId",
              "type": "bool"
            },
            {
              "components": [
                {
                  "internalType": "address",
                  "name": "to",
                  "type": "address"
                },
                {
                  "internalType": "uint256",
                  "name": "value",
                  "type": "uint256"
                },
                {
                  "internalType": "bytes",
                  "name": "data",
                  "type": "bytes"
                },
                {
                  "internalType": "uint256",
                  "name": "gasLimit",
                  "type": "uint256"
                },
                {
                  "internalType": "bool",
                  "name": "delegateCall",
                  "type": "bool"
                },
                {
                  "internalType": "bool",
                  "name": "onlyFallback",
                  "type": "bool"
                },
                {
                  "internalType": "uint256",
                  "name": "behaviorOnError",
                  "type": "uint256"
                }
              ],
              "internalType": "struct Payload.Call[]",
              "name": "calls",
              "type": "tuple[]"
            },
            {
              "internalType": "uint256",
              "name": "space",
              "type": "uint256"
            },
            {
              "internalType": "uint256",
              "name": "nonce",
              "type": "uint256"
            },
            {
              "internalType": "bytes",
              "name": "message",
              "type": "bytes"
            },
            {
              "internalType": "bytes32",
              "name": "imageHash",
              "type": "bytes32"
            },
            {
              "internalType": "bytes32",
              "name": "digest",
              "type": "bytes32"
            },
            {
              "internalType": "address[]",
              "name": "parentWallets",
              "type": "address[]"
            }
          ],
          "internalType": "struct Payload.Decoded",
          "name": "_payload",
          "type": "tuple"
        },
        {
          "internalType": "bytes",
          "name": "_signature",
          "type": "bytes"
        }
      ],
      "name": "recoverPartialSignature",
      "outputs": [
        {
          "internalType": "uint256",
          "name": "threshold",
          "type": "uint256"
        },
        {
          "internalType": "uint256",
          "name": "weight",
          "type": "uint256"
        },
        {
          "internalType": "bool",
          "name": "isValidImage",
          "type": "bool"
        },
        {
          "internalType": "bytes32",
          "name": "imageHash",
          "type": "bytes32"
        },
        {
          "internalType": "uint256",
          "name": "checkpoint",
          "type": "uint256"
        },
        {
          "internalType": "bytes32",
          "name": "opHash",
          "type": "bytes32"
        }
      ],
      "stateMutability": "view",
      "type": "function"
    },
    {
      "inputs": [
        {
          "components": [
            {
              "internalType": "uint8",
              "name": "kind",
              "type": "uint8"
            },
            {
              "internalType": "bool",
              "name": "noChainId",
              "type": "bool"
            },
            {
              "components": [
                {
                  "internalType": "address",
                  "name": "to",
                  "type": "address"
                },
                {
                  "internalType": "uint256",
                  "name": "value",
                  "type": "uint256"
                },
                {
                  "internalType": "bytes",
                  "name": "data",
                  "type": "bytes"
                },
                {
                  "internalType": "uint256",
                  "name": "gasLimit",
                  "type": "uint256"
                },
                {
                  "internalType": "bool",
                  "name": "delegateCall",
                  "type": "bool"
                },
                {
                  "internalType": "bool",
                  "name": "onlyFallback",
                  "type": "bool"
                },
                {
                  "internalType": "uint256",
                  "name": "behaviorOnError",
                  "type": "uint256"
                }
              ],
              "internalType": "struct Payload.Call[]",
              "name": "calls",
              "type": "tuple[]"
            },
            {
              "internalType": "uint256",
              "name": "space",
              "type": "uint256"
            },
            {
              "internalType": "uint256",
              "name": "nonce",
              "type": "uint256"
            },
            {
              "internalType": "bytes",
              "name": "message",
              "type": "bytes"
            },
            {
              "internalType": "bytes32",
              "name": "imageHash",
              "type": "bytes32"
            },
            {
              "internalType": "bytes32",
              "name": "digest",
              "type": "bytes32"
            },
            {
              "internalType": "address[]",
              "name": "parentWallets",
              "type": "address[]"
            }
          ],
          "internalType": "struct Payload.Decoded",
          "name": "_payload",
          "type": "tuple"
        },
        {
          "internalType": "bytes",
          "name": "_signature",
          "type": "bytes"
        }
      ],
      "name": "recoverSapientSignature",
      "outputs": [
        {
          "internalType": "bytes32",
          "name": "",
          "type": "bytes32"
        }
      ],
      "stateMutability": "view",
      "type": "function"
    },
    {
      "inputs": [
        {
          "internalType": "bytes4",
          "name": "signature",
          "type": "bytes4"
        }
      ],
      "name": "removeHook",
      "outputs": [],
      "stateMutability": "payable",
      "type": "function"
    },
    {
      "inputs": [
        {
          "internalType": "bytes",
          "name": "_payload",
          "type": "bytes"
        }
      ],
      "name": "selfExecute",
      "outputs": [],
      "stateMutability": "payable",
      "type": "function"
    },
    {
      "inputs": [
        {
          "internalType": "bytes32",
          "name": "_hash",
          "type": "bytes32"
        },
        {
          "internalType": "address",
          "name": "_address",
          "type": "address"
        },
        {
          "internalType": "uint96",
          "name": "_timestamp",
          "type": "uint96"
        }
      ],
      "name": "setStaticSignature",
      "outputs": [],
      "stateMutability": "nonpayable",
      "type": "function"
    },
    {
      "inputs": [
        {
          "internalType": "address",
          "name": "",
          "type": "address"
        },
        {
          "internalType": "uint256",
          "name": "",
          "type": "uint256"
        },
        {
          "internalType": "bytes",
          "name": "",
          "type": "bytes"
        }
      ],
      "name": "tokenReceived",
      "outputs": [],
      "stateMutability": "nonpayable",
      "type": "function"
    },
    {
      "inputs": [
        {
          "internalType": "bytes32",
          "name": "_imageHash",
          "type": "bytes32"
        }
      ],
      "name": "updateImageHash",
      "outputs": [],
      "stateMutability": "nonpayable",
      "type": "function"
    },
    {
      "inputs": [
        {
          "internalType": "address",
          "name": "_implementation",
          "type": "address"
        }
      ],
      "name": "updateImplementation",
      "outputs": [],
      "stateMutability": "payable",
      "type": "function"
    },
    {
      "stateMutability": "payable",
      "type": "receive"
    }
  ],
  "bytecode": "0x60e060405234801561001057600080fd5b506040516182d83803806182d883398101604081905261002f916100c7565b8060405161003c906100ba565b604051809103906000f080158015610058573d6000803e3d6000fd5b5060006040518060600160405280602c81526020016182ac602c9139604051610086919030906020016100f7565b60408051601f198184030181529190528051602090910120608052506001600160a01b0391821660a0521660c05250610129565b613ff6806142b683390190565b6000602082840312156100d957600080fd5b81516001600160a01b03811681146100f057600080fd5b9392505050565b6000835160005b8181101561011857602081870181015185830152016100fe565b509190910191825250602001919050565b60805160a05160c05161414961016d600039600081816104b9015261184d0152600081816103d20152611d6f01526000818161037e0152611da001526141496000f3fe60806040526004361061016e5760003560e01c80636ea44577116100cb578063aaf10f421161007f578063bc197c8111610059578063bc197c8114610556578063f23a6e611461059e578063f727ef1c146105e457610175565b8063aaf10f42146104db578063ad55366b146104f0578063b93ea7ad1461054357610175565b80638c3f5563116100b05780638c3f55631461043b57806392dcb3fc1461045b5780639f69ef54146104a757610175565b80636ea44577146104075780638943ec021461041a57610175565b80631f6a1eb911610122578063295614261161010757806329561426146103a05780632dd31000146103c05780634fcf3eca146103f457610175565b80631f6a1eb914610359578063257671f51461036c57610175565b8063150b7a0211610153578063150b7a021461027e5780631626ba7e146102f45780631a9b23371461031457610175565b8063025b22bc1461023857806313792a4a1461024b57610175565b3661017557005b6004361061023657600061019161018c36836131ef565b610604565b905073ffffffffffffffffffffffffffffffffffffffff811615610234576000808273ffffffffffffffffffffffffffffffffffffffff166000366040516101da929190613255565b600060405180830381855af49150503d8060008114610215576040519150601f19603f3d011682016040523d82523d6000602084013e61021a565b606091505b50915091508161022c57805160208201fd5b805160208201f35b505b005b61023661024636600461328e565b610658565b34801561025757600080fd5b5061026b610266366004613632565b6106a4565b6040519081526020015b60405180910390f35b34801561028a57600080fd5b506102c3610299366004613779565b7f150b7a020000000000000000000000000000000000000000000000000000000095945050505050565b6040517fffffffff000000000000000000000000000000000000000000000000000000009091168152602001610275565b34801561030057600080fd5b506102c361030f3660046137e8565b61080f565b34801561032057600080fd5b5061033461032f366004613849565b6108a5565b60405173ffffffffffffffffffffffffffffffffffffffff9091168152602001610275565b610236610367366004613866565b6108b0565b34801561037857600080fd5b5061026b7f000000000000000000000000000000000000000000000000000000000000000081565b3480156103ac57600080fd5b506102366103bb3660046138d7565b610939565b3480156103cc57600080fd5b506103347f000000000000000000000000000000000000000000000000000000000000000081565b610236610402366004613849565b61097d565b6102366104153660046138f0565b610a3f565b34801561042657600080fd5b50610236610435366004613932565b50505050565b34801561044757600080fd5b5061026b6104563660046138d7565b610aac565b34801561046757600080fd5b5061047b6104763660046138d7565b610ad8565b6040805173ffffffffffffffffffffffffffffffffffffffff9093168352602083019190915201610275565b3480156104b357600080fd5b506103347f000000000000000000000000000000000000000000000000000000000000000081565b3480156104e757600080fd5b50610334610aed565b3480156104fc57600080fd5b5061051061050b366004613632565b610afc565b604080519687526020870195909552921515938501939093526060840152608083019190915260a082015260c001610275565b610236610551366004613974565b610b36565b34801561056257600080fd5b506102c36105713660046139ee565b7fbc197c810000000000000000000000000000000000000000000000000000000098975050505050505050565b3480156105aa57600080fd5b506102c36105b9366004613ab5565b7ff23a6e61000000000000000000000000000000000000000000000000000000009695505050505050565b3480156105f057600080fd5b506102366105ff366004613b2d565b610bfb565b60006106527fbe27a319efc8734e89e26ba4bc95f5c788584163b959f03fa04e2d7ab4b9a1207fffffffff000000000000000000000000000000000000000000000000000000008416610cb6565b92915050565b333014610698576040517fa19dbf000000000000000000000000000000000000000000000000000000000081523360048201526024015b60405180910390fd5b6106a181610d14565b50565b6000808461010001515160016106ba9190613b7e565b67ffffffffffffffff8111156106d2576106d26132a9565b6040519080825280602002602001820160405280156106fb578160200160208202803683370190505b50905060005b8561010001515181101561076d57856101000151818151811061072657610726613bb8565b602002602001015182828151811061074057610740613bb8565b73ffffffffffffffffffffffffffffffffffffffff90921660209283029190910190910152600101610701565b503381866101000151518151811061078757610787613bb8565b73ffffffffffffffffffffffffffffffffffffffff90921660209283029190910190910152610100850181905260006107c1868686610d68565b50905080610801578585856040517ff58cc8b500000000000000000000000000000000000000000000000000000000815260040161068f93929190613e6a565b5060019150505b9392505050565b604080516101208101825260006020820181905260609282018390528282018190526080820181905260a0820183905260c082018190526101008201929092526003815260e0810185905281610866828686610d68565b5090508061087a5750600091506108089050565b507f20c13b0b0000000000000000000000000000000000000000000000000000000095945050505050565b600061065282610604565b60005a905060006108c18686610f4f565b90506108d58160600151826080015161136d565b6000806108e3838787610d68565b9150915081610924578286866040517fa2b6d61b00000000000000000000000000000000000000000000000000000000815260040161068f93929190613e6a565b61092f848285611455565b5050505050505050565b333014610974576040517fa19dbf0000000000000000000000000000000000000000000000000000000000815233600482015260240161068f565b6106a1816117b5565b3330146109b8576040517fa19dbf0000000000000000000000000000000000000000000000000000000000815233600482015260240161068f565b60006109c382610604565b73ffffffffffffffffffffffffffffffffffffffff1603610a34576040517f1c3812cc0000000000000000000000000000000000000000000000000000000081527fffffffff000000000000000000000000000000000000000000000000000000008216600482015260240161068f565b6106a1816000611871565b333014610a7a576040517fa19dbf0000000000000000000000000000000000000000000000000000000000815233600482015260240161068f565b60005a90506000610a8b8484610f4f565b90506000610a9882611931565b9050610aa5838284611455565b5050505050565b60006106527f8d0bf1fd623d628c741362c1289948e57b3e2905218c676d3e69abee36d6ae2e83610cb6565b600080610ae4836119ac565b91509150915091565b6000610af7305490565b905090565b600080600080600080610b138989896000806119f8565b939950919750945092509050610b2883611d1d565b935093975093979195509350565b333014610b71576040517fa19dbf0000000000000000000000000000000000000000000000000000000000815233600482015260240161068f565b6000610b7c83610604565b73ffffffffffffffffffffffffffffffffffffffff1614610bed576040517f5b4d6d6a0000000000000000000000000000000000000000000000000000000081527fffffffff000000000000000000000000000000000000000000000000000000008316600482015260240161068f565b610bf78282611871565b5050565b333014610c36576040517fa19dbf0000000000000000000000000000000000000000000000000000000000815233600482015260240161068f565b610c4f8383836bffffffffffffffffffffffff16611e1f565b6040805184815273ffffffffffffffffffffffffffffffffffffffff841660208201526bffffffffffffffffffffffff83168183015290517febf265acfac1c01de588ed7ef49743b9c3ce8d6d1edeaf510a1f5453228515b19181900360600190a1505050565b6000808383604051602001610cd5929190918252602082015260400190565b604080517fffffffffffffffffffffffffffffffffffffffffffffffffffffffffffffffe0818403018152919052805160209091012054949350505050565b610d1c813055565b60405173ffffffffffffffffffffffffffffffffffffffff821681527f310ba5f1d2ed074b51e2eccd052a47ae9ab7c6b800d1fca3db3999d6a592ca039060200160405180910390a150565b600080600084846000818110610d8057610d80613bb8565b7fff000000000000000000000000000000000000000000000000000000000000009201359182169250507f80000000000000000000000000000000000000000000000000000000000000009081169003610ed557610ddd86611931565b9150600080610deb846119ac565b91509150428111610e32576040517ff95b6ab7000000000000000000000000000000000000000000000000000000008152600481018590526024810182905260440161068f565b73ffffffffffffffffffffffffffffffffffffffff821615801590610e6d575073ffffffffffffffffffffffffffffffffffffffff82163314155b15610ec9576040517f8945c3130000000000000000000000000000000000000000000000000000000081526004810185905233602482015273ffffffffffffffffffffffffffffffffffffffff8316604482015260640161068f565b60019450505050610f47565b6000806000610ee88989896000806119f8565b985092955090935091505082821015610f37576040517ffd41fcba000000000000000000000000000000000000000000000000000000008152600481018490526024810183905260440161068f565b610f4081611d1d565b9550505050505b935093915050565b604080516101208101825260008082526020820181905260609282018390528282018190526080820181905260a0820183905260c0820181905260e0820152610100810191909152823560f81c60018082168103610fb35760006060840152610fc4565b84810135606090811c908401526014015b6007600183901c1680156110175760016008820290811b7fffffffffffffffffffffffffffffffffffffffffffffffffffffffffffffffff0187840135610100929092039190911c166080850152908101905b60008360101660100361102c57506001611055565b836020166020036110485750600282019186013560f01c611055565b50600182019186013560f81c5b8067ffffffffffffffff81111561106e5761106e6132a9565b6040519080825280602002602001820160405280156110f957816020015b6110e66040518060e00160405280600073ffffffffffffffffffffffffffffffffffffffff168152602001600081526020016060815260200160008152602001600015158152602001600015158152602001600081525090565b81526020019060019003908161108c5790505b50604086015260005b818110156113625760018085019489013560f81c90808216900361116157308760400151838151811061113757611137613bb8565b602090810291909101015173ffffffffffffffffffffffffffffffffffffffff90911690526111ab565b8489013560601c601486018860400151848151811061118257611182613bb8565b602090810291909101015173ffffffffffffffffffffffffffffffffffffffff90921690915294505b600280821690036111e9578489013560208601886040015184815181106111d4576111d4613bb8565b60200260200101516020018197508281525050505b6004808216900361128157600385019489013560e81c89868a61120c8483613b7e565b9261121993929190613e9a565b8080601f016020809104026020016040519081016040528093929190818152602001838380828437600092019190915250505050604089015180518590811061126457611264613bb8565b60209081029190910101516040015261127d8187613b7e565b9550505b600880821690036112bf578489013560208601886040015184815181106112aa576112aa613bb8565b60200260200101516060018197508281525050505b8060101660ff16601014876040015183815181106112df576112df613bb8565b602002602001015160800190151590811515815250508060201660ff166020148760400151838151811061131557611315613bb8565b602090810291909101015190151560a090910152604087015180516003600684901c1691908490811061134a5761134a613bb8565b602090810291909101015160c0015250600101611102565b505050505092915050565b600061137883610aac565b90508181146113c4576040517f9b6514f400000000000000000000000000000000000000000000000000000000815260048101849052602481018390526044810182905260640161068f565b604080517f8d0bf1fd623d628c741362c1289948e57b3e2905218c676d3e69abee36d6ae2e60208083019190915281830186905282518083038401815260609092019092528051910120600183019081905560408051858152602081018390527f1f180c27086c7a39ea2a7b25239d1ab92348f07ca7bb59d1438fcf527568f881910160405180910390a150505050565b604081015151600090815b818110156117ad5760008460400151828151811061148057611480613bb8565b60200260200101519050831561149957600093506114e2565b8060a00151156114e25760408051878152602081018490527f9ae934bf8a986157c889a24c3b3fa85e74b7e4ee4b1f8fc6e7362cb4c1d19d8b910160405180910390a1506117a5565b606081015180158015906114f55750805a105b156115325785835a6040517f2139527400000000000000000000000000000000000000000000000000000000815260040161068f93929190613ec4565b60008260800151156116065782516115ff9083156115505783611552565b5a5b634c4e814c60e01b8b8d898b8e606001518b6040015160405160240161157d96959493929190613ee9565b604080517fffffffffffffffffffffffffffffffffffffffffffffffffffffffffffffffe08184030181529190526020810180517bffffffffffffffffffffffffffffffffffffffffffffffffffffffff167fffffffff0000000000000000000000000000000000000000000000000000000090931692909217909152611eae565b905061162d565b8251602084015161162a9190841561161e5784611620565b5a5b8660400151611ec4565b90505b806117685760c083015161168957600195507f115f347c00e69f252cd6b63c4f81022a9564c6befe8aa719cb74640a4a306f0d888561166a611edc565b60405161167993929190613f26565b60405180910390a15050506117a5565b60c08301517fffffffffffffffffffffffffffffffffffffffffffffffffffffffffffffffff016116f35786846116be611edc565b6040517f7f6b0bb100000000000000000000000000000000000000000000000000000000815260040161068f93929190613f45565b60c08301517ffffffffffffffffffffffffffffffffffffffffffffffffffffffffffffffffe01611768577fc2c704302430fe0dc8d95f272e2f4e54bbbc51a3327fd5d75ab41f9fc8fd129b8885611749611edc565b60405161175893929190613f26565b60405180910390a15050506117ad565b60408051898152602081018690527f5a589b1d8062f33451d29cae3dabd9b2e36c62aee644178c600977ca8dda661a910160405180910390a15050505b600101611460565b505050505050565b806117ec576040517f4294d12700000000000000000000000000000000000000000000000000000000815260040160405180910390fd5b6118157fea7157fa25e3aa17d0ae2d5280fa4e24d421c61842aa85e45194e1145aa72bf8829055565b6040518181527f307ed6bd941ee9fc80f369c94af5fa11e25bab5102a6140191756c5474a30bfa9060200160405180910390a16106a17f0000000000000000000000000000000000000000000000000000000000000000610d14565b604080517fbe27a319efc8734e89e26ba4bc95f5c788584163b959f03fa04e2d7ab4b9a1206020808301919091527fffffffff000000000000000000000000000000000000000000000000000000008516828401819052835180840385018152606084018086528151919093012073ffffffffffffffffffffffffffffffffffffffff8616908190559152608082015290517f0d7fc113eaf016db4681a1ba86d083ce3e0961f321062a75ac2b0aeb33deeed19181900360a00190a15050565b600080611942836020015130611efb565b9050600061194f84611fc8565b6040517f1901000000000000000000000000000000000000000000000000000000000000602082015260228101849052604281018290529091506062015b6040516020818303038152906040528051906020012092505050919050565b600080806119da7fc852adf5e97c2fc3b38f405671e91b7af1697ef0287577f227ef10494c2a8e8685610cb6565b606081901c956bffffffffffffffffffffffff909116945092505050565b6040805180820182526000808252602082018190529182918291829182918a3560f81c91600191808416148015611a43575073ffffffffffffffffffffffffffffffffffffffff8916155b15611b5f578b82013560601c985060149091019089611b5f5760038201918c013560e81c60008d848e611a768583613b7e565b92611a8393929190613e9a565b8080601f016020809104026020016040519081016040528093929190818152602001838380828437600092019190915250506040517fccce3bc80000000000000000000000000000000000000000000000000000000081529293505073ffffffffffffffffffffffffffffffffffffffff8d169163ccce3bc89150611b0e9030908590600401613f70565b6040805180830381865afa158015611b2a573d6000803e3d6000fd5b505050506040513d601f19601f82011682018060405250810190611b4e9190613fa7565b9250611b5a8285613b7e565b935050505b82600116600103611b9957611b878d8a838f8f87908092611b8293929190613e9a565b612234565b97509750975097509750505050611d10565b6002838116811460208f015283901c60071660016008820290811b7fffffffffffffffffffffffffffffffffffffffffffffffffffffffffffffffff018e850135610100929092039190911c16838201909650925060009050611c046001600586901c811690613b7e565b60016008820290811b7fffffffffffffffffffffffffffffffffffffffffffffffffffffffffffffffff018f860135610100929092039190911c1699509092019150611c4f8d611931565b9350611c6d8d858e8e86908092611c6893929190613e9a565b61247a565b600090815260208a815260408083208352888252808320835273ffffffffffffffffffffffffffffffffffffffff8d1690915290208251919850965015801590611cb8575080518614155b8015611cc8575080602001518511155b15611d0c576040517fccbb534f000000000000000000000000000000000000000000000000000000008152815160048201526020820151602482015260440161068f565b5050505b9550955095509550959050565b6000610652826040517fff0000000000000000000000000000000000000000000000000000000000000060208201527fffffffffffffffffffffffffffffffffffffffff0000000000000000000000007f000000000000000000000000000000000000000000000000000000000000000060601b166021820152603581018290527f000000000000000000000000000000000000000000000000000000000000000060558201526000903090607501604080517fffffffffffffffffffffffffffffffffffffffffffffffffffffffffffffffe0818403018152919052805160209091012073ffffffffffffffffffffffffffffffffffffffff161492915050565b611ea97fc852adf5e97c2fc3b38f405671e91b7af1697ef0287577f227ef10494c2a8e86847fffffffffffffffffffffffffffffffffffffffff000000000000000000000000606086901b166bffffffffffffffffffffffff8516176040805160208082019590955280820193909352805180840382018152606090930190528151919092012055565b505050565b60008060008351602085018787f4949350505050565b6000806000835160208501878988f195945050505050565b60603d604051915060208201818101604052818352816000823e505090565b60007f8b73c3c69bb8fe3d512ecc4cf759cc79239f7b179b0ffacaa9a75d522b39400f7f4aa45ca7ad825ceb1bf35643f0a58c295239df563b1b565c2485f96477c563187f2a80e1ef1d7842f27f2e6be0972bb708b9a135c38860dbe73c27c3486c34f4de85611f6b5746611f6e565b60005b6040805160208101959095528401929092526060830152608082015273ffffffffffffffffffffffffffffffffffffffff831660a082015260c0015b60405160208183030381529060405280519060200120905092915050565b600080826101000151604051602001611fe19190613ff8565b604080517fffffffffffffffffffffffffffffffffffffffffffffffffffffffffffffffe08184030181529190528051602090910120835190915060ff1661208a5760006120328460400151612e6c565b606080860151608080880151604080517f11e1e4079a79a66e4ade50033cfe2678cdd5341d2dfe5ef9513edb1a0be147a260208201529081018690529384019290925282015260a0810184905290915060c00161198d565b825160ff167fffffffffffffffffffffffffffffffffffffffffffffffffffffffffffffffff0161211a5760a08301518051602091820120604080517fe19a3b94fc3c7ece3f890d98a99bc422615537a08dea0603fa8425867d87d46693810193909352820152606081018290526080015b60405160208183030381529060405280519060200120915050919050565b825160ff167ffffffffffffffffffffffffffffffffffffffffffffffffffffffffffffffffe0161218a5760c0830151604080517f11fdeb7e8373a1aa96bfac8d0ea91526b2c5d15e5cee20e0543e780258f3e8e4602082015290810191909152606081018290526080016120fc565b825160ff167ffffffffffffffffffffffffffffffffffffffffffffffffffffffffffffffffd016121fa5760e0830151604080517fe19a3b94fc3c7ece3f890d98a99bc422615537a08dea0603fa8425867d87d466602082015290810191909152606081018290526080016120fc565b82516040517f0481832000000000000000000000000000000000000000000000000000000000815260ff909116600482015260240161068f565b6000806000806000612296604051806101200160405280600060ff168152602001600015158152602001606081526020016000815260200160008152602001606081526020016000801916815260200160008019168152602001606081525090565b6002815260007fffffffffffffffffffffffffffffffffffffffffffffffffffffffffffffffff5b888210156124225760038201916000908b013560e81c6122de8482613b7e565b9150600090508a82146122f25760006122f4565b8d5b90507fffffffffffffffffffffffffffffffffffffffffffffffffffffffffffffffff830361234c5761233b8f8d8d8790869261233393929190613e9a565b6001856119f8565b939d50919b5099509750955061236e565b612362858d8d8790869261233393929190613e9a565b50929c50909a50985096505b898910156123ba5761238282858d8f613e9a565b8b8b6040517fb006aba000000000000000000000000000000000000000000000000000000000815260040161068f9493929190614044565b819350878d60000151036123cd5760008d525b828710612410576040517f37daf62b000000000000000000000000000000000000000000000000000000008152600481018890526024810184905260440161068f565b5060c0840187905291508490506122be565b8a511580159061243657508a602001518511155b15611d0c576040517fccbb534f0000000000000000000000000000000000000000000000000000000081528b51600482015260208c0151602482015260440161068f565b60008060005b83811015612e6257600181019085013560f881901c9060fc1c8061259d57600f821660008190036124b85750600183019287013560f81c5b60408051600080825260208281018085528d9052601b8c89019182013560ff81811c928301908116868801529235606086018190527f7fffffffffffffffffffffffffffffffffffffffffffffffffffffffffffffff82166080870181905296909a0199959094919390929160019060a0015b6020604051602081039080840390855afa15801561254d573d6000803e3d6000fd5b5050506020604051035190508660ff168c019b506000612570828960ff16612efd565b90508b61257d578061258c565b60008c81526020829052604090205b9b5050505050505050505050612480565b6001810361260157600f821660008190036125bf5750600183019287013560f81c5b601484019388013560601c60006125d98260ff8516612efd565b9050866125e657806125f5565b60008781526020829052604090205b96505050505050612480565b600281036127f6576003821660008190036126235750600183019287013560f81c5b60008489013560601c60148601955090506003600285901c16600060016008830290811b7fffffffffffffffffffffffffffffffffffffffffffffffffffffffffffffffff018c890135610100929092039190911c168288018098508192505050600081880190506320c13b0b60e01b7bffffffffffffffffffffffffffffffffffffffffffffffffffffffff19168473ffffffffffffffffffffffffffffffffffffffff16631626ba7e8f8f8f8d9087926126e193929190613e9a565b6040518463ffffffff1660e01b81526004016126ff9392919061406b565b602060405180830381865afa15801561271c573d6000803e3d6000fd5b505050506040513d601f19601f820116820180604052508101906127409190614085565b7fffffffff0000000000000000000000000000000000000000000000000000000016146127b1578c848d8d8b90859261277b93929190613e9a565b6040517fb2fed7ae00000000000000000000000000000000000000000000000000000000815260040161068f94939291906140a2565b8097508460ff168a01995060006127cb858760ff16612efd565b9050896127d857806127e7565b60008a81526020829052604090205b99505050505050505050612480565b6003810361282a576020830192870135846128115780612820565b60008581526020829052604090205b9450505050612480565b600481036128d057600f8216600060016008830290811b7fffffffffffffffffffffffffffffffffffffffffffffffffffffffffffffffff018a870135610100929092039190911c1685830180965081925050506000818601905060008061289f8e8e8e8e8c908892611c6893929190613e9a565b91509150829750818a0199506128bf898260009182526020526040902090565b985082975050505050505050612480565b6006810361299a576003600283901c1660008190036128f65750600183019287013560f81c5b6003831660008190036129105750600284019388013560f01c5b6000858a013560e81c600387018162ffffff16915080975081925050506000818701905060008061294e8f8f8f8f8d908892611c6893929190613e9a565b9150915082985084821061296157998501995b600061296e828789612f64565b90508a61297b578061298a565b60008b81526020829052604090205b9a50505050505050505050612480565b60058103612a075760208301928701358881036129d5577fffffffffffffffffffffffffffffffffffffffffffffffffffffffffffffffff95505b60006129e082612fc8565b9050856129ed57806129fc565b60008681526020829052604090205b955050505050612480565b60078103612b0d57600f82166000819003612a295750600183019287013560f81c5b600080858a0135602087019650915089860135602087016040517f19457468657265756d205369676e6564204d6573736167653a0a3332000000006020820152603c81018e905290975090915060ff82901c907f7fffffffffffffffffffffffffffffffffffffffffffffffffffffffffffffff831690601b830190600090600190605c01604080517fffffffffffffffffffffffffffffffffffffffffffffffffffffffffffffffe08184030181528282528051602091820120600084529083018083525260ff851690820152606081018890526080810185905260a00161252b565b60088103612b615760208301928701356000612b298b8261301c565b9050808203612b56577fffffffffffffffffffffffffffffffffffffffffffffffffffffffffffffffff96505b60006125d982613097565b60098103612cc757600382166000819003612b835750600183019287013560f81c5b60008489013560601c601486019550905060006003600286901c1660016008820290811b7fffffffffffffffffffffffffffffffffffffffffffffffffffffffffffffffff018c890135610100929092039190911c168188018098508193505050506000818701905060008373ffffffffffffffffffffffffffffffffffffffff166313792a4a8f8e8e8c908792612c1d93929190613e9a565b6040518463ffffffff1660e01b8152600401612c3b93929190613e6a565b602060405180830381865afa158015612c58573d6000803e3d6000fd5b505050506040513d601f19601f82011682018060405250810190612c7c91906140d8565b90508197508460ff168a0199506000612c99858760ff16846130d2565b905089612ca65780612cb5565b60008a81526020829052604090205b99508298505050505050505050612480565b600a8103612e2d57600382166000819003612ce95750600183019287013560f81c5b60008489013560601c60148601955090506003600285901c16600060016008830290811b7fffffffffffffffffffffffffffffffffffffffffffffffffffffffffffffffff018c890135610100929092039190911c1682880180985081925050506000818801905060008473ffffffffffffffffffffffffffffffffffffffff1663898bd9218f8f8f8d908792612d8293929190613e9a565b6040518463ffffffff1660e01b8152600401612da09392919061406b565b602060405180830381865afa158015612dbd573d6000803e3d6000fd5b505050506040513d601f19601f82011682018060405250810190612de191906140d8565b90508198508560ff168b019a506000612dfe868860ff16846130d2565b90508a612e0b5780612e1a565b60008b81526020829052604090205b9a50829950505050505050505050612480565b6040517fb2505f7c0000000000000000000000000000000000000000000000000000000081526004810182905260240161068f565b5094509492505050565b6000606060005b8351811015612eee576000612ea0858381518110612e9357612e93613bb8565b6020026020010151613140565b90508281604051602001612eb59291906140f1565b604080517fffffffffffffffffffffffffffffffffffffffffffffffffffffffffffffffe0818403018152919052925050600101612e73565b50805160209091012092915050565b6040517f53657175656e6365207369676e65723a0a00000000000000000000000000000060208201527fffffffffffffffffffffffffffffffffffffffff000000000000000000000000606084901b16603182015260458101829052600090606501611faa565b6040517f53657175656e6365206e657374656420636f6e6669673a0a000000000000000060208201526038810184905260588101839052607881018290526000906098015b6040516020818303038152906040528051906020012090509392505050565b6040517f53657175656e636520737461746963206469676573743a0a00000000000000006020820152603881018290526000906058015b604051602081830303815290604052805190602001209050919050565b60008061302d846020015184611efb565b9050600061303a85611fc8565b6040517f190100000000000000000000000000000000000000000000000000000000000060208201526022810184905260428101829052909150606201604051602081830303815290604052805190602001209250505092915050565b604080517f53657175656e636520616e792061646472657373207375626469676573743a0a6020820152908101829052600090606001612fff565b6040517f53657175656e63652073617069656e7420636f6e6669673a0a0000000000000060208201527fffffffffffffffffffffffffffffffffffffffff000000000000000000000000606085901b166039820152604d8101839052606d8101829052600090608d01612fa9565b60007f0603985259a953da1f65a522f589c17bd1d0117ec1d3abb7c0788aef251ef43782600001518360200151846040015180519060200120856060015186608001518760a001518860c00151604051602001612fff98979695949392919097885273ffffffffffffffffffffffffffffffffffffffff969096166020880152604087019490945260608601929092526080850152151560a0840152151560c083015260e08201526101000190565b80357fffffffff00000000000000000000000000000000000000000000000000000000811690600484101561324e577fffffffff00000000000000000000000000000000000000000000000000000000808560040360031b1b82161691505b5092915050565b8183823760009101908152919050565b803573ffffffffffffffffffffffffffffffffffffffff8116811461328957600080fd5b919050565b6000602082840312156132a057600080fd5b61080882613265565b7f4e487b7100000000000000000000000000000000000000000000000000000000600052604160045260246000fd5b60405160e0810167ffffffffffffffff811182821017156132fb576132fb6132a9565b60405290565b604051610120810167ffffffffffffffff811182821017156132fb576132fb6132a9565b604051601f82017fffffffffffffffffffffffffffffffffffffffffffffffffffffffffffffffe016810167ffffffffffffffff8111828210171561336c5761336c6132a9565b604052919050565b803560ff8116811461328957600080fd5b8035801515811461328957600080fd5b600067ffffffffffffffff8211156133af576133af6132a9565b5060051b60200190565b600082601f8301126133ca57600080fd5b813567ffffffffffffffff8111156133e4576133e46132a9565b61341560207fffffffffffffffffffffffffffffffffffffffffffffffffffffffffffffffe0601f84011601613325565b81815284602083860101111561342a57600080fd5b816020850160208301376000918101602001919091529392505050565b600082601f83011261345857600080fd5b813561346b61346682613395565b613325565b8082825260208201915060208360051b86010192508583111561348d57600080fd5b602085015b8381101561357a57803567ffffffffffffffff8111156134b157600080fd5b860160e08189037fffffffffffffffffffffffffffffffffffffffffffffffffffffffffffffffe00112156134e557600080fd5b6134ed6132d8565b6134f960208301613265565b815260408201356020820152606082013567ffffffffffffffff81111561351f57600080fd5b61352e8a6020838601016133b9565b6040830152506080820135606082015261354a60a08301613385565b608082015261355b60c08301613385565b60a082015260e0919091013560c0820152835260209283019201613492565b5095945050505050565b600082601f83011261359557600080fd5b81356135a361346682613395565b8082825260208201915060208360051b8601019250858311156135c557600080fd5b602085015b8381101561357a576135db81613265565b8352602092830192016135ca565b60008083601f8401126135fb57600080fd5b50813567ffffffffffffffff81111561361357600080fd5b60208301915083602082850101111561362b57600080fd5b9250929050565b60008060006040848603121561364757600080fd5b833567ffffffffffffffff81111561365e57600080fd5b8401610120818703121561367157600080fd5b613679613301565b61368282613374565b815261369060208301613385565b6020820152604082013567ffffffffffffffff8111156136af57600080fd5b6136bb88828501613447565b604083015250606082810135908201526080808301359082015260a082013567ffffffffffffffff8111156136ef57600080fd5b6136fb888285016133b9565b60a08301525060c0828101359082015260e0808301359082015261010082013567ffffffffffffffff81111561373057600080fd5b61373c88828501613584565b61010083015250935050602084013567ffffffffffffffff81111561376057600080fd5b61376c868287016135e9565b9497909650939450505050565b60008060008060006080868803121561379157600080fd5b61379a86613265565b94506137a860208701613265565b935060408601359250606086013567ffffffffffffffff8111156137cb57600080fd5b6137d7888289016135e9565b969995985093965092949392505050565b6000806000604084860312156137fd57600080fd5b83359250602084013567ffffffffffffffff81111561376057600080fd5b7fffffffff00000000000000000000000000000000000000000000000000000000811681146106a157600080fd5b60006020828403121561385b57600080fd5b81356108088161381b565b6000806000806040858703121561387c57600080fd5b843567ffffffffffffffff81111561389357600080fd5b61389f878288016135e9565b909550935050602085013567ffffffffffffffff8111156138bf57600080fd5b6138cb878288016135e9565b95989497509550505050565b6000602082840312156138e957600080fd5b5035919050565b6000806020838503121561390357600080fd5b823567ffffffffffffffff81111561391a57600080fd5b613926858286016135e9565b90969095509350505050565b6000806000806060858703121561394857600080fd5b61395185613265565b935060208501359250604085013567ffffffffffffffff8111156138bf57600080fd5b6000806040838503121561398757600080fd5b82356139928161381b565b91506139a060208401613265565b90509250929050565b60008083601f8401126139bb57600080fd5b50813567ffffffffffffffff8111156139d357600080fd5b6020830191508360208260051b850101111561362b57600080fd5b60008060008060008060008060a0898b031215613a0a57600080fd5b613a1389613265565b9750613a2160208a01613265565b9650604089013567ffffffffffffffff811115613a3d57600080fd5b613a498b828c016139a9565b909750955050606089013567ffffffffffffffff811115613a6957600080fd5b613a758b828c016139a9565b909550935050608089013567ffffffffffffffff811115613a9557600080fd5b613aa18b828c016135e9565b999c989b5096995094979396929594505050565b60008060008060008060a08789031215613ace57600080fd5b613ad787613265565b9550613ae560208801613265565b94506040870135935060608701359250608087013567ffffffffffffffff811115613b0f57600080fd5b613b1b89828a016135e9565b979a9699509497509295939492505050565b600080600060608486031215613b4257600080fd5b83359250613b5260208501613265565b915060408401356bffffffffffffffffffffffff81168114613b7357600080fd5b809150509250925092565b80820180821115610652577f4e487b7100000000000000000000000000000000000000000000000000000000600052601160045260246000fd5b7f4e487b7100000000000000000000000000000000000000000000000000000000600052603260045260246000fd5b60005b83811015613c02578181015183820152602001613bea565b50506000910152565b60008151808452613c23816020860160208601613be7565b601f017fffffffffffffffffffffffffffffffffffffffffffffffffffffffffffffffe0169290920160200192915050565b600082825180855260208501945060208160051b8301016020850160005b83811015613d25577fffffffffffffffffffffffffffffffffffffffffffffffffffffffffffffffe0858403018852815173ffffffffffffffffffffffffffffffffffffffff815116845260208101516020850152604081015160e06040860152613ce160e0860182613c0b565b6060838101519087015260808084015115159087015260a08084015115159087015260c0928301519290950191909152506020978801979190910190600101613c73565b50909695505050505050565b600081518084526020840193506020830160005b82811015613d7957815173ffffffffffffffffffffffffffffffffffffffff16865260209586019590910190600101613d45565b5093949350505050565b805160ff16825260006020820151613d9f602085018215159052565b5060408201516101206040850152613dbb610120850182613c55565b9050606083015160608501526080830151608085015260a083015184820360a0860152613de88282613c0b565b91505060c083015160c085015260e083015160e0850152610100830151848203610100860152613e188282613d31565b95945050505050565b8183528181602085013750600060208284010152600060207fffffffffffffffffffffffffffffffffffffffffffffffffffffffffffffffe0601f840116840101905092915050565b604081526000613e7d6040830186613d83565b8281036020840152613e90818587613e21565b9695505050505050565b60008085851115613eaa57600080fd5b83861115613eb757600080fd5b5050820193919092039150565b606081526000613ed76060830186613d83565b60208301949094525060400152919050565b86815285602082015284604082015283606082015282608082015260c060a08201526000613f1a60c0830184613c0b565b98975050505050505050565b838152826020820152606060408201526000613e186060830184613c0b565b606081526000613f586060830186613d83565b8460208401528281036040840152613e908185613c0b565b73ffffffffffffffffffffffffffffffffffffffff83168152604060208201526000613f9f6040830184613c0b565b949350505050565b60006040828403128015613fba57600080fd5b506040805190810167ffffffffffffffff81118282101715613fde57613fde6132a9565b604052825181526020928301519281019290925250919050565b8151600090829060208501835b8281101561403957815173ffffffffffffffffffffffffffffffffffffffff16845260209384019390910190600101614005565b509195945050505050565b606081526000614058606083018688613e21565b6020830194909452506040015292915050565b838152604060208201526000613e18604083018486613e21565b60006020828403121561409757600080fd5b81516108088161381b565b84815273ffffffffffffffffffffffffffffffffffffffff84166020820152606060408201526000613e90606083018486613e21565b6000602082840312156140ea57600080fd5b5051919050565b60008351614103818460208801613be7565b919091019182525060200191905056fea2646970667358221220bfcf05525e9f913c216515f03c487e7e0eca40d50fb0eee77218cc93d713e73b64736f6c634300081b00336080604052348015600f57600080fd5b50613fd78061001f6000396000f3fe6080604052600436106101485760003560e01c80636ea44577116100c0578063ad55366b11610074578063bc197c8111610059578063bc197c81146104a9578063f23a6e61146104f1578063f727ef1c146105375761014f565b8063ad55366b14610443578063b93ea7ad146104965761014f565b80638c3f5563116100a55780638c3f5563146103c257806392dcb3fc146103e2578063aaf10f421461042e5761014f565b80636ea445771461038e5780638943ec02146103a15761014f565b80631a9b23371161011757806329561426116100fc57806329561426146103465780634fcf3eca1461036657806351605d80146103795761014f565b80631a9b2337146102ee5780631f6a1eb9146103335761014f565b8063025b22bc1461021257806313792a4a14610225578063150b7a02146102585780631626ba7e146102ce5761014f565b3661014f57005b6004361061021057600061016b610166368361307d565b610557565b905073ffffffffffffffffffffffffffffffffffffffff81161561020e576000808273ffffffffffffffffffffffffffffffffffffffff166000366040516101b49291906130e3565b600060405180830381855af49150503d80600081146101ef576040519150601f19603f3d011682016040523d82523d6000602084013e6101f4565b606091505b50915091508161020657805160208201fd5b805160208201f35b505b005b61021061022036600461311c565b6105ab565b34801561023157600080fd5b506102456102403660046134c0565b6105f7565b6040519081526020015b60405180910390f35b34801561026457600080fd5b5061029d610273366004613607565b7f150b7a020000000000000000000000000000000000000000000000000000000095945050505050565b6040517fffffffff00000000000000000000000000000000000000000000000000000000909116815260200161024f565b3480156102da57600080fd5b5061029d6102e9366004613676565b610762565b3480156102fa57600080fd5b5061030e6103093660046136d7565b6107f8565b60405173ffffffffffffffffffffffffffffffffffffffff909116815260200161024f565b6102106103413660046136f4565b610803565b34801561035257600080fd5b50610210610361366004613765565b61088c565b6102106103743660046136d7565b6108d0565b34801561038557600080fd5b50610245610992565b61021061039c36600461377e565b6109c1565b3480156103ad57600080fd5b506102106103bc3660046137c0565b50505050565b3480156103ce57600080fd5b506102456103dd366004613765565b610a2e565b3480156103ee57600080fd5b506104026103fd366004613765565b610a5a565b6040805173ffffffffffffffffffffffffffffffffffffffff909316835260208301919091520161024f565b34801561043a57600080fd5b5061030e610a6f565b34801561044f57600080fd5b5061046361045e3660046134c0565b610a79565b604080519687526020870195909552921515938501939093526060840152608083019190915260a082015260c00161024f565b6102106104a4366004613802565b610ab3565b3480156104b557600080fd5b5061029d6104c436600461387c565b7fbc197c810000000000000000000000000000000000000000000000000000000098975050505050505050565b3480156104fd57600080fd5b5061029d61050c366004613943565b7ff23a6e61000000000000000000000000000000000000000000000000000000009695505050505050565b34801561054357600080fd5b506102106105523660046139bb565b610b78565b60006105a57fbe27a319efc8734e89e26ba4bc95f5c788584163b959f03fa04e2d7ab4b9a1207fffffffff000000000000000000000000000000000000000000000000000000008416610c33565b92915050565b3330146105eb576040517fa19dbf000000000000000000000000000000000000000000000000000000000081523360048201526024015b60405180910390fd5b6105f481610c91565b50565b60008084610100015151600161060d9190613a0c565b67ffffffffffffffff81111561062557610625613137565b60405190808252806020026020018201604052801561064e578160200160208202803683370190505b50905060005b856101000151518110156106c057856101000151818151811061067957610679613a46565b602002602001015182828151811061069357610693613a46565b73ffffffffffffffffffffffffffffffffffffffff90921660209283029190910190910152600101610654565b50338186610100015151815181106106da576106da613a46565b73ffffffffffffffffffffffffffffffffffffffff9092166020928302919091019091015261010085018190526000610714868686610ce6565b50905080610754578585856040517ff58cc8b50000000000000000000000000000000000000000000000000000000081526004016105e293929190613cf8565b5060019150505b9392505050565b604080516101208101825260006020820181905260609282018390528282018190526080820181905260a0820183905260c082018190526101008201929092526003815260e08101859052816107b9828686610ce6565b509050806107cd57506000915061075b9050565b507f20c13b0b0000000000000000000000000000000000000000000000000000000095945050505050565b60006105a582610557565b60005a905060006108148686610ecd565b9050610828816060015182608001516112eb565b600080610836838787610ce6565b9150915081610877578286866040517fa2b6d61b0000000000000000000000000000000000000000000000000000000081526004016105e293929190613cf8565b6108828482856113d3565b5050505050505050565b3330146108c7576040517fa19dbf000000000000000000000000000000000000000000000000000000000081523360048201526024016105e2565b6105f481611733565b33301461090b576040517fa19dbf000000000000000000000000000000000000000000000000000000000081523360048201526024016105e2565b600061091682610557565b73ffffffffffffffffffffffffffffffffffffffff1603610987576040517f1c3812cc0000000000000000000000000000000000000000000000000000000081527fffffffff00000000000000000000000000000000000000000000000000000000821660048201526024016105e2565b6105f48160006117c3565b60006109bc7fea7157fa25e3aa17d0ae2d5280fa4e24d421c61842aa85e45194e1145aa72bf85490565b905090565b3330146109fc576040517fa19dbf000000000000000000000000000000000000000000000000000000000081523360048201526024016105e2565b60005a90506000610a0d8484610ecd565b90506000610a1a82611883565b9050610a278382846113d3565b5050505050565b60006105a57f8d0bf1fd623d628c741362c1289948e57b3e2905218c676d3e69abee36d6ae2e83610c33565b600080610a66836118fe565b91509150915091565b60006109bc305490565b600080600080600080610a9089898960008061194a565b939950919750945092509050610aa583611c6f565b935093975093979195509350565b333014610aee576040517fa19dbf000000000000000000000000000000000000000000000000000000000081523360048201526024016105e2565b6000610af983610557565b73ffffffffffffffffffffffffffffffffffffffff1614610b6a576040517f5b4d6d6a0000000000000000000000000000000000000000000000000000000081527fffffffff00000000000000000000000000000000000000000000000000000000831660048201526024016105e2565b610b7482826117c3565b5050565b333014610bb3576040517fa19dbf000000000000000000000000000000000000000000000000000000000081523360048201526024016105e2565b610bcc8383836bffffffffffffffffffffffff16611c7a565b6040805184815273ffffffffffffffffffffffffffffffffffffffff841660208201526bffffffffffffffffffffffff83168183015290517febf265acfac1c01de588ed7ef49743b9c3ce8d6d1edeaf510a1f5453228515b19181900360600190a1505050565b6000808383604051602001610c52929190918252602082015260400190565b604080517fffffffffffffffffffffffffffffffffffffffffffffffffffffffffffffffe0818403018152919052805160209091012054949350505050565b610c99813055565b60405173ffffffffffffffffffffffffffffffffffffffff821681527f310ba5f1d2ed074b51e2eccd052a47ae9ab7c6b800d1fca3db3999d6a592ca03906020015b60405180910390a150565b600080600084846000818110610cfe57610cfe613a46565b7fff000000000000000000000000000000000000000000000000000000000000009201359182169250507f80000000000000000000000000000000000000000000000000000000000000009081169003610e5357610d5b86611883565b9150600080610d69846118fe565b91509150428111610db0576040517ff95b6ab700000000000000000000000000000000000000000000000000000000815260048101859052602481018290526044016105e2565b73ffffffffffffffffffffffffffffffffffffffff821615801590610deb575073ffffffffffffffffffffffffffffffffffffffff82163314155b15610e47576040517f8945c3130000000000000000000000000000000000000000000000000000000081526004810185905233602482015273ffffffffffffffffffffffffffffffffffffffff831660448201526064016105e2565b60019450505050610ec5565b6000806000610e6689898960008061194a565b985092955090935091505082821015610eb5576040517ffd41fcba00000000000000000000000000000000000000000000000000000000815260048101849052602481018390526044016105e2565b610ebe81611c6f565b9550505050505b935093915050565b604080516101208101825260008082526020820181905260609282018390528282018190526080820181905260a0820183905260c0820181905260e0820152610100810191909152823560f81c60018082168103610f315760006060840152610f42565b84810135606090811c908401526014015b6007600183901c168015610f955760016008820290811b7fffffffffffffffffffffffffffffffffffffffffffffffffffffffffffffffff0187840135610100929092039190911c166080850152908101905b600083601016601003610faa57506001610fd3565b83602016602003610fc65750600282019186013560f01c610fd3565b50600182019186013560f81c5b8067ffffffffffffffff811115610fec57610fec613137565b60405190808252806020026020018201604052801561107757816020015b6110646040518060e00160405280600073ffffffffffffffffffffffffffffffffffffffff168152602001600081526020016060815260200160008152602001600015158152602001600015158152602001600081525090565b81526020019060019003908161100a5790505b50604086015260005b818110156112e05760018085019489013560f81c9080821690036110df5730876040015183815181106110b5576110b5613a46565b602090810291909101015173ffffffffffffffffffffffffffffffffffffffff9091169052611129565b8489013560601c601486018860400151848151811061110057611100613a46565b602090810291909101015173ffffffffffffffffffffffffffffffffffffffff90921690915294505b600280821690036111675784890135602086018860400151848151811061115257611152613a46565b60200260200101516020018197508281525050505b600480821690036111ff57600385019489013560e81c89868a61118a8483613a0c565b9261119793929190613d28565b8080601f01602080910402602001604051908101604052809392919081815260200183838082843760009201919091525050505060408901518051859081106111e2576111e2613a46565b6020908102919091010151604001526111fb8187613a0c565b9550505b6008808216900361123d5784890135602086018860400151848151811061122857611228613a46565b60200260200101516060018197508281525050505b8060101660ff166010148760400151838151811061125d5761125d613a46565b602002602001015160800190151590811515815250508060201660ff166020148760400151838151811061129357611293613a46565b602090810291909101015190151560a090910152604087015180516003600684901c169190849081106112c8576112c8613a46565b602090810291909101015160c0015250600101611080565b505050505092915050565b60006112f683610a2e565b9050818114611342576040517f9b6514f40000000000000000000000000000000000000000000000000000000081526004810184905260248101839052604481018290526064016105e2565b604080517f8d0bf1fd623d628c741362c1289948e57b3e2905218c676d3e69abee36d6ae2e60208083019190915281830186905282518083038401815260609092019092528051910120600183019081905560408051858152602081018390527f1f180c27086c7a39ea2a7b25239d1ab92348f07ca7bb59d1438fcf527568f881910160405180910390a150505050565b604081015151600090815b8181101561172b576000846040015182815181106113fe576113fe613a46565b6020026020010151905083156114175760009350611460565b8060a00151156114605760408051878152602081018490527f9ae934bf8a986157c889a24c3b3fa85e74b7e4ee4b1f8fc6e7362cb4c1d19d8b910160405180910390a150611723565b606081015180158015906114735750805a105b156114b05785835a6040517f213952740000000000000000000000000000000000000000000000000000000081526004016105e293929190613d52565b600082608001511561158457825161157d9083156114ce57836114d0565b5a5b634c4e814c60e01b8b8d898b8e606001518b604001516040516024016114fb96959493929190613d77565b604080517fffffffffffffffffffffffffffffffffffffffffffffffffffffffffffffffe08184030181529190526020810180517bffffffffffffffffffffffffffffffffffffffffffffffffffffffff167fffffffff0000000000000000000000000000000000000000000000000000000090931692909217909152611d09565b90506115ab565b825160208401516115a89190841561159c578461159e565b5a5b8660400151611d1f565b90505b806116e65760c083015161160757600195507f115f347c00e69f252cd6b63c4f81022a9564c6befe8aa719cb74640a4a306f0d88856115e8611d37565b6040516115f793929190613db4565b60405180910390a1505050611723565b60c08301517fffffffffffffffffffffffffffffffffffffffffffffffffffffffffffffffff0161167157868461163c611d37565b6040517f7f6b0bb10000000000000000000000000000000000000000000000000000000081526004016105e293929190613dd3565b60c08301517ffffffffffffffffffffffffffffffffffffffffffffffffffffffffffffffffe016116e6577fc2c704302430fe0dc8d95f272e2f4e54bbbc51a3327fd5d75ab41f9fc8fd129b88856116c7611d37565b6040516116d693929190613db4565b60405180910390a150505061172b565b60408051898152602081018690527f5a589b1d8062f33451d29cae3dabd9b2e36c62aee644178c600977ca8dda661a910160405180910390a15050505b6001016113de565b505050505050565b8061176a576040517f4294d12700000000000000000000000000000000000000000000000000000000815260040160405180910390fd5b6117937fea7157fa25e3aa17d0ae2d5280fa4e24d421c61842aa85e45194e1145aa72bf8829055565b6040518181527f307ed6bd941ee9fc80f369c94af5fa11e25bab5102a6140191756c5474a30bfa90602001610cdb565b604080517fbe27a319efc8734e89e26ba4bc95f5c788584163b959f03fa04e2d7ab4b9a1206020808301919091527fffffffff000000000000000000000000000000000000000000000000000000008516828401819052835180840385018152606084018086528151919093012073ffffffffffffffffffffffffffffffffffffffff8616908190559152608082015290517f0d7fc113eaf016db4681a1ba86d083ce3e0961f321062a75ac2b0aeb33deeed19181900360a00190a15050565b600080611894836020015130611d56565b905060006118a184611e23565b6040517f1901000000000000000000000000000000000000000000000000000000000000602082015260228101849052604281018290529091506062015b6040516020818303038152906040528051906020012092505050919050565b6000808061192c7fc852adf5e97c2fc3b38f405671e91b7af1697ef0287577f227ef10494c2a8e8685610c33565b606081901c956bffffffffffffffffffffffff909116945092505050565b6040805180820182526000808252602082018190529182918291829182918a3560f81c91600191808416148015611995575073ffffffffffffffffffffffffffffffffffffffff8916155b15611ab1578b82013560601c985060149091019089611ab15760038201918c013560e81c60008d848e6119c88583613a0c565b926119d593929190613d28565b8080601f016020809104026020016040519081016040528093929190818152602001838380828437600092019190915250506040517fccce3bc80000000000000000000000000000000000000000000000000000000081529293505073ffffffffffffffffffffffffffffffffffffffff8d169163ccce3bc89150611a609030908590600401613dfe565b6040805180830381865afa158015611a7c573d6000803e3d6000fd5b505050506040513d601f19601f82011682018060405250810190611aa09190613e35565b9250611aac8285613a0c565b935050505b82600116600103611aeb57611ad98d8a838f8f87908092611ad493929190613d28565b61208f565b97509750975097509750505050611c62565b6002838116811460208f015283901c60071660016008820290811b7fffffffffffffffffffffffffffffffffffffffffffffffffffffffffffffffff018e850135610100929092039190911c16838201909650925060009050611b566001600586901c811690613a0c565b60016008820290811b7fffffffffffffffffffffffffffffffffffffffffffffffffffffffffffffffff018f860135610100929092039190911c1699509092019150611ba18d611883565b9350611bbf8d858e8e86908092611bba93929190613d28565b6122d5565b600090815260208a815260408083208352888252808320835273ffffffffffffffffffffffffffffffffffffffff8d1690915290208251919850965015801590611c0a575080518614155b8015611c1a575080602001518511155b15611c5e576040517fccbb534f00000000000000000000000000000000000000000000000000000000815281516004820152602082015160248201526044016105e2565b5050505b9550955095509550959050565b60006105a582612cc7565b611d047fc852adf5e97c2fc3b38f405671e91b7af1697ef0287577f227ef10494c2a8e86847fffffffffffffffffffffffffffffffffffffffff000000000000000000000000606086901b166bffffffffffffffffffffffff8516176040805160208082019590955280820193909352805180840382018152606090930190528151919092012055565b505050565b60008060008351602085018787f4949350505050565b6000806000835160208501878988f195945050505050565b60603d604051915060208201818101604052818352816000823e505090565b60007f8b73c3c69bb8fe3d512ecc4cf759cc79239f7b179b0ffacaa9a75d522b39400f7f4aa45ca7ad825ceb1bf35643f0a58c295239df563b1b565c2485f96477c563187f2a80e1ef1d7842f27f2e6be0972bb708b9a135c38860dbe73c27c3486c34f4de85611dc65746611dc9565b60005b6040805160208101959095528401929092526060830152608082015273ffffffffffffffffffffffffffffffffffffffff831660a082015260c0015b60405160208183030381529060405280519060200120905092915050565b600080826101000151604051602001611e3c9190613e86565b604080517fffffffffffffffffffffffffffffffffffffffffffffffffffffffffffffffe08184030181529190528051602090910120835190915060ff16611ee5576000611e8d8460400151612cfa565b606080860151608080880151604080517f11e1e4079a79a66e4ade50033cfe2678cdd5341d2dfe5ef9513edb1a0be147a260208201529081018690529384019290925282015260a0810184905290915060c0016118df565b825160ff167fffffffffffffffffffffffffffffffffffffffffffffffffffffffffffffffff01611f755760a08301518051602091820120604080517fe19a3b94fc3c7ece3f890d98a99bc422615537a08dea0603fa8425867d87d46693810193909352820152606081018290526080015b60405160208183030381529060405280519060200120915050919050565b825160ff167ffffffffffffffffffffffffffffffffffffffffffffffffffffffffffffffffe01611fe55760c0830151604080517f11fdeb7e8373a1aa96bfac8d0ea91526b2c5d15e5cee20e0543e780258f3e8e460208201529081019190915260608101829052608001611f57565b825160ff167ffffffffffffffffffffffffffffffffffffffffffffffffffffffffffffffffd016120555760e0830151604080517fe19a3b94fc3c7ece3f890d98a99bc422615537a08dea0603fa8425867d87d46660208201529081019190915260608101829052608001611f57565b82516040517f0481832000000000000000000000000000000000000000000000000000000000815260ff90911660048201526024016105e2565b60008060008060006120f1604051806101200160405280600060ff168152602001600015158152602001606081526020016000815260200160008152602001606081526020016000801916815260200160008019168152602001606081525090565b6002815260007fffffffffffffffffffffffffffffffffffffffffffffffffffffffffffffffff5b8882101561227d5760038201916000908b013560e81c6121398482613a0c565b9150600090508a821461214d57600061214f565b8d5b90507fffffffffffffffffffffffffffffffffffffffffffffffffffffffffffffffff83036121a7576121968f8d8d8790869261218e93929190613d28565b60018561194a565b939d50919b509950975095506121c9565b6121bd858d8d8790869261218e93929190613d28565b50929c50909a50985096505b89891015612215576121dd82858d8f613d28565b8b8b6040517fb006aba00000000000000000000000000000000000000000000000000000000081526004016105e29493929190613ed2565b819350878d60000151036122285760008d525b82871061226b576040517f37daf62b00000000000000000000000000000000000000000000000000000000815260048101889052602481018490526044016105e2565b5060c084018790529150849050612119565b8a511580159061229157508a602001518511155b15611c5e576040517fccbb534f0000000000000000000000000000000000000000000000000000000081528b51600482015260208c015160248201526044016105e2565b60008060005b83811015612cbd57600181019085013560f881901c9060fc1c806123f857600f821660008190036123135750600183019287013560f81c5b60408051600080825260208281018085528d9052601b8c89019182013560ff81811c928301908116868801529235606086018190527f7fffffffffffffffffffffffffffffffffffffffffffffffffffffffffffffff82166080870181905296909a0199959094919390929160019060a0015b6020604051602081039080840390855afa1580156123a8573d6000803e3d6000fd5b5050506020604051035190508660ff168c019b5060006123cb828960ff16612d8b565b90508b6123d857806123e7565b60008c81526020829052604090205b9b50505050505050505050506122db565b6001810361245c57600f8216600081900361241a5750600183019287013560f81c5b601484019388013560601c60006124348260ff8516612d8b565b9050866124415780612450565b60008781526020829052604090205b965050505050506122db565b600281036126515760038216600081900361247e5750600183019287013560f81c5b60008489013560601c60148601955090506003600285901c16600060016008830290811b7fffffffffffffffffffffffffffffffffffffffffffffffffffffffffffffffff018c890135610100929092039190911c168288018098508192505050600081880190506320c13b0b60e01b7bffffffffffffffffffffffffffffffffffffffffffffffffffffffff19168473ffffffffffffffffffffffffffffffffffffffff16631626ba7e8f8f8f8d90879261253c93929190613d28565b6040518463ffffffff1660e01b815260040161255a93929190613ef9565b602060405180830381865afa158015612577573d6000803e3d6000fd5b505050506040513d601f19601f8201168201806040525081019061259b9190613f13565b7fffffffff00000000000000000000000000000000000000000000000000000000161461260c578c848d8d8b9085926125d693929190613d28565b6040517fb2fed7ae0000000000000000000000000000000000000000000000000000000081526004016105e29493929190613f30565b8097508460ff168a0199506000612626858760ff16612d8b565b9050896126335780612642565b60008a81526020829052604090205b995050505050505050506122db565b600381036126855760208301928701358461266c578061267b565b60008581526020829052604090205b94505050506122db565b6004810361272b57600f8216600060016008830290811b7fffffffffffffffffffffffffffffffffffffffffffffffffffffffffffffffff018a870135610100929092039190911c168583018096508192505050600081860190506000806126fa8e8e8e8e8c908892611bba93929190613d28565b91509150829750818a01995061271a898260009182526020526040902090565b9850829750505050505050506122db565b600681036127f5576003600283901c1660008190036127515750600183019287013560f81c5b60038316600081900361276b5750600284019388013560f01c5b6000858a013560e81c600387018162ffffff1691508097508192505050600081870190506000806127a98f8f8f8f8d908892611bba93929190613d28565b915091508298508482106127bc57998501995b60006127c9828789612df2565b90508a6127d657806127e5565b60008b81526020829052604090205b9a505050505050505050506122db565b60058103612862576020830192870135888103612830577fffffffffffffffffffffffffffffffffffffffffffffffffffffffffffffffff95505b600061283b82612e56565b9050856128485780612857565b60008681526020829052604090205b9550505050506122db565b6007810361296857600f821660008190036128845750600183019287013560f81c5b600080858a0135602087019650915089860135602087016040517f19457468657265756d205369676e6564204d6573736167653a0a3332000000006020820152603c81018e905290975090915060ff82901c907f7fffffffffffffffffffffffffffffffffffffffffffffffffffffffffffffff831690601b830190600090600190605c01604080517fffffffffffffffffffffffffffffffffffffffffffffffffffffffffffffffe08184030181528282528051602091820120600084529083018083525260ff851690820152606081018890526080810185905260a001612386565b600881036129bc57602083019287013560006129848b82612eaa565b90508082036129b1577fffffffffffffffffffffffffffffffffffffffffffffffffffffffffffffffff96505b600061243482612f25565b60098103612b22576003821660008190036129de5750600183019287013560f81c5b60008489013560601c601486019550905060006003600286901c1660016008820290811b7fffffffffffffffffffffffffffffffffffffffffffffffffffffffffffffffff018c890135610100929092039190911c168188018098508193505050506000818701905060008373ffffffffffffffffffffffffffffffffffffffff166313792a4a8f8e8e8c908792612a7893929190613d28565b6040518463ffffffff1660e01b8152600401612a9693929190613cf8565b602060405180830381865afa158015612ab3573d6000803e3d6000fd5b505050506040513d601f19601f82011682018060405250810190612ad79190613f66565b90508197508460ff168a0199506000612af4858760ff1684612f60565b905089612b015780612b10565b60008a81526020829052604090205b995082985050505050505050506122db565b600a8103612c8857600382166000819003612b445750600183019287013560f81c5b60008489013560601c60148601955090506003600285901c16600060016008830290811b7fffffffffffffffffffffffffffffffffffffffffffffffffffffffffffffffff018c890135610100929092039190911c1682880180985081925050506000818801905060008473ffffffffffffffffffffffffffffffffffffffff1663898bd9218f8f8f8d908792612bdd93929190613d28565b6040518463ffffffff1660e01b8152600401612bfb93929190613ef9565b602060405180830381865afa158015612c18573d6000803e3d6000fd5b505050506040513d601f19601f82011682018060405250810190612c3c9190613f66565b90508198508560ff168b019a506000612c59868860ff1684612f60565b90508a612c665780612c75565b60008b81526020829052604090205b9a508299505050505050505050506122db565b6040517fb2505f7c000000000000000000000000000000000000000000000000000000008152600481018290526024016105e2565b5094509492505050565b600081158015906105a55750507fea7157fa25e3aa17d0ae2d5280fa4e24d421c61842aa85e45194e1145aa72bf8541490565b6000606060005b8351811015612d7c576000612d2e858381518110612d2157612d21613a46565b6020026020010151612fce565b90508281604051602001612d43929190613f7f565b604080517fffffffffffffffffffffffffffffffffffffffffffffffffffffffffffffffe0818403018152919052925050600101612d01565b50805160209091012092915050565b6040517f53657175656e6365207369676e65723a0a00000000000000000000000000000060208201527fffffffffffffffffffffffffffffffffffffffff000000000000000000000000606084901b16603182015260458101829052600090606501611e05565b6040517f53657175656e6365206e657374656420636f6e6669673a0a000000000000000060208201526038810184905260588101839052607881018290526000906098015b6040516020818303038152906040528051906020012090509392505050565b6040517f53657175656e636520737461746963206469676573743a0a00000000000000006020820152603881018290526000906058015b604051602081830303815290604052805190602001209050919050565b600080612ebb846020015184611d56565b90506000612ec885611e23565b6040517f190100000000000000000000000000000000000000000000000000000000000060208201526022810184905260428101829052909150606201604051602081830303815290604052805190602001209250505092915050565b604080517f53657175656e636520616e792061646472657373207375626469676573743a0a6020820152908101829052600090606001612e8d565b6040517f53657175656e63652073617069656e7420636f6e6669673a0a0000000000000060208201527fffffffffffffffffffffffffffffffffffffffff000000000000000000000000606085901b166039820152604d8101839052606d8101829052600090608d01612e37565b60007f0603985259a953da1f65a522f589c17bd1d0117ec1d3abb7c0788aef251ef43782600001518360200151846040015180519060200120856060015186608001518760a001518860c00151604051602001612e8d98979695949392919097885273ffffffffffffffffffffffffffffffffffffffff969096166020880152604087019490945260608601929092526080850152151560a0840152151560c083015260e08201526101000190565b80357fffffffff0000000000000000000000000000000000000000000000000000000081169060048410156130dc577fffffffff00000000000000000000000000000000000000000000000000000000808560040360031b1b82161691505b5092915050565b8183823760009101908152919050565b803573ffffffffffffffffffffffffffffffffffffffff8116811461311757600080fd5b919050565b60006020828403121561312e57600080fd5b61075b826130f3565b7f4e487b7100000000000000000000000000000000000000000000000000000000600052604160045260246000fd5b60405160e0810167ffffffffffffffff8111828210171561318957613189613137565b60405290565b604051610120810167ffffffffffffffff8111828210171561318957613189613137565b604051601f82017fffffffffffffffffffffffffffffffffffffffffffffffffffffffffffffffe016810167ffffffffffffffff811182821017156131fa576131fa613137565b604052919050565b803560ff8116811461311757600080fd5b8035801515811461311757600080fd5b600067ffffffffffffffff82111561323d5761323d613137565b5060051b60200190565b600082601f83011261325857600080fd5b813567ffffffffffffffff81111561327257613272613137565b6132a360207fffffffffffffffffffffffffffffffffffffffffffffffffffffffffffffffe0601f840116016131b3565b8181528460208386010111156132b857600080fd5b816020850160208301376000918101602001919091529392505050565b600082601f8301126132e657600080fd5b81356132f96132f482613223565b6131b3565b8082825260208201915060208360051b86010192508583111561331b57600080fd5b602085015b8381101561340857803567ffffffffffffffff81111561333f57600080fd5b860160e08189037fffffffffffffffffffffffffffffffffffffffffffffffffffffffffffffffe001121561337357600080fd5b61337b613166565b613387602083016130f3565b815260408201356020820152606082013567ffffffffffffffff8111156133ad57600080fd5b6133bc8a602083860101613247565b604083015250608082013560608201526133d860a08301613213565b60808201526133e960c08301613213565b60a082015260e0919091013560c0820152835260209283019201613320565b5095945050505050565b600082601f83011261342357600080fd5b81356134316132f482613223565b8082825260208201915060208360051b86010192508583111561345357600080fd5b602085015b8381101561340857613469816130f3565b835260209283019201613458565b60008083601f84011261348957600080fd5b50813567ffffffffffffffff8111156134a157600080fd5b6020830191508360208285010111156134b957600080fd5b9250929050565b6000806000604084860312156134d557600080fd5b833567ffffffffffffffff8111156134ec57600080fd5b840161012081870312156134ff57600080fd5b61350761318f565b61351082613202565b815261351e60208301613213565b6020820152604082013567ffffffffffffffff81111561353d57600080fd5b613549888285016132d5565b604083015250606082810135908201526080808301359082015260a082013567ffffffffffffffff81111561357d57600080fd5b61358988828501613247565b60a08301525060c0828101359082015260e0808301359082015261010082013567ffffffffffffffff8111156135be57600080fd5b6135ca88828501613412565b61010083015250935050602084013567ffffffffffffffff8111156135ee57600080fd5b6135fa86828701613477565b9497909650939450505050565b60008060008060006080868803121561361f57600080fd5b613628866130f3565b9450613636602087016130f3565b935060408601359250606086013567ffffffffffffffff81111561365957600080fd5b61366588828901613477565b969995985093965092949392505050565b60008060006040848603121561368b57600080fd5b83359250602084013567ffffffffffffffff8111156135ee57600080fd5b7fffffffff00000000000000000000000000000000000000000000000000000000811681146105f457600080fd5b6000602082840312156136e957600080fd5b813561075b816136a9565b6000806000806040858703121561370a57600080fd5b843567ffffffffffffffff81111561372157600080fd5b61372d87828801613477565b909550935050602085013567ffffffffffffffff81111561374d57600080fd5b61375987828801613477565b95989497509550505050565b60006020828403121561377757600080fd5b5035919050565b6000806020838503121561379157600080fd5b823567ffffffffffffffff8111156137a857600080fd5b6137b485828601613477565b90969095509350505050565b600080600080606085870312156137d657600080fd5b6137df856130f3565b935060208501359250604085013567ffffffffffffffff81111561374d57600080fd5b6000806040838503121561381557600080fd5b8235613820816136a9565b915061382e602084016130f3565b90509250929050565b60008083601f84011261384957600080fd5b50813567ffffffffffffffff81111561386157600080fd5b6020830191508360208260051b85010111156134b957600080fd5b60008060008060008060008060a0898b03121561389857600080fd5b6138a1896130f3565b97506138af60208a016130f3565b9650604089013567ffffffffffffffff8111156138cb57600080fd5b6138d78b828c01613837565b909750955050606089013567ffffffffffffffff8111156138f757600080fd5b6139038b828c01613837565b909550935050608089013567ffffffffffffffff81111561392357600080fd5b61392f8b828c01613477565b999c989b5096995094979396929594505050565b60008060008060008060a0878903121561395c57600080fd5b613965876130f3565b9550613973602088016130f3565b94506040870135935060608701359250608087013567ffffffffffffffff81111561399d57600080fd5b6139a989828a01613477565b979a9699509497509295939492505050565b6000806000606084860312156139d057600080fd5b833592506139e0602085016130f3565b915060408401356bffffffffffffffffffffffff81168114613a0157600080fd5b809150509250925092565b808201808211156105a5577f4e487b7100000000000000000000000000000000000000000000000000000000600052601160045260246000fd5b7f4e487b7100000000000000000000000000000000000000000000000000000000600052603260045260246000fd5b60005b83811015613a90578181015183820152602001613a78565b50506000910152565b60008151808452613ab1816020860160208601613a75565b601f017fffffffffffffffffffffffffffffffffffffffffffffffffffffffffffffffe0169290920160200192915050565b600082825180855260208501945060208160051b8301016020850160005b83811015613bb3577fffffffffffffffffffffffffffffffffffffffffffffffffffffffffffffffe0858403018852815173ffffffffffffffffffffffffffffffffffffffff815116845260208101516020850152604081015160e06040860152613b6f60e0860182613a99565b6060838101519087015260808084015115159087015260a08084015115159087015260c0928301519290950191909152506020978801979190910190600101613b01565b50909695505050505050565b600081518084526020840193506020830160005b82811015613c0757815173ffffffffffffffffffffffffffffffffffffffff16865260209586019590910190600101613bd3565b5093949350505050565b805160ff16825260006020820151613c2d602085018215159052565b5060408201516101206040850152613c49610120850182613ae3565b9050606083015160608501526080830151608085015260a083015184820360a0860152613c768282613a99565b91505060c083015160c085015260e083015160e0850152610100830151848203610100860152613ca68282613bbf565b95945050505050565b8183528181602085013750600060208284010152600060207fffffffffffffffffffffffffffffffffffffffffffffffffffffffffffffffe0601f840116840101905092915050565b604081526000613d0b6040830186613c11565b8281036020840152613d1e818587613caf565b9695505050505050565b60008085851115613d3857600080fd5b83861115613d4557600080fd5b5050820193919092039150565b606081526000613d656060830186613c11565b60208301949094525060400152919050565b86815285602082015284604082015283606082015282608082015260c060a08201526000613da860c0830184613a99565b98975050505050505050565b838152826020820152606060408201526000613ca66060830184613a99565b606081526000613de66060830186613c11565b8460208401528281036040840152613d1e8185613a99565b73ffffffffffffffffffffffffffffffffffffffff83168152604060208201526000613e2d6040830184613a99565b949350505050565b60006040828403128015613e4857600080fd5b506040805190810167ffffffffffffffff81118282101715613e6c57613e6c613137565b604052825181526020928301519281019290925250919050565b8151600090829060208501835b82811015613ec757815173ffffffffffffffffffffffffffffffffffffffff16845260209384019390910190600101613e93565b509195945050505050565b606081526000613ee6606083018688613caf565b6020830194909452506040015292915050565b838152604060208201526000613ca6604083018486613caf565b600060208284031215613f2557600080fd5b815161075b816136a9565b84815273ffffffffffffffffffffffffffffffffffffffff84166020820152606060408201526000613d1e606083018486613caf565b600060208284031215613f7857600080fd5b5051919050565b60008351613f91818460208801613a75565b919091019182525060200191905056fea2646970667358221220ccffd4b3cb0ecb4058a979fdae23de52c4bc993550a069c4140d243b0aca497264736f6c634300081b0033603e600e3d39601e805130553df33d3d34601c57363d3d373d363d30545af43d82803e903d91601c57fd5bf3",
  "linkReferences": {},
  "deployedLinkReferences": {}
}