{
  "_format": "hh-sol-artifact-1",
  "contractName": "Stage1Module",
  "sourceName": "src/Stage1Module.sol",
  "abi": [
    {
      "inputs": [
        {
          "internalType": "address",
          "name": "_factory",
          "type": "address"
        }
      ],
      "stateMutability": "nonpayable",
      "type": "constructor"
    },
    {
      "inputs": [
        {
          "internalType": "uint256",
          "name": "_space",
          "type": "uint256"
        },
        {
          "internalType": "uint256",
          "name": "_provided",
          "type": "uint256"
        },
        {
          "internalType": "uint256",
          "name": "_current",
          "type": "uint256"
        }
      ],
      "name": "BadNonce",
      "type": "error"
    },
    {
      "inputs": [
        {
          "internalType": "bytes4",
          "name": "signature",
          "type": "bytes4"
        }
      ],
      "name": "HookAlreadyExists",
      "type": "error"
    },
    {
      "inputs": [
        {
          "internalType": "bytes4",
          "name": "signature",
          "type": "bytes4"
        }
      ],
      "name": "HookDoesNotExist",
      "type": "error"
    },
    {
      "inputs": [],
      "name": "ImageHashIsZero",
      "type": "error"
    },
    {
      "inputs": [
        {
          "components": [
            {
              "internalType": "uint8",
              "name": "kind",
              "type": "uint8"
            },
            {
              "internalType": "bool",
              "name": "noChainId",
              "type": "bool"
            },
            {
              "components": [
                {
                  "internalType": "address",
                  "name": "to",
                  "type": "address"
                },
                {
                  "internalType": "uint256",
                  "name": "value",
                  "type": "uint256"
                },
                {
                  "internalType": "bytes",
                  "name": "data",
                  "type": "bytes"
                },
                {
                  "internalType": "uint256",
                  "name": "gasLimit",
                  "type": "uint256"
                },
                {
                  "internalType": "bool",
                  "name": "delegateCall",
                  "type": "bool"
                },
                {
                  "internalType": "bool",
                  "name": "onlyFallback",
                  "type": "bool"
                },
                {
                  "internalType": "uint256",
                  "name": "behaviorOnError",
                  "type": "uint256"
                }
              ],
              "internalType": "struct Payload.Call[]",
              "name": "calls",
              "type": "tuple[]"
            },
            {
              "internalType": "uint256",
              "name": "space",
              "type": "uint256"
            },
            {
              "internalType": "uint256",
              "name": "nonce",
              "type": "uint256"
            },
            {
              "internalType": "bytes",
              "name": "message",
              "type": "bytes"
            },
            {
              "internalType": "bytes32",
              "name": "imageHash",
              "type": "bytes32"
            },
            {
              "internalType": "bytes32",
              "name": "digest",
              "type": "bytes32"
            },
            {
              "internalType": "address[]",
              "name": "parentWallets",
              "type": "address[]"
            }
          ],
          "internalType": "struct Payload.Decoded",
          "name": "_payload",
          "type": "tuple"
        },
        {
          "internalType": "bytes32",
          "name": "_subdigest",
          "type": "bytes32"
        },
        {
          "internalType": "address",
          "name": "_signer",
          "type": "address"
        },
        {
          "internalType": "bytes",
          "name": "_signature",
          "type": "bytes"
        }
      ],
      "name": "InvalidNestedSignature",
      "type": "error"
    },
    {
      "inputs": [
        {
          "components": [
            {
              "internalType": "uint8",
              "name": "kind",
              "type": "uint8"
            },
            {
              "internalType": "bool",
              "name": "noChainId",
              "type": "bool"
            },
            {
              "components": [
                {
                  "internalType": "address",
                  "name": "to",
                  "type": "address"
                },
                {
                  "internalType": "uint256",
                  "name": "value",
                  "type": "uint256"
                },
                {
                  "internalType": "bytes",
                  "name": "data",
                  "type": "bytes"
                },
                {
                  "internalType": "uint256",
                  "name": "gasLimit",
                  "type": "uint256"
                },
                {
                  "internalType": "bool",
                  "name": "delegateCall",
                  "type": "bool"
                },
                {
                  "internalType": "bool",
                  "name": "onlyFallback",
                  "type": "bool"
                },
                {
                  "internalType": "uint256",
                  "name": "behaviorOnError",
                  "type": "uint256"
                }
              ],
              "internalType": "struct Payload.Call[]",
              "name": "calls",
              "type": "tuple[]"
            },
            {
              "internalType": "uint256",
              "name": "space",
              "type": "uint256"
            },
            {
              "internalType": "uint256",
              "name": "nonce",
              "type": "uint256"
            },
            {
              "internalType": "bytes",
              "name": "message",
              "type": "bytes"
            },
            {
              "internalType": "bytes32",
              "name": "imageHash",
              "type": "bytes32"
            },
            {
              "internalType": "bytes32",
              "name": "digest",
              "type": "bytes32"
            },
            {
              "internalType": "address[]",
              "name": "parentWallets",
              "type": "address[]"
            }
          ],
          "internalType": "struct Payload.Decoded",
          "name": "_payload",
          "type": "tuple"
        },
        {
          "internalType": "bytes",
          "name": "_signature",
          "type": "bytes"
        }
      ],
      "name": "InvalidSapientSignature",
      "type": "error"
    },
    {
      "inputs": [
        {
          "components": [
            {
              "internalType": "uint8",
              "name": "kind",
              "type": "uint8"
            },
            {
              "internalType": "bool",
              "name": "noChainId",
              "type": "bool"
            },
            {
              "components": [
                {
                  "internalType": "address",
                  "name": "to",
                  "type": "address"
                },
                {
                  "internalType": "uint256",
                  "name": "value",
                  "type": "uint256"
                },
                {
                  "internalType": "bytes",
                  "name": "data",
                  "type": "bytes"
                },
                {
                  "internalType": "uint256",
                  "name": "gasLimit",
                  "type": "uint256"
                },
                {
                  "internalType": "bool",
                  "name": "delegateCall",
                  "type": "bool"
                },
                {
                  "internalType": "bool",
                  "name": "onlyFallback",
                  "type": "bool"
                },
                {
                  "internalType": "uint256",
                  "name": "behaviorOnError",
                  "type": "uint256"
                }
              ],
              "internalType": "struct Payload.Call[]",
              "name": "calls",
              "type": "tuple[]"
            },
            {
              "internalType": "uint256",
              "name": "space",
              "type": "uint256"
            },
            {
              "internalType": "uint256",
              "name": "nonce",
              "type": "uint256"
            },
            {
              "internalType": "bytes",
              "name": "message",
              "type": "bytes"
            },
            {
              "internalType": "bytes32",
              "name": "imageHash",
              "type": "bytes32"
            },
            {
              "internalType": "bytes32",
              "name": "digest",
              "type": "bytes32"
            },
            {
              "internalType": "address[]",
              "name": "parentWallets",
              "type": "address[]"
            }
          ],
          "internalType": "struct Payload.Decoded",
          "name": "_payload",
          "type": "tuple"
        },
        {
          "internalType": "bytes",
          "name": "_signature",
          "type": "bytes"
        }
      ],
      "name": "InvalidSignature",
      "type": "error"
    },
    {
      "inputs": [
        {
          "internalType": "uint256",
          "name": "_flag",
          "type": "uint256"
        }
      ],
      "name": "InvalidSignatureFlag",
      "type": "error"
    },
    {
      "inputs": [
        {
          "internalType": "bytes1",
          "name": "_type",
          "type": "bytes1"
        }
      ],
      "name": "InvalidSignatureType",
      "type": "error"
    },
    {
      "inputs": [
        {
          "internalType": "bytes32",
          "name": "_opHash",
          "type": "bytes32"
        },
        {
          "internalType": "uint256",
          "name": "_expires",
          "type": "uint256"
        }
      ],
      "name": "InvalidStaticSignature",
      "type": "error"
    },
    {
      "inputs": [
        {
          "internalType": "bytes",
          "name": "_signature",
          "type": "bytes"
        },
        {
          "internalType": "uint256",
          "name": "_threshold",
          "type": "uint256"
        },
        {
          "internalType": "uint256",
          "name": "_weight",
          "type": "uint256"
        }
      ],
      "name": "LowWeightChainedSignature",
      "type": "error"
    },
    {
      "inputs": [
        {
          "components": [
            {
              "internalType": "uint8",
              "name": "kind",
              "type": "uint8"
            },
            {
              "internalType": "bool",
              "name": "noChainId",
              "type": "bool"
            },
            {
              "components": [
                {
                  "internalType": "address",
                  "name": "to",
                  "type": "address"
                },
                {
                  "internalType": "uint256",
                  "name": "value",
                  "type": "uint256"
                },
                {
                  "internalType": "bytes",
                  "name": "data",
                  "type": "bytes"
                },
                {
                  "internalType": "uint256",
                  "name": "gasLimit",
                  "type": "uint256"
                },
                {
                  "internalType": "bool",
                  "name": "delegateCall",
                  "type": "bool"
                },
                {
                  "internalType": "bool",
                  "name": "onlyFallback",
                  "type": "bool"
                },
                {
                  "internalType": "uint256",
                  "name": "behaviorOnError",
                  "type": "uint256"
                }
              ],
              "internalType": "struct Payload.Call[]",
              "name": "calls",
              "type": "tuple[]"
            },
            {
              "internalType": "uint256",
              "name": "space",
              "type": "uint256"
            },
            {
              "internalType": "uint256",
              "name": "nonce",
              "type": "uint256"
            },
            {
              "internalType": "bytes",
              "name": "message",
              "type": "bytes"
            },
            {
              "internalType": "bytes32",
              "name": "imageHash",
              "type": "bytes32"
            },
            {
              "internalType": "bytes32",
              "name": "digest",
              "type": "bytes32"
            },
            {
              "internalType": "address[]",
              "name": "parentWallets",
              "type": "address[]"
            }
          ],
          "internalType": "struct Payload.Decoded",
          "name": "_payload",
          "type": "tuple"
        },
        {
          "internalType": "uint256",
          "name": "_index",
          "type": "uint256"
        },
        {
          "internalType": "uint256",
          "name": "_gasLeft",
          "type": "uint256"
        }
      ],
      "name": "NotEnoughGas",
      "type": "error"
    },
    {
      "inputs": [
        {
          "internalType": "address",
          "name": "_sender",
          "type": "address"
        }
      ],
      "name": "OnlySelf",
      "type": "error"
    },
    {
      "inputs": [
        {
          "components": [
            {
              "internalType": "uint8",
              "name": "kind",
              "type": "uint8"
            },
            {
              "internalType": "bool",
              "name": "noChainId",
              "type": "bool"
            },
            {
              "components": [
                {
                  "internalType": "address",
                  "name": "to",
                  "type": "address"
                },
                {
                  "internalType": "uint256",
                  "name": "value",
                  "type": "uint256"
                },
                {
                  "internalType": "bytes",
                  "name": "data",
                  "type": "bytes"
                },
                {
                  "internalType": "uint256",
                  "name": "gasLimit",
                  "type": "uint256"
                },
                {
                  "internalType": "bool",
                  "name": "delegateCall",
                  "type": "bool"
                },
                {
                  "internalType": "bool",
                  "name": "onlyFallback",
                  "type": "bool"
                },
                {
                  "internalType": "uint256",
                  "name": "behaviorOnError",
                  "type": "uint256"
                }
              ],
              "internalType": "struct Payload.Call[]",
              "name": "calls",
              "type": "tuple[]"
            },
            {
              "internalType": "uint256",
              "name": "space",
              "type": "uint256"
            },
            {
              "internalType": "uint256",
              "name": "nonce",
              "type": "uint256"
            },
            {
              "internalType": "bytes",
              "name": "message",
              "type": "bytes"
            },
            {
              "internalType": "bytes32",
              "name": "imageHash",
              "type": "bytes32"
            },
            {
              "internalType": "bytes32",
              "name": "digest",
              "type": "bytes32"
            },
            {
              "internalType": "address[]",
              "name": "parentWallets",
              "type": "address[]"
            }
          ],
          "internalType": "struct Payload.Decoded",
          "name": "_payload",
          "type": "tuple"
        },
        {
          "internalType": "uint256",
          "name": "_index",
          "type": "uint256"
        },
        {
          "internalType": "bytes",
          "name": "_returnData",
          "type": "bytes"
        }
      ],
      "name": "Reverted",
      "type": "error"
    },
    {
      "inputs": [
        {
          "components": [
            {
              "internalType": "bytes32",
              "name": "imageHash",
              "type": "bytes32"
            },
            {
              "internalType": "uint256",
              "name": "checkpoint",
              "type": "uint256"
            }
          ],
          "internalType": "struct Snapshot",
          "name": "_snapshot",
          "type": "tuple"
        }
      ],
      "name": "UnusedSnapshot",
      "type": "error"
    },
    {
      "inputs": [
        {
          "internalType": "uint256",
          "name": "_nextCheckpoint",
          "type": "uint256"
        },
        {
          "internalType": "uint256",
          "name": "_checkpoint",
          "type": "uint256"
        }
      ],
      "name": "WrongChainedCheckpointOrder",
      "type": "error"
    },
    {
      "anonymous": false,
      "inputs": [
        {
          "indexed": false,
          "internalType": "bytes32",
          "name": "_opHash",
          "type": "bytes32"
        },
        {
          "indexed": false,
          "internalType": "uint256",
          "name": "_index",
          "type": "uint256"
        },
        {
          "indexed": false,
          "internalType": "bytes",
          "name": "_returnData",
          "type": "bytes"
        }
      ],
      "name": "CallAborted",
      "type": "event"
    },
    {
      "anonymous": false,
      "inputs": [
        {
          "indexed": false,
          "internalType": "bytes32",
          "name": "_opHash",
          "type": "bytes32"
        },
        {
          "indexed": false,
          "internalType": "uint256",
          "name": "_index",
          "type": "uint256"
        },
        {
          "indexed": false,
          "internalType": "bytes",
          "name": "_returnData",
          "type": "bytes"
        }
      ],
      "name": "CallFailed",
      "type": "event"
    },
    {
      "anonymous": false,
      "inputs": [
        {
          "indexed": false,
          "internalType": "bytes32",
          "name": "_opHash",
          "type": "bytes32"
        },
        {
          "indexed": false,
          "internalType": "uint256",
          "name": "_index",
          "type": "uint256"
        }
      ],
      "name": "CallSkipped",
      "type": "event"
    },
    {
      "anonymous": false,
      "inputs": [
        {
          "indexed": false,
          "internalType": "bytes32",
          "name": "_opHash",
          "type": "bytes32"
        },
        {
          "indexed": false,
          "internalType": "uint256",
          "name": "_index",
          "type": "uint256"
        }
      ],
      "name": "CallSuccess",
      "type": "event"
    },
    {
      "anonymous": false,
      "inputs": [
        {
          "indexed": false,
          "internalType": "bytes4",
          "name": "signature",
          "type": "bytes4"
        },
        {
          "indexed": false,
          "internalType": "address",
          "name": "implementation",
          "type": "address"
        }
      ],
      "name": "DefinedHook",
      "type": "event"
    },
    {
      "anonymous": false,
      "inputs": [
        {
          "indexed": false,
          "internalType": "bytes32",
          "name": "newImageHash",
          "type": "bytes32"
        }
      ],
      "name": "ImageHashUpdated",
      "type": "event"
    },
    {
      "anonymous": false,
      "inputs": [
        {
          "indexed": false,
          "internalType": "address",
          "name": "newImplementation",
          "type": "address"
        }
      ],
      "name": "ImplementationUpdated",
      "type": "event"
    },
    {
      "anonymous": false,
      "inputs": [
        {
          "indexed": false,
          "internalType": "uint256",
          "name": "_space",
          "type": "uint256"
        },
        {
          "indexed": false,
          "internalType": "uint256",
          "name": "_newNonce",
          "type": "uint256"
        }
      ],
      "name": "NonceChange",
      "type": "event"
    },
    {
      "anonymous": false,
      "inputs": [
        {
          "indexed": false,
          "internalType": "bytes32",
          "name": "_hash",
          "type": "bytes32"
        },
        {
          "indexed": false,
          "internalType": "address",
          "name": "_address",
          "type": "address"
        },
        {
          "indexed": false,
          "internalType": "uint96",
          "name": "_timestamp",
          "type": "uint96"
        }
      ],
      "name": "StaticSignatureSet",
      "type": "event"
    },
    {
      "stateMutability": "payable",
      "type": "fallback"
    },
    {
      "inputs": [],
      "name": "FACTORY",
      "outputs": [
        {
          "internalType": "address",
          "name": "",
          "type": "address"
        }
      ],
      "stateMutability": "view",
      "type": "function"
    },
    {
      "inputs": [],
      "name": "INIT_CODE_HASH",
      "outputs": [
        {
          "internalType": "bytes32",
          "name": "",
          "type": "bytes32"
        }
      ],
      "stateMutability": "view",
      "type": "function"
    },
    {
      "inputs": [],
      "name": "STAGE_2_IMPLEMENTATION",
      "outputs": [
        {
          "internalType": "address",
          "name": "",
          "type": "address"
        }
      ],
      "stateMutability": "view",
      "type": "function"
    },
    {
      "inputs": [
        {
          "internalType": "bytes4",
          "name": "signature",
          "type": "bytes4"
        },
        {
          "internalType": "address",
          "name": "implementation",
          "type": "address"
        }
      ],
      "name": "addHook",
      "outputs": [],
      "stateMutability": "payable",
      "type": "function"
    },
    {
      "inputs": [
        {
          "internalType": "bytes",
          "name": "_payload",
          "type": "bytes"
        },
        {
          "internalType": "bytes",
          "name": "_signature",
          "type": "bytes"
        }
      ],
      "name": "execute",
      "outputs": [],
      "stateMutability": "payable",
      "type": "function"
    },
    {
      "inputs": [],
      "name": "getImplementation",
      "outputs": [
        {
          "internalType": "address",
          "name": "",
          "type": "address"
        }
      ],
      "stateMutability": "view",
      "type": "function"
    },
    {
      "inputs": [
        {
          "components": [
            {
              "internalType": "uint8",
              "name": "kind",
              "type": "uint8"
            },
            {
              "internalType": "bool",
              "name": "noChainId",
              "type": "bool"
            },
            {
              "components": [
                {
                  "internalType": "address",
                  "name": "to",
                  "type": "address"
                },
                {
                  "internalType": "uint256",
                  "name": "value",
                  "type": "uint256"
                },
                {
                  "internalType": "bytes",
                  "name": "data",
                  "type": "bytes"
                },
                {
                  "internalType": "uint256",
                  "name": "gasLimit",
                  "type": "uint256"
                },
                {
                  "internalType": "bool",
                  "name": "delegateCall",
                  "type": "bool"
                },
                {
                  "internalType": "bool",
                  "name": "onlyFallback",
                  "type": "bool"
                },
                {
                  "internalType": "uint256",
                  "name": "behaviorOnError",
                  "type": "uint256"
                }
              ],
              "internalType": "struct Payload.Call[]",
              "name": "calls",
              "type": "tuple[]"
            },
            {
              "internalType": "uint256",
              "name": "space",
              "type": "uint256"
            },
            {
              "internalType": "uint256",
              "name": "nonce",
              "type": "uint256"
            },
            {
              "internalType": "bytes",
              "name": "message",
              "type": "bytes"
            },
            {
              "internalType": "bytes32",
              "name": "imageHash",
              "type": "bytes32"
            },
            {
              "internalType": "bytes32",
              "name": "digest",
              "type": "bytes32"
            },
            {
              "internalType": "address[]",
              "name": "parentWallets",
              "type": "address[]"
            }
          ],
          "internalType": "struct Payload.Decoded",
          "name": "_payload",
          "type": "tuple"
        },
        {
          "internalType": "bytes",
          "name": "_signature",
          "type": "bytes"
        }
      ],
      "name": "isValidSapientSignature",
      "outputs": [
        {
          "internalType": "bytes32",
          "name": "",
          "type": "bytes32"
        }
      ],
      "stateMutability": "view",
      "type": "function"
    },
    {
      "inputs": [
        {
          "internalType": "bytes32",
          "name": "_hash",
          "type": "bytes32"
        },
        {
          "internalType": "bytes",
          "name": "_signature",
          "type": "bytes"
        }
      ],
      "name": "isValidSignature",
      "outputs": [
        {
          "internalType": "bytes4",
          "name": "",
          "type": "bytes4"
        }
      ],
      "stateMutability": "view",
      "type": "function"
    },
    {
      "inputs": [
        {
          "internalType": "address",
          "name": "",
          "type": "address"
        },
        {
          "internalType": "address",
          "name": "",
          "type": "address"
        },
        {
          "internalType": "uint256[]",
          "name": "",
          "type": "uint256[]"
        },
        {
          "internalType": "uint256[]",
          "name": "",
          "type": "uint256[]"
        },
        {
          "internalType": "bytes",
          "name": "",
          "type": "bytes"
        }
      ],
      "name": "onERC1155BatchReceived",
      "outputs": [
        {
          "internalType": "bytes4",
          "name": "",
          "type": "bytes4"
        }
      ],
      "stateMutability": "pure",
      "type": "function"
    },
    {
      "inputs": [
        {
          "internalType": "address",
          "name": "",
          "type": "address"
        },
        {
          "internalType": "address",
          "name": "",
          "type": "address"
        },
        {
          "internalType": "uint256",
          "name": "",
          "type": "uint256"
        },
        {
          "internalType": "uint256",
          "name": "",
          "type": "uint256"
        },
        {
          "internalType": "bytes",
          "name": "",
          "type": "bytes"
        }
      ],
      "name": "onERC1155Received",
      "outputs": [
        {
          "internalType": "bytes4",
          "name": "",
          "type": "bytes4"
        }
      ],
      "stateMutability": "pure",
      "type": "function"
    },
    {
      "inputs": [
        {
          "internalType": "address",
          "name": "",
          "type": "address"
        },
        {
          "internalType": "address",
          "name": "",
          "type": "address"
        },
        {
          "internalType": "uint256",
          "name": "",
          "type": "uint256"
        },
        {
          "internalType": "bytes",
          "name": "",
          "type": "bytes"
        }
      ],
      "name": "onERC721Received",
      "outputs": [
        {
          "internalType": "bytes4",
          "name": "",
          "type": "bytes4"
        }
      ],
      "stateMutability": "pure",
      "type": "function"
    },
    {
      "inputs": [
        {
          "internalType": "bytes4",
          "name": "signature",
          "type": "bytes4"
        }
      ],
      "name": "readHook",
      "outputs": [
        {
          "internalType": "address",
          "name": "",
          "type": "address"
        }
      ],
      "stateMutability": "view",
      "type": "function"
    },
    {
      "inputs": [
        {
          "internalType": "uint256",
          "name": "_space",
          "type": "uint256"
        }
      ],
      "name": "readNonce",
      "outputs": [
        {
          "internalType": "uint256",
          "name": "",
          "type": "uint256"
        }
      ],
      "stateMutability": "view",
      "type": "function"
    },
    {
      "inputs": [
        {
          "components": [
            {
              "internalType": "uint8",
              "name": "kind",
              "type": "uint8"
            },
            {
              "internalType": "bool",
              "name": "noChainId",
              "type": "bool"
            },
            {
              "components": [
                {
                  "internalType": "address",
                  "name": "to",
                  "type": "address"
                },
                {
                  "internalType": "uint256",
                  "name": "value",
                  "type": "uint256"
                },
                {
                  "internalType": "bytes",
                  "name": "data",
                  "type": "bytes"
                },
                {
                  "internalType": "uint256",
                  "name": "gasLimit",
                  "type": "uint256"
                },
                {
                  "internalType": "bool",
                  "name": "delegateCall",
                  "type": "bool"
                },
                {
                  "internalType": "bool",
                  "name": "onlyFallback",
                  "type": "bool"
                },
                {
                  "internalType": "uint256",
                  "name": "behaviorOnError",
                  "type": "uint256"
                }
              ],
              "internalType": "struct Payload.Call[]",
              "name": "calls",
              "type": "tuple[]"
            },
            {
              "internalType": "uint256",
              "name": "space",
              "type": "uint256"
            },
            {
              "internalType": "uint256",
              "name": "nonce",
              "type": "uint256"
            },
            {
              "internalType": "bytes",
              "name": "message",
              "type": "bytes"
            },
            {
              "internalType": "bytes32",
              "name": "imageHash",
              "type": "bytes32"
            },
            {
              "internalType": "bytes32",
              "name": "digest",
              "type": "bytes32"
            },
            {
              "internalType": "address[]",
              "name": "parentWallets",
              "type": "address[]"
            }
          ],
          "internalType": "struct Payload.Decoded",
          "name": "_payload",
          "type": "tuple"
        },
        {
          "internalType": "bytes",
          "name": "_signature",
          "type": "bytes"
        }
      ],
      "name": "recoverPartialSignature",
      "outputs": [
        {
          "internalType": "uint256",
          "name": "threshold",
          "type": "uint256"
        },
        {
          "internalType": "uint256",
          "name": "weight",
          "type": "uint256"
        },
        {
          "internalType": "bool",
          "name": "isValidImage",
          "type": "bool"
        },
        {
          "internalType": "bytes32",
          "name": "imageHash",
          "type": "bytes32"
        },
        {
          "internalType": "uint256",
          "name": "checkpoint",
          "type": "uint256"
        },
        {
          "internalType": "bytes32",
          "name": "opHash",
          "type": "bytes32"
        }
      ],
      "stateMutability": "view",
      "type": "function"
    },
    {
      "inputs": [
        {
          "internalType": "bytes4",
          "name": "signature",
          "type": "bytes4"
        }
      ],
      "name": "removeHook",
      "outputs": [],
      "stateMutability": "payable",
      "type": "function"
    },
    {
      "inputs": [
        {
          "internalType": "bytes",
          "name": "_payload",
          "type": "bytes"
        }
      ],
      "name": "selfExecute",
      "outputs": [],
      "stateMutability": "payable",
      "type": "function"
    },
    {
      "inputs": [
        {
          "internalType": "bytes32",
          "name": "_hash",
          "type": "bytes32"
        },
        {
          "internalType": "address",
          "name": "_address",
          "type": "address"
        },
        {
          "internalType": "uint96",
          "name": "_timestamp",
          "type": "uint96"
        }
      ],
      "name": "setStaticSignature",
      "outputs": [],
      "stateMutability": "nonpayable",
      "type": "function"
    },
    {
      "inputs": [
        {
          "internalType": "address",
          "name": "",
          "type": "address"
        },
        {
          "internalType": "uint256",
          "name": "",
          "type": "uint256"
        },
        {
          "internalType": "bytes",
          "name": "",
          "type": "bytes"
        }
      ],
      "name": "tokenReceived",
      "outputs": [],
      "stateMutability": "nonpayable",
      "type": "function"
    },
    {
      "inputs": [
        {
          "internalType": "bytes32",
          "name": "_imageHash",
          "type": "bytes32"
        }
      ],
      "name": "updateImageHash",
      "outputs": [],
      "stateMutability": "nonpayable",
      "type": "function"
    },
    {
      "inputs": [
        {
          "internalType": "address",
          "name": "_implementation",
          "type": "address"
        }
      ],
      "name": "updateImplementation",
      "outputs": [],
      "stateMutability": "payable",
      "type": "function"
    },
    {
      "stateMutability": "payable",
      "type": "receive"
    }
  ],
  "bytecode": "0x60e060405234801561001057600080fd5b50604051617f92380380617f9283398101604081905261002f916100c7565b8060405161003c906100ba565b604051809103906000f080158015610058573d6000803e3d6000fd5b5060006040518060600160405280602c8152602001617f66602c9139604051610086919030906020016100f7565b60408051601f198184030181529190528051602090910120608052506001600160a01b0391821660a0521660c05250610129565b613e4b8061411b83390190565b6000602082840312156100d957600080fd5b81516001600160a01b03811681146100f057600080fd5b9392505050565b6000835160005b8181101561011857602081870181015185830152016100fe565b509190910191825250602001919050565b60805160a05160c051613fae61016d60003960008181610442015261168f0152600081816103a70152611b650152600081816103450152611b960152613fae6000f3fe6080604052600436106101635760003560e01c80638943ec02116100c0578063b93ea7ad11610074578063ca70785011610059578063ca70785014610527578063f23a6e6114610547578063f727ef1c1461058d5761016a565b8063b93ea7ad146104cc578063bc197c81146104df5761016a565b80639f69ef54116100a55780639f69ef5414610430578063aaf10f4214610464578063ad55366b146104795761016a565b80638943ec02146103ef5780638c3f5563146104105761016a565b8063257671f5116101175780632dd31000116100fc5780632dd31000146103955780634fcf3eca146103c95780636ea44577146103dc5761016a565b8063257671f51461033357806329561426146103755761016a565b80631626ba7e116101485780631626ba7e146102bb5780631a9b2337146102db5780631f6a1eb9146103205761016a565b8063025b22bc1461022d578063150b7a02146102405761016a565b3661016a57005b6004361061022b5760006101866101813683613087565b6105ad565b905073ffffffffffffffffffffffffffffffffffffffff811615610229576000808273ffffffffffffffffffffffffffffffffffffffff166000366040516101cf9291906130ed565b600060405180830381855af49150503d806000811461020a576040519150601f19603f3d011682016040523d82523d6000602084013e61020f565b606091505b50915091508161022157805160208201fd5b805160208201f35b505b005b61022b61023b366004613126565b610601565b34801561024c57600080fd5b5061028561025b36600461318a565b7f150b7a020000000000000000000000000000000000000000000000000000000095945050505050565b6040517fffffffff0000000000000000000000000000000000000000000000000000000090911681526020015b60405180910390f35b3480156102c757600080fd5b506102856102d63660046131f9565b61064d565b3480156102e757600080fd5b506102fb6102f6366004613273565b6106e5565b60405173ffffffffffffffffffffffffffffffffffffffff90911681526020016102b2565b61022b61032e366004613290565b6106f0565b34801561033f57600080fd5b506103677f000000000000000000000000000000000000000000000000000000000000000081565b6040519081526020016102b2565b34801561038157600080fd5b5061022b610390366004613301565b610772565b3480156103a157600080fd5b506102fb7f000000000000000000000000000000000000000000000000000000000000000081565b61022b6103d7366004613273565b6107b6565b61022b6103ea36600461331a565b610878565b3480156103fb57600080fd5b5061022b61040a36600461335c565b50505050565b34801561041c57600080fd5b5061036761042b366004613301565b6108d8565b34801561043c57600080fd5b506102fb7f000000000000000000000000000000000000000000000000000000000000000081565b34801561047057600080fd5b506102fb610904565b34801561048557600080fd5b506104996104943660046136de565b610913565b604080519687526020870195909552921515938501939093526060840152608083019190915260a082015260c0016102b2565b61022b6104da36600461380c565b61094d565b3480156104eb57600080fd5b506102856104fa366004613886565b7fbc197c810000000000000000000000000000000000000000000000000000000098975050505050505050565b34801561053357600080fd5b506103676105423660046136de565b610a12565b34801561055357600080fd5b5061028561056236600461394d565b7ff23a6e61000000000000000000000000000000000000000000000000000000009695505050505050565b34801561059957600080fd5b5061022b6105a83660046139c5565b610b7b565b60006105fb7fbe27a319efc8734e89e26ba4bc95f5c788584163b959f03fa04e2d7ab4b9a1207fffffffff000000000000000000000000000000000000000000000000000000008416610c36565b92915050565b333014610641576040517fa19dbf000000000000000000000000000000000000000000000000000000000081523360048201526024015b60405180910390fd5b61064a81610c94565b50565b604080516101208101825260006020820181905260609282018390528282018190526080820181905260a0820183905260c082018190526101008201929092526003815260e08101859052816106a4828686610ce8565b509050806106b85750600091506106de9050565b507f20c13b0b000000000000000000000000000000000000000000000000000000009150505b9392505050565b60006105fb826105ad565b60006106fc8585610e36565b905061071081606001518260800151611254565b60008061071e838686610ce8565b915091508161075f578285856040517fa2b6d61b00000000000000000000000000000000000000000000000000000000815260040161063893929190613c99565b610769818461133c565b50505050505050565b3330146107ad576040517fa19dbf00000000000000000000000000000000000000000000000000000000008152336004820152602401610638565b61064a816115f7565b3330146107f1576040517fa19dbf00000000000000000000000000000000000000000000000000000000008152336004820152602401610638565b60006107fc826105ad565b73ffffffffffffffffffffffffffffffffffffffff160361086d576040517f1c3812cc0000000000000000000000000000000000000000000000000000000081527fffffffff0000000000000000000000000000000000000000000000000000000082166004820152602401610638565b61064a8160006116b3565b3330146108b3576040517fa19dbf00000000000000000000000000000000000000000000000000000000008152336004820152602401610638565b60006108bf8383610e36565b905060006108cc82611773565b905061040a818361133c565b60006105fb7f8d0bf1fd623d628c741362c1289948e57b3e2905218c676d3e69abee36d6ae2e83610c36565b600061090e305490565b905090565b60008060008060008061092a8989896000806117ee565b93995091975094509250905061093f83611b13565b935093975093979195509350565b333014610988576040517fa19dbf00000000000000000000000000000000000000000000000000000000008152336004820152602401610638565b6000610993836105ad565b73ffffffffffffffffffffffffffffffffffffffff1614610a04576040517f5b4d6d6a0000000000000000000000000000000000000000000000000000000081527fffffffff0000000000000000000000000000000000000000000000000000000083166004820152602401610638565b610a0e82826116b3565b5050565b600080846101000151516001610a289190613cc9565b67ffffffffffffffff811115610a4057610a4061339e565b604051908082528060200260200182016040528015610a69578160200160208202803683370190505b50905060005b85610100015151811015610adb578561010001518181518110610a9457610a94613d03565b6020026020010151828281518110610aae57610aae613d03565b73ffffffffffffffffffffffffffffffffffffffff90921660209283029190910190910152600101610a6f565b5033818661010001515181518110610af557610af5613d03565b73ffffffffffffffffffffffffffffffffffffffff9092166020928302919091019091015261010085018190526000610b2f868686610ce8565b50905080610b6f578585856040517ff58cc8b500000000000000000000000000000000000000000000000000000000815260040161063893929190613c99565b50600195945050505050565b333014610bb6576040517fa19dbf00000000000000000000000000000000000000000000000000000000008152336004820152602401610638565b610bcf8383836bffffffffffffffffffffffff16611c15565b6040805184815273ffffffffffffffffffffffffffffffffffffffff841660208201526bffffffffffffffffffffffff83168183015290517febf265acfac1c01de588ed7ef49743b9c3ce8d6d1edeaf510a1f5453228515b19181900360600190a1505050565b6000808383604051602001610c55929190918252602082015260400190565b604080517fffffffffffffffffffffffffffffffffffffffffffffffffffffffffffffffe0818403018152919052805160209091012054949350505050565b610c9c813055565b60405173ffffffffffffffffffffffffffffffffffffffff821681527f310ba5f1d2ed074b51e2eccd052a47ae9ab7c6b800d1fca3db3999d6a592ca039060200160405180910390a150565b600080600084846000818110610d0057610d00613d03565b7fff000000000000000000000000000000000000000000000000000000000000009201359182169250507f80000000000000000000000000000000000000000000000000000000000000009081169003610dff57610d5d86611773565b9150600080610d6b84611ca4565b9150915042811015610db3576040517f9fa4fe540000000000000000000000000000000000000000000000000000000081526004810185905260248101829052604401610638565b73ffffffffffffffffffffffffffffffffffffffff82161580610deb575073ffffffffffffffffffffffffffffffffffffffff821633145b15610dfc5760019450505050610e2e565b50505b6000806000610e128989896000806117ee565b98509295509093509150610e27905081611b13565b9550505050505b935093915050565b604080516101208101825260008082526020820181905260609282018390528282018190526080820181905260a0820183905260c0820181905260e0820152610100810191909152823560f81c60018082168103610e9a5760006060840152610eab565b84810135606090811c908401526014015b6007600183901c168015610efe5760016008820290811b7fffffffffffffffffffffffffffffffffffffffffffffffffffffffffffffffff0187840135610100929092039190911c166080850152908101905b600083601016601003610f1357506001610f3c565b83602016602003610f2f5750600282019186013560f01c610f3c565b50600182019186013560f81c5b8067ffffffffffffffff811115610f5557610f5561339e565b604051908082528060200260200182016040528015610fe057816020015b610fcd6040518060e00160405280600073ffffffffffffffffffffffffffffffffffffffff168152602001600081526020016060815260200160008152602001600015158152602001600015158152602001600081525090565b815260200190600190039081610f735790505b50604086015260005b818110156112495760018085019489013560f81c90808216900361104857308760400151838151811061101e5761101e613d03565b602090810291909101015173ffffffffffffffffffffffffffffffffffffffff9091169052611092565b8489013560601c601486018860400151848151811061106957611069613d03565b602090810291909101015173ffffffffffffffffffffffffffffffffffffffff90921690915294505b600280821690036110d0578489013560208601886040015184815181106110bb576110bb613d03565b60200260200101516020018197508281525050505b6004808216900361116857600385019489013560e81c89868a6110f38483613cc9565b9261110093929190613d32565b8080601f016020809104026020016040519081016040528093929190818152602001838380828437600092019190915250505050604089015180518590811061114b5761114b613d03565b6020908102919091010151604001526111648187613cc9565b9550505b600880821690036111a65784890135602086018860400151848151811061119157611191613d03565b60200260200101516060018197508281525050505b8060101660ff16601014876040015183815181106111c6576111c6613d03565b602002602001015160800190151590811515815250508060201660ff16602014876040015183815181106111fc576111fc613d03565b602090810291909101015190151560a090910152604087015180516003600684901c1691908490811061123157611231613d03565b602090810291909101015160c0015250600101610fe9565b505050505092915050565b600061125f836108d8565b90508181146112ab576040517f9b6514f4000000000000000000000000000000000000000000000000000000008152600481018490526024810183905260448101829052606401610638565b604080517f8d0bf1fd623d628c741362c1289948e57b3e2905218c676d3e69abee36d6ae2e60208083019190915281830186905282518083038401815260609092019092528051910120600183019081905560408051858152602081018390527f1f180c27086c7a39ea2a7b25239d1ab92348f07ca7bb59d1438fcf527568f881910160405180910390a150505050565b604081015151600090815b818110156115f05760008460400151828151811061136757611367613d03565b602002602001015190508060a001518015611380575083155b156113c8576040805187815260208101849052600095507f9ae934bf8a986157c889a24c3b3fa85e74b7e4ee4b1f8fc6e7362cb4c1d19d8b910160405180910390a1506115e8565b606081015180158015906113db5750805a105b156114185785835a6040517f2139527400000000000000000000000000000000000000000000000000000000815260040161063893929190613d5c565b60008260800151156114495782516114429083156114365783611438565b5a5b8560400151611cf0565b9050611470565b8251602084015161146d919084156114615784611463565b5a5b8660400151611d06565b90505b806115ab5760c08301516114cc57600195507f115f347c00e69f252cd6b63c4f81022a9564c6befe8aa719cb74640a4a306f0d88856114ad611d1e565b6040516114bc93929190613d81565b60405180910390a15050506115e8565b60c08301517fffffffffffffffffffffffffffffffffffffffffffffffffffffffffffffffff01611536578684611501611d1e565b6040517f7f6b0bb100000000000000000000000000000000000000000000000000000000815260040161063893929190613da0565b60c08301517ffffffffffffffffffffffffffffffffffffffffffffffffffffffffffffffffe016115ab577fc2c704302430fe0dc8d95f272e2f4e54bbbc51a3327fd5d75ab41f9fc8fd129b888561158c611d1e565b60405161159b93929190613d81565b60405180910390a15050506115f0565b60408051898152602081018690527fec670aed5ee1e72eb3eb601271be4b3f312e71f17eebdf10c1a0ab5a3af30ffd910160405180910390a15050505b600101611347565b5050505050565b8061162e576040517f4294d12700000000000000000000000000000000000000000000000000000000815260040160405180910390fd5b6116577fea7157fa25e3aa17d0ae2d5280fa4e24d421c61842aa85e45194e1145aa72bf8829055565b6040518181527f307ed6bd941ee9fc80f369c94af5fa11e25bab5102a6140191756c5474a30bfa9060200160405180910390a161064a7f0000000000000000000000000000000000000000000000000000000000000000610c94565b604080517fbe27a319efc8734e89e26ba4bc95f5c788584163b959f03fa04e2d7ab4b9a1206020808301919091527fffffffff000000000000000000000000000000000000000000000000000000008516828401819052835180840385018152606084018086528151919093012073ffffffffffffffffffffffffffffffffffffffff8616908190559152608082015290517f0d7fc113eaf016db4681a1ba86d083ce3e0961f321062a75ac2b0aeb33deeed19181900360a00190a15050565b600080611784836020015130611d3d565b9050600061179184611e0a565b6040517f1901000000000000000000000000000000000000000000000000000000000000602082015260228101849052604281018290529091506062015b6040516020818303038152906040528051906020012092505050919050565b6040805180820182526000808252602082018190529182918291829182918a3560f81c91600191808416148015611839575073ffffffffffffffffffffffffffffffffffffffff8916155b15611955578b82013560601c9850601490910190896119555760038201918c013560e81c60008d848e61186c8583613cc9565b9261187993929190613d32565b8080601f016020809104026020016040519081016040528093929190818152602001838380828437600092019190915250506040517fccce3bc80000000000000000000000000000000000000000000000000000000081529293505073ffffffffffffffffffffffffffffffffffffffff8d169163ccce3bc891506119049030908590600401613dcb565b6040805180830381865afa158015611920573d6000803e3d6000fd5b505050506040513d601f19601f820116820180604052508101906119449190613e02565b92506119508285613cc9565b935050505b8260011660010361198f5761197d8d8a838f8f8790809261197893929190613d32565b612060565b97509750975097509750505050611b06565b6002838116811460208f015283901c60071660016008820290811b7fffffffffffffffffffffffffffffffffffffffffffffffffffffffffffffffff018e850135610100929092039190911c168382019096509250600090506119fa6001600586901c811690613cc9565b60016008820290811b7fffffffffffffffffffffffffffffffffffffffffffffffffffffffffffffffff018f860135610100929092039190911c1699509092019150611a458d611773565b9350611a638d858e8e86908092611a5e93929190613d32565b6122ac565b600090815260208a815260408083208352888252808320835273ffffffffffffffffffffffffffffffffffffffff8d1690915290208251919850965015801590611aae575080518614155b8015611abe575080602001518511155b15611b02576040517fccbb534f0000000000000000000000000000000000000000000000000000000081528151600482015260208201516024820152604401610638565b5050505b9550955095509550959050565b60006105fb826040517fff0000000000000000000000000000000000000000000000000000000000000060208201527fffffffffffffffffffffffffffffffffffffffff0000000000000000000000007f000000000000000000000000000000000000000000000000000000000000000060601b166021820152603581018290527f000000000000000000000000000000000000000000000000000000000000000060558201526000903090607501604080517fffffffffffffffffffffffffffffffffffffffffffffffffffffffffffffffe0818403018152919052805160209091012073ffffffffffffffffffffffffffffffffffffffff161492915050565b611c9f7fc852adf5e97c2fc3b38f405671e91b7af1697ef0287577f227ef10494c2a8e86847fffffffffffffffffffffffffffffffffffffffff000000000000000000000000606086901b166bffffffffffffffffffffffff8516176040805160208082019590955280820193909352805180840382018152606090930190528151919092012055565b505050565b60008080611cd27fc852adf5e97c2fc3b38f405671e91b7af1697ef0287577f227ef10494c2a8e8685610c36565b606081901c956bffffffffffffffffffffffff909116945092505050565b60008060008351602085018787f4949350505050565b6000806000835160208501878988f195945050505050565b60603d604051915060208201818101604052818352816000823e505090565b60007f8b73c3c69bb8fe3d512ecc4cf759cc79239f7b179b0ffacaa9a75d522b39400f7f4aa45ca7ad825ceb1bf35643f0a58c295239df563b1b565c2485f96477c563187f2a80e1ef1d7842f27f2e6be0972bb708b9a135c38860dbe73c27c3486c34f4de85611dad5746611db0565b60005b6040805160208101959095528401929092526060830152608082015273ffffffffffffffffffffffffffffffffffffffff831660a082015260c0015b60405160208183030381529060405280519060200120905092915050565b600080611e1b836101000151612c90565b835190915060ff16611e8e576000611e368460400151612d13565b606080860151608080880151604080517f11e1e4079a79a66e4ade50033cfe2678cdd5341d2dfe5ef9513edb1a0be147a260208201529081018690529384019290925282015260a0810184905290915060c0016117cf565b825160ff167fffffffffffffffffffffffffffffffffffffffffffffffffffffffffffffffff01611f1e5760a08301518051602091820120604080517fe19a3b94fc3c7ece3f890d98a99bc422615537a08dea0603fa8425867d87d46693810193909352820152606081018290526080015b60405160208183030381529060405280519060200120915050919050565b825160ff167ffffffffffffffffffffffffffffffffffffffffffffffffffffffffffffffffe01611f8e5760c0830151604080517f11fdeb7e8373a1aa96bfac8d0ea91526b2c5d15e5cee20e0543e780258f3e8e460208201529081019190915260608101829052608001611f00565b825160ff167ffffffffffffffffffffffffffffffffffffffffffffffffffffffffffffffffd01611ffe5760e0830151604080517f402e923b91e918306019e73f589362164a6a059499a504699c66feabbb3e262460208201529081019190915260608101829052608001611f00565b6040517f08c379a000000000000000000000000000000000000000000000000000000000815260206004820152601060248201527f556e737570706f72746564206b696e64000000000000000000000000000000006044820152606401610638565b60008060008060006120c2604051806101200160405280600060ff168152602001600015158152602001606081526020016000815260200160008152602001606081526020016000801916815260200160008019168152602001606081525090565b6002815260007fffffffffffffffffffffffffffffffffffffffffffffffffffffffffffffffff5b888210156122395760038201916000908b013560e81c61210a8482613cc9565b9150600090508a821461211e576000612120565b8d5b905060007fffffffffffffffffffffffffffffffffffffffffffffffffffffffffffffffff84146121515785612153565b8f5b9050612173818e8e8890879261216b93929190613d32565b6001866117ee565b50929d50909b50995097508a8a10156121d0578c8c8690859261219893929190613d32565b8c8c6040517fb006aba00000000000000000000000000000000000000000000000000000000081526004016106389493929190613e53565b829450888e60000151036121e35760008e525b838810612226576040517f37daf62b0000000000000000000000000000000000000000000000000000000081526004810189905260248101859052604401610638565b505060c0840187905291508490506120ea565b8a511580159061224d57508a602001518511155b15612291576040517fccbb534f0000000000000000000000000000000000000000000000000000000081528b51600482015260208c01516024820152604401610638565b61229a8d611773565b93505050509550955095509550959050565b60008060005b83811015612c8657600181019085013560f881901c9060fc1c806123cf57600f821660008190036122ea5750600183019287013560f81c5b60408051600080825260208281018085528d9052601b8c89019182013560ff81811c928301908116868801529235606086018190527f7fffffffffffffffffffffffffffffffffffffffffffffffffffffffffffffff82166080870181905296909a0199959094919390929160019060a0015b6020604051602081039080840390855afa15801561237f573d6000803e3d6000fd5b5050506020604051035190508660ff168c019b5060006123a2828960ff16612d95565b90508b6123af57806123be565b60008c81526020829052604090205b9b50505050505050505050506122b2565b6001810361243357600f821660008190036123f15750600183019287013560f81c5b601484019388013560601c600061240b8260ff8516612d95565b9050866124185780612427565b60008781526020829052604090205b965050505050506122b2565b6002810361261a576003821660008190036124555750600183019287013560f81c5b60008489013560601c60148601955090506003600285901c16600060016008830290811b7fffffffffffffffffffffffffffffffffffffffffffffffffffffffffffffffff018c890135610100929092039190911c168288018098508192505050600081880190506320c13b0b60e01b7bffffffffffffffffffffffffffffffffffffffffffffffffffffffff19168473ffffffffffffffffffffffffffffffffffffffff16631626ba7e8f8f8f8d90879261251393929190613d32565b6040518463ffffffff1660e01b815260040161253193929190613e7a565b602060405180830381865afa15801561254e573d6000803e3d6000fd5b505050506040513d601f19601f820116820180604052508101906125729190613e94565b7fffffffff0000000000000000000000000000000000000000000000000000000016146125d5578d8d858e8e6040517ff734863a000000000000000000000000000000000000000000000000000000008152600401610638959493929190613eb1565b8097508460ff168a01995060006125ef858760ff16612d95565b9050896125fc578061260b565b60008a81526020829052604090205b995050505050505050506122b2565b6003810361264e576020830192870135846126355780612644565b60008581526020829052604090205b94505050506122b2565b600481036126f457600f8216600060016008830290811b7fffffffffffffffffffffffffffffffffffffffffffffffffffffffffffffffff018a870135610100929092039190911c168583018096508192505050600081860190506000806126c38e8e8e8e8c908892611a5e93929190613d32565b91509150829750818a0199506126e3898260009182526020526040902090565b9850829750505050505050506122b2565b600681036127be576003600283901c16600081900361271a5750600183019287013560f81c5b6003831660008190036127345750600284019388013560f01c5b6000858a013560e81c600387018162ffffff1691508097508192505050600081870190506000806127728f8f8f8f8d908892611a5e93929190613d32565b9150915082985084821061278557998501995b6000612792828789612dfc565b90508a61279f57806127ae565b60008b81526020829052604090205b9a505050505050505050506122b2565b6005810361282b5760208301928701358881036127f9577fffffffffffffffffffffffffffffffffffffffffffffffffffffffffffffffff95505b600061280482612e60565b9050856128115780612820565b60008681526020829052604090205b9550505050506122b2565b6007810361293157600f8216600081900361284d5750600183019287013560f81c5b600080858a0135602087019650915089860135602087016040517f19457468657265756d205369676e6564204d6573736167653a0a3332000000006020820152603c81018e905290975090915060ff82901c907f7fffffffffffffffffffffffffffffffffffffffffffffffffffffffffffffff831690601b830190600090600190605c01604080517fffffffffffffffffffffffffffffffffffffffffffffffffffffffffffffffe08184030181528282528051602091820120600084529083018083525260ff851690820152606081018890526080810185905260a00161235d565b60088103612985576020830192870135600061294d8b82612eb4565b905080820361297a577fffffffffffffffffffffffffffffffffffffffffffffffffffffffffffffffff96505b600061240b82612f2f565b60098103612aeb576003821660008190036129a75750600183019287013560f81c5b60008489013560601c601486019550905060006003600286901c1660016008820290811b7fffffffffffffffffffffffffffffffffffffffffffffffffffffffffffffffff018c890135610100929092039190911c168188018098508193505050506000818701905060008373ffffffffffffffffffffffffffffffffffffffff1663ca7078508f8e8e8c908792612a4193929190613d32565b6040518463ffffffff1660e01b8152600401612a5f93929190613c99565b602060405180830381865afa158015612a7c573d6000803e3d6000fd5b505050506040513d601f19601f82011682018060405250810190612aa09190613f05565b90508197508460ff168a0199506000612abd858760ff1684612f6a565b905089612aca5780612ad9565b60008a81526020829052604090205b995082985050505050505050506122b2565b600a8103612c5157600382166000819003612b0d5750600183019287013560f81c5b60008489013560601c60148601955090506003600285901c16600060016008830290811b7fffffffffffffffffffffffffffffffffffffffffffffffffffffffffffffffff018c890135610100929092039190911c1682880180985081925050506000818801905060008473ffffffffffffffffffffffffffffffffffffffff1663957d2b238f8f8f8d908792612ba693929190613d32565b6040518463ffffffff1660e01b8152600401612bc493929190613e7a565b602060405180830381865afa158015612be1573d6000803e3d6000fd5b505050506040513d601f19601f82011682018060405250810190612c059190613f05565b90508198508560ff168b019a506000612c22868860ff1684612f6a565b90508a612c2f5780612c3e565b60008b81526020829052604090205b9a508299505050505050505050506122b2565b6040517fb2505f7c00000000000000000000000000000000000000000000000000000000815260048101829052602401610638565b5094509492505050565b6000606060005b8351811015612d045781848281518110612cb357612cb3613d03565b6020026020010151604051602001612ccc929190613f1e565b604080517fffffffffffffffffffffffffffffffffffffffffffffffffffffffffffffffe08184030181529190529150600101612c97565b50805160209091012092915050565b6000606060005b8351811015612d04576000612d47858381518110612d3a57612d3a613d03565b6020026020010151612fd8565b90508281604051602001612d5c929190613f56565b604080517fffffffffffffffffffffffffffffffffffffffffffffffffffffffffffffffe0818403018152919052925050600101612d1a565b6040517f53657175656e6365207369676e65723a0a00000000000000000000000000000060208201527fffffffffffffffffffffffffffffffffffffffff000000000000000000000000606084901b16603182015260458101829052600090606501611dec565b6040517f53657175656e6365206e657374656420636f6e6669673a0a000000000000000060208201526038810184905260588101839052607881018290526000906098015b6040516020818303038152906040528051906020012090509392505050565b6040517f53657175656e636520737461746963206469676573743a0a00000000000000006020820152603881018290526000906058015b604051602081830303815290604052805190602001209050919050565b600080612ec5846020015184611d3d565b90506000612ed285611e0a565b6040517f190100000000000000000000000000000000000000000000000000000000000060208201526022810184905260428101829052909150606201604051602081830303815290604052805190602001209250505092915050565b604080517f53657175656e636520616e792061646472657373207375626469676573743a0a6020820152908101829052600090606001612e97565b6040517f53657175656e63652073617069656e7420636f6e6669673a0a0000000000000060208201527fffffffffffffffffffffffffffffffffffffffff000000000000000000000000606085901b166039820152604d8101839052606d8101829052600090608d01612e41565b60007f0603985259a953da1f65a522f589c17bd1d0117ec1d3abb7c0788aef251ef43782600001518360200151846040015180519060200120856060015186608001518760a001518860c00151604051602001612e9798979695949392919097885273ffffffffffffffffffffffffffffffffffffffff969096166020880152604087019490945260608601929092526080850152151560a0840152151560c083015260e08201526101000190565b80357fffffffff0000000000000000000000000000000000000000000000000000000081169060048410156130e6577fffffffff00000000000000000000000000000000000000000000000000000000808560040360031b1b82161691505b5092915050565b8183823760009101908152919050565b803573ffffffffffffffffffffffffffffffffffffffff8116811461312157600080fd5b919050565b60006020828403121561313857600080fd5b6106de826130fd565b60008083601f84011261315357600080fd5b50813567ffffffffffffffff81111561316b57600080fd5b60208301915083602082850101111561318357600080fd5b9250929050565b6000806000806000608086880312156131a257600080fd5b6131ab866130fd565b94506131b9602087016130fd565b935060408601359250606086013567ffffffffffffffff8111156131dc57600080fd5b6131e888828901613141565b969995985093965092949392505050565b60008060006040848603121561320e57600080fd5b83359250602084013567ffffffffffffffff81111561322c57600080fd5b61323886828701613141565b9497909650939450505050565b7fffffffff000000000000000000000000000000000000000000000000000000008116811461064a57600080fd5b60006020828403121561328557600080fd5b81356106de81613245565b600080600080604085870312156132a657600080fd5b843567ffffffffffffffff8111156132bd57600080fd5b6132c987828801613141565b909550935050602085013567ffffffffffffffff8111156132e957600080fd5b6132f587828801613141565b95989497509550505050565b60006020828403121561331357600080fd5b5035919050565b6000806020838503121561332d57600080fd5b823567ffffffffffffffff81111561334457600080fd5b61335085828601613141565b90969095509350505050565b6000806000806060858703121561337257600080fd5b61337b856130fd565b935060208501359250604085013567ffffffffffffffff8111156132e957600080fd5b7f4e487b7100000000000000000000000000000000000000000000000000000000600052604160045260246000fd5b60405160e0810167ffffffffffffffff811182821017156133f0576133f061339e565b60405290565b604051610120810167ffffffffffffffff811182821017156133f0576133f061339e565b604051601f82017fffffffffffffffffffffffffffffffffffffffffffffffffffffffffffffffe016810167ffffffffffffffff811182821017156134615761346161339e565b604052919050565b803560ff8116811461312157600080fd5b8035801515811461312157600080fd5b600067ffffffffffffffff8211156134a4576134a461339e565b5060051b60200190565b600082601f8301126134bf57600080fd5b813567ffffffffffffffff8111156134d9576134d961339e565b61350a60207fffffffffffffffffffffffffffffffffffffffffffffffffffffffffffffffe0601f8401160161341a565b81815284602083860101111561351f57600080fd5b816020850160208301376000918101602001919091529392505050565b600082601f83011261354d57600080fd5b813561356061355b8261348a565b61341a565b8082825260208201915060208360051b86010192508583111561358257600080fd5b602085015b8381101561366f57803567ffffffffffffffff8111156135a657600080fd5b860160e08189037fffffffffffffffffffffffffffffffffffffffffffffffffffffffffffffffe00112156135da57600080fd5b6135e26133cd565b6135ee602083016130fd565b815260408201356020820152606082013567ffffffffffffffff81111561361457600080fd5b6136238a6020838601016134ae565b6040830152506080820135606082015261363f60a0830161347a565b608082015261365060c0830161347a565b60a082015260e0919091013560c0820152835260209283019201613587565b5095945050505050565b600082601f83011261368a57600080fd5b813561369861355b8261348a565b8082825260208201915060208360051b8601019250858311156136ba57600080fd5b602085015b8381101561366f576136d0816130fd565b8352602092830192016136bf565b6000806000604084860312156136f357600080fd5b833567ffffffffffffffff81111561370a57600080fd5b8401610120818703121561371d57600080fd5b6137256133f6565b61372e82613469565b815261373c6020830161347a565b6020820152604082013567ffffffffffffffff81111561375b57600080fd5b6137678882850161353c565b604083015250606082810135908201526080808301359082015260a082013567ffffffffffffffff81111561379b57600080fd5b6137a7888285016134ae565b60a08301525060c0828101359082015260e0808301359082015261010082013567ffffffffffffffff8111156137dc57600080fd5b6137e888828501613679565b61010083015250935050602084013567ffffffffffffffff81111561322c57600080fd5b6000806040838503121561381f57600080fd5b823561382a81613245565b9150613838602084016130fd565b90509250929050565b60008083601f84011261385357600080fd5b50813567ffffffffffffffff81111561386b57600080fd5b6020830191508360208260051b850101111561318357600080fd5b60008060008060008060008060a0898b0312156138a257600080fd5b6138ab896130fd565b97506138b960208a016130fd565b9650604089013567ffffffffffffffff8111156138d557600080fd5b6138e18b828c01613841565b909750955050606089013567ffffffffffffffff81111561390157600080fd5b61390d8b828c01613841565b909550935050608089013567ffffffffffffffff81111561392d57600080fd5b6139398b828c01613141565b999c989b5096995094979396929594505050565b60008060008060008060a0878903121561396657600080fd5b61396f876130fd565b955061397d602088016130fd565b94506040870135935060608701359250608087013567ffffffffffffffff8111156139a757600080fd5b6139b389828a01613141565b979a9699509497509295939492505050565b6000806000606084860312156139da57600080fd5b833592506139ea602085016130fd565b915060408401356bffffffffffffffffffffffff81168114613a0b57600080fd5b809150509250925092565b60005b83811015613a31578181015183820152602001613a19565b50506000910152565b60008151808452613a52816020860160208601613a16565b601f017fffffffffffffffffffffffffffffffffffffffffffffffffffffffffffffffe0169290920160200192915050565b600082825180855260208501945060208160051b8301016020850160005b83811015613b54577fffffffffffffffffffffffffffffffffffffffffffffffffffffffffffffffe0858403018852815173ffffffffffffffffffffffffffffffffffffffff815116845260208101516020850152604081015160e06040860152613b1060e0860182613a3a565b6060838101519087015260808084015115159087015260a08084015115159087015260c0928301519290950191909152506020978801979190910190600101613aa2565b50909695505050505050565b600081518084526020840193506020830160005b82811015613ba857815173ffffffffffffffffffffffffffffffffffffffff16865260209586019590910190600101613b74565b5093949350505050565b805160ff16825260006020820151613bce602085018215159052565b5060408201516101206040850152613bea610120850182613a84565b9050606083015160608501526080830151608085015260a083015184820360a0860152613c178282613a3a565b91505060c083015160c085015260e083015160e0850152610100830151848203610100860152613c478282613b60565b95945050505050565b8183528181602085013750600060208284010152600060207fffffffffffffffffffffffffffffffffffffffffffffffffffffffffffffffe0601f840116840101905092915050565b604081526000613cac6040830186613bb2565b8281036020840152613cbf818587613c50565b9695505050505050565b808201808211156105fb577f4e487b7100000000000000000000000000000000000000000000000000000000600052601160045260246000fd5b7f4e487b7100000000000000000000000000000000000000000000000000000000600052603260045260246000fd5b60008085851115613d4257600080fd5b83861115613d4f57600080fd5b5050820193919092039150565b606081526000613d6f6060830186613bb2565b60208301949094525060400152919050565b838152826020820152606060408201526000613c476060830184613a3a565b606081526000613db36060830186613bb2565b8460208401528281036040840152613cbf8185613a3a565b73ffffffffffffffffffffffffffffffffffffffff83168152604060208201526000613dfa6040830184613a3a565b949350505050565b60006040828403128015613e1557600080fd5b506040805190810167ffffffffffffffff81118282101715613e3957613e3961339e565b604052825181526020928301519281019290925250919050565b606081526000613e67606083018688613c50565b6020830194909452506040015292915050565b838152604060208201526000613c47604083018486613c50565b600060208284031215613ea657600080fd5b81516106de81613245565b608081526000613ec46080830188613bb2565b86602084015273ffffffffffffffffffffffffffffffffffffffff861660408401528281036060840152613ef9818587613c50565b98975050505050505050565b600060208284031215613f1757600080fd5b5051919050565b604081526000613f316040830185613a3a565b905073ffffffffffffffffffffffffffffffffffffffff831660208301529392505050565b60008351613f68818460208801613a16565b919091019182525060200191905056fea26469706673582212206fb425d47223eb3340bb919e7ebe3f82ea13fc4c20167f38ff2b65b54841871664736f6c634300081b00336080604052348015600f57600080fd5b50613e2c8061001f6000396000f3fe60806040526004361061012d5760003560e01c80638943ec02116100a5578063b93ea7ad11610074578063ca70785011610059578063ca7078501461046a578063f23a6e611461048a578063f727ef1c146104d057610134565b8063b93ea7ad1461040f578063bc197c811461042257610134565b80638943ec02146103665780638c3f556314610387578063aaf10f42146103a7578063ad55366b146103bc57610134565b80631f6a1eb9116100fc5780634fcf3eca116100e15780634fcf3eca1461031d57806351605d80146103305780636ea445771461035357610134565b80631f6a1eb9146102ea57806329561426146102fd57610134565b8063025b22bc146101f7578063150b7a021461020a5780631626ba7e146102855780631a9b2337146102a557610134565b3661013457005b600436106101f557600061015061014b3683612f05565b6104f0565b905073ffffffffffffffffffffffffffffffffffffffff8116156101f3576000808273ffffffffffffffffffffffffffffffffffffffff16600036604051610199929190612f6b565b600060405180830381855af49150503d80600081146101d4576040519150601f19603f3d011682016040523d82523d6000602084013e6101d9565b606091505b5091509150816101eb57805160208201fd5b805160208201f35b505b005b6101f5610205366004612fa4565b610544565b34801561021657600080fd5b5061024f610225366004613008565b7f150b7a020000000000000000000000000000000000000000000000000000000095945050505050565b6040517fffffffff0000000000000000000000000000000000000000000000000000000090911681526020015b60405180910390f35b34801561029157600080fd5b5061024f6102a0366004613077565b610590565b3480156102b157600080fd5b506102c56102c03660046130f1565b610628565b60405173ffffffffffffffffffffffffffffffffffffffff909116815260200161027c565b6101f56102f836600461310e565b610633565b34801561030957600080fd5b506101f561031836600461317f565b6106b5565b6101f561032b3660046130f1565b6106f9565b34801561033c57600080fd5b506103456107bb565b60405190815260200161027c565b6101f5610361366004613198565b6107ea565b34801561037257600080fd5b506101f56103813660046131da565b50505050565b34801561039357600080fd5b506103456103a236600461317f565b61084a565b3480156103b357600080fd5b506102c5610876565b3480156103c857600080fd5b506103dc6103d736600461355c565b610880565b604080519687526020870195909552921515938501939093526060840152608083019190915260a082015260c00161027c565b6101f561041d36600461368a565b6108ba565b34801561042e57600080fd5b5061024f61043d366004613704565b7fbc197c810000000000000000000000000000000000000000000000000000000098975050505050505050565b34801561047657600080fd5b5061034561048536600461355c565b61097f565b34801561049657600080fd5b5061024f6104a53660046137cb565b7ff23a6e61000000000000000000000000000000000000000000000000000000009695505050505050565b3480156104dc57600080fd5b506101f56104eb366004613843565b610ae8565b600061053e7fbe27a319efc8734e89e26ba4bc95f5c788584163b959f03fa04e2d7ab4b9a1207fffffffff000000000000000000000000000000000000000000000000000000008416610ba3565b92915050565b333014610584576040517fa19dbf000000000000000000000000000000000000000000000000000000000081523360048201526024015b60405180910390fd5b61058d81610c01565b50565b604080516101208101825260006020820181905260609282018390528282018190526080820181905260a0820183905260c082018190526101008201929092526003815260e08101859052816105e7828686610c56565b509050806105fb5750600091506106219050565b507f20c13b0b000000000000000000000000000000000000000000000000000000009150505b9392505050565b600061053e826104f0565b600061063f8585610da4565b9050610653816060015182608001516111c2565b600080610661838686610c56565b91509150816106a2578285856040517fa2b6d61b00000000000000000000000000000000000000000000000000000000815260040161057b93929190613b17565b6106ac81846112aa565b50505050505050565b3330146106f0576040517fa19dbf0000000000000000000000000000000000000000000000000000000000815233600482015260240161057b565b61058d81611565565b333014610734576040517fa19dbf0000000000000000000000000000000000000000000000000000000000815233600482015260240161057b565b600061073f826104f0565b73ffffffffffffffffffffffffffffffffffffffff16036107b0576040517f1c3812cc0000000000000000000000000000000000000000000000000000000081527fffffffff000000000000000000000000000000000000000000000000000000008216600482015260240161057b565b61058d8160006115f5565b60006107e57fea7157fa25e3aa17d0ae2d5280fa4e24d421c61842aa85e45194e1145aa72bf85490565b905090565b333014610825576040517fa19dbf0000000000000000000000000000000000000000000000000000000000815233600482015260240161057b565b60006108318383610da4565b9050600061083e826116b5565b905061038181836112aa565b600061053e7f8d0bf1fd623d628c741362c1289948e57b3e2905218c676d3e69abee36d6ae2e83610ba3565b60006107e5305490565b600080600080600080610897898989600080611730565b9399509197509450925090506108ac83611a55565b935093975093979195509350565b3330146108f5576040517fa19dbf0000000000000000000000000000000000000000000000000000000000815233600482015260240161057b565b6000610900836104f0565b73ffffffffffffffffffffffffffffffffffffffff1614610971576040517f5b4d6d6a0000000000000000000000000000000000000000000000000000000081527fffffffff000000000000000000000000000000000000000000000000000000008316600482015260240161057b565b61097b82826115f5565b5050565b6000808461010001515160016109959190613b47565b67ffffffffffffffff8111156109ad576109ad61321c565b6040519080825280602002602001820160405280156109d6578160200160208202803683370190505b50905060005b85610100015151811015610a48578561010001518181518110610a0157610a01613b81565b6020026020010151828281518110610a1b57610a1b613b81565b73ffffffffffffffffffffffffffffffffffffffff909216602092830291909101909101526001016109dc565b5033818661010001515181518110610a6257610a62613b81565b73ffffffffffffffffffffffffffffffffffffffff9092166020928302919091019091015261010085018190526000610a9c868686610c56565b50905080610adc578585856040517ff58cc8b500000000000000000000000000000000000000000000000000000000815260040161057b93929190613b17565b50600195945050505050565b333014610b23576040517fa19dbf0000000000000000000000000000000000000000000000000000000000815233600482015260240161057b565b610b3c8383836bffffffffffffffffffffffff16611a60565b6040805184815273ffffffffffffffffffffffffffffffffffffffff841660208201526bffffffffffffffffffffffff83168183015290517febf265acfac1c01de588ed7ef49743b9c3ce8d6d1edeaf510a1f5453228515b19181900360600190a1505050565b6000808383604051602001610bc2929190918252602082015260400190565b604080517fffffffffffffffffffffffffffffffffffffffffffffffffffffffffffffffe0818403018152919052805160209091012054949350505050565b610c09813055565b60405173ffffffffffffffffffffffffffffffffffffffff821681527f310ba5f1d2ed074b51e2eccd052a47ae9ab7c6b800d1fca3db3999d6a592ca03906020015b60405180910390a150565b600080600084846000818110610c6e57610c6e613b81565b7fff000000000000000000000000000000000000000000000000000000000000009201359182169250507f80000000000000000000000000000000000000000000000000000000000000009081169003610d6d57610ccb866116b5565b9150600080610cd984611aef565b9150915042811015610d21576040517f9fa4fe54000000000000000000000000000000000000000000000000000000008152600481018590526024810182905260440161057b565b73ffffffffffffffffffffffffffffffffffffffff82161580610d59575073ffffffffffffffffffffffffffffffffffffffff821633145b15610d6a5760019450505050610d9c565b50505b6000806000610d80898989600080611730565b98509295509093509150610d95905081611a55565b9550505050505b935093915050565b604080516101208101825260008082526020820181905260609282018390528282018190526080820181905260a0820183905260c0820181905260e0820152610100810191909152823560f81c60018082168103610e085760006060840152610e19565b84810135606090811c908401526014015b6007600183901c168015610e6c5760016008820290811b7fffffffffffffffffffffffffffffffffffffffffffffffffffffffffffffffff0187840135610100929092039190911c166080850152908101905b600083601016601003610e8157506001610eaa565b83602016602003610e9d5750600282019186013560f01c610eaa565b50600182019186013560f81c5b8067ffffffffffffffff811115610ec357610ec361321c565b604051908082528060200260200182016040528015610f4e57816020015b610f3b6040518060e00160405280600073ffffffffffffffffffffffffffffffffffffffff168152602001600081526020016060815260200160008152602001600015158152602001600015158152602001600081525090565b815260200190600190039081610ee15790505b50604086015260005b818110156111b75760018085019489013560f81c908082169003610fb6573087604001518381518110610f8c57610f8c613b81565b602090810291909101015173ffffffffffffffffffffffffffffffffffffffff9091169052611000565b8489013560601c6014860188604001518481518110610fd757610fd7613b81565b602090810291909101015173ffffffffffffffffffffffffffffffffffffffff90921690915294505b6002808216900361103e5784890135602086018860400151848151811061102957611029613b81565b60200260200101516020018197508281525050505b600480821690036110d657600385019489013560e81c89868a6110618483613b47565b9261106e93929190613bb0565b8080601f01602080910402602001604051908101604052809392919081815260200183838082843760009201919091525050505060408901518051859081106110b9576110b9613b81565b6020908102919091010151604001526110d28187613b47565b9550505b60088082169003611114578489013560208601886040015184815181106110ff576110ff613b81565b60200260200101516060018197508281525050505b8060101660ff166010148760400151838151811061113457611134613b81565b602002602001015160800190151590811515815250508060201660ff166020148760400151838151811061116a5761116a613b81565b602090810291909101015190151560a090910152604087015180516003600684901c1691908490811061119f5761119f613b81565b602090810291909101015160c0015250600101610f57565b505050505092915050565b60006111cd8361084a565b9050818114611219576040517f9b6514f400000000000000000000000000000000000000000000000000000000815260048101849052602481018390526044810182905260640161057b565b604080517f8d0bf1fd623d628c741362c1289948e57b3e2905218c676d3e69abee36d6ae2e60208083019190915281830186905282518083038401815260609092019092528051910120600183019081905560408051858152602081018390527f1f180c27086c7a39ea2a7b25239d1ab92348f07ca7bb59d1438fcf527568f881910160405180910390a150505050565b604081015151600090815b8181101561155e576000846040015182815181106112d5576112d5613b81565b602002602001015190508060a0015180156112ee575083155b15611336576040805187815260208101849052600095507f9ae934bf8a986157c889a24c3b3fa85e74b7e4ee4b1f8fc6e7362cb4c1d19d8b910160405180910390a150611556565b606081015180158015906113495750805a105b156113865785835a6040517f2139527400000000000000000000000000000000000000000000000000000000815260040161057b93929190613bda565b60008260800151156113b75782516113b09083156113a457836113a6565b5a5b8560400151611b3b565b90506113de565b825160208401516113db919084156113cf57846113d1565b5a5b8660400151611b51565b90505b806115195760c083015161143a57600195507f115f347c00e69f252cd6b63c4f81022a9564c6befe8aa719cb74640a4a306f0d888561141b611b69565b60405161142a93929190613bff565b60405180910390a1505050611556565b60c08301517fffffffffffffffffffffffffffffffffffffffffffffffffffffffffffffffff016114a457868461146f611b69565b6040517f7f6b0bb100000000000000000000000000000000000000000000000000000000815260040161057b93929190613c1e565b60c08301517ffffffffffffffffffffffffffffffffffffffffffffffffffffffffffffffffe01611519577fc2c704302430fe0dc8d95f272e2f4e54bbbc51a3327fd5d75ab41f9fc8fd129b88856114fa611b69565b60405161150993929190613bff565b60405180910390a150505061155e565b60408051898152602081018690527fec670aed5ee1e72eb3eb601271be4b3f312e71f17eebdf10c1a0ab5a3af30ffd910160405180910390a15050505b6001016112b5565b5050505050565b8061159c576040517f4294d12700000000000000000000000000000000000000000000000000000000815260040160405180910390fd5b6115c57fea7157fa25e3aa17d0ae2d5280fa4e24d421c61842aa85e45194e1145aa72bf8829055565b6040518181527f307ed6bd941ee9fc80f369c94af5fa11e25bab5102a6140191756c5474a30bfa90602001610c4b565b604080517fbe27a319efc8734e89e26ba4bc95f5c788584163b959f03fa04e2d7ab4b9a1206020808301919091527fffffffff000000000000000000000000000000000000000000000000000000008516828401819052835180840385018152606084018086528151919093012073ffffffffffffffffffffffffffffffffffffffff8616908190559152608082015290517f0d7fc113eaf016db4681a1ba86d083ce3e0961f321062a75ac2b0aeb33deeed19181900360a00190a15050565b6000806116c6836020015130611b88565b905060006116d384611c55565b6040517f1901000000000000000000000000000000000000000000000000000000000000602082015260228101849052604281018290529091506062015b6040516020818303038152906040528051906020012092505050919050565b6040805180820182526000808252602082018190529182918291829182918a3560f81c9160019180841614801561177b575073ffffffffffffffffffffffffffffffffffffffff8916155b15611897578b82013560601c9850601490910190896118975760038201918c013560e81c60008d848e6117ae8583613b47565b926117bb93929190613bb0565b8080601f016020809104026020016040519081016040528093929190818152602001838380828437600092019190915250506040517fccce3bc80000000000000000000000000000000000000000000000000000000081529293505073ffffffffffffffffffffffffffffffffffffffff8d169163ccce3bc891506118469030908590600401613c49565b6040805180830381865afa158015611862573d6000803e3d6000fd5b505050506040513d601f19601f820116820180604052508101906118869190613c80565b92506118928285613b47565b935050505b826001166001036118d1576118bf8d8a838f8f879080926118ba93929190613bb0565b611eab565b97509750975097509750505050611a48565b6002838116811460208f015283901c60071660016008820290811b7fffffffffffffffffffffffffffffffffffffffffffffffffffffffffffffffff018e850135610100929092039190911c1683820190965092506000905061193c6001600586901c811690613b47565b60016008820290811b7fffffffffffffffffffffffffffffffffffffffffffffffffffffffffffffffff018f860135610100929092039190911c16995090920191506119878d6116b5565b93506119a58d858e8e869080926119a093929190613bb0565b6120f7565b600090815260208a815260408083208352888252808320835273ffffffffffffffffffffffffffffffffffffffff8d16909152902082519198509650158015906119f0575080518614155b8015611a00575080602001518511155b15611a44576040517fccbb534f000000000000000000000000000000000000000000000000000000008152815160048201526020820151602482015260440161057b565b5050505b9550955095509550959050565b600061053e82612adb565b611aea7fc852adf5e97c2fc3b38f405671e91b7af1697ef0287577f227ef10494c2a8e86847fffffffffffffffffffffffffffffffffffffffff000000000000000000000000606086901b166bffffffffffffffffffffffff8516176040805160208082019590955280820193909352805180840382018152606090930190528151919092012055565b505050565b60008080611b1d7fc852adf5e97c2fc3b38f405671e91b7af1697ef0287577f227ef10494c2a8e8685610ba3565b606081901c956bffffffffffffffffffffffff909116945092505050565b60008060008351602085018787f4949350505050565b6000806000835160208501878988f195945050505050565b60603d604051915060208201818101604052818352816000823e505090565b60007f8b73c3c69bb8fe3d512ecc4cf759cc79239f7b179b0ffacaa9a75d522b39400f7f4aa45ca7ad825ceb1bf35643f0a58c295239df563b1b565c2485f96477c563187f2a80e1ef1d7842f27f2e6be0972bb708b9a135c38860dbe73c27c3486c34f4de85611bf85746611bfb565b60005b6040805160208101959095528401929092526060830152608082015273ffffffffffffffffffffffffffffffffffffffff831660a082015260c0015b60405160208183030381529060405280519060200120905092915050565b600080611c66836101000151612b0e565b835190915060ff16611cd9576000611c818460400151612b91565b606080860151608080880151604080517f11e1e4079a79a66e4ade50033cfe2678cdd5341d2dfe5ef9513edb1a0be147a260208201529081018690529384019290925282015260a0810184905290915060c001611711565b825160ff167fffffffffffffffffffffffffffffffffffffffffffffffffffffffffffffffff01611d695760a08301518051602091820120604080517fe19a3b94fc3c7ece3f890d98a99bc422615537a08dea0603fa8425867d87d46693810193909352820152606081018290526080015b60405160208183030381529060405280519060200120915050919050565b825160ff167ffffffffffffffffffffffffffffffffffffffffffffffffffffffffffffffffe01611dd95760c0830151604080517f11fdeb7e8373a1aa96bfac8d0ea91526b2c5d15e5cee20e0543e780258f3e8e460208201529081019190915260608101829052608001611d4b565b825160ff167ffffffffffffffffffffffffffffffffffffffffffffffffffffffffffffffffd01611e495760e0830151604080517f402e923b91e918306019e73f589362164a6a059499a504699c66feabbb3e262460208201529081019190915260608101829052608001611d4b565b6040517f08c379a000000000000000000000000000000000000000000000000000000000815260206004820152601060248201527f556e737570706f72746564206b696e6400000000000000000000000000000000604482015260640161057b565b6000806000806000611f0d604051806101200160405280600060ff168152602001600015158152602001606081526020016000815260200160008152602001606081526020016000801916815260200160008019168152602001606081525090565b6002815260007fffffffffffffffffffffffffffffffffffffffffffffffffffffffffffffffff5b888210156120845760038201916000908b013560e81c611f558482613b47565b9150600090508a8214611f69576000611f6b565b8d5b905060007fffffffffffffffffffffffffffffffffffffffffffffffffffffffffffffffff8414611f9c5785611f9e565b8f5b9050611fbe818e8e88908792611fb693929190613bb0565b600186611730565b50929d50909b50995097508a8a101561201b578c8c86908592611fe393929190613bb0565b8c8c6040517fb006aba000000000000000000000000000000000000000000000000000000000815260040161057b9493929190613cd1565b829450888e600001510361202e5760008e525b838810612071576040517f37daf62b000000000000000000000000000000000000000000000000000000008152600481018990526024810185905260440161057b565b505060c084018790529150849050611f35565b8a511580159061209857508a602001518511155b156120dc576040517fccbb534f0000000000000000000000000000000000000000000000000000000081528b51600482015260208c0151602482015260440161057b565b6120e58d6116b5565b93505050509550955095509550959050565b60008060005b83811015612ad157600181019085013560f881901c9060fc1c8061221a57600f821660008190036121355750600183019287013560f81c5b60408051600080825260208281018085528d9052601b8c89019182013560ff81811c928301908116868801529235606086018190527f7fffffffffffffffffffffffffffffffffffffffffffffffffffffffffffffff82166080870181905296909a0199959094919390929160019060a0015b6020604051602081039080840390855afa1580156121ca573d6000803e3d6000fd5b5050506020604051035190508660ff168c019b5060006121ed828960ff16612c13565b90508b6121fa5780612209565b60008c81526020829052604090205b9b50505050505050505050506120fd565b6001810361227e57600f8216600081900361223c5750600183019287013560f81c5b601484019388013560601c60006122568260ff8516612c13565b9050866122635780612272565b60008781526020829052604090205b965050505050506120fd565b60028103612465576003821660008190036122a05750600183019287013560f81c5b60008489013560601c60148601955090506003600285901c16600060016008830290811b7fffffffffffffffffffffffffffffffffffffffffffffffffffffffffffffffff018c890135610100929092039190911c168288018098508192505050600081880190506320c13b0b60e01b7bffffffffffffffffffffffffffffffffffffffffffffffffffffffff19168473ffffffffffffffffffffffffffffffffffffffff16631626ba7e8f8f8f8d90879261235e93929190613bb0565b6040518463ffffffff1660e01b815260040161237c93929190613cf8565b602060405180830381865afa158015612399573d6000803e3d6000fd5b505050506040513d601f19601f820116820180604052508101906123bd9190613d12565b7fffffffff000000000000000000000000000000000000000000000000000000001614612420578d8d858e8e6040517ff734863a00000000000000000000000000000000000000000000000000000000815260040161057b959493929190613d2f565b8097508460ff168a019950600061243a858760ff16612c13565b9050896124475780612456565b60008a81526020829052604090205b995050505050505050506120fd565b6003810361249957602083019287013584612480578061248f565b60008581526020829052604090205b94505050506120fd565b6004810361253f57600f8216600060016008830290811b7fffffffffffffffffffffffffffffffffffffffffffffffffffffffffffffffff018a870135610100929092039190911c1685830180965081925050506000818601905060008061250e8e8e8e8e8c9088926119a093929190613bb0565b91509150829750818a01995061252e898260009182526020526040902090565b9850829750505050505050506120fd565b60068103612609576003600283901c1660008190036125655750600183019287013560f81c5b60038316600081900361257f5750600284019388013560f01c5b6000858a013560e81c600387018162ffffff1691508097508192505050600081870190506000806125bd8f8f8f8f8d9088926119a093929190613bb0565b915091508298508482106125d057998501995b60006125dd828789612c7a565b90508a6125ea57806125f9565b60008b81526020829052604090205b9a505050505050505050506120fd565b60058103612676576020830192870135888103612644577fffffffffffffffffffffffffffffffffffffffffffffffffffffffffffffffff95505b600061264f82612cde565b90508561265c578061266b565b60008681526020829052604090205b9550505050506120fd565b6007810361277c57600f821660008190036126985750600183019287013560f81c5b600080858a0135602087019650915089860135602087016040517f19457468657265756d205369676e6564204d6573736167653a0a3332000000006020820152603c81018e905290975090915060ff82901c907f7fffffffffffffffffffffffffffffffffffffffffffffffffffffffffffffff831690601b830190600090600190605c01604080517fffffffffffffffffffffffffffffffffffffffffffffffffffffffffffffffe08184030181528282528051602091820120600084529083018083525260ff851690820152606081018890526080810185905260a0016121a8565b600881036127d057602083019287013560006127988b82612d32565b90508082036127c5577fffffffffffffffffffffffffffffffffffffffffffffffffffffffffffffffff96505b600061225682612dad565b60098103612936576003821660008190036127f25750600183019287013560f81c5b60008489013560601c601486019550905060006003600286901c1660016008820290811b7fffffffffffffffffffffffffffffffffffffffffffffffffffffffffffffffff018c890135610100929092039190911c168188018098508193505050506000818701905060008373ffffffffffffffffffffffffffffffffffffffff1663ca7078508f8e8e8c90879261288c93929190613bb0565b6040518463ffffffff1660e01b81526004016128aa93929190613b17565b602060405180830381865afa1580156128c7573d6000803e3d6000fd5b505050506040513d601f19601f820116820180604052508101906128eb9190613d83565b90508197508460ff168a0199506000612908858760ff1684612de8565b9050896129155780612924565b60008a81526020829052604090205b995082985050505050505050506120fd565b600a8103612a9c576003821660008190036129585750600183019287013560f81c5b60008489013560601c60148601955090506003600285901c16600060016008830290811b7fffffffffffffffffffffffffffffffffffffffffffffffffffffffffffffffff018c890135610100929092039190911c1682880180985081925050506000818801905060008473ffffffffffffffffffffffffffffffffffffffff1663957d2b238f8f8f8d9087926129f193929190613bb0565b6040518463ffffffff1660e01b8152600401612a0f93929190613cf8565b602060405180830381865afa158015612a2c573d6000803e3d6000fd5b505050506040513d601f19601f82011682018060405250810190612a509190613d83565b90508198508560ff168b019a506000612a6d868860ff1684612de8565b90508a612a7a5780612a89565b60008b81526020829052604090205b9a508299505050505050505050506120fd565b6040517fb2505f7c0000000000000000000000000000000000000000000000000000000081526004810182905260240161057b565b5094509492505050565b6000811580159061053e5750507fea7157fa25e3aa17d0ae2d5280fa4e24d421c61842aa85e45194e1145aa72bf8541490565b6000606060005b8351811015612b825781848281518110612b3157612b31613b81565b6020026020010151604051602001612b4a929190613d9c565b604080517fffffffffffffffffffffffffffffffffffffffffffffffffffffffffffffffe08184030181529190529150600101612b15565b50805160209091012092915050565b6000606060005b8351811015612b82576000612bc5858381518110612bb857612bb8613b81565b6020026020010151612e56565b90508281604051602001612bda929190613dd4565b604080517fffffffffffffffffffffffffffffffffffffffffffffffffffffffffffffffe0818403018152919052925050600101612b98565b6040517f53657175656e6365207369676e65723a0a00000000000000000000000000000060208201527fffffffffffffffffffffffffffffffffffffffff000000000000000000000000606084901b16603182015260458101829052600090606501611c37565b6040517f53657175656e6365206e657374656420636f6e6669673a0a000000000000000060208201526038810184905260588101839052607881018290526000906098015b6040516020818303038152906040528051906020012090509392505050565b6040517f53657175656e636520737461746963206469676573743a0a00000000000000006020820152603881018290526000906058015b604051602081830303815290604052805190602001209050919050565b600080612d43846020015184611b88565b90506000612d5085611c55565b6040517f190100000000000000000000000000000000000000000000000000000000000060208201526022810184905260428101829052909150606201604051602081830303815290604052805190602001209250505092915050565b604080517f53657175656e636520616e792061646472657373207375626469676573743a0a6020820152908101829052600090606001612d15565b6040517f53657175656e63652073617069656e7420636f6e6669673a0a0000000000000060208201527fffffffffffffffffffffffffffffffffffffffff000000000000000000000000606085901b166039820152604d8101839052606d8101829052600090608d01612cbf565b60007f0603985259a953da1f65a522f589c17bd1d0117ec1d3abb7c0788aef251ef43782600001518360200151846040015180519060200120856060015186608001518760a001518860c00151604051602001612d1598979695949392919097885273ffffffffffffffffffffffffffffffffffffffff969096166020880152604087019490945260608601929092526080850152151560a0840152151560c083015260e08201526101000190565b80357fffffffff000000000000000000000000000000000000000000000000000000008116906004841015612f64577fffffffff00000000000000000000000000000000000000000000000000000000808560040360031b1b82161691505b5092915050565b8183823760009101908152919050565b803573ffffffffffffffffffffffffffffffffffffffff81168114612f9f57600080fd5b919050565b600060208284031215612fb657600080fd5b61062182612f7b565b60008083601f840112612fd157600080fd5b50813567ffffffffffffffff811115612fe957600080fd5b60208301915083602082850101111561300157600080fd5b9250929050565b60008060008060006080868803121561302057600080fd5b61302986612f7b565b945061303760208701612f7b565b935060408601359250606086013567ffffffffffffffff81111561305a57600080fd5b61306688828901612fbf565b969995985093965092949392505050565b60008060006040848603121561308c57600080fd5b83359250602084013567ffffffffffffffff8111156130aa57600080fd5b6130b686828701612fbf565b9497909650939450505050565b7fffffffff000000000000000000000000000000000000000000000000000000008116811461058d57600080fd5b60006020828403121561310357600080fd5b8135610621816130c3565b6000806000806040858703121561312457600080fd5b843567ffffffffffffffff81111561313b57600080fd5b61314787828801612fbf565b909550935050602085013567ffffffffffffffff81111561316757600080fd5b61317387828801612fbf565b95989497509550505050565b60006020828403121561319157600080fd5b5035919050565b600080602083850312156131ab57600080fd5b823567ffffffffffffffff8111156131c257600080fd5b6131ce85828601612fbf565b90969095509350505050565b600080600080606085870312156131f057600080fd5b6131f985612f7b565b935060208501359250604085013567ffffffffffffffff81111561316757600080fd5b7f4e487b7100000000000000000000000000000000000000000000000000000000600052604160045260246000fd5b60405160e0810167ffffffffffffffff8111828210171561326e5761326e61321c565b60405290565b604051610120810167ffffffffffffffff8111828210171561326e5761326e61321c565b604051601f82017fffffffffffffffffffffffffffffffffffffffffffffffffffffffffffffffe016810167ffffffffffffffff811182821017156132df576132df61321c565b604052919050565b803560ff81168114612f9f57600080fd5b80358015158114612f9f57600080fd5b600067ffffffffffffffff8211156133225761332261321c565b5060051b60200190565b600082601f83011261333d57600080fd5b813567ffffffffffffffff8111156133575761335761321c565b61338860207fffffffffffffffffffffffffffffffffffffffffffffffffffffffffffffffe0601f84011601613298565b81815284602083860101111561339d57600080fd5b816020850160208301376000918101602001919091529392505050565b600082601f8301126133cb57600080fd5b81356133de6133d982613308565b613298565b8082825260208201915060208360051b86010192508583111561340057600080fd5b602085015b838110156134ed57803567ffffffffffffffff81111561342457600080fd5b860160e08189037fffffffffffffffffffffffffffffffffffffffffffffffffffffffffffffffe001121561345857600080fd5b61346061324b565b61346c60208301612f7b565b815260408201356020820152606082013567ffffffffffffffff81111561349257600080fd5b6134a18a60208386010161332c565b604083015250608082013560608201526134bd60a083016132f8565b60808201526134ce60c083016132f8565b60a082015260e0919091013560c0820152835260209283019201613405565b5095945050505050565b600082601f83011261350857600080fd5b81356135166133d982613308565b8082825260208201915060208360051b86010192508583111561353857600080fd5b602085015b838110156134ed5761354e81612f7b565b83526020928301920161353d565b60008060006040848603121561357157600080fd5b833567ffffffffffffffff81111561358857600080fd5b8401610120818703121561359b57600080fd5b6135a3613274565b6135ac826132e7565b81526135ba602083016132f8565b6020820152604082013567ffffffffffffffff8111156135d957600080fd5b6135e5888285016133ba565b604083015250606082810135908201526080808301359082015260a082013567ffffffffffffffff81111561361957600080fd5b6136258882850161332c565b60a08301525060c0828101359082015260e0808301359082015261010082013567ffffffffffffffff81111561365a57600080fd5b613666888285016134f7565b61010083015250935050602084013567ffffffffffffffff8111156130aa57600080fd5b6000806040838503121561369d57600080fd5b82356136a8816130c3565b91506136b660208401612f7b565b90509250929050565b60008083601f8401126136d157600080fd5b50813567ffffffffffffffff8111156136e957600080fd5b6020830191508360208260051b850101111561300157600080fd5b60008060008060008060008060a0898b03121561372057600080fd5b61372989612f7b565b975061373760208a01612f7b565b9650604089013567ffffffffffffffff81111561375357600080fd5b61375f8b828c016136bf565b909750955050606089013567ffffffffffffffff81111561377f57600080fd5b61378b8b828c016136bf565b909550935050608089013567ffffffffffffffff8111156137ab57600080fd5b6137b78b828c01612fbf565b999c989b5096995094979396929594505050565b60008060008060008060a087890312156137e457600080fd5b6137ed87612f7b565b95506137fb60208801612f7b565b94506040870135935060608701359250608087013567ffffffffffffffff81111561382557600080fd5b61383189828a01612fbf565b979a9699509497509295939492505050565b60008060006060848603121561385857600080fd5b8335925061386860208501612f7b565b915060408401356bffffffffffffffffffffffff8116811461388957600080fd5b809150509250925092565b60005b838110156138af578181015183820152602001613897565b50506000910152565b600081518084526138d0816020860160208601613894565b601f017fffffffffffffffffffffffffffffffffffffffffffffffffffffffffffffffe0169290920160200192915050565b600082825180855260208501945060208160051b8301016020850160005b838110156139d2577fffffffffffffffffffffffffffffffffffffffffffffffffffffffffffffffe0858403018852815173ffffffffffffffffffffffffffffffffffffffff815116845260208101516020850152604081015160e0604086015261398e60e08601826138b8565b6060838101519087015260808084015115159087015260a08084015115159087015260c0928301519290950191909152506020978801979190910190600101613920565b50909695505050505050565b600081518084526020840193506020830160005b82811015613a2657815173ffffffffffffffffffffffffffffffffffffffff168652602095860195909101906001016139f2565b5093949350505050565b805160ff16825260006020820151613a4c602085018215159052565b5060408201516101206040850152613a68610120850182613902565b9050606083015160608501526080830151608085015260a083015184820360a0860152613a9582826138b8565b91505060c083015160c085015260e083015160e0850152610100830151848203610100860152613ac582826139de565b95945050505050565b8183528181602085013750600060208284010152600060207fffffffffffffffffffffffffffffffffffffffffffffffffffffffffffffffe0601f840116840101905092915050565b604081526000613b2a6040830186613a30565b8281036020840152613b3d818587613ace565b9695505050505050565b8082018082111561053e577f4e487b7100000000000000000000000000000000000000000000000000000000600052601160045260246000fd5b7f4e487b7100000000000000000000000000000000000000000000000000000000600052603260045260246000fd5b60008085851115613bc057600080fd5b83861115613bcd57600080fd5b5050820193919092039150565b606081526000613bed6060830186613a30565b60208301949094525060400152919050565b838152826020820152606060408201526000613ac560608301846138b8565b606081526000613c316060830186613a30565b8460208401528281036040840152613b3d81856138b8565b73ffffffffffffffffffffffffffffffffffffffff83168152604060208201526000613c7860408301846138b8565b949350505050565b60006040828403128015613c9357600080fd5b506040805190810167ffffffffffffffff81118282101715613cb757613cb761321c565b604052825181526020928301519281019290925250919050565b606081526000613ce5606083018688613ace565b6020830194909452506040015292915050565b838152604060208201526000613ac5604083018486613ace565b600060208284031215613d2457600080fd5b8151610621816130c3565b608081526000613d426080830188613a30565b86602084015273ffffffffffffffffffffffffffffffffffffffff861660408401528281036060840152613d77818587613ace565b98975050505050505050565b600060208284031215613d9557600080fd5b5051919050565b604081526000613daf60408301856138b8565b905073ffffffffffffffffffffffffffffffffffffffff831660208301529392505050565b60008351613de6818460208801613894565b919091019182525060200191905056fea26469706673582212206757dd98cc08bb71008f88b7bd5bf7cff032474c0b099e1109686c85a02689f364736f6c634300081b0033603e600e3d39601e805130553df33d3d34601c57363d3d373d363d30545af43d82803e903d91601c57fd5bf3",
  "linkReferences": {},
  "deployedLinkReferences": {}
}