{
  "_format": "hh-sol-artifact-1",
  "contractName": "Stage1Module",
  "sourceName": "src/Stage1Module.sol",
  "abi": [
    {
      "inputs": [
        {
          "internalType": "address",
          "name": "_factory",
          "type": "address"
        }
      ],
      "stateMutability": "nonpayable",
      "type": "constructor"
    },
    {
      "inputs": [
        {
          "internalType": "uint256",
          "name": "_space",
          "type": "uint256"
        },
        {
          "internalType": "uint256",
          "name": "_provided",
          "type": "uint256"
        },
        {
          "internalType": "uint256",
          "name": "_current",
          "type": "uint256"
        }
      ],
      "name": "BadNonce",
      "type": "error"
    },
    {
      "inputs": [
        {
          "internalType": "bytes4",
          "name": "selector",
          "type": "bytes4"
        }
      ],
      "name": "HookAlreadyExists",
      "type": "error"
    },
    {
      "inputs": [
        {
          "internalType": "bytes4",
          "name": "selector",
          "type": "bytes4"
        }
      ],
      "name": "HookDoesNotExist",
      "type": "error"
    },
    {
      "inputs": [],
      "name": "ImageHashIsZero",
      "type": "error"
    },
    {
      "inputs": [
        {
          "internalType": "bytes32",
          "name": "_opHash",
          "type": "bytes32"
        },
        {
          "internalType": "address",
          "name": "_signer",
          "type": "address"
        },
        {
          "internalType": "bytes",
          "name": "_signature",
          "type": "bytes"
        }
      ],
      "name": "InvalidERC1271Signature",
      "type": "error"
    },
    {
      "inputs": [
        {
          "internalType": "uint8",
          "name": "kind",
          "type": "uint8"
        }
      ],
      "name": "InvalidKind",
      "type": "error"
    },
    {
      "inputs": [
        {
          "components": [
            {
              "internalType": "uint8",
              "name": "kind",
              "type": "uint8"
            },
            {
              "internalType": "bool",
              "name": "noChainId",
              "type": "bool"
            },
            {
              "components": [
                {
                  "internalType": "address",
                  "name": "to",
                  "type": "address"
                },
                {
                  "internalType": "uint256",
                  "name": "value",
                  "type": "uint256"
                },
                {
                  "internalType": "bytes",
                  "name": "data",
                  "type": "bytes"
                },
                {
                  "internalType": "uint256",
                  "name": "gasLimit",
                  "type": "uint256"
                },
                {
                  "internalType": "bool",
                  "name": "delegateCall",
                  "type": "bool"
                },
                {
                  "internalType": "bool",
                  "name": "onlyFallback",
                  "type": "bool"
                },
                {
                  "internalType": "uint256",
                  "name": "behaviorOnError",
                  "type": "uint256"
                }
              ],
              "internalType": "struct Payload.Call[]",
              "name": "calls",
              "type": "tuple[]"
            },
            {
              "internalType": "uint256",
              "name": "space",
              "type": "uint256"
            },
            {
              "internalType": "uint256",
              "name": "nonce",
              "type": "uint256"
            },
            {
              "internalType": "bytes",
              "name": "message",
              "type": "bytes"
            },
            {
              "internalType": "bytes32",
              "name": "imageHash",
              "type": "bytes32"
            },
            {
              "internalType": "bytes32",
              "name": "digest",
              "type": "bytes32"
            },
            {
              "internalType": "address[]",
              "name": "parentWallets",
              "type": "address[]"
            }
          ],
          "internalType": "struct Payload.Decoded",
          "name": "_payload",
          "type": "tuple"
        },
        {
          "internalType": "bytes",
          "name": "_signature",
          "type": "bytes"
        }
      ],
      "name": "InvalidSapientSignature",
      "type": "error"
    },
    {
      "inputs": [
        {
          "components": [
            {
              "internalType": "uint8",
              "name": "kind",
              "type": "uint8"
            },
            {
              "internalType": "bool",
              "name": "noChainId",
              "type": "bool"
            },
            {
              "components": [
                {
                  "internalType": "address",
                  "name": "to",
                  "type": "address"
                },
                {
                  "internalType": "uint256",
                  "name": "value",
                  "type": "uint256"
                },
                {
                  "internalType": "bytes",
                  "name": "data",
                  "type": "bytes"
                },
                {
                  "internalType": "uint256",
                  "name": "gasLimit",
                  "type": "uint256"
                },
                {
                  "internalType": "bool",
                  "name": "delegateCall",
                  "type": "bool"
                },
                {
                  "internalType": "bool",
                  "name": "onlyFallback",
                  "type": "bool"
                },
                {
                  "internalType": "uint256",
                  "name": "behaviorOnError",
                  "type": "uint256"
                }
              ],
              "internalType": "struct Payload.Call[]",
              "name": "calls",
              "type": "tuple[]"
            },
            {
              "internalType": "uint256",
              "name": "space",
              "type": "uint256"
            },
            {
              "internalType": "uint256",
              "name": "nonce",
              "type": "uint256"
            },
            {
              "internalType": "bytes",
              "name": "message",
              "type": "bytes"
            },
            {
              "internalType": "bytes32",
              "name": "imageHash",
              "type": "bytes32"
            },
            {
              "internalType": "bytes32",
              "name": "digest",
              "type": "bytes32"
            },
            {
              "internalType": "address[]",
              "name": "parentWallets",
              "type": "address[]"
            }
          ],
          "internalType": "struct Payload.Decoded",
          "name": "_payload",
          "type": "tuple"
        },
        {
          "internalType": "bytes",
          "name": "_signature",
          "type": "bytes"
        }
      ],
      "name": "InvalidSignature",
      "type": "error"
    },
    {
      "inputs": [
        {
          "internalType": "uint256",
          "name": "_flag",
          "type": "uint256"
        }
      ],
      "name": "InvalidSignatureFlag",
      "type": "error"
    },
    {
      "inputs": [
        {
          "internalType": "bytes1",
          "name": "_type",
          "type": "bytes1"
        }
      ],
      "name": "InvalidSignatureType",
      "type": "error"
    },
    {
      "inputs": [
        {
          "internalType": "uint256",
          "name": "_threshold",
          "type": "uint256"
        },
        {
          "internalType": "uint256",
          "name": "_weight",
          "type": "uint256"
        }
      ],
      "name": "InvalidSignatureWeight",
      "type": "error"
    },
    {
      "inputs": [
        {
          "internalType": "bytes32",
          "name": "_opHash",
          "type": "bytes32"
        },
        {
          "internalType": "uint256",
          "name": "_expires",
          "type": "uint256"
        }
      ],
      "name": "InvalidStaticSignatureExpired",
      "type": "error"
    },
    {
      "inputs": [
        {
          "internalType": "bytes32",
          "name": "_opHash",
          "type": "bytes32"
        },
        {
          "internalType": "address",
          "name": "_caller",
          "type": "address"
        },
        {
          "internalType": "address",
          "name": "_expectedCaller",
          "type": "address"
        }
      ],
      "name": "InvalidStaticSignatureWrongCaller",
      "type": "error"
    },
    {
      "inputs": [
        {
          "internalType": "bytes",
          "name": "_signature",
          "type": "bytes"
        },
        {
          "internalType": "uint256",
          "name": "_threshold",
          "type": "uint256"
        },
        {
          "internalType": "uint256",
          "name": "_weight",
          "type": "uint256"
        }
      ],
      "name": "LowWeightChainedSignature",
      "type": "error"
    },
    {
      "inputs": [
        {
          "components": [
            {
              "internalType": "uint8",
              "name": "kind",
              "type": "uint8"
            },
            {
              "internalType": "bool",
              "name": "noChainId",
              "type": "bool"
            },
            {
              "components": [
                {
                  "internalType": "address",
                  "name": "to",
                  "type": "address"
                },
                {
                  "internalType": "uint256",
                  "name": "value",
                  "type": "uint256"
                },
                {
                  "internalType": "bytes",
                  "name": "data",
                  "type": "bytes"
                },
                {
                  "internalType": "uint256",
                  "name": "gasLimit",
                  "type": "uint256"
                },
                {
                  "internalType": "bool",
                  "name": "delegateCall",
                  "type": "bool"
                },
                {
                  "internalType": "bool",
                  "name": "onlyFallback",
                  "type": "bool"
                },
                {
                  "internalType": "uint256",
                  "name": "behaviorOnError",
                  "type": "uint256"
                }
              ],
              "internalType": "struct Payload.Call[]",
              "name": "calls",
              "type": "tuple[]"
            },
            {
              "internalType": "uint256",
              "name": "space",
              "type": "uint256"
            },
            {
              "internalType": "uint256",
              "name": "nonce",
              "type": "uint256"
            },
            {
              "internalType": "bytes",
              "name": "message",
              "type": "bytes"
            },
            {
              "internalType": "bytes32",
              "name": "imageHash",
              "type": "bytes32"
            },
            {
              "internalType": "bytes32",
              "name": "digest",
              "type": "bytes32"
            },
            {
              "internalType": "address[]",
              "name": "parentWallets",
              "type": "address[]"
            }
          ],
          "internalType": "struct Payload.Decoded",
          "name": "_payload",
          "type": "tuple"
        },
        {
          "internalType": "uint256",
          "name": "_index",
          "type": "uint256"
        },
        {
          "internalType": "uint256",
          "name": "_gasLeft",
          "type": "uint256"
        }
      ],
      "name": "NotEnoughGas",
      "type": "error"
    },
    {
      "inputs": [
        {
          "internalType": "address",
          "name": "_sender",
          "type": "address"
        }
      ],
      "name": "OnlySelf",
      "type": "error"
    },
    {
      "inputs": [
        {
          "components": [
            {
              "internalType": "uint8",
              "name": "kind",
              "type": "uint8"
            },
            {
              "internalType": "bool",
              "name": "noChainId",
              "type": "bool"
            },
            {
              "components": [
                {
                  "internalType": "address",
                  "name": "to",
                  "type": "address"
                },
                {
                  "internalType": "uint256",
                  "name": "value",
                  "type": "uint256"
                },
                {
                  "internalType": "bytes",
                  "name": "data",
                  "type": "bytes"
                },
                {
                  "internalType": "uint256",
                  "name": "gasLimit",
                  "type": "uint256"
                },
                {
                  "internalType": "bool",
                  "name": "delegateCall",
                  "type": "bool"
                },
                {
                  "internalType": "bool",
                  "name": "onlyFallback",
                  "type": "bool"
                },
                {
                  "internalType": "uint256",
                  "name": "behaviorOnError",
                  "type": "uint256"
                }
              ],
              "internalType": "struct Payload.Call[]",
              "name": "calls",
              "type": "tuple[]"
            },
            {
              "internalType": "uint256",
              "name": "space",
              "type": "uint256"
            },
            {
              "internalType": "uint256",
              "name": "nonce",
              "type": "uint256"
            },
            {
              "internalType": "bytes",
              "name": "message",
              "type": "bytes"
            },
            {
              "internalType": "bytes32",
              "name": "imageHash",
              "type": "bytes32"
            },
            {
              "internalType": "bytes32",
              "name": "digest",
              "type": "bytes32"
            },
            {
              "internalType": "address[]",
              "name": "parentWallets",
              "type": "address[]"
            }
          ],
          "internalType": "struct Payload.Decoded",
          "name": "_payload",
          "type": "tuple"
        },
        {
          "internalType": "uint256",
          "name": "_index",
          "type": "uint256"
        },
        {
          "internalType": "bytes",
          "name": "_returnData",
          "type": "bytes"
        }
      ],
      "name": "Reverted",
      "type": "error"
    },
    {
      "inputs": [
        {
          "components": [
            {
              "internalType": "bytes32",
              "name": "imageHash",
              "type": "bytes32"
            },
            {
              "internalType": "uint256",
              "name": "checkpoint",
              "type": "uint256"
            }
          ],
          "internalType": "struct Snapshot",
          "name": "_snapshot",
          "type": "tuple"
        }
      ],
      "name": "UnusedSnapshot",
      "type": "error"
    },
    {
      "inputs": [
        {
          "internalType": "uint256",
          "name": "_nextCheckpoint",
          "type": "uint256"
        },
        {
          "internalType": "uint256",
          "name": "_checkpoint",
          "type": "uint256"
        }
      ],
      "name": "WrongChainedCheckpointOrder",
      "type": "error"
    },
    {
      "anonymous": false,
      "inputs": [
        {
          "indexed": false,
          "internalType": "bytes32",
          "name": "_opHash",
          "type": "bytes32"
        },
        {
          "indexed": false,
          "internalType": "uint256",
          "name": "_index",
          "type": "uint256"
        },
        {
          "indexed": false,
          "internalType": "bytes",
          "name": "_returnData",
          "type": "bytes"
        }
      ],
      "name": "CallAborted",
      "type": "event"
    },
    {
      "anonymous": false,
      "inputs": [
        {
          "indexed": false,
          "internalType": "bytes32",
          "name": "_opHash",
          "type": "bytes32"
        },
        {
          "indexed": false,
          "internalType": "uint256",
          "name": "_index",
          "type": "uint256"
        },
        {
          "indexed": false,
          "internalType": "bytes",
          "name": "_returnData",
          "type": "bytes"
        }
      ],
      "name": "CallFailed",
      "type": "event"
    },
    {
      "anonymous": false,
      "inputs": [
        {
          "indexed": false,
          "internalType": "bytes32",
          "name": "_opHash",
          "type": "bytes32"
        },
        {
          "indexed": false,
          "internalType": "uint256",
          "name": "_index",
          "type": "uint256"
        }
      ],
      "name": "CallSkipped",
      "type": "event"
    },
    {
      "anonymous": false,
      "inputs": [
        {
          "indexed": false,
          "internalType": "bytes32",
          "name": "_opHash",
          "type": "bytes32"
        },
        {
          "indexed": false,
          "internalType": "uint256",
          "name": "_index",
          "type": "uint256"
        }
      ],
      "name": "CallSucceeded",
      "type": "event"
    },
    {
      "anonymous": false,
      "inputs": [
        {
          "indexed": false,
          "internalType": "bytes4",
          "name": "selector",
          "type": "bytes4"
        },
        {
          "indexed": false,
          "internalType": "address",
          "name": "implementation",
          "type": "address"
        }
      ],
      "name": "DefinedHook",
      "type": "event"
    },
    {
      "anonymous": false,
      "inputs": [
        {
          "indexed": false,
          "internalType": "bytes32",
          "name": "newImageHash",
          "type": "bytes32"
        }
      ],
      "name": "ImageHashUpdated",
      "type": "event"
    },
    {
      "anonymous": false,
      "inputs": [
        {
          "indexed": false,
          "internalType": "address",
          "name": "newImplementation",
          "type": "address"
        }
      ],
      "name": "ImplementationUpdated",
      "type": "event"
    },
    {
      "anonymous": false,
      "inputs": [
        {
          "indexed": false,
          "internalType": "uint256",
          "name": "_space",
          "type": "uint256"
        },
        {
          "indexed": false,
          "internalType": "uint256",
          "name": "_newNonce",
          "type": "uint256"
        }
      ],
      "name": "NonceChange",
      "type": "event"
    },
    {
      "anonymous": false,
      "inputs": [
        {
          "indexed": false,
          "internalType": "bytes32",
          "name": "_hash",
          "type": "bytes32"
        },
        {
          "indexed": false,
          "internalType": "address",
          "name": "_address",
          "type": "address"
        },
        {
          "indexed": false,
          "internalType": "uint96",
          "name": "_timestamp",
          "type": "uint96"
        }
      ],
      "name": "StaticSignatureSet",
      "type": "event"
    },
    {
      "stateMutability": "payable",
      "type": "fallback"
    },
    {
      "inputs": [],
      "name": "FACTORY",
      "outputs": [
        {
          "internalType": "address",
          "name": "",
          "type": "address"
        }
      ],
      "stateMutability": "view",
      "type": "function"
    },
    {
      "inputs": [],
      "name": "INIT_CODE_HASH",
      "outputs": [
        {
          "internalType": "bytes32",
          "name": "",
          "type": "bytes32"
        }
      ],
      "stateMutability": "view",
      "type": "function"
    },
    {
      "inputs": [],
      "name": "STAGE_2_IMPLEMENTATION",
      "outputs": [
        {
          "internalType": "address",
          "name": "",
          "type": "address"
        }
      ],
      "stateMutability": "view",
      "type": "function"
    },
    {
      "inputs": [
        {
          "internalType": "bytes4",
          "name": "selector",
          "type": "bytes4"
        },
        {
          "internalType": "address",
          "name": "implementation",
          "type": "address"
        }
      ],
      "name": "addHook",
      "outputs": [],
      "stateMutability": "payable",
      "type": "function"
    },
    {
      "inputs": [
        {
          "internalType": "bytes",
          "name": "_payload",
          "type": "bytes"
        },
        {
          "internalType": "bytes",
          "name": "_signature",
          "type": "bytes"
        }
      ],
      "name": "execute",
      "outputs": [],
      "stateMutability": "payable",
      "type": "function"
    },
    {
      "inputs": [],
      "name": "getImplementation",
      "outputs": [
        {
          "internalType": "address",
          "name": "",
          "type": "address"
        }
      ],
      "stateMutability": "view",
      "type": "function"
    },
    {
      "inputs": [
        {
          "internalType": "bytes32",
          "name": "_hash",
          "type": "bytes32"
        }
      ],
      "name": "getStaticSignature",
      "outputs": [
        {
          "internalType": "address",
          "name": "",
          "type": "address"
        },
        {
          "internalType": "uint256",
          "name": "",
          "type": "uint256"
        }
      ],
      "stateMutability": "view",
      "type": "function"
    },
    {
      "inputs": [
        {
          "internalType": "bytes32",
          "name": "_hash",
          "type": "bytes32"
        },
        {
          "internalType": "bytes",
          "name": "_signature",
          "type": "bytes"
        }
      ],
      "name": "isValidSignature",
      "outputs": [
        {
          "internalType": "bytes4",
          "name": "",
          "type": "bytes4"
        }
      ],
      "stateMutability": "view",
      "type": "function"
    },
    {
      "inputs": [
        {
          "internalType": "address",
          "name": "",
          "type": "address"
        },
        {
          "internalType": "address",
          "name": "",
          "type": "address"
        },
        {
          "internalType": "uint256[]",
          "name": "",
          "type": "uint256[]"
        },
        {
          "internalType": "uint256[]",
          "name": "",
          "type": "uint256[]"
        },
        {
          "internalType": "bytes",
          "name": "",
          "type": "bytes"
        }
      ],
      "name": "onERC1155BatchReceived",
      "outputs": [
        {
          "internalType": "bytes4",
          "name": "",
          "type": "bytes4"
        }
      ],
      "stateMutability": "pure",
      "type": "function"
    },
    {
      "inputs": [
        {
          "internalType": "address",
          "name": "",
          "type": "address"
        },
        {
          "internalType": "address",
          "name": "",
          "type": "address"
        },
        {
          "internalType": "uint256",
          "name": "",
          "type": "uint256"
        },
        {
          "internalType": "uint256",
          "name": "",
          "type": "uint256"
        },
        {
          "internalType": "bytes",
          "name": "",
          "type": "bytes"
        }
      ],
      "name": "onERC1155Received",
      "outputs": [
        {
          "internalType": "bytes4",
          "name": "",
          "type": "bytes4"
        }
      ],
      "stateMutability": "pure",
      "type": "function"
    },
    {
      "inputs": [
        {
          "internalType": "address",
          "name": "",
          "type": "address"
        },
        {
          "internalType": "address",
          "name": "",
          "type": "address"
        },
        {
          "internalType": "uint256",
          "name": "",
          "type": "uint256"
        },
        {
          "internalType": "bytes",
          "name": "",
          "type": "bytes"
        }
      ],
      "name": "onERC721Received",
      "outputs": [
        {
          "internalType": "bytes4",
          "name": "",
          "type": "bytes4"
        }
      ],
      "stateMutability": "pure",
      "type": "function"
    },
    {
      "inputs": [
        {
          "internalType": "bytes4",
          "name": "selector",
          "type": "bytes4"
        }
      ],
      "name": "readHook",
      "outputs": [
        {
          "internalType": "address",
          "name": "",
          "type": "address"
        }
      ],
      "stateMutability": "view",
      "type": "function"
    },
    {
      "inputs": [
        {
          "internalType": "uint256",
          "name": "_space",
          "type": "uint256"
        }
      ],
      "name": "readNonce",
      "outputs": [
        {
          "internalType": "uint256",
          "name": "",
          "type": "uint256"
        }
      ],
      "stateMutability": "view",
      "type": "function"
    },
    {
      "inputs": [
        {
          "components": [
            {
              "internalType": "uint8",
              "name": "kind",
              "type": "uint8"
            },
            {
              "internalType": "bool",
              "name": "noChainId",
              "type": "bool"
            },
            {
              "components": [
                {
                  "internalType": "address",
                  "name": "to",
                  "type": "address"
                },
                {
                  "internalType": "uint256",
                  "name": "value",
                  "type": "uint256"
                },
                {
                  "internalType": "bytes",
                  "name": "data",
                  "type": "bytes"
                },
                {
                  "internalType": "uint256",
                  "name": "gasLimit",
                  "type": "uint256"
                },
                {
                  "internalType": "bool",
                  "name": "delegateCall",
                  "type": "bool"
                },
                {
                  "internalType": "bool",
                  "name": "onlyFallback",
                  "type": "bool"
                },
                {
                  "internalType": "uint256",
                  "name": "behaviorOnError",
                  "type": "uint256"
                }
              ],
              "internalType": "struct Payload.Call[]",
              "name": "calls",
              "type": "tuple[]"
            },
            {
              "internalType": "uint256",
              "name": "space",
              "type": "uint256"
            },
            {
              "internalType": "uint256",
              "name": "nonce",
              "type": "uint256"
            },
            {
              "internalType": "bytes",
              "name": "message",
              "type": "bytes"
            },
            {
              "internalType": "bytes32",
              "name": "imageHash",
              "type": "bytes32"
            },
            {
              "internalType": "bytes32",
              "name": "digest",
              "type": "bytes32"
            },
            {
              "internalType": "address[]",
              "name": "parentWallets",
              "type": "address[]"
            }
          ],
          "internalType": "struct Payload.Decoded",
          "name": "_payload",
          "type": "tuple"
        },
        {
          "internalType": "bytes",
          "name": "_signature",
          "type": "bytes"
        }
      ],
      "name": "recoverPartialSignature",
      "outputs": [
        {
          "internalType": "uint256",
          "name": "threshold",
          "type": "uint256"
        },
        {
          "internalType": "uint256",
          "name": "weight",
          "type": "uint256"
        },
        {
          "internalType": "bool",
          "name": "isValidImage",
          "type": "bool"
        },
        {
          "internalType": "bytes32",
          "name": "imageHash",
          "type": "bytes32"
        },
        {
          "internalType": "uint256",
          "name": "checkpoint",
          "type": "uint256"
        },
        {
          "internalType": "bytes32",
          "name": "opHash",
          "type": "bytes32"
        }
      ],
      "stateMutability": "view",
      "type": "function"
    },
    {
      "inputs": [
        {
          "components": [
            {
              "internalType": "uint8",
              "name": "kind",
              "type": "uint8"
            },
            {
              "internalType": "bool",
              "name": "noChainId",
              "type": "bool"
            },
            {
              "components": [
                {
                  "internalType": "address",
                  "name": "to",
                  "type": "address"
                },
                {
                  "internalType": "uint256",
                  "name": "value",
                  "type": "uint256"
                },
                {
                  "internalType": "bytes",
                  "name": "data",
                  "type": "bytes"
                },
                {
                  "internalType": "uint256",
                  "name": "gasLimit",
                  "type": "uint256"
                },
                {
                  "internalType": "bool",
                  "name": "delegateCall",
                  "type": "bool"
                },
                {
                  "internalType": "bool",
                  "name": "onlyFallback",
                  "type": "bool"
                },
                {
                  "internalType": "uint256",
                  "name": "behaviorOnError",
                  "type": "uint256"
                }
              ],
              "internalType": "struct Payload.Call[]",
              "name": "calls",
              "type": "tuple[]"
            },
            {
              "internalType": "uint256",
              "name": "space",
              "type": "uint256"
            },
            {
              "internalType": "uint256",
              "name": "nonce",
              "type": "uint256"
            },
            {
              "internalType": "bytes",
              "name": "message",
              "type": "bytes"
            },
            {
              "internalType": "bytes32",
              "name": "imageHash",
              "type": "bytes32"
            },
            {
              "internalType": "bytes32",
              "name": "digest",
              "type": "bytes32"
            },
            {
              "internalType": "address[]",
              "name": "parentWallets",
              "type": "address[]"
            }
          ],
          "internalType": "struct Payload.Decoded",
          "name": "_payload",
          "type": "tuple"
        },
        {
          "internalType": "bytes",
          "name": "_signature",
          "type": "bytes"
        }
      ],
      "name": "recoverSapientSignature",
      "outputs": [
        {
          "internalType": "bytes32",
          "name": "",
          "type": "bytes32"
        }
      ],
      "stateMutability": "view",
      "type": "function"
    },
    {
      "inputs": [
        {
          "internalType": "bytes4",
          "name": "selector",
          "type": "bytes4"
        }
      ],
      "name": "removeHook",
      "outputs": [],
      "stateMutability": "payable",
      "type": "function"
    },
    {
      "inputs": [
        {
          "internalType": "bytes",
          "name": "_payload",
          "type": "bytes"
        }
      ],
      "name": "selfExecute",
      "outputs": [],
      "stateMutability": "payable",
      "type": "function"
    },
    {
      "inputs": [
        {
          "internalType": "bytes32",
          "name": "_hash",
          "type": "bytes32"
        },
        {
          "internalType": "address",
          "name": "_address",
          "type": "address"
        },
        {
          "internalType": "uint96",
          "name": "_timestamp",
          "type": "uint96"
        }
      ],
      "name": "setStaticSignature",
      "outputs": [],
      "stateMutability": "nonpayable",
      "type": "function"
    },
    {
      "inputs": [
        {
          "internalType": "address",
          "name": "",
          "type": "address"
        },
        {
          "internalType": "uint256",
          "name": "",
          "type": "uint256"
        },
        {
          "internalType": "bytes",
          "name": "",
          "type": "bytes"
        }
      ],
      "name": "tokenReceived",
      "outputs": [
        {
          "internalType": "bytes4",
          "name": "",
          "type": "bytes4"
        }
      ],
      "stateMutability": "pure",
      "type": "function"
    },
    {
      "inputs": [
        {
          "internalType": "address",
          "name": "operator",
          "type": "address"
        },
        {
          "internalType": "address",
          "name": "from",
          "type": "address"
        },
        {
          "internalType": "address",
          "name": "to",
          "type": "address"
        },
        {
          "internalType": "uint256",
          "name": "amount",
          "type": "uint256"
        },
        {
          "internalType": "bytes",
          "name": "data",
          "type": "bytes"
        },
        {
          "internalType": "bytes",
          "name": "operatorData",
          "type": "bytes"
        }
      ],
      "name": "tokensReceived",
      "outputs": [],
      "stateMutability": "nonpayable",
      "type": "function"
    },
    {
      "inputs": [
        {
          "internalType": "bytes32",
          "name": "_imageHash",
          "type": "bytes32"
        }
      ],
      "name": "updateImageHash",
      "outputs": [],
      "stateMutability": "nonpayable",
      "type": "function"
    },
    {
      "inputs": [
        {
          "internalType": "address",
          "name": "_implementation",
          "type": "address"
        }
      ],
      "name": "updateImplementation",
      "outputs": [],
      "stateMutability": "payable",
      "type": "function"
    },
    {
      "stateMutability": "payable",
      "type": "receive"
    }
  ],
  "bytecode": "0x60e060405234801561001057600080fd5b5060405161841b38038061841b83398101604081905261002f916100c7565b8060405161003c906100ba565b604051809103906000f080158015610058573d6000803e3d6000fd5b5060006040518060600160405280602f81526020016183ec602f9139604051610086919030906020016100f7565b60408051601f198184030181529190528051602090910120608052506001600160a01b0391821660a0521660c05250610129565b61409e8061434e83390190565b6000602082840312156100d957600080fd5b81516001600160a01b03811681146100f057600080fd5b9392505050565b6000835160005b8181101561011857602081870181015185830152016100fe565b509190910191825250602001919050565b60805160a05160c0516141e161016d6000396000818161050b01526118950152600081816104010152611db70152600081816103ad0152611de801526141e16000f3fe6080604052600436106101785760003560e01c80636ea44577116100cb578063aaf10f421161007f578063bc197c8111610059578063bc197c81146105a8578063f23a6e61146105f0578063f727ef1c146106365761017f565b8063aaf10f421461052d578063ad55366b14610542578063b93ea7ad146105955761017f565b80638c3f5563116100b05780638c3f55631461048d57806392dcb3fc146104ad5780639f69ef54146104f95761017f565b80636ea44577146104365780638943ec02146104495761017f565b80631a9b23371161012d578063295614261161010757806329561426146103cf5780632dd31000146103ef5780634fcf3eca146104235761017f565b80631a9b2337146103435780631f6a1eb914610388578063257671f51461039b5761017f565b806313792a4a1161015e57806313792a4a1461027a578063150b7a02146102ad5780631626ba7e146103235761017f565b806223de2914610242578063025b22bc146102675761017f565b3661017f57005b6004361061024057600061019b61019636836131d7565b610656565b905073ffffffffffffffffffffffffffffffffffffffff81161561023e576000808273ffffffffffffffffffffffffffffffffffffffff166000366040516101e492919061323d565b600060405180830381855af49150503d806000811461021f576040519150601f19603f3d011682016040523d82523d6000602084013e610224565b606091505b50915091508161023657805160208201fd5b805160208201f35b505b005b34801561024e57600080fd5b5061024061025d3660046132bf565b5050505050505050565b61024061027536600461336f565b6106aa565b34801561028657600080fd5b5061029a6102953660046136ca565b6106f6565b6040519081526020015b60405180910390f35b3480156102b957600080fd5b506102f26102c8366004613811565b7f150b7a020000000000000000000000000000000000000000000000000000000095945050505050565b6040517fffffffff0000000000000000000000000000000000000000000000000000000090911681526020016102a4565b34801561032f57600080fd5b506102f261033e366004613880565b610861565b34801561034f57600080fd5b5061036361035e3660046138e1565b6108f8565b60405173ffffffffffffffffffffffffffffffffffffffff90911681526020016102a4565b6102406103963660046138fe565b610903565b3480156103a757600080fd5b5061029a7f000000000000000000000000000000000000000000000000000000000000000081565b3480156103db57600080fd5b506102406103ea36600461396f565b610982565b3480156103fb57600080fd5b506103637f000000000000000000000000000000000000000000000000000000000000000081565b6102406104313660046138e1565b6109c6565b610240610444366004613988565b610a88565b34801561045557600080fd5b506102f26104643660046139ca565b7f8943ec0200000000000000000000000000000000000000000000000000000000949350505050565b34801561049957600080fd5b5061029a6104a836600461396f565b610af5565b3480156104b957600080fd5b506104cd6104c836600461396f565b610b21565b6040805173ffffffffffffffffffffffffffffffffffffffff90931683526020830191909152016102a4565b34801561050557600080fd5b506103637f000000000000000000000000000000000000000000000000000000000000000081565b34801561053957600080fd5b50610363610b36565b34801561054e57600080fd5b5061056261055d3660046136ca565b610b45565b604080519687526020870195909552921515938501939093526060840152608083019190915260a082015260c0016102a4565b6102406105a3366004613a0c565b610b7f565b3480156105b457600080fd5b506102f26105c3366004613a86565b7fbc197c810000000000000000000000000000000000000000000000000000000098975050505050505050565b3480156105fc57600080fd5b506102f261060b366004613b2d565b7ff23a6e61000000000000000000000000000000000000000000000000000000009695505050505050565b34801561064257600080fd5b50610240610651366004613ba5565b610c44565b60006106a47fbe27a319efc8734e89e26ba4bc95f5c788584163b959f03fa04e2d7ab4b9a1207fffffffff000000000000000000000000000000000000000000000000000000008416610cff565b92915050565b3330146106ea576040517fa19dbf000000000000000000000000000000000000000000000000000000000081523360048201526024015b60405180910390fd5b6106f381610d5d565b50565b60008084610100015151600161070c9190613c25565b67ffffffffffffffff8111156107245761072461338a565b60405190808252806020026020018201604052801561074d578160200160208202803683370190505b50905060005b856101000151518110156107bf57856101000151818151811061077857610778613c38565b602002602001015182828151811061079257610792613c38565b73ffffffffffffffffffffffffffffffffffffffff90921660209283029190910190910152600101610753565b50338186610100015151815181106107d9576107d9613c38565b73ffffffffffffffffffffffffffffffffffffffff9092166020928302919091019091015261010085018190526000610813868686610db1565b50905080610853578585856040517ff58cc8b50000000000000000000000000000000000000000000000000000000081526004016106e193929190613ee0565b5060019150505b9392505050565b604080516101208101825260006020820181905260609282018390528282018190526080820181905260a0820183905260c082018190526101008201929092526003815260e0810185905260006108b9828686610db1565b509050806108cd57506000915061085a9050565b507f1626ba7e0000000000000000000000000000000000000000000000000000000095945050505050565b60006106a482610656565b60005a905060006109148686610f98565b9050610928816060015182608001516113b6565b600080610936838787610db1565b9150915081610977578286866040517fa2b6d61b0000000000000000000000000000000000000000000000000000000081526004016106e193929190613ee0565b61025d84828561149e565b3330146109bd576040517fa19dbf000000000000000000000000000000000000000000000000000000000081523360048201526024016106e1565b6106f3816117fd565b333014610a01576040517fa19dbf000000000000000000000000000000000000000000000000000000000081523360048201526024016106e1565b6000610a0c82610656565b73ffffffffffffffffffffffffffffffffffffffff1603610a7d576040517f1c3812cc0000000000000000000000000000000000000000000000000000000081527fffffffff00000000000000000000000000000000000000000000000000000000821660048201526024016106e1565b6106f38160006118b9565b333014610ac3576040517fa19dbf000000000000000000000000000000000000000000000000000000000081523360048201526024016106e1565b60005a90506000610ad48484610f98565b90506000610ae182611979565b9050610aee83828461149e565b5050505050565b60006106a47f8d0bf1fd623d628c741362c1289948e57b3e2905218c676d3e69abee36d6ae2e83610cff565b600080610b2d836119f4565b91509150915091565b6000610b40305490565b905090565b600080600080600080610b5c898989600080611a40565b939950919750945092509050610b7183611d65565b935093975093979195509350565b333014610bba576040517fa19dbf000000000000000000000000000000000000000000000000000000000081523360048201526024016106e1565b6000610bc583610656565b73ffffffffffffffffffffffffffffffffffffffff1614610c36576040517f5b4d6d6a0000000000000000000000000000000000000000000000000000000081527fffffffff00000000000000000000000000000000000000000000000000000000831660048201526024016106e1565b610c4082826118b9565b5050565b333014610c7f576040517fa19dbf000000000000000000000000000000000000000000000000000000000081523360048201526024016106e1565b610c988383836bffffffffffffffffffffffff16611e67565b6040805184815273ffffffffffffffffffffffffffffffffffffffff841660208201526bffffffffffffffffffffffff83168183015290517febf265acfac1c01de588ed7ef49743b9c3ce8d6d1edeaf510a1f5453228515b19181900360600190a1505050565b6000808383604051602001610d1e929190918252602082015260400190565b604080517fffffffffffffffffffffffffffffffffffffffffffffffffffffffffffffffe0818403018152919052805160209091012054949350505050565b610d65813055565b60405173ffffffffffffffffffffffffffffffffffffffff821681527f310ba5f1d2ed074b51e2eccd052a47ae9ab7c6b800d1fca3db3999d6a592ca039060200160405180910390a150565b600080600084846000818110610dc957610dc9613c38565b7fff000000000000000000000000000000000000000000000000000000000000009201359182169250507f80000000000000000000000000000000000000000000000000000000000000009081169003610f1e57610e2686611979565b9150600080610e34846119f4565b91509150428111610e7b576040517ff95b6ab700000000000000000000000000000000000000000000000000000000815260048101859052602481018290526044016106e1565b73ffffffffffffffffffffffffffffffffffffffff821615801590610eb6575073ffffffffffffffffffffffffffffffffffffffff82163314155b15610f12576040517f8945c3130000000000000000000000000000000000000000000000000000000081526004810185905233602482015273ffffffffffffffffffffffffffffffffffffffff831660448201526064016106e1565b60019450505050610f90565b6000806000610f31898989600080611a40565b985092955090935091505082821015610f80576040517ffd41fcba00000000000000000000000000000000000000000000000000000000815260048101849052602481018390526044016106e1565b610f8981611d65565b9550505050505b935093915050565b604080516101208101825260008082526020820181905260609282018390528282018190526080820181905260a0820183905260c0820181905260e0820152610100810191909152823560f81c60018082168103610ffc576000606084015261100d565b84810135606090811c908401526014015b6007600183901c1680156110605760016008820290811b7fffffffffffffffffffffffffffffffffffffffffffffffffffffffffffffffff0187840135610100929092039190911c166080850152908101905b6000836010166010036110755750600161109e565b836020166020036110915750600282019186013560f01c61109e565b50600182019186013560f81c5b8067ffffffffffffffff8111156110b7576110b761338a565b60405190808252806020026020018201604052801561114257816020015b61112f6040518060e00160405280600073ffffffffffffffffffffffffffffffffffffffff168152602001600081526020016060815260200160008152602001600015158152602001600015158152602001600081525090565b8152602001906001900390816110d55790505b50604086015260005b818110156113ab5760018085019489013560f81c9080821690036111aa57308760400151838151811061118057611180613c38565b602090810291909101015173ffffffffffffffffffffffffffffffffffffffff90911690526111f4565b8489013560601c60148601886040015184815181106111cb576111cb613c38565b602090810291909101015173ffffffffffffffffffffffffffffffffffffffff90921690915294505b600280821690036112325784890135602086018860400151848151811061121d5761121d613c38565b60200260200101516020018197508281525050505b600480821690036112ca57600385019489013560e81c89868a6112558483613c25565b9261126293929190613f10565b8080601f01602080910402602001604051908101604052809392919081815260200183838082843760009201919091525050505060408901518051859081106112ad576112ad613c38565b6020908102919091010151604001526112c68187613c25565b9550505b60088082169003611308578489013560208601886040015184815181106112f3576112f3613c38565b60200260200101516060018197508281525050505b8060101660ff166010148760400151838151811061132857611328613c38565b602002602001015160800190151590811515815250508060201660ff166020148760400151838151811061135e5761135e613c38565b602090810291909101015190151560a090910152604087015180516003600684901c1691908490811061139357611393613c38565b602090810291909101015160c001525060010161114b565b505050505092915050565b60006113c183610af5565b905081811461140d576040517f9b6514f40000000000000000000000000000000000000000000000000000000081526004810184905260248101839052604481018290526064016106e1565b604080517f8d0bf1fd623d628c741362c1289948e57b3e2905218c676d3e69abee36d6ae2e60208083019190915281830186905282518083038401815260609092019092528051910120600183019081905560408051858152602081018390527f1f180c27086c7a39ea2a7b25239d1ab92348f07ca7bb59d1438fcf527568f881910160405180910390a150505050565b604081015151600090815b818110156117f5576000846040015182815181106114c9576114c9613c38565b602002602001015190508060a0015180156114e2575083155b156115265760408051878152602081018490527f9ae934bf8a986157c889a24c3b3fa85e74b7e4ee4b1f8fc6e7362cb4c1d19d8b910160405180910390a1506117ed565b606081015160009450801580159061153d5750805a105b1561157a5785835a6040517f213952740000000000000000000000000000000000000000000000000000000081526004016106e193929190613f3a565b600082608001511561164e578251611647908315611598578361159a565b5a5b634c4e814c60e01b8b8d898b8e606001518b604001516040516024016115c596959493929190613f5f565b604080517fffffffffffffffffffffffffffffffffffffffffffffffffffffffffffffffe08184030181529190526020810180517bffffffffffffffffffffffffffffffffffffffffffffffffffffffff167fffffffff0000000000000000000000000000000000000000000000000000000090931692909217909152611ef6565b9050611675565b82516020840151611672919084156116665784611668565b5a5b8660400151611f0c565b90505b806117b05760c08301516116d157600195507f115f347c00e69f252cd6b63c4f81022a9564c6befe8aa719cb74640a4a306f0d88856116b2611f24565b6040516116c193929190613f9c565b60405180910390a15050506117ed565b60c08301517fffffffffffffffffffffffffffffffffffffffffffffffffffffffffffffffff0161173b578684611706611f24565b6040517f7f6b0bb10000000000000000000000000000000000000000000000000000000081526004016106e193929190613fbb565b60c08301517ffffffffffffffffffffffffffffffffffffffffffffffffffffffffffffffffe016117b0577fc2c704302430fe0dc8d95f272e2f4e54bbbc51a3327fd5d75ab41f9fc8fd129b8885611791611f24565b6040516117a093929190613f9c565b60405180910390a15050506117f5565b60408051898152602081018690527f5a589b1d8062f33451d29cae3dabd9b2e36c62aee644178c600977ca8dda661a910160405180910390a15050505b6001016114a9565b505050505050565b80611834576040517f4294d12700000000000000000000000000000000000000000000000000000000815260040160405180910390fd5b61185d7fea7157fa25e3aa17d0ae2d5280fa4e24d421c61842aa85e45194e1145aa72bf8829055565b6040518181527f307ed6bd941ee9fc80f369c94af5fa11e25bab5102a6140191756c5474a30bfa9060200160405180910390a16106f37f0000000000000000000000000000000000000000000000000000000000000000610d5d565b604080517fbe27a319efc8734e89e26ba4bc95f5c788584163b959f03fa04e2d7ab4b9a1206020808301919091527fffffffff000000000000000000000000000000000000000000000000000000008516828401819052835180840385018152606084018086528151919093012073ffffffffffffffffffffffffffffffffffffffff8616908190559152608082015290517f0d7fc113eaf016db4681a1ba86d083ce3e0961f321062a75ac2b0aeb33deeed19181900360a00190a15050565b60008061198a836020015130611f43565b9050600061199784612010565b6040517f1901000000000000000000000000000000000000000000000000000000000000602082015260228101849052604281018290529091506062015b6040516020818303038152906040528051906020012092505050919050565b60008080611a227fc852adf5e97c2fc3b38f405671e91b7af1697ef0287577f227ef10494c2a8e8685610cff565b606081901c956bffffffffffffffffffffffff909116945092505050565b6040805180820182526000808252602082018190529182918291829182918a3560f81c91600191808416148015611a8b575073ffffffffffffffffffffffffffffffffffffffff8916155b15611ba7578b82013560601c985060149091019089611ba75760038201918c013560e81c60008d848e611abe8583613c25565b92611acb93929190613f10565b8080601f016020809104026020016040519081016040528093929190818152602001838380828437600092019190915250506040517fccce3bc80000000000000000000000000000000000000000000000000000000081529293505073ffffffffffffffffffffffffffffffffffffffff8d169163ccce3bc89150611b569030908590600401613fe6565b6040805180830381865afa158015611b72573d6000803e3d6000fd5b505050506040513d601f19601f82011682018060405250810190611b96919061401d565b9250611ba28285613c25565b935050505b82600116600103611be157611bcf8d8a838f8f87908092611bca93929190613f10565b61227c565b97509750975097509750505050611d58565b6002838116811460208f015283901c60071660016008820290811b7fffffffffffffffffffffffffffffffffffffffffffffffffffffffffffffffff018e850135610100929092039190911c16838201909650925060009050611c4c6001600586901c811690613c25565b60016008820290811b7fffffffffffffffffffffffffffffffffffffffffffffffffffffffffffffffff018f860135610100929092039190911c1699509092019150611c978d611979565b9350611cb58d858e8e86908092611cb093929190613f10565b6124c0565b600090815260208a815260408083208352888252808320835273ffffffffffffffffffffffffffffffffffffffff8d1690915290208251919850965015801590611d00575080518614155b8015611d10575080602001518511155b15611d54576040517fccbb534f00000000000000000000000000000000000000000000000000000000815281516004820152602082015160248201526044016106e1565b5050505b9550955095509550959050565b60006106a4826040517fff0000000000000000000000000000000000000000000000000000000000000060208201527fffffffffffffffffffffffffffffffffffffffff0000000000000000000000007f000000000000000000000000000000000000000000000000000000000000000060601b166021820152603581018290527f000000000000000000000000000000000000000000000000000000000000000060558201526000903090607501604080517fffffffffffffffffffffffffffffffffffffffffffffffffffffffffffffffe0818403018152919052805160209091012073ffffffffffffffffffffffffffffffffffffffff161492915050565b611ef17fc852adf5e97c2fc3b38f405671e91b7af1697ef0287577f227ef10494c2a8e86847fffffffffffffffffffffffffffffffffffffffff000000000000000000000000606086901b166bffffffffffffffffffffffff8516176040805160208082019590955280820193909352805180840382018152606090930190528151919092012055565b505050565b60008060008351602085018787f4949350505050565b6000806000835160208501878988f195945050505050565b60603d604051915060208201818101604052818352816000823e505090565b60007f8b73c3c69bb8fe3d512ecc4cf759cc79239f7b179b0ffacaa9a75d522b39400f7f4aa45ca7ad825ceb1bf35643f0a58c295239df563b1b565c2485f96477c563187f2a80e1ef1d7842f27f2e6be0972bb708b9a135c38860dbe73c27c3486c34f4de85611fb35746611fb6565b60005b6040805160208101959095528401929092526060830152608082015273ffffffffffffffffffffffffffffffffffffffff831660a082015260c0015b60405160208183030381529060405280519060200120905092915050565b600080826101000151604051602001612029919061406e565b604080517fffffffffffffffffffffffffffffffffffffffffffffffffffffffffffffffe08184030181529190528051602090910120835190915060ff166120d257600061207a8460400151612de7565b606085810151608080880151604080517f11e1e4079a79a66e4ade50033cfe2678cdd5341d2dfe5ef9513edb1a0be147a260208201529081018690529384019290925282015260a0810184905290915060c0016119d5565b825160ff167fffffffffffffffffffffffffffffffffffffffffffffffffffffffffffffffff016121625760a08301518051602091820120604080517fe19a3b94fc3c7ece3f890d98a99bc422615537a08dea0603fa8425867d87d46693810193909352820152606081018290526080015b60405160208183030381529060405280519060200120915050919050565b825160ff167ffffffffffffffffffffffffffffffffffffffffffffffffffffffffffffffffe016121d25760c0830151604080517f11fdeb7e8373a1aa96bfac8d0ea91526b2c5d15e5cee20e0543e780258f3e8e460208201529081019190915260608101829052608001612144565b825160ff167ffffffffffffffffffffffffffffffffffffffffffffffffffffffffffffffffd016122425760e0830151604080517fe19a3b94fc3c7ece3f890d98a99bc422615537a08dea0603fa8425867d87d46660208201529081019190915260608101829052608001612144565b82516040517f0481832000000000000000000000000000000000000000000000000000000000815260ff90911660048201526024016106e1565b60008060008060006122de604051806101200160405280600060ff168152602001600015158152602001606081526020016000815260200160008152602001606081526020016000801916815260200160008019168152602001606081525090565b6002815260007fffffffffffffffffffffffffffffffffffffffffffffffffffffffffffffffff5b888210156124685760038201916000908b013560e81c6123268482613c25565b9150600090508a821461233a57600061233c565b8d5b90507fffffffffffffffffffffffffffffffffffffffffffffffffffffffffffffffff8303612394576123838f8d8d8790869261237b93929190613f10565b600185611a40565b939d50919b509950975095506123b6565b6123aa858d8d8790869261237b93929190613f10565b50929c50909a50985096505b89891015612402576123ca82858d8f613f10565b8b8b6040517fb006aba00000000000000000000000000000000000000000000000000000000081526004016106e194939291906140ba565b819350878d60000151036124155760008d525b828710612458576040517f37daf62b00000000000000000000000000000000000000000000000000000000815260048101889052602481018490526044016106e1565b50505060c0820185905283612306565b8a511580159061247c57508a602001518511155b15611d54576040517fccbb534f0000000000000000000000000000000000000000000000000000000081528b51600482015260208c015160248201526044016106e1565b60008060005b83811015612ddd57600181019085013560f881901c9060fc1c806125cb57600f821660008190036124fe5750600183019287013560f81c5b6000808061250d8b8b89612e95565b809a5081945082955083965050505050600060018d8386866040516000815260200160405260405161255b949392919093845260ff9290921660208401526040830152606082015260800190565b6020604051602081039080840390855afa15801561257d573d6000803e3d6000fd5b5050506020604051035190508460ff168a01995060006125a0828760ff16612ee8565b9050896125ad57806125bc565b60008a81526020829052604090205b995050505050505050506124c6565b6001810361262f57600f821660008190036125ed5750600183019287013560f81c5b601484019388013560601c60006126078260ff8516612ee8565b9050866126145780612623565b60008781526020829052604090205b965050505050506124c6565b600281036127f9576003821660008190036126515750600183019287013560f81c5b60008489013560601c60148601955090506003600285901c16600060016008830290811b7fffffffffffffffffffffffffffffffffffffffffffffffffffffffffffffffff018c890135610100929092039190911c16828801809850819250505060008188019050631626ba7e60e01b7bffffffffffffffffffffffffffffffffffffffffffffffffffffffff19168473ffffffffffffffffffffffffffffffffffffffff16631626ba7e8f8f8f8d90879261270f93929190613f10565b6040518463ffffffff1660e01b815260040161272d939291906140e1565b602060405180830381865afa15801561274a573d6000803e3d6000fd5b505050506040513d601f19601f8201168201806040525081019061276e91906140fb565b7fffffffff0000000000000000000000000000000000000000000000000000000016146127df578c848d8d8b9085926127a993929190613f10565b6040517fb2fed7ae0000000000000000000000000000000000000000000000000000000081526004016106e19493929190614118565b8097508460ff168a01995060006125a0858760ff16612ee8565b6003810361282d576020830192870135846128145780612823565b60008581526020829052604090205b94505050506124c6565b600481036128d057600f8216600060016008830290811b7fffffffffffffffffffffffffffffffffffffffffffffffffffffffffffffffff018a870135610100929092039190911c168583018096508192505050600081860190506000806128a28e8e8e8e8c908892611cb093929190613f10565b91509150829750818a0199506128c2898260009182526020526040902090565b9850505050505050506124c6565b6006810361299a576003600283901c1660008190036128f65750600183019287013560f81c5b6003831660008190036129105750600284019388013560f01c5b6000858a013560e81c600387018162ffffff16915080975081925050506000818701905060008061294e8f8f8f8f8d908892611cb093929190613f10565b9150915082985084821061296157998501995b600061296e828789612f4f565b90508a61297b578061298a565b60008b81526020829052604090205b9a505050505050505050506124c6565b60058103612a075760208301928701358881036129d5577fffffffffffffffffffffffffffffffffffffffffffffffffffffffffffffffff95505b60006129e082612fb3565b9050856129ed57806129fc565b60008681526020829052604090205b9550505050506124c6565b60078103612ae557600f82166000819003612a295750600183019287013560f81c5b60008080612a388b8b89612e95565b604051909a509295509093509150600090600190612a86908f906020017f19457468657265756d205369676e6564204d6573736167653a0a3332000000008152601c810191909152603c0190565b604080517fffffffffffffffffffffffffffffffffffffffffffffffffffffffffffffffe08184030181528282528051602091820120600084529083018083525260ff851690820152606081018690526080810185905260a00161255b565b60088103612b395760208301928701356000612b018b82613007565b9050808203612b2e577fffffffffffffffffffffffffffffffffffffffffffffffffffffffffffffffff96505b600061260783613082565b60098103612c7157600382166000819003612b5b5750600183019287013560f81c5b60008489013560601c601486019550905060006003600286901c1660016008820290811b7fffffffffffffffffffffffffffffffffffffffffffffffffffffffffffffffff018c890135610100929092039190911c168188018098508193505050506000818701905060008373ffffffffffffffffffffffffffffffffffffffff166313792a4a8f8e8e8c908792612bf593929190613f10565b6040518463ffffffff1660e01b8152600401612c1393929190613ee0565b602060405180830381865afa158015612c30573d6000803e3d6000fd5b505050506040513d601f19601f82011682018060405250810190612c54919061414e565b90508197508460ff168a01995060006125a0858760ff16846130bd565b600a8103612da857600382166000819003612c935750600183019287013560f81c5b60008489013560601c60148601955090506003600285901c16600060016008830290811b7fffffffffffffffffffffffffffffffffffffffffffffffffffffffffffffffff018c890135610100929092039190911c1682880180985081925050506000818801905060008473ffffffffffffffffffffffffffffffffffffffff1663898bd9218f8f8f8d908792612d2c93929190613f10565b6040518463ffffffff1660e01b8152600401612d4a939291906140e1565b602060405180830381865afa158015612d67573d6000803e3d6000fd5b505050506040513d601f19601f82011682018060405250810190612d8b919061414e565b90508198508560ff168b019a50600061296e868860ff16846130bd565b6040517fb2505f7c000000000000000000000000000000000000000000000000000000008152600481018290526024016106e1565b5094509492505050565b600080825167ffffffffffffffff811115612e0457612e0461338a565b604051908082528060200260200182016040528015612e2d578160200160208202803683370190505b50905060005b8351811015612e8357612e5e848281518110612e5157612e51613c38565b602002602001015161312b565b828281518110612e7057612e70613c38565b6020908102919091010152600101612e33565b50806040516020016121449190614167565b828101803590602001357f7fffffffffffffffffffffffffffffffffffffffffffffffffffffffffffffff811690600090604085019060ff81901c612edb81601b614192565b9350505093509350935093565b6040517f53657175656e6365207369676e65723a0a00000000000000000000000000000060208201527fffffffffffffffffffffffffffffffffffffffff000000000000000000000000606084901b16603182015260458101829052600090606501611ff2565b6040517f53657175656e6365206e657374656420636f6e6669673a0a000000000000000060208201526038810184905260588101839052607881018290526000906098015b6040516020818303038152906040528051906020012090509392505050565b6040517f53657175656e636520737461746963206469676573743a0a00000000000000006020820152603881018290526000906058015b604051602081830303815290604052805190602001209050919050565b600080613018846020015184611f43565b9050600061302585612010565b6040517f190100000000000000000000000000000000000000000000000000000000000060208201526022810184905260428101829052909150606201604051602081830303815290604052805190602001209250505092915050565b604080517f53657175656e636520616e792061646472657373207375626469676573743a0a6020820152908101829052600090606001612fea565b6040517f53657175656e63652073617069656e7420636f6e6669673a0a0000000000000060208201527fffffffffffffffffffffffffffffffffffffffff000000000000000000000000606085901b166039820152604d8101839052606d8101829052600090608d01612f94565b80516020808301516040808501518051908401206060860151608087015160a088015160c08901519451600098612fea987f0603985259a953da1f65a522f589c17bd1d0117ec1d3abb7c0788aef251ef4379891979196959493920197885273ffffffffffffffffffffffffffffffffffffffff969096166020880152604087019490945260608601929092526080850152151560a0840152151560c083015260e08201526101000190565b80357fffffffff000000000000000000000000000000000000000000000000000000008116906004841015613236577fffffffff00000000000000000000000000000000000000000000000000000000808560040360031b1b82161691505b5092915050565b8183823760009101908152919050565b803573ffffffffffffffffffffffffffffffffffffffff8116811461327157600080fd5b919050565b60008083601f84011261328857600080fd5b50813567ffffffffffffffff8111156132a057600080fd5b6020830191508360208285010111156132b857600080fd5b9250929050565b60008060008060008060008060c0898b0312156132db57600080fd5b6132e48961324d565b97506132f260208a0161324d565b965061330060408a0161324d565b955060608901359450608089013567ffffffffffffffff81111561332357600080fd5b61332f8b828c01613276565b90955093505060a089013567ffffffffffffffff81111561334f57600080fd5b61335b8b828c01613276565b999c989b5096995094979396929594505050565b60006020828403121561338157600080fd5b61085a8261324d565b7f4e487b7100000000000000000000000000000000000000000000000000000000600052604160045260246000fd5b60405160e0810167ffffffffffffffff811182821017156133dc576133dc61338a565b60405290565b604051610120810167ffffffffffffffff811182821017156133dc576133dc61338a565b604051601f82017fffffffffffffffffffffffffffffffffffffffffffffffffffffffffffffffe016810167ffffffffffffffff8111828210171561344d5761344d61338a565b604052919050565b803560ff8116811461327157600080fd5b8035801515811461327157600080fd5b600067ffffffffffffffff8211156134905761349061338a565b5060051b60200190565b600082601f8301126134ab57600080fd5b813567ffffffffffffffff8111156134c5576134c561338a565b6134f660207fffffffffffffffffffffffffffffffffffffffffffffffffffffffffffffffe0601f84011601613406565b81815284602083860101111561350b57600080fd5b816020850160208301376000918101602001919091529392505050565b600082601f83011261353957600080fd5b813561354c61354782613476565b613406565b8082825260208201915060208360051b86010192508583111561356e57600080fd5b602085015b8381101561365b57803567ffffffffffffffff81111561359257600080fd5b860160e08189037fffffffffffffffffffffffffffffffffffffffffffffffffffffffffffffffe00112156135c657600080fd5b6135ce6133b9565b6135da6020830161324d565b815260408201356020820152606082013567ffffffffffffffff81111561360057600080fd5b61360f8a60208386010161349a565b6040830152506080820135606082015261362b60a08301613466565b608082015261363c60c08301613466565b60a082015260e0919091013560c0820152835260209283019201613573565b5095945050505050565b600082601f83011261367657600080fd5b813561368461354782613476565b8082825260208201915060208360051b8601019250858311156136a657600080fd5b602085015b8381101561365b576136bc8161324d565b8352602092830192016136ab565b6000806000604084860312156136df57600080fd5b833567ffffffffffffffff8111156136f657600080fd5b8401610120818703121561370957600080fd5b6137116133e2565b61371a82613455565b815261372860208301613466565b6020820152604082013567ffffffffffffffff81111561374757600080fd5b61375388828501613528565b604083015250606082810135908201526080808301359082015260a082013567ffffffffffffffff81111561378757600080fd5b6137938882850161349a565b60a08301525060c0828101359082015260e0808301359082015261010082013567ffffffffffffffff8111156137c857600080fd5b6137d488828501613665565b61010083015250935050602084013567ffffffffffffffff8111156137f857600080fd5b61380486828701613276565b9497909650939450505050565b60008060008060006080868803121561382957600080fd5b6138328661324d565b94506138406020870161324d565b935060408601359250606086013567ffffffffffffffff81111561386357600080fd5b61386f88828901613276565b969995985093965092949392505050565b60008060006040848603121561389557600080fd5b83359250602084013567ffffffffffffffff8111156137f857600080fd5b7fffffffff00000000000000000000000000000000000000000000000000000000811681146106f357600080fd5b6000602082840312156138f357600080fd5b813561085a816138b3565b6000806000806040858703121561391457600080fd5b843567ffffffffffffffff81111561392b57600080fd5b61393787828801613276565b909550935050602085013567ffffffffffffffff81111561395757600080fd5b61396387828801613276565b95989497509550505050565b60006020828403121561398157600080fd5b5035919050565b6000806020838503121561399b57600080fd5b823567ffffffffffffffff8111156139b257600080fd5b6139be85828601613276565b90969095509350505050565b600080600080606085870312156139e057600080fd5b6139e98561324d565b935060208501359250604085013567ffffffffffffffff81111561395757600080fd5b60008060408385031215613a1f57600080fd5b8235613a2a816138b3565b9150613a386020840161324d565b90509250929050565b60008083601f840112613a5357600080fd5b50813567ffffffffffffffff811115613a6b57600080fd5b6020830191508360208260051b85010111156132b857600080fd5b60008060008060008060008060a0898b031215613aa257600080fd5b613aab8961324d565b9750613ab960208a0161324d565b9650604089013567ffffffffffffffff811115613ad557600080fd5b613ae18b828c01613a41565b909750955050606089013567ffffffffffffffff811115613b0157600080fd5b613b0d8b828c01613a41565b909550935050608089013567ffffffffffffffff81111561334f57600080fd5b60008060008060008060a08789031215613b4657600080fd5b613b4f8761324d565b9550613b5d6020880161324d565b94506040870135935060608701359250608087013567ffffffffffffffff811115613b8757600080fd5b613b9389828a01613276565b979a9699509497509295939492505050565b600080600060608486031215613bba57600080fd5b83359250613bca6020850161324d565b915060408401356bffffffffffffffffffffffff81168114613beb57600080fd5b809150509250925092565b7f4e487b7100000000000000000000000000000000000000000000000000000000600052601160045260246000fd5b808201808211156106a4576106a4613bf6565b7f4e487b7100000000000000000000000000000000000000000000000000000000600052603260045260246000fd5b6000815180845260005b81811015613c8d57602081850181015186830182015201613c71565b5060006020828601015260207fffffffffffffffffffffffffffffffffffffffffffffffffffffffffffffffe0601f83011685010191505092915050565b600082825180855260208501945060208160051b8301016020850160005b83811015613d9b577fffffffffffffffffffffffffffffffffffffffffffffffffffffffffffffffe0858403018852815173ffffffffffffffffffffffffffffffffffffffff815116845260208101516020850152604081015160e06040860152613d5760e0860182613c67565b6060838101519087015260808084015115159087015260a08084015115159087015260c0928301519290950191909152506020978801979190910190600101613ce9565b50909695505050505050565b600081518084526020840193506020830160005b82811015613def57815173ffffffffffffffffffffffffffffffffffffffff16865260209586019590910190600101613dbb565b5093949350505050565b805160ff16825260006020820151613e15602085018215159052565b5060408201516101206040850152613e31610120850182613ccb565b9050606083015160608501526080830151608085015260a083015184820360a0860152613e5e8282613c67565b91505060c083015160c085015260e083015160e0850152610100830151848203610100860152613e8e8282613da7565b95945050505050565b8183528181602085013750600060208284010152600060207fffffffffffffffffffffffffffffffffffffffffffffffffffffffffffffffe0601f840116840101905092915050565b604081526000613ef36040830186613df9565b8281036020840152613f06818587613e97565b9695505050505050565b60008085851115613f2057600080fd5b83861115613f2d57600080fd5b5050820193919092039150565b606081526000613f4d6060830186613df9565b60208301949094525060400152919050565b86815285602082015284604082015283606082015282608082015260c060a08201526000613f9060c0830184613c67565b98975050505050505050565b838152826020820152606060408201526000613e8e6060830184613c67565b606081526000613fce6060830186613df9565b8460208401528281036040840152613f068185613c67565b73ffffffffffffffffffffffffffffffffffffffff831681526040602082015260006140156040830184613c67565b949350505050565b6000604082840312801561403057600080fd5b506040805190810167ffffffffffffffff811182821017156140545761405461338a565b604052825181526020928301519281019290925250919050565b8151600090829060208501835b828110156140af57815173ffffffffffffffffffffffffffffffffffffffff1684526020938401939091019060010161407b565b509195945050505050565b6060815260006140ce606083018688613e97565b6020830194909452506040015292915050565b838152604060208201526000613e8e604083018486613e97565b60006020828403121561410d57600080fd5b815161085a816138b3565b84815273ffffffffffffffffffffffffffffffffffffffff84166020820152606060408201526000613f06606083018486613e97565b60006020828403121561416057600080fd5b5051919050565b8151600090829060208501835b828110156140af578151845260209384019390910190600101614174565b60ff81811683821601908111156106a4576106a4613bf656fea264697066735822122022fd1b3ddf18af5e1eacf09a0fcde521adbb030044905edf6a27f4da66924bb964736f6c634300081b00336080604052348015600f57600080fd5b5061407f8061001f6000396000f3fe6080604052600436106101625760003560e01c80636ea44577116100c0578063ad55366b11610074578063bc197c8111610059578063bc197c811461050b578063f23a6e6114610553578063f727ef1c1461059957610169565b8063ad55366b146104a5578063b93ea7ad146104f857610169565b80638c3f5563116100a55780638c3f55631461042457806392dcb3fc14610444578063aaf10f421461049057610169565b80636ea44577146103cd5780638943ec02146103e057610169565b80631a9b23371161011757806329561426116100fc57806329561426146103855780634fcf3eca146103a557806351605d80146103b857610169565b80631a9b23371461032d5780631f6a1eb91461037257610169565b806313792a4a1161014857806313792a4a14610264578063150b7a02146102975780631626ba7e1461030d57610169565b806223de291461022c578063025b22bc1461025157610169565b3661016957005b6004361061022a5760006101856101803683613075565b6105b9565b905073ffffffffffffffffffffffffffffffffffffffff811615610228576000808273ffffffffffffffffffffffffffffffffffffffff166000366040516101ce9291906130db565b600060405180830381855af49150503d8060008114610209576040519150601f19603f3d011682016040523d82523d6000602084013e61020e565b606091505b50915091508161022057805160208201fd5b805160208201f35b505b005b34801561023857600080fd5b5061022a61024736600461315d565b5050505050505050565b61022a61025f36600461320d565b61060d565b34801561027057600080fd5b5061028461027f366004613568565b610659565b6040519081526020015b60405180910390f35b3480156102a357600080fd5b506102dc6102b23660046136af565b7f150b7a020000000000000000000000000000000000000000000000000000000095945050505050565b6040517fffffffff00000000000000000000000000000000000000000000000000000000909116815260200161028e565b34801561031957600080fd5b506102dc61032836600461371e565b6107c4565b34801561033957600080fd5b5061034d61034836600461377f565b61085b565b60405173ffffffffffffffffffffffffffffffffffffffff909116815260200161028e565b61022a61038036600461379c565b610866565b34801561039157600080fd5b5061022a6103a036600461380d565b6108e5565b61022a6103b336600461377f565b610929565b3480156103c457600080fd5b506102846109eb565b61022a6103db366004613826565b610a1a565b3480156103ec57600080fd5b506102dc6103fb366004613868565b7f8943ec0200000000000000000000000000000000000000000000000000000000949350505050565b34801561043057600080fd5b5061028461043f36600461380d565b610a87565b34801561045057600080fd5b5061046461045f36600461380d565b610ab3565b6040805173ffffffffffffffffffffffffffffffffffffffff909316835260208301919091520161028e565b34801561049c57600080fd5b5061034d610ac8565b3480156104b157600080fd5b506104c56104c0366004613568565b610ad2565b604080519687526020870195909552921515938501939093526060840152608083019190915260a082015260c00161028e565b61022a6105063660046138aa565b610b0c565b34801561051757600080fd5b506102dc610526366004613924565b7fbc197c810000000000000000000000000000000000000000000000000000000098975050505050505050565b34801561055f57600080fd5b506102dc61056e3660046139cb565b7ff23a6e61000000000000000000000000000000000000000000000000000000009695505050505050565b3480156105a557600080fd5b5061022a6105b4366004613a43565b610bd1565b60006106077fbe27a319efc8734e89e26ba4bc95f5c788584163b959f03fa04e2d7ab4b9a1207fffffffff000000000000000000000000000000000000000000000000000000008416610c8c565b92915050565b33301461064d576040517fa19dbf000000000000000000000000000000000000000000000000000000000081523360048201526024015b60405180910390fd5b61065681610cea565b50565b60008084610100015151600161066f9190613ac3565b67ffffffffffffffff81111561068757610687613228565b6040519080825280602002602001820160405280156106b0578160200160208202803683370190505b50905060005b856101000151518110156107225785610100015181815181106106db576106db613ad6565b60200260200101518282815181106106f5576106f5613ad6565b73ffffffffffffffffffffffffffffffffffffffff909216602092830291909101909101526001016106b6565b503381866101000151518151811061073c5761073c613ad6565b73ffffffffffffffffffffffffffffffffffffffff9092166020928302919091019091015261010085018190526000610776868686610d3f565b509050806107b6578585856040517ff58cc8b500000000000000000000000000000000000000000000000000000000815260040161064493929190613d7e565b5060019150505b9392505050565b604080516101208101825260006020820181905260609282018390528282018190526080820181905260a0820183905260c082018190526101008201929092526003815260e08101859052600061081c828686610d3f565b509050806108305750600091506107bd9050565b507f1626ba7e0000000000000000000000000000000000000000000000000000000095945050505050565b6000610607826105b9565b60005a905060006108778686610f26565b905061088b81606001518260800151611344565b600080610899838787610d3f565b91509150816108da578286866040517fa2b6d61b00000000000000000000000000000000000000000000000000000000815260040161064493929190613d7e565b61024784828561142c565b333014610920576040517fa19dbf00000000000000000000000000000000000000000000000000000000008152336004820152602401610644565b6106568161178b565b333014610964576040517fa19dbf00000000000000000000000000000000000000000000000000000000008152336004820152602401610644565b600061096f826105b9565b73ffffffffffffffffffffffffffffffffffffffff16036109e0576040517f1c3812cc0000000000000000000000000000000000000000000000000000000081527fffffffff0000000000000000000000000000000000000000000000000000000082166004820152602401610644565b61065681600061181b565b6000610a157fea7157fa25e3aa17d0ae2d5280fa4e24d421c61842aa85e45194e1145aa72bf85490565b905090565b333014610a55576040517fa19dbf00000000000000000000000000000000000000000000000000000000008152336004820152602401610644565b60005a90506000610a668484610f26565b90506000610a73826118db565b9050610a8083828461142c565b5050505050565b60006106077f8d0bf1fd623d628c741362c1289948e57b3e2905218c676d3e69abee36d6ae2e83610c8c565b600080610abf83611956565b91509150915091565b6000610a15305490565b600080600080600080610ae98989896000806119a2565b939950919750945092509050610afe83611cc7565b935093975093979195509350565b333014610b47576040517fa19dbf00000000000000000000000000000000000000000000000000000000008152336004820152602401610644565b6000610b52836105b9565b73ffffffffffffffffffffffffffffffffffffffff1614610bc3576040517f5b4d6d6a0000000000000000000000000000000000000000000000000000000081527fffffffff0000000000000000000000000000000000000000000000000000000083166004820152602401610644565b610bcd828261181b565b5050565b333014610c0c576040517fa19dbf00000000000000000000000000000000000000000000000000000000008152336004820152602401610644565b610c258383836bffffffffffffffffffffffff16611cd2565b6040805184815273ffffffffffffffffffffffffffffffffffffffff841660208201526bffffffffffffffffffffffff83168183015290517febf265acfac1c01de588ed7ef49743b9c3ce8d6d1edeaf510a1f5453228515b19181900360600190a1505050565b6000808383604051602001610cab929190918252602082015260400190565b604080517fffffffffffffffffffffffffffffffffffffffffffffffffffffffffffffffe0818403018152919052805160209091012054949350505050565b610cf2813055565b60405173ffffffffffffffffffffffffffffffffffffffff821681527f310ba5f1d2ed074b51e2eccd052a47ae9ab7c6b800d1fca3db3999d6a592ca03906020015b60405180910390a150565b600080600084846000818110610d5757610d57613ad6565b7fff000000000000000000000000000000000000000000000000000000000000009201359182169250507f80000000000000000000000000000000000000000000000000000000000000009081169003610eac57610db4866118db565b9150600080610dc284611956565b91509150428111610e09576040517ff95b6ab70000000000000000000000000000000000000000000000000000000081526004810185905260248101829052604401610644565b73ffffffffffffffffffffffffffffffffffffffff821615801590610e44575073ffffffffffffffffffffffffffffffffffffffff82163314155b15610ea0576040517f8945c3130000000000000000000000000000000000000000000000000000000081526004810185905233602482015273ffffffffffffffffffffffffffffffffffffffff83166044820152606401610644565b60019450505050610f1e565b6000806000610ebf8989896000806119a2565b985092955090935091505082821015610f0e576040517ffd41fcba0000000000000000000000000000000000000000000000000000000081526004810184905260248101839052604401610644565b610f1781611cc7565b9550505050505b935093915050565b604080516101208101825260008082526020820181905260609282018390528282018190526080820181905260a0820183905260c0820181905260e0820152610100810191909152823560f81c60018082168103610f8a5760006060840152610f9b565b84810135606090811c908401526014015b6007600183901c168015610fee5760016008820290811b7fffffffffffffffffffffffffffffffffffffffffffffffffffffffffffffffff0187840135610100929092039190911c166080850152908101905b6000836010166010036110035750600161102c565b8360201660200361101f5750600282019186013560f01c61102c565b50600182019186013560f81c5b8067ffffffffffffffff81111561104557611045613228565b6040519080825280602002602001820160405280156110d057816020015b6110bd6040518060e00160405280600073ffffffffffffffffffffffffffffffffffffffff168152602001600081526020016060815260200160008152602001600015158152602001600015158152602001600081525090565b8152602001906001900390816110635790505b50604086015260005b818110156113395760018085019489013560f81c90808216900361113857308760400151838151811061110e5761110e613ad6565b602090810291909101015173ffffffffffffffffffffffffffffffffffffffff9091169052611182565b8489013560601c601486018860400151848151811061115957611159613ad6565b602090810291909101015173ffffffffffffffffffffffffffffffffffffffff90921690915294505b600280821690036111c0578489013560208601886040015184815181106111ab576111ab613ad6565b60200260200101516020018197508281525050505b6004808216900361125857600385019489013560e81c89868a6111e38483613ac3565b926111f093929190613dae565b8080601f016020809104026020016040519081016040528093929190818152602001838380828437600092019190915250505050604089015180518590811061123b5761123b613ad6565b6020908102919091010151604001526112548187613ac3565b9550505b600880821690036112965784890135602086018860400151848151811061128157611281613ad6565b60200260200101516060018197508281525050505b8060101660ff16601014876040015183815181106112b6576112b6613ad6565b602002602001015160800190151590811515815250508060201660ff16602014876040015183815181106112ec576112ec613ad6565b602090810291909101015190151560a090910152604087015180516003600684901c1691908490811061132157611321613ad6565b602090810291909101015160c00152506001016110d9565b505050505092915050565b600061134f83610a87565b905081811461139b576040517f9b6514f4000000000000000000000000000000000000000000000000000000008152600481018490526024810183905260448101829052606401610644565b604080517f8d0bf1fd623d628c741362c1289948e57b3e2905218c676d3e69abee36d6ae2e60208083019190915281830186905282518083038401815260609092019092528051910120600183019081905560408051858152602081018390527f1f180c27086c7a39ea2a7b25239d1ab92348f07ca7bb59d1438fcf527568f881910160405180910390a150505050565b604081015151600090815b818110156117835760008460400151828151811061145757611457613ad6565b602002602001015190508060a001518015611470575083155b156114b45760408051878152602081018490527f9ae934bf8a986157c889a24c3b3fa85e74b7e4ee4b1f8fc6e7362cb4c1d19d8b910160405180910390a15061177b565b60608101516000945080158015906114cb5750805a105b156115085785835a6040517f2139527400000000000000000000000000000000000000000000000000000000815260040161064493929190613dd8565b60008260800151156115dc5782516115d59083156115265783611528565b5a5b634c4e814c60e01b8b8d898b8e606001518b6040015160405160240161155396959493929190613dfd565b604080517fffffffffffffffffffffffffffffffffffffffffffffffffffffffffffffffe08184030181529190526020810180517bffffffffffffffffffffffffffffffffffffffffffffffffffffffff167fffffffff0000000000000000000000000000000000000000000000000000000090931692909217909152611d61565b9050611603565b82516020840151611600919084156115f457846115f6565b5a5b8660400151611d77565b90505b8061173e5760c083015161165f57600195507f115f347c00e69f252cd6b63c4f81022a9564c6befe8aa719cb74640a4a306f0d8885611640611d8f565b60405161164f93929190613e3a565b60405180910390a150505061177b565b60c08301517fffffffffffffffffffffffffffffffffffffffffffffffffffffffffffffffff016116c9578684611694611d8f565b6040517f7f6b0bb100000000000000000000000000000000000000000000000000000000815260040161064493929190613e59565b60c08301517ffffffffffffffffffffffffffffffffffffffffffffffffffffffffffffffffe0161173e577fc2c704302430fe0dc8d95f272e2f4e54bbbc51a3327fd5d75ab41f9fc8fd129b888561171f611d8f565b60405161172e93929190613e3a565b60405180910390a1505050611783565b60408051898152602081018690527f5a589b1d8062f33451d29cae3dabd9b2e36c62aee644178c600977ca8dda661a910160405180910390a15050505b600101611437565b505050505050565b806117c2576040517f4294d12700000000000000000000000000000000000000000000000000000000815260040160405180910390fd5b6117eb7fea7157fa25e3aa17d0ae2d5280fa4e24d421c61842aa85e45194e1145aa72bf8829055565b6040518181527f307ed6bd941ee9fc80f369c94af5fa11e25bab5102a6140191756c5474a30bfa90602001610d34565b604080517fbe27a319efc8734e89e26ba4bc95f5c788584163b959f03fa04e2d7ab4b9a1206020808301919091527fffffffff000000000000000000000000000000000000000000000000000000008516828401819052835180840385018152606084018086528151919093012073ffffffffffffffffffffffffffffffffffffffff8616908190559152608082015290517f0d7fc113eaf016db4681a1ba86d083ce3e0961f321062a75ac2b0aeb33deeed19181900360a00190a15050565b6000806118ec836020015130611dae565b905060006118f984611e7b565b6040517f1901000000000000000000000000000000000000000000000000000000000000602082015260228101849052604281018290529091506062015b6040516020818303038152906040528051906020012092505050919050565b600080806119847fc852adf5e97c2fc3b38f405671e91b7af1697ef0287577f227ef10494c2a8e8685610c8c565b606081901c956bffffffffffffffffffffffff909116945092505050565b6040805180820182526000808252602082018190529182918291829182918a3560f81c916001918084161480156119ed575073ffffffffffffffffffffffffffffffffffffffff8916155b15611b09578b82013560601c985060149091019089611b095760038201918c013560e81c60008d848e611a208583613ac3565b92611a2d93929190613dae565b8080601f016020809104026020016040519081016040528093929190818152602001838380828437600092019190915250506040517fccce3bc80000000000000000000000000000000000000000000000000000000081529293505073ffffffffffffffffffffffffffffffffffffffff8d169163ccce3bc89150611ab89030908590600401613e84565b6040805180830381865afa158015611ad4573d6000803e3d6000fd5b505050506040513d601f19601f82011682018060405250810190611af89190613ebb565b9250611b048285613ac3565b935050505b82600116600103611b4357611b318d8a838f8f87908092611b2c93929190613dae565b6120e7565b97509750975097509750505050611cba565b6002838116811460208f015283901c60071660016008820290811b7fffffffffffffffffffffffffffffffffffffffffffffffffffffffffffffffff018e850135610100929092039190911c16838201909650925060009050611bae6001600586901c811690613ac3565b60016008820290811b7fffffffffffffffffffffffffffffffffffffffffffffffffffffffffffffffff018f860135610100929092039190911c1699509092019150611bf98d6118db565b9350611c178d858e8e86908092611c1293929190613dae565b61232b565b600090815260208a815260408083208352888252808320835273ffffffffffffffffffffffffffffffffffffffff8d1690915290208251919850965015801590611c62575080518614155b8015611c72575080602001518511155b15611cb6576040517fccbb534f0000000000000000000000000000000000000000000000000000000081528151600482015260208201516024820152604401610644565b5050505b9550955095509550959050565b600061060782612c52565b611d5c7fc852adf5e97c2fc3b38f405671e91b7af1697ef0287577f227ef10494c2a8e86847fffffffffffffffffffffffffffffffffffffffff000000000000000000000000606086901b166bffffffffffffffffffffffff8516176040805160208082019590955280820193909352805180840382018152606090930190528151919092012055565b505050565b60008060008351602085018787f4949350505050565b6000806000835160208501878988f195945050505050565b60603d604051915060208201818101604052818352816000823e505090565b60007f8b73c3c69bb8fe3d512ecc4cf759cc79239f7b179b0ffacaa9a75d522b39400f7f4aa45ca7ad825ceb1bf35643f0a58c295239df563b1b565c2485f96477c563187f2a80e1ef1d7842f27f2e6be0972bb708b9a135c38860dbe73c27c3486c34f4de85611e1e5746611e21565b60005b6040805160208101959095528401929092526060830152608082015273ffffffffffffffffffffffffffffffffffffffff831660a082015260c0015b60405160208183030381529060405280519060200120905092915050565b600080826101000151604051602001611e949190613f0c565b604080517fffffffffffffffffffffffffffffffffffffffffffffffffffffffffffffffe08184030181529190528051602090910120835190915060ff16611f3d576000611ee58460400151612c85565b606085810151608080880151604080517f11e1e4079a79a66e4ade50033cfe2678cdd5341d2dfe5ef9513edb1a0be147a260208201529081018690529384019290925282015260a0810184905290915060c001611937565b825160ff167fffffffffffffffffffffffffffffffffffffffffffffffffffffffffffffffff01611fcd5760a08301518051602091820120604080517fe19a3b94fc3c7ece3f890d98a99bc422615537a08dea0603fa8425867d87d46693810193909352820152606081018290526080015b60405160208183030381529060405280519060200120915050919050565b825160ff167ffffffffffffffffffffffffffffffffffffffffffffffffffffffffffffffffe0161203d5760c0830151604080517f11fdeb7e8373a1aa96bfac8d0ea91526b2c5d15e5cee20e0543e780258f3e8e460208201529081019190915260608101829052608001611faf565b825160ff167ffffffffffffffffffffffffffffffffffffffffffffffffffffffffffffffffd016120ad5760e0830151604080517fe19a3b94fc3c7ece3f890d98a99bc422615537a08dea0603fa8425867d87d46660208201529081019190915260608101829052608001611faf565b82516040517f0481832000000000000000000000000000000000000000000000000000000000815260ff9091166004820152602401610644565b6000806000806000612149604051806101200160405280600060ff168152602001600015158152602001606081526020016000815260200160008152602001606081526020016000801916815260200160008019168152602001606081525090565b6002815260007fffffffffffffffffffffffffffffffffffffffffffffffffffffffffffffffff5b888210156122d35760038201916000908b013560e81c6121918482613ac3565b9150600090508a82146121a55760006121a7565b8d5b90507fffffffffffffffffffffffffffffffffffffffffffffffffffffffffffffffff83036121ff576121ee8f8d8d879086926121e693929190613dae565b6001856119a2565b939d50919b50995097509550612221565b612215858d8d879086926121e693929190613dae565b50929c50909a50985096505b8989101561226d5761223582858d8f613dae565b8b8b6040517fb006aba00000000000000000000000000000000000000000000000000000000081526004016106449493929190613f58565b819350878d60000151036122805760008d525b8287106122c3576040517f37daf62b0000000000000000000000000000000000000000000000000000000081526004810188905260248101849052604401610644565b50505060c0820185905283612171565b8a51158015906122e757508a602001518511155b15611cb6576040517fccbb534f0000000000000000000000000000000000000000000000000000000081528b51600482015260208c01516024820152604401610644565b60008060005b83811015612c4857600181019085013560f881901c9060fc1c8061243657600f821660008190036123695750600183019287013560f81c5b600080806123788b8b89612d33565b809a5081945082955083965050505050600060018d838686604051600081526020016040526040516123c6949392919093845260ff9290921660208401526040830152606082015260800190565b6020604051602081039080840390855afa1580156123e8573d6000803e3d6000fd5b5050506020604051035190508460ff168a019950600061240b828760ff16612d86565b9050896124185780612427565b60008a81526020829052604090205b99505050505050505050612331565b6001810361249a57600f821660008190036124585750600183019287013560f81c5b601484019388013560601c60006124728260ff8516612d86565b90508661247f578061248e565b60008781526020829052604090205b96505050505050612331565b60028103612664576003821660008190036124bc5750600183019287013560f81c5b60008489013560601c60148601955090506003600285901c16600060016008830290811b7fffffffffffffffffffffffffffffffffffffffffffffffffffffffffffffffff018c890135610100929092039190911c16828801809850819250505060008188019050631626ba7e60e01b7bffffffffffffffffffffffffffffffffffffffffffffffffffffffff19168473ffffffffffffffffffffffffffffffffffffffff16631626ba7e8f8f8f8d90879261257a93929190613dae565b6040518463ffffffff1660e01b815260040161259893929190613f7f565b602060405180830381865afa1580156125b5573d6000803e3d6000fd5b505050506040513d601f19601f820116820180604052508101906125d99190613f99565b7fffffffff00000000000000000000000000000000000000000000000000000000161461264a578c848d8d8b90859261261493929190613dae565b6040517fb2fed7ae0000000000000000000000000000000000000000000000000000000081526004016106449493929190613fb6565b8097508460ff168a019950600061240b858760ff16612d86565b600381036126985760208301928701358461267f578061268e565b60008581526020829052604090205b9450505050612331565b6004810361273b57600f8216600060016008830290811b7fffffffffffffffffffffffffffffffffffffffffffffffffffffffffffffffff018a870135610100929092039190911c1685830180965081925050506000818601905060008061270d8e8e8e8e8c908892611c1293929190613dae565b91509150829750818a01995061272d898260009182526020526040902090565b985050505050505050612331565b60068103612805576003600283901c1660008190036127615750600183019287013560f81c5b60038316600081900361277b5750600284019388013560f01c5b6000858a013560e81c600387018162ffffff1691508097508192505050600081870190506000806127b98f8f8f8f8d908892611c1293929190613dae565b915091508298508482106127cc57998501995b60006127d9828789612ded565b90508a6127e657806127f5565b60008b81526020829052604090205b9a50505050505050505050612331565b60058103612872576020830192870135888103612840577fffffffffffffffffffffffffffffffffffffffffffffffffffffffffffffffff95505b600061284b82612e51565b9050856128585780612867565b60008681526020829052604090205b955050505050612331565b6007810361295057600f821660008190036128945750600183019287013560f81c5b600080806128a38b8b89612d33565b604051909a5092955090935091506000906001906128f1908f906020017f19457468657265756d205369676e6564204d6573736167653a0a3332000000008152601c810191909152603c0190565b604080517fffffffffffffffffffffffffffffffffffffffffffffffffffffffffffffffe08184030181528282528051602091820120600084529083018083525260ff851690820152606081018690526080810185905260a0016123c6565b600881036129a4576020830192870135600061296c8b82612ea5565b9050808203612999577fffffffffffffffffffffffffffffffffffffffffffffffffffffffffffffffff96505b600061247283612f20565b60098103612adc576003821660008190036129c65750600183019287013560f81c5b60008489013560601c601486019550905060006003600286901c1660016008820290811b7fffffffffffffffffffffffffffffffffffffffffffffffffffffffffffffffff018c890135610100929092039190911c168188018098508193505050506000818701905060008373ffffffffffffffffffffffffffffffffffffffff166313792a4a8f8e8e8c908792612a6093929190613dae565b6040518463ffffffff1660e01b8152600401612a7e93929190613d7e565b602060405180830381865afa158015612a9b573d6000803e3d6000fd5b505050506040513d601f19601f82011682018060405250810190612abf9190613fec565b90508197508460ff168a019950600061240b858760ff1684612f5b565b600a8103612c1357600382166000819003612afe5750600183019287013560f81c5b60008489013560601c60148601955090506003600285901c16600060016008830290811b7fffffffffffffffffffffffffffffffffffffffffffffffffffffffffffffffff018c890135610100929092039190911c1682880180985081925050506000818801905060008473ffffffffffffffffffffffffffffffffffffffff1663898bd9218f8f8f8d908792612b9793929190613dae565b6040518463ffffffff1660e01b8152600401612bb593929190613f7f565b602060405180830381865afa158015612bd2573d6000803e3d6000fd5b505050506040513d601f19601f82011682018060405250810190612bf69190613fec565b90508198508560ff168b019a5060006127d9868860ff1684612f5b565b6040517fb2505f7c00000000000000000000000000000000000000000000000000000000815260048101829052602401610644565b5094509492505050565b600081158015906106075750507fea7157fa25e3aa17d0ae2d5280fa4e24d421c61842aa85e45194e1145aa72bf8541490565b600080825167ffffffffffffffff811115612ca257612ca2613228565b604051908082528060200260200182016040528015612ccb578160200160208202803683370190505b50905060005b8351811015612d2157612cfc848281518110612cef57612cef613ad6565b6020026020010151612fc9565b828281518110612d0e57612d0e613ad6565b6020908102919091010152600101612cd1565b5080604051602001611faf9190614005565b828101803590602001357f7fffffffffffffffffffffffffffffffffffffffffffffffffffffffffffffff811690600090604085019060ff81901c612d7981601b614030565b9350505093509350935093565b6040517f53657175656e6365207369676e65723a0a00000000000000000000000000000060208201527fffffffffffffffffffffffffffffffffffffffff000000000000000000000000606084901b16603182015260458101829052600090606501611e5d565b6040517f53657175656e6365206e657374656420636f6e6669673a0a000000000000000060208201526038810184905260588101839052607881018290526000906098015b6040516020818303038152906040528051906020012090509392505050565b6040517f53657175656e636520737461746963206469676573743a0a00000000000000006020820152603881018290526000906058015b604051602081830303815290604052805190602001209050919050565b600080612eb6846020015184611dae565b90506000612ec385611e7b565b6040517f190100000000000000000000000000000000000000000000000000000000000060208201526022810184905260428101829052909150606201604051602081830303815290604052805190602001209250505092915050565b604080517f53657175656e636520616e792061646472657373207375626469676573743a0a6020820152908101829052600090606001612e88565b6040517f53657175656e63652073617069656e7420636f6e6669673a0a0000000000000060208201527fffffffffffffffffffffffffffffffffffffffff000000000000000000000000606085901b166039820152604d8101839052606d8101829052600090608d01612e32565b80516020808301516040808501518051908401206060860151608087015160a088015160c08901519451600098612e88987f0603985259a953da1f65a522f589c17bd1d0117ec1d3abb7c0788aef251ef4379891979196959493920197885273ffffffffffffffffffffffffffffffffffffffff969096166020880152604087019490945260608601929092526080850152151560a0840152151560c083015260e08201526101000190565b80357fffffffff0000000000000000000000000000000000000000000000000000000081169060048410156130d4577fffffffff00000000000000000000000000000000000000000000000000000000808560040360031b1b82161691505b5092915050565b8183823760009101908152919050565b803573ffffffffffffffffffffffffffffffffffffffff8116811461310f57600080fd5b919050565b60008083601f84011261312657600080fd5b50813567ffffffffffffffff81111561313e57600080fd5b60208301915083602082850101111561315657600080fd5b9250929050565b60008060008060008060008060c0898b03121561317957600080fd5b613182896130eb565b975061319060208a016130eb565b965061319e60408a016130eb565b955060608901359450608089013567ffffffffffffffff8111156131c157600080fd5b6131cd8b828c01613114565b90955093505060a089013567ffffffffffffffff8111156131ed57600080fd5b6131f98b828c01613114565b999c989b5096995094979396929594505050565b60006020828403121561321f57600080fd5b6107bd826130eb565b7f4e487b7100000000000000000000000000000000000000000000000000000000600052604160045260246000fd5b60405160e0810167ffffffffffffffff8111828210171561327a5761327a613228565b60405290565b604051610120810167ffffffffffffffff8111828210171561327a5761327a613228565b604051601f82017fffffffffffffffffffffffffffffffffffffffffffffffffffffffffffffffe016810167ffffffffffffffff811182821017156132eb576132eb613228565b604052919050565b803560ff8116811461310f57600080fd5b8035801515811461310f57600080fd5b600067ffffffffffffffff82111561332e5761332e613228565b5060051b60200190565b600082601f83011261334957600080fd5b813567ffffffffffffffff81111561336357613363613228565b61339460207fffffffffffffffffffffffffffffffffffffffffffffffffffffffffffffffe0601f840116016132a4565b8181528460208386010111156133a957600080fd5b816020850160208301376000918101602001919091529392505050565b600082601f8301126133d757600080fd5b81356133ea6133e582613314565b6132a4565b8082825260208201915060208360051b86010192508583111561340c57600080fd5b602085015b838110156134f957803567ffffffffffffffff81111561343057600080fd5b860160e08189037fffffffffffffffffffffffffffffffffffffffffffffffffffffffffffffffe001121561346457600080fd5b61346c613257565b613478602083016130eb565b815260408201356020820152606082013567ffffffffffffffff81111561349e57600080fd5b6134ad8a602083860101613338565b604083015250608082013560608201526134c960a08301613304565b60808201526134da60c08301613304565b60a082015260e0919091013560c0820152835260209283019201613411565b5095945050505050565b600082601f83011261351457600080fd5b81356135226133e582613314565b8082825260208201915060208360051b86010192508583111561354457600080fd5b602085015b838110156134f95761355a816130eb565b835260209283019201613549565b60008060006040848603121561357d57600080fd5b833567ffffffffffffffff81111561359457600080fd5b840161012081870312156135a757600080fd5b6135af613280565b6135b8826132f3565b81526135c660208301613304565b6020820152604082013567ffffffffffffffff8111156135e557600080fd5b6135f1888285016133c6565b604083015250606082810135908201526080808301359082015260a082013567ffffffffffffffff81111561362557600080fd5b61363188828501613338565b60a08301525060c0828101359082015260e0808301359082015261010082013567ffffffffffffffff81111561366657600080fd5b61367288828501613503565b61010083015250935050602084013567ffffffffffffffff81111561369657600080fd5b6136a286828701613114565b9497909650939450505050565b6000806000806000608086880312156136c757600080fd5b6136d0866130eb565b94506136de602087016130eb565b935060408601359250606086013567ffffffffffffffff81111561370157600080fd5b61370d88828901613114565b969995985093965092949392505050565b60008060006040848603121561373357600080fd5b83359250602084013567ffffffffffffffff81111561369657600080fd5b7fffffffff000000000000000000000000000000000000000000000000000000008116811461065657600080fd5b60006020828403121561379157600080fd5b81356107bd81613751565b600080600080604085870312156137b257600080fd5b843567ffffffffffffffff8111156137c957600080fd5b6137d587828801613114565b909550935050602085013567ffffffffffffffff8111156137f557600080fd5b61380187828801613114565b95989497509550505050565b60006020828403121561381f57600080fd5b5035919050565b6000806020838503121561383957600080fd5b823567ffffffffffffffff81111561385057600080fd5b61385c85828601613114565b90969095509350505050565b6000806000806060858703121561387e57600080fd5b613887856130eb565b935060208501359250604085013567ffffffffffffffff8111156137f557600080fd5b600080604083850312156138bd57600080fd5b82356138c881613751565b91506138d6602084016130eb565b90509250929050565b60008083601f8401126138f157600080fd5b50813567ffffffffffffffff81111561390957600080fd5b6020830191508360208260051b850101111561315657600080fd5b60008060008060008060008060a0898b03121561394057600080fd5b613949896130eb565b975061395760208a016130eb565b9650604089013567ffffffffffffffff81111561397357600080fd5b61397f8b828c016138df565b909750955050606089013567ffffffffffffffff81111561399f57600080fd5b6139ab8b828c016138df565b909550935050608089013567ffffffffffffffff8111156131ed57600080fd5b60008060008060008060a087890312156139e457600080fd5b6139ed876130eb565b95506139fb602088016130eb565b94506040870135935060608701359250608087013567ffffffffffffffff811115613a2557600080fd5b613a3189828a01613114565b979a9699509497509295939492505050565b600080600060608486031215613a5857600080fd5b83359250613a68602085016130eb565b915060408401356bffffffffffffffffffffffff81168114613a8957600080fd5b809150509250925092565b7f4e487b7100000000000000000000000000000000000000000000000000000000600052601160045260246000fd5b8082018082111561060757610607613a94565b7f4e487b7100000000000000000000000000000000000000000000000000000000600052603260045260246000fd5b6000815180845260005b81811015613b2b57602081850181015186830182015201613b0f565b5060006020828601015260207fffffffffffffffffffffffffffffffffffffffffffffffffffffffffffffffe0601f83011685010191505092915050565b600082825180855260208501945060208160051b8301016020850160005b83811015613c39577fffffffffffffffffffffffffffffffffffffffffffffffffffffffffffffffe0858403018852815173ffffffffffffffffffffffffffffffffffffffff815116845260208101516020850152604081015160e06040860152613bf560e0860182613b05565b6060838101519087015260808084015115159087015260a08084015115159087015260c0928301519290950191909152506020978801979190910190600101613b87565b50909695505050505050565b600081518084526020840193506020830160005b82811015613c8d57815173ffffffffffffffffffffffffffffffffffffffff16865260209586019590910190600101613c59565b5093949350505050565b805160ff16825260006020820151613cb3602085018215159052565b5060408201516101206040850152613ccf610120850182613b69565b9050606083015160608501526080830151608085015260a083015184820360a0860152613cfc8282613b05565b91505060c083015160c085015260e083015160e0850152610100830151848203610100860152613d2c8282613c45565b95945050505050565b8183528181602085013750600060208284010152600060207fffffffffffffffffffffffffffffffffffffffffffffffffffffffffffffffe0601f840116840101905092915050565b604081526000613d916040830186613c97565b8281036020840152613da4818587613d35565b9695505050505050565b60008085851115613dbe57600080fd5b83861115613dcb57600080fd5b5050820193919092039150565b606081526000613deb6060830186613c97565b60208301949094525060400152919050565b86815285602082015284604082015283606082015282608082015260c060a08201526000613e2e60c0830184613b05565b98975050505050505050565b838152826020820152606060408201526000613d2c6060830184613b05565b606081526000613e6c6060830186613c97565b8460208401528281036040840152613da48185613b05565b73ffffffffffffffffffffffffffffffffffffffff83168152604060208201526000613eb36040830184613b05565b949350505050565b60006040828403128015613ece57600080fd5b506040805190810167ffffffffffffffff81118282101715613ef257613ef2613228565b604052825181526020928301519281019290925250919050565b8151600090829060208501835b82811015613f4d57815173ffffffffffffffffffffffffffffffffffffffff16845260209384019390910190600101613f19565b509195945050505050565b606081526000613f6c606083018688613d35565b6020830194909452506040015292915050565b838152604060208201526000613d2c604083018486613d35565b600060208284031215613fab57600080fd5b81516107bd81613751565b84815273ffffffffffffffffffffffffffffffffffffffff84166020820152606060408201526000613da4606083018486613d35565b600060208284031215613ffe57600080fd5b5051919050565b8151600090829060208501835b82811015613f4d578151845260209384019390910190600101614012565b60ff818116838216019081111561060757610607613a9456fea26469706673582212200bd4251522c550bb03481c696423ea2d718f822ac8f158f26362eb0c2e5ddc8364736f6c634300081b00336041600e3d396021805130553df33d3d36153402601f57363d3d373d363d30545af43d82803e903d91601f57fd5bf3",
  "linkReferences": {},
  "deployedLinkReferences": {}
}