{
  "_format": "hh-sol-artifact-1",
  "contractName": "Stage1Module",
  "sourceName": "src/Stage1Module.sol",
  "abi": [
    {
      "inputs": [
        {
          "internalType": "address",
          "name": "_factory",
          "type": "address"
        }
      ],
      "stateMutability": "nonpayable",
      "type": "constructor"
    },
    {
      "inputs": [
        {
          "internalType": "uint256",
          "name": "_space",
          "type": "uint256"
        },
        {
          "internalType": "uint256",
          "name": "_provided",
          "type": "uint256"
        },
        {
          "internalType": "uint256",
          "name": "_current",
          "type": "uint256"
        }
      ],
      "name": "BadNonce",
      "type": "error"
    },
    {
      "inputs": [
        {
          "internalType": "bytes4",
          "name": "selector",
          "type": "bytes4"
        }
      ],
      "name": "HookAlreadyExists",
      "type": "error"
    },
    {
      "inputs": [
        {
          "internalType": "bytes4",
          "name": "selector",
          "type": "bytes4"
        }
      ],
      "name": "HookDoesNotExist",
      "type": "error"
    },
    {
      "inputs": [],
      "name": "ImageHashIsZero",
      "type": "error"
    },
    {
      "inputs": [
        {
          "internalType": "bytes32",
          "name": "_opHash",
          "type": "bytes32"
        },
        {
          "internalType": "address",
          "name": "_signer",
          "type": "address"
        },
        {
          "internalType": "bytes",
          "name": "_signature",
          "type": "bytes"
        }
      ],
      "name": "InvalidERC1271Signature",
      "type": "error"
    },
    {
      "inputs": [
        {
          "internalType": "uint8",
          "name": "kind",
          "type": "uint8"
        }
      ],
      "name": "InvalidKind",
      "type": "error"
    },
    {
      "inputs": [
        {
          "components": [
            {
              "internalType": "uint8",
              "name": "kind",
              "type": "uint8"
            },
            {
              "internalType": "bool",
              "name": "noChainId",
              "type": "bool"
            },
            {
              "components": [
                {
                  "internalType": "address",
                  "name": "to",
                  "type": "address"
                },
                {
                  "internalType": "uint256",
                  "name": "value",
                  "type": "uint256"
                },
                {
                  "internalType": "bytes",
                  "name": "data",
                  "type": "bytes"
                },
                {
                  "internalType": "uint256",
                  "name": "gasLimit",
                  "type": "uint256"
                },
                {
                  "internalType": "bool",
                  "name": "delegateCall",
                  "type": "bool"
                },
                {
                  "internalType": "bool",
                  "name": "onlyFallback",
                  "type": "bool"
                },
                {
                  "internalType": "uint256",
                  "name": "behaviorOnError",
                  "type": "uint256"
                }
              ],
              "internalType": "struct Payload.Call[]",
              "name": "calls",
              "type": "tuple[]"
            },
            {
              "internalType": "uint256",
              "name": "space",
              "type": "uint256"
            },
            {
              "internalType": "uint256",
              "name": "nonce",
              "type": "uint256"
            },
            {
              "internalType": "bytes",
              "name": "message",
              "type": "bytes"
            },
            {
              "internalType": "bytes32",
              "name": "imageHash",
              "type": "bytes32"
            },
            {
              "internalType": "bytes32",
              "name": "digest",
              "type": "bytes32"
            },
            {
              "internalType": "address[]",
              "name": "parentWallets",
              "type": "address[]"
            }
          ],
          "internalType": "struct Payload.Decoded",
          "name": "_payload",
          "type": "tuple"
        },
        {
          "internalType": "bytes",
          "name": "_signature",
          "type": "bytes"
        }
      ],
      "name": "InvalidSapientSignature",
      "type": "error"
    },
    {
      "inputs": [
        {
          "components": [
            {
              "internalType": "uint8",
              "name": "kind",
              "type": "uint8"
            },
            {
              "internalType": "bool",
              "name": "noChainId",
              "type": "bool"
            },
            {
              "components": [
                {
                  "internalType": "address",
                  "name": "to",
                  "type": "address"
                },
                {
                  "internalType": "uint256",
                  "name": "value",
                  "type": "uint256"
                },
                {
                  "internalType": "bytes",
                  "name": "data",
                  "type": "bytes"
                },
                {
                  "internalType": "uint256",
                  "name": "gasLimit",
                  "type": "uint256"
                },
                {
                  "internalType": "bool",
                  "name": "delegateCall",
                  "type": "bool"
                },
                {
                  "internalType": "bool",
                  "name": "onlyFallback",
                  "type": "bool"
                },
                {
                  "internalType": "uint256",
                  "name": "behaviorOnError",
                  "type": "uint256"
                }
              ],
              "internalType": "struct Payload.Call[]",
              "name": "calls",
              "type": "tuple[]"
            },
            {
              "internalType": "uint256",
              "name": "space",
              "type": "uint256"
            },
            {
              "internalType": "uint256",
              "name": "nonce",
              "type": "uint256"
            },
            {
              "internalType": "bytes",
              "name": "message",
              "type": "bytes"
            },
            {
              "internalType": "bytes32",
              "name": "imageHash",
              "type": "bytes32"
            },
            {
              "internalType": "bytes32",
              "name": "digest",
              "type": "bytes32"
            },
            {
              "internalType": "address[]",
              "name": "parentWallets",
              "type": "address[]"
            }
          ],
          "internalType": "struct Payload.Decoded",
          "name": "_payload",
          "type": "tuple"
        },
        {
          "internalType": "bytes",
          "name": "_signature",
          "type": "bytes"
        }
      ],
      "name": "InvalidSignature",
      "type": "error"
    },
    {
      "inputs": [
        {
          "internalType": "uint256",
          "name": "_flag",
          "type": "uint256"
        }
      ],
      "name": "InvalidSignatureFlag",
      "type": "error"
    },
    {
      "inputs": [
        {
          "internalType": "bytes1",
          "name": "_type",
          "type": "bytes1"
        }
      ],
      "name": "InvalidSignatureType",
      "type": "error"
    },
    {
      "inputs": [
        {
          "internalType": "uint256",
          "name": "_threshold",
          "type": "uint256"
        },
        {
          "internalType": "uint256",
          "name": "_weight",
          "type": "uint256"
        }
      ],
      "name": "InvalidSignatureWeight",
      "type": "error"
    },
    {
      "inputs": [
        {
          "internalType": "bytes32",
          "name": "_opHash",
          "type": "bytes32"
        },
        {
          "internalType": "uint256",
          "name": "_expires",
          "type": "uint256"
        }
      ],
      "name": "InvalidStaticSignatureExpired",
      "type": "error"
    },
    {
      "inputs": [
        {
          "internalType": "bytes32",
          "name": "_opHash",
          "type": "bytes32"
        },
        {
          "internalType": "address",
          "name": "_caller",
          "type": "address"
        },
        {
          "internalType": "address",
          "name": "_expectedCaller",
          "type": "address"
        }
      ],
      "name": "InvalidStaticSignatureWrongCaller",
      "type": "error"
    },
    {
      "inputs": [
        {
          "internalType": "bytes",
          "name": "_signature",
          "type": "bytes"
        },
        {
          "internalType": "uint256",
          "name": "_threshold",
          "type": "uint256"
        },
        {
          "internalType": "uint256",
          "name": "_weight",
          "type": "uint256"
        }
      ],
      "name": "LowWeightChainedSignature",
      "type": "error"
    },
    {
      "inputs": [
        {
          "components": [
            {
              "internalType": "uint8",
              "name": "kind",
              "type": "uint8"
            },
            {
              "internalType": "bool",
              "name": "noChainId",
              "type": "bool"
            },
            {
              "components": [
                {
                  "internalType": "address",
                  "name": "to",
                  "type": "address"
                },
                {
                  "internalType": "uint256",
                  "name": "value",
                  "type": "uint256"
                },
                {
                  "internalType": "bytes",
                  "name": "data",
                  "type": "bytes"
                },
                {
                  "internalType": "uint256",
                  "name": "gasLimit",
                  "type": "uint256"
                },
                {
                  "internalType": "bool",
                  "name": "delegateCall",
                  "type": "bool"
                },
                {
                  "internalType": "bool",
                  "name": "onlyFallback",
                  "type": "bool"
                },
                {
                  "internalType": "uint256",
                  "name": "behaviorOnError",
                  "type": "uint256"
                }
              ],
              "internalType": "struct Payload.Call[]",
              "name": "calls",
              "type": "tuple[]"
            },
            {
              "internalType": "uint256",
              "name": "space",
              "type": "uint256"
            },
            {
              "internalType": "uint256",
              "name": "nonce",
              "type": "uint256"
            },
            {
              "internalType": "bytes",
              "name": "message",
              "type": "bytes"
            },
            {
              "internalType": "bytes32",
              "name": "imageHash",
              "type": "bytes32"
            },
            {
              "internalType": "bytes32",
              "name": "digest",
              "type": "bytes32"
            },
            {
              "internalType": "address[]",
              "name": "parentWallets",
              "type": "address[]"
            }
          ],
          "internalType": "struct Payload.Decoded",
          "name": "_payload",
          "type": "tuple"
        },
        {
          "internalType": "uint256",
          "name": "_index",
          "type": "uint256"
        },
        {
          "internalType": "uint256",
          "name": "_gasLeft",
          "type": "uint256"
        }
      ],
      "name": "NotEnoughGas",
      "type": "error"
    },
    {
      "inputs": [
        {
          "internalType": "address",
          "name": "_sender",
          "type": "address"
        }
      ],
      "name": "OnlySelf",
      "type": "error"
    },
    {
      "inputs": [
        {
          "components": [
            {
              "internalType": "uint8",
              "name": "kind",
              "type": "uint8"
            },
            {
              "internalType": "bool",
              "name": "noChainId",
              "type": "bool"
            },
            {
              "components": [
                {
                  "internalType": "address",
                  "name": "to",
                  "type": "address"
                },
                {
                  "internalType": "uint256",
                  "name": "value",
                  "type": "uint256"
                },
                {
                  "internalType": "bytes",
                  "name": "data",
                  "type": "bytes"
                },
                {
                  "internalType": "uint256",
                  "name": "gasLimit",
                  "type": "uint256"
                },
                {
                  "internalType": "bool",
                  "name": "delegateCall",
                  "type": "bool"
                },
                {
                  "internalType": "bool",
                  "name": "onlyFallback",
                  "type": "bool"
                },
                {
                  "internalType": "uint256",
                  "name": "behaviorOnError",
                  "type": "uint256"
                }
              ],
              "internalType": "struct Payload.Call[]",
              "name": "calls",
              "type": "tuple[]"
            },
            {
              "internalType": "uint256",
              "name": "space",
              "type": "uint256"
            },
            {
              "internalType": "uint256",
              "name": "nonce",
              "type": "uint256"
            },
            {
              "internalType": "bytes",
              "name": "message",
              "type": "bytes"
            },
            {
              "internalType": "bytes32",
              "name": "imageHash",
              "type": "bytes32"
            },
            {
              "internalType": "bytes32",
              "name": "digest",
              "type": "bytes32"
            },
            {
              "internalType": "address[]",
              "name": "parentWallets",
              "type": "address[]"
            }
          ],
          "internalType": "struct Payload.Decoded",
          "name": "_payload",
          "type": "tuple"
        },
        {
          "internalType": "uint256",
          "name": "_index",
          "type": "uint256"
        },
        {
          "internalType": "bytes",
          "name": "_returnData",
          "type": "bytes"
        }
      ],
      "name": "Reverted",
      "type": "error"
    },
    {
      "inputs": [
        {
          "components": [
            {
              "internalType": "bytes32",
              "name": "imageHash",
              "type": "bytes32"
            },
            {
              "internalType": "uint256",
              "name": "checkpoint",
              "type": "uint256"
            }
          ],
          "internalType": "struct Snapshot",
          "name": "_snapshot",
          "type": "tuple"
        }
      ],
      "name": "UnusedSnapshot",
      "type": "error"
    },
    {
      "inputs": [
        {
          "internalType": "uint256",
          "name": "_nextCheckpoint",
          "type": "uint256"
        },
        {
          "internalType": "uint256",
          "name": "_checkpoint",
          "type": "uint256"
        }
      ],
      "name": "WrongChainedCheckpointOrder",
      "type": "error"
    },
    {
      "anonymous": false,
      "inputs": [
        {
          "indexed": false,
          "internalType": "bytes32",
          "name": "_opHash",
          "type": "bytes32"
        },
        {
          "indexed": false,
          "internalType": "uint256",
          "name": "_index",
          "type": "uint256"
        },
        {
          "indexed": false,
          "internalType": "bytes",
          "name": "_returnData",
          "type": "bytes"
        }
      ],
      "name": "CallAborted",
      "type": "event"
    },
    {
      "anonymous": false,
      "inputs": [
        {
          "indexed": false,
          "internalType": "bytes32",
          "name": "_opHash",
          "type": "bytes32"
        },
        {
          "indexed": false,
          "internalType": "uint256",
          "name": "_index",
          "type": "uint256"
        },
        {
          "indexed": false,
          "internalType": "bytes",
          "name": "_returnData",
          "type": "bytes"
        }
      ],
      "name": "CallFailed",
      "type": "event"
    },
    {
      "anonymous": false,
      "inputs": [
        {
          "indexed": false,
          "internalType": "bytes32",
          "name": "_opHash",
          "type": "bytes32"
        },
        {
          "indexed": false,
          "internalType": "uint256",
          "name": "_index",
          "type": "uint256"
        }
      ],
      "name": "CallSkipped",
      "type": "event"
    },
    {
      "anonymous": false,
      "inputs": [
        {
          "indexed": false,
          "internalType": "bytes32",
          "name": "_opHash",
          "type": "bytes32"
        },
        {
          "indexed": false,
          "internalType": "uint256",
          "name": "_index",
          "type": "uint256"
        }
      ],
      "name": "CallSucceeded",
      "type": "event"
    },
    {
      "anonymous": false,
      "inputs": [
        {
          "indexed": false,
          "internalType": "bytes4",
          "name": "selector",
          "type": "bytes4"
        },
        {
          "indexed": false,
          "internalType": "address",
          "name": "implementation",
          "type": "address"
        }
      ],
      "name": "DefinedHook",
      "type": "event"
    },
    {
      "anonymous": false,
      "inputs": [
        {
          "indexed": false,
          "internalType": "bytes32",
          "name": "newImageHash",
          "type": "bytes32"
        }
      ],
      "name": "ImageHashUpdated",
      "type": "event"
    },
    {
      "anonymous": false,
      "inputs": [
        {
          "indexed": false,
          "internalType": "address",
          "name": "newImplementation",
          "type": "address"
        }
      ],
      "name": "ImplementationUpdated",
      "type": "event"
    },
    {
      "anonymous": false,
      "inputs": [
        {
          "indexed": false,
          "internalType": "uint256",
          "name": "_space",
          "type": "uint256"
        },
        {
          "indexed": false,
          "internalType": "uint256",
          "name": "_newNonce",
          "type": "uint256"
        }
      ],
      "name": "NonceChange",
      "type": "event"
    },
    {
      "anonymous": false,
      "inputs": [
        {
          "indexed": false,
          "internalType": "bytes32",
          "name": "_hash",
          "type": "bytes32"
        },
        {
          "indexed": false,
          "internalType": "address",
          "name": "_address",
          "type": "address"
        },
        {
          "indexed": false,
          "internalType": "uint96",
          "name": "_timestamp",
          "type": "uint96"
        }
      ],
      "name": "StaticSignatureSet",
      "type": "event"
    },
    {
      "stateMutability": "payable",
      "type": "fallback"
    },
    {
      "inputs": [],
      "name": "FACTORY",
      "outputs": [
        {
          "internalType": "address",
          "name": "",
          "type": "address"
        }
      ],
      "stateMutability": "view",
      "type": "function"
    },
    {
      "inputs": [],
      "name": "INIT_CODE_HASH",
      "outputs": [
        {
          "internalType": "bytes32",
          "name": "",
          "type": "bytes32"
        }
      ],
      "stateMutability": "view",
      "type": "function"
    },
    {
      "inputs": [],
      "name": "STAGE_2_IMPLEMENTATION",
      "outputs": [
        {
          "internalType": "address",
          "name": "",
          "type": "address"
        }
      ],
      "stateMutability": "view",
      "type": "function"
    },
    {
      "inputs": [
        {
          "internalType": "bytes4",
          "name": "selector",
          "type": "bytes4"
        },
        {
          "internalType": "address",
          "name": "implementation",
          "type": "address"
        }
      ],
      "name": "addHook",
      "outputs": [],
      "stateMutability": "payable",
      "type": "function"
    },
    {
      "inputs": [
        {
          "internalType": "bytes",
          "name": "_payload",
          "type": "bytes"
        },
        {
          "internalType": "bytes",
          "name": "_signature",
          "type": "bytes"
        }
      ],
      "name": "execute",
      "outputs": [],
      "stateMutability": "payable",
      "type": "function"
    },
    {
      "inputs": [],
      "name": "getImplementation",
      "outputs": [
        {
          "internalType": "address",
          "name": "",
          "type": "address"
        }
      ],
      "stateMutability": "view",
      "type": "function"
    },
    {
      "inputs": [
        {
          "internalType": "bytes32",
          "name": "_hash",
          "type": "bytes32"
        }
      ],
      "name": "getStaticSignature",
      "outputs": [
        {
          "internalType": "address",
          "name": "",
          "type": "address"
        },
        {
          "internalType": "uint256",
          "name": "",
          "type": "uint256"
        }
      ],
      "stateMutability": "view",
      "type": "function"
    },
    {
      "inputs": [
        {
          "internalType": "bytes32",
          "name": "_hash",
          "type": "bytes32"
        },
        {
          "internalType": "bytes",
          "name": "_signature",
          "type": "bytes"
        }
      ],
      "name": "isValidSignature",
      "outputs": [
        {
          "internalType": "bytes4",
          "name": "",
          "type": "bytes4"
        }
      ],
      "stateMutability": "view",
      "type": "function"
    },
    {
      "inputs": [
        {
          "internalType": "address",
          "name": "",
          "type": "address"
        },
        {
          "internalType": "address",
          "name": "",
          "type": "address"
        },
        {
          "internalType": "uint256[]",
          "name": "",
          "type": "uint256[]"
        },
        {
          "internalType": "uint256[]",
          "name": "",
          "type": "uint256[]"
        },
        {
          "internalType": "bytes",
          "name": "",
          "type": "bytes"
        }
      ],
      "name": "onERC1155BatchReceived",
      "outputs": [
        {
          "internalType": "bytes4",
          "name": "",
          "type": "bytes4"
        }
      ],
      "stateMutability": "pure",
      "type": "function"
    },
    {
      "inputs": [
        {
          "internalType": "address",
          "name": "",
          "type": "address"
        },
        {
          "internalType": "address",
          "name": "",
          "type": "address"
        },
        {
          "internalType": "uint256",
          "name": "",
          "type": "uint256"
        },
        {
          "internalType": "uint256",
          "name": "",
          "type": "uint256"
        },
        {
          "internalType": "bytes",
          "name": "",
          "type": "bytes"
        }
      ],
      "name": "onERC1155Received",
      "outputs": [
        {
          "internalType": "bytes4",
          "name": "",
          "type": "bytes4"
        }
      ],
      "stateMutability": "pure",
      "type": "function"
    },
    {
      "inputs": [
        {
          "internalType": "address",
          "name": "",
          "type": "address"
        },
        {
          "internalType": "address",
          "name": "",
          "type": "address"
        },
        {
          "internalType": "uint256",
          "name": "",
          "type": "uint256"
        },
        {
          "internalType": "bytes",
          "name": "",
          "type": "bytes"
        }
      ],
      "name": "onERC721Received",
      "outputs": [
        {
          "internalType": "bytes4",
          "name": "",
          "type": "bytes4"
        }
      ],
      "stateMutability": "pure",
      "type": "function"
    },
    {
      "inputs": [
        {
          "internalType": "bytes4",
          "name": "selector",
          "type": "bytes4"
        }
      ],
      "name": "readHook",
      "outputs": [
        {
          "internalType": "address",
          "name": "",
          "type": "address"
        }
      ],
      "stateMutability": "view",
      "type": "function"
    },
    {
      "inputs": [
        {
          "internalType": "uint256",
          "name": "_space",
          "type": "uint256"
        }
      ],
      "name": "readNonce",
      "outputs": [
        {
          "internalType": "uint256",
          "name": "",
          "type": "uint256"
        }
      ],
      "stateMutability": "view",
      "type": "function"
    },
    {
      "inputs": [
        {
          "components": [
            {
              "internalType": "uint8",
              "name": "kind",
              "type": "uint8"
            },
            {
              "internalType": "bool",
              "name": "noChainId",
              "type": "bool"
            },
            {
              "components": [
                {
                  "internalType": "address",
                  "name": "to",
                  "type": "address"
                },
                {
                  "internalType": "uint256",
                  "name": "value",
                  "type": "uint256"
                },
                {
                  "internalType": "bytes",
                  "name": "data",
                  "type": "bytes"
                },
                {
                  "internalType": "uint256",
                  "name": "gasLimit",
                  "type": "uint256"
                },
                {
                  "internalType": "bool",
                  "name": "delegateCall",
                  "type": "bool"
                },
                {
                  "internalType": "bool",
                  "name": "onlyFallback",
                  "type": "bool"
                },
                {
                  "internalType": "uint256",
                  "name": "behaviorOnError",
                  "type": "uint256"
                }
              ],
              "internalType": "struct Payload.Call[]",
              "name": "calls",
              "type": "tuple[]"
            },
            {
              "internalType": "uint256",
              "name": "space",
              "type": "uint256"
            },
            {
              "internalType": "uint256",
              "name": "nonce",
              "type": "uint256"
            },
            {
              "internalType": "bytes",
              "name": "message",
              "type": "bytes"
            },
            {
              "internalType": "bytes32",
              "name": "imageHash",
              "type": "bytes32"
            },
            {
              "internalType": "bytes32",
              "name": "digest",
              "type": "bytes32"
            },
            {
              "internalType": "address[]",
              "name": "parentWallets",
              "type": "address[]"
            }
          ],
          "internalType": "struct Payload.Decoded",
          "name": "_payload",
          "type": "tuple"
        },
        {
          "internalType": "bytes",
          "name": "_signature",
          "type": "bytes"
        }
      ],
      "name": "recoverPartialSignature",
      "outputs": [
        {
          "internalType": "uint256",
          "name": "threshold",
          "type": "uint256"
        },
        {
          "internalType": "uint256",
          "name": "weight",
          "type": "uint256"
        },
        {
          "internalType": "bool",
          "name": "isValidImage",
          "type": "bool"
        },
        {
          "internalType": "bytes32",
          "name": "imageHash",
          "type": "bytes32"
        },
        {
          "internalType": "uint256",
          "name": "checkpoint",
          "type": "uint256"
        },
        {
          "internalType": "bytes32",
          "name": "opHash",
          "type": "bytes32"
        }
      ],
      "stateMutability": "view",
      "type": "function"
    },
    {
      "inputs": [
        {
          "components": [
            {
              "internalType": "uint8",
              "name": "kind",
              "type": "uint8"
            },
            {
              "internalType": "bool",
              "name": "noChainId",
              "type": "bool"
            },
            {
              "components": [
                {
                  "internalType": "address",
                  "name": "to",
                  "type": "address"
                },
                {
                  "internalType": "uint256",
                  "name": "value",
                  "type": "uint256"
                },
                {
                  "internalType": "bytes",
                  "name": "data",
                  "type": "bytes"
                },
                {
                  "internalType": "uint256",
                  "name": "gasLimit",
                  "type": "uint256"
                },
                {
                  "internalType": "bool",
                  "name": "delegateCall",
                  "type": "bool"
                },
                {
                  "internalType": "bool",
                  "name": "onlyFallback",
                  "type": "bool"
                },
                {
                  "internalType": "uint256",
                  "name": "behaviorOnError",
                  "type": "uint256"
                }
              ],
              "internalType": "struct Payload.Call[]",
              "name": "calls",
              "type": "tuple[]"
            },
            {
              "internalType": "uint256",
              "name": "space",
              "type": "uint256"
            },
            {
              "internalType": "uint256",
              "name": "nonce",
              "type": "uint256"
            },
            {
              "internalType": "bytes",
              "name": "message",
              "type": "bytes"
            },
            {
              "internalType": "bytes32",
              "name": "imageHash",
              "type": "bytes32"
            },
            {
              "internalType": "bytes32",
              "name": "digest",
              "type": "bytes32"
            },
            {
              "internalType": "address[]",
              "name": "parentWallets",
              "type": "address[]"
            }
          ],
          "internalType": "struct Payload.Decoded",
          "name": "_payload",
          "type": "tuple"
        },
        {
          "internalType": "bytes",
          "name": "_signature",
          "type": "bytes"
        }
      ],
      "name": "recoverSapientSignature",
      "outputs": [
        {
          "internalType": "bytes32",
          "name": "",
          "type": "bytes32"
        }
      ],
      "stateMutability": "view",
      "type": "function"
    },
    {
      "inputs": [
        {
          "internalType": "bytes4",
          "name": "selector",
          "type": "bytes4"
        }
      ],
      "name": "removeHook",
      "outputs": [],
      "stateMutability": "payable",
      "type": "function"
    },
    {
      "inputs": [
        {
          "internalType": "bytes",
          "name": "_payload",
          "type": "bytes"
        }
      ],
      "name": "selfExecute",
      "outputs": [],
      "stateMutability": "payable",
      "type": "function"
    },
    {
      "inputs": [
        {
          "internalType": "bytes32",
          "name": "_hash",
          "type": "bytes32"
        },
        {
          "internalType": "address",
          "name": "_address",
          "type": "address"
        },
        {
          "internalType": "uint96",
          "name": "_timestamp",
          "type": "uint96"
        }
      ],
      "name": "setStaticSignature",
      "outputs": [],
      "stateMutability": "nonpayable",
      "type": "function"
    },
    {
      "inputs": [
        {
          "internalType": "address",
          "name": "",
          "type": "address"
        },
        {
          "internalType": "uint256",
          "name": "",
          "type": "uint256"
        },
        {
          "internalType": "bytes",
          "name": "",
          "type": "bytes"
        }
      ],
      "name": "tokenReceived",
      "outputs": [
        {
          "internalType": "bytes4",
          "name": "",
          "type": "bytes4"
        }
      ],
      "stateMutability": "pure",
      "type": "function"
    },
    {
      "inputs": [
        {
          "internalType": "address",
          "name": "operator",
          "type": "address"
        },
        {
          "internalType": "address",
          "name": "from",
          "type": "address"
        },
        {
          "internalType": "address",
          "name": "to",
          "type": "address"
        },
        {
          "internalType": "uint256",
          "name": "amount",
          "type": "uint256"
        },
        {
          "internalType": "bytes",
          "name": "data",
          "type": "bytes"
        },
        {
          "internalType": "bytes",
          "name": "operatorData",
          "type": "bytes"
        }
      ],
      "name": "tokensReceived",
      "outputs": [],
      "stateMutability": "nonpayable",
      "type": "function"
    },
    {
      "inputs": [
        {
          "internalType": "bytes32",
          "name": "_imageHash",
          "type": "bytes32"
        }
      ],
      "name": "updateImageHash",
      "outputs": [],
      "stateMutability": "nonpayable",
      "type": "function"
    },
    {
      "inputs": [
        {
          "internalType": "address",
          "name": "_implementation",
          "type": "address"
        }
      ],
      "name": "updateImplementation",
      "outputs": [],
      "stateMutability": "payable",
      "type": "function"
    },
    {
      "stateMutability": "payable",
      "type": "receive"
    }
  ],
  "bytecode": "0x610100604052348015610010575f5ffd5b5060405161bd8b38038061bd8b833981810160405281019061003291906101d9565b8082826040516100419061016e565b61004b9190610226565b604051809103905ff080158015610064573d5f5f3e3d5ffd5b505f6040518060600160405280602f815260200161bd5c602f91393073ffffffffffffffffffffffffffffffffffffffff166040516020016100a79291906102ba565b60405160208183030381529060405280519060200120905080608081815250508273ffffffffffffffffffffffffffffffffffffffff1660a08173ffffffffffffffffffffffffffffffffffffffff16815250508173ffffffffffffffffffffffffffffffffffffffff1660c08173ffffffffffffffffffffffffffffffffffffffff16815250505050508073ffffffffffffffffffffffffffffffffffffffff1660e08173ffffffffffffffffffffffffffffffffffffffff16815250505050506102e1565b615cbe8061609e83390190565b5f5ffd5b5f73ffffffffffffffffffffffffffffffffffffffff82169050919050565b5f6101a88261017f565b9050919050565b6101b88161019e565b81146101c2575f5ffd5b50565b5f815190506101d3816101af565b92915050565b5f5f604083850312156101ef576101ee61017b565b5b5f6101fc858286016101c5565b925050602061020d858286016101c5565b9150509250929050565b6102208161019e565b82525050565b5f6020820190506102395f830184610217565b92915050565b5f81519050919050565b5f81905092915050565b8281835e5f83830152505050565b5f61026b8261023f565b6102758185610249565b9350610285818560208601610253565b80840191505092915050565b5f819050919050565b5f819050919050565b6102b46102af82610291565b61029a565b82525050565b5f6102c58285610261565b91506102d182846102a3565b6020820191508190509392505050565b60805160a05160c05160e051615d5261034c5f395f81816109db01528181610a4901528181610ae001528181610fc10152818161102f015261114f01525f818161112b0152611f5501525f8181610d93015261367101525f8181610cf301526136930152615d525ff3fe608060405260043610610168575f3560e01c80636ea44577116100d0578063a65d69d411610089578063b93ea7ad11610063578063b93ea7ad14610625578063bc197c8114610641578063f23a6e611461067d578063f727ef1c146106b95761016f565b8063a65d69d414610590578063aaf10f42146105ba578063ad55366b146105e45761016f565b80636ea445771461046d5780638943ec02146104895780638c3f5563146104c557806392dcb3fc146105015780639c145aed1461053e5780639f69ef54146105665761016f565b80631a9b2337116101225780631a9b23371461037d5780631f6a1eb9146103b9578063257671f5146103d557806329561426146103ff5780632dd31000146104275780634fcf3eca146104515761016f565b806223de2914610249578063025b22bc1461027157806313792a4a1461028d578063150b7a02146102c95780631626ba7e1461030557806319822f7c146103415761016f565b3661016f57005b60045f36905010610247575f6101905f369061018b9190613b0f565b6106e1565b90505f73ffffffffffffffffffffffffffffffffffffffff168173ffffffffffffffffffffffffffffffffffffffff1614610245575f5f8273ffffffffffffffffffffffffffffffffffffffff165f366040516101ee929190613ba9565b5f60405180830381855af49150503d805f8114610226576040519150601f19603f3d011682016040523d82523d5f602084013e61022b565b606091505b50915091508161023d57805160208201fd5b805160208201f35b505b005b348015610254575f5ffd5b5061026f600480360381019061026a9190613cc0565b610736565b005b61028b60048036038101906102869190613d8a565b610740565b005b348015610298575f5ffd5b506102b360048036038101906102ae9190614321565b6107bc565b6040516102c091906143a9565b60405180910390f35b3480156102d4575f5ffd5b506102ef60048036038101906102ea91906143c2565b61096b565b6040516102fc9190614455565b60405180910390f35b348015610310575f5ffd5b5061032b6004803603810190610326919061446e565b61097f565b6040516103389190614455565b60405180910390f35b34801561034c575f5ffd5b50610367600480360381019061036291906144ee565b6109c1565b6040516103749190614569565b60405180910390f35b348015610388575f5ffd5b506103a3600480360381019061039e91906145ac565b610c51565b6040516103b091906145e6565b60405180910390f35b6103d360048036038101906103ce91906145ff565b610c62565b005b3480156103e0575f5ffd5b506103e9610cf1565b6040516103f691906143a9565b60405180910390f35b34801561040a575f5ffd5b506104256004803603810190610420919061467d565b610d15565b005b348015610432575f5ffd5b5061043b610d91565b60405161044891906145e6565b60405180910390f35b61046b600480360381019061046691906145ac565b610db5565b005b610487600480360381019061048291906146a8565b610eaa565b005b348015610494575f5ffd5b506104af60048036038101906104aa91906146f3565b610f49565b6040516104bc9190614455565b60405180910390f35b3480156104d0575f5ffd5b506104eb60048036038101906104e69190614764565b610f5c565b6040516104f89190614569565b60405180910390f35b34801561050c575f5ffd5b506105276004803603810190610522919061467d565b610f94565b60405161053592919061478f565b60405180910390f35b348015610549575f5ffd5b50610564600480360381019061055f91906146a8565b610fa8565b005b348015610571575f5ffd5b5061057a611129565b60405161058791906145e6565b60405180910390f35b34801561059b575f5ffd5b506105a461114d565b6040516105b191906145e6565b60405180910390f35b3480156105c5575f5ffd5b506105ce611171565b6040516105db91906145e6565b60405180910390f35b3480156105ef575f5ffd5b5061060a60048036038101906106059190614321565b61117f565b60405161061c969594939291906147c5565b60405180910390f35b61063f600480360381019061063a9190614824565b6111bd565b005b34801561064c575f5ffd5b50610667600480360381019061066291906148b7565b6112b3565b6040516106749190614455565b60405180910390f35b348015610688575f5ffd5b506106a3600480360381019061069e919061498e565b6112ca565b6040516106b09190614455565b60405180910390f35b3480156106c4575f5ffd5b506106df60048036038101906106da9190614a65565b6112df565b005b5f61072d7fbe27a319efc8734e89e26ba4bc95f5c788584163b959f03fa04e2d7ab4b9a1205f1b837bffffffffffffffffffffffffffffffffffffffffffffffffffffffff19166113a8565b5f1c9050919050565b5050505050505050565b3073ffffffffffffffffffffffffffffffffffffffff163373ffffffffffffffffffffffffffffffffffffffff16146107b057336040517fa19dbf000000000000000000000000000000000000000000000000000000000081526004016107a791906145e6565b60405180910390fd5b6107b9816113e0565b50565b5f5f6001856101000151516107d19190614ae2565b67ffffffffffffffff8111156107ea576107e9613dc9565b5b6040519080825280602002602001820160405280156108185781602001602082028036833780820191505090505b5090505f5f90505b856101000151518110156108a857856101000151818151811061084657610845614b15565b5b602002602001015182828151811061086157610860614b15565b5b602002602001019073ffffffffffffffffffffffffffffffffffffffff16908173ffffffffffffffffffffffffffffffffffffffff16815250508080600101915050610820565b50338186610100015151815181106108c3576108c2614b15565b5b602002602001019073ffffffffffffffffffffffffffffffffffffffff16908173ffffffffffffffffffffffffffffffffffffffff1681525050808561010001819052505f610913868686611423565b5090508061095c578585856040517ff58cc8b500000000000000000000000000000000000000000000000000000000815260040161095393929190614ef5565b60405180910390fd5b60015f1b925050509392505050565b5f63150b7a0260e01b905095945050505050565b5f5f61098a85611613565b90505f610998828686611423565b509050806109ad575f60e01b925050506109ba565b631626ba7e60e01b925050505b9392505050565b5f5f73ffffffffffffffffffffffffffffffffffffffff167f000000000000000000000000000000000000000000000000000000000000000073ffffffffffffffffffffffffffffffffffffffff1603610a47576040517fd13d783500000000000000000000000000000000000000000000000000000000815260040160405180910390fd5b7f000000000000000000000000000000000000000000000000000000000000000073ffffffffffffffffffffffffffffffffffffffff163373ffffffffffffffffffffffffffffffffffffffff1614610ad757336040517f400b7ae7000000000000000000000000000000000000000000000000000000008152600401610ace91906145e6565b60405180910390fd5b5f8214610b67577f000000000000000000000000000000000000000000000000000000000000000073ffffffffffffffffffffffffffffffffffffffff1663b760faf983306040518363ffffffff1660e01b8152600401610b3891906145e6565b5f604051808303818588803b158015610b4f575f5ffd5b505af1158015610b61573d5f5f3e3d5ffd5b50505050505b631626ba7e60e01b7bffffffffffffffffffffffffffffffffffffffffffffffffffffffff19163073ffffffffffffffffffffffffffffffffffffffff16631626ba7e8587806101000190610bbc9190614f38565b6040518463ffffffff1660e01b8152600401610bda93929190614f9a565b602060405180830381865afa158015610bf5573d5f5f3e3d5ffd5b505050506040513d601f19601f82011682018060405250810190610c199190614fde565b7bffffffffffffffffffffffffffffffffffffffffffffffffffffffff191614610c465760019050610c4a565b5f90505b9392505050565b5f610c5b826106e1565b9050919050565b5f5a90505f610c71868661163c565b9050610c8581606001518260800151611ade565b5f5f610c92838787611423565b9150915081610cdc578286866040517fa2b6d61b000000000000000000000000000000000000000000000000000000008152600401610cd393929190614ef5565b60405180910390fd5b610ce7848285611b82565b5050505050505050565b7f000000000000000000000000000000000000000000000000000000000000000081565b3073ffffffffffffffffffffffffffffffffffffffff163373ffffffffffffffffffffffffffffffffffffffff1614610d8557336040517fa19dbf00000000000000000000000000000000000000000000000000000000008152600401610d7c91906145e6565b60405180910390fd5b610d8e81611eb2565b50565b7f000000000000000000000000000000000000000000000000000000000000000081565b3073ffffffffffffffffffffffffffffffffffffffff163373ffffffffffffffffffffffffffffffffffffffff1614610e2557336040517fa19dbf00000000000000000000000000000000000000000000000000000000008152600401610e1c91906145e6565b60405180910390fd5b5f73ffffffffffffffffffffffffffffffffffffffff16610e45826106e1565b73ffffffffffffffffffffffffffffffffffffffff1603610e9d57806040517f1c3812cc000000000000000000000000000000000000000000000000000000008152600401610e949190614455565b60405180910390fd5b610ea7815f611f7c565b50565b3073ffffffffffffffffffffffffffffffffffffffff163373ffffffffffffffffffffffffffffffffffffffff1614610f1a57336040517fa19dbf00000000000000000000000000000000000000000000000000000000008152600401610f1191906145e6565b60405180910390fd5b5f5a90505f610f29848461163c565b90505f610f358261201d565b9050610f42838284611b82565b5050505050565b5f638943ec0260e01b9050949350505050565b5f610f8b7f8d0bf1fd623d628c741362c1289948e57b3e2905218c676d3e69abee36d6ae2e5f1b835f1b6113a8565b5f1c9050919050565b5f5f610f9f8361206d565b91509150915091565b5f73ffffffffffffffffffffffffffffffffffffffff167f000000000000000000000000000000000000000000000000000000000000000073ffffffffffffffffffffffffffffffffffffffff160361102d576040517fd13d783500000000000000000000000000000000000000000000000000000000815260040160405180910390fd5b7f000000000000000000000000000000000000000000000000000000000000000073ffffffffffffffffffffffffffffffffffffffff163373ffffffffffffffffffffffffffffffffffffffff16146110bd57336040517f400b7ae70000000000000000000000000000000000000000000000000000000081526004016110b491906145e6565b60405180910390fd5b3073ffffffffffffffffffffffffffffffffffffffff16636ea4457783836040518363ffffffff1660e01b81526004016110f8929190615009565b5f604051808303815f87803b15801561110f575f5ffd5b505af1158015611121573d5f5f3e3d5ffd5b505050505050565b7f000000000000000000000000000000000000000000000000000000000000000081565b7f000000000000000000000000000000000000000000000000000000000000000081565b5f61117a6120be565b905090565b5f5f5f5f5f5f6111928989895f5f6120c6565b809550819650829750839950849a5050505050506111af83612403565b935093975093979195509350565b3073ffffffffffffffffffffffffffffffffffffffff163373ffffffffffffffffffffffffffffffffffffffff161461122d57336040517fa19dbf0000000000000000000000000000000000000000000000000000000000815260040161122491906145e6565b60405180910390fd5b5f73ffffffffffffffffffffffffffffffffffffffff1661124d836106e1565b73ffffffffffffffffffffffffffffffffffffffff16146112a557816040517f5b4d6d6a00000000000000000000000000000000000000000000000000000000815260040161129c9190614455565b60405180910390fd5b6112af8282611f7c565b5050565b5f63bc197c8160e01b905098975050505050505050565b5f63f23a6e6160e01b90509695505050505050565b3073ffffffffffffffffffffffffffffffffffffffff163373ffffffffffffffffffffffffffffffffffffffff161461134f57336040517fa19dbf0000000000000000000000000000000000000000000000000000000000815260040161134691906145e6565b60405180910390fd5b6113688383836bffffffffffffffffffffffff16612414565b7febf265acfac1c01de588ed7ef49743b9c3ce8d6d1edeaf510a1f5453228515b183838360405161139b9392919061503a565b60405180910390a1505050565b5f5f83836040516020016113bd92919061506f565b604051602081830303815290604052805190602001209050805491505092915050565b6113e981612472565b7f310ba5f1d2ed074b51e2eccd052a47ae9ab7c6b800d1fca3db3999d6a592ca038160405161141891906145e6565b60405180910390a150565b5f5f5f84845f81811061143957611438614b15565b5b9050013560f81c60f81b9050608060f81b608060f81b82167effffffffffffffffffffffffffffffffffffffffffffffffffffffffffffff191603611592576114818661201d565b91505f5f61148e8461206d565b915091504281116114d85783816040517ff95b6ab70000000000000000000000000000000000000000000000000000000081526004016114cf929190615096565b60405180910390fd5b5f73ffffffffffffffffffffffffffffffffffffffff168273ffffffffffffffffffffffffffffffffffffffff161415801561154057503373ffffffffffffffffffffffffffffffffffffffff168273ffffffffffffffffffffffffffffffffffffffff1614155b15611586578333836040517f8945c31300000000000000000000000000000000000000000000000000000000815260040161157d939291906150bd565b60405180910390fd5b6001945050505061160b565b5f5f5f6115a28989895f5f6120c6565b905080985081945082955083965050505050828210156115fb5782826040517ffd41fcba0000000000000000000000000000000000000000000000000000000081526004016115f29291906150f2565b60405180910390fd5b61160481612403565b9550505050505b935093915050565b61161b613a1a565b6003815f019060ff16908160ff1681525050818160e0018181525050919050565b611644613a1a565b5f815f019060ff16908160ff16815250505f5f6116618585612478565b915060ff169150600180831603611681575f8360600181815250506116bd565b61169681868661248e9290919263ffffffff16565b8173ffffffffffffffffffffffffffffffffffffffff169150846060018193508281525050505b5f6007600184901c1690505f8111156116fa576116ec828288886124a99190939291909392919063ffffffff16565b856080018194508281525050505b5f60108085160361170e5760019050611766565b6020808516036117415761172d8388886124d69290919263ffffffff16565b8161ffff1691508094508192505050611765565b6117568388886124f19290919263ffffffff16565b8160ff16915080945081925050505b5b8067ffffffffffffffff8111156117805761177f613dc9565b5b6040519080825280602002602001820160405280156117b957816020015b6117a6613a65565b81526020019060019003908161179e5790505b5085604001819052505f5f90505b81811015611ad3575f6117e5858a8a6124f19290919263ffffffff16565b8096508192505050600180821660ff160361185457308760400151838151811061181257611811614b15565b5b60200260200101515f019073ffffffffffffffffffffffffffffffffffffffff16908173ffffffffffffffffffffffffffffffffffffffff16815250506118c0565b611869858a8a61250c9290919263ffffffff16565b886040015184815181106118805761187f614b15565b5b60200260200101515f018197508273ffffffffffffffffffffffffffffffffffffffff1673ffffffffffffffffffffffffffffffffffffffff1681525050505b600280821660ff160361190e576118e2858a8a61253d9290919263ffffffff16565b886040015184815181106118f9576118f8614b15565b5b60200260200101516020018197508281525050505b600480821660ff16036119d6575f611931868b8b6125539290919263ffffffff16565b8162ffffff16915080975081925050508989879083896119519190614ae2565b9261195e93929190615121565b8080601f0160208091040260200160405190810160405280939291908181526020018383808284375f81840152601f19601f82011690508083019250505050505050886040015184815181106119b7576119b6614b15565b5b60200260200101516040018190525080866119d29190614ae2565b9550505b600880821660ff1603611a24576119f8858a8a61253d9290919263ffffffff16565b88604001518481518110611a0f57611a0e614b15565b5b60200260200101516060018197508281525050505b601080821660ff161487604001518381518110611a4457611a43614b15565b5b60200260200101516080019015159081151581525050602080821660ff161487604001518381518110611a7a57611a79614b15565b5b602002602001015160a0019015159081151581525050600660c0821660ff16901c60ff1687604001518381518110611ab557611ab4614b15565b5b602002602001015160c00181815250505080806001019150506117c7565b505050505092915050565b5f611ae883610f5c565b9050818114611b32578282826040517f9b6514f4000000000000000000000000000000000000000000000000000000008152600401611b299392919061515b565b60405180910390fd5b5f600183019050611b43848261256e565b7f1f180c27086c7a39ea2a7b25239d1ab92348f07ca7bb59d1438fcf527568f8818482604051611b749291906150f2565b60405180910390a150505050565b5f5f90505f82604001515190505f5f90505b81811015611eaa575f84604001518281518110611bb457611bb3614b15565b5b602002602001015190508060a001518015611bcd575083155b15611c11577f9ae934bf8a986157c889a24c3b3fa85e74b7e4ee4b1f8fc6e7362cb4c1d19d8b8683604051611c03929190615096565b60405180910390a150611e9d565b5f93505f816060015190505f8114158015611c2b5750805a105b15611c715785835a6040517f21395274000000000000000000000000000000000000000000000000000000008152600401611c6893929190615190565b60405180910390fd5b5f826080015115611d2657611d1f835f01515f8414611c905783611c92565b5a5b634c4e814c60e01b8b8d898b8e606001518b60400151604051602401611cbd96959493929190615204565b604051602081830303815290604052907bffffffffffffffffffffffffffffffffffffffffffffffffffffffff19166020820180517bffffffffffffffffffffffffffffffffffffffffffffffffffffffff83818316178352505050506125a3565b9050611d4e565b611d4b835f015184602001515f8514611d3f5784611d41565b5a5b86604001516125b8565b90505b80611e60575f60ff168360c0015103611daf57600195507f115f347c00e69f252cd6b63c4f81022a9564c6befe8aa719cb74640a4a306f0d8885611d906125cf565b604051611d9f9392919061526a565b60405180910390a1505050611e9d565b600160ff168360c0015103611e06578684611dc86125cf565b6040517f7f6b0bb1000000000000000000000000000000000000000000000000000000008152600401611dfd939291906152a6565b60405180910390fd5b600260ff168360c0015103611e5f577fc2c704302430fe0dc8d95f272e2f4e54bbbc51a3327fd5d75ab41f9fc8fd129b8885611e406125cf565b604051611e4f9392919061526a565b60405180910390a1505050611eaa565b5b7f5a589b1d8062f33451d29cae3dabd9b2e36c62aee644178c600977ca8dda661a8885604051611e91929190615096565b60405180910390a15050505b8080600101915050611b94565b505050505050565b5f5f1b8103611eed576040517f4294d12700000000000000000000000000000000000000000000000000000000815260040160405180910390fd5b611f197fea7157fa25e3aa17d0ae2d5280fa4e24d421c61842aa85e45194e1145aa72bf85f1b826125ed565b7f307ed6bd941ee9fc80f369c94af5fa11e25bab5102a6140191756c5474a30bfa81604051611f4891906143a9565b60405180910390a1611f797f00000000000000000000000000000000000000000000000000000000000000006113e0565b50565b611fe07fbe27a319efc8734e89e26ba4bc95f5c788584163b959f03fa04e2d7ab4b9a1205f1b837bffffffffffffffffffffffffffffffffffffffffffffffffffffffff19168373ffffffffffffffffffffffffffffffffffffffff165f1b6125f4565b7f0d7fc113eaf016db4681a1ba86d083ce3e0961f321062a75ac2b0aeb33deeed182826040516120119291906152e9565b60405180910390a15050565b5f5f61202d836020015130612629565b90505f612039846126d3565b9050818160405160200161204e929190615384565b6040516020818303038152906040528051906020012092505050919050565b5f5f5f61209c7fc852adf5e97c2fc3b38f405671e91b7af1697ef0287577f227ef10494c2a8e865f1b856113a8565b5f1c9050606081901c816bffffffffffffffffffffffff169250925050915091565b5f3054905090565b5f5f5f5f5f5f5f6120d78b8b612478565b915060ff1691506120e6613ab6565b604080841614801561212357505f73ffffffffffffffffffffffffffffffffffffffff168973ffffffffffffffffffffffffffffffffffffffff16145b1561225f5761213d828d8d61250c9290919263ffffffff16565b809350819a5050508961225e575f612160838e8e6125539290919263ffffffff16565b8162ffffff16915080945081925050505f8d8d859084876121819190614ae2565b9261218e93929190615121565b8080601f0160208091040260200160405190810160405280939291908181526020018383808284375f81840152601f19601f8201169050808301925050505050505090508a73ffffffffffffffffffffffffffffffffffffffff1663ccce3bc830836040518363ffffffff1660e01b815260040161220d9291906153ba565b6040805180830381865afa158015612227573d5f5f3e3d5ffd5b505050506040513d601f19601f8201168201806040525081019061224b919061545d565b925081846122599190614ae2565b935050505b5b600180841603612298576122868d8a838f8f8790809261228193929190615121565b61290f565b975097509750975097505050506123f6565b6002808416148d60200190151590811515815250505f6002601c8516901c90506122d483828f8f6124a99190939291909392919063ffffffff16565b8094508197505050505f6001600560208616901c6122f29190614ae2565b905061231083828f8f6124a99190939291909392919063ffffffff16565b809450819a505050506123228d61201d565b93506123408d858e8e8690809261233b93929190615121565b612b71565b809750819850505061235486895f1b613643565b955061236286865f1b613643565b9550612386868a73ffffffffffffffffffffffffffffffffffffffff165f1b613643565b95505f5f1b815f0151141580156123a0575085815f015114155b80156123b0575080602001518511155b156123f257806040517fccbb534f0000000000000000000000000000000000000000000000000000000081526004016123e991906154b5565b60405180910390fd5b5050505b9550955095509550959050565b5f61240d82613657565b9050919050565b61246d7fc852adf5e97c2fc3b38f405671e91b7af1697ef0287577f227ef10494c2a8e865f1b846bffffffffffffffffffffffff841660608673ffffffffffffffffffffffffffffffffffffffff16901b175f1b6125f4565b505050565b80305550565b5f5f83358060f81c925060019150509250929050565b5f5f848301358060601c925060148401915050935093915050565b5f5f858401356008840261010003600180866008021b0382821c1693508486019250505094509492505050565b5f5f848301358060f01c925060028401915050935093915050565b5f5f848301358060f81c925060018401915050935093915050565b5f5f8483013573ffffffffffffffffffffffffffffffffffffffff8160601c16925060148401915050935093915050565b5f5f848301359150602083019050935093915050565b5f5f848301358060e81c925060038401915050935093915050565b61259f7f8d0bf1fd623d628c741362c1289948e57b3e2905218c676d3e69abee36d6ae2e5f1b835f1b835f1b6125f4565b5050565b5f5f5f8351602085018787f490509392505050565b5f5f5f835160208501878988f19050949350505050565b60603d604051915060208201818101604052818352815f823e505090565b8082555050565b5f838360405160200161260892919061506f565b60405160208183030381529060405280519060200120905081815550505050565b5f7f8b73c3c69bb8fe3d512ecc4cf759cc79239f7b179b0ffacaa9a75d522b39400f5f1b7f4aa45ca7ad825ceb1bf35643f0a58c295239df563b1b565c2485f96477c563185f1b7f2a80e1ef1d7842f27f2e6be0972bb708b9a135c38860dbe73c27c3486c34f4de5f1b8561269e57466126a0565b5f5b856040516020016126b59594939291906154ce565b60405160208183030381529060405280519060200120905092915050565b5f5f8261010001516040516020016126eb91906155ab565b6040516020818303038152906040528051906020012090505f60ff16835f015160ff1603612785575f61272184604001516136fa565b90507f11e1e4079a79a66e4ade50033cfe2678cdd5341d2dfe5ef9513edb1a0be147a25f1b8185606001518660800151856040516020016127669594939291906155c1565b604051602081830303815290604052805190602001209250505061290a565b600160ff16835f015160ff16036127f6577fe19a3b94fc3c7ece3f890d98a99bc422615537a08dea0603fa8425867d87d4665f1b8360a0015180519060200120826040516020016127d893929190615612565b6040516020818303038152906040528051906020012091505061290a565b600260ff16835f015160ff1603612860577f11fdeb7e8373a1aa96bfac8d0ea91526b2c5d15e5cee20e0543e780258f3e8e45f1b8360c001518260405160200161284293929190615612565b6040516020818303038152906040528051906020012091505061290a565b600360ff16835f015160ff16036128ca577fe19a3b94fc3c7ece3f890d98a99bc422615537a08dea0603fa8425867d87d4665f1b8360e00151826040516020016128ac93929190615612565b6040516020818303038152906040528051906020012091505061290a565b825f01516040517f048183200000000000000000000000000000000000000000000000000000000081526004016129019190615656565b60405180910390fd5b919050565b5f5f5f5f5f61291c613a1a565b6002815f019060ff16908160ff16815250505f5f7fffffffffffffffffffffffffffffffffffffffffffffffffffffffffffffffff90505b89899050821015612b06575f5f612976848d8d6125539290919263ffffffff16565b8162ffffff169150809550819250505083816129929190614ae2565b9150505f8b8b905082146129a6575f6129a8565b8d5b90507fffffffffffffffffffffffffffffffffffffffffffffffffffffffffffffffff8303612a08576129ef8f8d8d879086926129e793929190615121565b6001856120c6565b809a50819b50829c50839d50849e505050505050612a38565b612a26858d8d87908692612a1e93929190615121565b6001856120c6565b50809a50819b50829c50839d50505050505b89891015612a93578b8b85908492612a5293929190615121565b8b8b6040517fb006aba0000000000000000000000000000000000000000000000000000000008152600401612a8a949392919061566f565b60405180910390fd5b819350878d5f015103612aac575f5f1b8d5f0181815250505b828710612af25786836040517f37daf62b000000000000000000000000000000000000000000000000000000008152600401612ae99291906150f2565b60405180910390fd5b878560c00181815250508692505050612954565b5f5f1b8b5f015114158015612b1f57508a602001518511155b15612b61578a6040517fccbb534f000000000000000000000000000000000000000000000000000000008152600401612b5891906154b5565b60405180910390fd5b5050509550955095509550959050565b5f5f5f5b84849050811015613639575f612b968287876124f19290919263ffffffff16565b8160ff16915080935081925050505f600460f08316901c90505f8103612c9d575f600f831690505f8160ff1603612be557612bdc8489896124f19290919263ffffffff16565b80955081925050505b5f5f5f612bfd878c8c6137d59290919263ffffffff16565b809a50819450829550839650505050505f60018d8386866040515f8152602001604052604051612c3094939291906156ad565b6020604051602081039080840390855afa158015612c50573d5f5f3e3d5ffd5b5050506020604051035190508460ff168a0199505f612c72828760ff16613838565b90505f5f1b8a03612c835780612c8e565b612c8d8a82613643565b5b99505050505050505050612b75565b60018103612d28575f600f831690505f8160ff1603612cd457612ccb8489896124f19290919263ffffffff16565b80955081925050505b5f612cea858a8a61250c9290919263ffffffff16565b80965081925050505f612d00828460ff16613838565b90505f5f1b8703612d115780612d1c565b612d1b8782613643565b5b96505050505050612b75565b60028103612f27575f6003831690505f8160ff1603612d5f57612d568489896124f19290919263ffffffff16565b80955081925050505b5f612d75858a8a61250c9290919263ffffffff16565b80965081925050505f6002600c861660ff16901c60ff1690505f612dab87838d8d6124a99190939291909392919063ffffffff16565b80985081925050505f8188019050631626ba7e60e01b7bffffffffffffffffffffffffffffffffffffffffffffffffffffffff19168473ffffffffffffffffffffffffffffffffffffffff16631626ba7e8f8f8f8d908792612e0f93929190615121565b6040518463ffffffff1660e01b8152600401612e2d939291906156f0565b602060405180830381865afa158015612e48573d5f5f3e3d5ffd5b505050506040513d601f19601f82011682018060405250810190612e6c9190614fde565b7bffffffffffffffffffffffffffffffffffffffffffffffffffffffff191614612ee3578c848d8d8b908592612ea493929190615121565b6040517fb2fed7ae000000000000000000000000000000000000000000000000000000008152600401612eda9493929190615720565b60405180910390fd5b8097508460ff168a0199505f612efc858760ff16613838565b90505f5f1b8a03612f0d5780612f18565b612f178a82613643565b5b99505050505050505050612b75565b60038103612f71575f612f4584898961386a9290919263ffffffff16565b80955081925050505f5f1b8503612f5c5780612f67565b612f668582613643565b5b9450505050612b75565b60048103612ff0575f600f831660ff1690505f612fa085838b8b6124a99190939291909392919063ffffffff16565b80965081925050505f81860190505f5f612fcc8e8e8e8e8c908892612fc793929190615121565b612b71565b91509150829750818a019950612fe28982613643565b985050505050505050612b75565b60068103613100575f6002600c841660ff16901c60ff1690505f8103613034576130258489896124f19290919263ffffffff16565b8160ff16915080955081925050505b5f6003841660ff1690505f810361306a5761305a858a8a6124d69290919263ffffffff16565b8161ffff16915080965081925050505b5f613080868b8b6125539290919263ffffffff16565b8162ffffff16915080975081925050505f81870190505f5f6130b48f8f8f8f8d9088926130af93929190615121565b612b71565b915091508298508482106130c857858b019a505b5f6130d4828789613880565b90505f5f1b8b036130e557806130f0565b6130ef8b82613643565b5b9a50505050505050505050612b75565b60058103613182575f61311e84898961386a9290919263ffffffff16565b8095508192505050888103613151577fffffffffffffffffffffffffffffffffffffffffffffffffffffffffffffffff95505b5f61315b826138b5565b90505f5f1b860361316c5780613177565b6131768682613643565b5b955050505050612b75565b60078103613297575f600f831690505f8160ff16036131b9576131b08489896124f19290919263ffffffff16565b80955081925050505b5f5f5f6131d1878c8c6137d59290919263ffffffff16565b809a50819450829550839650505050505f60018d6040516020016131f591906157a8565b604051602081830303815290604052805190602001208386866040515f815260200160405260405161322a94939291906156ad565b6020604051602081039080840390855afa15801561324a573d5f5f3e3d5ffd5b5050506020604051035190508460ff168a0199505f61326c828760ff16613838565b90505f5f1b8a0361327d5780613288565b6132878a82613643565b5b99505050505050505050612b75565b60088103613330575f6132b584898961386a9290919263ffffffff16565b80955081925050505f6132d15f8c6138e490919063ffffffff16565b90508082036132fe577fffffffffffffffffffffffffffffffffffffffffffffffffffffffffffffffff96505b5f61330883613935565b90505f5f1b87036133195780613324565b6133238782613643565b5b96505050505050612b75565b60098103613496575f6003831690505f8160ff16036133675761335e8489896124f19290919263ffffffff16565b80955081925050505b5f61337d858a8a61250c9290919263ffffffff16565b80965081925050505f5f6002600c871660ff16901c60ff1690506133b387828d8d6124a99190939291909392919063ffffffff16565b8098508193505050505f81870190505f8373ffffffffffffffffffffffffffffffffffffffff166313792a4a8f8e8e8c9087926133f293929190615121565b6040518463ffffffff1660e01b8152600401613410939291906157cd565b602060405180830381865afa15801561342b573d5f5f3e3d5ffd5b505050506040513d601f19601f8201168201806040525081019061344f9190615804565b90508197508460ff168a0199505f61346b858760ff1684613964565b90505f5f1b8a0361347c5780613487565b6134868a82613643565b5b99505050505050505050612b75565b600a81036135fc575f6003831690505f8160ff16036134cd576134c48489896124f19290919263ffffffff16565b80955081925050505b5f6134e3858a8a61250c9290919263ffffffff16565b80965081925050505f6002600c861660ff16901c60ff1690505f61351987838d8d6124a99190939291909392919063ffffffff16565b80985081925050505f81880190505f8473ffffffffffffffffffffffffffffffffffffffff1663898bd9218f8f8f8d90879261355793929190615121565b6040518463ffffffff1660e01b8152600401613575939291906156f0565b602060405180830381865afa158015613590573d5f5f3e3d5ffd5b505050506040513d601f19601f820116820180604052508101906135b49190615804565b90508198508560ff168b019a505f6135d0868860ff1684613964565b90505f5f1b8b036135e157806135ec565b6135eb8b82613643565b5b9a50505050505050505050612b75565b806040517fb2505f7c0000000000000000000000000000000000000000000000000000000081526004016136309190614569565b60405180910390fd5b5094509492505050565b5f825f528160205260405f20905092915050565b5f3073ffffffffffffffffffffffffffffffffffffffff167f0000000000000000000000000000000000000000000000000000000000000000837f00000000000000000000000000000000000000000000000000000000000000006040516020016136c4939291906158be565b604051602081830303815290604052805190602001205f1c73ffffffffffffffffffffffffffffffffffffffff16149050919050565b5f5f825167ffffffffffffffff81111561371757613716613dc9565b5b6040519080825280602002602001820160405280156137455781602001602082028036833780820191505090505b5090505f5f90505b83518110156137a55761377984828151811061376c5761376b614b15565b5b6020026020010151613999565b82828151811061378c5761378b614b15565b5b602002602001018181525050808060010191505061374d565b50806040516020016137b791906159b6565b60405160208183030381529060405280519060200120915050919050565b5f5f5f5f5f8786013594506020880186013590506040860191505f60ff82901c90507f7fffffffffffffffffffffffffffffffffffffffffffffffffffffffffffffff82165f1b9450601b8161382b91906159cc565b9350505093509350935093565b5f828260405160200161384c929190615a6a565b60405160208183030381529060405280519060200120905092915050565b5f5f848301359150602083019050935093915050565b5f83838360405160200161389693929190615aea565b6040516020818303038152906040528051906020012090509392505050565b5f816040516020016138c79190615b7b565b604051602081830303815290604052805190602001209050919050565b5f5f6138f4846020015184612629565b90505f613900856126d3565b90508181604051602001613915929190615384565b604051602081830303815290604052805190602001209250505092915050565b5f816040516020016139479190615bea565b604051602081830303815290604052805190602001209050919050565b5f83838360405160200161397a93929190615c59565b6040516020818303038152906040528051906020012090509392505050565b5f7f0603985259a953da1f65a522f589c17bd1d0117ec1d3abb7c0788aef251ef4375f1b825f01518360200151846040015180519060200120856060015186608001518760a001518860c001516040516020016139fd989796959493929190615ca0565b604051602081830303815290604052805190602001209050919050565b6040518061012001604052805f60ff1681526020015f15158152602001606081526020015f81526020015f8152602001606081526020015f81526020015f8152602001606081525090565b6040518060e001604052805f73ffffffffffffffffffffffffffffffffffffffff1681526020015f8152602001606081526020015f81526020015f151581526020015f151581526020015f81525090565b60405180604001604052805f81526020015f81525090565b5f82905092915050565b5f7fffffffff0000000000000000000000000000000000000000000000000000000082169050919050565b5f82821b905092915050565b5f613b1a8383613ace565b82613b258135613ad8565b92506004821015613b6557613b607fffffffff0000000000000000000000000000000000000000000000000000000083600403600802613b03565b831692505b505092915050565b5f81905092915050565b828183375f83830152505050565b5f613b908385613b6d565b9350613b9d838584613b77565b82840190509392505050565b5f613bb5828486613b85565b91508190509392505050565b5f604051905090565b5f5ffd5b5f5ffd5b5f73ffffffffffffffffffffffffffffffffffffffff82169050919050565b5f613bfb82613bd2565b9050919050565b613c0b81613bf1565b8114613c15575f5ffd5b50565b5f81359050613c2681613c02565b92915050565b5f819050919050565b613c3e81613c2c565b8114613c48575f5ffd5b50565b5f81359050613c5981613c35565b92915050565b5f5ffd5b5f5ffd5b5f5ffd5b5f5f83601f840112613c8057613c7f613c5f565b5b8235905067ffffffffffffffff811115613c9d57613c9c613c63565b5b602083019150836001820283011115613cb957613cb8613c67565b5b9250929050565b5f5f5f5f5f5f5f5f60c0898b031215613cdc57613cdb613bca565b5b5f613ce98b828c01613c18565b9850506020613cfa8b828c01613c18565b9750506040613d0b8b828c01613c18565b9650506060613d1c8b828c01613c4b565b955050608089013567ffffffffffffffff811115613d3d57613d3c613bce565b5b613d498b828c01613c6b565b945094505060a089013567ffffffffffffffff811115613d6c57613d6b613bce565b5b613d788b828c01613c6b565b92509250509295985092959890939650565b5f60208284031215613d9f57613d9e613bca565b5b5f613dac84828501613c18565b91505092915050565b5f5ffd5b5f601f19601f8301169050919050565b7f4e487b71000000000000000000000000000000000000000000000000000000005f52604160045260245ffd5b613dff82613db9565b810181811067ffffffffffffffff82111715613e1e57613e1d613dc9565b5b80604052505050565b5f613e30613bc1565b9050613e3c8282613df6565b919050565b5f5ffd5b5f60ff82169050919050565b613e5a81613e45565b8114613e64575f5ffd5b50565b5f81359050613e7581613e51565b92915050565b5f8115159050919050565b613e8f81613e7b565b8114613e99575f5ffd5b50565b5f81359050613eaa81613e86565b92915050565b5f67ffffffffffffffff821115613eca57613ec9613dc9565b5b602082029050602081019050919050565b5f5ffd5b5f67ffffffffffffffff821115613ef957613ef8613dc9565b5b613f0282613db9565b9050602081019050919050565b5f613f21613f1c84613edf565b613e27565b905082815260208101848484011115613f3d57613f3c613edb565b5b613f48848285613b77565b509392505050565b5f82601f830112613f6457613f63613c5f565b5b8135613f74848260208601613f0f565b91505092915050565b5f60e08284031215613f9257613f91613db5565b5b613f9c60e0613e27565b90505f613fab84828501613c18565b5f830152506020613fbe84828501613c4b565b602083015250604082013567ffffffffffffffff811115613fe257613fe1613e41565b5b613fee84828501613f50565b604083015250606061400284828501613c4b565b606083015250608061401684828501613e9c565b60808301525060a061402a84828501613e9c565b60a08301525060c061403e84828501613c4b565b60c08301525092915050565b5f61405c61405784613eb0565b613e27565b9050808382526020820190506020840283018581111561407f5761407e613c67565b5b835b818110156140c657803567ffffffffffffffff8111156140a4576140a3613c5f565b5b8086016140b18982613f7d565b85526020850194505050602081019050614081565b5050509392505050565b5f82601f8301126140e4576140e3613c5f565b5b81356140f484826020860161404a565b91505092915050565b5f819050919050565b61410f816140fd565b8114614119575f5ffd5b50565b5f8135905061412a81614106565b92915050565b5f67ffffffffffffffff82111561414a57614149613dc9565b5b602082029050602081019050919050565b5f61416d61416884614130565b613e27565b905080838252602082019050602084028301858111156141905761418f613c67565b5b835b818110156141b957806141a58882613c18565b845260208401935050602081019050614192565b5050509392505050565b5f82601f8301126141d7576141d6613c5f565b5b81356141e784826020860161415b565b91505092915050565b5f610120828403121561420657614205613db5565b5b614211610120613e27565b90505f61422084828501613e67565b5f83015250602061423384828501613e9c565b602083015250604082013567ffffffffffffffff81111561425757614256613e41565b5b614263848285016140d0565b604083015250606061427784828501613c4b565b606083015250608061428b84828501613c4b565b60808301525060a082013567ffffffffffffffff8111156142af576142ae613e41565b5b6142bb84828501613f50565b60a08301525060c06142cf8482850161411c565b60c08301525060e06142e38482850161411c565b60e08301525061010082013567ffffffffffffffff81111561430857614307613e41565b5b614314848285016141c3565b6101008301525092915050565b5f5f5f6040848603121561433857614337613bca565b5b5f84013567ffffffffffffffff81111561435557614354613bce565b5b614361868287016141f0565b935050602084013567ffffffffffffffff81111561438257614381613bce565b5b61438e86828701613c6b565b92509250509250925092565b6143a3816140fd565b82525050565b5f6020820190506143bc5f83018461439a565b92915050565b5f5f5f5f5f608086880312156143db576143da613bca565b5b5f6143e888828901613c18565b95505060206143f988828901613c18565b945050604061440a88828901613c4b565b935050606086013567ffffffffffffffff81111561442b5761442a613bce565b5b61443788828901613c6b565b92509250509295509295909350565b61444f81613ad8565b82525050565b5f6020820190506144685f830184614446565b92915050565b5f5f5f6040848603121561448557614484613bca565b5b5f6144928682870161411c565b935050602084013567ffffffffffffffff8111156144b3576144b2613bce565b5b6144bf86828701613c6b565b92509250509250925092565b5f5ffd5b5f61012082840312156144e5576144e46144cb565b5b81905092915050565b5f5f5f6060848603121561450557614504613bca565b5b5f84013567ffffffffffffffff81111561452257614521613bce565b5b61452e868287016144cf565b935050602061453f8682870161411c565b925050604061455086828701613c4b565b9150509250925092565b61456381613c2c565b82525050565b5f60208201905061457c5f83018461455a565b92915050565b61458b81613ad8565b8114614595575f5ffd5b50565b5f813590506145a681614582565b92915050565b5f602082840312156145c1576145c0613bca565b5b5f6145ce84828501614598565b91505092915050565b6145e081613bf1565b82525050565b5f6020820190506145f95f8301846145d7565b92915050565b5f5f5f5f6040858703121561461757614616613bca565b5b5f85013567ffffffffffffffff81111561463457614633613bce565b5b61464087828801613c6b565b9450945050602085013567ffffffffffffffff81111561466357614662613bce565b5b61466f87828801613c6b565b925092505092959194509250565b5f6020828403121561469257614691613bca565b5b5f61469f8482850161411c565b91505092915050565b5f5f602083850312156146be576146bd613bca565b5b5f83013567ffffffffffffffff8111156146db576146da613bce565b5b6146e785828601613c6b565b92509250509250929050565b5f5f5f5f6060858703121561470b5761470a613bca565b5b5f61471887828801613c18565b945050602061472987828801613c4b565b935050604085013567ffffffffffffffff81111561474a57614749613bce565b5b61475687828801613c6b565b925092505092959194509250565b5f6020828403121561477957614778613bca565b5b5f61478684828501613c4b565b91505092915050565b5f6040820190506147a25f8301856145d7565b6147af602083018461455a565b9392505050565b6147bf81613e7b565b82525050565b5f60c0820190506147d85f83018961455a565b6147e5602083018861455a565b6147f260408301876147b6565b6147ff606083018661439a565b61480c608083018561455a565b61481960a083018461439a565b979650505050505050565b5f5f6040838503121561483a57614839613bca565b5b5f61484785828601614598565b925050602061485885828601613c18565b9150509250929050565b5f5f83601f84011261487757614876613c5f565b5b8235905067ffffffffffffffff81111561489457614893613c63565b5b6020830191508360208202830111156148b0576148af613c67565b5b9250929050565b5f5f5f5f5f5f5f5f60a0898b0312156148d3576148d2613bca565b5b5f6148e08b828c01613c18565b98505060206148f18b828c01613c18565b975050604089013567ffffffffffffffff81111561491257614911613bce565b5b61491e8b828c01614862565b9650965050606089013567ffffffffffffffff81111561494157614940613bce565b5b61494d8b828c01614862565b9450945050608089013567ffffffffffffffff8111156149705761496f613bce565b5b61497c8b828c01613c6b565b92509250509295985092959890939650565b5f5f5f5f5f5f60a087890312156149a8576149a7613bca565b5b5f6149b589828a01613c18565b96505060206149c689828a01613c18565b95505060406149d789828a01613c4b565b94505060606149e889828a01613c4b565b935050608087013567ffffffffffffffff811115614a0957614a08613bce565b5b614a1589828a01613c6b565b92509250509295509295509295565b5f6bffffffffffffffffffffffff82169050919050565b614a4481614a24565b8114614a4e575f5ffd5b50565b5f81359050614a5f81614a3b565b92915050565b5f5f5f60608486031215614a7c57614a7b613bca565b5b5f614a898682870161411c565b9350506020614a9a86828701613c18565b9250506040614aab86828701614a51565b9150509250925092565b7f4e487b71000000000000000000000000000000000000000000000000000000005f52601160045260245ffd5b5f614aec82613c2c565b9150614af783613c2c565b9250828201905080821115614b0f57614b0e614ab5565b5b92915050565b7f4e487b71000000000000000000000000000000000000000000000000000000005f52603260045260245ffd5b614b4b81613e45565b82525050565b614b5a81613e7b565b82525050565b5f81519050919050565b5f82825260208201905092915050565b5f819050602082019050919050565b614b9281613bf1565b82525050565b614ba181613c2c565b82525050565b5f81519050919050565b5f82825260208201905092915050565b8281835e5f83830152505050565b5f614bd982614ba7565b614be38185614bb1565b9350614bf3818560208601614bc1565b614bfc81613db9565b840191505092915050565b5f60e083015f830151614c1c5f860182614b89565b506020830151614c2f6020860182614b98565b5060408301518482036040860152614c478282614bcf565b9150506060830151614c5c6060860182614b98565b506080830151614c6f6080860182614b51565b5060a0830151614c8260a0860182614b51565b5060c0830151614c9560c0860182614b98565b508091505092915050565b5f614cab8383614c07565b905092915050565b5f602082019050919050565b5f614cc982614b60565b614cd38185614b6a565b935083602082028501614ce585614b7a565b805f5b85811015614d205784840389528151614d018582614ca0565b9450614d0c83614cb3565b925060208a01995050600181019050614ce8565b50829750879550505050505092915050565b614d3b816140fd565b82525050565b5f81519050919050565b5f82825260208201905092915050565b5f819050602082019050919050565b5f614d758383614b89565b60208301905092915050565b5f602082019050919050565b5f614d9782614d41565b614da18185614d4b565b9350614dac83614d5b565b805f5b83811015614ddc578151614dc38882614d6a565b9750614dce83614d81565b925050600181019050614daf565b5085935050505092915050565b5f61012083015f830151614dff5f860182614b42565b506020830151614e126020860182614b51565b5060408301518482036040860152614e2a8282614cbf565b9150506060830151614e3f6060860182614b98565b506080830151614e526080860182614b98565b5060a083015184820360a0860152614e6a8282614bcf565b91505060c0830151614e7f60c0860182614d32565b5060e0830151614e9260e0860182614d32565b50610100830151848203610100860152614eac8282614d8d565b9150508091505092915050565b5f82825260208201905092915050565b5f614ed48385614eb9565b9350614ee1838584613b77565b614eea83613db9565b840190509392505050565b5f6040820190508181035f830152614f0d8186614de9565b90508181036020830152614f22818486614ec9565b9050949350505050565b5f5ffd5b5f5ffd5b5f5ffd5b5f5f83356001602003843603038112614f5457614f53614f2c565b5b80840192508235915067ffffffffffffffff821115614f7657614f75614f30565b5b602083019250600182023603831315614f9257614f91614f34565b5b509250929050565b5f604082019050614fad5f83018661439a565b8181036020830152614fc0818486614ec9565b9050949350505050565b5f81519050614fd881614582565b92915050565b5f60208284031215614ff357614ff2613bca565b5b5f61500084828501614fca565b91505092915050565b5f6020820190508181035f830152615022818486614ec9565b90509392505050565b61503481614a24565b82525050565b5f60608201905061504d5f83018661439a565b61505a60208301856145d7565b615067604083018461502b565b949350505050565b5f6040820190506150825f83018561439a565b61508f602083018461439a565b9392505050565b5f6040820190506150a95f83018561439a565b6150b6602083018461455a565b9392505050565b5f6060820190506150d05f83018661439a565b6150dd60208301856145d7565b6150ea60408301846145d7565b949350505050565b5f6040820190506151055f83018561455a565b615112602083018461455a565b9392505050565b5f5ffd5b5f5ffd5b5f5f8585111561513457615133615119565b5b838611156151455761514461511d565b5b6001850283019150848603905094509492505050565b5f60608201905061516e5f83018661455a565b61517b602083018561455a565b615188604083018461455a565b949350505050565b5f6060820190508181035f8301526151a88186614de9565b90506151b7602083018561455a565b6151c4604083018461455a565b949350505050565b5f6151d682614ba7565b6151e08185614eb9565b93506151f0818560208601614bc1565b6151f981613db9565b840191505092915050565b5f60c0820190506152175f83018961439a565b615224602083018861455a565b615231604083018761455a565b61523e606083018661455a565b61524b608083018561455a565b81810360a083015261525d81846151cc565b9050979650505050505050565b5f60608201905061527d5f83018661439a565b61528a602083018561455a565b818103604083015261529c81846151cc565b9050949350505050565b5f6060820190508181035f8301526152be8186614de9565b90506152cd602083018561455a565b81810360408301526152df81846151cc565b9050949350505050565b5f6040820190506152fc5f830185614446565b61530960208301846145d7565b9392505050565b5f81905092915050565b7f19010000000000000000000000000000000000000000000000000000000000005f82015250565b5f61534e600283615310565b91506153598261531a565b600282019050919050565b5f819050919050565b61537e615379826140fd565b615364565b82525050565b5f61538e82615342565b915061539a828561536d565b6020820191506153aa828461536d565b6020820191508190509392505050565b5f6040820190506153cd5f8301856145d7565b81810360208301526153df81846151cc565b90509392505050565b5f815190506153f681614106565b92915050565b5f8151905061540a81613c35565b92915050565b5f6040828403121561542557615424613db5565b5b61542f6040613e27565b90505f61543e848285016153e8565b5f830152506020615451848285016153fc565b60208301525092915050565b5f6040828403121561547257615471613bca565b5b5f61547f84828501615410565b91505092915050565b604082015f82015161549c5f850182614d32565b5060208201516154af6020850182614b98565b50505050565b5f6040820190506154c85f830184615488565b92915050565b5f60a0820190506154e15f83018861439a565b6154ee602083018761439a565b6154fb604083018661439a565b615508606083018561455a565b61551560808301846145d7565b9695505050505050565b5f81905092915050565b61553281613bf1565b82525050565b5f6155438383615529565b60208301905092915050565b5f61555982614d41565b615563818561551f565b935061556e83614d5b565b805f5b8381101561559e5781516155858882615538565b975061559083614d81565b925050600181019050615571565b5085935050505092915050565b5f6155b6828461554f565b915081905092915050565b5f60a0820190506155d45f83018861439a565b6155e1602083018761439a565b6155ee604083018661455a565b6155fb606083018561455a565b615608608083018461439a565b9695505050505050565b5f6060820190506156255f83018661439a565b615632602083018561439a565b61563f604083018461439a565b949350505050565b61565081613e45565b82525050565b5f6020820190506156695f830184615647565b92915050565b5f6060820190508181035f830152615688818688614ec9565b9050615697602083018561455a565b6156a4604083018461455a565b95945050505050565b5f6080820190506156c05f83018761439a565b6156cd6020830186615647565b6156da604083018561439a565b6156e7606083018461439a565b95945050505050565b5f6040820190506157035f83018661439a565b8181036020830152615716818486614ec9565b9050949350505050565b5f6060820190506157335f83018761439a565b61574060208301866145d7565b8181036040830152615753818486614ec9565b905095945050505050565b7f19457468657265756d205369676e6564204d6573736167653a0a3332000000005f82015250565b5f615792601c83615310565b915061579d8261575e565b601c82019050919050565b5f6157b282615786565b91506157be828461536d565b60208201915081905092915050565b5f6040820190508181035f8301526157e58186614de9565b905081810360208301526157fa818486614ec9565b9050949350505050565b5f6020828403121561581957615818613bca565b5b5f615826848285016153e8565b91505092915050565b7fff000000000000000000000000000000000000000000000000000000000000005f82015250565b5f615863600183615310565b915061586e8261582f565b600182019050919050565b5f8160601b9050919050565b5f61588f82615879565b9050919050565b5f6158a082615885565b9050919050565b6158b86158b382613bf1565b615896565b82525050565b5f6158c882615857565b91506158d482866158a7565b6014820191506158e4828561536d565b6020820191506158f4828461536d565b602082019150819050949350505050565b5f81519050919050565b5f81905092915050565b5f819050602082019050919050565b615931816140fd565b82525050565b5f6159428383615928565b60208301905092915050565b5f602082019050919050565b5f61596482615905565b61596e818561590f565b935061597983615919565b805f5b838110156159a95781516159908882615937565b975061599b8361594e565b92505060018101905061597c565b5085935050505092915050565b5f6159c1828461595a565b915081905092915050565b5f6159d682613e45565b91506159e183613e45565b9250828201905060ff8111156159fa576159f9614ab5565b5b92915050565b7f53657175656e6365207369676e65723a0a0000000000000000000000000000005f82015250565b5f615a34601183615310565b9150615a3f82615a00565b601182019050919050565b5f819050919050565b615a64615a5f82613c2c565b615a4a565b82525050565b5f615a7482615a28565b9150615a8082856158a7565b601482019150615a908284615a53565b6020820191508190509392505050565b7f53657175656e6365206e657374656420636f6e6669673a0a00000000000000005f82015250565b5f615ad4601883615310565b9150615adf82615aa0565b601882019050919050565b5f615af482615ac8565b9150615b00828661536d565b602082019150615b108285615a53565b602082019150615b208284615a53565b602082019150819050949350505050565b7f53657175656e636520737461746963206469676573743a0a00000000000000005f82015250565b5f615b65601883615310565b9150615b7082615b31565b601882019050919050565b5f615b8582615b59565b9150615b91828461536d565b60208201915081905092915050565b7f53657175656e636520616e792061646472657373207375626469676573743a0a5f82015250565b5f615bd4602083615310565b9150615bdf82615ba0565b602082019050919050565b5f615bf482615bc8565b9150615c00828461536d565b60208201915081905092915050565b7f53657175656e63652073617069656e7420636f6e6669673a0a000000000000005f82015250565b5f615c43601983615310565b9150615c4e82615c0f565b601982019050919050565b5f615c6382615c37565b9150615c6f82866158a7565b601482019150615c7f8285615a53565b602082019150615c8f828461536d565b602082019150819050949350505050565b5f61010082019050615cb45f83018b61439a565b615cc1602083018a6145d7565b615cce604083018961455a565b615cdb606083018861439a565b615ce8608083018761455a565b615cf560a08301866147b6565b615d0260c08301856147b6565b615d0f60e083018461455a565b999850505050505050505056fea26469706673582212208f4182b373cd58faf7d2eeeb43d676cc0f05299bddad61149b530bac99c8ac2864736f6c634300081c003360a060405234801561000f575f5ffd5b50604051615cbe380380615cbe833981810160405281019061003191906100cb565b808073ffffffffffffffffffffffffffffffffffffffff1660808173ffffffffffffffffffffffffffffffffffffffff168152505050506100f6565b5f5ffd5b5f73ffffffffffffffffffffffffffffffffffffffff82169050919050565b5f61009a82610071565b9050919050565b6100aa81610090565b81146100b4575f5ffd5b50565b5f815190506100c5816100a1565b92915050565b5f602082840312156100e0576100df61006d565b5b5f6100ed848285016100b7565b91505092915050565b608051615b8d6101315f395f8181610961015281816109cf01528181610a6601528181610f3001528181610f9e015261109a0152615b8d5ff3fe608060405260043610610142575f3560e01c80636ea44577116100b5578063aaf10f421161006e578063aaf10f4214610540578063ad55366b1461056a578063b93ea7ad146105ab578063bc197c81146105c7578063f23a6e6114610603578063f727ef1c1461063f57610149565b80636ea445771461041d5780638943ec02146104395780638c3f55631461047557806392dcb3fc146104b15780639c145aed146104ee578063a65d69d41461051657610149565b806319822f7c1161010757806319822f7c1461031b5780631a9b2337146103575780631f6a1eb91461039357806329561426146103af5780634fcf3eca146103d757806351605d80146103f357610149565b806223de2914610223578063025b22bc1461024b57806313792a4a14610267578063150b7a02146102a35780631626ba7e146102df57610149565b3661014957005b60045f36905010610221575f61016a5f369061016591906139db565b610667565b90505f73ffffffffffffffffffffffffffffffffffffffff168173ffffffffffffffffffffffffffffffffffffffff161461021f575f5f8273ffffffffffffffffffffffffffffffffffffffff165f366040516101c8929190613a75565b5f60405180830381855af49150503d805f8114610200576040519150601f19603f3d011682016040523d82523d5f602084013e610205565b606091505b50915091508161021757805160208201fd5b805160208201f35b505b005b34801561022e575f5ffd5b5061024960048036038101906102449190613b8c565b6106bc565b005b61026560048036038101906102609190613c56565b6106c6565b005b348015610272575f5ffd5b5061028d600480360381019061028891906141ed565b610742565b60405161029a9190614275565b60405180910390f35b3480156102ae575f5ffd5b506102c960048036038101906102c4919061428e565b6108f1565b6040516102d69190614321565b60405180910390f35b3480156102ea575f5ffd5b506103056004803603810190610300919061433a565b610905565b6040516103129190614321565b60405180910390f35b348015610326575f5ffd5b50610341600480360381019061033c91906143ba565b610947565b60405161034e9190614435565b60405180910390f35b348015610362575f5ffd5b5061037d60048036038101906103789190614478565b610bd7565b60405161038a91906144b2565b60405180910390f35b6103ad60048036038101906103a891906144cb565b610be8565b005b3480156103ba575f5ffd5b506103d560048036038101906103d09190614549565b610c77565b005b6103f160048036038101906103ec9190614478565b610cf3565b005b3480156103fe575f5ffd5b50610407610de8565b6040516104149190614275565b60405180910390f35b61043760048036038101906104329190614574565b610e19565b005b348015610444575f5ffd5b5061045f600480360381019061045a91906145bf565b610eb8565b60405161046c9190614321565b60405180910390f35b348015610480575f5ffd5b5061049b60048036038101906104969190614630565b610ecb565b6040516104a89190614435565b60405180910390f35b3480156104bc575f5ffd5b506104d760048036038101906104d29190614549565b610f03565b6040516104e592919061465b565b60405180910390f35b3480156104f9575f5ffd5b50610514600480360381019061050f9190614574565b610f17565b005b348015610521575f5ffd5b5061052a611098565b60405161053791906144b2565b60405180910390f35b34801561054b575f5ffd5b506105546110bc565b60405161056191906144b2565b60405180910390f35b348015610575575f5ffd5b50610590600480360381019061058b91906141ed565b6110ca565b6040516105a296959493929190614691565b60405180910390f35b6105c560048036038101906105c091906146f0565b611108565b005b3480156105d2575f5ffd5b506105ed60048036038101906105e89190614783565b6111fe565b6040516105fa9190614321565b60405180910390f35b34801561060e575f5ffd5b506106296004803603810190610624919061485a565b611215565b6040516106369190614321565b60405180910390f35b34801561064a575f5ffd5b5061066560048036038101906106609190614931565b61122a565b005b5f6106b37fbe27a319efc8734e89e26ba4bc95f5c788584163b959f03fa04e2d7ab4b9a1205f1b837bffffffffffffffffffffffffffffffffffffffffffffffffffffffff19166112f3565b5f1c9050919050565b5050505050505050565b3073ffffffffffffffffffffffffffffffffffffffff163373ffffffffffffffffffffffffffffffffffffffff161461073657336040517fa19dbf0000000000000000000000000000000000000000000000000000000000815260040161072d91906144b2565b60405180910390fd5b61073f8161132b565b50565b5f5f60018561010001515161075791906149ae565b67ffffffffffffffff8111156107705761076f613c95565b5b60405190808252806020026020018201604052801561079e5781602001602082028036833780820191505090505b5090505f5f90505b8561010001515181101561082e5785610100015181815181106107cc576107cb6149e1565b5b60200260200101518282815181106107e7576107e66149e1565b5b602002602001019073ffffffffffffffffffffffffffffffffffffffff16908173ffffffffffffffffffffffffffffffffffffffff168152505080806001019150506107a6565b5033818661010001515181518110610849576108486149e1565b5b602002602001019073ffffffffffffffffffffffffffffffffffffffff16908173ffffffffffffffffffffffffffffffffffffffff1681525050808561010001819052505f61089986868661136e565b509050806108e2578585856040517ff58cc8b50000000000000000000000000000000000000000000000000000000081526004016108d993929190614dc1565b60405180910390fd5b60015f1b925050509392505050565b5f63150b7a0260e01b905095945050505050565b5f5f6109108561155e565b90505f61091e82868661136e565b50905080610933575f60e01b92505050610940565b631626ba7e60e01b925050505b9392505050565b5f5f73ffffffffffffffffffffffffffffffffffffffff167f000000000000000000000000000000000000000000000000000000000000000073ffffffffffffffffffffffffffffffffffffffff16036109cd576040517fd13d783500000000000000000000000000000000000000000000000000000000815260040160405180910390fd5b7f000000000000000000000000000000000000000000000000000000000000000073ffffffffffffffffffffffffffffffffffffffff163373ffffffffffffffffffffffffffffffffffffffff1614610a5d57336040517f400b7ae7000000000000000000000000000000000000000000000000000000008152600401610a5491906144b2565b60405180910390fd5b5f8214610aed577f000000000000000000000000000000000000000000000000000000000000000073ffffffffffffffffffffffffffffffffffffffff1663b760faf983306040518363ffffffff1660e01b8152600401610abe91906144b2565b5f604051808303818588803b158015610ad5575f5ffd5b505af1158015610ae7573d5f5f3e3d5ffd5b50505050505b631626ba7e60e01b7bffffffffffffffffffffffffffffffffffffffffffffffffffffffff19163073ffffffffffffffffffffffffffffffffffffffff16631626ba7e8587806101000190610b429190614e04565b6040518463ffffffff1660e01b8152600401610b6093929190614e66565b602060405180830381865afa158015610b7b573d5f5f3e3d5ffd5b505050506040513d601f19601f82011682018060405250810190610b9f9190614eaa565b7bffffffffffffffffffffffffffffffffffffffffffffffffffffffff191614610bcc5760019050610bd0565b5f90505b9392505050565b5f610be182610667565b9050919050565b5f5a90505f610bf78686611587565b9050610c0b81606001518260800151611a29565b5f5f610c1883878761136e565b9150915081610c62578286866040517fa2b6d61b000000000000000000000000000000000000000000000000000000008152600401610c5993929190614dc1565b60405180910390fd5b610c6d848285611acd565b5050505050505050565b3073ffffffffffffffffffffffffffffffffffffffff163373ffffffffffffffffffffffffffffffffffffffff1614610ce757336040517fa19dbf00000000000000000000000000000000000000000000000000000000008152600401610cde91906144b2565b60405180910390fd5b610cf081611dfd565b50565b3073ffffffffffffffffffffffffffffffffffffffff163373ffffffffffffffffffffffffffffffffffffffff1614610d6357336040517fa19dbf00000000000000000000000000000000000000000000000000000000008152600401610d5a91906144b2565b60405180910390fd5b5f73ffffffffffffffffffffffffffffffffffffffff16610d8382610667565b73ffffffffffffffffffffffffffffffffffffffff1603610ddb57806040517f1c3812cc000000000000000000000000000000000000000000000000000000008152600401610dd29190614321565b60405180910390fd5b610de5815f611e9e565b50565b5f610e147fea7157fa25e3aa17d0ae2d5280fa4e24d421c61842aa85e45194e1145aa72bf85f1b611f3f565b905090565b3073ffffffffffffffffffffffffffffffffffffffff163373ffffffffffffffffffffffffffffffffffffffff1614610e8957336040517fa19dbf00000000000000000000000000000000000000000000000000000000008152600401610e8091906144b2565b60405180910390fd5b5f5a90505f610e988484611587565b90505f610ea482611f49565b9050610eb1838284611acd565b5050505050565b5f638943ec0260e01b9050949350505050565b5f610efa7f8d0bf1fd623d628c741362c1289948e57b3e2905218c676d3e69abee36d6ae2e5f1b835f1b6112f3565b5f1c9050919050565b5f5f610f0e83611f99565b91509150915091565b5f73ffffffffffffffffffffffffffffffffffffffff167f000000000000000000000000000000000000000000000000000000000000000073ffffffffffffffffffffffffffffffffffffffff1603610f9c576040517fd13d783500000000000000000000000000000000000000000000000000000000815260040160405180910390fd5b7f000000000000000000000000000000000000000000000000000000000000000073ffffffffffffffffffffffffffffffffffffffff163373ffffffffffffffffffffffffffffffffffffffff161461102c57336040517f400b7ae700000000000000000000000000000000000000000000000000000000815260040161102391906144b2565b60405180910390fd5b3073ffffffffffffffffffffffffffffffffffffffff16636ea4457783836040518363ffffffff1660e01b8152600401611067929190614ed5565b5f604051808303815f87803b15801561107e575f5ffd5b505af1158015611090573d5f5f3e3d5ffd5b505050505050565b7f000000000000000000000000000000000000000000000000000000000000000081565b5f6110c5611fea565b905090565b5f5f5f5f5f5f6110dd8989895f5f611ff2565b809550819650829750839950849a5050505050506110fa8361232f565b935093975093979195509350565b3073ffffffffffffffffffffffffffffffffffffffff163373ffffffffffffffffffffffffffffffffffffffff161461117857336040517fa19dbf0000000000000000000000000000000000000000000000000000000000815260040161116f91906144b2565b60405180910390fd5b5f73ffffffffffffffffffffffffffffffffffffffff1661119883610667565b73ffffffffffffffffffffffffffffffffffffffff16146111f057816040517f5b4d6d6a0000000000000000000000000000000000000000000000000000000081526004016111e79190614321565b60405180910390fd5b6111fa8282611e9e565b5050565b5f63bc197c8160e01b905098975050505050505050565b5f63f23a6e6160e01b90509695505050505050565b3073ffffffffffffffffffffffffffffffffffffffff163373ffffffffffffffffffffffffffffffffffffffff161461129a57336040517fa19dbf0000000000000000000000000000000000000000000000000000000000815260040161129191906144b2565b60405180910390fd5b6112b38383836bffffffffffffffffffffffff16612340565b7febf265acfac1c01de588ed7ef49743b9c3ce8d6d1edeaf510a1f5453228515b18383836040516112e693929190614f06565b60405180910390a1505050565b5f5f8383604051602001611308929190614f3b565b604051602081830303815290604052805190602001209050805491505092915050565b6113348161239e565b7f310ba5f1d2ed074b51e2eccd052a47ae9ab7c6b800d1fca3db3999d6a592ca038160405161136391906144b2565b60405180910390a150565b5f5f5f84845f818110611384576113836149e1565b5b9050013560f81c60f81b9050608060f81b608060f81b82167effffffffffffffffffffffffffffffffffffffffffffffffffffffffffffff1916036114dd576113cc86611f49565b91505f5f6113d984611f99565b915091504281116114235783816040517ff95b6ab700000000000000000000000000000000000000000000000000000000815260040161141a929190614f62565b60405180910390fd5b5f73ffffffffffffffffffffffffffffffffffffffff168273ffffffffffffffffffffffffffffffffffffffff161415801561148b57503373ffffffffffffffffffffffffffffffffffffffff168273ffffffffffffffffffffffffffffffffffffffff1614155b156114d1578333836040517f8945c3130000000000000000000000000000000000000000000000000000000081526004016114c893929190614f89565b60405180910390fd5b60019450505050611556565b5f5f5f6114ed8989895f5f611ff2565b905080985081945082955083965050505050828210156115465782826040517ffd41fcba00000000000000000000000000000000000000000000000000000000815260040161153d929190614fbe565b60405180910390fd5b61154f8161232f565b9550505050505b935093915050565b6115666138e6565b6003815f019060ff16908160ff1681525050818160e0018181525050919050565b61158f6138e6565b5f815f019060ff16908160ff16815250505f5f6115ac85856123a4565b915060ff1691506001808316036115cc575f836060018181525050611608565b6115e18186866123ba9290919263ffffffff16565b8173ffffffffffffffffffffffffffffffffffffffff169150846060018193508281525050505b5f6007600184901c1690505f81111561164557611637828288886123d59190939291909392919063ffffffff16565b856080018194508281525050505b5f60108085160361165957600190506116b1565b60208085160361168c576116788388886124029290919263ffffffff16565b8161ffff16915080945081925050506116b0565b6116a183888861241d9290919263ffffffff16565b8160ff16915080945081925050505b5b8067ffffffffffffffff8111156116cb576116ca613c95565b5b60405190808252806020026020018201604052801561170457816020015b6116f1613931565b8152602001906001900390816116e95790505b5085604001819052505f5f90505b81811015611a1e575f611730858a8a61241d9290919263ffffffff16565b8096508192505050600180821660ff160361179f57308760400151838151811061175d5761175c6149e1565b5b60200260200101515f019073ffffffffffffffffffffffffffffffffffffffff16908173ffffffffffffffffffffffffffffffffffffffff168152505061180b565b6117b4858a8a6124389290919263ffffffff16565b886040015184815181106117cb576117ca6149e1565b5b60200260200101515f018197508273ffffffffffffffffffffffffffffffffffffffff1673ffffffffffffffffffffffffffffffffffffffff1681525050505b600280821660ff16036118595761182d858a8a6124699290919263ffffffff16565b88604001518481518110611844576118436149e1565b5b60200260200101516020018197508281525050505b600480821660ff1603611921575f61187c868b8b61247f9290919263ffffffff16565b8162ffffff169150809750819250505089898790838961189c91906149ae565b926118a993929190614fed565b8080601f0160208091040260200160405190810160405280939291908181526020018383808284375f81840152601f19601f8201169050808301925050505050505088604001518481518110611902576119016149e1565b5b602002602001015160400181905250808661191d91906149ae565b9550505b600880821660ff160361196f57611943858a8a6124699290919263ffffffff16565b8860400151848151811061195a576119596149e1565b5b60200260200101516060018197508281525050505b601080821660ff16148760400151838151811061198f5761198e6149e1565b5b60200260200101516080019015159081151581525050602080821660ff1614876040015183815181106119c5576119c46149e1565b5b602002602001015160a0019015159081151581525050600660c0821660ff16901c60ff1687604001518381518110611a00576119ff6149e1565b5b602002602001015160c0018181525050508080600101915050611712565b505050505092915050565b5f611a3383610ecb565b9050818114611a7d578282826040517f9b6514f4000000000000000000000000000000000000000000000000000000008152600401611a7493929190615027565b60405180910390fd5b5f600183019050611a8e848261249a565b7f1f180c27086c7a39ea2a7b25239d1ab92348f07ca7bb59d1438fcf527568f8818482604051611abf929190614fbe565b60405180910390a150505050565b5f5f90505f82604001515190505f5f90505b81811015611df5575f84604001518281518110611aff57611afe6149e1565b5b602002602001015190508060a001518015611b18575083155b15611b5c577f9ae934bf8a986157c889a24c3b3fa85e74b7e4ee4b1f8fc6e7362cb4c1d19d8b8683604051611b4e929190614f62565b60405180910390a150611de8565b5f93505f816060015190505f8114158015611b765750805a105b15611bbc5785835a6040517f21395274000000000000000000000000000000000000000000000000000000008152600401611bb39392919061505c565b60405180910390fd5b5f826080015115611c7157611c6a835f01515f8414611bdb5783611bdd565b5a5b634c4e814c60e01b8b8d898b8e606001518b60400151604051602401611c08969594939291906150d0565b604051602081830303815290604052907bffffffffffffffffffffffffffffffffffffffffffffffffffffffff19166020820180517bffffffffffffffffffffffffffffffffffffffffffffffffffffffff83818316178352505050506124cf565b9050611c99565b611c96835f015184602001515f8514611c8a5784611c8c565b5a5b86604001516124e4565b90505b80611dab575f60ff168360c0015103611cfa57600195507f115f347c00e69f252cd6b63c4f81022a9564c6befe8aa719cb74640a4a306f0d8885611cdb6124fb565b604051611cea93929190615136565b60405180910390a1505050611de8565b600160ff168360c0015103611d51578684611d136124fb565b6040517f7f6b0bb1000000000000000000000000000000000000000000000000000000008152600401611d4893929190615172565b60405180910390fd5b600260ff168360c0015103611daa577fc2c704302430fe0dc8d95f272e2f4e54bbbc51a3327fd5d75ab41f9fc8fd129b8885611d8b6124fb565b604051611d9a93929190615136565b60405180910390a1505050611df5565b5b7f5a589b1d8062f33451d29cae3dabd9b2e36c62aee644178c600977ca8dda661a8885604051611ddc929190614f62565b60405180910390a15050505b8080600101915050611adf565b505050505050565b5f5f1b8103611e38576040517f4294d12700000000000000000000000000000000000000000000000000000000815260040160405180910390fd5b611e647fea7157fa25e3aa17d0ae2d5280fa4e24d421c61842aa85e45194e1145aa72bf85f1b82612519565b7f307ed6bd941ee9fc80f369c94af5fa11e25bab5102a6140191756c5474a30bfa81604051611e939190614275565b60405180910390a150565b611f027fbe27a319efc8734e89e26ba4bc95f5c788584163b959f03fa04e2d7ab4b9a1205f1b837bffffffffffffffffffffffffffffffffffffffffffffffffffffffff19168373ffffffffffffffffffffffffffffffffffffffff165f1b612520565b7f0d7fc113eaf016db4681a1ba86d083ce3e0961f321062a75ac2b0aeb33deeed18282604051611f339291906151b5565b60405180910390a15050565b5f81549050919050565b5f5f611f59836020015130612555565b90505f611f65846125ff565b90508181604051602001611f7a929190615250565b6040516020818303038152906040528051906020012092505050919050565b5f5f5f611fc87fc852adf5e97c2fc3b38f405671e91b7af1697ef0287577f227ef10494c2a8e865f1b856112f3565b5f1c9050606081901c816bffffffffffffffffffffffff169250925050915091565b5f3054905090565b5f5f5f5f5f5f5f6120038b8b6123a4565b915060ff169150612012613982565b604080841614801561204f57505f73ffffffffffffffffffffffffffffffffffffffff168973ffffffffffffffffffffffffffffffffffffffff16145b1561218b57612069828d8d6124389290919263ffffffff16565b809350819a5050508961218a575f61208c838e8e61247f9290919263ffffffff16565b8162ffffff16915080945081925050505f8d8d859084876120ad91906149ae565b926120ba93929190614fed565b8080601f0160208091040260200160405190810160405280939291908181526020018383808284375f81840152601f19601f8201169050808301925050505050505090508a73ffffffffffffffffffffffffffffffffffffffff1663ccce3bc830836040518363ffffffff1660e01b8152600401612139929190615286565b6040805180830381865afa158015612153573d5f5f3e3d5ffd5b505050506040513d601f19601f820116820180604052508101906121779190615329565b9250818461218591906149ae565b935050505b5b6001808416036121c4576121b28d8a838f8f879080926121ad93929190614fed565b61283b565b97509750975097509750505050612322565b6002808416148d60200190151590811515815250505f6002601c8516901c905061220083828f8f6123d59190939291909392919063ffffffff16565b8094508197505050505f6001600560208616901c61221e91906149ae565b905061223c83828f8f6123d59190939291909392919063ffffffff16565b809450819a5050505061224e8d611f49565b935061226c8d858e8e8690809261226793929190614fed565b612a9d565b809750819850505061228086895f1b61356f565b955061228e86865f1b61356f565b95506122b2868a73ffffffffffffffffffffffffffffffffffffffff165f1b61356f565b95505f5f1b815f0151141580156122cc575085815f015114155b80156122dc575080602001518511155b1561231e57806040517fccbb534f0000000000000000000000000000000000000000000000000000000081526004016123159190615381565b60405180910390fd5b5050505b9550955095509550959050565b5f61233982613583565b9050919050565b6123997fc852adf5e97c2fc3b38f405671e91b7af1697ef0287577f227ef10494c2a8e865f1b846bffffffffffffffffffffffff841660608673ffffffffffffffffffffffffffffffffffffffff16901b175f1b612520565b505050565b80305550565b5f5f83358060f81c925060019150509250929050565b5f5f848301358060601c925060148401915050935093915050565b5f5f858401356008840261010003600180866008021b0382821c1693508486019250505094509492505050565b5f5f848301358060f01c925060028401915050935093915050565b5f5f848301358060f81c925060018401915050935093915050565b5f5f8483013573ffffffffffffffffffffffffffffffffffffffff8160601c16925060148401915050935093915050565b5f5f848301359150602083019050935093915050565b5f5f848301358060e81c925060038401915050935093915050565b6124cb7f8d0bf1fd623d628c741362c1289948e57b3e2905218c676d3e69abee36d6ae2e5f1b835f1b835f1b612520565b5050565b5f5f5f8351602085018787f490509392505050565b5f5f5f835160208501878988f19050949350505050565b60603d604051915060208201818101604052818352815f823e505090565b8082555050565b5f8383604051602001612534929190614f3b565b60405160208183030381529060405280519060200120905081815550505050565b5f7f8b73c3c69bb8fe3d512ecc4cf759cc79239f7b179b0ffacaa9a75d522b39400f5f1b7f4aa45ca7ad825ceb1bf35643f0a58c295239df563b1b565c2485f96477c563185f1b7f2a80e1ef1d7842f27f2e6be0972bb708b9a135c38860dbe73c27c3486c34f4de5f1b856125ca57466125cc565b5f5b856040516020016125e195949392919061539a565b60405160208183030381529060405280519060200120905092915050565b5f5f8261010001516040516020016126179190615477565b6040516020818303038152906040528051906020012090505f60ff16835f015160ff16036126b1575f61264d84604001516135c6565b90507f11e1e4079a79a66e4ade50033cfe2678cdd5341d2dfe5ef9513edb1a0be147a25f1b81856060015186608001518560405160200161269295949392919061548d565b6040516020818303038152906040528051906020012092505050612836565b600160ff16835f015160ff1603612722577fe19a3b94fc3c7ece3f890d98a99bc422615537a08dea0603fa8425867d87d4665f1b8360a001518051906020012082604051602001612704939291906154de565b60405160208183030381529060405280519060200120915050612836565b600260ff16835f015160ff160361278c577f11fdeb7e8373a1aa96bfac8d0ea91526b2c5d15e5cee20e0543e780258f3e8e45f1b8360c001518260405160200161276e939291906154de565b60405160208183030381529060405280519060200120915050612836565b600360ff16835f015160ff16036127f6577fe19a3b94fc3c7ece3f890d98a99bc422615537a08dea0603fa8425867d87d4665f1b8360e00151826040516020016127d8939291906154de565b60405160208183030381529060405280519060200120915050612836565b825f01516040517f0481832000000000000000000000000000000000000000000000000000000000815260040161282d9190615522565b60405180910390fd5b919050565b5f5f5f5f5f6128486138e6565b6002815f019060ff16908160ff16815250505f5f7fffffffffffffffffffffffffffffffffffffffffffffffffffffffffffffffff90505b89899050821015612a32575f5f6128a2848d8d61247f9290919263ffffffff16565b8162ffffff169150809550819250505083816128be91906149ae565b9150505f8b8b905082146128d2575f6128d4565b8d5b90507fffffffffffffffffffffffffffffffffffffffffffffffffffffffffffffffff83036129345761291b8f8d8d8790869261291393929190614fed565b600185611ff2565b809a50819b50829c50839d50849e505050505050612964565b612952858d8d8790869261294a93929190614fed565b600185611ff2565b50809a50819b50829c50839d50505050505b898910156129bf578b8b8590849261297e93929190614fed565b8b8b6040517fb006aba00000000000000000000000000000000000000000000000000000000081526004016129b6949392919061553b565b60405180910390fd5b819350878d5f0151036129d8575f5f1b8d5f0181815250505b828710612a1e5786836040517f37daf62b000000000000000000000000000000000000000000000000000000008152600401612a15929190614fbe565b60405180910390fd5b878560c00181815250508692505050612880565b5f5f1b8b5f015114158015612a4b57508a602001518511155b15612a8d578a6040517fccbb534f000000000000000000000000000000000000000000000000000000008152600401612a849190615381565b60405180910390fd5b5050509550955095509550959050565b5f5f5f5b84849050811015613565575f612ac282878761241d9290919263ffffffff16565b8160ff16915080935081925050505f600460f08316901c90505f8103612bc9575f600f831690505f8160ff1603612b1157612b0884898961241d9290919263ffffffff16565b80955081925050505b5f5f5f612b29878c8c6136a19290919263ffffffff16565b809a50819450829550839650505050505f60018d8386866040515f8152602001604052604051612b5c9493929190615579565b6020604051602081039080840390855afa158015612b7c573d5f5f3e3d5ffd5b5050506020604051035190508460ff168a0199505f612b9e828760ff16613704565b90505f5f1b8a03612baf5780612bba565b612bb98a8261356f565b5b99505050505050505050612aa1565b60018103612c54575f600f831690505f8160ff1603612c0057612bf784898961241d9290919263ffffffff16565b80955081925050505b5f612c16858a8a6124389290919263ffffffff16565b80965081925050505f612c2c828460ff16613704565b90505f5f1b8703612c3d5780612c48565b612c47878261356f565b5b96505050505050612aa1565b60028103612e53575f6003831690505f8160ff1603612c8b57612c8284898961241d9290919263ffffffff16565b80955081925050505b5f612ca1858a8a6124389290919263ffffffff16565b80965081925050505f6002600c861660ff16901c60ff1690505f612cd787838d8d6123d59190939291909392919063ffffffff16565b80985081925050505f8188019050631626ba7e60e01b7bffffffffffffffffffffffffffffffffffffffffffffffffffffffff19168473ffffffffffffffffffffffffffffffffffffffff16631626ba7e8f8f8f8d908792612d3b93929190614fed565b6040518463ffffffff1660e01b8152600401612d59939291906155bc565b602060405180830381865afa158015612d74573d5f5f3e3d5ffd5b505050506040513d601f19601f82011682018060405250810190612d989190614eaa565b7bffffffffffffffffffffffffffffffffffffffffffffffffffffffff191614612e0f578c848d8d8b908592612dd093929190614fed565b6040517fb2fed7ae000000000000000000000000000000000000000000000000000000008152600401612e0694939291906155ec565b60405180910390fd5b8097508460ff168a0199505f612e28858760ff16613704565b90505f5f1b8a03612e395780612e44565b612e438a8261356f565b5b99505050505050505050612aa1565b60038103612e9d575f612e718489896137369290919263ffffffff16565b80955081925050505f5f1b8503612e885780612e93565b612e92858261356f565b5b9450505050612aa1565b60048103612f1c575f600f831660ff1690505f612ecc85838b8b6123d59190939291909392919063ffffffff16565b80965081925050505f81860190505f5f612ef88e8e8e8e8c908892612ef393929190614fed565b612a9d565b91509150829750818a019950612f0e898261356f565b985050505050505050612aa1565b6006810361302c575f6002600c841660ff16901c60ff1690505f8103612f6057612f5184898961241d9290919263ffffffff16565b8160ff16915080955081925050505b5f6003841660ff1690505f8103612f9657612f86858a8a6124029290919263ffffffff16565b8161ffff16915080965081925050505b5f612fac868b8b61247f9290919263ffffffff16565b8162ffffff16915080975081925050505f81870190505f5f612fe08f8f8f8f8d908892612fdb93929190614fed565b612a9d565b91509150829850848210612ff457858b019a505b5f61300082878961374c565b90505f5f1b8b03613011578061301c565b61301b8b8261356f565b5b9a50505050505050505050612aa1565b600581036130ae575f61304a8489896137369290919263ffffffff16565b809550819250505088810361307d577fffffffffffffffffffffffffffffffffffffffffffffffffffffffffffffffff95505b5f61308782613781565b90505f5f1b860361309857806130a3565b6130a2868261356f565b5b955050505050612aa1565b600781036131c3575f600f831690505f8160ff16036130e5576130dc84898961241d9290919263ffffffff16565b80955081925050505b5f5f5f6130fd878c8c6136a19290919263ffffffff16565b809a50819450829550839650505050505f60018d6040516020016131219190615674565b604051602081830303815290604052805190602001208386866040515f81526020016040526040516131569493929190615579565b6020604051602081039080840390855afa158015613176573d5f5f3e3d5ffd5b5050506020604051035190508460ff168a0199505f613198828760ff16613704565b90505f5f1b8a036131a957806131b4565b6131b38a8261356f565b5b99505050505050505050612aa1565b6008810361325c575f6131e18489896137369290919263ffffffff16565b80955081925050505f6131fd5f8c6137b090919063ffffffff16565b905080820361322a577fffffffffffffffffffffffffffffffffffffffffffffffffffffffffffffffff96505b5f61323483613801565b90505f5f1b87036132455780613250565b61324f878261356f565b5b96505050505050612aa1565b600981036133c2575f6003831690505f8160ff16036132935761328a84898961241d9290919263ffffffff16565b80955081925050505b5f6132a9858a8a6124389290919263ffffffff16565b80965081925050505f5f6002600c871660ff16901c60ff1690506132df87828d8d6123d59190939291909392919063ffffffff16565b8098508193505050505f81870190505f8373ffffffffffffffffffffffffffffffffffffffff166313792a4a8f8e8e8c90879261331e93929190614fed565b6040518463ffffffff1660e01b815260040161333c93929190615699565b602060405180830381865afa158015613357573d5f5f3e3d5ffd5b505050506040513d601f19601f8201168201806040525081019061337b91906156d0565b90508197508460ff168a0199505f613397858760ff1684613830565b90505f5f1b8a036133a857806133b3565b6133b28a8261356f565b5b99505050505050505050612aa1565b600a8103613528575f6003831690505f8160ff16036133f9576133f084898961241d9290919263ffffffff16565b80955081925050505b5f61340f858a8a6124389290919263ffffffff16565b80965081925050505f6002600c861660ff16901c60ff1690505f61344587838d8d6123d59190939291909392919063ffffffff16565b80985081925050505f81880190505f8473ffffffffffffffffffffffffffffffffffffffff1663898bd9218f8f8f8d90879261348393929190614fed565b6040518463ffffffff1660e01b81526004016134a1939291906155bc565b602060405180830381865afa1580156134bc573d5f5f3e3d5ffd5b505050506040513d601f19601f820116820180604052508101906134e091906156d0565b90508198508560ff168b019a505f6134fc868860ff1684613830565b90505f5f1b8b0361350d5780613518565b6135178b8261356f565b5b9a50505050505050505050612aa1565b806040517fb2505f7c00000000000000000000000000000000000000000000000000000000815260040161355c9190614435565b60405180910390fd5b5094509492505050565b5f825f528160205260405f20905092915050565b5f5f5f1b82141580156135bf57506135bc7fea7157fa25e3aa17d0ae2d5280fa4e24d421c61842aa85e45194e1145aa72bf85f1b611f3f565b82145b9050919050565b5f5f825167ffffffffffffffff8111156135e3576135e2613c95565b5b6040519080825280602002602001820160405280156136115781602001602082028036833780820191505090505b5090505f5f90505b835181101561367157613645848281518110613638576136376149e1565b5b6020026020010151613865565b828281518110613658576136576149e1565b5b6020026020010181815250508080600101915050613619565b508060405160200161368391906157ac565b60405160208183030381529060405280519060200120915050919050565b5f5f5f5f5f8786013594506020880186013590506040860191505f60ff82901c90507f7fffffffffffffffffffffffffffffffffffffffffffffffffffffffffffffff82165f1b9450601b816136f791906157c2565b9350505093509350935093565b5f82826040516020016137189291906158a5565b60405160208183030381529060405280519060200120905092915050565b5f5f848301359150602083019050935093915050565b5f83838360405160200161376293929190615925565b6040516020818303038152906040528051906020012090509392505050565b5f8160405160200161379391906159b6565b604051602081830303815290604052805190602001209050919050565b5f5f6137c0846020015184612555565b90505f6137cc856125ff565b905081816040516020016137e1929190615250565b604051602081830303815290604052805190602001209250505092915050565b5f816040516020016138139190615a25565b604051602081830303815290604052805190602001209050919050565b5f83838360405160200161384693929190615a94565b6040516020818303038152906040528051906020012090509392505050565b5f7f0603985259a953da1f65a522f589c17bd1d0117ec1d3abb7c0788aef251ef4375f1b825f01518360200151846040015180519060200120856060015186608001518760a001518860c001516040516020016138c9989796959493929190615adb565b604051602081830303815290604052805190602001209050919050565b6040518061012001604052805f60ff1681526020015f15158152602001606081526020015f81526020015f8152602001606081526020015f81526020015f8152602001606081525090565b6040518060e001604052805f73ffffffffffffffffffffffffffffffffffffffff1681526020015f8152602001606081526020015f81526020015f151581526020015f151581526020015f81525090565b60405180604001604052805f81526020015f81525090565b5f82905092915050565b5f7fffffffff0000000000000000000000000000000000000000000000000000000082169050919050565b5f82821b905092915050565b5f6139e6838361399a565b826139f181356139a4565b92506004821015613a3157613a2c7fffffffff00000000000000000000000000000000000000000000000000000000836004036008026139cf565b831692505b505092915050565b5f81905092915050565b828183375f83830152505050565b5f613a5c8385613a39565b9350613a69838584613a43565b82840190509392505050565b5f613a81828486613a51565b91508190509392505050565b5f604051905090565b5f5ffd5b5f5ffd5b5f73ffffffffffffffffffffffffffffffffffffffff82169050919050565b5f613ac782613a9e565b9050919050565b613ad781613abd565b8114613ae1575f5ffd5b50565b5f81359050613af281613ace565b92915050565b5f819050919050565b613b0a81613af8565b8114613b14575f5ffd5b50565b5f81359050613b2581613b01565b92915050565b5f5ffd5b5f5ffd5b5f5ffd5b5f5f83601f840112613b4c57613b4b613b2b565b5b8235905067ffffffffffffffff811115613b6957613b68613b2f565b5b602083019150836001820283011115613b8557613b84613b33565b5b9250929050565b5f5f5f5f5f5f5f5f60c0898b031215613ba857613ba7613a96565b5b5f613bb58b828c01613ae4565b9850506020613bc68b828c01613ae4565b9750506040613bd78b828c01613ae4565b9650506060613be88b828c01613b17565b955050608089013567ffffffffffffffff811115613c0957613c08613a9a565b5b613c158b828c01613b37565b945094505060a089013567ffffffffffffffff811115613c3857613c37613a9a565b5b613c448b828c01613b37565b92509250509295985092959890939650565b5f60208284031215613c6b57613c6a613a96565b5b5f613c7884828501613ae4565b91505092915050565b5f5ffd5b5f601f19601f8301169050919050565b7f4e487b71000000000000000000000000000000000000000000000000000000005f52604160045260245ffd5b613ccb82613c85565b810181811067ffffffffffffffff82111715613cea57613ce9613c95565b5b80604052505050565b5f613cfc613a8d565b9050613d088282613cc2565b919050565b5f5ffd5b5f60ff82169050919050565b613d2681613d11565b8114613d30575f5ffd5b50565b5f81359050613d4181613d1d565b92915050565b5f8115159050919050565b613d5b81613d47565b8114613d65575f5ffd5b50565b5f81359050613d7681613d52565b92915050565b5f67ffffffffffffffff821115613d9657613d95613c95565b5b602082029050602081019050919050565b5f5ffd5b5f67ffffffffffffffff821115613dc557613dc4613c95565b5b613dce82613c85565b9050602081019050919050565b5f613ded613de884613dab565b613cf3565b905082815260208101848484011115613e0957613e08613da7565b5b613e14848285613a43565b509392505050565b5f82601f830112613e3057613e2f613b2b565b5b8135613e40848260208601613ddb565b91505092915050565b5f60e08284031215613e5e57613e5d613c81565b5b613e6860e0613cf3565b90505f613e7784828501613ae4565b5f830152506020613e8a84828501613b17565b602083015250604082013567ffffffffffffffff811115613eae57613ead613d0d565b5b613eba84828501613e1c565b6040830152506060613ece84828501613b17565b6060830152506080613ee284828501613d68565b60808301525060a0613ef684828501613d68565b60a08301525060c0613f0a84828501613b17565b60c08301525092915050565b5f613f28613f2384613d7c565b613cf3565b90508083825260208201905060208402830185811115613f4b57613f4a613b33565b5b835b81811015613f9257803567ffffffffffffffff811115613f7057613f6f613b2b565b5b808601613f7d8982613e49565b85526020850194505050602081019050613f4d565b5050509392505050565b5f82601f830112613fb057613faf613b2b565b5b8135613fc0848260208601613f16565b91505092915050565b5f819050919050565b613fdb81613fc9565b8114613fe5575f5ffd5b50565b5f81359050613ff681613fd2565b92915050565b5f67ffffffffffffffff82111561401657614015613c95565b5b602082029050602081019050919050565b5f61403961403484613ffc565b613cf3565b9050808382526020820190506020840283018581111561405c5761405b613b33565b5b835b8181101561408557806140718882613ae4565b84526020840193505060208101905061405e565b5050509392505050565b5f82601f8301126140a3576140a2613b2b565b5b81356140b3848260208601614027565b91505092915050565b5f61012082840312156140d2576140d1613c81565b5b6140dd610120613cf3565b90505f6140ec84828501613d33565b5f8301525060206140ff84828501613d68565b602083015250604082013567ffffffffffffffff81111561412357614122613d0d565b5b61412f84828501613f9c565b604083015250606061414384828501613b17565b606083015250608061415784828501613b17565b60808301525060a082013567ffffffffffffffff81111561417b5761417a613d0d565b5b61418784828501613e1c565b60a08301525060c061419b84828501613fe8565b60c08301525060e06141af84828501613fe8565b60e08301525061010082013567ffffffffffffffff8111156141d4576141d3613d0d565b5b6141e08482850161408f565b6101008301525092915050565b5f5f5f6040848603121561420457614203613a96565b5b5f84013567ffffffffffffffff81111561422157614220613a9a565b5b61422d868287016140bc565b935050602084013567ffffffffffffffff81111561424e5761424d613a9a565b5b61425a86828701613b37565b92509250509250925092565b61426f81613fc9565b82525050565b5f6020820190506142885f830184614266565b92915050565b5f5f5f5f5f608086880312156142a7576142a6613a96565b5b5f6142b488828901613ae4565b95505060206142c588828901613ae4565b94505060406142d688828901613b17565b935050606086013567ffffffffffffffff8111156142f7576142f6613a9a565b5b61430388828901613b37565b92509250509295509295909350565b61431b816139a4565b82525050565b5f6020820190506143345f830184614312565b92915050565b5f5f5f6040848603121561435157614350613a96565b5b5f61435e86828701613fe8565b935050602084013567ffffffffffffffff81111561437f5761437e613a9a565b5b61438b86828701613b37565b92509250509250925092565b5f5ffd5b5f61012082840312156143b1576143b0614397565b5b81905092915050565b5f5f5f606084860312156143d1576143d0613a96565b5b5f84013567ffffffffffffffff8111156143ee576143ed613a9a565b5b6143fa8682870161439b565b935050602061440b86828701613fe8565b925050604061441c86828701613b17565b9150509250925092565b61442f81613af8565b82525050565b5f6020820190506144485f830184614426565b92915050565b614457816139a4565b8114614461575f5ffd5b50565b5f813590506144728161444e565b92915050565b5f6020828403121561448d5761448c613a96565b5b5f61449a84828501614464565b91505092915050565b6144ac81613abd565b82525050565b5f6020820190506144c55f8301846144a3565b92915050565b5f5f5f5f604085870312156144e3576144e2613a96565b5b5f85013567ffffffffffffffff811115614500576144ff613a9a565b5b61450c87828801613b37565b9450945050602085013567ffffffffffffffff81111561452f5761452e613a9a565b5b61453b87828801613b37565b925092505092959194509250565b5f6020828403121561455e5761455d613a96565b5b5f61456b84828501613fe8565b91505092915050565b5f5f6020838503121561458a57614589613a96565b5b5f83013567ffffffffffffffff8111156145a7576145a6613a9a565b5b6145b385828601613b37565b92509250509250929050565b5f5f5f5f606085870312156145d7576145d6613a96565b5b5f6145e487828801613ae4565b94505060206145f587828801613b17565b935050604085013567ffffffffffffffff81111561461657614615613a9a565b5b61462287828801613b37565b925092505092959194509250565b5f6020828403121561464557614644613a96565b5b5f61465284828501613b17565b91505092915050565b5f60408201905061466e5f8301856144a3565b61467b6020830184614426565b9392505050565b61468b81613d47565b82525050565b5f60c0820190506146a45f830189614426565b6146b16020830188614426565b6146be6040830187614682565b6146cb6060830186614266565b6146d86080830185614426565b6146e560a0830184614266565b979650505050505050565b5f5f6040838503121561470657614705613a96565b5b5f61471385828601614464565b925050602061472485828601613ae4565b9150509250929050565b5f5f83601f84011261474357614742613b2b565b5b8235905067ffffffffffffffff8111156147605761475f613b2f565b5b60208301915083602082028301111561477c5761477b613b33565b5b9250929050565b5f5f5f5f5f5f5f5f60a0898b03121561479f5761479e613a96565b5b5f6147ac8b828c01613ae4565b98505060206147bd8b828c01613ae4565b975050604089013567ffffffffffffffff8111156147de576147dd613a9a565b5b6147ea8b828c0161472e565b9650965050606089013567ffffffffffffffff81111561480d5761480c613a9a565b5b6148198b828c0161472e565b9450945050608089013567ffffffffffffffff81111561483c5761483b613a9a565b5b6148488b828c01613b37565b92509250509295985092959890939650565b5f5f5f5f5f5f60a0878903121561487457614873613a96565b5b5f61488189828a01613ae4565b965050602061489289828a01613ae4565b95505060406148a389828a01613b17565b94505060606148b489828a01613b17565b935050608087013567ffffffffffffffff8111156148d5576148d4613a9a565b5b6148e189828a01613b37565b92509250509295509295509295565b5f6bffffffffffffffffffffffff82169050919050565b614910816148f0565b811461491a575f5ffd5b50565b5f8135905061492b81614907565b92915050565b5f5f5f6060848603121561494857614947613a96565b5b5f61495586828701613fe8565b935050602061496686828701613ae4565b92505060406149778682870161491d565b9150509250925092565b7f4e487b71000000000000000000000000000000000000000000000000000000005f52601160045260245ffd5b5f6149b882613af8565b91506149c383613af8565b92508282019050808211156149db576149da614981565b5b92915050565b7f4e487b71000000000000000000000000000000000000000000000000000000005f52603260045260245ffd5b614a1781613d11565b82525050565b614a2681613d47565b82525050565b5f81519050919050565b5f82825260208201905092915050565b5f819050602082019050919050565b614a5e81613abd565b82525050565b614a6d81613af8565b82525050565b5f81519050919050565b5f82825260208201905092915050565b8281835e5f83830152505050565b5f614aa582614a73565b614aaf8185614a7d565b9350614abf818560208601614a8d565b614ac881613c85565b840191505092915050565b5f60e083015f830151614ae85f860182614a55565b506020830151614afb6020860182614a64565b5060408301518482036040860152614b138282614a9b565b9150506060830151614b286060860182614a64565b506080830151614b3b6080860182614a1d565b5060a0830151614b4e60a0860182614a1d565b5060c0830151614b6160c0860182614a64565b508091505092915050565b5f614b778383614ad3565b905092915050565b5f602082019050919050565b5f614b9582614a2c565b614b9f8185614a36565b935083602082028501614bb185614a46565b805f5b85811015614bec5784840389528151614bcd8582614b6c565b9450614bd883614b7f565b925060208a01995050600181019050614bb4565b50829750879550505050505092915050565b614c0781613fc9565b82525050565b5f81519050919050565b5f82825260208201905092915050565b5f819050602082019050919050565b5f614c418383614a55565b60208301905092915050565b5f602082019050919050565b5f614c6382614c0d565b614c6d8185614c17565b9350614c7883614c27565b805f5b83811015614ca8578151614c8f8882614c36565b9750614c9a83614c4d565b925050600181019050614c7b565b5085935050505092915050565b5f61012083015f830151614ccb5f860182614a0e565b506020830151614cde6020860182614a1d565b5060408301518482036040860152614cf68282614b8b565b9150506060830151614d0b6060860182614a64565b506080830151614d1e6080860182614a64565b5060a083015184820360a0860152614d368282614a9b565b91505060c0830151614d4b60c0860182614bfe565b5060e0830151614d5e60e0860182614bfe565b50610100830151848203610100860152614d788282614c59565b9150508091505092915050565b5f82825260208201905092915050565b5f614da08385614d85565b9350614dad838584613a43565b614db683613c85565b840190509392505050565b5f6040820190508181035f830152614dd98186614cb5565b90508181036020830152614dee818486614d95565b9050949350505050565b5f5ffd5b5f5ffd5b5f5ffd5b5f5f83356001602003843603038112614e2057614e1f614df8565b5b80840192508235915067ffffffffffffffff821115614e4257614e41614dfc565b5b602083019250600182023603831315614e5e57614e5d614e00565b5b509250929050565b5f604082019050614e795f830186614266565b8181036020830152614e8c818486614d95565b9050949350505050565b5f81519050614ea48161444e565b92915050565b5f60208284031215614ebf57614ebe613a96565b5b5f614ecc84828501614e96565b91505092915050565b5f6020820190508181035f830152614eee818486614d95565b90509392505050565b614f00816148f0565b82525050565b5f606082019050614f195f830186614266565b614f2660208301856144a3565b614f336040830184614ef7565b949350505050565b5f604082019050614f4e5f830185614266565b614f5b6020830184614266565b9392505050565b5f604082019050614f755f830185614266565b614f826020830184614426565b9392505050565b5f606082019050614f9c5f830186614266565b614fa960208301856144a3565b614fb660408301846144a3565b949350505050565b5f604082019050614fd15f830185614426565b614fde6020830184614426565b9392505050565b5f5ffd5b5f5ffd5b5f5f8585111561500057614fff614fe5565b5b8386111561501157615010614fe9565b5b6001850283019150848603905094509492505050565b5f60608201905061503a5f830186614426565b6150476020830185614426565b6150546040830184614426565b949350505050565b5f6060820190508181035f8301526150748186614cb5565b90506150836020830185614426565b6150906040830184614426565b949350505050565b5f6150a282614a73565b6150ac8185614d85565b93506150bc818560208601614a8d565b6150c581613c85565b840191505092915050565b5f60c0820190506150e35f830189614266565b6150f06020830188614426565b6150fd6040830187614426565b61510a6060830186614426565b6151176080830185614426565b81810360a08301526151298184615098565b9050979650505050505050565b5f6060820190506151495f830186614266565b6151566020830185614426565b81810360408301526151688184615098565b9050949350505050565b5f6060820190508181035f83015261518a8186614cb5565b90506151996020830185614426565b81810360408301526151ab8184615098565b9050949350505050565b5f6040820190506151c85f830185614312565b6151d560208301846144a3565b9392505050565b5f81905092915050565b7f19010000000000000000000000000000000000000000000000000000000000005f82015250565b5f61521a6002836151dc565b9150615225826151e6565b600282019050919050565b5f819050919050565b61524a61524582613fc9565b615230565b82525050565b5f61525a8261520e565b91506152668285615239565b6020820191506152768284615239565b6020820191508190509392505050565b5f6040820190506152995f8301856144a3565b81810360208301526152ab8184615098565b90509392505050565b5f815190506152c281613fd2565b92915050565b5f815190506152d681613b01565b92915050565b5f604082840312156152f1576152f0613c81565b5b6152fb6040613cf3565b90505f61530a848285016152b4565b5f83015250602061531d848285016152c8565b60208301525092915050565b5f6040828403121561533e5761533d613a96565b5b5f61534b848285016152dc565b91505092915050565b604082015f8201516153685f850182614bfe565b50602082015161537b6020850182614a64565b50505050565b5f6040820190506153945f830184615354565b92915050565b5f60a0820190506153ad5f830188614266565b6153ba6020830187614266565b6153c76040830186614266565b6153d46060830185614426565b6153e160808301846144a3565b9695505050505050565b5f81905092915050565b6153fe81613abd565b82525050565b5f61540f83836153f5565b60208301905092915050565b5f61542582614c0d565b61542f81856153eb565b935061543a83614c27565b805f5b8381101561546a5781516154518882615404565b975061545c83614c4d565b92505060018101905061543d565b5085935050505092915050565b5f615482828461541b565b915081905092915050565b5f60a0820190506154a05f830188614266565b6154ad6020830187614266565b6154ba6040830186614426565b6154c76060830185614426565b6154d46080830184614266565b9695505050505050565b5f6060820190506154f15f830186614266565b6154fe6020830185614266565b61550b6040830184614266565b949350505050565b61551c81613d11565b82525050565b5f6020820190506155355f830184615513565b92915050565b5f6060820190508181035f830152615554818688614d95565b90506155636020830185614426565b6155706040830184614426565b95945050505050565b5f60808201905061558c5f830187614266565b6155996020830186615513565b6155a66040830185614266565b6155b36060830184614266565b95945050505050565b5f6040820190506155cf5f830186614266565b81810360208301526155e2818486614d95565b9050949350505050565b5f6060820190506155ff5f830187614266565b61560c60208301866144a3565b818103604083015261561f818486614d95565b905095945050505050565b7f19457468657265756d205369676e6564204d6573736167653a0a3332000000005f82015250565b5f61565e601c836151dc565b91506156698261562a565b601c82019050919050565b5f61567e82615652565b915061568a8284615239565b60208201915081905092915050565b5f6040820190508181035f8301526156b18186614cb5565b905081810360208301526156c6818486614d95565b9050949350505050565b5f602082840312156156e5576156e4613a96565b5b5f6156f2848285016152b4565b91505092915050565b5f81519050919050565b5f81905092915050565b5f819050602082019050919050565b61572781613fc9565b82525050565b5f615738838361571e565b60208301905092915050565b5f602082019050919050565b5f61575a826156fb565b6157648185615705565b935061576f8361570f565b805f5b8381101561579f578151615786888261572d565b975061579183615744565b925050600181019050615772565b5085935050505092915050565b5f6157b78284615750565b915081905092915050565b5f6157cc82613d11565b91506157d783613d11565b9250828201905060ff8111156157f0576157ef614981565b5b92915050565b7f53657175656e6365207369676e65723a0a0000000000000000000000000000005f82015250565b5f61582a6011836151dc565b9150615835826157f6565b601182019050919050565b5f8160601b9050919050565b5f61585682615840565b9050919050565b5f6158678261584c565b9050919050565b61587f61587a82613abd565b61585d565b82525050565b5f819050919050565b61589f61589a82613af8565b615885565b82525050565b5f6158af8261581e565b91506158bb828561586e565b6014820191506158cb828461588e565b6020820191508190509392505050565b7f53657175656e6365206e657374656420636f6e6669673a0a00000000000000005f82015250565b5f61590f6018836151dc565b915061591a826158db565b601882019050919050565b5f61592f82615903565b915061593b8286615239565b60208201915061594b828561588e565b60208201915061595b828461588e565b602082019150819050949350505050565b7f53657175656e636520737461746963206469676573743a0a00000000000000005f82015250565b5f6159a06018836151dc565b91506159ab8261596c565b601882019050919050565b5f6159c082615994565b91506159cc8284615239565b60208201915081905092915050565b7f53657175656e636520616e792061646472657373207375626469676573743a0a5f82015250565b5f615a0f6020836151dc565b9150615a1a826159db565b602082019050919050565b5f615a2f82615a03565b9150615a3b8284615239565b60208201915081905092915050565b7f53657175656e63652073617069656e7420636f6e6669673a0a000000000000005f82015250565b5f615a7e6019836151dc565b9150615a8982615a4a565b601982019050919050565b5f615a9e82615a72565b9150615aaa828661586e565b601482019150615aba828561588e565b602082019150615aca8284615239565b602082019150819050949350505050565b5f61010082019050615aef5f83018b614266565b615afc602083018a6144a3565b615b096040830189614426565b615b166060830188614266565b615b236080830187614426565b615b3060a0830186614682565b615b3d60c0830185614682565b615b4a60e0830184614426565b999850505050505050505056fea2646970667358221220fe91e9aedaa0c3db4981e764d903cfba3ce4902403769200b250f99a6827f5bd64736f6c634300081c00336041600e3d396021805130553df33d3d36153402601f57363d3d373d363d30545af43d82803e903d91601f57fd5bf3",
  "deployedBytecode": "0x608060405260043610610168575f3560e01c80636ea44577116100d0578063a65d69d411610089578063b93ea7ad11610063578063b93ea7ad14610625578063bc197c8114610641578063f23a6e611461067d578063f727ef1c146106b95761016f565b8063a65d69d414610590578063aaf10f42146105ba578063ad55366b146105e45761016f565b80636ea445771461046d5780638943ec02146104895780638c3f5563146104c557806392dcb3fc146105015780639c145aed1461053e5780639f69ef54146105665761016f565b80631a9b2337116101225780631a9b23371461037d5780631f6a1eb9146103b9578063257671f5146103d557806329561426146103ff5780632dd31000146104275780634fcf3eca146104515761016f565b806223de2914610249578063025b22bc1461027157806313792a4a1461028d578063150b7a02146102c95780631626ba7e1461030557806319822f7c146103415761016f565b3661016f57005b60045f36905010610247575f6101905f369061018b9190613b0f565b6106e1565b90505f73ffffffffffffffffffffffffffffffffffffffff168173ffffffffffffffffffffffffffffffffffffffff1614610245575f5f8273ffffffffffffffffffffffffffffffffffffffff165f366040516101ee929190613ba9565b5f60405180830381855af49150503d805f8114610226576040519150601f19603f3d011682016040523d82523d5f602084013e61022b565b606091505b50915091508161023d57805160208201fd5b805160208201f35b505b005b348015610254575f5ffd5b5061026f600480360381019061026a9190613cc0565b610736565b005b61028b60048036038101906102869190613d8a565b610740565b005b348015610298575f5ffd5b506102b360048036038101906102ae9190614321565b6107bc565b6040516102c091906143a9565b60405180910390f35b3480156102d4575f5ffd5b506102ef60048036038101906102ea91906143c2565b61096b565b6040516102fc9190614455565b60405180910390f35b348015610310575f5ffd5b5061032b6004803603810190610326919061446e565b61097f565b6040516103389190614455565b60405180910390f35b34801561034c575f5ffd5b50610367600480360381019061036291906144ee565b6109c1565b6040516103749190614569565b60405180910390f35b348015610388575f5ffd5b506103a3600480360381019061039e91906145ac565b610c51565b6040516103b091906145e6565b60405180910390f35b6103d360048036038101906103ce91906145ff565b610c62565b005b3480156103e0575f5ffd5b506103e9610cf1565b6040516103f691906143a9565b60405180910390f35b34801561040a575f5ffd5b506104256004803603810190610420919061467d565b610d15565b005b348015610432575f5ffd5b5061043b610d91565b60405161044891906145e6565b60405180910390f35b61046b600480360381019061046691906145ac565b610db5565b005b610487600480360381019061048291906146a8565b610eaa565b005b348015610494575f5ffd5b506104af60048036038101906104aa91906146f3565b610f49565b6040516104bc9190614455565b60405180910390f35b3480156104d0575f5ffd5b506104eb60048036038101906104e69190614764565b610f5c565b6040516104f89190614569565b60405180910390f35b34801561050c575f5ffd5b506105276004803603810190610522919061467d565b610f94565b60405161053592919061478f565b60405180910390f35b348015610549575f5ffd5b50610564600480360381019061055f91906146a8565b610fa8565b005b348015610571575f5ffd5b5061057a611129565b60405161058791906145e6565b60405180910390f35b34801561059b575f5ffd5b506105a461114d565b6040516105b191906145e6565b60405180910390f35b3480156105c5575f5ffd5b506105ce611171565b6040516105db91906145e6565b60405180910390f35b3480156105ef575f5ffd5b5061060a60048036038101906106059190614321565b61117f565b60405161061c969594939291906147c5565b60405180910390f35b61063f600480360381019061063a9190614824565b6111bd565b005b34801561064c575f5ffd5b50610667600480360381019061066291906148b7565b6112b3565b6040516106749190614455565b60405180910390f35b348015610688575f5ffd5b506106a3600480360381019061069e919061498e565b6112ca565b6040516106b09190614455565b60405180910390f35b3480156106c4575f5ffd5b506106df60048036038101906106da9190614a65565b6112df565b005b5f61072d7fbe27a319efc8734e89e26ba4bc95f5c788584163b959f03fa04e2d7ab4b9a1205f1b837bffffffffffffffffffffffffffffffffffffffffffffffffffffffff19166113a8565b5f1c9050919050565b5050505050505050565b3073ffffffffffffffffffffffffffffffffffffffff163373ffffffffffffffffffffffffffffffffffffffff16146107b057336040517fa19dbf000000000000000000000000000000000000000000000000000000000081526004016107a791906145e6565b60405180910390fd5b6107b9816113e0565b50565b5f5f6001856101000151516107d19190614ae2565b67ffffffffffffffff8111156107ea576107e9613dc9565b5b6040519080825280602002602001820160405280156108185781602001602082028036833780820191505090505b5090505f5f90505b856101000151518110156108a857856101000151818151811061084657610845614b15565b5b602002602001015182828151811061086157610860614b15565b5b602002602001019073ffffffffffffffffffffffffffffffffffffffff16908173ffffffffffffffffffffffffffffffffffffffff16815250508080600101915050610820565b50338186610100015151815181106108c3576108c2614b15565b5b602002602001019073ffffffffffffffffffffffffffffffffffffffff16908173ffffffffffffffffffffffffffffffffffffffff1681525050808561010001819052505f610913868686611423565b5090508061095c578585856040517ff58cc8b500000000000000000000000000000000000000000000000000000000815260040161095393929190614ef5565b60405180910390fd5b60015f1b925050509392505050565b5f63150b7a0260e01b905095945050505050565b5f5f61098a85611613565b90505f610998828686611423565b509050806109ad575f60e01b925050506109ba565b631626ba7e60e01b925050505b9392505050565b5f5f73ffffffffffffffffffffffffffffffffffffffff167f000000000000000000000000000000000000000000000000000000000000000073ffffffffffffffffffffffffffffffffffffffff1603610a47576040517fd13d783500000000000000000000000000000000000000000000000000000000815260040160405180910390fd5b7f000000000000000000000000000000000000000000000000000000000000000073ffffffffffffffffffffffffffffffffffffffff163373ffffffffffffffffffffffffffffffffffffffff1614610ad757336040517f400b7ae7000000000000000000000000000000000000000000000000000000008152600401610ace91906145e6565b60405180910390fd5b5f8214610b67577f000000000000000000000000000000000000000000000000000000000000000073ffffffffffffffffffffffffffffffffffffffff1663b760faf983306040518363ffffffff1660e01b8152600401610b3891906145e6565b5f604051808303818588803b158015610b4f575f5ffd5b505af1158015610b61573d5f5f3e3d5ffd5b50505050505b631626ba7e60e01b7bffffffffffffffffffffffffffffffffffffffffffffffffffffffff19163073ffffffffffffffffffffffffffffffffffffffff16631626ba7e8587806101000190610bbc9190614f38565b6040518463ffffffff1660e01b8152600401610bda93929190614f9a565b602060405180830381865afa158015610bf5573d5f5f3e3d5ffd5b505050506040513d601f19601f82011682018060405250810190610c199190614fde565b7bffffffffffffffffffffffffffffffffffffffffffffffffffffffff191614610c465760019050610c4a565b5f90505b9392505050565b5f610c5b826106e1565b9050919050565b5f5a90505f610c71868661163c565b9050610c8581606001518260800151611ade565b5f5f610c92838787611423565b9150915081610cdc578286866040517fa2b6d61b000000000000000000000000000000000000000000000000000000008152600401610cd393929190614ef5565b60405180910390fd5b610ce7848285611b82565b5050505050505050565b7f30678feeeaeaaf6be7c7adf78b1ebe9c5ada61b1eea5411d76d30bf3bfbad87981565b3073ffffffffffffffffffffffffffffffffffffffff163373ffffffffffffffffffffffffffffffffffffffff1614610d8557336040517fa19dbf00000000000000000000000000000000000000000000000000000000008152600401610d7c91906145e6565b60405180910390fd5b610d8e81611eb2565b50565b7f000000000000000000000000fe14b91de3c5ca74c4d24608ebcd4b2848aa601081565b3073ffffffffffffffffffffffffffffffffffffffff163373ffffffffffffffffffffffffffffffffffffffff1614610e2557336040517fa19dbf00000000000000000000000000000000000000000000000000000000008152600401610e1c91906145e6565b60405180910390fd5b5f73ffffffffffffffffffffffffffffffffffffffff16610e45826106e1565b73ffffffffffffffffffffffffffffffffffffffff1603610e9d57806040517f1c3812cc000000000000000000000000000000000000000000000000000000008152600401610e949190614455565b60405180910390fd5b610ea7815f611f7c565b50565b3073ffffffffffffffffffffffffffffffffffffffff163373ffffffffffffffffffffffffffffffffffffffff1614610f1a57336040517fa19dbf00000000000000000000000000000000000000000000000000000000008152600401610f1191906145e6565b60405180910390fd5b5f5a90505f610f29848461163c565b90505f610f358261201d565b9050610f42838284611b82565b5050505050565b5f638943ec0260e01b9050949350505050565b5f610f8b7f8d0bf1fd623d628c741362c1289948e57b3e2905218c676d3e69abee36d6ae2e5f1b835f1b6113a8565b5f1c9050919050565b5f5f610f9f8361206d565b91509150915091565b5f73ffffffffffffffffffffffffffffffffffffffff167f000000000000000000000000000000000000000000000000000000000000000073ffffffffffffffffffffffffffffffffffffffff160361102d576040517fd13d783500000000000000000000000000000000000000000000000000000000815260040160405180910390fd5b7f000000000000000000000000000000000000000000000000000000000000000073ffffffffffffffffffffffffffffffffffffffff163373ffffffffffffffffffffffffffffffffffffffff16146110bd57336040517f400b7ae70000000000000000000000000000000000000000000000000000000081526004016110b491906145e6565b60405180910390fd5b3073ffffffffffffffffffffffffffffffffffffffff16636ea4457783836040518363ffffffff1660e01b81526004016110f8929190615009565b5f604051808303815f87803b15801561110f575f5ffd5b505af1158015611121573d5f5f3e3d5ffd5b505050505050565b7f00000000000000000000000043c572027dc17277fd2561f25d16f351adea5ee681565b7f000000000000000000000000000000000000000000000000000000000000000081565b5f61117a6120be565b905090565b5f5f5f5f5f5f6111928989895f5f6120c6565b809550819650829750839950849a5050505050506111af83612403565b935093975093979195509350565b3073ffffffffffffffffffffffffffffffffffffffff163373ffffffffffffffffffffffffffffffffffffffff161461122d57336040517fa19dbf0000000000000000000000000000000000000000000000000000000000815260040161122491906145e6565b60405180910390fd5b5f73ffffffffffffffffffffffffffffffffffffffff1661124d836106e1565b73ffffffffffffffffffffffffffffffffffffffff16146112a557816040517f5b4d6d6a00000000000000000000000000000000000000000000000000000000815260040161129c9190614455565b60405180910390fd5b6112af8282611f7c565b5050565b5f63bc197c8160e01b905098975050505050505050565b5f63f23a6e6160e01b90509695505050505050565b3073ffffffffffffffffffffffffffffffffffffffff163373ffffffffffffffffffffffffffffffffffffffff161461134f57336040517fa19dbf0000000000000000000000000000000000000000000000000000000000815260040161134691906145e6565b60405180910390fd5b6113688383836bffffffffffffffffffffffff16612414565b7febf265acfac1c01de588ed7ef49743b9c3ce8d6d1edeaf510a1f5453228515b183838360405161139b9392919061503a565b60405180910390a1505050565b5f5f83836040516020016113bd92919061506f565b604051602081830303815290604052805190602001209050805491505092915050565b6113e981612472565b7f310ba5f1d2ed074b51e2eccd052a47ae9ab7c6b800d1fca3db3999d6a592ca038160405161141891906145e6565b60405180910390a150565b5f5f5f84845f81811061143957611438614b15565b5b9050013560f81c60f81b9050608060f81b608060f81b82167effffffffffffffffffffffffffffffffffffffffffffffffffffffffffffff191603611592576114818661201d565b91505f5f61148e8461206d565b915091504281116114d85783816040517ff95b6ab70000000000000000000000000000000000000000000000000000000081526004016114cf929190615096565b60405180910390fd5b5f73ffffffffffffffffffffffffffffffffffffffff168273ffffffffffffffffffffffffffffffffffffffff161415801561154057503373ffffffffffffffffffffffffffffffffffffffff168273ffffffffffffffffffffffffffffffffffffffff1614155b15611586578333836040517f8945c31300000000000000000000000000000000000000000000000000000000815260040161157d939291906150bd565b60405180910390fd5b6001945050505061160b565b5f5f5f6115a28989895f5f6120c6565b905080985081945082955083965050505050828210156115fb5782826040517ffd41fcba0000000000000000000000000000000000000000000000000000000081526004016115f29291906150f2565b60405180910390fd5b61160481612403565b9550505050505b935093915050565b61161b613a1a565b6003815f019060ff16908160ff1681525050818160e0018181525050919050565b611644613a1a565b5f815f019060ff16908160ff16815250505f5f6116618585612478565b915060ff169150600180831603611681575f8360600181815250506116bd565b61169681868661248e9290919263ffffffff16565b8173ffffffffffffffffffffffffffffffffffffffff169150846060018193508281525050505b5f6007600184901c1690505f8111156116fa576116ec828288886124a99190939291909392919063ffffffff16565b856080018194508281525050505b5f60108085160361170e5760019050611766565b6020808516036117415761172d8388886124d69290919263ffffffff16565b8161ffff1691508094508192505050611765565b6117568388886124f19290919263ffffffff16565b8160ff16915080945081925050505b5b8067ffffffffffffffff8111156117805761177f613dc9565b5b6040519080825280602002602001820160405280156117b957816020015b6117a6613a65565b81526020019060019003908161179e5790505b5085604001819052505f5f90505b81811015611ad3575f6117e5858a8a6124f19290919263ffffffff16565b8096508192505050600180821660ff160361185457308760400151838151811061181257611811614b15565b5b60200260200101515f019073ffffffffffffffffffffffffffffffffffffffff16908173ffffffffffffffffffffffffffffffffffffffff16815250506118c0565b611869858a8a61250c9290919263ffffffff16565b886040015184815181106118805761187f614b15565b5b60200260200101515f018197508273ffffffffffffffffffffffffffffffffffffffff1673ffffffffffffffffffffffffffffffffffffffff1681525050505b600280821660ff160361190e576118e2858a8a61253d9290919263ffffffff16565b886040015184815181106118f9576118f8614b15565b5b60200260200101516020018197508281525050505b600480821660ff16036119d6575f611931868b8b6125539290919263ffffffff16565b8162ffffff16915080975081925050508989879083896119519190614ae2565b9261195e93929190615121565b8080601f0160208091040260200160405190810160405280939291908181526020018383808284375f81840152601f19601f82011690508083019250505050505050886040015184815181106119b7576119b6614b15565b5b60200260200101516040018190525080866119d29190614ae2565b9550505b600880821660ff1603611a24576119f8858a8a61253d9290919263ffffffff16565b88604001518481518110611a0f57611a0e614b15565b5b60200260200101516060018197508281525050505b601080821660ff161487604001518381518110611a4457611a43614b15565b5b60200260200101516080019015159081151581525050602080821660ff161487604001518381518110611a7a57611a79614b15565b5b602002602001015160a0019015159081151581525050600660c0821660ff16901c60ff1687604001518381518110611ab557611ab4614b15565b5b602002602001015160c00181815250505080806001019150506117c7565b505050505092915050565b5f611ae883610f5c565b9050818114611b32578282826040517f9b6514f4000000000000000000000000000000000000000000000000000000008152600401611b299392919061515b565b60405180910390fd5b5f600183019050611b43848261256e565b7f1f180c27086c7a39ea2a7b25239d1ab92348f07ca7bb59d1438fcf527568f8818482604051611b749291906150f2565b60405180910390a150505050565b5f5f90505f82604001515190505f5f90505b81811015611eaa575f84604001518281518110611bb457611bb3614b15565b5b602002602001015190508060a001518015611bcd575083155b15611c11577f9ae934bf8a986157c889a24c3b3fa85e74b7e4ee4b1f8fc6e7362cb4c1d19d8b8683604051611c03929190615096565b60405180910390a150611e9d565b5f93505f816060015190505f8114158015611c2b5750805a105b15611c715785835a6040517f21395274000000000000000000000000000000000000000000000000000000008152600401611c6893929190615190565b60405180910390fd5b5f826080015115611d2657611d1f835f01515f8414611c905783611c92565b5a5b634c4e814c60e01b8b8d898b8e606001518b60400151604051602401611cbd96959493929190615204565b604051602081830303815290604052907bffffffffffffffffffffffffffffffffffffffffffffffffffffffff19166020820180517bffffffffffffffffffffffffffffffffffffffffffffffffffffffff83818316178352505050506125a3565b9050611d4e565b611d4b835f015184602001515f8514611d3f5784611d41565b5a5b86604001516125b8565b90505b80611e60575f60ff168360c0015103611daf57600195507f115f347c00e69f252cd6b63c4f81022a9564c6befe8aa719cb74640a4a306f0d8885611d906125cf565b604051611d9f9392919061526a565b60405180910390a1505050611e9d565b600160ff168360c0015103611e06578684611dc86125cf565b6040517f7f6b0bb1000000000000000000000000000000000000000000000000000000008152600401611dfd939291906152a6565b60405180910390fd5b600260ff168360c0015103611e5f577fc2c704302430fe0dc8d95f272e2f4e54bbbc51a3327fd5d75ab41f9fc8fd129b8885611e406125cf565b604051611e4f9392919061526a565b60405180910390a1505050611eaa565b5b7f5a589b1d8062f33451d29cae3dabd9b2e36c62aee644178c600977ca8dda661a8885604051611e91929190615096565b60405180910390a15050505b8080600101915050611b94565b505050505050565b5f5f1b8103611eed576040517f4294d12700000000000000000000000000000000000000000000000000000000815260040160405180910390fd5b611f197fea7157fa25e3aa17d0ae2d5280fa4e24d421c61842aa85e45194e1145aa72bf85f1b826125ed565b7f307ed6bd941ee9fc80f369c94af5fa11e25bab5102a6140191756c5474a30bfa81604051611f4891906143a9565b60405180910390a1611f797f00000000000000000000000043c572027dc17277fd2561f25d16f351adea5ee66113e0565b50565b611fe07fbe27a319efc8734e89e26ba4bc95f5c788584163b959f03fa04e2d7ab4b9a1205f1b837bffffffffffffffffffffffffffffffffffffffffffffffffffffffff19168373ffffffffffffffffffffffffffffffffffffffff165f1b6125f4565b7f0d7fc113eaf016db4681a1ba86d083ce3e0961f321062a75ac2b0aeb33deeed182826040516120119291906152e9565b60405180910390a15050565b5f5f61202d836020015130612629565b90505f612039846126d3565b9050818160405160200161204e929190615384565b6040516020818303038152906040528051906020012092505050919050565b5f5f5f61209c7fc852adf5e97c2fc3b38f405671e91b7af1697ef0287577f227ef10494c2a8e865f1b856113a8565b5f1c9050606081901c816bffffffffffffffffffffffff169250925050915091565b5f3054905090565b5f5f5f5f5f5f5f6120d78b8b612478565b915060ff1691506120e6613ab6565b604080841614801561212357505f73ffffffffffffffffffffffffffffffffffffffff168973ffffffffffffffffffffffffffffffffffffffff16145b1561225f5761213d828d8d61250c9290919263ffffffff16565b809350819a5050508961225e575f612160838e8e6125539290919263ffffffff16565b8162ffffff16915080945081925050505f8d8d859084876121819190614ae2565b9261218e93929190615121565b8080601f0160208091040260200160405190810160405280939291908181526020018383808284375f81840152601f19601f8201169050808301925050505050505090508a73ffffffffffffffffffffffffffffffffffffffff1663ccce3bc830836040518363ffffffff1660e01b815260040161220d9291906153ba565b6040805180830381865afa158015612227573d5f5f3e3d5ffd5b505050506040513d601f19601f8201168201806040525081019061224b919061545d565b925081846122599190614ae2565b935050505b5b600180841603612298576122868d8a838f8f8790809261228193929190615121565b61290f565b975097509750975097505050506123f6565b6002808416148d60200190151590811515815250505f6002601c8516901c90506122d483828f8f6124a99190939291909392919063ffffffff16565b8094508197505050505f6001600560208616901c6122f29190614ae2565b905061231083828f8f6124a99190939291909392919063ffffffff16565b809450819a505050506123228d61201d565b93506123408d858e8e8690809261233b93929190615121565b612b71565b809750819850505061235486895f1b613643565b955061236286865f1b613643565b9550612386868a73ffffffffffffffffffffffffffffffffffffffff165f1b613643565b95505f5f1b815f0151141580156123a0575085815f015114155b80156123b0575080602001518511155b156123f257806040517fccbb534f0000000000000000000000000000000000000000000000000000000081526004016123e991906154b5565b60405180910390fd5b5050505b9550955095509550959050565b5f61240d82613657565b9050919050565b61246d7fc852adf5e97c2fc3b38f405671e91b7af1697ef0287577f227ef10494c2a8e865f1b846bffffffffffffffffffffffff841660608673ffffffffffffffffffffffffffffffffffffffff16901b175f1b6125f4565b505050565b80305550565b5f5f83358060f81c925060019150509250929050565b5f5f848301358060601c925060148401915050935093915050565b5f5f858401356008840261010003600180866008021b0382821c1693508486019250505094509492505050565b5f5f848301358060f01c925060028401915050935093915050565b5f5f848301358060f81c925060018401915050935093915050565b5f5f8483013573ffffffffffffffffffffffffffffffffffffffff8160601c16925060148401915050935093915050565b5f5f848301359150602083019050935093915050565b5f5f848301358060e81c925060038401915050935093915050565b61259f7f8d0bf1fd623d628c741362c1289948e57b3e2905218c676d3e69abee36d6ae2e5f1b835f1b835f1b6125f4565b5050565b5f5f5f8351602085018787f490509392505050565b5f5f5f835160208501878988f19050949350505050565b60603d604051915060208201818101604052818352815f823e505090565b8082555050565b5f838360405160200161260892919061506f565b60405160208183030381529060405280519060200120905081815550505050565b5f7f8b73c3c69bb8fe3d512ecc4cf759cc79239f7b179b0ffacaa9a75d522b39400f5f1b7f4aa45ca7ad825ceb1bf35643f0a58c295239df563b1b565c2485f96477c563185f1b7f2a80e1ef1d7842f27f2e6be0972bb708b9a135c38860dbe73c27c3486c34f4de5f1b8561269e57466126a0565b5f5b856040516020016126b59594939291906154ce565b60405160208183030381529060405280519060200120905092915050565b5f5f8261010001516040516020016126eb91906155ab565b6040516020818303038152906040528051906020012090505f60ff16835f015160ff1603612785575f61272184604001516136fa565b90507f11e1e4079a79a66e4ade50033cfe2678cdd5341d2dfe5ef9513edb1a0be147a25f1b8185606001518660800151856040516020016127669594939291906155c1565b604051602081830303815290604052805190602001209250505061290a565b600160ff16835f015160ff16036127f6577fe19a3b94fc3c7ece3f890d98a99bc422615537a08dea0603fa8425867d87d4665f1b8360a0015180519060200120826040516020016127d893929190615612565b6040516020818303038152906040528051906020012091505061290a565b600260ff16835f015160ff1603612860577f11fdeb7e8373a1aa96bfac8d0ea91526b2c5d15e5cee20e0543e780258f3e8e45f1b8360c001518260405160200161284293929190615612565b6040516020818303038152906040528051906020012091505061290a565b600360ff16835f015160ff16036128ca577fe19a3b94fc3c7ece3f890d98a99bc422615537a08dea0603fa8425867d87d4665f1b8360e00151826040516020016128ac93929190615612565b6040516020818303038152906040528051906020012091505061290a565b825f01516040517f048183200000000000000000000000000000000000000000000000000000000081526004016129019190615656565b60405180910390fd5b919050565b5f5f5f5f5f61291c613a1a565b6002815f019060ff16908160ff16815250505f5f7fffffffffffffffffffffffffffffffffffffffffffffffffffffffffffffffff90505b89899050821015612b06575f5f612976848d8d6125539290919263ffffffff16565b8162ffffff169150809550819250505083816129929190614ae2565b9150505f8b8b905082146129a6575f6129a8565b8d5b90507fffffffffffffffffffffffffffffffffffffffffffffffffffffffffffffffff8303612a08576129ef8f8d8d879086926129e793929190615121565b6001856120c6565b809a50819b50829c50839d50849e505050505050612a38565b612a26858d8d87908692612a1e93929190615121565b6001856120c6565b50809a50819b50829c50839d50505050505b89891015612a93578b8b85908492612a5293929190615121565b8b8b6040517fb006aba0000000000000000000000000000000000000000000000000000000008152600401612a8a949392919061566f565b60405180910390fd5b819350878d5f015103612aac575f5f1b8d5f0181815250505b828710612af25786836040517f37daf62b000000000000000000000000000000000000000000000000000000008152600401612ae99291906150f2565b60405180910390fd5b878560c00181815250508692505050612954565b5f5f1b8b5f015114158015612b1f57508a602001518511155b15612b61578a6040517fccbb534f000000000000000000000000000000000000000000000000000000008152600401612b5891906154b5565b60405180910390fd5b5050509550955095509550959050565b5f5f5f5b84849050811015613639575f612b968287876124f19290919263ffffffff16565b8160ff16915080935081925050505f600460f08316901c90505f8103612c9d575f600f831690505f8160ff1603612be557612bdc8489896124f19290919263ffffffff16565b80955081925050505b5f5f5f612bfd878c8c6137d59290919263ffffffff16565b809a50819450829550839650505050505f60018d8386866040515f8152602001604052604051612c3094939291906156ad565b6020604051602081039080840390855afa158015612c50573d5f5f3e3d5ffd5b5050506020604051035190508460ff168a0199505f612c72828760ff16613838565b90505f5f1b8a03612c835780612c8e565b612c8d8a82613643565b5b99505050505050505050612b75565b60018103612d28575f600f831690505f8160ff1603612cd457612ccb8489896124f19290919263ffffffff16565b80955081925050505b5f612cea858a8a61250c9290919263ffffffff16565b80965081925050505f612d00828460ff16613838565b90505f5f1b8703612d115780612d1c565b612d1b8782613643565b5b96505050505050612b75565b60028103612f27575f6003831690505f8160ff1603612d5f57612d568489896124f19290919263ffffffff16565b80955081925050505b5f612d75858a8a61250c9290919263ffffffff16565b80965081925050505f6002600c861660ff16901c60ff1690505f612dab87838d8d6124a99190939291909392919063ffffffff16565b80985081925050505f8188019050631626ba7e60e01b7bffffffffffffffffffffffffffffffffffffffffffffffffffffffff19168473ffffffffffffffffffffffffffffffffffffffff16631626ba7e8f8f8f8d908792612e0f93929190615121565b6040518463ffffffff1660e01b8152600401612e2d939291906156f0565b602060405180830381865afa158015612e48573d5f5f3e3d5ffd5b505050506040513d601f19601f82011682018060405250810190612e6c9190614fde565b7bffffffffffffffffffffffffffffffffffffffffffffffffffffffff191614612ee3578c848d8d8b908592612ea493929190615121565b6040517fb2fed7ae000000000000000000000000000000000000000000000000000000008152600401612eda9493929190615720565b60405180910390fd5b8097508460ff168a0199505f612efc858760ff16613838565b90505f5f1b8a03612f0d5780612f18565b612f178a82613643565b5b99505050505050505050612b75565b60038103612f71575f612f4584898961386a9290919263ffffffff16565b80955081925050505f5f1b8503612f5c5780612f67565b612f668582613643565b5b9450505050612b75565b60048103612ff0575f600f831660ff1690505f612fa085838b8b6124a99190939291909392919063ffffffff16565b80965081925050505f81860190505f5f612fcc8e8e8e8e8c908892612fc793929190615121565b612b71565b91509150829750818a019950612fe28982613643565b985050505050505050612b75565b60068103613100575f6002600c841660ff16901c60ff1690505f8103613034576130258489896124f19290919263ffffffff16565b8160ff16915080955081925050505b5f6003841660ff1690505f810361306a5761305a858a8a6124d69290919263ffffffff16565b8161ffff16915080965081925050505b5f613080868b8b6125539290919263ffffffff16565b8162ffffff16915080975081925050505f81870190505f5f6130b48f8f8f8f8d9088926130af93929190615121565b612b71565b915091508298508482106130c857858b019a505b5f6130d4828789613880565b90505f5f1b8b036130e557806130f0565b6130ef8b82613643565b5b9a50505050505050505050612b75565b60058103613182575f61311e84898961386a9290919263ffffffff16565b8095508192505050888103613151577fffffffffffffffffffffffffffffffffffffffffffffffffffffffffffffffff95505b5f61315b826138b5565b90505f5f1b860361316c5780613177565b6131768682613643565b5b955050505050612b75565b60078103613297575f600f831690505f8160ff16036131b9576131b08489896124f19290919263ffffffff16565b80955081925050505b5f5f5f6131d1878c8c6137d59290919263ffffffff16565b809a50819450829550839650505050505f60018d6040516020016131f591906157a8565b604051602081830303815290604052805190602001208386866040515f815260200160405260405161322a94939291906156ad565b6020604051602081039080840390855afa15801561324a573d5f5f3e3d5ffd5b5050506020604051035190508460ff168a0199505f61326c828760ff16613838565b90505f5f1b8a0361327d5780613288565b6132878a82613643565b5b99505050505050505050612b75565b60088103613330575f6132b584898961386a9290919263ffffffff16565b80955081925050505f6132d15f8c6138e490919063ffffffff16565b90508082036132fe577fffffffffffffffffffffffffffffffffffffffffffffffffffffffffffffffff96505b5f61330883613935565b90505f5f1b87036133195780613324565b6133238782613643565b5b96505050505050612b75565b60098103613496575f6003831690505f8160ff16036133675761335e8489896124f19290919263ffffffff16565b80955081925050505b5f61337d858a8a61250c9290919263ffffffff16565b80965081925050505f5f6002600c871660ff16901c60ff1690506133b387828d8d6124a99190939291909392919063ffffffff16565b8098508193505050505f81870190505f8373ffffffffffffffffffffffffffffffffffffffff166313792a4a8f8e8e8c9087926133f293929190615121565b6040518463ffffffff1660e01b8152600401613410939291906157cd565b602060405180830381865afa15801561342b573d5f5f3e3d5ffd5b505050506040513d601f19601f8201168201806040525081019061344f9190615804565b90508197508460ff168a0199505f61346b858760ff1684613964565b90505f5f1b8a0361347c5780613487565b6134868a82613643565b5b99505050505050505050612b75565b600a81036135fc575f6003831690505f8160ff16036134cd576134c48489896124f19290919263ffffffff16565b80955081925050505b5f6134e3858a8a61250c9290919263ffffffff16565b80965081925050505f6002600c861660ff16901c60ff1690505f61351987838d8d6124a99190939291909392919063ffffffff16565b80985081925050505f81880190505f8473ffffffffffffffffffffffffffffffffffffffff1663898bd9218f8f8f8d90879261355793929190615121565b6040518463ffffffff1660e01b8152600401613575939291906156f0565b602060405180830381865afa158015613590573d5f5f3e3d5ffd5b505050506040513d601f19601f820116820180604052508101906135b49190615804565b90508198508560ff168b019a505f6135d0868860ff1684613964565b90505f5f1b8b036135e157806135ec565b6135eb8b82613643565b5b9a50505050505050505050612b75565b806040517fb2505f7c0000000000000000000000000000000000000000000000000000000081526004016136309190614569565b60405180910390fd5b5094509492505050565b5f825f528160205260405f20905092915050565b5f3073ffffffffffffffffffffffffffffffffffffffff167f000000000000000000000000fe14b91de3c5ca74c4d24608ebcd4b2848aa6010837f30678feeeaeaaf6be7c7adf78b1ebe9c5ada61b1eea5411d76d30bf3bfbad8796040516020016136c4939291906158be565b604051602081830303815290604052805190602001205f1c73ffffffffffffffffffffffffffffffffffffffff16149050919050565b5f5f825167ffffffffffffffff81111561371757613716613dc9565b5b6040519080825280602002602001820160405280156137455781602001602082028036833780820191505090505b5090505f5f90505b83518110156137a55761377984828151811061376c5761376b614b15565b5b6020026020010151613999565b82828151811061378c5761378b614b15565b5b602002602001018181525050808060010191505061374d565b50806040516020016137b791906159b6565b60405160208183030381529060405280519060200120915050919050565b5f5f5f5f5f8786013594506020880186013590506040860191505f60ff82901c90507f7fffffffffffffffffffffffffffffffffffffffffffffffffffffffffffffff82165f1b9450601b8161382b91906159cc565b9350505093509350935093565b5f828260405160200161384c929190615a6a565b60405160208183030381529060405280519060200120905092915050565b5f5f848301359150602083019050935093915050565b5f83838360405160200161389693929190615aea565b6040516020818303038152906040528051906020012090509392505050565b5f816040516020016138c79190615b7b565b604051602081830303815290604052805190602001209050919050565b5f5f6138f4846020015184612629565b90505f613900856126d3565b90508181604051602001613915929190615384565b604051602081830303815290604052805190602001209250505092915050565b5f816040516020016139479190615bea565b604051602081830303815290604052805190602001209050919050565b5f83838360405160200161397a93929190615c59565b6040516020818303038152906040528051906020012090509392505050565b5f7f0603985259a953da1f65a522f589c17bd1d0117ec1d3abb7c0788aef251ef4375f1b825f01518360200151846040015180519060200120856060015186608001518760a001518860c001516040516020016139fd989796959493929190615ca0565b604051602081830303815290604052805190602001209050919050565b6040518061012001604052805f60ff1681526020015f15158152602001606081526020015f81526020015f8152602001606081526020015f81526020015f8152602001606081525090565b6040518060e001604052805f73ffffffffffffffffffffffffffffffffffffffff1681526020015f8152602001606081526020015f81526020015f151581526020015f151581526020015f81525090565b60405180604001604052805f81526020015f81525090565b5f82905092915050565b5f7fffffffff0000000000000000000000000000000000000000000000000000000082169050919050565b5f82821b905092915050565b5f613b1a8383613ace565b82613b258135613ad8565b92506004821015613b6557613b607fffffffff0000000000000000000000000000000000000000000000000000000083600403600802613b03565b831692505b505092915050565b5f81905092915050565b828183375f83830152505050565b5f613b908385613b6d565b9350613b9d838584613b77565b82840190509392505050565b5f613bb5828486613b85565b91508190509392505050565b5f604051905090565b5f5ffd5b5f5ffd5b5f73ffffffffffffffffffffffffffffffffffffffff82169050919050565b5f613bfb82613bd2565b9050919050565b613c0b81613bf1565b8114613c15575f5ffd5b50565b5f81359050613c2681613c02565b92915050565b5f819050919050565b613c3e81613c2c565b8114613c48575f5ffd5b50565b5f81359050613c5981613c35565b92915050565b5f5ffd5b5f5ffd5b5f5ffd5b5f5f83601f840112613c8057613c7f613c5f565b5b8235905067ffffffffffffffff811115613c9d57613c9c613c63565b5b602083019150836001820283011115613cb957613cb8613c67565b5b9250929050565b5f5f5f5f5f5f5f5f60c0898b031215613cdc57613cdb613bca565b5b5f613ce98b828c01613c18565b9850506020613cfa8b828c01613c18565b9750506040613d0b8b828c01613c18565b9650506060613d1c8b828c01613c4b565b955050608089013567ffffffffffffffff811115613d3d57613d3c613bce565b5b613d498b828c01613c6b565b945094505060a089013567ffffffffffffffff811115613d6c57613d6b613bce565b5b613d788b828c01613c6b565b92509250509295985092959890939650565b5f60208284031215613d9f57613d9e613bca565b5b5f613dac84828501613c18565b91505092915050565b5f5ffd5b5f601f19601f8301169050919050565b7f4e487b71000000000000000000000000000000000000000000000000000000005f52604160045260245ffd5b613dff82613db9565b810181811067ffffffffffffffff82111715613e1e57613e1d613dc9565b5b80604052505050565b5f613e30613bc1565b9050613e3c8282613df6565b919050565b5f5ffd5b5f60ff82169050919050565b613e5a81613e45565b8114613e64575f5ffd5b50565b5f81359050613e7581613e51565b92915050565b5f8115159050919050565b613e8f81613e7b565b8114613e99575f5ffd5b50565b5f81359050613eaa81613e86565b92915050565b5f67ffffffffffffffff821115613eca57613ec9613dc9565b5b602082029050602081019050919050565b5f5ffd5b5f67ffffffffffffffff821115613ef957613ef8613dc9565b5b613f0282613db9565b9050602081019050919050565b5f613f21613f1c84613edf565b613e27565b905082815260208101848484011115613f3d57613f3c613edb565b5b613f48848285613b77565b509392505050565b5f82601f830112613f6457613f63613c5f565b5b8135613f74848260208601613f0f565b91505092915050565b5f60e08284031215613f9257613f91613db5565b5b613f9c60e0613e27565b90505f613fab84828501613c18565b5f830152506020613fbe84828501613c4b565b602083015250604082013567ffffffffffffffff811115613fe257613fe1613e41565b5b613fee84828501613f50565b604083015250606061400284828501613c4b565b606083015250608061401684828501613e9c565b60808301525060a061402a84828501613e9c565b60a08301525060c061403e84828501613c4b565b60c08301525092915050565b5f61405c61405784613eb0565b613e27565b9050808382526020820190506020840283018581111561407f5761407e613c67565b5b835b818110156140c657803567ffffffffffffffff8111156140a4576140a3613c5f565b5b8086016140b18982613f7d565b85526020850194505050602081019050614081565b5050509392505050565b5f82601f8301126140e4576140e3613c5f565b5b81356140f484826020860161404a565b91505092915050565b5f819050919050565b61410f816140fd565b8114614119575f5ffd5b50565b5f8135905061412a81614106565b92915050565b5f67ffffffffffffffff82111561414a57614149613dc9565b5b602082029050602081019050919050565b5f61416d61416884614130565b613e27565b905080838252602082019050602084028301858111156141905761418f613c67565b5b835b818110156141b957806141a58882613c18565b845260208401935050602081019050614192565b5050509392505050565b5f82601f8301126141d7576141d6613c5f565b5b81356141e784826020860161415b565b91505092915050565b5f610120828403121561420657614205613db5565b5b614211610120613e27565b90505f61422084828501613e67565b5f83015250602061423384828501613e9c565b602083015250604082013567ffffffffffffffff81111561425757614256613e41565b5b614263848285016140d0565b604083015250606061427784828501613c4b565b606083015250608061428b84828501613c4b565b60808301525060a082013567ffffffffffffffff8111156142af576142ae613e41565b5b6142bb84828501613f50565b60a08301525060c06142cf8482850161411c565b60c08301525060e06142e38482850161411c565b60e08301525061010082013567ffffffffffffffff81111561430857614307613e41565b5b614314848285016141c3565b6101008301525092915050565b5f5f5f6040848603121561433857614337613bca565b5b5f84013567ffffffffffffffff81111561435557614354613bce565b5b614361868287016141f0565b935050602084013567ffffffffffffffff81111561438257614381613bce565b5b61438e86828701613c6b565b92509250509250925092565b6143a3816140fd565b82525050565b5f6020820190506143bc5f83018461439a565b92915050565b5f5f5f5f5f608086880312156143db576143da613bca565b5b5f6143e888828901613c18565b95505060206143f988828901613c18565b945050604061440a88828901613c4b565b935050606086013567ffffffffffffffff81111561442b5761442a613bce565b5b61443788828901613c6b565b92509250509295509295909350565b61444f81613ad8565b82525050565b5f6020820190506144685f830184614446565b92915050565b5f5f5f6040848603121561448557614484613bca565b5b5f6144928682870161411c565b935050602084013567ffffffffffffffff8111156144b3576144b2613bce565b5b6144bf86828701613c6b565b92509250509250925092565b5f5ffd5b5f61012082840312156144e5576144e46144cb565b5b81905092915050565b5f5f5f6060848603121561450557614504613bca565b5b5f84013567ffffffffffffffff81111561452257614521613bce565b5b61452e868287016144cf565b935050602061453f8682870161411c565b925050604061455086828701613c4b565b9150509250925092565b61456381613c2c565b82525050565b5f60208201905061457c5f83018461455a565b92915050565b61458b81613ad8565b8114614595575f5ffd5b50565b5f813590506145a681614582565b92915050565b5f602082840312156145c1576145c0613bca565b5b5f6145ce84828501614598565b91505092915050565b6145e081613bf1565b82525050565b5f6020820190506145f95f8301846145d7565b92915050565b5f5f5f5f6040858703121561461757614616613bca565b5b5f85013567ffffffffffffffff81111561463457614633613bce565b5b61464087828801613c6b565b9450945050602085013567ffffffffffffffff81111561466357614662613bce565b5b61466f87828801613c6b565b925092505092959194509250565b5f6020828403121561469257614691613bca565b5b5f61469f8482850161411c565b91505092915050565b5f5f602083850312156146be576146bd613bca565b5b5f83013567ffffffffffffffff8111156146db576146da613bce565b5b6146e785828601613c6b565b92509250509250929050565b5f5f5f5f6060858703121561470b5761470a613bca565b5b5f61471887828801613c18565b945050602061472987828801613c4b565b935050604085013567ffffffffffffffff81111561474a57614749613bce565b5b61475687828801613c6b565b925092505092959194509250565b5f6020828403121561477957614778613bca565b5b5f61478684828501613c4b565b91505092915050565b5f6040820190506147a25f8301856145d7565b6147af602083018461455a565b9392505050565b6147bf81613e7b565b82525050565b5f60c0820190506147d85f83018961455a565b6147e5602083018861455a565b6147f260408301876147b6565b6147ff606083018661439a565b61480c608083018561455a565b61481960a083018461439a565b979650505050505050565b5f5f6040838503121561483a57614839613bca565b5b5f61484785828601614598565b925050602061485885828601613c18565b9150509250929050565b5f5f83601f84011261487757614876613c5f565b5b8235905067ffffffffffffffff81111561489457614893613c63565b5b6020830191508360208202830111156148b0576148af613c67565b5b9250929050565b5f5f5f5f5f5f5f5f60a0898b0312156148d3576148d2613bca565b5b5f6148e08b828c01613c18565b98505060206148f18b828c01613c18565b975050604089013567ffffffffffffffff81111561491257614911613bce565b5b61491e8b828c01614862565b9650965050606089013567ffffffffffffffff81111561494157614940613bce565b5b61494d8b828c01614862565b9450945050608089013567ffffffffffffffff8111156149705761496f613bce565b5b61497c8b828c01613c6b565b92509250509295985092959890939650565b5f5f5f5f5f5f60a087890312156149a8576149a7613bca565b5b5f6149b589828a01613c18565b96505060206149c689828a01613c18565b95505060406149d789828a01613c4b565b94505060606149e889828a01613c4b565b935050608087013567ffffffffffffffff811115614a0957614a08613bce565b5b614a1589828a01613c6b565b92509250509295509295509295565b5f6bffffffffffffffffffffffff82169050919050565b614a4481614a24565b8114614a4e575f5ffd5b50565b5f81359050614a5f81614a3b565b92915050565b5f5f5f60608486031215614a7c57614a7b613bca565b5b5f614a898682870161411c565b9350506020614a9a86828701613c18565b9250506040614aab86828701614a51565b9150509250925092565b7f4e487b71000000000000000000000000000000000000000000000000000000005f52601160045260245ffd5b5f614aec82613c2c565b9150614af783613c2c565b9250828201905080821115614b0f57614b0e614ab5565b5b92915050565b7f4e487b71000000000000000000000000000000000000000000000000000000005f52603260045260245ffd5b614b4b81613e45565b82525050565b614b5a81613e7b565b82525050565b5f81519050919050565b5f82825260208201905092915050565b5f819050602082019050919050565b614b9281613bf1565b82525050565b614ba181613c2c565b82525050565b5f81519050919050565b5f82825260208201905092915050565b8281835e5f83830152505050565b5f614bd982614ba7565b614be38185614bb1565b9350614bf3818560208601614bc1565b614bfc81613db9565b840191505092915050565b5f60e083015f830151614c1c5f860182614b89565b506020830151614c2f6020860182614b98565b5060408301518482036040860152614c478282614bcf565b9150506060830151614c5c6060860182614b98565b506080830151614c6f6080860182614b51565b5060a0830151614c8260a0860182614b51565b5060c0830151614c9560c0860182614b98565b508091505092915050565b5f614cab8383614c07565b905092915050565b5f602082019050919050565b5f614cc982614b60565b614cd38185614b6a565b935083602082028501614ce585614b7a565b805f5b85811015614d205784840389528151614d018582614ca0565b9450614d0c83614cb3565b925060208a01995050600181019050614ce8565b50829750879550505050505092915050565b614d3b816140fd565b82525050565b5f81519050919050565b5f82825260208201905092915050565b5f819050602082019050919050565b5f614d758383614b89565b60208301905092915050565b5f602082019050919050565b5f614d9782614d41565b614da18185614d4b565b9350614dac83614d5b565b805f5b83811015614ddc578151614dc38882614d6a565b9750614dce83614d81565b925050600181019050614daf565b5085935050505092915050565b5f61012083015f830151614dff5f860182614b42565b506020830151614e126020860182614b51565b5060408301518482036040860152614e2a8282614cbf565b9150506060830151614e3f6060860182614b98565b506080830151614e526080860182614b98565b5060a083015184820360a0860152614e6a8282614bcf565b91505060c0830151614e7f60c0860182614d32565b5060e0830151614e9260e0860182614d32565b50610100830151848203610100860152614eac8282614d8d565b9150508091505092915050565b5f82825260208201905092915050565b5f614ed48385614eb9565b9350614ee1838584613b77565b614eea83613db9565b840190509392505050565b5f6040820190508181035f830152614f0d8186614de9565b90508181036020830152614f22818486614ec9565b9050949350505050565b5f5ffd5b5f5ffd5b5f5ffd5b5f5f83356001602003843603038112614f5457614f53614f2c565b5b80840192508235915067ffffffffffffffff821115614f7657614f75614f30565b5b602083019250600182023603831315614f9257614f91614f34565b5b509250929050565b5f604082019050614fad5f83018661439a565b8181036020830152614fc0818486614ec9565b9050949350505050565b5f81519050614fd881614582565b92915050565b5f60208284031215614ff357614ff2613bca565b5b5f61500084828501614fca565b91505092915050565b5f6020820190508181035f830152615022818486614ec9565b90509392505050565b61503481614a24565b82525050565b5f60608201905061504d5f83018661439a565b61505a60208301856145d7565b615067604083018461502b565b949350505050565b5f6040820190506150825f83018561439a565b61508f602083018461439a565b9392505050565b5f6040820190506150a95f83018561439a565b6150b6602083018461455a565b9392505050565b5f6060820190506150d05f83018661439a565b6150dd60208301856145d7565b6150ea60408301846145d7565b949350505050565b5f6040820190506151055f83018561455a565b615112602083018461455a565b9392505050565b5f5ffd5b5f5ffd5b5f5f8585111561513457615133615119565b5b838611156151455761514461511d565b5b6001850283019150848603905094509492505050565b5f60608201905061516e5f83018661455a565b61517b602083018561455a565b615188604083018461455a565b949350505050565b5f6060820190508181035f8301526151a88186614de9565b90506151b7602083018561455a565b6151c4604083018461455a565b949350505050565b5f6151d682614ba7565b6151e08185614eb9565b93506151f0818560208601614bc1565b6151f981613db9565b840191505092915050565b5f60c0820190506152175f83018961439a565b615224602083018861455a565b615231604083018761455a565b61523e606083018661455a565b61524b608083018561455a565b81810360a083015261525d81846151cc565b9050979650505050505050565b5f60608201905061527d5f83018661439a565b61528a602083018561455a565b818103604083015261529c81846151cc565b9050949350505050565b5f6060820190508181035f8301526152be8186614de9565b90506152cd602083018561455a565b81810360408301526152df81846151cc565b9050949350505050565b5f6040820190506152fc5f830185614446565b61530960208301846145d7565b9392505050565b5f81905092915050565b7f19010000000000000000000000000000000000000000000000000000000000005f82015250565b5f61534e600283615310565b91506153598261531a565b600282019050919050565b5f819050919050565b61537e615379826140fd565b615364565b82525050565b5f61538e82615342565b915061539a828561536d565b6020820191506153aa828461536d565b6020820191508190509392505050565b5f6040820190506153cd5f8301856145d7565b81810360208301526153df81846151cc565b90509392505050565b5f815190506153f681614106565b92915050565b5f8151905061540a81613c35565b92915050565b5f6040828403121561542557615424613db5565b5b61542f6040613e27565b90505f61543e848285016153e8565b5f830152506020615451848285016153fc565b60208301525092915050565b5f6040828403121561547257615471613bca565b5b5f61547f84828501615410565b91505092915050565b604082015f82015161549c5f850182614d32565b5060208201516154af6020850182614b98565b50505050565b5f6040820190506154c85f830184615488565b92915050565b5f60a0820190506154e15f83018861439a565b6154ee602083018761439a565b6154fb604083018661439a565b615508606083018561455a565b61551560808301846145d7565b9695505050505050565b5f81905092915050565b61553281613bf1565b82525050565b5f6155438383615529565b60208301905092915050565b5f61555982614d41565b615563818561551f565b935061556e83614d5b565b805f5b8381101561559e5781516155858882615538565b975061559083614d81565b925050600181019050615571565b5085935050505092915050565b5f6155b6828461554f565b915081905092915050565b5f60a0820190506155d45f83018861439a565b6155e1602083018761439a565b6155ee604083018661455a565b6155fb606083018561455a565b615608608083018461439a565b9695505050505050565b5f6060820190506156255f83018661439a565b615632602083018561439a565b61563f604083018461439a565b949350505050565b61565081613e45565b82525050565b5f6020820190506156695f830184615647565b92915050565b5f6060820190508181035f830152615688818688614ec9565b9050615697602083018561455a565b6156a4604083018461455a565b95945050505050565b5f6080820190506156c05f83018761439a565b6156cd6020830186615647565b6156da604083018561439a565b6156e7606083018461439a565b95945050505050565b5f6040820190506157035f83018661439a565b8181036020830152615716818486614ec9565b9050949350505050565b5f6060820190506157335f83018761439a565b61574060208301866145d7565b8181036040830152615753818486614ec9565b905095945050505050565b7f19457468657265756d205369676e6564204d6573736167653a0a3332000000005f82015250565b5f615792601c83615310565b915061579d8261575e565b601c82019050919050565b5f6157b282615786565b91506157be828461536d565b60208201915081905092915050565b5f6040820190508181035f8301526157e58186614de9565b905081810360208301526157fa818486614ec9565b9050949350505050565b5f6020828403121561581957615818613bca565b5b5f615826848285016153e8565b91505092915050565b7fff000000000000000000000000000000000000000000000000000000000000005f82015250565b5f615863600183615310565b915061586e8261582f565b600182019050919050565b5f8160601b9050919050565b5f61588f82615879565b9050919050565b5f6158a082615885565b9050919050565b6158b86158b382613bf1565b615896565b82525050565b5f6158c882615857565b91506158d482866158a7565b6014820191506158e4828561536d565b6020820191506158f4828461536d565b602082019150819050949350505050565b5f81519050919050565b5f81905092915050565b5f819050602082019050919050565b615931816140fd565b82525050565b5f6159428383615928565b60208301905092915050565b5f602082019050919050565b5f61596482615905565b61596e818561590f565b935061597983615919565b805f5b838110156159a95781516159908882615937565b975061599b8361594e565b92505060018101905061597c565b5085935050505092915050565b5f6159c1828461595a565b915081905092915050565b5f6159d682613e45565b91506159e183613e45565b9250828201905060ff8111156159fa576159f9614ab5565b5b92915050565b7f53657175656e6365207369676e65723a0a0000000000000000000000000000005f82015250565b5f615a34601183615310565b9150615a3f82615a00565b601182019050919050565b5f819050919050565b615a64615a5f82613c2c565b615a4a565b82525050565b5f615a7482615a28565b9150615a8082856158a7565b601482019150615a908284615a53565b6020820191508190509392505050565b7f53657175656e6365206e657374656420636f6e6669673a0a00000000000000005f82015250565b5f615ad4601883615310565b9150615adf82615aa0565b601882019050919050565b5f615af482615ac8565b9150615b00828661536d565b602082019150615b108285615a53565b602082019150615b208284615a53565b602082019150819050949350505050565b7f53657175656e636520737461746963206469676573743a0a00000000000000005f82015250565b5f615b65601883615310565b9150615b7082615b31565b601882019050919050565b5f615b8582615b59565b9150615b91828461536d565b60208201915081905092915050565b7f53657175656e636520616e792061646472657373207375626469676573743a0a5f82015250565b5f615bd4602083615310565b9150615bdf82615ba0565b602082019050919050565b5f615bf482615bc8565b9150615c00828461536d565b60208201915081905092915050565b7f53657175656e63652073617069656e7420636f6e6669673a0a000000000000005f82015250565b5f615c43601983615310565b9150615c4e82615c0f565b601982019050919050565b5f615c6382615c37565b9150615c6f82866158a7565b601482019150615c7f8285615a53565b602082019150615c8f828461536d565b602082019150819050949350505050565b5f61010082019050615cb45f83018b61439a565b615cc1602083018a6145d7565b615cce604083018961455a565b615cdb606083018861439a565b615ce8608083018761455a565b615cf560a08301866147b6565b615d0260c08301856147b6565b615d0f60e083018461455a565b999850505050505050505056fea26469706673582212208f4182b373cd58faf7d2eeeb43d676cc0f05299bddad61149b530bac99c8ac2864736f6c634300081c0033",
  "linkReferences": {},
  "deployedLinkReferences": {}
}