{"abi":[{"type":"function","name":"doAnotherCall","inputs":[{"name":"target","type":"address","internalType":"address"},{"name":"data","type":"bytes","internalType":"bytes"}],"outputs":[],"stateMutability":"nonpayable"}],"bytecode":{"object":"0x60808060405234601557610208908161001b8239f35b600080fdfe608080604052600436101561001357600080fd5b60003560e01c63e43e42981461002857600080fd5b346101cd5760407ffffffffffffffffffffffffffffffffffffffffffffffffffffffffffffffffc3601126101cd5760043573ffffffffffffffffffffffffffffffffffffffff811681036101cd576024359067ffffffffffffffff82116101cd57366023830112156101cd5781600401359267ffffffffffffffff84116101cd5736602485850101116101cd5760008185829660248497018337810182815203925af13d156101c8573d67ffffffffffffffff811161019957604051907fffffffffffffffffffffffffffffffffffffffffffffffffffffffffffffffe0603f81601f8401160116820182811067ffffffffffffffff821117610199576040528152600060203d92013e5b1561013b57005b60646040517f08c379a000000000000000000000000000000000000000000000000000000000815260206004820152600b60248201527f43616c6c206661696c65640000000000000000000000000000000000000000006044820152fd5b7f4e487b7100000000000000000000000000000000000000000000000000000000600052604160045260246000fd5b610134565b600080fdfea26469706673582212205ffaab758f7af0ab1a1115e8954314f1d4afdcf6fa784a532e3ec58b85854d5b64736f6c634300081c0033","linkReferences":{}},"methodIdentifiers":{"doAnotherCall(address,bytes)":"e43e4298"},"id":118}