{
  "_format": "hh-sol-artifact-1",
  "contractName": "Estimator",
  "sourceName": "src/Estimator.sol",
  "abi": [
    {
      "inputs": [
        {
          "internalType": "uint256",
          "name": "_space",
          "type": "uint256"
        },
        {
          "internalType": "uint256",
          "name": "_provided",
          "type": "uint256"
        },
        {
          "internalType": "uint256",
          "name": "_current",
          "type": "uint256"
        }
      ],
      "name": "BadNonce",
      "type": "error"
    },
    {
      "inputs": [
        {
          "internalType": "bytes4",
          "name": "signature",
          "type": "bytes4"
        }
      ],
      "name": "HookAlreadyExists",
      "type": "error"
    },
    {
      "inputs": [
        {
          "internalType": "bytes4",
          "name": "signature",
          "type": "bytes4"
        }
      ],
      "name": "HookDoesNotExist",
      "type": "error"
    },
    {
      "inputs": [],
      "name": "ImageHashIsZero",
      "type": "error"
    },
    {
      "inputs": [
        {
          "components": [
            {
              "internalType": "uint8",
              "name": "kind",
              "type": "uint8"
            },
            {
              "internalType": "bool",
              "name": "noChainId",
              "type": "bool"
            },
            {
              "components": [
                {
                  "internalType": "address",
                  "name": "to",
                  "type": "address"
                },
                {
                  "internalType": "uint256",
                  "name": "value",
                  "type": "uint256"
                },
                {
                  "internalType": "bytes",
                  "name": "data",
                  "type": "bytes"
                },
                {
                  "internalType": "uint256",
                  "name": "gasLimit",
                  "type": "uint256"
                },
                {
                  "internalType": "bool",
                  "name": "delegateCall",
                  "type": "bool"
                },
                {
                  "internalType": "bool",
                  "name": "onlyFallback",
                  "type": "bool"
                },
                {
                  "internalType": "uint256",
                  "name": "behaviorOnError",
                  "type": "uint256"
                }
              ],
              "internalType": "struct Payload.Call[]",
              "name": "calls",
              "type": "tuple[]"
            },
            {
              "internalType": "uint256",
              "name": "space",
              "type": "uint256"
            },
            {
              "internalType": "uint256",
              "name": "nonce",
              "type": "uint256"
            },
            {
              "internalType": "bytes",
              "name": "message",
              "type": "bytes"
            },
            {
              "internalType": "bytes32",
              "name": "imageHash",
              "type": "bytes32"
            },
            {
              "internalType": "bytes32",
              "name": "digest",
              "type": "bytes32"
            },
            {
              "internalType": "address[]",
              "name": "parentWallets",
              "type": "address[]"
            }
          ],
          "internalType": "struct Payload.Decoded",
          "name": "_payload",
          "type": "tuple"
        },
        {
          "internalType": "bytes32",
          "name": "_subdigest",
          "type": "bytes32"
        },
        {
          "internalType": "address",
          "name": "_signer",
          "type": "address"
        },
        {
          "internalType": "bytes",
          "name": "_signature",
          "type": "bytes"
        }
      ],
      "name": "InvalidNestedSignature",
      "type": "error"
    },
    {
      "inputs": [
        {
          "components": [
            {
              "internalType": "uint8",
              "name": "kind",
              "type": "uint8"
            },
            {
              "internalType": "bool",
              "name": "noChainId",
              "type": "bool"
            },
            {
              "components": [
                {
                  "internalType": "address",
                  "name": "to",
                  "type": "address"
                },
                {
                  "internalType": "uint256",
                  "name": "value",
                  "type": "uint256"
                },
                {
                  "internalType": "bytes",
                  "name": "data",
                  "type": "bytes"
                },
                {
                  "internalType": "uint256",
                  "name": "gasLimit",
                  "type": "uint256"
                },
                {
                  "internalType": "bool",
                  "name": "delegateCall",
                  "type": "bool"
                },
                {
                  "internalType": "bool",
                  "name": "onlyFallback",
                  "type": "bool"
                },
                {
                  "internalType": "uint256",
                  "name": "behaviorOnError",
                  "type": "uint256"
                }
              ],
              "internalType": "struct Payload.Call[]",
              "name": "calls",
              "type": "tuple[]"
            },
            {
              "internalType": "uint256",
              "name": "space",
              "type": "uint256"
            },
            {
              "internalType": "uint256",
              "name": "nonce",
              "type": "uint256"
            },
            {
              "internalType": "bytes",
              "name": "message",
              "type": "bytes"
            },
            {
              "internalType": "bytes32",
              "name": "imageHash",
              "type": "bytes32"
            },
            {
              "internalType": "bytes32",
              "name": "digest",
              "type": "bytes32"
            },
            {
              "internalType": "address[]",
              "name": "parentWallets",
              "type": "address[]"
            }
          ],
          "internalType": "struct Payload.Decoded",
          "name": "_payload",
          "type": "tuple"
        },
        {
          "internalType": "bytes",
          "name": "_signature",
          "type": "bytes"
        }
      ],
      "name": "InvalidSapientSignature",
      "type": "error"
    },
    {
      "inputs": [
        {
          "components": [
            {
              "internalType": "uint8",
              "name": "kind",
              "type": "uint8"
            },
            {
              "internalType": "bool",
              "name": "noChainId",
              "type": "bool"
            },
            {
              "components": [
                {
                  "internalType": "address",
                  "name": "to",
                  "type": "address"
                },
                {
                  "internalType": "uint256",
                  "name": "value",
                  "type": "uint256"
                },
                {
                  "internalType": "bytes",
                  "name": "data",
                  "type": "bytes"
                },
                {
                  "internalType": "uint256",
                  "name": "gasLimit",
                  "type": "uint256"
                },
                {
                  "internalType": "bool",
                  "name": "delegateCall",
                  "type": "bool"
                },
                {
                  "internalType": "bool",
                  "name": "onlyFallback",
                  "type": "bool"
                },
                {
                  "internalType": "uint256",
                  "name": "behaviorOnError",
                  "type": "uint256"
                }
              ],
              "internalType": "struct Payload.Call[]",
              "name": "calls",
              "type": "tuple[]"
            },
            {
              "internalType": "uint256",
              "name": "space",
              "type": "uint256"
            },
            {
              "internalType": "uint256",
              "name": "nonce",
              "type": "uint256"
            },
            {
              "internalType": "bytes",
              "name": "message",
              "type": "bytes"
            },
            {
              "internalType": "bytes32",
              "name": "imageHash",
              "type": "bytes32"
            },
            {
              "internalType": "bytes32",
              "name": "digest",
              "type": "bytes32"
            },
            {
              "internalType": "address[]",
              "name": "parentWallets",
              "type": "address[]"
            }
          ],
          "internalType": "struct Payload.Decoded",
          "name": "_payload",
          "type": "tuple"
        },
        {
          "internalType": "bytes",
          "name": "_signature",
          "type": "bytes"
        }
      ],
      "name": "InvalidSignature",
      "type": "error"
    },
    {
      "inputs": [
        {
          "internalType": "uint256",
          "name": "_flag",
          "type": "uint256"
        }
      ],
      "name": "InvalidSignatureFlag",
      "type": "error"
    },
    {
      "inputs": [
        {
          "internalType": "bytes32",
          "name": "_opHash",
          "type": "bytes32"
        },
        {
          "internalType": "uint256",
          "name": "_expires",
          "type": "uint256"
        }
      ],
      "name": "InvalidStaticSignature",
      "type": "error"
    },
    {
      "inputs": [
        {
          "internalType": "bytes",
          "name": "_signature",
          "type": "bytes"
        },
        {
          "internalType": "uint256",
          "name": "_threshold",
          "type": "uint256"
        },
        {
          "internalType": "uint256",
          "name": "_weight",
          "type": "uint256"
        }
      ],
      "name": "LowWeightChainedSignature",
      "type": "error"
    },
    {
      "inputs": [
        {
          "components": [
            {
              "internalType": "uint8",
              "name": "kind",
              "type": "uint8"
            },
            {
              "internalType": "bool",
              "name": "noChainId",
              "type": "bool"
            },
            {
              "components": [
                {
                  "internalType": "address",
                  "name": "to",
                  "type": "address"
                },
                {
                  "internalType": "uint256",
                  "name": "value",
                  "type": "uint256"
                },
                {
                  "internalType": "bytes",
                  "name": "data",
                  "type": "bytes"
                },
                {
                  "internalType": "uint256",
                  "name": "gasLimit",
                  "type": "uint256"
                },
                {
                  "internalType": "bool",
                  "name": "delegateCall",
                  "type": "bool"
                },
                {
                  "internalType": "bool",
                  "name": "onlyFallback",
                  "type": "bool"
                },
                {
                  "internalType": "uint256",
                  "name": "behaviorOnError",
                  "type": "uint256"
                }
              ],
              "internalType": "struct Payload.Call[]",
              "name": "calls",
              "type": "tuple[]"
            },
            {
              "internalType": "uint256",
              "name": "space",
              "type": "uint256"
            },
            {
              "internalType": "uint256",
              "name": "nonce",
              "type": "uint256"
            },
            {
              "internalType": "bytes",
              "name": "message",
              "type": "bytes"
            },
            {
              "internalType": "bytes32",
              "name": "imageHash",
              "type": "bytes32"
            },
            {
              "internalType": "bytes32",
              "name": "digest",
              "type": "bytes32"
            },
            {
              "internalType": "address[]",
              "name": "parentWallets",
              "type": "address[]"
            }
          ],
          "internalType": "struct Payload.Decoded",
          "name": "_payload",
          "type": "tuple"
        },
        {
          "internalType": "uint256",
          "name": "_index",
          "type": "uint256"
        },
        {
          "internalType": "uint256",
          "name": "_gasLeft",
          "type": "uint256"
        }
      ],
      "name": "NotEnoughGas",
      "type": "error"
    },
    {
      "inputs": [
        {
          "internalType": "address",
          "name": "_sender",
          "type": "address"
        }
      ],
      "name": "OnlySelf",
      "type": "error"
    },
    {
      "inputs": [
        {
          "components": [
            {
              "internalType": "uint8",
              "name": "kind",
              "type": "uint8"
            },
            {
              "internalType": "bool",
              "name": "noChainId",
              "type": "bool"
            },
            {
              "components": [
                {
                  "internalType": "address",
                  "name": "to",
                  "type": "address"
                },
                {
                  "internalType": "uint256",
                  "name": "value",
                  "type": "uint256"
                },
                {
                  "internalType": "bytes",
                  "name": "data",
                  "type": "bytes"
                },
                {
                  "internalType": "uint256",
                  "name": "gasLimit",
                  "type": "uint256"
                },
                {
                  "internalType": "bool",
                  "name": "delegateCall",
                  "type": "bool"
                },
                {
                  "internalType": "bool",
                  "name": "onlyFallback",
                  "type": "bool"
                },
                {
                  "internalType": "uint256",
                  "name": "behaviorOnError",
                  "type": "uint256"
                }
              ],
              "internalType": "struct Payload.Call[]",
              "name": "calls",
              "type": "tuple[]"
            },
            {
              "internalType": "uint256",
              "name": "space",
              "type": "uint256"
            },
            {
              "internalType": "uint256",
              "name": "nonce",
              "type": "uint256"
            },
            {
              "internalType": "bytes",
              "name": "message",
              "type": "bytes"
            },
            {
              "internalType": "bytes32",
              "name": "imageHash",
              "type": "bytes32"
            },
            {
              "internalType": "bytes32",
              "name": "digest",
              "type": "bytes32"
            },
            {
              "internalType": "address[]",
              "name": "parentWallets",
              "type": "address[]"
            }
          ],
          "internalType": "struct Payload.Decoded",
          "name": "_payload",
          "type": "tuple"
        },
        {
          "internalType": "uint256",
          "name": "_index",
          "type": "uint256"
        },
        {
          "internalType": "bytes",
          "name": "_returnData",
          "type": "bytes"
        }
      ],
      "name": "Reverted",
      "type": "error"
    },
    {
      "inputs": [
        {
          "components": [
            {
              "internalType": "bytes32",
              "name": "imageHash",
              "type": "bytes32"
            },
            {
              "internalType": "uint256",
              "name": "checkpoint",
              "type": "uint256"
            }
          ],
          "internalType": "struct Snapshot",
          "name": "_snapshot",
          "type": "tuple"
        }
      ],
      "name": "UnusedSnapshot",
      "type": "error"
    },
    {
      "inputs": [
        {
          "internalType": "uint256",
          "name": "_nextCheckpoint",
          "type": "uint256"
        },
        {
          "internalType": "uint256",
          "name": "_checkpoint",
          "type": "uint256"
        }
      ],
      "name": "WrongChainedCheckpointOrder",
      "type": "error"
    },
    {
      "anonymous": false,
      "inputs": [
        {
          "indexed": false,
          "internalType": "bytes32",
          "name": "_opHash",
          "type": "bytes32"
        },
        {
          "indexed": false,
          "internalType": "uint256",
          "name": "_index",
          "type": "uint256"
        },
        {
          "indexed": false,
          "internalType": "bytes",
          "name": "_returnData",
          "type": "bytes"
        }
      ],
      "name": "CallAborted",
      "type": "event"
    },
    {
      "anonymous": false,
      "inputs": [
        {
          "indexed": false,
          "internalType": "bytes32",
          "name": "_opHash",
          "type": "bytes32"
        },
        {
          "indexed": false,
          "internalType": "uint256",
          "name": "_index",
          "type": "uint256"
        },
        {
          "indexed": false,
          "internalType": "bytes",
          "name": "_returnData",
          "type": "bytes"
        }
      ],
      "name": "CallFailed",
      "type": "event"
    },
    {
      "anonymous": false,
      "inputs": [
        {
          "indexed": false,
          "internalType": "bytes32",
          "name": "_opHash",
          "type": "bytes32"
        },
        {
          "indexed": false,
          "internalType": "uint256",
          "name": "_index",
          "type": "uint256"
        }
      ],
      "name": "CallSkipped",
      "type": "event"
    },
    {
      "anonymous": false,
      "inputs": [
        {
          "indexed": false,
          "internalType": "bytes32",
          "name": "_opHash",
          "type": "bytes32"
        },
        {
          "indexed": false,
          "internalType": "uint256",
          "name": "_index",
          "type": "uint256"
        }
      ],
      "name": "CallSuccess",
      "type": "event"
    },
    {
      "anonymous": false,
      "inputs": [
        {
          "indexed": false,
          "internalType": "bytes4",
          "name": "signature",
          "type": "bytes4"
        },
        {
          "indexed": false,
          "internalType": "address",
          "name": "implementation",
          "type": "address"
        }
      ],
      "name": "DefinedHook",
      "type": "event"
    },
    {
      "anonymous": false,
      "inputs": [
        {
          "indexed": false,
          "internalType": "bytes32",
          "name": "newImageHash",
          "type": "bytes32"
        }
      ],
      "name": "ImageHashUpdated",
      "type": "event"
    },
    {
      "anonymous": false,
      "inputs": [
        {
          "indexed": false,
          "internalType": "address",
          "name": "newImplementation",
          "type": "address"
        }
      ],
      "name": "ImplementationUpdated",
      "type": "event"
    },
    {
      "anonymous": false,
      "inputs": [
        {
          "indexed": false,
          "internalType": "uint256",
          "name": "_space",
          "type": "uint256"
        },
        {
          "indexed": false,
          "internalType": "uint256",
          "name": "_newNonce",
          "type": "uint256"
        }
      ],
      "name": "NonceChange",
      "type": "event"
    },
    {
      "anonymous": false,
      "inputs": [
        {
          "indexed": false,
          "internalType": "bytes32",
          "name": "_hash",
          "type": "bytes32"
        },
        {
          "indexed": false,
          "internalType": "address",
          "name": "_address",
          "type": "address"
        },
        {
          "indexed": false,
          "internalType": "uint96",
          "name": "_timestamp",
          "type": "uint96"
        }
      ],
      "name": "StaticSignatureSet",
      "type": "event"
    },
    {
      "stateMutability": "payable",
      "type": "fallback"
    },
    {
      "inputs": [
        {
          "internalType": "bytes4",
          "name": "signature",
          "type": "bytes4"
        },
        {
          "internalType": "address",
          "name": "implementation",
          "type": "address"
        }
      ],
      "name": "addHook",
      "outputs": [],
      "stateMutability": "payable",
      "type": "function"
    },
    {
      "inputs": [
        {
          "internalType": "bytes",
          "name": "_payload",
          "type": "bytes"
        },
        {
          "internalType": "bytes",
          "name": "_signature",
          "type": "bytes"
        }
      ],
      "name": "estimate",
      "outputs": [
        {
          "internalType": "uint256",
          "name": "gasUsed",
          "type": "uint256"
        }
      ],
      "stateMutability": "payable",
      "type": "function"
    },
    {
      "inputs": [
        {
          "internalType": "bytes",
          "name": "_payload",
          "type": "bytes"
        },
        {
          "internalType": "bytes",
          "name": "_signature",
          "type": "bytes"
        }
      ],
      "name": "execute",
      "outputs": [],
      "stateMutability": "payable",
      "type": "function"
    },
    {
      "inputs": [],
      "name": "getImplementation",
      "outputs": [
        {
          "internalType": "address",
          "name": "",
          "type": "address"
        }
      ],
      "stateMutability": "view",
      "type": "function"
    },
    {
      "inputs": [],
      "name": "imageHash",
      "outputs": [
        {
          "internalType": "bytes32",
          "name": "",
          "type": "bytes32"
        }
      ],
      "stateMutability": "view",
      "type": "function"
    },
    {
      "inputs": [
        {
          "components": [
            {
              "internalType": "uint8",
              "name": "kind",
              "type": "uint8"
            },
            {
              "internalType": "bool",
              "name": "noChainId",
              "type": "bool"
            },
            {
              "components": [
                {
                  "internalType": "address",
                  "name": "to",
                  "type": "address"
                },
                {
                  "internalType": "uint256",
                  "name": "value",
                  "type": "uint256"
                },
                {
                  "internalType": "bytes",
                  "name": "data",
                  "type": "bytes"
                },
                {
                  "internalType": "uint256",
                  "name": "gasLimit",
                  "type": "uint256"
                },
                {
                  "internalType": "bool",
                  "name": "delegateCall",
                  "type": "bool"
                },
                {
                  "internalType": "bool",
                  "name": "onlyFallback",
                  "type": "bool"
                },
                {
                  "internalType": "uint256",
                  "name": "behaviorOnError",
                  "type": "uint256"
                }
              ],
              "internalType": "struct Payload.Call[]",
              "name": "calls",
              "type": "tuple[]"
            },
            {
              "internalType": "uint256",
              "name": "space",
              "type": "uint256"
            },
            {
              "internalType": "uint256",
              "name": "nonce",
              "type": "uint256"
            },
            {
              "internalType": "bytes",
              "name": "message",
              "type": "bytes"
            },
            {
              "internalType": "bytes32",
              "name": "imageHash",
              "type": "bytes32"
            },
            {
              "internalType": "bytes32",
              "name": "digest",
              "type": "bytes32"
            },
            {
              "internalType": "address[]",
              "name": "parentWallets",
              "type": "address[]"
            }
          ],
          "internalType": "struct Payload.Decoded",
          "name": "_payload",
          "type": "tuple"
        },
        {
          "internalType": "bytes",
          "name": "_signature",
          "type": "bytes"
        }
      ],
      "name": "isValidSapientSignature",
      "outputs": [
        {
          "internalType": "bytes32",
          "name": "",
          "type": "bytes32"
        }
      ],
      "stateMutability": "view",
      "type": "function"
    },
    {
      "inputs": [
        {
          "internalType": "bytes32",
          "name": "_hash",
          "type": "bytes32"
        },
        {
          "internalType": "bytes",
          "name": "_signature",
          "type": "bytes"
        }
      ],
      "name": "isValidSignature",
      "outputs": [
        {
          "internalType": "bytes4",
          "name": "",
          "type": "bytes4"
        }
      ],
      "stateMutability": "view",
      "type": "function"
    },
    {
      "inputs": [
        {
          "internalType": "address",
          "name": "",
          "type": "address"
        },
        {
          "internalType": "address",
          "name": "",
          "type": "address"
        },
        {
          "internalType": "uint256[]",
          "name": "",
          "type": "uint256[]"
        },
        {
          "internalType": "uint256[]",
          "name": "",
          "type": "uint256[]"
        },
        {
          "internalType": "bytes",
          "name": "",
          "type": "bytes"
        }
      ],
      "name": "onERC1155BatchReceived",
      "outputs": [
        {
          "internalType": "bytes4",
          "name": "",
          "type": "bytes4"
        }
      ],
      "stateMutability": "pure",
      "type": "function"
    },
    {
      "inputs": [
        {
          "internalType": "address",
          "name": "",
          "type": "address"
        },
        {
          "internalType": "address",
          "name": "",
          "type": "address"
        },
        {
          "internalType": "uint256",
          "name": "",
          "type": "uint256"
        },
        {
          "internalType": "uint256",
          "name": "",
          "type": "uint256"
        },
        {
          "internalType": "bytes",
          "name": "",
          "type": "bytes"
        }
      ],
      "name": "onERC1155Received",
      "outputs": [
        {
          "internalType": "bytes4",
          "name": "",
          "type": "bytes4"
        }
      ],
      "stateMutability": "pure",
      "type": "function"
    },
    {
      "inputs": [
        {
          "internalType": "address",
          "name": "",
          "type": "address"
        },
        {
          "internalType": "address",
          "name": "",
          "type": "address"
        },
        {
          "internalType": "uint256",
          "name": "",
          "type": "uint256"
        },
        {
          "internalType": "bytes",
          "name": "",
          "type": "bytes"
        }
      ],
      "name": "onERC721Received",
      "outputs": [
        {
          "internalType": "bytes4",
          "name": "",
          "type": "bytes4"
        }
      ],
      "stateMutability": "pure",
      "type": "function"
    },
    {
      "inputs": [
        {
          "internalType": "bytes4",
          "name": "signature",
          "type": "bytes4"
        }
      ],
      "name": "readHook",
      "outputs": [
        {
          "internalType": "address",
          "name": "",
          "type": "address"
        }
      ],
      "stateMutability": "view",
      "type": "function"
    },
    {
      "inputs": [
        {
          "internalType": "uint256",
          "name": "_space",
          "type": "uint256"
        }
      ],
      "name": "readNonce",
      "outputs": [
        {
          "internalType": "uint256",
          "name": "",
          "type": "uint256"
        }
      ],
      "stateMutability": "view",
      "type": "function"
    },
    {
      "inputs": [
        {
          "components": [
            {
              "internalType": "uint8",
              "name": "kind",
              "type": "uint8"
            },
            {
              "internalType": "bool",
              "name": "noChainId",
              "type": "bool"
            },
            {
              "components": [
                {
                  "internalType": "address",
                  "name": "to",
                  "type": "address"
                },
                {
                  "internalType": "uint256",
                  "name": "value",
                  "type": "uint256"
                },
                {
                  "internalType": "bytes",
                  "name": "data",
                  "type": "bytes"
                },
                {
                  "internalType": "uint256",
                  "name": "gasLimit",
                  "type": "uint256"
                },
                {
                  "internalType": "bool",
                  "name": "delegateCall",
                  "type": "bool"
                },
                {
                  "internalType": "bool",
                  "name": "onlyFallback",
                  "type": "bool"
                },
                {
                  "internalType": "uint256",
                  "name": "behaviorOnError",
                  "type": "uint256"
                }
              ],
              "internalType": "struct Payload.Call[]",
              "name": "calls",
              "type": "tuple[]"
            },
            {
              "internalType": "uint256",
              "name": "space",
              "type": "uint256"
            },
            {
              "internalType": "uint256",
              "name": "nonce",
              "type": "uint256"
            },
            {
              "internalType": "bytes",
              "name": "message",
              "type": "bytes"
            },
            {
              "internalType": "bytes32",
              "name": "imageHash",
              "type": "bytes32"
            },
            {
              "internalType": "bytes32",
              "name": "digest",
              "type": "bytes32"
            },
            {
              "internalType": "address[]",
              "name": "parentWallets",
              "type": "address[]"
            }
          ],
          "internalType": "struct Payload.Decoded",
          "name": "_payload",
          "type": "tuple"
        },
        {
          "internalType": "bytes",
          "name": "_signature",
          "type": "bytes"
        }
      ],
      "name": "recoverPartialSignature",
      "outputs": [
        {
          "internalType": "uint256",
          "name": "threshold",
          "type": "uint256"
        },
        {
          "internalType": "uint256",
          "name": "weight",
          "type": "uint256"
        },
        {
          "internalType": "bool",
          "name": "isValidImage",
          "type": "bool"
        },
        {
          "internalType": "bytes32",
          "name": "imageHash",
          "type": "bytes32"
        },
        {
          "internalType": "uint256",
          "name": "checkpoint",
          "type": "uint256"
        },
        {
          "internalType": "bytes32",
          "name": "opHash",
          "type": "bytes32"
        }
      ],
      "stateMutability": "view",
      "type": "function"
    },
    {
      "inputs": [
        {
          "internalType": "bytes4",
          "name": "signature",
          "type": "bytes4"
        }
      ],
      "name": "removeHook",
      "outputs": [],
      "stateMutability": "payable",
      "type": "function"
    },
    {
      "inputs": [
        {
          "internalType": "bytes",
          "name": "_payload",
          "type": "bytes"
        }
      ],
      "name": "selfExecute",
      "outputs": [],
      "stateMutability": "payable",
      "type": "function"
    },
    {
      "inputs": [
        {
          "internalType": "bytes32",
          "name": "_hash",
          "type": "bytes32"
        },
        {
          "internalType": "address",
          "name": "_address",
          "type": "address"
        },
        {
          "internalType": "uint96",
          "name": "_timestamp",
          "type": "uint96"
        }
      ],
      "name": "setStaticSignature",
      "outputs": [],
      "stateMutability": "nonpayable",
      "type": "function"
    },
    {
      "inputs": [
        {
          "internalType": "address",
          "name": "",
          "type": "address"
        },
        {
          "internalType": "uint256",
          "name": "",
          "type": "uint256"
        },
        {
          "internalType": "bytes",
          "name": "",
          "type": "bytes"
        }
      ],
      "name": "tokenReceived",
      "outputs": [],
      "stateMutability": "nonpayable",
      "type": "function"
    },
    {
      "inputs": [
        {
          "internalType": "bytes32",
          "name": "_imageHash",
          "type": "bytes32"
        }
      ],
      "name": "updateImageHash",
      "outputs": [],
      "stateMutability": "nonpayable",
      "type": "function"
    },
    {
      "inputs": [
        {
          "internalType": "address",
          "name": "_implementation",
          "type": "address"
        }
      ],
      "name": "updateImplementation",
      "outputs": [],
      "stateMutability": "payable",
      "type": "function"
    },
    {
      "stateMutability": "payable",
      "type": "receive"
    }
  ],
  "bytecode": "0x6080604052348015600f57600080fd5b5061416e8061001f6000396000f3fe6080604052600436106101485760003560e01c80638943ec02116100c0578063b93ea7ad11610074578063ca70785011610059578063ca70785014610498578063f23a6e61146104b8578063f727ef1c146104fe5761014f565b8063b93ea7ad1461043d578063bc197c81146104505761014f565b8063975befdb116100a5578063975befdb146103c2578063aaf10f42146103d5578063ad55366b146103ea5761014f565b80638943ec02146103815780638c3f5563146103a25761014f565b80631f6a1eb9116101175780634fcf3eca116100fc5780634fcf3eca1461033857806351605d801461034b5780636ea445771461036e5761014f565b80631f6a1eb91461030557806329561426146103185761014f565b8063025b22bc14610212578063150b7a02146102255780631626ba7e146102a05780631a9b2337146102c05761014f565b3661014f57005b6004361061021057600061016b610166368361322c565b61051e565b905073ffffffffffffffffffffffffffffffffffffffff81161561020e576000808273ffffffffffffffffffffffffffffffffffffffff166000366040516101b4929190613292565b600060405180830381855af49150503d80600081146101ef576040519150601f19603f3d011682016040523d82523d6000602084013e6101f4565b606091505b50915091508161020657805160208201fd5b805160208201f35b505b005b6102106102203660046132cb565b610572565b34801561023157600080fd5b5061026a61024036600461332f565b7f150b7a020000000000000000000000000000000000000000000000000000000095945050505050565b6040517fffffffff0000000000000000000000000000000000000000000000000000000090911681526020015b60405180910390f35b3480156102ac57600080fd5b5061026a6102bb36600461339e565b6105be565b3480156102cc57600080fd5b506102e06102db366004613418565b610656565b60405173ffffffffffffffffffffffffffffffffffffffff9091168152602001610297565b610210610313366004613435565b610661565b34801561032457600080fd5b506102106103333660046134a6565b6106e3565b610210610346366004613418565b610727565b34801561035757600080fd5b506103606107e9565b604051908152602001610297565b61021061037c3660046134bf565b610818565b34801561038d57600080fd5b5061021061039c366004613501565b50505050565b3480156103ae57600080fd5b506103606103bd3660046134a6565b610878565b6103606103d0366004613435565b6108a4565b3480156103e157600080fd5b506102e0610941565b3480156103f657600080fd5b5061040a610405366004613883565b61094b565b604080519687526020870195909552921515938501939093526060840152608083019190915260a082015260c001610297565b61021061044b3660046139b1565b610985565b34801561045c57600080fd5b5061026a61046b366004613a2b565b7fbc197c810000000000000000000000000000000000000000000000000000000098975050505050505050565b3480156104a457600080fd5b506103606104b3366004613883565b610a4a565b3480156104c457600080fd5b5061026a6104d3366004613af2565b7ff23a6e61000000000000000000000000000000000000000000000000000000009695505050505050565b34801561050a57600080fd5b50610210610519366004613b6a565b610bb3565b600061056c7fbe27a319efc8734e89e26ba4bc95f5c788584163b959f03fa04e2d7ab4b9a1207fffffffff000000000000000000000000000000000000000000000000000000008416610c6e565b92915050565b3330146105b2576040517fa19dbf000000000000000000000000000000000000000000000000000000000081523360048201526024015b60405180910390fd5b6105bb81610ccc565b50565b604080516101208101825260006020820181905260609282018390528282018190526080820181905260a0820183905260c082018190526101008201929092526003815260e0810185905281610615828686610d21565b5090508061062957506000915061064f9050565b507f20c13b0b000000000000000000000000000000000000000000000000000000009150505b9392505050565b600061056c8261051e565b600061066d8585610e6f565b90506106818160600151826080015161128d565b60008061068f838686610d21565b91509150816106d0578285856040517fa2b6d61b0000000000000000000000000000000000000000000000000000000081526004016105a993929190613e3e565b6106da8184611375565b50505050505050565b33301461071e576040517fa19dbf000000000000000000000000000000000000000000000000000000000081523360048201526024016105a9565b6105bb81611630565b333014610762576040517fa19dbf000000000000000000000000000000000000000000000000000000000081523360048201526024016105a9565b600061076d8261051e565b73ffffffffffffffffffffffffffffffffffffffff16036107de576040517f1c3812cc0000000000000000000000000000000000000000000000000000000081527fffffffff00000000000000000000000000000000000000000000000000000000821660048201526024016105a9565b6105bb8160006116c0565b60006108137fea7157fa25e3aa17d0ae2d5280fa4e24d421c61842aa85e45194e1145aa72bf85490565b905090565b333014610853576040517fa19dbf000000000000000000000000000000000000000000000000000000000081523360048201526024016105a9565b600061085f8383610e6f565b9050600061086c82611780565b905061039c8183611375565b600061056c7f8d0bf1fd623d628c741362c1289948e57b3e2905218c676d3e69abee36d6ae2e83610c6e565b6000805a905060006108b68787610e6f565b60608101519091506108d0906108cb81610878565b61128d565b6000806108de838888610d21565b915091508161091f578287876040517fa2b6d61b0000000000000000000000000000000000000000000000000000000081526004016105a993929190613e3e565b61092981846117fb565b5a6109349085613e9d565b9998505050505050505050565b6000610813305490565b600080600080600080610962898989600080611a43565b93995091975094509250905061097783611d68565b935093975093979195509350565b3330146109c0576040517fa19dbf000000000000000000000000000000000000000000000000000000000081523360048201526024016105a9565b60006109cb8361051e565b73ffffffffffffffffffffffffffffffffffffffff1614610a3c576040517f5b4d6d6a0000000000000000000000000000000000000000000000000000000081527fffffffff00000000000000000000000000000000000000000000000000000000831660048201526024016105a9565b610a4682826116c0565b5050565b600080846101000151516001610a609190613eb0565b67ffffffffffffffff811115610a7857610a78613543565b604051908082528060200260200182016040528015610aa1578160200160208202803683370190505b50905060005b85610100015151811015610b13578561010001518181518110610acc57610acc613ec3565b6020026020010151828281518110610ae657610ae6613ec3565b73ffffffffffffffffffffffffffffffffffffffff90921660209283029190910190910152600101610aa7565b5033818661010001515181518110610b2d57610b2d613ec3565b73ffffffffffffffffffffffffffffffffffffffff9092166020928302919091019091015261010085018190526000610b67868686610d21565b50905080610ba7578585856040517ff58cc8b50000000000000000000000000000000000000000000000000000000081526004016105a993929190613e3e565b50600195945050505050565b333014610bee576040517fa19dbf000000000000000000000000000000000000000000000000000000000081523360048201526024016105a9565b610c078383836bffffffffffffffffffffffff16611d7c565b6040805184815273ffffffffffffffffffffffffffffffffffffffff841660208201526bffffffffffffffffffffffff83168183015290517febf265acfac1c01de588ed7ef49743b9c3ce8d6d1edeaf510a1f5453228515b19181900360600190a1505050565b6000808383604051602001610c8d929190918252602082015260400190565b604080517fffffffffffffffffffffffffffffffffffffffffffffffffffffffffffffffe0818403018152919052805160209091012054949350505050565b610cd4813055565b60405173ffffffffffffffffffffffffffffffffffffffff821681527f310ba5f1d2ed074b51e2eccd052a47ae9ab7c6b800d1fca3db3999d6a592ca03906020015b60405180910390a150565b600080600084846000818110610d3957610d39613ec3565b7fff000000000000000000000000000000000000000000000000000000000000009201359182169250507f80000000000000000000000000000000000000000000000000000000000000009081169003610e3857610d9686611780565b9150600080610da484611e0b565b9150915042811015610dec576040517f9fa4fe5400000000000000000000000000000000000000000000000000000000815260048101859052602481018290526044016105a9565b73ffffffffffffffffffffffffffffffffffffffff82161580610e24575073ffffffffffffffffffffffffffffffffffffffff821633145b15610e355760019450505050610e67565b50505b6000806000610e4b898989600080611a43565b98509295509093509150610e60905081611d68565b9550505050505b935093915050565b604080516101208101825260008082526020820181905260609282018390528282018190526080820181905260a0820183905260c0820181905260e0820152610100810191909152823560f81c60018082168103610ed35760006060840152610ee4565b84810135606090811c908401526014015b6007600183901c168015610f375760016008820290811b7fffffffffffffffffffffffffffffffffffffffffffffffffffffffffffffffff0187840135610100929092039190911c166080850152908101905b600083601016601003610f4c57506001610f75565b83602016602003610f685750600282019186013560f01c610f75565b50600182019186013560f81c5b8067ffffffffffffffff811115610f8e57610f8e613543565b60405190808252806020026020018201604052801561101957816020015b6110066040518060e00160405280600073ffffffffffffffffffffffffffffffffffffffff168152602001600081526020016060815260200160008152602001600015158152602001600015158152602001600081525090565b815260200190600190039081610fac5790505b50604086015260005b818110156112825760018085019489013560f81c90808216900361108157308760400151838151811061105757611057613ec3565b602090810291909101015173ffffffffffffffffffffffffffffffffffffffff90911690526110cb565b8489013560601c60148601886040015184815181106110a2576110a2613ec3565b602090810291909101015173ffffffffffffffffffffffffffffffffffffffff90921690915294505b60028082169003611109578489013560208601886040015184815181106110f4576110f4613ec3565b60200260200101516020018197508281525050505b600480821690036111a157600385019489013560e81c89868a61112c8483613eb0565b9261113993929190613ef2565b8080601f016020809104026020016040519081016040528093929190818152602001838380828437600092019190915250505050604089015180518590811061118457611184613ec3565b60209081029190910101516040015261119d8187613eb0565b9550505b600880821690036111df578489013560208601886040015184815181106111ca576111ca613ec3565b60200260200101516060018197508281525050505b8060101660ff16601014876040015183815181106111ff576111ff613ec3565b602002602001015160800190151590811515815250508060201660ff166020148760400151838151811061123557611235613ec3565b602090810291909101015190151560a090910152604087015180516003600684901c1691908490811061126a5761126a613ec3565b602090810291909101015160c0015250600101611022565b505050505092915050565b600061129883610878565b90508181146112e4576040517f9b6514f40000000000000000000000000000000000000000000000000000000081526004810184905260248101839052604481018290526064016105a9565b604080517f8d0bf1fd623d628c741362c1289948e57b3e2905218c676d3e69abee36d6ae2e60208083019190915281830186905282518083038401815260609092019092528051910120600183019081905560408051858152602081018390527f1f180c27086c7a39ea2a7b25239d1ab92348f07ca7bb59d1438fcf527568f881910160405180910390a150505050565b604081015151600090815b81811015611629576000846040015182815181106113a0576113a0613ec3565b602002602001015190508060a0015180156113b9575083155b15611401576040805187815260208101849052600095507f9ae934bf8a986157c889a24c3b3fa85e74b7e4ee4b1f8fc6e7362cb4c1d19d8b910160405180910390a150611621565b606081015180158015906114145750805a105b156114515785835a6040517f213952740000000000000000000000000000000000000000000000000000000081526004016105a993929190613f1c565b600082608001511561148257825161147b90831561146f5783611471565b5a5b8560400151611e57565b90506114a9565b825160208401516114a69190841561149a578461149c565b5a5b8660400151611e6d565b90505b806115e45760c083015161150557600195507f115f347c00e69f252cd6b63c4f81022a9564c6befe8aa719cb74640a4a306f0d88856114e6611e85565b6040516114f593929190613f41565b60405180910390a1505050611621565b60c08301517fffffffffffffffffffffffffffffffffffffffffffffffffffffffffffffffff0161156f57868461153a611e85565b6040517f7f6b0bb10000000000000000000000000000000000000000000000000000000081526004016105a993929190613f60565b60c08301517ffffffffffffffffffffffffffffffffffffffffffffffffffffffffffffffffe016115e4577fc2c704302430fe0dc8d95f272e2f4e54bbbc51a3327fd5d75ab41f9fc8fd129b88856115c5611e85565b6040516115d493929190613f41565b60405180910390a1505050611629565b60408051898152602081018690527fec670aed5ee1e72eb3eb601271be4b3f312e71f17eebdf10c1a0ab5a3af30ffd910160405180910390a15050505b600101611380565b5050505050565b80611667576040517f4294d12700000000000000000000000000000000000000000000000000000000815260040160405180910390fd5b6116907fea7157fa25e3aa17d0ae2d5280fa4e24d421c61842aa85e45194e1145aa72bf8829055565b6040518181527f307ed6bd941ee9fc80f369c94af5fa11e25bab5102a6140191756c5474a30bfa90602001610d16565b604080517fbe27a319efc8734e89e26ba4bc95f5c788584163b959f03fa04e2d7ab4b9a1206020808301919091527fffffffff000000000000000000000000000000000000000000000000000000008516828401819052835180840385018152606084018086528151919093012073ffffffffffffffffffffffffffffffffffffffff8616908190559152608082015290517f0d7fc113eaf016db4681a1ba86d083ce3e0961f321062a75ac2b0aeb33deeed19181900360a00190a15050565b600080611791836020015130611ea4565b9050600061179e84611f71565b6040517f1901000000000000000000000000000000000000000000000000000000000000602082015260228101849052604281018290529091506062015b6040516020818303038152906040528051906020012092505050919050565b604081015151600090815b818110156116295760008460400151828151811061182657611826613ec3565b602002602001015190508060a00151801561183f575083155b15611887576040805187815260208101849052600095507f9ae934bf8a986157c889a24c3b3fa85e74b7e4ee4b1f8fc6e7362cb4c1d19d8b910160405180910390a150611a3b565b6060810151801580159061189a5750805a105b156118d75785835a6040517f213952740000000000000000000000000000000000000000000000000000000081526004016105a993929190613f1c565b60008260800151156118fc5782516118f590831561146f5783611471565b9050611917565b825160208401516119149190841561149a578461149c565b90505b806119fe5760c083015161197357600195507f115f347c00e69f252cd6b63c4f81022a9564c6befe8aa719cb74640a4a306f0d8885611954611e85565b60405161196393929190613f41565b60405180910390a1505050611a3b565b60c08301517fffffffffffffffffffffffffffffffffffffffffffffffffffffffffffffffff016119a857868461153a611e85565b60c08301517ffffffffffffffffffffffffffffffffffffffffffffffffffffffffffffffffe016119fe577fc2c704302430fe0dc8d95f272e2f4e54bbbc51a3327fd5d75ab41f9fc8fd129b88856115c5611e85565b60408051898152602081018690527fec670aed5ee1e72eb3eb601271be4b3f312e71f17eebdf10c1a0ab5a3af30ffd910160405180910390a15050505b600101611806565b6040805180820182526000808252602082018190529182918291829182918a3560f81c91600191808416148015611a8e575073ffffffffffffffffffffffffffffffffffffffff8916155b15611baa578b82013560601c985060149091019089611baa5760038201918c013560e81c60008d848e611ac18583613eb0565b92611ace93929190613ef2565b8080601f016020809104026020016040519081016040528093929190818152602001838380828437600092019190915250506040517fccce3bc80000000000000000000000000000000000000000000000000000000081529293505073ffffffffffffffffffffffffffffffffffffffff8d169163ccce3bc89150611b599030908590600401613f8b565b6040805180830381865afa158015611b75573d6000803e3d6000fd5b505050506040513d601f19601f82011682018060405250810190611b999190613fc2565b9250611ba58285613eb0565b935050505b82600116600103611be457611bd28d8a838f8f87908092611bcd93929190613ef2565b6121c7565b97509750975097509750505050611d5b565b6002838116811460208f015283901c60071660016008820290811b7fffffffffffffffffffffffffffffffffffffffffffffffffffffffffffffffff018e850135610100929092039190911c16838201909650925060009050611c4f6001600586901c811690613eb0565b60016008820290811b7fffffffffffffffffffffffffffffffffffffffffffffffffffffffffffffffff018f860135610100929092039190911c1699509092019150611c9a8d611780565b9350611cb88d858e8e86908092611cb393929190613ef2565b612413565b600090815260208a815260408083208352888252808320835273ffffffffffffffffffffffffffffffffffffffff8d1690915290208251919850965015801590611d03575080518614155b8015611d13575080602001518511155b15611d57576040517fccbb534f00000000000000000000000000000000000000000000000000000000815281516004820152602082015160248201526044016105a9565b5050505b9550955095509550959050565b6000611d7382612df7565b50600192915050565b611e067fc852adf5e97c2fc3b38f405671e91b7af1697ef0287577f227ef10494c2a8e86847fffffffffffffffffffffffffffffffffffffffff000000000000000000000000606086901b166bffffffffffffffffffffffff8516176040805160208082019590955280820193909352805180840382018152606090930190528151919092012055565b505050565b60008080611e397fc852adf5e97c2fc3b38f405671e91b7af1697ef0287577f227ef10494c2a8e8685610c6e565b606081901c956bffffffffffffffffffffffff909116945092505050565b60008060008351602085018787f4949350505050565b6000806000835160208501878988f195945050505050565b60603d604051915060208201818101604052818352816000823e505090565b60007f8b73c3c69bb8fe3d512ecc4cf759cc79239f7b179b0ffacaa9a75d522b39400f7f4aa45ca7ad825ceb1bf35643f0a58c295239df563b1b565c2485f96477c563187f2a80e1ef1d7842f27f2e6be0972bb708b9a135c38860dbe73c27c3486c34f4de85611f145746611f17565b60005b6040805160208101959095528401929092526060830152608082015273ffffffffffffffffffffffffffffffffffffffff831660a082015260c0015b60405160208183030381529060405280519060200120905092915050565b600080611f82836101000151612e02565b835190915060ff16611ff5576000611f9d8460400151612e85565b606080860151608080880151604080517f11e1e4079a79a66e4ade50033cfe2678cdd5341d2dfe5ef9513edb1a0be147a260208201529081018690529384019290925282015260a0810184905290915060c0016117dc565b825160ff167fffffffffffffffffffffffffffffffffffffffffffffffffffffffffffffffff016120855760a08301518051602091820120604080517fe19a3b94fc3c7ece3f890d98a99bc422615537a08dea0603fa8425867d87d46693810193909352820152606081018290526080015b60405160208183030381529060405280519060200120915050919050565b825160ff167ffffffffffffffffffffffffffffffffffffffffffffffffffffffffffffffffe016120f55760c0830151604080517f11fdeb7e8373a1aa96bfac8d0ea91526b2c5d15e5cee20e0543e780258f3e8e460208201529081019190915260608101829052608001612067565b825160ff167ffffffffffffffffffffffffffffffffffffffffffffffffffffffffffffffffd016121655760e0830151604080517f402e923b91e918306019e73f589362164a6a059499a504699c66feabbb3e262460208201529081019190915260608101829052608001612067565b6040517f08c379a000000000000000000000000000000000000000000000000000000000815260206004820152601060248201527f556e737570706f72746564206b696e640000000000000000000000000000000060448201526064016105a9565b6000806000806000612229604051806101200160405280600060ff168152602001600015158152602001606081526020016000815260200160008152602001606081526020016000801916815260200160008019168152602001606081525090565b6002815260007fffffffffffffffffffffffffffffffffffffffffffffffffffffffffffffffff5b888210156123a05760038201916000908b013560e81c6122718482613eb0565b9150600090508a8214612285576000612287565b8d5b905060007fffffffffffffffffffffffffffffffffffffffffffffffffffffffffffffffff84146122b857856122ba565b8f5b90506122da818e8e889087926122d293929190613ef2565b600186611a43565b50929d50909b50995097508a8a1015612337578c8c869085926122ff93929190613ef2565b8c8c6040517fb006aba00000000000000000000000000000000000000000000000000000000081526004016105a99493929190614013565b829450888e600001510361234a5760008e525b83881061238d576040517f37daf62b00000000000000000000000000000000000000000000000000000000815260048101899052602481018590526044016105a9565b505060c084018790529150849050612251565b8a51158015906123b457508a602001518511155b156123f8576040517fccbb534f0000000000000000000000000000000000000000000000000000000081528b51600482015260208c015160248201526044016105a9565b6124018d611780565b93505050509550955095509550959050565b60008060005b83811015612ded57600181019085013560f881901c9060fc1c8061253657600f821660008190036124515750600183019287013560f81c5b60408051600080825260208281018085528d9052601b8c89019182013560ff81811c928301908116868801529235606086018190527f7fffffffffffffffffffffffffffffffffffffffffffffffffffffffffffffff82166080870181905296909a0199959094919390929160019060a0015b6020604051602081039080840390855afa1580156124e6573d6000803e3d6000fd5b5050506020604051035190508660ff168c019b506000612509828960ff16612f07565b90508b6125165780612525565b60008c81526020829052604090205b9b5050505050505050505050612419565b6001810361259a57600f821660008190036125585750600183019287013560f81c5b601484019388013560601c60006125728260ff8516612f07565b90508661257f578061258e565b60008781526020829052604090205b96505050505050612419565b60028103612781576003821660008190036125bc5750600183019287013560f81c5b60008489013560601c60148601955090506003600285901c16600060016008830290811b7fffffffffffffffffffffffffffffffffffffffffffffffffffffffffffffffff018c890135610100929092039190911c168288018098508192505050600081880190506320c13b0b60e01b7bffffffffffffffffffffffffffffffffffffffffffffffffffffffff19168473ffffffffffffffffffffffffffffffffffffffff16631626ba7e8f8f8f8d90879261267a93929190613ef2565b6040518463ffffffff1660e01b81526004016126989392919061403a565b602060405180830381865afa1580156126b5573d6000803e3d6000fd5b505050506040513d601f19601f820116820180604052508101906126d99190614054565b7fffffffff00000000000000000000000000000000000000000000000000000000161461273c578d8d858e8e6040517ff734863a0000000000000000000000000000000000000000000000000000000081526004016105a9959493929190614071565b8097508460ff168a0199506000612756858760ff16612f07565b9050896127635780612772565b60008a81526020829052604090205b99505050505050505050612419565b600381036127b55760208301928701358461279c57806127ab565b60008581526020829052604090205b9450505050612419565b6004810361285b57600f8216600060016008830290811b7fffffffffffffffffffffffffffffffffffffffffffffffffffffffffffffffff018a870135610100929092039190911c1685830180965081925050506000818601905060008061282a8e8e8e8e8c908892611cb393929190613ef2565b91509150829750818a01995061284a898260009182526020526040902090565b985082975050505050505050612419565b60068103612925576003600283901c1660008190036128815750600183019287013560f81c5b60038316600081900361289b5750600284019388013560f01c5b6000858a013560e81c600387018162ffffff1691508097508192505050600081870190506000806128d98f8f8f8f8d908892611cb393929190613ef2565b915091508298508482106128ec57998501995b60006128f9828789612f6e565b90508a6129065780612915565b60008b81526020829052604090205b9a50505050505050505050612419565b60058103612992576020830192870135888103612960577fffffffffffffffffffffffffffffffffffffffffffffffffffffffffffffffff95505b600061296b82612fd2565b9050856129785780612987565b60008681526020829052604090205b955050505050612419565b60078103612a9857600f821660008190036129b45750600183019287013560f81c5b600080858a0135602087019650915089860135602087016040517f19457468657265756d205369676e6564204d6573736167653a0a3332000000006020820152603c81018e905290975090915060ff82901c907f7fffffffffffffffffffffffffffffffffffffffffffffffffffffffffffffff831690601b830190600090600190605c01604080517fffffffffffffffffffffffffffffffffffffffffffffffffffffffffffffffe08184030181528282528051602091820120600084529083018083525260ff851690820152606081018890526080810185905260a0016124c4565b60088103612aec5760208301928701356000612ab48b82613026565b9050808203612ae1577fffffffffffffffffffffffffffffffffffffffffffffffffffffffffffffffff96505b6000612572826130a1565b60098103612c5257600382166000819003612b0e5750600183019287013560f81c5b60008489013560601c601486019550905060006003600286901c1660016008820290811b7fffffffffffffffffffffffffffffffffffffffffffffffffffffffffffffffff018c890135610100929092039190911c168188018098508193505050506000818701905060008373ffffffffffffffffffffffffffffffffffffffff1663ca7078508f8e8e8c908792612ba893929190613ef2565b6040518463ffffffff1660e01b8152600401612bc693929190613e3e565b602060405180830381865afa158015612be3573d6000803e3d6000fd5b505050506040513d601f19601f82011682018060405250810190612c0791906140c5565b90508197508460ff168a0199506000612c24858760ff16846130dc565b905089612c315780612c40565b60008a81526020829052604090205b99508298505050505050505050612419565b600a8103612db857600382166000819003612c745750600183019287013560f81c5b60008489013560601c60148601955090506003600285901c16600060016008830290811b7fffffffffffffffffffffffffffffffffffffffffffffffffffffffffffffffff018c890135610100929092039190911c1682880180985081925050506000818801905060008473ffffffffffffffffffffffffffffffffffffffff1663957d2b238f8f8f8d908792612d0d93929190613ef2565b6040518463ffffffff1660e01b8152600401612d2b9392919061403a565b602060405180830381865afa158015612d48573d6000803e3d6000fd5b505050506040513d601f19601f82011682018060405250810190612d6c91906140c5565b90508198508560ff168b019a506000612d89868860ff16846130dc565b90508a612d965780612da5565b60008b81526020829052604090205b9a50829950505050505050505050612419565b6040517fb2505f7c000000000000000000000000000000000000000000000000000000008152600481018290526024016105a9565b5094509492505050565b600061056c8261314a565b6000606060005b8351811015612e765781848281518110612e2557612e25613ec3565b6020026020010151604051602001612e3e9291906140de565b604080517fffffffffffffffffffffffffffffffffffffffffffffffffffffffffffffffe08184030181529190529150600101612e09565b50805160209091012092915050565b6000606060005b8351811015612e76576000612eb9858381518110612eac57612eac613ec3565b602002602001015161317d565b90508281604051602001612ece929190614116565b604080517fffffffffffffffffffffffffffffffffffffffffffffffffffffffffffffffe0818403018152919052925050600101612e8c565b6040517f53657175656e6365207369676e65723a0a00000000000000000000000000000060208201527fffffffffffffffffffffffffffffffffffffffff000000000000000000000000606084901b16603182015260458101829052600090606501611f53565b6040517f53657175656e6365206e657374656420636f6e6669673a0a000000000000000060208201526038810184905260588101839052607881018290526000906098015b6040516020818303038152906040528051906020012090509392505050565b6040517f53657175656e636520737461746963206469676573743a0a00000000000000006020820152603881018290526000906058015b604051602081830303815290604052805190602001209050919050565b600080613037846020015184611ea4565b9050600061304485611f71565b6040517f190100000000000000000000000000000000000000000000000000000000000060208201526022810184905260428101829052909150606201604051602081830303815290604052805190602001209250505092915050565b604080517f53657175656e636520616e792061646472657373207375626469676573743a0a6020820152908101829052600090606001613009565b6040517f53657175656e63652073617069656e7420636f6e6669673a0a0000000000000060208201527fffffffffffffffffffffffffffffffffffffffff000000000000000000000000606085901b166039820152604d8101839052606d8101829052600090608d01612fb3565b6000811580159061056c5750507fea7157fa25e3aa17d0ae2d5280fa4e24d421c61842aa85e45194e1145aa72bf8541490565b60007f0603985259a953da1f65a522f589c17bd1d0117ec1d3abb7c0788aef251ef43782600001518360200151846040015180519060200120856060015186608001518760a001518860c0015160405160200161300998979695949392919097885273ffffffffffffffffffffffffffffffffffffffff969096166020880152604087019490945260608601929092526080850152151560a0840152151560c083015260e08201526101000190565b80357fffffffff00000000000000000000000000000000000000000000000000000000811690600484101561328b577fffffffff00000000000000000000000000000000000000000000000000000000808560040360031b1b82161691505b5092915050565b8183823760009101908152919050565b803573ffffffffffffffffffffffffffffffffffffffff811681146132c657600080fd5b919050565b6000602082840312156132dd57600080fd5b61064f826132a2565b60008083601f8401126132f857600080fd5b50813567ffffffffffffffff81111561331057600080fd5b60208301915083602082850101111561332857600080fd5b9250929050565b60008060008060006080868803121561334757600080fd5b613350866132a2565b945061335e602087016132a2565b935060408601359250606086013567ffffffffffffffff81111561338157600080fd5b61338d888289016132e6565b969995985093965092949392505050565b6000806000604084860312156133b357600080fd5b83359250602084013567ffffffffffffffff8111156133d157600080fd5b6133dd868287016132e6565b9497909650939450505050565b7fffffffff00000000000000000000000000000000000000000000000000000000811681146105bb57600080fd5b60006020828403121561342a57600080fd5b813561064f816133ea565b6000806000806040858703121561344b57600080fd5b843567ffffffffffffffff81111561346257600080fd5b61346e878288016132e6565b909550935050602085013567ffffffffffffffff81111561348e57600080fd5b61349a878288016132e6565b95989497509550505050565b6000602082840312156134b857600080fd5b5035919050565b600080602083850312156134d257600080fd5b823567ffffffffffffffff8111156134e957600080fd5b6134f5858286016132e6565b90969095509350505050565b6000806000806060858703121561351757600080fd5b613520856132a2565b935060208501359250604085013567ffffffffffffffff81111561348e57600080fd5b7f4e487b7100000000000000000000000000000000000000000000000000000000600052604160045260246000fd5b60405160e0810167ffffffffffffffff8111828210171561359557613595613543565b60405290565b604051610120810167ffffffffffffffff8111828210171561359557613595613543565b604051601f82017fffffffffffffffffffffffffffffffffffffffffffffffffffffffffffffffe016810167ffffffffffffffff8111828210171561360657613606613543565b604052919050565b803560ff811681146132c657600080fd5b803580151581146132c657600080fd5b600067ffffffffffffffff82111561364957613649613543565b5060051b60200190565b600082601f83011261366457600080fd5b813567ffffffffffffffff81111561367e5761367e613543565b6136af60207fffffffffffffffffffffffffffffffffffffffffffffffffffffffffffffffe0601f840116016135bf565b8181528460208386010111156136c457600080fd5b816020850160208301376000918101602001919091529392505050565b600082601f8301126136f257600080fd5b81356137056137008261362f565b6135bf565b8082825260208201915060208360051b86010192508583111561372757600080fd5b602085015b8381101561381457803567ffffffffffffffff81111561374b57600080fd5b860160e08189037fffffffffffffffffffffffffffffffffffffffffffffffffffffffffffffffe001121561377f57600080fd5b613787613572565b613793602083016132a2565b815260408201356020820152606082013567ffffffffffffffff8111156137b957600080fd5b6137c88a602083860101613653565b604083015250608082013560608201526137e460a0830161361f565b60808201526137f560c0830161361f565b60a082015260e0919091013560c082015283526020928301920161372c565b5095945050505050565b600082601f83011261382f57600080fd5b813561383d6137008261362f565b8082825260208201915060208360051b86010192508583111561385f57600080fd5b602085015b8381101561381457613875816132a2565b835260209283019201613864565b60008060006040848603121561389857600080fd5b833567ffffffffffffffff8111156138af57600080fd5b840161012081870312156138c257600080fd5b6138ca61359b565b6138d38261360e565b81526138e16020830161361f565b6020820152604082013567ffffffffffffffff81111561390057600080fd5b61390c888285016136e1565b604083015250606082810135908201526080808301359082015260a082013567ffffffffffffffff81111561394057600080fd5b61394c88828501613653565b60a08301525060c0828101359082015260e0808301359082015261010082013567ffffffffffffffff81111561398157600080fd5b61398d8882850161381e565b61010083015250935050602084013567ffffffffffffffff8111156133d157600080fd5b600080604083850312156139c457600080fd5b82356139cf816133ea565b91506139dd602084016132a2565b90509250929050565b60008083601f8401126139f857600080fd5b50813567ffffffffffffffff811115613a1057600080fd5b6020830191508360208260051b850101111561332857600080fd5b60008060008060008060008060a0898b031215613a4757600080fd5b613a50896132a2565b9750613a5e60208a016132a2565b9650604089013567ffffffffffffffff811115613a7a57600080fd5b613a868b828c016139e6565b909750955050606089013567ffffffffffffffff811115613aa657600080fd5b613ab28b828c016139e6565b909550935050608089013567ffffffffffffffff811115613ad257600080fd5b613ade8b828c016132e6565b999c989b5096995094979396929594505050565b60008060008060008060a08789031215613b0b57600080fd5b613b14876132a2565b9550613b22602088016132a2565b94506040870135935060608701359250608087013567ffffffffffffffff811115613b4c57600080fd5b613b5889828a016132e6565b979a9699509497509295939492505050565b600080600060608486031215613b7f57600080fd5b83359250613b8f602085016132a2565b915060408401356bffffffffffffffffffffffff81168114613bb057600080fd5b809150509250925092565b60005b83811015613bd6578181015183820152602001613bbe565b50506000910152565b60008151808452613bf7816020860160208601613bbb565b601f017fffffffffffffffffffffffffffffffffffffffffffffffffffffffffffffffe0169290920160200192915050565b600082825180855260208501945060208160051b8301016020850160005b83811015613cf9577fffffffffffffffffffffffffffffffffffffffffffffffffffffffffffffffe0858403018852815173ffffffffffffffffffffffffffffffffffffffff815116845260208101516020850152604081015160e06040860152613cb560e0860182613bdf565b6060838101519087015260808084015115159087015260a08084015115159087015260c0928301519290950191909152506020978801979190910190600101613c47565b50909695505050505050565b600081518084526020840193506020830160005b82811015613d4d57815173ffffffffffffffffffffffffffffffffffffffff16865260209586019590910190600101613d19565b5093949350505050565b805160ff16825260006020820151613d73602085018215159052565b5060408201516101206040850152613d8f610120850182613c29565b9050606083015160608501526080830151608085015260a083015184820360a0860152613dbc8282613bdf565b91505060c083015160c085015260e083015160e0850152610100830151848203610100860152613dec8282613d05565b95945050505050565b8183528181602085013750600060208284010152600060207fffffffffffffffffffffffffffffffffffffffffffffffffffffffffffffffe0601f840116840101905092915050565b604081526000613e516040830186613d57565b8281036020840152613e64818587613df5565b9695505050505050565b7f4e487b7100000000000000000000000000000000000000000000000000000000600052601160045260246000fd5b8181038181111561056c5761056c613e6e565b8082018082111561056c5761056c613e6e565b7f4e487b7100000000000000000000000000000000000000000000000000000000600052603260045260246000fd5b60008085851115613f0257600080fd5b83861115613f0f57600080fd5b5050820193919092039150565b606081526000613f2f6060830186613d57565b60208301949094525060400152919050565b838152826020820152606060408201526000613dec6060830184613bdf565b606081526000613f736060830186613d57565b8460208401528281036040840152613e648185613bdf565b73ffffffffffffffffffffffffffffffffffffffff83168152604060208201526000613fba6040830184613bdf565b949350505050565b60006040828403128015613fd557600080fd5b506040805190810167ffffffffffffffff81118282101715613ff957613ff9613543565b604052825181526020928301519281019290925250919050565b606081526000614027606083018688613df5565b6020830194909452506040015292915050565b838152604060208201526000613dec604083018486613df5565b60006020828403121561406657600080fd5b815161064f816133ea565b6080815260006140846080830188613d57565b86602084015273ffffffffffffffffffffffffffffffffffffffff8616604084015282810360608401526140b9818587613df5565b98975050505050505050565b6000602082840312156140d757600080fd5b5051919050565b6040815260006140f16040830185613bdf565b905073ffffffffffffffffffffffffffffffffffffffff831660208301529392505050565b60008351614128818460208801613bbb565b919091019182525060200191905056fea26469706673582212200bba83a007e55bd08aef9cb5ded4832d03adc33845fadfb7856eb371d97d4ef064736f6c634300081b0033",
  "linkReferences": {},
  "deployedLinkReferences": {}
}