{"abi":[{"type":"constructor","inputs":[{"name":"_entryPoint","type":"address","internalType":"address"}],"stateMutability":"nonpayable"},{"type":"fallback","stateMutability":"payable"},{"type":"receive","stateMutability":"payable"},{"type":"function","name":"addHook","inputs":[{"name":"selector","type":"bytes4","internalType":"bytes4"},{"name":"implementation","type":"address","internalType":"address"}],"outputs":[],"stateMutability":"payable"},{"type":"function","name":"entrypoint","inputs":[],"outputs":[{"name":"","type":"address","internalType":"address"}],"stateMutability":"view"},{"type":"function","name":"estimate","inputs":[{"name":"_payload","type":"bytes","internalType":"bytes"},{"name":"_signature","type":"bytes","internalType":"bytes"}],"outputs":[{"name":"gasUsed","type":"uint256","internalType":"uint256"}],"stateMutability":"payable"},{"type":"function","name":"execute","inputs":[{"name":"_payload","type":"bytes","internalType":"bytes"},{"name":"_signature","type":"bytes","internalType":"bytes"}],"outputs":[],"stateMutability":"payable"},{"type":"function","name":"executeUserOp","inputs":[{"name":"_payload","type":"bytes","internalType":"bytes"}],"outputs":[],"stateMutability":"nonpayable"},{"type":"function","name":"getImplementation","inputs":[],"outputs":[{"name":"","type":"address","internalType":"address"}],"stateMutability":"view"},{"type":"function","name":"getStaticSignature","inputs":[{"name":"_hash","type":"bytes32","internalType":"bytes32"}],"outputs":[{"name":"","type":"address","internalType":"address"},{"name":"","type":"uint256","internalType":"uint256"}],"stateMutability":"view"},{"type":"function","name":"imageHash","inputs":[],"outputs":[{"name":"","type":"bytes32","internalType":"bytes32"}],"stateMutability":"view"},{"type":"function","name":"isValidSignature","inputs":[{"name":"_hash","type":"bytes32","internalType":"bytes32"},{"name":"_signature","type":"bytes","internalType":"bytes"}],"outputs":[{"name":"","type":"bytes4","internalType":"bytes4"}],"stateMutability":"view"},{"type":"function","name":"onERC1155BatchReceived","inputs":[{"name":"","type":"address","internalType":"address"},{"name":"","type":"address","internalType":"address"},{"name":"","type":"uint256[]","internalType":"uint256[]"},{"name":"","type":"uint256[]","internalType":"uint256[]"},{"name":"","type":"bytes","internalType":"bytes"}],"outputs":[{"name":"","type":"bytes4","internalType":"bytes4"}],"stateMutability":"pure"},{"type":"function","name":"onERC1155Received","inputs":[{"name":"","type":"address","internalType":"address"},{"name":"","type":"address","internalType":"address"},{"name":"","type":"uint256","internalType":"uint256"},{"name":"","type":"uint256","internalType":"uint256"},{"name":"","type":"bytes","internalType":"bytes"}],"outputs":[{"name":"","type":"bytes4","internalType":"bytes4"}],"stateMutability":"pure"},{"type":"function","name":"onERC721Received","inputs":[{"name":"","type":"address","internalType":"address"},{"name":"","type":"address","internalType":"address"},{"name":"","type":"uint256","internalType":"uint256"},{"name":"","type":"bytes","internalType":"bytes"}],"outputs":[{"name":"","type":"bytes4","internalType":"bytes4"}],"stateMutability":"pure"},{"type":"function","name":"readHook","inputs":[{"name":"selector","type":"bytes4","internalType":"bytes4"}],"outputs":[{"name":"","type":"address","internalType":"address"}],"stateMutability":"view"},{"type":"function","name":"readNonce","inputs":[{"name":"_space","type":"uint256","internalType":"uint256"}],"outputs":[{"name":"","type":"uint256","internalType":"uint256"}],"stateMutability":"view"},{"type":"function","name":"recoverPartialSignature","inputs":[{"name":"_payload","type":"tuple","internalType":"struct Payload.Decoded","components":[{"name":"kind","type":"uint8","internalType":"uint8"},{"name":"noChainId","type":"bool","internalType":"bool"},{"name":"calls","type":"tuple[]","internalType":"struct Payload.Call[]","components":[{"name":"to","type":"address","internalType":"address"},{"name":"value","type":"uint256","internalType":"uint256"},{"name":"data","type":"bytes","internalType":"bytes"},{"name":"gasLimit","type":"uint256","internalType":"uint256"},{"name":"delegateCall","type":"bool","internalType":"bool"},{"name":"onlyFallback","type":"bool","internalType":"bool"},{"name":"behaviorOnError","type":"uint256","internalType":"uint256"}]},{"name":"space","type":"uint256","internalType":"uint256"},{"name":"nonce","type":"uint256","internalType":"uint256"},{"name":"message","type":"bytes","internalType":"bytes"},{"name":"imageHash","type":"bytes32","internalType":"bytes32"},{"name":"digest","type":"bytes32","internalType":"bytes32"},{"name":"parentWallets","type":"address[]","internalType":"address[]"}]},{"name":"_signature","type":"bytes","internalType":"bytes"}],"outputs":[{"name":"threshold","type":"uint256","internalType":"uint256"},{"name":"weight","type":"uint256","internalType":"uint256"},{"name":"isValidImage","type":"bool","internalType":"bool"},{"name":"imageHash","type":"bytes32","internalType":"bytes32"},{"name":"checkpoint","type":"uint256","internalType":"uint256"},{"name":"opHash","type":"bytes32","internalType":"bytes32"}],"stateMutability":"view"},{"type":"function","name":"recoverSapientSignature","inputs":[{"name":"_payload","type":"tuple","internalType":"struct Payload.Decoded","components":[{"name":"kind","type":"uint8","internalType":"uint8"},{"name":"noChainId","type":"bool","internalType":"bool"},{"name":"calls","type":"tuple[]","internalType":"struct Payload.Call[]","components":[{"name":"to","type":"address","internalType":"address"},{"name":"value","type":"uint256","internalType":"uint256"},{"name":"data","type":"bytes","internalType":"bytes"},{"name":"gasLimit","type":"uint256","internalType":"uint256"},{"name":"delegateCall","type":"bool","internalType":"bool"},{"name":"onlyFallback","type":"bool","internalType":"bool"},{"name":"behaviorOnError","type":"uint256","internalType":"uint256"}]},{"name":"space","type":"uint256","internalType":"uint256"},{"name":"nonce","type":"uint256","internalType":"uint256"},{"name":"message","type":"bytes","internalType":"bytes"},{"name":"imageHash","type":"bytes32","internalType":"bytes32"},{"name":"digest","type":"bytes32","internalType":"bytes32"},{"name":"parentWallets","type":"address[]","internalType":"address[]"}]},{"name":"_signature","type":"bytes","internalType":"bytes"}],"outputs":[{"name":"","type":"bytes32","internalType":"bytes32"}],"stateMutability":"view"},{"type":"function","name":"removeHook","inputs":[{"name":"selector","type":"bytes4","internalType":"bytes4"}],"outputs":[],"stateMutability":"payable"},{"type":"function","name":"selfExecute","inputs":[{"name":"_payload","type":"bytes","internalType":"bytes"}],"outputs":[],"stateMutability":"payable"},{"type":"function","name":"setStaticSignature","inputs":[{"name":"_hash","type":"bytes32","internalType":"bytes32"},{"name":"_address","type":"address","internalType":"address"},{"name":"_timestamp","type":"uint96","internalType":"uint96"}],"outputs":[],"stateMutability":"nonpayable"},{"type":"function","name":"tokenReceived","inputs":[{"name":"","type":"address","internalType":"address"},{"name":"","type":"uint256","internalType":"uint256"},{"name":"","type":"bytes","internalType":"bytes"}],"outputs":[{"name":"","type":"bytes4","internalType":"bytes4"}],"stateMutability":"pure"},{"type":"function","name":"tokensReceived","inputs":[{"name":"operator","type":"address","internalType":"address"},{"name":"from","type":"address","internalType":"address"},{"name":"to","type":"address","internalType":"address"},{"name":"amount","type":"uint256","internalType":"uint256"},{"name":"data","type":"bytes","internalType":"bytes"},{"name":"operatorData","type":"bytes","internalType":"bytes"}],"outputs":[],"stateMutability":"nonpayable"},{"type":"function","name":"updateImageHash","inputs":[{"name":"_imageHash","type":"bytes32","internalType":"bytes32"}],"outputs":[],"stateMutability":"nonpayable"},{"type":"function","name":"updateImplementation","inputs":[{"name":"_implementation","type":"address","internalType":"address"}],"outputs":[],"stateMutability":"payable"},{"type":"function","name":"validateUserOp","inputs":[{"name":"userOp","type":"tuple","internalType":"struct PackedUserOperation","components":[{"name":"sender","type":"address","internalType":"address"},{"name":"nonce","type":"uint256","internalType":"uint256"},{"name":"initCode","type":"bytes","internalType":"bytes"},{"name":"callData","type":"bytes","internalType":"bytes"},{"name":"accountGasLimits","type":"bytes32","internalType":"bytes32"},{"name":"preVerificationGas","type":"uint256","internalType":"uint256"},{"name":"gasFees","type":"bytes32","internalType":"bytes32"},{"name":"paymasterAndData","type":"bytes","internalType":"bytes"},{"name":"signature","type":"bytes","internalType":"bytes"}]},{"name":"userOpHash","type":"bytes32","internalType":"bytes32"},{"name":"missingAccountFunds","type":"uint256","internalType":"uint256"}],"outputs":[{"name":"validationData","type":"uint256","internalType":"uint256"}],"stateMutability":"nonpayable"},{"type":"event","name":"CallAborted","inputs":[{"name":"_opHash","type":"bytes32","indexed":false,"internalType":"bytes32"},{"name":"_index","type":"uint256","indexed":false,"internalType":"uint256"},{"name":"_returnData","type":"bytes","indexed":false,"internalType":"bytes"}],"anonymous":false},{"type":"event","name":"CallFailed","inputs":[{"name":"_opHash","type":"bytes32","indexed":false,"internalType":"bytes32"},{"name":"_index","type":"uint256","indexed":false,"internalType":"uint256"},{"name":"_returnData","type":"bytes","indexed":false,"internalType":"bytes"}],"anonymous":false},{"type":"event","name":"CallSkipped","inputs":[{"name":"_opHash","type":"bytes32","indexed":false,"internalType":"bytes32"},{"name":"_index","type":"uint256","indexed":false,"internalType":"uint256"}],"anonymous":false},{"type":"event","name":"CallSucceeded","inputs":[{"name":"_opHash","type":"bytes32","indexed":false,"internalType":"bytes32"},{"name":"_index","type":"uint256","indexed":false,"internalType":"uint256"}],"anonymous":false},{"type":"event","name":"DefinedHook","inputs":[{"name":"selector","type":"bytes4","indexed":false,"internalType":"bytes4"},{"name":"implementation","type":"address","indexed":false,"internalType":"address"}],"anonymous":false},{"type":"event","name":"ImageHashUpdated","inputs":[{"name":"newImageHash","type":"bytes32","indexed":false,"internalType":"bytes32"}],"anonymous":false},{"type":"event","name":"ImplementationUpdated","inputs":[{"name":"newImplementation","type":"address","indexed":false,"internalType":"address"}],"anonymous":false},{"type":"event","name":"NonceChange","inputs":[{"name":"_space","type":"uint256","indexed":false,"internalType":"uint256"},{"name":"_newNonce","type":"uint256","indexed":false,"internalType":"uint256"}],"anonymous":false},{"type":"event","name":"StaticSignatureSet","inputs":[{"name":"_hash","type":"bytes32","indexed":false,"internalType":"bytes32"},{"name":"_address","type":"address","indexed":false,"internalType":"address"},{"name":"_timestamp","type":"uint96","indexed":false,"internalType":"uint96"}],"anonymous":false},{"type":"error","name":"BadNonce","inputs":[{"name":"_space","type":"uint256","internalType":"uint256"},{"name":"_provided","type":"uint256","internalType":"uint256"},{"name":"_current","type":"uint256","internalType":"uint256"}]},{"type":"error","name":"ERC4337Disabled","inputs":[]},{"type":"error","name":"HookAlreadyExists","inputs":[{"name":"selector","type":"bytes4","internalType":"bytes4"}]},{"type":"error","name":"HookDoesNotExist","inputs":[{"name":"selector","type":"bytes4","internalType":"bytes4"}]},{"type":"error","name":"ImageHashIsZero","inputs":[]},{"type":"error","name":"InvalidERC1271Signature","inputs":[{"name":"_opHash","type":"bytes32","internalType":"bytes32"},{"name":"_signer","type":"address","internalType":"address"},{"name":"_signature","type":"bytes","internalType":"bytes"}]},{"type":"error","name":"InvalidEntryPoint","inputs":[{"name":"_entrypoint","type":"address","internalType":"address"}]},{"type":"error","name":"InvalidKind","inputs":[{"name":"kind","type":"uint8","internalType":"uint8"}]},{"type":"error","name":"InvalidSapientSignature","inputs":[{"name":"_payload","type":"tuple","internalType":"struct Payload.Decoded","components":[{"name":"kind","type":"uint8","internalType":"uint8"},{"name":"noChainId","type":"bool","internalType":"bool"},{"name":"calls","type":"tuple[]","internalType":"struct Payload.Call[]","components":[{"name":"to","type":"address","internalType":"address"},{"name":"value","type":"uint256","internalType":"uint256"},{"name":"data","type":"bytes","internalType":"bytes"},{"name":"gasLimit","type":"uint256","internalType":"uint256"},{"name":"delegateCall","type":"bool","internalType":"bool"},{"name":"onlyFallback","type":"bool","internalType":"bool"},{"name":"behaviorOnError","type":"uint256","internalType":"uint256"}]},{"name":"space","type":"uint256","internalType":"uint256"},{"name":"nonce","type":"uint256","internalType":"uint256"},{"name":"message","type":"bytes","internalType":"bytes"},{"name":"imageHash","type":"bytes32","internalType":"bytes32"},{"name":"digest","type":"bytes32","internalType":"bytes32"},{"name":"parentWallets","type":"address[]","internalType":"address[]"}]},{"name":"_signature","type":"bytes","internalType":"bytes"}]},{"type":"error","name":"InvalidSignature","inputs":[{"name":"_payload","type":"tuple","internalType":"struct Payload.Decoded","components":[{"name":"kind","type":"uint8","internalType":"uint8"},{"name":"noChainId","type":"bool","internalType":"bool"},{"name":"calls","type":"tuple[]","internalType":"struct Payload.Call[]","components":[{"name":"to","type":"address","internalType":"address"},{"name":"value","type":"uint256","internalType":"uint256"},{"name":"data","type":"bytes","internalType":"bytes"},{"name":"gasLimit","type":"uint256","internalType":"uint256"},{"name":"delegateCall","type":"bool","internalType":"bool"},{"name":"onlyFallback","type":"bool","internalType":"bool"},{"name":"behaviorOnError","type":"uint256","internalType":"uint256"}]},{"name":"space","type":"uint256","internalType":"uint256"},{"name":"nonce","type":"uint256","internalType":"uint256"},{"name":"message","type":"bytes","internalType":"bytes"},{"name":"imageHash","type":"bytes32","internalType":"bytes32"},{"name":"digest","type":"bytes32","internalType":"bytes32"},{"name":"parentWallets","type":"address[]","internalType":"address[]"}]},{"name":"_signature","type":"bytes","internalType":"bytes"}]},{"type":"error","name":"InvalidSignatureFlag","inputs":[{"name":"_flag","type":"uint256","internalType":"uint256"}]},{"type":"error","name":"InvalidSignatureWeight","inputs":[{"name":"_threshold","type":"uint256","internalType":"uint256"},{"name":"_weight","type":"uint256","internalType":"uint256"}]},{"type":"error","name":"InvalidStaticSignatureExpired","inputs":[{"name":"_opHash","type":"bytes32","internalType":"bytes32"},{"name":"_expires","type":"uint256","internalType":"uint256"}]},{"type":"error","name":"InvalidStaticSignatureWrongCaller","inputs":[{"name":"_opHash","type":"bytes32","internalType":"bytes32"},{"name":"_caller","type":"address","internalType":"address"},{"name":"_expectedCaller","type":"address","internalType":"address"}]},{"type":"error","name":"LowWeightChainedSignature","inputs":[{"name":"_signature","type":"bytes","internalType":"bytes"},{"name":"_threshold","type":"uint256","internalType":"uint256"},{"name":"_weight","type":"uint256","internalType":"uint256"}]},{"type":"error","name":"NotEnoughGas","inputs":[{"name":"_payload","type":"tuple","internalType":"struct Payload.Decoded","components":[{"name":"kind","type":"uint8","internalType":"uint8"},{"name":"noChainId","type":"bool","internalType":"bool"},{"name":"calls","type":"tuple[]","internalType":"struct Payload.Call[]","components":[{"name":"to","type":"address","internalType":"address"},{"name":"value","type":"uint256","internalType":"uint256"},{"name":"data","type":"bytes","internalType":"bytes"},{"name":"gasLimit","type":"uint256","internalType":"uint256"},{"name":"delegateCall","type":"bool","internalType":"bool"},{"name":"onlyFallback","type":"bool","internalType":"bool"},{"name":"behaviorOnError","type":"uint256","internalType":"uint256"}]},{"name":"space","type":"uint256","internalType":"uint256"},{"name":"nonce","type":"uint256","internalType":"uint256"},{"name":"message","type":"bytes","internalType":"bytes"},{"name":"imageHash","type":"bytes32","internalType":"bytes32"},{"name":"digest","type":"bytes32","internalType":"bytes32"},{"name":"parentWallets","type":"address[]","internalType":"address[]"}]},{"name":"_index","type":"uint256","internalType":"uint256"},{"name":"_gasLeft","type":"uint256","internalType":"uint256"}]},{"type":"error","name":"OnlySelf","inputs":[{"name":"_sender","type":"address","internalType":"address"}]},{"type":"error","name":"ReentrantCall","inputs":[]},{"type":"error","name":"Reverted","inputs":[{"name":"_payload","type":"tuple","internalType":"struct Payload.Decoded","components":[{"name":"kind","type":"uint8","internalType":"uint8"},{"name":"noChainId","type":"bool","internalType":"bool"},{"name":"calls","type":"tuple[]","internalType":"struct Payload.Call[]","components":[{"name":"to","type":"address","internalType":"address"},{"name":"value","type":"uint256","internalType":"uint256"},{"name":"data","type":"bytes","internalType":"bytes"},{"name":"gasLimit","type":"uint256","internalType":"uint256"},{"name":"delegateCall","type":"bool","internalType":"bool"},{"name":"onlyFallback","type":"bool","internalType":"bool"},{"name":"behaviorOnError","type":"uint256","internalType":"uint256"}]},{"name":"space","type":"uint256","internalType":"uint256"},{"name":"nonce","type":"uint256","internalType":"uint256"},{"name":"message","type":"bytes","internalType":"bytes"},{"name":"imageHash","type":"bytes32","internalType":"bytes32"},{"name":"digest","type":"bytes32","internalType":"bytes32"},{"name":"parentWallets","type":"address[]","internalType":"address[]"}]},{"name":"_index","type":"uint256","internalType":"uint256"},{"name":"_returnData","type":"bytes","internalType":"bytes"}]},{"type":"error","name":"UnusedSnapshot","inputs":[{"name":"_snapshot","type":"tuple","internalType":"struct Snapshot","components":[{"name":"imageHash","type":"bytes32","internalType":"bytes32"},{"name":"checkpoint","type":"uint256","internalType":"uint256"}]}]},{"type":"error","name":"WrongChainedCheckpointOrder","inputs":[{"name":"_nextCheckpoint","type":"uint256","internalType":"uint256"},{"name":"_checkpoint","type":"uint256","internalType":"uint256"}]}],"bytecode":{"object":"0x60a034607457601f613ff038819003918201601f19168301916001600160401b03831184841017607957808492602094604052833981010312607457516001600160a01b0381168103607457608052604051613f60908161009082396080518181816111fc015281816113630152611be90152f35b600080fd5b634e487b7160e01b600052604160045260246000fdfe6080604052600436101561001e575b361561001c5761001c611db1565b005b60003560e01c806223de291461019d578063025b22bc1461019857806313792a4a14610193578063150b7a021461018e5780631626ba7e1461018957806319822f7c146101845780631a9b23371461017f5780631f6a1eb91461017a57806329561426146101755780634fcf3eca1461017057806351605d801461016b5780636ea44577146101665780638943ec02146101615780638c3f55631461015c57806392dcb3fc14610157578063975befdb146101525780639c145aed1461014d578063a65d69d414610148578063aaf10f4214610143578063ad55366b1461013e578063b93ea7ad14610139578063bc197c8114610134578063f23a6e611461012f5763f727ef1c0361000e576116d9565b61164c565b61157a565b61141b565b6113d8565b611387565b611318565b611189565b61107b565b61101d565b610fe1565b610f5d565b610f2e565b610e8a565b610d6e565b610cb5565b610b98565b610ac9565b610a14565b61098c565b6108ff565b610802565b6102eb565b61025f565b6004359073ffffffffffffffffffffffffffffffffffffffff821682036101c557565b600080fd5b6024359073ffffffffffffffffffffffffffffffffffffffff821682036101c557565b6044359073ffffffffffffffffffffffffffffffffffffffff821682036101c557565b359073ffffffffffffffffffffffffffffffffffffffff821682036101c557565b9181601f840112156101c55782359167ffffffffffffffff83116101c557602083818601950101116101c557565b346101c55760c07ffffffffffffffffffffffffffffffffffffffffffffffffffffffffffffffffc3601126101c5576102966101a2565b5061029f6101ca565b506102a86101ed565b5060843567ffffffffffffffff81116101c5576102c9903690600401610231565b505060a43567ffffffffffffffff81116101c55761001c903690600401610231565b60207ffffffffffffffffffffffffffffffffffffffffffffffffffffffffffffffffc3601126101c55761031d6101a2565b30330361036a576020817f310ba5f1d2ed074b51e2eccd052a47ae9ab7c6b800d1fca3db3999d6a592ca0392305573ffffffffffffffffffffffffffffffffffffffff60405191168152a1005b7fa19dbf00000000000000000000000000000000000000000000000000000000006000523360045260246000fd5b7f4e487b7100000000000000000000000000000000000000000000000000000000600052604160045260246000fd5b60e0810190811067ffffffffffffffff8211176103e357604052565b610398565b6040810190811067ffffffffffffffff8211176103e357604052565b90601f7fffffffffffffffffffffffffffffffffffffffffffffffffffffffffffffffe0910116810190811067ffffffffffffffff8211176103e357604052565b6040519061045460e083610404565b565b6040519061045461012083610404565b359060ff821682036101c557565b359081151582036101c557565b67ffffffffffffffff81116103e35760051b60200190565b67ffffffffffffffff81116103e357601f017fffffffffffffffffffffffffffffffffffffffffffffffffffffffffffffffe01660200190565b9291926104df82610499565b916104ed6040519384610404565b8294818452818301116101c5578281602093846000960137010152565b9080601f830112156101c557816020610525933591016104d3565b90565b81601f820112156101c55780359061053f82610481565b9261054d6040519485610404565b82845260208085019360051b830101918183116101c55760208101935b83851061057957505050505090565b843567ffffffffffffffff81116101c557820160e07fffffffffffffffffffffffffffffffffffffffffffffffffffffffffffffffe082860301126101c5576105c0610445565b916105cd60208301610210565b83526040820135602084015260608201359267ffffffffffffffff84116101c55760e08361060288602080988198010161050a565b60408401526080810135606084015261061d60a08201610474565b608084015261062e60c08201610474565b60a0840152013560c082015281520194019361056a565b9080601f830112156101c557813561065c81610481565b9261066a6040519485610404565b81845260208085019260051b8201019283116101c557602001905b8282106106925750505090565b6020809161069f84610210565b815201910190610685565b9060407ffffffffffffffffffffffffffffffffffffffffffffffffffffffffffffffffc8301126101c55760043567ffffffffffffffff81116101c5576101207ffffffffffffffffffffffffffffffffffffffffffffffffffffffffffffffffc82850301126101c55761071c610456565b9061072981600401610466565b825261073760248201610474565b6020830152604481013567ffffffffffffffff81116101c55784600461075f92840101610528565b6040830152606481013560608301526084810135608083015260a481013567ffffffffffffffff81116101c55784600461079b9284010161050a565b60a083015260c481013560c083015260e481013560e083015261010481013567ffffffffffffffff81116101c557600485916107d8930101610645565b610100820152916024359067ffffffffffffffff82116101c5576107fe91600401610231565b9091565b346101c557610810366106aa565b909161010081019261082b6108268551516117e1565b6117fc565b9160005b85518051821015610892579061088c61086761084d8360019561187a565b5173ffffffffffffffffffffffffffffffffffffffff1690565b610871838861187a565b9073ffffffffffffffffffffffffffffffffffffffff169052565b0161082f565b50508383866108a7336108718351518561187a565b526108b3818484611e83565b50156108c55760405160018152602090f35b6108fb906040519384937ff58cc8b500000000000000000000000000000000000000000000000000000000855260048501611ad5565b0390fd5b346101c55760807ffffffffffffffffffffffffffffffffffffffffffffffffffffffffffffffffc3601126101c5576109366101a2565b5061093f6101ca565b5060643567ffffffffffffffff81116101c557610960903690600401610231565b505060206040517f150b7a02000000000000000000000000000000000000000000000000000000008152f35b346101c55760407ffffffffffffffffffffffffffffffffffffffffffffffffffffffffffffffffc3601126101c55760043560243567ffffffffffffffff81116101c5576020916109e46109ea923690600401610231565b91611afa565b7fffffffff0000000000000000000000000000000000000000000000000000000060405191168152f35b346101c55760607ffffffffffffffffffffffffffffffffffffffffffffffffffffffffffffffffc3601126101c55760043567ffffffffffffffff81116101c5576101207ffffffffffffffffffffffffffffffffffffffffffffffffffffffffffffffffc82360301126101c557610a9760209160243560443591600401611bcf565b604051908152f35b7fffffffff000000000000000000000000000000000000000000000000000000008116036101c557565b346101c55760207ffffffffffffffffffffffffffffffffffffffffffffffffffffffffffffffffc3601126101c5576020610b0e600435610b0981610a9f565b61205f565b73ffffffffffffffffffffffffffffffffffffffff60405191168152f35b60407ffffffffffffffffffffffffffffffffffffffffffffffffffffffffffffffffc8201126101c55760043567ffffffffffffffff81116101c55781610b7591600401610231565b929092916024359067ffffffffffffffff82116101c5576107fe91600401610231565b610ba136610b2c565b90929160027ffc6e07e3992c7c3694a921dc9e412b6cfe475380556756a19805a9e3ddfe2fde5414610c8b57610bfc9060027ffc6e07e3992c7c3694a921dc9e412b6cfe475380556756a19805a9e3ddfe2fde555a93612194565b91610c106060840151608085015190612458565b610c1b828585611e83565b929015610c535750610c2d93506125b1565b60017ffc6e07e3992c7c3694a921dc9e412b6cfe475380556756a19805a9e3ddfe2fde55005b836108fb86926040519384937fa2b6d61b00000000000000000000000000000000000000000000000000000000855260048501611ad5565b7f37ed32e80000000000000000000000000000000000000000000000000000000060005260046000fd5b346101c55760207ffffffffffffffffffffffffffffffffffffffffffffffffffffffffffffffffc3601126101c55760043530330361036a578015610d44576020817f307ed6bd941ee9fc80f369c94af5fa11e25bab5102a6140191756c5474a30bfa927fea7157fa25e3aa17d0ae2d5280fa4e24d421c61842aa85e45194e1145aa72bf855604051908152a1005b7f4294d1270000000000000000000000000000000000000000000000000000000060005260046000fd5b60207ffffffffffffffffffffffffffffffffffffffffffffffffffffffffffffffffc3601126101c557600435610da481610a9f565b30330361036a5773ffffffffffffffffffffffffffffffffffffffff610dc98261205f565b1615610e2f5760407fffffffff000000000000000000000000000000000000000000000000000000007f0d7fc113eaf016db4681a1ba86d083ce3e0961f321062a75ac2b0aeb33deeed19216610e20600082612e09565b815190815260006020820152a1005b7fffffffff00000000000000000000000000000000000000000000000000000000907f1c3812cc000000000000000000000000000000000000000000000000000000006000521660045260246000fd5b60009103126101c557565b346101c55760007ffffffffffffffffffffffffffffffffffffffffffffffffffffffffffffffffc3601126101c55760207fea7157fa25e3aa17d0ae2d5280fa4e24d421c61842aa85e45194e1145aa72bf854604051908152f35b60207ffffffffffffffffffffffffffffffffffffffffffffffffffffffffffffffffc8201126101c5576004359067ffffffffffffffff82116101c5576107fe91600401610231565b610f3736610ee5565b9030330361036a57610f4d61001c925a92612194565b90610f57826128d5565b906125b1565b346101c55760607ffffffffffffffffffffffffffffffffffffffffffffffffffffffffffffffffc3601126101c557610f946101a2565b5060443567ffffffffffffffff81116101c557610fb5903690600401610231565b505060206040517f8943ec02000000000000000000000000000000000000000000000000000000008152f35b346101c55760207ffffffffffffffffffffffffffffffffffffffffffffffffffffffffffffffffc3601126101c5576020610a97600435612969565b346101c55760207ffffffffffffffffffffffffffffffffffffffffffffffffffffffffffffffffc3601126101c55760406110596004356129af565b73ffffffffffffffffffffffffffffffffffffffff8351921682526020820152f35b61108436610b2c565b909160027ffc6e07e3992c7c3694a921dc9e412b6cfe475380556756a19805a9e3ddfe2fde5414610c8b576110de9060027ffc6e07e3992c7c3694a921dc9e412b6cfe475380556756a19805a9e3ddfe2fde555a94612194565b916110f660608401516110f081612969565b90612458565b611101828285611e83565b92901561115257846111148585836125b1565b5a810390811161114d5760017ffc6e07e3992c7c3694a921dc9e412b6cfe475380556756a19805a9e3ddfe2fde55604051908152602090f35b6117b2565b6108fb84916040519384937fa2b6d61b00000000000000000000000000000000000000000000000000000000855260048501611ad5565b346101c55761119736610ee5565b9060027ffc6e07e3992c7c3694a921dc9e412b6cfe475380556756a19805a9e3ddfe2fde5414610c8b5760027ffc6e07e3992c7c3694a921dc9e412b6cfe475380556756a19805a9e3ddfe2fde5573ffffffffffffffffffffffffffffffffffffffff7f00000000000000000000000000000000000000000000000000000000000000001680156112ee5733036112c057303b156101c55761126a9160009160405193849283927f6ea4457700000000000000000000000000000000000000000000000000000000845260048401611d70565b038183305af180156112bb576112a05760017ffc6e07e3992c7c3694a921dc9e412b6cfe475380556756a19805a9e3ddfe2fde55005b806112af60006112b593610404565b80610e7f565b38610c2d565b611b46565b7f1d6ddbf4000000000000000000000000000000000000000000000000000000006000523360045260246000fd5b7fd13d78350000000000000000000000000000000000000000000000000000000060005260046000fd5b346101c55760007ffffffffffffffffffffffffffffffffffffffffffffffffffffffffffffffffc3601126101c557602060405173ffffffffffffffffffffffffffffffffffffffff7f0000000000000000000000000000000000000000000000000000000000000000168152f35b346101c55760007ffffffffffffffffffffffffffffffffffffffffffffffffffffffffffffffffc3601126101c5576020305473ffffffffffffffffffffffffffffffffffffffff60405191168152f35b346101c55760c06113f46000806113ee366106aa565b91612a77565b926040929192519485526020850152600160408501526060840152608083015260a0820152f35b60407ffffffffffffffffffffffffffffffffffffffffffffffffffffffffffffffffc3601126101c55760043561145181610a9f565b6114596101ca565b9030330361036a5773ffffffffffffffffffffffffffffffffffffffff61147f8261205f565b166114f9577f0d7fc113eaf016db4681a1ba86d083ce3e0961f321062a75ac2b0aeb33deeed19173ffffffffffffffffffffffffffffffffffffffff7fffffffff000000000000000000000000000000000000000000000000000000006040931691166114ec8183612e09565b82519182526020820152a1005b7fffffffff00000000000000000000000000000000000000000000000000000000907f5b4d6d6a000000000000000000000000000000000000000000000000000000006000521660045260246000fd5b9181601f840112156101c55782359167ffffffffffffffff83116101c5576020808501948460051b0101116101c557565b346101c55760a07ffffffffffffffffffffffffffffffffffffffffffffffffffffffffffffffffc3601126101c5576115b16101a2565b506115ba6101ca565b5060443567ffffffffffffffff81116101c5576115db903690600401611549565b505060643567ffffffffffffffff81116101c5576115fd903690600401611549565b505060843567ffffffffffffffff81116101c55761161f903690600401610231565b50506040517fbc197c81000000000000000000000000000000000000000000000000000000008152602090f35b346101c55760a07ffffffffffffffffffffffffffffffffffffffffffffffffffffffffffffffffc3601126101c5576116836101a2565b5061168c6101ca565b5060843567ffffffffffffffff81116101c5576116ad903690600401610231565b505060206040517ff23a6e61000000000000000000000000000000000000000000000000000000008152f35b346101c55760607ffffffffffffffffffffffffffffffffffffffffffffffffffffffffffffffffc3601126101c5576004356117136101ca565b604435916bffffffffffffffffffffffff83168093036101c55730330361036a578273ffffffffffffffffffffffffffffffffffffffff8361179e7febf265acfac1c01de588ed7ef49743b9c3ce8d6d1edeaf510a1f5453228515b1967fffffffffffffffffffffffffffffffffffffffff000000000000000000000000606097881b161785612dc4565b6040519384521660208301526040820152a1005b7f4e487b7100000000000000000000000000000000000000000000000000000000600052601160045260246000fd5b906001820180921161114d57565b9190820180921161114d57565b9061180682610481565b6118136040519182610404565b8281527fffffffffffffffffffffffffffffffffffffffffffffffffffffffffffffffe06118418294610481565b0190602036910137565b7f4e487b7100000000000000000000000000000000000000000000000000000000600052603260045260246000fd5b805182101561188e5760209160051b010190565b61184b565b919082519283825260005b8481106118dd5750507fffffffffffffffffffffffffffffffffffffffffffffffffffffffffffffffe0601f8460006020809697860101520116010190565b8060208092840101518282860101520161189e565b9080602083519182815201916020808360051b8301019401926000915b83831061191e57505050505090565b9091929394602080827fffffffffffffffffffffffffffffffffffffffffffffffffffffffffffffffe0856001950301865288519073ffffffffffffffffffffffffffffffffffffffff8251168152828201518382015260c080611991604085015160e0604086015260e0850190611893565b936060810151606085015260808101511515608085015260a0810151151560a085015201519101529701930193019193929061190f565b906020808351928381520192019060005b8181106119e65750505090565b825173ffffffffffffffffffffffffffffffffffffffff168452602093840193909201916001016119d9565b805160ff16825261052591602082810151151590820152610100611a70611a4a604085015161012060408601526101208501906118f2565b606085015160608501526080850151608085015260a085015184820360a0860152611893565b9260c081015160c084015260e081015160e08401520151906101008184039101526119c8565b601f82602094937fffffffffffffffffffffffffffffffffffffffffffffffffffffffffffffffe0938186528686013760008582860101520116010190565b91611aec6105259492604085526040850190611a12565b926020818503910152611a96565b90611b179291611b08612004565b906003825260e0820152611e83565b5015611b41577f1626ba7e0000000000000000000000000000000000000000000000000000000090565b600090565b6040513d6000823e3d90fd5b9035907fffffffffffffffffffffffffffffffffffffffffffffffffffffffffffffffe1813603018212156101c5570180359067ffffffffffffffff82116101c5576020019181360383136101c557565b908160209103126101c5575161052581610a9f565b604090610525949281528160208201520191611a96565b91909173ffffffffffffffffffffffffffffffffffffffff7f0000000000000000000000000000000000000000000000000000000000000000169182156112ee578233036112c05780611d01575b506020915080610100611c31920190611b52565b92611c6960405194859384937f1626ba7e00000000000000000000000000000000000000000000000000000000855260048501611bb8565b0381305afa9081156112bb577f1626ba7e00000000000000000000000000000000000000000000000000000000917fffffffff0000000000000000000000000000000000000000000000000000000091600091611cd2575b501603611ccd57600090565b600190565b611cf4915060203d602011611cfa575b611cec8183610404565b810190611ba3565b38611cc1565b503d611ce2565b823b156101c5576040517fb760faf900000000000000000000000000000000000000000000000000000000815230600482015292600091849160249183915af19081156112bb57602092611c3192611d5b575b5090611c1d565b806112af6000611d6a93610404565b38611d54565b916020610525938181520191611a96565b3d15611dac573d90611d9282610499565b91611da06040519384610404565b82523d6000602084013e565b606090565b600436108015611dbe5750565b611df4906000357fffffffff00000000000000000000000000000000000000000000000000000000811691611e46575b5061205f565b73ffffffffffffffffffffffffffffffffffffffff8116611e125750565b60008091604051368382378036810184815203915af4611e30611d81565b9015611e3e57602081519101f35b602081519101fd5b7fffffffff000000000000000000000000000000000000000000000000000000008092503660040360031b1b161638611dee565b901561188e5790565b91907f800000000000000000000000000000000000000000000000000000000000000080611eda611eb48585611e7a565b357fff000000000000000000000000000000000000000000000000000000000000001690565b1614611f30576000918291611eee94612a77565b91505091808210611f00575050600191565b7ffd41fcba0000000000000000000000000000000000000000000000000000000060005260045260245260446000fd5b5050611f3b906128d5565b90611f45826129af565b42811115611fd2575073ffffffffffffffffffffffffffffffffffffffff81168015159081611fc7575b50611f7b575060019190565b7f8945c3130000000000000000000000000000000000000000000000000000000060005260048390523360245273ffffffffffffffffffffffffffffffffffffffff1660445260646000fd5b905033141538611f6f565b7ff95b6ab700000000000000000000000000000000000000000000000000000000600052600484905260245260446000fd5b60405190610120820182811067ffffffffffffffff8211176103e3576040526060610100836000815260006020820152826040820152600083820152600060808201528260a0820152600060c0820152600060e08201520152565b73ffffffffffffffffffffffffffffffffffffffff906040517fffffffff0000000000000000000000000000000000000000000000000000000060208201927fbe27a319efc8734e89e26ba4bc95f5c788584163b959f03fa04e2d7ab4b9a1208452166040820152604081526120d6606082610404565b519020541690565b906120e882610481565b6120f56040519182610404565b8281527fffffffffffffffffffffffffffffffffffffffffffffffffffffffffffffffe06121238294610481565b019060005b82811061213457505050565b602090604051612143816103c7565b60008152600083820152606060408201526000606082015260006080820152600060a0820152600060c082015282828501015201612128565b909392938483116101c55784116101c5578101920390565b91909161219f612004565b6000815292600190823560f81c827fffffffffffffffffffffffffffffffffffffffffffffffffffffffffffffffff818316016124415750600060608701525b60076121ee60ff831660011c90565b16806123f0575b506010818116036123bb57506001925b61220e846120de565b92604087019384526000905b85821061222957505050505050565b8281013560f81c90600101909181600180851603612399575061226d3061225183895161187a565b519073ffffffffffffffffffffffffffffffffffffffff169052565b600280841614612379575b60048084161461232b575b6008808416146122f8575b6122e16122db60c0856122ba8a60806122b18860108060019c9d1614935161187a565b51019015159052565b6122d18a60a06122b188602080871614935161187a565b1660061c60031690565b60ff1690565b60c06122ee83895161187a565b510152019061221a565b6001916122e1906122db9060c09087810135906020019690606061231d878d5161187a565b51015295945050505061228e565b90612373908481013560e81c9060030161236c61235361234b84846117ef565b838a8a61217c565b91906040612362888d5161187a565b51019236916104d3565b90526117ef565b90612283565b9083810135906020019190602061239183895161187a565b510152612278565b6123b692508481013560601c90601401929061225183895161187a565b61226d565b6020908116036123dd5761ffff918381013560f01c906002015b921692612205565b60ff918381013560f81c906001016123d5565b612434919385929190928160031b7fffffffffffffffffffffffffffffffffffffffffffffffffffffffffffffffff6001821b019185013590610100031c16920190565b92906080870152386121f5565b80850135606090811c9088015260140192506121df565b9061246282612969565b8181036124e857509060017f1f180c27086c7a39ea2a7b25239d1ab92348f07ca7bb59d1438fcf527568f8819201908160405160208101907f8d0bf1fd623d628c741362c1289948e57b3e2905218c676d3e69abee36d6ae2e8252836040820152604081526124d2606082610404565b51902055604080519182526020820192909252a1565b917f9b6514f40000000000000000000000000000000000000000000000000000000060005260045260245260445260646000fd5b61253460409295949395606083526060830190611a12565b9460208201520152565b9261052596959260c09592855260208501526040840152606083015260808201528160a08201520190611893565b6105259392606092825260208201528160408201520190611893565b61259e6105259492606083526060830190611a12565b9260208201526040818403910152611893565b916000604082019384515190825b8281106125d0575b50505050505050565b6125db81885161187a565b51936125ea60a0860151151590565b806128cd575b61288d575060009360608101518015801580612884575b61284c57849061261a6080850151151590565b15612806576126c592612641855173ffffffffffffffffffffffffffffffffffffffff1690565b911561280057505a905b6126c08b61269460608d01516040890151908c8b604051998a967f4c4e814c0000000000000000000000000000000000000000000000000000000060208901526024880161253e565b037fffffffffffffffffffffffffffffffffffffffffffffffffffffffffffffffe08101855284610404565b612d97565b15612708575b506040805187815260208101839052600192917f5a589b1d8062f33451d29cae3dabd9b2e36c62aee644178c600977ca8dda661a91a15b016125bf565b60c0018051156127b7576001815114612778575160021461272957386126cb565b9493505050507fc2c704302430fe0dc8d95f272e2f4e54bbbc51a3327fd5d75ab41f9fc8fd129b925061276961275d612da9565b6040519384938461256c565b0390a1388080808080806125c7565b50846108fb612785612da9565b6040519384937f7f6b0bb100000000000000000000000000000000000000000000000000000000855260048501612588565b509250600180937f115f347c00e69f252cd6b63c4f81022a9564c6befe8aa719cb74640a4a306f0d6127f86127ea612da9565b604051918291858c8461256c565b0390a1612702565b9061264b565b835161284193925073ffffffffffffffffffffffffffffffffffffffff169160208501519160001461284657505a905b604085015192612d85565b6126c5565b90612836565b83886108fb5a6040519384937f213952740000000000000000000000000000000000000000000000000000000085526004850161251c565b50815a10612607565b6040805188815260208101849052919550600192917f9ae934bf8a986157c889a24c3b3fa85e74b7e4ee4b1f8fc6e7362cb4c1d19d8b91819081016127f8565b5080156125f0565b6129376129636128f56128ef602085015115153090612e48565b93612f43565b60405192839160208301958690916042927f19010000000000000000000000000000000000000000000000000000000000008352600283015260228201520190565b037fffffffffffffffffffffffffffffffffffffffffffffffffffffffffffffffe08101835282610404565b51902090565b60405160208101917f8d0bf1fd623d628c741362c1289948e57b3e2905218c676d3e69abee36d6ae2e83526040820152604081526129a8606082610404565b5190205490565b60405160208101917fc852adf5e97c2fc3b38f405671e91b7af1697ef0287577f227ef10494c2a8e8683526040820152604081526129ee606082610404565b51902054906bffffffffffffffffffffffff8260601c921690565b60405190612a16826103e8565b60006020838281520152565b908160409103126101c557602060405191612a3c836103e8565b805183520151602082015290565b60409073ffffffffffffffffffffffffffffffffffffffff61052594931681528160208201520190611893565b909491939291853560f81c60019093819087612a91612a09565b9360408089161480612d67575b612c6a575b505050600180861614612c445760028581161460208501526007600286901c1688820135600382901b6101008190039190911c600190911b7fffffffffffffffffffffffffffffffffffffffffffffffffffffffffffffffff01169101908096918196602016612b139060051c90565b612b1c906117e1565b8a820135600382901b6101008190039190911c600190911b7fffffffffffffffffffffffffffffffffffffffffffffffffffffffffffffffff01169101959098899a81612b68846128d5565b988993612b749361217c565b91612b7e9361335a565b9098612b9291600052602052604060002090565b90612ba591600052602052604060002090565b9073ffffffffffffffffffffffffffffffffffffffff16612bce91600052602052604060002090565b94815190868215159283612c39575b505081612c2a575b50612bed5750565b6040517fccbb534f000000000000000000000000000000000000000000000000000000008152815160048201526020909101516024820152604490fd5b90506020820151101538612be5565b141591508638612bdd565b86612c5f9792949550612c57939861217c565b939092613138565b919394909293929190565b8a81013560601c985060140192509087908a90849015612c8e575b50829150612aa3565b60038101955073ffffffffffffffffffffffffffffffffffffffff945081013560e81c92604092612d11929091612cdc91612cd5918990612ccf89836117ef565b9261217c565b36916104d3565b83519586809481937fccce3bc80000000000000000000000000000000000000000000000000000000083523060048401612a4a565b0392165afa80156112bb57612d2f92600091612d38575b50926117ef565b86388981612c85565b612d5a915060403d604011612d60575b612d528183610404565b810190612a22565b38612d28565b503d612d48565b5073ffffffffffffffffffffffffffffffffffffffff891615612a9e565b9160009391849360208451940192f190565b9160009291839260208351930191f490565b3d90604051916020818401016040528083526000602084013e565b60405160208101917fc852adf5e97c2fc3b38f405671e91b7af1697ef0287577f227ef10494c2a8e868352604082015260408152612e03606082610404565b51902055565b60405160208101917fbe27a319efc8734e89e26ba4bc95f5c788584163b959f03fa04e2d7ab4b9a1208352604082015260408152612e03606082610404565b15612ef8576000905b73ffffffffffffffffffffffffffffffffffffffff6040519160208301937f8b73c3c69bb8fe3d512ecc4cf759cc79239f7b179b0ffacaa9a75d522b39400f85527f4aa45ca7ad825ceb1bf35643f0a58c295239df563b1b565c2485f96477c5631860408501527f2a80e1ef1d7842f27f2e6be0972bb708b9a135c38860dbe73c27c3486c34f4de606085015260808401521660a082015260a0815261296360c082610404565b4690612e51565b805160209091019060005b818110612f175750505090565b825173ffffffffffffffffffffffffffffffffffffffff16845260209384019390920191600101612f0a565b610100810151604051612f5e81612937602082018095612eff565b51902090612f6d815160ff1690565b60ff811680612fe657505090612963612f896040840151613bee565b9261293760806060830151920151936040519485936020850197889094939260809260a08301967f11e1e4079a79a66e4ade50033cfe2678cdd5341d2dfe5ef9513edb1a0be147a284526020840152604083015260608201520152565b6001810361304457505060a001518051602091820120604080517fe19a3b94fc3c7ece3f890d98a99bc422615537a08dea0603fa8425867d87d466938101938452908101919091526060810192909252906129638160808101612937565b6002810361309a57505060c00151604080517f11fdeb7e8373a1aa96bfac8d0ea91526b2c5d15e5cee20e0543e780258f3e8e4602082019081529181019290925260608201929092526129638160808101612937565b6003036130ee575060e00151604080517fe19a3b94fc3c7ece3f890d98a99bc422615537a08dea0603fa8425867d87d466602082019081529181019290925260608201929092526129638160808101612937565b7f048183200000000000000000000000000000000000000000000000000000000060005260ff1660045260246000fd5b906125349060409396959496606084526060840191611a96565b9194929092600095600095600095600095600095613154612004565b60028152937fffffffffffffffffffffffffffffffffffffffffffffffffffffffffffffffff9460005b8281106131ab5750505050505050805115158061319d575b612bed5750565b506020810151841115613196565b600381019d50959b50939950919750929091906131cf908b9085013560e81c6117ef565b958a6000848903613313575089915b7fffffffffffffffffffffffffffffffffffffffffffffffffffffffffffffffff8c036132e357509060016132188961321f94878961217c565b908b612a77565b9c939c9b929b9a919a99909a9b9d8e9d9e8f905b1061329d5750928b885114613294575b808b101561326257508a60c0850152899295929594919493909361317e565b7f37daf62b0000000000000000000000000000000000000000000000000000000060005260048b905260245260446000fd5b60008852613243565b8d8f6108fb6132ae85858c8e61217c565b9390926040519485947fb006aba00000000000000000000000000000000000000000000000000000000086526004860161311e565b9798999a9160016132f98b61330094888a61217c565b9086612a77565b50929d919c909b929a9092918e8e613233565b916131de565b73ffffffffffffffffffffffffffffffffffffffff610525959360609383521660208201528160408201520191611a96565b908160209103126101c5575190565b9391909360009460009460005b818110613375575050505050565b8481013560f881901c9860019092019788979692909160fc1c988915613b59575060018914613b19576002891461395c576003891461392d57600489146138ac576006891461380c57600589146137be57600789146136f757600889146136a1576009891461357857600a8914613415577fb2505f7c00000000000000000000000000000000000000000000000000000000600052600489905260246000fd5b90919293949596975060038916978815613567575b8381013560601c90601401909960021c60031660ff1684820135600382901b6101008190039190911c600190911b7fffffffffffffffffffffffffffffffffffffffffffffffffffffffffffffffff01169101908101908161348d91878761217c565b6040517f898bd921000000000000000000000000000000000000000000000000000000008152939184916134c5918a60048501611bb8565b038373ffffffffffffffffffffffffffffffffffffffff8d1691815a93602094fa9182156112bb5761350893600093613534575b5060ff909a168091019a613eba565b90801561352e579061352291600052602052604060002090565b955b9392919093613367565b50613522565b60ff9193506135599060203d8111613560575b6135518183610404565b81019061334b565b92906134f9565b503d613547565b8084013560f81c985060010161342a565b90919293949596975060038916978815613690575b8381013560601c90601401909960021c60031660ff1684820135600382901b6101008190039190911c600190911b7fffffffffffffffffffffffffffffffffffffffffffffffffffffffffffffffff0116910190810190816135f091878761217c565b6040517f13792a4a00000000000000000000000000000000000000000000000000000000815293918491613628918b60048501611ad5565b038373ffffffffffffffffffffffffffffffffffffffff8d1691815a93602094fa9182156112bb5761366a93600093613534575060ff909a168091019a613eba565b90801561368a579061368491600052602052604060002090565b95613524565b50613684565b8084013560f81c985060010161358d565b9850602087019750949593949293919290918201356136bf86613e61565b81146136cf575b61366a90613e7b565b7fffffffffffffffffffffffffffffffffffffffffffffffffffffffffffffffff98506136c6565b975090919293949597600f169687156137ac575b6020600061371d61378a9a9b86613d29565b9c9092918a604051613760816129378a82019485603c917f19457468657265756d205369676e6564204d6573736167653a0a3332000000008252601c8201520190565b51902092604051948594859094939260ff6060936080840197845216602083015260408201520152565b838052039060015afa156112bb5761366a9060ff6000519a1680910199613d6c565b600189019883013560f81c975061370b565b9850602087019750949593949293919290918201358085146137e4575b61366a90613e22565b7fffffffffffffffffffffffffffffffffffffffffffffffffffffffffffffffff98506137db565b989091929394959662ffffff985061382e6122db600c8416603f9060021c1690565b918215613898575b6003168015613887575b90819061386b90613863908781013560e81c906003019c168c01809c898961217c565b90898b61335a565b91111561387e575b9061366a9291613dd7565b99820199613873565b50600281019084013560f01c613840565b8482013560f81c9250600190910190613836565b97509761390261390f929394959697600f61391793169085929190928160031b7fffffffffffffffffffffffffffffffffffffffffffffffffffffffffffffffff6001821b019185013590610100031c16920190565b929083018093868661217c565b90868861335a565b9061368492980198600052602052604060002090565b98509650939492939192909190808201359060200196801561368a579061368491600052602052604060002090565b90919293949596975060038916978815613b08575b8084013560601c996139d091601401906139909060021c6003166122db565b9085929190928160031b7fffffffffffffffffffffffffffffffffffffffffffffffffffffffffffffffff6001821b019185013590610100031c16920190565b90810190613a3460208c6139e685858b8b61217c565b919073ffffffffffffffffffffffffffffffffffffffff8c604051968795869485937f1626ba7e00000000000000000000000000000000000000000000000000000000855260048501611bb8565b0392165afa9081156112bb577f1626ba7e00000000000000000000000000000000000000000000000000000000917fffffffff0000000000000000000000000000000000000000000000000000000091600091613aea575b501603613aa657509060ff61366a92991680910199613d6c565b6108fb613ab78c938993898961217c565b906040519485947fb2fed7ae00000000000000000000000000000000000000000000000000000000865260048601613319565b613b02915060203d8111611cfa57611cec8183610404565b38613a8c565b8381013560f81c9850600101613971565b98600f91929394959697985016968715613b48575b601481019761366a9160ff9091169084013560601c613d6c565b8281013560f81c9750600101613b2e565b98509091929394959698600f16978815613bab575b5060206000613b8161378a9a9b86613d29565b9c90916040519384938c859094939260ff6060936080840197845216602083015260408201520152565b60018101995083013560f81c97506020613b6e565b805160209091019060005b818110613bd85750505090565b8251845260209384019390920191600101613bcb565b9081517fffffffffffffffffffffffffffffffffffffffffffffffffffffffffffffffe0613c34613c1e83610481565b92613c2c6040519485610404565b808452610481565b0136602083013760005b8351811015613d105780613c546001928661187a565b5173ffffffffffffffffffffffffffffffffffffffff81511690602081015190604081015160208151910120906060810151608082015115159060c060a08401511515930151936040519560208701977f0603985259a953da1f65a522f589c17bd1d0117ec1d3abb7c0788aef251ef437895260408801526060870152608086015260a085015260c084015260e08301526101008201526101008152613cfc61012082610404565b519020613d09828561187a565b5201613c3e565b5090915060405161296381612937602082018095613bc0565b8101916040602084359401359201601b7f7fffffffffffffffffffffffffffffffffffffffffffffffffffffffffffffff84169360ff1c0160ff811161114d5791565b90604051907fffffffffffffffffffffffffffffffffffffffff00000000000000000000000060208301937f53657175656e6365207369676e65723a0a000000000000000000000000000000855260601b166031830152604582015260458152612963606582610404565b916040519160208301937f53657175656e6365206e657374656420636f6e6669673a0a0000000000000000855260388401526058830152607882015260788152612963609882610404565b60405160208101917f53657175656e636520737461746963206469676573743a0a00000000000000008352603882015260388152612963605882610404565b6129376129636128f56128ef600060208601511515612e48565b60405160208101917f53657175656e636520616e792061646472657373207375626469676573743a0a8352604082015260408152612963606082610404565b91604051917fffffffffffffffffffffffffffffffffffffffff00000000000000000000000060208401947f53657175656e63652073617069656e7420636f6e6669673a0a00000000000000865260601b166039840152604d830152606d820152606d8152612963608d8261040456fea2646970667358221220372121f08db190c66ee1154da0084f8b0bb83add4d20e796f6ed826720becbad64736f6c634300081c0033","linkReferences":{}},"methodIdentifiers":{"addHook(bytes4,address)":"b93ea7ad","entrypoint()":"a65d69d4","estimate(bytes,bytes)":"975befdb","execute(bytes,bytes)":"1f6a1eb9","executeUserOp(bytes)":"9c145aed","getImplementation()":"aaf10f42","getStaticSignature(bytes32)":"92dcb3fc","imageHash()":"51605d80","isValidSignature(bytes32,bytes)":"1626ba7e","onERC1155BatchReceived(address,address,uint256[],uint256[],bytes)":"bc197c81","onERC1155Received(address,address,uint256,uint256,bytes)":"f23a6e61","onERC721Received(address,address,uint256,bytes)":"150b7a02","readHook(bytes4)":"1a9b2337","readNonce(uint256)":"8c3f5563","recoverPartialSignature((uint8,bool,(address,uint256,bytes,uint256,bool,bool,uint256)[],uint256,uint256,bytes,bytes32,bytes32,address[]),bytes)":"ad55366b","recoverSapientSignature((uint8,bool,(address,uint256,bytes,uint256,bool,bool,uint256)[],uint256,uint256,bytes,bytes32,bytes32,address[]),bytes)":"13792a4a","removeHook(bytes4)":"4fcf3eca","selfExecute(bytes)":"6ea44577","setStaticSignature(bytes32,address,uint96)":"f727ef1c","tokenReceived(address,uint256,bytes)":"8943ec02","tokensReceived(address,address,address,uint256,bytes,bytes)":"0023de29","updateImageHash(bytes32)":"29561426","updateImplementation(address)":"025b22bc","validateUserOp((address,uint256,bytes,bytes,bytes32,uint256,bytes32,bytes,bytes),bytes32,uint256)":"19822f7c"},"id":42}