{
  "_format": "hh-sol-artifact-1",
  "contractName": "MultiCallUtils",
  "sourceName": "contracts/modules/utils/MultiCallUtils.sol",
  "abi": [
    {
      "inputs": [
        {
          "internalType": "uint256",
          "name": "_index",
          "type": "uint256"
        },
        {
          "internalType": "bytes",
          "name": "_result",
          "type": "bytes"
        }
      ],
      "name": "CallReverted",
      "type": "error"
    },
    {
      "inputs": [
        {
          "internalType": "uint256",
          "name": "_index",
          "type": "uint256"
        }
      ],
      "name": "DelegateCallNotAllowed",
      "type": "error"
    },
    {
      "inputs": [
        {
          "internalType": "uint256",
          "name": "_index",
          "type": "uint256"
        },
        {
          "internalType": "uint256",
          "name": "_requested",
          "type": "uint256"
        },
        {
          "internalType": "uint256",
          "name": "_available",
          "type": "uint256"
        }
      ],
      "name": "NotEnoughGas",
      "type": "error"
    },
    {
      "inputs": [
        {
          "internalType": "address",
          "name": "_addr",
          "type": "address"
        }
      ],
      "name": "callBalanceOf",
      "outputs": [
        {
          "internalType": "uint256",
          "name": "",
          "type": "uint256"
        }
      ],
      "stateMutability": "view",
      "type": "function"
    },
    {
      "inputs": [],
      "name": "callBlockNumber",
      "outputs": [
        {
          "internalType": "uint256",
          "name": "",
          "type": "uint256"
        }
      ],
      "stateMutability": "view",
      "type": "function"
    },
    {
      "inputs": [
        {
          "internalType": "uint256",
          "name": "_i",
          "type": "uint256"
        }
      ],
      "name": "callBlockhash",
      "outputs": [
        {
          "internalType": "bytes32",
          "name": "",
          "type": "bytes32"
        }
      ],
      "stateMutability": "view",
      "type": "function"
    },
    {
      "inputs": [],
      "name": "callChainId",
      "outputs": [
        {
          "internalType": "uint256",
          "name": "id",
          "type": "uint256"
        }
      ],
      "stateMutability": "view",
      "type": "function"
    },
    {
      "inputs": [
        {
          "internalType": "address",
          "name": "_addr",
          "type": "address"
        }
      ],
      "name": "callCode",
      "outputs": [
        {
          "internalType": "bytes",
          "name": "code",
          "type": "bytes"
        }
      ],
      "stateMutability": "view",
      "type": "function"
    },
    {
      "inputs": [
        {
          "internalType": "address",
          "name": "_addr",
          "type": "address"
        }
      ],
      "name": "callCodeHash",
      "outputs": [
        {
          "internalType": "bytes32",
          "name": "codeHash",
          "type": "bytes32"
        }
      ],
      "stateMutability": "view",
      "type": "function"
    },
    {
      "inputs": [
        {
          "internalType": "address",
          "name": "_addr",
          "type": "address"
        }
      ],
      "name": "callCodeSize",
      "outputs": [
        {
          "internalType": "uint256",
          "name": "size",
          "type": "uint256"
        }
      ],
      "stateMutability": "view",
      "type": "function"
    },
    {
      "inputs": [],
      "name": "callCoinbase",
      "outputs": [
        {
          "internalType": "address",
          "name": "",
          "type": "address"
        }
      ],
      "stateMutability": "view",
      "type": "function"
    },
    {
      "inputs": [],
      "name": "callDifficulty",
      "outputs": [
        {
          "internalType": "uint256",
          "name": "",
          "type": "uint256"
        }
      ],
      "stateMutability": "view",
      "type": "function"
    },
    {
      "inputs": [],
      "name": "callGasLeft",
      "outputs": [
        {
          "internalType": "uint256",
          "name": "",
          "type": "uint256"
        }
      ],
      "stateMutability": "view",
      "type": "function"
    },
    {
      "inputs": [],
      "name": "callGasLimit",
      "outputs": [
        {
          "internalType": "uint256",
          "name": "",
          "type": "uint256"
        }
      ],
      "stateMutability": "view",
      "type": "function"
    },
    {
      "inputs": [],
      "name": "callGasPrice",
      "outputs": [
        {
          "internalType": "uint256",
          "name": "",
          "type": "uint256"
        }
      ],
      "stateMutability": "view",
      "type": "function"
    },
    {
      "inputs": [],
      "name": "callOrigin",
      "outputs": [
        {
          "internalType": "address",
          "name": "",
          "type": "address"
        }
      ],
      "stateMutability": "view",
      "type": "function"
    },
    {
      "inputs": [],
      "name": "callPrevrandao",
      "outputs": [
        {
          "internalType": "uint256",
          "name": "",
          "type": "uint256"
        }
      ],
      "stateMutability": "view",
      "type": "function"
    },
    {
      "inputs": [],
      "name": "callTimestamp",
      "outputs": [
        {
          "internalType": "uint256",
          "name": "",
          "type": "uint256"
        }
      ],
      "stateMutability": "view",
      "type": "function"
    },
    {
      "inputs": [
        {
          "components": [
            {
              "internalType": "bool",
              "name": "delegateCall",
              "type": "bool"
            },
            {
              "internalType": "bool",
              "name": "revertOnError",
              "type": "bool"
            },
            {
              "internalType": "uint256",
              "name": "gasLimit",
              "type": "uint256"
            },
            {
              "internalType": "address",
              "name": "target",
              "type": "address"
            },
            {
              "internalType": "uint256",
              "name": "value",
              "type": "uint256"
            },
            {
              "internalType": "bytes",
              "name": "data",
              "type": "bytes"
            }
          ],
          "internalType": "struct IModuleCalls.Transaction[]",
          "name": "_txs",
          "type": "tuple[]"
        }
      ],
      "name": "multiCall",
      "outputs": [
        {
          "internalType": "bool[]",
          "name": "_successes",
          "type": "bool[]"
        },
        {
          "internalType": "bytes[]",
          "name": "_results",
          "type": "bytes[]"
        }
      ],
      "stateMutability": "payable",
      "type": "function"
    }
  ],
  "bytecode": "0x608060405234801561001057600080fd5b50610aea806100206000396000f3fe6080604052600436106100f35760003560e01c8063c272d5c31161008a578063d5b5337f11610059578063d5b5337f1461024f578063e90f13e71461026e578063f209883a14610281578063ffd7d7411461029457600080fd5b8063c272d5c3146101dd578063c39f2d5c146101f0578063c66764e11461020f578063d1db39071461023c57600080fd5b8063984395bc116100c6578063984395bc1461018357806398f9fbc4146101b7578063aeea5fb5146101ca578063b7a72531146101ca57600080fd5b80630fdecfac146100f857806343d9c9351461011a57806348acd29f1461012f578063543196eb14610164575b600080fd5b34801561010457600080fd5b50465b6040519081526020015b60405180910390f35b34801561012657600080fd5b506101076102b5565b34801561013b57600080fd5b5061010761014a366004610604565b73ffffffffffffffffffffffffffffffffffffffff163190565b34801561017057600080fd5b5061010761017f366004610604565b3f90565b34801561018f57600080fd5b50325b60405173ffffffffffffffffffffffffffffffffffffffff9091168152602001610111565b3480156101c357600080fd5b5041610192565b3480156101d657600080fd5b5044610107565b3480156101e957600080fd5b503a610107565b3480156101fc57600080fd5b5061010761020b366004610604565b3b90565b34801561021b57600080fd5b5061022f61022a366004610604565b6102bd565b6040516101119190610694565b34801561024857600080fd5b5043610107565b34801561025b57600080fd5b5061010761026a3660046106a7565b4090565b34801561027a57600080fd5b5045610107565b34801561028d57600080fd5b5042610107565b6102a76102a2366004610777565b610302565b604051610111929190610931565b60005a905090565b60408051603f833b9081017fffffffffffffffffffffffffffffffffffffffffffffffffffffffffffffffe01682019092528181529080600060208401853c50919050565b606080825167ffffffffffffffff81111561031f5761031f6106c0565b604051908082528060200260200182016040528015610348578160200160208202803683370190505b509150825167ffffffffffffffff811115610365576103656106c0565b60405190808252806020026020018201604052801561039857816020015b60608152602001906001900390816103835790505b50905060005b83518110156105d55760008482815181106103bb576103bb6109e9565b60200260200101519050806000015115610409576040517f230d1ccc000000000000000000000000000000000000000000000000000000008152600481018390526024015b60405180910390fd5b80604001515a101561045f578181604001515a6040517f2bb3e3ba000000000000000000000000000000000000000000000000000000008152600481019390935260248301919091526044820152606401610400565b806060015173ffffffffffffffffffffffffffffffffffffffff1681608001518260400151600014610495578260400151610497565b5a5b908360a001516040516104aa9190610a18565b600060405180830381858888f193505050503d80600081146104e8576040519150601f19603f3d011682016040523d82523d6000602084013e6104ed565b606091505b50858481518110610500576105006109e9565b60200260200101858581518110610519576105196109e9565b602002602001018290528215151515815250505083828151811061053f5761053f6109e9565b602002602001015115801561056e5750848281518110610561576105616109e9565b6020026020010151602001515b156105c25781838381518110610586576105866109e9565b60200260200101516040517f3b4c7a5f000000000000000000000000000000000000000000000000000000008152600401610400929190610a34565b50806105cd81610a55565b91505061039e565b50915091565b803573ffffffffffffffffffffffffffffffffffffffff811681146105ff57600080fd5b919050565b60006020828403121561061657600080fd5b61061f826105db565b9392505050565b60005b83811015610641578181015183820152602001610629565b50506000910152565b60008151808452610662816020860160208601610626565b601f017fffffffffffffffffffffffffffffffffffffffffffffffffffffffffffffffe0169290920160200192915050565b60208152600061061f602083018461064a565b6000602082840312156106b957600080fd5b5035919050565b7f4e487b7100000000000000000000000000000000000000000000000000000000600052604160045260246000fd5b60405160c0810167ffffffffffffffff81118282101715610712576107126106c0565b60405290565b604051601f82017fffffffffffffffffffffffffffffffffffffffffffffffffffffffffffffffe016810167ffffffffffffffff8111828210171561075f5761075f6106c0565b604052919050565b803580151581146105ff57600080fd5b6000602080838503121561078a57600080fd5b823567ffffffffffffffff808211156107a257600080fd5b818501915085601f8301126107b657600080fd5b8135818111156107c8576107c86106c0565b8060051b6107d7858201610718565b91825283810185019185810190898411156107f157600080fd5b86860192505b838310156109245782358581111561080f5760008081fd5b860160c07fffffffffffffffffffffffffffffffffffffffffffffffffffffffffffffffe0828d0381018213156108465760008081fd5b61084e6106ef565b6108598b8501610767565b81526040610868818601610767565b8c8301526060808601358284015260806108838188016105db565b8285015260a091508187013581850152508486013594508a8511156108a85760008081fd5b84860195508f603f8701126108bf57600094508485fd5b8c86013594508a8511156108d5576108d56106c0565b6108e58d85601f88011601610718565b93508484528f828688010111156108fc5760008081fd5b848287018e86013760009484018d0194909452509182015283525091860191908601906107f7565b9998505050505050505050565b604080825283519082018190526000906020906060840190828701845b8281101561096c57815115158452928401929084019060010161094e565b50505083810382850152845180825282820190600581901b8301840187850160005b838110156109da577fffffffffffffffffffffffffffffffffffffffffffffffffffffffffffffffe08684030185526109c883835161064a565b9487019492509086019060010161098e565b50909998505050505050505050565b7f4e487b7100000000000000000000000000000000000000000000000000000000600052603260045260246000fd5b60008251610a2a818460208701610626565b9190910192915050565b828152604060208201526000610a4d604083018461064a565b949350505050565b60007fffffffffffffffffffffffffffffffffffffffffffffffffffffffffffffffff8203610aad577f4e487b7100000000000000000000000000000000000000000000000000000000600052601160045260246000fd5b506001019056fea2646970667358221220dcfa5cfcd4165eb28f97ebcb9ac3b988820332f1d24d3eb2cd4b516ff761a49264736f6c63430008120033",
  "linkReferences": {},
  "deployedLinkReferences": {}
}