{
  "_format": "hh-sol-artifact-1",
  "contractName": "MultiCallUtils",
  "sourceName": "contracts/modules/utils/MultiCallUtils.sol",
  "abi": [
    {
      "inputs": [
        {
          "internalType": "uint256",
          "name": "_index",
          "type": "uint256"
        },
        {
          "internalType": "bytes",
          "name": "_result",
          "type": "bytes"
        }
      ],
      "name": "CallReverted",
      "type": "error"
    },
    {
      "inputs": [
        {
          "internalType": "uint256",
          "name": "_index",
          "type": "uint256"
        }
      ],
      "name": "DelegateCallNotAllowed",
      "type": "error"
    },
    {
      "inputs": [
        {
          "internalType": "uint256",
          "name": "_index",
          "type": "uint256"
        },
        {
          "internalType": "uint256",
          "name": "_requested",
          "type": "uint256"
        },
        {
          "internalType": "uint256",
          "name": "_available",
          "type": "uint256"
        }
      ],
      "name": "NotEnoughGas",
      "type": "error"
    },
    {
      "inputs": [
        {
          "internalType": "address",
          "name": "_addr",
          "type": "address"
        }
      ],
      "name": "callBalanceOf",
      "outputs": [
        {
          "internalType": "uint256",
          "name": "",
          "type": "uint256"
        }
      ],
      "stateMutability": "view",
      "type": "function"
    },
    {
      "inputs": [],
      "name": "callBlockNumber",
      "outputs": [
        {
          "internalType": "uint256",
          "name": "",
          "type": "uint256"
        }
      ],
      "stateMutability": "view",
      "type": "function"
    },
    {
      "inputs": [
        {
          "internalType": "uint256",
          "name": "_i",
          "type": "uint256"
        }
      ],
      "name": "callBlockhash",
      "outputs": [
        {
          "internalType": "bytes32",
          "name": "",
          "type": "bytes32"
        }
      ],
      "stateMutability": "view",
      "type": "function"
    },
    {
      "inputs": [],
      "name": "callChainId",
      "outputs": [
        {
          "internalType": "uint256",
          "name": "id",
          "type": "uint256"
        }
      ],
      "stateMutability": "view",
      "type": "function"
    },
    {
      "inputs": [
        {
          "internalType": "address",
          "name": "_addr",
          "type": "address"
        }
      ],
      "name": "callCode",
      "outputs": [
        {
          "internalType": "bytes",
          "name": "code",
          "type": "bytes"
        }
      ],
      "stateMutability": "view",
      "type": "function"
    },
    {
      "inputs": [
        {
          "internalType": "address",
          "name": "_addr",
          "type": "address"
        }
      ],
      "name": "callCodeHash",
      "outputs": [
        {
          "internalType": "bytes32",
          "name": "codeHash",
          "type": "bytes32"
        }
      ],
      "stateMutability": "view",
      "type": "function"
    },
    {
      "inputs": [
        {
          "internalType": "address",
          "name": "_addr",
          "type": "address"
        }
      ],
      "name": "callCodeSize",
      "outputs": [
        {
          "internalType": "uint256",
          "name": "size",
          "type": "uint256"
        }
      ],
      "stateMutability": "view",
      "type": "function"
    },
    {
      "inputs": [],
      "name": "callCoinbase",
      "outputs": [
        {
          "internalType": "address",
          "name": "",
          "type": "address"
        }
      ],
      "stateMutability": "view",
      "type": "function"
    },
    {
      "inputs": [],
      "name": "callDifficulty",
      "outputs": [
        {
          "internalType": "uint256",
          "name": "",
          "type": "uint256"
        }
      ],
      "stateMutability": "view",
      "type": "function"
    },
    {
      "inputs": [],
      "name": "callGasLeft",
      "outputs": [
        {
          "internalType": "uint256",
          "name": "",
          "type": "uint256"
        }
      ],
      "stateMutability": "view",
      "type": "function"
    },
    {
      "inputs": [],
      "name": "callGasLimit",
      "outputs": [
        {
          "internalType": "uint256",
          "name": "",
          "type": "uint256"
        }
      ],
      "stateMutability": "view",
      "type": "function"
    },
    {
      "inputs": [],
      "name": "callGasPrice",
      "outputs": [
        {
          "internalType": "uint256",
          "name": "",
          "type": "uint256"
        }
      ],
      "stateMutability": "view",
      "type": "function"
    },
    {
      "inputs": [],
      "name": "callOrigin",
      "outputs": [
        {
          "internalType": "address",
          "name": "",
          "type": "address"
        }
      ],
      "stateMutability": "view",
      "type": "function"
    },
    {
      "inputs": [],
      "name": "callPrevrandao",
      "outputs": [
        {
          "internalType": "uint256",
          "name": "",
          "type": "uint256"
        }
      ],
      "stateMutability": "view",
      "type": "function"
    },
    {
      "inputs": [],
      "name": "callTimestamp",
      "outputs": [
        {
          "internalType": "uint256",
          "name": "",
          "type": "uint256"
        }
      ],
      "stateMutability": "view",
      "type": "function"
    },
    {
      "inputs": [
        {
          "components": [
            {
              "internalType": "bool",
              "name": "delegateCall",
              "type": "bool"
            },
            {
              "internalType": "bool",
              "name": "revertOnError",
              "type": "bool"
            },
            {
              "internalType": "uint256",
              "name": "gasLimit",
              "type": "uint256"
            },
            {
              "internalType": "address",
              "name": "target",
              "type": "address"
            },
            {
              "internalType": "uint256",
              "name": "value",
              "type": "uint256"
            },
            {
              "internalType": "bytes",
              "name": "data",
              "type": "bytes"
            }
          ],
          "internalType": "struct IModuleCalls.Transaction[]",
          "name": "_txs",
          "type": "tuple[]"
        }
      ],
      "name": "multiCall",
      "outputs": [
        {
          "internalType": "bool[]",
          "name": "_successes",
          "type": "bool[]"
        },
        {
          "internalType": "bytes[]",
          "name": "_results",
          "type": "bytes[]"
        }
      ],
      "stateMutability": "payable",
      "type": "function"
    }
  ],
  "bytecode": "0x608060405234801561001057600080fd5b50610ad7806100206000396000f3fe6080604052600436106100f35760003560e01c8063c272d5c31161008a578063d5b5337f11610059578063d5b5337f1461024f578063e90f13e71461023c578063f209883a1461026e578063ffd7d7411461028157600080fd5b8063c272d5c3146101dd578063c39f2d5c146101f0578063c66764e11461020f578063d1db39071461023c57600080fd5b8063984395bc116100c6578063984395bc1461018357806398f9fbc4146101b7578063aeea5fb5146101ca578063b7a72531146101ca57600080fd5b80630fdecfac146100f857806343d9c9351461011a57806348acd29f1461012f578063543196eb14610164575b600080fd5b34801561010457600080fd5b50465b6040519081526020015b60405180910390f35b34801561012657600080fd5b506101076102a2565b34801561013b57600080fd5b5061010761014a3660046105f1565b73ffffffffffffffffffffffffffffffffffffffff163190565b34801561017057600080fd5b5061010761017f3660046105f1565b3f90565b34801561018f57600080fd5b50325b60405173ffffffffffffffffffffffffffffffffffffffff9091168152602001610111565b3480156101c357600080fd5b5041610192565b3480156101d657600080fd5b5044610107565b3480156101e957600080fd5b503a610107565b3480156101fc57600080fd5b5061010761020b3660046105f1565b3b90565b34801561021b57600080fd5b5061022f61022a3660046105f1565b6102aa565b6040516101119190610681565b34801561024857600080fd5b5045610107565b34801561025b57600080fd5b5061010761026a366004610694565b4090565b34801561027a57600080fd5b5042610107565b61029461028f366004610764565b6102ef565b60405161011192919061091e565b60005a905090565b60408051603f833b9081017fffffffffffffffffffffffffffffffffffffffffffffffffffffffffffffffe01682019092528181529080600060208401853c50919050565b606080825167ffffffffffffffff81111561030c5761030c6106ad565b604051908082528060200260200182016040528015610335578160200160208202803683370190505b509150825167ffffffffffffffff811115610352576103526106ad565b60405190808252806020026020018201604052801561038557816020015b60608152602001906001900390816103705790505b50905060005b83518110156105c25760008482815181106103a8576103a86109d6565b602002602001015190508060000151156103f6576040517f230d1ccc000000000000000000000000000000000000000000000000000000008152600481018390526024015b60405180910390fd5b80604001515a101561044c578181604001515a6040517f2bb3e3ba0000000000000000000000000000000000000000000000000000000081526004810193909352602483019190915260448201526064016103ed565b806060015173ffffffffffffffffffffffffffffffffffffffff1681608001518260400151600014610482578260400151610484565b5a5b908360a001516040516104979190610a05565b600060405180830381858888f193505050503d80600081146104d5576040519150601f19603f3d011682016040523d82523d6000602084013e6104da565b606091505b508584815181106104ed576104ed6109d6565b60200260200101858581518110610506576105066109d6565b602002602001018290528215151515815250505083828151811061052c5761052c6109d6565b602002602001015115801561055b575084828151811061054e5761054e6109d6565b6020026020010151602001515b156105af5781838381518110610573576105736109d6565b60200260200101516040517f3b4c7a5f0000000000000000000000000000000000000000000000000000000081526004016103ed929190610a21565b50806105ba81610a42565b91505061038b565b50915091565b803573ffffffffffffffffffffffffffffffffffffffff811681146105ec57600080fd5b919050565b60006020828403121561060357600080fd5b61060c826105c8565b9392505050565b60005b8381101561062e578181015183820152602001610616565b50506000910152565b6000815180845261064f816020860160208601610613565b601f017fffffffffffffffffffffffffffffffffffffffffffffffffffffffffffffffe0169290920160200192915050565b60208152600061060c6020830184610637565b6000602082840312156106a657600080fd5b5035919050565b7f4e487b7100000000000000000000000000000000000000000000000000000000600052604160045260246000fd5b60405160c0810167ffffffffffffffff811182821017156106ff576106ff6106ad565b60405290565b604051601f82017fffffffffffffffffffffffffffffffffffffffffffffffffffffffffffffffe016810167ffffffffffffffff8111828210171561074c5761074c6106ad565b604052919050565b803580151581146105ec57600080fd5b6000602080838503121561077757600080fd5b823567ffffffffffffffff8082111561078f57600080fd5b818501915085601f8301126107a357600080fd5b8135818111156107b5576107b56106ad565b8060051b6107c4858201610705565b91825283810185019185810190898411156107de57600080fd5b86860192505b83831015610911578235858111156107fc5760008081fd5b860160c07fffffffffffffffffffffffffffffffffffffffffffffffffffffffffffffffe0828d0381018213156108335760008081fd5b61083b6106dc565b6108468b8501610754565b81526040610855818601610754565b8c8301526060808601358284015260806108708188016105c8565b8285015260a091508187013581850152508486013594508a8511156108955760008081fd5b84860195508f603f8701126108ac57600094508485fd5b8c86013594508a8511156108c2576108c26106ad565b6108d28d85601f88011601610705565b93508484528f828688010111156108e95760008081fd5b848287018e86013760009484018d0194909452509182015283525091860191908601906107e4565b9998505050505050505050565b604080825283519082018190526000906020906060840190828701845b8281101561095957815115158452928401929084019060010161093b565b50505083810382850152845180825282820190600581901b8301840187850160005b838110156109c7577fffffffffffffffffffffffffffffffffffffffffffffffffffffffffffffffe08684030185526109b5838351610637565b9487019492509086019060010161097b565b50909998505050505050505050565b7f4e487b7100000000000000000000000000000000000000000000000000000000600052603260045260246000fd5b60008251610a17818460208701610613565b9190910192915050565b828152604060208201526000610a3a6040830184610637565b949350505050565b60007fffffffffffffffffffffffffffffffffffffffffffffffffffffffffffffffff8203610a9a577f4e487b7100000000000000000000000000000000000000000000000000000000600052601160045260246000fd5b506001019056fea2646970667358221220c3e581115898bcd55a9d651ed8f22b0e80462db8fdcccea974afa42dfca24e1464736f6c63430008120033",
  "linkReferences": {},
  "deployedLinkReferences": {}
}