{
  "_format": "hh-sol-artifact-1",
  "contractName": "Recovery",
  "sourceName": "src/extensions/recovery/Recovery.sol",
  "abi": [
    {
      "inputs": [
        {
          "internalType": "address",
          "name": "_wallet",
          "type": "address"
        },
        {
          "internalType": "address",
          "name": "_signer",
          "type": "address"
        },
        {
          "internalType": "bytes32",
          "name": "_payloadHash",
          "type": "bytes32"
        }
      ],
      "name": "AlreadyQueued",
      "type": "error"
    },
    {
      "inputs": [
        {
          "internalType": "uint8",
          "name": "kind",
          "type": "uint8"
        }
      ],
      "name": "InvalidKind",
      "type": "error"
    },
    {
      "inputs": [
        {
          "internalType": "address",
          "name": "_wallet",
          "type": "address"
        },
        {
          "internalType": "address",
          "name": "_signer",
          "type": "address"
        },
        {
          "components": [
            {
              "internalType": "uint8",
              "name": "kind",
              "type": "uint8"
            },
            {
              "internalType": "bool",
              "name": "noChainId",
              "type": "bool"
            },
            {
              "components": [
                {
                  "internalType": "address",
                  "name": "to",
                  "type": "address"
                },
                {
                  "internalType": "uint256",
                  "name": "value",
                  "type": "uint256"
                },
                {
                  "internalType": "bytes",
                  "name": "data",
                  "type": "bytes"
                },
                {
                  "internalType": "uint256",
                  "name": "gasLimit",
                  "type": "uint256"
                },
                {
                  "internalType": "bool",
                  "name": "delegateCall",
                  "type": "bool"
                },
                {
                  "internalType": "bool",
                  "name": "onlyFallback",
                  "type": "bool"
                },
                {
                  "internalType": "uint256",
                  "name": "behaviorOnError",
                  "type": "uint256"
                }
              ],
              "internalType": "struct Payload.Call[]",
              "name": "calls",
              "type": "tuple[]"
            },
            {
              "internalType": "uint256",
              "name": "space",
              "type": "uint256"
            },
            {
              "internalType": "uint256",
              "name": "nonce",
              "type": "uint256"
            },
            {
              "internalType": "bytes",
              "name": "message",
              "type": "bytes"
            },
            {
              "internalType": "bytes32",
              "name": "imageHash",
              "type": "bytes32"
            },
            {
              "internalType": "bytes32",
              "name": "digest",
              "type": "bytes32"
            },
            {
              "internalType": "address[]",
              "name": "parentWallets",
              "type": "address[]"
            }
          ],
          "internalType": "struct Payload.Decoded",
          "name": "_payload",
          "type": "tuple"
        },
        {
          "internalType": "bytes",
          "name": "_signature",
          "type": "bytes"
        }
      ],
      "name": "InvalidSignature",
      "type": "error"
    },
    {
      "inputs": [
        {
          "internalType": "uint256",
          "name": "_flag",
          "type": "uint256"
        }
      ],
      "name": "InvalidSignatureFlag",
      "type": "error"
    },
    {
      "inputs": [
        {
          "internalType": "address",
          "name": "_wallet",
          "type": "address"
        },
        {
          "internalType": "bytes32",
          "name": "_payloadHash",
          "type": "bytes32"
        }
      ],
      "name": "QueueNotReady",
      "type": "error"
    },
    {
      "anonymous": false,
      "inputs": [
        {
          "indexed": false,
          "internalType": "address",
          "name": "_wallet",
          "type": "address"
        },
        {
          "indexed": false,
          "internalType": "address",
          "name": "_signer",
          "type": "address"
        },
        {
          "indexed": false,
          "internalType": "bytes32",
          "name": "_payloadHash",
          "type": "bytes32"
        },
        {
          "indexed": false,
          "internalType": "uint256",
          "name": "_timestamp",
          "type": "uint256"
        }
      ],
      "name": "NewQueuedPayload",
      "type": "event"
    },
    {
      "inputs": [
        {
          "internalType": "address",
          "name": "_wallet",
          "type": "address"
        },
        {
          "internalType": "address",
          "name": "_signer",
          "type": "address"
        },
        {
          "components": [
            {
              "internalType": "uint8",
              "name": "kind",
              "type": "uint8"
            },
            {
              "internalType": "bool",
              "name": "noChainId",
              "type": "bool"
            },
            {
              "components": [
                {
                  "internalType": "address",
                  "name": "to",
                  "type": "address"
                },
                {
                  "internalType": "uint256",
                  "name": "value",
                  "type": "uint256"
                },
                {
                  "internalType": "bytes",
                  "name": "data",
                  "type": "bytes"
                },
                {
                  "internalType": "uint256",
                  "name": "gasLimit",
                  "type": "uint256"
                },
                {
                  "internalType": "bool",
                  "name": "delegateCall",
                  "type": "bool"
                },
                {
                  "internalType": "bool",
                  "name": "onlyFallback",
                  "type": "bool"
                },
                {
                  "internalType": "uint256",
                  "name": "behaviorOnError",
                  "type": "uint256"
                }
              ],
              "internalType": "struct Payload.Call[]",
              "name": "calls",
              "type": "tuple[]"
            },
            {
              "internalType": "uint256",
              "name": "space",
              "type": "uint256"
            },
            {
              "internalType": "uint256",
              "name": "nonce",
              "type": "uint256"
            },
            {
              "internalType": "bytes",
              "name": "message",
              "type": "bytes"
            },
            {
              "internalType": "bytes32",
              "name": "imageHash",
              "type": "bytes32"
            },
            {
              "internalType": "bytes32",
              "name": "digest",
              "type": "bytes32"
            },
            {
              "internalType": "address[]",
              "name": "parentWallets",
              "type": "address[]"
            }
          ],
          "internalType": "struct Payload.Decoded",
          "name": "_payload",
          "type": "tuple"
        },
        {
          "internalType": "bytes",
          "name": "_signature",
          "type": "bytes"
        }
      ],
      "name": "queuePayload",
      "outputs": [],
      "stateMutability": "nonpayable",
      "type": "function"
    },
    {
      "inputs": [
        {
          "internalType": "address",
          "name": "",
          "type": "address"
        },
        {
          "internalType": "address",
          "name": "",
          "type": "address"
        },
        {
          "internalType": "uint256",
          "name": "",
          "type": "uint256"
        }
      ],
      "name": "queuedPayloadHashes",
      "outputs": [
        {
          "internalType": "bytes32",
          "name": "",
          "type": "bytes32"
        }
      ],
      "stateMutability": "view",
      "type": "function"
    },
    {
      "inputs": [
        {
          "internalType": "bytes32",
          "name": "_payloadHash",
          "type": "bytes32"
        },
        {
          "internalType": "bytes",
          "name": "_signature",
          "type": "bytes"
        }
      ],
      "name": "recoverSapientSignatureCompact",
      "outputs": [
        {
          "internalType": "bytes32",
          "name": "",
          "type": "bytes32"
        }
      ],
      "stateMutability": "view",
      "type": "function"
    },
    {
      "inputs": [
        {
          "internalType": "address",
          "name": "_wallet",
          "type": "address"
        },
        {
          "components": [
            {
              "internalType": "uint8",
              "name": "kind",
              "type": "uint8"
            },
            {
              "internalType": "bool",
              "name": "noChainId",
              "type": "bool"
            },
            {
              "components": [
                {
                  "internalType": "address",
                  "name": "to",
                  "type": "address"
                },
                {
                  "internalType": "uint256",
                  "name": "value",
                  "type": "uint256"
                },
                {
                  "internalType": "bytes",
                  "name": "data",
                  "type": "bytes"
                },
                {
                  "internalType": "uint256",
                  "name": "gasLimit",
                  "type": "uint256"
                },
                {
                  "internalType": "bool",
                  "name": "delegateCall",
                  "type": "bool"
                },
                {
                  "internalType": "bool",
                  "name": "onlyFallback",
                  "type": "bool"
                },
                {
                  "internalType": "uint256",
                  "name": "behaviorOnError",
                  "type": "uint256"
                }
              ],
              "internalType": "struct Payload.Call[]",
              "name": "calls",
              "type": "tuple[]"
            },
            {
              "internalType": "uint256",
              "name": "space",
              "type": "uint256"
            },
            {
              "internalType": "uint256",
              "name": "nonce",
              "type": "uint256"
            },
            {
              "internalType": "bytes",
              "name": "message",
              "type": "bytes"
            },
            {
              "internalType": "bytes32",
              "name": "imageHash",
              "type": "bytes32"
            },
            {
              "internalType": "bytes32",
              "name": "digest",
              "type": "bytes32"
            },
            {
              "internalType": "address[]",
              "name": "parentWallets",
              "type": "address[]"
            }
          ],
          "internalType": "struct Payload.Decoded",
          "name": "_payload",
          "type": "tuple"
        }
      ],
      "name": "recoveryPayloadHash",
      "outputs": [
        {
          "internalType": "bytes32",
          "name": "",
          "type": "bytes32"
        }
      ],
      "stateMutability": "view",
      "type": "function"
    },
    {
      "inputs": [
        {
          "internalType": "address",
          "name": "",
          "type": "address"
        },
        {
          "internalType": "address",
          "name": "",
          "type": "address"
        },
        {
          "internalType": "bytes32",
          "name": "",
          "type": "bytes32"
        }
      ],
      "name": "timestampForQueuedPayload",
      "outputs": [
        {
          "internalType": "uint256",
          "name": "",
          "type": "uint256"
        }
      ],
      "stateMutability": "view",
      "type": "function"
    },
    {
      "inputs": [
        {
          "internalType": "address",
          "name": "_wallet",
          "type": "address"
        },
        {
          "internalType": "address",
          "name": "_signer",
          "type": "address"
        }
      ],
      "name": "totalQueuedPayloads",
      "outputs": [
        {
          "internalType": "uint256",
          "name": "",
          "type": "uint256"
        }
      ],
      "stateMutability": "view",
      "type": "function"
    }
  ],
  "bytecode": "0x6080604052348015600f57600080fd5b50611a228061001f6000396000f3fe608060405234801561001057600080fd5b50600436106100725760003560e01c8063b05f87db11610050578063b05f87db146100df578063d834bcbf146100f4578063ec08af331461010757600080fd5b80630e159f8014610077578063898bd921146100b9578063b00c8484146100cc575b600080fd5b6100a7610085366004610e0e565b6000602081815293815260408082208552928152828120909352825290205481565b60405190815260200160405180910390f35b6100a76100c7366004610e94565b61014d565b6100a76100da366004610ef9565b6101b0565b6100f26100ed366004610f47565b61023f565b005b6100a7610102366004610e0e565b6103eb565b6100a7610115366004610fd8565b73ffffffffffffffffffffffffffffffffffffffff918216600090815260016020908152604080832093909416825291909152205490565b600080600061015e33878787610429565b91509150816101a7576040517f904689fc000000000000000000000000000000000000000000000000000000008152336004820152602481018790526044015b60405180910390fd5b95945050505050565b6000806101cc6101c6604085016020860161101b565b85610679565b905060006101e16101dc8561136d565b610745565b6040517f19010000000000000000000000000000000000000000000000000000000000006020820152602281018490526042810182905290915060620160405160208183030381529060405280519060200120925050505b92915050565b61024c85858585856109cb565b61028c5784848484846040517f44b7a40500000000000000000000000000000000000000000000000000000000815260040161019e9594939291906116e8565b60006102a061029a8561136d565b87610b8d565b73ffffffffffffffffffffffffffffffffffffffff808816600090815260208181526040808320938a168352928152828220848352905220549091501561033a576040517f654c8bbf00000000000000000000000000000000000000000000000000000000815273ffffffffffffffffffffffffffffffffffffffff8088166004830152861660248201526044810182905260640161019e565b73ffffffffffffffffffffffffffffffffffffffff868116600081815260208181526040808320948a16808452948252808320868452825280832042908190558484526001808452828520878652845282852080549182018155855293839020909301869055805193845290830193909352818301849052606082015290517faeb5575092e25ccd826d5de3515c096028bb338c1f304db40dc831c3746ee0ae9181900360800190a1505050505050565b6001602052826000526040600020602052816000526040600020818154811061041357600080fd5b9060005260206000200160009250925050505481565b60008060005b8381101561066f57600181019085013560f81c7fffffffffffffffffffffffffffffffffffffffffffffffffffffffffffffffff81016105955773ffffffffffffffffffffffffffffffffffffffff8816600090815260208181526040808320898601803560601c8086529184528285208c8652909352922054601f90940193601482013560e81c916017013560c01c9080158015906104cf5750818110155b80156104e45750826104e18242611881565b10155b156104ee57600197505b604080517f53657175656e6365207265636f76657279206c6561663a0a0000000000000000602080830191909152606087901b7fffffffffffffffffffffffffffffffffffffffff000000000000000000000000166038830152604c8201869052606c80830186905283518084039091018152608c9092019092528051910120876105795780610588565b60008881526020829052604090205b975050505050505061042f565b600381036105c8576020820191860135836105b057806105bf565b60008481526020829052604090205b9350505061042f565b6004810361063a57600382019186013560e81c60006105e78285611894565b90506000806106088c8c8c8c8a908892610603939291906118a7565b610429565b9150915082955087806106185750815b975061062e878260009182526020526040902090565b9650505050505061042f565b6040517fb2505f7c0000000000000000000000000000000000000000000000000000000081526004810182905260240161019e565b5094509492505050565b60007f8b73c3c69bb8fe3d512ecc4cf759cc79239f7b179b0ffacaa9a75d522b39400f7fd50a220b5983c5d6e86926072ffa8a3197ae49602ffc9dd0e60d62d561a2e1d57fc89efdaa54c0f20c7adf612882df0950f5a951637e0307cdcb4c672f298b8bc6856106e957466106ec565b60005b6040805160208101959095528401929092526060830152608082015273ffffffffffffffffffffffffffffffffffffffff831660a082015260c00160405160208183030381529060405280519060200120905092915050565b60008082610100015160405160200161075e91906118d1565b604080517fffffffffffffffffffffffffffffffffffffffffffffffffffffffffffffffe08184030181529190528051602090910120835190915060ff166108215760006107af8460400151610bab565b606085810151608080880151604080517f11e1e4079a79a66e4ade50033cfe2678cdd5341d2dfe5ef9513edb1a0be147a260208201529081018690529384019290925282015260a0810184905290915060c0016040516020818303038152906040528051906020012092505050919050565b825160ff167fffffffffffffffffffffffffffffffffffffffffffffffffffffffffffffffff016108b15760a08301518051602091820120604080517fe19a3b94fc3c7ece3f890d98a99bc422615537a08dea0603fa8425867d87d46693810193909352820152606081018290526080015b60405160208183030381529060405280519060200120915050919050565b825160ff167ffffffffffffffffffffffffffffffffffffffffffffffffffffffffffffffffe016109215760c0830151604080517f11fdeb7e8373a1aa96bfac8d0ea91526b2c5d15e5cee20e0543e780258f3e8e460208201529081019190915260608101829052608001610893565b825160ff167ffffffffffffffffffffffffffffffffffffffffffffffffffffffffffffffffd016109915760e0830151604080517fe19a3b94fc3c7ece3f890d98a99bc422615537a08dea0603fa8425867d87d46660208201529081019190915260608101829052608001610893565b82516040517f0481832000000000000000000000000000000000000000000000000000000000815260ff909116600482015260240161019e565b6000806109d887866101b0565b90506040839003610aa257600080806109f2878783610c59565b50604080516000808252602082018084528a905260ff841692820192909252606081018590526080810184905293965091945092509060019060a0016020604051602081039080840390855afa158015610a50573d6000803e3d6000fd5b5050506020604051035190508973ffffffffffffffffffffffffffffffffffffffff168173ffffffffffffffffffffffffffffffffffffffff1603610a9d576001955050505050506101a7565b505050505b73ffffffffffffffffffffffffffffffffffffffff86163b15610b80576040517f1626ba7e000000000000000000000000000000000000000000000000000000008082529073ffffffffffffffffffffffffffffffffffffffff881690631626ba7e90610b179085908990899060040161191d565b602060405180830381865afa158015610b34573d6000803e3d6000fd5b505050506040513d601f19601f82011682018060405250810190610b589190611937565b7bffffffffffffffffffffffffffffffffffffffffffffffffffffffff1916149150506101a7565b5060009695505050505050565b600080610b9e846020015184610cac565b905060006101e185610745565b600080825167ffffffffffffffff811115610bc857610bc861103d565b604051908082528060200260200182016040528015610bf1578160200160208202803683370190505b50905060005b8351811015610c4757610c22848281518110610c1557610c15611979565b6020026020010151610d1c565b828281518110610c3457610c34611979565b6020908102919091010152600101610bf7565b508060405160200161089391906119a8565b828101803590602001357f7fffffffffffffffffffffffffffffffffffffffffffffffffffffffffffffff811690600090604085019060ff81901c610c9f81601b6119d3565b9350505093509350935093565b60007f8b73c3c69bb8fe3d512ecc4cf759cc79239f7b179b0ffacaa9a75d522b39400f7f4aa45ca7ad825ceb1bf35643f0a58c295239df563b1b565c2485f96477c563187f2a80e1ef1d7842f27f2e6be0972bb708b9a135c38860dbe73c27c3486c34f4de856106e957466106ec565b80516020808301516040808501518051908401206060860151608087015160a088015160c08901519451600098610dc8987f0603985259a953da1f65a522f589c17bd1d0117ec1d3abb7c0788aef251ef4379891979196959493920197885273ffffffffffffffffffffffffffffffffffffffff969096166020880152604087019490945260608601929092526080850152151560a0840152151560c083015260e08201526101000190565b604051602081830303815290604052805190602001209050919050565b803573ffffffffffffffffffffffffffffffffffffffff81168114610e0957600080fd5b919050565b600080600060608486031215610e2357600080fd5b610e2c84610de5565b9250610e3a60208501610de5565b929592945050506040919091013590565b60008083601f840112610e5d57600080fd5b50813567ffffffffffffffff811115610e7557600080fd5b602083019150836020828501011115610e8d57600080fd5b9250929050565b600080600060408486031215610ea957600080fd5b83359250602084013567ffffffffffffffff811115610ec757600080fd5b610ed386828701610e4b565b9497909650939450505050565b60006101208284031215610ef357600080fd5b50919050565b60008060408385031215610f0c57600080fd5b610f1583610de5565b9150602083013567ffffffffffffffff811115610f3157600080fd5b610f3d85828601610ee0565b9150509250929050565b600080600080600060808688031215610f5f57600080fd5b610f6886610de5565b9450610f7660208701610de5565b9350604086013567ffffffffffffffff811115610f9257600080fd5b610f9e88828901610ee0565b935050606086013567ffffffffffffffff811115610fbb57600080fd5b610fc788828901610e4b565b969995985093965092949392505050565b60008060408385031215610feb57600080fd5b610ff483610de5565b915061100260208401610de5565b90509250929050565b80358015158114610e0957600080fd5b60006020828403121561102d57600080fd5b6110368261100b565b9392505050565b7f4e487b7100000000000000000000000000000000000000000000000000000000600052604160045260246000fd5b60405160e0810167ffffffffffffffff8111828210171561108f5761108f61103d565b60405290565b604051610120810167ffffffffffffffff8111828210171561108f5761108f61103d565b604051601f82017fffffffffffffffffffffffffffffffffffffffffffffffffffffffffffffffe016810167ffffffffffffffff811182821017156111005761110061103d565b604052919050565b803560ff81168114610e0957600080fd5b600067ffffffffffffffff8211156111335761113361103d565b5060051b60200190565b600082601f83011261114e57600080fd5b813567ffffffffffffffff8111156111685761116861103d565b61119960207fffffffffffffffffffffffffffffffffffffffffffffffffffffffffffffffe0601f840116016110b9565b8181528460208386010111156111ae57600080fd5b816020850160208301376000918101602001919091529392505050565b600082601f8301126111dc57600080fd5b81356111ef6111ea82611119565b6110b9565b8082825260208201915060208360051b86010192508583111561121157600080fd5b602085015b838110156112fe57803567ffffffffffffffff81111561123557600080fd5b860160e08189037fffffffffffffffffffffffffffffffffffffffffffffffffffffffffffffffe001121561126957600080fd5b61127161106c565b61127d60208301610de5565b815260408201356020820152606082013567ffffffffffffffff8111156112a357600080fd5b6112b28a60208386010161113d565b604083015250608082013560608201526112ce60a0830161100b565b60808201526112df60c0830161100b565b60a082015260e0919091013560c0820152835260209283019201611216565b5095945050505050565b600082601f83011261131957600080fd5b81356113276111ea82611119565b8082825260208201915060208360051b86010192508583111561134957600080fd5b602085015b838110156112fe5761135f81610de5565b83526020928301920161134e565b6000610120823603121561138057600080fd5b611388611095565b61139183611108565b815261139f6020840161100b565b6020820152604083013567ffffffffffffffff8111156113be57600080fd5b6113ca368286016111cb565b604083015250606083810135908201526080808401359082015260a083013567ffffffffffffffff8111156113fe57600080fd5b61140a3682860161113d565b60a08301525060c0838101359082015260e0808401359082015261010083013567ffffffffffffffff81111561143f57600080fd5b61144b36828601611308565b6101008301525092915050565b60008083357fffffffffffffffffffffffffffffffffffffffffffffffffffffffffffffffe184360301811261148d57600080fd5b830160208101925035905067ffffffffffffffff8111156114ad57600080fd5b8060051b3603821315610e8d57600080fd5b60008083357fffffffffffffffffffffffffffffffffffffffffffffffffffffffffffffffe18436030181126114f457600080fd5b830160208101925035905067ffffffffffffffff81111561151457600080fd5b803603821315610e8d57600080fd5b8183528181602085013750600060208284010152600060207fffffffffffffffffffffffffffffffffffffffffffffffffffffffffffffffe0601f840116840101905092915050565b60008383855260208501945060208460051b8201018360005b86811015611687577fffffffffffffffffffffffffffffffffffffffffffffffffffffffffffffffe084840301885281357fffffffffffffffffffffffffffffffffffffffffffffffffffffffffffffff218736030181126115e657600080fd5b860173ffffffffffffffffffffffffffffffffffffffff61160682610de5565b1684526020818101359085015261162060408201826114bf565b60e0604087015261163560e087018284611523565b60608481013590880152915061164f90506080830161100b565b1515608086015261166260a0830161100b565b151560a086015260c09182013591909401526020978801979190910190600101611585565b50909695505050505050565b81835260208301925060008160005b848110156116de5773ffffffffffffffffffffffffffffffffffffffff6116c883610de5565b16865260209586019591909101906001016116a2565b5093949350505050565b73ffffffffffffffffffffffffffffffffffffffff8616815273ffffffffffffffffffffffffffffffffffffffff851660208201526080604082015261173b6080820161173486611108565b60ff169052565b60006117496020860161100b565b151560a083015261175d6040860186611458565b61012060c08501526117746101a08501828461156c565b606088013560e08601526080880135610100860152915061179a905060a08701876114bf565b7fffffffffffffffffffffffffffffffffffffffffffffffffffffffffffffff80858403016101208601526117d0838284611523565b60c089013561014087015260e089013561016087015292506117f9915050610100870187611458565b7fffffffffffffffffffffffffffffffffffffffffffffffffffffffffffffff808584030161018086015261182f838284611693565b925050508281036060840152611846818587611523565b98975050505050505050565b7f4e487b7100000000000000000000000000000000000000000000000000000000600052601160045260246000fd5b8181038181111561023957610239611852565b8082018082111561023957610239611852565b600080858511156118b757600080fd5b838611156118c457600080fd5b5050820193919092039150565b8151600090829060208501835b8281101561191257815173ffffffffffffffffffffffffffffffffffffffff168452602093840193909101906001016118de565b509195945050505050565b8381526040602082015260006101a7604083018486611523565b60006020828403121561194957600080fd5b81517fffffffff000000000000000000000000000000000000000000000000000000008116811461103657600080fd5b7f4e487b7100000000000000000000000000000000000000000000000000000000600052603260045260246000fd5b8151600090829060208501835b828110156119125781518452602093840193909101906001016119b5565b60ff81811683821601908111156102395761023961185256fea26469706673582212206760abd6c17ed064e9a476bb9517f495f4faffba7bf85abc1832671b993a8e6c64736f6c634300081c0033",
  "linkReferences": {},
  "deployedLinkReferences": {}
}