{
  "_format": "hh-sol-artifact-1",
  "contractName": "Recovery",
  "sourceName": "src/extensions/recovery/Recovery.sol",
  "abi": [
    {
      "inputs": [
        {
          "internalType": "address",
          "name": "_wallet",
          "type": "address"
        },
        {
          "internalType": "address",
          "name": "_signer",
          "type": "address"
        },
        {
          "internalType": "bytes32",
          "name": "_payloadHash",
          "type": "bytes32"
        }
      ],
      "name": "AlreadyQueued",
      "type": "error"
    },
    {
      "inputs": [
        {
          "internalType": "uint8",
          "name": "kind",
          "type": "uint8"
        }
      ],
      "name": "InvalidKind",
      "type": "error"
    },
    {
      "inputs": [
        {
          "internalType": "address",
          "name": "_wallet",
          "type": "address"
        },
        {
          "internalType": "address",
          "name": "_signer",
          "type": "address"
        },
        {
          "components": [
            {
              "internalType": "uint8",
              "name": "kind",
              "type": "uint8"
            },
            {
              "internalType": "bool",
              "name": "noChainId",
              "type": "bool"
            },
            {
              "components": [
                {
                  "internalType": "address",
                  "name": "to",
                  "type": "address"
                },
                {
                  "internalType": "uint256",
                  "name": "value",
                  "type": "uint256"
                },
                {
                  "internalType": "bytes",
                  "name": "data",
                  "type": "bytes"
                },
                {
                  "internalType": "uint256",
                  "name": "gasLimit",
                  "type": "uint256"
                },
                {
                  "internalType": "bool",
                  "name": "delegateCall",
                  "type": "bool"
                },
                {
                  "internalType": "bool",
                  "name": "onlyFallback",
                  "type": "bool"
                },
                {
                  "internalType": "uint256",
                  "name": "behaviorOnError",
                  "type": "uint256"
                }
              ],
              "internalType": "struct Payload.Call[]",
              "name": "calls",
              "type": "tuple[]"
            },
            {
              "internalType": "uint256",
              "name": "space",
              "type": "uint256"
            },
            {
              "internalType": "uint256",
              "name": "nonce",
              "type": "uint256"
            },
            {
              "internalType": "bytes",
              "name": "message",
              "type": "bytes"
            },
            {
              "internalType": "bytes32",
              "name": "imageHash",
              "type": "bytes32"
            },
            {
              "internalType": "bytes32",
              "name": "digest",
              "type": "bytes32"
            },
            {
              "internalType": "address[]",
              "name": "parentWallets",
              "type": "address[]"
            }
          ],
          "internalType": "struct Payload.Decoded",
          "name": "_payload",
          "type": "tuple"
        },
        {
          "internalType": "bytes",
          "name": "_signature",
          "type": "bytes"
        }
      ],
      "name": "InvalidSignature",
      "type": "error"
    },
    {
      "inputs": [
        {
          "internalType": "uint256",
          "name": "_flag",
          "type": "uint256"
        }
      ],
      "name": "InvalidSignatureFlag",
      "type": "error"
    },
    {
      "inputs": [
        {
          "internalType": "address",
          "name": "_wallet",
          "type": "address"
        },
        {
          "internalType": "bytes32",
          "name": "_payloadHash",
          "type": "bytes32"
        }
      ],
      "name": "QueueNotReady",
      "type": "error"
    },
    {
      "anonymous": false,
      "inputs": [
        {
          "indexed": false,
          "internalType": "address",
          "name": "_wallet",
          "type": "address"
        },
        {
          "indexed": false,
          "internalType": "address",
          "name": "_signer",
          "type": "address"
        },
        {
          "indexed": false,
          "internalType": "bytes32",
          "name": "_payloadHash",
          "type": "bytes32"
        },
        {
          "indexed": false,
          "internalType": "uint256",
          "name": "_timestamp",
          "type": "uint256"
        }
      ],
      "name": "NewQueuedPayload",
      "type": "event"
    },
    {
      "inputs": [
        {
          "internalType": "address",
          "name": "_wallet",
          "type": "address"
        },
        {
          "internalType": "address",
          "name": "_signer",
          "type": "address"
        },
        {
          "components": [
            {
              "internalType": "uint8",
              "name": "kind",
              "type": "uint8"
            },
            {
              "internalType": "bool",
              "name": "noChainId",
              "type": "bool"
            },
            {
              "components": [
                {
                  "internalType": "address",
                  "name": "to",
                  "type": "address"
                },
                {
                  "internalType": "uint256",
                  "name": "value",
                  "type": "uint256"
                },
                {
                  "internalType": "bytes",
                  "name": "data",
                  "type": "bytes"
                },
                {
                  "internalType": "uint256",
                  "name": "gasLimit",
                  "type": "uint256"
                },
                {
                  "internalType": "bool",
                  "name": "delegateCall",
                  "type": "bool"
                },
                {
                  "internalType": "bool",
                  "name": "onlyFallback",
                  "type": "bool"
                },
                {
                  "internalType": "uint256",
                  "name": "behaviorOnError",
                  "type": "uint256"
                }
              ],
              "internalType": "struct Payload.Call[]",
              "name": "calls",
              "type": "tuple[]"
            },
            {
              "internalType": "uint256",
              "name": "space",
              "type": "uint256"
            },
            {
              "internalType": "uint256",
              "name": "nonce",
              "type": "uint256"
            },
            {
              "internalType": "bytes",
              "name": "message",
              "type": "bytes"
            },
            {
              "internalType": "bytes32",
              "name": "imageHash",
              "type": "bytes32"
            },
            {
              "internalType": "bytes32",
              "name": "digest",
              "type": "bytes32"
            },
            {
              "internalType": "address[]",
              "name": "parentWallets",
              "type": "address[]"
            }
          ],
          "internalType": "struct Payload.Decoded",
          "name": "_payload",
          "type": "tuple"
        },
        {
          "internalType": "bytes",
          "name": "_signature",
          "type": "bytes"
        }
      ],
      "name": "queuePayload",
      "outputs": [],
      "stateMutability": "nonpayable",
      "type": "function"
    },
    {
      "inputs": [
        {
          "internalType": "address",
          "name": "",
          "type": "address"
        },
        {
          "internalType": "address",
          "name": "",
          "type": "address"
        },
        {
          "internalType": "uint256",
          "name": "",
          "type": "uint256"
        }
      ],
      "name": "queuedPayloadHashes",
      "outputs": [
        {
          "internalType": "bytes32",
          "name": "",
          "type": "bytes32"
        }
      ],
      "stateMutability": "view",
      "type": "function"
    },
    {
      "inputs": [
        {
          "internalType": "bytes32",
          "name": "_payloadHash",
          "type": "bytes32"
        },
        {
          "internalType": "bytes",
          "name": "_signature",
          "type": "bytes"
        }
      ],
      "name": "recoverSapientSignatureCompact",
      "outputs": [
        {
          "internalType": "bytes32",
          "name": "",
          "type": "bytes32"
        }
      ],
      "stateMutability": "view",
      "type": "function"
    },
    {
      "inputs": [
        {
          "internalType": "address",
          "name": "_wallet",
          "type": "address"
        },
        {
          "components": [
            {
              "internalType": "uint8",
              "name": "kind",
              "type": "uint8"
            },
            {
              "internalType": "bool",
              "name": "noChainId",
              "type": "bool"
            },
            {
              "components": [
                {
                  "internalType": "address",
                  "name": "to",
                  "type": "address"
                },
                {
                  "internalType": "uint256",
                  "name": "value",
                  "type": "uint256"
                },
                {
                  "internalType": "bytes",
                  "name": "data",
                  "type": "bytes"
                },
                {
                  "internalType": "uint256",
                  "name": "gasLimit",
                  "type": "uint256"
                },
                {
                  "internalType": "bool",
                  "name": "delegateCall",
                  "type": "bool"
                },
                {
                  "internalType": "bool",
                  "name": "onlyFallback",
                  "type": "bool"
                },
                {
                  "internalType": "uint256",
                  "name": "behaviorOnError",
                  "type": "uint256"
                }
              ],
              "internalType": "struct Payload.Call[]",
              "name": "calls",
              "type": "tuple[]"
            },
            {
              "internalType": "uint256",
              "name": "space",
              "type": "uint256"
            },
            {
              "internalType": "uint256",
              "name": "nonce",
              "type": "uint256"
            },
            {
              "internalType": "bytes",
              "name": "message",
              "type": "bytes"
            },
            {
              "internalType": "bytes32",
              "name": "imageHash",
              "type": "bytes32"
            },
            {
              "internalType": "bytes32",
              "name": "digest",
              "type": "bytes32"
            },
            {
              "internalType": "address[]",
              "name": "parentWallets",
              "type": "address[]"
            }
          ],
          "internalType": "struct Payload.Decoded",
          "name": "_payload",
          "type": "tuple"
        }
      ],
      "name": "recoveryPayloadHash",
      "outputs": [
        {
          "internalType": "bytes32",
          "name": "",
          "type": "bytes32"
        }
      ],
      "stateMutability": "view",
      "type": "function"
    },
    {
      "inputs": [
        {
          "internalType": "address",
          "name": "",
          "type": "address"
        },
        {
          "internalType": "address",
          "name": "",
          "type": "address"
        },
        {
          "internalType": "bytes32",
          "name": "",
          "type": "bytes32"
        }
      ],
      "name": "timestampForQueuedPayload",
      "outputs": [
        {
          "internalType": "uint256",
          "name": "",
          "type": "uint256"
        }
      ],
      "stateMutability": "view",
      "type": "function"
    },
    {
      "inputs": [
        {
          "internalType": "address",
          "name": "_wallet",
          "type": "address"
        },
        {
          "internalType": "address",
          "name": "_signer",
          "type": "address"
        }
      ],
      "name": "totalQueuedPayloads",
      "outputs": [
        {
          "internalType": "uint256",
          "name": "",
          "type": "uint256"
        }
      ],
      "stateMutability": "view",
      "type": "function"
    }
  ],
  "bytecode": "0x6080604052348015600f57600080fd5b50611a238061001f6000396000f3fe608060405234801561001057600080fd5b50600436106100725760003560e01c8063b05f87db11610050578063b05f87db146100df578063d834bcbf146100f4578063ec08af331461010757600080fd5b80630e159f8014610077578063898bd921146100b9578063b00c8484146100cc575b600080fd5b6100a7610085366004610de6565b6000602081815293815260408082208552928152828120909352825290205481565b60405190815260200160405180910390f35b6100a76100c7366004610e6c565b61014d565b6100a76100da366004610ed1565b6101b0565b6100f26100ed366004610f1f565b61023f565b005b6100a7610102366004610de6565b6103eb565b6100a7610115366004610fb0565b73ffffffffffffffffffffffffffffffffffffffff918216600090815260016020908152604080832093909416825291909152205490565b600080600061015e33878787610429565b91509150816101a7576040517f904689fc000000000000000000000000000000000000000000000000000000008152336004820152602481018790526044015b60405180910390fd5b95945050505050565b6000806101cc6101c66040850160208601610ff3565b8561067c565b905060006101e16101dc85611345565b610748565b6040517f19010000000000000000000000000000000000000000000000000000000000006020820152602281018490526042810182905290915060620160405160208183030381529060405280519060200120925050505b92915050565b61024c85858585856109ce565b61028c5784848484846040517f44b7a40500000000000000000000000000000000000000000000000000000000815260040161019e9594939291906116c0565b60006102a061029a85611345565b87610bd2565b73ffffffffffffffffffffffffffffffffffffffff808816600090815260208181526040808320938a168352928152828220848352905220549091501561033a576040517f654c8bbf00000000000000000000000000000000000000000000000000000000815273ffffffffffffffffffffffffffffffffffffffff8088166004830152861660248201526044810182905260640161019e565b73ffffffffffffffffffffffffffffffffffffffff868116600081815260208181526040808320948a16808452948252808320868452825280832042908190558484526001808452828520878652845282852080549182018155855293839020909301869055805193845290830193909352818301849052606082015290517faeb5575092e25ccd826d5de3515c096028bb338c1f304db40dc831c3746ee0ae9181900360800190a1505050505050565b6001602052826000526040600020602052816000526040600020818154811061041357600080fd5b9060005260206000200160009250925050505481565b60008060005b8381101561067257600181019085013560f81c7fffffffffffffffffffffffffffffffffffffffffffffffffffffffffffffffff81016105955773ffffffffffffffffffffffffffffffffffffffff8816600090815260208181526040808320898601803560601c8086529184528285208c8652909352922054601f90940193601482013560e81c916017013560c01c9080158015906104cf5750818110155b80156104e45750826104e18242611859565b10155b156104ee57600197505b604080517f53657175656e6365207265636f76657279206c6561663a0a0000000000000000602080830191909152606087901b7fffffffffffffffffffffffffffffffffffffffff000000000000000000000000166038830152604c8201869052606c80830186905283518084039091018152608c9092019092528051910120876105795780610588565b60008881526020829052604090205b975050505050505061042f565b600381036105c8576020820191860135836105b057806105bf565b60008481526020829052604090205b9350505061042f565b6004810361063d57600382019186013560e81c60006105e7828561186c565b90506000806106088c8c8c8c8a9088926106039392919061187f565b610429565b9150915082955087806106185750815b975061062e878260009182526020526040902090565b9650829550505050505061042f565b6040517fb2505f7c0000000000000000000000000000000000000000000000000000000081526004810182905260240161019e565b5094509492505050565b60007f8b73c3c69bb8fe3d512ecc4cf759cc79239f7b179b0ffacaa9a75d522b39400f7fd50a220b5983c5d6e86926072ffa8a3197ae49602ffc9dd0e60d62d561a2e1d57fc89efdaa54c0f20c7adf612882df0950f5a951637e0307cdcb4c672f298b8bc6856106ec57466106ef565b60005b6040805160208101959095528401929092526060830152608082015273ffffffffffffffffffffffffffffffffffffffff831660a082015260c00160405160208183030381529060405280519060200120905092915050565b60008082610100015160405160200161076191906118a9565b604080517fffffffffffffffffffffffffffffffffffffffffffffffffffffffffffffffe08184030181529190528051602090910120835190915060ff166108245760006107b28460400151610bf0565b606080860151608080880151604080517f11e1e4079a79a66e4ade50033cfe2678cdd5341d2dfe5ef9513edb1a0be147a260208201529081018690529384019290925282015260a0810184905290915060c0016040516020818303038152906040528051906020012092505050919050565b825160ff167fffffffffffffffffffffffffffffffffffffffffffffffffffffffffffffffff016108b45760a08301518051602091820120604080517fe19a3b94fc3c7ece3f890d98a99bc422615537a08dea0603fa8425867d87d46693810193909352820152606081018290526080015b60405160208183030381529060405280519060200120915050919050565b825160ff167ffffffffffffffffffffffffffffffffffffffffffffffffffffffffffffffffe016109245760c0830151604080517f11fdeb7e8373a1aa96bfac8d0ea91526b2c5d15e5cee20e0543e780258f3e8e460208201529081019190915260608101829052608001610896565b825160ff167ffffffffffffffffffffffffffffffffffffffffffffffffffffffffffffffffd016109945760e0830151604080517fe19a3b94fc3c7ece3f890d98a99bc422615537a08dea0603fa8425867d87d46660208201529081019190915260608101829052608001610896565b82516040517f0481832000000000000000000000000000000000000000000000000000000000815260ff909116600482015260240161019e565b6000806109db87866101b0565b905073ffffffffffffffffffffffffffffffffffffffff86163b15610adb576040517f1626ba7e0000000000000000000000000000000000000000000000000000000081527f20c13b0b000000000000000000000000000000000000000000000000000000009073ffffffffffffffffffffffffffffffffffffffff881690631626ba7e90610a72908590899089906004016118f5565b602060405180830381865afa158015610a8f573d6000803e3d6000fd5b505050506040513d601f19601f82011682018060405250810190610ab3919061190f565b7bffffffffffffffffffffffffffffffffffffffffffffffffffffffff1916149150506101a7565b600080610aea85870187611951565b909250905060ff81901c7f7fffffffffffffffffffffffffffffffffffffffffffffffffffffffffffffff82166000610b2483601b611973565b604080516000808252602082018084528a905260ff84169282019290925260608101889052608081018590529192509060019060a0016020604051602081039080840390855afa158015610b7c573d6000803e3d6000fd5b50506040517fffffffffffffffffffffffffffffffffffffffffffffffffffffffffffffffe0015173ffffffffffffffffffffffffffffffffffffffff8e81169116149850505050505050505095945050505050565b600080610be3846020015184610c81565b905060006101e185610748565b6000606060005b8351811015610c72576000610c24858381518110610c1757610c1761198c565b6020026020010151610cf1565b90508281604051602001610c399291906119bb565b604080517fffffffffffffffffffffffffffffffffffffffffffffffffffffffffffffffe0818403018152919052925050600101610bf7565b50805160209091012092915050565b60007f8b73c3c69bb8fe3d512ecc4cf759cc79239f7b179b0ffacaa9a75d522b39400f7f4aa45ca7ad825ceb1bf35643f0a58c295239df563b1b565c2485f96477c563187f2a80e1ef1d7842f27f2e6be0972bb708b9a135c38860dbe73c27c3486c34f4de856106ec57466106ef565b60007f0603985259a953da1f65a522f589c17bd1d0117ec1d3abb7c0788aef251ef43782600001518360200151846040015180519060200120856060015186608001518760a001518860c00151604051602001610da098979695949392919097885273ffffffffffffffffffffffffffffffffffffffff969096166020880152604087019490945260608601929092526080850152151560a0840152151560c083015260e08201526101000190565b604051602081830303815290604052805190602001209050919050565b803573ffffffffffffffffffffffffffffffffffffffff81168114610de157600080fd5b919050565b600080600060608486031215610dfb57600080fd5b610e0484610dbd565b9250610e1260208501610dbd565b929592945050506040919091013590565b60008083601f840112610e3557600080fd5b50813567ffffffffffffffff811115610e4d57600080fd5b602083019150836020828501011115610e6557600080fd5b9250929050565b600080600060408486031215610e8157600080fd5b83359250602084013567ffffffffffffffff811115610e9f57600080fd5b610eab86828701610e23565b9497909650939450505050565b60006101208284031215610ecb57600080fd5b50919050565b60008060408385031215610ee457600080fd5b610eed83610dbd565b9150602083013567ffffffffffffffff811115610f0957600080fd5b610f1585828601610eb8565b9150509250929050565b600080600080600060808688031215610f3757600080fd5b610f4086610dbd565b9450610f4e60208701610dbd565b9350604086013567ffffffffffffffff811115610f6a57600080fd5b610f7688828901610eb8565b935050606086013567ffffffffffffffff811115610f9357600080fd5b610f9f88828901610e23565b969995985093965092949392505050565b60008060408385031215610fc357600080fd5b610fcc83610dbd565b9150610fda60208401610dbd565b90509250929050565b80358015158114610de157600080fd5b60006020828403121561100557600080fd5b61100e82610fe3565b9392505050565b7f4e487b7100000000000000000000000000000000000000000000000000000000600052604160045260246000fd5b60405160e0810167ffffffffffffffff8111828210171561106757611067611015565b60405290565b604051610120810167ffffffffffffffff8111828210171561106757611067611015565b604051601f82017fffffffffffffffffffffffffffffffffffffffffffffffffffffffffffffffe016810167ffffffffffffffff811182821017156110d8576110d8611015565b604052919050565b803560ff81168114610de157600080fd5b600067ffffffffffffffff82111561110b5761110b611015565b5060051b60200190565b600082601f83011261112657600080fd5b813567ffffffffffffffff81111561114057611140611015565b61117160207fffffffffffffffffffffffffffffffffffffffffffffffffffffffffffffffe0601f84011601611091565b81815284602083860101111561118657600080fd5b816020850160208301376000918101602001919091529392505050565b600082601f8301126111b457600080fd5b81356111c76111c2826110f1565b611091565b8082825260208201915060208360051b8601019250858311156111e957600080fd5b602085015b838110156112d657803567ffffffffffffffff81111561120d57600080fd5b860160e08189037fffffffffffffffffffffffffffffffffffffffffffffffffffffffffffffffe001121561124157600080fd5b611249611044565b61125560208301610dbd565b815260408201356020820152606082013567ffffffffffffffff81111561127b57600080fd5b61128a8a602083860101611115565b604083015250608082013560608201526112a660a08301610fe3565b60808201526112b760c08301610fe3565b60a082015260e0919091013560c08201528352602092830192016111ee565b5095945050505050565b600082601f8301126112f157600080fd5b81356112ff6111c2826110f1565b8082825260208201915060208360051b86010192508583111561132157600080fd5b602085015b838110156112d65761133781610dbd565b835260209283019201611326565b6000610120823603121561135857600080fd5b61136061106d565b611369836110e0565b815261137760208401610fe3565b6020820152604083013567ffffffffffffffff81111561139657600080fd5b6113a2368286016111a3565b604083015250606083810135908201526080808401359082015260a083013567ffffffffffffffff8111156113d657600080fd5b6113e236828601611115565b60a08301525060c0838101359082015260e0808401359082015261010083013567ffffffffffffffff81111561141757600080fd5b611423368286016112e0565b6101008301525092915050565b60008083357fffffffffffffffffffffffffffffffffffffffffffffffffffffffffffffffe184360301811261146557600080fd5b830160208101925035905067ffffffffffffffff81111561148557600080fd5b8060051b3603821315610e6557600080fd5b60008083357fffffffffffffffffffffffffffffffffffffffffffffffffffffffffffffffe18436030181126114cc57600080fd5b830160208101925035905067ffffffffffffffff8111156114ec57600080fd5b803603821315610e6557600080fd5b8183528181602085013750600060208284010152600060207fffffffffffffffffffffffffffffffffffffffffffffffffffffffffffffffe0601f840116840101905092915050565b60008383855260208501945060208460051b8201018360005b8681101561165f577fffffffffffffffffffffffffffffffffffffffffffffffffffffffffffffffe084840301885281357fffffffffffffffffffffffffffffffffffffffffffffffffffffffffffffff218736030181126115be57600080fd5b860173ffffffffffffffffffffffffffffffffffffffff6115de82610dbd565b168452602081810135908501526115f86040820182611497565b60e0604087015261160d60e0870182846114fb565b606084810135908801529150611627905060808301610fe3565b1515608086015261163a60a08301610fe3565b151560a086015260c0918201359190940152602097880197919091019060010161155d565b50909695505050505050565b81835260208301925060008160005b848110156116b65773ffffffffffffffffffffffffffffffffffffffff6116a083610dbd565b168652602095860195919091019060010161167a565b5093949350505050565b73ffffffffffffffffffffffffffffffffffffffff8616815273ffffffffffffffffffffffffffffffffffffffff85166020820152608060408201526117136080820161170c866110e0565b60ff169052565b600061172160208601610fe3565b151560a08301526117356040860186611430565b61012060c085015261174c6101a085018284611544565b606088013560e086015260808801356101008601529150611772905060a0870187611497565b7fffffffffffffffffffffffffffffffffffffffffffffffffffffffffffffff80858403016101208601526117a88382846114fb565b60c089013561014087015260e089013561016087015292506117d1915050610100870187611430565b7fffffffffffffffffffffffffffffffffffffffffffffffffffffffffffffff808584030161018086015261180783828461166b565b92505050828103606084015261181e8185876114fb565b98975050505050505050565b7f4e487b7100000000000000000000000000000000000000000000000000000000600052601160045260246000fd5b818103818111156102395761023961182a565b808201808211156102395761023961182a565b6000808585111561188f57600080fd5b8386111561189c57600080fd5b5050820193919092039150565b8151600090829060208501835b828110156118ea57815173ffffffffffffffffffffffffffffffffffffffff168452602093840193909101906001016118b6565b509195945050505050565b8381526040602082015260006101a76040830184866114fb565b60006020828403121561192157600080fd5b81517fffffffff000000000000000000000000000000000000000000000000000000008116811461100e57600080fd5b6000806040838503121561196457600080fd5b50508035926020909101359150565b60ff81811683821601908111156102395761023961182a565b7f4e487b7100000000000000000000000000000000000000000000000000000000600052603260045260246000fd5b6000835160005b818110156119dc57602081870181015185830152016119c2565b50919091019182525060200191905056fea2646970667358221220808f5d42197a4d2d3249df2023d14f654c82b9486b9c132de6df642d3a9f970764736f6c634300081b0033",
  "linkReferences": {},
  "deployedLinkReferences": {}
}