{
  "_format": "hh-sol-artifact-1",
  "contractName": "Recovery",
  "sourceName": "src/extensions/recovery/Recovery.sol",
  "abi": [
    {
      "inputs": [
        {
          "internalType": "address",
          "name": "_wallet",
          "type": "address"
        },
        {
          "internalType": "address",
          "name": "_signer",
          "type": "address"
        },
        {
          "internalType": "bytes32",
          "name": "_payloadHash",
          "type": "bytes32"
        }
      ],
      "name": "AlreadyQueued",
      "type": "error"
    },
    {
      "inputs": [
        {
          "internalType": "address",
          "name": "_wallet",
          "type": "address"
        },
        {
          "internalType": "address",
          "name": "_signer",
          "type": "address"
        },
        {
          "components": [
            {
              "internalType": "uint8",
              "name": "kind",
              "type": "uint8"
            },
            {
              "internalType": "bool",
              "name": "noChainId",
              "type": "bool"
            },
            {
              "components": [
                {
                  "internalType": "address",
                  "name": "to",
                  "type": "address"
                },
                {
                  "internalType": "uint256",
                  "name": "value",
                  "type": "uint256"
                },
                {
                  "internalType": "bytes",
                  "name": "data",
                  "type": "bytes"
                },
                {
                  "internalType": "uint256",
                  "name": "gasLimit",
                  "type": "uint256"
                },
                {
                  "internalType": "bool",
                  "name": "delegateCall",
                  "type": "bool"
                },
                {
                  "internalType": "bool",
                  "name": "onlyFallback",
                  "type": "bool"
                },
                {
                  "internalType": "uint256",
                  "name": "behaviorOnError",
                  "type": "uint256"
                }
              ],
              "internalType": "struct Payload.Call[]",
              "name": "calls",
              "type": "tuple[]"
            },
            {
              "internalType": "uint256",
              "name": "space",
              "type": "uint256"
            },
            {
              "internalType": "uint256",
              "name": "nonce",
              "type": "uint256"
            },
            {
              "internalType": "bytes",
              "name": "message",
              "type": "bytes"
            },
            {
              "internalType": "bytes32",
              "name": "imageHash",
              "type": "bytes32"
            },
            {
              "internalType": "bytes32",
              "name": "digest",
              "type": "bytes32"
            },
            {
              "internalType": "address[]",
              "name": "parentWallets",
              "type": "address[]"
            }
          ],
          "internalType": "struct Payload.Decoded",
          "name": "_payload",
          "type": "tuple"
        },
        {
          "internalType": "bytes",
          "name": "_signature",
          "type": "bytes"
        }
      ],
      "name": "InvalidSignature",
      "type": "error"
    },
    {
      "inputs": [
        {
          "internalType": "uint256",
          "name": "_flag",
          "type": "uint256"
        }
      ],
      "name": "InvalidSignatureFlag",
      "type": "error"
    },
    {
      "inputs": [
        {
          "internalType": "address",
          "name": "_wallet",
          "type": "address"
        },
        {
          "internalType": "bytes32",
          "name": "_payloadHash",
          "type": "bytes32"
        }
      ],
      "name": "QueueNotReady",
      "type": "error"
    },
    {
      "anonymous": false,
      "inputs": [
        {
          "indexed": false,
          "internalType": "address",
          "name": "_wallet",
          "type": "address"
        },
        {
          "indexed": false,
          "internalType": "address",
          "name": "_signer",
          "type": "address"
        },
        {
          "indexed": false,
          "internalType": "bytes32",
          "name": "_payloadHash",
          "type": "bytes32"
        },
        {
          "indexed": false,
          "internalType": "uint256",
          "name": "_timestamp",
          "type": "uint256"
        }
      ],
      "name": "NewQueuedPayload",
      "type": "event"
    },
    {
      "inputs": [
        {
          "internalType": "address",
          "name": "_wallet",
          "type": "address"
        },
        {
          "internalType": "address",
          "name": "_signer",
          "type": "address"
        },
        {
          "components": [
            {
              "internalType": "uint8",
              "name": "kind",
              "type": "uint8"
            },
            {
              "internalType": "bool",
              "name": "noChainId",
              "type": "bool"
            },
            {
              "components": [
                {
                  "internalType": "address",
                  "name": "to",
                  "type": "address"
                },
                {
                  "internalType": "uint256",
                  "name": "value",
                  "type": "uint256"
                },
                {
                  "internalType": "bytes",
                  "name": "data",
                  "type": "bytes"
                },
                {
                  "internalType": "uint256",
                  "name": "gasLimit",
                  "type": "uint256"
                },
                {
                  "internalType": "bool",
                  "name": "delegateCall",
                  "type": "bool"
                },
                {
                  "internalType": "bool",
                  "name": "onlyFallback",
                  "type": "bool"
                },
                {
                  "internalType": "uint256",
                  "name": "behaviorOnError",
                  "type": "uint256"
                }
              ],
              "internalType": "struct Payload.Call[]",
              "name": "calls",
              "type": "tuple[]"
            },
            {
              "internalType": "uint256",
              "name": "space",
              "type": "uint256"
            },
            {
              "internalType": "uint256",
              "name": "nonce",
              "type": "uint256"
            },
            {
              "internalType": "bytes",
              "name": "message",
              "type": "bytes"
            },
            {
              "internalType": "bytes32",
              "name": "imageHash",
              "type": "bytes32"
            },
            {
              "internalType": "bytes32",
              "name": "digest",
              "type": "bytes32"
            },
            {
              "internalType": "address[]",
              "name": "parentWallets",
              "type": "address[]"
            }
          ],
          "internalType": "struct Payload.Decoded",
          "name": "_payload",
          "type": "tuple"
        },
        {
          "internalType": "bytes",
          "name": "_signature",
          "type": "bytes"
        }
      ],
      "name": "queuePayload",
      "outputs": [],
      "stateMutability": "nonpayable",
      "type": "function"
    },
    {
      "inputs": [
        {
          "internalType": "address",
          "name": "",
          "type": "address"
        },
        {
          "internalType": "address",
          "name": "",
          "type": "address"
        },
        {
          "internalType": "uint256",
          "name": "",
          "type": "uint256"
        }
      ],
      "name": "queuedPayloadHashes",
      "outputs": [
        {
          "internalType": "bytes32",
          "name": "",
          "type": "bytes32"
        }
      ],
      "stateMutability": "view",
      "type": "function"
    },
    {
      "inputs": [
        {
          "internalType": "bytes32",
          "name": "_payloadHash",
          "type": "bytes32"
        },
        {
          "internalType": "bytes",
          "name": "_signature",
          "type": "bytes"
        }
      ],
      "name": "recoverSapientSignatureCompact",
      "outputs": [
        {
          "internalType": "bytes32",
          "name": "",
          "type": "bytes32"
        }
      ],
      "stateMutability": "view",
      "type": "function"
    },
    {
      "inputs": [
        {
          "internalType": "address",
          "name": "",
          "type": "address"
        },
        {
          "internalType": "address",
          "name": "",
          "type": "address"
        },
        {
          "internalType": "bytes32",
          "name": "",
          "type": "bytes32"
        }
      ],
      "name": "timestampForQueuedPayload",
      "outputs": [
        {
          "internalType": "uint256",
          "name": "",
          "type": "uint256"
        }
      ],
      "stateMutability": "view",
      "type": "function"
    }
  ],
  "bytecode": "0x6080604052348015600f57600080fd5b506119d68061001f6000396000f3fe608060405234801561001057600080fd5b506004361061004c5760003560e01c80630e159f8014610051578063898bd92114610093578063b05f87db146100a6578063d834bcbf146100bb575b600080fd5b61008161005f366004610df6565b6000602081815293815260408082208552928152828120909352825290205481565b60405190815260200160405180910390f35b6100816100a1366004610e7c565b6100ce565b6100b96100b4366004610ec8565b610131565b005b6100816100c9366004610df6565b6102dd565b60008060006100df3387878761031b565b9150915081610128576040517f904689fc000000000000000000000000000000000000000000000000000000008152336004820152602481018790526044015b60405180910390fd5b95945050505050565b61013e85858585856104e7565b61017e5784848484846040517f44b7a40500000000000000000000000000000000000000000000000000000000815260040161011f959493929190611210565b600061019261018c85611699565b8761076c565b73ffffffffffffffffffffffffffffffffffffffff808816600090815260208181526040808320938a168352928152828220848352905220549091501561022c576040517f654c8bbf00000000000000000000000000000000000000000000000000000000815273ffffffffffffffffffffffffffffffffffffffff8088166004830152861660248201526044810182905260640161011f565b73ffffffffffffffffffffffffffffffffffffffff868116600081815260208181526040808320948a16808452948252808320868452825280832042908190558484526001808452828520878652845282852080549182018155855293839020909301869055805193845290830193909352818301849052606082015290517faeb5575092e25ccd826d5de3515c096028bb338c1f304db40dc831c3746ee0ae9181900360800190a1505050505050565b6001602052826000526040600020602052816000526040600020818154811061030557600080fd5b9060005260206000200160009250925050505481565b60008060005b838110156104dd57600181019085013560f81c7fffffffffffffffffffffffffffffffffffffffffffffffffffffffffffffffff81016104005773ffffffffffffffffffffffffffffffffffffffff8816600090815260208181526040808320898601803560601c8086529184528285208c8652909352922054601c9094019360149091013560c01c9080158015906103c25750816103c082426117b3565b115b156103cc57600196505b60006103d884846107e8565b9050866103e557806103f4565b60008781526020829052604090205b96505050505050610321565b600381036104335760208201918601358361041b578061042a565b60008481526020829052604090205b93505050610321565b600481036104a857600382019186013560e81c600061045282856117c6565b90506000806104738c8c8c8c8a90889261046e939291906117d9565b61031b565b9150915082955087806104835750815b9750610499878260009182526020526040902090565b96508295505050505050610321565b6040517fb2505f7c0000000000000000000000000000000000000000000000000000000081526004810182905260240161011f565b5094509492505050565b6000806105036104fd6040870160208801611803565b88610869565b9050600061051861051387611699565b61091c565b6040517f1901000000000000000000000000000000000000000000000000000000000000602082015260228101849052604281018290529091506000906062016040516020818303038152906040528051906020012090508773ffffffffffffffffffffffffffffffffffffffff163b600014610672576040517f1626ba7e0000000000000000000000000000000000000000000000000000000081527f20c13b0b000000000000000000000000000000000000000000000000000000009073ffffffffffffffffffffffffffffffffffffffff8a1690631626ba7e906106079085908b908b90600401611825565b602060405180830381865afa158015610624573d6000803e3d6000fd5b505050506040513d601f19601f82011682018060405250810190610648919061183f565b7bffffffffffffffffffffffffffffffffffffffffffffffffffffffff1916149350505050610128565b60008061068187890189611881565b909250905060ff81901c7f7fffffffffffffffffffffffffffffffffffffffffffffffffffffffffffffff821660006106bb83601b6118a3565b604080516000808252602082018084528a905260ff84169282019290925260608101889052608081018590529192509060019060a0016020604051602081039080840390855afa158015610713573d6000803e3d6000fd5b50506040517fffffffffffffffffffffffffffffffffffffffffffffffffffffffffffffffe0015173ffffffffffffffffffffffffffffffffffffffff9081169f169e909e149f9e505050505050505050505050505050565b60008061077d846020015184610b8c565b9050600061078a8561091c565b6040517f19010000000000000000000000000000000000000000000000000000000000006020820152602281018490526042810182905290915060620160405160208183030381529060405280519060200120925050505b92915050565b6040517f53657175656e6365207265636f76657279206c6561663a0a000000000000000060208201527fffffffffffffffffffffffffffffffffffffffff000000000000000000000000606084901b166038820152604c8101829052600090606c015b60405160208183030381529060405280519060200120905092915050565b60007f8b73c3c69bb8fe3d512ecc4cf759cc79239f7b179b0ffacaa9a75d522b39400f7fd50a220b5983c5d6e86926072ffa8a3197ae49602ffc9dd0e60d62d561a2e1d57fc89efdaa54c0f20c7adf612882df0950f5a951637e0307cdcb4c672f298b8bc6856108d957466108dc565b60005b6040805160208101959095528401929092526060830152608082015273ffffffffffffffffffffffffffffffffffffffff831660a082015260c00161084b565b60008061092d836101000151610bfc565b835190915060ff166109ba5760006109488460400151610c7f565b606080860151608080880151604080517f11e1e4079a79a66e4ade50033cfe2678cdd5341d2dfe5ef9513edb1a0be147a260208201529081018690529384019290925282015260a0810184905290915060c0016040516020818303038152906040528051906020012092505050919050565b825160ff167fffffffffffffffffffffffffffffffffffffffffffffffffffffffffffffffff01610a4a5760a08301518051602091820120604080517fe19a3b94fc3c7ece3f890d98a99bc422615537a08dea0603fa8425867d87d46693810193909352820152606081018290526080015b60405160208183030381529060405280519060200120915050919050565b825160ff167ffffffffffffffffffffffffffffffffffffffffffffffffffffffffffffffffe01610aba5760c0830151604080517f11fdeb7e8373a1aa96bfac8d0ea91526b2c5d15e5cee20e0543e780258f3e8e460208201529081019190915260608101829052608001610a2c565b825160ff167ffffffffffffffffffffffffffffffffffffffffffffffffffffffffffffffffd01610b2a5760e0830151604080517fe19a3b94fc3c7ece3f890d98a99bc422615537a08dea0603fa8425867d87d46660208201529081019190915260608101829052608001610a2c565b6040517f08c379a000000000000000000000000000000000000000000000000000000000815260206004820152601060248201527f556e737570706f72746564206b696e6400000000000000000000000000000000604482015260640161011f565b60007f8b73c3c69bb8fe3d512ecc4cf759cc79239f7b179b0ffacaa9a75d522b39400f7f4aa45ca7ad825ceb1bf35643f0a58c295239df563b1b565c2485f96477c563187f2a80e1ef1d7842f27f2e6be0972bb708b9a135c38860dbe73c27c3486c34f4de856108d957466108dc565b6000606060005b8351811015610c705781848281518110610c1f57610c1f6118bc565b6020026020010151604051602001610c3892919061190f565b604080517fffffffffffffffffffffffffffffffffffffffffffffffffffffffffffffffe08184030181529190529150600101610c03565b50805160209091012092915050565b6000606060005b8351811015610c70576000610cb3858381518110610ca657610ca66118bc565b6020026020010151610d01565b90508281604051602001610cc892919061197e565b604080517fffffffffffffffffffffffffffffffffffffffffffffffffffffffffffffffe0818403018152919052925050600101610c86565b60007f0603985259a953da1f65a522f589c17bd1d0117ec1d3abb7c0788aef251ef43782600001518360200151846040015180519060200120856060015186608001518760a001518860c00151604051602001610db098979695949392919097885273ffffffffffffffffffffffffffffffffffffffff969096166020880152604087019490945260608601929092526080850152151560a0840152151560c083015260e08201526101000190565b604051602081830303815290604052805190602001209050919050565b803573ffffffffffffffffffffffffffffffffffffffff81168114610df157600080fd5b919050565b600080600060608486031215610e0b57600080fd5b610e1484610dcd565b9250610e2260208501610dcd565b929592945050506040919091013590565b60008083601f840112610e4557600080fd5b50813567ffffffffffffffff811115610e5d57600080fd5b602083019150836020828501011115610e7557600080fd5b9250929050565b600080600060408486031215610e9157600080fd5b83359250602084013567ffffffffffffffff811115610eaf57600080fd5b610ebb86828701610e33565b9497909650939450505050565b600080600080600060808688031215610ee057600080fd5b610ee986610dcd565b9450610ef760208701610dcd565b9350604086013567ffffffffffffffff811115610f1357600080fd5b86016101208189031215610f2657600080fd5b9250606086013567ffffffffffffffff811115610f4257600080fd5b610f4e88828901610e33565b969995985093965092949392505050565b803560ff81168114610df157600080fd5b80358015158114610df157600080fd5b60008083357fffffffffffffffffffffffffffffffffffffffffffffffffffffffffffffffe1843603018112610fb557600080fd5b830160208101925035905067ffffffffffffffff811115610fd557600080fd5b8060051b3603821315610e7557600080fd5b60008083357fffffffffffffffffffffffffffffffffffffffffffffffffffffffffffffffe184360301811261101c57600080fd5b830160208101925035905067ffffffffffffffff81111561103c57600080fd5b803603821315610e7557600080fd5b8183528181602085013750600060208284010152600060207fffffffffffffffffffffffffffffffffffffffffffffffffffffffffffffffe0601f840116840101905092915050565b60008383855260208501945060208460051b8201018360005b868110156111af577fffffffffffffffffffffffffffffffffffffffffffffffffffffffffffffffe084840301885281357fffffffffffffffffffffffffffffffffffffffffffffffffffffffffffffff2187360301811261110e57600080fd5b860173ffffffffffffffffffffffffffffffffffffffff61112e82610dcd565b168452602081810135908501526111486040820182610fe7565b60e0604087015261115d60e08701828461104b565b606084810135908801529150611177905060808301610f70565b1515608086015261118a60a08301610f70565b151560a086015260c091820135919094015260209788019791909101906001016110ad565b50909695505050505050565b81835260208301925060008160005b848110156112065773ffffffffffffffffffffffffffffffffffffffff6111f083610dcd565b16865260209586019591909101906001016111ca565b5093949350505050565b73ffffffffffffffffffffffffffffffffffffffff8616815273ffffffffffffffffffffffffffffffffffffffff85166020820152608060408201526112636080820161125c86610f5f565b60ff169052565b600061127160208601610f70565b151560a08301526112856040860186610f80565b61012060c085015261129c6101a085018284611094565b606088013560e0860152608088013561010086015291506112c2905060a0870187610fe7565b7fffffffffffffffffffffffffffffffffffffffffffffffffffffffffffffff80858403016101208601526112f883828461104b565b60c089013561014087015260e08901356101608701529250611321915050610100870187610f80565b7fffffffffffffffffffffffffffffffffffffffffffffffffffffffffffffff80858403016101808601526113578382846111bb565b92505050828103606084015261136e81858761104b565b98975050505050505050565b7f4e487b7100000000000000000000000000000000000000000000000000000000600052604160045260246000fd5b60405160e0810167ffffffffffffffff811182821017156113cc576113cc61137a565b60405290565b604051610120810167ffffffffffffffff811182821017156113cc576113cc61137a565b604051601f82017fffffffffffffffffffffffffffffffffffffffffffffffffffffffffffffffe016810167ffffffffffffffff8111828210171561143d5761143d61137a565b604052919050565b600067ffffffffffffffff82111561145f5761145f61137a565b5060051b60200190565b600082601f83011261147a57600080fd5b813567ffffffffffffffff8111156114945761149461137a565b6114c560207fffffffffffffffffffffffffffffffffffffffffffffffffffffffffffffffe0601f840116016113f6565b8181528460208386010111156114da57600080fd5b816020850160208301376000918101602001919091529392505050565b600082601f83011261150857600080fd5b813561151b61151682611445565b6113f6565b8082825260208201915060208360051b86010192508583111561153d57600080fd5b602085015b8381101561162a57803567ffffffffffffffff81111561156157600080fd5b860160e08189037fffffffffffffffffffffffffffffffffffffffffffffffffffffffffffffffe001121561159557600080fd5b61159d6113a9565b6115a960208301610dcd565b815260408201356020820152606082013567ffffffffffffffff8111156115cf57600080fd5b6115de8a602083860101611469565b604083015250608082013560608201526115fa60a08301610f70565b608082015261160b60c08301610f70565b60a082015260e0919091013560c0820152835260209283019201611542565b5095945050505050565b600082601f83011261164557600080fd5b813561165361151682611445565b8082825260208201915060208360051b86010192508583111561167557600080fd5b602085015b8381101561162a5761168b81610dcd565b83526020928301920161167a565b600061012082360312156116ac57600080fd5b6116b46113d2565b6116bd83610f5f565b81526116cb60208401610f70565b6020820152604083013567ffffffffffffffff8111156116ea57600080fd5b6116f6368286016114f7565b604083015250606083810135908201526080808401359082015260a083013567ffffffffffffffff81111561172a57600080fd5b61173636828601611469565b60a08301525060c0838101359082015260e0808401359082015261010083013567ffffffffffffffff81111561176b57600080fd5b61177736828601611634565b6101008301525092915050565b7f4e487b7100000000000000000000000000000000000000000000000000000000600052601160045260246000fd5b818103818111156107e2576107e2611784565b808201808211156107e2576107e2611784565b600080858511156117e957600080fd5b838611156117f657600080fd5b5050820193919092039150565b60006020828403121561181557600080fd5b61181e82610f70565b9392505050565b83815260406020820152600061012860408301848661104b565b60006020828403121561185157600080fd5b81517fffffffff000000000000000000000000000000000000000000000000000000008116811461181e57600080fd5b6000806040838503121561189457600080fd5b50508035926020909101359150565b60ff81811683821601908111156107e2576107e2611784565b7f4e487b7100000000000000000000000000000000000000000000000000000000600052603260045260246000fd5b60005b838110156119065781810151838201526020016118ee565b50506000910152565b604081526000835180604084015261192e8160608501602088016118eb565b73ffffffffffffffffffffffffffffffffffffffff93909316602083015250601f919091017fffffffffffffffffffffffffffffffffffffffffffffffffffffffffffffffe01601606001919050565b600083516119908184602088016118eb565b919091019182525060200191905056fea2646970667358221220a27c0ca9e87f14563f0a35a6cd531f95b0be22f56072680018933485b8bc2f8b64736f6c634300081b0033",
  "linkReferences": {},
  "deployedLinkReferences": {}
}