{
  "_format": "hh-sol-artifact-1",
  "contractName": "Nonce",
  "sourceName": "src/modules/Nonce.sol",
  "abi": [
    {
      "inputs": [
        {
          "internalType": "uint256",
          "name": "_space",
          "type": "uint256"
        },
        {
          "internalType": "uint256",
          "name": "_provided",
          "type": "uint256"
        },
        {
          "internalType": "uint256",
          "name": "_current",
          "type": "uint256"
        }
      ],
      "name": "BadNonce",
      "type": "error"
    },
    {
      "anonymous": false,
      "inputs": [
        {
          "indexed": false,
          "internalType": "uint256",
          "name": "_space",
          "type": "uint256"
        },
        {
          "indexed": false,
          "internalType": "uint256",
          "name": "_newNonce",
          "type": "uint256"
        }
      ],
      "name": "NonceChange",
      "type": "event"
    },
    {
      "inputs": [
        {
          "internalType": "uint256",
          "name": "_space",
          "type": "uint256"
        }
      ],
      "name": "readNonce",
      "outputs": [
        {
          "internalType": "uint256",
          "name": "",
          "type": "uint256"
        }
      ],
      "stateMutability": "view",
      "type": "function"
    }
  ],
  "bytecode": "0x6080604052348015600f57600080fd5b506101298061001f6000396000f3fe6080604052348015600f57600080fd5b506004361060285760003560e01c80638c3f556314602d575b600080fd5b603c603836600460db565b604e565b60405190815260200160405180910390f35b600060787f8d0bf1fd623d628c741362c1289948e57b3e2905218c676d3e69abee36d6ae2e83607e565b92915050565b6000808383604051602001609c929190918252602082015260400190565b604080517fffffffffffffffffffffffffffffffffffffffffffffffffffffffffffffffe0818403018152919052805160209091012054949350505050565b60006020828403121560ec57600080fd5b503591905056fea2646970667358221220eac9e7db15a8280b186895e61b5a387adc13cad1dd328198f98c45e413f8f77364736f6c634300081c0033",
  "linkReferences": {},
  "deployedLinkReferences": {}
}