{"abi":[{"type":"constructor","inputs":[{"name":"_factory","type":"address","internalType":"address"},{"name":"_stage2","type":"address","internalType":"address"}],"stateMutability":"nonpayable"},{"type":"function","name":"FACTORY","inputs":[],"outputs":[{"name":"","type":"address","internalType":"address"}],"stateMutability":"view"},{"type":"function","name":"INIT_CODE_HASH","inputs":[],"outputs":[{"name":"","type":"bytes32","internalType":"bytes32"}],"stateMutability":"view"},{"type":"function","name":"STAGE_2_IMPLEMENTATION","inputs":[],"outputs":[{"name":"","type":"address","internalType":"address"}],"stateMutability":"view"},{"type":"function","name":"getImplementation","inputs":[],"outputs":[{"name":"","type":"address","internalType":"address"}],"stateMutability":"view"},{"type":"function","name":"getStaticSignature","inputs":[{"name":"_hash","type":"bytes32","internalType":"bytes32"}],"outputs":[{"name":"","type":"address","internalType":"address"},{"name":"","type":"uint256","internalType":"uint256"}],"stateMutability":"view"},{"type":"function","name":"isValidSignature","inputs":[{"name":"_hash","type":"bytes32","internalType":"bytes32"},{"name":"_signature","type":"bytes","internalType":"bytes"}],"outputs":[{"name":"","type":"bytes4","internalType":"bytes4"}],"stateMutability":"view"},{"type":"function","name":"recoverPartialSignature","inputs":[{"name":"_payload","type":"tuple","internalType":"struct Payload.Decoded","components":[{"name":"kind","type":"uint8","internalType":"uint8"},{"name":"noChainId","type":"bool","internalType":"bool"},{"name":"calls","type":"tuple[]","internalType":"struct Payload.Call[]","components":[{"name":"to","type":"address","internalType":"address"},{"name":"value","type":"uint256","internalType":"uint256"},{"name":"data","type":"bytes","internalType":"bytes"},{"name":"gasLimit","type":"uint256","internalType":"uint256"},{"name":"delegateCall","type":"bool","internalType":"bool"},{"name":"onlyFallback","type":"bool","internalType":"bool"},{"name":"behaviorOnError","type":"uint256","internalType":"uint256"}]},{"name":"space","type":"uint256","internalType":"uint256"},{"name":"nonce","type":"uint256","internalType":"uint256"},{"name":"message","type":"bytes","internalType":"bytes"},{"name":"imageHash","type":"bytes32","internalType":"bytes32"},{"name":"digest","type":"bytes32","internalType":"bytes32"},{"name":"parentWallets","type":"address[]","internalType":"address[]"}]},{"name":"_signature","type":"bytes","internalType":"bytes"}],"outputs":[{"name":"threshold","type":"uint256","internalType":"uint256"},{"name":"weight","type":"uint256","internalType":"uint256"},{"name":"isValidImage","type":"bool","internalType":"bool"},{"name":"imageHash","type":"bytes32","internalType":"bytes32"},{"name":"checkpoint","type":"uint256","internalType":"uint256"},{"name":"opHash","type":"bytes32","internalType":"bytes32"}],"stateMutability":"view"},{"type":"function","name":"recoverSapientSignature","inputs":[{"name":"_payload","type":"tuple","internalType":"struct Payload.Decoded","components":[{"name":"kind","type":"uint8","internalType":"uint8"},{"name":"noChainId","type":"bool","internalType":"bool"},{"name":"calls","type":"tuple[]","internalType":"struct Payload.Call[]","components":[{"name":"to","type":"address","internalType":"address"},{"name":"value","type":"uint256","internalType":"uint256"},{"name":"data","type":"bytes","internalType":"bytes"},{"name":"gasLimit","type":"uint256","internalType":"uint256"},{"name":"delegateCall","type":"bool","internalType":"bool"},{"name":"onlyFallback","type":"bool","internalType":"bool"},{"name":"behaviorOnError","type":"uint256","internalType":"uint256"}]},{"name":"space","type":"uint256","internalType":"uint256"},{"name":"nonce","type":"uint256","internalType":"uint256"},{"name":"message","type":"bytes","internalType":"bytes"},{"name":"imageHash","type":"bytes32","internalType":"bytes32"},{"name":"digest","type":"bytes32","internalType":"bytes32"},{"name":"parentWallets","type":"address[]","internalType":"address[]"}]},{"name":"_signature","type":"bytes","internalType":"bytes"}],"outputs":[{"name":"","type":"bytes32","internalType":"bytes32"}],"stateMutability":"view"},{"type":"function","name":"setStaticSignature","inputs":[{"name":"_hash","type":"bytes32","internalType":"bytes32"},{"name":"_address","type":"address","internalType":"address"},{"name":"_timestamp","type":"uint96","internalType":"uint96"}],"outputs":[],"stateMutability":"nonpayable"},{"type":"function","name":"updateImageHash","inputs":[{"name":"_imageHash","type":"bytes32","internalType":"bytes32"}],"outputs":[],"stateMutability":"nonpayable"},{"type":"function","name":"updateImplementation","inputs":[{"name":"_implementation","type":"address","internalType":"address"}],"outputs":[],"stateMutability":"payable"},{"type":"event","name":"ImageHashUpdated","inputs":[{"name":"newImageHash","type":"bytes32","indexed":false,"internalType":"bytes32"}],"anonymous":false},{"type":"event","name":"ImplementationUpdated","inputs":[{"name":"newImplementation","type":"address","indexed":false,"internalType":"address"}],"anonymous":false},{"type":"event","name":"StaticSignatureSet","inputs":[{"name":"_hash","type":"bytes32","indexed":false,"internalType":"bytes32"},{"name":"_address","type":"address","indexed":false,"internalType":"address"},{"name":"_timestamp","type":"uint96","indexed":false,"internalType":"uint96"}],"anonymous":false},{"type":"error","name":"ImageHashIsZero","inputs":[]},{"type":"error","name":"InvalidERC1271Signature","inputs":[{"name":"_opHash","type":"bytes32","internalType":"bytes32"},{"name":"_signer","type":"address","internalType":"address"},{"name":"_signature","type":"bytes","internalType":"bytes"}]},{"type":"error","name":"InvalidKind","inputs":[{"name":"kind","type":"uint8","internalType":"uint8"}]},{"type":"error","name":"InvalidSapientSignature","inputs":[{"name":"_payload","type":"tuple","internalType":"struct Payload.Decoded","components":[{"name":"kind","type":"uint8","internalType":"uint8"},{"name":"noChainId","type":"bool","internalType":"bool"},{"name":"calls","type":"tuple[]","internalType":"struct Payload.Call[]","components":[{"name":"to","type":"address","internalType":"address"},{"name":"value","type":"uint256","internalType":"uint256"},{"name":"data","type":"bytes","internalType":"bytes"},{"name":"gasLimit","type":"uint256","internalType":"uint256"},{"name":"delegateCall","type":"bool","internalType":"bool"},{"name":"onlyFallback","type":"bool","internalType":"bool"},{"name":"behaviorOnError","type":"uint256","internalType":"uint256"}]},{"name":"space","type":"uint256","internalType":"uint256"},{"name":"nonce","type":"uint256","internalType":"uint256"},{"name":"message","type":"bytes","internalType":"bytes"},{"name":"imageHash","type":"bytes32","internalType":"bytes32"},{"name":"digest","type":"bytes32","internalType":"bytes32"},{"name":"parentWallets","type":"address[]","internalType":"address[]"}]},{"name":"_signature","type":"bytes","internalType":"bytes"}]},{"type":"error","name":"InvalidSignatureFlag","inputs":[{"name":"_flag","type":"uint256","internalType":"uint256"}]},{"type":"error","name":"InvalidSignatureType","inputs":[{"name":"_type","type":"bytes1","internalType":"bytes1"}]},{"type":"error","name":"InvalidSignatureWeight","inputs":[{"name":"_threshold","type":"uint256","internalType":"uint256"},{"name":"_weight","type":"uint256","internalType":"uint256"}]},{"type":"error","name":"InvalidStaticSignatureExpired","inputs":[{"name":"_opHash","type":"bytes32","internalType":"bytes32"},{"name":"_expires","type":"uint256","internalType":"uint256"}]},{"type":"error","name":"InvalidStaticSignatureWrongCaller","inputs":[{"name":"_opHash","type":"bytes32","internalType":"bytes32"},{"name":"_caller","type":"address","internalType":"address"},{"name":"_expectedCaller","type":"address","internalType":"address"}]},{"type":"error","name":"LowWeightChainedSignature","inputs":[{"name":"_signature","type":"bytes","internalType":"bytes"},{"name":"_threshold","type":"uint256","internalType":"uint256"},{"name":"_weight","type":"uint256","internalType":"uint256"}]},{"type":"error","name":"OnlySelf","inputs":[{"name":"_sender","type":"address","internalType":"address"}]},{"type":"error","name":"UnusedSnapshot","inputs":[{"name":"_snapshot","type":"tuple","internalType":"struct Snapshot","components":[{"name":"imageHash","type":"bytes32","internalType":"bytes32"},{"name":"checkpoint","type":"uint256","internalType":"uint256"}]}]},{"type":"error","name":"WrongChainedCheckpointOrder","inputs":[{"name":"_nextCheckpoint","type":"uint256","internalType":"uint256"},{"name":"_checkpoint","type":"uint256","internalType":"uint256"}]}],"bytecode":{"object":"0x60e0806040523461013e57604081612a57803803809161001f8285610143565b83398101031261013e5761003e602061003783610166565b9201610166565b604051909190606081016001600160401b03811182821017610128576040908152602f82527f6041600e3d396021805130553df33d3d36153402601f57363d3d373d363d305460208301526e5af43d82803e903d91601f57fd5bf360881b82820152519060005b602f811061011357505030604f820152604f81526100c4606f82610143565b6020815191012060805260a05260c0526040516128dc908161017b82396080518181816107ca01526116b1015260a0518181816109180152611682015260c05181818161087f01526109e50152f35b806020809284010151828286010152016100a5565b634e487b7160e01b600052604160045260246000fd5b600080fd5b601f909101601f19168101906001600160401b0382119082101761012857604052565b51906001600160a01b038216820361013e5756fe6080604052600436101561001257600080fd5b60003560e01c8063025b22bc146100c757806313792a4a146100c25780631626ba7e146100bd578063257671f5146100b857806329561426146100b35780632dd31000146100ae57806392dcb3fc146100a95780639f69ef54146100a4578063aaf10f421461009f578063ad55366b1461009a5763f727ef1c1461009557600080fd5b610aa6565b610a5a565b610a09565b61099a565b61093c565b6108cd565b6107ed565b610794565b61070c565b61060f565b610115565b6024359073ffffffffffffffffffffffffffffffffffffffff821682036100ef57565b600080fd5b359073ffffffffffffffffffffffffffffffffffffffff821682036100ef57565b60207ffffffffffffffffffffffffffffffffffffffffffffffffffffffffffffffffc3601126100ef5760043573ffffffffffffffffffffffffffffffffffffffff811681036100ef573033036101715761016f90610fbe565b005b7fa19dbf00000000000000000000000000000000000000000000000000000000006000523360045260246000fd5b7f4e487b7100000000000000000000000000000000000000000000000000000000600052604160045260246000fd5b6040810190811067ffffffffffffffff8211176101ea57604052565b61019f565b90601f7fffffffffffffffffffffffffffffffffffffffffffffffffffffffffffffffe0910116810190811067ffffffffffffffff8211176101ea57604052565b6040519061023f60e0836101ef565b565b6040519061023f610120836101ef565b359060ff821682036100ef57565b359081151582036100ef57565b67ffffffffffffffff81116101ea5760051b60200190565b92919267ffffffffffffffff82116101ea57604051916102cc60207fffffffffffffffffffffffffffffffffffffffffffffffffffffffffffffffe0601f84011601846101ef565b8294818452818301116100ef578281602093846000960137010152565b9080601f830112156100ef5781602061030493359101610284565b90565b81601f820112156100ef5780359061031e8261026c565b9261032c60405194856101ef565b82845260208085019360051b830101918183116100ef5760208101935b83851061035857505050505090565b843567ffffffffffffffff81116100ef57820160e07fffffffffffffffffffffffffffffffffffffffffffffffffffffffffffffffe082860301126100ef5761039f610230565b916103ac602083016100f4565b83526040820135602084015260608201359267ffffffffffffffff84116100ef5760e0836103e18860208098819801016102e9565b6040840152608081013560608401526103fc60a0820161025f565b608084015261040d60c0820161025f565b60a0840152013560c0820152815201940193610349565b9080601f830112156100ef57813561043b8161026c565b9261044960405194856101ef565b81845260208085019260051b8201019283116100ef57602001905b8282106104715750505090565b6020809161047e846100f4565b815201910190610464565b9181601f840112156100ef5782359167ffffffffffffffff83116100ef57602083818601950101116100ef57565b9060407ffffffffffffffffffffffffffffffffffffffffffffffffffffffffffffffffc8301126100ef5760043567ffffffffffffffff81116100ef576101207ffffffffffffffffffffffffffffffffffffffffffffffffffffffffffffffffc82850301126100ef57610529610241565b9061053681600401610251565b82526105446024820161025f565b6020830152604481013567ffffffffffffffff81116100ef5784600461056c92840101610307565b6040830152606481013560608301526084810135608083015260a481013567ffffffffffffffff81116100ef578460046105a8928401016102e9565b60a083015260c481013560c083015260e481013560e083015261010481013567ffffffffffffffff81116100ef57600485916105e5930101610424565b610100820152916024359067ffffffffffffffff82116100ef5761060b91600401610489565b9091565b346100ef5761061d366104b7565b9091610100810192610638610633855151610c16565b610c36565b9160005b8551805182101561069f579061069961067461065a83600195610cb4565b5173ffffffffffffffffffffffffffffffffffffffff1690565b61067e8388610cb4565b9073ffffffffffffffffffffffffffffffffffffffff169052565b0161063c565b50508383866106b43361067e83515185610cb4565b526106c081848461100d565b50156106d25760405160018152602090f35b610708906040519384937ff58cc8b500000000000000000000000000000000000000000000000000000000855260048501610e8b565b0390fd5b346100ef5760407ffffffffffffffffffffffffffffffffffffffffffffffffffffffffffffffffc3601126100ef5760043560243567ffffffffffffffff81116100ef5760209161076461076a923690600401610489565b91610f72565b7fffffffff0000000000000000000000000000000000000000000000000000000060405191168152f35b346100ef5760007ffffffffffffffffffffffffffffffffffffffffffffffffffffffffffffffffc3601126100ef5760206040517f00000000000000000000000000000000000000000000000000000000000000008152f35b346100ef5760207ffffffffffffffffffffffffffffffffffffffffffffffffffffffffffffffffc3601126100ef576004353033036101715780156108a3576020817f307ed6bd941ee9fc80f369c94af5fa11e25bab5102a6140191756c5474a30bfa927fea7157fa25e3aa17d0ae2d5280fa4e24d421c61842aa85e45194e1145aa72bf855604051908152a161016f7f0000000000000000000000000000000000000000000000000000000000000000610fbe565b7f4294d1270000000000000000000000000000000000000000000000000000000060005260046000fd5b346100ef5760007ffffffffffffffffffffffffffffffffffffffffffffffffffffffffffffffffc3601126100ef57602060405173ffffffffffffffffffffffffffffffffffffffff7f0000000000000000000000000000000000000000000000000000000000000000168152f35b346100ef5760207ffffffffffffffffffffffffffffffffffffffffffffffffffffffffffffffffc3601126100ef5760406109786004356111f2565b73ffffffffffffffffffffffffffffffffffffffff8351921682526020820152f35b346100ef5760007ffffffffffffffffffffffffffffffffffffffffffffffffffffffffffffffffc3601126100ef57602060405173ffffffffffffffffffffffffffffffffffffffff7f0000000000000000000000000000000000000000000000000000000000000000168152f35b346100ef5760007ffffffffffffffffffffffffffffffffffffffffffffffffffffffffffffffffc3601126100ef576020305473ffffffffffffffffffffffffffffffffffffffff60405191168152f35b346100ef5760c0610a76600080610a70366104b7565b9161130b565b92610a8283929361161e565b906040519586526020860152151560408501526060840152608083015260a0820152f35b346100ef5760607ffffffffffffffffffffffffffffffffffffffffffffffffffffffffffffffffc3601126100ef57600435610ae06100cc565b604435916bffffffffffffffffffffffff83168093036100ef57303303610171577febf265acfac1c01de588ed7ef49743b9c3ce8d6d1edeaf510a1f5453228515b19273ffffffffffffffffffffffffffffffffffffffff60609360405160208101610ba782610b7b88849190602060408401937fc852adf5e97c2fc3b38f405671e91b7af1697ef0287577f227ef10494c2a8e8681520152565b037fffffffffffffffffffffffffffffffffffffffffffffffffffffffffffffffe081018452836101ef565b847fffffffffffffffffffffffffffffffffffffffff00000000000000000000000084891b161791519020556040519384521660208301526040820152a1005b7f4e487b7100000000000000000000000000000000000000000000000000000000600052601160045260246000fd5b9060018201809211610c2457565b610be7565b91908201809211610c2457565b90610c408261026c565b610c4d60405191826101ef565b8281527fffffffffffffffffffffffffffffffffffffffffffffffffffffffffffffffe0610c7b829461026c565b0190602036910137565b7f4e487b7100000000000000000000000000000000000000000000000000000000600052603260045260246000fd5b8051821015610cc85760209160051b010190565b610c85565b919082519283825260005b848110610d175750507fffffffffffffffffffffffffffffffffffffffffffffffffffffffffffffffe0601f8460006020809697860101520116010190565b80602080928401015182828601015201610cd8565b9080602083519182815201916020808360051b8301019401926000915b838310610d5857505050505090565b9091929394602080827fffffffffffffffffffffffffffffffffffffffffffffffffffffffffffffffe0856001950301865288519073ffffffffffffffffffffffffffffffffffffffff8251168152828201518382015260c080610dcb604085015160e0604086015260e0850190610ccd565b936060810151606085015260808101511515608085015260a0810151151560a0850152015191015297019301930191939290610d49565b906020808351928381520192019060005b818110610e205750505090565b825173ffffffffffffffffffffffffffffffffffffffff16845260209384019390920191600101610e13565b601f82602094937fffffffffffffffffffffffffffffffffffffffffffffffffffffffffffffffe0938186528686013760008582860101520116010190565b91610f64610304949260408552610ea860408601825160ff169052565b602081015115156060860152610100610f1d610ed5604084015161012060808a0152610160890190610d2c565b606084015160a0890152608084015160c089015260a08401517fffffffffffffffffffffffffffffffffffffffffffffffffffffffffffffffc08983030160e08a0152610ccd565b9160c08101518288015260e081015161012088015201517fffffffffffffffffffffffffffffffffffffffffffffffffffffffffffffffc086830301610140870152610e02565b926020818503910152610e4c565b90610f8f9291610f80611197565b906003825260e082015261100d565b5015610fb9577f1626ba7e0000000000000000000000000000000000000000000000000000000090565b600090565b60207f310ba5f1d2ed074b51e2eccd052a47ae9ab7c6b800d1fca3db3999d6a592ca039180305573ffffffffffffffffffffffffffffffffffffffff60405191168152a1565b9015610cc85790565b91907f80000000000000000000000000000000000000000000000000000000000000008061106461103e8585611004565b357fff000000000000000000000000000000000000000000000000000000000000001690565b16146110c35760009182916110789461130b565b9050919091928082106110935750506110909061161e565b91565b7ffd41fcba0000000000000000000000000000000000000000000000000000000060005260045260245260446000fd5b50506110ce906116ed565b906110d8826111f2565b42811115611165575073ffffffffffffffffffffffffffffffffffffffff8116801515908161115a575b5061110e575060019190565b7f8945c3130000000000000000000000000000000000000000000000000000000060005260048390523360245273ffffffffffffffffffffffffffffffffffffffff1660445260646000fd5b905033141538611102565b7ff95b6ab700000000000000000000000000000000000000000000000000000000600052600484905260245260446000fd5b60405190610120820182811067ffffffffffffffff8211176101ea576040526060610100836000815260006020820152826040820152600083820152600060808201528260a0820152600060c0820152600060e08201520152565b60405161125e816112326020820194859190602060408401937fc852adf5e97c2fc3b38f405671e91b7af1697ef0287577f227ef10494c2a8e8681520152565b037fffffffffffffffffffffffffffffffffffffffffffffffffffffffffffffffe081018352826101ef565b51902054906bffffffffffffffffffffffff8260601c921690565b60405190611286826101ce565b60006020838281520152565b909392938483116100ef5784116100ef578101920390565b908160409103126100ef576020604051916112c4836101ce565b805183520151602082015290565b60409073ffffffffffffffffffffffffffffffffffffffff61030494931681528160208201520190610ccd565b6040513d6000823e3d90fd5b909491939291853560f81c60019093819087611325611279565b9360408089161480611600575b6114fe575b5050506001808616146114d85760028581161460208501526007600286901c1688820135600382901b6101008190039190911c600190911b7fffffffffffffffffffffffffffffffffffffffffffffffffffffffffffffffff011691019080969181966020166113a79060051c90565b6113b090610c16565b8a820135600382901b6101008190039190911c600190911b7fffffffffffffffffffffffffffffffffffffffffffffffffffffffffffffffff01169101959098899a816113fc846116ed565b98899361140893611292565b91611412936119ea565b909861142691600052602052604060002090565b9061143991600052602052604060002090565b9073ffffffffffffffffffffffffffffffffffffffff1661146291600052602052604060002090565b948151908682151592836114cd575b5050816114be575b506114815750565b6040517fccbb534f000000000000000000000000000000000000000000000000000000008152815160048201526020909101516024820152604490fd5b90506020820151101538611479565b141591508638611471565b866114f397929495506114eb9398611292565b939092611779565b919394909293929190565b8a81013560601c985060140192509087908a90849015611522575b50829150611337565b60038101955073ffffffffffffffffffffffffffffffffffffffff945081013560e81c926040926115a5929091611570916115699189906115638983610c29565b92611292565b3691610284565b83519586809481937fccce3bc800000000000000000000000000000000000000000000000000000000835230600484016112d2565b0392165afa80156115fb576115c3926000916115cc575b5092610c29565b86388981611519565b6115ee915060403d6040116115f4575b6115e681836101ef565b8101906112aa565b386115bc565b503d6115dc565b6112ff565b5073ffffffffffffffffffffffffffffffffffffffff891615611332565b73ffffffffffffffffffffffffffffffffffffffff9060405160208101917fff0000000000000000000000000000000000000000000000000000000000000083527fffffffffffffffffffffffffffffffffffffffff0000000000000000000000007f000000000000000000000000000000000000000000000000000000000000000060601b16602183015260358201527f00000000000000000000000000000000000000000000000000000000000000006055820152605581526116e46075826101ef565b51902016301490565b61123261174f61170d611707602085015115153090612266565b93612361565b60405192839160208301958690916042927f19010000000000000000000000000000000000000000000000000000000000008352600283015260228201520190565b51902090565b9061176f9060409396959496606084526060840191610e4c565b9460208201520152565b9194929092600095600095600095600095600095611795611197565b60028152937fffffffffffffffffffffffffffffffffffffffffffffffffffffffffffffffff9460005b8281106117ec575050505050505080511515806117de575b6114815750565b5060208101518411156117d7565b600381019d50959b5093995091975092909190611810908b9085013560e81c610c29565b958a6000848903611954575089915b7fffffffffffffffffffffffffffffffffffffffffffffffffffffffffffffffff8c03611924575090600161185989611860948789611292565b908b61130b565b9c939c9b929b9a919a99909a9b9d8e9d9e8f905b106118de5750928b8851146118d5575b808b10156118a357508a60c085015289929592959491949390936117bf565b7f37daf62b0000000000000000000000000000000000000000000000000000000060005260048b905260245260446000fd5b60008852611884565b8d8f6107086118ef85858c8e611292565b9390926040519485947fb006aba000000000000000000000000000000000000000000000000000000000865260048601611755565b9798999a91600161193a8b61194194888a611292565b908661130b565b50929d919c909b929a9092918e8e611874565b9161181f565b908160209103126100ef57517fffffffff00000000000000000000000000000000000000000000000000000000811681036100ef5790565b604090610304949281528160208201520191610e4c565b73ffffffffffffffffffffffffffffffffffffffff610304959360609383521660208201528160408201520191610e4c565b908160209103126100ef575190565b9391909360009460009460005b818110611a05575050505050565b8481013560f881901c9860019092019788979692909160fc1c9889156121ff5750600189146121bf5760028914611ff25760038914611fc35760048914611f425760068914611e9c5760058914611e4e5760078914611d875760088914611d315760098914611c0857600a8914611aa5577fb2505f7c00000000000000000000000000000000000000000000000000000000600052600489905260246000fd5b90919293949596975060038916978815611bf7575b8381013560601c90601401909960021c60031660ff1684820135600382901b6101008190039190911c600190911b7fffffffffffffffffffffffffffffffffffffffffffffffffffffffffffffffff011691019081019081611b1d918787611292565b6040517f898bd92100000000000000000000000000000000000000000000000000000000815293918491611b55918a60048501611992565b038373ffffffffffffffffffffffffffffffffffffffff8d1691815a93602094fa9182156115fb57611b9893600093611bc4575b5060ff909a168091019a6126cd565b908015611bbe5790611bb291600052602052604060002090565b955b93929190936119f7565b50611bb2565b60ff919350611be99060203d8111611bf0575b611be181836101ef565b8101906119db565b9290611b89565b503d611bd7565b8084013560f81c9850600101611aba565b90919293949596975060038916978815611d20575b8381013560601c90601401909960021c60031660ff1684820135600382901b6101008190039190911c600190911b7fffffffffffffffffffffffffffffffffffffffffffffffffffffffffffffffff011691019081019081611c80918787611292565b6040517f13792a4a00000000000000000000000000000000000000000000000000000000815293918491611cb8918b60048501610e8b565b038373ffffffffffffffffffffffffffffffffffffffff8d1691815a93602094fa9182156115fb57611cfa93600093611bc4575060ff909a168091019a6126cd565b908015611d1a5790611d1491600052602052604060002090565b95611bb4565b50611d14565b8084013560f81c9850600101611c1d565b985060208701975094959394929391929091820135611d4f86612674565b8114611d5f575b611cfa9061268e565b7fffffffffffffffffffffffffffffffffffffffffffffffffffffffffffffffff9850611d56565b975090919293949597600f16968715611e3c575b60206000611dad611e1a9a9b8661253c565b9c9092918a604051611df0816112328a82019485603c917f19457468657265756d205369676e6564204d6573736167653a0a3332000000008252601c8201520190565b51902092604051948594859094939260ff6060936080840197845216602083015260408201520152565b838052039060015afa156115fb57611cfa9060ff6000519a168091019961257f565b600189019883013560f81c9750611d9b565b985060208701975094959394929391929091820135808514611e74575b611cfa90612635565b7fffffffffffffffffffffffffffffffffffffffffffffffffffffffffffffffff9850611e6b565b989091929394959662ffffff9850611ec4611ebe600c8416603f9060021c1690565b60ff1690565b918215611f2e575b6003168015611f1d575b908190611f0190611ef9908781013560e81c906003019c168c01809c8989611292565b90898b6119ea565b911115611f14575b90611cfa92916125ea565b99820199611f09565b50600281019084013560f01c611ed6565b8482013560f81c9250600190910190611ecc565b975097611f98611fa5929394959697600f611fad93169085929190928160031b7fffffffffffffffffffffffffffffffffffffffffffffffffffffffffffffffff6001821b019185013590610100031c16920190565b9290830180938686611292565b9086886119ea565b90611d1492980198600052602052604060002090565b985096509394929391929091908082013590602001968015611d1a5790611d1491600052602052604060002090565b909192939495969750600389169788156121ae575b8084013560601c9961206691601401906120269060021c600316611ebe565b9085929190928160031b7fffffffffffffffffffffffffffffffffffffffffffffffffffffffffffffffff6001821b019185013590610100031c16920190565b908101906120ca60208c61207c85858b8b611292565b919073ffffffffffffffffffffffffffffffffffffffff8c604051968795869485937f1626ba7e00000000000000000000000000000000000000000000000000000000855260048501611992565b0392165afa9081156115fb577f1626ba7e00000000000000000000000000000000000000000000000000000000917fffffffff0000000000000000000000000000000000000000000000000000000091600091612180575b50160361213c57509060ff611cfa9299168091019961257f565b61070861214d8c9389938989611292565b906040519485947fb2fed7ae000000000000000000000000000000000000000000000000000000008652600486016119a9565b6121a1915060203d81116121a7575b61219981836101ef565b81019061195a565b38612122565b503d61218f565b8381013560f81c9850600101612007565b98600f919293949596979850169687156121ee575b6014810197611cfa9160ff9091169084013560601c61257f565b8281013560f81c97506001016121d4565b98509091929394959698600f16978815612251575b5060206000612227611e1a9a9b8661253c565b9c90916040519384938c859094939260ff6060936080840197845216602083015260408201520152565b60018101995083013560f81c97506020612214565b15612316576000905b73ffffffffffffffffffffffffffffffffffffffff6040519160208301937f8b73c3c69bb8fe3d512ecc4cf759cc79239f7b179b0ffacaa9a75d522b39400f85527f4aa45ca7ad825ceb1bf35643f0a58c295239df563b1b565c2485f96477c5631860408501527f2a80e1ef1d7842f27f2e6be0972bb708b9a135c38860dbe73c27c3486c34f4de606085015260808401521660a082015260a0815261174f60c0826101ef565b469061226f565b805160209091019060005b8181106123355750505090565b825173ffffffffffffffffffffffffffffffffffffffff16845260209384019390920191600101612328565b61010081015160405161237c8161123260208201809561231d565b5190209061238b815160ff1690565b60ff8116806124045750509061174f6123a7604084015161276b565b9261123260806060830151920151936040519485936020850197889094939260809260a08301967f11e1e4079a79a66e4ade50033cfe2678cdd5341d2dfe5ef9513edb1a0be147a284526020840152604083015260608201520152565b6001810361246257505060a001518051602091820120604080517fe19a3b94fc3c7ece3f890d98a99bc422615537a08dea0603fa8425867d87d4669381019384529081019190915260608101929092529061174f8160808101611232565b600281036124b857505060c00151604080517f11fdeb7e8373a1aa96bfac8d0ea91526b2c5d15e5cee20e0543e780258f3e8e46020820190815291810192909252606082019290925261174f8160808101611232565b60030361250c575060e00151604080517fe19a3b94fc3c7ece3f890d98a99bc422615537a08dea0603fa8425867d87d4666020820190815291810192909252606082019290925261174f8160808101611232565b7f048183200000000000000000000000000000000000000000000000000000000060005260ff1660045260246000fd5b8101916040602084359401359201601b7f7fffffffffffffffffffffffffffffffffffffffffffffffffffffffffffffff84169360ff1c0160ff8111610c245791565b90604051907fffffffffffffffffffffffffffffffffffffffff00000000000000000000000060208301937f53657175656e6365207369676e65723a0a000000000000000000000000000000855260601b16603183015260458201526045815261174f6065826101ef565b916040519160208301937f53657175656e6365206e657374656420636f6e6669673a0a000000000000000085526038840152605883015260788201526078815261174f6098826101ef565b60405160208101917f53657175656e636520737461746963206469676573743a0a0000000000000000835260388201526038815261174f6058826101ef565b61123261174f61170d611707600060208601511515612266565b60405160208101917f53657175656e636520616e792061646472657373207375626469676573743a0a835260408201526040815261174f6060826101ef565b91604051917fffffffffffffffffffffffffffffffffffffffff00000000000000000000000060208401947f53657175656e63652073617069656e7420636f6e6669673a0a00000000000000865260601b166039840152604d830152606d820152606d815261174f608d826101ef565b805160209091019060005b8181106127555750505090565b8251845260209384019390920191600101612748565b9081517fffffffffffffffffffffffffffffffffffffffffffffffffffffffffffffffe06127b161279b8361026c565b926127a960405194856101ef565b80845261026c565b0136602083013760005b835181101561288d57806127d160019286610cb4565b5173ffffffffffffffffffffffffffffffffffffffff81511690602081015190604081015160208151910120906060810151608082015115159060c060a08401511515930151936040519560208701977f0603985259a953da1f65a522f589c17bd1d0117ec1d3abb7c0788aef251ef437895260408801526060870152608086015260a085015260c084015260e08301526101008201526101008152612879610120826101ef565b5190206128868285610cb4565b52016127bb565b5090915060405161174f8161123260208201809561273d56fea2646970667358221220da3084895f9984b56bf4c4cf62d93ef7d2a70047d650e63bd53323224b4508e964736f6c634300081c0033","linkReferences":{}},"methodIdentifiers":{"FACTORY()":"2dd31000","INIT_CODE_HASH()":"257671f5","STAGE_2_IMPLEMENTATION()":"9f69ef54","getImplementation()":"aaf10f42","getStaticSignature(bytes32)":"92dcb3fc","isValidSignature(bytes32,bytes)":"1626ba7e","recoverPartialSignature((uint8,bool,(address,uint256,bytes,uint256,bool,bool,uint256)[],uint256,uint256,bytes,bytes32,bytes32,address[]),bytes)":"ad55366b","recoverSapientSignature((uint8,bool,(address,uint256,bytes,uint256,bool,bool,uint256)[],uint256,uint256,bytes,bytes32,bytes32,address[]),bytes)":"13792a4a","setStaticSignature(bytes32,address,uint96)":"f727ef1c","updateImageHash(bytes32)":"29561426","updateImplementation(address)":"025b22bc"},"id":53}