{
  "_format": "hh-sol-artifact-1",
  "contractName": "MainModuleGasEstimation",
  "sourceName": "contracts/modules/MainModuleGasEstimation.sol",
  "abi": [
    {
      "inputs": [
        {
          "internalType": "uint256",
          "name": "_space",
          "type": "uint256"
        },
        {
          "internalType": "uint256",
          "name": "_provided",
          "type": "uint256"
        },
        {
          "internalType": "uint256",
          "name": "_current",
          "type": "uint256"
        }
      ],
      "name": "BadNonce",
      "type": "error"
    },
    {
      "inputs": [
        {
          "internalType": "bytes4",
          "name": "_signature",
          "type": "bytes4"
        }
      ],
      "name": "HookAlreadyExists",
      "type": "error"
    },
    {
      "inputs": [
        {
          "internalType": "bytes4",
          "name": "_signature",
          "type": "bytes4"
        }
      ],
      "name": "HookDoesNotExist",
      "type": "error"
    },
    {
      "inputs": [],
      "name": "ImageHashIsZero",
      "type": "error"
    },
    {
      "inputs": [
        {
          "internalType": "address",
          "name": "_implementation",
          "type": "address"
        }
      ],
      "name": "InvalidImplementation",
      "type": "error"
    },
    {
      "inputs": [
        {
          "internalType": "bytes32",
          "name": "_hash",
          "type": "bytes32"
        },
        {
          "internalType": "address",
          "name": "_addr",
          "type": "address"
        },
        {
          "internalType": "bytes",
          "name": "_signature",
          "type": "bytes"
        }
      ],
      "name": "InvalidNestedSignature",
      "type": "error"
    },
    {
      "inputs": [
        {
          "internalType": "bytes",
          "name": "_signature",
          "type": "bytes"
        },
        {
          "internalType": "bytes32",
          "name": "_s",
          "type": "bytes32"
        }
      ],
      "name": "InvalidSValue",
      "type": "error"
    },
    {
      "inputs": [
        {
          "internalType": "bytes32",
          "name": "_hash",
          "type": "bytes32"
        },
        {
          "internalType": "bytes",
          "name": "_signature",
          "type": "bytes"
        }
      ],
      "name": "InvalidSignature",
      "type": "error"
    },
    {
      "inputs": [
        {
          "internalType": "uint256",
          "name": "_flag",
          "type": "uint256"
        }
      ],
      "name": "InvalidSignatureFlag",
      "type": "error"
    },
    {
      "inputs": [
        {
          "internalType": "bytes",
          "name": "_signature",
          "type": "bytes"
        }
      ],
      "name": "InvalidSignatureLength",
      "type": "error"
    },
    {
      "inputs": [
        {
          "internalType": "bytes1",
          "name": "_type",
          "type": "bytes1"
        }
      ],
      "name": "InvalidSignatureType",
      "type": "error"
    },
    {
      "inputs": [
        {
          "internalType": "bytes",
          "name": "_signature",
          "type": "bytes"
        },
        {
          "internalType": "uint256",
          "name": "_v",
          "type": "uint256"
        }
      ],
      "name": "InvalidVValue",
      "type": "error"
    },
    {
      "inputs": [
        {
          "internalType": "bytes",
          "name": "_signature",
          "type": "bytes"
        },
        {
          "internalType": "uint256",
          "name": "threshold",
          "type": "uint256"
        },
        {
          "internalType": "uint256",
          "name": "_weight",
          "type": "uint256"
        }
      ],
      "name": "LowWeightChainedSignature",
      "type": "error"
    },
    {
      "inputs": [
        {
          "internalType": "uint256",
          "name": "_index",
          "type": "uint256"
        },
        {
          "internalType": "uint256",
          "name": "_requested",
          "type": "uint256"
        },
        {
          "internalType": "uint256",
          "name": "_available",
          "type": "uint256"
        }
      ],
      "name": "NotEnoughGas",
      "type": "error"
    },
    {
      "inputs": [],
      "name": "OnlyDelegatecall",
      "type": "error"
    },
    {
      "inputs": [
        {
          "internalType": "address",
          "name": "_sender",
          "type": "address"
        },
        {
          "internalType": "address",
          "name": "_self",
          "type": "address"
        }
      ],
      "name": "OnlySelfAuth",
      "type": "error"
    },
    {
      "inputs": [
        {
          "internalType": "bytes",
          "name": "_signature",
          "type": "bytes"
        }
      ],
      "name": "SignerIsAddress0",
      "type": "error"
    },
    {
      "inputs": [
        {
          "internalType": "bytes",
          "name": "_signature",
          "type": "bytes"
        },
        {
          "internalType": "uint256",
          "name": "_type",
          "type": "uint256"
        },
        {
          "internalType": "bool",
          "name": "_recoverMode",
          "type": "bool"
        }
      ],
      "name": "UnsupportedSignatureType",
      "type": "error"
    },
    {
      "inputs": [
        {
          "internalType": "uint256",
          "name": "_current",
          "type": "uint256"
        },
        {
          "internalType": "uint256",
          "name": "_prev",
          "type": "uint256"
        }
      ],
      "name": "WrongChainedCheckpointOrder",
      "type": "error"
    },
    {
      "anonymous": false,
      "inputs": [
        {
          "indexed": false,
          "internalType": "address",
          "name": "_contract",
          "type": "address"
        }
      ],
      "name": "CreatedContract",
      "type": "event"
    },
    {
      "anonymous": false,
      "inputs": [
        {
          "indexed": false,
          "internalType": "bytes32",
          "name": "newImageHash",
          "type": "bytes32"
        }
      ],
      "name": "ImageHashUpdated",
      "type": "event"
    },
    {
      "anonymous": false,
      "inputs": [
        {
          "indexed": false,
          "internalType": "address",
          "name": "newImplementation",
          "type": "address"
        }
      ],
      "name": "ImplementationUpdated",
      "type": "event"
    },
    {
      "anonymous": false,
      "inputs": [
        {
          "indexed": false,
          "internalType": "uint256",
          "name": "_space",
          "type": "uint256"
        },
        {
          "indexed": false,
          "internalType": "uint256",
          "name": "_newNonce",
          "type": "uint256"
        }
      ],
      "name": "NonceChange",
      "type": "event"
    },
    {
      "anonymous": false,
      "inputs": [
        {
          "indexed": true,
          "internalType": "bytes32",
          "name": "_tx",
          "type": "bytes32"
        },
        {
          "indexed": false,
          "internalType": "uint256",
          "name": "_index",
          "type": "uint256"
        }
      ],
      "name": "TxExecuted",
      "type": "event"
    },
    {
      "anonymous": false,
      "inputs": [
        {
          "indexed": true,
          "internalType": "bytes32",
          "name": "_tx",
          "type": "bytes32"
        },
        {
          "indexed": false,
          "internalType": "uint256",
          "name": "_index",
          "type": "uint256"
        },
        {
          "indexed": false,
          "internalType": "bytes",
          "name": "_reason",
          "type": "bytes"
        }
      ],
      "name": "TxFailed",
      "type": "event"
    },
    {
      "stateMutability": "payable",
      "type": "fallback"
    },
    {
      "inputs": [],
      "name": "SET_IMAGE_HASH_TYPE_HASH",
      "outputs": [
        {
          "internalType": "bytes32",
          "name": "",
          "type": "bytes32"
        }
      ],
      "stateMutability": "view",
      "type": "function"
    },
    {
      "inputs": [
        {
          "internalType": "bytes4",
          "name": "_signature",
          "type": "bytes4"
        },
        {
          "internalType": "address",
          "name": "_implementation",
          "type": "address"
        }
      ],
      "name": "addHook",
      "outputs": [],
      "stateMutability": "nonpayable",
      "type": "function"
    },
    {
      "inputs": [
        {
          "internalType": "bytes",
          "name": "_code",
          "type": "bytes"
        }
      ],
      "name": "createContract",
      "outputs": [
        {
          "internalType": "address",
          "name": "addr",
          "type": "address"
        }
      ],
      "stateMutability": "payable",
      "type": "function"
    },
    {
      "inputs": [
        {
          "components": [
            {
              "internalType": "bool",
              "name": "delegateCall",
              "type": "bool"
            },
            {
              "internalType": "bool",
              "name": "revertOnError",
              "type": "bool"
            },
            {
              "internalType": "uint256",
              "name": "gasLimit",
              "type": "uint256"
            },
            {
              "internalType": "address",
              "name": "target",
              "type": "address"
            },
            {
              "internalType": "uint256",
              "name": "value",
              "type": "uint256"
            },
            {
              "internalType": "bytes",
              "name": "data",
              "type": "bytes"
            }
          ],
          "internalType": "struct IModuleCalls.Transaction[]",
          "name": "_txs",
          "type": "tuple[]"
        },
        {
          "internalType": "uint256",
          "name": "_nonce",
          "type": "uint256"
        },
        {
          "internalType": "bytes",
          "name": "_signature",
          "type": "bytes"
        }
      ],
      "name": "execute",
      "outputs": [],
      "stateMutability": "nonpayable",
      "type": "function"
    },
    {
      "inputs": [],
      "name": "imageHash",
      "outputs": [
        {
          "internalType": "bytes32",
          "name": "",
          "type": "bytes32"
        }
      ],
      "stateMutability": "view",
      "type": "function"
    },
    {
      "inputs": [
        {
          "internalType": "bytes32",
          "name": "_hash",
          "type": "bytes32"
        },
        {
          "internalType": "bytes",
          "name": "_signatures",
          "type": "bytes"
        }
      ],
      "name": "isValidSignature",
      "outputs": [
        {
          "internalType": "bytes4",
          "name": "",
          "type": "bytes4"
        }
      ],
      "stateMutability": "view",
      "type": "function"
    },
    {
      "inputs": [
        {
          "internalType": "bytes",
          "name": "_data",
          "type": "bytes"
        },
        {
          "internalType": "bytes",
          "name": "_signatures",
          "type": "bytes"
        }
      ],
      "name": "isValidSignature",
      "outputs": [
        {
          "internalType": "bytes4",
          "name": "",
          "type": "bytes4"
        }
      ],
      "stateMutability": "view",
      "type": "function"
    },
    {
      "inputs": [],
      "name": "nonce",
      "outputs": [
        {
          "internalType": "uint256",
          "name": "",
          "type": "uint256"
        }
      ],
      "stateMutability": "view",
      "type": "function"
    },
    {
      "inputs": [
        {
          "internalType": "address",
          "name": "",
          "type": "address"
        },
        {
          "internalType": "address",
          "name": "",
          "type": "address"
        },
        {
          "internalType": "uint256[]",
          "name": "",
          "type": "uint256[]"
        },
        {
          "internalType": "uint256[]",
          "name": "",
          "type": "uint256[]"
        },
        {
          "internalType": "bytes",
          "name": "",
          "type": "bytes"
        }
      ],
      "name": "onERC1155BatchReceived",
      "outputs": [
        {
          "internalType": "bytes4",
          "name": "",
          "type": "bytes4"
        }
      ],
      "stateMutability": "nonpayable",
      "type": "function"
    },
    {
      "inputs": [
        {
          "internalType": "address",
          "name": "",
          "type": "address"
        },
        {
          "internalType": "address",
          "name": "",
          "type": "address"
        },
        {
          "internalType": "uint256",
          "name": "",
          "type": "uint256"
        },
        {
          "internalType": "uint256",
          "name": "",
          "type": "uint256"
        },
        {
          "internalType": "bytes",
          "name": "",
          "type": "bytes"
        }
      ],
      "name": "onERC1155Received",
      "outputs": [
        {
          "internalType": "bytes4",
          "name": "",
          "type": "bytes4"
        }
      ],
      "stateMutability": "nonpayable",
      "type": "function"
    },
    {
      "inputs": [
        {
          "internalType": "address",
          "name": "",
          "type": "address"
        },
        {
          "internalType": "address",
          "name": "",
          "type": "address"
        },
        {
          "internalType": "uint256",
          "name": "",
          "type": "uint256"
        },
        {
          "internalType": "bytes",
          "name": "",
          "type": "bytes"
        }
      ],
      "name": "onERC721Received",
      "outputs": [
        {
          "internalType": "bytes4",
          "name": "",
          "type": "bytes4"
        }
      ],
      "stateMutability": "nonpayable",
      "type": "function"
    },
    {
      "inputs": [
        {
          "internalType": "bytes4",
          "name": "_signature",
          "type": "bytes4"
        }
      ],
      "name": "readHook",
      "outputs": [
        {
          "internalType": "address",
          "name": "",
          "type": "address"
        }
      ],
      "stateMutability": "view",
      "type": "function"
    },
    {
      "inputs": [
        {
          "internalType": "uint256",
          "name": "_space",
          "type": "uint256"
        }
      ],
      "name": "readNonce",
      "outputs": [
        {
          "internalType": "uint256",
          "name": "",
          "type": "uint256"
        }
      ],
      "stateMutability": "view",
      "type": "function"
    },
    {
      "inputs": [
        {
          "internalType": "bytes4",
          "name": "_signature",
          "type": "bytes4"
        }
      ],
      "name": "removeHook",
      "outputs": [],
      "stateMutability": "nonpayable",
      "type": "function"
    },
    {
      "inputs": [
        {
          "components": [
            {
              "internalType": "bool",
              "name": "delegateCall",
              "type": "bool"
            },
            {
              "internalType": "bool",
              "name": "revertOnError",
              "type": "bool"
            },
            {
              "internalType": "uint256",
              "name": "gasLimit",
              "type": "uint256"
            },
            {
              "internalType": "address",
              "name": "target",
              "type": "address"
            },
            {
              "internalType": "uint256",
              "name": "value",
              "type": "uint256"
            },
            {
              "internalType": "bytes",
              "name": "data",
              "type": "bytes"
            }
          ],
          "internalType": "struct IModuleCalls.Transaction[]",
          "name": "_txs",
          "type": "tuple[]"
        }
      ],
      "name": "selfExecute",
      "outputs": [],
      "stateMutability": "nonpayable",
      "type": "function"
    },
    {
      "inputs": [
        {
          "internalType": "bytes32",
          "name": "_digest",
          "type": "bytes32"
        },
        {
          "internalType": "bytes",
          "name": "_signature",
          "type": "bytes"
        }
      ],
      "name": "signatureRecovery",
      "outputs": [
        {
          "internalType": "uint256",
          "name": "threshold",
          "type": "uint256"
        },
        {
          "internalType": "uint256",
          "name": "weight",
          "type": "uint256"
        },
        {
          "internalType": "bytes32",
          "name": "imageHash",
          "type": "bytes32"
        },
        {
          "internalType": "bytes32",
          "name": "subdigest",
          "type": "bytes32"
        },
        {
          "internalType": "uint256",
          "name": "checkpoint",
          "type": "uint256"
        }
      ],
      "stateMutability": "view",
      "type": "function"
    },
    {
      "inputs": [
        {
          "components": [
            {
              "internalType": "bool",
              "name": "delegateCall",
              "type": "bool"
            },
            {
              "internalType": "bool",
              "name": "revertOnError",
              "type": "bool"
            },
            {
              "internalType": "uint256",
              "name": "gasLimit",
              "type": "uint256"
            },
            {
              "internalType": "address",
              "name": "target",
              "type": "address"
            },
            {
              "internalType": "uint256",
              "name": "value",
              "type": "uint256"
            },
            {
              "internalType": "bytes",
              "name": "data",
              "type": "bytes"
            }
          ],
          "internalType": "struct IModuleCalls.Transaction[]",
          "name": "_txs",
          "type": "tuple[]"
        }
      ],
      "name": "simulateExecute",
      "outputs": [
        {
          "components": [
            {
              "internalType": "bool",
              "name": "executed",
              "type": "bool"
            },
            {
              "internalType": "bool",
              "name": "succeeded",
              "type": "bool"
            },
            {
              "internalType": "bytes",
              "name": "result",
              "type": "bytes"
            },
            {
              "internalType": "uint256",
              "name": "gasUsed",
              "type": "uint256"
            }
          ],
          "internalType": "struct MainModuleGasEstimation.SimulateResult[]",
          "name": "",
          "type": "tuple[]"
        }
      ],
      "stateMutability": "nonpayable",
      "type": "function"
    },
    {
      "inputs": [
        {
          "internalType": "bytes4",
          "name": "_interfaceID",
          "type": "bytes4"
        }
      ],
      "name": "supportsInterface",
      "outputs": [
        {
          "internalType": "bool",
          "name": "",
          "type": "bool"
        }
      ],
      "stateMutability": "pure",
      "type": "function"
    },
    {
      "inputs": [
        {
          "internalType": "bytes32",
          "name": "_imageHash",
          "type": "bytes32"
        }
      ],
      "name": "updateImageHash",
      "outputs": [],
      "stateMutability": "nonpayable",
      "type": "function"
    },
    {
      "inputs": [
        {
          "internalType": "address",
          "name": "_implementation",
          "type": "address"
        }
      ],
      "name": "updateImplementation",
      "outputs": [],
      "stateMutability": "nonpayable",
      "type": "function"
    },
    {
      "stateMutability": "payable",
      "type": "receive"
    }
  ],
  "bytecode": "0x60a060405234801561001057600080fd5b503060805260805161338f6100306000396000610983015261338f6000f3fe6080604052600436106101635760003560e01c806361c2926c116100c057806390042baf11610074578063b93ea7ad11610059578063b93ea7ad14610522578063bc197c8114610542578063f23a6e611461058a5761016a565b806390042baf146104fa578063affed0e01461050d5761016a565b806384dc463c116100a557806384dc463c14610465578063853c5068146104925780638c3f5563146104da5761016a565b806361c2926c146104255780637a9a1628146104455761016a565b806320c13b0b116101175780634fcf3eca116100fc5780634fcf3eca146103ae57806351605d80146103ce57806357c56d6b146103f15761016a565b806320c13b0b1461036e578063295614261461038e5761016a565b8063150b7a0211610148578063150b7a02146102935780631626ba7e146103095780631a9b2337146103295761016a565b806301ffc9a71461023e578063025b22bc146102735761016a565b3661016a57005b60006101996000357fffffffff00000000000000000000000000000000000000000000000000000000166105d0565b905073ffffffffffffffffffffffffffffffffffffffff81161561023c576000808273ffffffffffffffffffffffffffffffffffffffff166000366040516101e292919061280b565b600060405180830381855af49150503d806000811461021d576040519150601f19603f3d011682016040523d82523d6000602084013e610222565b606091505b50915091508161023457805160208201fd5b805160208201f35b005b34801561024a57600080fd5b5061025e610259366004612849565b610624565b60405190151581526020015b60405180910390f35b34801561027f57600080fd5b5061023c61028e36600461288f565b61062f565b34801561029f57600080fd5b506102d86102ae3660046128f3565b7f150b7a020000000000000000000000000000000000000000000000000000000095945050505050565b6040517fffffffff00000000000000000000000000000000000000000000000000000000909116815260200161026a565b34801561031557600080fd5b506102d8610324366004612962565b610681565b34801561033557600080fd5b50610349610344366004612849565b6106ce565b60405173ffffffffffffffffffffffffffffffffffffffff909116815260200161026a565b34801561037a57600080fd5b506102d86103893660046129ae565b6106d9565b34801561039a57600080fd5b5061023c6103a9366004612a1a565b61073e565b3480156103ba57600080fd5b5061023c6103c9366004612849565b610788565b3480156103da57600080fd5b506103e36108b7565b60405190815260200161026a565b3480156103fd57600080fd5b506103e37f8713a7c4465f6fbee2b6e9d6646d1d9f83fec929edfc4baf661f3c865bdd04d181565b34801561043157600080fd5b5061023c610440366004612a78565b6108e6565b34801561045157600080fd5b5061023c610460366004612aba565b61096c565b34801561047157600080fd5b50610485610480366004612a78565b610a71565b60405161026a9190612b87565b34801561049e57600080fd5b506104b26104ad366004612962565b610ebf565b604080519586526020860194909452928401919091526060830152608082015260a00161026a565b3480156104e657600080fd5b506103e36104f5366004612a1a565b611087565b610349610508366004612c64565b6110b3565b34801561051957600080fd5b506103e361114f565b34801561052e57600080fd5b5061023c61053d366004612d33565b61115b565b34801561054e57600080fd5b506102d861055d366004612d68565b7fbc197c810000000000000000000000000000000000000000000000000000000098975050505050505050565b34801561059657600080fd5b506102d86105a5366004612e23565b7ff23a6e61000000000000000000000000000000000000000000000000000000009695505050505050565b600061061e7fbe27a319efc8734e89e26ba4bc95f5c788584163b959f03fa04e2d7ab4b9a1207fffffffff0000000000000000000000000000000000000000000000000000000084166112a0565b92915050565b600061061e826112fe565b333014610675576040517fe12588940000000000000000000000000000000000000000000000000000000081523360048201523060248201526044015b60405180910390fd5b61067e8161135a565b50565b60008061068f858585611415565b50905080156106c157507f1626ba7e0000000000000000000000000000000000000000000000000000000090506106c7565b50600090505b9392505050565b600061061e826105d0565b6000806106fe86866040516106ef92919061280b565b60405180910390208585611415565b509050801561073057507f20c13b0b000000000000000000000000000000000000000000000000000000009050610736565b50600090505b949350505050565b33301461077f576040517fe125889400000000000000000000000000000000000000000000000000000000815233600482015230602482015260440161066c565b61067e81611453565b3330146107c9576040517fe125889400000000000000000000000000000000000000000000000000000000815233600482015230602482015260440161066c565b60006107d4826105d0565b73ffffffffffffffffffffffffffffffffffffffff1603610845576040517f1c3812cc0000000000000000000000000000000000000000000000000000000081527fffffffff000000000000000000000000000000000000000000000000000000008216600482015260240161066c565b604080517fbe27a319efc8734e89e26ba4bc95f5c788584163b959f03fa04e2d7ab4b9a1206020808301919091527fffffffff00000000000000000000000000000000000000000000000000000000841682840152825180830384018152606090920190925280519101206000905550565b60006108e17fea7157fa25e3aa17d0ae2d5280fa4e24d421c61842aa85e45194e1145aa72bf85490565b905090565b333014610927576040517fe125889400000000000000000000000000000000000000000000000000000000815233600482015230602482015260440161066c565b600061095a838360405160200161093f929190613040565b604051602081830303815290604052805190602001206114e3565b9050610967818484611568565b505050565b73ffffffffffffffffffffffffffffffffffffffff7f00000000000000000000000000000000000000000000000000000000000000001630036109db576040517f0a57d61d00000000000000000000000000000000000000000000000000000000815260040160405180910390fd5b6109e4836116f0565b600080610a1c8588886040516020016109ff93929190613088565b604051602081830303815290604052805190602001208585611415565b9150915081610a5d578084846040517f8f4a234f00000000000000000000000000000000000000000000000000000000815260040161066c939291906130ab565b610a68818888611568565b50505050505050565b606060008267ffffffffffffffff811115610a8e57610a8e612c35565b604051908082528060200260200182016040528015610aee57816020015b610adb604051806080016040528060001515815260200160001515815260200160608152602001600081525090565b815260200190600190039081610aac5790505b5090508260005b81811015610eb55736868683818110610b1057610b106130c5565b9050602002810190610b2291906130f4565b90506000816040013590506001858481518110610b4157610b416130c5565b60209081029190910101519015159052805a1015610c43576000858481518110610b6d57610b6d6130c5565b6020908102919091018101519115159101527f2bb3e3ba0000000000000000000000000000000000000000000000000000000083825a604051602481019390935260448301919091526064820152608401604051602081830303815290604052907bffffffffffffffffffffffffffffffffffffffffffffffffffffffff19166020820180517bffffffffffffffffffffffffffffffffffffffffffffffffffffffff8381831617835250505050858481518110610c2d57610c2d6130c5565b6020026020010151604001819052505050610eb5565b610c506020830183613132565b15610d5d5760005a9050610c6a608084016060850161288f565b73ffffffffffffffffffffffffffffffffffffffff168215610c8c5782610c8e565b5a5b610c9b60a086018661314d565b604051610ca992919061280b565b6000604051808303818686f4925050503d8060008114610ce5576040519150601f19603f3d011682016040523d82523d6000602084013e610cea565b606091505b50878681518110610cfd57610cfd6130c5565b6020026020010151602001888781518110610d1a57610d1a6130c5565b6020026020010151604001829052821515151581525050505a8103868581518110610d4757610d476130c5565b6020026020010151606001818152505050610e69565b60005a9050610d72608084016060850161288f565b73ffffffffffffffffffffffffffffffffffffffff1660808401358315610d995783610d9b565b5a5b90610da960a087018761314d565b604051610db792919061280b565b600060405180830381858888f193505050503d8060008114610df5576040519150601f19603f3d011682016040523d82523d6000602084013e610dfa565b606091505b50878681518110610e0d57610e0d6130c5565b6020026020010151602001888781518110610e2a57610e2a6130c5565b6020026020010151604001829052821515151581525050505a8103868581518110610e5757610e576130c5565b60200260200101516060018181525050505b848381518110610e7b57610e7b6130c5565b602002602001015160200151158015610e9f5750610e9f6040830160208401613132565b15610eab575050610eb5565b5050600101610af5565b5090949350505050565b60008060008060008087876000818110610edb57610edb6130c5565b909101357fff00000000000000000000000000000000000000000000000000000000000000169150819050610f3157610f13896114e3565b9250610f208389896117f9565b9298509096509450915061107c9050565b7fff0000000000000000000000000000000000000000000000000000000000000081811601610f7057610f63896114e3565b9250610f2083898961184a565b7ffe000000000000000000000000000000000000000000000000000000000000007fff00000000000000000000000000000000000000000000000000000000000000821601610fc257610f6389611876565b7ffd000000000000000000000000000000000000000000000000000000000000007fff00000000000000000000000000000000000000000000000000000000000000821601611026576110168989896118e3565b955095509550955095505061107c565b6040517f6085cd820000000000000000000000000000000000000000000000000000000081527fff000000000000000000000000000000000000000000000000000000000000008216600482015260240161066c565b939792965093509350565b600061061e7f8d0bf1fd623d628c741362c1289948e57b3e2905218c676d3e69abee36d6ae2e836112a0565b60003330146110f6576040517fe125889400000000000000000000000000000000000000000000000000000000815233600482015230602482015260440161066c565b81516020830134f060405173ffffffffffffffffffffffffffffffffffffffff821681529091507fa506ad4e7f05eceba62a023c3219e5bd98a615f4fa87e2afb08a2da5cf62bf0c9060200160405180910390a1919050565b60006108e16000611087565b33301461119c576040517fe125889400000000000000000000000000000000000000000000000000000000815233600482015230602482015260440161066c565b60006111a7836105d0565b73ffffffffffffffffffffffffffffffffffffffff1614611218576040517f5b4d6d6a0000000000000000000000000000000000000000000000000000000081527fffffffff000000000000000000000000000000000000000000000000000000008316600482015260240161066c565b604080517fbe27a319efc8734e89e26ba4bc95f5c788584163b959f03fa04e2d7ab4b9a1206020808301919091527fffffffff000000000000000000000000000000000000000000000000000000008516828401528251808303840181526060909201909252805191012073ffffffffffffffffffffffffffffffffffffffff821690555050565b60008083836040516020016112bf929190918252602082015260400190565b604080517fffffffffffffffffffffffffffffffffffffffffffffffffffffffffffffffe0818403018152919052805160209091012054949350505050565b60007f6ffbd451000000000000000000000000000000000000000000000000000000007fffffffff0000000000000000000000000000000000000000000000000000000083160161135157506001919050565b61061e82611a60565b73ffffffffffffffffffffffffffffffffffffffff81163b6113c0576040517f0c76093700000000000000000000000000000000000000000000000000000000815273ffffffffffffffffffffffffffffffffffffffff8216600482015260240161066c565b6113c8813055565b60405173ffffffffffffffffffffffffffffffffffffffff821681527f310ba5f1d2ed074b51e2eccd052a47ae9ab7c6b800d1fca3db3999d6a592ca03906020015b60405180910390a150565b6000806000806000611428888888610ebf565b50965091945092509050828210801590611446575061144681611ba1565b9450505050935093915050565b8061148a576040517f4294d12700000000000000000000000000000000000000000000000000000000815260040160405180910390fd5b6114b37fea7157fa25e3aa17d0ae2d5280fa4e24d421c61842aa85e45194e1145aa72bf8829055565b6040518181527f307ed6bd941ee9fc80f369c94af5fa11e25bab5102a6140191756c5474a30bfa9060200161140a565b6040517f190100000000000000000000000000000000000000000000000000000000000060208201524660228201527fffffffffffffffffffffffffffffffffffffffff0000000000000000000000003060601b166042820152605681018290526000906076015b604051602081830303815290604052805190602001209050919050565b8060005b818110156116e95736848483818110611587576115876130c5565b905060200281019061159991906130f4565b90506040810135805a10156115ee5782815a6040517f2bb3e3ba00000000000000000000000000000000000000000000000000000000815260048101939093526024830191909152604482015260640161066c565b60006115fd6020840184613132565b1561163c57611635611615608085016060860161288f565b83156116215783611623565b5a5b61163060a087018761314d565b611bac565b9050611677565b61167461164f608085016060860161288f565b608085013584156116605784611662565b5a5b61166f60a088018861314d565b611bc7565b90505b80156116bc57877f5c4eeb02dabf8976016ab414d617f9a162936dcace3cdef8c69ef6e262ad5ae7856040516116af91815260200190565b60405180910390a26116de565b6116de6116cf6040850160208601613132565b89866116d9611be4565b611c03565b50505060010161156c565b5050505050565b606081901c6bffffffffffffffffffffffff8216600061170f83611087565b905081811415801561171f575060005b15611767576040517f9b6514f400000000000000000000000000000000000000000000000000000000815260048101849052602481018390526044810182905260640161066c565b604080517f8d0bf1fd623d628c741362c1289948e57b3e2905218c676d3e69abee36d6ae2e60208083019190915281830186905282518083038401815260609092019092528051910120600183019081905560408051858152602081018390527f1f180c27086c7a39ea2a7b25239d1ab92348f07ca7bb59d1438fcf527568f881910160405180910390a15050505050565b60008080806118148761180f876006818b6131b2565b611c51565b6000908152873560f01c6020818152604080842084526002909a013560e01c908190529890912090999198509695509350505050565b600080808061186587611860876001818b6131b2565b6117f9565b935093509350935093509350935093565b6040517f190100000000000000000000000000000000000000000000000000000000000060208201526000602282018190527fffffffffffffffffffffffffffffffffffffffff0000000000000000000000003060601b166042830152605682018390529060760161154b565b6000808080806004600188013560e81c826118fe838361320b565b90506119108b6104ad83868d8f6131b2565b939b50919950975095509350878710156119685761193081848b8d6131b2565b89896040517fb006aba000000000000000000000000000000000000000000000000000000000815260040161066c949392919061321e565b8092505b88831015611a525760038301928a013560e81c915061198b838361320b565b905060006119ad61199b886120e7565b8c8c879086926104ad939291906131b2565b939c50919a5098509091505088881015611a05576119cd82858c8e6131b2565b8a8a6040517fb006aba000000000000000000000000000000000000000000000000000000000815260040161066c949392919061321e565b848110611a48576040517f37daf62b000000000000000000000000000000000000000000000000000000008152600481018290526024810186905260440161066c565b935091508161196c565b505050939792965093509350565b60007fffffffff0000000000000000000000000000000000000000000000000000000082167fec6aba50000000000000000000000000000000000000000000000000000000001480611af357507fffffffff0000000000000000000000000000000000000000000000000000000082167f4e2312e000000000000000000000000000000000000000000000000000000000145b80611b3f57507fffffffff0000000000000000000000000000000000000000000000000000000082167f150b7a0200000000000000000000000000000000000000000000000000000000145b80611b8b57507fffffffff0000000000000000000000000000000000000000000000000000000082167fc0ee0b8a00000000000000000000000000000000000000000000000000000000145b15611b9857506001919050565b61061e8261211b565b600061061e82612177565b60006040518284823760008084838989f49695505050505050565b6000604051828482376000808483898b8af1979650505050505050565b60603d604051915060208201818101604052818352816000823e505090565b8315611c1157805160208201fd5b827fab46c69f7f32e1bf09b0725853da82a211e5402a0600296ab499a2fb5ea3b4198383604051611c43929190613245565b60405180910390a250505050565b60008060005b838110156120de57600181019085013560f81c7fffffffffffffffffffffffffffffffffffffffffffffffffffffffffffffffff8101611cf857601582019186013560f881901c9060581c73ffffffffffffffffffffffffffffffffffffffff81169074ff000000000000000000000000000000000000000016811785611cde5780611ced565b60008681526020829052604090205b955050505050611c57565b80611d8e5760018201918681013560f81c906043016000611d248a611d1f84888c8e6131b2565b612190565b60ff841697909701969194508491905060a083901b74ff00000000000000000000000000000000000000001673ffffffffffffffffffffffffffffffffffffffff82161786611d735780611d82565b60008781526020829052604090205b96505050505050611c57565b60028103611eb6576000808784013560f881901c9060581c73ffffffffffffffffffffffffffffffffffffffff16601586019550909250905060008885013560e81c600386018162ffffff169150809650819250505060008186019050611e078b848c8c8a908692611e02939291906131b2565b612453565b611e4f578a83611e1983898d8f6131b2565b6040517f9a94623200000000000000000000000000000000000000000000000000000000815260040161066c949392919061325e565b60ff8416979097019694508460a084901b74ff00000000000000000000000000000000000000001673ffffffffffffffffffffffffffffffffffffffff84161787611e9a5780611ea9565b60008881526020829052604090205b9750505050505050611c57565b60038103611ee957602082019186013583611ed15780611ee0565b60008481526020829052604090205b93505050611c57565b60048103611f35576003808301928781013560e81c9190820101600080611f168b61180f85898d8f6131b2565b60009889526020526040909720969097019650909350611c5792505050565b6006810361203d5760008287013560f81c60018401935060ff16905060008784013560f01c60028501945061ffff16905060008885013560e81c600386018162ffffff169150809650819250505060008186019050600080611fa38d8d8d8b90879261180f939291906131b2565b93985088939092509050848210611fb957988501985b604080517f53657175656e6365206e657374656420636f6e6669673a0a0000000000000000602080830191909152603882018490526058820188905260788083018a905283518084039091018152609890920190925280519101208961201f578061202e565b60008a81526020829052604090205b99505050505050505050611c57565b600581036120a9576020820191860135878103612078577fffffffffffffffffffffffffffffffffffffffffffffffffffffffffffffffff94505b600061208382612600565b905084612090578061209f565b60008581526020829052604090205b9450505050611c57565b6040517fb2505f7c0000000000000000000000000000000000000000000000000000000081526004810182905260240161066c565b50935093915050565b7f8713a7c4465f6fbee2b6e9d6646d1d9f83fec929edfc4baf661f3c865bdd04d1600090815260208290526040812061061e565b60007ffda4dd44000000000000000000000000000000000000000000000000000000007fffffffff0000000000000000000000000000000000000000000000000000000083160161216e57506001919050565b61061e8261263b565b600061218282612697565b8061061e5750600192915050565b6000604282146121d05782826040517f2ee17a3d00000000000000000000000000000000000000000000000000000000815260040161066c92919061329e565b60006121e96121e06001856132b2565b85013560f81c90565b60ff169050604084013560f81c843560208601357f7fffffffffffffffffffffffffffffff5d576e7357a4501ddfe92f46681b20a081111561225d578686826040517fad4aac7600000000000000000000000000000000000000000000000000000000815260040161066c939291906132c5565b8260ff16601b1415801561227557508260ff16601c14155b156122b2578686846040517fe578897e00000000000000000000000000000000000000000000000000000000815260040161066c939291906132e9565b6001840361231f576040805160008152602081018083528a905260ff851691810191909152606081018390526080810182905260019060a0015b6020604051602081039080840390855afa15801561230e573d6000803e3d6000fd5b5050506020604051035194506123f7565b600284036123bc576040517f19457468657265756d205369676e6564204d6573736167653a0a3332000000006020820152603c8101899052600190605c01604080517fffffffffffffffffffffffffffffffffffffffffffffffffffffffffffffffe08184030181528282528051602091820120600084529083018083525260ff861690820152606081018490526080810183905260a0016122ec565b86868560016040517f9dfba85200000000000000000000000000000000000000000000000000000000815260040161066c9493929190613310565b73ffffffffffffffffffffffffffffffffffffffff85166124485786866040517f6c1719d200000000000000000000000000000000000000000000000000000000815260040161066c92919061329e565b505050509392505050565b60008083836124636001826132b2565b818110612472576124726130c5565b919091013560f81c915050600181148061248c5750600281145b156124d1578473ffffffffffffffffffffffffffffffffffffffff166124b3878686612190565b73ffffffffffffffffffffffffffffffffffffffff161491506125f7565b600381036125bc5773ffffffffffffffffffffffffffffffffffffffff8516631626ba7e87866000876125056001826132b2565b92612512939291906131b2565b6040518463ffffffff1660e01b8152600401612530939291906130ab565b602060405180830381865afa15801561254d573d6000803e3d6000fd5b505050506040513d601f19601f82011682018060405250810190612571919061333c565b7fffffffff00000000000000000000000000000000000000000000000000000000167f1626ba7e000000000000000000000000000000000000000000000000000000001491506125f7565b83838260006040517f9dfba85200000000000000000000000000000000000000000000000000000000815260040161066c9493929190613310565b50949350505050565b6040517f53657175656e636520737461746963206469676573743a0a000000000000000060208201526038810182905260009060580161154b565b60007fe4a77bbc000000000000000000000000000000000000000000000000000000007fffffffff0000000000000000000000000000000000000000000000000000000083160161268e57506001919050565b61061e826126ca565b6000811580159061061e5750507fea7157fa25e3aa17d0ae2d5280fa4e24d421c61842aa85e45194e1145aa72bf8541490565b60007fae9fa280000000000000000000000000000000000000000000000000000000007fffffffff0000000000000000000000000000000000000000000000000000000083160161271d57506001919050565b61061e8260007fffffffff0000000000000000000000000000000000000000000000000000000082167fac6a444e0000000000000000000000000000000000000000000000000000000014806127b457507fffffffff0000000000000000000000000000000000000000000000000000000082167f36e7817500000000000000000000000000000000000000000000000000000000145b156127c157506001919050565b7f01ffc9a7000000000000000000000000000000000000000000000000000000007fffffffff0000000000000000000000000000000000000000000000000000000083161461061e565b8183823760009101908152919050565b7fffffffff000000000000000000000000000000000000000000000000000000008116811461067e57600080fd5b60006020828403121561285b57600080fd5b81356106c78161281b565b803573ffffffffffffffffffffffffffffffffffffffff8116811461288a57600080fd5b919050565b6000602082840312156128a157600080fd5b6106c782612866565b60008083601f8401126128bc57600080fd5b50813567ffffffffffffffff8111156128d457600080fd5b6020830191508360208285010111156128ec57600080fd5b9250929050565b60008060008060006080868803121561290b57600080fd5b61291486612866565b945061292260208701612866565b935060408601359250606086013567ffffffffffffffff81111561294557600080fd5b612951888289016128aa565b969995985093965092949392505050565b60008060006040848603121561297757600080fd5b83359250602084013567ffffffffffffffff81111561299557600080fd5b6129a1868287016128aa565b9497909650939450505050565b600080600080604085870312156129c457600080fd5b843567ffffffffffffffff808211156129dc57600080fd5b6129e8888389016128aa565b90965094506020870135915080821115612a0157600080fd5b50612a0e878288016128aa565b95989497509550505050565b600060208284031215612a2c57600080fd5b5035919050565b60008083601f840112612a4557600080fd5b50813567ffffffffffffffff811115612a5d57600080fd5b6020830191508360208260051b85010111156128ec57600080fd5b60008060208385031215612a8b57600080fd5b823567ffffffffffffffff811115612aa257600080fd5b612aae85828601612a33565b90969095509350505050565b600080600080600060608688031215612ad257600080fd5b853567ffffffffffffffff80821115612aea57600080fd5b612af689838a01612a33565b9097509550602088013594506040880135915080821115612b1657600080fd5b50612951888289016128aa565b6000815180845260005b81811015612b4957602081850181015186830182015201612b2d565b5060006020828601015260207fffffffffffffffffffffffffffffffffffffffffffffffffffffffffffffffe0601f83011685010191505092915050565b60006020808301818452808551808352604092508286019150828160051b87010184880160005b83811015612c27577fffffffffffffffffffffffffffffffffffffffffffffffffffffffffffffffc08984030185528151608081511515855288820151151589860152878201518189870152612c0682870182612b23565b60609384015196909301959095525094870194925090860190600101612bae565b509098975050505050505050565b7f4e487b7100000000000000000000000000000000000000000000000000000000600052604160045260246000fd5b600060208284031215612c7657600080fd5b813567ffffffffffffffff80821115612c8e57600080fd5b818401915084601f830112612ca257600080fd5b813581811115612cb457612cb4612c35565b604051601f82017fffffffffffffffffffffffffffffffffffffffffffffffffffffffffffffffe0908116603f01168101908382118183101715612cfa57612cfa612c35565b81604052828152876020848701011115612d1357600080fd5b826020860160208301376000928101602001929092525095945050505050565b60008060408385031215612d4657600080fd5b8235612d518161281b565b9150612d5f60208401612866565b90509250929050565b60008060008060008060008060a0898b031215612d8457600080fd5b612d8d89612866565b9750612d9b60208a01612866565b9650604089013567ffffffffffffffff80821115612db857600080fd5b612dc48c838d01612a33565b909850965060608b0135915080821115612ddd57600080fd5b612de98c838d01612a33565b909650945060808b0135915080821115612e0257600080fd5b50612e0f8b828c016128aa565b999c989b5096995094979396929594505050565b60008060008060008060a08789031215612e3c57600080fd5b612e4587612866565b9550612e5360208801612866565b94506040870135935060608701359250608087013567ffffffffffffffff811115612e7d57600080fd5b612e8989828a016128aa565b979a9699509497509295939492505050565b8035801515811461288a57600080fd5b8183528181602085013750600060208284010152600060207fffffffffffffffffffffffffffffffffffffffffffffffffffffffffffffffe0601f840116840101905092915050565b818352600060208085019450848460051b86018460005b8781101561303357838303895281357fffffffffffffffffffffffffffffffffffffffffffffffffffffffffffffff41883603018112612f4a57600080fd5b870160c0612f5782612e9b565b15158552612f66878301612e9b565b15158588015260408281013590860152606073ffffffffffffffffffffffffffffffffffffffff612f98828501612866565b16908601526080828101359086015260a080830135368490037fffffffffffffffffffffffffffffffffffffffffffffffffffffffffffffffe1018112612fde57600080fd5b90920187810192903567ffffffffffffffff811115612ffc57600080fd5b80360384131561300b57600080fd5b828288015261301d8388018286612eab565b9c89019c96505050928601925050600101612f0b565b5090979650505050505050565b60408152600560408201527f73656c663a0000000000000000000000000000000000000000000000000000006060820152608060208201526000610736608083018486612ef4565b8381526040602082015260006130a2604083018486612ef4565b95945050505050565b8381526040602082015260006130a2604083018486612eab565b7f4e487b7100000000000000000000000000000000000000000000000000000000600052603260045260246000fd5b600082357fffffffffffffffffffffffffffffffffffffffffffffffffffffffffffffff4183360301811261312857600080fd5b9190910192915050565b60006020828403121561314457600080fd5b6106c782612e9b565b60008083357fffffffffffffffffffffffffffffffffffffffffffffffffffffffffffffffe184360301811261318257600080fd5b83018035915067ffffffffffffffff82111561319d57600080fd5b6020019150368190038213156128ec57600080fd5b600080858511156131c257600080fd5b838611156131cf57600080fd5b5050820193919092039150565b7f4e487b7100000000000000000000000000000000000000000000000000000000600052601160045260246000fd5b8082018082111561061e5761061e6131dc565b606081526000613232606083018688612eab565b6020830194909452506040015292915050565b8281526040602082015260006107366040830184612b23565b84815273ffffffffffffffffffffffffffffffffffffffff84166020820152606060408201526000613294606083018486612eab565b9695505050505050565b602081526000610736602083018486612eab565b8181038181111561061e5761061e6131dc565b6040815260006132d9604083018587612eab565b9050826020830152949350505050565b6040815260006132fd604083018587612eab565b905060ff83166020830152949350505050565b606081526000613324606083018688612eab565b60208301949094525090151560409091015292915050565b60006020828403121561334e57600080fd5b81516106c78161281b56fea2646970667358221220c5b48f52f65f0cc8a2cfe02050e25571d4efb76135aa7c39ed2c03f1e01ff31764736f6c63430008120033",
  "linkReferences": {},
  "deployedLinkReferences": {}
}