{
  "_format": "hh-sol-artifact-1",
  "contractName": "Stage1Simulator",
  "sourceName": "src/Stage1Simulator.sol",
  "abi": [
    {
      "inputs": [
        {
          "internalType": "address",
          "name": "_factory",
          "type": "address"
        }
      ],
      "stateMutability": "nonpayable",
      "type": "constructor"
    },
    {
      "inputs": [
        {
          "internalType": "uint256",
          "name": "_space",
          "type": "uint256"
        },
        {
          "internalType": "uint256",
          "name": "_provided",
          "type": "uint256"
        },
        {
          "internalType": "uint256",
          "name": "_current",
          "type": "uint256"
        }
      ],
      "name": "BadNonce",
      "type": "error"
    },
    {
      "inputs": [
        {
          "internalType": "bytes4",
          "name": "signature",
          "type": "bytes4"
        }
      ],
      "name": "HookAlreadyExists",
      "type": "error"
    },
    {
      "inputs": [
        {
          "internalType": "bytes4",
          "name": "signature",
          "type": "bytes4"
        }
      ],
      "name": "HookDoesNotExist",
      "type": "error"
    },
    {
      "inputs": [],
      "name": "ImageHashIsZero",
      "type": "error"
    },
    {
      "inputs": [
        {
          "components": [
            {
              "internalType": "uint8",
              "name": "kind",
              "type": "uint8"
            },
            {
              "internalType": "bool",
              "name": "noChainId",
              "type": "bool"
            },
            {
              "components": [
                {
                  "internalType": "address",
                  "name": "to",
                  "type": "address"
                },
                {
                  "internalType": "uint256",
                  "name": "value",
                  "type": "uint256"
                },
                {
                  "internalType": "bytes",
                  "name": "data",
                  "type": "bytes"
                },
                {
                  "internalType": "uint256",
                  "name": "gasLimit",
                  "type": "uint256"
                },
                {
                  "internalType": "bool",
                  "name": "delegateCall",
                  "type": "bool"
                },
                {
                  "internalType": "bool",
                  "name": "onlyFallback",
                  "type": "bool"
                },
                {
                  "internalType": "uint256",
                  "name": "behaviorOnError",
                  "type": "uint256"
                }
              ],
              "internalType": "struct Payload.Call[]",
              "name": "calls",
              "type": "tuple[]"
            },
            {
              "internalType": "uint256",
              "name": "space",
              "type": "uint256"
            },
            {
              "internalType": "uint256",
              "name": "nonce",
              "type": "uint256"
            },
            {
              "internalType": "bytes",
              "name": "message",
              "type": "bytes"
            },
            {
              "internalType": "bytes32",
              "name": "imageHash",
              "type": "bytes32"
            },
            {
              "internalType": "bytes32",
              "name": "digest",
              "type": "bytes32"
            },
            {
              "internalType": "address[]",
              "name": "parentWallets",
              "type": "address[]"
            }
          ],
          "internalType": "struct Payload.Decoded",
          "name": "_payload",
          "type": "tuple"
        },
        {
          "internalType": "bytes32",
          "name": "_subdigest",
          "type": "bytes32"
        },
        {
          "internalType": "address",
          "name": "_signer",
          "type": "address"
        },
        {
          "internalType": "bytes",
          "name": "_signature",
          "type": "bytes"
        }
      ],
      "name": "InvalidNestedSignature",
      "type": "error"
    },
    {
      "inputs": [
        {
          "components": [
            {
              "internalType": "uint8",
              "name": "kind",
              "type": "uint8"
            },
            {
              "internalType": "bool",
              "name": "noChainId",
              "type": "bool"
            },
            {
              "components": [
                {
                  "internalType": "address",
                  "name": "to",
                  "type": "address"
                },
                {
                  "internalType": "uint256",
                  "name": "value",
                  "type": "uint256"
                },
                {
                  "internalType": "bytes",
                  "name": "data",
                  "type": "bytes"
                },
                {
                  "internalType": "uint256",
                  "name": "gasLimit",
                  "type": "uint256"
                },
                {
                  "internalType": "bool",
                  "name": "delegateCall",
                  "type": "bool"
                },
                {
                  "internalType": "bool",
                  "name": "onlyFallback",
                  "type": "bool"
                },
                {
                  "internalType": "uint256",
                  "name": "behaviorOnError",
                  "type": "uint256"
                }
              ],
              "internalType": "struct Payload.Call[]",
              "name": "calls",
              "type": "tuple[]"
            },
            {
              "internalType": "uint256",
              "name": "space",
              "type": "uint256"
            },
            {
              "internalType": "uint256",
              "name": "nonce",
              "type": "uint256"
            },
            {
              "internalType": "bytes",
              "name": "message",
              "type": "bytes"
            },
            {
              "internalType": "bytes32",
              "name": "imageHash",
              "type": "bytes32"
            },
            {
              "internalType": "bytes32",
              "name": "digest",
              "type": "bytes32"
            },
            {
              "internalType": "address[]",
              "name": "parentWallets",
              "type": "address[]"
            }
          ],
          "internalType": "struct Payload.Decoded",
          "name": "_payload",
          "type": "tuple"
        },
        {
          "internalType": "bytes",
          "name": "_signature",
          "type": "bytes"
        }
      ],
      "name": "InvalidSapientSignature",
      "type": "error"
    },
    {
      "inputs": [
        {
          "components": [
            {
              "internalType": "uint8",
              "name": "kind",
              "type": "uint8"
            },
            {
              "internalType": "bool",
              "name": "noChainId",
              "type": "bool"
            },
            {
              "components": [
                {
                  "internalType": "address",
                  "name": "to",
                  "type": "address"
                },
                {
                  "internalType": "uint256",
                  "name": "value",
                  "type": "uint256"
                },
                {
                  "internalType": "bytes",
                  "name": "data",
                  "type": "bytes"
                },
                {
                  "internalType": "uint256",
                  "name": "gasLimit",
                  "type": "uint256"
                },
                {
                  "internalType": "bool",
                  "name": "delegateCall",
                  "type": "bool"
                },
                {
                  "internalType": "bool",
                  "name": "onlyFallback",
                  "type": "bool"
                },
                {
                  "internalType": "uint256",
                  "name": "behaviorOnError",
                  "type": "uint256"
                }
              ],
              "internalType": "struct Payload.Call[]",
              "name": "calls",
              "type": "tuple[]"
            },
            {
              "internalType": "uint256",
              "name": "space",
              "type": "uint256"
            },
            {
              "internalType": "uint256",
              "name": "nonce",
              "type": "uint256"
            },
            {
              "internalType": "bytes",
              "name": "message",
              "type": "bytes"
            },
            {
              "internalType": "bytes32",
              "name": "imageHash",
              "type": "bytes32"
            },
            {
              "internalType": "bytes32",
              "name": "digest",
              "type": "bytes32"
            },
            {
              "internalType": "address[]",
              "name": "parentWallets",
              "type": "address[]"
            }
          ],
          "internalType": "struct Payload.Decoded",
          "name": "_payload",
          "type": "tuple"
        },
        {
          "internalType": "bytes",
          "name": "_signature",
          "type": "bytes"
        }
      ],
      "name": "InvalidSignature",
      "type": "error"
    },
    {
      "inputs": [
        {
          "internalType": "uint256",
          "name": "_flag",
          "type": "uint256"
        }
      ],
      "name": "InvalidSignatureFlag",
      "type": "error"
    },
    {
      "inputs": [
        {
          "internalType": "bytes1",
          "name": "_type",
          "type": "bytes1"
        }
      ],
      "name": "InvalidSignatureType",
      "type": "error"
    },
    {
      "inputs": [
        {
          "internalType": "bytes32",
          "name": "_opHash",
          "type": "bytes32"
        },
        {
          "internalType": "uint256",
          "name": "_expires",
          "type": "uint256"
        }
      ],
      "name": "InvalidStaticSignature",
      "type": "error"
    },
    {
      "inputs": [
        {
          "internalType": "bytes",
          "name": "_signature",
          "type": "bytes"
        },
        {
          "internalType": "uint256",
          "name": "_threshold",
          "type": "uint256"
        },
        {
          "internalType": "uint256",
          "name": "_weight",
          "type": "uint256"
        }
      ],
      "name": "LowWeightChainedSignature",
      "type": "error"
    },
    {
      "inputs": [
        {
          "components": [
            {
              "internalType": "uint8",
              "name": "kind",
              "type": "uint8"
            },
            {
              "internalType": "bool",
              "name": "noChainId",
              "type": "bool"
            },
            {
              "components": [
                {
                  "internalType": "address",
                  "name": "to",
                  "type": "address"
                },
                {
                  "internalType": "uint256",
                  "name": "value",
                  "type": "uint256"
                },
                {
                  "internalType": "bytes",
                  "name": "data",
                  "type": "bytes"
                },
                {
                  "internalType": "uint256",
                  "name": "gasLimit",
                  "type": "uint256"
                },
                {
                  "internalType": "bool",
                  "name": "delegateCall",
                  "type": "bool"
                },
                {
                  "internalType": "bool",
                  "name": "onlyFallback",
                  "type": "bool"
                },
                {
                  "internalType": "uint256",
                  "name": "behaviorOnError",
                  "type": "uint256"
                }
              ],
              "internalType": "struct Payload.Call[]",
              "name": "calls",
              "type": "tuple[]"
            },
            {
              "internalType": "uint256",
              "name": "space",
              "type": "uint256"
            },
            {
              "internalType": "uint256",
              "name": "nonce",
              "type": "uint256"
            },
            {
              "internalType": "bytes",
              "name": "message",
              "type": "bytes"
            },
            {
              "internalType": "bytes32",
              "name": "imageHash",
              "type": "bytes32"
            },
            {
              "internalType": "bytes32",
              "name": "digest",
              "type": "bytes32"
            },
            {
              "internalType": "address[]",
              "name": "parentWallets",
              "type": "address[]"
            }
          ],
          "internalType": "struct Payload.Decoded",
          "name": "_payload",
          "type": "tuple"
        },
        {
          "internalType": "uint256",
          "name": "_index",
          "type": "uint256"
        },
        {
          "internalType": "uint256",
          "name": "_gasLeft",
          "type": "uint256"
        }
      ],
      "name": "NotEnoughGas",
      "type": "error"
    },
    {
      "inputs": [
        {
          "internalType": "address",
          "name": "_sender",
          "type": "address"
        }
      ],
      "name": "OnlySelf",
      "type": "error"
    },
    {
      "inputs": [
        {
          "components": [
            {
              "internalType": "uint8",
              "name": "kind",
              "type": "uint8"
            },
            {
              "internalType": "bool",
              "name": "noChainId",
              "type": "bool"
            },
            {
              "components": [
                {
                  "internalType": "address",
                  "name": "to",
                  "type": "address"
                },
                {
                  "internalType": "uint256",
                  "name": "value",
                  "type": "uint256"
                },
                {
                  "internalType": "bytes",
                  "name": "data",
                  "type": "bytes"
                },
                {
                  "internalType": "uint256",
                  "name": "gasLimit",
                  "type": "uint256"
                },
                {
                  "internalType": "bool",
                  "name": "delegateCall",
                  "type": "bool"
                },
                {
                  "internalType": "bool",
                  "name": "onlyFallback",
                  "type": "bool"
                },
                {
                  "internalType": "uint256",
                  "name": "behaviorOnError",
                  "type": "uint256"
                }
              ],
              "internalType": "struct Payload.Call[]",
              "name": "calls",
              "type": "tuple[]"
            },
            {
              "internalType": "uint256",
              "name": "space",
              "type": "uint256"
            },
            {
              "internalType": "uint256",
              "name": "nonce",
              "type": "uint256"
            },
            {
              "internalType": "bytes",
              "name": "message",
              "type": "bytes"
            },
            {
              "internalType": "bytes32",
              "name": "imageHash",
              "type": "bytes32"
            },
            {
              "internalType": "bytes32",
              "name": "digest",
              "type": "bytes32"
            },
            {
              "internalType": "address[]",
              "name": "parentWallets",
              "type": "address[]"
            }
          ],
          "internalType": "struct Payload.Decoded",
          "name": "_payload",
          "type": "tuple"
        },
        {
          "internalType": "uint256",
          "name": "_index",
          "type": "uint256"
        },
        {
          "internalType": "bytes",
          "name": "_returnData",
          "type": "bytes"
        }
      ],
      "name": "Reverted",
      "type": "error"
    },
    {
      "inputs": [
        {
          "components": [
            {
              "internalType": "bytes32",
              "name": "imageHash",
              "type": "bytes32"
            },
            {
              "internalType": "uint256",
              "name": "checkpoint",
              "type": "uint256"
            }
          ],
          "internalType": "struct Snapshot",
          "name": "_snapshot",
          "type": "tuple"
        }
      ],
      "name": "UnusedSnapshot",
      "type": "error"
    },
    {
      "inputs": [
        {
          "internalType": "uint256",
          "name": "_nextCheckpoint",
          "type": "uint256"
        },
        {
          "internalType": "uint256",
          "name": "_checkpoint",
          "type": "uint256"
        }
      ],
      "name": "WrongChainedCheckpointOrder",
      "type": "error"
    },
    {
      "anonymous": false,
      "inputs": [
        {
          "indexed": false,
          "internalType": "bytes32",
          "name": "_opHash",
          "type": "bytes32"
        },
        {
          "indexed": false,
          "internalType": "uint256",
          "name": "_index",
          "type": "uint256"
        }
      ],
      "name": "CallAborted",
      "type": "event"
    },
    {
      "anonymous": false,
      "inputs": [
        {
          "indexed": false,
          "internalType": "bytes32",
          "name": "_opHash",
          "type": "bytes32"
        },
        {
          "indexed": false,
          "internalType": "uint256",
          "name": "_index",
          "type": "uint256"
        }
      ],
      "name": "CallFailed",
      "type": "event"
    },
    {
      "anonymous": false,
      "inputs": [
        {
          "indexed": false,
          "internalType": "bytes32",
          "name": "_opHash",
          "type": "bytes32"
        },
        {
          "indexed": false,
          "internalType": "uint256",
          "name": "_index",
          "type": "uint256"
        }
      ],
      "name": "CallSkipped",
      "type": "event"
    },
    {
      "anonymous": false,
      "inputs": [
        {
          "indexed": false,
          "internalType": "bytes32",
          "name": "_opHash",
          "type": "bytes32"
        },
        {
          "indexed": false,
          "internalType": "uint256",
          "name": "_index",
          "type": "uint256"
        }
      ],
      "name": "CallSuccess",
      "type": "event"
    },
    {
      "anonymous": false,
      "inputs": [
        {
          "indexed": false,
          "internalType": "bytes4",
          "name": "signature",
          "type": "bytes4"
        },
        {
          "indexed": false,
          "internalType": "address",
          "name": "implementation",
          "type": "address"
        }
      ],
      "name": "DefinedHook",
      "type": "event"
    },
    {
      "anonymous": false,
      "inputs": [
        {
          "indexed": false,
          "internalType": "bytes32",
          "name": "newImageHash",
          "type": "bytes32"
        }
      ],
      "name": "ImageHashUpdated",
      "type": "event"
    },
    {
      "anonymous": false,
      "inputs": [
        {
          "indexed": false,
          "internalType": "address",
          "name": "newImplementation",
          "type": "address"
        }
      ],
      "name": "ImplementationUpdated",
      "type": "event"
    },
    {
      "anonymous": false,
      "inputs": [
        {
          "indexed": false,
          "internalType": "uint256",
          "name": "_space",
          "type": "uint256"
        },
        {
          "indexed": false,
          "internalType": "uint256",
          "name": "_newNonce",
          "type": "uint256"
        }
      ],
      "name": "NonceChange",
      "type": "event"
    },
    {
      "anonymous": false,
      "inputs": [
        {
          "indexed": false,
          "internalType": "bytes32",
          "name": "_hash",
          "type": "bytes32"
        },
        {
          "indexed": false,
          "internalType": "address",
          "name": "_address",
          "type": "address"
        },
        {
          "indexed": false,
          "internalType": "uint96",
          "name": "_timestamp",
          "type": "uint96"
        }
      ],
      "name": "StaticSignatureSet",
      "type": "event"
    },
    {
      "stateMutability": "payable",
      "type": "fallback"
    },
    {
      "inputs": [],
      "name": "FACTORY",
      "outputs": [
        {
          "internalType": "address",
          "name": "",
          "type": "address"
        }
      ],
      "stateMutability": "view",
      "type": "function"
    },
    {
      "inputs": [],
      "name": "INIT_CODE_HASH",
      "outputs": [
        {
          "internalType": "bytes32",
          "name": "",
          "type": "bytes32"
        }
      ],
      "stateMutability": "view",
      "type": "function"
    },
    {
      "inputs": [],
      "name": "STAGE_2_IMPLEMENTATION",
      "outputs": [
        {
          "internalType": "address",
          "name": "",
          "type": "address"
        }
      ],
      "stateMutability": "view",
      "type": "function"
    },
    {
      "inputs": [
        {
          "internalType": "bytes4",
          "name": "signature",
          "type": "bytes4"
        },
        {
          "internalType": "address",
          "name": "implementation",
          "type": "address"
        }
      ],
      "name": "addHook",
      "outputs": [],
      "stateMutability": "payable",
      "type": "function"
    },
    {
      "inputs": [
        {
          "internalType": "bytes",
          "name": "_payload",
          "type": "bytes"
        },
        {
          "internalType": "bytes",
          "name": "_signature",
          "type": "bytes"
        }
      ],
      "name": "execute",
      "outputs": [],
      "stateMutability": "payable",
      "type": "function"
    },
    {
      "inputs": [],
      "name": "getImplementation",
      "outputs": [
        {
          "internalType": "address",
          "name": "",
          "type": "address"
        }
      ],
      "stateMutability": "view",
      "type": "function"
    },
    {
      "inputs": [
        {
          "components": [
            {
              "internalType": "uint8",
              "name": "kind",
              "type": "uint8"
            },
            {
              "internalType": "bool",
              "name": "noChainId",
              "type": "bool"
            },
            {
              "components": [
                {
                  "internalType": "address",
                  "name": "to",
                  "type": "address"
                },
                {
                  "internalType": "uint256",
                  "name": "value",
                  "type": "uint256"
                },
                {
                  "internalType": "bytes",
                  "name": "data",
                  "type": "bytes"
                },
                {
                  "internalType": "uint256",
                  "name": "gasLimit",
                  "type": "uint256"
                },
                {
                  "internalType": "bool",
                  "name": "delegateCall",
                  "type": "bool"
                },
                {
                  "internalType": "bool",
                  "name": "onlyFallback",
                  "type": "bool"
                },
                {
                  "internalType": "uint256",
                  "name": "behaviorOnError",
                  "type": "uint256"
                }
              ],
              "internalType": "struct Payload.Call[]",
              "name": "calls",
              "type": "tuple[]"
            },
            {
              "internalType": "uint256",
              "name": "space",
              "type": "uint256"
            },
            {
              "internalType": "uint256",
              "name": "nonce",
              "type": "uint256"
            },
            {
              "internalType": "bytes",
              "name": "message",
              "type": "bytes"
            },
            {
              "internalType": "bytes32",
              "name": "imageHash",
              "type": "bytes32"
            },
            {
              "internalType": "bytes32",
              "name": "digest",
              "type": "bytes32"
            },
            {
              "internalType": "address[]",
              "name": "parentWallets",
              "type": "address[]"
            }
          ],
          "internalType": "struct Payload.Decoded",
          "name": "_payload",
          "type": "tuple"
        },
        {
          "internalType": "bytes",
          "name": "_signature",
          "type": "bytes"
        }
      ],
      "name": "isValidSapientSignature",
      "outputs": [
        {
          "internalType": "bytes32",
          "name": "",
          "type": "bytes32"
        }
      ],
      "stateMutability": "view",
      "type": "function"
    },
    {
      "inputs": [
        {
          "internalType": "bytes32",
          "name": "_hash",
          "type": "bytes32"
        },
        {
          "internalType": "bytes",
          "name": "_signature",
          "type": "bytes"
        }
      ],
      "name": "isValidSignature",
      "outputs": [
        {
          "internalType": "bytes4",
          "name": "",
          "type": "bytes4"
        }
      ],
      "stateMutability": "view",
      "type": "function"
    },
    {
      "inputs": [
        {
          "internalType": "address",
          "name": "",
          "type": "address"
        },
        {
          "internalType": "address",
          "name": "",
          "type": "address"
        },
        {
          "internalType": "uint256[]",
          "name": "",
          "type": "uint256[]"
        },
        {
          "internalType": "uint256[]",
          "name": "",
          "type": "uint256[]"
        },
        {
          "internalType": "bytes",
          "name": "",
          "type": "bytes"
        }
      ],
      "name": "onERC1155BatchReceived",
      "outputs": [
        {
          "internalType": "bytes4",
          "name": "",
          "type": "bytes4"
        }
      ],
      "stateMutability": "pure",
      "type": "function"
    },
    {
      "inputs": [
        {
          "internalType": "address",
          "name": "",
          "type": "address"
        },
        {
          "internalType": "address",
          "name": "",
          "type": "address"
        },
        {
          "internalType": "uint256",
          "name": "",
          "type": "uint256"
        },
        {
          "internalType": "uint256",
          "name": "",
          "type": "uint256"
        },
        {
          "internalType": "bytes",
          "name": "",
          "type": "bytes"
        }
      ],
      "name": "onERC1155Received",
      "outputs": [
        {
          "internalType": "bytes4",
          "name": "",
          "type": "bytes4"
        }
      ],
      "stateMutability": "pure",
      "type": "function"
    },
    {
      "inputs": [
        {
          "internalType": "address",
          "name": "",
          "type": "address"
        },
        {
          "internalType": "address",
          "name": "",
          "type": "address"
        },
        {
          "internalType": "uint256",
          "name": "",
          "type": "uint256"
        },
        {
          "internalType": "bytes",
          "name": "",
          "type": "bytes"
        }
      ],
      "name": "onERC721Received",
      "outputs": [
        {
          "internalType": "bytes4",
          "name": "",
          "type": "bytes4"
        }
      ],
      "stateMutability": "pure",
      "type": "function"
    },
    {
      "inputs": [
        {
          "internalType": "bytes4",
          "name": "signature",
          "type": "bytes4"
        }
      ],
      "name": "readHook",
      "outputs": [
        {
          "internalType": "address",
          "name": "",
          "type": "address"
        }
      ],
      "stateMutability": "view",
      "type": "function"
    },
    {
      "inputs": [
        {
          "internalType": "uint256",
          "name": "_space",
          "type": "uint256"
        }
      ],
      "name": "readNonce",
      "outputs": [
        {
          "internalType": "uint256",
          "name": "",
          "type": "uint256"
        }
      ],
      "stateMutability": "view",
      "type": "function"
    },
    {
      "inputs": [
        {
          "components": [
            {
              "internalType": "uint8",
              "name": "kind",
              "type": "uint8"
            },
            {
              "internalType": "bool",
              "name": "noChainId",
              "type": "bool"
            },
            {
              "components": [
                {
                  "internalType": "address",
                  "name": "to",
                  "type": "address"
                },
                {
                  "internalType": "uint256",
                  "name": "value",
                  "type": "uint256"
                },
                {
                  "internalType": "bytes",
                  "name": "data",
                  "type": "bytes"
                },
                {
                  "internalType": "uint256",
                  "name": "gasLimit",
                  "type": "uint256"
                },
                {
                  "internalType": "bool",
                  "name": "delegateCall",
                  "type": "bool"
                },
                {
                  "internalType": "bool",
                  "name": "onlyFallback",
                  "type": "bool"
                },
                {
                  "internalType": "uint256",
                  "name": "behaviorOnError",
                  "type": "uint256"
                }
              ],
              "internalType": "struct Payload.Call[]",
              "name": "calls",
              "type": "tuple[]"
            },
            {
              "internalType": "uint256",
              "name": "space",
              "type": "uint256"
            },
            {
              "internalType": "uint256",
              "name": "nonce",
              "type": "uint256"
            },
            {
              "internalType": "bytes",
              "name": "message",
              "type": "bytes"
            },
            {
              "internalType": "bytes32",
              "name": "imageHash",
              "type": "bytes32"
            },
            {
              "internalType": "bytes32",
              "name": "digest",
              "type": "bytes32"
            },
            {
              "internalType": "address[]",
              "name": "parentWallets",
              "type": "address[]"
            }
          ],
          "internalType": "struct Payload.Decoded",
          "name": "_payload",
          "type": "tuple"
        },
        {
          "internalType": "bytes",
          "name": "_signature",
          "type": "bytes"
        }
      ],
      "name": "recoverPartialSignature",
      "outputs": [
        {
          "internalType": "uint256",
          "name": "threshold",
          "type": "uint256"
        },
        {
          "internalType": "uint256",
          "name": "weight",
          "type": "uint256"
        },
        {
          "internalType": "bool",
          "name": "isValidImage",
          "type": "bool"
        },
        {
          "internalType": "bytes32",
          "name": "imageHash",
          "type": "bytes32"
        },
        {
          "internalType": "uint256",
          "name": "checkpoint",
          "type": "uint256"
        },
        {
          "internalType": "bytes32",
          "name": "opHash",
          "type": "bytes32"
        }
      ],
      "stateMutability": "view",
      "type": "function"
    },
    {
      "inputs": [
        {
          "internalType": "bytes4",
          "name": "signature",
          "type": "bytes4"
        }
      ],
      "name": "removeHook",
      "outputs": [],
      "stateMutability": "payable",
      "type": "function"
    },
    {
      "inputs": [
        {
          "internalType": "bytes",
          "name": "_payload",
          "type": "bytes"
        }
      ],
      "name": "selfExecute",
      "outputs": [],
      "stateMutability": "payable",
      "type": "function"
    },
    {
      "inputs": [
        {
          "internalType": "bytes32",
          "name": "_hash",
          "type": "bytes32"
        },
        {
          "internalType": "address",
          "name": "_address",
          "type": "address"
        },
        {
          "internalType": "uint96",
          "name": "_timestamp",
          "type": "uint96"
        }
      ],
      "name": "setStaticSignature",
      "outputs": [],
      "stateMutability": "nonpayable",
      "type": "function"
    },
    {
      "inputs": [
        {
          "internalType": "bytes",
          "name": "_payload",
          "type": "bytes"
        },
        {
          "internalType": "bytes",
          "name": "_signature",
          "type": "bytes"
        }
      ],
      "name": "simulate",
      "outputs": [
        {
          "components": [
            {
              "internalType": "enum Simulator.Status",
              "name": "status",
              "type": "uint8"
            },
            {
              "internalType": "bytes",
              "name": "result",
              "type": "bytes"
            },
            {
              "internalType": "uint256",
              "name": "gasUsed",
              "type": "uint256"
            }
          ],
          "internalType": "struct Simulator.Result[]",
          "name": "results",
          "type": "tuple[]"
        }
      ],
      "stateMutability": "payable",
      "type": "function"
    },
    {
      "inputs": [
        {
          "internalType": "address",
          "name": "",
          "type": "address"
        },
        {
          "internalType": "uint256",
          "name": "",
          "type": "uint256"
        },
        {
          "internalType": "bytes",
          "name": "",
          "type": "bytes"
        }
      ],
      "name": "tokenReceived",
      "outputs": [],
      "stateMutability": "nonpayable",
      "type": "function"
    },
    {
      "inputs": [
        {
          "internalType": "bytes32",
          "name": "_imageHash",
          "type": "bytes32"
        }
      ],
      "name": "updateImageHash",
      "outputs": [],
      "stateMutability": "nonpayable",
      "type": "function"
    },
    {
      "inputs": [
        {
          "internalType": "address",
          "name": "_implementation",
          "type": "address"
        }
      ],
      "name": "updateImplementation",
      "outputs": [],
      "stateMutability": "payable",
      "type": "function"
    },
    {
      "stateMutability": "payable",
      "type": "receive"
    }
  ],
  "bytecode": "0x60e060405234801561001057600080fd5b5060405161863338038061863383398101604081905261002f916100ca565b808060405161003d906100bd565b604051809103906000f080158015610059573d6000803e3d6000fd5b5060006040518060600160405280602c8152602001618607602c9139604051610087919030906020016100fa565b60408051601f198184030181529190528051602090910120608052506001600160a01b0391821660a0521660c0525061012c9050565b613e1a806147ed83390190565b6000602082840312156100dc57600080fd5b81516001600160a01b03811681146100f357600080fd5b9392505050565b6000835160005b8181101561011b5760208187018101518583015201610101565b509190910191825250602001919050565b60805160a05160c05161467d6101706000396000818161046d01526116da0152600081816103b201526131a601526000818161035001526131d7015261467d6000f3fe60806040526004361061016e5760003560e01c80636ea44577116100cb578063ad55366b1161007f578063ca70785011610059578063ca70785014610552578063f23a6e6114610572578063f727ef1c146105b857610175565b8063ad55366b146104a4578063b93ea7ad146104f7578063bc197c811461050a57610175565b80638c3f5563116100b05780638c3f55631461043b5780639f69ef541461045b578063aaf10f421461048f57610175565b80636ea44577146104075780638943ec021461041a57610175565b8063257671f5116101225780632dd31000116101075780632dd31000146103a05780634fcf3eca146103d45780636406c314146103e757610175565b8063257671f51461033e578063295614261461038057610175565b80631626ba7e116101535780631626ba7e146102c65780631a9b2337146102e65780631f6a1eb91461032b57610175565b8063025b22bc14610238578063150b7a021461024b57610175565b3661017557005b6004361061023657600061019161018c368361364d565b6105d8565b905073ffffffffffffffffffffffffffffffffffffffff811615610234576000808273ffffffffffffffffffffffffffffffffffffffff166000366040516101da9291906136b3565b600060405180830381855af49150503d8060008114610215576040519150601f19603f3d011682016040523d82523d6000602084013e61021a565b606091505b50915091508161022c57805160208201fd5b805160208201f35b505b005b6102366102463660046136ec565b61062c565b34801561025757600080fd5b50610290610266366004613750565b7f150b7a020000000000000000000000000000000000000000000000000000000095945050505050565b6040517fffffffff0000000000000000000000000000000000000000000000000000000090911681526020015b60405180910390f35b3480156102d257600080fd5b506102906102e13660046137bf565b610678565b3480156102f257600080fd5b50610306610301366004613839565b610710565b60405173ffffffffffffffffffffffffffffffffffffffff90911681526020016102bd565b610236610339366004613856565b61071b565b34801561034a57600080fd5b506103727f000000000000000000000000000000000000000000000000000000000000000081565b6040519081526020016102bd565b34801561038c57600080fd5b5061023661039b3660046138c7565b61079d565b3480156103ac57600080fd5b506103067f000000000000000000000000000000000000000000000000000000000000000081565b6102366103e2366004613839565b6107e1565b6103fa6103f5366004613856565b6108a3565b6040516102bd919061397d565b610236610415366004613a5b565b6108d5565b34801561042657600080fd5b50610236610435366004613a9d565b50505050565b34801561044757600080fd5b506103726104563660046138c7565b610935565b34801561046757600080fd5b506103067f000000000000000000000000000000000000000000000000000000000000000081565b34801561049b57600080fd5b50610306610961565b3480156104b057600080fd5b506104c46104bf366004613e1f565b610970565b604080519687526020870195909552921515938501939093526060840152608083019190915260a082015260c0016102bd565b610236610505366004613f4d565b6109aa565b34801561051657600080fd5b50610290610525366004613fc7565b7fbc197c810000000000000000000000000000000000000000000000000000000098975050505050505050565b34801561055e57600080fd5b5061037261056d366004613e1f565b610a6f565b34801561057e57600080fd5b5061029061058d36600461408e565b7ff23a6e61000000000000000000000000000000000000000000000000000000009695505050505050565b3480156105c457600080fd5b506102366105d3366004614106565b610bd8565b60006106267fbe27a319efc8734e89e26ba4bc95f5c788584163b959f03fa04e2d7ab4b9a1207fffffffff000000000000000000000000000000000000000000000000000000008416610c93565b92915050565b33301461066c576040517fa19dbf000000000000000000000000000000000000000000000000000000000081523360048201526024015b60405180910390fd5b61067581610cf1565b50565b604080516101208101825260006020820181905260609282018390528282018190526080820181905260a0820183905260c082018190526101008201929092526003815260e08101859052816106cf828686610d45565b509050806106e35750600091506107099050565b507f20c13b0b000000000000000000000000000000000000000000000000000000009150505b9392505050565b6000610626826105d8565b60006107278585610e93565b905061073b816060015182608001516112b1565b600080610749838686610d45565b915091508161078a578285856040517fa2b6d61b0000000000000000000000000000000000000000000000000000000081526004016106639392919061436c565b6107948184611399565b50505050505050565b3330146107d8576040517fa19dbf00000000000000000000000000000000000000000000000000000000008152336004820152602401610663565b61067581611642565b33301461081c576040517fa19dbf00000000000000000000000000000000000000000000000000000000008152336004820152602401610663565b6000610827826105d8565b73ffffffffffffffffffffffffffffffffffffffff1603610898576040517f1c3812cc0000000000000000000000000000000000000000000000000000000081527fffffffff0000000000000000000000000000000000000000000000000000000082166004820152602401610663565b6106758160006116fe565b606060006108b18686610e93565b905060006108be826117be565b90506108ca8183611839565b979650505050505050565b333014610910576040517fa19dbf00000000000000000000000000000000000000000000000000000000008152336004820152602401610663565b600061091c8383610e93565b90506000610929826117be565b90506104358183611399565b60006106267f8d0bf1fd623d628c741362c1289948e57b3e2905218c676d3e69abee36d6ae2e83610c93565b600061096b305490565b905090565b600080600080600080610987898989600080611da9565b93995091975094509250905061099c836120ce565b935093975093979195509350565b3330146109e5576040517fa19dbf00000000000000000000000000000000000000000000000000000000008152336004820152602401610663565b60006109f0836105d8565b73ffffffffffffffffffffffffffffffffffffffff1614610a61576040517f5b4d6d6a0000000000000000000000000000000000000000000000000000000081527fffffffff0000000000000000000000000000000000000000000000000000000083166004820152602401610663565b610a6b82826116fe565b5050565b600080846101000151516001610a8591906143cb565b67ffffffffffffffff811115610a9d57610a9d613adf565b604051908082528060200260200182016040528015610ac6578160200160208202803683370190505b50905060005b85610100015151811015610b38578561010001518181518110610af157610af16143de565b6020026020010151828281518110610b0b57610b0b6143de565b73ffffffffffffffffffffffffffffffffffffffff90921660209283029190910190910152600101610acc565b5033818661010001515181518110610b5257610b526143de565b73ffffffffffffffffffffffffffffffffffffffff9092166020928302919091019091015261010085018190526000610b8c868686610d45565b50905080610bcc578585856040517ff58cc8b50000000000000000000000000000000000000000000000000000000081526004016106639392919061436c565b50600195945050505050565b333014610c13576040517fa19dbf00000000000000000000000000000000000000000000000000000000008152336004820152602401610663565b610c2c8383836bffffffffffffffffffffffff166120d9565b6040805184815273ffffffffffffffffffffffffffffffffffffffff841660208201526bffffffffffffffffffffffff83168183015290517febf265acfac1c01de588ed7ef49743b9c3ce8d6d1edeaf510a1f5453228515b19181900360600190a1505050565b6000808383604051602001610cb2929190918252602082015260400190565b604080517fffffffffffffffffffffffffffffffffffffffffffffffffffffffffffffffe0818403018152919052805160209091012054949350505050565b610cf9813055565b60405173ffffffffffffffffffffffffffffffffffffffff821681527f310ba5f1d2ed074b51e2eccd052a47ae9ab7c6b800d1fca3db3999d6a592ca039060200160405180910390a150565b600080600084846000818110610d5d57610d5d6143de565b7fff000000000000000000000000000000000000000000000000000000000000009201359182169250507f80000000000000000000000000000000000000000000000000000000000000009081169003610e5c57610dba866117be565b9150600080610dc884612168565b9150915042811015610e10576040517f9fa4fe540000000000000000000000000000000000000000000000000000000081526004810185905260248101829052604401610663565b73ffffffffffffffffffffffffffffffffffffffff82161580610e48575073ffffffffffffffffffffffffffffffffffffffff821633145b15610e595760019450505050610e8b565b50505b6000806000610e6f898989600080611da9565b98509295509093509150610e849050816120ce565b9550505050505b935093915050565b604080516101208101825260008082526020820181905260609282018390528282018190526080820181905260a0820183905260c0820181905260e0820152610100810191909152823560f81c60018082168103610ef75760006060840152610f08565b84810135606090811c908401526014015b6007600183901c168015610f5b5760016008820290811b7fffffffffffffffffffffffffffffffffffffffffffffffffffffffffffffffff0187840135610100929092039190911c166080850152908101905b600083601016601003610f7057506001610f99565b83602016602003610f8c5750600282019186013560f01c610f99565b50600182019186013560f81c5b8067ffffffffffffffff811115610fb257610fb2613adf565b60405190808252806020026020018201604052801561103d57816020015b61102a6040518060e00160405280600073ffffffffffffffffffffffffffffffffffffffff168152602001600081526020016060815260200160008152602001600015158152602001600015158152602001600081525090565b815260200190600190039081610fd05790505b50604086015260005b818110156112a65760018085019489013560f81c9080821690036110a557308760400151838151811061107b5761107b6143de565b602090810291909101015173ffffffffffffffffffffffffffffffffffffffff90911690526110ef565b8489013560601c60148601886040015184815181106110c6576110c66143de565b602090810291909101015173ffffffffffffffffffffffffffffffffffffffff90921690915294505b6002808216900361112d57848901356020860188604001518481518110611118576111186143de565b60200260200101516020018197508281525050505b600480821690036111c557600385019489013560e81c89868a61115084836143cb565b9261115d9392919061440d565b8080601f01602080910402602001604051908101604052809392919081815260200183838082843760009201919091525050505060408901518051859081106111a8576111a86143de565b6020908102919091010151604001526111c181876143cb565b9550505b60088082169003611203578489013560208601886040015184815181106111ee576111ee6143de565b60200260200101516060018197508281525050505b8060101660ff1660101487604001518381518110611223576112236143de565b602002602001015160800190151590811515815250508060201660ff1660201487604001518381518110611259576112596143de565b602090810291909101015190151560a090910152604087015180516003600684901c1691908490811061128e5761128e6143de565b602090810291909101015160c0015250600101611046565b505050505092915050565b60006112bc83610935565b9050818114611308576040517f9b6514f4000000000000000000000000000000000000000000000000000000008152600481018490526024810183905260448101829052606401610663565b604080517f8d0bf1fd623d628c741362c1289948e57b3e2905218c676d3e69abee36d6ae2e60208083019190915281830186905282518083038401815260609092019092528051910120600183019081905560408051858152602081018390527f1f180c27086c7a39ea2a7b25239d1ab92348f07ca7bb59d1438fcf527568f881910160405180910390a150505050565b604081015151600090815b8181101561163b576000846040015182815181106113c4576113c46143de565b602002602001015190508060a0015180156113dd575083155b15611425576040805187815260208101849052600095507f9ae934bf8a986157c889a24c3b3fa85e74b7e4ee4b1f8fc6e7362cb4c1d19d8b910160405180910390a150611633565b606081015180158015906114385750805a105b156114755785835a6040517f2139527400000000000000000000000000000000000000000000000000000000815260040161066393929190614437565b60008260800151156114a657825161149f9083156114935783611495565b5a5b85604001516121b4565b90506114cd565b825160208401516114ca919084156114be57846114c0565b5a5b86604001516121ca565b90505b806115f65760c0830151611520576040805189815260208101869052600197507f20832642214d5218c6428e71d8d2ddd9ad15a81ad2be8154d8c2e3ab08293fcb910160405180910390a1505050611633565b60c08301517fffffffffffffffffffffffffffffffffffffffffffffffffffffffffffffffff0161158a5786846115556121e2565b6040517f7f6b0bb10000000000000000000000000000000000000000000000000000000081526004016106639392919061445c565b60c08301517ffffffffffffffffffffffffffffffffffffffffffffffffffffffffffffffffe016115f65760408051898152602081018690527f5b5cb72c79981de49f1f950d4d8d62397e2fc2b772e1b788a640025075ab47c3910160405180910390a150505061163b565b60408051898152602081018690527fec670aed5ee1e72eb3eb601271be4b3f312e71f17eebdf10c1a0ab5a3af30ffd910160405180910390a15050505b6001016113a4565b5050505050565b80611679576040517f4294d12700000000000000000000000000000000000000000000000000000000815260040160405180910390fd5b6116a27fea7157fa25e3aa17d0ae2d5280fa4e24d421c61842aa85e45194e1145aa72bf8829055565b6040518181527f307ed6bd941ee9fc80f369c94af5fa11e25bab5102a6140191756c5474a30bfa9060200160405180910390a16106757f0000000000000000000000000000000000000000000000000000000000000000610cf1565b604080517fbe27a319efc8734e89e26ba4bc95f5c788584163b959f03fa04e2d7ab4b9a1206020808301919091527fffffffff000000000000000000000000000000000000000000000000000000008516828401819052835180840385018152606084018086528151919093012073ffffffffffffffffffffffffffffffffffffffff8616908190559152608082015290517f0d7fc113eaf016db4681a1ba86d083ce3e0961f321062a75ac2b0aeb33deeed19181900360a00190a15050565b6000806117cf836020015130612201565b905060006117dc846122ce565b6040517f1901000000000000000000000000000000000000000000000000000000000000602082015260228101849052604281018290529091506062015b6040516020818303038152906040528051906020012092505050919050565b6040810151516060906000908067ffffffffffffffff81111561185e5761185e613adf565b6040519080825280602002602001820160405280156118b457816020015b6118a16040805160608101909152806000815260200160608152602001600081525090565b81526020019060019003908161187c5790505b50925060005b81811015611da0576000856040015182815181106118da576118da6143de565b602002602001015190508060a0015180156118f3575083155b1561193b576040805188815260208101849052600095507f9ae934bf8a986157c889a24c3b3fa85e74b7e4ee4b1f8fc6e7362cb4c1d19d8b910160405180910390a150611d98565b6060810151801580159061194e5750805a105b156119e7576005868481518110611967576119676143de565b6020026020010151600001906005811115611984576119846138e0565b90816005811115611997576119976138e0565b9052505a6040516020016119ad91815260200190565b6040516020818303038152906040528684815181106119ce576119ce6143de565b6020026020010151602001819052505050505050610626565b6000826080015115611a4c5760005a8451909150611a17908415611a0b5784611a0d565b5a5b86604001516121b4565b91505a611a249082614487565b888681518110611a3657611a366143de565b6020026020010151604001818152505050611aa6565b60005a84516020860151919250611a75918515611a695785611a6b565b5a5b87604001516121ca565b91505a611a829082614487565b888681518110611a9457611a946143de565b60200260200101516040018181525050505b80611ceb5760c0830151611b6957604080518a815260208101869052600197507f20832642214d5218c6428e71d8d2ddd9ad15a81ad2be8154d8c2e3ab08293fcb910160405180910390a16002878581518110611b0557611b056143de565b6020026020010151600001906005811115611b2257611b226138e0565b90816005811115611b3557611b356138e0565b905250611b406121e2565b878581518110611b5257611b526143de565b602002602001015160200181905250505050611d98565b60c08301517fffffffffffffffffffffffffffffffffffffffffffffffffffffffffffffffff01611c0f576003878581518110611ba857611ba86143de565b6020026020010151600001906005811115611bc557611bc56138e0565b90816005811115611bd857611bd86138e0565b905250611be36121e2565b878581518110611bf557611bf56143de565b602002602001015160200181905250505050505050610626565b60c08301517ffffffffffffffffffffffffffffffffffffffffffffffffffffffffffffffffe01611ceb57604080518a8152602081018690527f5b5cb72c79981de49f1f950d4d8d62397e2fc2b772e1b788a640025075ab47c3910160405180910390a16004878581518110611c8757611c876143de565b6020026020010151600001906005811115611ca457611ca46138e0565b90816005811115611cb757611cb76138e0565b905250611cc26121e2565b878581518110611cd457611cd46143de565b602002602001015160200181905250505050611da0565b604080518a8152602081018690527fec670aed5ee1e72eb3eb601271be4b3f312e71f17eebdf10c1a0ab5a3af30ffd910160405180910390a16001878581518110611d3857611d386143de565b6020026020010151600001906005811115611d5557611d556138e0565b90816005811115611d6857611d686138e0565b905250611d736121e2565b878581518110611d8557611d856143de565b6020026020010151602001819052505050505b6001016118ba565b50505092915050565b6040805180820182526000808252602082018190529182918291829182918a3560f81c91600191808416148015611df4575073ffffffffffffffffffffffffffffffffffffffff8916155b15611f10578b82013560601c985060149091019089611f105760038201918c013560e81c60008d848e611e2785836143cb565b92611e349392919061440d565b8080601f016020809104026020016040519081016040528093929190818152602001838380828437600092019190915250506040517fccce3bc80000000000000000000000000000000000000000000000000000000081529293505073ffffffffffffffffffffffffffffffffffffffff8d169163ccce3bc89150611ebf903090859060040161449a565b6040805180830381865afa158015611edb573d6000803e3d6000fd5b505050506040513d601f19601f82011682018060405250810190611eff91906144d1565b9250611f0b82856143cb565b935050505b82600116600103611f4a57611f388d8a838f8f87908092611f339392919061440d565b612524565b975097509750975097505050506120c1565b6002838116811460208f015283901c60071660016008820290811b7fffffffffffffffffffffffffffffffffffffffffffffffffffffffffffffffff018e850135610100929092039190911c16838201909650925060009050611fb56001600586901c8116906143cb565b60016008820290811b7fffffffffffffffffffffffffffffffffffffffffffffffffffffffffffffffff018f860135610100929092039190911c16995090920191506120008d6117be565b935061201e8d858e8e869080926120199392919061440d565b612770565b600090815260208a815260408083208352888252808320835273ffffffffffffffffffffffffffffffffffffffff8d1690915290208251919850965015801590612069575080518614155b8015612079575080602001518511155b156120bd576040517fccbb534f0000000000000000000000000000000000000000000000000000000081528151600482015260208201516024820152604401610663565b5050505b9550955095509550959050565b600061062682613154565b6121637fc852adf5e97c2fc3b38f405671e91b7af1697ef0287577f227ef10494c2a8e86847fffffffffffffffffffffffffffffffffffffffff000000000000000000000000606086901b166bffffffffffffffffffffffff8516176040805160208082019590955280820193909352805180840382018152606090930190528151919092012055565b505050565b600080806121967fc852adf5e97c2fc3b38f405671e91b7af1697ef0287577f227ef10494c2a8e8685610c93565b606081901c956bffffffffffffffffffffffff909116945092505050565b60008060008351602085018787f4949350505050565b6000806000835160208501878988f195945050505050565b60603d604051915060208201818101604052818352816000823e505090565b60007f8b73c3c69bb8fe3d512ecc4cf759cc79239f7b179b0ffacaa9a75d522b39400f7f4aa45ca7ad825ceb1bf35643f0a58c295239df563b1b565c2485f96477c563187f2a80e1ef1d7842f27f2e6be0972bb708b9a135c38860dbe73c27c3486c34f4de856122715746612274565b60005b6040805160208101959095528401929092526060830152608082015273ffffffffffffffffffffffffffffffffffffffff831660a082015260c0015b60405160208183030381529060405280519060200120905092915050565b6000806122df836101000151613256565b835190915060ff166123525760006122fa84604001516132d9565b606080860151608080880151604080517f11e1e4079a79a66e4ade50033cfe2678cdd5341d2dfe5ef9513edb1a0be147a260208201529081018690529384019290925282015260a0810184905290915060c00161181a565b825160ff167fffffffffffffffffffffffffffffffffffffffffffffffffffffffffffffffff016123e25760a08301518051602091820120604080517fe19a3b94fc3c7ece3f890d98a99bc422615537a08dea0603fa8425867d87d46693810193909352820152606081018290526080015b60405160208183030381529060405280519060200120915050919050565b825160ff167ffffffffffffffffffffffffffffffffffffffffffffffffffffffffffffffffe016124525760c0830151604080517f11fdeb7e8373a1aa96bfac8d0ea91526b2c5d15e5cee20e0543e780258f3e8e4602082015290810191909152606081018290526080016123c4565b825160ff167ffffffffffffffffffffffffffffffffffffffffffffffffffffffffffffffffd016124c25760e0830151604080517f402e923b91e918306019e73f589362164a6a059499a504699c66feabbb3e2624602082015290810191909152606081018290526080016123c4565b6040517f08c379a000000000000000000000000000000000000000000000000000000000815260206004820152601060248201527f556e737570706f72746564206b696e64000000000000000000000000000000006044820152606401610663565b6000806000806000612586604051806101200160405280600060ff168152602001600015158152602001606081526020016000815260200160008152602001606081526020016000801916815260200160008019168152602001606081525090565b6002815260007fffffffffffffffffffffffffffffffffffffffffffffffffffffffffffffffff5b888210156126fd5760038201916000908b013560e81c6125ce84826143cb565b9150600090508a82146125e25760006125e4565b8d5b905060007fffffffffffffffffffffffffffffffffffffffffffffffffffffffffffffffff84146126155785612617565b8f5b9050612637818e8e8890879261262f9392919061440d565b600186611da9565b50929d50909b50995097508a8a1015612694578c8c8690859261265c9392919061440d565b8c8c6040517fb006aba00000000000000000000000000000000000000000000000000000000081526004016106639493929190614522565b829450888e60000151036126a75760008e525b8388106126ea576040517f37daf62b0000000000000000000000000000000000000000000000000000000081526004810189905260248101859052604401610663565b505060c0840187905291508490506125ae565b8a511580159061271157508a602001518511155b15612755576040517fccbb534f0000000000000000000000000000000000000000000000000000000081528b51600482015260208c01516024820152604401610663565b61275e8d6117be565b93505050509550955095509550959050565b60008060005b8381101561314a57600181019085013560f881901c9060fc1c8061289357600f821660008190036127ae5750600183019287013560f81c5b60408051600080825260208281018085528d9052601b8c89019182013560ff81811c928301908116868801529235606086018190527f7fffffffffffffffffffffffffffffffffffffffffffffffffffffffffffffff82166080870181905296909a0199959094919390929160019060a0015b6020604051602081039080840390855afa158015612843573d6000803e3d6000fd5b5050506020604051035190508660ff168c019b506000612866828960ff1661335b565b90508b6128735780612882565b60008c81526020829052604090205b9b5050505050505050505050612776565b600181036128f757600f821660008190036128b55750600183019287013560f81c5b601484019388013560601c60006128cf8260ff851661335b565b9050866128dc57806128eb565b60008781526020829052604090205b96505050505050612776565b60028103612ade576003821660008190036129195750600183019287013560f81c5b60008489013560601c60148601955090506003600285901c16600060016008830290811b7fffffffffffffffffffffffffffffffffffffffffffffffffffffffffffffffff018c890135610100929092039190911c168288018098508192505050600081880190506320c13b0b60e01b7bffffffffffffffffffffffffffffffffffffffffffffffffffffffff19168473ffffffffffffffffffffffffffffffffffffffff16631626ba7e8f8f8f8d9087926129d79392919061440d565b6040518463ffffffff1660e01b81526004016129f593929190614549565b602060405180830381865afa158015612a12573d6000803e3d6000fd5b505050506040513d601f19601f82011682018060405250810190612a369190614563565b7fffffffff000000000000000000000000000000000000000000000000000000001614612a99578d8d858e8e6040517ff734863a000000000000000000000000000000000000000000000000000000008152600401610663959493929190614580565b8097508460ff168a0199506000612ab3858760ff1661335b565b905089612ac05780612acf565b60008a81526020829052604090205b99505050505050505050612776565b60038103612b1257602083019287013584612af95780612b08565b60008581526020829052604090205b9450505050612776565b60048103612bb857600f8216600060016008830290811b7fffffffffffffffffffffffffffffffffffffffffffffffffffffffffffffffff018a870135610100929092039190911c16858301809650819250505060008186019050600080612b878e8e8e8e8c9088926120199392919061440d565b91509150829750818a019950612ba7898260009182526020526040902090565b985082975050505050505050612776565b60068103612c82576003600283901c166000819003612bde5750600183019287013560f81c5b600383166000819003612bf85750600284019388013560f01c5b6000858a013560e81c600387018162ffffff169150809750819250505060008187019050600080612c368f8f8f8f8d9088926120199392919061440d565b91509150829850848210612c4957998501995b6000612c568287896133c2565b90508a612c635780612c72565b60008b81526020829052604090205b9a50505050505050505050612776565b60058103612cef576020830192870135888103612cbd577fffffffffffffffffffffffffffffffffffffffffffffffffffffffffffffffff95505b6000612cc882613426565b905085612cd55780612ce4565b60008681526020829052604090205b955050505050612776565b60078103612df557600f82166000819003612d115750600183019287013560f81c5b600080858a0135602087019650915089860135602087016040517f19457468657265756d205369676e6564204d6573736167653a0a3332000000006020820152603c81018e905290975090915060ff82901c907f7fffffffffffffffffffffffffffffffffffffffffffffffffffffffffffffff831690601b830190600090600190605c01604080517fffffffffffffffffffffffffffffffffffffffffffffffffffffffffffffffe08184030181528282528051602091820120600084529083018083525260ff851690820152606081018890526080810185905260a001612821565b60088103612e495760208301928701356000612e118b8261347a565b9050808203612e3e577fffffffffffffffffffffffffffffffffffffffffffffffffffffffffffffffff96505b60006128cf826134f5565b60098103612faf57600382166000819003612e6b5750600183019287013560f81c5b60008489013560601c601486019550905060006003600286901c1660016008820290811b7fffffffffffffffffffffffffffffffffffffffffffffffffffffffffffffffff018c890135610100929092039190911c168188018098508193505050506000818701905060008373ffffffffffffffffffffffffffffffffffffffff1663ca7078508f8e8e8c908792612f059392919061440d565b6040518463ffffffff1660e01b8152600401612f239392919061436c565b602060405180830381865afa158015612f40573d6000803e3d6000fd5b505050506040513d601f19601f82011682018060405250810190612f6491906145d4565b90508197508460ff168a0199506000612f81858760ff1684613530565b905089612f8e5780612f9d565b60008a81526020829052604090205b99508298505050505050505050612776565b600a810361311557600382166000819003612fd15750600183019287013560f81c5b60008489013560601c60148601955090506003600285901c16600060016008830290811b7fffffffffffffffffffffffffffffffffffffffffffffffffffffffffffffffff018c890135610100929092039190911c1682880180985081925050506000818801905060008473ffffffffffffffffffffffffffffffffffffffff1663957d2b238f8f8f8d90879261306a9392919061440d565b6040518463ffffffff1660e01b815260040161308893929190614549565b602060405180830381865afa1580156130a5573d6000803e3d6000fd5b505050506040513d601f19601f820116820180604052508101906130c991906145d4565b90508198508560ff168b019a5060006130e6868860ff1684613530565b90508a6130f35780613102565b60008b81526020829052604090205b9a50829950505050505050505050612776565b6040517fb2505f7c00000000000000000000000000000000000000000000000000000000815260048101829052602401610663565b5094509492505050565b6000610626826040517fff0000000000000000000000000000000000000000000000000000000000000060208201527fffffffffffffffffffffffffffffffffffffffff0000000000000000000000007f000000000000000000000000000000000000000000000000000000000000000060601b166021820152603581018290527f000000000000000000000000000000000000000000000000000000000000000060558201526000903090607501604080517fffffffffffffffffffffffffffffffffffffffffffffffffffffffffffffffe0818403018152919052805160209091012073ffffffffffffffffffffffffffffffffffffffff161492915050565b6000606060005b83518110156132ca5781848281518110613279576132796143de565b60200260200101516040516020016132929291906145ed565b604080517fffffffffffffffffffffffffffffffffffffffffffffffffffffffffffffffe0818403018152919052915060010161325d565b50805160209091012092915050565b6000606060005b83518110156132ca57600061330d858381518110613300576133006143de565b602002602001015161359e565b90508281604051602001613322929190614625565b604080517fffffffffffffffffffffffffffffffffffffffffffffffffffffffffffffffe08184030181529190529250506001016132e0565b6040517f53657175656e6365207369676e65723a0a00000000000000000000000000000060208201527fffffffffffffffffffffffffffffffffffffffff000000000000000000000000606084901b166031820152604581018290526000906065016122b0565b6040517f53657175656e6365206e657374656420636f6e6669673a0a000000000000000060208201526038810184905260588101839052607881018290526000906098015b6040516020818303038152906040528051906020012090509392505050565b6040517f53657175656e636520737461746963206469676573743a0a00000000000000006020820152603881018290526000906058015b604051602081830303815290604052805190602001209050919050565b60008061348b846020015184612201565b90506000613498856122ce565b6040517f190100000000000000000000000000000000000000000000000000000000000060208201526022810184905260428101829052909150606201604051602081830303815290604052805190602001209250505092915050565b604080517f53657175656e636520616e792061646472657373207375626469676573743a0a602082015290810182905260009060600161345d565b6040517f53657175656e63652073617069656e7420636f6e6669673a0a0000000000000060208201527fffffffffffffffffffffffffffffffffffffffff000000000000000000000000606085901b166039820152604d8101839052606d8101829052600090608d01613407565b60007f0603985259a953da1f65a522f589c17bd1d0117ec1d3abb7c0788aef251ef43782600001518360200151846040015180519060200120856060015186608001518760a001518860c0015160405160200161345d98979695949392919097885273ffffffffffffffffffffffffffffffffffffffff969096166020880152604087019490945260608601929092526080850152151560a0840152151560c083015260e08201526101000190565b80357fffffffff0000000000000000000000000000000000000000000000000000000081169060048410156136ac577fffffffff00000000000000000000000000000000000000000000000000000000808560040360031b1b82161691505b5092915050565b8183823760009101908152919050565b803573ffffffffffffffffffffffffffffffffffffffff811681146136e757600080fd5b919050565b6000602082840312156136fe57600080fd5b610709826136c3565b60008083601f84011261371957600080fd5b50813567ffffffffffffffff81111561373157600080fd5b60208301915083602082850101111561374957600080fd5b9250929050565b60008060008060006080868803121561376857600080fd5b613771866136c3565b945061377f602087016136c3565b935060408601359250606086013567ffffffffffffffff8111156137a257600080fd5b6137ae88828901613707565b969995985093965092949392505050565b6000806000604084860312156137d457600080fd5b83359250602084013567ffffffffffffffff8111156137f257600080fd5b6137fe86828701613707565b9497909650939450505050565b7fffffffff000000000000000000000000000000000000000000000000000000008116811461067557600080fd5b60006020828403121561384b57600080fd5b81356107098161380b565b6000806000806040858703121561386c57600080fd5b843567ffffffffffffffff81111561388357600080fd5b61388f87828801613707565b909550935050602085013567ffffffffffffffff8111156138af57600080fd5b6138bb87828801613707565b95989497509550505050565b6000602082840312156138d957600080fd5b5035919050565b7f4e487b7100000000000000000000000000000000000000000000000000000000600052602160045260246000fd5b60005b8381101561392a578181015183820152602001613912565b50506000910152565b6000815180845261394b81602086016020860161390f565b601f017fffffffffffffffffffffffffffffffffffffffffffffffffffffffffffffffe0169290920160200192915050565b6000602082016020835280845180835260408501915060408160051b86010192506020860160005b82811015613a4f577fffffffffffffffffffffffffffffffffffffffffffffffffffffffffffffffc08786030184528151805160068110613a0f577f4e487b7100000000000000000000000000000000000000000000000000000000600052602160045260246000fd5b80875250602081015160606020880152613a2c6060880182613933565b6040928301519790920196909652945060209384019391909101906001016139a5565b50929695505050505050565b60008060208385031215613a6e57600080fd5b823567ffffffffffffffff811115613a8557600080fd5b613a9185828601613707565b90969095509350505050565b60008060008060608587031215613ab357600080fd5b613abc856136c3565b935060208501359250604085013567ffffffffffffffff8111156138af57600080fd5b7f4e487b7100000000000000000000000000000000000000000000000000000000600052604160045260246000fd5b60405160e0810167ffffffffffffffff81118282101715613b3157613b31613adf565b60405290565b604051610120810167ffffffffffffffff81118282101715613b3157613b31613adf565b604051601f82017fffffffffffffffffffffffffffffffffffffffffffffffffffffffffffffffe016810167ffffffffffffffff81118282101715613ba257613ba2613adf565b604052919050565b803560ff811681146136e757600080fd5b803580151581146136e757600080fd5b600067ffffffffffffffff821115613be557613be5613adf565b5060051b60200190565b600082601f830112613c0057600080fd5b813567ffffffffffffffff811115613c1a57613c1a613adf565b613c4b60207fffffffffffffffffffffffffffffffffffffffffffffffffffffffffffffffe0601f84011601613b5b565b818152846020838601011115613c6057600080fd5b816020850160208301376000918101602001919091529392505050565b600082601f830112613c8e57600080fd5b8135613ca1613c9c82613bcb565b613b5b565b8082825260208201915060208360051b860101925085831115613cc357600080fd5b602085015b83811015613db057803567ffffffffffffffff811115613ce757600080fd5b860160e08189037fffffffffffffffffffffffffffffffffffffffffffffffffffffffffffffffe0011215613d1b57600080fd5b613d23613b0e565b613d2f602083016136c3565b815260408201356020820152606082013567ffffffffffffffff811115613d5557600080fd5b613d648a602083860101613bef565b60408301525060808201356060820152613d8060a08301613bbb565b6080820152613d9160c08301613bbb565b60a082015260e0919091013560c0820152835260209283019201613cc8565b5095945050505050565b600082601f830112613dcb57600080fd5b8135613dd9613c9c82613bcb565b8082825260208201915060208360051b860101925085831115613dfb57600080fd5b602085015b83811015613db057613e11816136c3565b835260209283019201613e00565b600080600060408486031215613e3457600080fd5b833567ffffffffffffffff811115613e4b57600080fd5b84016101208187031215613e5e57600080fd5b613e66613b37565b613e6f82613baa565b8152613e7d60208301613bbb565b6020820152604082013567ffffffffffffffff811115613e9c57600080fd5b613ea888828501613c7d565b604083015250606082810135908201526080808301359082015260a082013567ffffffffffffffff811115613edc57600080fd5b613ee888828501613bef565b60a08301525060c0828101359082015260e0808301359082015261010082013567ffffffffffffffff811115613f1d57600080fd5b613f2988828501613dba565b61010083015250935050602084013567ffffffffffffffff8111156137f257600080fd5b60008060408385031215613f6057600080fd5b8235613f6b8161380b565b9150613f79602084016136c3565b90509250929050565b60008083601f840112613f9457600080fd5b50813567ffffffffffffffff811115613fac57600080fd5b6020830191508360208260051b850101111561374957600080fd5b60008060008060008060008060a0898b031215613fe357600080fd5b613fec896136c3565b9750613ffa60208a016136c3565b9650604089013567ffffffffffffffff81111561401657600080fd5b6140228b828c01613f82565b909750955050606089013567ffffffffffffffff81111561404257600080fd5b61404e8b828c01613f82565b909550935050608089013567ffffffffffffffff81111561406e57600080fd5b61407a8b828c01613707565b999c989b5096995094979396929594505050565b60008060008060008060a087890312156140a757600080fd5b6140b0876136c3565b95506140be602088016136c3565b94506040870135935060608701359250608087013567ffffffffffffffff8111156140e857600080fd5b6140f489828a01613707565b979a9699509497509295939492505050565b60008060006060848603121561411b57600080fd5b8335925061412b602085016136c3565b915060408401356bffffffffffffffffffffffff8116811461414c57600080fd5b809150509250925092565b600082825180855260208501945060208160051b8301016020850160005b83811015614227577fffffffffffffffffffffffffffffffffffffffffffffffffffffffffffffffe0858403018852815173ffffffffffffffffffffffffffffffffffffffff815116845260208101516020850152604081015160e060408601526141e360e0860182613933565b6060838101519087015260808084015115159087015260a08084015115159087015260c0928301519290950191909152506020978801979190910190600101614175565b50909695505050505050565b600081518084526020840193506020830160005b8281101561427b57815173ffffffffffffffffffffffffffffffffffffffff16865260209586019590910190600101614247565b5093949350505050565b805160ff168252600060208201516142a1602085018215159052565b50604082015161012060408501526142bd610120850182614157565b9050606083015160608501526080830151608085015260a083015184820360a08601526142ea8282613933565b91505060c083015160c085015260e083015160e085015261010083015184820361010086015261431a8282614233565b95945050505050565b8183528181602085013750600060208284010152600060207fffffffffffffffffffffffffffffffffffffffffffffffffffffffffffffffe0601f840116840101905092915050565b60408152600061437f6040830186614285565b8281036020840152614392818587614323565b9695505050505050565b7f4e487b7100000000000000000000000000000000000000000000000000000000600052601160045260246000fd5b808201808211156106265761062661439c565b7f4e487b7100000000000000000000000000000000000000000000000000000000600052603260045260246000fd5b6000808585111561441d57600080fd5b8386111561442a57600080fd5b5050820193919092039150565b60608152600061444a6060830186614285565b60208301949094525060400152919050565b60608152600061446f6060830186614285565b84602084015282810360408401526143928185613933565b818103818111156106265761062661439c565b73ffffffffffffffffffffffffffffffffffffffff831681526040602082015260006144c96040830184613933565b949350505050565b600060408284031280156144e457600080fd5b506040805190810167ffffffffffffffff8111828210171561450857614508613adf565b604052825181526020928301519281019290925250919050565b606081526000614536606083018688614323565b6020830194909452506040015292915050565b83815260406020820152600061431a604083018486614323565b60006020828403121561457557600080fd5b81516107098161380b565b6080815260006145936080830188614285565b86602084015273ffffffffffffffffffffffffffffffffffffffff8616604084015282810360608401526145c8818587614323565b98975050505050505050565b6000602082840312156145e657600080fd5b5051919050565b6040815260006146006040830185613933565b905073ffffffffffffffffffffffffffffffffffffffff831660208301529392505050565b6000835161463781846020880161390f565b919091019182525060200191905056fea2646970667358221220fc290ba5cf01f20b625338c4d4687db7852473a5a527106a48e6a12213307fe264736f6c634300081b00336080604052348015600f57600080fd5b50613dfb8061001f6000396000f3fe60806040526004361061012d5760003560e01c80638943ec02116100a5578063b93ea7ad11610074578063ca70785011610059578063ca7078501461046a578063f23a6e611461048a578063f727ef1c146104d057610134565b8063b93ea7ad1461040f578063bc197c811461042257610134565b80638943ec02146103665780638c3f556314610387578063aaf10f42146103a7578063ad55366b146103bc57610134565b80631f6a1eb9116100fc5780634fcf3eca116100e15780634fcf3eca1461031d57806351605d80146103305780636ea445771461035357610134565b80631f6a1eb9146102ea57806329561426146102fd57610134565b8063025b22bc146101f7578063150b7a021461020a5780631626ba7e146102855780631a9b2337146102a557610134565b3661013457005b600436106101f557600061015061014b3683612ef3565b6104f0565b905073ffffffffffffffffffffffffffffffffffffffff8116156101f3576000808273ffffffffffffffffffffffffffffffffffffffff16600036604051610199929190612f59565b600060405180830381855af49150503d80600081146101d4576040519150601f19603f3d011682016040523d82523d6000602084013e6101d9565b606091505b5091509150816101eb57805160208201fd5b805160208201f35b505b005b6101f5610205366004612f92565b610544565b34801561021657600080fd5b5061024f610225366004612ff6565b7f150b7a020000000000000000000000000000000000000000000000000000000095945050505050565b6040517fffffffff0000000000000000000000000000000000000000000000000000000090911681526020015b60405180910390f35b34801561029157600080fd5b5061024f6102a0366004613065565b610590565b3480156102b157600080fd5b506102c56102c03660046130df565b610628565b60405173ffffffffffffffffffffffffffffffffffffffff909116815260200161027c565b6101f56102f83660046130fc565b610633565b34801561030957600080fd5b506101f561031836600461316d565b6106b5565b6101f561032b3660046130df565b6106f9565b34801561033c57600080fd5b506103456107bb565b60405190815260200161027c565b6101f5610361366004613186565b6107ea565b34801561037257600080fd5b506101f56103813660046131c8565b50505050565b34801561039357600080fd5b506103456103a236600461316d565b61084a565b3480156103b357600080fd5b506102c5610876565b3480156103c857600080fd5b506103dc6103d736600461354a565b610880565b604080519687526020870195909552921515938501939093526060840152608083019190915260a082015260c00161027c565b6101f561041d366004613678565b6108ba565b34801561042e57600080fd5b5061024f61043d3660046136f2565b7fbc197c810000000000000000000000000000000000000000000000000000000098975050505050505050565b34801561047657600080fd5b5061034561048536600461354a565b61097f565b34801561049657600080fd5b5061024f6104a53660046137b9565b7ff23a6e61000000000000000000000000000000000000000000000000000000009695505050505050565b3480156104dc57600080fd5b506101f56104eb366004613831565b610ae8565b600061053e7fbe27a319efc8734e89e26ba4bc95f5c788584163b959f03fa04e2d7ab4b9a1207fffffffff000000000000000000000000000000000000000000000000000000008416610ba3565b92915050565b333014610584576040517fa19dbf000000000000000000000000000000000000000000000000000000000081523360048201526024015b60405180910390fd5b61058d81610c01565b50565b604080516101208101825260006020820181905260609282018390528282018190526080820181905260a0820183905260c082018190526101008201929092526003815260e08101859052816105e7828686610c56565b509050806105fb5750600091506106219050565b507f20c13b0b000000000000000000000000000000000000000000000000000000009150505b9392505050565b600061053e826104f0565b600061063f8585610da4565b9050610653816060015182608001516111c2565b600080610661838686610c56565b91509150816106a2578285856040517fa2b6d61b00000000000000000000000000000000000000000000000000000000815260040161057b93929190613b05565b6106ac81846112aa565b50505050505050565b3330146106f0576040517fa19dbf0000000000000000000000000000000000000000000000000000000000815233600482015260240161057b565b61058d81611553565b333014610734576040517fa19dbf0000000000000000000000000000000000000000000000000000000000815233600482015260240161057b565b600061073f826104f0565b73ffffffffffffffffffffffffffffffffffffffff16036107b0576040517f1c3812cc0000000000000000000000000000000000000000000000000000000081527fffffffff000000000000000000000000000000000000000000000000000000008216600482015260240161057b565b61058d8160006115e3565b60006107e57fea7157fa25e3aa17d0ae2d5280fa4e24d421c61842aa85e45194e1145aa72bf85490565b905090565b333014610825576040517fa19dbf0000000000000000000000000000000000000000000000000000000000815233600482015260240161057b565b60006108318383610da4565b9050600061083e826116a3565b905061038181836112aa565b600061053e7f8d0bf1fd623d628c741362c1289948e57b3e2905218c676d3e69abee36d6ae2e83610ba3565b60006107e5305490565b60008060008060008061089789898960008061171e565b9399509197509450925090506108ac83611a43565b935093975093979195509350565b3330146108f5576040517fa19dbf0000000000000000000000000000000000000000000000000000000000815233600482015260240161057b565b6000610900836104f0565b73ffffffffffffffffffffffffffffffffffffffff1614610971576040517f5b4d6d6a0000000000000000000000000000000000000000000000000000000081527fffffffff000000000000000000000000000000000000000000000000000000008316600482015260240161057b565b61097b82826115e3565b5050565b6000808461010001515160016109959190613b35565b67ffffffffffffffff8111156109ad576109ad61320a565b6040519080825280602002602001820160405280156109d6578160200160208202803683370190505b50905060005b85610100015151811015610a48578561010001518181518110610a0157610a01613b6f565b6020026020010151828281518110610a1b57610a1b613b6f565b73ffffffffffffffffffffffffffffffffffffffff909216602092830291909101909101526001016109dc565b5033818661010001515181518110610a6257610a62613b6f565b73ffffffffffffffffffffffffffffffffffffffff9092166020928302919091019091015261010085018190526000610a9c868686610c56565b50905080610adc578585856040517ff58cc8b500000000000000000000000000000000000000000000000000000000815260040161057b93929190613b05565b50600195945050505050565b333014610b23576040517fa19dbf0000000000000000000000000000000000000000000000000000000000815233600482015260240161057b565b610b3c8383836bffffffffffffffffffffffff16611a4e565b6040805184815273ffffffffffffffffffffffffffffffffffffffff841660208201526bffffffffffffffffffffffff83168183015290517febf265acfac1c01de588ed7ef49743b9c3ce8d6d1edeaf510a1f5453228515b19181900360600190a1505050565b6000808383604051602001610bc2929190918252602082015260400190565b604080517fffffffffffffffffffffffffffffffffffffffffffffffffffffffffffffffe0818403018152919052805160209091012054949350505050565b610c09813055565b60405173ffffffffffffffffffffffffffffffffffffffff821681527f310ba5f1d2ed074b51e2eccd052a47ae9ab7c6b800d1fca3db3999d6a592ca03906020015b60405180910390a150565b600080600084846000818110610c6e57610c6e613b6f565b7fff000000000000000000000000000000000000000000000000000000000000009201359182169250507f80000000000000000000000000000000000000000000000000000000000000009081169003610d6d57610ccb866116a3565b9150600080610cd984611add565b9150915042811015610d21576040517f9fa4fe54000000000000000000000000000000000000000000000000000000008152600481018590526024810182905260440161057b565b73ffffffffffffffffffffffffffffffffffffffff82161580610d59575073ffffffffffffffffffffffffffffffffffffffff821633145b15610d6a5760019450505050610d9c565b50505b6000806000610d8089898960008061171e565b98509295509093509150610d95905081611a43565b9550505050505b935093915050565b604080516101208101825260008082526020820181905260609282018390528282018190526080820181905260a0820183905260c0820181905260e0820152610100810191909152823560f81c60018082168103610e085760006060840152610e19565b84810135606090811c908401526014015b6007600183901c168015610e6c5760016008820290811b7fffffffffffffffffffffffffffffffffffffffffffffffffffffffffffffffff0187840135610100929092039190911c166080850152908101905b600083601016601003610e8157506001610eaa565b83602016602003610e9d5750600282019186013560f01c610eaa565b50600182019186013560f81c5b8067ffffffffffffffff811115610ec357610ec361320a565b604051908082528060200260200182016040528015610f4e57816020015b610f3b6040518060e00160405280600073ffffffffffffffffffffffffffffffffffffffff168152602001600081526020016060815260200160008152602001600015158152602001600015158152602001600081525090565b815260200190600190039081610ee15790505b50604086015260005b818110156111b75760018085019489013560f81c908082169003610fb6573087604001518381518110610f8c57610f8c613b6f565b602090810291909101015173ffffffffffffffffffffffffffffffffffffffff9091169052611000565b8489013560601c6014860188604001518481518110610fd757610fd7613b6f565b602090810291909101015173ffffffffffffffffffffffffffffffffffffffff90921690915294505b6002808216900361103e5784890135602086018860400151848151811061102957611029613b6f565b60200260200101516020018197508281525050505b600480821690036110d657600385019489013560e81c89868a6110618483613b35565b9261106e93929190613b9e565b8080601f01602080910402602001604051908101604052809392919081815260200183838082843760009201919091525050505060408901518051859081106110b9576110b9613b6f565b6020908102919091010151604001526110d28187613b35565b9550505b60088082169003611114578489013560208601886040015184815181106110ff576110ff613b6f565b60200260200101516060018197508281525050505b8060101660ff166010148760400151838151811061113457611134613b6f565b602002602001015160800190151590811515815250508060201660ff166020148760400151838151811061116a5761116a613b6f565b602090810291909101015190151560a090910152604087015180516003600684901c1691908490811061119f5761119f613b6f565b602090810291909101015160c0015250600101610f57565b505050505092915050565b60006111cd8361084a565b9050818114611219576040517f9b6514f400000000000000000000000000000000000000000000000000000000815260048101849052602481018390526044810182905260640161057b565b604080517f8d0bf1fd623d628c741362c1289948e57b3e2905218c676d3e69abee36d6ae2e60208083019190915281830186905282518083038401815260609092019092528051910120600183019081905560408051858152602081018390527f1f180c27086c7a39ea2a7b25239d1ab92348f07ca7bb59d1438fcf527568f881910160405180910390a150505050565b604081015151600090815b8181101561154c576000846040015182815181106112d5576112d5613b6f565b602002602001015190508060a0015180156112ee575083155b15611336576040805187815260208101849052600095507f9ae934bf8a986157c889a24c3b3fa85e74b7e4ee4b1f8fc6e7362cb4c1d19d8b910160405180910390a150611544565b606081015180158015906113495750805a105b156113865785835a6040517f2139527400000000000000000000000000000000000000000000000000000000815260040161057b93929190613bc8565b60008260800151156113b75782516113b09083156113a457836113a6565b5a5b8560400151611b29565b90506113de565b825160208401516113db919084156113cf57846113d1565b5a5b8660400151611b3f565b90505b806115075760c0830151611431576040805189815260208101869052600197507f20832642214d5218c6428e71d8d2ddd9ad15a81ad2be8154d8c2e3ab08293fcb910160405180910390a1505050611544565b60c08301517fffffffffffffffffffffffffffffffffffffffffffffffffffffffffffffffff0161149b578684611466611b57565b6040517f7f6b0bb100000000000000000000000000000000000000000000000000000000815260040161057b93929190613bed565b60c08301517ffffffffffffffffffffffffffffffffffffffffffffffffffffffffffffffffe016115075760408051898152602081018690527f5b5cb72c79981de49f1f950d4d8d62397e2fc2b772e1b788a640025075ab47c3910160405180910390a150505061154c565b60408051898152602081018690527fec670aed5ee1e72eb3eb601271be4b3f312e71f17eebdf10c1a0ab5a3af30ffd910160405180910390a15050505b6001016112b5565b5050505050565b8061158a576040517f4294d12700000000000000000000000000000000000000000000000000000000815260040160405180910390fd5b6115b37fea7157fa25e3aa17d0ae2d5280fa4e24d421c61842aa85e45194e1145aa72bf8829055565b6040518181527f307ed6bd941ee9fc80f369c94af5fa11e25bab5102a6140191756c5474a30bfa90602001610c4b565b604080517fbe27a319efc8734e89e26ba4bc95f5c788584163b959f03fa04e2d7ab4b9a1206020808301919091527fffffffff000000000000000000000000000000000000000000000000000000008516828401819052835180840385018152606084018086528151919093012073ffffffffffffffffffffffffffffffffffffffff8616908190559152608082015290517f0d7fc113eaf016db4681a1ba86d083ce3e0961f321062a75ac2b0aeb33deeed19181900360a00190a15050565b6000806116b4836020015130611b76565b905060006116c184611c43565b6040517f1901000000000000000000000000000000000000000000000000000000000000602082015260228101849052604281018290529091506062015b6040516020818303038152906040528051906020012092505050919050565b6040805180820182526000808252602082018190529182918291829182918a3560f81c91600191808416148015611769575073ffffffffffffffffffffffffffffffffffffffff8916155b15611885578b82013560601c9850601490910190896118855760038201918c013560e81c60008d848e61179c8583613b35565b926117a993929190613b9e565b8080601f016020809104026020016040519081016040528093929190818152602001838380828437600092019190915250506040517fccce3bc80000000000000000000000000000000000000000000000000000000081529293505073ffffffffffffffffffffffffffffffffffffffff8d169163ccce3bc891506118349030908590600401613c18565b6040805180830381865afa158015611850573d6000803e3d6000fd5b505050506040513d601f19601f820116820180604052508101906118749190613c4f565b92506118808285613b35565b935050505b826001166001036118bf576118ad8d8a838f8f879080926118a893929190613b9e565b611e99565b97509750975097509750505050611a36565b6002838116811460208f015283901c60071660016008820290811b7fffffffffffffffffffffffffffffffffffffffffffffffffffffffffffffffff018e850135610100929092039190911c1683820190965092506000905061192a6001600586901c811690613b35565b60016008820290811b7fffffffffffffffffffffffffffffffffffffffffffffffffffffffffffffffff018f860135610100929092039190911c16995090920191506119758d6116a3565b93506119938d858e8e8690809261198e93929190613b9e565b6120e5565b600090815260208a815260408083208352888252808320835273ffffffffffffffffffffffffffffffffffffffff8d16909152902082519198509650158015906119de575080518614155b80156119ee575080602001518511155b15611a32576040517fccbb534f000000000000000000000000000000000000000000000000000000008152815160048201526020820151602482015260440161057b565b5050505b9550955095509550959050565b600061053e82612ac9565b611ad87fc852adf5e97c2fc3b38f405671e91b7af1697ef0287577f227ef10494c2a8e86847fffffffffffffffffffffffffffffffffffffffff000000000000000000000000606086901b166bffffffffffffffffffffffff8516176040805160208082019590955280820193909352805180840382018152606090930190528151919092012055565b505050565b60008080611b0b7fc852adf5e97c2fc3b38f405671e91b7af1697ef0287577f227ef10494c2a8e8685610ba3565b606081901c956bffffffffffffffffffffffff909116945092505050565b60008060008351602085018787f4949350505050565b6000806000835160208501878988f195945050505050565b60603d604051915060208201818101604052818352816000823e505090565b60007f8b73c3c69bb8fe3d512ecc4cf759cc79239f7b179b0ffacaa9a75d522b39400f7f4aa45ca7ad825ceb1bf35643f0a58c295239df563b1b565c2485f96477c563187f2a80e1ef1d7842f27f2e6be0972bb708b9a135c38860dbe73c27c3486c34f4de85611be65746611be9565b60005b6040805160208101959095528401929092526060830152608082015273ffffffffffffffffffffffffffffffffffffffff831660a082015260c0015b60405160208183030381529060405280519060200120905092915050565b600080611c54836101000151612afc565b835190915060ff16611cc7576000611c6f8460400151612b7f565b606080860151608080880151604080517f11e1e4079a79a66e4ade50033cfe2678cdd5341d2dfe5ef9513edb1a0be147a260208201529081018690529384019290925282015260a0810184905290915060c0016116ff565b825160ff167fffffffffffffffffffffffffffffffffffffffffffffffffffffffffffffffff01611d575760a08301518051602091820120604080517fe19a3b94fc3c7ece3f890d98a99bc422615537a08dea0603fa8425867d87d46693810193909352820152606081018290526080015b60405160208183030381529060405280519060200120915050919050565b825160ff167ffffffffffffffffffffffffffffffffffffffffffffffffffffffffffffffffe01611dc75760c0830151604080517f11fdeb7e8373a1aa96bfac8d0ea91526b2c5d15e5cee20e0543e780258f3e8e460208201529081019190915260608101829052608001611d39565b825160ff167ffffffffffffffffffffffffffffffffffffffffffffffffffffffffffffffffd01611e375760e0830151604080517f402e923b91e918306019e73f589362164a6a059499a504699c66feabbb3e262460208201529081019190915260608101829052608001611d39565b6040517f08c379a000000000000000000000000000000000000000000000000000000000815260206004820152601060248201527f556e737570706f72746564206b696e6400000000000000000000000000000000604482015260640161057b565b6000806000806000611efb604051806101200160405280600060ff168152602001600015158152602001606081526020016000815260200160008152602001606081526020016000801916815260200160008019168152602001606081525090565b6002815260007fffffffffffffffffffffffffffffffffffffffffffffffffffffffffffffffff5b888210156120725760038201916000908b013560e81c611f438482613b35565b9150600090508a8214611f57576000611f59565b8d5b905060007fffffffffffffffffffffffffffffffffffffffffffffffffffffffffffffffff8414611f8a5785611f8c565b8f5b9050611fac818e8e88908792611fa493929190613b9e565b60018661171e565b50929d50909b50995097508a8a1015612009578c8c86908592611fd193929190613b9e565b8c8c6040517fb006aba000000000000000000000000000000000000000000000000000000000815260040161057b9493929190613ca0565b829450888e600001510361201c5760008e525b83881061205f576040517f37daf62b000000000000000000000000000000000000000000000000000000008152600481018990526024810185905260440161057b565b505060c084018790529150849050611f23565b8a511580159061208657508a602001518511155b156120ca576040517fccbb534f0000000000000000000000000000000000000000000000000000000081528b51600482015260208c0151602482015260440161057b565b6120d38d6116a3565b93505050509550955095509550959050565b60008060005b83811015612abf57600181019085013560f881901c9060fc1c8061220857600f821660008190036121235750600183019287013560f81c5b60408051600080825260208281018085528d9052601b8c89019182013560ff81811c928301908116868801529235606086018190527f7fffffffffffffffffffffffffffffffffffffffffffffffffffffffffffffff82166080870181905296909a0199959094919390929160019060a0015b6020604051602081039080840390855afa1580156121b8573d6000803e3d6000fd5b5050506020604051035190508660ff168c019b5060006121db828960ff16612c01565b90508b6121e857806121f7565b60008c81526020829052604090205b9b50505050505050505050506120eb565b6001810361226c57600f8216600081900361222a5750600183019287013560f81c5b601484019388013560601c60006122448260ff8516612c01565b9050866122515780612260565b60008781526020829052604090205b965050505050506120eb565b600281036124535760038216600081900361228e5750600183019287013560f81c5b60008489013560601c60148601955090506003600285901c16600060016008830290811b7fffffffffffffffffffffffffffffffffffffffffffffffffffffffffffffffff018c890135610100929092039190911c168288018098508192505050600081880190506320c13b0b60e01b7bffffffffffffffffffffffffffffffffffffffffffffffffffffffff19168473ffffffffffffffffffffffffffffffffffffffff16631626ba7e8f8f8f8d90879261234c93929190613b9e565b6040518463ffffffff1660e01b815260040161236a93929190613cc7565b602060405180830381865afa158015612387573d6000803e3d6000fd5b505050506040513d601f19601f820116820180604052508101906123ab9190613ce1565b7fffffffff00000000000000000000000000000000000000000000000000000000161461240e578d8d858e8e6040517ff734863a00000000000000000000000000000000000000000000000000000000815260040161057b959493929190613cfe565b8097508460ff168a0199506000612428858760ff16612c01565b9050896124355780612444565b60008a81526020829052604090205b995050505050505050506120eb565b600381036124875760208301928701358461246e578061247d565b60008581526020829052604090205b94505050506120eb565b6004810361252d57600f8216600060016008830290811b7fffffffffffffffffffffffffffffffffffffffffffffffffffffffffffffffff018a870135610100929092039190911c168583018096508192505050600081860190506000806124fc8e8e8e8e8c90889261198e93929190613b9e565b91509150829750818a01995061251c898260009182526020526040902090565b9850829750505050505050506120eb565b600681036125f7576003600283901c1660008190036125535750600183019287013560f81c5b60038316600081900361256d5750600284019388013560f01c5b6000858a013560e81c600387018162ffffff1691508097508192505050600081870190506000806125ab8f8f8f8f8d90889261198e93929190613b9e565b915091508298508482106125be57998501995b60006125cb828789612c68565b90508a6125d857806125e7565b60008b81526020829052604090205b9a505050505050505050506120eb565b60058103612664576020830192870135888103612632577fffffffffffffffffffffffffffffffffffffffffffffffffffffffffffffffff95505b600061263d82612ccc565b90508561264a5780612659565b60008681526020829052604090205b9550505050506120eb565b6007810361276a57600f821660008190036126865750600183019287013560f81c5b600080858a0135602087019650915089860135602087016040517f19457468657265756d205369676e6564204d6573736167653a0a3332000000006020820152603c81018e905290975090915060ff82901c907f7fffffffffffffffffffffffffffffffffffffffffffffffffffffffffffffff831690601b830190600090600190605c01604080517fffffffffffffffffffffffffffffffffffffffffffffffffffffffffffffffe08184030181528282528051602091820120600084529083018083525260ff851690820152606081018890526080810185905260a001612196565b600881036127be57602083019287013560006127868b82612d20565b90508082036127b3577fffffffffffffffffffffffffffffffffffffffffffffffffffffffffffffffff96505b600061224482612d9b565b60098103612924576003821660008190036127e05750600183019287013560f81c5b60008489013560601c601486019550905060006003600286901c1660016008820290811b7fffffffffffffffffffffffffffffffffffffffffffffffffffffffffffffffff018c890135610100929092039190911c168188018098508193505050506000818701905060008373ffffffffffffffffffffffffffffffffffffffff1663ca7078508f8e8e8c90879261287a93929190613b9e565b6040518463ffffffff1660e01b815260040161289893929190613b05565b602060405180830381865afa1580156128b5573d6000803e3d6000fd5b505050506040513d601f19601f820116820180604052508101906128d99190613d52565b90508197508460ff168a01995060006128f6858760ff1684612dd6565b9050896129035780612912565b60008a81526020829052604090205b995082985050505050505050506120eb565b600a8103612a8a576003821660008190036129465750600183019287013560f81c5b60008489013560601c60148601955090506003600285901c16600060016008830290811b7fffffffffffffffffffffffffffffffffffffffffffffffffffffffffffffffff018c890135610100929092039190911c1682880180985081925050506000818801905060008473ffffffffffffffffffffffffffffffffffffffff1663957d2b238f8f8f8d9087926129df93929190613b9e565b6040518463ffffffff1660e01b81526004016129fd93929190613cc7565b602060405180830381865afa158015612a1a573d6000803e3d6000fd5b505050506040513d601f19601f82011682018060405250810190612a3e9190613d52565b90508198508560ff168b019a506000612a5b868860ff1684612dd6565b90508a612a685780612a77565b60008b81526020829052604090205b9a508299505050505050505050506120eb565b6040517fb2505f7c0000000000000000000000000000000000000000000000000000000081526004810182905260240161057b565b5094509492505050565b6000811580159061053e5750507fea7157fa25e3aa17d0ae2d5280fa4e24d421c61842aa85e45194e1145aa72bf8541490565b6000606060005b8351811015612b705781848281518110612b1f57612b1f613b6f565b6020026020010151604051602001612b38929190613d6b565b604080517fffffffffffffffffffffffffffffffffffffffffffffffffffffffffffffffe08184030181529190529150600101612b03565b50805160209091012092915050565b6000606060005b8351811015612b70576000612bb3858381518110612ba657612ba6613b6f565b6020026020010151612e44565b90508281604051602001612bc8929190613da3565b604080517fffffffffffffffffffffffffffffffffffffffffffffffffffffffffffffffe0818403018152919052925050600101612b86565b6040517f53657175656e6365207369676e65723a0a00000000000000000000000000000060208201527fffffffffffffffffffffffffffffffffffffffff000000000000000000000000606084901b16603182015260458101829052600090606501611c25565b6040517f53657175656e6365206e657374656420636f6e6669673a0a000000000000000060208201526038810184905260588101839052607881018290526000906098015b6040516020818303038152906040528051906020012090509392505050565b6040517f53657175656e636520737461746963206469676573743a0a00000000000000006020820152603881018290526000906058015b604051602081830303815290604052805190602001209050919050565b600080612d31846020015184611b76565b90506000612d3e85611c43565b6040517f190100000000000000000000000000000000000000000000000000000000000060208201526022810184905260428101829052909150606201604051602081830303815290604052805190602001209250505092915050565b604080517f53657175656e636520616e792061646472657373207375626469676573743a0a6020820152908101829052600090606001612d03565b6040517f53657175656e63652073617069656e7420636f6e6669673a0a0000000000000060208201527fffffffffffffffffffffffffffffffffffffffff000000000000000000000000606085901b166039820152604d8101839052606d8101829052600090608d01612cad565b60007f0603985259a953da1f65a522f589c17bd1d0117ec1d3abb7c0788aef251ef43782600001518360200151846040015180519060200120856060015186608001518760a001518860c00151604051602001612d0398979695949392919097885273ffffffffffffffffffffffffffffffffffffffff969096166020880152604087019490945260608601929092526080850152151560a0840152151560c083015260e08201526101000190565b80357fffffffff000000000000000000000000000000000000000000000000000000008116906004841015612f52577fffffffff00000000000000000000000000000000000000000000000000000000808560040360031b1b82161691505b5092915050565b8183823760009101908152919050565b803573ffffffffffffffffffffffffffffffffffffffff81168114612f8d57600080fd5b919050565b600060208284031215612fa457600080fd5b61062182612f69565b60008083601f840112612fbf57600080fd5b50813567ffffffffffffffff811115612fd757600080fd5b602083019150836020828501011115612fef57600080fd5b9250929050565b60008060008060006080868803121561300e57600080fd5b61301786612f69565b945061302560208701612f69565b935060408601359250606086013567ffffffffffffffff81111561304857600080fd5b61305488828901612fad565b969995985093965092949392505050565b60008060006040848603121561307a57600080fd5b83359250602084013567ffffffffffffffff81111561309857600080fd5b6130a486828701612fad565b9497909650939450505050565b7fffffffff000000000000000000000000000000000000000000000000000000008116811461058d57600080fd5b6000602082840312156130f157600080fd5b8135610621816130b1565b6000806000806040858703121561311257600080fd5b843567ffffffffffffffff81111561312957600080fd5b61313587828801612fad565b909550935050602085013567ffffffffffffffff81111561315557600080fd5b61316187828801612fad565b95989497509550505050565b60006020828403121561317f57600080fd5b5035919050565b6000806020838503121561319957600080fd5b823567ffffffffffffffff8111156131b057600080fd5b6131bc85828601612fad565b90969095509350505050565b600080600080606085870312156131de57600080fd5b6131e785612f69565b935060208501359250604085013567ffffffffffffffff81111561315557600080fd5b7f4e487b7100000000000000000000000000000000000000000000000000000000600052604160045260246000fd5b60405160e0810167ffffffffffffffff8111828210171561325c5761325c61320a565b60405290565b604051610120810167ffffffffffffffff8111828210171561325c5761325c61320a565b604051601f82017fffffffffffffffffffffffffffffffffffffffffffffffffffffffffffffffe016810167ffffffffffffffff811182821017156132cd576132cd61320a565b604052919050565b803560ff81168114612f8d57600080fd5b80358015158114612f8d57600080fd5b600067ffffffffffffffff8211156133105761331061320a565b5060051b60200190565b600082601f83011261332b57600080fd5b813567ffffffffffffffff8111156133455761334561320a565b61337660207fffffffffffffffffffffffffffffffffffffffffffffffffffffffffffffffe0601f84011601613286565b81815284602083860101111561338b57600080fd5b816020850160208301376000918101602001919091529392505050565b600082601f8301126133b957600080fd5b81356133cc6133c7826132f6565b613286565b8082825260208201915060208360051b8601019250858311156133ee57600080fd5b602085015b838110156134db57803567ffffffffffffffff81111561341257600080fd5b860160e08189037fffffffffffffffffffffffffffffffffffffffffffffffffffffffffffffffe001121561344657600080fd5b61344e613239565b61345a60208301612f69565b815260408201356020820152606082013567ffffffffffffffff81111561348057600080fd5b61348f8a60208386010161331a565b604083015250608082013560608201526134ab60a083016132e6565b60808201526134bc60c083016132e6565b60a082015260e0919091013560c08201528352602092830192016133f3565b5095945050505050565b600082601f8301126134f657600080fd5b81356135046133c7826132f6565b8082825260208201915060208360051b86010192508583111561352657600080fd5b602085015b838110156134db5761353c81612f69565b83526020928301920161352b565b60008060006040848603121561355f57600080fd5b833567ffffffffffffffff81111561357657600080fd5b8401610120818703121561358957600080fd5b613591613262565b61359a826132d5565b81526135a8602083016132e6565b6020820152604082013567ffffffffffffffff8111156135c757600080fd5b6135d3888285016133a8565b604083015250606082810135908201526080808301359082015260a082013567ffffffffffffffff81111561360757600080fd5b6136138882850161331a565b60a08301525060c0828101359082015260e0808301359082015261010082013567ffffffffffffffff81111561364857600080fd5b613654888285016134e5565b61010083015250935050602084013567ffffffffffffffff81111561309857600080fd5b6000806040838503121561368b57600080fd5b8235613696816130b1565b91506136a460208401612f69565b90509250929050565b60008083601f8401126136bf57600080fd5b50813567ffffffffffffffff8111156136d757600080fd5b6020830191508360208260051b8501011115612fef57600080fd5b60008060008060008060008060a0898b03121561370e57600080fd5b61371789612f69565b975061372560208a01612f69565b9650604089013567ffffffffffffffff81111561374157600080fd5b61374d8b828c016136ad565b909750955050606089013567ffffffffffffffff81111561376d57600080fd5b6137798b828c016136ad565b909550935050608089013567ffffffffffffffff81111561379957600080fd5b6137a58b828c01612fad565b999c989b5096995094979396929594505050565b60008060008060008060a087890312156137d257600080fd5b6137db87612f69565b95506137e960208801612f69565b94506040870135935060608701359250608087013567ffffffffffffffff81111561381357600080fd5b61381f89828a01612fad565b979a9699509497509295939492505050565b60008060006060848603121561384657600080fd5b8335925061385660208501612f69565b915060408401356bffffffffffffffffffffffff8116811461387757600080fd5b809150509250925092565b60005b8381101561389d578181015183820152602001613885565b50506000910152565b600081518084526138be816020860160208601613882565b601f017fffffffffffffffffffffffffffffffffffffffffffffffffffffffffffffffe0169290920160200192915050565b600082825180855260208501945060208160051b8301016020850160005b838110156139c0577fffffffffffffffffffffffffffffffffffffffffffffffffffffffffffffffe0858403018852815173ffffffffffffffffffffffffffffffffffffffff815116845260208101516020850152604081015160e0604086015261397c60e08601826138a6565b6060838101519087015260808084015115159087015260a08084015115159087015260c092830151929095019190915250602097880197919091019060010161390e565b50909695505050505050565b600081518084526020840193506020830160005b82811015613a1457815173ffffffffffffffffffffffffffffffffffffffff168652602095860195909101906001016139e0565b5093949350505050565b805160ff16825260006020820151613a3a602085018215159052565b5060408201516101206040850152613a566101208501826138f0565b9050606083015160608501526080830151608085015260a083015184820360a0860152613a8382826138a6565b91505060c083015160c085015260e083015160e0850152610100830151848203610100860152613ab382826139cc565b95945050505050565b8183528181602085013750600060208284010152600060207fffffffffffffffffffffffffffffffffffffffffffffffffffffffffffffffe0601f840116840101905092915050565b604081526000613b186040830186613a1e565b8281036020840152613b2b818587613abc565b9695505050505050565b8082018082111561053e577f4e487b7100000000000000000000000000000000000000000000000000000000600052601160045260246000fd5b7f4e487b7100000000000000000000000000000000000000000000000000000000600052603260045260246000fd5b60008085851115613bae57600080fd5b83861115613bbb57600080fd5b5050820193919092039150565b606081526000613bdb6060830186613a1e565b60208301949094525060400152919050565b606081526000613c006060830186613a1e565b8460208401528281036040840152613b2b81856138a6565b73ffffffffffffffffffffffffffffffffffffffff83168152604060208201526000613c4760408301846138a6565b949350505050565b60006040828403128015613c6257600080fd5b506040805190810167ffffffffffffffff81118282101715613c8657613c8661320a565b604052825181526020928301519281019290925250919050565b606081526000613cb4606083018688613abc565b6020830194909452506040015292915050565b838152604060208201526000613ab3604083018486613abc565b600060208284031215613cf357600080fd5b8151610621816130b1565b608081526000613d116080830188613a1e565b86602084015273ffffffffffffffffffffffffffffffffffffffff861660408401528281036060840152613d46818587613abc565b98975050505050505050565b600060208284031215613d6457600080fd5b5051919050565b604081526000613d7e60408301856138a6565b905073ffffffffffffffffffffffffffffffffffffffff831660208301529392505050565b60008351613db5818460208801613882565b919091019182525060200191905056fea2646970667358221220d848326e4e66fb22c457a5b8f4766a6334ac108eaf8887b57897181cb212b38f64736f6c634300081b0033603e600e3d39601e805130553df33d3d34601c57363d3d373d363d30545af43d82803e903d91601c57fd5bf3",
  "linkReferences": {},
  "deployedLinkReferences": {}
}