{
  "_format": "hh-sol-artifact-1",
  "contractName": "Stage2Simulator",
  "sourceName": "src/Stage2Simulator.sol",
  "abi": [
    {
      "inputs": [
        {
          "internalType": "uint256",
          "name": "_space",
          "type": "uint256"
        },
        {
          "internalType": "uint256",
          "name": "_provided",
          "type": "uint256"
        },
        {
          "internalType": "uint256",
          "name": "_current",
          "type": "uint256"
        }
      ],
      "name": "BadNonce",
      "type": "error"
    },
    {
      "inputs": [
        {
          "internalType": "bytes4",
          "name": "signature",
          "type": "bytes4"
        }
      ],
      "name": "HookAlreadyExists",
      "type": "error"
    },
    {
      "inputs": [
        {
          "internalType": "bytes4",
          "name": "signature",
          "type": "bytes4"
        }
      ],
      "name": "HookDoesNotExist",
      "type": "error"
    },
    {
      "inputs": [],
      "name": "ImageHashIsZero",
      "type": "error"
    },
    {
      "inputs": [
        {
          "components": [
            {
              "internalType": "uint8",
              "name": "kind",
              "type": "uint8"
            },
            {
              "internalType": "bool",
              "name": "noChainId",
              "type": "bool"
            },
            {
              "components": [
                {
                  "internalType": "address",
                  "name": "to",
                  "type": "address"
                },
                {
                  "internalType": "uint256",
                  "name": "value",
                  "type": "uint256"
                },
                {
                  "internalType": "bytes",
                  "name": "data",
                  "type": "bytes"
                },
                {
                  "internalType": "uint256",
                  "name": "gasLimit",
                  "type": "uint256"
                },
                {
                  "internalType": "bool",
                  "name": "delegateCall",
                  "type": "bool"
                },
                {
                  "internalType": "bool",
                  "name": "onlyFallback",
                  "type": "bool"
                },
                {
                  "internalType": "uint256",
                  "name": "behaviorOnError",
                  "type": "uint256"
                }
              ],
              "internalType": "struct Payload.Call[]",
              "name": "calls",
              "type": "tuple[]"
            },
            {
              "internalType": "uint256",
              "name": "space",
              "type": "uint256"
            },
            {
              "internalType": "uint256",
              "name": "nonce",
              "type": "uint256"
            },
            {
              "internalType": "bytes",
              "name": "message",
              "type": "bytes"
            },
            {
              "internalType": "bytes32",
              "name": "imageHash",
              "type": "bytes32"
            },
            {
              "internalType": "bytes32",
              "name": "digest",
              "type": "bytes32"
            },
            {
              "internalType": "address[]",
              "name": "parentWallets",
              "type": "address[]"
            }
          ],
          "internalType": "struct Payload.Decoded",
          "name": "_payload",
          "type": "tuple"
        },
        {
          "internalType": "bytes32",
          "name": "_subdigest",
          "type": "bytes32"
        },
        {
          "internalType": "address",
          "name": "_signer",
          "type": "address"
        },
        {
          "internalType": "bytes",
          "name": "_signature",
          "type": "bytes"
        }
      ],
      "name": "InvalidNestedSignature",
      "type": "error"
    },
    {
      "inputs": [
        {
          "components": [
            {
              "internalType": "uint8",
              "name": "kind",
              "type": "uint8"
            },
            {
              "internalType": "bool",
              "name": "noChainId",
              "type": "bool"
            },
            {
              "components": [
                {
                  "internalType": "address",
                  "name": "to",
                  "type": "address"
                },
                {
                  "internalType": "uint256",
                  "name": "value",
                  "type": "uint256"
                },
                {
                  "internalType": "bytes",
                  "name": "data",
                  "type": "bytes"
                },
                {
                  "internalType": "uint256",
                  "name": "gasLimit",
                  "type": "uint256"
                },
                {
                  "internalType": "bool",
                  "name": "delegateCall",
                  "type": "bool"
                },
                {
                  "internalType": "bool",
                  "name": "onlyFallback",
                  "type": "bool"
                },
                {
                  "internalType": "uint256",
                  "name": "behaviorOnError",
                  "type": "uint256"
                }
              ],
              "internalType": "struct Payload.Call[]",
              "name": "calls",
              "type": "tuple[]"
            },
            {
              "internalType": "uint256",
              "name": "space",
              "type": "uint256"
            },
            {
              "internalType": "uint256",
              "name": "nonce",
              "type": "uint256"
            },
            {
              "internalType": "bytes",
              "name": "message",
              "type": "bytes"
            },
            {
              "internalType": "bytes32",
              "name": "imageHash",
              "type": "bytes32"
            },
            {
              "internalType": "bytes32",
              "name": "digest",
              "type": "bytes32"
            },
            {
              "internalType": "address[]",
              "name": "parentWallets",
              "type": "address[]"
            }
          ],
          "internalType": "struct Payload.Decoded",
          "name": "_payload",
          "type": "tuple"
        },
        {
          "internalType": "bytes",
          "name": "_signature",
          "type": "bytes"
        }
      ],
      "name": "InvalidSapientSignature",
      "type": "error"
    },
    {
      "inputs": [
        {
          "components": [
            {
              "internalType": "uint8",
              "name": "kind",
              "type": "uint8"
            },
            {
              "internalType": "bool",
              "name": "noChainId",
              "type": "bool"
            },
            {
              "components": [
                {
                  "internalType": "address",
                  "name": "to",
                  "type": "address"
                },
                {
                  "internalType": "uint256",
                  "name": "value",
                  "type": "uint256"
                },
                {
                  "internalType": "bytes",
                  "name": "data",
                  "type": "bytes"
                },
                {
                  "internalType": "uint256",
                  "name": "gasLimit",
                  "type": "uint256"
                },
                {
                  "internalType": "bool",
                  "name": "delegateCall",
                  "type": "bool"
                },
                {
                  "internalType": "bool",
                  "name": "onlyFallback",
                  "type": "bool"
                },
                {
                  "internalType": "uint256",
                  "name": "behaviorOnError",
                  "type": "uint256"
                }
              ],
              "internalType": "struct Payload.Call[]",
              "name": "calls",
              "type": "tuple[]"
            },
            {
              "internalType": "uint256",
              "name": "space",
              "type": "uint256"
            },
            {
              "internalType": "uint256",
              "name": "nonce",
              "type": "uint256"
            },
            {
              "internalType": "bytes",
              "name": "message",
              "type": "bytes"
            },
            {
              "internalType": "bytes32",
              "name": "imageHash",
              "type": "bytes32"
            },
            {
              "internalType": "bytes32",
              "name": "digest",
              "type": "bytes32"
            },
            {
              "internalType": "address[]",
              "name": "parentWallets",
              "type": "address[]"
            }
          ],
          "internalType": "struct Payload.Decoded",
          "name": "_payload",
          "type": "tuple"
        },
        {
          "internalType": "bytes",
          "name": "_signature",
          "type": "bytes"
        }
      ],
      "name": "InvalidSignature",
      "type": "error"
    },
    {
      "inputs": [
        {
          "internalType": "uint256",
          "name": "_flag",
          "type": "uint256"
        }
      ],
      "name": "InvalidSignatureFlag",
      "type": "error"
    },
    {
      "inputs": [
        {
          "internalType": "bytes32",
          "name": "_opHash",
          "type": "bytes32"
        },
        {
          "internalType": "uint256",
          "name": "_expires",
          "type": "uint256"
        }
      ],
      "name": "InvalidStaticSignature",
      "type": "error"
    },
    {
      "inputs": [
        {
          "internalType": "bytes",
          "name": "_signature",
          "type": "bytes"
        },
        {
          "internalType": "uint256",
          "name": "_threshold",
          "type": "uint256"
        },
        {
          "internalType": "uint256",
          "name": "_weight",
          "type": "uint256"
        }
      ],
      "name": "LowWeightChainedSignature",
      "type": "error"
    },
    {
      "inputs": [
        {
          "components": [
            {
              "internalType": "uint8",
              "name": "kind",
              "type": "uint8"
            },
            {
              "internalType": "bool",
              "name": "noChainId",
              "type": "bool"
            },
            {
              "components": [
                {
                  "internalType": "address",
                  "name": "to",
                  "type": "address"
                },
                {
                  "internalType": "uint256",
                  "name": "value",
                  "type": "uint256"
                },
                {
                  "internalType": "bytes",
                  "name": "data",
                  "type": "bytes"
                },
                {
                  "internalType": "uint256",
                  "name": "gasLimit",
                  "type": "uint256"
                },
                {
                  "internalType": "bool",
                  "name": "delegateCall",
                  "type": "bool"
                },
                {
                  "internalType": "bool",
                  "name": "onlyFallback",
                  "type": "bool"
                },
                {
                  "internalType": "uint256",
                  "name": "behaviorOnError",
                  "type": "uint256"
                }
              ],
              "internalType": "struct Payload.Call[]",
              "name": "calls",
              "type": "tuple[]"
            },
            {
              "internalType": "uint256",
              "name": "space",
              "type": "uint256"
            },
            {
              "internalType": "uint256",
              "name": "nonce",
              "type": "uint256"
            },
            {
              "internalType": "bytes",
              "name": "message",
              "type": "bytes"
            },
            {
              "internalType": "bytes32",
              "name": "imageHash",
              "type": "bytes32"
            },
            {
              "internalType": "bytes32",
              "name": "digest",
              "type": "bytes32"
            },
            {
              "internalType": "address[]",
              "name": "parentWallets",
              "type": "address[]"
            }
          ],
          "internalType": "struct Payload.Decoded",
          "name": "_payload",
          "type": "tuple"
        },
        {
          "internalType": "uint256",
          "name": "_index",
          "type": "uint256"
        },
        {
          "internalType": "uint256",
          "name": "_gasLeft",
          "type": "uint256"
        }
      ],
      "name": "NotEnoughGas",
      "type": "error"
    },
    {
      "inputs": [
        {
          "internalType": "address",
          "name": "_sender",
          "type": "address"
        }
      ],
      "name": "OnlySelf",
      "type": "error"
    },
    {
      "inputs": [
        {
          "components": [
            {
              "internalType": "uint8",
              "name": "kind",
              "type": "uint8"
            },
            {
              "internalType": "bool",
              "name": "noChainId",
              "type": "bool"
            },
            {
              "components": [
                {
                  "internalType": "address",
                  "name": "to",
                  "type": "address"
                },
                {
                  "internalType": "uint256",
                  "name": "value",
                  "type": "uint256"
                },
                {
                  "internalType": "bytes",
                  "name": "data",
                  "type": "bytes"
                },
                {
                  "internalType": "uint256",
                  "name": "gasLimit",
                  "type": "uint256"
                },
                {
                  "internalType": "bool",
                  "name": "delegateCall",
                  "type": "bool"
                },
                {
                  "internalType": "bool",
                  "name": "onlyFallback",
                  "type": "bool"
                },
                {
                  "internalType": "uint256",
                  "name": "behaviorOnError",
                  "type": "uint256"
                }
              ],
              "internalType": "struct Payload.Call[]",
              "name": "calls",
              "type": "tuple[]"
            },
            {
              "internalType": "uint256",
              "name": "space",
              "type": "uint256"
            },
            {
              "internalType": "uint256",
              "name": "nonce",
              "type": "uint256"
            },
            {
              "internalType": "bytes",
              "name": "message",
              "type": "bytes"
            },
            {
              "internalType": "bytes32",
              "name": "imageHash",
              "type": "bytes32"
            },
            {
              "internalType": "bytes32",
              "name": "digest",
              "type": "bytes32"
            },
            {
              "internalType": "address[]",
              "name": "parentWallets",
              "type": "address[]"
            }
          ],
          "internalType": "struct Payload.Decoded",
          "name": "_payload",
          "type": "tuple"
        },
        {
          "internalType": "uint256",
          "name": "_index",
          "type": "uint256"
        },
        {
          "internalType": "bytes",
          "name": "_returnData",
          "type": "bytes"
        }
      ],
      "name": "Reverted",
      "type": "error"
    },
    {
      "inputs": [
        {
          "components": [
            {
              "internalType": "bytes32",
              "name": "imageHash",
              "type": "bytes32"
            },
            {
              "internalType": "uint256",
              "name": "checkpoint",
              "type": "uint256"
            }
          ],
          "internalType": "struct Snapshot",
          "name": "_snapshot",
          "type": "tuple"
        }
      ],
      "name": "UnusedSnapshot",
      "type": "error"
    },
    {
      "inputs": [
        {
          "internalType": "uint256",
          "name": "_nextCheckpoint",
          "type": "uint256"
        },
        {
          "internalType": "uint256",
          "name": "_checkpoint",
          "type": "uint256"
        }
      ],
      "name": "WrongChainedCheckpointOrder",
      "type": "error"
    },
    {
      "anonymous": false,
      "inputs": [
        {
          "indexed": false,
          "internalType": "bytes32",
          "name": "_opHash",
          "type": "bytes32"
        },
        {
          "indexed": false,
          "internalType": "uint256",
          "name": "_index",
          "type": "uint256"
        }
      ],
      "name": "CallAborted",
      "type": "event"
    },
    {
      "anonymous": false,
      "inputs": [
        {
          "indexed": false,
          "internalType": "bytes32",
          "name": "_opHash",
          "type": "bytes32"
        },
        {
          "indexed": false,
          "internalType": "uint256",
          "name": "_index",
          "type": "uint256"
        }
      ],
      "name": "CallFailed",
      "type": "event"
    },
    {
      "anonymous": false,
      "inputs": [
        {
          "indexed": false,
          "internalType": "bytes32",
          "name": "_opHash",
          "type": "bytes32"
        },
        {
          "indexed": false,
          "internalType": "uint256",
          "name": "_index",
          "type": "uint256"
        }
      ],
      "name": "CallSkipped",
      "type": "event"
    },
    {
      "anonymous": false,
      "inputs": [
        {
          "indexed": false,
          "internalType": "bytes32",
          "name": "_opHash",
          "type": "bytes32"
        },
        {
          "indexed": false,
          "internalType": "uint256",
          "name": "_index",
          "type": "uint256"
        }
      ],
      "name": "CallSuccess",
      "type": "event"
    },
    {
      "anonymous": false,
      "inputs": [
        {
          "indexed": false,
          "internalType": "bytes4",
          "name": "signature",
          "type": "bytes4"
        },
        {
          "indexed": false,
          "internalType": "address",
          "name": "implementation",
          "type": "address"
        }
      ],
      "name": "DefinedHook",
      "type": "event"
    },
    {
      "anonymous": false,
      "inputs": [
        {
          "indexed": false,
          "internalType": "bytes32",
          "name": "newImageHash",
          "type": "bytes32"
        }
      ],
      "name": "ImageHashUpdated",
      "type": "event"
    },
    {
      "anonymous": false,
      "inputs": [
        {
          "indexed": false,
          "internalType": "address",
          "name": "newImplementation",
          "type": "address"
        }
      ],
      "name": "ImplementationUpdated",
      "type": "event"
    },
    {
      "anonymous": false,
      "inputs": [
        {
          "indexed": false,
          "internalType": "uint256",
          "name": "_space",
          "type": "uint256"
        },
        {
          "indexed": false,
          "internalType": "uint256",
          "name": "_newNonce",
          "type": "uint256"
        }
      ],
      "name": "NonceChange",
      "type": "event"
    },
    {
      "anonymous": false,
      "inputs": [
        {
          "indexed": false,
          "internalType": "bytes32",
          "name": "_hash",
          "type": "bytes32"
        },
        {
          "indexed": false,
          "internalType": "address",
          "name": "_address",
          "type": "address"
        },
        {
          "indexed": false,
          "internalType": "uint96",
          "name": "_timestamp",
          "type": "uint96"
        }
      ],
      "name": "StaticSignatureSet",
      "type": "event"
    },
    {
      "stateMutability": "payable",
      "type": "fallback"
    },
    {
      "inputs": [
        {
          "internalType": "bytes4",
          "name": "signature",
          "type": "bytes4"
        },
        {
          "internalType": "address",
          "name": "implementation",
          "type": "address"
        }
      ],
      "name": "addHook",
      "outputs": [],
      "stateMutability": "payable",
      "type": "function"
    },
    {
      "inputs": [
        {
          "internalType": "bytes",
          "name": "_payload",
          "type": "bytes"
        },
        {
          "internalType": "bytes",
          "name": "_signature",
          "type": "bytes"
        }
      ],
      "name": "execute",
      "outputs": [],
      "stateMutability": "payable",
      "type": "function"
    },
    {
      "inputs": [],
      "name": "getImplementation",
      "outputs": [
        {
          "internalType": "address",
          "name": "",
          "type": "address"
        }
      ],
      "stateMutability": "view",
      "type": "function"
    },
    {
      "inputs": [],
      "name": "imageHash",
      "outputs": [
        {
          "internalType": "bytes32",
          "name": "",
          "type": "bytes32"
        }
      ],
      "stateMutability": "view",
      "type": "function"
    },
    {
      "inputs": [
        {
          "components": [
            {
              "internalType": "uint8",
              "name": "kind",
              "type": "uint8"
            },
            {
              "internalType": "bool",
              "name": "noChainId",
              "type": "bool"
            },
            {
              "components": [
                {
                  "internalType": "address",
                  "name": "to",
                  "type": "address"
                },
                {
                  "internalType": "uint256",
                  "name": "value",
                  "type": "uint256"
                },
                {
                  "internalType": "bytes",
                  "name": "data",
                  "type": "bytes"
                },
                {
                  "internalType": "uint256",
                  "name": "gasLimit",
                  "type": "uint256"
                },
                {
                  "internalType": "bool",
                  "name": "delegateCall",
                  "type": "bool"
                },
                {
                  "internalType": "bool",
                  "name": "onlyFallback",
                  "type": "bool"
                },
                {
                  "internalType": "uint256",
                  "name": "behaviorOnError",
                  "type": "uint256"
                }
              ],
              "internalType": "struct Payload.Call[]",
              "name": "calls",
              "type": "tuple[]"
            },
            {
              "internalType": "uint256",
              "name": "space",
              "type": "uint256"
            },
            {
              "internalType": "uint256",
              "name": "nonce",
              "type": "uint256"
            },
            {
              "internalType": "bytes",
              "name": "message",
              "type": "bytes"
            },
            {
              "internalType": "bytes32",
              "name": "imageHash",
              "type": "bytes32"
            },
            {
              "internalType": "bytes32",
              "name": "digest",
              "type": "bytes32"
            },
            {
              "internalType": "address[]",
              "name": "parentWallets",
              "type": "address[]"
            }
          ],
          "internalType": "struct Payload.Decoded",
          "name": "_payload",
          "type": "tuple"
        },
        {
          "internalType": "bytes",
          "name": "_signature",
          "type": "bytes"
        }
      ],
      "name": "isValidSapientSignature",
      "outputs": [
        {
          "internalType": "bytes32",
          "name": "",
          "type": "bytes32"
        }
      ],
      "stateMutability": "view",
      "type": "function"
    },
    {
      "inputs": [
        {
          "internalType": "bytes32",
          "name": "_hash",
          "type": "bytes32"
        },
        {
          "internalType": "bytes",
          "name": "_signature",
          "type": "bytes"
        }
      ],
      "name": "isValidSignature",
      "outputs": [
        {
          "internalType": "bytes4",
          "name": "",
          "type": "bytes4"
        }
      ],
      "stateMutability": "view",
      "type": "function"
    },
    {
      "inputs": [
        {
          "internalType": "address",
          "name": "",
          "type": "address"
        },
        {
          "internalType": "address",
          "name": "",
          "type": "address"
        },
        {
          "internalType": "uint256[]",
          "name": "",
          "type": "uint256[]"
        },
        {
          "internalType": "uint256[]",
          "name": "",
          "type": "uint256[]"
        },
        {
          "internalType": "bytes",
          "name": "",
          "type": "bytes"
        }
      ],
      "name": "onERC1155BatchReceived",
      "outputs": [
        {
          "internalType": "bytes4",
          "name": "",
          "type": "bytes4"
        }
      ],
      "stateMutability": "pure",
      "type": "function"
    },
    {
      "inputs": [
        {
          "internalType": "address",
          "name": "",
          "type": "address"
        },
        {
          "internalType": "address",
          "name": "",
          "type": "address"
        },
        {
          "internalType": "uint256",
          "name": "",
          "type": "uint256"
        },
        {
          "internalType": "uint256",
          "name": "",
          "type": "uint256"
        },
        {
          "internalType": "bytes",
          "name": "",
          "type": "bytes"
        }
      ],
      "name": "onERC1155Received",
      "outputs": [
        {
          "internalType": "bytes4",
          "name": "",
          "type": "bytes4"
        }
      ],
      "stateMutability": "pure",
      "type": "function"
    },
    {
      "inputs": [
        {
          "internalType": "address",
          "name": "",
          "type": "address"
        },
        {
          "internalType": "address",
          "name": "",
          "type": "address"
        },
        {
          "internalType": "uint256",
          "name": "",
          "type": "uint256"
        },
        {
          "internalType": "bytes",
          "name": "",
          "type": "bytes"
        }
      ],
      "name": "onERC721Received",
      "outputs": [
        {
          "internalType": "bytes4",
          "name": "",
          "type": "bytes4"
        }
      ],
      "stateMutability": "pure",
      "type": "function"
    },
    {
      "inputs": [
        {
          "internalType": "bytes4",
          "name": "signature",
          "type": "bytes4"
        }
      ],
      "name": "readHook",
      "outputs": [
        {
          "internalType": "address",
          "name": "",
          "type": "address"
        }
      ],
      "stateMutability": "view",
      "type": "function"
    },
    {
      "inputs": [
        {
          "internalType": "uint256",
          "name": "_space",
          "type": "uint256"
        }
      ],
      "name": "readNonce",
      "outputs": [
        {
          "internalType": "uint256",
          "name": "",
          "type": "uint256"
        }
      ],
      "stateMutability": "view",
      "type": "function"
    },
    {
      "inputs": [
        {
          "components": [
            {
              "internalType": "uint8",
              "name": "kind",
              "type": "uint8"
            },
            {
              "internalType": "bool",
              "name": "noChainId",
              "type": "bool"
            },
            {
              "components": [
                {
                  "internalType": "address",
                  "name": "to",
                  "type": "address"
                },
                {
                  "internalType": "uint256",
                  "name": "value",
                  "type": "uint256"
                },
                {
                  "internalType": "bytes",
                  "name": "data",
                  "type": "bytes"
                },
                {
                  "internalType": "uint256",
                  "name": "gasLimit",
                  "type": "uint256"
                },
                {
                  "internalType": "bool",
                  "name": "delegateCall",
                  "type": "bool"
                },
                {
                  "internalType": "bool",
                  "name": "onlyFallback",
                  "type": "bool"
                },
                {
                  "internalType": "uint256",
                  "name": "behaviorOnError",
                  "type": "uint256"
                }
              ],
              "internalType": "struct Payload.Call[]",
              "name": "calls",
              "type": "tuple[]"
            },
            {
              "internalType": "uint256",
              "name": "space",
              "type": "uint256"
            },
            {
              "internalType": "uint256",
              "name": "nonce",
              "type": "uint256"
            },
            {
              "internalType": "bytes",
              "name": "message",
              "type": "bytes"
            },
            {
              "internalType": "bytes32",
              "name": "imageHash",
              "type": "bytes32"
            },
            {
              "internalType": "bytes32",
              "name": "digest",
              "type": "bytes32"
            },
            {
              "internalType": "address[]",
              "name": "parentWallets",
              "type": "address[]"
            }
          ],
          "internalType": "struct Payload.Decoded",
          "name": "_payload",
          "type": "tuple"
        },
        {
          "internalType": "bytes",
          "name": "_signature",
          "type": "bytes"
        }
      ],
      "name": "recoverPartialSignature",
      "outputs": [
        {
          "internalType": "uint256",
          "name": "threshold",
          "type": "uint256"
        },
        {
          "internalType": "uint256",
          "name": "weight",
          "type": "uint256"
        },
        {
          "internalType": "bool",
          "name": "isValidImage",
          "type": "bool"
        },
        {
          "internalType": "bytes32",
          "name": "imageHash",
          "type": "bytes32"
        },
        {
          "internalType": "uint256",
          "name": "checkpoint",
          "type": "uint256"
        },
        {
          "internalType": "bytes32",
          "name": "opHash",
          "type": "bytes32"
        }
      ],
      "stateMutability": "view",
      "type": "function"
    },
    {
      "inputs": [
        {
          "internalType": "bytes4",
          "name": "signature",
          "type": "bytes4"
        }
      ],
      "name": "removeHook",
      "outputs": [],
      "stateMutability": "payable",
      "type": "function"
    },
    {
      "inputs": [
        {
          "internalType": "bytes",
          "name": "_payload",
          "type": "bytes"
        }
      ],
      "name": "selfExecute",
      "outputs": [],
      "stateMutability": "payable",
      "type": "function"
    },
    {
      "inputs": [
        {
          "internalType": "bytes32",
          "name": "_hash",
          "type": "bytes32"
        },
        {
          "internalType": "address",
          "name": "_address",
          "type": "address"
        },
        {
          "internalType": "uint96",
          "name": "_timestamp",
          "type": "uint96"
        }
      ],
      "name": "setStaticSignature",
      "outputs": [],
      "stateMutability": "nonpayable",
      "type": "function"
    },
    {
      "inputs": [
        {
          "internalType": "bytes",
          "name": "_payload",
          "type": "bytes"
        },
        {
          "internalType": "bytes",
          "name": "_signature",
          "type": "bytes"
        }
      ],
      "name": "simulate",
      "outputs": [
        {
          "components": [
            {
              "internalType": "enum Simulator.Status",
              "name": "status",
              "type": "uint8"
            },
            {
              "internalType": "bytes",
              "name": "result",
              "type": "bytes"
            },
            {
              "internalType": "uint256",
              "name": "gasUsed",
              "type": "uint256"
            }
          ],
          "internalType": "struct Simulator.Result[]",
          "name": "results",
          "type": "tuple[]"
        }
      ],
      "stateMutability": "payable",
      "type": "function"
    },
    {
      "inputs": [
        {
          "internalType": "address",
          "name": "",
          "type": "address"
        },
        {
          "internalType": "uint256",
          "name": "",
          "type": "uint256"
        },
        {
          "internalType": "bytes",
          "name": "",
          "type": "bytes"
        }
      ],
      "name": "tokenReceived",
      "outputs": [],
      "stateMutability": "nonpayable",
      "type": "function"
    },
    {
      "inputs": [
        {
          "internalType": "bytes32",
          "name": "_imageHash",
          "type": "bytes32"
        }
      ],
      "name": "updateImageHash",
      "outputs": [],
      "stateMutability": "nonpayable",
      "type": "function"
    },
    {
      "inputs": [
        {
          "internalType": "address",
          "name": "_implementation",
          "type": "address"
        }
      ],
      "name": "updateImplementation",
      "outputs": [],
      "stateMutability": "payable",
      "type": "function"
    },
    {
      "stateMutability": "payable",
      "type": "receive"
    }
  ],
  "bytecode": "0x6080604052348015600f57600080fd5b5061450b8061001f6000396000f3fe6080604052600436106101485760003560e01c80636ea44577116100c0578063b93ea7ad11610074578063ca70785011610059578063ca707850146104a5578063f23a6e61146104c5578063f727ef1c1461050b5761014f565b8063b93ea7ad1461044a578063bc197c811461045d5761014f565b80638c3f5563116100a55780638c3f5563146103c2578063aaf10f42146103e2578063ad55366b146103f75761014f565b80636ea445771461038e5780638943ec02146103a15761014f565b80631f6a1eb9116101175780634fcf3eca116100fc5780634fcf3eca1461033857806351605d801461034b5780636406c3141461036e5761014f565b80631f6a1eb91461030557806329561426146103185761014f565b8063025b22bc14610212578063150b7a02146102255780631626ba7e146102a05780631a9b2337146102c05761014f565b3661014f57005b6004361061021057600061016b61016636836134db565b61052b565b905073ffffffffffffffffffffffffffffffffffffffff81161561020e576000808273ffffffffffffffffffffffffffffffffffffffff166000366040516101b4929190613541565b600060405180830381855af49150503d80600081146101ef576040519150601f19603f3d011682016040523d82523d6000602084013e6101f4565b606091505b50915091508161020657805160208201fd5b805160208201f35b505b005b61021061022036600461357a565b61057f565b34801561023157600080fd5b5061026a6102403660046135de565b7f150b7a020000000000000000000000000000000000000000000000000000000095945050505050565b6040517fffffffff0000000000000000000000000000000000000000000000000000000090911681526020015b60405180910390f35b3480156102ac57600080fd5b5061026a6102bb36600461364d565b6105cb565b3480156102cc57600080fd5b506102e06102db3660046136c7565b610663565b60405173ffffffffffffffffffffffffffffffffffffffff9091168152602001610297565b6102106103133660046136e4565b61066e565b34801561032457600080fd5b50610210610333366004613755565b6106f0565b6102106103463660046136c7565b610734565b34801561035757600080fd5b506103606107f6565b604051908152602001610297565b61038161037c3660046136e4565b610825565b604051610297919061380b565b61021061039c3660046138e9565b610857565b3480156103ad57600080fd5b506102106103bc36600461392b565b50505050565b3480156103ce57600080fd5b506103606103dd366004613755565b6108b7565b3480156103ee57600080fd5b506102e06108e3565b34801561040357600080fd5b50610417610412366004613cad565b6108ed565b604080519687526020870195909552921515938501939093526060840152608083019190915260a082015260c001610297565b610210610458366004613ddb565b610927565b34801561046957600080fd5b5061026a610478366004613e55565b7fbc197c810000000000000000000000000000000000000000000000000000000098975050505050505050565b3480156104b157600080fd5b506103606104c0366004613cad565b6109ec565b3480156104d157600080fd5b5061026a6104e0366004613f1c565b7ff23a6e61000000000000000000000000000000000000000000000000000000009695505050505050565b34801561051757600080fd5b50610210610526366004613f94565b610b55565b60006105797fbe27a319efc8734e89e26ba4bc95f5c788584163b959f03fa04e2d7ab4b9a1207fffffffff000000000000000000000000000000000000000000000000000000008416610c10565b92915050565b3330146105bf576040517fa19dbf000000000000000000000000000000000000000000000000000000000081523360048201526024015b60405180910390fd5b6105c881610c6e565b50565b604080516101208101825260006020820181905260609282018390528282018190526080820181905260a0820183905260c082018190526101008201929092526003815260e0810185905281610622828686610cc3565b5090508061063657506000915061065c9050565b507f20c13b0b000000000000000000000000000000000000000000000000000000009150505b9392505050565b60006105798261052b565b600061067a8585610e11565b905061068e8160600151826080015161122f565b60008061069c838686610cc3565b91509150816106dd578285856040517fa2b6d61b0000000000000000000000000000000000000000000000000000000081526004016105b6939291906141fa565b6106e78184611317565b50505050505050565b33301461072b576040517fa19dbf000000000000000000000000000000000000000000000000000000000081523360048201526024016105b6565b6105c8816115c0565b33301461076f576040517fa19dbf000000000000000000000000000000000000000000000000000000000081523360048201526024016105b6565b600061077a8261052b565b73ffffffffffffffffffffffffffffffffffffffff16036107eb576040517f1c3812cc0000000000000000000000000000000000000000000000000000000081527fffffffff00000000000000000000000000000000000000000000000000000000821660048201526024016105b6565b6105c8816000611650565b60006108207fea7157fa25e3aa17d0ae2d5280fa4e24d421c61842aa85e45194e1145aa72bf85490565b905090565b606060006108338686610e11565b9050600061084082611710565b905061084c818361178b565b979650505050505050565b333014610892576040517fa19dbf000000000000000000000000000000000000000000000000000000000081523360048201526024016105b6565b600061089e8383610e11565b905060006108ab82611710565b90506103bc8183611317565b60006105797f8d0bf1fd623d628c741362c1289948e57b3e2905218c676d3e69abee36d6ae2e83610c10565b6000610820305490565b600080600080600080610904898989600080611cfb565b93995091975094509250905061091983612020565b935093975093979195509350565b333014610962576040517fa19dbf000000000000000000000000000000000000000000000000000000000081523360048201526024016105b6565b600061096d8361052b565b73ffffffffffffffffffffffffffffffffffffffff16146109de576040517f5b4d6d6a0000000000000000000000000000000000000000000000000000000081527fffffffff00000000000000000000000000000000000000000000000000000000831660048201526024016105b6565b6109e88282611650565b5050565b600080846101000151516001610a029190614259565b67ffffffffffffffff811115610a1a57610a1a61396d565b604051908082528060200260200182016040528015610a43578160200160208202803683370190505b50905060005b85610100015151811015610ab5578561010001518181518110610a6e57610a6e61426c565b6020026020010151828281518110610a8857610a8861426c565b73ffffffffffffffffffffffffffffffffffffffff90921660209283029190910190910152600101610a49565b5033818661010001515181518110610acf57610acf61426c565b73ffffffffffffffffffffffffffffffffffffffff9092166020928302919091019091015261010085018190526000610b09868686610cc3565b50905080610b49578585856040517ff58cc8b50000000000000000000000000000000000000000000000000000000081526004016105b6939291906141fa565b50600195945050505050565b333014610b90576040517fa19dbf000000000000000000000000000000000000000000000000000000000081523360048201526024016105b6565b610ba98383836bffffffffffffffffffffffff1661202b565b6040805184815273ffffffffffffffffffffffffffffffffffffffff841660208201526bffffffffffffffffffffffff83168183015290517febf265acfac1c01de588ed7ef49743b9c3ce8d6d1edeaf510a1f5453228515b19181900360600190a1505050565b6000808383604051602001610c2f929190918252602082015260400190565b604080517fffffffffffffffffffffffffffffffffffffffffffffffffffffffffffffffe0818403018152919052805160209091012054949350505050565b610c76813055565b60405173ffffffffffffffffffffffffffffffffffffffff821681527f310ba5f1d2ed074b51e2eccd052a47ae9ab7c6b800d1fca3db3999d6a592ca03906020015b60405180910390a150565b600080600084846000818110610cdb57610cdb61426c565b7fff000000000000000000000000000000000000000000000000000000000000009201359182169250507f80000000000000000000000000000000000000000000000000000000000000009081169003610dda57610d3886611710565b9150600080610d46846120ba565b9150915042811015610d8e576040517f9fa4fe5400000000000000000000000000000000000000000000000000000000815260048101859052602481018290526044016105b6565b73ffffffffffffffffffffffffffffffffffffffff82161580610dc6575073ffffffffffffffffffffffffffffffffffffffff821633145b15610dd75760019450505050610e09565b50505b6000806000610ded898989600080611cfb565b98509295509093509150610e02905081612020565b9550505050505b935093915050565b604080516101208101825260008082526020820181905260609282018390528282018190526080820181905260a0820183905260c0820181905260e0820152610100810191909152823560f81c60018082168103610e755760006060840152610e86565b84810135606090811c908401526014015b6007600183901c168015610ed95760016008820290811b7fffffffffffffffffffffffffffffffffffffffffffffffffffffffffffffffff0187840135610100929092039190911c166080850152908101905b600083601016601003610eee57506001610f17565b83602016602003610f0a5750600282019186013560f01c610f17565b50600182019186013560f81c5b8067ffffffffffffffff811115610f3057610f3061396d565b604051908082528060200260200182016040528015610fbb57816020015b610fa86040518060e00160405280600073ffffffffffffffffffffffffffffffffffffffff168152602001600081526020016060815260200160008152602001600015158152602001600015158152602001600081525090565b815260200190600190039081610f4e5790505b50604086015260005b818110156112245760018085019489013560f81c908082169003611023573087604001518381518110610ff957610ff961426c565b602090810291909101015173ffffffffffffffffffffffffffffffffffffffff909116905261106d565b8489013560601c60148601886040015184815181106110445761104461426c565b602090810291909101015173ffffffffffffffffffffffffffffffffffffffff90921690915294505b600280821690036110ab578489013560208601886040015184815181106110965761109661426c565b60200260200101516020018197508281525050505b6004808216900361114357600385019489013560e81c89868a6110ce8483614259565b926110db9392919061429b565b8080601f01602080910402602001604051908101604052809392919081815260200183838082843760009201919091525050505060408901518051859081106111265761112661426c565b60209081029190910101516040015261113f8187614259565b9550505b600880821690036111815784890135602086018860400151848151811061116c5761116c61426c565b60200260200101516060018197508281525050505b8060101660ff16601014876040015183815181106111a1576111a161426c565b602002602001015160800190151590811515815250508060201660ff16602014876040015183815181106111d7576111d761426c565b602090810291909101015190151560a090910152604087015180516003600684901c1691908490811061120c5761120c61426c565b602090810291909101015160c0015250600101610fc4565b505050505092915050565b600061123a836108b7565b9050818114611286576040517f9b6514f40000000000000000000000000000000000000000000000000000000081526004810184905260248101839052604481018290526064016105b6565b604080517f8d0bf1fd623d628c741362c1289948e57b3e2905218c676d3e69abee36d6ae2e60208083019190915281830186905282518083038401815260609092019092528051910120600183019081905560408051858152602081018390527f1f180c27086c7a39ea2a7b25239d1ab92348f07ca7bb59d1438fcf527568f881910160405180910390a150505050565b604081015151600090815b818110156115b9576000846040015182815181106113425761134261426c565b602002602001015190508060a00151801561135b575083155b156113a3576040805187815260208101849052600095507f9ae934bf8a986157c889a24c3b3fa85e74b7e4ee4b1f8fc6e7362cb4c1d19d8b910160405180910390a1506115b1565b606081015180158015906113b65750805a105b156113f35785835a6040517f213952740000000000000000000000000000000000000000000000000000000081526004016105b6939291906142c5565b600082608001511561142457825161141d9083156114115783611413565b5a5b8560400151612106565b905061144b565b825160208401516114489190841561143c578461143e565b5a5b866040015161211c565b90505b806115745760c083015161149e576040805189815260208101869052600197507f20832642214d5218c6428e71d8d2ddd9ad15a81ad2be8154d8c2e3ab08293fcb910160405180910390a15050506115b1565b60c08301517fffffffffffffffffffffffffffffffffffffffffffffffffffffffffffffffff016115085786846114d3612134565b6040517f7f6b0bb10000000000000000000000000000000000000000000000000000000081526004016105b6939291906142ea565b60c08301517ffffffffffffffffffffffffffffffffffffffffffffffffffffffffffffffffe016115745760408051898152602081018690527f5b5cb72c79981de49f1f950d4d8d62397e2fc2b772e1b788a640025075ab47c3910160405180910390a15050506115b9565b60408051898152602081018690527fec670aed5ee1e72eb3eb601271be4b3f312e71f17eebdf10c1a0ab5a3af30ffd910160405180910390a15050505b600101611322565b5050505050565b806115f7576040517f4294d12700000000000000000000000000000000000000000000000000000000815260040160405180910390fd5b6116207fea7157fa25e3aa17d0ae2d5280fa4e24d421c61842aa85e45194e1145aa72bf8829055565b6040518181527f307ed6bd941ee9fc80f369c94af5fa11e25bab5102a6140191756c5474a30bfa90602001610cb8565b604080517fbe27a319efc8734e89e26ba4bc95f5c788584163b959f03fa04e2d7ab4b9a1206020808301919091527fffffffff000000000000000000000000000000000000000000000000000000008516828401819052835180840385018152606084018086528151919093012073ffffffffffffffffffffffffffffffffffffffff8616908190559152608082015290517f0d7fc113eaf016db4681a1ba86d083ce3e0961f321062a75ac2b0aeb33deeed19181900360a00190a15050565b600080611721836020015130612153565b9050600061172e84612220565b6040517f1901000000000000000000000000000000000000000000000000000000000000602082015260228101849052604281018290529091506062015b6040516020818303038152906040528051906020012092505050919050565b6040810151516060906000908067ffffffffffffffff8111156117b0576117b061396d565b60405190808252806020026020018201604052801561180657816020015b6117f36040805160608101909152806000815260200160608152602001600081525090565b8152602001906001900390816117ce5790505b50925060005b81811015611cf25760008560400151828151811061182c5761182c61426c565b602002602001015190508060a001518015611845575083155b1561188d576040805188815260208101849052600095507f9ae934bf8a986157c889a24c3b3fa85e74b7e4ee4b1f8fc6e7362cb4c1d19d8b910160405180910390a150611cea565b606081015180158015906118a05750805a105b156119395760058684815181106118b9576118b961426c565b60200260200101516000019060058111156118d6576118d661376e565b908160058111156118e9576118e961376e565b9052505a6040516020016118ff91815260200190565b6040516020818303038152906040528684815181106119205761192061426c565b6020026020010151602001819052505050505050610579565b600082608001511561199e5760005a845190915061196990841561195d578461195f565b5a5b8660400151612106565b91505a6119769082614315565b8886815181106119885761198861426c565b60200260200101516040018181525050506119f8565b60005a845160208601519192506119c79185156119bb57856119bd565b5a5b876040015161211c565b91505a6119d49082614315565b8886815181106119e6576119e661426c565b60200260200101516040018181525050505b80611c3d5760c0830151611abb57604080518a815260208101869052600197507f20832642214d5218c6428e71d8d2ddd9ad15a81ad2be8154d8c2e3ab08293fcb910160405180910390a16002878581518110611a5757611a5761426c565b6020026020010151600001906005811115611a7457611a7461376e565b90816005811115611a8757611a8761376e565b905250611a92612134565b878581518110611aa457611aa461426c565b602002602001015160200181905250505050611cea565b60c08301517fffffffffffffffffffffffffffffffffffffffffffffffffffffffffffffffff01611b61576003878581518110611afa57611afa61426c565b6020026020010151600001906005811115611b1757611b1761376e565b90816005811115611b2a57611b2a61376e565b905250611b35612134565b878581518110611b4757611b4761426c565b602002602001015160200181905250505050505050610579565b60c08301517ffffffffffffffffffffffffffffffffffffffffffffffffffffffffffffffffe01611c3d57604080518a8152602081018690527f5b5cb72c79981de49f1f950d4d8d62397e2fc2b772e1b788a640025075ab47c3910160405180910390a16004878581518110611bd957611bd961426c565b6020026020010151600001906005811115611bf657611bf661376e565b90816005811115611c0957611c0961376e565b905250611c14612134565b878581518110611c2657611c2661426c565b602002602001015160200181905250505050611cf2565b604080518a8152602081018690527fec670aed5ee1e72eb3eb601271be4b3f312e71f17eebdf10c1a0ab5a3af30ffd910160405180910390a16001878581518110611c8a57611c8a61426c565b6020026020010151600001906005811115611ca757611ca761376e565b90816005811115611cba57611cba61376e565b905250611cc5612134565b878581518110611cd757611cd761426c565b6020026020010151602001819052505050505b60010161180c565b50505092915050565b6040805180820182526000808252602082018190529182918291829182918a3560f81c91600191808416148015611d46575073ffffffffffffffffffffffffffffffffffffffff8916155b15611e62578b82013560601c985060149091019089611e625760038201918c013560e81c60008d848e611d798583614259565b92611d869392919061429b565b8080601f016020809104026020016040519081016040528093929190818152602001838380828437600092019190915250506040517fccce3bc80000000000000000000000000000000000000000000000000000000081529293505073ffffffffffffffffffffffffffffffffffffffff8d169163ccce3bc89150611e119030908590600401614328565b6040805180830381865afa158015611e2d573d6000803e3d6000fd5b505050506040513d601f19601f82011682018060405250810190611e51919061435f565b9250611e5d8285614259565b935050505b82600116600103611e9c57611e8a8d8a838f8f87908092611e859392919061429b565b612476565b97509750975097509750505050612013565b6002838116811460208f015283901c60071660016008820290811b7fffffffffffffffffffffffffffffffffffffffffffffffffffffffffffffffff018e850135610100929092039190911c16838201909650925060009050611f076001600586901c811690614259565b60016008820290811b7fffffffffffffffffffffffffffffffffffffffffffffffffffffffffffffffff018f860135610100929092039190911c1699509092019150611f528d611710565b9350611f708d858e8e86908092611f6b9392919061429b565b6126c2565b600090815260208a815260408083208352888252808320835273ffffffffffffffffffffffffffffffffffffffff8d1690915290208251919850965015801590611fbb575080518614155b8015611fcb575080602001518511155b1561200f576040517fccbb534f00000000000000000000000000000000000000000000000000000000815281516004820152602082015160248201526044016105b6565b5050505b9550955095509550959050565b6000610579826130a6565b6120b57fc852adf5e97c2fc3b38f405671e91b7af1697ef0287577f227ef10494c2a8e86847fffffffffffffffffffffffffffffffffffffffff000000000000000000000000606086901b166bffffffffffffffffffffffff8516176040805160208082019590955280820193909352805180840382018152606090930190528151919092012055565b505050565b600080806120e87fc852adf5e97c2fc3b38f405671e91b7af1697ef0287577f227ef10494c2a8e8685610c10565b606081901c956bffffffffffffffffffffffff909116945092505050565b60008060008351602085018787f4949350505050565b6000806000835160208501878988f195945050505050565b60603d604051915060208201818101604052818352816000823e505090565b60007f8b73c3c69bb8fe3d512ecc4cf759cc79239f7b179b0ffacaa9a75d522b39400f7f4aa45ca7ad825ceb1bf35643f0a58c295239df563b1b565c2485f96477c563187f2a80e1ef1d7842f27f2e6be0972bb708b9a135c38860dbe73c27c3486c34f4de856121c357466121c6565b60005b6040805160208101959095528401929092526060830152608082015273ffffffffffffffffffffffffffffffffffffffff831660a082015260c0015b60405160208183030381529060405280519060200120905092915050565b6000806122318361010001516130b1565b835190915060ff166122a457600061224c8460400151613134565b606080860151608080880151604080517f11e1e4079a79a66e4ade50033cfe2678cdd5341d2dfe5ef9513edb1a0be147a260208201529081018690529384019290925282015260a0810184905290915060c00161176c565b825160ff167fffffffffffffffffffffffffffffffffffffffffffffffffffffffffffffffff016123345760a08301518051602091820120604080517fe19a3b94fc3c7ece3f890d98a99bc422615537a08dea0603fa8425867d87d46693810193909352820152606081018290526080015b60405160208183030381529060405280519060200120915050919050565b825160ff167ffffffffffffffffffffffffffffffffffffffffffffffffffffffffffffffffe016123a45760c0830151604080517f11fdeb7e8373a1aa96bfac8d0ea91526b2c5d15e5cee20e0543e780258f3e8e460208201529081019190915260608101829052608001612316565b825160ff167ffffffffffffffffffffffffffffffffffffffffffffffffffffffffffffffffd016124145760e0830151604080517f402e923b91e918306019e73f589362164a6a059499a504699c66feabbb3e262460208201529081019190915260608101829052608001612316565b6040517f08c379a000000000000000000000000000000000000000000000000000000000815260206004820152601060248201527f556e737570706f72746564206b696e640000000000000000000000000000000060448201526064016105b6565b60008060008060006124d8604051806101200160405280600060ff168152602001600015158152602001606081526020016000815260200160008152602001606081526020016000801916815260200160008019168152602001606081525090565b6002815260007fffffffffffffffffffffffffffffffffffffffffffffffffffffffffffffffff5b8882101561264f5760038201916000908b013560e81c6125208482614259565b9150600090508a8214612534576000612536565b8d5b905060007fffffffffffffffffffffffffffffffffffffffffffffffffffffffffffffffff84146125675785612569565b8f5b9050612589818e8e889087926125819392919061429b565b600186611cfb565b50929d50909b50995097508a8a10156125e6578c8c869085926125ae9392919061429b565b8c8c6040517fb006aba00000000000000000000000000000000000000000000000000000000081526004016105b694939291906143b0565b829450888e60000151036125f95760008e525b83881061263c576040517f37daf62b00000000000000000000000000000000000000000000000000000000815260048101899052602481018590526044016105b6565b505060c084018790529150849050612500565b8a511580159061266357508a602001518511155b156126a7576040517fccbb534f0000000000000000000000000000000000000000000000000000000081528b51600482015260208c015160248201526044016105b6565b6126b08d611710565b93505050509550955095509550959050565b60008060005b8381101561309c57600181019085013560f881901c9060fc1c806127e557600f821660008190036127005750600183019287013560f81c5b60408051600080825260208281018085528d9052601b8c89019182013560ff81811c928301908116868801529235606086018190527f7fffffffffffffffffffffffffffffffffffffffffffffffffffffffffffffff82166080870181905296909a0199959094919390929160019060a0015b6020604051602081039080840390855afa158015612795573d6000803e3d6000fd5b5050506020604051035190508660ff168c019b5060006127b8828960ff166131b6565b90508b6127c557806127d4565b60008c81526020829052604090205b9b50505050505050505050506126c8565b6001810361284957600f821660008190036128075750600183019287013560f81c5b601484019388013560601c60006128218260ff85166131b6565b90508661282e578061283d565b60008781526020829052604090205b965050505050506126c8565b60028103612a305760038216600081900361286b5750600183019287013560f81c5b60008489013560601c60148601955090506003600285901c16600060016008830290811b7fffffffffffffffffffffffffffffffffffffffffffffffffffffffffffffffff018c890135610100929092039190911c168288018098508192505050600081880190506320c13b0b60e01b7bffffffffffffffffffffffffffffffffffffffffffffffffffffffff19168473ffffffffffffffffffffffffffffffffffffffff16631626ba7e8f8f8f8d9087926129299392919061429b565b6040518463ffffffff1660e01b8152600401612947939291906143d7565b602060405180830381865afa158015612964573d6000803e3d6000fd5b505050506040513d601f19601f8201168201806040525081019061298891906143f1565b7fffffffff0000000000000000000000000000000000000000000000000000000016146129eb578d8d858e8e6040517ff734863a0000000000000000000000000000000000000000000000000000000081526004016105b695949392919061440e565b8097508460ff168a0199506000612a05858760ff166131b6565b905089612a125780612a21565b60008a81526020829052604090205b995050505050505050506126c8565b60038103612a6457602083019287013584612a4b5780612a5a565b60008581526020829052604090205b94505050506126c8565b60048103612b0a57600f8216600060016008830290811b7fffffffffffffffffffffffffffffffffffffffffffffffffffffffffffffffff018a870135610100929092039190911c16858301809650819250505060008186019050600080612ad98e8e8e8e8c908892611f6b9392919061429b565b91509150829750818a019950612af9898260009182526020526040902090565b9850829750505050505050506126c8565b60068103612bd4576003600283901c166000819003612b305750600183019287013560f81c5b600383166000819003612b4a5750600284019388013560f01c5b6000858a013560e81c600387018162ffffff169150809750819250505060008187019050600080612b888f8f8f8f8d908892611f6b9392919061429b565b91509150829850848210612b9b57998501995b6000612ba882878961321d565b90508a612bb55780612bc4565b60008b81526020829052604090205b9a505050505050505050506126c8565b60058103612c41576020830192870135888103612c0f577fffffffffffffffffffffffffffffffffffffffffffffffffffffffffffffffff95505b6000612c1a82613281565b905085612c275780612c36565b60008681526020829052604090205b9550505050506126c8565b60078103612d4757600f82166000819003612c635750600183019287013560f81c5b600080858a0135602087019650915089860135602087016040517f19457468657265756d205369676e6564204d6573736167653a0a3332000000006020820152603c81018e905290975090915060ff82901c907f7fffffffffffffffffffffffffffffffffffffffffffffffffffffffffffffff831690601b830190600090600190605c01604080517fffffffffffffffffffffffffffffffffffffffffffffffffffffffffffffffe08184030181528282528051602091820120600084529083018083525260ff851690820152606081018890526080810185905260a001612773565b60088103612d9b5760208301928701356000612d638b826132d5565b9050808203612d90577fffffffffffffffffffffffffffffffffffffffffffffffffffffffffffffffff96505b600061282182613350565b60098103612f0157600382166000819003612dbd5750600183019287013560f81c5b60008489013560601c601486019550905060006003600286901c1660016008820290811b7fffffffffffffffffffffffffffffffffffffffffffffffffffffffffffffffff018c890135610100929092039190911c168188018098508193505050506000818701905060008373ffffffffffffffffffffffffffffffffffffffff1663ca7078508f8e8e8c908792612e579392919061429b565b6040518463ffffffff1660e01b8152600401612e75939291906141fa565b602060405180830381865afa158015612e92573d6000803e3d6000fd5b505050506040513d601f19601f82011682018060405250810190612eb69190614462565b90508197508460ff168a0199506000612ed3858760ff168461338b565b905089612ee05780612eef565b60008a81526020829052604090205b995082985050505050505050506126c8565b600a810361306757600382166000819003612f235750600183019287013560f81c5b60008489013560601c60148601955090506003600285901c16600060016008830290811b7fffffffffffffffffffffffffffffffffffffffffffffffffffffffffffffffff018c890135610100929092039190911c1682880180985081925050506000818801905060008473ffffffffffffffffffffffffffffffffffffffff1663957d2b238f8f8f8d908792612fbc9392919061429b565b6040518463ffffffff1660e01b8152600401612fda939291906143d7565b602060405180830381865afa158015612ff7573d6000803e3d6000fd5b505050506040513d601f19601f8201168201806040525081019061301b9190614462565b90508198508560ff168b019a506000613038868860ff168461338b565b90508a6130455780613054565b60008b81526020829052604090205b9a508299505050505050505050506126c8565b6040517fb2505f7c000000000000000000000000000000000000000000000000000000008152600481018290526024016105b6565b5094509492505050565b6000610579826133f9565b6000606060005b835181101561312557818482815181106130d4576130d461426c565b60200260200101516040516020016130ed92919061447b565b604080517fffffffffffffffffffffffffffffffffffffffffffffffffffffffffffffffe081840301815291905291506001016130b8565b50805160209091012092915050565b6000606060005b835181101561312557600061316885838151811061315b5761315b61426c565b602002602001015161342c565b9050828160405160200161317d9291906144b3565b604080517fffffffffffffffffffffffffffffffffffffffffffffffffffffffffffffffe081840301815291905292505060010161313b565b6040517f53657175656e6365207369676e65723a0a00000000000000000000000000000060208201527fffffffffffffffffffffffffffffffffffffffff000000000000000000000000606084901b16603182015260458101829052600090606501612202565b6040517f53657175656e6365206e657374656420636f6e6669673a0a000000000000000060208201526038810184905260588101839052607881018290526000906098015b6040516020818303038152906040528051906020012090509392505050565b6040517f53657175656e636520737461746963206469676573743a0a00000000000000006020820152603881018290526000906058015b604051602081830303815290604052805190602001209050919050565b6000806132e6846020015184612153565b905060006132f385612220565b6040517f190100000000000000000000000000000000000000000000000000000000000060208201526022810184905260428101829052909150606201604051602081830303815290604052805190602001209250505092915050565b604080517f53657175656e636520616e792061646472657373207375626469676573743a0a60208201529081018290526000906060016132b8565b6040517f53657175656e63652073617069656e7420636f6e6669673a0a0000000000000060208201527fffffffffffffffffffffffffffffffffffffffff000000000000000000000000606085901b166039820152604d8101839052606d8101829052600090608d01613262565b600081158015906105795750507fea7157fa25e3aa17d0ae2d5280fa4e24d421c61842aa85e45194e1145aa72bf8541490565b60007f0603985259a953da1f65a522f589c17bd1d0117ec1d3abb7c0788aef251ef43782600001518360200151846040015180519060200120856060015186608001518760a001518860c001516040516020016132b898979695949392919097885273ffffffffffffffffffffffffffffffffffffffff969096166020880152604087019490945260608601929092526080850152151560a0840152151560c083015260e08201526101000190565b80357fffffffff00000000000000000000000000000000000000000000000000000000811690600484101561353a577fffffffff00000000000000000000000000000000000000000000000000000000808560040360031b1b82161691505b5092915050565b8183823760009101908152919050565b803573ffffffffffffffffffffffffffffffffffffffff8116811461357557600080fd5b919050565b60006020828403121561358c57600080fd5b61065c82613551565b60008083601f8401126135a757600080fd5b50813567ffffffffffffffff8111156135bf57600080fd5b6020830191508360208285010111156135d757600080fd5b9250929050565b6000806000806000608086880312156135f657600080fd5b6135ff86613551565b945061360d60208701613551565b935060408601359250606086013567ffffffffffffffff81111561363057600080fd5b61363c88828901613595565b969995985093965092949392505050565b60008060006040848603121561366257600080fd5b83359250602084013567ffffffffffffffff81111561368057600080fd5b61368c86828701613595565b9497909650939450505050565b7fffffffff00000000000000000000000000000000000000000000000000000000811681146105c857600080fd5b6000602082840312156136d957600080fd5b813561065c81613699565b600080600080604085870312156136fa57600080fd5b843567ffffffffffffffff81111561371157600080fd5b61371d87828801613595565b909550935050602085013567ffffffffffffffff81111561373d57600080fd5b61374987828801613595565b95989497509550505050565b60006020828403121561376757600080fd5b5035919050565b7f4e487b7100000000000000000000000000000000000000000000000000000000600052602160045260246000fd5b60005b838110156137b85781810151838201526020016137a0565b50506000910152565b600081518084526137d981602086016020860161379d565b601f017fffffffffffffffffffffffffffffffffffffffffffffffffffffffffffffffe0169290920160200192915050565b6000602082016020835280845180835260408501915060408160051b86010192506020860160005b828110156138dd577fffffffffffffffffffffffffffffffffffffffffffffffffffffffffffffffc0878603018452815180516006811061389d577f4e487b7100000000000000000000000000000000000000000000000000000000600052602160045260246000fd5b808752506020810151606060208801526138ba60608801826137c1565b604092830151979092019690965294506020938401939190910190600101613833565b50929695505050505050565b600080602083850312156138fc57600080fd5b823567ffffffffffffffff81111561391357600080fd5b61391f85828601613595565b90969095509350505050565b6000806000806060858703121561394157600080fd5b61394a85613551565b935060208501359250604085013567ffffffffffffffff81111561373d57600080fd5b7f4e487b7100000000000000000000000000000000000000000000000000000000600052604160045260246000fd5b60405160e0810167ffffffffffffffff811182821017156139bf576139bf61396d565b60405290565b604051610120810167ffffffffffffffff811182821017156139bf576139bf61396d565b604051601f82017fffffffffffffffffffffffffffffffffffffffffffffffffffffffffffffffe016810167ffffffffffffffff81118282101715613a3057613a3061396d565b604052919050565b803560ff8116811461357557600080fd5b8035801515811461357557600080fd5b600067ffffffffffffffff821115613a7357613a7361396d565b5060051b60200190565b600082601f830112613a8e57600080fd5b813567ffffffffffffffff811115613aa857613aa861396d565b613ad960207fffffffffffffffffffffffffffffffffffffffffffffffffffffffffffffffe0601f840116016139e9565b818152846020838601011115613aee57600080fd5b816020850160208301376000918101602001919091529392505050565b600082601f830112613b1c57600080fd5b8135613b2f613b2a82613a59565b6139e9565b8082825260208201915060208360051b860101925085831115613b5157600080fd5b602085015b83811015613c3e57803567ffffffffffffffff811115613b7557600080fd5b860160e08189037fffffffffffffffffffffffffffffffffffffffffffffffffffffffffffffffe0011215613ba957600080fd5b613bb161399c565b613bbd60208301613551565b815260408201356020820152606082013567ffffffffffffffff811115613be357600080fd5b613bf28a602083860101613a7d565b60408301525060808201356060820152613c0e60a08301613a49565b6080820152613c1f60c08301613a49565b60a082015260e0919091013560c0820152835260209283019201613b56565b5095945050505050565b600082601f830112613c5957600080fd5b8135613c67613b2a82613a59565b8082825260208201915060208360051b860101925085831115613c8957600080fd5b602085015b83811015613c3e57613c9f81613551565b835260209283019201613c8e565b600080600060408486031215613cc257600080fd5b833567ffffffffffffffff811115613cd957600080fd5b84016101208187031215613cec57600080fd5b613cf46139c5565b613cfd82613a38565b8152613d0b60208301613a49565b6020820152604082013567ffffffffffffffff811115613d2a57600080fd5b613d3688828501613b0b565b604083015250606082810135908201526080808301359082015260a082013567ffffffffffffffff811115613d6a57600080fd5b613d7688828501613a7d565b60a08301525060c0828101359082015260e0808301359082015261010082013567ffffffffffffffff811115613dab57600080fd5b613db788828501613c48565b61010083015250935050602084013567ffffffffffffffff81111561368057600080fd5b60008060408385031215613dee57600080fd5b8235613df981613699565b9150613e0760208401613551565b90509250929050565b60008083601f840112613e2257600080fd5b50813567ffffffffffffffff811115613e3a57600080fd5b6020830191508360208260051b85010111156135d757600080fd5b60008060008060008060008060a0898b031215613e7157600080fd5b613e7a89613551565b9750613e8860208a01613551565b9650604089013567ffffffffffffffff811115613ea457600080fd5b613eb08b828c01613e10565b909750955050606089013567ffffffffffffffff811115613ed057600080fd5b613edc8b828c01613e10565b909550935050608089013567ffffffffffffffff811115613efc57600080fd5b613f088b828c01613595565b999c989b5096995094979396929594505050565b60008060008060008060a08789031215613f3557600080fd5b613f3e87613551565b9550613f4c60208801613551565b94506040870135935060608701359250608087013567ffffffffffffffff811115613f7657600080fd5b613f8289828a01613595565b979a9699509497509295939492505050565b600080600060608486031215613fa957600080fd5b83359250613fb960208501613551565b915060408401356bffffffffffffffffffffffff81168114613fda57600080fd5b809150509250925092565b600082825180855260208501945060208160051b8301016020850160005b838110156140b5577fffffffffffffffffffffffffffffffffffffffffffffffffffffffffffffffe0858403018852815173ffffffffffffffffffffffffffffffffffffffff815116845260208101516020850152604081015160e0604086015261407160e08601826137c1565b6060838101519087015260808084015115159087015260a08084015115159087015260c0928301519290950191909152506020978801979190910190600101614003565b50909695505050505050565b600081518084526020840193506020830160005b8281101561410957815173ffffffffffffffffffffffffffffffffffffffff168652602095860195909101906001016140d5565b5093949350505050565b805160ff1682526000602082015161412f602085018215159052565b506040820151610120604085015261414b610120850182613fe5565b9050606083015160608501526080830151608085015260a083015184820360a086015261417882826137c1565b91505060c083015160c085015260e083015160e08501526101008301518482036101008601526141a882826140c1565b95945050505050565b8183528181602085013750600060208284010152600060207fffffffffffffffffffffffffffffffffffffffffffffffffffffffffffffffe0601f840116840101905092915050565b60408152600061420d6040830186614113565b82810360208401526142208185876141b1565b9695505050505050565b7f4e487b7100000000000000000000000000000000000000000000000000000000600052601160045260246000fd5b808201808211156105795761057961422a565b7f4e487b7100000000000000000000000000000000000000000000000000000000600052603260045260246000fd5b600080858511156142ab57600080fd5b838611156142b857600080fd5b5050820193919092039150565b6060815260006142d86060830186614113565b60208301949094525060400152919050565b6060815260006142fd6060830186614113565b846020840152828103604084015261422081856137c1565b818103818111156105795761057961422a565b73ffffffffffffffffffffffffffffffffffffffff8316815260406020820152600061435760408301846137c1565b949350505050565b6000604082840312801561437257600080fd5b506040805190810167ffffffffffffffff811182821017156143965761439661396d565b604052825181526020928301519281019290925250919050565b6060815260006143c46060830186886141b1565b6020830194909452506040015292915050565b8381526040602082015260006141a86040830184866141b1565b60006020828403121561440357600080fd5b815161065c81613699565b6080815260006144216080830188614113565b86602084015273ffffffffffffffffffffffffffffffffffffffff8616604084015282810360608401526144568185876141b1565b98975050505050505050565b60006020828403121561447457600080fd5b5051919050565b60408152600061448e60408301856137c1565b905073ffffffffffffffffffffffffffffffffffffffff831660208301529392505050565b600083516144c581846020880161379d565b919091019182525060200191905056fea26469706673582212200162dd01ce52968df1404f5987f47cf982938cbf9e49f01116c00b4cd8f0e18a64736f6c634300081b0033",
  "linkReferences": {},
  "deployedLinkReferences": {}
}