{"abi":[{"type":"constructor","inputs":[{"name":"_factory","type":"address","internalType":"address"},{"name":"_senderCreator","type":"address","internalType":"address"}],"stateMutability":"nonpayable"},{"type":"function","name":"deploy","inputs":[{"name":"_mainModule","type":"address","internalType":"address"},{"name":"_salt","type":"bytes32","internalType":"bytes32"}],"outputs":[{"name":"_contract","type":"address","internalType":"address"}],"stateMutability":"payable"},{"type":"function","name":"factory","inputs":[],"outputs":[{"name":"","type":"address","internalType":"contract Factory"}],"stateMutability":"view"},{"type":"function","name":"senderCreator","inputs":[],"outputs":[{"name":"","type":"address","internalType":"address"}],"stateMutability":"view"},{"type":"error","name":"NotSenderCreator","inputs":[]}],"bytecode":{"object":"0x60c03461009157601f61054538819003918201601f19168301916001600160401b0383118484101761009657808492604094855283398101031261009157610052602061004b836100ac565b92016100ac565b6001600160a01b0390911660805260a05260405161048490816100c18239608051818181608b0152610317015260a05181818161017401526102200152f35b600080fd5b634e487b7160e01b600052604160045260246000fd5b51906001600160a01b03821682036100915756fe608080604052600436101561001357600080fd5b60003560e01c90816309ccb8801461012b5750806332c02a14146100b45763c45a01551461004057600080fd5b346100af5760007ffffffffffffffffffffffffffffffffffffffffffffffffffffffffffffffffc3601126100af57602060405173ffffffffffffffffffffffffffffffffffffffff7f0000000000000000000000000000000000000000000000000000000000000000168152f35b600080fd5b60407ffffffffffffffffffffffffffffffffffffffffffffffffffffffffffffffffc3601126100af5760043573ffffffffffffffffffffffffffffffffffffffff811681036100af5761010d60209160243590610208565b73ffffffffffffffffffffffffffffffffffffffff60405191168152f35b346100af5760007ffffffffffffffffffffffffffffffffffffffffffffffffffffffffffffffffc3601126100af5760209073ffffffffffffffffffffffffffffffffffffffff7f0000000000000000000000000000000000000000000000000000000000000000168152f35b90601f7fffffffffffffffffffffffffffffffffffffffffffffffffffffffffffffffe0910116810190811067ffffffffffffffff8211176101d957604052565b7f4e487b7100000000000000000000000000000000000000000000000000000000600052604160045260246000fd5b9073ffffffffffffffffffffffffffffffffffffffff7f00000000000000000000000000000000000000000000000000000000000000001633036104245760405191606083019083821067ffffffffffffffff8311176101d95773ffffffffffffffffffffffffffffffffffffffff91604052602f84527f6041600e3d396021805130553df33d3d36153402601f57363d3d373d363d305460208501527f5af43d82803e903d91601f57fd5bf30000000000000000000000000000000000604085015216916040519060005b602f811061040f57505082604f820152604f81526102f3606f82610198565b602081519101209173ffffffffffffffffffffffffffffffffffffffff6055600b827f000000000000000000000000000000000000000000000000000000000000000016956040519060408201528560208201528681520160ff81532016803b610408575090604460209260405194859384927f32c02a140000000000000000000000000000000000000000000000000000000084526004840152602483015234905af19081156103fc576000916103a9575090565b6020813d6020116103f4575b816103c260209383610198565b810103126103f057519073ffffffffffffffffffffffffffffffffffffffff821682036103ed575090565b80fd5b5080fd5b3d91506103b5565b6040513d6000823e3d90fd5b9250505090565b806020809284010151828286010152016102d4565b7fe23604a00000000000000000000000000000000000000000000000000000000060005260046000fdfea2646970667358221220f5e9586fa4921a327df8b996373cb2aeedb2cdc878ca6fbb593bf4bd57bb62bf64736f6c634300081c0033","linkReferences":{}},"methodIdentifiers":{"deploy(address,bytes32)":"32c02a14","factory()":"c45a0155","senderCreator()":"09ccb880"},"id":42}