{
  "_format": "hh-sol-artifact-1",
  "contractName": "HookMock",
  "sourceName": "contracts/mocks/HookMock.sol",
  "abi": [
    {
      "inputs": [
        {
          "internalType": "uint256",
          "name": "_num",
          "type": "uint256"
        }
      ],
      "name": "onHookMockCall",
      "outputs": [
        {
          "internalType": "uint256",
          "name": "",
          "type": "uint256"
        }
      ],
      "stateMutability": "pure",
      "type": "function"
    }
  ],
  "bytecode": "0x608060405234801561001057600080fd5b5060ea8061001f6000396000f3fe6080604052348015600f57600080fd5b506004361060285760003560e01c8063b68fe6cf14602d575b600080fd5b603c6038366004605f565b604e565b60405190815260200160405180910390f35b600060598260026077565b92915050565b600060208284031215607057600080fd5b5035919050565b80820281158282048414176059577f4e487b7100000000000000000000000000000000000000000000000000000000600052601160045260246000fdfea2646970667358221220f9b1a4f4bf00938631890dcaba8b6a831befbdee3349e47bc935e59c1ae3ea1364736f6c63430008120033",
  "linkReferences": {},
  "deployedLinkReferences": {}
}