{
  "_format": "hh-sol-artifact-1",
  "contractName": "MainModuleUpgradable",
  "sourceName": "contracts/modules/MainModuleUpgradable.sol",
  "abi": [
    {
      "inputs": [
        {
          "internalType": "uint256",
          "name": "_space",
          "type": "uint256"
        },
        {
          "internalType": "uint256",
          "name": "_provided",
          "type": "uint256"
        },
        {
          "internalType": "uint256",
          "name": "_current",
          "type": "uint256"
        }
      ],
      "name": "BadNonce",
      "type": "error"
    },
    {
      "inputs": [
        {
          "internalType": "bytes4",
          "name": "_signature",
          "type": "bytes4"
        }
      ],
      "name": "HookAlreadyExists",
      "type": "error"
    },
    {
      "inputs": [
        {
          "internalType": "bytes4",
          "name": "_signature",
          "type": "bytes4"
        }
      ],
      "name": "HookDoesNotExist",
      "type": "error"
    },
    {
      "inputs": [],
      "name": "ImageHashIsZero",
      "type": "error"
    },
    {
      "inputs": [
        {
          "internalType": "address",
          "name": "_implementation",
          "type": "address"
        }
      ],
      "name": "InvalidImplementation",
      "type": "error"
    },
    {
      "inputs": [
        {
          "internalType": "bytes32",
          "name": "_hash",
          "type": "bytes32"
        },
        {
          "internalType": "address",
          "name": "_addr",
          "type": "address"
        },
        {
          "internalType": "bytes",
          "name": "_signature",
          "type": "bytes"
        }
      ],
      "name": "InvalidNestedSignature",
      "type": "error"
    },
    {
      "inputs": [
        {
          "internalType": "bytes",
          "name": "_signature",
          "type": "bytes"
        },
        {
          "internalType": "bytes32",
          "name": "_s",
          "type": "bytes32"
        }
      ],
      "name": "InvalidSValue",
      "type": "error"
    },
    {
      "inputs": [
        {
          "internalType": "bytes32",
          "name": "_hash",
          "type": "bytes32"
        },
        {
          "internalType": "bytes",
          "name": "_signature",
          "type": "bytes"
        }
      ],
      "name": "InvalidSignature",
      "type": "error"
    },
    {
      "inputs": [
        {
          "internalType": "uint256",
          "name": "_flag",
          "type": "uint256"
        }
      ],
      "name": "InvalidSignatureFlag",
      "type": "error"
    },
    {
      "inputs": [
        {
          "internalType": "bytes",
          "name": "_signature",
          "type": "bytes"
        }
      ],
      "name": "InvalidSignatureLength",
      "type": "error"
    },
    {
      "inputs": [
        {
          "internalType": "bytes1",
          "name": "_type",
          "type": "bytes1"
        }
      ],
      "name": "InvalidSignatureType",
      "type": "error"
    },
    {
      "inputs": [
        {
          "internalType": "bytes",
          "name": "_signature",
          "type": "bytes"
        },
        {
          "internalType": "uint256",
          "name": "_v",
          "type": "uint256"
        }
      ],
      "name": "InvalidVValue",
      "type": "error"
    },
    {
      "inputs": [
        {
          "internalType": "bytes",
          "name": "_signature",
          "type": "bytes"
        },
        {
          "internalType": "uint256",
          "name": "threshold",
          "type": "uint256"
        },
        {
          "internalType": "uint256",
          "name": "_weight",
          "type": "uint256"
        }
      ],
      "name": "LowWeightChainedSignature",
      "type": "error"
    },
    {
      "inputs": [
        {
          "internalType": "uint256",
          "name": "_index",
          "type": "uint256"
        },
        {
          "internalType": "uint256",
          "name": "_requested",
          "type": "uint256"
        },
        {
          "internalType": "uint256",
          "name": "_available",
          "type": "uint256"
        }
      ],
      "name": "NotEnoughGas",
      "type": "error"
    },
    {
      "inputs": [],
      "name": "OnlyDelegatecall",
      "type": "error"
    },
    {
      "inputs": [
        {
          "internalType": "address",
          "name": "_sender",
          "type": "address"
        },
        {
          "internalType": "address",
          "name": "_self",
          "type": "address"
        }
      ],
      "name": "OnlySelfAuth",
      "type": "error"
    },
    {
      "inputs": [
        {
          "internalType": "bytes",
          "name": "_signature",
          "type": "bytes"
        }
      ],
      "name": "SignerIsAddress0",
      "type": "error"
    },
    {
      "inputs": [
        {
          "internalType": "bytes",
          "name": "_signature",
          "type": "bytes"
        },
        {
          "internalType": "uint256",
          "name": "_type",
          "type": "uint256"
        },
        {
          "internalType": "bool",
          "name": "_recoverMode",
          "type": "bool"
        }
      ],
      "name": "UnsupportedSignatureType",
      "type": "error"
    },
    {
      "inputs": [
        {
          "internalType": "uint256",
          "name": "_current",
          "type": "uint256"
        },
        {
          "internalType": "uint256",
          "name": "_prev",
          "type": "uint256"
        }
      ],
      "name": "WrongChainedCheckpointOrder",
      "type": "error"
    },
    {
      "anonymous": false,
      "inputs": [
        {
          "indexed": false,
          "internalType": "address",
          "name": "_contract",
          "type": "address"
        }
      ],
      "name": "CreatedContract",
      "type": "event"
    },
    {
      "anonymous": false,
      "inputs": [
        {
          "indexed": false,
          "internalType": "bytes32",
          "name": "_hash",
          "type": "bytes32"
        }
      ],
      "name": "IPFSRootUpdated",
      "type": "event"
    },
    {
      "anonymous": false,
      "inputs": [
        {
          "indexed": false,
          "internalType": "bytes32",
          "name": "newImageHash",
          "type": "bytes32"
        }
      ],
      "name": "ImageHashUpdated",
      "type": "event"
    },
    {
      "anonymous": false,
      "inputs": [
        {
          "indexed": false,
          "internalType": "address",
          "name": "newImplementation",
          "type": "address"
        }
      ],
      "name": "ImplementationUpdated",
      "type": "event"
    },
    {
      "anonymous": false,
      "inputs": [
        {
          "indexed": false,
          "internalType": "uint256",
          "name": "_space",
          "type": "uint256"
        },
        {
          "indexed": false,
          "internalType": "uint256",
          "name": "_newNonce",
          "type": "uint256"
        }
      ],
      "name": "NonceChange",
      "type": "event"
    },
    {
      "anonymous": false,
      "inputs": [
        {
          "indexed": true,
          "internalType": "bytes32",
          "name": "_imageHash",
          "type": "bytes32"
        },
        {
          "indexed": false,
          "internalType": "uint256",
          "name": "_expiration",
          "type": "uint256"
        }
      ],
      "name": "SetExtraImageHash",
      "type": "event"
    },
    {
      "anonymous": false,
      "inputs": [
        {
          "indexed": true,
          "internalType": "bytes32",
          "name": "_tx",
          "type": "bytes32"
        },
        {
          "indexed": false,
          "internalType": "uint256",
          "name": "_index",
          "type": "uint256"
        }
      ],
      "name": "TxExecuted",
      "type": "event"
    },
    {
      "anonymous": false,
      "inputs": [
        {
          "indexed": true,
          "internalType": "bytes32",
          "name": "_tx",
          "type": "bytes32"
        },
        {
          "indexed": false,
          "internalType": "uint256",
          "name": "_index",
          "type": "uint256"
        },
        {
          "indexed": false,
          "internalType": "bytes",
          "name": "_reason",
          "type": "bytes"
        }
      ],
      "name": "TxFailed",
      "type": "event"
    },
    {
      "stateMutability": "payable",
      "type": "fallback"
    },
    {
      "inputs": [],
      "name": "SET_IMAGE_HASH_TYPE_HASH",
      "outputs": [
        {
          "internalType": "bytes32",
          "name": "",
          "type": "bytes32"
        }
      ],
      "stateMutability": "view",
      "type": "function"
    },
    {
      "inputs": [
        {
          "internalType": "bytes4",
          "name": "_signature",
          "type": "bytes4"
        },
        {
          "internalType": "address",
          "name": "_implementation",
          "type": "address"
        }
      ],
      "name": "addHook",
      "outputs": [],
      "stateMutability": "nonpayable",
      "type": "function"
    },
    {
      "inputs": [
        {
          "internalType": "bytes32[]",
          "name": "_imageHashes",
          "type": "bytes32[]"
        }
      ],
      "name": "clearExtraImageHashes",
      "outputs": [],
      "stateMutability": "nonpayable",
      "type": "function"
    },
    {
      "inputs": [
        {
          "internalType": "bytes",
          "name": "_code",
          "type": "bytes"
        }
      ],
      "name": "createContract",
      "outputs": [
        {
          "internalType": "address",
          "name": "addr",
          "type": "address"
        }
      ],
      "stateMutability": "payable",
      "type": "function"
    },
    {
      "inputs": [
        {
          "components": [
            {
              "internalType": "bool",
              "name": "delegateCall",
              "type": "bool"
            },
            {
              "internalType": "bool",
              "name": "revertOnError",
              "type": "bool"
            },
            {
              "internalType": "uint256",
              "name": "gasLimit",
              "type": "uint256"
            },
            {
              "internalType": "address",
              "name": "target",
              "type": "address"
            },
            {
              "internalType": "uint256",
              "name": "value",
              "type": "uint256"
            },
            {
              "internalType": "bytes",
              "name": "data",
              "type": "bytes"
            }
          ],
          "internalType": "struct IModuleCalls.Transaction[]",
          "name": "_txs",
          "type": "tuple[]"
        },
        {
          "internalType": "uint256",
          "name": "_nonce",
          "type": "uint256"
        },
        {
          "internalType": "bytes",
          "name": "_signature",
          "type": "bytes"
        }
      ],
      "name": "execute",
      "outputs": [],
      "stateMutability": "nonpayable",
      "type": "function"
    },
    {
      "inputs": [
        {
          "internalType": "bytes32",
          "name": "_imageHash",
          "type": "bytes32"
        }
      ],
      "name": "extraImageHash",
      "outputs": [
        {
          "internalType": "uint256",
          "name": "",
          "type": "uint256"
        }
      ],
      "stateMutability": "view",
      "type": "function"
    },
    {
      "inputs": [],
      "name": "imageHash",
      "outputs": [
        {
          "internalType": "bytes32",
          "name": "",
          "type": "bytes32"
        }
      ],
      "stateMutability": "view",
      "type": "function"
    },
    {
      "inputs": [],
      "name": "ipfsRoot",
      "outputs": [
        {
          "internalType": "string",
          "name": "",
          "type": "string"
        }
      ],
      "stateMutability": "view",
      "type": "function"
    },
    {
      "inputs": [],
      "name": "ipfsRootBytes32",
      "outputs": [
        {
          "internalType": "bytes32",
          "name": "",
          "type": "bytes32"
        }
      ],
      "stateMutability": "view",
      "type": "function"
    },
    {
      "inputs": [
        {
          "internalType": "bytes32",
          "name": "_hash",
          "type": "bytes32"
        },
        {
          "internalType": "bytes",
          "name": "_signatures",
          "type": "bytes"
        }
      ],
      "name": "isValidSignature",
      "outputs": [
        {
          "internalType": "bytes4",
          "name": "",
          "type": "bytes4"
        }
      ],
      "stateMutability": "view",
      "type": "function"
    },
    {
      "inputs": [
        {
          "internalType": "bytes",
          "name": "_data",
          "type": "bytes"
        },
        {
          "internalType": "bytes",
          "name": "_signatures",
          "type": "bytes"
        }
      ],
      "name": "isValidSignature",
      "outputs": [
        {
          "internalType": "bytes4",
          "name": "",
          "type": "bytes4"
        }
      ],
      "stateMutability": "view",
      "type": "function"
    },
    {
      "inputs": [],
      "name": "nonce",
      "outputs": [
        {
          "internalType": "uint256",
          "name": "",
          "type": "uint256"
        }
      ],
      "stateMutability": "view",
      "type": "function"
    },
    {
      "inputs": [
        {
          "internalType": "address",
          "name": "",
          "type": "address"
        },
        {
          "internalType": "address",
          "name": "",
          "type": "address"
        },
        {
          "internalType": "uint256[]",
          "name": "",
          "type": "uint256[]"
        },
        {
          "internalType": "uint256[]",
          "name": "",
          "type": "uint256[]"
        },
        {
          "internalType": "bytes",
          "name": "",
          "type": "bytes"
        }
      ],
      "name": "onERC1155BatchReceived",
      "outputs": [
        {
          "internalType": "bytes4",
          "name": "",
          "type": "bytes4"
        }
      ],
      "stateMutability": "nonpayable",
      "type": "function"
    },
    {
      "inputs": [
        {
          "internalType": "address",
          "name": "",
          "type": "address"
        },
        {
          "internalType": "address",
          "name": "",
          "type": "address"
        },
        {
          "internalType": "uint256",
          "name": "",
          "type": "uint256"
        },
        {
          "internalType": "uint256",
          "name": "",
          "type": "uint256"
        },
        {
          "internalType": "bytes",
          "name": "",
          "type": "bytes"
        }
      ],
      "name": "onERC1155Received",
      "outputs": [
        {
          "internalType": "bytes4",
          "name": "",
          "type": "bytes4"
        }
      ],
      "stateMutability": "nonpayable",
      "type": "function"
    },
    {
      "inputs": [
        {
          "internalType": "address",
          "name": "",
          "type": "address"
        },
        {
          "internalType": "address",
          "name": "",
          "type": "address"
        },
        {
          "internalType": "uint256",
          "name": "",
          "type": "uint256"
        },
        {
          "internalType": "bytes",
          "name": "",
          "type": "bytes"
        }
      ],
      "name": "onERC721Received",
      "outputs": [
        {
          "internalType": "bytes4",
          "name": "",
          "type": "bytes4"
        }
      ],
      "stateMutability": "nonpayable",
      "type": "function"
    },
    {
      "inputs": [
        {
          "internalType": "bytes4",
          "name": "_signature",
          "type": "bytes4"
        }
      ],
      "name": "readHook",
      "outputs": [
        {
          "internalType": "address",
          "name": "",
          "type": "address"
        }
      ],
      "stateMutability": "view",
      "type": "function"
    },
    {
      "inputs": [
        {
          "internalType": "uint256",
          "name": "_space",
          "type": "uint256"
        }
      ],
      "name": "readNonce",
      "outputs": [
        {
          "internalType": "uint256",
          "name": "",
          "type": "uint256"
        }
      ],
      "stateMutability": "view",
      "type": "function"
    },
    {
      "inputs": [
        {
          "internalType": "bytes4",
          "name": "_signature",
          "type": "bytes4"
        }
      ],
      "name": "removeHook",
      "outputs": [],
      "stateMutability": "nonpayable",
      "type": "function"
    },
    {
      "inputs": [
        {
          "components": [
            {
              "internalType": "bool",
              "name": "delegateCall",
              "type": "bool"
            },
            {
              "internalType": "bool",
              "name": "revertOnError",
              "type": "bool"
            },
            {
              "internalType": "uint256",
              "name": "gasLimit",
              "type": "uint256"
            },
            {
              "internalType": "address",
              "name": "target",
              "type": "address"
            },
            {
              "internalType": "uint256",
              "name": "value",
              "type": "uint256"
            },
            {
              "internalType": "bytes",
              "name": "data",
              "type": "bytes"
            }
          ],
          "internalType": "struct IModuleCalls.Transaction[]",
          "name": "_txs",
          "type": "tuple[]"
        }
      ],
      "name": "selfExecute",
      "outputs": [],
      "stateMutability": "nonpayable",
      "type": "function"
    },
    {
      "inputs": [
        {
          "internalType": "bytes32",
          "name": "_imageHash",
          "type": "bytes32"
        },
        {
          "internalType": "uint256",
          "name": "_expiration",
          "type": "uint256"
        }
      ],
      "name": "setExtraImageHash",
      "outputs": [],
      "stateMutability": "nonpayable",
      "type": "function"
    },
    {
      "inputs": [
        {
          "internalType": "bytes32",
          "name": "_digest",
          "type": "bytes32"
        },
        {
          "internalType": "bytes",
          "name": "_signature",
          "type": "bytes"
        }
      ],
      "name": "signatureRecovery",
      "outputs": [
        {
          "internalType": "uint256",
          "name": "threshold",
          "type": "uint256"
        },
        {
          "internalType": "uint256",
          "name": "weight",
          "type": "uint256"
        },
        {
          "internalType": "bytes32",
          "name": "imageHash",
          "type": "bytes32"
        },
        {
          "internalType": "bytes32",
          "name": "subdigest",
          "type": "bytes32"
        },
        {
          "internalType": "uint256",
          "name": "checkpoint",
          "type": "uint256"
        }
      ],
      "stateMutability": "view",
      "type": "function"
    },
    {
      "inputs": [
        {
          "internalType": "bytes4",
          "name": "_interfaceID",
          "type": "bytes4"
        }
      ],
      "name": "supportsInterface",
      "outputs": [
        {
          "internalType": "bool",
          "name": "",
          "type": "bool"
        }
      ],
      "stateMutability": "pure",
      "type": "function"
    },
    {
      "inputs": [
        {
          "internalType": "bytes32",
          "name": "_hash",
          "type": "bytes32"
        }
      ],
      "name": "updateIPFSRoot",
      "outputs": [],
      "stateMutability": "nonpayable",
      "type": "function"
    },
    {
      "inputs": [
        {
          "internalType": "bytes32",
          "name": "_imageHash",
          "type": "bytes32"
        }
      ],
      "name": "updateImageHash",
      "outputs": [],
      "stateMutability": "nonpayable",
      "type": "function"
    },
    {
      "inputs": [
        {
          "internalType": "bytes32",
          "name": "_imageHash",
          "type": "bytes32"
        },
        {
          "internalType": "bytes32",
          "name": "_ipfsRoot",
          "type": "bytes32"
        }
      ],
      "name": "updateImageHashAndIPFS",
      "outputs": [],
      "stateMutability": "nonpayable",
      "type": "function"
    },
    {
      "inputs": [
        {
          "internalType": "address",
          "name": "_implementation",
          "type": "address"
        }
      ],
      "name": "updateImplementation",
      "outputs": [],
      "stateMutability": "nonpayable",
      "type": "function"
    },
    {
      "stateMutability": "payable",
      "type": "receive"
    }
  ],
  "bytecode": "0x60a060405234801561001057600080fd5b503060805260805161364b6100306000396000610c3f015261364b6000f3fe6080604052600436106101a55760003560e01c80637a9a1628116100e1578063a4ab5f9f1161008a578063bc197c8111610064578063bc197c81146105f9578063c71f1f9614610641578063d0748f7114610656578063f23a6e6114610676576101ac565b8063a4ab5f9f146105a4578063affed0e0146105c4578063b93ea7ad146105d9576101ac565b80638efa6441116100bb5780638efa64411461054f57806390042baf14610571578063a38cef1914610584576101ac565b80637a9a1628146104c7578063853c5068146104e75780638c3f55631461052f576101ac565b806320c13b0b1161014e5780634fcf3eca116101285780634fcf3eca1461043057806351605d801461045057806357c56d6b1461047357806361c2926c146104a7576101ac565b806320c13b0b146103d057806329561426146103f05780634598154f14610410576101ac565b8063150b7a021161017f578063150b7a02146102f55780631626ba7e1461036b5780631a9b23371461038b576101ac565b806301ffc9a714610280578063025b22bc146102b5578063038dbaac146102d5576101ac565b366101ac57005b60006101db6000357fffffffff00000000000000000000000000000000000000000000000000000000166106bc565b905073ffffffffffffffffffffffffffffffffffffffff81161561027e576000808273ffffffffffffffffffffffffffffffffffffffff16600036604051610224929190612aa9565b600060405180830381855af49150503d806000811461025f576040519150601f19603f3d011682016040523d82523d6000602084013e610264565b606091505b50915091508161027657805160208201fd5b805160208201f35b005b34801561028c57600080fd5b506102a061029b366004612ae7565b610710565b60405190151581526020015b60405180910390f35b3480156102c157600080fd5b5061027e6102d0366004612b2d565b61071b565b3480156102e157600080fd5b5061027e6102f0366004612b94565b61076d565b34801561030157600080fd5b5061033a610310366004612c18565b7f150b7a020000000000000000000000000000000000000000000000000000000095945050505050565b6040517fffffffff0000000000000000000000000000000000000000000000000000000090911681526020016102ac565b34801561037757600080fd5b5061033a610386366004612c87565b610878565b34801561039757600080fd5b506103ab6103a6366004612ae7565b6108c5565b60405173ffffffffffffffffffffffffffffffffffffffff90911681526020016102ac565b3480156103dc57600080fd5b5061033a6103eb366004612cd3565b6108d0565b3480156103fc57600080fd5b5061027e61040b366004612d3f565b610935565b34801561041c57600080fd5b5061027e61042b366004612d58565b61097f565b34801561043c57600080fd5b5061027e61044b366004612ae7565b610a44565b34801561045c57600080fd5b50610465610b73565b6040519081526020016102ac565b34801561047f57600080fd5b506104657f8713a7c4465f6fbee2b6e9d6646d1d9f83fec929edfc4baf661f3c865bdd04d181565b3480156104b357600080fd5b5061027e6104c2366004612b94565b610ba2565b3480156104d357600080fd5b5061027e6104e2366004612d7a565b610c28565b3480156104f357600080fd5b50610507610502366004612c87565b610d2d565b604080519586526020860194909452928401919091526060830152608082015260a0016102ac565b34801561053b57600080fd5b5061046561054a366004612d3f565b610ef5565b34801561055b57600080fd5b50610564610f21565b6040516102ac9190612e51565b6103ab61057f366004612e93565b610fa2565b34801561059057600080fd5b5061027e61059f366004612d3f565b61103e565b3480156105b057600080fd5b506104656105bf366004612d3f565b611088565b3480156105d057600080fd5b50610465611093565b3480156105e557600080fd5b5061027e6105f4366004612f62565b61109f565b34801561060557600080fd5b5061033a610614366004612f97565b7fbc197c810000000000000000000000000000000000000000000000000000000098975050505050505050565b34801561064d57600080fd5b506104656111e8565b34801561066257600080fd5b5061027e610671366004612d58565b611212565b34801561068257600080fd5b5061033a610691366004613052565b7ff23a6e61000000000000000000000000000000000000000000000000000000009695505050505050565b600061070a7fbe27a319efc8734e89e26ba4bc95f5c788584163b959f03fa04e2d7ab4b9a1207fffffffff000000000000000000000000000000000000000000000000000000008416611265565b92915050565b600061070a826112c3565b333014610761576040517fe12588940000000000000000000000000000000000000000000000000000000081523360048201523060248201526044015b60405180910390fd5b61076a8161131f565b50565b3330146107ae576040517fe1258894000000000000000000000000000000000000000000000000000000008152336004820152306024820152604401610758565b8060005b818110156108725760008484838181106107ce576107ce6130ca565b90506020020135905061082e816000604080517f849e7bdc245db17e50b9f43086f1914d70eb4dab6dd89af4d541d53353ad97de602080830191909152818301859052825180830384018152606090920190925280519101208190555050565b807f804f6171d6008d9e16ee3aa0561fec328397f4ba2827a6605db388cfdefa3b0c600060405161086191815260200190565b60405180910390a2506001016107b2565b50505050565b6000806108868585856113da565b50905080156108b857507f1626ba7e0000000000000000000000000000000000000000000000000000000090506108be565b50600090505b9392505050565b600061070a826106bc565b6000806108f586866040516108e6929190612aa9565b604051809103902085856113da565b509050801561092757507f20c13b0b00000000000000000000000000000000000000000000000000000000905061092d565b50600090505b949350505050565b333014610976576040517fe1258894000000000000000000000000000000000000000000000000000000008152336004820152306024820152604401610758565b61076a81611418565b3330146109c0576040517fe1258894000000000000000000000000000000000000000000000000000000008152336004820152306024820152604401610758565b604080517f849e7bdc245db17e50b9f43086f1914d70eb4dab6dd89af4d541d53353ad97de602080830191909152818301859052825180830384018152606083019384905280519101208390559082905282907f804f6171d6008d9e16ee3aa0561fec328397f4ba2827a6605db388cfdefa3b0c9060800160405180910390a25050565b333014610a85576040517fe1258894000000000000000000000000000000000000000000000000000000008152336004820152306024820152604401610758565b6000610a90826106bc565b73ffffffffffffffffffffffffffffffffffffffff1603610b01576040517f1c3812cc0000000000000000000000000000000000000000000000000000000081527fffffffff0000000000000000000000000000000000000000000000000000000082166004820152602401610758565b604080517fbe27a319efc8734e89e26ba4bc95f5c788584163b959f03fa04e2d7ab4b9a1206020808301919091527fffffffff00000000000000000000000000000000000000000000000000000000841682840152825180830384018152606090920190925280519101206000905550565b6000610b9d7fea7157fa25e3aa17d0ae2d5280fa4e24d421c61842aa85e45194e1145aa72bf85490565b905090565b333014610be3576040517fe1258894000000000000000000000000000000000000000000000000000000008152336004820152306024820152604401610758565b6000610c168383604051602001610bfb9291906132a1565b604051602081830303815290604052805190602001206114a8565b9050610c2381848461152d565b505050565b73ffffffffffffffffffffffffffffffffffffffff7f0000000000000000000000000000000000000000000000000000000000000000163003610c97576040517f0a57d61d00000000000000000000000000000000000000000000000000000000815260040160405180910390fd5b610ca0836116b5565b600080610cd8858888604051602001610cbb939291906132e9565b6040516020818303038152906040528051906020012085856113da565b9150915081610d19578084846040517f8f4a234f0000000000000000000000000000000000000000000000000000000081526004016107589392919061330c565b610d2481888861152d565b50505050505050565b60008060008060008087876000818110610d4957610d496130ca565b909101357fff00000000000000000000000000000000000000000000000000000000000000169150819050610d9f57610d81896114a8565b9250610d8e8389896117b2565b92985090965094509150610eea9050565b7fff0000000000000000000000000000000000000000000000000000000000000081811601610dde57610dd1896114a8565b9250610d8e838989611803565b7ffe000000000000000000000000000000000000000000000000000000000000007fff00000000000000000000000000000000000000000000000000000000000000821601610e3057610dd18961182f565b7ffd000000000000000000000000000000000000000000000000000000000000007fff00000000000000000000000000000000000000000000000000000000000000821601610e9457610e8489898961189c565b9550955095509550955050610eea565b6040517f6085cd820000000000000000000000000000000000000000000000000000000081527fff0000000000000000000000000000000000000000000000000000000000000082166004820152602401610758565b939792965093509350565b600061070a7f8d0bf1fd623d628c741362c1289948e57b3e2905218c676d3e69abee36d6ae2e83611265565b6060610f7e610f79610f316111e8565b6040517f017012200000000000000000000000000000000000000000000000000000000060208201526024810191909152604401604051602081830303815290604052611a19565b611c32565b604051602001610f8e9190613326565b604051602081830303815290604052905090565b6000333014610fe5576040517fe1258894000000000000000000000000000000000000000000000000000000008152336004820152306024820152604401610758565b81516020830134f060405173ffffffffffffffffffffffffffffffffffffffff821681529091507fa506ad4e7f05eceba62a023c3219e5bd98a615f4fa87e2afb08a2da5cf62bf0c9060200160405180910390a1919050565b33301461107f576040517fe1258894000000000000000000000000000000000000000000000000000000008152336004820152306024820152604401610758565b61076a81611c5b565b600061070a82611cb4565b6000610b9d6000610ef5565b3330146110e0576040517fe1258894000000000000000000000000000000000000000000000000000000008152336004820152306024820152604401610758565b60006110eb836106bc565b73ffffffffffffffffffffffffffffffffffffffff161461115c576040517f5b4d6d6a0000000000000000000000000000000000000000000000000000000081527fffffffff0000000000000000000000000000000000000000000000000000000083166004820152602401610758565b604080517fbe27a319efc8734e89e26ba4bc95f5c788584163b959f03fa04e2d7ab4b9a1206020808301919091527fffffffff000000000000000000000000000000000000000000000000000000008516828401528251808303840181526060909201909252805191012073ffffffffffffffffffffffffffffffffffffffff821690555050565b5050565b6000610b9d7f0eecac93ced8722d209199364cda3bc33da3bc3a23daef6be49ebd780511d0335490565b333014611253576040517fe1258894000000000000000000000000000000000000000000000000000000008152336004820152306024820152604401610758565b61125c82611418565b6111e481611c5b565b6000808383604051602001611284929190918252602082015260400190565b604080517fffffffffffffffffffffffffffffffffffffffffffffffffffffffffffffffe0818403018152919052805160209091012054949350505050565b60007f6ffbd451000000000000000000000000000000000000000000000000000000007fffffffff0000000000000000000000000000000000000000000000000000000083160161131657506001919050565b61070a82611ce0565b73ffffffffffffffffffffffffffffffffffffffff81163b611385576040517f0c76093700000000000000000000000000000000000000000000000000000000815273ffffffffffffffffffffffffffffffffffffffff82166004820152602401610758565b61138d813055565b60405173ffffffffffffffffffffffffffffffffffffffff821681527f310ba5f1d2ed074b51e2eccd052a47ae9ab7c6b800d1fca3db3999d6a592ca03906020015b60405180910390a150565b60008060008060006113ed888888610d2d565b5096509194509250905082821080159061140b575061140b81611e21565b9450505050935093915050565b8061144f576040517f4294d12700000000000000000000000000000000000000000000000000000000815260040160405180910390fd5b6114787fea7157fa25e3aa17d0ae2d5280fa4e24d421c61842aa85e45194e1145aa72bf8829055565b6040518181527f307ed6bd941ee9fc80f369c94af5fa11e25bab5102a6140191756c5474a30bfa906020016113cf565b6040517f190100000000000000000000000000000000000000000000000000000000000060208201524660228201527fffffffffffffffffffffffffffffffffffffffff0000000000000000000000003060601b166042820152605681018290526000906076015b604051602081830303815290604052805190602001209050919050565b8060005b818110156116ae573684848381811061154c5761154c6130ca565b905060200281019061155e919061336b565b90506040810135805a10156115b35782815a6040517f2bb3e3ba000000000000000000000000000000000000000000000000000000008152600481019390935260248301919091526044820152606401610758565b60006115c260208401846133a9565b15611601576115fa6115da6080850160608601612b2d565b83156115e657836115e8565b5a5b6115f560a08701876133c4565b611e2c565b905061163c565b6116396116146080850160608601612b2d565b608085013584156116255784611627565b5a5b61163460a08801886133c4565b611e47565b90505b801561168157877f5c4eeb02dabf8976016ab414d617f9a162936dcace3cdef8c69ef6e262ad5ae78560405161167491815260200190565b60405180910390a26116a3565b6116a361169460408501602086016133a9565b898661169e611e64565b611e83565b505050600101611531565b5050505050565b606081901c6bffffffffffffffffffffffff821660006116d483610ef5565b9050818114611720576040517f9b6514f4000000000000000000000000000000000000000000000000000000008152600481018490526024810183905260448101829052606401610758565b604080517f8d0bf1fd623d628c741362c1289948e57b3e2905218c676d3e69abee36d6ae2e60208083019190915281830186905282518083038401815260609092019092528051910120600183019081905560408051858152602081018390527f1f180c27086c7a39ea2a7b25239d1ab92348f07ca7bb59d1438fcf527568f881910160405180910390a15050505050565b60008080806117cd876117c8876006818b613429565b611ed1565b6000908152873560f01c6020818152604080842084526002909a013560e01c908190529890912090999198509695509350505050565b600080808061181e87611819876001818b613429565b6117b2565b935093509350935093509350935093565b6040517f190100000000000000000000000000000000000000000000000000000000000060208201526000602282018190527fffffffffffffffffffffffffffffffffffffffff0000000000000000000000003060601b1660428301526056820183905290607601611510565b6000808080806004600188013560e81c826118b78383613482565b90506118c98b61050283868d8f613429565b939b5091995097509550935087871015611921576118e981848b8d613429565b89896040517fb006aba00000000000000000000000000000000000000000000000000000000081526004016107589493929190613495565b8092505b88831015611a0b5760038301928a013560e81c91506119448383613482565b9050600061196661195488612367565b8c8c8790869261050293929190613429565b939c50919a50985090915050888810156119be5761198682858c8e613429565b8a8a6040517fb006aba00000000000000000000000000000000000000000000000000000000081526004016107589493929190613495565b848110611a01576040517f37daf62b0000000000000000000000000000000000000000000000000000000081526004810182905260248101869052604401610758565b9350915081611925565b505050939792965093509350565b8051606090600381901b60006005600483010467ffffffffffffffff811115611a4457611a44612e64565b6040519080825280601f01601f191660200182016040528015611a6e576020820181803683370190505b5090506000806000805b86811015611b8257888181518110611a9257611a926130ca565b01602001516008948501949390931b60f89390931c92909217915b60058410611b7a576040805180820190915260208082527f6162636465666768696a6b6c6d6e6f707172737475767778797a323334353637818301527ffffffffffffffffffffffffffffffffffffffffffffffffffffffffffffffffb90950194601f85871c16908110611b2357611b236130ca565b602001015160f81c60f81b858381518110611b4057611b406130ca565b60200101907effffffffffffffffffffffffffffffffffffffffffffffffffffffffffffff1916908160001a905350600190910190611aad565b600101611a78565b508215611c26576040518060400160405280602081526020017f6162636465666768696a6b6c6d6e6f707172737475767778797a3233343536378152508360050383901b601f1681518110611bd957611bd96130ca565b602001015160f81c60f81b848281518110611bf657611bf66130ca565b60200101907effffffffffffffffffffffffffffffffffffffffffffffffffffffffffffff1916908160001a9053505b50919695505050505050565b606081604051602001611c4591906134bc565b6040516020818303038152906040529050919050565b611c847f0eecac93ced8722d209199364cda3bc33da3bc3a23daef6be49ebd780511d033829055565b6040518181527f20d3ef1b5738a9f6d7beae515432206e7a8e2740ca6dcf46a952190ad01bcb51906020016113cf565b600061070a7f849e7bdc245db17e50b9f43086f1914d70eb4dab6dd89af4d541d53353ad97de83611265565b60007fffffffff0000000000000000000000000000000000000000000000000000000082167fec6aba50000000000000000000000000000000000000000000000000000000001480611d7357507fffffffff0000000000000000000000000000000000000000000000000000000082167f4e2312e000000000000000000000000000000000000000000000000000000000145b80611dbf57507fffffffff0000000000000000000000000000000000000000000000000000000082167f150b7a0200000000000000000000000000000000000000000000000000000000145b80611e0b57507fffffffff0000000000000000000000000000000000000000000000000000000082167fc0ee0b8a00000000000000000000000000000000000000000000000000000000145b15611e1857506001919050565b61070a8261239b565b600061070a826123f7565b60006040518284823760008084838989f49695505050505050565b6000604051828482376000808483898b8af1979650505050505050565b60603d604051915060208201818101604052818352816000823e505090565b8315611e9157805160208201fd5b827fab46c69f7f32e1bf09b0725853da82a211e5402a0600296ab499a2fb5ea3b4198383604051611ec3929190613501565b60405180910390a250505050565b60008060005b8381101561235e57600181019085013560f81c7fffffffffffffffffffffffffffffffffffffffffffffffffffffffffffffffff8101611f7857601582019186013560f881901c9060581c73ffffffffffffffffffffffffffffffffffffffff81169074ff000000000000000000000000000000000000000016811785611f5e5780611f6d565b60008681526020829052604090205b955050505050611ed7565b8061200e5760018201918681013560f81c906043016000611fa48a611f9f84888c8e613429565b61242e565b60ff841697909701969194508491905060a083901b74ff00000000000000000000000000000000000000001673ffffffffffffffffffffffffffffffffffffffff82161786611ff35780612002565b60008781526020829052604090205b96505050505050611ed7565b60028103612136576000808784013560f881901c9060581c73ffffffffffffffffffffffffffffffffffffffff16601586019550909250905060008885013560e81c600386018162ffffff1691508096508192505050600081860190506120878b848c8c8a90869261208293929190613429565b6126f1565b6120cf578a8361209983898d8f613429565b6040517f9a946232000000000000000000000000000000000000000000000000000000008152600401610758949392919061351a565b60ff8416979097019694508460a084901b74ff00000000000000000000000000000000000000001673ffffffffffffffffffffffffffffffffffffffff8416178761211a5780612129565b60008881526020829052604090205b9750505050505050611ed7565b60038103612169576020820191860135836121515780612160565b60008481526020829052604090205b93505050611ed7565b600481036121b5576003808301928781013560e81c91908201016000806121968b6117c885898d8f613429565b60009889526020526040909720969097019650909350611ed792505050565b600681036122bd5760008287013560f81c60018401935060ff16905060008784013560f01c60028501945061ffff16905060008885013560e81c600386018162ffffff1691508096508192505050600081860190506000806122238d8d8d8b9087926117c893929190613429565b9398508893909250905084821061223957988501985b604080517f53657175656e6365206e657374656420636f6e6669673a0a0000000000000000602080830191909152603882018490526058820188905260788083018a905283518084039091018152609890920190925280519101208961229f57806122ae565b60008a81526020829052604090205b99505050505050505050611ed7565b600581036123295760208201918601358781036122f8577fffffffffffffffffffffffffffffffffffffffffffffffffffffffffffffffff94505b60006123038261289e565b905084612310578061231f565b60008581526020829052604090205b9450505050611ed7565b6040517fb2505f7c00000000000000000000000000000000000000000000000000000000815260048101829052602401610758565b50935093915050565b7f8713a7c4465f6fbee2b6e9d6646d1d9f83fec929edfc4baf661f3c865bdd04d1600090815260208290526040812061070a565b60007ffda4dd44000000000000000000000000000000000000000000000000000000007fffffffff000000000000000000000000000000000000000000000000000000008316016123ee57506001919050565b61070a826128d9565b600061240282612935565b1561240f57506001919050565b600061241a83611cb4565b905080158015906108be5750421092915050565b60006042821461246e5782826040517f2ee17a3d00000000000000000000000000000000000000000000000000000000815260040161075892919061355a565b600061248761247e60018561356e565b85013560f81c90565b60ff169050604084013560f81c843560208601357f7fffffffffffffffffffffffffffffff5d576e7357a4501ddfe92f46681b20a08111156124fb578686826040517fad4aac7600000000000000000000000000000000000000000000000000000000815260040161075893929190613581565b8260ff16601b1415801561251357508260ff16601c14155b15612550578686846040517fe578897e000000000000000000000000000000000000000000000000000000008152600401610758939291906135a5565b600184036125bd576040805160008152602081018083528a905260ff851691810191909152606081018390526080810182905260019060a0015b6020604051602081039080840390855afa1580156125ac573d6000803e3d6000fd5b505050602060405103519450612695565b6002840361265a576040517f19457468657265756d205369676e6564204d6573736167653a0a3332000000006020820152603c8101899052600190605c01604080517fffffffffffffffffffffffffffffffffffffffffffffffffffffffffffffffe08184030181528282528051602091820120600084529083018083525260ff861690820152606081018490526080810183905260a00161258a565b86868560016040517f9dfba85200000000000000000000000000000000000000000000000000000000815260040161075894939291906135cc565b73ffffffffffffffffffffffffffffffffffffffff85166126e65786866040517f6c1719d200000000000000000000000000000000000000000000000000000000815260040161075892919061355a565b505050509392505050565b600080838361270160018261356e565b818110612710576127106130ca565b919091013560f81c915050600181148061272a5750600281145b1561276f578473ffffffffffffffffffffffffffffffffffffffff1661275187868661242e565b73ffffffffffffffffffffffffffffffffffffffff16149150612895565b6003810361285a5773ffffffffffffffffffffffffffffffffffffffff8516631626ba7e87866000876127a360018261356e565b926127b093929190613429565b6040518463ffffffff1660e01b81526004016127ce9392919061330c565b602060405180830381865afa1580156127eb573d6000803e3d6000fd5b505050506040513d601f19601f8201168201806040525081019061280f91906135f8565b7fffffffff00000000000000000000000000000000000000000000000000000000167f1626ba7e00000000000000000000000000000000000000000000000000000000149150612895565b83838260006040517f9dfba85200000000000000000000000000000000000000000000000000000000815260040161075894939291906135cc565b50949350505050565b6040517f53657175656e636520737461746963206469676573743a0a0000000000000000602082015260388101829052600090605801611510565b60007fe4a77bbc000000000000000000000000000000000000000000000000000000007fffffffff0000000000000000000000000000000000000000000000000000000083160161292c57506001919050565b61070a82612968565b6000811580159061070a5750507fea7157fa25e3aa17d0ae2d5280fa4e24d421c61842aa85e45194e1145aa72bf8541490565b60007fae9fa280000000000000000000000000000000000000000000000000000000007fffffffff000000000000000000000000000000000000000000000000000000008316016129bb57506001919050565b61070a8260007fffffffff0000000000000000000000000000000000000000000000000000000082167fac6a444e000000000000000000000000000000000000000000000000000000001480612a5257507fffffffff0000000000000000000000000000000000000000000000000000000082167f36e7817500000000000000000000000000000000000000000000000000000000145b15612a5f57506001919050565b7f01ffc9a7000000000000000000000000000000000000000000000000000000007fffffffff0000000000000000000000000000000000000000000000000000000083161461070a565b8183823760009101908152919050565b7fffffffff000000000000000000000000000000000000000000000000000000008116811461076a57600080fd5b600060208284031215612af957600080fd5b81356108be81612ab9565b803573ffffffffffffffffffffffffffffffffffffffff81168114612b2857600080fd5b919050565b600060208284031215612b3f57600080fd5b6108be82612b04565b60008083601f840112612b5a57600080fd5b50813567ffffffffffffffff811115612b7257600080fd5b6020830191508360208260051b8501011115612b8d57600080fd5b9250929050565b60008060208385031215612ba757600080fd5b823567ffffffffffffffff811115612bbe57600080fd5b612bca85828601612b48565b90969095509350505050565b60008083601f840112612be857600080fd5b50813567ffffffffffffffff811115612c0057600080fd5b602083019150836020828501011115612b8d57600080fd5b600080600080600060808688031215612c3057600080fd5b612c3986612b04565b9450612c4760208701612b04565b935060408601359250606086013567ffffffffffffffff811115612c6a57600080fd5b612c7688828901612bd6565b969995985093965092949392505050565b600080600060408486031215612c9c57600080fd5b83359250602084013567ffffffffffffffff811115612cba57600080fd5b612cc686828701612bd6565b9497909650939450505050565b60008060008060408587031215612ce957600080fd5b843567ffffffffffffffff80821115612d0157600080fd5b612d0d88838901612bd6565b90965094506020870135915080821115612d2657600080fd5b50612d3387828801612bd6565b95989497509550505050565b600060208284031215612d5157600080fd5b5035919050565b60008060408385031215612d6b57600080fd5b50508035926020909101359150565b600080600080600060608688031215612d9257600080fd5b853567ffffffffffffffff80821115612daa57600080fd5b612db689838a01612b48565b9097509550602088013594506040880135915080821115612dd657600080fd5b50612c7688828901612bd6565b60005b83811015612dfe578181015183820152602001612de6565b50506000910152565b60008151808452612e1f816020860160208601612de3565b601f017fffffffffffffffffffffffffffffffffffffffffffffffffffffffffffffffe0169290920160200192915050565b6020815260006108be6020830184612e07565b7f4e487b7100000000000000000000000000000000000000000000000000000000600052604160045260246000fd5b600060208284031215612ea557600080fd5b813567ffffffffffffffff80821115612ebd57600080fd5b818401915084601f830112612ed157600080fd5b813581811115612ee357612ee3612e64565b604051601f82017fffffffffffffffffffffffffffffffffffffffffffffffffffffffffffffffe0908116603f01168101908382118183101715612f2957612f29612e64565b81604052828152876020848701011115612f4257600080fd5b826020860160208301376000928101602001929092525095945050505050565b60008060408385031215612f7557600080fd5b8235612f8081612ab9565b9150612f8e60208401612b04565b90509250929050565b60008060008060008060008060a0898b031215612fb357600080fd5b612fbc89612b04565b9750612fca60208a01612b04565b9650604089013567ffffffffffffffff80821115612fe757600080fd5b612ff38c838d01612b48565b909850965060608b013591508082111561300c57600080fd5b6130188c838d01612b48565b909650945060808b013591508082111561303157600080fd5b5061303e8b828c01612bd6565b999c989b5096995094979396929594505050565b60008060008060008060a0878903121561306b57600080fd5b61307487612b04565b955061308260208801612b04565b94506040870135935060608701359250608087013567ffffffffffffffff8111156130ac57600080fd5b6130b889828a01612bd6565b979a9699509497509295939492505050565b7f4e487b7100000000000000000000000000000000000000000000000000000000600052603260045260246000fd5b80358015158114612b2857600080fd5b8183528181602085013750600060208284010152600060207fffffffffffffffffffffffffffffffffffffffffffffffffffffffffffffffe0601f840116840101905092915050565b81835260006020808501808196508560051b810191508460005b8781101561329457828403895281357fffffffffffffffffffffffffffffffffffffffffffffffffffffffffffffff418836030181126131ab57600080fd5b870160c06131b8826130f9565b151586526131c78783016130f9565b15158688015260408281013590870152606073ffffffffffffffffffffffffffffffffffffffff6131f9828501612b04565b16908701526080828101359087015260a080830135368490037fffffffffffffffffffffffffffffffffffffffffffffffffffffffffffffffe101811261323f57600080fd5b90920187810192903567ffffffffffffffff81111561325d57600080fd5b80360384131561326c57600080fd5b828289015261327e8389018286613109565b9c89019c9750505092860192505060010161316c565b5091979650505050505050565b60408152600560408201527f73656c663a000000000000000000000000000000000000000000000000000000606082015260806020820152600061092d608083018486613152565b838152604060208201526000613303604083018486613152565b95945050505050565b838152604060208201526000613303604083018486613109565b7f697066733a2f2f0000000000000000000000000000000000000000000000000081526000825161335e816007850160208701612de3565b9190910160070192915050565b600082357fffffffffffffffffffffffffffffffffffffffffffffffffffffffffffffff4183360301811261339f57600080fd5b9190910192915050565b6000602082840312156133bb57600080fd5b6108be826130f9565b60008083357fffffffffffffffffffffffffffffffffffffffffffffffffffffffffffffffe18436030181126133f957600080fd5b83018035915067ffffffffffffffff82111561341457600080fd5b602001915036819003821315612b8d57600080fd5b6000808585111561343957600080fd5b8386111561344657600080fd5b5050820193919092039150565b7f4e487b7100000000000000000000000000000000000000000000000000000000600052601160045260246000fd5b8082018082111561070a5761070a613453565b6060815260006134a9606083018688613109565b6020830194909452506040015292915050565b7f62000000000000000000000000000000000000000000000000000000000000008152600082516134f4816001850160208701612de3565b9190910160010192915050565b82815260406020820152600061092d6040830184612e07565b84815273ffffffffffffffffffffffffffffffffffffffff84166020820152606060408201526000613550606083018486613109565b9695505050505050565b60208152600061092d602083018486613109565b8181038181111561070a5761070a613453565b604081526000613595604083018587613109565b9050826020830152949350505050565b6040815260006135b9604083018587613109565b905060ff83166020830152949350505050565b6060815260006135e0606083018688613109565b60208301949094525090151560409091015292915050565b60006020828403121561360a57600080fd5b81516108be81612ab956fea264697066735822122083e190f9f4a88a66e8c801291bce851d4687ea94e3a64ef60dfc9cae825f005264736f6c63430008120033",
  "linkReferences": {},
  "deployedLinkReferences": {}
}