{
  "_format": "hh-sol-artifact-1",
  "contractName": "ModuleCreator",
  "sourceName": "contracts/modules/commons/ModuleCreator.sol",
  "abi": [
    {
      "inputs": [
        {
          "internalType": "bytes",
          "name": "_code",
          "type": "bytes"
        }
      ],
      "name": "CreateFailed",
      "type": "error"
    },
    {
      "inputs": [
        {
          "internalType": "address",
          "name": "_sender",
          "type": "address"
        },
        {
          "internalType": "address",
          "name": "_self",
          "type": "address"
        }
      ],
      "name": "OnlySelfAuth",
      "type": "error"
    },
    {
      "anonymous": false,
      "inputs": [
        {
          "indexed": false,
          "internalType": "address",
          "name": "_contract",
          "type": "address"
        }
      ],
      "name": "CreatedContract",
      "type": "event"
    },
    {
      "inputs": [
        {
          "internalType": "bytes",
          "name": "_code",
          "type": "bytes"
        }
      ],
      "name": "createContract",
      "outputs": [
        {
          "internalType": "address",
          "name": "addr",
          "type": "address"
        }
      ],
      "stateMutability": "payable",
      "type": "function"
    },
    {
      "inputs": [
        {
          "internalType": "bytes4",
          "name": "_interfaceID",
          "type": "bytes4"
        }
      ],
      "name": "supportsInterface",
      "outputs": [
        {
          "internalType": "bool",
          "name": "",
          "type": "bool"
        }
      ],
      "stateMutability": "pure",
      "type": "function"
    }
  ],
  "bytecode": "0x608060405234801561001057600080fd5b5061040e806100206000396000f3fe6080604052600436106100295760003560e01c806301ffc9a71461002e57806390042baf14610063575b600080fd5b34801561003a57600080fd5b5061004e610049366004610225565b61009b565b60405190151581526020015b60405180910390f35b61007661007136600461029d565b610136565b60405173ffffffffffffffffffffffffffffffffffffffff909116815260200161005a565b60007f6ffbd451000000000000000000000000000000000000000000000000000000007fffffffff000000000000000000000000000000000000000000000000000000008316016100ee57506001919050565b507fffffffff00000000000000000000000000000000000000000000000000000000167f01ffc9a7000000000000000000000000000000000000000000000000000000001490565b600033301461017e576040517fe12588940000000000000000000000000000000000000000000000000000000081523360048201523060248201526044015b60405180910390fd5b81516020830134f0905073ffffffffffffffffffffffffffffffffffffffff81166101d757816040517f0d257191000000000000000000000000000000000000000000000000000000008152600401610175919061036c565b60405173ffffffffffffffffffffffffffffffffffffffff821681527fa506ad4e7f05eceba62a023c3219e5bd98a615f4fa87e2afb08a2da5cf62bf0c9060200160405180910390a1919050565b60006020828403121561023757600080fd5b81357fffffffff000000000000000000000000000000000000000000000000000000008116811461026757600080fd5b9392505050565b7f4e487b7100000000000000000000000000000000000000000000000000000000600052604160045260246000fd5b6000602082840312156102af57600080fd5b813567ffffffffffffffff808211156102c757600080fd5b818401915084601f8301126102db57600080fd5b8135818111156102ed576102ed61026e565b604051601f82017fffffffffffffffffffffffffffffffffffffffffffffffffffffffffffffffe0908116603f011681019083821181831017156103335761033361026e565b8160405282815287602084870101111561034c57600080fd5b826020860160208301376000928101602001929092525095945050505050565b600060208083528351808285015260005b818110156103995785810183015185820160400152820161037d565b5060006040828601015260407fffffffffffffffffffffffffffffffffffffffffffffffffffffffffffffffe0601f830116850101925050509291505056fea264697066735822122006e03e11c82eb5f10f2958bbc903f4d28121cd3900c5cc87b7e12d422460190264736f6c63430008120033",
  "linkReferences": {},
  "deployedLinkReferences": {}
}