{"abi":[{"type":"function","name":"queuePayload","inputs":[{"name":"_wallet","type":"address","internalType":"address"},{"name":"_signer","type":"address","internalType":"address"},{"name":"_payload","type":"tuple","internalType":"struct Payload.Decoded","components":[{"name":"kind","type":"uint8","internalType":"uint8"},{"name":"noChainId","type":"bool","internalType":"bool"},{"name":"calls","type":"tuple[]","internalType":"struct Payload.Call[]","components":[{"name":"to","type":"address","internalType":"address"},{"name":"value","type":"uint256","internalType":"uint256"},{"name":"data","type":"bytes","internalType":"bytes"},{"name":"gasLimit","type":"uint256","internalType":"uint256"},{"name":"delegateCall","type":"bool","internalType":"bool"},{"name":"onlyFallback","type":"bool","internalType":"bool"},{"name":"behaviorOnError","type":"uint256","internalType":"uint256"}]},{"name":"space","type":"uint256","internalType":"uint256"},{"name":"nonce","type":"uint256","internalType":"uint256"},{"name":"message","type":"bytes","internalType":"bytes"},{"name":"imageHash","type":"bytes32","internalType":"bytes32"},{"name":"digest","type":"bytes32","internalType":"bytes32"},{"name":"parentWallets","type":"address[]","internalType":"address[]"}]},{"name":"_signature","type":"bytes","internalType":"bytes"}],"outputs":[],"stateMutability":"nonpayable"},{"type":"function","name":"queuedPayloadHashes","inputs":[{"name":"","type":"address","internalType":"address"},{"name":"","type":"address","internalType":"address"},{"name":"","type":"uint256","internalType":"uint256"}],"outputs":[{"name":"","type":"bytes32","internalType":"bytes32"}],"stateMutability":"view"},{"type":"function","name":"recoverSapientSignatureCompact","inputs":[{"name":"_payloadHash","type":"bytes32","internalType":"bytes32"},{"name":"_signature","type":"bytes","internalType":"bytes"}],"outputs":[{"name":"","type":"bytes32","internalType":"bytes32"}],"stateMutability":"view"},{"type":"function","name":"recoveryPayloadHash","inputs":[{"name":"_wallet","type":"address","internalType":"address"},{"name":"_payload","type":"tuple","internalType":"struct Payload.Decoded","components":[{"name":"kind","type":"uint8","internalType":"uint8"},{"name":"noChainId","type":"bool","internalType":"bool"},{"name":"calls","type":"tuple[]","internalType":"struct Payload.Call[]","components":[{"name":"to","type":"address","internalType":"address"},{"name":"value","type":"uint256","internalType":"uint256"},{"name":"data","type":"bytes","internalType":"bytes"},{"name":"gasLimit","type":"uint256","internalType":"uint256"},{"name":"delegateCall","type":"bool","internalType":"bool"},{"name":"onlyFallback","type":"bool","internalType":"bool"},{"name":"behaviorOnError","type":"uint256","internalType":"uint256"}]},{"name":"space","type":"uint256","internalType":"uint256"},{"name":"nonce","type":"uint256","internalType":"uint256"},{"name":"message","type":"bytes","internalType":"bytes"},{"name":"imageHash","type":"bytes32","internalType":"bytes32"},{"name":"digest","type":"bytes32","internalType":"bytes32"},{"name":"parentWallets","type":"address[]","internalType":"address[]"}]}],"outputs":[{"name":"","type":"bytes32","internalType":"bytes32"}],"stateMutability":"view"},{"type":"function","name":"timestampForQueuedPayload","inputs":[{"name":"","type":"address","internalType":"address"},{"name":"","type":"address","internalType":"address"},{"name":"","type":"bytes32","internalType":"bytes32"}],"outputs":[{"name":"","type":"uint256","internalType":"uint256"}],"stateMutability":"view"},{"type":"function","name":"totalQueuedPayloads","inputs":[{"name":"_wallet","type":"address","internalType":"address"},{"name":"_signer","type":"address","internalType":"address"}],"outputs":[{"name":"","type":"uint256","internalType":"uint256"}],"stateMutability":"view"},{"type":"event","name":"NewQueuedPayload","inputs":[{"name":"_wallet","type":"address","indexed":false,"internalType":"address"},{"name":"_signer","type":"address","indexed":false,"internalType":"address"},{"name":"_payloadHash","type":"bytes32","indexed":false,"internalType":"bytes32"},{"name":"_timestamp","type":"uint256","indexed":false,"internalType":"uint256"}],"anonymous":false},{"type":"error","name":"AlreadyQueued","inputs":[{"name":"_wallet","type":"address","internalType":"address"},{"name":"_signer","type":"address","internalType":"address"},{"name":"_payloadHash","type":"bytes32","internalType":"bytes32"}]},{"type":"error","name":"InvalidKind","inputs":[{"name":"kind","type":"uint8","internalType":"uint8"}]},{"type":"error","name":"InvalidSignature","inputs":[{"name":"_wallet","type":"address","internalType":"address"},{"name":"_signer","type":"address","internalType":"address"},{"name":"_payload","type":"tuple","internalType":"struct Payload.Decoded","components":[{"name":"kind","type":"uint8","internalType":"uint8"},{"name":"noChainId","type":"bool","internalType":"bool"},{"name":"calls","type":"tuple[]","internalType":"struct Payload.Call[]","components":[{"name":"to","type":"address","internalType":"address"},{"name":"value","type":"uint256","internalType":"uint256"},{"name":"data","type":"bytes","internalType":"bytes"},{"name":"gasLimit","type":"uint256","internalType":"uint256"},{"name":"delegateCall","type":"bool","internalType":"bool"},{"name":"onlyFallback","type":"bool","internalType":"bool"},{"name":"behaviorOnError","type":"uint256","internalType":"uint256"}]},{"name":"space","type":"uint256","internalType":"uint256"},{"name":"nonce","type":"uint256","internalType":"uint256"},{"name":"message","type":"bytes","internalType":"bytes"},{"name":"imageHash","type":"bytes32","internalType":"bytes32"},{"name":"digest","type":"bytes32","internalType":"bytes32"},{"name":"parentWallets","type":"address[]","internalType":"address[]"}]},{"name":"_signature","type":"bytes","internalType":"bytes"}]},{"type":"error","name":"InvalidSignatureFlag","inputs":[{"name":"_flag","type":"uint256","internalType":"uint256"}]},{"type":"error","name":"QueueNotReady","inputs":[{"name":"_wallet","type":"address","internalType":"address"},{"name":"_payloadHash","type":"bytes32","internalType":"bytes32"}]}],"bytecode":{"object":"0x6080806040523460155761191d908161001b8239f35b600080fdfe6080604052600436101561001257600080fd5b60003560e01c80630e159f8014610077578063898bd92114610072578063b00c84841461006d578063b05f87db14610068578063d834bcbf146100635763ec08af331461005e57600080fd5b610656565b6105a2565b6102e6565b61027b565b6101b6565b3461011c5760607ffffffffffffffffffffffffffffffffffffffffffffffffffffffffffffffffc36011261011c576100ae610121565b6101056100b9610144565b73ffffffffffffffffffffffffffffffffffffffff6044359316600052600060205260406000209073ffffffffffffffffffffffffffffffffffffffff16600052602052604060002090565b906000526020526020604060002054604051908152f35b600080fd5b6004359073ffffffffffffffffffffffffffffffffffffffff8216820361011c57565b6024359073ffffffffffffffffffffffffffffffffffffffff8216820361011c57565b359073ffffffffffffffffffffffffffffffffffffffff8216820361011c57565b9181601f8401121561011c5782359167ffffffffffffffff831161011c576020838186019501011161011c57565b3461011c5760407ffffffffffffffffffffffffffffffffffffffffffffffffffffffffffffffffc36011261011c5760043560243567ffffffffffffffff811161011c5761020b610213913690600401610188565b90833361102f565b901561022457602090604051908152f35b507f904689fc0000000000000000000000000000000000000000000000000000000060005273ffffffffffffffffffffffffffffffffffffffff331660045260245260446000fd5b908161012091031261011c5790565b3461011c5760407ffffffffffffffffffffffffffffffffffffffffffffffffffffffffffffffffc36011261011c576102b2610121565b60243567ffffffffffffffff811161011c576020916102d86102de92369060040161026c565b90610a7f565b604051908152f35b3461011c5760807ffffffffffffffffffffffffffffffffffffffffffffffffffffffffffffffffc36011261011c5761031d610121565b610325610144565b60443567ffffffffffffffff811161011c5761034590369060040161026c565b60643567ffffffffffffffff811161011c57610365903690600401610188565b90610373828285878961146c565b1561051b5750508261038961038e9236906109b3565b6115e6565b906103f5826103e6836103c18773ffffffffffffffffffffffffffffffffffffffff166000526000602052604060002090565b9073ffffffffffffffffffffffffffffffffffffffff16600052602052604060002090565b90600052602052604060002090565b546104cc576104c77faeb5575092e25ccd826d5de3515c096028bb338c1f304db40dc831c3746ee0ae9342610452856103e6866103c18673ffffffffffffffffffffffffffffffffffffffff166000526000602052604060002090565b5561048a84610485856103c18573ffffffffffffffffffffffffffffffffffffffff166000526001602052604060002090565b610f72565b6040519384934292859094939273ffffffffffffffffffffffffffffffffffffffff60609381608085019816845216602083015260408201520152565b0390a1005b7f654c8bbf0000000000000000000000000000000000000000000000000000000060005273ffffffffffffffffffffffffffffffffffffffff9283166004529190911660245260445260646000fd5b6040517f44b7a405000000000000000000000000000000000000000000000000000000008152948594610552949160048701610e31565b0390fd5b7f4e487b7100000000000000000000000000000000000000000000000000000000600052603260045260246000fd5b805482101561059d5760005260206000200190600090565b610556565b3461011c5760607ffffffffffffffffffffffffffffffffffffffffffffffffffffffffffffffffc36011261011c576105d9610121565b6106306105e4610144565b73ffffffffffffffffffffffffffffffffffffffff6044359316600052600160205260406000209073ffffffffffffffffffffffffffffffffffffffff16600052602052604060002090565b90815481101561011c5761064391610585565b905460405160039290921b1c8152602090f35b3461011c5760407ffffffffffffffffffffffffffffffffffffffffffffffffffffffffffffffffc36011261011c5760206106e2610692610121565b73ffffffffffffffffffffffffffffffffffffffff6106af610144565b91166000526001835260406000209073ffffffffffffffffffffffffffffffffffffffff16600052602052604060002090565b54604051908152f35b8015150361011c57565b7f4e487b7100000000000000000000000000000000000000000000000000000000600052604160045260246000fd5b90601f7fffffffffffffffffffffffffffffffffffffffffffffffffffffffffffffffe0910116810190811067ffffffffffffffff82111761076557604052565b6106f5565b6040519061077960e083610724565b565b6040519061077961012083610724565b359060ff8216820361011c57565b3590610779826106eb565b67ffffffffffffffff81116107655760051b60200190565b81601f8201121561011c5780359067ffffffffffffffff8211610765576040519261080f60207fffffffffffffffffffffffffffffffffffffffffffffffffffffffffffffffe0601f8601160185610724565b8284526020838301011161011c57816000926020809301838601378301015290565b81601f8201121561011c57803590610848826107a4565b926108566040519485610724565b82845260208085019360051b8301019181831161011c5760208101935b83851061088257505050505090565b843567ffffffffffffffff811161011c57820160e07fffffffffffffffffffffffffffffffffffffffffffffffffffffffffffffffe0828603011261011c576108c961076a565b916108d660208301610167565b83526040820135602084015260608201359267ffffffffffffffff841161011c5760e08361090b8860208098819801016107bc565b60408401526080810135606084015261092660a08201610799565b608084015261093760c08201610799565b60a0840152013560c0820152815201940193610873565b9080601f8301121561011c578135610965816107a4565b926109736040519485610724565b81845260208085019260051b82010192831161011c57602001905b82821061099b5750505090565b602080916109a884610167565b81520191019061098e565b9190916101208184031261011c576109c961077b565b926109d38261078b565b84526109e160208301610799565b6020850152604082013567ffffffffffffffff811161011c5781610a06918401610831565b6040850152606082013560608501526080820135608085015260a082013567ffffffffffffffff811161011c5781610a3f9184016107bc565b60a085015260c082013560c085015260e082013560e085015261010082013567ffffffffffffffff811161011c57610a77920161094e565b610100830152565b610bc8610b5a610b55610b9c936020860135610a9a816106eb565b15610bce576000905b73ffffffffffffffffffffffffffffffffffffffff6040519160208301937f8b73c3c69bb8fe3d512ecc4cf759cc79239f7b179b0ffacaa9a75d522b39400f85527fd50a220b5983c5d6e86926072ffa8a3197ae49602ffc9dd0e60d62d561a2e1d560408501527fc89efdaa54c0f20c7adf612882df0950f5a951637e0307cdcb4c672f298b8bc6606085015260808401521660a082015260a08152610b4a60c082610724565b5190209436906109b3565b611236565b60405192839160208301958690916042927f19010000000000000000000000000000000000000000000000000000000000008352600283015260228201520190565b037fffffffffffffffffffffffffffffffffffffffffffffffffffffffffffffffe08101835282610724565b51902090565b4690610aa3565b90357fffffffffffffffffffffffffffffffffffffffffffffffffffffffffffffffe18236030181121561011c57016020813591019167ffffffffffffffff821161011c578160051b3603831361011c57565b90357fffffffffffffffffffffffffffffffffffffffffffffffffffffffffffffffe18236030181121561011c57016020813591019167ffffffffffffffff821161011c57813603831361011c57565b601f82602094937fffffffffffffffffffffffffffffffffffffffffffffffffffffffffffffffe0938186528686013760008582860101520116010190565b90602083828152019160208260051b8501019381936000915b848310610ce05750505050505090565b9091929394957fffffffffffffffffffffffffffffffffffffffffffffffffffffffffffffffe08282030183528635907fffffffffffffffffffffffffffffffffffffffffffffffffffffffffffffff218636030182121561011c576020809187600194019073ffffffffffffffffffffffffffffffffffffffff610d6483610167565b168152828201358382015260c080610d93610d826040860186610c28565b60e0604087015260e0860191610c78565b93606081013560608501526080810135610dac816106eb565b15156080850152610dcd60a0820135610dc4816106eb565b151560a0860152565b01359101529801930193019194939290610cd0565b9160209082815201919060005b818110610dfc5750505090565b90919260208060019273ffffffffffffffffffffffffffffffffffffffff610e2388610167565b168152019401929101610def565b93919273ffffffffffffffffffffffffffffffffffffffff610f6f969481610f619416875216602086015260806040860152610e7a60808601610e738361078b565b60ff169052565b610e92610e8960208301610799565b151560a0870152565b610f30610f0e610ebb610ea86040850185610bd5565b61012060c08b01526101a08a0191610cb7565b606084013560e08901526080840135610100890152610edd60a0850185610c28565b907fffffffffffffffffffffffffffffffffffffffffffffffffffffffffffffff808a8403016101208b0152610c78565b9160c081013561014088015260e0810135610160880152610100810190610bd5565b907fffffffffffffffffffffffffffffffffffffffffffffffffffffffffffffff8087840301610180880152610de2565b926060818503910152610c78565b90565b80546801000000000000000081101561076557610f9491600182018155610585565b7fffffffffffffffffffffffffffffffffffffffffffffffffffffffffffffffff829392549160031b92831b921b1916179055565b7f4e487b7100000000000000000000000000000000000000000000000000000000600052601160045260246000fd5b9190820391821161100557565b610fc9565b9190820180921161100557565b9093929384831161011c57841161011c578101920390565b600094938593929091845b83811061104a5750505050509190565b8481013560f81c97959060019081019081908a146111285750600389146110fc57600489146110a2577fb2505f7c00000000000000000000000000000000000000000000000000000000600052600489905260246000fd5b6003810198506110d1906110c9906110c09088013560e81c8b61100a565b809a8789611017565b90858561102f565b906110ee929081156110f4575b5096600052602052604060002090565b9661103a565b9050386110de565b95975094808501359060200197801561112257906110ee91600052602052604060002090565b506110ee565b67ffffffffffffffff9950919691868101803560601c9250601481013560e81c9160179091013560c01c90601f019a169161118b866103e6836103c18973ffffffffffffffffffffffffffffffffffffffff166000526000602052604060002090565b548281151591826111e7575b826111d2575b50506111c9575b906111af92916116ba565b90801561112257906110ee91600052602052604060002090565b600198506111a4565b6111de91925042610ff8565b1015823861119d565b858110159250611197565b805160209091019060005b81811061120a5750505090565b825173ffffffffffffffffffffffffffffffffffffffff168452602093840193909201916001016111fd565b61010081015160405161125181610b9c6020820180956111f2565b51902090611260815160ff1690565b60ff8116806112d957505090610bc861127c604084015161176c565b92610b9c60806060830151920151936040519485936020850197889094939260809260a08301967f11e1e4079a79a66e4ade50033cfe2678cdd5341d2dfe5ef9513edb1a0be147a284526020840152604083015260608201520152565b6001810361133757505060a001518051602091820120604080517fe19a3b94fc3c7ece3f890d98a99bc422615537a08dea0603fa8425867d87d46693810193845290810191909152606081019290925290610bc88160808101610b9c565b6002810361138d57505060c00151604080517f11fdeb7e8373a1aa96bfac8d0ea91526b2c5d15e5cee20e0543e780258f3e8e460208201908152918101929092526060820192909252610bc88160808101610b9c565b6003036113e1575060e00151604080517fe19a3b94fc3c7ece3f890d98a99bc422615537a08dea0603fa8425867d87d46660208201908152918101929092526060820192909252610bc88160808101610b9c565b7f048183200000000000000000000000000000000000000000000000000000000060005260ff1660045260246000fd5b6040513d6000823e3d90fd5b9081602091031261011c57517fffffffff000000000000000000000000000000000000000000000000000000008116810361011c5790565b604090610f6f949281528160208201520191610c78565b9161147991939492610a7f565b9160408214611576575b803b6114925750505050600090565b6114e49373ffffffffffffffffffffffffffffffffffffffff602094604051968795869485937f1626ba7e00000000000000000000000000000000000000000000000000000000855260048501611455565b0392165afa908115611571577f1626ba7e00000000000000000000000000000000000000000000000000000000917fffffffff0000000000000000000000000000000000000000000000000000000091600091611542575b50161490565b611564915060203d60201161156a575b61155c8183610724565b81019061141d565b3861153c565b503d611552565b611411565b602060006115ad611586876118a7565b50604080518a815260ff909216602083015281019290925260608201529081906080820190565b838052039060015afa156115715760005173ffffffffffffffffffffffffffffffffffffffff8083169116036114835750505050600190565b90610bc8610b5a610b9c92602085015115156000146116b3576000905b73ffffffffffffffffffffffffffffffffffffffff6040519160208301937f8b73c3c69bb8fe3d512ecc4cf759cc79239f7b179b0ffacaa9a75d522b39400f85527f4aa45ca7ad825ceb1bf35643f0a58c295239df563b1b565c2485f96477c5631860408501527f2a80e1ef1d7842f27f2e6be0972bb708b9a135c38860dbe73c27c3486c34f4de606085015260808401521660a082015260a081526116aa60c082610724565b51902093611236565b4690611603565b91604051917fffffffffffffffffffffffffffffffffffffffff00000000000000000000000060208401947f53657175656e6365207265636f76657279206c6561663a0a0000000000000000865260601b166038840152604c830152606c820152606c8152610bc8608c82610724565b805182101561059d5760209160051b010190565b805160209091019060005b8181106117565750505090565b8251845260209384019390920191600101611749565b9081517fffffffffffffffffffffffffffffffffffffffffffffffffffffffffffffffe06117b261179c836107a4565b926117aa6040519485610724565b8084526107a4565b0136602083013760005b835181101561188e57806117d26001928661172a565b5173ffffffffffffffffffffffffffffffffffffffff81511690602081015190604081015160208151910120906060810151608082015115159060c060a08401511515930151936040519560208701977f0603985259a953da1f65a522f589c17bd1d0117ec1d3abb7c0788aef251ef437895260408801526060870152608086015260a085015260c084015260e0830152610100820152610100815261187a61012082610724565b519020611887828561172a565b52016117bc565b50909150604051610bc881610b9c60208201809561173e565b9060208235920135906040601b7f7fffffffffffffffffffffffffffffffffffffffffffffffffffffffffffffff84169360ff1c0160ff8111611005579156fea26469706673582212208a0965e30b11dbd17fc766bf7a6742beab6b3f414dbafa48033ffaba23b4af2464736f6c634300081c0033","linkReferences":{}},"methodIdentifiers":{"queuePayload(address,address,(uint8,bool,(address,uint256,bytes,uint256,bool,bool,uint256)[],uint256,uint256,bytes,bytes32,bytes32,address[]),bytes)":"b05f87db","queuedPayloadHashes(address,address,uint256)":"d834bcbf","recoverSapientSignatureCompact(bytes32,bytes)":"898bd921","recoveryPayloadHash(address,(uint8,bool,(address,uint256,bytes,uint256,bool,bool,uint256)[],uint256,uint256,bytes,bytes32,bytes32,address[]))":"b00c8484","timestampForQueuedPayload(address,address,bytes32)":"0e159f80","totalQueuedPayloads(address,address)":"ec08af33"},"id":50}