{
  "_format": "hh-sol-artifact-1",
  "contractName": "Stage1Auth",
  "sourceName": "src/modules/auth/Stage1Auth.sol",
  "abi": [
    {
      "inputs": [
        {
          "internalType": "address",
          "name": "_factory",
          "type": "address"
        },
        {
          "internalType": "address",
          "name": "_stage2",
          "type": "address"
        }
      ],
      "stateMutability": "nonpayable",
      "type": "constructor"
    },
    {
      "inputs": [],
      "name": "ImageHashIsZero",
      "type": "error"
    },
    {
      "inputs": [
        {
          "internalType": "bytes32",
          "name": "_opHash",
          "type": "bytes32"
        },
        {
          "internalType": "address",
          "name": "_signer",
          "type": "address"
        },
        {
          "internalType": "bytes",
          "name": "_signature",
          "type": "bytes"
        }
      ],
      "name": "InvalidERC1271Signature",
      "type": "error"
    },
    {
      "inputs": [
        {
          "internalType": "uint8",
          "name": "kind",
          "type": "uint8"
        }
      ],
      "name": "InvalidKind",
      "type": "error"
    },
    {
      "inputs": [
        {
          "components": [
            {
              "internalType": "uint8",
              "name": "kind",
              "type": "uint8"
            },
            {
              "internalType": "bool",
              "name": "noChainId",
              "type": "bool"
            },
            {
              "components": [
                {
                  "internalType": "address",
                  "name": "to",
                  "type": "address"
                },
                {
                  "internalType": "uint256",
                  "name": "value",
                  "type": "uint256"
                },
                {
                  "internalType": "bytes",
                  "name": "data",
                  "type": "bytes"
                },
                {
                  "internalType": "uint256",
                  "name": "gasLimit",
                  "type": "uint256"
                },
                {
                  "internalType": "bool",
                  "name": "delegateCall",
                  "type": "bool"
                },
                {
                  "internalType": "bool",
                  "name": "onlyFallback",
                  "type": "bool"
                },
                {
                  "internalType": "uint256",
                  "name": "behaviorOnError",
                  "type": "uint256"
                }
              ],
              "internalType": "struct Payload.Call[]",
              "name": "calls",
              "type": "tuple[]"
            },
            {
              "internalType": "uint256",
              "name": "space",
              "type": "uint256"
            },
            {
              "internalType": "uint256",
              "name": "nonce",
              "type": "uint256"
            },
            {
              "internalType": "bytes",
              "name": "message",
              "type": "bytes"
            },
            {
              "internalType": "bytes32",
              "name": "imageHash",
              "type": "bytes32"
            },
            {
              "internalType": "bytes32",
              "name": "digest",
              "type": "bytes32"
            },
            {
              "internalType": "address[]",
              "name": "parentWallets",
              "type": "address[]"
            }
          ],
          "internalType": "struct Payload.Decoded",
          "name": "_payload",
          "type": "tuple"
        },
        {
          "internalType": "bytes",
          "name": "_signature",
          "type": "bytes"
        }
      ],
      "name": "InvalidSapientSignature",
      "type": "error"
    },
    {
      "inputs": [
        {
          "internalType": "uint256",
          "name": "_flag",
          "type": "uint256"
        }
      ],
      "name": "InvalidSignatureFlag",
      "type": "error"
    },
    {
      "inputs": [
        {
          "internalType": "bytes1",
          "name": "_type",
          "type": "bytes1"
        }
      ],
      "name": "InvalidSignatureType",
      "type": "error"
    },
    {
      "inputs": [
        {
          "internalType": "uint256",
          "name": "_threshold",
          "type": "uint256"
        },
        {
          "internalType": "uint256",
          "name": "_weight",
          "type": "uint256"
        }
      ],
      "name": "InvalidSignatureWeight",
      "type": "error"
    },
    {
      "inputs": [
        {
          "internalType": "bytes32",
          "name": "_opHash",
          "type": "bytes32"
        },
        {
          "internalType": "uint256",
          "name": "_expires",
          "type": "uint256"
        }
      ],
      "name": "InvalidStaticSignatureExpired",
      "type": "error"
    },
    {
      "inputs": [
        {
          "internalType": "bytes32",
          "name": "_opHash",
          "type": "bytes32"
        },
        {
          "internalType": "address",
          "name": "_caller",
          "type": "address"
        },
        {
          "internalType": "address",
          "name": "_expectedCaller",
          "type": "address"
        }
      ],
      "name": "InvalidStaticSignatureWrongCaller",
      "type": "error"
    },
    {
      "inputs": [
        {
          "internalType": "bytes",
          "name": "_signature",
          "type": "bytes"
        },
        {
          "internalType": "uint256",
          "name": "_threshold",
          "type": "uint256"
        },
        {
          "internalType": "uint256",
          "name": "_weight",
          "type": "uint256"
        }
      ],
      "name": "LowWeightChainedSignature",
      "type": "error"
    },
    {
      "inputs": [
        {
          "internalType": "address",
          "name": "_sender",
          "type": "address"
        }
      ],
      "name": "OnlySelf",
      "type": "error"
    },
    {
      "inputs": [
        {
          "components": [
            {
              "internalType": "bytes32",
              "name": "imageHash",
              "type": "bytes32"
            },
            {
              "internalType": "uint256",
              "name": "checkpoint",
              "type": "uint256"
            }
          ],
          "internalType": "struct Snapshot",
          "name": "_snapshot",
          "type": "tuple"
        }
      ],
      "name": "UnusedSnapshot",
      "type": "error"
    },
    {
      "inputs": [
        {
          "internalType": "uint256",
          "name": "_nextCheckpoint",
          "type": "uint256"
        },
        {
          "internalType": "uint256",
          "name": "_checkpoint",
          "type": "uint256"
        }
      ],
      "name": "WrongChainedCheckpointOrder",
      "type": "error"
    },
    {
      "anonymous": false,
      "inputs": [
        {
          "indexed": false,
          "internalType": "bytes32",
          "name": "newImageHash",
          "type": "bytes32"
        }
      ],
      "name": "ImageHashUpdated",
      "type": "event"
    },
    {
      "anonymous": false,
      "inputs": [
        {
          "indexed": false,
          "internalType": "address",
          "name": "newImplementation",
          "type": "address"
        }
      ],
      "name": "ImplementationUpdated",
      "type": "event"
    },
    {
      "anonymous": false,
      "inputs": [
        {
          "indexed": false,
          "internalType": "bytes32",
          "name": "_hash",
          "type": "bytes32"
        },
        {
          "indexed": false,
          "internalType": "address",
          "name": "_address",
          "type": "address"
        },
        {
          "indexed": false,
          "internalType": "uint96",
          "name": "_timestamp",
          "type": "uint96"
        }
      ],
      "name": "StaticSignatureSet",
      "type": "event"
    },
    {
      "inputs": [],
      "name": "FACTORY",
      "outputs": [
        {
          "internalType": "address",
          "name": "",
          "type": "address"
        }
      ],
      "stateMutability": "view",
      "type": "function"
    },
    {
      "inputs": [],
      "name": "INIT_CODE_HASH",
      "outputs": [
        {
          "internalType": "bytes32",
          "name": "",
          "type": "bytes32"
        }
      ],
      "stateMutability": "view",
      "type": "function"
    },
    {
      "inputs": [],
      "name": "STAGE_2_IMPLEMENTATION",
      "outputs": [
        {
          "internalType": "address",
          "name": "",
          "type": "address"
        }
      ],
      "stateMutability": "view",
      "type": "function"
    },
    {
      "inputs": [],
      "name": "getImplementation",
      "outputs": [
        {
          "internalType": "address",
          "name": "",
          "type": "address"
        }
      ],
      "stateMutability": "view",
      "type": "function"
    },
    {
      "inputs": [
        {
          "internalType": "bytes32",
          "name": "_hash",
          "type": "bytes32"
        }
      ],
      "name": "getStaticSignature",
      "outputs": [
        {
          "internalType": "address",
          "name": "",
          "type": "address"
        },
        {
          "internalType": "uint256",
          "name": "",
          "type": "uint256"
        }
      ],
      "stateMutability": "view",
      "type": "function"
    },
    {
      "inputs": [
        {
          "internalType": "bytes32",
          "name": "_hash",
          "type": "bytes32"
        },
        {
          "internalType": "bytes",
          "name": "_signature",
          "type": "bytes"
        }
      ],
      "name": "isValidSignature",
      "outputs": [
        {
          "internalType": "bytes4",
          "name": "",
          "type": "bytes4"
        }
      ],
      "stateMutability": "view",
      "type": "function"
    },
    {
      "inputs": [
        {
          "components": [
            {
              "internalType": "uint8",
              "name": "kind",
              "type": "uint8"
            },
            {
              "internalType": "bool",
              "name": "noChainId",
              "type": "bool"
            },
            {
              "components": [
                {
                  "internalType": "address",
                  "name": "to",
                  "type": "address"
                },
                {
                  "internalType": "uint256",
                  "name": "value",
                  "type": "uint256"
                },
                {
                  "internalType": "bytes",
                  "name": "data",
                  "type": "bytes"
                },
                {
                  "internalType": "uint256",
                  "name": "gasLimit",
                  "type": "uint256"
                },
                {
                  "internalType": "bool",
                  "name": "delegateCall",
                  "type": "bool"
                },
                {
                  "internalType": "bool",
                  "name": "onlyFallback",
                  "type": "bool"
                },
                {
                  "internalType": "uint256",
                  "name": "behaviorOnError",
                  "type": "uint256"
                }
              ],
              "internalType": "struct Payload.Call[]",
              "name": "calls",
              "type": "tuple[]"
            },
            {
              "internalType": "uint256",
              "name": "space",
              "type": "uint256"
            },
            {
              "internalType": "uint256",
              "name": "nonce",
              "type": "uint256"
            },
            {
              "internalType": "bytes",
              "name": "message",
              "type": "bytes"
            },
            {
              "internalType": "bytes32",
              "name": "imageHash",
              "type": "bytes32"
            },
            {
              "internalType": "bytes32",
              "name": "digest",
              "type": "bytes32"
            },
            {
              "internalType": "address[]",
              "name": "parentWallets",
              "type": "address[]"
            }
          ],
          "internalType": "struct Payload.Decoded",
          "name": "_payload",
          "type": "tuple"
        },
        {
          "internalType": "bytes",
          "name": "_signature",
          "type": "bytes"
        }
      ],
      "name": "recoverPartialSignature",
      "outputs": [
        {
          "internalType": "uint256",
          "name": "threshold",
          "type": "uint256"
        },
        {
          "internalType": "uint256",
          "name": "weight",
          "type": "uint256"
        },
        {
          "internalType": "bool",
          "name": "isValidImage",
          "type": "bool"
        },
        {
          "internalType": "bytes32",
          "name": "imageHash",
          "type": "bytes32"
        },
        {
          "internalType": "uint256",
          "name": "checkpoint",
          "type": "uint256"
        },
        {
          "internalType": "bytes32",
          "name": "opHash",
          "type": "bytes32"
        }
      ],
      "stateMutability": "view",
      "type": "function"
    },
    {
      "inputs": [
        {
          "components": [
            {
              "internalType": "uint8",
              "name": "kind",
              "type": "uint8"
            },
            {
              "internalType": "bool",
              "name": "noChainId",
              "type": "bool"
            },
            {
              "components": [
                {
                  "internalType": "address",
                  "name": "to",
                  "type": "address"
                },
                {
                  "internalType": "uint256",
                  "name": "value",
                  "type": "uint256"
                },
                {
                  "internalType": "bytes",
                  "name": "data",
                  "type": "bytes"
                },
                {
                  "internalType": "uint256",
                  "name": "gasLimit",
                  "type": "uint256"
                },
                {
                  "internalType": "bool",
                  "name": "delegateCall",
                  "type": "bool"
                },
                {
                  "internalType": "bool",
                  "name": "onlyFallback",
                  "type": "bool"
                },
                {
                  "internalType": "uint256",
                  "name": "behaviorOnError",
                  "type": "uint256"
                }
              ],
              "internalType": "struct Payload.Call[]",
              "name": "calls",
              "type": "tuple[]"
            },
            {
              "internalType": "uint256",
              "name": "space",
              "type": "uint256"
            },
            {
              "internalType": "uint256",
              "name": "nonce",
              "type": "uint256"
            },
            {
              "internalType": "bytes",
              "name": "message",
              "type": "bytes"
            },
            {
              "internalType": "bytes32",
              "name": "imageHash",
              "type": "bytes32"
            },
            {
              "internalType": "bytes32",
              "name": "digest",
              "type": "bytes32"
            },
            {
              "internalType": "address[]",
              "name": "parentWallets",
              "type": "address[]"
            }
          ],
          "internalType": "struct Payload.Decoded",
          "name": "_payload",
          "type": "tuple"
        },
        {
          "internalType": "bytes",
          "name": "_signature",
          "type": "bytes"
        }
      ],
      "name": "recoverSapientSignature",
      "outputs": [
        {
          "internalType": "bytes32",
          "name": "",
          "type": "bytes32"
        }
      ],
      "stateMutability": "view",
      "type": "function"
    },
    {
      "inputs": [
        {
          "internalType": "bytes32",
          "name": "_hash",
          "type": "bytes32"
        },
        {
          "internalType": "address",
          "name": "_address",
          "type": "address"
        },
        {
          "internalType": "uint96",
          "name": "_timestamp",
          "type": "uint96"
        }
      ],
      "name": "setStaticSignature",
      "outputs": [],
      "stateMutability": "nonpayable",
      "type": "function"
    },
    {
      "inputs": [
        {
          "internalType": "bytes32",
          "name": "_imageHash",
          "type": "bytes32"
        }
      ],
      "name": "updateImageHash",
      "outputs": [],
      "stateMutability": "nonpayable",
      "type": "function"
    },
    {
      "inputs": [
        {
          "internalType": "address",
          "name": "_implementation",
          "type": "address"
        }
      ],
      "name": "updateImplementation",
      "outputs": [],
      "stateMutability": "payable",
      "type": "function"
    }
  ],
  "bytecode": "0x60e060405234801561001057600080fd5b50604051612fb3380380612fb383398101604081905261002f916100ab565b60006040518060600160405280602f8152602001612f84602f913960405161005c919030906020016100de565b60408051601f198184030181529190528051602090910120608052506001600160a01b0391821660a0521660c052610110565b80516001600160a01b03811681146100a657600080fd5b919050565b600080604083850312156100be57600080fd5b6100c78361008f565b91506100d56020840161008f565b90509250929050565b6000835160005b818110156100ff57602081870181015185830152016100e5565b509190910191825250602001919050565b60805160a05160c051612e22610162600039600081816102650152610b7b0152600081816101c0015281816106380152610a2401526000818161016c015281816106690152610a550152612e226000f3fe6080604052600436106100bc5760003560e01c80632dd3100011610074578063aaf10f421161004e578063aaf10f4214610287578063ad55366b1461029c578063f727ef1c146102ef57600080fd5b80632dd31000146101ae57806392dcb3fc146102075780639f69ef541461025357600080fd5b80631626ba7e116100a55780631626ba7e14610109578063257671f51461015a578063295614261461018e57600080fd5b8063025b22bc146100c157806313792a4a146100d6575b600080fd5b6100d46100cf366004612336565b61030f565b005b3480156100e257600080fd5b506100f66100f13660046126da565b61035b565b6040519081526020015b60405180910390f35b34801561011557600080fd5b50610129610124366004612821565b6104c6565b6040517fffffffff000000000000000000000000000000000000000000000000000000009091168152602001610100565b34801561016657600080fd5b506100f67f000000000000000000000000000000000000000000000000000000000000000081565b34801561019a57600080fd5b506100d46101a9366004612854565b61055d565b3480156101ba57600080fd5b506101e27f000000000000000000000000000000000000000000000000000000000000000081565b60405173ffffffffffffffffffffffffffffffffffffffff9091168152602001610100565b34801561021357600080fd5b50610227610222366004612854565b6105a1565b6040805173ffffffffffffffffffffffffffffffffffffffff9093168352602083019190915201610100565b34801561025f57600080fd5b506101e27f000000000000000000000000000000000000000000000000000000000000000081565b34801561029357600080fd5b506101e26105b6565b3480156102a857600080fd5b506102bc6102b73660046126da565b6105c5565b604080519687526020870195909552921515938501939093526060840152608083019190915260a082015260c001610100565b3480156102fb57600080fd5b506100d461030a36600461286d565b6106f6565b33301461034f576040517fa19dbf000000000000000000000000000000000000000000000000000000000081523360048201526024015b60405180910390fd5b610358816107b1565b50565b60008084610100015151600161037191906128ed565b67ffffffffffffffff81111561038957610389612351565b6040519080825280602002602001820160405280156103b2578160200160208202803683370190505b50905060005b856101000151518110156104245785610100015181815181106103dd576103dd612900565b60200260200101518282815181106103f7576103f7612900565b73ffffffffffffffffffffffffffffffffffffffff909216602092830291909101909101526001016103b8565b503381866101000151518151811061043e5761043e612900565b73ffffffffffffffffffffffffffffffffffffffff9092166020928302919091019091015261010085018190526000610478868686610805565b509050806104b8578585856040517ff58cc8b500000000000000000000000000000000000000000000000000000000815260040161034693929190612ba8565b5060019150505b9392505050565b604080516101208101825260006020820181905260609282018390528282018190526080820181905260a0820183905260c082018190526101008201929092526003815260e08101859052600061051e828686610805565b509050806105325750600091506104bf9050565b507f1626ba7e0000000000000000000000000000000000000000000000000000000095945050505050565b333014610598576040517fa19dbf00000000000000000000000000000000000000000000000000000000008152336004820152602401610346565b61035881610ae3565b6000806105ad83610b9f565b91509150915091565b60006105c0305490565b905090565b6000806000806000806105dc898989600080610beb565b9399509197509450925090506106e8836040517fff0000000000000000000000000000000000000000000000000000000000000060208201527fffffffffffffffffffffffffffffffffffffffff0000000000000000000000007f000000000000000000000000000000000000000000000000000000000000000060601b166021820152603581018290527f000000000000000000000000000000000000000000000000000000000000000060558201526000903090607501604080517fffffffffffffffffffffffffffffffffffffffffffffffffffffffffffffffe0818403018152919052805160209091012073ffffffffffffffffffffffffffffffffffffffff161492915050565b935093975093979195509350565b333014610731576040517fa19dbf00000000000000000000000000000000000000000000000000000000008152336004820152602401610346565b61074a8383836bffffffffffffffffffffffff16610f10565b6040805184815273ffffffffffffffffffffffffffffffffffffffff841660208201526bffffffffffffffffffffffff83168183015290517febf265acfac1c01de588ed7ef49743b9c3ce8d6d1edeaf510a1f5453228515b19181900360600190a1505050565b6107b9813055565b60405173ffffffffffffffffffffffffffffffffffffffff821681527f310ba5f1d2ed074b51e2eccd052a47ae9ab7c6b800d1fca3db3999d6a592ca039060200160405180910390a150565b60008060008484600081811061081d5761081d612900565b7fff000000000000000000000000000000000000000000000000000000000000009201359182169250507f800000000000000000000000000000000000000000000000000000000000000090811690036109725761087a86610f9f565b915060008061088884610b9f565b915091504281116108cf576040517ff95b6ab70000000000000000000000000000000000000000000000000000000081526004810185905260248101829052604401610346565b73ffffffffffffffffffffffffffffffffffffffff82161580159061090a575073ffffffffffffffffffffffffffffffffffffffff82163314155b15610966576040517f8945c3130000000000000000000000000000000000000000000000000000000081526004810185905233602482015273ffffffffffffffffffffffffffffffffffffffff83166044820152606401610346565b60019450505050610adb565b6000806000610985898989600080610beb565b9850929550909350915050828210156109d4576040517ffd41fcba0000000000000000000000000000000000000000000000000000000081526004810184905260248101839052604401610346565b610ad4816040517fff0000000000000000000000000000000000000000000000000000000000000060208201527fffffffffffffffffffffffffffffffffffffffff0000000000000000000000007f000000000000000000000000000000000000000000000000000000000000000060601b166021820152603581018290527f000000000000000000000000000000000000000000000000000000000000000060558201526000903090607501604080517fffffffffffffffffffffffffffffffffffffffffffffffffffffffffffffffe0818403018152919052805160209091012073ffffffffffffffffffffffffffffffffffffffff161492915050565b9550505050505b935093915050565b80610b1a576040517f4294d12700000000000000000000000000000000000000000000000000000000815260040160405180910390fd5b610b437fea7157fa25e3aa17d0ae2d5280fa4e24d421c61842aa85e45194e1145aa72bf8829055565b6040518181527f307ed6bd941ee9fc80f369c94af5fa11e25bab5102a6140191756c5474a30bfa9060200160405180910390a16103587f00000000000000000000000000000000000000000000000000000000000000006107b1565b60008080610bcd7fc852adf5e97c2fc3b38f405671e91b7af1697ef0287577f227ef10494c2a8e868561101a565b606081901c956bffffffffffffffffffffffff909116945092505050565b6040805180820182526000808252602082018190529182918291829182918a3560f81c91600191808416148015610c36575073ffffffffffffffffffffffffffffffffffffffff8916155b15610d52578b82013560601c985060149091019089610d525760038201918c013560e81c60008d848e610c6985836128ed565b92610c7693929190612bd8565b8080601f016020809104026020016040519081016040528093929190818152602001838380828437600092019190915250506040517fccce3bc80000000000000000000000000000000000000000000000000000000081529293505073ffffffffffffffffffffffffffffffffffffffff8d169163ccce3bc89150610d019030908590600401612c02565b6040805180830381865afa158015610d1d573d6000803e3d6000fd5b505050506040513d601f19601f82011682018060405250810190610d419190612c39565b9250610d4d82856128ed565b935050505b82600116600103610d8c57610d7a8d8a838f8f87908092610d7593929190612bd8565b611078565b97509750975097509750505050610f03565b6002838116811460208f015283901c60071660016008820290811b7fffffffffffffffffffffffffffffffffffffffffffffffffffffffffffffffff018e850135610100929092039190911c16838201909650925060009050610df76001600586901c8116906128ed565b60016008820290811b7fffffffffffffffffffffffffffffffffffffffffffffffffffffffffffffffff018f860135610100929092039190911c1699509092019150610e428d610f9f565b9350610e608d858e8e86908092610e5b93929190612bd8565b6112bc565b600090815260208a815260408083208352888252808320835273ffffffffffffffffffffffffffffffffffffffff8d1690915290208251919850965015801590610eab575080518614155b8015610ebb575080602001518511155b15610eff576040517fccbb534f0000000000000000000000000000000000000000000000000000000081528151600482015260208201516024820152604401610346565b5050505b9550955095509550959050565b610f9a7fc852adf5e97c2fc3b38f405671e91b7af1697ef0287577f227ef10494c2a8e86847fffffffffffffffffffffffffffffffffffffffff000000000000000000000000606086901b166bffffffffffffffffffffffff8516176040805160208082019590955280820193909352805180840382018152606090930190528151919092012055565b505050565b600080610fb0836020015130611be3565b90506000610fbd84611cb1565b6040517f1901000000000000000000000000000000000000000000000000000000000000602082015260228101849052604281018290529091506062015b6040516020818303038152906040528051906020012092505050919050565b6000808383604051602001611039929190918252602082015260400190565b604080517fffffffffffffffffffffffffffffffffffffffffffffffffffffffffffffffe0818403018152919052805160209091012054949350505050565b60008060008060006110da604051806101200160405280600060ff168152602001600015158152602001606081526020016000815260200160008152602001606081526020016000801916815260200160008019168152602001606081525090565b6002815260007fffffffffffffffffffffffffffffffffffffffffffffffffffffffffffffffff5b888210156112645760038201916000908b013560e81c61112284826128ed565b9150600090508a8214611136576000611138565b8d5b90507fffffffffffffffffffffffffffffffffffffffffffffffffffffffffffffffff83036111905761117f8f8d8d8790869261117793929190612bd8565b600185610beb565b939d50919b509950975095506111b2565b6111a6858d8d8790869261117793929190612bd8565b50929c50909a50985096505b898910156111fe576111c682858d8f612bd8565b8b8b6040517fb006aba00000000000000000000000000000000000000000000000000000000081526004016103469493929190612c8a565b819350878d60000151036112115760008d525b828710611254576040517f37daf62b0000000000000000000000000000000000000000000000000000000081526004810188905260248101849052604401610346565b50505060c0820185905283611102565b8a511580159061127857508a602001518511155b15610eff576040517fccbb534f0000000000000000000000000000000000000000000000000000000081528b51600482015260208c01516024820152604401610346565b60008060005b83811015611bd957600181019085013560f881901c9060fc1c806113c757600f821660008190036112fa5750600183019287013560f81c5b600080806113098b8b89611f1d565b809a5081945082955083965050505050600060018d83868660405160008152602001604052604051611357949392919093845260ff9290921660208401526040830152606082015260800190565b6020604051602081039080840390855afa158015611379573d6000803e3d6000fd5b5050506020604051035190508460ff168a019950600061139c828760ff16611f70565b9050896113a957806113b8565b60008a81526020829052604090205b995050505050505050506112c2565b6001810361142b57600f821660008190036113e95750600183019287013560f81c5b601484019388013560601c60006114038260ff8516611f70565b905086611410578061141f565b60008781526020829052604090205b965050505050506112c2565b600281036115f55760038216600081900361144d5750600183019287013560f81c5b60008489013560601c60148601955090506003600285901c16600060016008830290811b7fffffffffffffffffffffffffffffffffffffffffffffffffffffffffffffffff018c890135610100929092039190911c16828801809850819250505060008188019050631626ba7e60e01b7bffffffffffffffffffffffffffffffffffffffffffffffffffffffff19168473ffffffffffffffffffffffffffffffffffffffff16631626ba7e8f8f8f8d90879261150b93929190612bd8565b6040518463ffffffff1660e01b815260040161152993929190612cb1565b602060405180830381865afa158015611546573d6000803e3d6000fd5b505050506040513d601f19601f8201168201806040525081019061156a9190612ccb565b7fffffffff0000000000000000000000000000000000000000000000000000000016146115db578c848d8d8b9085926115a593929190612bd8565b6040517fb2fed7ae0000000000000000000000000000000000000000000000000000000081526004016103469493929190612d0d565b8097508460ff168a019950600061139c858760ff16611f70565b6003810361162957602083019287013584611610578061161f565b60008581526020829052604090205b94505050506112c2565b600481036116cc57600f8216600060016008830290811b7fffffffffffffffffffffffffffffffffffffffffffffffffffffffffffffffff018a870135610100929092039190911c1685830180965081925050506000818601905060008061169e8e8e8e8e8c908892610e5b93929190612bd8565b91509150829750818a0199506116be898260009182526020526040902090565b9850505050505050506112c2565b60068103611796576003600283901c1660008190036116f25750600183019287013560f81c5b60038316600081900361170c5750600284019388013560f01c5b6000858a013560e81c600387018162ffffff16915080975081925050506000818701905060008061174a8f8f8f8f8d908892610e5b93929190612bd8565b9150915082985084821061175d57998501995b600061176a828789611fd7565b90508a6117775780611786565b60008b81526020829052604090205b9a505050505050505050506112c2565b600581036118035760208301928701358881036117d1577fffffffffffffffffffffffffffffffffffffffffffffffffffffffffffffffff95505b60006117dc8261203b565b9050856117e957806117f8565b60008681526020829052604090205b9550505050506112c2565b600781036118e157600f821660008190036118255750600183019287013560f81c5b600080806118348b8b89611f1d565b604051909a509295509093509150600090600190611882908f906020017f19457468657265756d205369676e6564204d6573736167653a0a3332000000008152601c810191909152603c0190565b604080517fffffffffffffffffffffffffffffffffffffffffffffffffffffffffffffffe08184030181528282528051602091820120600084529083018083525260ff851690820152606081018690526080810185905260a001611357565b6008810361193557602083019287013560006118fd8b8261208f565b905080820361192a577fffffffffffffffffffffffffffffffffffffffffffffffffffffffffffffffff96505b60006114038361210a565b60098103611a6d576003821660008190036119575750600183019287013560f81c5b60008489013560601c601486019550905060006003600286901c1660016008820290811b7fffffffffffffffffffffffffffffffffffffffffffffffffffffffffffffffff018c890135610100929092039190911c168188018098508193505050506000818701905060008373ffffffffffffffffffffffffffffffffffffffff166313792a4a8f8e8e8c9087926119f193929190612bd8565b6040518463ffffffff1660e01b8152600401611a0f93929190612ba8565b602060405180830381865afa158015611a2c573d6000803e3d6000fd5b505050506040513d601f19601f82011682018060405250810190611a509190612d43565b90508197508460ff168a019950600061139c858760ff1684612145565b600a8103611ba457600382166000819003611a8f5750600183019287013560f81c5b60008489013560601c60148601955090506003600285901c16600060016008830290811b7fffffffffffffffffffffffffffffffffffffffffffffffffffffffffffffffff018c890135610100929092039190911c1682880180985081925050506000818801905060008473ffffffffffffffffffffffffffffffffffffffff1663898bd9218f8f8f8d908792611b2893929190612bd8565b6040518463ffffffff1660e01b8152600401611b4693929190612cb1565b602060405180830381865afa158015611b63573d6000803e3d6000fd5b505050506040513d601f19601f82011682018060405250810190611b879190612d43565b90508198508560ff168b019a50600061176a868860ff1684612145565b6040517fb2505f7c00000000000000000000000000000000000000000000000000000000815260048101829052602401610346565b5094509492505050565b60007f8b73c3c69bb8fe3d512ecc4cf759cc79239f7b179b0ffacaa9a75d522b39400f7f4aa45ca7ad825ceb1bf35643f0a58c295239df563b1b565c2485f96477c563187f2a80e1ef1d7842f27f2e6be0972bb708b9a135c38860dbe73c27c3486c34f4de85611c535746611c56565b60005b6040805160208101959095528401929092526060830152608082015273ffffffffffffffffffffffffffffffffffffffff831660a082015260c0015b6040516020818303038152906040528051906020012090505b92915050565b600080826101000151604051602001611cca9190612d5c565b604080517fffffffffffffffffffffffffffffffffffffffffffffffffffffffffffffffe08184030181529190528051602090910120835190915060ff16611d73576000611d1b84604001516121b3565b606085810151608080880151604080517f11e1e4079a79a66e4ade50033cfe2678cdd5341d2dfe5ef9513edb1a0be147a260208201529081018690529384019290925282015260a0810184905290915060c001610ffb565b825160ff167fffffffffffffffffffffffffffffffffffffffffffffffffffffffffffffffff01611e035760a08301518051602091820120604080517fe19a3b94fc3c7ece3f890d98a99bc422615537a08dea0603fa8425867d87d46693810193909352820152606081018290526080015b60405160208183030381529060405280519060200120915050919050565b825160ff167ffffffffffffffffffffffffffffffffffffffffffffffffffffffffffffffffe01611e735760c0830151604080517f11fdeb7e8373a1aa96bfac8d0ea91526b2c5d15e5cee20e0543e780258f3e8e460208201529081019190915260608101829052608001611de5565b825160ff167ffffffffffffffffffffffffffffffffffffffffffffffffffffffffffffffffd01611ee35760e0830151604080517fe19a3b94fc3c7ece3f890d98a99bc422615537a08dea0603fa8425867d87d46660208201529081019190915260608101829052608001611de5565b82516040517f0481832000000000000000000000000000000000000000000000000000000000815260ff9091166004820152602401610346565b828101803590602001357f7fffffffffffffffffffffffffffffffffffffffffffffffffffffffffffffff811690600090604085019060ff81901c611f6381601b612da8565b9350505093509350935093565b6040517f53657175656e6365207369676e65723a0a00000000000000000000000000000060208201527fffffffffffffffffffffffffffffffffffffffff000000000000000000000000606084901b16603182015260458101829052600090606501611c92565b6040517f53657175656e6365206e657374656420636f6e6669673a0a000000000000000060208201526038810184905260588101839052607881018290526000906098015b6040516020818303038152906040528051906020012090509392505050565b6040517f53657175656e636520737461746963206469676573743a0a00000000000000006020820152603881018290526000906058015b604051602081830303815290604052805190602001209050919050565b6000806120a0846020015184611be3565b905060006120ad85611cb1565b6040517f190100000000000000000000000000000000000000000000000000000000000060208201526022810184905260428101829052909150606201604051602081830303815290604052805190602001209250505092915050565b604080517f53657175656e636520616e792061646472657373207375626469676573743a0a6020820152908101829052600090606001612072565b6040517f53657175656e63652073617069656e7420636f6e6669673a0a0000000000000060208201527fffffffffffffffffffffffffffffffffffffffff000000000000000000000000606085901b166039820152604d8101839052606d8101829052600090608d0161201c565b600080825167ffffffffffffffff8111156121d0576121d0612351565b6040519080825280602002602001820160405280156121f9578160200160208202803683370190505b50905060005b835181101561224f5761222a84828151811061221d5761221d612900565b6020026020010151612261565b82828151811061223c5761223c612900565b60209081029190910101526001016121ff565b5080604051602001611de59190612dc1565b80516020808301516040808501518051908401206060860151608087015160a088015160c08901519451600098612072987f0603985259a953da1f65a522f589c17bd1d0117ec1d3abb7c0788aef251ef4379891979196959493920197885273ffffffffffffffffffffffffffffffffffffffff969096166020880152604087019490945260608601929092526080850152151560a0840152151560c083015260e08201526101000190565b803573ffffffffffffffffffffffffffffffffffffffff8116811461233157600080fd5b919050565b60006020828403121561234857600080fd5b6104bf8261230d565b7f4e487b7100000000000000000000000000000000000000000000000000000000600052604160045260246000fd5b60405160e0810167ffffffffffffffff811182821017156123a3576123a3612351565b60405290565b604051610120810167ffffffffffffffff811182821017156123a3576123a3612351565b604051601f82017fffffffffffffffffffffffffffffffffffffffffffffffffffffffffffffffe016810167ffffffffffffffff8111828210171561241457612414612351565b604052919050565b803560ff8116811461233157600080fd5b8035801515811461233157600080fd5b600067ffffffffffffffff82111561245757612457612351565b5060051b60200190565b600082601f83011261247257600080fd5b813567ffffffffffffffff81111561248c5761248c612351565b6124bd60207fffffffffffffffffffffffffffffffffffffffffffffffffffffffffffffffe0601f840116016123cd565b8181528460208386010111156124d257600080fd5b816020850160208301376000918101602001919091529392505050565b600082601f83011261250057600080fd5b813561251361250e8261243d565b6123cd565b8082825260208201915060208360051b86010192508583111561253557600080fd5b602085015b8381101561262257803567ffffffffffffffff81111561255957600080fd5b860160e08189037fffffffffffffffffffffffffffffffffffffffffffffffffffffffffffffffe001121561258d57600080fd5b612595612380565b6125a16020830161230d565b815260408201356020820152606082013567ffffffffffffffff8111156125c757600080fd5b6125d68a602083860101612461565b604083015250608082013560608201526125f260a0830161242d565b608082015261260360c0830161242d565b60a082015260e0919091013560c082015283526020928301920161253a565b5095945050505050565b600082601f83011261263d57600080fd5b813561264b61250e8261243d565b8082825260208201915060208360051b86010192508583111561266d57600080fd5b602085015b83811015612622576126838161230d565b835260209283019201612672565b60008083601f8401126126a357600080fd5b50813567ffffffffffffffff8111156126bb57600080fd5b6020830191508360208285010111156126d357600080fd5b9250929050565b6000806000604084860312156126ef57600080fd5b833567ffffffffffffffff81111561270657600080fd5b8401610120818703121561271957600080fd5b6127216123a9565b61272a8261241c565b81526127386020830161242d565b6020820152604082013567ffffffffffffffff81111561275757600080fd5b612763888285016124ef565b604083015250606082810135908201526080808301359082015260a082013567ffffffffffffffff81111561279757600080fd5b6127a388828501612461565b60a08301525060c0828101359082015260e0808301359082015261010082013567ffffffffffffffff8111156127d857600080fd5b6127e48882850161262c565b61010083015250935050602084013567ffffffffffffffff81111561280857600080fd5b61281486828701612691565b9497909650939450505050565b60008060006040848603121561283657600080fd5b83359250602084013567ffffffffffffffff81111561280857600080fd5b60006020828403121561286657600080fd5b5035919050565b60008060006060848603121561288257600080fd5b833592506128926020850161230d565b915060408401356bffffffffffffffffffffffff811681146128b357600080fd5b809150509250925092565b7f4e487b7100000000000000000000000000000000000000000000000000000000600052601160045260246000fd5b80820180821115611cab57611cab6128be565b7f4e487b7100000000000000000000000000000000000000000000000000000000600052603260045260246000fd5b6000815180845260005b8181101561295557602081850181015186830182015201612939565b5060006020828601015260207fffffffffffffffffffffffffffffffffffffffffffffffffffffffffffffffe0601f83011685010191505092915050565b600082825180855260208501945060208160051b8301016020850160005b83811015612a63577fffffffffffffffffffffffffffffffffffffffffffffffffffffffffffffffe0858403018852815173ffffffffffffffffffffffffffffffffffffffff815116845260208101516020850152604081015160e06040860152612a1f60e086018261292f565b6060838101519087015260808084015115159087015260a08084015115159087015260c09283015192909501919091525060209788019791909101906001016129b1565b50909695505050505050565b600081518084526020840193506020830160005b82811015612ab757815173ffffffffffffffffffffffffffffffffffffffff16865260209586019590910190600101612a83565b5093949350505050565b805160ff16825260006020820151612add602085018215159052565b5060408201516101206040850152612af9610120850182612993565b9050606083015160608501526080830151608085015260a083015184820360a0860152612b26828261292f565b91505060c083015160c085015260e083015160e0850152610100830151848203610100860152612b568282612a6f565b95945050505050565b8183528181602085013750600060208284010152600060207fffffffffffffffffffffffffffffffffffffffffffffffffffffffffffffffe0601f840116840101905092915050565b604081526000612bbb6040830186612ac1565b8281036020840152612bce818587612b5f565b9695505050505050565b60008085851115612be857600080fd5b83861115612bf557600080fd5b5050820193919092039150565b73ffffffffffffffffffffffffffffffffffffffff83168152604060208201526000612c31604083018461292f565b949350505050565b60006040828403128015612c4c57600080fd5b506040805190810167ffffffffffffffff81118282101715612c7057612c70612351565b604052825181526020928301519281019290925250919050565b606081526000612c9e606083018688612b5f565b6020830194909452506040015292915050565b838152604060208201526000612b56604083018486612b5f565b600060208284031215612cdd57600080fd5b81517fffffffff00000000000000000000000000000000000000000000000000000000811681146104bf57600080fd5b84815273ffffffffffffffffffffffffffffffffffffffff84166020820152606060408201526000612bce606083018486612b5f565b600060208284031215612d5557600080fd5b5051919050565b8151600090829060208501835b82811015612d9d57815173ffffffffffffffffffffffffffffffffffffffff16845260209384019390910190600101612d69565b509195945050505050565b60ff8181168382160190811115611cab57611cab6128be565b8151600090829060208501835b82811015612d9d578151845260209384019390910190600101612dce56fea264697066735822122086573bcdd31fca4e2c91ac1b173a2ba6171f5339e4d2019d27a4f233f1d53aef64736f6c634300081b00336041600e3d396021805130553df33d3d36153402601f57363d3d373d363d30545af43d82803e903d91601f57fd5bf3",
  "linkReferences": {},
  "deployedLinkReferences": {}
}