{
  "_format": "hh-sol-artifact-1",
  "contractName": "Stage1Auth",
  "sourceName": "src/modules/auth/Stage1Auth.sol",
  "abi": [
    {
      "inputs": [
        {
          "internalType": "address",
          "name": "_factory",
          "type": "address"
        },
        {
          "internalType": "address",
          "name": "_stage2",
          "type": "address"
        }
      ],
      "stateMutability": "nonpayable",
      "type": "constructor"
    },
    {
      "inputs": [],
      "name": "ImageHashIsZero",
      "type": "error"
    },
    {
      "inputs": [
        {
          "components": [
            {
              "internalType": "uint8",
              "name": "kind",
              "type": "uint8"
            },
            {
              "internalType": "bool",
              "name": "noChainId",
              "type": "bool"
            },
            {
              "components": [
                {
                  "internalType": "address",
                  "name": "to",
                  "type": "address"
                },
                {
                  "internalType": "uint256",
                  "name": "value",
                  "type": "uint256"
                },
                {
                  "internalType": "bytes",
                  "name": "data",
                  "type": "bytes"
                },
                {
                  "internalType": "uint256",
                  "name": "gasLimit",
                  "type": "uint256"
                },
                {
                  "internalType": "bool",
                  "name": "delegateCall",
                  "type": "bool"
                },
                {
                  "internalType": "bool",
                  "name": "onlyFallback",
                  "type": "bool"
                },
                {
                  "internalType": "uint256",
                  "name": "behaviorOnError",
                  "type": "uint256"
                }
              ],
              "internalType": "struct Payload.Call[]",
              "name": "calls",
              "type": "tuple[]"
            },
            {
              "internalType": "uint256",
              "name": "space",
              "type": "uint256"
            },
            {
              "internalType": "uint256",
              "name": "nonce",
              "type": "uint256"
            },
            {
              "internalType": "bytes",
              "name": "message",
              "type": "bytes"
            },
            {
              "internalType": "bytes32",
              "name": "imageHash",
              "type": "bytes32"
            },
            {
              "internalType": "bytes32",
              "name": "digest",
              "type": "bytes32"
            },
            {
              "internalType": "address[]",
              "name": "parentWallets",
              "type": "address[]"
            }
          ],
          "internalType": "struct Payload.Decoded",
          "name": "_payload",
          "type": "tuple"
        },
        {
          "internalType": "bytes32",
          "name": "_subdigest",
          "type": "bytes32"
        },
        {
          "internalType": "address",
          "name": "_signer",
          "type": "address"
        },
        {
          "internalType": "bytes",
          "name": "_signature",
          "type": "bytes"
        }
      ],
      "name": "InvalidNestedSignature",
      "type": "error"
    },
    {
      "inputs": [
        {
          "components": [
            {
              "internalType": "uint8",
              "name": "kind",
              "type": "uint8"
            },
            {
              "internalType": "bool",
              "name": "noChainId",
              "type": "bool"
            },
            {
              "components": [
                {
                  "internalType": "address",
                  "name": "to",
                  "type": "address"
                },
                {
                  "internalType": "uint256",
                  "name": "value",
                  "type": "uint256"
                },
                {
                  "internalType": "bytes",
                  "name": "data",
                  "type": "bytes"
                },
                {
                  "internalType": "uint256",
                  "name": "gasLimit",
                  "type": "uint256"
                },
                {
                  "internalType": "bool",
                  "name": "delegateCall",
                  "type": "bool"
                },
                {
                  "internalType": "bool",
                  "name": "onlyFallback",
                  "type": "bool"
                },
                {
                  "internalType": "uint256",
                  "name": "behaviorOnError",
                  "type": "uint256"
                }
              ],
              "internalType": "struct Payload.Call[]",
              "name": "calls",
              "type": "tuple[]"
            },
            {
              "internalType": "uint256",
              "name": "space",
              "type": "uint256"
            },
            {
              "internalType": "uint256",
              "name": "nonce",
              "type": "uint256"
            },
            {
              "internalType": "bytes",
              "name": "message",
              "type": "bytes"
            },
            {
              "internalType": "bytes32",
              "name": "imageHash",
              "type": "bytes32"
            },
            {
              "internalType": "bytes32",
              "name": "digest",
              "type": "bytes32"
            },
            {
              "internalType": "address[]",
              "name": "parentWallets",
              "type": "address[]"
            }
          ],
          "internalType": "struct Payload.Decoded",
          "name": "_payload",
          "type": "tuple"
        },
        {
          "internalType": "bytes",
          "name": "_signature",
          "type": "bytes"
        }
      ],
      "name": "InvalidSapientSignature",
      "type": "error"
    },
    {
      "inputs": [
        {
          "internalType": "uint256",
          "name": "_flag",
          "type": "uint256"
        }
      ],
      "name": "InvalidSignatureFlag",
      "type": "error"
    },
    {
      "inputs": [
        {
          "internalType": "bytes1",
          "name": "_type",
          "type": "bytes1"
        }
      ],
      "name": "InvalidSignatureType",
      "type": "error"
    },
    {
      "inputs": [
        {
          "internalType": "uint256",
          "name": "_threshold",
          "type": "uint256"
        },
        {
          "internalType": "uint256",
          "name": "_weight",
          "type": "uint256"
        }
      ],
      "name": "InvalidSignatureWeight",
      "type": "error"
    },
    {
      "inputs": [
        {
          "internalType": "bytes32",
          "name": "_opHash",
          "type": "bytes32"
        },
        {
          "internalType": "uint256",
          "name": "_expires",
          "type": "uint256"
        }
      ],
      "name": "InvalidStaticSignature",
      "type": "error"
    },
    {
      "inputs": [
        {
          "internalType": "bytes",
          "name": "_signature",
          "type": "bytes"
        },
        {
          "internalType": "uint256",
          "name": "_threshold",
          "type": "uint256"
        },
        {
          "internalType": "uint256",
          "name": "_weight",
          "type": "uint256"
        }
      ],
      "name": "LowWeightChainedSignature",
      "type": "error"
    },
    {
      "inputs": [
        {
          "internalType": "address",
          "name": "_sender",
          "type": "address"
        }
      ],
      "name": "OnlySelf",
      "type": "error"
    },
    {
      "inputs": [
        {
          "components": [
            {
              "internalType": "bytes32",
              "name": "imageHash",
              "type": "bytes32"
            },
            {
              "internalType": "uint256",
              "name": "checkpoint",
              "type": "uint256"
            }
          ],
          "internalType": "struct Snapshot",
          "name": "_snapshot",
          "type": "tuple"
        }
      ],
      "name": "UnusedSnapshot",
      "type": "error"
    },
    {
      "inputs": [
        {
          "internalType": "uint256",
          "name": "_nextCheckpoint",
          "type": "uint256"
        },
        {
          "internalType": "uint256",
          "name": "_checkpoint",
          "type": "uint256"
        }
      ],
      "name": "WrongChainedCheckpointOrder",
      "type": "error"
    },
    {
      "anonymous": false,
      "inputs": [
        {
          "indexed": false,
          "internalType": "bytes32",
          "name": "newImageHash",
          "type": "bytes32"
        }
      ],
      "name": "ImageHashUpdated",
      "type": "event"
    },
    {
      "anonymous": false,
      "inputs": [
        {
          "indexed": false,
          "internalType": "address",
          "name": "newImplementation",
          "type": "address"
        }
      ],
      "name": "ImplementationUpdated",
      "type": "event"
    },
    {
      "anonymous": false,
      "inputs": [
        {
          "indexed": false,
          "internalType": "bytes32",
          "name": "_hash",
          "type": "bytes32"
        },
        {
          "indexed": false,
          "internalType": "address",
          "name": "_address",
          "type": "address"
        },
        {
          "indexed": false,
          "internalType": "uint96",
          "name": "_timestamp",
          "type": "uint96"
        }
      ],
      "name": "StaticSignatureSet",
      "type": "event"
    },
    {
      "inputs": [],
      "name": "FACTORY",
      "outputs": [
        {
          "internalType": "address",
          "name": "",
          "type": "address"
        }
      ],
      "stateMutability": "view",
      "type": "function"
    },
    {
      "inputs": [],
      "name": "INIT_CODE_HASH",
      "outputs": [
        {
          "internalType": "bytes32",
          "name": "",
          "type": "bytes32"
        }
      ],
      "stateMutability": "view",
      "type": "function"
    },
    {
      "inputs": [],
      "name": "STAGE_2_IMPLEMENTATION",
      "outputs": [
        {
          "internalType": "address",
          "name": "",
          "type": "address"
        }
      ],
      "stateMutability": "view",
      "type": "function"
    },
    {
      "inputs": [],
      "name": "getImplementation",
      "outputs": [
        {
          "internalType": "address",
          "name": "",
          "type": "address"
        }
      ],
      "stateMutability": "view",
      "type": "function"
    },
    {
      "inputs": [
        {
          "internalType": "bytes32",
          "name": "_hash",
          "type": "bytes32"
        },
        {
          "internalType": "bytes",
          "name": "_signature",
          "type": "bytes"
        }
      ],
      "name": "isValidSignature",
      "outputs": [
        {
          "internalType": "bytes4",
          "name": "",
          "type": "bytes4"
        }
      ],
      "stateMutability": "view",
      "type": "function"
    },
    {
      "inputs": [
        {
          "components": [
            {
              "internalType": "uint8",
              "name": "kind",
              "type": "uint8"
            },
            {
              "internalType": "bool",
              "name": "noChainId",
              "type": "bool"
            },
            {
              "components": [
                {
                  "internalType": "address",
                  "name": "to",
                  "type": "address"
                },
                {
                  "internalType": "uint256",
                  "name": "value",
                  "type": "uint256"
                },
                {
                  "internalType": "bytes",
                  "name": "data",
                  "type": "bytes"
                },
                {
                  "internalType": "uint256",
                  "name": "gasLimit",
                  "type": "uint256"
                },
                {
                  "internalType": "bool",
                  "name": "delegateCall",
                  "type": "bool"
                },
                {
                  "internalType": "bool",
                  "name": "onlyFallback",
                  "type": "bool"
                },
                {
                  "internalType": "uint256",
                  "name": "behaviorOnError",
                  "type": "uint256"
                }
              ],
              "internalType": "struct Payload.Call[]",
              "name": "calls",
              "type": "tuple[]"
            },
            {
              "internalType": "uint256",
              "name": "space",
              "type": "uint256"
            },
            {
              "internalType": "uint256",
              "name": "nonce",
              "type": "uint256"
            },
            {
              "internalType": "bytes",
              "name": "message",
              "type": "bytes"
            },
            {
              "internalType": "bytes32",
              "name": "imageHash",
              "type": "bytes32"
            },
            {
              "internalType": "bytes32",
              "name": "digest",
              "type": "bytes32"
            },
            {
              "internalType": "address[]",
              "name": "parentWallets",
              "type": "address[]"
            }
          ],
          "internalType": "struct Payload.Decoded",
          "name": "_payload",
          "type": "tuple"
        },
        {
          "internalType": "bytes",
          "name": "_signature",
          "type": "bytes"
        }
      ],
      "name": "recoverPartialSignature",
      "outputs": [
        {
          "internalType": "uint256",
          "name": "threshold",
          "type": "uint256"
        },
        {
          "internalType": "uint256",
          "name": "weight",
          "type": "uint256"
        },
        {
          "internalType": "bool",
          "name": "isValidImage",
          "type": "bool"
        },
        {
          "internalType": "bytes32",
          "name": "imageHash",
          "type": "bytes32"
        },
        {
          "internalType": "uint256",
          "name": "checkpoint",
          "type": "uint256"
        },
        {
          "internalType": "bytes32",
          "name": "opHash",
          "type": "bytes32"
        }
      ],
      "stateMutability": "view",
      "type": "function"
    },
    {
      "inputs": [
        {
          "components": [
            {
              "internalType": "uint8",
              "name": "kind",
              "type": "uint8"
            },
            {
              "internalType": "bool",
              "name": "noChainId",
              "type": "bool"
            },
            {
              "components": [
                {
                  "internalType": "address",
                  "name": "to",
                  "type": "address"
                },
                {
                  "internalType": "uint256",
                  "name": "value",
                  "type": "uint256"
                },
                {
                  "internalType": "bytes",
                  "name": "data",
                  "type": "bytes"
                },
                {
                  "internalType": "uint256",
                  "name": "gasLimit",
                  "type": "uint256"
                },
                {
                  "internalType": "bool",
                  "name": "delegateCall",
                  "type": "bool"
                },
                {
                  "internalType": "bool",
                  "name": "onlyFallback",
                  "type": "bool"
                },
                {
                  "internalType": "uint256",
                  "name": "behaviorOnError",
                  "type": "uint256"
                }
              ],
              "internalType": "struct Payload.Call[]",
              "name": "calls",
              "type": "tuple[]"
            },
            {
              "internalType": "uint256",
              "name": "space",
              "type": "uint256"
            },
            {
              "internalType": "uint256",
              "name": "nonce",
              "type": "uint256"
            },
            {
              "internalType": "bytes",
              "name": "message",
              "type": "bytes"
            },
            {
              "internalType": "bytes32",
              "name": "imageHash",
              "type": "bytes32"
            },
            {
              "internalType": "bytes32",
              "name": "digest",
              "type": "bytes32"
            },
            {
              "internalType": "address[]",
              "name": "parentWallets",
              "type": "address[]"
            }
          ],
          "internalType": "struct Payload.Decoded",
          "name": "_payload",
          "type": "tuple"
        },
        {
          "internalType": "bytes",
          "name": "_signature",
          "type": "bytes"
        }
      ],
      "name": "recoverSapientSignature",
      "outputs": [
        {
          "internalType": "bytes32",
          "name": "",
          "type": "bytes32"
        }
      ],
      "stateMutability": "view",
      "type": "function"
    },
    {
      "inputs": [
        {
          "internalType": "bytes32",
          "name": "_hash",
          "type": "bytes32"
        },
        {
          "internalType": "address",
          "name": "_address",
          "type": "address"
        },
        {
          "internalType": "uint96",
          "name": "_timestamp",
          "type": "uint96"
        }
      ],
      "name": "setStaticSignature",
      "outputs": [],
      "stateMutability": "nonpayable",
      "type": "function"
    },
    {
      "inputs": [
        {
          "internalType": "bytes32",
          "name": "_imageHash",
          "type": "bytes32"
        }
      ],
      "name": "updateImageHash",
      "outputs": [],
      "stateMutability": "nonpayable",
      "type": "function"
    },
    {
      "inputs": [
        {
          "internalType": "address",
          "name": "_implementation",
          "type": "address"
        }
      ],
      "name": "updateImplementation",
      "outputs": [],
      "stateMutability": "payable",
      "type": "function"
    }
  ],
  "bytecode": "0x60e060405234801561001057600080fd5b50604051612f8d380380612f8d83398101604081905261002f916100ab565b60006040518060600160405280602c8152602001612f61602c913960405161005c919030906020016100de565b60408051601f198184030181529190528051602090910120608052506001600160a01b0391821660a0521660c052610110565b80516001600160a01b03811681146100a657600080fd5b919050565b600080604083850312156100be57600080fd5b6100c78361008f565b91506100d56020840161008f565b90509250929050565b6000835160005b818110156100ff57602081870181015185830152016100e5565b509190910191825250602001919050565b60805160a05160c051612dff6101626000396000818161020e0152610ab80152600081816101b5015281816105cb0152610961015260008181610161015281816105fc01526109920152612dff6000f3fe6080604052600436106100b15760003560e01c80632dd3100011610069578063aaf10f421161004e578063aaf10f4214610230578063ad55366b14610245578063f727ef1c1461029857600080fd5b80632dd31000146101a35780639f69ef54146101fc57600080fd5b80631626ba7e1161009a5780631626ba7e146100fe578063257671f51461014f578063295614261461018357600080fd5b8063025b22bc146100b657806313792a4a146100cb575b600080fd5b6100c96100c4366004612329565b6102b8565b005b3480156100d757600080fd5b506100eb6100e63660046126cd565b610304565b6040519081526020015b60405180910390f35b34801561010a57600080fd5b5061011e610119366004612814565b61046f565b6040517fffffffff0000000000000000000000000000000000000000000000000000000090911681526020016100f5565b34801561015b57600080fd5b506100eb7f000000000000000000000000000000000000000000000000000000000000000081565b34801561018f57600080fd5b506100c961019e366004612847565b610505565b3480156101af57600080fd5b506101d77f000000000000000000000000000000000000000000000000000000000000000081565b60405173ffffffffffffffffffffffffffffffffffffffff90911681526020016100f5565b34801561020857600080fd5b506101d77f000000000000000000000000000000000000000000000000000000000000000081565b34801561023c57600080fd5b506101d7610549565b34801561025157600080fd5b506102656102603660046126cd565b610558565b604080519687526020870195909552921515938501939093526060840152608083019190915260a082015260c0016100f5565b3480156102a457600080fd5b506100c96102b3366004612860565b610689565b3330146102f8576040517fa19dbf000000000000000000000000000000000000000000000000000000000081523360048201526024015b60405180910390fd5b61030181610744565b50565b60008084610100015151600161031a91906128b1565b67ffffffffffffffff81111561033257610332612344565b60405190808252806020026020018201604052801561035b578160200160208202803683370190505b50905060005b856101000151518110156103cd578561010001518181518110610386576103866128eb565b60200260200101518282815181106103a0576103a06128eb565b73ffffffffffffffffffffffffffffffffffffffff90921660209283029190910190910152600101610361565b50338186610100015151815181106103e7576103e76128eb565b73ffffffffffffffffffffffffffffffffffffffff9092166020928302919091019091015261010085018190526000610421868686610798565b50905080610461578585856040517ff58cc8b50000000000000000000000000000000000000000000000000000000081526004016102ef93929190612b9d565b5060019150505b9392505050565b604080516101208101825260006020820181905260609282018390528282018190526080820181905260a0820183905260c082018190526101008201929092526003815260e08101859052816104c6828686610798565b509050806104da5750600091506104689050565b507f20c13b0b0000000000000000000000000000000000000000000000000000000095945050505050565b333014610540576040517fa19dbf000000000000000000000000000000000000000000000000000000000081523360048201526024016102ef565b61030181610a20565b6000610553305490565b905090565b60008060008060008061056f898989600080610adc565b93995091975094509250905061067b836040517fff0000000000000000000000000000000000000000000000000000000000000060208201527fffffffffffffffffffffffffffffffffffffffff0000000000000000000000007f000000000000000000000000000000000000000000000000000000000000000060601b166021820152603581018290527f000000000000000000000000000000000000000000000000000000000000000060558201526000903090607501604080517fffffffffffffffffffffffffffffffffffffffffffffffffffffffffffffffe0818403018152919052805160209091012073ffffffffffffffffffffffffffffffffffffffff161492915050565b935093975093979195509350565b3330146106c4576040517fa19dbf000000000000000000000000000000000000000000000000000000000081523360048201526024016102ef565b6106dd8383836bffffffffffffffffffffffff16610e01565b6040805184815273ffffffffffffffffffffffffffffffffffffffff841660208201526bffffffffffffffffffffffff83168183015290517febf265acfac1c01de588ed7ef49743b9c3ce8d6d1edeaf510a1f5453228515b19181900360600190a1505050565b61074c813055565b60405173ffffffffffffffffffffffffffffffffffffffff821681527f310ba5f1d2ed074b51e2eccd052a47ae9ab7c6b800d1fca3db3999d6a592ca039060200160405180910390a150565b6000806000848460008181106107b0576107b06128eb565b7fff000000000000000000000000000000000000000000000000000000000000009201359182169250507f800000000000000000000000000000000000000000000000000000000000000090811690036108af5761080d86610e90565b915060008061081b84610f0b565b9150915042811015610863576040517f9fa4fe5400000000000000000000000000000000000000000000000000000000815260048101859052602481018290526044016102ef565b73ffffffffffffffffffffffffffffffffffffffff8216158061089b575073ffffffffffffffffffffffffffffffffffffffff821633145b156108ac5760019450505050610a18565b50505b60008060006108c2898989600080610adc565b985092955090935091505082821015610911576040517ffd41fcba00000000000000000000000000000000000000000000000000000000815260048101849052602481018390526044016102ef565b610a11816040517fff0000000000000000000000000000000000000000000000000000000000000060208201527fffffffffffffffffffffffffffffffffffffffff0000000000000000000000007f000000000000000000000000000000000000000000000000000000000000000060601b166021820152603581018290527f000000000000000000000000000000000000000000000000000000000000000060558201526000903090607501604080517fffffffffffffffffffffffffffffffffffffffffffffffffffffffffffffffe0818403018152919052805160209091012073ffffffffffffffffffffffffffffffffffffffff161492915050565b9550505050505b935093915050565b80610a57576040517f4294d12700000000000000000000000000000000000000000000000000000000815260040160405180910390fd5b610a807fea7157fa25e3aa17d0ae2d5280fa4e24d421c61842aa85e45194e1145aa72bf8829055565b6040518181527f307ed6bd941ee9fc80f369c94af5fa11e25bab5102a6140191756c5474a30bfa9060200160405180910390a16103017f0000000000000000000000000000000000000000000000000000000000000000610744565b6040805180820182526000808252602082018190529182918291829182918a3560f81c91600191808416148015610b27575073ffffffffffffffffffffffffffffffffffffffff8916155b15610c43578b82013560601c985060149091019089610c435760038201918c013560e81c60008d848e610b5a85836128b1565b92610b6793929190612bcd565b8080601f016020809104026020016040519081016040528093929190818152602001838380828437600092019190915250506040517fccce3bc80000000000000000000000000000000000000000000000000000000081529293505073ffffffffffffffffffffffffffffffffffffffff8d169163ccce3bc89150610bf29030908590600401612bf7565b6040805180830381865afa158015610c0e573d6000803e3d6000fd5b505050506040513d601f19601f82011682018060405250810190610c329190612c2e565b9250610c3e82856128b1565b935050505b82600116600103610c7d57610c6b8d8a838f8f87908092610c6693929190612bcd565b610f57565b97509750975097509750505050610df4565b6002838116811460208f015283901c60071660016008820290811b7fffffffffffffffffffffffffffffffffffffffffffffffffffffffffffffffff018e850135610100929092039190911c16838201909650925060009050610ce86001600586901c8116906128b1565b60016008820290811b7fffffffffffffffffffffffffffffffffffffffffffffffffffffffffffffffff018f860135610100929092039190911c1699509092019150610d338d610e90565b9350610d518d858e8e86908092610d4c93929190612bcd565b6111a3565b600090815260208a815260408083208352888252808320835273ffffffffffffffffffffffffffffffffffffffff8d1690915290208251919850965015801590610d9c575080518614155b8015610dac575080602001518511155b15610df0576040517fccbb534f00000000000000000000000000000000000000000000000000000000815281516004820152602082015160248201526044016102ef565b5050505b9550955095509550959050565b610e8b7fc852adf5e97c2fc3b38f405671e91b7af1697ef0287577f227ef10494c2a8e86847fffffffffffffffffffffffffffffffffffffffff000000000000000000000000606086901b166bffffffffffffffffffffffff8516176040805160208082019590955280820193909352805180840382018152606090930190528151919092012055565b505050565b600080610ea1836020015130611b87565b90506000610eae84611c55565b6040517f1901000000000000000000000000000000000000000000000000000000000000602082015260228101849052604281018290529091506062015b6040516020818303038152906040528051906020012092505050919050565b60008080610f397fc852adf5e97c2fc3b38f405671e91b7af1697ef0287577f227ef10494c2a8e8685611eab565b606081901c956bffffffffffffffffffffffff909116945092505050565b6000806000806000610fb9604051806101200160405280600060ff168152602001600015158152602001606081526020016000815260200160008152602001606081526020016000801916815260200160008019168152602001606081525090565b6002815260007fffffffffffffffffffffffffffffffffffffffffffffffffffffffffffffffff5b888210156111305760038201916000908b013560e81c61100184826128b1565b9150600090508a8214611015576000611017565b8d5b905060007fffffffffffffffffffffffffffffffffffffffffffffffffffffffffffffffff8414611048578561104a565b8f5b905061106a818e8e8890879261106293929190612bcd565b600186610adc565b50929d50909b50995097508a8a10156110c7578c8c8690859261108f93929190612bcd565b8c8c6040517fb006aba00000000000000000000000000000000000000000000000000000000081526004016102ef9493929190612c7f565b829450888e60000151036110da5760008e525b83881061111d576040517f37daf62b00000000000000000000000000000000000000000000000000000000815260048101899052602481018590526044016102ef565b505060c084018790529150849050610fe1565b8a511580159061114457508a602001518511155b15611188576040517fccbb534f0000000000000000000000000000000000000000000000000000000081528b51600482015260208c015160248201526044016102ef565b6111918d610e90565b93505050509550955095509550959050565b60008060005b83811015611b7d57600181019085013560f881901c9060fc1c806112c657600f821660008190036111e15750600183019287013560f81c5b60408051600080825260208281018085528d9052601b8c89019182013560ff81811c928301908116868801529235606086018190527f7fffffffffffffffffffffffffffffffffffffffffffffffffffffffffffffff82166080870181905296909a0199959094919390929160019060a0015b6020604051602081039080840390855afa158015611276573d6000803e3d6000fd5b5050506020604051035190508660ff168c019b506000611299828960ff16611f09565b90508b6112a657806112b5565b60008c81526020829052604090205b9b50505050505050505050506111a9565b6001810361132a57600f821660008190036112e85750600183019287013560f81c5b601484019388013560601c60006113028260ff8516611f09565b90508661130f578061131e565b60008781526020829052604090205b965050505050506111a9565b600281036115115760038216600081900361134c5750600183019287013560f81c5b60008489013560601c60148601955090506003600285901c16600060016008830290811b7fffffffffffffffffffffffffffffffffffffffffffffffffffffffffffffffff018c890135610100929092039190911c168288018098508192505050600081880190506320c13b0b60e01b7bffffffffffffffffffffffffffffffffffffffffffffffffffffffff19168473ffffffffffffffffffffffffffffffffffffffff16631626ba7e8f8f8f8d90879261140a93929190612bcd565b6040518463ffffffff1660e01b815260040161142893929190612ca6565b602060405180830381865afa158015611445573d6000803e3d6000fd5b505050506040513d601f19601f820116820180604052508101906114699190612cc0565b7fffffffff0000000000000000000000000000000000000000000000000000000016146114cc578d8d858e8e6040517ff734863a0000000000000000000000000000000000000000000000000000000081526004016102ef959493929190612d02565b8097508460ff168a01995060006114e6858760ff16611f09565b9050896114f35780611502565b60008a81526020829052604090205b995050505050505050506111a9565b600381036115455760208301928701358461152c578061153b565b60008581526020829052604090205b94505050506111a9565b600481036115eb57600f8216600060016008830290811b7fffffffffffffffffffffffffffffffffffffffffffffffffffffffffffffffff018a870135610100929092039190911c168583018096508192505050600081860190506000806115ba8e8e8e8e8c908892610d4c93929190612bcd565b91509150829750818a0199506115da898260009182526020526040902090565b9850829750505050505050506111a9565b600681036116b5576003600283901c1660008190036116115750600183019287013560f81c5b60038316600081900361162b5750600284019388013560f01c5b6000858a013560e81c600387018162ffffff1691508097508192505050600081870190506000806116698f8f8f8f8d908892610d4c93929190612bcd565b9150915082985084821061167c57998501995b6000611689828789611f70565b90508a61169657806116a5565b60008b81526020829052604090205b9a505050505050505050506111a9565b600581036117225760208301928701358881036116f0577fffffffffffffffffffffffffffffffffffffffffffffffffffffffffffffffff95505b60006116fb82611fd4565b9050856117085780611717565b60008681526020829052604090205b9550505050506111a9565b6007810361182857600f821660008190036117445750600183019287013560f81c5b600080858a0135602087019650915089860135602087016040517f19457468657265756d205369676e6564204d6573736167653a0a3332000000006020820152603c81018e905290975090915060ff82901c907f7fffffffffffffffffffffffffffffffffffffffffffffffffffffffffffffff831690601b830190600090600190605c01604080517fffffffffffffffffffffffffffffffffffffffffffffffffffffffffffffffe08184030181528282528051602091820120600084529083018083525260ff851690820152606081018890526080810185905260a001611254565b6008810361187c57602083019287013560006118448b82612028565b9050808203611871577fffffffffffffffffffffffffffffffffffffffffffffffffffffffffffffffff96505b6000611302826120a3565b600981036119e25760038216600081900361189e5750600183019287013560f81c5b60008489013560601c601486019550905060006003600286901c1660016008820290811b7fffffffffffffffffffffffffffffffffffffffffffffffffffffffffffffffff018c890135610100929092039190911c168188018098508193505050506000818701905060008373ffffffffffffffffffffffffffffffffffffffff166313792a4a8f8e8e8c90879261193893929190612bcd565b6040518463ffffffff1660e01b815260040161195693929190612b9d565b602060405180830381865afa158015611973573d6000803e3d6000fd5b505050506040513d601f19601f820116820180604052508101906119979190612d56565b90508197508460ff168a01995060006119b4858760ff16846120de565b9050896119c157806119d0565b60008a81526020829052604090205b995082985050505050505050506111a9565b600a8103611b4857600382166000819003611a045750600183019287013560f81c5b60008489013560601c60148601955090506003600285901c16600060016008830290811b7fffffffffffffffffffffffffffffffffffffffffffffffffffffffffffffffff018c890135610100929092039190911c1682880180985081925050506000818801905060008473ffffffffffffffffffffffffffffffffffffffff1663898bd9218f8f8f8d908792611a9d93929190612bcd565b6040518463ffffffff1660e01b8152600401611abb93929190612ca6565b602060405180830381865afa158015611ad8573d6000803e3d6000fd5b505050506040513d601f19601f82011682018060405250810190611afc9190612d56565b90508198508560ff168b019a506000611b19868860ff16846120de565b90508a611b265780611b35565b60008b81526020829052604090205b9a508299505050505050505050506111a9565b6040517fb2505f7c000000000000000000000000000000000000000000000000000000008152600481018290526024016102ef565b5094509492505050565b60007f8b73c3c69bb8fe3d512ecc4cf759cc79239f7b179b0ffacaa9a75d522b39400f7f4aa45ca7ad825ceb1bf35643f0a58c295239df563b1b565c2485f96477c563187f2a80e1ef1d7842f27f2e6be0972bb708b9a135c38860dbe73c27c3486c34f4de85611bf75746611bfa565b60005b6040805160208101959095528401929092526060830152608082015273ffffffffffffffffffffffffffffffffffffffff831660a082015260c0015b6040516020818303038152906040528051906020012090505b92915050565b600080611c6683610100015161214c565b835190915060ff16611cd9576000611c8184604001516121cf565b606080860151608080880151604080517f11e1e4079a79a66e4ade50033cfe2678cdd5341d2dfe5ef9513edb1a0be147a260208201529081018690529384019290925282015260a0810184905290915060c001610eec565b825160ff167fffffffffffffffffffffffffffffffffffffffffffffffffffffffffffffffff01611d695760a08301518051602091820120604080517fe19a3b94fc3c7ece3f890d98a99bc422615537a08dea0603fa8425867d87d46693810193909352820152606081018290526080015b60405160208183030381529060405280519060200120915050919050565b825160ff167ffffffffffffffffffffffffffffffffffffffffffffffffffffffffffffffffe01611dd95760c0830151604080517f11fdeb7e8373a1aa96bfac8d0ea91526b2c5d15e5cee20e0543e780258f3e8e460208201529081019190915260608101829052608001611d4b565b825160ff167ffffffffffffffffffffffffffffffffffffffffffffffffffffffffffffffffd01611e495760e0830151604080517fe19a3b94fc3c7ece3f890d98a99bc422615537a08dea0603fa8425867d87d46660208201529081019190915260608101829052608001611d4b565b6040517f08c379a000000000000000000000000000000000000000000000000000000000815260206004820152601060248201527f556e737570706f72746564206b696e640000000000000000000000000000000060448201526064016102ef565b6000808383604051602001611eca929190918252602082015260400190565b604080517fffffffffffffffffffffffffffffffffffffffffffffffffffffffffffffffe0818403018152919052805160209091012054949350505050565b6040517f53657175656e6365207369676e65723a0a00000000000000000000000000000060208201527fffffffffffffffffffffffffffffffffffffffff000000000000000000000000606084901b16603182015260458101829052600090606501611c36565b6040517f53657175656e6365206e657374656420636f6e6669673a0a000000000000000060208201526038810184905260588101839052607881018290526000906098015b6040516020818303038152906040528051906020012090509392505050565b6040517f53657175656e636520737461746963206469676573743a0a00000000000000006020820152603881018290526000906058015b604051602081830303815290604052805190602001209050919050565b600080612039846020015184611b87565b9050600061204685611c55565b6040517f190100000000000000000000000000000000000000000000000000000000000060208201526022810184905260428101829052909150606201604051602081830303815290604052805190602001209250505092915050565b604080517f53657175656e636520616e792061646472657373207375626469676573743a0a602082015290810182905260009060600161200b565b6040517f53657175656e63652073617069656e7420636f6e6669673a0a0000000000000060208201527fffffffffffffffffffffffffffffffffffffffff000000000000000000000000606085901b166039820152604d8101839052606d8101829052600090608d01611fb5565b6000606060005b83518110156121c0578184828151811061216f5761216f6128eb565b6020026020010151604051602001612188929190612d6f565b604080517fffffffffffffffffffffffffffffffffffffffffffffffffffffffffffffffe08184030181529190529150600101612153565b50805160209091012092915050565b6000606060005b83518110156121c05760006122038583815181106121f6576121f66128eb565b6020026020010151612251565b90508281604051602001612218929190612da7565b604080517fffffffffffffffffffffffffffffffffffffffffffffffffffffffffffffffe08184030181529190529250506001016121d6565b60007f0603985259a953da1f65a522f589c17bd1d0117ec1d3abb7c0788aef251ef43782600001518360200151846040015180519060200120856060015186608001518760a001518860c0015160405160200161200b98979695949392919097885273ffffffffffffffffffffffffffffffffffffffff969096166020880152604087019490945260608601929092526080850152151560a0840152151560c083015260e08201526101000190565b803573ffffffffffffffffffffffffffffffffffffffff8116811461232457600080fd5b919050565b60006020828403121561233b57600080fd5b61046882612300565b7f4e487b7100000000000000000000000000000000000000000000000000000000600052604160045260246000fd5b60405160e0810167ffffffffffffffff8111828210171561239657612396612344565b60405290565b604051610120810167ffffffffffffffff8111828210171561239657612396612344565b604051601f82017fffffffffffffffffffffffffffffffffffffffffffffffffffffffffffffffe016810167ffffffffffffffff8111828210171561240757612407612344565b604052919050565b803560ff8116811461232457600080fd5b8035801515811461232457600080fd5b600067ffffffffffffffff82111561244a5761244a612344565b5060051b60200190565b600082601f83011261246557600080fd5b813567ffffffffffffffff81111561247f5761247f612344565b6124b060207fffffffffffffffffffffffffffffffffffffffffffffffffffffffffffffffe0601f840116016123c0565b8181528460208386010111156124c557600080fd5b816020850160208301376000918101602001919091529392505050565b600082601f8301126124f357600080fd5b813561250661250182612430565b6123c0565b8082825260208201915060208360051b86010192508583111561252857600080fd5b602085015b8381101561261557803567ffffffffffffffff81111561254c57600080fd5b860160e08189037fffffffffffffffffffffffffffffffffffffffffffffffffffffffffffffffe001121561258057600080fd5b612588612373565b61259460208301612300565b815260408201356020820152606082013567ffffffffffffffff8111156125ba57600080fd5b6125c98a602083860101612454565b604083015250608082013560608201526125e560a08301612420565b60808201526125f660c08301612420565b60a082015260e0919091013560c082015283526020928301920161252d565b5095945050505050565b600082601f83011261263057600080fd5b813561263e61250182612430565b8082825260208201915060208360051b86010192508583111561266057600080fd5b602085015b838110156126155761267681612300565b835260209283019201612665565b60008083601f84011261269657600080fd5b50813567ffffffffffffffff8111156126ae57600080fd5b6020830191508360208285010111156126c657600080fd5b9250929050565b6000806000604084860312156126e257600080fd5b833567ffffffffffffffff8111156126f957600080fd5b8401610120818703121561270c57600080fd5b61271461239c565b61271d8261240f565b815261272b60208301612420565b6020820152604082013567ffffffffffffffff81111561274a57600080fd5b612756888285016124e2565b604083015250606082810135908201526080808301359082015260a082013567ffffffffffffffff81111561278a57600080fd5b61279688828501612454565b60a08301525060c0828101359082015260e0808301359082015261010082013567ffffffffffffffff8111156127cb57600080fd5b6127d78882850161261f565b61010083015250935050602084013567ffffffffffffffff8111156127fb57600080fd5b61280786828701612684565b9497909650939450505050565b60008060006040848603121561282957600080fd5b83359250602084013567ffffffffffffffff8111156127fb57600080fd5b60006020828403121561285957600080fd5b5035919050565b60008060006060848603121561287557600080fd5b8335925061288560208501612300565b915060408401356bffffffffffffffffffffffff811681146128a657600080fd5b809150509250925092565b80820180821115611c4f577f4e487b7100000000000000000000000000000000000000000000000000000000600052601160045260246000fd5b7f4e487b7100000000000000000000000000000000000000000000000000000000600052603260045260246000fd5b60005b8381101561293557818101518382015260200161291d565b50506000910152565b6000815180845261295681602086016020860161291a565b601f017fffffffffffffffffffffffffffffffffffffffffffffffffffffffffffffffe0169290920160200192915050565b600082825180855260208501945060208160051b8301016020850160005b83811015612a58577fffffffffffffffffffffffffffffffffffffffffffffffffffffffffffffffe0858403018852815173ffffffffffffffffffffffffffffffffffffffff815116845260208101516020850152604081015160e06040860152612a1460e086018261293e565b6060838101519087015260808084015115159087015260a08084015115159087015260c09283015192909501919091525060209788019791909101906001016129a6565b50909695505050505050565b600081518084526020840193506020830160005b82811015612aac57815173ffffffffffffffffffffffffffffffffffffffff16865260209586019590910190600101612a78565b5093949350505050565b805160ff16825260006020820151612ad2602085018215159052565b5060408201516101206040850152612aee610120850182612988565b9050606083015160608501526080830151608085015260a083015184820360a0860152612b1b828261293e565b91505060c083015160c085015260e083015160e0850152610100830151848203610100860152612b4b8282612a64565b95945050505050565b8183528181602085013750600060208284010152600060207fffffffffffffffffffffffffffffffffffffffffffffffffffffffffffffffe0601f840116840101905092915050565b604081526000612bb06040830186612ab6565b8281036020840152612bc3818587612b54565b9695505050505050565b60008085851115612bdd57600080fd5b83861115612bea57600080fd5b5050820193919092039150565b73ffffffffffffffffffffffffffffffffffffffff83168152604060208201526000612c26604083018461293e565b949350505050565b60006040828403128015612c4157600080fd5b506040805190810167ffffffffffffffff81118282101715612c6557612c65612344565b604052825181526020928301519281019290925250919050565b606081526000612c93606083018688612b54565b6020830194909452506040015292915050565b838152604060208201526000612b4b604083018486612b54565b600060208284031215612cd257600080fd5b81517fffffffff000000000000000000000000000000000000000000000000000000008116811461046857600080fd5b608081526000612d156080830188612ab6565b86602084015273ffffffffffffffffffffffffffffffffffffffff861660408401528281036060840152612d4a818587612b54565b98975050505050505050565b600060208284031215612d6857600080fd5b5051919050565b604081526000612d82604083018561293e565b905073ffffffffffffffffffffffffffffffffffffffff831660208301529392505050565b60008351612db981846020880161291a565b919091019182525060200191905056fea2646970667358221220ea6f58b5b6770cfd5d04c375216e16d69928ac00b9134f38ae8e590c361fdcd064736f6c634300081b0033603e600e3d39601e805130553df33d3d34601c57363d3d373d363d30545af43d82803e903d91601c57fd5bf3",
  "linkReferences": {},
  "deployedLinkReferences": {}
}