{
  "_format": "hh-sol-artifact-1",
  "contractName": "Stage1Auth",
  "sourceName": "src/modules/auth/Stage1Auth.sol",
  "abi": [
    {
      "inputs": [
        {
          "internalType": "address",
          "name": "_factory",
          "type": "address"
        },
        {
          "internalType": "address",
          "name": "_stage2",
          "type": "address"
        }
      ],
      "stateMutability": "nonpayable",
      "type": "constructor"
    },
    {
      "inputs": [],
      "name": "ImageHashIsZero",
      "type": "error"
    },
    {
      "inputs": [
        {
          "components": [
            {
              "internalType": "uint8",
              "name": "kind",
              "type": "uint8"
            },
            {
              "internalType": "bool",
              "name": "noChainId",
              "type": "bool"
            },
            {
              "components": [
                {
                  "internalType": "address",
                  "name": "to",
                  "type": "address"
                },
                {
                  "internalType": "uint256",
                  "name": "value",
                  "type": "uint256"
                },
                {
                  "internalType": "bytes",
                  "name": "data",
                  "type": "bytes"
                },
                {
                  "internalType": "uint256",
                  "name": "gasLimit",
                  "type": "uint256"
                },
                {
                  "internalType": "bool",
                  "name": "delegateCall",
                  "type": "bool"
                },
                {
                  "internalType": "bool",
                  "name": "onlyFallback",
                  "type": "bool"
                },
                {
                  "internalType": "uint256",
                  "name": "behaviorOnError",
                  "type": "uint256"
                }
              ],
              "internalType": "struct Payload.Call[]",
              "name": "calls",
              "type": "tuple[]"
            },
            {
              "internalType": "uint256",
              "name": "space",
              "type": "uint256"
            },
            {
              "internalType": "uint256",
              "name": "nonce",
              "type": "uint256"
            },
            {
              "internalType": "bytes",
              "name": "message",
              "type": "bytes"
            },
            {
              "internalType": "bytes32",
              "name": "imageHash",
              "type": "bytes32"
            },
            {
              "internalType": "bytes32",
              "name": "digest",
              "type": "bytes32"
            },
            {
              "internalType": "address[]",
              "name": "parentWallets",
              "type": "address[]"
            }
          ],
          "internalType": "struct Payload.Decoded",
          "name": "_payload",
          "type": "tuple"
        },
        {
          "internalType": "bytes32",
          "name": "_subdigest",
          "type": "bytes32"
        },
        {
          "internalType": "address",
          "name": "_signer",
          "type": "address"
        },
        {
          "internalType": "bytes",
          "name": "_signature",
          "type": "bytes"
        }
      ],
      "name": "InvalidNestedSignature",
      "type": "error"
    },
    {
      "inputs": [
        {
          "components": [
            {
              "internalType": "uint8",
              "name": "kind",
              "type": "uint8"
            },
            {
              "internalType": "bool",
              "name": "noChainId",
              "type": "bool"
            },
            {
              "components": [
                {
                  "internalType": "address",
                  "name": "to",
                  "type": "address"
                },
                {
                  "internalType": "uint256",
                  "name": "value",
                  "type": "uint256"
                },
                {
                  "internalType": "bytes",
                  "name": "data",
                  "type": "bytes"
                },
                {
                  "internalType": "uint256",
                  "name": "gasLimit",
                  "type": "uint256"
                },
                {
                  "internalType": "bool",
                  "name": "delegateCall",
                  "type": "bool"
                },
                {
                  "internalType": "bool",
                  "name": "onlyFallback",
                  "type": "bool"
                },
                {
                  "internalType": "uint256",
                  "name": "behaviorOnError",
                  "type": "uint256"
                }
              ],
              "internalType": "struct Payload.Call[]",
              "name": "calls",
              "type": "tuple[]"
            },
            {
              "internalType": "uint256",
              "name": "space",
              "type": "uint256"
            },
            {
              "internalType": "uint256",
              "name": "nonce",
              "type": "uint256"
            },
            {
              "internalType": "bytes",
              "name": "message",
              "type": "bytes"
            },
            {
              "internalType": "bytes32",
              "name": "imageHash",
              "type": "bytes32"
            },
            {
              "internalType": "bytes32",
              "name": "digest",
              "type": "bytes32"
            },
            {
              "internalType": "address[]",
              "name": "parentWallets",
              "type": "address[]"
            }
          ],
          "internalType": "struct Payload.Decoded",
          "name": "_payload",
          "type": "tuple"
        },
        {
          "internalType": "bytes",
          "name": "_signature",
          "type": "bytes"
        }
      ],
      "name": "InvalidSapientSignature",
      "type": "error"
    },
    {
      "inputs": [
        {
          "internalType": "uint256",
          "name": "_flag",
          "type": "uint256"
        }
      ],
      "name": "InvalidSignatureFlag",
      "type": "error"
    },
    {
      "inputs": [
        {
          "internalType": "bytes1",
          "name": "_type",
          "type": "bytes1"
        }
      ],
      "name": "InvalidSignatureType",
      "type": "error"
    },
    {
      "inputs": [
        {
          "internalType": "bytes32",
          "name": "_opHash",
          "type": "bytes32"
        },
        {
          "internalType": "uint256",
          "name": "_expires",
          "type": "uint256"
        }
      ],
      "name": "InvalidStaticSignature",
      "type": "error"
    },
    {
      "inputs": [
        {
          "internalType": "bytes",
          "name": "_signature",
          "type": "bytes"
        },
        {
          "internalType": "uint256",
          "name": "_threshold",
          "type": "uint256"
        },
        {
          "internalType": "uint256",
          "name": "_weight",
          "type": "uint256"
        }
      ],
      "name": "LowWeightChainedSignature",
      "type": "error"
    },
    {
      "inputs": [
        {
          "internalType": "address",
          "name": "_sender",
          "type": "address"
        }
      ],
      "name": "OnlySelf",
      "type": "error"
    },
    {
      "inputs": [
        {
          "components": [
            {
              "internalType": "bytes32",
              "name": "imageHash",
              "type": "bytes32"
            },
            {
              "internalType": "uint256",
              "name": "checkpoint",
              "type": "uint256"
            }
          ],
          "internalType": "struct Snapshot",
          "name": "_snapshot",
          "type": "tuple"
        }
      ],
      "name": "UnusedSnapshot",
      "type": "error"
    },
    {
      "inputs": [
        {
          "internalType": "uint256",
          "name": "_nextCheckpoint",
          "type": "uint256"
        },
        {
          "internalType": "uint256",
          "name": "_checkpoint",
          "type": "uint256"
        }
      ],
      "name": "WrongChainedCheckpointOrder",
      "type": "error"
    },
    {
      "anonymous": false,
      "inputs": [
        {
          "indexed": false,
          "internalType": "bytes32",
          "name": "newImageHash",
          "type": "bytes32"
        }
      ],
      "name": "ImageHashUpdated",
      "type": "event"
    },
    {
      "anonymous": false,
      "inputs": [
        {
          "indexed": false,
          "internalType": "address",
          "name": "newImplementation",
          "type": "address"
        }
      ],
      "name": "ImplementationUpdated",
      "type": "event"
    },
    {
      "anonymous": false,
      "inputs": [
        {
          "indexed": false,
          "internalType": "bytes32",
          "name": "_hash",
          "type": "bytes32"
        },
        {
          "indexed": false,
          "internalType": "address",
          "name": "_address",
          "type": "address"
        },
        {
          "indexed": false,
          "internalType": "uint96",
          "name": "_timestamp",
          "type": "uint96"
        }
      ],
      "name": "StaticSignatureSet",
      "type": "event"
    },
    {
      "inputs": [],
      "name": "FACTORY",
      "outputs": [
        {
          "internalType": "address",
          "name": "",
          "type": "address"
        }
      ],
      "stateMutability": "view",
      "type": "function"
    },
    {
      "inputs": [],
      "name": "INIT_CODE_HASH",
      "outputs": [
        {
          "internalType": "bytes32",
          "name": "",
          "type": "bytes32"
        }
      ],
      "stateMutability": "view",
      "type": "function"
    },
    {
      "inputs": [],
      "name": "STAGE_2_IMPLEMENTATION",
      "outputs": [
        {
          "internalType": "address",
          "name": "",
          "type": "address"
        }
      ],
      "stateMutability": "view",
      "type": "function"
    },
    {
      "inputs": [],
      "name": "getImplementation",
      "outputs": [
        {
          "internalType": "address",
          "name": "",
          "type": "address"
        }
      ],
      "stateMutability": "view",
      "type": "function"
    },
    {
      "inputs": [
        {
          "components": [
            {
              "internalType": "uint8",
              "name": "kind",
              "type": "uint8"
            },
            {
              "internalType": "bool",
              "name": "noChainId",
              "type": "bool"
            },
            {
              "components": [
                {
                  "internalType": "address",
                  "name": "to",
                  "type": "address"
                },
                {
                  "internalType": "uint256",
                  "name": "value",
                  "type": "uint256"
                },
                {
                  "internalType": "bytes",
                  "name": "data",
                  "type": "bytes"
                },
                {
                  "internalType": "uint256",
                  "name": "gasLimit",
                  "type": "uint256"
                },
                {
                  "internalType": "bool",
                  "name": "delegateCall",
                  "type": "bool"
                },
                {
                  "internalType": "bool",
                  "name": "onlyFallback",
                  "type": "bool"
                },
                {
                  "internalType": "uint256",
                  "name": "behaviorOnError",
                  "type": "uint256"
                }
              ],
              "internalType": "struct Payload.Call[]",
              "name": "calls",
              "type": "tuple[]"
            },
            {
              "internalType": "uint256",
              "name": "space",
              "type": "uint256"
            },
            {
              "internalType": "uint256",
              "name": "nonce",
              "type": "uint256"
            },
            {
              "internalType": "bytes",
              "name": "message",
              "type": "bytes"
            },
            {
              "internalType": "bytes32",
              "name": "imageHash",
              "type": "bytes32"
            },
            {
              "internalType": "bytes32",
              "name": "digest",
              "type": "bytes32"
            },
            {
              "internalType": "address[]",
              "name": "parentWallets",
              "type": "address[]"
            }
          ],
          "internalType": "struct Payload.Decoded",
          "name": "_payload",
          "type": "tuple"
        },
        {
          "internalType": "bytes",
          "name": "_signature",
          "type": "bytes"
        }
      ],
      "name": "isValidSapientSignature",
      "outputs": [
        {
          "internalType": "bytes32",
          "name": "",
          "type": "bytes32"
        }
      ],
      "stateMutability": "view",
      "type": "function"
    },
    {
      "inputs": [
        {
          "internalType": "bytes32",
          "name": "_hash",
          "type": "bytes32"
        },
        {
          "internalType": "bytes",
          "name": "_signature",
          "type": "bytes"
        }
      ],
      "name": "isValidSignature",
      "outputs": [
        {
          "internalType": "bytes4",
          "name": "",
          "type": "bytes4"
        }
      ],
      "stateMutability": "view",
      "type": "function"
    },
    {
      "inputs": [
        {
          "components": [
            {
              "internalType": "uint8",
              "name": "kind",
              "type": "uint8"
            },
            {
              "internalType": "bool",
              "name": "noChainId",
              "type": "bool"
            },
            {
              "components": [
                {
                  "internalType": "address",
                  "name": "to",
                  "type": "address"
                },
                {
                  "internalType": "uint256",
                  "name": "value",
                  "type": "uint256"
                },
                {
                  "internalType": "bytes",
                  "name": "data",
                  "type": "bytes"
                },
                {
                  "internalType": "uint256",
                  "name": "gasLimit",
                  "type": "uint256"
                },
                {
                  "internalType": "bool",
                  "name": "delegateCall",
                  "type": "bool"
                },
                {
                  "internalType": "bool",
                  "name": "onlyFallback",
                  "type": "bool"
                },
                {
                  "internalType": "uint256",
                  "name": "behaviorOnError",
                  "type": "uint256"
                }
              ],
              "internalType": "struct Payload.Call[]",
              "name": "calls",
              "type": "tuple[]"
            },
            {
              "internalType": "uint256",
              "name": "space",
              "type": "uint256"
            },
            {
              "internalType": "uint256",
              "name": "nonce",
              "type": "uint256"
            },
            {
              "internalType": "bytes",
              "name": "message",
              "type": "bytes"
            },
            {
              "internalType": "bytes32",
              "name": "imageHash",
              "type": "bytes32"
            },
            {
              "internalType": "bytes32",
              "name": "digest",
              "type": "bytes32"
            },
            {
              "internalType": "address[]",
              "name": "parentWallets",
              "type": "address[]"
            }
          ],
          "internalType": "struct Payload.Decoded",
          "name": "_payload",
          "type": "tuple"
        },
        {
          "internalType": "bytes",
          "name": "_signature",
          "type": "bytes"
        }
      ],
      "name": "recoverPartialSignature",
      "outputs": [
        {
          "internalType": "uint256",
          "name": "threshold",
          "type": "uint256"
        },
        {
          "internalType": "uint256",
          "name": "weight",
          "type": "uint256"
        },
        {
          "internalType": "bool",
          "name": "isValidImage",
          "type": "bool"
        },
        {
          "internalType": "bytes32",
          "name": "imageHash",
          "type": "bytes32"
        },
        {
          "internalType": "uint256",
          "name": "checkpoint",
          "type": "uint256"
        },
        {
          "internalType": "bytes32",
          "name": "opHash",
          "type": "bytes32"
        }
      ],
      "stateMutability": "view",
      "type": "function"
    },
    {
      "inputs": [
        {
          "internalType": "bytes32",
          "name": "_hash",
          "type": "bytes32"
        },
        {
          "internalType": "address",
          "name": "_address",
          "type": "address"
        },
        {
          "internalType": "uint96",
          "name": "_timestamp",
          "type": "uint96"
        }
      ],
      "name": "setStaticSignature",
      "outputs": [],
      "stateMutability": "nonpayable",
      "type": "function"
    },
    {
      "inputs": [
        {
          "internalType": "bytes32",
          "name": "_imageHash",
          "type": "bytes32"
        }
      ],
      "name": "updateImageHash",
      "outputs": [],
      "stateMutability": "nonpayable",
      "type": "function"
    },
    {
      "inputs": [
        {
          "internalType": "address",
          "name": "_implementation",
          "type": "address"
        }
      ],
      "name": "updateImplementation",
      "outputs": [],
      "stateMutability": "nonpayable",
      "type": "function"
    }
  ],
  "bytecode": "0x60e060405234801561001057600080fd5b50604051612ede380380612ede83398101604081905261002f916100ab565b6000604051806060016040528060288152602001612eb66028913960405161005c919030906020016100de565b60408051601f198184030181529190528051602090910120608052506001600160a01b0391821660a0521660c052610110565b80516001600160a01b03811681146100a657600080fd5b919050565b600080604083850312156100be57600080fd5b6100c78361008f565b91506100d56020840161008f565b90509250929050565b6000835160005b818110156100ff57602081870181015185830152016100e5565b509190910191825250602001919050565b60805160a05160c051612d54610162600039600081816101ba0152610a0d01526000818161016e015281816103fa01526108b60152600081816101260152818161042b01526108e70152612d546000f3fe608060405234801561001057600080fd5b50600436106100be5760003560e01c80639f69ef5411610076578063ad55366b1161005b578063ad55366b146101e4578063ca7078501461022a578063f727ef1c1461023d57600080fd5b80639f69ef54146101b5578063aaf10f42146101dc57600080fd5b8063257671f5116100a7578063257671f51461012157806329561426146101565780632dd310001461016957600080fd5b8063025b22bc146100c35780631626ba7e146100d8575b600080fd5b6100d66100d136600461227e565b610250565b005b6100eb6100e63660046122e2565b61029c565b6040517fffffffff0000000000000000000000000000000000000000000000000000000090911681526020015b60405180910390f35b6101487f000000000000000000000000000000000000000000000000000000000000000081565b604051908152602001610118565b6100d661016436600461232e565b610334565b6101907f000000000000000000000000000000000000000000000000000000000000000081565b60405173ffffffffffffffffffffffffffffffffffffffff9091168152602001610118565b6101907f000000000000000000000000000000000000000000000000000000000000000081565b610190610378565b6101f76101f2366004612687565b610387565b604080519687526020870195909552921515938501939093526060840152608083019190915260a082015260c001610118565b610148610238366004612687565b6104b8565b6100d661024b3660046127b5565b610621565b333014610290576040517fa19dbf000000000000000000000000000000000000000000000000000000000081523360048201526024015b60405180910390fd5b610299816106dc565b50565b604080516101208101825260006020820181905260609282018390528282018190526080820181905260a0820183905260c082018190526101008201929092526003815260e08101859052816102f3828686610730565b5090508061030757506000915061032d9050565b507f20c13b0b000000000000000000000000000000000000000000000000000000009150505b9392505050565b33301461036f576040517fa19dbf00000000000000000000000000000000000000000000000000000000008152336004820152602401610287565b61029981610975565b6000610382305490565b905090565b60008060008060008061039e898989600080610a31565b9399509197509450925090506104aa836040517fff0000000000000000000000000000000000000000000000000000000000000060208201527fffffffffffffffffffffffffffffffffffffffff0000000000000000000000007f000000000000000000000000000000000000000000000000000000000000000060601b166021820152603581018290527f000000000000000000000000000000000000000000000000000000000000000060558201526000903090607501604080517fffffffffffffffffffffffffffffffffffffffffffffffffffffffffffffffe0818403018152919052805160209091012073ffffffffffffffffffffffffffffffffffffffff161492915050565b935093975093979195509350565b6000808461010001515160016104ce9190612806565b67ffffffffffffffff8111156104e6576104e6612347565b60405190808252806020026020018201604052801561050f578160200160208202803683370190505b50905060005b8561010001515181101561058157856101000151818151811061053a5761053a612840565b602002602001015182828151811061055457610554612840565b73ffffffffffffffffffffffffffffffffffffffff90921660209283029190910190910152600101610515565b503381866101000151518151811061059b5761059b612840565b73ffffffffffffffffffffffffffffffffffffffff90921660209283029190910190910152610100850181905260006105d5868686610730565b50905080610615578585856040517ff58cc8b500000000000000000000000000000000000000000000000000000000815260040161028793929190612af2565b50600195945050505050565b33301461065c576040517fa19dbf00000000000000000000000000000000000000000000000000000000008152336004820152602401610287565b6106758383836bffffffffffffffffffffffff16610d56565b6040805184815273ffffffffffffffffffffffffffffffffffffffff841660208201526bffffffffffffffffffffffff83168183015290517febf265acfac1c01de588ed7ef49743b9c3ce8d6d1edeaf510a1f5453228515b19181900360600190a1505050565b6106e4813055565b60405173ffffffffffffffffffffffffffffffffffffffff821681527f310ba5f1d2ed074b51e2eccd052a47ae9ab7c6b800d1fca3db3999d6a592ca039060200160405180910390a150565b60008060008484600081811061074857610748612840565b7fff000000000000000000000000000000000000000000000000000000000000009201359182169250507f80000000000000000000000000000000000000000000000000000000000000009081169003610847576107a586610de5565b91506000806107b384610e60565b91509150428110156107fb576040517f9fa4fe540000000000000000000000000000000000000000000000000000000081526004810185905260248101829052604401610287565b73ffffffffffffffffffffffffffffffffffffffff82161580610833575073ffffffffffffffffffffffffffffffffffffffff821633145b15610844576001945050505061096d565b50505b600080600061085a898989600080610a31565b985092955090935091506109669050816040517fff0000000000000000000000000000000000000000000000000000000000000060208201527fffffffffffffffffffffffffffffffffffffffff0000000000000000000000007f000000000000000000000000000000000000000000000000000000000000000060601b166021820152603581018290527f000000000000000000000000000000000000000000000000000000000000000060558201526000903090607501604080517fffffffffffffffffffffffffffffffffffffffffffffffffffffffffffffffe0818403018152919052805160209091012073ffffffffffffffffffffffffffffffffffffffff161492915050565b9550505050505b935093915050565b806109ac576040517f4294d12700000000000000000000000000000000000000000000000000000000815260040160405180910390fd5b6109d57fea7157fa25e3aa17d0ae2d5280fa4e24d421c61842aa85e45194e1145aa72bf8829055565b6040518181527f307ed6bd941ee9fc80f369c94af5fa11e25bab5102a6140191756c5474a30bfa9060200160405180910390a16102997f00000000000000000000000000000000000000000000000000000000000000006106dc565b6040805180820182526000808252602082018190529182918291829182918a3560f81c91600191808416148015610a7c575073ffffffffffffffffffffffffffffffffffffffff8916155b15610b98578b82013560601c985060149091019089610b985760038201918c013560e81c60008d848e610aaf8583612806565b92610abc93929190612b22565b8080601f016020809104026020016040519081016040528093929190818152602001838380828437600092019190915250506040517fccce3bc80000000000000000000000000000000000000000000000000000000081529293505073ffffffffffffffffffffffffffffffffffffffff8d169163ccce3bc89150610b479030908590600401612b4c565b6040805180830381865afa158015610b63573d6000803e3d6000fd5b505050506040513d601f19601f82011682018060405250810190610b879190612b83565b9250610b938285612806565b935050505b82600116600103610bd257610bc08d8a838f8f87908092610bbb93929190612b22565b610eac565b97509750975097509750505050610d49565b6002838116811460208f015283901c60071660016008820290811b7fffffffffffffffffffffffffffffffffffffffffffffffffffffffffffffffff018e850135610100929092039190911c16838201909650925060009050610c3d6001600586901c811690612806565b60016008820290811b7fffffffffffffffffffffffffffffffffffffffffffffffffffffffffffffffff018f860135610100929092039190911c1699509092019150610c888d610de5565b9350610ca68d858e8e86908092610ca193929190612b22565b6110f8565b600090815260208a815260408083208352888252808320835273ffffffffffffffffffffffffffffffffffffffff8d1690915290208251919850965015801590610cf1575080518614155b8015610d01575080602001518511155b15610d45576040517fccbb534f0000000000000000000000000000000000000000000000000000000081528151600482015260208201516024820152604401610287565b5050505b9550955095509550959050565b610de07fc852adf5e97c2fc3b38f405671e91b7af1697ef0287577f227ef10494c2a8e86847fffffffffffffffffffffffffffffffffffffffff000000000000000000000000606086901b166bffffffffffffffffffffffff8516176040805160208082019590955280820193909352805180840382018152606090930190528151919092012055565b505050565b600080610df6836020015130611adc565b90506000610e0384611baa565b6040517f1901000000000000000000000000000000000000000000000000000000000000602082015260228101849052604281018290529091506062015b6040516020818303038152906040528051906020012092505050919050565b60008080610e8e7fc852adf5e97c2fc3b38f405671e91b7af1697ef0287577f227ef10494c2a8e8685611e00565b606081901c956bffffffffffffffffffffffff909116945092505050565b6000806000806000610f0e604051806101200160405280600060ff168152602001600015158152602001606081526020016000815260200160008152602001606081526020016000801916815260200160008019168152602001606081525090565b6002815260007fffffffffffffffffffffffffffffffffffffffffffffffffffffffffffffffff5b888210156110855760038201916000908b013560e81c610f568482612806565b9150600090508a8214610f6a576000610f6c565b8d5b905060007fffffffffffffffffffffffffffffffffffffffffffffffffffffffffffffffff8414610f9d5785610f9f565b8f5b9050610fbf818e8e88908792610fb793929190612b22565b600186610a31565b50929d50909b50995097508a8a101561101c578c8c86908592610fe493929190612b22565b8c8c6040517fb006aba00000000000000000000000000000000000000000000000000000000081526004016102879493929190612bd4565b829450888e600001510361102f5760008e525b838810611072576040517f37daf62b0000000000000000000000000000000000000000000000000000000081526004810189905260248101859052604401610287565b505060c084018790529150849050610f36565b8a511580159061109957508a602001518511155b156110dd576040517fccbb534f0000000000000000000000000000000000000000000000000000000081528b51600482015260208c01516024820152604401610287565b6110e68d610de5565b93505050509550955095509550959050565b60008060005b83811015611ad257600181019085013560f881901c9060fc1c8061121b57600f821660008190036111365750600183019287013560f81c5b60408051600080825260208281018085528d9052601b8c89019182013560ff81811c928301908116868801529235606086018190527f7fffffffffffffffffffffffffffffffffffffffffffffffffffffffffffffff82166080870181905296909a0199959094919390929160019060a0015b6020604051602081039080840390855afa1580156111cb573d6000803e3d6000fd5b5050506020604051035190508660ff168c019b5060006111ee828960ff16611e5e565b90508b6111fb578061120a565b60008c81526020829052604090205b9b50505050505050505050506110fe565b6001810361127f57600f8216600081900361123d5750600183019287013560f81c5b601484019388013560601c60006112578260ff8516611e5e565b9050866112645780611273565b60008781526020829052604090205b965050505050506110fe565b60028103611466576003821660008190036112a15750600183019287013560f81c5b60008489013560601c60148601955090506003600285901c16600060016008830290811b7fffffffffffffffffffffffffffffffffffffffffffffffffffffffffffffffff018c890135610100929092039190911c168288018098508192505050600081880190506320c13b0b60e01b7bffffffffffffffffffffffffffffffffffffffffffffffffffffffff19168473ffffffffffffffffffffffffffffffffffffffff16631626ba7e8f8f8f8d90879261135f93929190612b22565b6040518463ffffffff1660e01b815260040161137d93929190612bfb565b602060405180830381865afa15801561139a573d6000803e3d6000fd5b505050506040513d601f19601f820116820180604052508101906113be9190612c15565b7fffffffff000000000000000000000000000000000000000000000000000000001614611421578d8d858e8e6040517ff734863a000000000000000000000000000000000000000000000000000000008152600401610287959493929190612c57565b8097508460ff168a019950600061143b858760ff16611e5e565b9050896114485780611457565b60008a81526020829052604090205b995050505050505050506110fe565b6003810361149a576020830192870135846114815780611490565b60008581526020829052604090205b94505050506110fe565b6004810361154057600f8216600060016008830290811b7fffffffffffffffffffffffffffffffffffffffffffffffffffffffffffffffff018a870135610100929092039190911c1685830180965081925050506000818601905060008061150f8e8e8e8e8c908892610ca193929190612b22565b91509150829750818a01995061152f898260009182526020526040902090565b9850829750505050505050506110fe565b6006810361160a576003600283901c1660008190036115665750600183019287013560f81c5b6003831660008190036115805750600284019388013560f01c5b6000858a013560e81c600387018162ffffff1691508097508192505050600081870190506000806115be8f8f8f8f8d908892610ca193929190612b22565b915091508298508482106115d157998501995b60006115de828789611ec5565b90508a6115eb57806115fa565b60008b81526020829052604090205b9a505050505050505050506110fe565b60058103611677576020830192870135888103611645577fffffffffffffffffffffffffffffffffffffffffffffffffffffffffffffffff95505b600061165082611f29565b90508561165d578061166c565b60008681526020829052604090205b9550505050506110fe565b6007810361177d57600f821660008190036116995750600183019287013560f81c5b600080858a0135602087019650915089860135602087016040517f19457468657265756d205369676e6564204d6573736167653a0a3332000000006020820152603c81018e905290975090915060ff82901c907f7fffffffffffffffffffffffffffffffffffffffffffffffffffffffffffffff831690601b830190600090600190605c01604080517fffffffffffffffffffffffffffffffffffffffffffffffffffffffffffffffe08184030181528282528051602091820120600084529083018083525260ff851690820152606081018890526080810185905260a0016111a9565b600881036117d157602083019287013560006117998b82611f7d565b90508082036117c6577fffffffffffffffffffffffffffffffffffffffffffffffffffffffffffffffff96505b600061125782611ff8565b60098103611937576003821660008190036117f35750600183019287013560f81c5b60008489013560601c601486019550905060006003600286901c1660016008820290811b7fffffffffffffffffffffffffffffffffffffffffffffffffffffffffffffffff018c890135610100929092039190911c168188018098508193505050506000818701905060008373ffffffffffffffffffffffffffffffffffffffff1663ca7078508f8e8e8c90879261188d93929190612b22565b6040518463ffffffff1660e01b81526004016118ab93929190612af2565b602060405180830381865afa1580156118c8573d6000803e3d6000fd5b505050506040513d601f19601f820116820180604052508101906118ec9190612cab565b90508197508460ff168a0199506000611909858760ff1684612033565b9050896119165780611925565b60008a81526020829052604090205b995082985050505050505050506110fe565b600a8103611a9d576003821660008190036119595750600183019287013560f81c5b60008489013560601c60148601955090506003600285901c16600060016008830290811b7fffffffffffffffffffffffffffffffffffffffffffffffffffffffffffffffff018c890135610100929092039190911c1682880180985081925050506000818801905060008473ffffffffffffffffffffffffffffffffffffffff1663957d2b238f8f8f8d9087926119f293929190612b22565b6040518463ffffffff1660e01b8152600401611a1093929190612bfb565b602060405180830381865afa158015611a2d573d6000803e3d6000fd5b505050506040513d601f19601f82011682018060405250810190611a519190612cab565b90508198508560ff168b019a506000611a6e868860ff1684612033565b90508a611a7b5780611a8a565b60008b81526020829052604090205b9a508299505050505050505050506110fe565b6040517fb2505f7c00000000000000000000000000000000000000000000000000000000815260048101829052602401610287565b5094509492505050565b60007f8b73c3c69bb8fe3d512ecc4cf759cc79239f7b179b0ffacaa9a75d522b39400f7f4aa45ca7ad825ceb1bf35643f0a58c295239df563b1b565c2485f96477c563187f2a80e1ef1d7842f27f2e6be0972bb708b9a135c38860dbe73c27c3486c34f4de85611b4c5746611b4f565b60005b6040805160208101959095528401929092526060830152608082015273ffffffffffffffffffffffffffffffffffffffff831660a082015260c0015b6040516020818303038152906040528051906020012090505b92915050565b600080611bbb8361010001516120a1565b835190915060ff16611c2e576000611bd68460400151612124565b606080860151608080880151604080517f11e1e4079a79a66e4ade50033cfe2678cdd5341d2dfe5ef9513edb1a0be147a260208201529081018690529384019290925282015260a0810184905290915060c001610e41565b825160ff167fffffffffffffffffffffffffffffffffffffffffffffffffffffffffffffffff01611cbe5760a08301518051602091820120604080517fe19a3b94fc3c7ece3f890d98a99bc422615537a08dea0603fa8425867d87d46693810193909352820152606081018290526080015b60405160208183030381529060405280519060200120915050919050565b825160ff167ffffffffffffffffffffffffffffffffffffffffffffffffffffffffffffffffe01611d2e5760c0830151604080517f11fdeb7e8373a1aa96bfac8d0ea91526b2c5d15e5cee20e0543e780258f3e8e460208201529081019190915260608101829052608001611ca0565b825160ff167ffffffffffffffffffffffffffffffffffffffffffffffffffffffffffffffffd01611d9e5760e0830151604080517f402e923b91e918306019e73f589362164a6a059499a504699c66feabbb3e262460208201529081019190915260608101829052608001611ca0565b6040517f08c379a000000000000000000000000000000000000000000000000000000000815260206004820152601060248201527f556e737570706f72746564206b696e64000000000000000000000000000000006044820152606401610287565b6000808383604051602001611e1f929190918252602082015260400190565b604080517fffffffffffffffffffffffffffffffffffffffffffffffffffffffffffffffe0818403018152919052805160209091012054949350505050565b6040517f53657175656e6365207369676e65723a0a00000000000000000000000000000060208201527fffffffffffffffffffffffffffffffffffffffff000000000000000000000000606084901b16603182015260458101829052600090606501611b8b565b6040517f53657175656e6365206e657374656420636f6e6669673a0a000000000000000060208201526038810184905260588101839052607881018290526000906098015b6040516020818303038152906040528051906020012090509392505050565b6040517f53657175656e636520737461746963206469676573743a0a00000000000000006020820152603881018290526000906058015b604051602081830303815290604052805190602001209050919050565b600080611f8e846020015184611adc565b90506000611f9b85611baa565b6040517f190100000000000000000000000000000000000000000000000000000000000060208201526022810184905260428101829052909150606201604051602081830303815290604052805190602001209250505092915050565b604080517f53657175656e636520616e792061646472657373207375626469676573743a0a6020820152908101829052600090606001611f60565b6040517f53657175656e63652073617069656e7420636f6e6669673a0a0000000000000060208201527fffffffffffffffffffffffffffffffffffffffff000000000000000000000000606085901b166039820152604d8101839052606d8101829052600090608d01611f0a565b6000606060005b835181101561211557818482815181106120c4576120c4612840565b60200260200101516040516020016120dd929190612cc4565b604080517fffffffffffffffffffffffffffffffffffffffffffffffffffffffffffffffe081840301815291905291506001016120a8565b50805160209091012092915050565b6000606060005b835181101561211557600061215885838151811061214b5761214b612840565b60200260200101516121a6565b9050828160405160200161216d929190612cfc565b604080517fffffffffffffffffffffffffffffffffffffffffffffffffffffffffffffffe081840301815291905292505060010161212b565b60007f0603985259a953da1f65a522f589c17bd1d0117ec1d3abb7c0788aef251ef43782600001518360200151846040015180519060200120856060015186608001518760a001518860c00151604051602001611f6098979695949392919097885273ffffffffffffffffffffffffffffffffffffffff969096166020880152604087019490945260608601929092526080850152151560a0840152151560c083015260e08201526101000190565b803573ffffffffffffffffffffffffffffffffffffffff8116811461227957600080fd5b919050565b60006020828403121561229057600080fd5b61032d82612255565b60008083601f8401126122ab57600080fd5b50813567ffffffffffffffff8111156122c357600080fd5b6020830191508360208285010111156122db57600080fd5b9250929050565b6000806000604084860312156122f757600080fd5b83359250602084013567ffffffffffffffff81111561231557600080fd5b61232186828701612299565b9497909650939450505050565b60006020828403121561234057600080fd5b5035919050565b7f4e487b7100000000000000000000000000000000000000000000000000000000600052604160045260246000fd5b60405160e0810167ffffffffffffffff8111828210171561239957612399612347565b60405290565b604051610120810167ffffffffffffffff8111828210171561239957612399612347565b604051601f82017fffffffffffffffffffffffffffffffffffffffffffffffffffffffffffffffe016810167ffffffffffffffff8111828210171561240a5761240a612347565b604052919050565b803560ff8116811461227957600080fd5b8035801515811461227957600080fd5b600067ffffffffffffffff82111561244d5761244d612347565b5060051b60200190565b600082601f83011261246857600080fd5b813567ffffffffffffffff81111561248257612482612347565b6124b360207fffffffffffffffffffffffffffffffffffffffffffffffffffffffffffffffe0601f840116016123c3565b8181528460208386010111156124c857600080fd5b816020850160208301376000918101602001919091529392505050565b600082601f8301126124f657600080fd5b813561250961250482612433565b6123c3565b8082825260208201915060208360051b86010192508583111561252b57600080fd5b602085015b8381101561261857803567ffffffffffffffff81111561254f57600080fd5b860160e08189037fffffffffffffffffffffffffffffffffffffffffffffffffffffffffffffffe001121561258357600080fd5b61258b612376565b61259760208301612255565b815260408201356020820152606082013567ffffffffffffffff8111156125bd57600080fd5b6125cc8a602083860101612457565b604083015250608082013560608201526125e860a08301612423565b60808201526125f960c08301612423565b60a082015260e0919091013560c0820152835260209283019201612530565b5095945050505050565b600082601f83011261263357600080fd5b813561264161250482612433565b8082825260208201915060208360051b86010192508583111561266357600080fd5b602085015b838110156126185761267981612255565b835260209283019201612668565b60008060006040848603121561269c57600080fd5b833567ffffffffffffffff8111156126b357600080fd5b840161012081870312156126c657600080fd5b6126ce61239f565b6126d782612412565b81526126e560208301612423565b6020820152604082013567ffffffffffffffff81111561270457600080fd5b612710888285016124e5565b604083015250606082810135908201526080808301359082015260a082013567ffffffffffffffff81111561274457600080fd5b61275088828501612457565b60a08301525060c0828101359082015260e0808301359082015261010082013567ffffffffffffffff81111561278557600080fd5b61279188828501612622565b61010083015250935050602084013567ffffffffffffffff81111561231557600080fd5b6000806000606084860312156127ca57600080fd5b833592506127da60208501612255565b915060408401356bffffffffffffffffffffffff811681146127fb57600080fd5b809150509250925092565b80820180821115611ba4577f4e487b7100000000000000000000000000000000000000000000000000000000600052601160045260246000fd5b7f4e487b7100000000000000000000000000000000000000000000000000000000600052603260045260246000fd5b60005b8381101561288a578181015183820152602001612872565b50506000910152565b600081518084526128ab81602086016020860161286f565b601f017fffffffffffffffffffffffffffffffffffffffffffffffffffffffffffffffe0169290920160200192915050565b600082825180855260208501945060208160051b8301016020850160005b838110156129ad577fffffffffffffffffffffffffffffffffffffffffffffffffffffffffffffffe0858403018852815173ffffffffffffffffffffffffffffffffffffffff815116845260208101516020850152604081015160e0604086015261296960e0860182612893565b6060838101519087015260808084015115159087015260a08084015115159087015260c09283015192909501919091525060209788019791909101906001016128fb565b50909695505050505050565b600081518084526020840193506020830160005b82811015612a0157815173ffffffffffffffffffffffffffffffffffffffff168652602095860195909101906001016129cd565b5093949350505050565b805160ff16825260006020820151612a27602085018215159052565b5060408201516101206040850152612a436101208501826128dd565b9050606083015160608501526080830151608085015260a083015184820360a0860152612a708282612893565b91505060c083015160c085015260e083015160e0850152610100830151848203610100860152612aa082826129b9565b95945050505050565b8183528181602085013750600060208284010152600060207fffffffffffffffffffffffffffffffffffffffffffffffffffffffffffffffe0601f840116840101905092915050565b604081526000612b056040830186612a0b565b8281036020840152612b18818587612aa9565b9695505050505050565b60008085851115612b3257600080fd5b83861115612b3f57600080fd5b5050820193919092039150565b73ffffffffffffffffffffffffffffffffffffffff83168152604060208201526000612b7b6040830184612893565b949350505050565b60006040828403128015612b9657600080fd5b506040805190810167ffffffffffffffff81118282101715612bba57612bba612347565b604052825181526020928301519281019290925250919050565b606081526000612be8606083018688612aa9565b6020830194909452506040015292915050565b838152604060208201526000612aa0604083018486612aa9565b600060208284031215612c2757600080fd5b81517fffffffff000000000000000000000000000000000000000000000000000000008116811461032d57600080fd5b608081526000612c6a6080830188612a0b565b86602084015273ffffffffffffffffffffffffffffffffffffffff861660408401528281036060840152612c9f818587612aa9565b98975050505050505050565b600060208284031215612cbd57600080fd5b5051919050565b604081526000612cd76040830185612893565b905073ffffffffffffffffffffffffffffffffffffffff831660208301529392505050565b60008351612d0e81846020880161286f565b919091019182525060200191905056fea2646970667358221220267d7e904a1ba7022d417e18cf81d6f5ef29fcd2087c3d25c61a5a4072e3f41264736f6c634300081b0033603a600e3d39601a805130553df3363d3d373d3d3d363d30545af43d82803e903d91601857fd5bf3",
  "linkReferences": {},
  "deployedLinkReferences": {}
}