{
  "_format": "hh-sol-artifact-1",
  "contractName": "Stage1Auth",
  "sourceName": "src/modules/auth/Stage1Auth.sol",
  "abi": [
    {
      "inputs": [
        {
          "internalType": "address",
          "name": "_factory",
          "type": "address"
        },
        {
          "internalType": "address",
          "name": "_stage2",
          "type": "address"
        }
      ],
      "stateMutability": "nonpayable",
      "type": "constructor"
    },
    {
      "inputs": [],
      "name": "ImageHashIsZero",
      "type": "error"
    },
    {
      "inputs": [
        {
          "components": [
            {
              "internalType": "uint8",
              "name": "kind",
              "type": "uint8"
            },
            {
              "internalType": "bool",
              "name": "noChainId",
              "type": "bool"
            },
            {
              "components": [
                {
                  "internalType": "address",
                  "name": "to",
                  "type": "address"
                },
                {
                  "internalType": "uint256",
                  "name": "value",
                  "type": "uint256"
                },
                {
                  "internalType": "bytes",
                  "name": "data",
                  "type": "bytes"
                },
                {
                  "internalType": "uint256",
                  "name": "gasLimit",
                  "type": "uint256"
                },
                {
                  "internalType": "bool",
                  "name": "delegateCall",
                  "type": "bool"
                },
                {
                  "internalType": "bool",
                  "name": "onlyFallback",
                  "type": "bool"
                },
                {
                  "internalType": "uint256",
                  "name": "behaviorOnError",
                  "type": "uint256"
                }
              ],
              "internalType": "struct Payload.Call[]",
              "name": "calls",
              "type": "tuple[]"
            },
            {
              "internalType": "uint256",
              "name": "space",
              "type": "uint256"
            },
            {
              "internalType": "uint256",
              "name": "nonce",
              "type": "uint256"
            },
            {
              "internalType": "bytes",
              "name": "message",
              "type": "bytes"
            },
            {
              "internalType": "bytes32",
              "name": "imageHash",
              "type": "bytes32"
            },
            {
              "internalType": "bytes32",
              "name": "digest",
              "type": "bytes32"
            },
            {
              "internalType": "address[]",
              "name": "parentWallets",
              "type": "address[]"
            }
          ],
          "internalType": "struct Payload.Decoded",
          "name": "_payload",
          "type": "tuple"
        },
        {
          "internalType": "bytes32",
          "name": "_subdigest",
          "type": "bytes32"
        },
        {
          "internalType": "address",
          "name": "_signer",
          "type": "address"
        },
        {
          "internalType": "bytes",
          "name": "_signature",
          "type": "bytes"
        }
      ],
      "name": "InvalidNestedSignature",
      "type": "error"
    },
    {
      "inputs": [
        {
          "components": [
            {
              "internalType": "uint8",
              "name": "kind",
              "type": "uint8"
            },
            {
              "internalType": "bool",
              "name": "noChainId",
              "type": "bool"
            },
            {
              "components": [
                {
                  "internalType": "address",
                  "name": "to",
                  "type": "address"
                },
                {
                  "internalType": "uint256",
                  "name": "value",
                  "type": "uint256"
                },
                {
                  "internalType": "bytes",
                  "name": "data",
                  "type": "bytes"
                },
                {
                  "internalType": "uint256",
                  "name": "gasLimit",
                  "type": "uint256"
                },
                {
                  "internalType": "bool",
                  "name": "delegateCall",
                  "type": "bool"
                },
                {
                  "internalType": "bool",
                  "name": "onlyFallback",
                  "type": "bool"
                },
                {
                  "internalType": "uint256",
                  "name": "behaviorOnError",
                  "type": "uint256"
                }
              ],
              "internalType": "struct Payload.Call[]",
              "name": "calls",
              "type": "tuple[]"
            },
            {
              "internalType": "uint256",
              "name": "space",
              "type": "uint256"
            },
            {
              "internalType": "uint256",
              "name": "nonce",
              "type": "uint256"
            },
            {
              "internalType": "bytes",
              "name": "message",
              "type": "bytes"
            },
            {
              "internalType": "bytes32",
              "name": "imageHash",
              "type": "bytes32"
            },
            {
              "internalType": "bytes32",
              "name": "digest",
              "type": "bytes32"
            },
            {
              "internalType": "address[]",
              "name": "parentWallets",
              "type": "address[]"
            }
          ],
          "internalType": "struct Payload.Decoded",
          "name": "_payload",
          "type": "tuple"
        },
        {
          "internalType": "bytes",
          "name": "_signature",
          "type": "bytes"
        }
      ],
      "name": "InvalidSapientSignature",
      "type": "error"
    },
    {
      "inputs": [
        {
          "internalType": "uint256",
          "name": "_flag",
          "type": "uint256"
        }
      ],
      "name": "InvalidSignatureFlag",
      "type": "error"
    },
    {
      "inputs": [
        {
          "internalType": "bytes1",
          "name": "_type",
          "type": "bytes1"
        }
      ],
      "name": "InvalidSignatureType",
      "type": "error"
    },
    {
      "inputs": [
        {
          "internalType": "bytes32",
          "name": "_opHash",
          "type": "bytes32"
        },
        {
          "internalType": "uint256",
          "name": "_expires",
          "type": "uint256"
        }
      ],
      "name": "InvalidStaticSignature",
      "type": "error"
    },
    {
      "inputs": [
        {
          "internalType": "bytes",
          "name": "_signature",
          "type": "bytes"
        },
        {
          "internalType": "uint256",
          "name": "_threshold",
          "type": "uint256"
        },
        {
          "internalType": "uint256",
          "name": "_weight",
          "type": "uint256"
        }
      ],
      "name": "LowWeightChainedSignature",
      "type": "error"
    },
    {
      "inputs": [
        {
          "internalType": "address",
          "name": "_sender",
          "type": "address"
        }
      ],
      "name": "OnlySelf",
      "type": "error"
    },
    {
      "inputs": [
        {
          "components": [
            {
              "internalType": "bytes32",
              "name": "imageHash",
              "type": "bytes32"
            },
            {
              "internalType": "uint256",
              "name": "checkpoint",
              "type": "uint256"
            }
          ],
          "internalType": "struct Snapshot",
          "name": "_snapshot",
          "type": "tuple"
        }
      ],
      "name": "UnusedSnapshot",
      "type": "error"
    },
    {
      "inputs": [
        {
          "internalType": "uint256",
          "name": "_nextCheckpoint",
          "type": "uint256"
        },
        {
          "internalType": "uint256",
          "name": "_checkpoint",
          "type": "uint256"
        }
      ],
      "name": "WrongChainedCheckpointOrder",
      "type": "error"
    },
    {
      "anonymous": false,
      "inputs": [
        {
          "indexed": false,
          "internalType": "bytes32",
          "name": "newImageHash",
          "type": "bytes32"
        }
      ],
      "name": "ImageHashUpdated",
      "type": "event"
    },
    {
      "anonymous": false,
      "inputs": [
        {
          "indexed": false,
          "internalType": "address",
          "name": "newImplementation",
          "type": "address"
        }
      ],
      "name": "ImplementationUpdated",
      "type": "event"
    },
    {
      "anonymous": false,
      "inputs": [
        {
          "indexed": false,
          "internalType": "bytes32",
          "name": "_hash",
          "type": "bytes32"
        },
        {
          "indexed": false,
          "internalType": "address",
          "name": "_address",
          "type": "address"
        },
        {
          "indexed": false,
          "internalType": "uint96",
          "name": "_timestamp",
          "type": "uint96"
        }
      ],
      "name": "StaticSignatureSet",
      "type": "event"
    },
    {
      "inputs": [],
      "name": "FACTORY",
      "outputs": [
        {
          "internalType": "address",
          "name": "",
          "type": "address"
        }
      ],
      "stateMutability": "view",
      "type": "function"
    },
    {
      "inputs": [],
      "name": "INIT_CODE_HASH",
      "outputs": [
        {
          "internalType": "bytes32",
          "name": "",
          "type": "bytes32"
        }
      ],
      "stateMutability": "view",
      "type": "function"
    },
    {
      "inputs": [],
      "name": "STAGE_2_IMPLEMENTATION",
      "outputs": [
        {
          "internalType": "address",
          "name": "",
          "type": "address"
        }
      ],
      "stateMutability": "view",
      "type": "function"
    },
    {
      "inputs": [],
      "name": "getImplementation",
      "outputs": [
        {
          "internalType": "address",
          "name": "",
          "type": "address"
        }
      ],
      "stateMutability": "view",
      "type": "function"
    },
    {
      "inputs": [
        {
          "components": [
            {
              "internalType": "uint8",
              "name": "kind",
              "type": "uint8"
            },
            {
              "internalType": "bool",
              "name": "noChainId",
              "type": "bool"
            },
            {
              "components": [
                {
                  "internalType": "address",
                  "name": "to",
                  "type": "address"
                },
                {
                  "internalType": "uint256",
                  "name": "value",
                  "type": "uint256"
                },
                {
                  "internalType": "bytes",
                  "name": "data",
                  "type": "bytes"
                },
                {
                  "internalType": "uint256",
                  "name": "gasLimit",
                  "type": "uint256"
                },
                {
                  "internalType": "bool",
                  "name": "delegateCall",
                  "type": "bool"
                },
                {
                  "internalType": "bool",
                  "name": "onlyFallback",
                  "type": "bool"
                },
                {
                  "internalType": "uint256",
                  "name": "behaviorOnError",
                  "type": "uint256"
                }
              ],
              "internalType": "struct Payload.Call[]",
              "name": "calls",
              "type": "tuple[]"
            },
            {
              "internalType": "uint256",
              "name": "space",
              "type": "uint256"
            },
            {
              "internalType": "uint256",
              "name": "nonce",
              "type": "uint256"
            },
            {
              "internalType": "bytes",
              "name": "message",
              "type": "bytes"
            },
            {
              "internalType": "bytes32",
              "name": "imageHash",
              "type": "bytes32"
            },
            {
              "internalType": "bytes32",
              "name": "digest",
              "type": "bytes32"
            },
            {
              "internalType": "address[]",
              "name": "parentWallets",
              "type": "address[]"
            }
          ],
          "internalType": "struct Payload.Decoded",
          "name": "_payload",
          "type": "tuple"
        },
        {
          "internalType": "bytes",
          "name": "_signature",
          "type": "bytes"
        }
      ],
      "name": "isValidSapientSignature",
      "outputs": [
        {
          "internalType": "bytes32",
          "name": "",
          "type": "bytes32"
        }
      ],
      "stateMutability": "view",
      "type": "function"
    },
    {
      "inputs": [
        {
          "internalType": "bytes32",
          "name": "_hash",
          "type": "bytes32"
        },
        {
          "internalType": "bytes",
          "name": "_signature",
          "type": "bytes"
        }
      ],
      "name": "isValidSignature",
      "outputs": [
        {
          "internalType": "bytes4",
          "name": "",
          "type": "bytes4"
        }
      ],
      "stateMutability": "view",
      "type": "function"
    },
    {
      "inputs": [
        {
          "components": [
            {
              "internalType": "uint8",
              "name": "kind",
              "type": "uint8"
            },
            {
              "internalType": "bool",
              "name": "noChainId",
              "type": "bool"
            },
            {
              "components": [
                {
                  "internalType": "address",
                  "name": "to",
                  "type": "address"
                },
                {
                  "internalType": "uint256",
                  "name": "value",
                  "type": "uint256"
                },
                {
                  "internalType": "bytes",
                  "name": "data",
                  "type": "bytes"
                },
                {
                  "internalType": "uint256",
                  "name": "gasLimit",
                  "type": "uint256"
                },
                {
                  "internalType": "bool",
                  "name": "delegateCall",
                  "type": "bool"
                },
                {
                  "internalType": "bool",
                  "name": "onlyFallback",
                  "type": "bool"
                },
                {
                  "internalType": "uint256",
                  "name": "behaviorOnError",
                  "type": "uint256"
                }
              ],
              "internalType": "struct Payload.Call[]",
              "name": "calls",
              "type": "tuple[]"
            },
            {
              "internalType": "uint256",
              "name": "space",
              "type": "uint256"
            },
            {
              "internalType": "uint256",
              "name": "nonce",
              "type": "uint256"
            },
            {
              "internalType": "bytes",
              "name": "message",
              "type": "bytes"
            },
            {
              "internalType": "bytes32",
              "name": "imageHash",
              "type": "bytes32"
            },
            {
              "internalType": "bytes32",
              "name": "digest",
              "type": "bytes32"
            },
            {
              "internalType": "address[]",
              "name": "parentWallets",
              "type": "address[]"
            }
          ],
          "internalType": "struct Payload.Decoded",
          "name": "_payload",
          "type": "tuple"
        },
        {
          "internalType": "bytes",
          "name": "_signature",
          "type": "bytes"
        }
      ],
      "name": "recoverPartialSignature",
      "outputs": [
        {
          "internalType": "uint256",
          "name": "threshold",
          "type": "uint256"
        },
        {
          "internalType": "uint256",
          "name": "weight",
          "type": "uint256"
        },
        {
          "internalType": "bool",
          "name": "isValidImage",
          "type": "bool"
        },
        {
          "internalType": "bytes32",
          "name": "imageHash",
          "type": "bytes32"
        },
        {
          "internalType": "uint256",
          "name": "checkpoint",
          "type": "uint256"
        },
        {
          "internalType": "bytes32",
          "name": "opHash",
          "type": "bytes32"
        }
      ],
      "stateMutability": "view",
      "type": "function"
    },
    {
      "inputs": [
        {
          "internalType": "bytes32",
          "name": "_hash",
          "type": "bytes32"
        },
        {
          "internalType": "address",
          "name": "_address",
          "type": "address"
        },
        {
          "internalType": "uint96",
          "name": "_timestamp",
          "type": "uint96"
        }
      ],
      "name": "setStaticSignature",
      "outputs": [],
      "stateMutability": "nonpayable",
      "type": "function"
    },
    {
      "inputs": [
        {
          "internalType": "bytes32",
          "name": "_imageHash",
          "type": "bytes32"
        }
      ],
      "name": "updateImageHash",
      "outputs": [],
      "stateMutability": "nonpayable",
      "type": "function"
    },
    {
      "inputs": [
        {
          "internalType": "address",
          "name": "_implementation",
          "type": "address"
        }
      ],
      "name": "updateImplementation",
      "outputs": [],
      "stateMutability": "payable",
      "type": "function"
    }
  ],
  "bytecode": "0x60e060405234801561001057600080fd5b50604051612f4a380380612f4a83398101604081905261002f916100ab565b60006040518060600160405280602c8152602001612f1e602c913960405161005c919030906020016100de565b60408051601f198184030181529190528051602090910120608052506001600160a01b0391821660a0521660c052610110565b80516001600160a01b03811681146100a657600080fd5b919050565b600080604083850312156100be57600080fd5b6100c78361008f565b91506100d56020840161008f565b90509250929050565b6000835160005b818110156100ff57602081870181015185830152016100e5565b509190910191825250602001919050565b60805160a05160c051612dbc610162600039600081816101ee0152610a7501526000818161019501528181610462015261091e01526000818161013301528181610493015261094f0152612dbc6000f3fe6080604052600436106100b15760003560e01c80639f69ef5411610069578063ad55366b1161004e578063ad55366b14610225578063ca70785014610278578063f727ef1c1461029857600080fd5b80639f69ef54146101dc578063aaf10f421461021057600080fd5b8063257671f51161009a578063257671f51461012157806329561426146101635780632dd310001461018357600080fd5b8063025b22bc146100b65780631626ba7e146100cb575b600080fd5b6100c96100c43660046122e6565b6102b8565b005b3480156100d757600080fd5b506100eb6100e636600461234a565b610304565b6040517fffffffff0000000000000000000000000000000000000000000000000000000090911681526020015b60405180910390f35b34801561012d57600080fd5b506101557f000000000000000000000000000000000000000000000000000000000000000081565b604051908152602001610118565b34801561016f57600080fd5b506100c961017e366004612396565b61039c565b34801561018f57600080fd5b506101b77f000000000000000000000000000000000000000000000000000000000000000081565b60405173ffffffffffffffffffffffffffffffffffffffff9091168152602001610118565b3480156101e857600080fd5b506101b77f000000000000000000000000000000000000000000000000000000000000000081565b34801561021c57600080fd5b506101b76103e0565b34801561023157600080fd5b506102456102403660046126ef565b6103ef565b604080519687526020870195909552921515938501939093526060840152608083019190915260a082015260c001610118565b34801561028457600080fd5b506101556102933660046126ef565b610520565b3480156102a457600080fd5b506100c96102b336600461281d565b610689565b3330146102f8576040517fa19dbf000000000000000000000000000000000000000000000000000000000081523360048201526024015b60405180910390fd5b61030181610744565b50565b604080516101208101825260006020820181905260609282018390528282018190526080820181905260a0820183905260c082018190526101008201929092526003815260e081018590528161035b828686610798565b5090508061036f5750600091506103959050565b507f20c13b0b000000000000000000000000000000000000000000000000000000009150505b9392505050565b3330146103d7576040517fa19dbf000000000000000000000000000000000000000000000000000000000081523360048201526024016102ef565b610301816109dd565b60006103ea305490565b905090565b600080600080600080610406898989600080610a99565b939950919750945092509050610512836040517fff0000000000000000000000000000000000000000000000000000000000000060208201527fffffffffffffffffffffffffffffffffffffffff0000000000000000000000007f000000000000000000000000000000000000000000000000000000000000000060601b166021820152603581018290527f000000000000000000000000000000000000000000000000000000000000000060558201526000903090607501604080517fffffffffffffffffffffffffffffffffffffffffffffffffffffffffffffffe0818403018152919052805160209091012073ffffffffffffffffffffffffffffffffffffffff161492915050565b935093975093979195509350565b600080846101000151516001610536919061286e565b67ffffffffffffffff81111561054e5761054e6123af565b604051908082528060200260200182016040528015610577578160200160208202803683370190505b50905060005b856101000151518110156105e95785610100015181815181106105a2576105a26128a8565b60200260200101518282815181106105bc576105bc6128a8565b73ffffffffffffffffffffffffffffffffffffffff9092166020928302919091019091015260010161057d565b5033818661010001515181518110610603576106036128a8565b73ffffffffffffffffffffffffffffffffffffffff909216602092830291909101909101526101008501819052600061063d868686610798565b5090508061067d578585856040517ff58cc8b50000000000000000000000000000000000000000000000000000000081526004016102ef93929190612b5a565b50600195945050505050565b3330146106c4576040517fa19dbf000000000000000000000000000000000000000000000000000000000081523360048201526024016102ef565b6106dd8383836bffffffffffffffffffffffff16610dbe565b6040805184815273ffffffffffffffffffffffffffffffffffffffff841660208201526bffffffffffffffffffffffff83168183015290517febf265acfac1c01de588ed7ef49743b9c3ce8d6d1edeaf510a1f5453228515b19181900360600190a1505050565b61074c813055565b60405173ffffffffffffffffffffffffffffffffffffffff821681527f310ba5f1d2ed074b51e2eccd052a47ae9ab7c6b800d1fca3db3999d6a592ca039060200160405180910390a150565b6000806000848460008181106107b0576107b06128a8565b7fff000000000000000000000000000000000000000000000000000000000000009201359182169250507f800000000000000000000000000000000000000000000000000000000000000090811690036108af5761080d86610e4d565b915060008061081b84610ec8565b9150915042811015610863576040517f9fa4fe5400000000000000000000000000000000000000000000000000000000815260048101859052602481018290526044016102ef565b73ffffffffffffffffffffffffffffffffffffffff8216158061089b575073ffffffffffffffffffffffffffffffffffffffff821633145b156108ac57600194505050506109d5565b50505b60008060006108c2898989600080610a99565b985092955090935091506109ce9050816040517fff0000000000000000000000000000000000000000000000000000000000000060208201527fffffffffffffffffffffffffffffffffffffffff0000000000000000000000007f000000000000000000000000000000000000000000000000000000000000000060601b166021820152603581018290527f000000000000000000000000000000000000000000000000000000000000000060558201526000903090607501604080517fffffffffffffffffffffffffffffffffffffffffffffffffffffffffffffffe0818403018152919052805160209091012073ffffffffffffffffffffffffffffffffffffffff161492915050565b9550505050505b935093915050565b80610a14576040517f4294d12700000000000000000000000000000000000000000000000000000000815260040160405180910390fd5b610a3d7fea7157fa25e3aa17d0ae2d5280fa4e24d421c61842aa85e45194e1145aa72bf8829055565b6040518181527f307ed6bd941ee9fc80f369c94af5fa11e25bab5102a6140191756c5474a30bfa9060200160405180910390a16103017f0000000000000000000000000000000000000000000000000000000000000000610744565b6040805180820182526000808252602082018190529182918291829182918a3560f81c91600191808416148015610ae4575073ffffffffffffffffffffffffffffffffffffffff8916155b15610c00578b82013560601c985060149091019089610c005760038201918c013560e81c60008d848e610b17858361286e565b92610b2493929190612b8a565b8080601f016020809104026020016040519081016040528093929190818152602001838380828437600092019190915250506040517fccce3bc80000000000000000000000000000000000000000000000000000000081529293505073ffffffffffffffffffffffffffffffffffffffff8d169163ccce3bc89150610baf9030908590600401612bb4565b6040805180830381865afa158015610bcb573d6000803e3d6000fd5b505050506040513d601f19601f82011682018060405250810190610bef9190612beb565b9250610bfb828561286e565b935050505b82600116600103610c3a57610c288d8a838f8f87908092610c2393929190612b8a565b610f14565b97509750975097509750505050610db1565b6002838116811460208f015283901c60071660016008820290811b7fffffffffffffffffffffffffffffffffffffffffffffffffffffffffffffffff018e850135610100929092039190911c16838201909650925060009050610ca56001600586901c81169061286e565b60016008820290811b7fffffffffffffffffffffffffffffffffffffffffffffffffffffffffffffffff018f860135610100929092039190911c1699509092019150610cf08d610e4d565b9350610d0e8d858e8e86908092610d0993929190612b8a565b611160565b600090815260208a815260408083208352888252808320835273ffffffffffffffffffffffffffffffffffffffff8d1690915290208251919850965015801590610d59575080518614155b8015610d69575080602001518511155b15610dad576040517fccbb534f00000000000000000000000000000000000000000000000000000000815281516004820152602082015160248201526044016102ef565b5050505b9550955095509550959050565b610e487fc852adf5e97c2fc3b38f405671e91b7af1697ef0287577f227ef10494c2a8e86847fffffffffffffffffffffffffffffffffffffffff000000000000000000000000606086901b166bffffffffffffffffffffffff8516176040805160208082019590955280820193909352805180840382018152606090930190528151919092012055565b505050565b600080610e5e836020015130611b44565b90506000610e6b84611c12565b6040517f1901000000000000000000000000000000000000000000000000000000000000602082015260228101849052604281018290529091506062015b6040516020818303038152906040528051906020012092505050919050565b60008080610ef67fc852adf5e97c2fc3b38f405671e91b7af1697ef0287577f227ef10494c2a8e8685611e68565b606081901c956bffffffffffffffffffffffff909116945092505050565b6000806000806000610f76604051806101200160405280600060ff168152602001600015158152602001606081526020016000815260200160008152602001606081526020016000801916815260200160008019168152602001606081525090565b6002815260007fffffffffffffffffffffffffffffffffffffffffffffffffffffffffffffffff5b888210156110ed5760038201916000908b013560e81c610fbe848261286e565b9150600090508a8214610fd2576000610fd4565b8d5b905060007fffffffffffffffffffffffffffffffffffffffffffffffffffffffffffffffff84146110055785611007565b8f5b9050611027818e8e8890879261101f93929190612b8a565b600186610a99565b50929d50909b50995097508a8a1015611084578c8c8690859261104c93929190612b8a565b8c8c6040517fb006aba00000000000000000000000000000000000000000000000000000000081526004016102ef9493929190612c3c565b829450888e60000151036110975760008e525b8388106110da576040517f37daf62b00000000000000000000000000000000000000000000000000000000815260048101899052602481018590526044016102ef565b505060c084018790529150849050610f9e565b8a511580159061110157508a602001518511155b15611145576040517fccbb534f0000000000000000000000000000000000000000000000000000000081528b51600482015260208c015160248201526044016102ef565b61114e8d610e4d565b93505050509550955095509550959050565b60008060005b83811015611b3a57600181019085013560f881901c9060fc1c8061128357600f8216600081900361119e5750600183019287013560f81c5b60408051600080825260208281018085528d9052601b8c89019182013560ff81811c928301908116868801529235606086018190527f7fffffffffffffffffffffffffffffffffffffffffffffffffffffffffffffff82166080870181905296909a0199959094919390929160019060a0015b6020604051602081039080840390855afa158015611233573d6000803e3d6000fd5b5050506020604051035190508660ff168c019b506000611256828960ff16611ec6565b90508b6112635780611272565b60008c81526020829052604090205b9b5050505050505050505050611166565b600181036112e757600f821660008190036112a55750600183019287013560f81c5b601484019388013560601c60006112bf8260ff8516611ec6565b9050866112cc57806112db565b60008781526020829052604090205b96505050505050611166565b600281036114ce576003821660008190036113095750600183019287013560f81c5b60008489013560601c60148601955090506003600285901c16600060016008830290811b7fffffffffffffffffffffffffffffffffffffffffffffffffffffffffffffffff018c890135610100929092039190911c168288018098508192505050600081880190506320c13b0b60e01b7bffffffffffffffffffffffffffffffffffffffffffffffffffffffff19168473ffffffffffffffffffffffffffffffffffffffff16631626ba7e8f8f8f8d9087926113c793929190612b8a565b6040518463ffffffff1660e01b81526004016113e593929190612c63565b602060405180830381865afa158015611402573d6000803e3d6000fd5b505050506040513d601f19601f820116820180604052508101906114269190612c7d565b7fffffffff000000000000000000000000000000000000000000000000000000001614611489578d8d858e8e6040517ff734863a0000000000000000000000000000000000000000000000000000000081526004016102ef959493929190612cbf565b8097508460ff168a01995060006114a3858760ff16611ec6565b9050896114b057806114bf565b60008a81526020829052604090205b99505050505050505050611166565b60038103611502576020830192870135846114e957806114f8565b60008581526020829052604090205b9450505050611166565b600481036115a857600f8216600060016008830290811b7fffffffffffffffffffffffffffffffffffffffffffffffffffffffffffffffff018a870135610100929092039190911c168583018096508192505050600081860190506000806115778e8e8e8e8c908892610d0993929190612b8a565b91509150829750818a019950611597898260009182526020526040902090565b985082975050505050505050611166565b60068103611672576003600283901c1660008190036115ce5750600183019287013560f81c5b6003831660008190036115e85750600284019388013560f01c5b6000858a013560e81c600387018162ffffff1691508097508192505050600081870190506000806116268f8f8f8f8d908892610d0993929190612b8a565b9150915082985084821061163957998501995b6000611646828789611f2d565b90508a6116535780611662565b60008b81526020829052604090205b9a50505050505050505050611166565b600581036116df5760208301928701358881036116ad577fffffffffffffffffffffffffffffffffffffffffffffffffffffffffffffffff95505b60006116b882611f91565b9050856116c557806116d4565b60008681526020829052604090205b955050505050611166565b600781036117e557600f821660008190036117015750600183019287013560f81c5b600080858a0135602087019650915089860135602087016040517f19457468657265756d205369676e6564204d6573736167653a0a3332000000006020820152603c81018e905290975090915060ff82901c907f7fffffffffffffffffffffffffffffffffffffffffffffffffffffffffffffff831690601b830190600090600190605c01604080517fffffffffffffffffffffffffffffffffffffffffffffffffffffffffffffffe08184030181528282528051602091820120600084529083018083525260ff851690820152606081018890526080810185905260a001611211565b6008810361183957602083019287013560006118018b82611fe5565b905080820361182e577fffffffffffffffffffffffffffffffffffffffffffffffffffffffffffffffff96505b60006112bf82612060565b6009810361199f5760038216600081900361185b5750600183019287013560f81c5b60008489013560601c601486019550905060006003600286901c1660016008820290811b7fffffffffffffffffffffffffffffffffffffffffffffffffffffffffffffffff018c890135610100929092039190911c168188018098508193505050506000818701905060008373ffffffffffffffffffffffffffffffffffffffff1663ca7078508f8e8e8c9087926118f593929190612b8a565b6040518463ffffffff1660e01b815260040161191393929190612b5a565b602060405180830381865afa158015611930573d6000803e3d6000fd5b505050506040513d601f19601f820116820180604052508101906119549190612d13565b90508197508460ff168a0199506000611971858760ff168461209b565b90508961197e578061198d565b60008a81526020829052604090205b99508298505050505050505050611166565b600a8103611b05576003821660008190036119c15750600183019287013560f81c5b60008489013560601c60148601955090506003600285901c16600060016008830290811b7fffffffffffffffffffffffffffffffffffffffffffffffffffffffffffffffff018c890135610100929092039190911c1682880180985081925050506000818801905060008473ffffffffffffffffffffffffffffffffffffffff1663957d2b238f8f8f8d908792611a5a93929190612b8a565b6040518463ffffffff1660e01b8152600401611a7893929190612c63565b602060405180830381865afa158015611a95573d6000803e3d6000fd5b505050506040513d601f19601f82011682018060405250810190611ab99190612d13565b90508198508560ff168b019a506000611ad6868860ff168461209b565b90508a611ae35780611af2565b60008b81526020829052604090205b9a50829950505050505050505050611166565b6040517fb2505f7c000000000000000000000000000000000000000000000000000000008152600481018290526024016102ef565b5094509492505050565b60007f8b73c3c69bb8fe3d512ecc4cf759cc79239f7b179b0ffacaa9a75d522b39400f7f4aa45ca7ad825ceb1bf35643f0a58c295239df563b1b565c2485f96477c563187f2a80e1ef1d7842f27f2e6be0972bb708b9a135c38860dbe73c27c3486c34f4de85611bb45746611bb7565b60005b6040805160208101959095528401929092526060830152608082015273ffffffffffffffffffffffffffffffffffffffff831660a082015260c0015b6040516020818303038152906040528051906020012090505b92915050565b600080611c23836101000151612109565b835190915060ff16611c96576000611c3e846040015161218c565b606080860151608080880151604080517f11e1e4079a79a66e4ade50033cfe2678cdd5341d2dfe5ef9513edb1a0be147a260208201529081018690529384019290925282015260a0810184905290915060c001610ea9565b825160ff167fffffffffffffffffffffffffffffffffffffffffffffffffffffffffffffffff01611d265760a08301518051602091820120604080517fe19a3b94fc3c7ece3f890d98a99bc422615537a08dea0603fa8425867d87d46693810193909352820152606081018290526080015b60405160208183030381529060405280519060200120915050919050565b825160ff167ffffffffffffffffffffffffffffffffffffffffffffffffffffffffffffffffe01611d965760c0830151604080517f11fdeb7e8373a1aa96bfac8d0ea91526b2c5d15e5cee20e0543e780258f3e8e460208201529081019190915260608101829052608001611d08565b825160ff167ffffffffffffffffffffffffffffffffffffffffffffffffffffffffffffffffd01611e065760e0830151604080517f402e923b91e918306019e73f589362164a6a059499a504699c66feabbb3e262460208201529081019190915260608101829052608001611d08565b6040517f08c379a000000000000000000000000000000000000000000000000000000000815260206004820152601060248201527f556e737570706f72746564206b696e640000000000000000000000000000000060448201526064016102ef565b6000808383604051602001611e87929190918252602082015260400190565b604080517fffffffffffffffffffffffffffffffffffffffffffffffffffffffffffffffe0818403018152919052805160209091012054949350505050565b6040517f53657175656e6365207369676e65723a0a00000000000000000000000000000060208201527fffffffffffffffffffffffffffffffffffffffff000000000000000000000000606084901b16603182015260458101829052600090606501611bf3565b6040517f53657175656e6365206e657374656420636f6e6669673a0a000000000000000060208201526038810184905260588101839052607881018290526000906098015b6040516020818303038152906040528051906020012090509392505050565b6040517f53657175656e636520737461746963206469676573743a0a00000000000000006020820152603881018290526000906058015b604051602081830303815290604052805190602001209050919050565b600080611ff6846020015184611b44565b9050600061200385611c12565b6040517f190100000000000000000000000000000000000000000000000000000000000060208201526022810184905260428101829052909150606201604051602081830303815290604052805190602001209250505092915050565b604080517f53657175656e636520616e792061646472657373207375626469676573743a0a6020820152908101829052600090606001611fc8565b6040517f53657175656e63652073617069656e7420636f6e6669673a0a0000000000000060208201527fffffffffffffffffffffffffffffffffffffffff000000000000000000000000606085901b166039820152604d8101839052606d8101829052600090608d01611f72565b6000606060005b835181101561217d578184828151811061212c5761212c6128a8565b6020026020010151604051602001612145929190612d2c565b604080517fffffffffffffffffffffffffffffffffffffffffffffffffffffffffffffffe08184030181529190529150600101612110565b50805160209091012092915050565b6000606060005b835181101561217d5760006121c08583815181106121b3576121b36128a8565b602002602001015161220e565b905082816040516020016121d5929190612d64565b604080517fffffffffffffffffffffffffffffffffffffffffffffffffffffffffffffffe0818403018152919052925050600101612193565b60007f0603985259a953da1f65a522f589c17bd1d0117ec1d3abb7c0788aef251ef43782600001518360200151846040015180519060200120856060015186608001518760a001518860c00151604051602001611fc898979695949392919097885273ffffffffffffffffffffffffffffffffffffffff969096166020880152604087019490945260608601929092526080850152151560a0840152151560c083015260e08201526101000190565b803573ffffffffffffffffffffffffffffffffffffffff811681146122e157600080fd5b919050565b6000602082840312156122f857600080fd5b610395826122bd565b60008083601f84011261231357600080fd5b50813567ffffffffffffffff81111561232b57600080fd5b60208301915083602082850101111561234357600080fd5b9250929050565b60008060006040848603121561235f57600080fd5b83359250602084013567ffffffffffffffff81111561237d57600080fd5b61238986828701612301565b9497909650939450505050565b6000602082840312156123a857600080fd5b5035919050565b7f4e487b7100000000000000000000000000000000000000000000000000000000600052604160045260246000fd5b60405160e0810167ffffffffffffffff81118282101715612401576124016123af565b60405290565b604051610120810167ffffffffffffffff81118282101715612401576124016123af565b604051601f82017fffffffffffffffffffffffffffffffffffffffffffffffffffffffffffffffe016810167ffffffffffffffff81118282101715612472576124726123af565b604052919050565b803560ff811681146122e157600080fd5b803580151581146122e157600080fd5b600067ffffffffffffffff8211156124b5576124b56123af565b5060051b60200190565b600082601f8301126124d057600080fd5b813567ffffffffffffffff8111156124ea576124ea6123af565b61251b60207fffffffffffffffffffffffffffffffffffffffffffffffffffffffffffffffe0601f8401160161242b565b81815284602083860101111561253057600080fd5b816020850160208301376000918101602001919091529392505050565b600082601f83011261255e57600080fd5b813561257161256c8261249b565b61242b565b8082825260208201915060208360051b86010192508583111561259357600080fd5b602085015b8381101561268057803567ffffffffffffffff8111156125b757600080fd5b860160e08189037fffffffffffffffffffffffffffffffffffffffffffffffffffffffffffffffe00112156125eb57600080fd5b6125f36123de565b6125ff602083016122bd565b815260408201356020820152606082013567ffffffffffffffff81111561262557600080fd5b6126348a6020838601016124bf565b6040830152506080820135606082015261265060a0830161248b565b608082015261266160c0830161248b565b60a082015260e0919091013560c0820152835260209283019201612598565b5095945050505050565b600082601f83011261269b57600080fd5b81356126a961256c8261249b565b8082825260208201915060208360051b8601019250858311156126cb57600080fd5b602085015b83811015612680576126e1816122bd565b8352602092830192016126d0565b60008060006040848603121561270457600080fd5b833567ffffffffffffffff81111561271b57600080fd5b8401610120818703121561272e57600080fd5b612736612407565b61273f8261247a565b815261274d6020830161248b565b6020820152604082013567ffffffffffffffff81111561276c57600080fd5b6127788882850161254d565b604083015250606082810135908201526080808301359082015260a082013567ffffffffffffffff8111156127ac57600080fd5b6127b8888285016124bf565b60a08301525060c0828101359082015260e0808301359082015261010082013567ffffffffffffffff8111156127ed57600080fd5b6127f98882850161268a565b61010083015250935050602084013567ffffffffffffffff81111561237d57600080fd5b60008060006060848603121561283257600080fd5b83359250612842602085016122bd565b915060408401356bffffffffffffffffffffffff8116811461286357600080fd5b809150509250925092565b80820180821115611c0c577f4e487b7100000000000000000000000000000000000000000000000000000000600052601160045260246000fd5b7f4e487b7100000000000000000000000000000000000000000000000000000000600052603260045260246000fd5b60005b838110156128f25781810151838201526020016128da565b50506000910152565b600081518084526129138160208601602086016128d7565b601f017fffffffffffffffffffffffffffffffffffffffffffffffffffffffffffffffe0169290920160200192915050565b600082825180855260208501945060208160051b8301016020850160005b83811015612a15577fffffffffffffffffffffffffffffffffffffffffffffffffffffffffffffffe0858403018852815173ffffffffffffffffffffffffffffffffffffffff815116845260208101516020850152604081015160e060408601526129d160e08601826128fb565b6060838101519087015260808084015115159087015260a08084015115159087015260c0928301519290950191909152506020978801979190910190600101612963565b50909695505050505050565b600081518084526020840193506020830160005b82811015612a6957815173ffffffffffffffffffffffffffffffffffffffff16865260209586019590910190600101612a35565b5093949350505050565b805160ff16825260006020820151612a8f602085018215159052565b5060408201516101206040850152612aab610120850182612945565b9050606083015160608501526080830151608085015260a083015184820360a0860152612ad882826128fb565b91505060c083015160c085015260e083015160e0850152610100830151848203610100860152612b088282612a21565b95945050505050565b8183528181602085013750600060208284010152600060207fffffffffffffffffffffffffffffffffffffffffffffffffffffffffffffffe0601f840116840101905092915050565b604081526000612b6d6040830186612a73565b8281036020840152612b80818587612b11565b9695505050505050565b60008085851115612b9a57600080fd5b83861115612ba757600080fd5b5050820193919092039150565b73ffffffffffffffffffffffffffffffffffffffff83168152604060208201526000612be360408301846128fb565b949350505050565b60006040828403128015612bfe57600080fd5b506040805190810167ffffffffffffffff81118282101715612c2257612c226123af565b604052825181526020928301519281019290925250919050565b606081526000612c50606083018688612b11565b6020830194909452506040015292915050565b838152604060208201526000612b08604083018486612b11565b600060208284031215612c8f57600080fd5b81517fffffffff000000000000000000000000000000000000000000000000000000008116811461039557600080fd5b608081526000612cd26080830188612a73565b86602084015273ffffffffffffffffffffffffffffffffffffffff861660408401528281036060840152612d07818587612b11565b98975050505050505050565b600060208284031215612d2557600080fd5b5051919050565b604081526000612d3f60408301856128fb565b905073ffffffffffffffffffffffffffffffffffffffff831660208301529392505050565b60008351612d768184602088016128d7565b919091019182525060200191905056fea26469706673582212208de278e715aa4aeca9c9a93a785851c3b032f047cfd91911cf4800f5ed44ff6964736f6c634300081b0033603e600e3d39601e805130553df33d3d34601c57363d3d373d363d30545af43d82803e903d91601c57fd5bf3",
  "linkReferences": {},
  "deployedLinkReferences": {}
}