{
  "_format": "hh-sol-artifact-1",
  "contractName": "GasEstimator",
  "sourceName": "contracts/modules/utils/GasEstimator.sol",
  "abi": [
    {
      "inputs": [
        {
          "internalType": "address",
          "name": "_to",
          "type": "address"
        },
        {
          "internalType": "bytes",
          "name": "_data",
          "type": "bytes"
        }
      ],
      "name": "estimate",
      "outputs": [
        {
          "internalType": "bool",
          "name": "success",
          "type": "bool"
        },
        {
          "internalType": "bytes",
          "name": "result",
          "type": "bytes"
        },
        {
          "internalType": "uint256",
          "name": "gas",
          "type": "uint256"
        }
      ],
      "stateMutability": "nonpayable",
      "type": "function"
    }
  ],
  "bytecode": "0x608060405234801561001057600080fd5b5061028c806100206000396000f3fe608060405234801561001057600080fd5b506004361061002b5760003560e01c80630eb34cd314610030575b600080fd5b61004361003e3660046100eb565b61005b565b60405161005293929190610189565b60405180910390f35b600060606000805a90508673ffffffffffffffffffffffffffffffffffffffff16868660405161008c929190610206565b6000604051808303816000865af19150503d80600081146100c9576040519150601f19603f3d011682016040523d82523d6000602084013e6100ce565b606091505b5090945092505a6100df9082610216565b91505093509350939050565b60008060006040848603121561010057600080fd5b833573ffffffffffffffffffffffffffffffffffffffff8116811461012457600080fd5b9250602084013567ffffffffffffffff8082111561014157600080fd5b818601915086601f83011261015557600080fd5b81358181111561016457600080fd5b87602082850101111561017657600080fd5b6020830194508093505050509250925092565b831515815260006020606081840152845180606085015260005b818110156101bf578681018301518582016080015282016101a3565b5060006080828601015260807fffffffffffffffffffffffffffffffffffffffffffffffffffffffffffffffe0601f83011685010192505050826040830152949350505050565b8183823760009101908152919050565b81810381811115610250577f4e487b7100000000000000000000000000000000000000000000000000000000600052601160045260246000fd5b9291505056fea26469706673582212206fceab4570410e5aaef6bf82e04a9e582054db6ef051e3d1376a3c3ddfe0d7e464736f6c63430008120033",
  "linkReferences": {},
  "deployedLinkReferences": {}
}