{
  "_format": "hh-sol-artifact-1",
  "contractName": "SessionManager",
  "sourceName": "src/extensions/sessions/SessionManager.sol",
  "abi": [
    {
      "inputs": [
        {
          "internalType": "address",
          "name": "target",
          "type": "address"
        }
      ],
      "name": "BlacklistedAddress",
      "type": "error"
    },
    {
      "inputs": [],
      "name": "InvalidAttestation",
      "type": "error"
    },
    {
      "inputs": [],
      "name": "InvalidBlacklist",
      "type": "error"
    },
    {
      "inputs": [],
      "name": "InvalidCallsLength",
      "type": "error"
    },
    {
      "inputs": [],
      "name": "InvalidDelegateCall",
      "type": "error"
    },
    {
      "inputs": [],
      "name": "InvalidIdentitySigner",
      "type": "error"
    },
    {
      "inputs": [],
      "name": "InvalidImplicitResult",
      "type": "error"
    },
    {
      "inputs": [],
      "name": "InvalidLimitUsageIncrement",
      "type": "error"
    },
    {
      "inputs": [
        {
          "internalType": "uint256",
          "name": "flag",
          "type": "uint256"
        }
      ],
      "name": "InvalidNodeType",
      "type": "error"
    },
    {
      "inputs": [],
      "name": "InvalidPayloadKind",
      "type": "error"
    },
    {
      "inputs": [],
      "name": "InvalidPermission",
      "type": "error"
    },
    {
      "inputs": [],
      "name": "InvalidSelfCall",
      "type": "error"
    },
    {
      "inputs": [
        {
          "internalType": "address",
          "name": "invalidSigner",
          "type": "address"
        }
      ],
      "name": "InvalidSessionSigner",
      "type": "error"
    },
    {
      "inputs": [],
      "name": "InvalidValue",
      "type": "error"
    },
    {
      "inputs": [],
      "name": "MissingPermission",
      "type": "error"
    },
    {
      "inputs": [
        {
          "internalType": "uint256",
          "name": "deadline",
          "type": "uint256"
        }
      ],
      "name": "SessionExpired",
      "type": "error"
    },
    {
      "inputs": [],
      "name": "VALUE_TRACKING_ADDRESS",
      "outputs": [
        {
          "internalType": "address",
          "name": "",
          "type": "address"
        }
      ],
      "stateMutability": "view",
      "type": "function"
    },
    {
      "inputs": [
        {
          "components": [
            {
              "internalType": "bytes32",
              "name": "usageHash",
              "type": "bytes32"
            },
            {
              "internalType": "uint256",
              "name": "usageAmount",
              "type": "uint256"
            }
          ],
          "internalType": "struct UsageLimit[]",
          "name": "limits",
          "type": "tuple[]"
        }
      ],
      "name": "incrementUsageLimit",
      "outputs": [],
      "stateMutability": "nonpayable",
      "type": "function"
    },
    {
      "inputs": [
        {
          "internalType": "bytes32",
          "name": "",
          "type": "bytes32"
        }
      ],
      "name": "limitUsage",
      "outputs": [
        {
          "internalType": "uint256",
          "name": "",
          "type": "uint256"
        }
      ],
      "stateMutability": "view",
      "type": "function"
    },
    {
      "inputs": [
        {
          "components": [
            {
              "internalType": "uint8",
              "name": "kind",
              "type": "uint8"
            },
            {
              "internalType": "bool",
              "name": "noChainId",
              "type": "bool"
            },
            {
              "components": [
                {
                  "internalType": "address",
                  "name": "to",
                  "type": "address"
                },
                {
                  "internalType": "uint256",
                  "name": "value",
                  "type": "uint256"
                },
                {
                  "internalType": "bytes",
                  "name": "data",
                  "type": "bytes"
                },
                {
                  "internalType": "uint256",
                  "name": "gasLimit",
                  "type": "uint256"
                },
                {
                  "internalType": "bool",
                  "name": "delegateCall",
                  "type": "bool"
                },
                {
                  "internalType": "bool",
                  "name": "onlyFallback",
                  "type": "bool"
                },
                {
                  "internalType": "uint256",
                  "name": "behaviorOnError",
                  "type": "uint256"
                }
              ],
              "internalType": "struct Payload.Call[]",
              "name": "calls",
              "type": "tuple[]"
            },
            {
              "internalType": "uint256",
              "name": "space",
              "type": "uint256"
            },
            {
              "internalType": "uint256",
              "name": "nonce",
              "type": "uint256"
            },
            {
              "internalType": "bytes",
              "name": "message",
              "type": "bytes"
            },
            {
              "internalType": "bytes32",
              "name": "imageHash",
              "type": "bytes32"
            },
            {
              "internalType": "bytes32",
              "name": "digest",
              "type": "bytes32"
            },
            {
              "internalType": "address[]",
              "name": "parentWallets",
              "type": "address[]"
            }
          ],
          "internalType": "struct Payload.Decoded",
          "name": "payload",
          "type": "tuple"
        },
        {
          "internalType": "bytes",
          "name": "encodedSignature",
          "type": "bytes"
        }
      ],
      "name": "recoverSapientSignature",
      "outputs": [
        {
          "internalType": "bytes32",
          "name": "",
          "type": "bytes32"
        }
      ],
      "stateMutability": "view",
      "type": "function"
    },
    {
      "inputs": [
        {
          "internalType": "bytes4",
          "name": "interfaceId",
          "type": "bytes4"
        }
      ],
      "name": "supportsInterface",
      "outputs": [
        {
          "internalType": "bool",
          "name": "",
          "type": "bool"
        }
      ],
      "stateMutability": "pure",
      "type": "function"
    },
    {
      "inputs": [
        {
          "components": [
            {
              "internalType": "address",
              "name": "target",
              "type": "address"
            },
            {
              "components": [
                {
                  "internalType": "bool",
                  "name": "cumulative",
                  "type": "bool"
                },
                {
                  "internalType": "enum ParameterOperation",
                  "name": "operation",
                  "type": "uint8"
                },
                {
                  "internalType": "bytes32",
                  "name": "value",
                  "type": "bytes32"
                },
                {
                  "internalType": "uint256",
                  "name": "offset",
                  "type": "uint256"
                },
                {
                  "internalType": "bytes32",
                  "name": "mask",
                  "type": "bytes32"
                }
              ],
              "internalType": "struct ParameterRule[]",
              "name": "rules",
              "type": "tuple[]"
            }
          ],
          "internalType": "struct Permission",
          "name": "permission",
          "type": "tuple"
        },
        {
          "components": [
            {
              "internalType": "address",
              "name": "to",
              "type": "address"
            },
            {
              "internalType": "uint256",
              "name": "value",
              "type": "uint256"
            },
            {
              "internalType": "bytes",
              "name": "data",
              "type": "bytes"
            },
            {
              "internalType": "uint256",
              "name": "gasLimit",
              "type": "uint256"
            },
            {
              "internalType": "bool",
              "name": "delegateCall",
              "type": "bool"
            },
            {
              "internalType": "bool",
              "name": "onlyFallback",
              "type": "bool"
            },
            {
              "internalType": "uint256",
              "name": "behaviorOnError",
              "type": "uint256"
            }
          ],
          "internalType": "struct Payload.Call",
          "name": "call",
          "type": "tuple"
        },
        {
          "internalType": "bytes32",
          "name": "limitHashPrefix",
          "type": "bytes32"
        },
        {
          "components": [
            {
              "internalType": "bytes32",
              "name": "usageHash",
              "type": "bytes32"
            },
            {
              "internalType": "uint256",
              "name": "usageAmount",
              "type": "uint256"
            }
          ],
          "internalType": "struct UsageLimit[]",
          "name": "usageLimits",
          "type": "tuple[]"
        }
      ],
      "name": "validatePermission",
      "outputs": [
        {
          "internalType": "bool",
          "name": "",
          "type": "bool"
        },
        {
          "components": [
            {
              "internalType": "bytes32",
              "name": "usageHash",
              "type": "bytes32"
            },
            {
              "internalType": "uint256",
              "name": "usageAmount",
              "type": "uint256"
            }
          ],
          "internalType": "struct UsageLimit[]",
          "name": "newUsageLimits",
          "type": "tuple[]"
        }
      ],
      "stateMutability": "view",
      "type": "function"
    }
  ],
  "bytecode": "0x6080604052348015600f57600080fd5b50613c718061001f6000396000f3fe608060405234801561001057600080fd5b50600436106100725760003560e01c806342de14181161005057806342de1418146100e15780636e13541b146100f6578063f916f3b21461011657600080fd5b806301ffc9a71461007757806313792a4a1461009f578063388e3b79146100c0575b600080fd5b61008a610085366004612c94565b610156565b60405190151581526020015b60405180910390f35b6100b26100ad366004612cdd565b6101b2565b604051908152602001610096565b6100d36100ce366004612f78565b61072d565b60405161009692919061315f565b6100f46100ef366004613182565b610b0a565b005b6100b26101043660046131f9565b60006020819052908152604090205481565b61013173eeeeeeeeeeeeeeeeeeeeeeeeeeeeeeeeeeeeeeee81565b60405173ffffffffffffffffffffffffffffffffffffffff9091168152602001610096565b60007fffffffff0000000000000000000000000000000000000000000000000000000082167f13792a4a0000000000000000000000000000000000000000000000000000000014806101ac57506101ac82610bee565b92915050565b6000806101c26020860186613212565b60ff16146101fc576040517f7205212000000000000000000000000000000000000000000000000000000000815260040160405180910390fd5b6102096040850185613235565b9050600003610244576040517f542f0af500000000000000000000000000000000000000000000000000000000815260040160405180910390fd5b6000610251858585610c86565b90503360006102636040880188613235565b905067ffffffffffffffff81111561027d5761027d612d83565b6040519080825280602002602001820160405280156102e857816020015b6102d56040518060600160405280600073ffffffffffffffffffffffffffffffffffffffff16815260200160608152602001600081525090565b81526020019060019003908161029b5790505b50905060005b6102fb6040890189613235565b905081101561058f573661031260408a018a613235565b838181106103225761032261329d565b905060200281019061033491906132cc565b905061034660a082016080830161330a565b1561037d576040517faa25f2ad00000000000000000000000000000000000000000000000000000000815260040160405180910390fd5b6000856080015183815181106103955761039561329d565b602002602001015190508060000151156103c7576103c28286836020015184606001518a604001516111e5565b610585565b6104016040518060600160405280600073ffffffffffffffffffffffffffffffffffffffff16815260200160608152602001600081525090565b60005b855181101561054757600073ffffffffffffffffffffffffffffffffffffffff168682815181106104375761043761329d565b60200260200101516000015173ffffffffffffffffffffffffffffffffffffffff16036104ca5760208381015173ffffffffffffffffffffffffffffffffffffffff168352604080516000808252928101909152906104b8565b60408051808201909152600080825260208201528152602001906001900390816104915790505b50602083015260006040830152610547565b826020015173ffffffffffffffffffffffffffffffffffffffff168682815181106104f7576104f761329d565b60200260200101516000015173ffffffffffffffffffffffffffffffffffffffff160361053f578581815181106105305761053061329d565b60200260200101519150610547565b600101610404565b6105628c868986602001518c60600151886040015188611482565b9150818682815181106105775761057761329d565b602002602001018190525050505b50506001016102ee565b506000815167ffffffffffffffff8111156105ac576105ac612d83565b60405190808252806020026020018201604052801561061757816020015b6106046040518060600160405280600073ffffffffffffffffffffffffffffffffffffffff16815260200160608152602001600081525090565b8152602001906001900390816105ca5790505b5090506000805b83518110156106c457600084828151811061063b5761063b61329d565b602002602001015160200151511180610671575060008482815181106106635761066361329d565b602002602001015160400151115b156106bc578381815181106106885761068861329d565b60200260200101518383815181106106a2576106a261329d565b602002602001018190525081806106b890613354565b9250505b60010161061e565b50808252366106d660408b018b613235565b60016106e560408e018e613235565b6106f092915061338c565b8181106106ff576106ff61329d565b905060200281019061071191906132cc565b905061071e818487611924565b50509251979650505050505050565b6000606061073e602086018661339f565b73ffffffffffffffffffffffffffffffffffffffff16866000015173ffffffffffffffffffffffffffffffffffffffff161461077f57506000905081610b01565b856020015151835161079191906133ba565b67ffffffffffffffff8111156107a9576107a9612d83565b6040519080825280602002602001820160405280156107ee57816020015b60408051808201909152600080825260208201528152602001906001900390816107c75790505b50905060005b835181101561083c5783818151811061080f5761080f61329d565b60200260200101518282815181106108295761082961329d565b60209081029190910101526001016107f4565b50825160005b876020015151811015610af9576000886020015182815181106108675761086761329d565b60200260200101519050600061089182606001518a806040019061088b91906133cd565b50013590565b608083015183519116915015610a085760405181906000906108bb908b908e908890602001613461565b604080517fffffffffffffffffffffffffffffffffffffffffffffffffffffffffffffffe0818403018152828252805160209182012083830190925260008084529083018190529092509060005b89518110156109d5576000801b8a82815181106109285761092861329d565b6020026020010151600001510361098157604051806040016040528085815260200160008152509150818a82815181106109645761096461329d565b602090810291909101015261097a8160016133ba565b98506109d5565b838a82815181106109945761099461329d565b602002602001015160000151036109cd578981815181106109b7576109b761329d565b60200260200101519150816020015192506109d5565b600101610909565b50816000036109f05760008381526020819052604090205491505b6109fa82856133ba565b602090910181905293505050505b600082602001516003811115610a2057610a20613432565b03610a455781604001518114610a40576000879550955050505050610b01565b610aef565b600382602001516003811115610a5d57610a5d613432565b03610a7e576040820151811115610a40576000879550955050505050610b01565b600182602001516003811115610a9657610a96613432565b03610ab65781604001518103610a40576000879550955050505050610b01565b600282602001516003811115610ace57610ace613432565b03610aef576040820151811015610aef576000879550955050505050610b01565b5050600101610842565b508152600191505b94509492505050565b60005b81811015610be957600080848484818110610b2a57610b2a61329d565b90506040020160000135815260200190815260200160002054838383818110610b5557610b5561329d565b905060400201602001351015610b96576040517e2a700a00000000000000000000000000000000000000000000000000000000815260040160405180910390fd5b828282818110610ba857610ba861329d565b90506040020160200135600080858585818110610bc757610bc761329d565b6040908102929092013583525060208201929092520160002055600101610b0d565b505050565b60007fffffffff0000000000000000000000000000000000000000000000000000000082167f13792a4a0000000000000000000000000000000000000000000000000000000014806101ac57507fffffffff0000000000000000000000000000000000000000000000000000000082167f42de1418000000000000000000000000000000000000000000000000000000001492915050565b6040805160a0810182526000808252602082018190526060928201839052828201839052608082019290925290600390843560e81c610cdd868487610ccb85836133ba565b92610cd89392919061354f565b611d67565b9094509150610cec81846133ba565b602085015190935073ffffffffffffffffffffffffffffffffffffffff16610d40576040517f9e5c658b00000000000000000000000000000000000000000000000000000000815260040160405180910390fd5b50600182019160609086013560f81c8067ffffffffffffffff811115610d6857610d68612d83565b604051908082528060200260200182016040528015610ddc57816020015b610dc96040805160c0810182526000808252602080830182905282840182905260608084019290925260808301829052835190810190935282529060a082015290565b815260200190600190039081610d865790505b50915060005b8160ff16811015610f5b57610e306040805160c0810182526000808252602080830182905282840182905260608084019290925260808301829052835190810190935282529060a082015290565b610e3b898988612378565b9650905060008080610e4e8c8c8b61248f565b9b50919450925090506000610e62856124e2565b6040805160008082526020820180845284905260ff86169282019290925260608101879052608081018690529192509060019060a0016020604051602081039080840390855afa158015610eba573d6000803e3d6000fd5b5050506020604051035190508b6020015173ffffffffffffffffffffffffffffffffffffffff168173ffffffffffffffffffffffffffffffffffffffff1614610f2f576040517f9e5c658b00000000000000000000000000000000000000000000000000000000815260040160405180910390fd5b505050505080848381518110610f4757610f4761329d565b602090810291909101015250600101610de2565b5060008160ff16118015610f6d575082155b15610fa4576040517feb62520400000000000000000000000000000000000000000000000000000000815260040160405180910390fd5b506000610fb46040890189613235565b905090508067ffffffffffffffff811115610fd157610fd1612d83565b60405190808252806020026020018201604052801561100a57816020015b610ff7612c30565b815260200190600190039081610fef5790505b50608086015260005b818110156111d957611023612c30565b8589013560f81c6080811615801583526001909701966110a7578451607f821690811061107c576040517fbd8ba84d00000000000000000000000000000000000000000000000000000000815260040160405180910390fd5b858160ff16815181106110915761109161329d565b60200260200101518360600181905250506110b1565b60ff811660408301525b50600080806110c18c8c8b61248f565b809c5081945082955083965050505050600061110e8e80604001906110e69190613235565b888181106110f6576110f661329d565b905060200281019061110891906132cc565b8f6124fb565b60408051600081526020810180835283905260ff851691810191909152606081018690526080810185905290915060019060a0016020604051602081039080840390855afa158015611164573d6000803e3d6000fd5b50506040517fffffffffffffffffffffffffffffffffffffffffffffffffffffffffffffffe0015173ffffffffffffffffffffffffffffffffffffffff1660208701525050505060808801518051839250849081106111c5576111c561329d565b602090810291909101015250600101611013565b50505050509392505050565b815173ffffffffffffffffffffffffffffffffffffffff848116911614611255576040517fc1e84ed600000000000000000000000000000000000000000000000000000000815273ffffffffffffffffffffffffffffffffffffffff841660048201526024015b60405180910390fd5b61126560a086016080870161330a565b1561129c576040517faa25f2ad00000000000000000000000000000000000000000000000000000000815260040160405180910390fd5b6112a68382612573565b156112f5576040517fd33f19e700000000000000000000000000000000000000000000000000000000815273ffffffffffffffffffffffffffffffffffffffff8416600482015260240161124c565b61130b611305602087018761339f565b82612573565b156113685761131d602086018661339f565b6040517fd33f19e700000000000000000000000000000000000000000000000000000000815273ffffffffffffffffffffffffffffffffffffffff909116600482015260240161124c565b6020850135156113a4576040517faa7feadc00000000000000000000000000000000000000000000000000000000815260040160405180910390fd5b60006113b3602087018761339f565b73ffffffffffffffffffffffffffffffffffffffff1663c58ab92d8685896040518463ffffffff1660e01b81526004016113ef9392919061371a565b602060405180830381865afa15801561140c573d6000803e3d6000fd5b505050506040513d601f19601f820116820180604052508101906114309190613819565b9050600061143e848761267c565b9050808214611479576040517f0881ad5d00000000000000000000000000000000000000000000000000000000815260040160405180910390fd5b50505050505050565b6114bc6040518060600160405280600073ffffffffffffffffffffffffffffffffffffffff16815260200160608152602001600081525090565b6114fd6040518060800160405280600073ffffffffffffffffffffffffffffffffffffffff1681526020016000815260200160008152602001606081525090565b60005b8551811015611582578673ffffffffffffffffffffffffffffffffffffffff168682815181106115325761153261329d565b60200260200101516000015173ffffffffffffffffffffffffffffffffffffffff160361157a5785818151811061156b5761156b61329d565b60200260200101519150611582565b600101611500565b50805173ffffffffffffffffffffffffffffffffffffffff166115e9576040517fc1e84ed600000000000000000000000000000000000000000000000000000000815273ffffffffffffffffffffffffffffffffffffffff8716600482015260240161124c565b6040810151158015906115ff5750806040015142115b1561163e5780604001516040517fb1bbfdd500000000000000000000000000000000000000000000000000000000815260040161124c91815260200190565b3661164c60408b018b613235565b8a81811061165c5761165c61329d565b905060200281019061166e91906132cc565b905061168060a082016080830161330a565b156116b7576040517faa25f2ad00000000000000000000000000000000000000000000000000000000815260040160405180910390fd5b306116c5602083018361339f565b73ffffffffffffffffffffffffffffffffffffffff16036117a05760006116ef60408301836133cd565b6116fe9160049160009161354f565b61170791613832565b905060008260200135118061175e57507fffffffff0000000000000000000000000000000000000000000000000000000081167f42de14180000000000000000000000000000000000000000000000000000000014155b15611795576040517f540733ea00000000000000000000000000000000000000000000000000000000815260040160405180910390fd5b849350505050611919565b8160600151518560ff16106117e1576040517f3f904dc000000000000000000000000000000000000000000000000000000000815260040160405180910390fd5b600082606001518660ff16815181106117fc576117fc61329d565b602002602001015190506000898960405160200161183d92919073ffffffffffffffffffffffffffffffffffffffff92831681529116602082015260400190565b6040516020818303038152906040528051906020012090506000806118688486858b6020015161072d565b91509150816118a3576040517f868a64de00000000000000000000000000000000000000000000000000000000815260040160405180910390fd5b6020808901829052850135156118cd578460200135886040018181516118c991906133ba565b9052505b85602001518860400151111561190f576040517faa7feadc00000000000000000000000000000000000000000000000000000000815260040160405180910390fd5b8796505050505050505b979650505050505050565b815115610be95730611939602085018561339f565b73ffffffffffffffffffffffffffffffffffffffff16141580611961575060c0830135600114155b15611997576040517e2a700a00000000000000000000000000000000000000000000000000000000815260040160405180910390fd5b6000805b8351811015611a0c578381815181106119b6576119b661329d565b60200260200101516020015151826119ce91906133ba565b915060008482815181106119e4576119e461329d565b6020026020010151604001511115611a045781611a0081613354565b9250505b60010161199b565b5060008167ffffffffffffffff811115611a2857611a28612d83565b604051908082528060200260200182016040528015611a6d57816020015b6040805180820190915260008082526020820152815260200190600190039081611a465790505b5090506000805b8551811015611c5c5760005b868281518110611a9257611a9261329d565b60200260200101516020015151811015611b0e57868281518110611ab857611ab861329d565b6020026020010151602001518181518110611ad557611ad561329d565b6020026020010151848480611ae990613354565b955081518110611afb57611afb61329d565b6020908102919091010152600101611a80565b506000868281518110611b2357611b2361329d565b6020026020010151604001511115611c5457600085878381518110611b4a57611b4a61329d565b602002602001015160000151604051602001611b8992919073ffffffffffffffffffffffffffffffffffffffff92831681529116602082015260400190565b604080518083037fffffffffffffffffffffffffffffffffffffffffffffffffffffffffffffffe001815282825280516020909101208282019091526060820181905273eeeeeeeeeeeeeeeeeeeeeeeeeeeeeeeeeeeeeeee608083015291508060a08101604051602081830303815290604052805190602001208152602001888481518110611c1a57611c1a61329d565b602002602001015160400151815250848480611c3590613354565b955081518110611c4757611c4761329d565b6020026020010181905250505b600101611a74565b5060006342de141860e01b83604051602401611c789190613898565b604080517fffffffffffffffffffffffffffffffffffffffffffffffffffffffffffffffe08184030181529181526020820180517bffffffffffffffffffffffffffffffffffffffffffffffffffffffff167fffffffff00000000000000000000000000000000000000000000000000000000909416939093178352815190922090925090600090611d0c908a018a6133cd565b604051611d1a9291906138ab565b60405180910390209050818114611d5c576040517e2a700a00000000000000000000000000000000000000000000000000000000815260040160405180910390fd5b505050505050505050565b6040805160a08101825260008082526020820152606091810182905281810182905260808101919091526000808080611da16056876138ea565b90508067ffffffffffffffff811115611dbc57611dbc612d83565b604051908082528060200260200182016040528015611e2e57816020015b611e1b6040518060800160405280600073ffffffffffffffffffffffffffffffffffffffff1681526020016000815260200160008152602001606081525090565b815260200190600190039081611dda5790505b506060860152505b8482101561236557600182019186013560f881901c9060fc1c80611f3c57611e956040518060800160405280600073ffffffffffffffffffffffffffffffffffffffff1681526020016000815260200160008152602001606081525090565b888501803560601c8252601481013560208301526034013560408201526054850194611ec28a8a8861271a565b606084019190915295506000611ee2611edd88848d8f61354f565b6127da565b8951909150611ef15780611f02565b885160009081526020829052604090205b8952506060880151829086611f1681613354565b975081518110611f2857611f2861329d565b602002602001018190525050505050611e36565b60018103611f75578551602085019489013590611f595780611f6a565b865160009081526020829052604090205b875250611e36915050565b6002810361215e57600f8216848101946001600890920291821b7fffffffffffffffffffffffffffffffffffffffffffffffffffffffffffffffff01908a0135610100929092039190911c166000611fcd82876133ba565b9050600080611fe78c8c8a908692610cd89392919061354f565b91509150829750801561203b57881561202c576040517feb62520400000000000000000000000000000000000000000000000000000000815260040160405180910390fd5b604080830151908b0152600198505b602082015173ffffffffffffffffffffffffffffffffffffffff16156120ce5760208a015173ffffffffffffffffffffffffffffffffffffffff16156120ad576040517f9e5c658b00000000000000000000000000000000000000000000000000000000815260040160405180910390fd5b60208083015173ffffffffffffffffffffffffffffffffffffffff16908b01525b60005b82606001515181101561213157826060015181815181106120f4576120f461329d565b60200260200101518b60600151898061210c90613354565b9a508151811061211e5761211e61329d565b60209081029190910101526001016120d1565b50895161213f578151612150565b895182516000918252602052604090205b8a5250611e36945050505050565b600381036122a757841561219e576040517feb62520400000000000000000000000000000000000000000000000000000000815260040160405180910390fd5b60019450600f808316908190036121bc5750600284019388013560f01c5b848167ffffffffffffffff8111156121d6576121d6612d83565b6040519080825280602002602001820160405280156121ff578160200160208202803683370190505b50604089015260005b8281101561226357868b013560601c601488018a6040015183815181106122315761223161329d565b73ffffffffffffffffffffffffffffffffffffffff909316602093840291909101909201919091529650600101612208565b50600061227a61227588848d8f61354f565b6127f1565b8951909150612289578061229a565b885160009081526020829052604090205b895250611e369350505050565b6004810361233057602086015173ffffffffffffffffffffffffffffffffffffffff1615612301576040517f9e5c658b00000000000000000000000000000000000000000000000000000000815260040160405180910390fd5b8784013560601c6020870181905260149094019360009061232190612809565b8751909150611f595780611f6a565b6040517f0ad997900000000000000000000000000000000000000000000000000000000081526004810182905260240161124c565b60608401805191825252505b9250929050565b6123bb6040805160c0810182526000808252602080830182905282840182905260608084019290925260808301829052835190810190935282529060a082015290565b8382018035606090811c83527fffffffff00000000000000000000000000000000000000000000000000000000601483013516602084015260188201356040840152603882013590830152605b8301906058013560e81c85828661241f84836133ba565b9261242c9392919061354f565b8080601f016020809104026020016040519081016040528093929190818152602001838380828437600092019190915250505050608084015261246f81836133ba565b915061247c868684612882565b60a0850191909152915050935093915050565b828101803590602001357f7fffffffffffffffffffffffffffffffffffffffffffffffffffffffffffffff811690600090604085019060ff81901c6124d581601b6138fe565b9350505093509350935093565b60006124ed82612902565b805190602001209050919050565b600061250d604083016020840161330a565b612517574661251a565b60005b60608301356080840135612535612530876139a5565b61295c565b6040805160208101959095528401929092526060830152608082015260a0015b60405160208183030381529060405280519060200120905092915050565b6000806000905060006001845161258a9190613a3d565b90505b80821361267157600060026125a28484613a3d565b6125ac9190613a5d565b6125b69084613ac5565b905060008582815181106125cc576125cc61329d565b602002602001015190508673ffffffffffffffffffffffffffffffffffffffff168173ffffffffffffffffffffffffffffffffffffffff16036126165760019450505050506101ac565b8673ffffffffffffffffffffffffffffffffffffffff168173ffffffffffffffffffffffffffffffffffffffff16101561265c57612655826001613ac5565b935061266a565b612667600183613a3d565b92505b505061258d565b506000949350505050565b6040517f616363657074496d706c696369745265717565737400000000000000000000006020820152600090603501604051602081830303815290604052805190602001208284606001518560400151604051602001612555949392919093845260609290921b7fffffffffffffffffffffffffffffffffffffffff0000000000000000000000001660208401526034830152605482015260740190565b600181019060609060009085013560f81c8067ffffffffffffffff81111561274457612744612d83565b60405190808252806020026020018201604052801561278a57816020015b6040805180820190915260008152606060208201528152602001906001900390816127625790505b50925060005b818110156127cd576127a3878787612a0b565b8583815181106127b5576127b561329d565b60209081029190910101919091529450600101612790565b5083915050935093915050565b600080838360405160200161255593929190613aed565b60006003838360405160200161255593929190613aed565b6040517f040000000000000000000000000000000000000000000000000000000000000060208201527fffffffffffffffffffffffffffffffffffffffff000000000000000000000000606083901b1660218201526000906035015b604051602081830303815290604052805190602001209050919050565b604080516020810190915260608152600382018483013560e81c8582866128a984836133ba565b926128b69392919061354f565b8080601f0160208091040260200160405190810160405280939291908181526020018383808284376000920191909152505050908452506128f781836133ba565b915050935093915050565b6060816000015182602001518360400151846060015185608001515186608001516129308860a00151612c14565b6040516020016129469796959493929190613b2c565b6040516020818303038152906040529050919050565b60007f0603985259a953da1f65a522f589c17bd1d0117ec1d3abb7c0788aef251ef43782600001518360200151846040015180519060200120856060015186608001518760a001518860c0015160405160200161286598979695949392919097885273ffffffffffffffffffffffffffffffffffffffff969096166020880152604087019490945260608601929092526080850152151560a0840152151560c083015260e08201526101000190565b60408051808201909152606060208201819052848301803590911c82526015909201916000906014013560f81c8067ffffffffffffffff811115612a5157612a51612d83565b604051908082528060200260200182016040528015612ac857816020015b6040805160a0810182526000808252602080830182905292820181905260608201819052608082015282527fffffffffffffffffffffffffffffffffffffffffffffffffffffffffffffffff909201910181612a6f5790505b50602084015260005b818110156127cd57602084015180516001808801978a013560f81c9290831615159184908110612b0357612b0361329d565b60209081029190910101519015159052607f600182901c166003811115612b2c57612b2c613432565b85602001518381518110612b4257612b4261329d565b6020026020010151602001906003811115612b5f57612b5f613432565b90816003811115612b7257612b72613432565b905250858801356020870186602001518481518110612b9357612b9361329d565b6020908102919091018101516040019290925296508887013590870186602001518481518110612bc557612bc561329d565b6020908102919091018101516060019290925296508887013590870186602001518481518110612bf757612bf761329d565b602090810291909101015160800191909152955050600101612ad1565b805180516040516060926129469291602001613bf0565b905290565b604080516080810182526000808252602082018190529181019190915260608101612c2b6040805160c0810182526000808252602080830182905282840182905260608084019290925260808301829052835190810190935282529060a082015290565b600060208284031215612ca657600080fd5b81357fffffffff0000000000000000000000000000000000000000000000000000000081168114612cd657600080fd5b9392505050565b600080600060408486031215612cf257600080fd5b833567ffffffffffffffff811115612d0957600080fd5b84016101208187031215612d1c57600080fd5b9250602084013567ffffffffffffffff811115612d3857600080fd5b8401601f81018613612d4957600080fd5b803567ffffffffffffffff811115612d6057600080fd5b866020828401011115612d7257600080fd5b939660209190910195509293505050565b7f4e487b7100000000000000000000000000000000000000000000000000000000600052604160045260246000fd5b6040805190810167ffffffffffffffff81118282101715612dd557612dd5612d83565b60405290565b60405160a0810167ffffffffffffffff81118282101715612dd557612dd5612d83565b60405160e0810167ffffffffffffffff81118282101715612dd557612dd5612d83565b604051601f82017fffffffffffffffffffffffffffffffffffffffffffffffffffffffffffffffe016810167ffffffffffffffff81118282101715612e6857612e68612d83565b604052919050565b803573ffffffffffffffffffffffffffffffffffffffff81168114612e9457600080fd5b919050565b600067ffffffffffffffff821115612eb357612eb3612d83565b5060051b60200190565b80358015158114612e9457600080fd5b600060e08284031215612edf57600080fd5b50919050565b600082601f830112612ef657600080fd5b8135612f09612f0482612e99565b612e21565b8082825260208201915060208360061b860101925085831115612f2b57600080fd5b602085015b83811015612f6e5760408188031215612f4857600080fd5b612f50612db2565b81358152602080830135818301529084529290920191604001612f30565b5095945050505050565b60008060008060808587031215612f8e57600080fd5b843567ffffffffffffffff811115612fa557600080fd5b850160408188031215612fb757600080fd5b612fbf612db2565b612fc882612e70565b8152602082013567ffffffffffffffff811115612fe457600080fd5b80830192505087601f830112612ff957600080fd5b8135613007612f0482612e99565b80828252602082019150602060a0840286010192508a83111561302957600080fd5b6020850194505b828510156130a75760a0858c03121561304857600080fd5b613050612ddb565b61305986612ebd565b815260208601356004811061306d57600080fd5b60208281019190915260408781013590830152606080880135908301526080808801359083015290835260a0909501949190910190613030565b8060208501525050508095505050602085013567ffffffffffffffff8111156130cf57600080fd5b6130db87828801612ecd565b93505060408501359150606085013567ffffffffffffffff8111156130ff57600080fd5b61310b87828801612ee5565b91505092959194509250565b600081518084526020840193506020830160005b8281101561315557815180518752602090810151818801526040909601959091019060010161312b565b5093949350505050565b821515815260406020820152600061317a6040830184613117565b949350505050565b6000806020838503121561319557600080fd5b823567ffffffffffffffff8111156131ac57600080fd5b8301601f810185136131bd57600080fd5b803567ffffffffffffffff8111156131d457600080fd5b8560208260061b84010111156131e957600080fd5b6020919091019590945092505050565b60006020828403121561320b57600080fd5b5035919050565b60006020828403121561322457600080fd5b813560ff81168114612cd657600080fd5b60008083357fffffffffffffffffffffffffffffffffffffffffffffffffffffffffffffffe184360301811261326a57600080fd5b83018035915067ffffffffffffffff82111561328557600080fd5b6020019150600581901b360382131561237157600080fd5b7f4e487b7100000000000000000000000000000000000000000000000000000000600052603260045260246000fd5b600082357fffffffffffffffffffffffffffffffffffffffffffffffffffffffffffffff2183360301811261330057600080fd5b9190910192915050565b60006020828403121561331c57600080fd5b612cd682612ebd565b7f4e487b7100000000000000000000000000000000000000000000000000000000600052601160045260246000fd5b60007fffffffffffffffffffffffffffffffffffffffffffffffffffffffffffffffff820361338557613385613325565b5060010190565b818103818111156101ac576101ac613325565b6000602082840312156133b157600080fd5b612cd682612e70565b808201808211156101ac576101ac613325565b60008083357fffffffffffffffffffffffffffffffffffffffffffffffffffffffffffffffe184360301811261340257600080fd5b83018035915067ffffffffffffffff82111561341d57600080fd5b60200191503681900382131561237157600080fd5b7f4e487b7100000000000000000000000000000000000000000000000000000000600052602160045260246000fd5b83815260606020820152600060a0820173ffffffffffffffffffffffffffffffffffffffff855116606084015260208501516040608085015281815180845260c086019150602083019350600092505b8083101561353a5783518051151583526020810151600481106134fd577f4e487b7100000000000000000000000000000000000000000000000000000000600052602160045260246000fd5b806020850152506040810151604084015260608101516060840152608081015160808401525060a0820191506020840193506001830192506134b1565b50809350505050826040830152949350505050565b6000808585111561355f57600080fd5b8386111561356c57600080fd5b5050820193919092039150565b60005b8381101561359457818101518382015260200161357c565b50506000910152565b600081518084526135b5816020860160208601613579565b601f017fffffffffffffffffffffffffffffffffffffffffffffffffffffffffffffffe0169290920160200192915050565b8183528181602085013750600060208284010152600060207fffffffffffffffffffffffffffffffffffffffffffffffffffffffffffffffe0601f840116840101905092915050565b73ffffffffffffffffffffffffffffffffffffffff61364e82612e70565b1682526020818101359083015260006040820135368390037fffffffffffffffffffffffffffffffffffffffffffffffffffffffffffffffe101811261369357600080fd5b820160208101903567ffffffffffffffff8111156136b057600080fd5b8036038213156136bf57600080fd5b60e060408601526136d460e0860182846135e7565b6060858101359087015291506136ee905060808401612ebd565b1515608085015261370160a08401612ebd565b151560a085015260c09283013592909301919091525090565b73ffffffffffffffffffffffffffffffffffffffff841681526060602082015273ffffffffffffffffffffffffffffffffffffffff83511660608201527fffffffff000000000000000000000000000000000000000000000000000000006020840151166080820152604083015160a0820152606083015160c08201526000608084015160c060e08401526137b361012084018261359d565b905060a08501517fffffffffffffffffffffffffffffffffffffffffffffffffffffffffffffffa08483030161010085015280519050602082526137fa602083018261359d565b915050828103604084015261380f8185613630565b9695505050505050565b60006020828403121561382b57600080fd5b5051919050565b80357fffffffff000000000000000000000000000000000000000000000000000000008116906004841015613891577fffffffff00000000000000000000000000000000000000000000000000000000808560040360031b1b82161691505b5092915050565b602081526000612cd66020830184613117565b8183823760009101908152919050565b7f4e487b7100000000000000000000000000000000000000000000000000000000600052601260045260246000fd5b6000826138f9576138f96138bb565b500490565b60ff81811683821601908111156101ac576101ac613325565b600082601f83011261392857600080fd5b813567ffffffffffffffff81111561394257613942612d83565b61397360207fffffffffffffffffffffffffffffffffffffffffffffffffffffffffffffffe0601f84011601612e21565b81815284602083860101111561398857600080fd5b816020850160208301376000918101602001919091529392505050565b600060e082360312156139b757600080fd5b6139bf612dfe565b6139c883612e70565b815260208381013590820152604083013567ffffffffffffffff8111156139ee57600080fd5b6139fa36828601613917565b60408301525060608381013590820152613a1660808401612ebd565b6080820152613a2760a08401612ebd565b60a082015260c092830135928101929092525090565b818103600083128015838313168383128216171561389157613891613325565b600082613a6c57613a6c6138bb565b7fffffffffffffffffffffffffffffffffffffffffffffffffffffffffffffffff83147f800000000000000000000000000000000000000000000000000000000000000083141615613ac057613ac0613325565b500590565b8082018281126000831280158216821582161715613ae557613ae5613325565b505092915050565b7fff000000000000000000000000000000000000000000000000000000000000008460f81b168152818360018301376000910160010190815292915050565b7fffffffffffffffffffffffffffffffffffffffff0000000000000000000000008860601b1681527fffffffff00000000000000000000000000000000000000000000000000000000871660148201528560188201528460388201527fffffff00000000000000000000000000000000000000000000000000000000008460e81b16605882015260008351613bc881605b850160208801613579565b835190830190613bdf81605b840160208801613579565b01605b019998505050505050505050565b7fffffff00000000000000000000000000000000000000000000000000000000008360e81b16815260008251613c2d816003850160208701613579565b91909101600301939250505056fea26469706673582212206974bd8480d5f979c197b50215724407afb93b4012c3ca735918505f24ef87d164736f6c634300081b0033",
  "linkReferences": {},
  "deployedLinkReferences": {}
}