{
  "_format": "hh-sol-artifact-1",
  "contractName": "SessionManager",
  "sourceName": "src/extensions/sessions/SessionManager.sol",
  "abi": [
    {
      "inputs": [
        {
          "internalType": "address",
          "name": "target",
          "type": "address"
        }
      ],
      "name": "BlacklistedAddress",
      "type": "error"
    },
    {
      "inputs": [],
      "name": "InvalidAttestation",
      "type": "error"
    },
    {
      "inputs": [],
      "name": "InvalidBlacklist",
      "type": "error"
    },
    {
      "inputs": [],
      "name": "InvalidCallsLength",
      "type": "error"
    },
    {
      "inputs": [
        {
          "internalType": "uint256",
          "name": "invalidChainId",
          "type": "uint256"
        }
      ],
      "name": "InvalidChainId",
      "type": "error"
    },
    {
      "inputs": [],
      "name": "InvalidDelegateCall",
      "type": "error"
    },
    {
      "inputs": [],
      "name": "InvalidIdentitySigner",
      "type": "error"
    },
    {
      "inputs": [],
      "name": "InvalidImplicitResult",
      "type": "error"
    },
    {
      "inputs": [],
      "name": "InvalidLimitUsageIncrement",
      "type": "error"
    },
    {
      "inputs": [
        {
          "internalType": "uint256",
          "name": "flag",
          "type": "uint256"
        }
      ],
      "name": "InvalidNodeType",
      "type": "error"
    },
    {
      "inputs": [],
      "name": "InvalidPayloadKind",
      "type": "error"
    },
    {
      "inputs": [],
      "name": "InvalidPermission",
      "type": "error"
    },
    {
      "inputs": [],
      "name": "InvalidSelfCall",
      "type": "error"
    },
    {
      "inputs": [
        {
          "internalType": "address",
          "name": "invalidSigner",
          "type": "address"
        }
      ],
      "name": "InvalidSessionSigner",
      "type": "error"
    },
    {
      "inputs": [],
      "name": "InvalidValue",
      "type": "error"
    },
    {
      "inputs": [],
      "name": "MissingPermission",
      "type": "error"
    },
    {
      "inputs": [
        {
          "internalType": "uint256",
          "name": "deadline",
          "type": "uint256"
        }
      ],
      "name": "SessionExpired",
      "type": "error"
    },
    {
      "anonymous": false,
      "inputs": [
        {
          "indexed": false,
          "internalType": "address",
          "name": "wallet",
          "type": "address"
        },
        {
          "indexed": false,
          "internalType": "bytes32",
          "name": "usageHash",
          "type": "bytes32"
        },
        {
          "indexed": false,
          "internalType": "uint256",
          "name": "usageAmount",
          "type": "uint256"
        }
      ],
      "name": "LimitUsageUpdated",
      "type": "event"
    },
    {
      "inputs": [],
      "name": "VALUE_TRACKING_ADDRESS",
      "outputs": [
        {
          "internalType": "address",
          "name": "",
          "type": "address"
        }
      ],
      "stateMutability": "view",
      "type": "function"
    },
    {
      "inputs": [
        {
          "internalType": "address",
          "name": "wallet",
          "type": "address"
        },
        {
          "internalType": "bytes32",
          "name": "usageHash",
          "type": "bytes32"
        }
      ],
      "name": "getLimitUsage",
      "outputs": [
        {
          "internalType": "uint256",
          "name": "",
          "type": "uint256"
        }
      ],
      "stateMutability": "view",
      "type": "function"
    },
    {
      "inputs": [
        {
          "components": [
            {
              "internalType": "bytes32",
              "name": "usageHash",
              "type": "bytes32"
            },
            {
              "internalType": "uint256",
              "name": "usageAmount",
              "type": "uint256"
            }
          ],
          "internalType": "struct UsageLimit[]",
          "name": "limits",
          "type": "tuple[]"
        }
      ],
      "name": "incrementUsageLimit",
      "outputs": [],
      "stateMutability": "nonpayable",
      "type": "function"
    },
    {
      "inputs": [
        {
          "components": [
            {
              "internalType": "uint8",
              "name": "kind",
              "type": "uint8"
            },
            {
              "internalType": "bool",
              "name": "noChainId",
              "type": "bool"
            },
            {
              "components": [
                {
                  "internalType": "address",
                  "name": "to",
                  "type": "address"
                },
                {
                  "internalType": "uint256",
                  "name": "value",
                  "type": "uint256"
                },
                {
                  "internalType": "bytes",
                  "name": "data",
                  "type": "bytes"
                },
                {
                  "internalType": "uint256",
                  "name": "gasLimit",
                  "type": "uint256"
                },
                {
                  "internalType": "bool",
                  "name": "delegateCall",
                  "type": "bool"
                },
                {
                  "internalType": "bool",
                  "name": "onlyFallback",
                  "type": "bool"
                },
                {
                  "internalType": "uint256",
                  "name": "behaviorOnError",
                  "type": "uint256"
                }
              ],
              "internalType": "struct Payload.Call[]",
              "name": "calls",
              "type": "tuple[]"
            },
            {
              "internalType": "uint256",
              "name": "space",
              "type": "uint256"
            },
            {
              "internalType": "uint256",
              "name": "nonce",
              "type": "uint256"
            },
            {
              "internalType": "bytes",
              "name": "message",
              "type": "bytes"
            },
            {
              "internalType": "bytes32",
              "name": "imageHash",
              "type": "bytes32"
            },
            {
              "internalType": "bytes32",
              "name": "digest",
              "type": "bytes32"
            },
            {
              "internalType": "address[]",
              "name": "parentWallets",
              "type": "address[]"
            }
          ],
          "internalType": "struct Payload.Decoded",
          "name": "payload",
          "type": "tuple"
        },
        {
          "internalType": "bytes",
          "name": "encodedSignature",
          "type": "bytes"
        }
      ],
      "name": "recoverSapientSignature",
      "outputs": [
        {
          "internalType": "bytes32",
          "name": "",
          "type": "bytes32"
        }
      ],
      "stateMutability": "view",
      "type": "function"
    },
    {
      "inputs": [
        {
          "components": [
            {
              "internalType": "address",
              "name": "target",
              "type": "address"
            },
            {
              "components": [
                {
                  "internalType": "bool",
                  "name": "cumulative",
                  "type": "bool"
                },
                {
                  "internalType": "enum ParameterOperation",
                  "name": "operation",
                  "type": "uint8"
                },
                {
                  "internalType": "bytes32",
                  "name": "value",
                  "type": "bytes32"
                },
                {
                  "internalType": "uint256",
                  "name": "offset",
                  "type": "uint256"
                },
                {
                  "internalType": "bytes32",
                  "name": "mask",
                  "type": "bytes32"
                }
              ],
              "internalType": "struct ParameterRule[]",
              "name": "rules",
              "type": "tuple[]"
            }
          ],
          "internalType": "struct Permission",
          "name": "permission",
          "type": "tuple"
        },
        {
          "components": [
            {
              "internalType": "address",
              "name": "to",
              "type": "address"
            },
            {
              "internalType": "uint256",
              "name": "value",
              "type": "uint256"
            },
            {
              "internalType": "bytes",
              "name": "data",
              "type": "bytes"
            },
            {
              "internalType": "uint256",
              "name": "gasLimit",
              "type": "uint256"
            },
            {
              "internalType": "bool",
              "name": "delegateCall",
              "type": "bool"
            },
            {
              "internalType": "bool",
              "name": "onlyFallback",
              "type": "bool"
            },
            {
              "internalType": "uint256",
              "name": "behaviorOnError",
              "type": "uint256"
            }
          ],
          "internalType": "struct Payload.Call",
          "name": "call",
          "type": "tuple"
        },
        {
          "internalType": "address",
          "name": "wallet",
          "type": "address"
        },
        {
          "internalType": "address",
          "name": "signer",
          "type": "address"
        },
        {
          "components": [
            {
              "internalType": "bytes32",
              "name": "usageHash",
              "type": "bytes32"
            },
            {
              "internalType": "uint256",
              "name": "usageAmount",
              "type": "uint256"
            }
          ],
          "internalType": "struct UsageLimit[]",
          "name": "usageLimits",
          "type": "tuple[]"
        }
      ],
      "name": "validatePermission",
      "outputs": [
        {
          "internalType": "bool",
          "name": "",
          "type": "bool"
        },
        {
          "components": [
            {
              "internalType": "bytes32",
              "name": "usageHash",
              "type": "bytes32"
            },
            {
              "internalType": "uint256",
              "name": "usageAmount",
              "type": "uint256"
            }
          ],
          "internalType": "struct UsageLimit[]",
          "name": "newUsageLimits",
          "type": "tuple[]"
        }
      ],
      "stateMutability": "view",
      "type": "function"
    }
  ],
  "bytecode": "0x6080604052348015600f57600080fd5b50613d108061001f6000396000f3fe608060405234801561001057600080fd5b50600436106100675760003560e01c8063313dade711610050578063313dade7146100a557806342de1418146100c6578063f916f3b2146100db57600080fd5b806313792a4a1461006c57806323b3713e14610092575b600080fd5b61007f61007a366004612cf2565b61011b565b6040519081526020015b60405180910390f35b61007f6100a0366004612dc1565b610708565b6100b86100b3366004612fb7565b61073e565b6040516100899291906131b6565b6100d96100d43660046131d9565b610b1f565b005b6100f673eeeeeeeeeeeeeeeeeeeeeeeeeeeeeeeeeeeeeeee81565b60405173ffffffffffffffffffffffffffffffffffffffff9091168152602001610089565b60008061012b6020860186613250565b60ff1614610165576040517f7205212000000000000000000000000000000000000000000000000000000000815260040160405180910390fd5b610172604085018561327a565b90506000036101ad576040517f542f0af500000000000000000000000000000000000000000000000000000000815260040160405180910390fd5b60006101ba858585610bf2565b90503360006101cc604088018861327a565b905067ffffffffffffffff8111156101e6576101e6612deb565b60405190808252806020026020018201604052801561025157816020015b61023e6040518060600160405280600073ffffffffffffffffffffffffffffffffffffffff16815260200160608152602001600081525090565b8152602001906001900390816102045790505b50905060005b610264604089018961327a565b905081101561056b573661027b60408a018a61327a565b8381811061028b5761028b6132e2565b905060200281019061029d9190613311565b90506102af60a082016080830161334f565b156102e6576040517faa25f2ad00000000000000000000000000000000000000000000000000000000815260040160405180910390fd5b6000856080015183815181106102fe576102fe6132e2565b602002602001015190508060000151156103305761032b8286836020015184606001518a60400151611194565b610561565b61036a6040518060600160405280600073ffffffffffffffffffffffffffffffffffffffff16815260200160608152602001600081525090565b60005b855181101561052357600073ffffffffffffffffffffffffffffffffffffffff168682815181106103a0576103a06132e2565b60200260200101516000015173ffffffffffffffffffffffffffffffffffffffff16036104a65760208381015173ffffffffffffffffffffffffffffffffffffffff16835260408051600080825292810190915290610421565b60408051808201909152600080825260208201528152602001906001900390816103fa5790505b5082602001819052506000836020015173eeeeeeeeeeeeeeeeeeeeeeeeeeeeeeeeeeeeeeee60405160200161047992919073ffffffffffffffffffffffffffffffffffffffff92831681529116602082015260400190565b60405160208183030381529060405280519060200120905061049b8882610708565b604084015250610523565b826020015173ffffffffffffffffffffffffffffffffffffffff168682815181106104d3576104d36132e2565b60200260200101516000015173ffffffffffffffffffffffffffffffffffffffff160361051b5785818151811061050c5761050c6132e2565b60200260200101519150610523565b60010161036d565b61053e8c868986602001518c6060015188604001518861142c565b915081868281518110610553576105536132e2565b602002602001018190525050505b5050600101610257565b506000815167ffffffffffffffff81111561058857610588612deb565b6040519080825280602002602001820160405280156105f357816020015b6105e06040518060600160405280600073ffffffffffffffffffffffffffffffffffffffff16815260200160608152602001600081525090565b8152602001906001900390816105a65790505b5090506000805b83518110156106a0576000848281518110610617576106176132e2565b60200260200101516020015151118061064d5750600084828151811061063f5761063f6132e2565b602002602001015160400151115b1561069857838181518110610664576106646132e2565b602002602001015183838151811061067e5761067e6132e2565b6020026020010181905250818061069490613399565b9250505b6001016105fa565b50808252366106b260408b018b61327a565b60016106c160408e018e61327a565b6106cc9291506133d1565b8181106106db576106db6132e2565b90506020028101906106ed9190613311565b90506106f98184611904565b50509251979650505050505050565b73ffffffffffffffffffffffffffffffffffffffff82166000908152602081815260408083208484529091529020545b92915050565b6000606061074f60208701876133e4565b73ffffffffffffffffffffffffffffffffffffffff16876000015173ffffffffffffffffffffffffffffffffffffffff161461079057506000905081610b15565b86602001515183516107a291906133ff565b67ffffffffffffffff8111156107ba576107ba612deb565b6040519080825280602002602001820160405280156107ff57816020015b60408051808201909152600080825260208201528152602001906001900390816107d85790505b50905060005b835181101561084d57838181518110610820576108206132e2565b602002602001015182828151811061083a5761083a6132e2565b6020908102919091010152600101610805565b50825160005b886020015151811015610b0d57600089602001518281518110610878576108786132e2565b6020026020010151905060006108a982606001518b806040019061089c9190613412565b5081013591602090910190565b50608083015183519116915015610a1c5760405181906000906108d4908b908f9088906020016134a6565b604080517fffffffffffffffffffffffffffffffffffffffffffffffffffffffffffffffe0818403018152828252805160209182012083830190925260008084529083018190529092509060005b89518110156109ee576000801b8a8281518110610941576109416132e2565b6020026020010151600001510361099a57604051806040016040528085815260200160008152509150818a828151811061097d5761097d6132e2565b60209081029190910101526109938160016133ff565b98506109ee565b838a82815181106109ad576109ad6132e2565b602002602001015160000151036109e6578981815181106109d0576109d06132e2565b60200260200101519150816020015192506109ee565b600101610922565b5081600003610a0457610a018d84610708565b91505b610a0e82856133ff565b602090910181905293505050505b600082602001516003811115610a3457610a34613477565b03610a595781604001518114610a54576000879550955050505050610b15565b610b03565b600382602001516003811115610a7157610a71613477565b03610a92576040820151811115610a54576000879550955050505050610b15565b600182602001516003811115610aaa57610aaa613477565b03610aca5781604001518103610a54576000879550955050505050610b15565b600282602001516003811115610ae257610ae2613477565b03610b03576040820151811015610b03576000879550955050505050610b15565b5050600101610853565b508152600191505b9550959350505050565b3360005b82811015610bec57610b5082858584818110610b4157610b416132e2565b90506040020160000135610708565b848483818110610b6257610b626132e2565b905060400201602001351015610ba3576040517e2a700a00000000000000000000000000000000000000000000000000000000815260040160405180910390fd5b610be482858584818110610bb957610bb96132e2565b90506040020160000135868685818110610bd557610bd56132e2565b90506040020160200135611cff565b600101610b23565b50505050565b6040805160a0810182526000808252602082018190526060928201839052828201839052608082019290925290600390843560e81c610c49868487610c3785836133ff565b92610c44939291906135aa565b611d72565b9094509150610c5881846133ff565b602085015190935073ffffffffffffffffffffffffffffffffffffffff16610cac576040517f9e5c658b00000000000000000000000000000000000000000000000000000000815260040160405180910390fd5b50600182019160609086013560f81c8067ffffffffffffffff811115610cd457610cd4612deb565b604051908082528060200260200182016040528015610d4a57816020015b610d376040805160c08101825260008082526020808301829052828401829052606080840183905260808401819052845180860190955284528301529060a082015290565b815260200190600190039081610cf25790505b50915060005b8160ff16811015610ecb57610da06040805160c08101825260008082526020808301829052828401829052606080840183905260808401819052845180860190955284528301529060a082015290565b610dab8989886123b1565b9650905060008080610dbe8c8c8b6124ca565b9b50919450925090506000610dd28561251d565b6040805160008082526020820180845284905260ff86169282019290925260608101879052608081018690529192509060019060a0016020604051602081039080840390855afa158015610e2a573d6000803e3d6000fd5b5050506020604051035190508b6020015173ffffffffffffffffffffffffffffffffffffffff168173ffffffffffffffffffffffffffffffffffffffff1614610e9f576040517f9e5c658b00000000000000000000000000000000000000000000000000000000815260040160405180910390fd5b505050505080848381518110610eb757610eb76132e2565b602090810291909101015250600101610d50565b5060008160ff16118015610edd575082155b15610f14576040517feb62520400000000000000000000000000000000000000000000000000000000815260040160405180910390fd5b506000610f24604089018961327a565b905090508067ffffffffffffffff811115610f4157610f41612deb565b604051908082528060200260200182016040528015610f7a57816020015b610f67612c8c565b815260200190600190039081610f5f5790505b50608086015260005b8181101561118857610f93612c8c565b8589013560f81c608081161580158352600190970196611017578451607f8216908110610fec576040517fbd8ba84d00000000000000000000000000000000000000000000000000000000815260040160405180910390fd5b858160ff1681518110611001576110016132e2565b6020026020010151836060018190525050611021565b60ff811660408301525b50600080806110318c8c8b6124ca565b809c5081945082955083965050505050600061107e8e8060400190611056919061327a565b88818110611066576110666132e2565b90506020028101906110789190613311565b8f612536565b60408051600081526020810180835283905260ff851691810191909152606081018690526080810185905290915060019060a0016020604051602081039080840390855afa1580156110d4573d6000803e3d6000fd5b50506040517fffffffffffffffffffffffffffffffffffffffffffffffffffffffffffffffe0015173ffffffffffffffffffffffffffffffffffffffff16602087018190529050611159576040517fc1e84ed6000000000000000000000000000000000000000000000000000000008152600060048201526024015b60405180910390fd5b505050508087608001518381518110611174576111746132e2565b602090810291909101015250600101610f83565b50505050509392505050565b815173ffffffffffffffffffffffffffffffffffffffff8481169116146111ff576040517fc1e84ed600000000000000000000000000000000000000000000000000000000815273ffffffffffffffffffffffffffffffffffffffff84166004820152602401611150565b61120f60a086016080870161334f565b15611246576040517faa25f2ad00000000000000000000000000000000000000000000000000000000815260040160405180910390fd5b61125083826125ae565b1561129f576040517fd33f19e700000000000000000000000000000000000000000000000000000000815273ffffffffffffffffffffffffffffffffffffffff84166004820152602401611150565b6112b56112af60208701876133e4565b826125ae565b15611312576112c760208601866133e4565b6040517fd33f19e700000000000000000000000000000000000000000000000000000000815273ffffffffffffffffffffffffffffffffffffffff9091166004820152602401611150565b60208501351561134e576040517faa7feadc00000000000000000000000000000000000000000000000000000000815260040160405180910390fd5b600061135d60208701876133e4565b73ffffffffffffffffffffffffffffffffffffffff16639d043a668685896040518463ffffffff1660e01b815260040161139993929190613775565b602060405180830381865afa1580156113b6573d6000803e3d6000fd5b505050506040513d601f19601f820116820180604052508101906113da9190613887565b905060006113e884876126b7565b9050808214611423576040517f0881ad5d00000000000000000000000000000000000000000000000000000000815260040160405180910390fd5b50505050505050565b6114666040518060600160405280600073ffffffffffffffffffffffffffffffffffffffff16815260200160608152602001600081525090565b6114b86040518060a00160405280600073ffffffffffffffffffffffffffffffffffffffff1681526020016000815260200160008152602001600067ffffffffffffffff168152602001606081525090565b60005b855181101561153d578673ffffffffffffffffffffffffffffffffffffffff168682815181106114ed576114ed6132e2565b60200260200101516000015173ffffffffffffffffffffffffffffffffffffffff160361153557858181518110611526576115266132e2565b6020026020010151915061153d565b6001016114bb565b50805173ffffffffffffffffffffffffffffffffffffffff166115a4576040517fc1e84ed600000000000000000000000000000000000000000000000000000000815273ffffffffffffffffffffffffffffffffffffffff87166004820152602401611150565b6020810151158015906115bb575046816020015114155b156115fa5780602001516040517f331003b300000000000000000000000000000000000000000000000000000000815260040161115091815260200190565b606081015167ffffffffffffffff16158015906116245750806060015167ffffffffffffffff1642115b1561166d5760608101516040517fb1bbfdd500000000000000000000000000000000000000000000000000000000815267ffffffffffffffff9091166004820152602401611150565b3661167b60408b018b61327a565b8a81811061168b5761168b6132e2565b905060200281019061169d9190613311565b90506116af60a082016080830161334f565b156116e6576040517faa25f2ad00000000000000000000000000000000000000000000000000000000815260040160405180910390fd5b306116f460208301836133e4565b73ffffffffffffffffffffffffffffffffffffffff16036117cf57600061171e6040830183613412565b61172d916004916000916135aa565b611736916138a0565b905060008260200135118061178d57507fffffffff0000000000000000000000000000000000000000000000000000000081167f42de14180000000000000000000000000000000000000000000000000000000014155b156117c4576040517f540733ea00000000000000000000000000000000000000000000000000000000815260040160405180910390fd5b8493505050506118f9565b8160800151518560ff1610611810576040517f3f904dc000000000000000000000000000000000000000000000000000000000815260040160405180910390fd5b600082608001518660ff168151811061182b5761182b6132e2565b6020026020010151905060008061184983858d8d8b6020015161073e565b9150915081611884576040517f868a64de00000000000000000000000000000000000000000000000000000000815260040160405180910390fd5b6020808801829052840135156118ae578360200135876040018181516118aa91906133ff565b9052505b8460400151876040015111156118f0576040517faa7feadc00000000000000000000000000000000000000000000000000000000815260040160405180910390fd5b86955050505050505b979650505050505050565b805115611cfb573061191960208401846133e4565b73ffffffffffffffffffffffffffffffffffffffff16141580611941575060c0820135600114155b15611977576040517e2a700a00000000000000000000000000000000000000000000000000000000815260040160405180910390fd5b6000805b82518110156119ec57828181518110611996576119966132e2565b60200260200101516020015151826119ae91906133ff565b915060008382815181106119c4576119c46132e2565b60200260200101516040015111156119e457816119e081613399565b9250505b60010161197b565b5060008167ffffffffffffffff811115611a0857611a08612deb565b604051908082528060200260200182016040528015611a4d57816020015b6040805180820190915260008082526020820152815260200190600190039081611a265790505b5090506000805b8451811015611bf45760005b858281518110611a7257611a726132e2565b60200260200101516020015151811015611aee57858281518110611a9857611a986132e2565b6020026020010151602001518181518110611ab557611ab56132e2565b6020026020010151848480611ac990613399565b955081518110611adb57611adb6132e2565b6020908102919091010152600101611a60565b506000858281518110611b0357611b036132e2565b6020026020010151604001511115611bec576040518060400160405280868381518110611b3257611b326132e2565b60200260200101516000015173eeeeeeeeeeeeeeeeeeeeeeeeeeeeeeeeeeeeeeee604051602001611b8692919073ffffffffffffffffffffffffffffffffffffffff92831681529116602082015260400190565b604051602081830303815290604052805190602001208152602001868381518110611bb357611bb36132e2565b602002602001015160400151815250838380611bce90613399565b945081518110611be057611be06132e2565b60200260200101819052505b600101611a54565b5060006342de141860e01b83604051602401611c109190613906565b604080517fffffffffffffffffffffffffffffffffffffffffffffffffffffffffffffffe08184030181529181526020820180517bffffffffffffffffffffffffffffffffffffffffffffffffffffffff167fffffffff00000000000000000000000000000000000000000000000000000000909416939093178352815190922090925090600090611ca490890189613412565b604051611cb2929190613919565b60405180910390209050818114611cf4576040517e2a700a00000000000000000000000000000000000000000000000000000000815260040160405180910390fd5b5050505050505b5050565b73ffffffffffffffffffffffffffffffffffffffff83166000818152602081815260408083208684528252918290208490558151928352820184905281018290527f42063b8d32ac0a88f94053143bb30a789b3d5dfabb27d6c8a54e23d4fef308519060600160405180910390a1505050565b6040805160a08101825260008082526020820152606091810182905281810182905260808101919091526000808080611dac605e87613958565b90508067ffffffffffffffff811115611dc757611dc7612deb565b604051908082528060200260200182016040528015611e4a57816020015b611e376040518060a00160405280600073ffffffffffffffffffffffffffffffffffffffff1681526020016000815260200160008152602001600067ffffffffffffffff168152602001606081525090565b815260200190600190039081611de55790505b506060860152505b848210156123a257600182019186013560f881901c9060fc1c80611f7957611ec26040518060a00160405280600073ffffffffffffffffffffffffffffffffffffffff1681526020016000815260200160008152602001600067ffffffffffffffff168152602001606081525090565b8885018035606090811c8352601482013560208401526034820135604084015260549091013560c01c90820152605c850194611eff8a8a88612755565b608084019190915295506000611f1f611f1a88848d8f6135aa565b612815565b8951909150611f2e5780611f3f565b885160009081526020829052604090205b8952506060880151829086611f5381613399565b975081518110611f6557611f656132e2565b602002602001018190525050505050611e52565b60018103611fb2578551602085019489013590611f965780611fa7565b865160009081526020829052604090205b875250611e52915050565b6002810361219b57600f8216848101946001600890920291821b7fffffffffffffffffffffffffffffffffffffffffffffffffffffffffffffffff01908a0135610100929092039190911c16600061200a82876133ff565b90506000806120248c8c8a908692610c44939291906135aa565b915091508297508015612078578815612069576040517feb62520400000000000000000000000000000000000000000000000000000000815260040160405180910390fd5b604080830151908b0152600198505b602082015173ffffffffffffffffffffffffffffffffffffffff161561210b5760208a015173ffffffffffffffffffffffffffffffffffffffff16156120ea576040517f9e5c658b00000000000000000000000000000000000000000000000000000000815260040160405180910390fd5b60208083015173ffffffffffffffffffffffffffffffffffffffff16908b01525b60005b82606001515181101561216e5782606001518181518110612131576121316132e2565b60200260200101518b60600151898061214990613399565b9a508151811061215b5761215b6132e2565b602090810291909101015260010161210e565b50895161217c57815161218d565b895182516000918252602052604090205b8a5250611e52945050505050565b600381036122e45784156121db576040517feb62520400000000000000000000000000000000000000000000000000000000815260040160405180910390fd5b60019450600f808316908190036121f95750600284019388013560f01c5b848167ffffffffffffffff81111561221357612213612deb565b60405190808252806020026020018201604052801561223c578160200160208202803683370190505b50604089015260005b828110156122a057868b013560601c601488018a60400151838151811061226e5761226e6132e2565b73ffffffffffffffffffffffffffffffffffffffff909316602093840291909101909201919091529650600101612245565b5060006122b76122b288848d8f6135aa565b61282c565b89519091506122c657806122d7565b885160009081526020829052604090205b895250611e529350505050565b6004810361236d57602086015173ffffffffffffffffffffffffffffffffffffffff161561233e576040517f9e5c658b00000000000000000000000000000000000000000000000000000000815260040160405180910390fd5b8784013560601c6020870181905260149094019360009061235e90612844565b8751909150611f965780611fa7565b6040517f0ad9979000000000000000000000000000000000000000000000000000000000815260048101829052602401611150565b606084015152505b9250929050565b6123f66040805160c08101825260008082526020808301829052828401829052606080840183905260808401819052845180860190955284528301529060a082015290565b8382018035606090811c835260148201357fffffffff0000000000000000000000000000000000000000000000000000000016602084015260188201356040840152603882013590830152605b8301906058013560e81c85828661245a84836133ff565b92612467939291906135aa565b8080601f01602080910402602001604051908101604052809392919081815260200183838082843760009201919091525050505060808401526124aa81836133ff565b91506124b78686846128bd565b60a0850191909152915050935093915050565b828101803590602001357f7fffffffffffffffffffffffffffffffffffffffffffffffffffffffffffffff811690600090604085019060ff81901c61251081601b61396c565b9350505093509350935093565b60006125288261295a565b805190602001209050919050565b6000612548604083016020840161334f565b6125525746612555565b60005b6060830135608084013561257061256b87613a13565b6129b4565b6040805160208101959095528401929092526060830152608082015260a0015b60405160208183030381529060405280519060200120905092915050565b600080600090506000600184516125c59190613aab565b90505b8082136126ac57600060026125dd8484613aab565b6125e79190613acb565b6125f19084613b33565b90506000858281518110612607576126076132e2565b602002602001015190508673ffffffffffffffffffffffffffffffffffffffff168173ffffffffffffffffffffffffffffffffffffffff1603612651576001945050505050610738565b8673ffffffffffffffffffffffffffffffffffffffff168173ffffffffffffffffffffffffffffffffffffffff16101561269757612690826001613b33565b93506126a5565b6126a2600183613aab565b92505b50506125c8565b506000949350505050565b6040517f616363657074496d706c696369745265717565737400000000000000000000006020820152600090603501604051602081830303815290604052805190602001208284606001518560400151604051602001612590949392919093845260609290921b7fffffffffffffffffffffffffffffffffffffffff0000000000000000000000001660208401526034830152605482015260740190565b600181019060609060009085013560f81c8067ffffffffffffffff81111561277f5761277f612deb565b6040519080825280602002602001820160405280156127c557816020015b60408051808201909152600081526060602082015281526020019060019003908161279d5790505b50925060005b81811015612808576127de878787612a60565b8583815181106127f0576127f06132e2565b602090810291909101019190915294506001016127cb565b5083915050935093915050565b600080838360405160200161259093929190613b5b565b60006003838360405160200161259093929190613b5b565b6040517f040000000000000000000000000000000000000000000000000000000000000060208201527fffffffffffffffffffffffffffffffffffffffff000000000000000000000000606083901b1660218201526000906035015b604051602081830303815290604052805190602001209050919050565b6040805180820190915260608152600060208201819052600383019285013560e81c8584866128ec84836133ff565b926128f9939291906135aa565b8080601f01602080910402602001604051908101604052809392919081815260200183838082843760009201919091525050509084525061293f62ffffff8216856133ff565b9586013560c01c602084015250909460089094019392505050565b6060816000015182602001518360400151846060015185608001515186608001516129888860a00151612c69565b60405160200161299e9796959493929190613b9a565b6040516020818303038152906040529050919050565b80516020808301516040808501518051908401206060860151608087015160a088015160c089015194516000986128a0987f0603985259a953da1f65a522f589c17bd1d0117ec1d3abb7c0788aef251ef4379891979196959493920197885273ffffffffffffffffffffffffffffffffffffffff969096166020880152604087019490945260608601929092526080850152151560a0840152151560c083015260e08201526101000190565b60408051808201909152606060208201819052848301803590911c82526015909201916000906014013560f81c8067ffffffffffffffff811115612aa657612aa6612deb565b604051908082528060200260200182016040528015612b1d57816020015b6040805160a0810182526000808252602080830182905292820181905260608201819052608082015282527fffffffffffffffffffffffffffffffffffffffffffffffffffffffffffffffff909201910181612ac45790505b50602084015260005b8181101561280857602084015180516001808801978a013560f81c9290831615159184908110612b5857612b586132e2565b60209081029190910101519015159052607f600182901c166003811115612b8157612b81613477565b85602001518381518110612b9757612b976132e2565b6020026020010151602001906003811115612bb457612bb4613477565b90816003811115612bc757612bc7613477565b905250858801356020870186602001518481518110612be857612be86132e2565b6020908102919091018101516040019290925296508887013590870186602001518481518110612c1a57612c1a6132e2565b6020908102919091018101516060019290925296508887013590870186602001518481518110612c4c57612c4c6132e2565b602090810291909101015160800191909152955050600101612b26565b8051805160208084015160405160609461299e949390929101613c5e565b905290565b604080516080810182526000808252602082018190529181019190915260608101612c876040805160c08101825260008082526020808301829052828401829052606080840183905260808401819052845180860190955284528301529060a082015290565b600080600060408486031215612d0757600080fd5b833567ffffffffffffffff811115612d1e57600080fd5b84016101208187031215612d3157600080fd5b9250602084013567ffffffffffffffff811115612d4d57600080fd5b8401601f81018613612d5e57600080fd5b803567ffffffffffffffff811115612d7557600080fd5b866020828401011115612d8757600080fd5b939660209190910195509293505050565b803573ffffffffffffffffffffffffffffffffffffffff81168114612dbc57600080fd5b919050565b60008060408385031215612dd457600080fd5b612ddd83612d98565b946020939093013593505050565b7f4e487b7100000000000000000000000000000000000000000000000000000000600052604160045260246000fd5b6040805190810167ffffffffffffffff81118282101715612e3d57612e3d612deb565b60405290565b60405160a0810167ffffffffffffffff81118282101715612e3d57612e3d612deb565b60405160e0810167ffffffffffffffff81118282101715612e3d57612e3d612deb565b604051601f82017fffffffffffffffffffffffffffffffffffffffffffffffffffffffffffffffe016810167ffffffffffffffff81118282101715612ed057612ed0612deb565b604052919050565b600067ffffffffffffffff821115612ef257612ef2612deb565b5060051b60200190565b80358015158114612dbc57600080fd5b600060e08284031215612f1e57600080fd5b50919050565b600082601f830112612f3557600080fd5b8135612f48612f4382612ed8565b612e89565b8082825260208201915060208360061b860101925085831115612f6a57600080fd5b602085015b83811015612fad5760408188031215612f8757600080fd5b612f8f612e1a565b81358152602080830135818301529084529290920191604001612f6f565b5095945050505050565b600080600080600060a08688031215612fcf57600080fd5b853567ffffffffffffffff811115612fe657600080fd5b860160408189031215612ff857600080fd5b613000612e1a565b61300982612d98565b8152602082013567ffffffffffffffff81111561302557600080fd5b80830192505088601f83011261303a57600080fd5b8135613048612f4382612ed8565b80828252602082019150602060a0840286010192508b83111561306a57600080fd5b6020850194505b828510156130e85760a0858d03121561308957600080fd5b613091612e43565b61309a86612efc565b81526020860135600481106130ae57600080fd5b60208281019190915260408781013590830152606080880135908301526080808801359083015290835260a0909501949190910190613071565b8060208501525050508096505050602086013567ffffffffffffffff81111561311057600080fd5b61311c88828901612f0c565b94505061312b60408701612d98565b925061313960608701612d98565b9150608086013567ffffffffffffffff81111561315557600080fd5b61316188828901612f24565b9150509295509295909350565b600081518084526020840193506020830160005b828110156131ac578151805187526020908101518188015260409096019590910190600101613182565b5093949350505050565b82151581526040602082015260006131d1604083018461316e565b949350505050565b600080602083850312156131ec57600080fd5b823567ffffffffffffffff81111561320357600080fd5b8301601f8101851361321457600080fd5b803567ffffffffffffffff81111561322b57600080fd5b8560208260061b840101111561324057600080fd5b6020919091019590945092505050565b60006020828403121561326257600080fd5b813560ff8116811461327357600080fd5b9392505050565b60008083357fffffffffffffffffffffffffffffffffffffffffffffffffffffffffffffffe18436030181126132af57600080fd5b83018035915067ffffffffffffffff8211156132ca57600080fd5b6020019150600581901b36038213156123aa57600080fd5b7f4e487b7100000000000000000000000000000000000000000000000000000000600052603260045260246000fd5b600082357fffffffffffffffffffffffffffffffffffffffffffffffffffffffffffffff2183360301811261334557600080fd5b9190910192915050565b60006020828403121561336157600080fd5b61327382612efc565b7f4e487b7100000000000000000000000000000000000000000000000000000000600052601160045260246000fd5b60007fffffffffffffffffffffffffffffffffffffffffffffffffffffffffffffffff82036133ca576133ca61336a565b5060010190565b818103818111156107385761073861336a565b6000602082840312156133f657600080fd5b61327382612d98565b808201808211156107385761073861336a565b60008083357fffffffffffffffffffffffffffffffffffffffffffffffffffffffffffffffe184360301811261344757600080fd5b83018035915067ffffffffffffffff82111561346257600080fd5b6020019150368190038213156123aa57600080fd5b7f4e487b7100000000000000000000000000000000000000000000000000000000600052602160045260246000fd5b73ffffffffffffffffffffffffffffffffffffffff8416815260606020820152600060a0820173ffffffffffffffffffffffffffffffffffffffff855116606084015260208501516040608085015281815180845260c086019150602083019350600092505b80831015613595578351805115158352602081015160048110613558577f4e487b7100000000000000000000000000000000000000000000000000000000600052602160045260246000fd5b806020850152506040810151604084015260608101516060840152608081015160808401525060a08201915060208401935060018301925061350c565b50809350505050826040830152949350505050565b600080858511156135ba57600080fd5b838611156135c757600080fd5b5050820193919092039150565b60005b838110156135ef5781810151838201526020016135d7565b50506000910152565b600081518084526136108160208601602086016135d4565b601f017fffffffffffffffffffffffffffffffffffffffffffffffffffffffffffffffe0169290920160200192915050565b8183528181602085013750600060208284010152600060207fffffffffffffffffffffffffffffffffffffffffffffffffffffffffffffffe0601f840116840101905092915050565b73ffffffffffffffffffffffffffffffffffffffff6136a982612d98565b1682526020818101359083015260006040820135368390037fffffffffffffffffffffffffffffffffffffffffffffffffffffffffffffffe10181126136ee57600080fd5b820160208101903567ffffffffffffffff81111561370b57600080fd5b80360382131561371a57600080fd5b60e0604086015261372f60e086018284613642565b606085810135908701529150613749905060808401612efc565b1515608085015261375c60a08401612efc565b151560a085015260c09283013592909301919091525090565b73ffffffffffffffffffffffffffffffffffffffff841681526060602082015273ffffffffffffffffffffffffffffffffffffffff83511660608201527fffffffff000000000000000000000000000000000000000000000000000000006020840151166080820152604083015160a0820152606083015160c08201526000608084015160c060e084015261380e6101208401826135f8565b905060a08501517fffffffffffffffffffffffffffffffffffffffffffffffffffffffffffffffa08483030161010085015280516040835261385360408401826135f8565b905067ffffffffffffffff6020830151166020840152848103604086015261387b818761368b565b98975050505050505050565b60006020828403121561389957600080fd5b5051919050565b80357fffffffff0000000000000000000000000000000000000000000000000000000081169060048410156138ff577fffffffff00000000000000000000000000000000000000000000000000000000808560040360031b1b82161691505b5092915050565b602081526000613273602083018461316e565b8183823760009101908152919050565b7f4e487b7100000000000000000000000000000000000000000000000000000000600052601260045260246000fd5b60008261396757613967613929565b500490565b60ff81811683821601908111156107385761073861336a565b600082601f83011261399657600080fd5b813567ffffffffffffffff8111156139b0576139b0612deb565b6139e160207fffffffffffffffffffffffffffffffffffffffffffffffffffffffffffffffe0601f84011601612e89565b8181528460208386010111156139f657600080fd5b816020850160208301376000918101602001919091529392505050565b600060e08236031215613a2557600080fd5b613a2d612e66565b613a3683612d98565b815260208381013590820152604083013567ffffffffffffffff811115613a5c57600080fd5b613a6836828601613985565b60408301525060608381013590820152613a8460808401612efc565b6080820152613a9560a08401612efc565b60a082015260c092830135928101929092525090565b81810360008312801583831316838312821617156138ff576138ff61336a565b600082613ada57613ada613929565b7fffffffffffffffffffffffffffffffffffffffffffffffffffffffffffffffff83147f800000000000000000000000000000000000000000000000000000000000000083141615613b2e57613b2e61336a565b500590565b8082018281126000831280158216821582161715613b5357613b5361336a565b505092915050565b7fff000000000000000000000000000000000000000000000000000000000000008460f81b168152818360018301376000910160010190815292915050565b7fffffffffffffffffffffffffffffffffffffffff0000000000000000000000008860601b1681527fffffffff00000000000000000000000000000000000000000000000000000000871660148201528560188201528460388201527fffffff00000000000000000000000000000000000000000000000000000000008460e81b16605882015260008351613c3681605b8501602088016135d4565b835190830190613c4d81605b8401602088016135d4565b01605b019998505050505050505050565b7fffffff00000000000000000000000000000000000000000000000000000000008460e81b16815260008351613c9b8160038501602088016135d4565b80830190507fffffffffffffffff0000000000000000000000000000000000000000000000008460c01b166003820152600b810191505094935050505056fea26469706673582212209a82e28fbead5ab29b0422e62f2df40635281ab23f6c2420bcf8eadad1de4b9964736f6c634300081b0033",
  "linkReferences": {},
  "deployedLinkReferences": {}
}