{
  "_format": "hh-sol-artifact-1",
  "contractName": "SessionManager",
  "sourceName": "src/extensions/sessions/SessionManager.sol",
  "abi": [
    {
      "inputs": [
        {
          "internalType": "address",
          "name": "target",
          "type": "address"
        }
      ],
      "name": "BlacklistedAddress",
      "type": "error"
    },
    {
      "inputs": [],
      "name": "InvalidAttestation",
      "type": "error"
    },
    {
      "inputs": [],
      "name": "InvalidBlacklist",
      "type": "error"
    },
    {
      "inputs": [],
      "name": "InvalidCallSignaturesLength",
      "type": "error"
    },
    {
      "inputs": [],
      "name": "InvalidCallsLength",
      "type": "error"
    },
    {
      "inputs": [],
      "name": "InvalidDelegateCall",
      "type": "error"
    },
    {
      "inputs": [],
      "name": "InvalidIdentitySigner",
      "type": "error"
    },
    {
      "inputs": [],
      "name": "InvalidImplicitResult",
      "type": "error"
    },
    {
      "inputs": [],
      "name": "InvalidLimitUsageIncrement",
      "type": "error"
    },
    {
      "inputs": [
        {
          "internalType": "uint256",
          "name": "flag",
          "type": "uint256"
        }
      ],
      "name": "InvalidNodeType",
      "type": "error"
    },
    {
      "inputs": [],
      "name": "InvalidPayloadKind",
      "type": "error"
    },
    {
      "inputs": [],
      "name": "InvalidPermission",
      "type": "error"
    },
    {
      "inputs": [],
      "name": "InvalidSelfCall",
      "type": "error"
    },
    {
      "inputs": [
        {
          "internalType": "address",
          "name": "invalidSigner",
          "type": "address"
        }
      ],
      "name": "InvalidSessionSigner",
      "type": "error"
    },
    {
      "inputs": [],
      "name": "InvalidValue",
      "type": "error"
    },
    {
      "inputs": [],
      "name": "MissingPermission",
      "type": "error"
    },
    {
      "inputs": [
        {
          "internalType": "uint256",
          "name": "deadline",
          "type": "uint256"
        }
      ],
      "name": "SessionExpired",
      "type": "error"
    },
    {
      "inputs": [],
      "name": "VALUE_TRACKING_ADDRESS",
      "outputs": [
        {
          "internalType": "address",
          "name": "",
          "type": "address"
        }
      ],
      "stateMutability": "view",
      "type": "function"
    },
    {
      "inputs": [
        {
          "components": [
            {
              "internalType": "bytes32",
              "name": "usageHash",
              "type": "bytes32"
            },
            {
              "internalType": "uint256",
              "name": "usageAmount",
              "type": "uint256"
            }
          ],
          "internalType": "struct UsageLimit[]",
          "name": "limits",
          "type": "tuple[]"
        }
      ],
      "name": "incrementUsageLimit",
      "outputs": [],
      "stateMutability": "nonpayable",
      "type": "function"
    },
    {
      "inputs": [
        {
          "components": [
            {
              "internalType": "uint8",
              "name": "kind",
              "type": "uint8"
            },
            {
              "internalType": "bool",
              "name": "noChainId",
              "type": "bool"
            },
            {
              "components": [
                {
                  "internalType": "address",
                  "name": "to",
                  "type": "address"
                },
                {
                  "internalType": "uint256",
                  "name": "value",
                  "type": "uint256"
                },
                {
                  "internalType": "bytes",
                  "name": "data",
                  "type": "bytes"
                },
                {
                  "internalType": "uint256",
                  "name": "gasLimit",
                  "type": "uint256"
                },
                {
                  "internalType": "bool",
                  "name": "delegateCall",
                  "type": "bool"
                },
                {
                  "internalType": "bool",
                  "name": "onlyFallback",
                  "type": "bool"
                },
                {
                  "internalType": "uint256",
                  "name": "behaviorOnError",
                  "type": "uint256"
                }
              ],
              "internalType": "struct Payload.Call[]",
              "name": "calls",
              "type": "tuple[]"
            },
            {
              "internalType": "uint256",
              "name": "space",
              "type": "uint256"
            },
            {
              "internalType": "uint256",
              "name": "nonce",
              "type": "uint256"
            },
            {
              "internalType": "bytes",
              "name": "message",
              "type": "bytes"
            },
            {
              "internalType": "bytes32",
              "name": "imageHash",
              "type": "bytes32"
            },
            {
              "internalType": "bytes32",
              "name": "digest",
              "type": "bytes32"
            },
            {
              "internalType": "address[]",
              "name": "parentWallets",
              "type": "address[]"
            }
          ],
          "internalType": "struct Payload.Decoded",
          "name": "payload",
          "type": "tuple"
        },
        {
          "internalType": "bytes",
          "name": "encodedSignature",
          "type": "bytes"
        }
      ],
      "name": "isValidSapientSignature",
      "outputs": [
        {
          "internalType": "bytes32",
          "name": "",
          "type": "bytes32"
        }
      ],
      "stateMutability": "view",
      "type": "function"
    },
    {
      "inputs": [
        {
          "internalType": "bytes32",
          "name": "",
          "type": "bytes32"
        }
      ],
      "name": "limitUsage",
      "outputs": [
        {
          "internalType": "uint256",
          "name": "",
          "type": "uint256"
        }
      ],
      "stateMutability": "view",
      "type": "function"
    },
    {
      "inputs": [
        {
          "internalType": "bytes4",
          "name": "interfaceId",
          "type": "bytes4"
        }
      ],
      "name": "supportsInterface",
      "outputs": [
        {
          "internalType": "bool",
          "name": "",
          "type": "bool"
        }
      ],
      "stateMutability": "pure",
      "type": "function"
    },
    {
      "inputs": [
        {
          "components": [
            {
              "internalType": "address",
              "name": "target",
              "type": "address"
            },
            {
              "components": [
                {
                  "internalType": "bool",
                  "name": "cumulative",
                  "type": "bool"
                },
                {
                  "internalType": "enum ParameterOperation",
                  "name": "operation",
                  "type": "uint8"
                },
                {
                  "internalType": "bytes32",
                  "name": "value",
                  "type": "bytes32"
                },
                {
                  "internalType": "uint256",
                  "name": "offset",
                  "type": "uint256"
                },
                {
                  "internalType": "bytes32",
                  "name": "mask",
                  "type": "bytes32"
                }
              ],
              "internalType": "struct ParameterRule[]",
              "name": "rules",
              "type": "tuple[]"
            }
          ],
          "internalType": "struct Permission",
          "name": "permission",
          "type": "tuple"
        },
        {
          "components": [
            {
              "internalType": "address",
              "name": "to",
              "type": "address"
            },
            {
              "internalType": "uint256",
              "name": "value",
              "type": "uint256"
            },
            {
              "internalType": "bytes",
              "name": "data",
              "type": "bytes"
            },
            {
              "internalType": "uint256",
              "name": "gasLimit",
              "type": "uint256"
            },
            {
              "internalType": "bool",
              "name": "delegateCall",
              "type": "bool"
            },
            {
              "internalType": "bool",
              "name": "onlyFallback",
              "type": "bool"
            },
            {
              "internalType": "uint256",
              "name": "behaviorOnError",
              "type": "uint256"
            }
          ],
          "internalType": "struct Payload.Call",
          "name": "call",
          "type": "tuple"
        },
        {
          "internalType": "bytes32",
          "name": "limitHashPrefix",
          "type": "bytes32"
        },
        {
          "components": [
            {
              "internalType": "bytes32",
              "name": "usageHash",
              "type": "bytes32"
            },
            {
              "internalType": "uint256",
              "name": "usageAmount",
              "type": "uint256"
            }
          ],
          "internalType": "struct UsageLimit[]",
          "name": "usageLimits",
          "type": "tuple[]"
        }
      ],
      "name": "validatePermission",
      "outputs": [
        {
          "internalType": "bool",
          "name": "",
          "type": "bool"
        },
        {
          "components": [
            {
              "internalType": "bytes32",
              "name": "usageHash",
              "type": "bytes32"
            },
            {
              "internalType": "uint256",
              "name": "usageAmount",
              "type": "uint256"
            }
          ],
          "internalType": "struct UsageLimit[]",
          "name": "newUsageLimits",
          "type": "tuple[]"
        }
      ],
      "stateMutability": "view",
      "type": "function"
    }
  ],
  "bytecode": "0x6080604052348015600f57600080fd5b50613b998061001f6000396000f3fe608060405234801561001057600080fd5b50600436106100725760003560e01c80636e13541b116100505780636e13541b146100d5578063ca70785014610103578063f916f3b21461011657600080fd5b806301ffc9a714610077578063388e3b791461009f57806342de1418146100c0575b600080fd5b61008a610085366004612bbf565b610156565b60405190151581526020015b60405180910390f35b6100b26100ad366004612dfd565b6101b2565b604051610096929190612fe4565b6100d36100ce366004613007565b61058f565b005b6100f56100e336600461307e565b60006020819052908152604090205481565b604051908152602001610096565b6100f5610111366004613097565b610673565b61013173eeeeeeeeeeeeeeeeeeeeeeeeeeeeeeeeeeeeeeee81565b60405173ffffffffffffffffffffffffffffffffffffffff9091168152602001610096565b60007fffffffff0000000000000000000000000000000000000000000000000000000082167fca7078500000000000000000000000000000000000000000000000000000000014806101ac57506101ac82610b6a565b92915050565b600060606101c3602086018661313d565b73ffffffffffffffffffffffffffffffffffffffff16866000015173ffffffffffffffffffffffffffffffffffffffff161461020457506000905081610586565b85602001515183516102169190613187565b67ffffffffffffffff81111561022e5761022e612c08565b60405190808252806020026020018201604052801561027357816020015b604080518082019091526000808252602082015281526020019060019003908161024c5790505b50905060005b83518110156102c1578381815181106102945761029461319a565b60200260200101518282815181106102ae576102ae61319a565b6020908102919091010152600101610279565b50825160005b87602001515181101561057e576000886020015182815181106102ec576102ec61319a565b60200260200101519050600061031682606001518a806040019061031091906131c9565b50013590565b60808301518351911691501561048d576040518190600090610340908b908e90889060200161325d565b604080517fffffffffffffffffffffffffffffffffffffffffffffffffffffffffffffffe0818403018152828252805160209182012083830190925260008084529083018190529092509060005b895181101561045a576000801b8a82815181106103ad576103ad61319a565b6020026020010151600001510361040657604051806040016040528085815260200160008152509150818a82815181106103e9576103e961319a565b60209081029190910101526103ff816001613187565b985061045a565b838a82815181106104195761041961319a565b602002602001015160000151036104525789818151811061043c5761043c61319a565b602002602001015191508160200151925061045a565b60010161038e565b50816000036104755760008381526020819052604090205491505b61047f8285613187565b602090910181905293505050505b6000826020015160038111156104a5576104a561322e565b036104ca57816040015181146104c5576000879550955050505050610586565b610574565b6003826020015160038111156104e2576104e261322e565b036105035760408201518111156104c5576000879550955050505050610586565b60018260200151600381111561051b5761051b61322e565b0361053b57816040015181036104c5576000879550955050505050610586565b6002826020015160038111156105535761055361322e565b03610574576040820151811015610574576000879550955050505050610586565b50506001016102c7565b508152600191505b94509492505050565b60005b8181101561066e576000808484848181106105af576105af61319a565b905060400201600001358152602001908152602001600020548383838181106105da576105da61319a565b90506040020160200135101561061b576040517e2a700a00000000000000000000000000000000000000000000000000000000815260040160405180910390fd5b82828281811061062d5761062d61319a565b9050604002016020013560008085858581811061064c5761064c61319a565b6040908102929092013583525060208201929092520160002055600101610592565b505050565b600080610683602086018661334b565b60ff16146106bd576040517f7205212000000000000000000000000000000000000000000000000000000000815260040160405180910390fd5b6106ca604085018561336e565b9050600003610705576040517f542f0af500000000000000000000000000000000000000000000000000000000815260040160405180910390fd5b6000610712858585610c02565b9050610721604086018661336e565b905081608001515114610760576040517fbd8ba99300000000000000000000000000000000000000000000000000000000815260040160405180910390fd5b336000610770604088018861336e565b905067ffffffffffffffff81111561078a5761078a612c08565b6040519080825280602002602001820160405280156107f557816020015b6107e26040518060600160405280600073ffffffffffffffffffffffffffffffffffffffff16815260200160608152602001600081525090565b8152602001906001900390816107a85790505b50905060005b610808604089018961336e565b9050811015610a9c573661081f60408a018a61336e565b8381811061082f5761082f61319a565b905060200281019061084191906133d6565b905061085360a0820160808301613414565b1561088a576040517faa25f2ad00000000000000000000000000000000000000000000000000000000815260040160405180910390fd5b6000856080015183815181106108a2576108a261319a565b602002602001015190508060000151156108d4576108cf8286836020015184606001518a60400151611169565b610a92565b61090e6040518060600160405280600073ffffffffffffffffffffffffffffffffffffffff16815260200160608152602001600081525090565b60005b8551811015610a5457600073ffffffffffffffffffffffffffffffffffffffff168682815181106109445761094461319a565b60200260200101516000015173ffffffffffffffffffffffffffffffffffffffff16036109d75760208381015173ffffffffffffffffffffffffffffffffffffffff168352604080516000808252928101909152906109c5565b604080518082019091526000808252602082015281526020019060019003908161099e5790505b50602083015260006040830152610a54565b826020015173ffffffffffffffffffffffffffffffffffffffff16868281518110610a0457610a0461319a565b60200260200101516000015173ffffffffffffffffffffffffffffffffffffffff1603610a4c57858181518110610a3d57610a3d61319a565b60200260200101519150610a54565b600101610911565b610a6f8c868986602001518c60600151886040015188611418565b915081868281518110610a8457610a8461319a565b602002602001018190525050505b50506001016107fb565b5060005b8151811015610b0357600073ffffffffffffffffffffffffffffffffffffffff16828281518110610ad357610ad361319a565b60200260200101516000015173ffffffffffffffffffffffffffffffffffffffff160315610b0357600101610aa0565b80825236610b1460408a018a61336e565b6001610b2360408d018d61336e565b610b2e92915061342f565b818110610b3d57610b3d61319a565b9050602002810190610b4f91906133d6565b9050610b5c8184866118a5565b505091519695505050505050565b60007fffffffff0000000000000000000000000000000000000000000000000000000082167fca7078500000000000000000000000000000000000000000000000000000000014806101ac57507fffffffff0000000000000000000000000000000000000000000000000000000082167f42de1418000000000000000000000000000000000000000000000000000000001492915050565b6040805160a0810182526000808252602082018190526060928201839052828201839052608082019290925290600390843560e81c610c59868487610c478583613187565b92610c5493929190613442565b611ce8565b9094509150610c688184613187565b602085015190935073ffffffffffffffffffffffffffffffffffffffff16610cbc576040517f9e5c658b00000000000000000000000000000000000000000000000000000000815260040160405180910390fd5b50600182019160609086013560f81c8067ffffffffffffffff811115610ce457610ce4612c08565b604051908082528060200260200182016040528015610d5857816020015b610d456040805160c0810182526000808252602080830182905282840182905260608084019290925260808301829052835190810190935282529060a082015290565b815260200190600190039081610d025790505b50915060005b8160ff16811015610ed757610dac6040805160c0810182526000808252602080830182905282840182905260608084019290925260808301829052835190810190935282529060a082015290565b610db78989886122f9565b9650905060008080610dca8c8c8b612410565b9b50919450925090506000610dde85612463565b6040805160008082526020820180845284905260ff86169282019290925260608101879052608081018690529192509060019060a0016020604051602081039080840390855afa158015610e36573d6000803e3d6000fd5b5050506020604051035190508b6020015173ffffffffffffffffffffffffffffffffffffffff168173ffffffffffffffffffffffffffffffffffffffff1614610eab576040517f9e5c658b00000000000000000000000000000000000000000000000000000000815260040160405180910390fd5b505050505080848381518110610ec357610ec361319a565b602090810291909101015250600101610d5e565b5060008160ff16118015610ee9575082155b15610f20576040517feb62520400000000000000000000000000000000000000000000000000000000815260040160405180910390fd5b506000610f30604089018961336e565b905090508067ffffffffffffffff811115610f4d57610f4d612c08565b604051908082528060200260200182016040528015610f8657816020015b610f73612b5b565b815260200190600190039081610f6b5790505b50608086015260005b8181101561115d57610f9f612b5b565b8589013560f81c608081161580158352600190970196611023578451607f8216908110610ff8576040517fbd8ba84d00000000000000000000000000000000000000000000000000000000815260040160405180910390fd5b858160ff168151811061100d5761100d61319a565b602002602001015183606001819052505061102d565b60ff811660408301525b6000808061103c8d8d8c612410565b809d508194508295508396505050505060006110918f8060400190611061919061336e565b898181106110715761107161319a565b905060200281019061108391906133d6565b61108c906134fa565b61247c565b60408051600081526020810180835283905260ff851691810191909152606081018690526080810185905290915060019060a0016020604051602081039080840390855afa1580156110e7573d6000803e3d6000fd5b50506040517fffffffffffffffffffffffffffffffffffffffffffffffffffffffffffffffe0015173ffffffffffffffffffffffffffffffffffffffff1660208801525050505060808901518051849250859081106111485761114861319a565b60209081029190910101525050600101610f8f565b50505050509392505050565b815173ffffffffffffffffffffffffffffffffffffffff8481169116146111d9576040517fc1e84ed600000000000000000000000000000000000000000000000000000000815273ffffffffffffffffffffffffffffffffffffffff841660048201526024015b60405180910390fd5b6111e960a0860160808701613414565b15611220576040517faa25f2ad00000000000000000000000000000000000000000000000000000000815260040160405180910390fd5b61122a8382612548565b15611279576040517fd33f19e700000000000000000000000000000000000000000000000000000000815273ffffffffffffffffffffffffffffffffffffffff841660048201526024016111d0565b61128f611289602087018761313d565b82612548565b156112ec576112a1602086018661313d565b6040517fd33f19e700000000000000000000000000000000000000000000000000000000815273ffffffffffffffffffffffffffffffffffffffff90911660048201526024016111d0565b602085013515611328576040517faa7feadc00000000000000000000000000000000000000000000000000000000815260040160405180910390fd5b60006113348386612651565b60a08401515180516020918201209192506000906113549089018961313d565b73ffffffffffffffffffffffffffffffffffffffff166330f014398887858c6040518563ffffffff1660e01b81526004016113929493929190613733565b602060405180830381865afa1580156113af573d6000803e3d6000fd5b505050506040513d601f19601f820116820180604052508101906113d3919061382f565b905082811461140e576040517f0881ad5d00000000000000000000000000000000000000000000000000000000815260040160405180910390fd5b5050505050505050565b6114526040518060600160405280600073ffffffffffffffffffffffffffffffffffffffff16815260200160608152602001600081525090565b6114936040518060800160405280600073ffffffffffffffffffffffffffffffffffffffff1681526020016000815260200160008152602001606081525090565b60005b8551811015611518578673ffffffffffffffffffffffffffffffffffffffff168682815181106114c8576114c861319a565b60200260200101516000015173ffffffffffffffffffffffffffffffffffffffff1603611510578581815181106115015761150161319a565b60200260200101519150611518565b600101611496565b50805173ffffffffffffffffffffffffffffffffffffffff1661156a576040517fc1e84ed6000000000000000000000000000000000000000000000000000000008152600060048201526024016111d0565b6040810151158015906115805750806040015142115b156115bf5780604001516040517fb1bbfdd50000000000000000000000000000000000000000000000000000000081526004016111d091815260200190565b366115cd60408b018b61336e565b8a8181106115dd576115dd61319a565b90506020028101906115ef91906133d6565b905061160160a0820160808301613414565b15611638576040517faa25f2ad00000000000000000000000000000000000000000000000000000000815260040160405180910390fd5b30611646602083018361313d565b73ffffffffffffffffffffffffffffffffffffffff160361172157600061167060408301836131c9565b61167f91600491600091613442565b61168891613848565b90506000826020013511806116df57507fffffffff0000000000000000000000000000000000000000000000000000000081167f42de14180000000000000000000000000000000000000000000000000000000014155b15611716576040517f540733ea00000000000000000000000000000000000000000000000000000000815260040160405180910390fd5b84935050505061189a565b8160600151518560ff1610611762576040517f3f904dc000000000000000000000000000000000000000000000000000000000815260040160405180910390fd5b600082606001518660ff168151811061177d5761177d61319a565b60200260200101519050600089896040516020016117be92919073ffffffffffffffffffffffffffffffffffffffff92831681529116602082015260400190565b6040516020818303038152906040528051906020012090506000806117e98486858b602001516101b2565b9150915081611824576040517f868a64de00000000000000000000000000000000000000000000000000000000815260040160405180910390fd5b60208089018290528501351561184e5784602001358860400181815161184a9190613187565b9052505b856020015188604001511115611890576040517faa7feadc00000000000000000000000000000000000000000000000000000000815260040160405180910390fd5b8796505050505050505b979650505050505050565b81511561066e57306118ba602085018561313d565b73ffffffffffffffffffffffffffffffffffffffff161415806118e2575060c0830135600114155b15611918576040517e2a700a00000000000000000000000000000000000000000000000000000000815260040160405180910390fd5b6000805b835181101561198d578381815181106119375761193761319a565b602002602001015160200151518261194f9190613187565b915060008482815181106119655761196561319a565b60200260200101516040015111156119855781611981816138ae565b9250505b60010161191c565b5060008167ffffffffffffffff8111156119a9576119a9612c08565b6040519080825280602002602001820160405280156119ee57816020015b60408051808201909152600080825260208201528152602001906001900390816119c75790505b5090506000805b8551811015611bdd5760005b868281518110611a1357611a1361319a565b60200260200101516020015151811015611a8f57868281518110611a3957611a3961319a565b6020026020010151602001518181518110611a5657611a5661319a565b6020026020010151848480611a6a906138ae565b955081518110611a7c57611a7c61319a565b6020908102919091010152600101611a01565b506000868281518110611aa457611aa461319a565b6020026020010151604001511115611bd557600085878381518110611acb57611acb61319a565b602002602001015160000151604051602001611b0a92919073ffffffffffffffffffffffffffffffffffffffff92831681529116602082015260400190565b604080518083037fffffffffffffffffffffffffffffffffffffffffffffffffffffffffffffffe001815282825280516020909101208282019091526060820181905273eeeeeeeeeeeeeeeeeeeeeeeeeeeeeeeeeeeeeeee608083015291508060a08101604051602081830303815290604052805190602001208152602001888481518110611b9b57611b9b61319a565b602002602001015160400151815250848480611bb6906138ae565b955081518110611bc857611bc861319a565b6020026020010181905250505b6001016119f5565b5060006342de141860e01b83604051602401611bf991906138e6565b604080517fffffffffffffffffffffffffffffffffffffffffffffffffffffffffffffffe08184030181529181526020820180517bffffffffffffffffffffffffffffffffffffffffffffffffffffffff167fffffffff00000000000000000000000000000000000000000000000000000000909416939093178352815190922090925090600090611c8d908a018a6131c9565b604051611c9b9291906138f9565b60405180910390209050818114611cdd576040517e2a700a00000000000000000000000000000000000000000000000000000000815260040160405180910390fd5b505050505050505050565b6040805160a08101825260008082526020820152606091810182905281810182905260808101919091526000808080611d22603287613938565b90508067ffffffffffffffff811115611d3d57611d3d612c08565b604051908082528060200260200182016040528015611daf57816020015b611d9c6040518060800160405280600073ffffffffffffffffffffffffffffffffffffffff1681526020016000815260200160008152602001606081525090565b815260200190600190039081611d5b5790505b506060860152505b848210156122e657600182019186013560f881901c9060fc1c80611ebd57611e166040518060800160405280600073ffffffffffffffffffffffffffffffffffffffff1681526020016000815260200160008152602001606081525090565b888501803560601c8252601481013560208301526034013560408201526054850194611e438a8a8861270d565b606084019190915295506000611e63611e5e88848d8f613442565b6127cd565b8951909150611e725780611e83565b885160009081526020829052604090205b8952506060880151829086611e97816138ae565b975081518110611ea957611ea961319a565b602002602001018190525050505050611db7565b60018103611ef6578551602085019489013590611eda5780611eeb565b865160009081526020829052604090205b875250611db7915050565b600281036120df57600f8216848101946001600890920291821b7fffffffffffffffffffffffffffffffffffffffffffffffffffffffffffffffff01908a0135610100929092039190911c166000611f4e8287613187565b9050600080611f688c8c8a908692610c5493929190613442565b915091508297508015611fbc578815611fad576040517feb62520400000000000000000000000000000000000000000000000000000000815260040160405180910390fd5b604080830151908b0152600198505b602082015173ffffffffffffffffffffffffffffffffffffffff161561204f5760208a015173ffffffffffffffffffffffffffffffffffffffff161561202e576040517f9e5c658b00000000000000000000000000000000000000000000000000000000815260040160405180910390fd5b60208083015173ffffffffffffffffffffffffffffffffffffffff16908b01525b60005b8260600151518110156120b257826060015181815181106120755761207561319a565b60200260200101518b60600151898061208d906138ae565b9a508151811061209f5761209f61319a565b6020908102919091010152600101612052565b5089516120c05781516120d1565b895182516000918252602052604090205b8a5250611db7945050505050565b6003810361222857841561211f576040517feb62520400000000000000000000000000000000000000000000000000000000815260040160405180910390fd5b60019450600f8083169081900361213d5750600184019388013560f81c5b848167ffffffffffffffff81111561215757612157612c08565b604051908082528060200260200182016040528015612180578160200160208202803683370190505b50604089015260005b828110156121e457868b013560601c601488018a6040015183815181106121b2576121b261319a565b73ffffffffffffffffffffffffffffffffffffffff909316602093840291909101909201919091529650600101612189565b5060006121fb6121f688848d8f613442565b6127e4565b895190915061220a578061221b565b885160009081526020829052604090205b895250611db79350505050565b600481036122b157602086015173ffffffffffffffffffffffffffffffffffffffff1615612282576040517f9e5c658b00000000000000000000000000000000000000000000000000000000815260040160405180910390fd5b8784013560601c602087018190526014909401936000906122a2906127fc565b8751909150611eda5780611eeb565b6040517f0ad99790000000000000000000000000000000000000000000000000000000008152600481018290526024016111d0565b60608401805191825252505b9250929050565b61233c6040805160c0810182526000808252602080830182905282840182905260608084019290925260808301829052835190810190935282529060a082015290565b8382018035606090811c83527fffffffff00000000000000000000000000000000000000000000000000000000601483013516602084015260188201356040840152603882013590830152605b8301906058013560e81c8582866123a08483613187565b926123ad93929190613442565b8080601f01602080910402602001604051908101604052809392919081815260200183838082843760009201919091525050505060808401526123f08183613187565b91506123fd86868461285c565b60a0850191909152915050935093915050565b828101803590602001357f7fffffffffffffffffffffffffffffffffffffffffffffffffffffffffffffff811690600090604085019060ff81901c61245681601b61394c565b9350505093509350935093565b600061246e826128dc565b805190602001209050919050565b60007f0603985259a953da1f65a522f589c17bd1d0117ec1d3abb7c0788aef251ef43782600001518360200151846040015180519060200120856060015186608001518760a001518860c0015160405160200161252b98979695949392919097885273ffffffffffffffffffffffffffffffffffffffff969096166020880152604087019490945260608601929092526080850152151560a0840152151560c083015260e08201526101000190565b604051602081830303815290604052805190602001209050919050565b6000806000905060006001845161255f9190613965565b90505b80821361264657600060026125778484613965565b6125819190613985565b61258b90846139ed565b905060008582815181106125a1576125a161319a565b602002602001015190508673ffffffffffffffffffffffffffffffffffffffff168173ffffffffffffffffffffffffffffffffffffffff16036125eb5760019450505050506101ac565b8673ffffffffffffffffffffffffffffffffffffffff168173ffffffffffffffffffffffffffffffffffffffff1610156126315761262a8260016139ed565b935061263f565b61263c600183613965565b92505b5050612562565b506000949350505050565b6040517f616363657074496d706c6963697452657175657374000000000000000000000060208201526000906035016040516020818303038152906040528051906020012082846060015185604001516040516020016126ef949392919093845260609290921b7fffffffffffffffffffffffffffffffffffffffff0000000000000000000000001660208401526034830152605482015260740190565b60405160208183030381529060405280519060200120905092915050565b600181019060609060009085013560f81c8067ffffffffffffffff81111561273757612737612c08565b60405190808252806020026020018201604052801561277d57816020015b6040805180820190915260008152606060208201528152602001906001900390816127555790505b50925060005b818110156127c057612796878787612936565b8583815181106127a8576127a861319a565b60209081029190910101919091529450600101612783565b5083915050935093915050565b60008083836040516020016126ef93929190613a15565b6000600383836040516020016126ef93929190613a15565b6040517f040000000000000000000000000000000000000000000000000000000000000060208201527fffffffffffffffffffffffffffffffffffffffff000000000000000000000000606083901b16602182015260009060350161252b565b604080516020810190915260608152600382018483013560e81c8582866128838483613187565b9261289093929190613442565b8080601f0160208091040260200160405190810160405280939291908181526020018383808284376000920191909152505050908452506128d18183613187565b915050935093915050565b60608160000151826020015183604001518460600151856080015151866080015161290a8860a00151612b3f565b6040516020016129209796959493929190613a54565b6040516020818303038152906040529050919050565b60408051808201909152606060208201819052848301803590911c82526015909201916000906014013560f81c8067ffffffffffffffff81111561297c5761297c612c08565b6040519080825280602002602001820160405280156129f357816020015b6040805160a0810182526000808252602080830182905292820181905260608201819052608082015282527fffffffffffffffffffffffffffffffffffffffffffffffffffffffffffffffff90920191018161299a5790505b50602084015260005b818110156127c057602084015180516001808801978a013560f81c9290831615159184908110612a2e57612a2e61319a565b60209081029190910101519015159052607f600182901c166003811115612a5757612a5761322e565b85602001518381518110612a6d57612a6d61319a565b6020026020010151602001906003811115612a8a57612a8a61322e565b90816003811115612a9d57612a9d61322e565b905250858801356020870186602001518481518110612abe57612abe61319a565b6020908102919091018101516040019290925296508887013590870186602001518481518110612af057612af061319a565b6020908102919091018101516060019290925296508887013590870186602001518481518110612b2257612b2261319a565b6020908102919091010151608001919091529550506001016129fc565b805180516040516060926129209291602001613b18565b905290565b604080516080810182526000808252602082018190529181019190915260608101612b566040805160c0810182526000808252602080830182905282840182905260608084019290925260808301829052835190810190935282529060a082015290565b600060208284031215612bd157600080fd5b81357fffffffff0000000000000000000000000000000000000000000000000000000081168114612c0157600080fd5b9392505050565b7f4e487b7100000000000000000000000000000000000000000000000000000000600052604160045260246000fd5b6040805190810167ffffffffffffffff81118282101715612c5a57612c5a612c08565b60405290565b60405160a0810167ffffffffffffffff81118282101715612c5a57612c5a612c08565b60405160e0810167ffffffffffffffff81118282101715612c5a57612c5a612c08565b604051601f82017fffffffffffffffffffffffffffffffffffffffffffffffffffffffffffffffe016810167ffffffffffffffff81118282101715612ced57612ced612c08565b604052919050565b803573ffffffffffffffffffffffffffffffffffffffff81168114612d1957600080fd5b919050565b600067ffffffffffffffff821115612d3857612d38612c08565b5060051b60200190565b80358015158114612d1957600080fd5b600060e08284031215612d6457600080fd5b50919050565b600082601f830112612d7b57600080fd5b8135612d8e612d8982612d1e565b612ca6565b8082825260208201915060208360061b860101925085831115612db057600080fd5b602085015b83811015612df35760408188031215612dcd57600080fd5b612dd5612c37565b81358152602080830135818301529084529290920191604001612db5565b5095945050505050565b60008060008060808587031215612e1357600080fd5b843567ffffffffffffffff811115612e2a57600080fd5b850160408188031215612e3c57600080fd5b612e44612c37565b612e4d82612cf5565b8152602082013567ffffffffffffffff811115612e6957600080fd5b80830192505087601f830112612e7e57600080fd5b8135612e8c612d8982612d1e565b80828252602082019150602060a0840286010192508a831115612eae57600080fd5b6020850194505b82851015612f2c5760a0858c031215612ecd57600080fd5b612ed5612c60565b612ede86612d42565b8152602086013560048110612ef257600080fd5b60208281019190915260408781013590830152606080880135908301526080808801359083015290835260a0909501949190910190612eb5565b8060208501525050508095505050602085013567ffffffffffffffff811115612f5457600080fd5b612f6087828801612d52565b93505060408501359150606085013567ffffffffffffffff811115612f8457600080fd5b612f9087828801612d6a565b91505092959194509250565b600081518084526020840193506020830160005b82811015612fda578151805187526020908101518188015260409096019590910190600101612fb0565b5093949350505050565b8215158152604060208201526000612fff6040830184612f9c565b949350505050565b6000806020838503121561301a57600080fd5b823567ffffffffffffffff81111561303157600080fd5b8301601f8101851361304257600080fd5b803567ffffffffffffffff81111561305957600080fd5b8560208260061b840101111561306e57600080fd5b6020919091019590945092505050565b60006020828403121561309057600080fd5b5035919050565b6000806000604084860312156130ac57600080fd5b833567ffffffffffffffff8111156130c357600080fd5b840161012081870312156130d657600080fd5b9250602084013567ffffffffffffffff8111156130f257600080fd5b8401601f8101861361310357600080fd5b803567ffffffffffffffff81111561311a57600080fd5b86602082840101111561312c57600080fd5b939660209190910195509293505050565b60006020828403121561314f57600080fd5b612c0182612cf5565b7f4e487b7100000000000000000000000000000000000000000000000000000000600052601160045260246000fd5b808201808211156101ac576101ac613158565b7f4e487b7100000000000000000000000000000000000000000000000000000000600052603260045260246000fd5b60008083357fffffffffffffffffffffffffffffffffffffffffffffffffffffffffffffffe18436030181126131fe57600080fd5b83018035915067ffffffffffffffff82111561321957600080fd5b6020019150368190038213156122f257600080fd5b7f4e487b7100000000000000000000000000000000000000000000000000000000600052602160045260246000fd5b83815260606020820152600060a0820173ffffffffffffffffffffffffffffffffffffffff855116606084015260208501516040608085015281815180845260c086019150602083019350600092505b808310156133365783518051151583526020810151600481106132f9577f4e487b7100000000000000000000000000000000000000000000000000000000600052602160045260246000fd5b806020850152506040810151604084015260608101516060840152608081015160808401525060a0820191506020840193506001830192506132ad565b50809350505050826040830152949350505050565b60006020828403121561335d57600080fd5b813560ff81168114612c0157600080fd5b60008083357fffffffffffffffffffffffffffffffffffffffffffffffffffffffffffffffe18436030181126133a357600080fd5b83018035915067ffffffffffffffff8211156133be57600080fd5b6020019150600581901b36038213156122f257600080fd5b600082357fffffffffffffffffffffffffffffffffffffffffffffffffffffffffffffff2183360301811261340a57600080fd5b9190910192915050565b60006020828403121561342657600080fd5b612c0182612d42565b818103818111156101ac576101ac613158565b6000808585111561345257600080fd5b8386111561345f57600080fd5b5050820193919092039150565b600082601f83011261347d57600080fd5b813567ffffffffffffffff81111561349757613497612c08565b6134c860207fffffffffffffffffffffffffffffffffffffffffffffffffffffffffffffffe0601f84011601612ca6565b8181528460208386010111156134dd57600080fd5b816020850160208301376000918101602001919091529392505050565b600060e0823603121561350c57600080fd5b613514612c83565b61351d83612cf5565b815260208381013590820152604083013567ffffffffffffffff81111561354357600080fd5b61354f3682860161346c565b6040830152506060838101359082015261356b60808401612d42565b608082015261357c60a08401612d42565b60a082015260c092830135928101929092525090565b60005b838110156135ad578181015183820152602001613595565b50506000910152565b600081518084526135ce816020860160208601613592565b601f017fffffffffffffffffffffffffffffffffffffffffffffffffffffffffffffffe0169290920160200192915050565b8183528181602085013750600060208284010152600060207fffffffffffffffffffffffffffffffffffffffffffffffffffffffffffffffe0601f840116840101905092915050565b73ffffffffffffffffffffffffffffffffffffffff61366782612cf5565b1682526020818101359083015260006040820135368390037fffffffffffffffffffffffffffffffffffffffffffffffffffffffffffffffe10181126136ac57600080fd5b820160208101903567ffffffffffffffff8111156136c957600080fd5b8036038213156136d857600080fd5b60e060408601526136ed60e086018284613600565b606085810135908701529150613707905060808401612d42565b1515608085015261371a60a08401612d42565b151560a085015260c09283013592909301919091525090565b73ffffffffffffffffffffffffffffffffffffffff851681526080602082015273ffffffffffffffffffffffffffffffffffffffff84511660808201527fffffffff0000000000000000000000000000000000000000000000000000000060208501511660a0820152604084015160c0820152606084015160e08201526000608085015160c06101008401526137cd6101408401826135b6565b905060a08601517fffffffffffffffffffffffffffffffffffffffffffffffffffffffffffffff8084830301610120850152805190506020825261381460208301826135b6565b915050846040840152828103606084015261189a8185613649565b60006020828403121561384157600080fd5b5051919050565b80357fffffffff0000000000000000000000000000000000000000000000000000000081169060048410156138a7577fffffffff00000000000000000000000000000000000000000000000000000000808560040360031b1b82161691505b5092915050565b60007fffffffffffffffffffffffffffffffffffffffffffffffffffffffffffffffff82036138df576138df613158565b5060010190565b602081526000612c016020830184612f9c565b8183823760009101908152919050565b7f4e487b7100000000000000000000000000000000000000000000000000000000600052601260045260246000fd5b60008261394757613947613909565b500490565b60ff81811683821601908111156101ac576101ac613158565b81810360008312801583831316838312821617156138a7576138a7613158565b60008261399457613994613909565b7fffffffffffffffffffffffffffffffffffffffffffffffffffffffffffffffff83147f8000000000000000000000000000000000000000000000000000000000000000831416156139e8576139e8613158565b500590565b8082018281126000831280158216821582161715613a0d57613a0d613158565b505092915050565b7fff000000000000000000000000000000000000000000000000000000000000008460f81b168152818360018301376000910160010190815292915050565b7fffffffffffffffffffffffffffffffffffffffff0000000000000000000000008860601b1681527fffffffff00000000000000000000000000000000000000000000000000000000871660148201528560188201528460388201527fffffff00000000000000000000000000000000000000000000000000000000008460e81b16605882015260008351613af081605b850160208801613592565b835190830190613b0781605b840160208801613592565b01605b019998505050505050505050565b7fffffff00000000000000000000000000000000000000000000000000000000008360e81b16815260008251613b55816003850160208701613592565b91909101600301939250505056fea2646970667358221220ac0ab94886972ed70c692df4db060c8f91494199940d0da499e54c4cac564e6a64736f6c634300081b0033",
  "linkReferences": {},
  "deployedLinkReferences": {}
}