{
  "_format": "hh-sol-artifact-1",
  "contractName": "SessionManager",
  "sourceName": "src/extensions/sessions/SessionManager.sol",
  "abi": [
    {
      "inputs": [
        {
          "internalType": "address",
          "name": "target",
          "type": "address"
        }
      ],
      "name": "BlacklistedAddress",
      "type": "error"
    },
    {
      "inputs": [],
      "name": "InvalidAttestation",
      "type": "error"
    },
    {
      "inputs": [],
      "name": "InvalidBlacklist",
      "type": "error"
    },
    {
      "inputs": [],
      "name": "InvalidCallSignaturesLength",
      "type": "error"
    },
    {
      "inputs": [],
      "name": "InvalidCallsLength",
      "type": "error"
    },
    {
      "inputs": [],
      "name": "InvalidDelegateCall",
      "type": "error"
    },
    {
      "inputs": [],
      "name": "InvalidIdentitySigner",
      "type": "error"
    },
    {
      "inputs": [],
      "name": "InvalidImplicitResult",
      "type": "error"
    },
    {
      "inputs": [],
      "name": "InvalidLimitUsageIncrement",
      "type": "error"
    },
    {
      "inputs": [
        {
          "internalType": "uint256",
          "name": "flag",
          "type": "uint256"
        }
      ],
      "name": "InvalidNodeType",
      "type": "error"
    },
    {
      "inputs": [],
      "name": "InvalidPayloadKind",
      "type": "error"
    },
    {
      "inputs": [],
      "name": "InvalidPermission",
      "type": "error"
    },
    {
      "inputs": [],
      "name": "InvalidSelfCall",
      "type": "error"
    },
    {
      "inputs": [
        {
          "internalType": "address",
          "name": "invalidSigner",
          "type": "address"
        }
      ],
      "name": "InvalidSessionSigner",
      "type": "error"
    },
    {
      "inputs": [],
      "name": "InvalidValue",
      "type": "error"
    },
    {
      "inputs": [],
      "name": "MissingPermission",
      "type": "error"
    },
    {
      "inputs": [
        {
          "internalType": "uint256",
          "name": "deadline",
          "type": "uint256"
        }
      ],
      "name": "SessionExpired",
      "type": "error"
    },
    {
      "inputs": [],
      "name": "VALUE_TRACKING_ADDRESS",
      "outputs": [
        {
          "internalType": "address",
          "name": "",
          "type": "address"
        }
      ],
      "stateMutability": "view",
      "type": "function"
    },
    {
      "inputs": [
        {
          "components": [
            {
              "internalType": "bytes32",
              "name": "usageHash",
              "type": "bytes32"
            },
            {
              "internalType": "uint256",
              "name": "usageAmount",
              "type": "uint256"
            }
          ],
          "internalType": "struct UsageLimit[]",
          "name": "limits",
          "type": "tuple[]"
        }
      ],
      "name": "incrementUsageLimit",
      "outputs": [],
      "stateMutability": "nonpayable",
      "type": "function"
    },
    {
      "inputs": [
        {
          "components": [
            {
              "internalType": "uint8",
              "name": "kind",
              "type": "uint8"
            },
            {
              "internalType": "bool",
              "name": "noChainId",
              "type": "bool"
            },
            {
              "components": [
                {
                  "internalType": "address",
                  "name": "to",
                  "type": "address"
                },
                {
                  "internalType": "uint256",
                  "name": "value",
                  "type": "uint256"
                },
                {
                  "internalType": "bytes",
                  "name": "data",
                  "type": "bytes"
                },
                {
                  "internalType": "uint256",
                  "name": "gasLimit",
                  "type": "uint256"
                },
                {
                  "internalType": "bool",
                  "name": "delegateCall",
                  "type": "bool"
                },
                {
                  "internalType": "bool",
                  "name": "onlyFallback",
                  "type": "bool"
                },
                {
                  "internalType": "uint256",
                  "name": "behaviorOnError",
                  "type": "uint256"
                }
              ],
              "internalType": "struct Payload.Call[]",
              "name": "calls",
              "type": "tuple[]"
            },
            {
              "internalType": "uint256",
              "name": "space",
              "type": "uint256"
            },
            {
              "internalType": "uint256",
              "name": "nonce",
              "type": "uint256"
            },
            {
              "internalType": "bytes",
              "name": "message",
              "type": "bytes"
            },
            {
              "internalType": "bytes32",
              "name": "imageHash",
              "type": "bytes32"
            },
            {
              "internalType": "bytes32",
              "name": "digest",
              "type": "bytes32"
            },
            {
              "internalType": "address[]",
              "name": "parentWallets",
              "type": "address[]"
            }
          ],
          "internalType": "struct Payload.Decoded",
          "name": "payload",
          "type": "tuple"
        },
        {
          "internalType": "bytes",
          "name": "encodedSignature",
          "type": "bytes"
        }
      ],
      "name": "isValidSapientSignature",
      "outputs": [
        {
          "internalType": "bytes32",
          "name": "",
          "type": "bytes32"
        }
      ],
      "stateMutability": "view",
      "type": "function"
    },
    {
      "inputs": [
        {
          "internalType": "bytes32",
          "name": "",
          "type": "bytes32"
        }
      ],
      "name": "limitUsage",
      "outputs": [
        {
          "internalType": "uint256",
          "name": "",
          "type": "uint256"
        }
      ],
      "stateMutability": "view",
      "type": "function"
    },
    {
      "inputs": [
        {
          "internalType": "bytes4",
          "name": "interfaceId",
          "type": "bytes4"
        }
      ],
      "name": "supportsInterface",
      "outputs": [
        {
          "internalType": "bool",
          "name": "",
          "type": "bool"
        }
      ],
      "stateMutability": "pure",
      "type": "function"
    },
    {
      "inputs": [
        {
          "components": [
            {
              "internalType": "address",
              "name": "target",
              "type": "address"
            },
            {
              "components": [
                {
                  "internalType": "bool",
                  "name": "cumulative",
                  "type": "bool"
                },
                {
                  "internalType": "enum ParameterOperation",
                  "name": "operation",
                  "type": "uint8"
                },
                {
                  "internalType": "bytes32",
                  "name": "value",
                  "type": "bytes32"
                },
                {
                  "internalType": "uint256",
                  "name": "offset",
                  "type": "uint256"
                },
                {
                  "internalType": "bytes32",
                  "name": "mask",
                  "type": "bytes32"
                }
              ],
              "internalType": "struct ParameterRule[]",
              "name": "rules",
              "type": "tuple[]"
            }
          ],
          "internalType": "struct Permission",
          "name": "permission",
          "type": "tuple"
        },
        {
          "components": [
            {
              "internalType": "address",
              "name": "to",
              "type": "address"
            },
            {
              "internalType": "uint256",
              "name": "value",
              "type": "uint256"
            },
            {
              "internalType": "bytes",
              "name": "data",
              "type": "bytes"
            },
            {
              "internalType": "uint256",
              "name": "gasLimit",
              "type": "uint256"
            },
            {
              "internalType": "bool",
              "name": "delegateCall",
              "type": "bool"
            },
            {
              "internalType": "bool",
              "name": "onlyFallback",
              "type": "bool"
            },
            {
              "internalType": "uint256",
              "name": "behaviorOnError",
              "type": "uint256"
            }
          ],
          "internalType": "struct Payload.Call",
          "name": "call",
          "type": "tuple"
        },
        {
          "internalType": "bytes32",
          "name": "limitHashPrefix",
          "type": "bytes32"
        },
        {
          "components": [
            {
              "internalType": "bytes32",
              "name": "usageHash",
              "type": "bytes32"
            },
            {
              "internalType": "uint256",
              "name": "usageAmount",
              "type": "uint256"
            }
          ],
          "internalType": "struct UsageLimit[]",
          "name": "usageLimits",
          "type": "tuple[]"
        }
      ],
      "name": "validatePermission",
      "outputs": [
        {
          "internalType": "bool",
          "name": "",
          "type": "bool"
        },
        {
          "components": [
            {
              "internalType": "bytes32",
              "name": "usageHash",
              "type": "bytes32"
            },
            {
              "internalType": "uint256",
              "name": "usageAmount",
              "type": "uint256"
            }
          ],
          "internalType": "struct UsageLimit[]",
          "name": "newUsageLimits",
          "type": "tuple[]"
        }
      ],
      "stateMutability": "view",
      "type": "function"
    }
  ],
  "bytecode": "0x6080604052348015600f57600080fd5b50613b388061001f6000396000f3fe608060405234801561001057600080fd5b50600436106100725760003560e01c80636e13541b116100505780636e13541b146100d5578063ca70785014610103578063f916f3b21461011657600080fd5b806301ffc9a714610077578063388e3b791461009f57806342de1418146100c0575b600080fd5b61008a610085366004612b75565b610156565b60405190151581526020015b60405180910390f35b6100b26100ad366004612db3565b6101b2565b604051610096929190612f9a565b6100d36100ce366004612fbd565b61058f565b005b6100f56100e3366004613034565b60006020819052908152604090205481565b604051908152602001610096565b6100f561011136600461304d565b610673565b61013173eeeeeeeeeeeeeeeeeeeeeeeeeeeeeeeeeeeeeeee81565b60405173ffffffffffffffffffffffffffffffffffffffff9091168152602001610096565b60007fffffffff0000000000000000000000000000000000000000000000000000000082167fca7078500000000000000000000000000000000000000000000000000000000014806101ac57506101ac82610b6a565b92915050565b600060606101c360208601866130f3565b73ffffffffffffffffffffffffffffffffffffffff16866000015173ffffffffffffffffffffffffffffffffffffffff161461020457506000905081610586565b8560200151518351610216919061313d565b67ffffffffffffffff81111561022e5761022e612bbe565b60405190808252806020026020018201604052801561027357816020015b604080518082019091526000808252602082015281526020019060019003908161024c5790505b50905060005b83518110156102c15783818151811061029457610294613150565b60200260200101518282815181106102ae576102ae613150565b6020908102919091010152600101610279565b50825160005b87602001515181101561057e576000886020015182815181106102ec576102ec613150565b60200260200101519050600061031682606001518a8060400190610310919061317f565b50013590565b60808301518351911691501561048d576040518190600090610340908b908e908890602001613213565b604080517fffffffffffffffffffffffffffffffffffffffffffffffffffffffffffffffe0818403018152828252805160209182012083830190925260008084529083018190529092509060005b895181101561045a576000801b8a82815181106103ad576103ad613150565b6020026020010151600001510361040657604051806040016040528085815260200160008152509150818a82815181106103e9576103e9613150565b60209081029190910101526103ff81600161313d565b985061045a565b838a828151811061041957610419613150565b602002602001015160000151036104525789818151811061043c5761043c613150565b602002602001015191508160200151925061045a565b60010161038e565b50816000036104755760008381526020819052604090205491505b61047f828561313d565b602090910181905293505050505b6000826020015160038111156104a5576104a56131e4565b036104ca57816040015181146104c5576000879550955050505050610586565b610574565b6003826020015160038111156104e2576104e26131e4565b036105035760408201518111156104c5576000879550955050505050610586565b60018260200151600381111561051b5761051b6131e4565b0361053b57816040015181036104c5576000879550955050505050610586565b600282602001516003811115610553576105536131e4565b03610574576040820151811015610574576000879550955050505050610586565b50506001016102c7565b508152600191505b94509492505050565b60005b8181101561066e576000808484848181106105af576105af613150565b905060400201600001358152602001908152602001600020548383838181106105da576105da613150565b90506040020160200135101561061b576040517e2a700a00000000000000000000000000000000000000000000000000000000815260040160405180910390fd5b82828281811061062d5761062d613150565b9050604002016020013560008085858581811061064c5761064c613150565b6040908102929092013583525060208201929092520160002055600101610592565b505050565b6000806106836020860186613301565b60ff16146106bd576040517f7205212000000000000000000000000000000000000000000000000000000000815260040160405180910390fd5b6106ca6040850185613324565b9050600003610705576040517f542f0af500000000000000000000000000000000000000000000000000000000815260040160405180910390fd5b6000610712858585610c02565b90506107216040860186613324565b905081608001515114610760576040517fbd8ba99300000000000000000000000000000000000000000000000000000000815260040160405180910390fd5b3360006107706040880188613324565b905067ffffffffffffffff81111561078a5761078a612bbe565b6040519080825280602002602001820160405280156107f557816020015b6107e26040518060600160405280600073ffffffffffffffffffffffffffffffffffffffff16815260200160608152602001600081525090565b8152602001906001900390816107a85790505b50905060005b6108086040890189613324565b9050811015610a9c573661081f60408a018a613324565b8381811061082f5761082f613150565b9050602002810190610841919061338c565b905061085360a08201608083016133ca565b1561088a576040517faa25f2ad00000000000000000000000000000000000000000000000000000000815260040160405180910390fd5b6000856080015183815181106108a2576108a2613150565b602002602001015190508060000151156108d4576108cf8286836020015184606001518a60400151611217565b610a92565b61090e6040518060600160405280600073ffffffffffffffffffffffffffffffffffffffff16815260200160608152602001600081525090565b60005b8551811015610a5457600073ffffffffffffffffffffffffffffffffffffffff1686828151811061094457610944613150565b60200260200101516000015173ffffffffffffffffffffffffffffffffffffffff16036109d75760208381015173ffffffffffffffffffffffffffffffffffffffff168352604080516000808252928101909152906109c5565b604080518082019091526000808252602082015281526020019060019003908161099e5790505b50602083015260006040830152610a54565b826020015173ffffffffffffffffffffffffffffffffffffffff16868281518110610a0457610a04613150565b60200260200101516000015173ffffffffffffffffffffffffffffffffffffffff1603610a4c57858181518110610a3d57610a3d613150565b60200260200101519150610a54565b600101610911565b610a6f8c868986602001518c606001518860400151886114ad565b915081868281518110610a8457610a84613150565b602002602001018190525050505b50506001016107fb565b5060005b8151811015610b0357600073ffffffffffffffffffffffffffffffffffffffff16828281518110610ad357610ad3613150565b60200260200101516000015173ffffffffffffffffffffffffffffffffffffffff160315610b0357600101610aa0565b80825236610b1460408a018a613324565b6001610b2360408d018d613324565b610b2e9291506133e5565b818110610b3d57610b3d613150565b9050602002810190610b4f919061338c565b9050610b5c81848661193a565b505091519695505050505050565b60007fffffffff0000000000000000000000000000000000000000000000000000000082167fca7078500000000000000000000000000000000000000000000000000000000014806101ac57507fffffffff0000000000000000000000000000000000000000000000000000000082167f42de1418000000000000000000000000000000000000000000000000000000001492915050565b6040805160a0810182526000808252602082018190526060928201839052828201839052608082019290925290600390843560e81c610c59868487610c47858361313d565b92610c54939291906133f8565b611d7d565b9094509150610c68818461313d565b602085015190935073ffffffffffffffffffffffffffffffffffffffff16610cbc576040517f9e5c658b00000000000000000000000000000000000000000000000000000000815260040160405180910390fd5b50600182019160609086013560f81c8067ffffffffffffffff811115610ce457610ce4612bbe565b604051908082528060200260200182016040528015610d6457816020015b6040805160c081018252600080825260208083018290529282018190526060808301919091526080820181905260a082015282527fffffffffffffffffffffffffffffffffffffffffffffffffffffffffffffffff909201910181610d025790505b50915060005b8160ff16811015610ed4576040805160c0810182526000808252602082018190529181018290526060808201929092526080810182905260a0810191909152610db489898861238e565b9650905060008080610dc78c8c8b6124d2565b9b50919450925090506000610ddb85612525565b6040805160008082526020820180845284905260ff86169282019290925260608101879052608081018690529192509060019060a0016020604051602081039080840390855afa158015610e33573d6000803e3d6000fd5b5050506020604051035190508b6020015173ffffffffffffffffffffffffffffffffffffffff168173ffffffffffffffffffffffffffffffffffffffff1614610ea8576040517f9e5c658b00000000000000000000000000000000000000000000000000000000815260040160405180910390fd5b505050505080848381518110610ec057610ec0613150565b602090810291909101015250600101610d6a565b5060008160ff16118015610ee6575082155b15610f1d576040517feb62520400000000000000000000000000000000000000000000000000000000815260040160405180910390fd5b506000610f2d6040890189613324565b905090508067ffffffffffffffff811115610f4a57610f4a612bbe565b604051908082528060200260200182016040528015610fe957816020015b604080516080808201835260008083526020808401829052838501829052845160c08101865282815280820183905294850182905260608086019290925291840181905260a0840181905282019290925282527fffffffffffffffffffffffffffffffffffffffffffffffffffffffffffffffff909201910181610f685790505b50608086015260005b8181101561120b57604080516080808201835260008083526020808401829052838501829052845160c08101865282815290810182905293840181905260608085019190915283820181905260a084018190528201929092528987013560f81c91821615801582526001909701969091906110d1578451607f82169081106110a6576040517fbd8ba84d00000000000000000000000000000000000000000000000000000000815260040160405180910390fd5b858160ff16815181106110bb576110bb613150565b60200260200101518360600181905250506110db565b60ff811660408301525b600080806110ea8d8d8c6124d2565b809d5081945082955083965050505050600061113f8f806040019061110f9190613324565b8981811061111f5761111f613150565b9050602002810190611131919061338c565b61113a906134b0565b61253e565b60408051600081526020810180835283905260ff851691810191909152606081018690526080810185905290915060019060a0016020604051602081039080840390855afa158015611195573d6000803e3d6000fd5b50506040517fffffffffffffffffffffffffffffffffffffffffffffffffffffffffffffffe0015173ffffffffffffffffffffffffffffffffffffffff1660208801525050505060808901518051849250859081106111f6576111f6613150565b60209081029190910101525050600101610ff2565b50505050509392505050565b815173ffffffffffffffffffffffffffffffffffffffff848116911614611287576040517fc1e84ed600000000000000000000000000000000000000000000000000000000815273ffffffffffffffffffffffffffffffffffffffff841660048201526024015b60405180910390fd5b61129760a08601608087016133ca565b156112ce576040517faa25f2ad00000000000000000000000000000000000000000000000000000000815260040160405180910390fd5b6112e46112de60208701876130f3565b8261260a565b15611341576112f660208601866130f3565b6040517fd33f19e700000000000000000000000000000000000000000000000000000000815273ffffffffffffffffffffffffffffffffffffffff909116600482015260240161127e565b60208501351561137d576040517faa7feadc00000000000000000000000000000000000000000000000000000000815260040160405180910390fd5b60006113898386612713565b9050600083608001516040516020016113a2919061356c565b604080517fffffffffffffffffffffffffffffffffffffffffffffffffffffffffffffffe0818403018152919052805160209182012091506000906113e9908901896130f3565b73ffffffffffffffffffffffffffffffffffffffff1663814ec8c68887858c6040518563ffffffff1660e01b815260040161142794939291906136fb565b602060405180830381865afa158015611444573d6000803e3d6000fd5b505050506040513d601f19601f8201168201806040525081019061146891906137ec565b90508281146114a3576040517f0881ad5d00000000000000000000000000000000000000000000000000000000815260040160405180910390fd5b5050505050505050565b6114e76040518060600160405280600073ffffffffffffffffffffffffffffffffffffffff16815260200160608152602001600081525090565b6115286040518060800160405280600073ffffffffffffffffffffffffffffffffffffffff1681526020016000815260200160008152602001606081525090565b60005b85518110156115ad578673ffffffffffffffffffffffffffffffffffffffff1686828151811061155d5761155d613150565b60200260200101516000015173ffffffffffffffffffffffffffffffffffffffff16036115a55785818151811061159657611596613150565b602002602001015191506115ad565b60010161152b565b50805173ffffffffffffffffffffffffffffffffffffffff166115ff576040517fc1e84ed60000000000000000000000000000000000000000000000000000000081526000600482015260240161127e565b6040810151158015906116155750806040015142115b156116545780604001516040517fb1bbfdd500000000000000000000000000000000000000000000000000000000815260040161127e91815260200190565b3661166260408b018b613324565b8a81811061167257611672613150565b9050602002810190611684919061338c565b905061169660a08201608083016133ca565b156116cd576040517faa25f2ad00000000000000000000000000000000000000000000000000000000815260040160405180910390fd5b306116db60208301836130f3565b73ffffffffffffffffffffffffffffffffffffffff16036117b6576000611705604083018361317f565b611714916004916000916133f8565b61171d91613805565b905060008260200135118061177457507fffffffff0000000000000000000000000000000000000000000000000000000081167f42de14180000000000000000000000000000000000000000000000000000000014155b156117ab576040517f540733ea00000000000000000000000000000000000000000000000000000000815260040160405180910390fd5b84935050505061192f565b8160600151518560ff16106117f7576040517f3f904dc000000000000000000000000000000000000000000000000000000000815260040160405180910390fd5b600082606001518660ff168151811061181257611812613150565b602002602001015190506000898960405160200161185392919073ffffffffffffffffffffffffffffffffffffffff92831681529116602082015260400190565b60405160208183030381529060405280519060200120905060008061187e8486858b602001516101b2565b91509150816118b9576040517f868a64de00000000000000000000000000000000000000000000000000000000815260040160405180910390fd5b6020808901829052850135156118e3578460200135886040018181516118df919061313d565b9052505b856020015188604001511115611925576040517faa7feadc00000000000000000000000000000000000000000000000000000000815260040160405180910390fd5b8796505050505050505b979650505050505050565b81511561066e573061194f60208501856130f3565b73ffffffffffffffffffffffffffffffffffffffff16141580611977575060c0830135600114155b156119ad576040517e2a700a00000000000000000000000000000000000000000000000000000000815260040160405180910390fd5b6000805b8351811015611a22578381815181106119cc576119cc613150565b60200260200101516020015151826119e4919061313d565b915060008482815181106119fa576119fa613150565b6020026020010151604001511115611a1a5781611a168161386b565b9250505b6001016119b1565b5060008167ffffffffffffffff811115611a3e57611a3e612bbe565b604051908082528060200260200182016040528015611a8357816020015b6040805180820190915260008082526020820152815260200190600190039081611a5c5790505b5090506000805b8551811015611c725760005b868281518110611aa857611aa8613150565b60200260200101516020015151811015611b2457868281518110611ace57611ace613150565b6020026020010151602001518181518110611aeb57611aeb613150565b6020026020010151848480611aff9061386b565b955081518110611b1157611b11613150565b6020908102919091010152600101611a96565b506000868281518110611b3957611b39613150565b6020026020010151604001511115611c6a57600085878381518110611b6057611b60613150565b602002602001015160000151604051602001611b9f92919073ffffffffffffffffffffffffffffffffffffffff92831681529116602082015260400190565b604080518083037fffffffffffffffffffffffffffffffffffffffffffffffffffffffffffffffe001815282825280516020909101208282019091526060820181905273eeeeeeeeeeeeeeeeeeeeeeeeeeeeeeeeeeeeeeee608083015291508060a08101604051602081830303815290604052805190602001208152602001888481518110611c3057611c30613150565b602002602001015160400151815250848480611c4b9061386b565b955081518110611c5d57611c5d613150565b6020026020010181905250505b600101611a8a565b5060006342de141860e01b83604051602401611c8e91906138a3565b604080517fffffffffffffffffffffffffffffffffffffffffffffffffffffffffffffffe08184030181529181526020820180517bffffffffffffffffffffffffffffffffffffffffffffffffffffffff167fffffffff00000000000000000000000000000000000000000000000000000000909416939093178352815190922090925090600090611d22908a018a61317f565b604051611d309291906138b6565b60405180910390209050818114611d72576040517e2a700a00000000000000000000000000000000000000000000000000000000815260040160405180910390fd5b505050505050505050565b6040805160a08101825260008082526020820152606091810182905281810182905260808101919091526000808080611db76032876138f5565b90508067ffffffffffffffff811115611dd257611dd2612bbe565b604051908082528060200260200182016040528015611e4457816020015b611e316040518060800160405280600073ffffffffffffffffffffffffffffffffffffffff1681526020016000815260200160008152602001606081525090565b815260200190600190039081611df05790505b506060860152505b8482101561237b57600182019186013560f881901c9060fc1c80611f5257611eab6040518060800160405280600073ffffffffffffffffffffffffffffffffffffffff1681526020016000815260200160008152602001606081525090565b888501803560601c8252601481013560208301526034013560408201526054850194611ed88a8a886127cf565b606084019190915295506000611ef8611ef388848d8f6133f8565b61288f565b8951909150611f075780611f18565b885160009081526020829052604090205b8952506060880151829086611f2c8161386b565b975081518110611f3e57611f3e613150565b602002602001018190525050505050611e4c565b60018103611f8b578551602085019489013590611f6f5780611f80565b865160009081526020829052604090205b875250611e4c915050565b6002810361217457600f8216848101946001600890920291821b7fffffffffffffffffffffffffffffffffffffffffffffffffffffffffffffffff01908a0135610100929092039190911c166000611fe3828761313d565b9050600080611ffd8c8c8a908692610c54939291906133f8565b915091508297508015612051578815612042576040517feb62520400000000000000000000000000000000000000000000000000000000815260040160405180910390fd5b604080830151908b0152600198505b602082015173ffffffffffffffffffffffffffffffffffffffff16156120e45760208a015173ffffffffffffffffffffffffffffffffffffffff16156120c3576040517f9e5c658b00000000000000000000000000000000000000000000000000000000815260040160405180910390fd5b60208083015173ffffffffffffffffffffffffffffffffffffffff16908b01525b60005b826060015151811015612147578260600151818151811061210a5761210a613150565b60200260200101518b6060015189806121229061386b565b9a508151811061213457612134613150565b60209081029190910101526001016120e7565b508951612155578151612166565b895182516000918252602052604090205b8a5250611e4c945050505050565b600381036122bd5784156121b4576040517feb62520400000000000000000000000000000000000000000000000000000000815260040160405180910390fd5b60019450600f808316908190036121d25750600184019388013560f81c5b848167ffffffffffffffff8111156121ec576121ec612bbe565b604051908082528060200260200182016040528015612215578160200160208202803683370190505b50604089015260005b8281101561227957868b013560601c601488018a60400151838151811061224757612247613150565b73ffffffffffffffffffffffffffffffffffffffff90931660209384029190910190920191909152965060010161221e565b50600061229061228b88848d8f6133f8565b6128a6565b895190915061229f57806122b0565b885160009081526020829052604090205b895250611e4c9350505050565b6004810361234657602086015173ffffffffffffffffffffffffffffffffffffffff1615612317576040517f9e5c658b00000000000000000000000000000000000000000000000000000000815260040160405180910390fd5b8784013560601c60208701819052601490940193600090612337906128be565b8751909150611f6f5780611f80565b6040517f0ad997900000000000000000000000000000000000000000000000000000000081526004810182905260240161127e565b60608401805191825252505b9250929050565b6040805160c08101825260606080820181905260a082018190528584018035821c83527fffffffff00000000000000000000000000000000000000000000000000000000601482013516602084015260188101359383019390935260388301359082015290605b8301906058013560e81c85828661240c848361313d565b92612419939291906133f8565b8080601f016020809104026020016040519081016040528093929190818152602001838380828437600092019190915250505050608084015261245c818361313d565b60038101925086013560e81c9050858286612477848361313d565b92612484939291906133f8565b8080601f01602080910402602001604051908101604052809392919081815260200183838082843760009201919091525050505060a08401526124c7818361313d565b915050935093915050565b828101803590602001357f7fffffffffffffffffffffffffffffffffffffffffffffffffffffffffffffff811690600090604085019060ff81901c61251881601b613909565b9350505093509350935093565b60006125308261291e565b805190602001209050919050565b60007f0603985259a953da1f65a522f589c17bd1d0117ec1d3abb7c0788aef251ef43782600001518360200151846040015180519060200120856060015186608001518760a001518860c001516040516020016125ed98979695949392919097885273ffffffffffffffffffffffffffffffffffffffff969096166020880152604087019490945260608601929092526080850152151560a0840152151560c083015260e08201526101000190565b604051602081830303815290604052805190602001209050919050565b600080600090506000600184516126219190613922565b90505b80821361270857600060026126398484613922565b6126439190613942565b61264d90846139aa565b9050600085828151811061266357612663613150565b602002602001015190508673ffffffffffffffffffffffffffffffffffffffff168173ffffffffffffffffffffffffffffffffffffffff16036126ad5760019450505050506101ac565b8673ffffffffffffffffffffffffffffffffffffffff168173ffffffffffffffffffffffffffffffffffffffff1610156126f3576126ec8260016139aa565b9350612701565b6126fe600183613922565b92505b5050612624565b506000949350505050565b6040517f616363657074496d706c6963697452657175657374000000000000000000000060208201526000906035016040516020818303038152906040528051906020012082846060015185604001516040516020016127b1949392919093845260609290921b7fffffffffffffffffffffffffffffffffffffffff0000000000000000000000001660208401526034830152605482015260740190565b60405160208183030381529060405280519060200120905092915050565b600181019060609060009085013560f81c8067ffffffffffffffff8111156127f9576127f9612bbe565b60405190808252806020026020018201604052801561283f57816020015b6040805180820190915260008152606060208201528152602001906001900390816128175790505b50925060005b818110156128825761285887878761296c565b85838151811061286a5761286a613150565b60209081029190910101919091529450600101612845565b5083915050935093915050565b60008083836040516020016127b1939291906139d2565b6000600383836040516020016127b1939291906139d2565b6040517f040000000000000000000000000000000000000000000000000000000000000060208201527fffffffffffffffffffffffffffffffffffffffff000000000000000000000000606083901b1660218201526000906035016125ed565b80516020808301516040808501516060868101516080880151805160a08a015180519651949961295699909897949592949201613a11565b6040516020818303038152906040529050919050565b60408051808201909152606060208201819052848301803590911c82526015909201916000906014013560f81c8067ffffffffffffffff8111156129b2576129b2612bbe565b604051908082528060200260200182016040528015612a2957816020015b6040805160a0810182526000808252602080830182905292820181905260608201819052608082015282527fffffffffffffffffffffffffffffffffffffffffffffffffffffffffffffffff9092019101816129d05790505b50602084015260005b8181101561288257602084015180516001808801978a013560f81c9290831615159184908110612a6457612a64613150565b60209081029190910101519015159052607f600182901c166003811115612a8d57612a8d6131e4565b85602001518381518110612aa357612aa3613150565b6020026020010151602001906003811115612ac057612ac06131e4565b90816003811115612ad357612ad36131e4565b905250858801356020870186602001518481518110612af457612af4613150565b6020908102919091018101516040019290925296508887013590870186602001518481518110612b2657612b26613150565b6020908102919091018101516060019290925296508887013590870186602001518481518110612b5857612b58613150565b602090810291909101015160800191909152955050600101612a32565b600060208284031215612b8757600080fd5b81357fffffffff0000000000000000000000000000000000000000000000000000000081168114612bb757600080fd5b9392505050565b7f4e487b7100000000000000000000000000000000000000000000000000000000600052604160045260246000fd5b6040805190810167ffffffffffffffff81118282101715612c1057612c10612bbe565b60405290565b60405160a0810167ffffffffffffffff81118282101715612c1057612c10612bbe565b60405160e0810167ffffffffffffffff81118282101715612c1057612c10612bbe565b604051601f82017fffffffffffffffffffffffffffffffffffffffffffffffffffffffffffffffe016810167ffffffffffffffff81118282101715612ca357612ca3612bbe565b604052919050565b803573ffffffffffffffffffffffffffffffffffffffff81168114612ccf57600080fd5b919050565b600067ffffffffffffffff821115612cee57612cee612bbe565b5060051b60200190565b80358015158114612ccf57600080fd5b600060e08284031215612d1a57600080fd5b50919050565b600082601f830112612d3157600080fd5b8135612d44612d3f82612cd4565b612c5c565b8082825260208201915060208360061b860101925085831115612d6657600080fd5b602085015b83811015612da95760408188031215612d8357600080fd5b612d8b612bed565b81358152602080830135818301529084529290920191604001612d6b565b5095945050505050565b60008060008060808587031215612dc957600080fd5b843567ffffffffffffffff811115612de057600080fd5b850160408188031215612df257600080fd5b612dfa612bed565b612e0382612cab565b8152602082013567ffffffffffffffff811115612e1f57600080fd5b80830192505087601f830112612e3457600080fd5b8135612e42612d3f82612cd4565b80828252602082019150602060a0840286010192508a831115612e6457600080fd5b6020850194505b82851015612ee25760a0858c031215612e8357600080fd5b612e8b612c16565b612e9486612cf8565b8152602086013560048110612ea857600080fd5b60208281019190915260408781013590830152606080880135908301526080808801359083015290835260a0909501949190910190612e6b565b8060208501525050508095505050602085013567ffffffffffffffff811115612f0a57600080fd5b612f1687828801612d08565b93505060408501359150606085013567ffffffffffffffff811115612f3a57600080fd5b612f4687828801612d20565b91505092959194509250565b600081518084526020840193506020830160005b82811015612f90578151805187526020908101518188015260409096019590910190600101612f66565b5093949350505050565b8215158152604060208201526000612fb56040830184612f52565b949350505050565b60008060208385031215612fd057600080fd5b823567ffffffffffffffff811115612fe757600080fd5b8301601f81018513612ff857600080fd5b803567ffffffffffffffff81111561300f57600080fd5b8560208260061b840101111561302457600080fd5b6020919091019590945092505050565b60006020828403121561304657600080fd5b5035919050565b60008060006040848603121561306257600080fd5b833567ffffffffffffffff81111561307957600080fd5b8401610120818703121561308c57600080fd5b9250602084013567ffffffffffffffff8111156130a857600080fd5b8401601f810186136130b957600080fd5b803567ffffffffffffffff8111156130d057600080fd5b8660208284010111156130e257600080fd5b939660209190910195509293505050565b60006020828403121561310557600080fd5b612bb782612cab565b7f4e487b7100000000000000000000000000000000000000000000000000000000600052601160045260246000fd5b808201808211156101ac576101ac61310e565b7f4e487b7100000000000000000000000000000000000000000000000000000000600052603260045260246000fd5b60008083357fffffffffffffffffffffffffffffffffffffffffffffffffffffffffffffffe18436030181126131b457600080fd5b83018035915067ffffffffffffffff8211156131cf57600080fd5b60200191503681900382131561238757600080fd5b7f4e487b7100000000000000000000000000000000000000000000000000000000600052602160045260246000fd5b83815260606020820152600060a0820173ffffffffffffffffffffffffffffffffffffffff855116606084015260208501516040608085015281815180845260c086019150602083019350600092505b808310156132ec5783518051151583526020810151600481106132af577f4e487b7100000000000000000000000000000000000000000000000000000000600052602160045260246000fd5b806020850152506040810151604084015260608101516060840152608081015160808401525060a082019150602084019350600183019250613263565b50809350505050826040830152949350505050565b60006020828403121561331357600080fd5b813560ff81168114612bb757600080fd5b60008083357fffffffffffffffffffffffffffffffffffffffffffffffffffffffffffffffe184360301811261335957600080fd5b83018035915067ffffffffffffffff82111561337457600080fd5b6020019150600581901b360382131561238757600080fd5b600082357fffffffffffffffffffffffffffffffffffffffffffffffffffffffffffffff218336030181126133c057600080fd5b9190910192915050565b6000602082840312156133dc57600080fd5b612bb782612cf8565b818103818111156101ac576101ac61310e565b6000808585111561340857600080fd5b8386111561341557600080fd5b5050820193919092039150565b600082601f83011261343357600080fd5b813567ffffffffffffffff81111561344d5761344d612bbe565b61347e60207fffffffffffffffffffffffffffffffffffffffffffffffffffffffffffffffe0601f84011601612c5c565b81815284602083860101111561349357600080fd5b816020850160208301376000918101602001919091529392505050565b600060e082360312156134c257600080fd5b6134ca612c39565b6134d383612cab565b815260208381013590820152604083013567ffffffffffffffff8111156134f957600080fd5b61350536828601613422565b6040830152506060838101359082015261352160808401612cf8565b608082015261353260a08401612cf8565b60a082015260c092830135928101929092525090565b60005b8381101561356357818101518382015260200161354b565b50506000910152565b600082516133c0818460208701613548565b60008151808452613596816020860160208601613548565b601f017fffffffffffffffffffffffffffffffffffffffffffffffffffffffffffffffe0169290920160200192915050565b8183528181602085013750600060208284010152600060207fffffffffffffffffffffffffffffffffffffffffffffffffffffffffffffffe0601f840116840101905092915050565b73ffffffffffffffffffffffffffffffffffffffff61362f82612cab565b1682526020818101359083015260006040820135368390037fffffffffffffffffffffffffffffffffffffffffffffffffffffffffffffffe101811261367457600080fd5b820160208101903567ffffffffffffffff81111561369157600080fd5b8036038213156136a057600080fd5b60e060408601526136b560e0860182846135c8565b6060858101359087015291506136cf905060808401612cf8565b151560808501526136e260a08401612cf8565b151560a085015260c09283013592909301919091525090565b73ffffffffffffffffffffffffffffffffffffffff851681526080602082015273ffffffffffffffffffffffffffffffffffffffff84511660808201527fffffffff0000000000000000000000000000000000000000000000000000000060208501511660a0820152604084015160c0820152606084015160e08201526000608085015160c061010084015261379561014084018261357e565b905060a08601517fffffffffffffffffffffffffffffffffffffffffffffffffffffffffffffff80848303016101208501526137d1828261357e565b915050846040840152828103606084015261192f8185613611565b6000602082840312156137fe57600080fd5b5051919050565b80357fffffffff000000000000000000000000000000000000000000000000000000008116906004841015613864577fffffffff00000000000000000000000000000000000000000000000000000000808560040360031b1b82161691505b5092915050565b60007fffffffffffffffffffffffffffffffffffffffffffffffffffffffffffffffff820361389c5761389c61310e565b5060010190565b602081526000612bb76020830184612f52565b8183823760009101908152919050565b7f4e487b7100000000000000000000000000000000000000000000000000000000600052601260045260246000fd5b600082613904576139046138c6565b500490565b60ff81811683821601908111156101ac576101ac61310e565b81810360008312801583831316838312821617156138645761386461310e565b600082613951576139516138c6565b7fffffffffffffffffffffffffffffffffffffffffffffffffffffffffffffffff83147f8000000000000000000000000000000000000000000000000000000000000000831416156139a5576139a561310e565b500590565b80820182811260008312801582168215821617156139ca576139ca61310e565b505092915050565b7fff000000000000000000000000000000000000000000000000000000000000008460f81b168152818360018301376000910160010190815292915050565b7fffffffffffffffffffffffffffffffffffffffff0000000000000000000000008960601b1681527fffffffff00000000000000000000000000000000000000000000000000000000881660148201528660188201528560388201527fffffff00000000000000000000000000000000000000000000000000000000008560e81b16605882015260008451613aad81605b850160208901613548565b80830190507fffffff00000000000000000000000000000000000000000000000000000000008560e81b16605b8201528351613af081605e840160208801613548565b01605e019a995050505050505050505056fea2646970667358221220a1d990d54764abca31907c6bea167c4852709718a7506b78c12a64d3b3bef28464736f6c634300081b0033",
  "linkReferences": {},
  "deployedLinkReferences": {}
}