{
  "_format": "hh-sol-artifact-1",
  "contractName": "SessionManager",
  "sourceName": "src/extensions/sessions/SessionManager.sol",
  "abi": [
    {
      "inputs": [
        {
          "internalType": "address",
          "name": "target",
          "type": "address"
        }
      ],
      "name": "BlacklistedAddress",
      "type": "error"
    },
    {
      "inputs": [],
      "name": "InvalidAttestation",
      "type": "error"
    },
    {
      "inputs": [],
      "name": "InvalidBlacklist",
      "type": "error"
    },
    {
      "inputs": [],
      "name": "InvalidCallSignaturesLength",
      "type": "error"
    },
    {
      "inputs": [],
      "name": "InvalidCallsLength",
      "type": "error"
    },
    {
      "inputs": [],
      "name": "InvalidDelegateCall",
      "type": "error"
    },
    {
      "inputs": [],
      "name": "InvalidIdentitySigner",
      "type": "error"
    },
    {
      "inputs": [],
      "name": "InvalidImplicitResult",
      "type": "error"
    },
    {
      "inputs": [],
      "name": "InvalidLimitUsageIncrement",
      "type": "error"
    },
    {
      "inputs": [
        {
          "internalType": "uint256",
          "name": "flag",
          "type": "uint256"
        }
      ],
      "name": "InvalidNodeType",
      "type": "error"
    },
    {
      "inputs": [],
      "name": "InvalidPayloadKind",
      "type": "error"
    },
    {
      "inputs": [],
      "name": "InvalidPermission",
      "type": "error"
    },
    {
      "inputs": [],
      "name": "InvalidSelfCall",
      "type": "error"
    },
    {
      "inputs": [
        {
          "internalType": "address",
          "name": "invalidSigner",
          "type": "address"
        }
      ],
      "name": "InvalidSessionSigner",
      "type": "error"
    },
    {
      "inputs": [],
      "name": "InvalidValue",
      "type": "error"
    },
    {
      "inputs": [],
      "name": "MissingPermission",
      "type": "error"
    },
    {
      "inputs": [
        {
          "internalType": "uint256",
          "name": "deadline",
          "type": "uint256"
        }
      ],
      "name": "SessionExpired",
      "type": "error"
    },
    {
      "inputs": [],
      "name": "VALUE_TRACKING_ADDRESS",
      "outputs": [
        {
          "internalType": "address",
          "name": "",
          "type": "address"
        }
      ],
      "stateMutability": "view",
      "type": "function"
    },
    {
      "inputs": [
        {
          "components": [
            {
              "internalType": "bytes32",
              "name": "usageHash",
              "type": "bytes32"
            },
            {
              "internalType": "uint256",
              "name": "usageAmount",
              "type": "uint256"
            }
          ],
          "internalType": "struct UsageLimit[]",
          "name": "limits",
          "type": "tuple[]"
        }
      ],
      "name": "incrementUsageLimit",
      "outputs": [],
      "stateMutability": "nonpayable",
      "type": "function"
    },
    {
      "inputs": [
        {
          "internalType": "bytes32",
          "name": "",
          "type": "bytes32"
        }
      ],
      "name": "limitUsage",
      "outputs": [
        {
          "internalType": "uint256",
          "name": "",
          "type": "uint256"
        }
      ],
      "stateMutability": "view",
      "type": "function"
    },
    {
      "inputs": [
        {
          "components": [
            {
              "internalType": "uint8",
              "name": "kind",
              "type": "uint8"
            },
            {
              "internalType": "bool",
              "name": "noChainId",
              "type": "bool"
            },
            {
              "components": [
                {
                  "internalType": "address",
                  "name": "to",
                  "type": "address"
                },
                {
                  "internalType": "uint256",
                  "name": "value",
                  "type": "uint256"
                },
                {
                  "internalType": "bytes",
                  "name": "data",
                  "type": "bytes"
                },
                {
                  "internalType": "uint256",
                  "name": "gasLimit",
                  "type": "uint256"
                },
                {
                  "internalType": "bool",
                  "name": "delegateCall",
                  "type": "bool"
                },
                {
                  "internalType": "bool",
                  "name": "onlyFallback",
                  "type": "bool"
                },
                {
                  "internalType": "uint256",
                  "name": "behaviorOnError",
                  "type": "uint256"
                }
              ],
              "internalType": "struct Payload.Call[]",
              "name": "calls",
              "type": "tuple[]"
            },
            {
              "internalType": "uint256",
              "name": "space",
              "type": "uint256"
            },
            {
              "internalType": "uint256",
              "name": "nonce",
              "type": "uint256"
            },
            {
              "internalType": "bytes",
              "name": "message",
              "type": "bytes"
            },
            {
              "internalType": "bytes32",
              "name": "imageHash",
              "type": "bytes32"
            },
            {
              "internalType": "bytes32",
              "name": "digest",
              "type": "bytes32"
            },
            {
              "internalType": "address[]",
              "name": "parentWallets",
              "type": "address[]"
            }
          ],
          "internalType": "struct Payload.Decoded",
          "name": "payload",
          "type": "tuple"
        },
        {
          "internalType": "bytes",
          "name": "encodedSignature",
          "type": "bytes"
        }
      ],
      "name": "recoverSapientSignature",
      "outputs": [
        {
          "internalType": "bytes32",
          "name": "",
          "type": "bytes32"
        }
      ],
      "stateMutability": "view",
      "type": "function"
    },
    {
      "inputs": [
        {
          "internalType": "bytes4",
          "name": "interfaceId",
          "type": "bytes4"
        }
      ],
      "name": "supportsInterface",
      "outputs": [
        {
          "internalType": "bool",
          "name": "",
          "type": "bool"
        }
      ],
      "stateMutability": "pure",
      "type": "function"
    },
    {
      "inputs": [
        {
          "components": [
            {
              "internalType": "address",
              "name": "target",
              "type": "address"
            },
            {
              "components": [
                {
                  "internalType": "bool",
                  "name": "cumulative",
                  "type": "bool"
                },
                {
                  "internalType": "enum ParameterOperation",
                  "name": "operation",
                  "type": "uint8"
                },
                {
                  "internalType": "bytes32",
                  "name": "value",
                  "type": "bytes32"
                },
                {
                  "internalType": "uint256",
                  "name": "offset",
                  "type": "uint256"
                },
                {
                  "internalType": "bytes32",
                  "name": "mask",
                  "type": "bytes32"
                }
              ],
              "internalType": "struct ParameterRule[]",
              "name": "rules",
              "type": "tuple[]"
            }
          ],
          "internalType": "struct Permission",
          "name": "permission",
          "type": "tuple"
        },
        {
          "components": [
            {
              "internalType": "address",
              "name": "to",
              "type": "address"
            },
            {
              "internalType": "uint256",
              "name": "value",
              "type": "uint256"
            },
            {
              "internalType": "bytes",
              "name": "data",
              "type": "bytes"
            },
            {
              "internalType": "uint256",
              "name": "gasLimit",
              "type": "uint256"
            },
            {
              "internalType": "bool",
              "name": "delegateCall",
              "type": "bool"
            },
            {
              "internalType": "bool",
              "name": "onlyFallback",
              "type": "bool"
            },
            {
              "internalType": "uint256",
              "name": "behaviorOnError",
              "type": "uint256"
            }
          ],
          "internalType": "struct Payload.Call",
          "name": "call",
          "type": "tuple"
        },
        {
          "internalType": "bytes32",
          "name": "limitHashPrefix",
          "type": "bytes32"
        },
        {
          "components": [
            {
              "internalType": "bytes32",
              "name": "usageHash",
              "type": "bytes32"
            },
            {
              "internalType": "uint256",
              "name": "usageAmount",
              "type": "uint256"
            }
          ],
          "internalType": "struct UsageLimit[]",
          "name": "usageLimits",
          "type": "tuple[]"
        }
      ],
      "name": "validatePermission",
      "outputs": [
        {
          "internalType": "bool",
          "name": "",
          "type": "bool"
        },
        {
          "components": [
            {
              "internalType": "bytes32",
              "name": "usageHash",
              "type": "bytes32"
            },
            {
              "internalType": "uint256",
              "name": "usageAmount",
              "type": "uint256"
            }
          ],
          "internalType": "struct UsageLimit[]",
          "name": "newUsageLimits",
          "type": "tuple[]"
        }
      ],
      "stateMutability": "view",
      "type": "function"
    }
  ],
  "bytecode": "0x6080604052348015600f57600080fd5b50613cbd8061001f6000396000f3fe608060405234801561001057600080fd5b50600436106100725760003560e01c806342de14181161005057806342de1418146100e15780636e13541b146100f6578063f916f3b21461011657600080fd5b806301ffc9a71461007757806313792a4a1461009f578063388e3b79146100c0575b600080fd5b61008a610085366004612ce0565b610156565b60405190151581526020015b60405180910390f35b6100b26100ad366004612d29565b6101b2565b604051908152602001610096565b6100d36100ce366004612fc4565b610779565b6040516100969291906131ab565b6100f46100ef3660046131ce565b610b56565b005b6100b2610104366004613245565b60006020819052908152604090205481565b61013173eeeeeeeeeeeeeeeeeeeeeeeeeeeeeeeeeeeeeeee81565b60405173ffffffffffffffffffffffffffffffffffffffff9091168152602001610096565b60007fffffffff0000000000000000000000000000000000000000000000000000000082167f13792a4a0000000000000000000000000000000000000000000000000000000014806101ac57506101ac82610c3a565b92915050565b6000806101c2602086018661325e565b60ff16146101fc576040517f7205212000000000000000000000000000000000000000000000000000000000815260040160405180910390fd5b6102096040850185613281565b9050600003610244576040517f542f0af500000000000000000000000000000000000000000000000000000000815260040160405180910390fd5b6000610251858585610cd2565b90506102606040860186613281565b90508160800151511461029f576040517fbd8ba99300000000000000000000000000000000000000000000000000000000815260040160405180910390fd5b3360006102af6040880188613281565b905067ffffffffffffffff8111156102c9576102c9612dcf565b60405190808252806020026020018201604052801561033457816020015b6103216040518060600160405280600073ffffffffffffffffffffffffffffffffffffffff16815260200160608152602001600081525090565b8152602001906001900390816102e75790505b50905060005b6103476040890189613281565b90508110156105db573661035e60408a018a613281565b8381811061036e5761036e6132e9565b90506020028101906103809190613318565b905061039260a0820160808301613356565b156103c9576040517faa25f2ad00000000000000000000000000000000000000000000000000000000815260040160405180910390fd5b6000856080015183815181106103e1576103e16132e9565b602002602001015190508060000151156104135761040e8286836020015184606001518a60400151611231565b6105d1565b61044d6040518060600160405280600073ffffffffffffffffffffffffffffffffffffffff16815260200160608152602001600081525090565b60005b855181101561059357600073ffffffffffffffffffffffffffffffffffffffff16868281518110610483576104836132e9565b60200260200101516000015173ffffffffffffffffffffffffffffffffffffffff16036105165760208381015173ffffffffffffffffffffffffffffffffffffffff16835260408051600080825292810190915290610504565b60408051808201909152600080825260208201528152602001906001900390816104dd5790505b50602083015260006040830152610593565b826020015173ffffffffffffffffffffffffffffffffffffffff16868281518110610543576105436132e9565b60200260200101516000015173ffffffffffffffffffffffffffffffffffffffff160361058b5785818151811061057c5761057c6132e9565b60200260200101519150610593565b600101610450565b6105ae8c868986602001518c606001518860400151886114ce565b9150818682815181106105c3576105c36132e9565b602002602001018190525050505b505060010161033a565b506000815167ffffffffffffffff8111156105f8576105f8612dcf565b60405190808252806020026020018201604052801561066357816020015b6106506040518060600160405280600073ffffffffffffffffffffffffffffffffffffffff16815260200160608152602001600081525090565b8152602001906001900390816106165790505b5090506000805b8351811015610710576000848281518110610687576106876132e9565b6020026020010151602001515111806106bd575060008482815181106106af576106af6132e9565b602002602001015160400151115b15610708578381815181106106d4576106d46132e9565b60200260200101518383815181106106ee576106ee6132e9565b60200260200101819052508180610704906133a0565b9250505b60010161066a565b508082523661072260408b018b613281565b600161073160408e018e613281565b61073c9291506133d8565b81811061074b5761074b6132e9565b905060200281019061075d9190613318565b905061076a818487611970565b50509251979650505050505050565b6000606061078a60208601866133eb565b73ffffffffffffffffffffffffffffffffffffffff16866000015173ffffffffffffffffffffffffffffffffffffffff16146107cb57506000905081610b4d565b85602001515183516107dd9190613406565b67ffffffffffffffff8111156107f5576107f5612dcf565b60405190808252806020026020018201604052801561083a57816020015b60408051808201909152600080825260208201528152602001906001900390816108135790505b50905060005b83518110156108885783818151811061085b5761085b6132e9565b6020026020010151828281518110610875576108756132e9565b6020908102919091010152600101610840565b50825160005b876020015151811015610b45576000886020015182815181106108b3576108b36132e9565b6020026020010151905060006108dd82606001518a80604001906108d79190613419565b50013590565b608083015183519116915015610a54576040518190600090610907908b908e9088906020016134ad565b604080517fffffffffffffffffffffffffffffffffffffffffffffffffffffffffffffffe0818403018152828252805160209182012083830190925260008084529083018190529092509060005b8951811015610a21576000801b8a8281518110610974576109746132e9565b602002602001015160000151036109cd57604051806040016040528085815260200160008152509150818a82815181106109b0576109b06132e9565b60209081029190910101526109c6816001613406565b9850610a21565b838a82815181106109e0576109e06132e9565b60200260200101516000015103610a1957898181518110610a0357610a036132e9565b6020026020010151915081602001519250610a21565b600101610955565b5081600003610a3c5760008381526020819052604090205491505b610a468285613406565b602090910181905293505050505b600082602001516003811115610a6c57610a6c61347e565b03610a915781604001518114610a8c576000879550955050505050610b4d565b610b3b565b600382602001516003811115610aa957610aa961347e565b03610aca576040820151811115610a8c576000879550955050505050610b4d565b600182602001516003811115610ae257610ae261347e565b03610b025781604001518103610a8c576000879550955050505050610b4d565b600282602001516003811115610b1a57610b1a61347e565b03610b3b576040820151811015610b3b576000879550955050505050610b4d565b505060010161088e565b508152600191505b94509492505050565b60005b81811015610c3557600080848484818110610b7657610b766132e9565b90506040020160000135815260200190815260200160002054838383818110610ba157610ba16132e9565b905060400201602001351015610be2576040517e2a700a00000000000000000000000000000000000000000000000000000000815260040160405180910390fd5b828282818110610bf457610bf46132e9565b90506040020160200135600080858585818110610c1357610c136132e9565b6040908102929092013583525060208201929092520160002055600101610b59565b505050565b60007fffffffff0000000000000000000000000000000000000000000000000000000082167f13792a4a0000000000000000000000000000000000000000000000000000000014806101ac57507fffffffff0000000000000000000000000000000000000000000000000000000082167f42de1418000000000000000000000000000000000000000000000000000000001492915050565b6040805160a0810182526000808252602082018190526060928201839052828201839052608082019290925290600390843560e81c610d29868487610d178583613406565b92610d249392919061359b565b611db3565b9094509150610d388184613406565b602085015190935073ffffffffffffffffffffffffffffffffffffffff16610d8c576040517f9e5c658b00000000000000000000000000000000000000000000000000000000815260040160405180910390fd5b50600182019160609086013560f81c8067ffffffffffffffff811115610db457610db4612dcf565b604051908082528060200260200182016040528015610e2857816020015b610e156040805160c0810182526000808252602080830182905282840182905260608084019290925260808301829052835190810190935282529060a082015290565b815260200190600190039081610dd25790505b50915060005b8160ff16811015610fa757610e7c6040805160c0810182526000808252602080830182905282840182905260608084019290925260808301829052835190810190935282529060a082015290565b610e878989886123c4565b9650905060008080610e9a8c8c8b6124db565b9b50919450925090506000610eae8561252e565b6040805160008082526020820180845284905260ff86169282019290925260608101879052608081018690529192509060019060a0016020604051602081039080840390855afa158015610f06573d6000803e3d6000fd5b5050506020604051035190508b6020015173ffffffffffffffffffffffffffffffffffffffff168173ffffffffffffffffffffffffffffffffffffffff1614610f7b576040517f9e5c658b00000000000000000000000000000000000000000000000000000000815260040160405180910390fd5b505050505080848381518110610f9357610f936132e9565b602090810291909101015250600101610e2e565b5060008160ff16118015610fb9575082155b15610ff0576040517feb62520400000000000000000000000000000000000000000000000000000000815260040160405180910390fd5b5060006110006040890189613281565b905090508067ffffffffffffffff81111561101d5761101d612dcf565b60405190808252806020026020018201604052801561105657816020015b611043612c7c565b81526020019060019003908161103b5790505b50608086015260005b818110156112255761106f612c7c565b8589013560f81c6080811615801583526001909701966110f3578451607f82169081106110c8576040517fbd8ba84d00000000000000000000000000000000000000000000000000000000815260040160405180910390fd5b858160ff16815181106110dd576110dd6132e9565b60200260200101518360600181905250506110fd565b60ff811660408301525b506000808061110d8c8c8b6124db565b809c5081945082955083965050505050600061115a8e80604001906111329190613281565b88818110611142576111426132e9565b90506020028101906111549190613318565b8f612547565b60408051600081526020810180835283905260ff851691810191909152606081018690526080810185905290915060019060a0016020604051602081039080840390855afa1580156111b0573d6000803e3d6000fd5b50506040517fffffffffffffffffffffffffffffffffffffffffffffffffffffffffffffffe0015173ffffffffffffffffffffffffffffffffffffffff166020870152505050506080880151805183925084908110611211576112116132e9565b60209081029190910101525060010161105f565b50505050509392505050565b815173ffffffffffffffffffffffffffffffffffffffff8481169116146112a1576040517fc1e84ed600000000000000000000000000000000000000000000000000000000815273ffffffffffffffffffffffffffffffffffffffff841660048201526024015b60405180910390fd5b6112b160a0860160808701613356565b156112e8576040517faa25f2ad00000000000000000000000000000000000000000000000000000000815260040160405180910390fd5b6112f283826125bf565b15611341576040517fd33f19e700000000000000000000000000000000000000000000000000000000815273ffffffffffffffffffffffffffffffffffffffff84166004820152602401611298565b61135761135160208701876133eb565b826125bf565b156113b45761136960208601866133eb565b6040517fd33f19e700000000000000000000000000000000000000000000000000000000815273ffffffffffffffffffffffffffffffffffffffff9091166004820152602401611298565b6020850135156113f0576040517faa7feadc00000000000000000000000000000000000000000000000000000000815260040160405180910390fd5b60006113ff60208701876133eb565b73ffffffffffffffffffffffffffffffffffffffff1663c58ab92d8685896040518463ffffffff1660e01b815260040161143b93929190613766565b602060405180830381865afa158015611458573d6000803e3d6000fd5b505050506040513d601f19601f8201168201806040525081019061147c9190613865565b9050600061148a84876126c8565b90508082146114c5576040517f0881ad5d00000000000000000000000000000000000000000000000000000000815260040160405180910390fd5b50505050505050565b6115086040518060600160405280600073ffffffffffffffffffffffffffffffffffffffff16815260200160608152602001600081525090565b6115496040518060800160405280600073ffffffffffffffffffffffffffffffffffffffff1681526020016000815260200160008152602001606081525090565b60005b85518110156115ce578673ffffffffffffffffffffffffffffffffffffffff1686828151811061157e5761157e6132e9565b60200260200101516000015173ffffffffffffffffffffffffffffffffffffffff16036115c6578581815181106115b7576115b76132e9565b602002602001015191506115ce565b60010161154c565b50805173ffffffffffffffffffffffffffffffffffffffff16611635576040517fc1e84ed600000000000000000000000000000000000000000000000000000000815273ffffffffffffffffffffffffffffffffffffffff87166004820152602401611298565b60408101511580159061164b5750806040015142115b1561168a5780604001516040517fb1bbfdd500000000000000000000000000000000000000000000000000000000815260040161129891815260200190565b3661169860408b018b613281565b8a8181106116a8576116a86132e9565b90506020028101906116ba9190613318565b90506116cc60a0820160808301613356565b15611703576040517faa25f2ad00000000000000000000000000000000000000000000000000000000815260040160405180910390fd5b3061171160208301836133eb565b73ffffffffffffffffffffffffffffffffffffffff16036117ec57600061173b6040830183613419565b61174a9160049160009161359b565b6117539161387e565b90506000826020013511806117aa57507fffffffff0000000000000000000000000000000000000000000000000000000081167f42de14180000000000000000000000000000000000000000000000000000000014155b156117e1576040517f540733ea00000000000000000000000000000000000000000000000000000000815260040160405180910390fd5b849350505050611965565b8160600151518560ff161061182d576040517f3f904dc000000000000000000000000000000000000000000000000000000000815260040160405180910390fd5b600082606001518660ff1681518110611848576118486132e9565b602002602001015190506000898960405160200161188992919073ffffffffffffffffffffffffffffffffffffffff92831681529116602082015260400190565b6040516020818303038152906040528051906020012090506000806118b48486858b60200151610779565b91509150816118ef576040517f868a64de00000000000000000000000000000000000000000000000000000000815260040160405180910390fd5b602080890182905285013515611919578460200135886040018181516119159190613406565b9052505b85602001518860400151111561195b576040517faa7feadc00000000000000000000000000000000000000000000000000000000815260040160405180910390fd5b8796505050505050505b979650505050505050565b815115610c35573061198560208501856133eb565b73ffffffffffffffffffffffffffffffffffffffff161415806119ad575060c0830135600114155b156119e3576040517e2a700a00000000000000000000000000000000000000000000000000000000815260040160405180910390fd5b6000805b8351811015611a5857838181518110611a0257611a026132e9565b6020026020010151602001515182611a1a9190613406565b91506000848281518110611a3057611a306132e9565b6020026020010151604001511115611a505781611a4c816133a0565b9250505b6001016119e7565b5060008167ffffffffffffffff811115611a7457611a74612dcf565b604051908082528060200260200182016040528015611ab957816020015b6040805180820190915260008082526020820152815260200190600190039081611a925790505b5090506000805b8551811015611ca85760005b868281518110611ade57611ade6132e9565b60200260200101516020015151811015611b5a57868281518110611b0457611b046132e9565b6020026020010151602001518181518110611b2157611b216132e9565b6020026020010151848480611b35906133a0565b955081518110611b4757611b476132e9565b6020908102919091010152600101611acc565b506000868281518110611b6f57611b6f6132e9565b6020026020010151604001511115611ca057600085878381518110611b9657611b966132e9565b602002602001015160000151604051602001611bd592919073ffffffffffffffffffffffffffffffffffffffff92831681529116602082015260400190565b604080518083037fffffffffffffffffffffffffffffffffffffffffffffffffffffffffffffffe001815282825280516020909101208282019091526060820181905273eeeeeeeeeeeeeeeeeeeeeeeeeeeeeeeeeeeeeeee608083015291508060a08101604051602081830303815290604052805190602001208152602001888481518110611c6657611c666132e9565b602002602001015160400151815250848480611c81906133a0565b955081518110611c9357611c936132e9565b6020026020010181905250505b600101611ac0565b5060006342de141860e01b83604051602401611cc491906138e4565b604080517fffffffffffffffffffffffffffffffffffffffffffffffffffffffffffffffe08184030181529181526020820180517bffffffffffffffffffffffffffffffffffffffffffffffffffffffff167fffffffff00000000000000000000000000000000000000000000000000000000909416939093178352815190922090925090600090611d58908a018a613419565b604051611d669291906138f7565b60405180910390209050818114611da8576040517e2a700a00000000000000000000000000000000000000000000000000000000815260040160405180910390fd5b505050505050505050565b6040805160a08101825260008082526020820152606091810182905281810182905260808101919091526000808080611ded603287613936565b90508067ffffffffffffffff811115611e0857611e08612dcf565b604051908082528060200260200182016040528015611e7a57816020015b611e676040518060800160405280600073ffffffffffffffffffffffffffffffffffffffff1681526020016000815260200160008152602001606081525090565b815260200190600190039081611e265790505b506060860152505b848210156123b157600182019186013560f881901c9060fc1c80611f8857611ee16040518060800160405280600073ffffffffffffffffffffffffffffffffffffffff1681526020016000815260200160008152602001606081525090565b888501803560601c8252601481013560208301526034013560408201526054850194611f0e8a8a88612766565b606084019190915295506000611f2e611f2988848d8f61359b565b612826565b8951909150611f3d5780611f4e565b885160009081526020829052604090205b8952506060880151829086611f62816133a0565b975081518110611f7457611f746132e9565b602002602001018190525050505050611e82565b60018103611fc1578551602085019489013590611fa55780611fb6565b865160009081526020829052604090205b875250611e82915050565b600281036121aa57600f8216848101946001600890920291821b7fffffffffffffffffffffffffffffffffffffffffffffffffffffffffffffffff01908a0135610100929092039190911c1660006120198287613406565b90506000806120338c8c8a908692610d249392919061359b565b915091508297508015612087578815612078576040517feb62520400000000000000000000000000000000000000000000000000000000815260040160405180910390fd5b604080830151908b0152600198505b602082015173ffffffffffffffffffffffffffffffffffffffff161561211a5760208a015173ffffffffffffffffffffffffffffffffffffffff16156120f9576040517f9e5c658b00000000000000000000000000000000000000000000000000000000815260040160405180910390fd5b60208083015173ffffffffffffffffffffffffffffffffffffffff16908b01525b60005b82606001515181101561217d5782606001518181518110612140576121406132e9565b60200260200101518b606001518980612158906133a0565b9a508151811061216a5761216a6132e9565b602090810291909101015260010161211d565b50895161218b57815161219c565b895182516000918252602052604090205b8a5250611e82945050505050565b600381036122f35784156121ea576040517feb62520400000000000000000000000000000000000000000000000000000000815260040160405180910390fd5b60019450600f808316908190036122085750600284019388013560f01c5b848167ffffffffffffffff81111561222257612222612dcf565b60405190808252806020026020018201604052801561224b578160200160208202803683370190505b50604089015260005b828110156122af57868b013560601c601488018a60400151838151811061227d5761227d6132e9565b73ffffffffffffffffffffffffffffffffffffffff909316602093840291909101909201919091529650600101612254565b5060006122c66122c188848d8f61359b565b61283d565b89519091506122d557806122e6565b885160009081526020829052604090205b895250611e829350505050565b6004810361237c57602086015173ffffffffffffffffffffffffffffffffffffffff161561234d576040517f9e5c658b00000000000000000000000000000000000000000000000000000000815260040160405180910390fd5b8784013560601c6020870181905260149094019360009061236d90612855565b8751909150611fa55780611fb6565b6040517f0ad9979000000000000000000000000000000000000000000000000000000000815260048101829052602401611298565b60608401805191825252505b9250929050565b6124076040805160c0810182526000808252602080830182905282840182905260608084019290925260808301829052835190810190935282529060a082015290565b8382018035606090811c83527fffffffff00000000000000000000000000000000000000000000000000000000601483013516602084015260188201356040840152603882013590830152605b8301906058013560e81c85828661246b8483613406565b926124789392919061359b565b8080601f01602080910402602001604051908101604052809392919081815260200183838082843760009201919091525050505060808401526124bb8183613406565b91506124c88686846128ce565b60a0850191909152915050935093915050565b828101803590602001357f7fffffffffffffffffffffffffffffffffffffffffffffffffffffffffffffff811690600090604085019060ff81901c61252181601b61394a565b9350505093509350935093565b60006125398261294e565b805190602001209050919050565b60006125596040830160208401613356565b6125635746612566565b60005b6060830135608084013561258161257c876139f1565b6129a8565b6040805160208101959095528401929092526060830152608082015260a0015b60405160208183030381529060405280519060200120905092915050565b600080600090506000600184516125d69190613a89565b90505b8082136126bd57600060026125ee8484613a89565b6125f89190613aa9565b6126029084613b11565b90506000858281518110612618576126186132e9565b602002602001015190508673ffffffffffffffffffffffffffffffffffffffff168173ffffffffffffffffffffffffffffffffffffffff16036126625760019450505050506101ac565b8673ffffffffffffffffffffffffffffffffffffffff168173ffffffffffffffffffffffffffffffffffffffff1610156126a8576126a1826001613b11565b93506126b6565b6126b3600183613a89565b92505b50506125d9565b506000949350505050565b6040517f616363657074496d706c6963697452657175657374000000000000000000000060208201526000906035016040516020818303038152906040528051906020012082846060015185604001516040516020016125a1949392919093845260609290921b7fffffffffffffffffffffffffffffffffffffffff0000000000000000000000001660208401526034830152605482015260740190565b600181019060609060009085013560f81c8067ffffffffffffffff81111561279057612790612dcf565b6040519080825280602002602001820160405280156127d657816020015b6040805180820190915260008152606060208201528152602001906001900390816127ae5790505b50925060005b81811015612819576127ef878787612a57565b858381518110612801576128016132e9565b602090810291909101019190915294506001016127dc565b5083915050935093915050565b60008083836040516020016125a193929190613b39565b6000600383836040516020016125a193929190613b39565b6040517f040000000000000000000000000000000000000000000000000000000000000060208201527fffffffffffffffffffffffffffffffffffffffff000000000000000000000000606083901b1660218201526000906035015b604051602081830303815290604052805190602001209050919050565b604080516020810190915260608152600382018483013560e81c8582866128f58483613406565b926129029392919061359b565b8080601f0160208091040260200160405190810160405280939291908181526020018383808284376000920191909152505050908452506129438183613406565b915050935093915050565b60608160000151826020015183604001518460600151856080015151866080015161297c8860a00151612c60565b6040516020016129929796959493929190613b78565b6040516020818303038152906040529050919050565b60007f0603985259a953da1f65a522f589c17bd1d0117ec1d3abb7c0788aef251ef43782600001518360200151846040015180519060200120856060015186608001518760a001518860c001516040516020016128b198979695949392919097885273ffffffffffffffffffffffffffffffffffffffff969096166020880152604087019490945260608601929092526080850152151560a0840152151560c083015260e08201526101000190565b60408051808201909152606060208201819052848301803590911c82526015909201916000906014013560f81c8067ffffffffffffffff811115612a9d57612a9d612dcf565b604051908082528060200260200182016040528015612b1457816020015b6040805160a0810182526000808252602080830182905292820181905260608201819052608082015282527fffffffffffffffffffffffffffffffffffffffffffffffffffffffffffffffff909201910181612abb5790505b50602084015260005b8181101561281957602084015180516001808801978a013560f81c9290831615159184908110612b4f57612b4f6132e9565b60209081029190910101519015159052607f600182901c166003811115612b7857612b7861347e565b85602001518381518110612b8e57612b8e6132e9565b6020026020010151602001906003811115612bab57612bab61347e565b90816003811115612bbe57612bbe61347e565b905250858801356020870186602001518481518110612bdf57612bdf6132e9565b6020908102919091018101516040019290925296508887013590870186602001518481518110612c1157612c116132e9565b6020908102919091018101516060019290925296508887013590870186602001518481518110612c4357612c436132e9565b602090810291909101015160800191909152955050600101612b1d565b805180516040516060926129929291602001613c3c565b905290565b604080516080810182526000808252602082018190529181019190915260608101612c776040805160c0810182526000808252602080830182905282840182905260608084019290925260808301829052835190810190935282529060a082015290565b600060208284031215612cf257600080fd5b81357fffffffff0000000000000000000000000000000000000000000000000000000081168114612d2257600080fd5b9392505050565b600080600060408486031215612d3e57600080fd5b833567ffffffffffffffff811115612d5557600080fd5b84016101208187031215612d6857600080fd5b9250602084013567ffffffffffffffff811115612d8457600080fd5b8401601f81018613612d9557600080fd5b803567ffffffffffffffff811115612dac57600080fd5b866020828401011115612dbe57600080fd5b939660209190910195509293505050565b7f4e487b7100000000000000000000000000000000000000000000000000000000600052604160045260246000fd5b6040805190810167ffffffffffffffff81118282101715612e2157612e21612dcf565b60405290565b60405160a0810167ffffffffffffffff81118282101715612e2157612e21612dcf565b60405160e0810167ffffffffffffffff81118282101715612e2157612e21612dcf565b604051601f82017fffffffffffffffffffffffffffffffffffffffffffffffffffffffffffffffe016810167ffffffffffffffff81118282101715612eb457612eb4612dcf565b604052919050565b803573ffffffffffffffffffffffffffffffffffffffff81168114612ee057600080fd5b919050565b600067ffffffffffffffff821115612eff57612eff612dcf565b5060051b60200190565b80358015158114612ee057600080fd5b600060e08284031215612f2b57600080fd5b50919050565b600082601f830112612f4257600080fd5b8135612f55612f5082612ee5565b612e6d565b8082825260208201915060208360061b860101925085831115612f7757600080fd5b602085015b83811015612fba5760408188031215612f9457600080fd5b612f9c612dfe565b81358152602080830135818301529084529290920191604001612f7c565b5095945050505050565b60008060008060808587031215612fda57600080fd5b843567ffffffffffffffff811115612ff157600080fd5b85016040818803121561300357600080fd5b61300b612dfe565b61301482612ebc565b8152602082013567ffffffffffffffff81111561303057600080fd5b80830192505087601f83011261304557600080fd5b8135613053612f5082612ee5565b80828252602082019150602060a0840286010192508a83111561307557600080fd5b6020850194505b828510156130f35760a0858c03121561309457600080fd5b61309c612e27565b6130a586612f09565b81526020860135600481106130b957600080fd5b60208281019190915260408781013590830152606080880135908301526080808801359083015290835260a090950194919091019061307c565b8060208501525050508095505050602085013567ffffffffffffffff81111561311b57600080fd5b61312787828801612f19565b93505060408501359150606085013567ffffffffffffffff81111561314b57600080fd5b61315787828801612f31565b91505092959194509250565b600081518084526020840193506020830160005b828110156131a1578151805187526020908101518188015260409096019590910190600101613177565b5093949350505050565b82151581526040602082015260006131c66040830184613163565b949350505050565b600080602083850312156131e157600080fd5b823567ffffffffffffffff8111156131f857600080fd5b8301601f8101851361320957600080fd5b803567ffffffffffffffff81111561322057600080fd5b8560208260061b840101111561323557600080fd5b6020919091019590945092505050565b60006020828403121561325757600080fd5b5035919050565b60006020828403121561327057600080fd5b813560ff81168114612d2257600080fd5b60008083357fffffffffffffffffffffffffffffffffffffffffffffffffffffffffffffffe18436030181126132b657600080fd5b83018035915067ffffffffffffffff8211156132d157600080fd5b6020019150600581901b36038213156123bd57600080fd5b7f4e487b7100000000000000000000000000000000000000000000000000000000600052603260045260246000fd5b600082357fffffffffffffffffffffffffffffffffffffffffffffffffffffffffffffff2183360301811261334c57600080fd5b9190910192915050565b60006020828403121561336857600080fd5b612d2282612f09565b7f4e487b7100000000000000000000000000000000000000000000000000000000600052601160045260246000fd5b60007fffffffffffffffffffffffffffffffffffffffffffffffffffffffffffffffff82036133d1576133d1613371565b5060010190565b818103818111156101ac576101ac613371565b6000602082840312156133fd57600080fd5b612d2282612ebc565b808201808211156101ac576101ac613371565b60008083357fffffffffffffffffffffffffffffffffffffffffffffffffffffffffffffffe184360301811261344e57600080fd5b83018035915067ffffffffffffffff82111561346957600080fd5b6020019150368190038213156123bd57600080fd5b7f4e487b7100000000000000000000000000000000000000000000000000000000600052602160045260246000fd5b83815260606020820152600060a0820173ffffffffffffffffffffffffffffffffffffffff855116606084015260208501516040608085015281815180845260c086019150602083019350600092505b80831015613586578351805115158352602081015160048110613549577f4e487b7100000000000000000000000000000000000000000000000000000000600052602160045260246000fd5b806020850152506040810151604084015260608101516060840152608081015160808401525060a0820191506020840193506001830192506134fd565b50809350505050826040830152949350505050565b600080858511156135ab57600080fd5b838611156135b857600080fd5b5050820193919092039150565b60005b838110156135e05781810151838201526020016135c8565b50506000910152565b600081518084526136018160208601602086016135c5565b601f017fffffffffffffffffffffffffffffffffffffffffffffffffffffffffffffffe0169290920160200192915050565b8183528181602085013750600060208284010152600060207fffffffffffffffffffffffffffffffffffffffffffffffffffffffffffffffe0601f840116840101905092915050565b73ffffffffffffffffffffffffffffffffffffffff61369a82612ebc565b1682526020818101359083015260006040820135368390037fffffffffffffffffffffffffffffffffffffffffffffffffffffffffffffffe10181126136df57600080fd5b820160208101903567ffffffffffffffff8111156136fc57600080fd5b80360382131561370b57600080fd5b60e0604086015261372060e086018284613633565b60608581013590870152915061373a905060808401612f09565b1515608085015261374d60a08401612f09565b151560a085015260c09283013592909301919091525090565b73ffffffffffffffffffffffffffffffffffffffff841681526060602082015273ffffffffffffffffffffffffffffffffffffffff83511660608201527fffffffff000000000000000000000000000000000000000000000000000000006020840151166080820152604083015160a0820152606083015160c08201526000608084015160c060e08401526137ff6101208401826135e9565b905060a08501517fffffffffffffffffffffffffffffffffffffffffffffffffffffffffffffffa084830301610100850152805190506020825261384660208301826135e9565b915050828103604084015261385b818561367c565b9695505050505050565b60006020828403121561387757600080fd5b5051919050565b80357fffffffff0000000000000000000000000000000000000000000000000000000081169060048410156138dd577fffffffff00000000000000000000000000000000000000000000000000000000808560040360031b1b82161691505b5092915050565b602081526000612d226020830184613163565b8183823760009101908152919050565b7f4e487b7100000000000000000000000000000000000000000000000000000000600052601260045260246000fd5b60008261394557613945613907565b500490565b60ff81811683821601908111156101ac576101ac613371565b600082601f83011261397457600080fd5b813567ffffffffffffffff81111561398e5761398e612dcf565b6139bf60207fffffffffffffffffffffffffffffffffffffffffffffffffffffffffffffffe0601f84011601612e6d565b8181528460208386010111156139d457600080fd5b816020850160208301376000918101602001919091529392505050565b600060e08236031215613a0357600080fd5b613a0b612e4a565b613a1483612ebc565b815260208381013590820152604083013567ffffffffffffffff811115613a3a57600080fd5b613a4636828601613963565b60408301525060608381013590820152613a6260808401612f09565b6080820152613a7360a08401612f09565b60a082015260c092830135928101929092525090565b81810360008312801583831316838312821617156138dd576138dd613371565b600082613ab857613ab8613907565b7fffffffffffffffffffffffffffffffffffffffffffffffffffffffffffffffff83147f800000000000000000000000000000000000000000000000000000000000000083141615613b0c57613b0c613371565b500590565b8082018281126000831280158216821582161715613b3157613b31613371565b505092915050565b7fff000000000000000000000000000000000000000000000000000000000000008460f81b168152818360018301376000910160010190815292915050565b7fffffffffffffffffffffffffffffffffffffffff0000000000000000000000008860601b1681527fffffffff00000000000000000000000000000000000000000000000000000000871660148201528560188201528460388201527fffffff00000000000000000000000000000000000000000000000000000000008460e81b16605882015260008351613c1481605b8501602088016135c5565b835190830190613c2b81605b8401602088016135c5565b01605b019998505050505050505050565b7fffffff00000000000000000000000000000000000000000000000000000000008360e81b16815260008251613c798160038501602087016135c5565b91909101600301939250505056fea2646970667358221220812e742d8d532c2efa6e20089716a6ba89ebf412f0297d9b9855afa95b7c29ab64736f6c634300081b0033",
  "linkReferences": {},
  "deployedLinkReferences": {}
}