{
  "_format": "hh-sol-artifact-1",
  "contractName": "SessionManager",
  "sourceName": "src/extensions/sessions/SessionManager.sol",
  "abi": [
    {
      "inputs": [
        {
          "internalType": "address",
          "name": "target",
          "type": "address"
        }
      ],
      "name": "BlacklistedAddress",
      "type": "error"
    },
    {
      "inputs": [],
      "name": "InvalidAttestation",
      "type": "error"
    },
    {
      "inputs": [],
      "name": "InvalidBlacklist",
      "type": "error"
    },
    {
      "inputs": [],
      "name": "InvalidCallsLength",
      "type": "error"
    },
    {
      "inputs": [],
      "name": "InvalidDelegateCall",
      "type": "error"
    },
    {
      "inputs": [],
      "name": "InvalidIdentitySigner",
      "type": "error"
    },
    {
      "inputs": [],
      "name": "InvalidImplicitResult",
      "type": "error"
    },
    {
      "inputs": [],
      "name": "InvalidLimitUsageIncrement",
      "type": "error"
    },
    {
      "inputs": [
        {
          "internalType": "uint256",
          "name": "flag",
          "type": "uint256"
        }
      ],
      "name": "InvalidNodeType",
      "type": "error"
    },
    {
      "inputs": [],
      "name": "InvalidPayloadKind",
      "type": "error"
    },
    {
      "inputs": [],
      "name": "InvalidPermission",
      "type": "error"
    },
    {
      "inputs": [],
      "name": "InvalidSelfCall",
      "type": "error"
    },
    {
      "inputs": [
        {
          "internalType": "address",
          "name": "invalidSigner",
          "type": "address"
        }
      ],
      "name": "InvalidSessionSigner",
      "type": "error"
    },
    {
      "inputs": [],
      "name": "InvalidValue",
      "type": "error"
    },
    {
      "inputs": [],
      "name": "MissingPermission",
      "type": "error"
    },
    {
      "inputs": [
        {
          "internalType": "uint256",
          "name": "deadline",
          "type": "uint256"
        }
      ],
      "name": "SessionExpired",
      "type": "error"
    },
    {
      "inputs": [],
      "name": "VALUE_TRACKING_ADDRESS",
      "outputs": [
        {
          "internalType": "address",
          "name": "",
          "type": "address"
        }
      ],
      "stateMutability": "view",
      "type": "function"
    },
    {
      "inputs": [
        {
          "internalType": "address",
          "name": "wallet",
          "type": "address"
        },
        {
          "internalType": "bytes32",
          "name": "usageHash",
          "type": "bytes32"
        }
      ],
      "name": "getLimitUsage",
      "outputs": [
        {
          "internalType": "uint256",
          "name": "",
          "type": "uint256"
        }
      ],
      "stateMutability": "view",
      "type": "function"
    },
    {
      "inputs": [
        {
          "components": [
            {
              "internalType": "bytes32",
              "name": "usageHash",
              "type": "bytes32"
            },
            {
              "internalType": "uint256",
              "name": "usageAmount",
              "type": "uint256"
            }
          ],
          "internalType": "struct UsageLimit[]",
          "name": "limits",
          "type": "tuple[]"
        }
      ],
      "name": "incrementUsageLimit",
      "outputs": [],
      "stateMutability": "nonpayable",
      "type": "function"
    },
    {
      "inputs": [
        {
          "components": [
            {
              "internalType": "uint8",
              "name": "kind",
              "type": "uint8"
            },
            {
              "internalType": "bool",
              "name": "noChainId",
              "type": "bool"
            },
            {
              "components": [
                {
                  "internalType": "address",
                  "name": "to",
                  "type": "address"
                },
                {
                  "internalType": "uint256",
                  "name": "value",
                  "type": "uint256"
                },
                {
                  "internalType": "bytes",
                  "name": "data",
                  "type": "bytes"
                },
                {
                  "internalType": "uint256",
                  "name": "gasLimit",
                  "type": "uint256"
                },
                {
                  "internalType": "bool",
                  "name": "delegateCall",
                  "type": "bool"
                },
                {
                  "internalType": "bool",
                  "name": "onlyFallback",
                  "type": "bool"
                },
                {
                  "internalType": "uint256",
                  "name": "behaviorOnError",
                  "type": "uint256"
                }
              ],
              "internalType": "struct Payload.Call[]",
              "name": "calls",
              "type": "tuple[]"
            },
            {
              "internalType": "uint256",
              "name": "space",
              "type": "uint256"
            },
            {
              "internalType": "uint256",
              "name": "nonce",
              "type": "uint256"
            },
            {
              "internalType": "bytes",
              "name": "message",
              "type": "bytes"
            },
            {
              "internalType": "bytes32",
              "name": "imageHash",
              "type": "bytes32"
            },
            {
              "internalType": "bytes32",
              "name": "digest",
              "type": "bytes32"
            },
            {
              "internalType": "address[]",
              "name": "parentWallets",
              "type": "address[]"
            }
          ],
          "internalType": "struct Payload.Decoded",
          "name": "payload",
          "type": "tuple"
        },
        {
          "internalType": "bytes",
          "name": "encodedSignature",
          "type": "bytes"
        }
      ],
      "name": "recoverSapientSignature",
      "outputs": [
        {
          "internalType": "bytes32",
          "name": "",
          "type": "bytes32"
        }
      ],
      "stateMutability": "view",
      "type": "function"
    },
    {
      "inputs": [
        {
          "internalType": "bytes4",
          "name": "interfaceId",
          "type": "bytes4"
        }
      ],
      "name": "supportsInterface",
      "outputs": [
        {
          "internalType": "bool",
          "name": "",
          "type": "bool"
        }
      ],
      "stateMutability": "pure",
      "type": "function"
    },
    {
      "inputs": [
        {
          "components": [
            {
              "internalType": "address",
              "name": "target",
              "type": "address"
            },
            {
              "components": [
                {
                  "internalType": "bool",
                  "name": "cumulative",
                  "type": "bool"
                },
                {
                  "internalType": "enum ParameterOperation",
                  "name": "operation",
                  "type": "uint8"
                },
                {
                  "internalType": "bytes32",
                  "name": "value",
                  "type": "bytes32"
                },
                {
                  "internalType": "uint256",
                  "name": "offset",
                  "type": "uint256"
                },
                {
                  "internalType": "bytes32",
                  "name": "mask",
                  "type": "bytes32"
                }
              ],
              "internalType": "struct ParameterRule[]",
              "name": "rules",
              "type": "tuple[]"
            }
          ],
          "internalType": "struct Permission",
          "name": "permission",
          "type": "tuple"
        },
        {
          "components": [
            {
              "internalType": "address",
              "name": "to",
              "type": "address"
            },
            {
              "internalType": "uint256",
              "name": "value",
              "type": "uint256"
            },
            {
              "internalType": "bytes",
              "name": "data",
              "type": "bytes"
            },
            {
              "internalType": "uint256",
              "name": "gasLimit",
              "type": "uint256"
            },
            {
              "internalType": "bool",
              "name": "delegateCall",
              "type": "bool"
            },
            {
              "internalType": "bool",
              "name": "onlyFallback",
              "type": "bool"
            },
            {
              "internalType": "uint256",
              "name": "behaviorOnError",
              "type": "uint256"
            }
          ],
          "internalType": "struct Payload.Call",
          "name": "call",
          "type": "tuple"
        },
        {
          "internalType": "address",
          "name": "wallet",
          "type": "address"
        },
        {
          "internalType": "address",
          "name": "signer",
          "type": "address"
        },
        {
          "components": [
            {
              "internalType": "bytes32",
              "name": "usageHash",
              "type": "bytes32"
            },
            {
              "internalType": "uint256",
              "name": "usageAmount",
              "type": "uint256"
            }
          ],
          "internalType": "struct UsageLimit[]",
          "name": "usageLimits",
          "type": "tuple[]"
        }
      ],
      "name": "validatePermission",
      "outputs": [
        {
          "internalType": "bool",
          "name": "",
          "type": "bool"
        },
        {
          "components": [
            {
              "internalType": "bytes32",
              "name": "usageHash",
              "type": "bytes32"
            },
            {
              "internalType": "uint256",
              "name": "usageAmount",
              "type": "uint256"
            }
          ],
          "internalType": "struct UsageLimit[]",
          "name": "newUsageLimits",
          "type": "tuple[]"
        }
      ],
      "stateMutability": "view",
      "type": "function"
    }
  ],
  "bytecode": "0x6080604052348015600f57600080fd5b50613ca38061001f6000396000f3fe608060405234801561001057600080fd5b50600436106100725760003560e01c8063313dade711610050578063313dade71461010157806342de141814610122578063f916f3b21461013757600080fd5b806301ffc9a71461007757806313792a4a1461009f57806323b3713e146100c0575b600080fd5b61008a610085366004612c87565b610177565b60405190151581526020015b60405180910390f35b6100b26100ad366004612cd0565b6101d3565b604051908152602001610096565b6100b26100ce366004612d9f565b73ffffffffffffffffffffffffffffffffffffffff91909116600090815260208181526040808320938352929052205490565b61011461010f366004612f95565b61074d565b604051610096929190613194565b6101356101303660046131b7565b610b4b565b005b61015273eeeeeeeeeeeeeeeeeeeeeeeeeeeeeeeeeeeeeeee81565b60405173ffffffffffffffffffffffffffffffffffffffff9091168152602001610096565b60007fffffffff0000000000000000000000000000000000000000000000000000000082167f13792a4a0000000000000000000000000000000000000000000000000000000014806101cd57506101cd82610c78565b92915050565b6000806101e3602086018661322e565b60ff161461021d576040517f7205212000000000000000000000000000000000000000000000000000000000815260040160405180910390fd5b61022a6040850185613251565b9050600003610265576040517f542f0af500000000000000000000000000000000000000000000000000000000815260040160405180910390fd5b6000610272858585610d10565b90503360006102846040880188613251565b905067ffffffffffffffff81111561029e5761029e612dc9565b60405190808252806020026020018201604052801561030957816020015b6102f66040518060600160405280600073ffffffffffffffffffffffffffffffffffffffff16815260200160608152602001600081525090565b8152602001906001900390816102bc5790505b50905060005b61031c6040890189613251565b90508110156105b0573661033360408a018a613251565b83818110610343576103436132b9565b905060200281019061035591906132e8565b905061036760a0820160808301613326565b1561039e576040517faa25f2ad00000000000000000000000000000000000000000000000000000000815260040160405180910390fd5b6000856080015183815181106103b6576103b66132b9565b602002602001015190508060000151156103e8576103e38286836020015184606001518a6040015161126f565b6105a6565b6104226040518060600160405280600073ffffffffffffffffffffffffffffffffffffffff16815260200160608152602001600081525090565b60005b855181101561056857600073ffffffffffffffffffffffffffffffffffffffff16868281518110610458576104586132b9565b60200260200101516000015173ffffffffffffffffffffffffffffffffffffffff16036104eb5760208381015173ffffffffffffffffffffffffffffffffffffffff168352604080516000808252928101909152906104d9565b60408051808201909152600080825260208201528152602001906001900390816104b25790505b50602083015260006040830152610568565b826020015173ffffffffffffffffffffffffffffffffffffffff16868281518110610518576105186132b9565b60200260200101516000015173ffffffffffffffffffffffffffffffffffffffff160361056057858181518110610551576105516132b9565b60200260200101519150610568565b600101610425565b6105838c868986602001518c6060015188604001518861150c565b915081868281518110610598576105986132b9565b602002602001018190525050505b505060010161030f565b506000815167ffffffffffffffff8111156105cd576105cd612dc9565b60405190808252806020026020018201604052801561063857816020015b6106256040518060600160405280600073ffffffffffffffffffffffffffffffffffffffff16815260200160608152602001600081525090565b8152602001906001900390816105eb5790505b5090506000805b83518110156106e557600084828151811061065c5761065c6132b9565b60200260200101516020015151118061069257506000848281518110610684576106846132b9565b602002602001015160400151115b156106dd578381815181106106a9576106a96132b9565b60200260200101518383815181106106c3576106c36132b9565b602002602001018190525081806106d990613370565b9250505b60010161063f565b50808252366106f760408b018b613251565b600161070660408e018e613251565b6107119291506133a8565b818110610720576107206132b9565b905060200281019061073291906132e8565b905061073e818461195f565b50509251979650505050505050565b6000606061075e60208701876133bb565b73ffffffffffffffffffffffffffffffffffffffff16876000015173ffffffffffffffffffffffffffffffffffffffff161461079f57506000905081610b41565b86602001515183516107b191906133d6565b67ffffffffffffffff8111156107c9576107c9612dc9565b60405190808252806020026020018201604052801561080e57816020015b60408051808201909152600080825260208201528152602001906001900390816107e75790505b50905060005b835181101561085c5783818151811061082f5761082f6132b9565b6020026020010151828281518110610849576108496132b9565b6020908102919091010152600101610814565b50825160005b886020015151811015610b3957600089602001518281518110610887576108876132b9565b6020026020010151905060006108b182606001518b80604001906108ab91906133e9565b50013590565b608083015183519116915015610a485760405181906000906108db908b908f90889060200161347d565b604080517fffffffffffffffffffffffffffffffffffffffffffffffffffffffffffffffe0818403018152828252805160209182012083830190925260008084529083018190529092509060005b89518110156109f5576000801b8a8281518110610948576109486132b9565b602002602001015160000151036109a157604051806040016040528085815260200160008152509150818a8281518110610984576109846132b9565b602090810291909101015261099a8160016133d6565b98506109f5565b838a82815181106109b4576109b46132b9565b602002602001015160000151036109ed578981815181106109d7576109d76132b9565b60200260200101519150816020015192506109f5565b600101610929565b5081600003610a305773ffffffffffffffffffffffffffffffffffffffff8d1660009081526020818152604080832086845290915290205491505b610a3a82856133d6565b602090910181905293505050505b600082602001516003811115610a6057610a6061344e565b03610a855781604001518114610a80576000879550955050505050610b41565b610b2f565b600382602001516003811115610a9d57610a9d61344e565b03610abe576040820151811115610a80576000879550955050505050610b41565b600182602001516003811115610ad657610ad661344e565b03610af65781604001518103610a80576000879550955050505050610b41565b600282602001516003811115610b0e57610b0e61344e565b03610b2f576040820151811015610b2f576000879550955050505050610b41565b5050600101610862565b508152600191505b9550959350505050565b3360005b82811015610c7257610baa82858584818110610b6d57610b6d6132b9565b9050604002016000013573ffffffffffffffffffffffffffffffffffffffff91909116600090815260208181526040808320938352929052205490565b848483818110610bbc57610bbc6132b9565b905060400201602001351015610bfd576040517e2a700a00000000000000000000000000000000000000000000000000000000815260040160405180910390fd5b610c6a82858584818110610c1357610c136132b9565b90506040020160000135868685818110610c2f57610c2f6132b9565b9050604002016020013573ffffffffffffffffffffffffffffffffffffffff9092166000908152602081815260408083209383529290522055565b600101610b4f565b50505050565b60007fffffffff0000000000000000000000000000000000000000000000000000000082167f13792a4a0000000000000000000000000000000000000000000000000000000014806101cd57507fffffffff0000000000000000000000000000000000000000000000000000000082167f42de1418000000000000000000000000000000000000000000000000000000001492915050565b6040805160a0810182526000808252602082018190526060928201839052828201839052608082019290925290600390843560e81c610d67868487610d5585836133d6565b92610d6293929190613581565b611d5a565b9094509150610d7681846133d6565b602085015190935073ffffffffffffffffffffffffffffffffffffffff16610dca576040517f9e5c658b00000000000000000000000000000000000000000000000000000000815260040160405180910390fd5b50600182019160609086013560f81c8067ffffffffffffffff811115610df257610df2612dc9565b604051908082528060200260200182016040528015610e6657816020015b610e536040805160c0810182526000808252602080830182905282840182905260608084019290925260808301829052835190810190935282529060a082015290565b815260200190600190039081610e105790505b50915060005b8160ff16811015610fe557610eba6040805160c0810182526000808252602080830182905282840182905260608084019290925260808301829052835190810190935282529060a082015290565b610ec589898861236b565b9650905060008080610ed88c8c8b612482565b9b50919450925090506000610eec856124d5565b6040805160008082526020820180845284905260ff86169282019290925260608101879052608081018690529192509060019060a0016020604051602081039080840390855afa158015610f44573d6000803e3d6000fd5b5050506020604051035190508b6020015173ffffffffffffffffffffffffffffffffffffffff168173ffffffffffffffffffffffffffffffffffffffff1614610fb9576040517f9e5c658b00000000000000000000000000000000000000000000000000000000815260040160405180910390fd5b505050505080848381518110610fd157610fd16132b9565b602090810291909101015250600101610e6c565b5060008160ff16118015610ff7575082155b1561102e576040517feb62520400000000000000000000000000000000000000000000000000000000815260040160405180910390fd5b50600061103e6040890189613251565b905090508067ffffffffffffffff81111561105b5761105b612dc9565b60405190808252806020026020018201604052801561109457816020015b611081612c23565b8152602001906001900390816110795790505b50608086015260005b81811015611263576110ad612c23565b8589013560f81c608081161580158352600190970196611131578451607f8216908110611106576040517fbd8ba84d00000000000000000000000000000000000000000000000000000000815260040160405180910390fd5b858160ff168151811061111b5761111b6132b9565b602002602001015183606001819052505061113b565b60ff811660408301525b506000808061114b8c8c8b612482565b809c508194508295508396505050505060006111988e80604001906111709190613251565b88818110611180576111806132b9565b905060200281019061119291906132e8565b8f6124ee565b60408051600081526020810180835283905260ff851691810191909152606081018690526080810185905290915060019060a0016020604051602081039080840390855afa1580156111ee573d6000803e3d6000fd5b50506040517fffffffffffffffffffffffffffffffffffffffffffffffffffffffffffffffe0015173ffffffffffffffffffffffffffffffffffffffff16602087015250505050608088015180518392508490811061124f5761124f6132b9565b60209081029190910101525060010161109d565b50505050509392505050565b815173ffffffffffffffffffffffffffffffffffffffff8481169116146112df576040517fc1e84ed600000000000000000000000000000000000000000000000000000000815273ffffffffffffffffffffffffffffffffffffffff841660048201526024015b60405180910390fd5b6112ef60a0860160808701613326565b15611326576040517faa25f2ad00000000000000000000000000000000000000000000000000000000815260040160405180910390fd5b6113308382612566565b1561137f576040517fd33f19e700000000000000000000000000000000000000000000000000000000815273ffffffffffffffffffffffffffffffffffffffff841660048201526024016112d6565b61139561138f60208701876133bb565b82612566565b156113f2576113a760208601866133bb565b6040517fd33f19e700000000000000000000000000000000000000000000000000000000815273ffffffffffffffffffffffffffffffffffffffff90911660048201526024016112d6565b60208501351561142e576040517faa7feadc00000000000000000000000000000000000000000000000000000000815260040160405180910390fd5b600061143d60208701876133bb565b73ffffffffffffffffffffffffffffffffffffffff1663c58ab92d8685896040518463ffffffff1660e01b81526004016114799392919061374c565b602060405180830381865afa158015611496573d6000803e3d6000fd5b505050506040513d601f19601f820116820180604052508101906114ba919061384b565b905060006114c8848761266f565b9050808214611503576040517f0881ad5d00000000000000000000000000000000000000000000000000000000815260040160405180910390fd5b50505050505050565b6115466040518060600160405280600073ffffffffffffffffffffffffffffffffffffffff16815260200160608152602001600081525090565b6115876040518060800160405280600073ffffffffffffffffffffffffffffffffffffffff1681526020016000815260200160008152602001606081525090565b60005b855181101561160c578673ffffffffffffffffffffffffffffffffffffffff168682815181106115bc576115bc6132b9565b60200260200101516000015173ffffffffffffffffffffffffffffffffffffffff1603611604578581815181106115f5576115f56132b9565b6020026020010151915061160c565b60010161158a565b50805173ffffffffffffffffffffffffffffffffffffffff16611673576040517fc1e84ed600000000000000000000000000000000000000000000000000000000815273ffffffffffffffffffffffffffffffffffffffff871660048201526024016112d6565b6040810151158015906116895750806040015142115b156116c85780604001516040517fb1bbfdd50000000000000000000000000000000000000000000000000000000081526004016112d691815260200190565b366116d660408b018b613251565b8a8181106116e6576116e66132b9565b90506020028101906116f891906132e8565b905061170a60a0820160808301613326565b15611741576040517faa25f2ad00000000000000000000000000000000000000000000000000000000815260040160405180910390fd5b3061174f60208301836133bb565b73ffffffffffffffffffffffffffffffffffffffff160361182a57600061177960408301836133e9565b61178891600491600091613581565b61179191613864565b90506000826020013511806117e857507fffffffff0000000000000000000000000000000000000000000000000000000081167f42de14180000000000000000000000000000000000000000000000000000000014155b1561181f576040517f540733ea00000000000000000000000000000000000000000000000000000000815260040160405180910390fd5b849350505050611954565b8160600151518560ff161061186b576040517f3f904dc000000000000000000000000000000000000000000000000000000000815260040160405180910390fd5b600082606001518660ff1681518110611886576118866132b9565b602002602001015190506000806118a483858d8d8b6020015161074d565b91509150816118df576040517f868a64de00000000000000000000000000000000000000000000000000000000815260040160405180910390fd5b6020808801829052840135156119095783602001358760400181815161190591906133d6565b9052505b84602001518760400151111561194b576040517faa7feadc00000000000000000000000000000000000000000000000000000000815260040160405180910390fd5b86955050505050505b979650505050505050565b805115611d56573061197460208401846133bb565b73ffffffffffffffffffffffffffffffffffffffff1614158061199c575060c0820135600114155b156119d2576040517e2a700a00000000000000000000000000000000000000000000000000000000815260040160405180910390fd5b6000805b8251811015611a47578281815181106119f1576119f16132b9565b6020026020010151602001515182611a0991906133d6565b91506000838281518110611a1f57611a1f6132b9565b6020026020010151604001511115611a3f5781611a3b81613370565b9250505b6001016119d6565b5060008167ffffffffffffffff811115611a6357611a63612dc9565b604051908082528060200260200182016040528015611aa857816020015b6040805180820190915260008082526020820152815260200190600190039081611a815790505b5090506000805b8451811015611c4f5760005b858281518110611acd57611acd6132b9565b60200260200101516020015151811015611b4957858281518110611af357611af36132b9565b6020026020010151602001518181518110611b1057611b106132b9565b6020026020010151848480611b2490613370565b955081518110611b3657611b366132b9565b6020908102919091010152600101611abb565b506000858281518110611b5e57611b5e6132b9565b6020026020010151604001511115611c47576040518060400160405280868381518110611b8d57611b8d6132b9565b60200260200101516000015173eeeeeeeeeeeeeeeeeeeeeeeeeeeeeeeeeeeeeeee604051602001611be192919073ffffffffffffffffffffffffffffffffffffffff92831681529116602082015260400190565b604051602081830303815290604052805190602001208152602001868381518110611c0e57611c0e6132b9565b602002602001015160400151815250838380611c2990613370565b945081518110611c3b57611c3b6132b9565b60200260200101819052505b600101611aaf565b5060006342de141860e01b83604051602401611c6b91906138ca565b604080517fffffffffffffffffffffffffffffffffffffffffffffffffffffffffffffffe08184030181529181526020820180517bffffffffffffffffffffffffffffffffffffffffffffffffffffffff167fffffffff00000000000000000000000000000000000000000000000000000000909416939093178352815190922090925090600090611cff908901896133e9565b604051611d0d9291906138dd565b60405180910390209050818114611d4f576040517e2a700a00000000000000000000000000000000000000000000000000000000815260040160405180910390fd5b5050505050505b5050565b6040805160a08101825260008082526020820152606091810182905281810182905260808101919091526000808080611d9460568761391c565b90508067ffffffffffffffff811115611daf57611daf612dc9565b604051908082528060200260200182016040528015611e2157816020015b611e0e6040518060800160405280600073ffffffffffffffffffffffffffffffffffffffff1681526020016000815260200160008152602001606081525090565b815260200190600190039081611dcd5790505b506060860152505b8482101561235857600182019186013560f881901c9060fc1c80611f2f57611e886040518060800160405280600073ffffffffffffffffffffffffffffffffffffffff1681526020016000815260200160008152602001606081525090565b888501803560601c8252601481013560208301526034013560408201526054850194611eb58a8a8861270d565b606084019190915295506000611ed5611ed088848d8f613581565b6127cd565b8951909150611ee45780611ef5565b885160009081526020829052604090205b8952506060880151829086611f0981613370565b975081518110611f1b57611f1b6132b9565b602002602001018190525050505050611e29565b60018103611f68578551602085019489013590611f4c5780611f5d565b865160009081526020829052604090205b875250611e29915050565b6002810361215157600f8216848101946001600890920291821b7fffffffffffffffffffffffffffffffffffffffffffffffffffffffffffffffff01908a0135610100929092039190911c166000611fc082876133d6565b9050600080611fda8c8c8a908692610d6293929190613581565b91509150829750801561202e57881561201f576040517feb62520400000000000000000000000000000000000000000000000000000000815260040160405180910390fd5b604080830151908b0152600198505b602082015173ffffffffffffffffffffffffffffffffffffffff16156120c15760208a015173ffffffffffffffffffffffffffffffffffffffff16156120a0576040517f9e5c658b00000000000000000000000000000000000000000000000000000000815260040160405180910390fd5b60208083015173ffffffffffffffffffffffffffffffffffffffff16908b01525b60005b82606001515181101561212457826060015181815181106120e7576120e76132b9565b60200260200101518b6060015189806120ff90613370565b9a5081518110612111576121116132b9565b60209081029190910101526001016120c4565b508951612132578151612143565b895182516000918252602052604090205b8a5250611e29945050505050565b6003810361229a578415612191576040517feb62520400000000000000000000000000000000000000000000000000000000815260040160405180910390fd5b60019450600f808316908190036121af5750600284019388013560f01c5b848167ffffffffffffffff8111156121c9576121c9612dc9565b6040519080825280602002602001820160405280156121f2578160200160208202803683370190505b50604089015260005b8281101561225657868b013560601c601488018a604001518381518110612224576122246132b9565b73ffffffffffffffffffffffffffffffffffffffff9093166020938402919091019092019190915296506001016121fb565b50600061226d61226888848d8f613581565b6127e4565b895190915061227c578061228d565b885160009081526020829052604090205b895250611e299350505050565b6004810361232357602086015173ffffffffffffffffffffffffffffffffffffffff16156122f4576040517f9e5c658b00000000000000000000000000000000000000000000000000000000815260040160405180910390fd5b8784013560601c60208701819052601490940193600090612314906127fc565b8751909150611f4c5780611f5d565b6040517f0ad99790000000000000000000000000000000000000000000000000000000008152600481018290526024016112d6565b60608401805191825252505b9250929050565b6123ae6040805160c0810182526000808252602080830182905282840182905260608084019290925260808301829052835190810190935282529060a082015290565b8382018035606090811c83527fffffffff00000000000000000000000000000000000000000000000000000000601483013516602084015260188201356040840152603882013590830152605b8301906058013560e81c85828661241284836133d6565b9261241f93929190613581565b8080601f016020809104026020016040519081016040528093929190818152602001838380828437600092019190915250505050608084015261246281836133d6565b915061246f868684612875565b60a0850191909152915050935093915050565b828101803590602001357f7fffffffffffffffffffffffffffffffffffffffffffffffffffffffffffffff811690600090604085019060ff81901c6124c881601b613930565b9350505093509350935093565b60006124e0826128f5565b805190602001209050919050565b60006125006040830160208401613326565b61250a574661250d565b60005b60608301356080840135612528612523876139d7565b61294f565b6040805160208101959095528401929092526060830152608082015260a0015b60405160208183030381529060405280519060200120905092915050565b6000806000905060006001845161257d9190613a6f565b90505b80821361266457600060026125958484613a6f565b61259f9190613a8f565b6125a99084613af7565b905060008582815181106125bf576125bf6132b9565b602002602001015190508673ffffffffffffffffffffffffffffffffffffffff168173ffffffffffffffffffffffffffffffffffffffff16036126095760019450505050506101cd565b8673ffffffffffffffffffffffffffffffffffffffff168173ffffffffffffffffffffffffffffffffffffffff16101561264f57612648826001613af7565b935061265d565b61265a600183613a6f565b92505b5050612580565b506000949350505050565b6040517f616363657074496d706c696369745265717565737400000000000000000000006020820152600090603501604051602081830303815290604052805190602001208284606001518560400151604051602001612548949392919093845260609290921b7fffffffffffffffffffffffffffffffffffffffff0000000000000000000000001660208401526034830152605482015260740190565b600181019060609060009085013560f81c8067ffffffffffffffff81111561273757612737612dc9565b60405190808252806020026020018201604052801561277d57816020015b6040805180820190915260008152606060208201528152602001906001900390816127555790505b50925060005b818110156127c0576127968787876129fe565b8583815181106127a8576127a86132b9565b60209081029190910101919091529450600101612783565b5083915050935093915050565b600080838360405160200161254893929190613b1f565b60006003838360405160200161254893929190613b1f565b6040517f040000000000000000000000000000000000000000000000000000000000000060208201527fffffffffffffffffffffffffffffffffffffffff000000000000000000000000606083901b1660218201526000906035015b604051602081830303815290604052805190602001209050919050565b604080516020810190915260608152600382018483013560e81c85828661289c84836133d6565b926128a993929190613581565b8080601f0160208091040260200160405190810160405280939291908181526020018383808284376000920191909152505050908452506128ea81836133d6565b915050935093915050565b6060816000015182602001518360400151846060015185608001515186608001516129238860a00151612c07565b6040516020016129399796959493929190613b5e565b6040516020818303038152906040529050919050565b60007f0603985259a953da1f65a522f589c17bd1d0117ec1d3abb7c0788aef251ef43782600001518360200151846040015180519060200120856060015186608001518760a001518860c0015160405160200161285898979695949392919097885273ffffffffffffffffffffffffffffffffffffffff969096166020880152604087019490945260608601929092526080850152151560a0840152151560c083015260e08201526101000190565b60408051808201909152606060208201819052848301803590911c82526015909201916000906014013560f81c8067ffffffffffffffff811115612a4457612a44612dc9565b604051908082528060200260200182016040528015612abb57816020015b6040805160a0810182526000808252602080830182905292820181905260608201819052608082015282527fffffffffffffffffffffffffffffffffffffffffffffffffffffffffffffffff909201910181612a625790505b50602084015260005b818110156127c057602084015180516001808801978a013560f81c9290831615159184908110612af657612af66132b9565b60209081029190910101519015159052607f600182901c166003811115612b1f57612b1f61344e565b85602001518381518110612b3557612b356132b9565b6020026020010151602001906003811115612b5257612b5261344e565b90816003811115612b6557612b6561344e565b905250858801356020870186602001518481518110612b8657612b866132b9565b6020908102919091018101516040019290925296508887013590870186602001518481518110612bb857612bb86132b9565b6020908102919091018101516060019290925296508887013590870186602001518481518110612bea57612bea6132b9565b602090810291909101015160800191909152955050600101612ac4565b805180516040516060926129399291602001613c22565b905290565b604080516080810182526000808252602082018190529181019190915260608101612c1e6040805160c0810182526000808252602080830182905282840182905260608084019290925260808301829052835190810190935282529060a082015290565b600060208284031215612c9957600080fd5b81357fffffffff0000000000000000000000000000000000000000000000000000000081168114612cc957600080fd5b9392505050565b600080600060408486031215612ce557600080fd5b833567ffffffffffffffff811115612cfc57600080fd5b84016101208187031215612d0f57600080fd5b9250602084013567ffffffffffffffff811115612d2b57600080fd5b8401601f81018613612d3c57600080fd5b803567ffffffffffffffff811115612d5357600080fd5b866020828401011115612d6557600080fd5b939660209190910195509293505050565b803573ffffffffffffffffffffffffffffffffffffffff81168114612d9a57600080fd5b919050565b60008060408385031215612db257600080fd5b612dbb83612d76565b946020939093013593505050565b7f4e487b7100000000000000000000000000000000000000000000000000000000600052604160045260246000fd5b6040805190810167ffffffffffffffff81118282101715612e1b57612e1b612dc9565b60405290565b60405160a0810167ffffffffffffffff81118282101715612e1b57612e1b612dc9565b60405160e0810167ffffffffffffffff81118282101715612e1b57612e1b612dc9565b604051601f82017fffffffffffffffffffffffffffffffffffffffffffffffffffffffffffffffe016810167ffffffffffffffff81118282101715612eae57612eae612dc9565b604052919050565b600067ffffffffffffffff821115612ed057612ed0612dc9565b5060051b60200190565b80358015158114612d9a57600080fd5b600060e08284031215612efc57600080fd5b50919050565b600082601f830112612f1357600080fd5b8135612f26612f2182612eb6565b612e67565b8082825260208201915060208360061b860101925085831115612f4857600080fd5b602085015b83811015612f8b5760408188031215612f6557600080fd5b612f6d612df8565b81358152602080830135818301529084529290920191604001612f4d565b5095945050505050565b600080600080600060a08688031215612fad57600080fd5b853567ffffffffffffffff811115612fc457600080fd5b860160408189031215612fd657600080fd5b612fde612df8565b612fe782612d76565b8152602082013567ffffffffffffffff81111561300357600080fd5b80830192505088601f83011261301857600080fd5b8135613026612f2182612eb6565b80828252602082019150602060a0840286010192508b83111561304857600080fd5b6020850194505b828510156130c65760a0858d03121561306757600080fd5b61306f612e21565b61307886612eda565b815260208601356004811061308c57600080fd5b60208281019190915260408781013590830152606080880135908301526080808801359083015290835260a090950194919091019061304f565b8060208501525050508096505050602086013567ffffffffffffffff8111156130ee57600080fd5b6130fa88828901612eea565b94505061310960408701612d76565b925061311760608701612d76565b9150608086013567ffffffffffffffff81111561313357600080fd5b61313f88828901612f02565b9150509295509295909350565b600081518084526020840193506020830160005b8281101561318a578151805187526020908101518188015260409096019590910190600101613160565b5093949350505050565b82151581526040602082015260006131af604083018461314c565b949350505050565b600080602083850312156131ca57600080fd5b823567ffffffffffffffff8111156131e157600080fd5b8301601f810185136131f257600080fd5b803567ffffffffffffffff81111561320957600080fd5b8560208260061b840101111561321e57600080fd5b6020919091019590945092505050565b60006020828403121561324057600080fd5b813560ff81168114612cc957600080fd5b60008083357fffffffffffffffffffffffffffffffffffffffffffffffffffffffffffffffe184360301811261328657600080fd5b83018035915067ffffffffffffffff8211156132a157600080fd5b6020019150600581901b360382131561236457600080fd5b7f4e487b7100000000000000000000000000000000000000000000000000000000600052603260045260246000fd5b600082357fffffffffffffffffffffffffffffffffffffffffffffffffffffffffffffff2183360301811261331c57600080fd5b9190910192915050565b60006020828403121561333857600080fd5b612cc982612eda565b7f4e487b7100000000000000000000000000000000000000000000000000000000600052601160045260246000fd5b60007fffffffffffffffffffffffffffffffffffffffffffffffffffffffffffffffff82036133a1576133a1613341565b5060010190565b818103818111156101cd576101cd613341565b6000602082840312156133cd57600080fd5b612cc982612d76565b808201808211156101cd576101cd613341565b60008083357fffffffffffffffffffffffffffffffffffffffffffffffffffffffffffffffe184360301811261341e57600080fd5b83018035915067ffffffffffffffff82111561343957600080fd5b60200191503681900382131561236457600080fd5b7f4e487b7100000000000000000000000000000000000000000000000000000000600052602160045260246000fd5b73ffffffffffffffffffffffffffffffffffffffff8416815260606020820152600060a0820173ffffffffffffffffffffffffffffffffffffffff855116606084015260208501516040608085015281815180845260c086019150602083019350600092505b8083101561356c57835180511515835260208101516004811061352f577f4e487b7100000000000000000000000000000000000000000000000000000000600052602160045260246000fd5b806020850152506040810151604084015260608101516060840152608081015160808401525060a0820191506020840193506001830192506134e3565b50809350505050826040830152949350505050565b6000808585111561359157600080fd5b8386111561359e57600080fd5b5050820193919092039150565b60005b838110156135c65781810151838201526020016135ae565b50506000910152565b600081518084526135e78160208601602086016135ab565b601f017fffffffffffffffffffffffffffffffffffffffffffffffffffffffffffffffe0169290920160200192915050565b8183528181602085013750600060208284010152600060207fffffffffffffffffffffffffffffffffffffffffffffffffffffffffffffffe0601f840116840101905092915050565b73ffffffffffffffffffffffffffffffffffffffff61368082612d76565b1682526020818101359083015260006040820135368390037fffffffffffffffffffffffffffffffffffffffffffffffffffffffffffffffe10181126136c557600080fd5b820160208101903567ffffffffffffffff8111156136e257600080fd5b8036038213156136f157600080fd5b60e0604086015261370660e086018284613619565b606085810135908701529150613720905060808401612eda565b1515608085015261373360a08401612eda565b151560a085015260c09283013592909301919091525090565b73ffffffffffffffffffffffffffffffffffffffff841681526060602082015273ffffffffffffffffffffffffffffffffffffffff83511660608201527fffffffff000000000000000000000000000000000000000000000000000000006020840151166080820152604083015160a0820152606083015160c08201526000608084015160c060e08401526137e56101208401826135cf565b905060a08501517fffffffffffffffffffffffffffffffffffffffffffffffffffffffffffffffa084830301610100850152805190506020825261382c60208301826135cf565b91505082810360408401526138418185613662565b9695505050505050565b60006020828403121561385d57600080fd5b5051919050565b80357fffffffff0000000000000000000000000000000000000000000000000000000081169060048410156138c3577fffffffff00000000000000000000000000000000000000000000000000000000808560040360031b1b82161691505b5092915050565b602081526000612cc9602083018461314c565b8183823760009101908152919050565b7f4e487b7100000000000000000000000000000000000000000000000000000000600052601260045260246000fd5b60008261392b5761392b6138ed565b500490565b60ff81811683821601908111156101cd576101cd613341565b600082601f83011261395a57600080fd5b813567ffffffffffffffff81111561397457613974612dc9565b6139a560207fffffffffffffffffffffffffffffffffffffffffffffffffffffffffffffffe0601f84011601612e67565b8181528460208386010111156139ba57600080fd5b816020850160208301376000918101602001919091529392505050565b600060e082360312156139e957600080fd5b6139f1612e44565b6139fa83612d76565b815260208381013590820152604083013567ffffffffffffffff811115613a2057600080fd5b613a2c36828601613949565b60408301525060608381013590820152613a4860808401612eda565b6080820152613a5960a08401612eda565b60a082015260c092830135928101929092525090565b81810360008312801583831316838312821617156138c3576138c3613341565b600082613a9e57613a9e6138ed565b7fffffffffffffffffffffffffffffffffffffffffffffffffffffffffffffffff83147f800000000000000000000000000000000000000000000000000000000000000083141615613af257613af2613341565b500590565b8082018281126000831280158216821582161715613b1757613b17613341565b505092915050565b7fff000000000000000000000000000000000000000000000000000000000000008460f81b168152818360018301376000910160010190815292915050565b7fffffffffffffffffffffffffffffffffffffffff0000000000000000000000008860601b1681527fffffffff00000000000000000000000000000000000000000000000000000000871660148201528560188201528460388201527fffffff00000000000000000000000000000000000000000000000000000000008460e81b16605882015260008351613bfa81605b8501602088016135ab565b835190830190613c1181605b8401602088016135ab565b01605b019998505050505050505050565b7fffffff00000000000000000000000000000000000000000000000000000000008360e81b16815260008251613c5f8160038501602087016135ab565b91909101600301939250505056fea26469706673582212204f84e231d3bc870fa7a57b5f2c198a25ba59284a3e4e0e6f58415837bd2db27764736f6c634300081b0033",
  "linkReferences": {},
  "deployedLinkReferences": {}
}