{"abi":[{"type":"function","name":"acceptImplicitRequest","inputs":[{"name":"wallet","type":"address","internalType":"address"},{"name":"attestation","type":"tuple","internalType":"struct Attestation","components":[{"name":"approvedSigner","type":"address","internalType":"address"},{"name":"identityType","type":"bytes4","internalType":"bytes4"},{"name":"issuerHash","type":"bytes32","internalType":"bytes32"},{"name":"audienceHash","type":"bytes32","internalType":"bytes32"},{"name":"applicationData","type":"bytes","internalType":"bytes"},{"name":"authData","type":"tuple","internalType":"struct AuthData","components":[{"name":"redirectUrl","type":"string","internalType":"string"},{"name":"issuedAt","type":"uint64","internalType":"uint64"}]}]},{"name":"call","type":"tuple","internalType":"struct Payload.Call","components":[{"name":"to","type":"address","internalType":"address"},{"name":"value","type":"uint256","internalType":"uint256"},{"name":"data","type":"bytes","internalType":"bytes"},{"name":"gasLimit","type":"uint256","internalType":"uint256"},{"name":"delegateCall","type":"bool","internalType":"bool"},{"name":"onlyFallback","type":"bool","internalType":"bool"},{"name":"behaviorOnError","type":"uint256","internalType":"uint256"}]}],"outputs":[{"name":"","type":"bytes32","internalType":"bytes32"}],"stateMutability":"pure"},{"type":"function","name":"explicitEmit","inputs":[],"outputs":[],"stateMutability":"nonpayable"},{"type":"function","name":"implicitEmit","inputs":[],"outputs":[],"stateMutability":"nonpayable"},{"type":"event","name":"Explicit","inputs":[{"name":"sender","type":"address","indexed":false,"internalType":"address"}],"anonymous":false},{"type":"event","name":"Implicit","inputs":[{"name":"sender","type":"address","indexed":false,"internalType":"address"}],"anonymous":false},{"type":"error","name":"InvalidCall","inputs":[{"name":"reason","type":"string","internalType":"string"}]}],"bytecode":{"object":"0x608080604052346015576105b6908161001b8239f35b600080fdfe608080604052600436101561001357600080fd5b60003560e01c9081630c0340fc14610188575080639d043a66146100a05763eca9b31a1461004057600080fd5b3461009b5760007ffffffffffffffffffffffffffffffffffffffffffffffffffffffffffffffffc36011261009b577f721b5e17196ee8f054e1c6084536bdfe64f23e747e9bb98627db351b3286f7bf6020604051338152a1005b600080fd5b3461009b5760607ffffffffffffffffffffffffffffffffffffffffffffffffffffffffffffffffc36011261009b5760043573ffffffffffffffffffffffffffffffffffffffff8116810361009b5760243567ffffffffffffffff811161009b5760c07ffffffffffffffffffffffffffffffffffffffffffffffffffffffffffffffffc823603011261009b576044359067ffffffffffffffff821161009b5760e07ffffffffffffffffffffffffffffffffffffffffffffffffffffffffffffffffc833603011261009b57602092610180926004019160040190610307565b604051908152f35b3461009b5760007ffffffffffffffffffffffffffffffffffffffffffffffffffffffffffffffffc36011261009b5760207fed94f157df493252d8e5700fc6b9bf2466c66387b3c1a19816847dfa9f31005791338152a1005b9035907fffffffffffffffffffffffffffffffffffffffffffffffffffffffffffffffe18136030182121561009b570180359067ffffffffffffffff821161009b5760200191813603831361009b57565b90601f7fffffffffffffffffffffffffffffffffffffffffffffffffffffffffffffffe0910116810190811067ffffffffffffffff82111761027357604052565b7f4e487b7100000000000000000000000000000000000000000000000000000000600052604160045260246000fd5b92919267ffffffffffffffff821161027357604051916102ea601f82017fffffffffffffffffffffffffffffffffffffffffffffffffffffffffffffffe01660200184610232565b82948184528183011161009b578281602093846000960137010152565b909160408101600461031982846101e1565b90501491821592610522575b505061051b5760c08236031261009b5760405160c0810181811067ffffffffffffffff82111761027357604052823573ffffffffffffffffffffffffffffffffffffffff8116810361009b57815260208301357fffffffff000000000000000000000000000000000000000000000000000000008116810361009b576020820152604081019060408401358252606081019360608101358552608081013567ffffffffffffffff811161009b57810136601f8201121561009b576103f09036906020813591016102a2565b608083015260a08101359067ffffffffffffffff821161009b57019060408236031261009b57604051916040830183811067ffffffffffffffff82111761027357604052803567ffffffffffffffff811161009b5781019036601f8301121561009b57610465602092369084813591016102a2565b845201359067ffffffffffffffff8216820361009b5760a0916020840152015260405160208101907f616363657074496d706c696369745265717565737400000000000000000000008252601581526104bf603582610232565b51902092519051907fffffffffffffffffffffffffffffffffffffffff000000000000000000000000604051936020850195865260601b1660408401526054830152607482015260748152610515609482610232565b51902090565b5050600090565b61052c92506101e1565b60041161009b57357fffffffff00000000000000000000000000000000000000000000000000000000167feca9b31a000000000000000000000000000000000000000000000000000000001415388061032556fea264697066735822122082bd1de826948d04c2f7a23f8893df542a018814ee6176e441382d98347208ef64736f6c634300081c0033","linkReferences":{}},"methodIdentifiers":{"acceptImplicitRequest(address,(address,bytes4,bytes32,bytes32,bytes,(string,uint64)),(address,uint256,bytes,uint256,bool,bool,uint256))":"9d043a66","explicitEmit()":"0c0340fc","implicitEmit()":"eca9b31a"},"id":117}