{
  "_format": "hh-sol-artifact-1",
  "contractName": "SessionSig",
  "sourceName": "src/extensions/sessions/SessionSig.sol",
  "abi": [
    {
      "inputs": [
        {
          "components": [
            {
              "internalType": "address",
              "name": "to",
              "type": "address"
            },
            {
              "internalType": "uint256",
              "name": "value",
              "type": "uint256"
            },
            {
              "internalType": "bytes",
              "name": "data",
              "type": "bytes"
            },
            {
              "internalType": "uint256",
              "name": "gasLimit",
              "type": "uint256"
            },
            {
              "internalType": "bool",
              "name": "delegateCall",
              "type": "bool"
            },
            {
              "internalType": "bool",
              "name": "onlyFallback",
              "type": "bool"
            },
            {
              "internalType": "uint256",
              "name": "behaviorOnError",
              "type": "uint256"
            }
          ],
          "internalType": "struct Payload.Call",
          "name": "call",
          "type": "tuple"
        },
        {
          "components": [
            {
              "internalType": "uint8",
              "name": "kind",
              "type": "uint8"
            },
            {
              "internalType": "bool",
              "name": "noChainId",
              "type": "bool"
            },
            {
              "components": [
                {
                  "internalType": "address",
                  "name": "to",
                  "type": "address"
                },
                {
                  "internalType": "uint256",
                  "name": "value",
                  "type": "uint256"
                },
                {
                  "internalType": "bytes",
                  "name": "data",
                  "type": "bytes"
                },
                {
                  "internalType": "uint256",
                  "name": "gasLimit",
                  "type": "uint256"
                },
                {
                  "internalType": "bool",
                  "name": "delegateCall",
                  "type": "bool"
                },
                {
                  "internalType": "bool",
                  "name": "onlyFallback",
                  "type": "bool"
                },
                {
                  "internalType": "uint256",
                  "name": "behaviorOnError",
                  "type": "uint256"
                }
              ],
              "internalType": "struct Payload.Call[]",
              "name": "calls",
              "type": "tuple[]"
            },
            {
              "internalType": "uint256",
              "name": "space",
              "type": "uint256"
            },
            {
              "internalType": "uint256",
              "name": "nonce",
              "type": "uint256"
            },
            {
              "internalType": "bytes",
              "name": "message",
              "type": "bytes"
            },
            {
              "internalType": "bytes32",
              "name": "imageHash",
              "type": "bytes32"
            },
            {
              "internalType": "bytes32",
              "name": "digest",
              "type": "bytes32"
            },
            {
              "internalType": "address[]",
              "name": "parentWallets",
              "type": "address[]"
            }
          ],
          "internalType": "struct Payload.Decoded",
          "name": "payload",
          "type": "tuple"
        }
      ],
      "name": "hashCallWithReplayProtection",
      "outputs": [
        {
          "internalType": "bytes32",
          "name": "callHash",
          "type": "bytes32"
        }
      ],
      "stateMutability": "view",
      "type": "function"
    }
  ],
  "bytecode": "0x610443610039600b82828239805160001a607314602c57634e487b7160e01b600052600060045260246000fd5b30600052607381538281f3fe73000000000000000000000000000000000000000030146080604052600436106100355760003560e01c806391195a2a1461003a575b600080fd5b61004d61004836600461019f565b61005f565b60405190815260200160405180910390f35b6000610071604083016020840161022a565b61007b574661007e565b60005b6060830135608084013561009961009487610375565b6100d6565b6040805160208101959095528401929092526060830152608082015260a00160405160208183030381529060405280519060200120905092915050565b80516020808301516040808501518051908401206060860151608087015160a088015160c08901519451600098610182987f0603985259a953da1f65a522f589c17bd1d0117ec1d3abb7c0788aef251ef4379891979196959493920197885273ffffffffffffffffffffffffffffffffffffffff969096166020880152604087019490945260608601929092526080850152151560a0840152151560c083015260e08201526101000190565b604051602081830303815290604052805190602001209050919050565b600080604083850312156101b257600080fd5b823567ffffffffffffffff8111156101c957600080fd5b830160e081860312156101db57600080fd5b9150602083013567ffffffffffffffff8111156101f757600080fd5b8301610120818603121561020a57600080fd5b809150509250929050565b8035801515811461022557600080fd5b919050565b60006020828403121561023c57600080fd5b61024582610215565b9392505050565b7f4e487b7100000000000000000000000000000000000000000000000000000000600052604160045260246000fd5b60405160e0810167ffffffffffffffff8111828210171561029e5761029e61024c565b60405290565b803573ffffffffffffffffffffffffffffffffffffffff8116811461022557600080fd5b600082601f8301126102d957600080fd5b813567ffffffffffffffff8111156102f3576102f361024c565b604051601f82017fffffffffffffffffffffffffffffffffffffffffffffffffffffffffffffffe0908116603f0116810167ffffffffffffffff811182821017156103405761034061024c565b60405281815283820160200185101561035857600080fd5b816020850160208301376000918101602001919091529392505050565b600060e0823603121561038757600080fd5b61038f61027b565b610398836102a4565b815260208381013590820152604083013567ffffffffffffffff8111156103be57600080fd5b6103ca368286016102c8565b604083015250606083810135908201526103e660808401610215565b60808201526103f760a08401610215565b60a082015260c09283013592810192909252509056fea26469706673582212200172ea93703c9bb312c65bea8a73cda58bd8b4850fc19ba2aa860beaa0b8081464736f6c634300081c0033",
  "linkReferences": {},
  "deployedLinkReferences": {}
}