{
  "_format": "hh-sol-artifact-1",
  "contractName": "GuestModule",
  "sourceName": "contracts/modules/GuestModule.sol",
  "abi": [
    {
      "inputs": [
        {
          "internalType": "uint256",
          "name": "_space",
          "type": "uint256"
        },
        {
          "internalType": "uint256",
          "name": "_provided",
          "type": "uint256"
        },
        {
          "internalType": "uint256",
          "name": "_current",
          "type": "uint256"
        }
      ],
      "name": "BadNonce",
      "type": "error"
    },
    {
      "inputs": [
        {
          "internalType": "uint256",
          "name": "_index",
          "type": "uint256"
        }
      ],
      "name": "DelegateCallNotAllowed",
      "type": "error"
    },
    {
      "inputs": [],
      "name": "ImageHashIsZero",
      "type": "error"
    },
    {
      "inputs": [
        {
          "internalType": "bytes32",
          "name": "_hash",
          "type": "bytes32"
        },
        {
          "internalType": "address",
          "name": "_addr",
          "type": "address"
        },
        {
          "internalType": "bytes",
          "name": "_signature",
          "type": "bytes"
        }
      ],
      "name": "InvalidNestedSignature",
      "type": "error"
    },
    {
      "inputs": [
        {
          "internalType": "bytes",
          "name": "_signature",
          "type": "bytes"
        },
        {
          "internalType": "bytes32",
          "name": "_s",
          "type": "bytes32"
        }
      ],
      "name": "InvalidSValue",
      "type": "error"
    },
    {
      "inputs": [
        {
          "internalType": "bytes32",
          "name": "_hash",
          "type": "bytes32"
        },
        {
          "internalType": "bytes",
          "name": "_signature",
          "type": "bytes"
        }
      ],
      "name": "InvalidSignature",
      "type": "error"
    },
    {
      "inputs": [
        {
          "internalType": "uint256",
          "name": "_flag",
          "type": "uint256"
        }
      ],
      "name": "InvalidSignatureFlag",
      "type": "error"
    },
    {
      "inputs": [
        {
          "internalType": "bytes",
          "name": "_signature",
          "type": "bytes"
        }
      ],
      "name": "InvalidSignatureLength",
      "type": "error"
    },
    {
      "inputs": [
        {
          "internalType": "bytes1",
          "name": "_type",
          "type": "bytes1"
        }
      ],
      "name": "InvalidSignatureType",
      "type": "error"
    },
    {
      "inputs": [
        {
          "internalType": "bytes",
          "name": "_signature",
          "type": "bytes"
        },
        {
          "internalType": "uint256",
          "name": "_v",
          "type": "uint256"
        }
      ],
      "name": "InvalidVValue",
      "type": "error"
    },
    {
      "inputs": [
        {
          "internalType": "bytes",
          "name": "_signature",
          "type": "bytes"
        },
        {
          "internalType": "uint256",
          "name": "threshold",
          "type": "uint256"
        },
        {
          "internalType": "uint256",
          "name": "_weight",
          "type": "uint256"
        }
      ],
      "name": "LowWeightChainedSignature",
      "type": "error"
    },
    {
      "inputs": [
        {
          "internalType": "uint256",
          "name": "_index",
          "type": "uint256"
        },
        {
          "internalType": "uint256",
          "name": "_requested",
          "type": "uint256"
        },
        {
          "internalType": "uint256",
          "name": "_available",
          "type": "uint256"
        }
      ],
      "name": "NotEnoughGas",
      "type": "error"
    },
    {
      "inputs": [],
      "name": "NotSupported",
      "type": "error"
    },
    {
      "inputs": [],
      "name": "OnlyDelegatecall",
      "type": "error"
    },
    {
      "inputs": [
        {
          "internalType": "address",
          "name": "_sender",
          "type": "address"
        },
        {
          "internalType": "address",
          "name": "_self",
          "type": "address"
        }
      ],
      "name": "OnlySelfAuth",
      "type": "error"
    },
    {
      "inputs": [
        {
          "internalType": "bytes",
          "name": "_signature",
          "type": "bytes"
        }
      ],
      "name": "SignerIsAddress0",
      "type": "error"
    },
    {
      "inputs": [
        {
          "internalType": "bytes",
          "name": "_signature",
          "type": "bytes"
        },
        {
          "internalType": "uint256",
          "name": "_type",
          "type": "uint256"
        },
        {
          "internalType": "bool",
          "name": "_recoverMode",
          "type": "bool"
        }
      ],
      "name": "UnsupportedSignatureType",
      "type": "error"
    },
    {
      "inputs": [
        {
          "internalType": "uint256",
          "name": "_current",
          "type": "uint256"
        },
        {
          "internalType": "uint256",
          "name": "_prev",
          "type": "uint256"
        }
      ],
      "name": "WrongChainedCheckpointOrder",
      "type": "error"
    },
    {
      "anonymous": false,
      "inputs": [
        {
          "indexed": false,
          "internalType": "address",
          "name": "_contract",
          "type": "address"
        }
      ],
      "name": "CreatedContract",
      "type": "event"
    },
    {
      "anonymous": false,
      "inputs": [
        {
          "indexed": false,
          "internalType": "bytes32",
          "name": "newImageHash",
          "type": "bytes32"
        }
      ],
      "name": "ImageHashUpdated",
      "type": "event"
    },
    {
      "anonymous": false,
      "inputs": [
        {
          "indexed": false,
          "internalType": "uint256",
          "name": "_space",
          "type": "uint256"
        },
        {
          "indexed": false,
          "internalType": "uint256",
          "name": "_newNonce",
          "type": "uint256"
        }
      ],
      "name": "NonceChange",
      "type": "event"
    },
    {
      "anonymous": false,
      "inputs": [
        {
          "indexed": true,
          "internalType": "bytes32",
          "name": "_tx",
          "type": "bytes32"
        },
        {
          "indexed": false,
          "internalType": "uint256",
          "name": "_index",
          "type": "uint256"
        }
      ],
      "name": "TxExecuted",
      "type": "event"
    },
    {
      "anonymous": false,
      "inputs": [
        {
          "indexed": true,
          "internalType": "bytes32",
          "name": "_tx",
          "type": "bytes32"
        },
        {
          "indexed": false,
          "internalType": "uint256",
          "name": "_index",
          "type": "uint256"
        },
        {
          "indexed": false,
          "internalType": "bytes",
          "name": "_reason",
          "type": "bytes"
        }
      ],
      "name": "TxFailed",
      "type": "event"
    },
    {
      "inputs": [],
      "name": "SET_IMAGE_HASH_TYPE_HASH",
      "outputs": [
        {
          "internalType": "bytes32",
          "name": "",
          "type": "bytes32"
        }
      ],
      "stateMutability": "view",
      "type": "function"
    },
    {
      "inputs": [
        {
          "internalType": "bytes",
          "name": "_code",
          "type": "bytes"
        }
      ],
      "name": "createContract",
      "outputs": [
        {
          "internalType": "address",
          "name": "addr",
          "type": "address"
        }
      ],
      "stateMutability": "payable",
      "type": "function"
    },
    {
      "inputs": [
        {
          "components": [
            {
              "internalType": "bool",
              "name": "delegateCall",
              "type": "bool"
            },
            {
              "internalType": "bool",
              "name": "revertOnError",
              "type": "bool"
            },
            {
              "internalType": "uint256",
              "name": "gasLimit",
              "type": "uint256"
            },
            {
              "internalType": "address",
              "name": "target",
              "type": "address"
            },
            {
              "internalType": "uint256",
              "name": "value",
              "type": "uint256"
            },
            {
              "internalType": "bytes",
              "name": "data",
              "type": "bytes"
            }
          ],
          "internalType": "struct IModuleCalls.Transaction[]",
          "name": "_txs",
          "type": "tuple[]"
        },
        {
          "internalType": "uint256",
          "name": "",
          "type": "uint256"
        },
        {
          "internalType": "bytes",
          "name": "",
          "type": "bytes"
        }
      ],
      "name": "execute",
      "outputs": [],
      "stateMutability": "nonpayable",
      "type": "function"
    },
    {
      "inputs": [
        {
          "internalType": "bytes32",
          "name": "_hash",
          "type": "bytes32"
        },
        {
          "internalType": "bytes",
          "name": "_signatures",
          "type": "bytes"
        }
      ],
      "name": "isValidSignature",
      "outputs": [
        {
          "internalType": "bytes4",
          "name": "",
          "type": "bytes4"
        }
      ],
      "stateMutability": "view",
      "type": "function"
    },
    {
      "inputs": [
        {
          "internalType": "bytes",
          "name": "_data",
          "type": "bytes"
        },
        {
          "internalType": "bytes",
          "name": "_signatures",
          "type": "bytes"
        }
      ],
      "name": "isValidSignature",
      "outputs": [
        {
          "internalType": "bytes4",
          "name": "",
          "type": "bytes4"
        }
      ],
      "stateMutability": "view",
      "type": "function"
    },
    {
      "inputs": [],
      "name": "nonce",
      "outputs": [
        {
          "internalType": "uint256",
          "name": "",
          "type": "uint256"
        }
      ],
      "stateMutability": "view",
      "type": "function"
    },
    {
      "inputs": [
        {
          "internalType": "uint256",
          "name": "_space",
          "type": "uint256"
        }
      ],
      "name": "readNonce",
      "outputs": [
        {
          "internalType": "uint256",
          "name": "",
          "type": "uint256"
        }
      ],
      "stateMutability": "view",
      "type": "function"
    },
    {
      "inputs": [
        {
          "components": [
            {
              "internalType": "bool",
              "name": "delegateCall",
              "type": "bool"
            },
            {
              "internalType": "bool",
              "name": "revertOnError",
              "type": "bool"
            },
            {
              "internalType": "uint256",
              "name": "gasLimit",
              "type": "uint256"
            },
            {
              "internalType": "address",
              "name": "target",
              "type": "address"
            },
            {
              "internalType": "uint256",
              "name": "value",
              "type": "uint256"
            },
            {
              "internalType": "bytes",
              "name": "data",
              "type": "bytes"
            }
          ],
          "internalType": "struct IModuleCalls.Transaction[]",
          "name": "_txs",
          "type": "tuple[]"
        }
      ],
      "name": "selfExecute",
      "outputs": [],
      "stateMutability": "nonpayable",
      "type": "function"
    },
    {
      "inputs": [
        {
          "internalType": "bytes32",
          "name": "_digest",
          "type": "bytes32"
        },
        {
          "internalType": "bytes",
          "name": "_signature",
          "type": "bytes"
        }
      ],
      "name": "signatureRecovery",
      "outputs": [
        {
          "internalType": "uint256",
          "name": "threshold",
          "type": "uint256"
        },
        {
          "internalType": "uint256",
          "name": "weight",
          "type": "uint256"
        },
        {
          "internalType": "bytes32",
          "name": "imageHash",
          "type": "bytes32"
        },
        {
          "internalType": "bytes32",
          "name": "subdigest",
          "type": "bytes32"
        },
        {
          "internalType": "uint256",
          "name": "checkpoint",
          "type": "uint256"
        }
      ],
      "stateMutability": "view",
      "type": "function"
    },
    {
      "inputs": [
        {
          "internalType": "bytes4",
          "name": "_interfaceID",
          "type": "bytes4"
        }
      ],
      "name": "supportsInterface",
      "outputs": [
        {
          "internalType": "bool",
          "name": "",
          "type": "bool"
        }
      ],
      "stateMutability": "pure",
      "type": "function"
    },
    {
      "inputs": [
        {
          "internalType": "bytes32",
          "name": "_imageHash",
          "type": "bytes32"
        }
      ],
      "name": "updateImageHash",
      "outputs": [],
      "stateMutability": "nonpayable",
      "type": "function"
    }
  ],
  "bytecode": "0x60a060405234801561001057600080fd5b503060805260805161213761002d600039600050506121376000f3fe6080604052600436106100bc5760003560e01c806361c2926c116100745780638c3f55631161004e5780638c3f55631461025357806390042baf14610273578063affed0e0146102ab57600080fd5b806361c2926c146101cb5780637a9a1628146101eb578063853c50681461020b57600080fd5b806320c13b0b116100a557806320c13b0b14610147578063295614261461016757806357c56d6b1461018957600080fd5b806301ffc9a7146100c15780631626ba7e146100f6575b600080fd5b3480156100cd57600080fd5b506100e16100dc3660046117f8565b6102c0565b60405190151581526020015b60405180910390f35b34801561010257600080fd5b5061011661011136600461185e565b6102d1565b6040517fffffffff0000000000000000000000000000000000000000000000000000000090911681526020016100ed565b34801561015357600080fd5b506101166101623660046118aa565b61031e565b34801561017357600080fd5b50610187610182366004611916565b610383565b005b34801561019557600080fd5b506101bd7f8713a7c4465f6fbee2b6e9d6646d1d9f83fec929edfc4baf661f3c865bdd04d181565b6040519081526020016100ed565b3480156101d757600080fd5b506101876101e6366004611974565b6103d5565b3480156101f757600080fd5b506101876102063660046119b6565b61041a565b34801561021757600080fd5b5061022b61022636600461185e565b610447565b604080519586526020860194909452928401919091526060830152608082015260a0016100ed565b34801561025f57600080fd5b506101bd61026e366004611916565b61060f565b610286610281366004611a5f565b61063b565b60405173ffffffffffffffffffffffffffffffffffffffff90911681526020016100ed565b3480156102b757600080fd5b506101bd6106d7565b60006102cb826106e8565b92915050565b6000806102df858585610744565b509050801561031157507f1626ba7e000000000000000000000000000000000000000000000000000000009050610317565b50600090505b9392505050565b6000806103438686604051610334929190611b2e565b60405180910390208585610744565b509050801561037557507f20c13b0b00000000000000000000000000000000000000000000000000000000905061037b565b50600090505b949350505050565b3330146103c9576040517fe12588940000000000000000000000000000000000000000000000000000000081523360048201523060248201526044015b60405180910390fd5b6103d28161077c565b50565b600061040883836040516020016103ed929190611d0c565b604051602081830303815290604052805190602001206107ae565b9050610415818484610833565b505050565b600061043286866040516020016103ed929190611d54565b905061043f818787610833565b505050505050565b6000806000806000808787600081811061046357610463611d9c565b909101357fff000000000000000000000000000000000000000000000000000000000000001691508190506104b95761049b896107ae565b92506104a88389896109c0565b929850909650945091506106049050565b7fff00000000000000000000000000000000000000000000000000000000000000818116016104f8576104eb896107ae565b92506104a8838989610a11565b7ffe000000000000000000000000000000000000000000000000000000000000007fff0000000000000000000000000000000000000000000000000000000000000082160161054a576104eb89610a3d565b7ffd000000000000000000000000000000000000000000000000000000000000007fff000000000000000000000000000000000000000000000000000000000000008216016105ae5761059e898989610aaa565b9550955095509550955050610604565b6040517f6085cd820000000000000000000000000000000000000000000000000000000081527fff00000000000000000000000000000000000000000000000000000000000000821660048201526024016103c0565b939792965093509350565b60006102cb7f8d0bf1fd623d628c741362c1289948e57b3e2905218c676d3e69abee36d6ae2e83610c27565b600033301461067e576040517fe12588940000000000000000000000000000000000000000000000000000000081523360048201523060248201526044016103c0565b81516020830134f060405173ffffffffffffffffffffffffffffffffffffffff821681529091507fa506ad4e7f05eceba62a023c3219e5bd98a615f4fa87e2afb08a2da5cf62bf0c9060200160405180910390a1919050565b60006106e3600061060f565b905090565b60007f6ffbd451000000000000000000000000000000000000000000000000000000007fffffffff0000000000000000000000000000000000000000000000000000000083160161073b57506001919050565b6102cb82610c85565b6000806000806000610757888888610447565b5096509194509250905082821080159061076f575060015b9450505050935093915050565b6040517fa038794000000000000000000000000000000000000000000000000000000000815260040160405180910390fd5b6040517f190100000000000000000000000000000000000000000000000000000000000060208201524660228201527fffffffffffffffffffffffffffffffffffffffff0000000000000000000000003060601b166042820152605681018290526000906076015b604051602081830303815290604052805190602001209050919050565b8060005b818110156109b9573684848381811061085257610852611d9c565b90506020028101906108649190611dcb565b90506108736020820182611e09565b156108ad576040517f230d1ccc000000000000000000000000000000000000000000000000000000008152600481018390526024016103c0565b6040810135805a10156109005782815a6040517f2bb3e3ba0000000000000000000000000000000000000000000000000000000081526004810193909352602483019190915260448201526064016103c0565b600061093a6109156080850160608601611e24565b608085013584156109265784610928565b5a5b61093560a0880188611e3f565b610ce1565b9050801561098157877f5c4eeb02dabf8976016ab414d617f9a162936dcace3cdef8c69ef6e262ad5ae78560405161097491815260200190565b60405180910390a26109a3565b6109a36109946040850160208601611e09565b898661099e610cfe565b610d1d565b50505080806109b190611ed3565b915050610837565b5050505050565b60008080806109db876109d6876006818b611f0b565b610d6b565b6000908152873560f01c6020818152604080842084526002909a013560e01c908190529890912090999198509695509350505050565b6000808080610a2c87610a27876001818b611f0b565b6109c0565b935093509350935093509350935093565b6040517f190100000000000000000000000000000000000000000000000000000000000060208201526000602282018190527fffffffffffffffffffffffffffffffffffffffff0000000000000000000000003060601b1660428301526056820183905290607601610816565b6000808080806004600188013560e81c82610ac58383611f35565b9050610ad78b61022683868d8f611f0b565b939b5091995097509550935087871015610b2f57610af781848b8d611f0b565b89896040517fb006aba00000000000000000000000000000000000000000000000000000000081526004016103c09493929190611f48565b8092505b88831015610c195760038301928a013560e81c9150610b528383611f35565b90506000610b74610b6288611201565b8c8c8790869261022693929190611f0b565b939c50919a5098509091505088881015610bcc57610b9482858c8e611f0b565b8a8a6040517fb006aba00000000000000000000000000000000000000000000000000000000081526004016103c09493929190611f48565b848110610c0f576040517f37daf62b00000000000000000000000000000000000000000000000000000000815260048101829052602481018690526044016103c0565b9350915081610b33565b505050939792965093509350565b6000808383604051602001610c46929190918252602082015260400190565b604080517fffffffffffffffffffffffffffffffffffffffffffffffffffffffffffffffe0818403018152919052805160209091012054949350505050565b60007fe4a77bbc000000000000000000000000000000000000000000000000000000007fffffffff00000000000000000000000000000000000000000000000000000000831601610cd857506001919050565b6102cb82611235565b6000604051828482376000808483898b8af1979650505050505050565b60603d604051915060208201818101604052818352816000823e505090565b8315610d2b57805160208201fd5b827fab46c69f7f32e1bf09b0725853da82a211e5402a0600296ab499a2fb5ea3b4198383604051610d5d929190611f6f565b60405180910390a250505050565b60008060005b838110156111f857600181019085013560f81c7fffffffffffffffffffffffffffffffffffffffffffffffffffffffffffffffff8101610e1257601582019186013560f881901c9060581c73ffffffffffffffffffffffffffffffffffffffff81169074ff000000000000000000000000000000000000000016811785610df85780610e07565b60008681526020829052604090205b955050505050610d71565b80610ea85760018201918681013560f81c906043016000610e3e8a610e3984888c8e611f0b565b61131f565b60ff841697909701969194508491905060a083901b74ff00000000000000000000000000000000000000001673ffffffffffffffffffffffffffffffffffffffff82161786610e8d5780610e9c565b60008781526020829052604090205b96505050505050610d71565b60028103610fd0576000808784013560f881901c9060581c73ffffffffffffffffffffffffffffffffffffffff16601586019550909250905060008885013560e81c600386018162ffffff169150809650819250505060008186019050610f218b848c8c8a908692610f1c93929190611f0b565b6115e2565b610f69578a83610f3383898d8f611f0b565b6040517f9a9462320000000000000000000000000000000000000000000000000000000081526004016103c09493929190611fe3565b60ff8416979097019694508460a084901b74ff00000000000000000000000000000000000000001673ffffffffffffffffffffffffffffffffffffffff84161787610fb45780610fc3565b60008881526020829052604090205b9750505050505050610d71565b6003810361100357602082019186013583610feb5780610ffa565b60008481526020829052604090205b93505050610d71565b6004810361104f576003808301928781013560e81c91908201016000806110308b6109d685898d8f611f0b565b60009889526020526040909720969097019650909350610d7192505050565b600681036111575760008287013560f81c60018401935060ff16905060008784013560f01c60028501945061ffff16905060008885013560e81c600386018162ffffff1691508096508192505050600081860190506000806110bd8d8d8d8b9087926109d693929190611f0b565b939850889390925090508482106110d357988501985b604080517f53657175656e6365206e657374656420636f6e6669673a0a0000000000000000602080830191909152603882018490526058820188905260788083018a90528351808403909101815260989092019092528051910120896111395780611148565b60008a81526020829052604090205b99505050505050505050610d71565b600581036111c3576020820191860135878103611192577fffffffffffffffffffffffffffffffffffffffffffffffffffffffffffffffff94505b600061119d8261178f565b9050846111aa57806111b9565b60008581526020829052604090205b9450505050610d71565b6040517fb2505f7c000000000000000000000000000000000000000000000000000000008152600481018290526024016103c0565b50935093915050565b7f8713a7c4465f6fbee2b6e9d6646d1d9f83fec929edfc4baf661f3c865bdd04d160009081526020829052604081206102cb565b60007fffffffff0000000000000000000000000000000000000000000000000000000082167fac6a444e0000000000000000000000000000000000000000000000000000000014806112c857507fffffffff0000000000000000000000000000000000000000000000000000000082167f36e7817500000000000000000000000000000000000000000000000000000000145b156112d557506001919050565b7f01ffc9a7000000000000000000000000000000000000000000000000000000007fffffffff000000000000000000000000000000000000000000000000000000008316146102cb565b60006042821461135f5782826040517f2ee17a3d0000000000000000000000000000000000000000000000000000000081526004016103c0929190612023565b600061137861136f600185612037565b85013560f81c90565b60ff169050604084013560f81c843560208601357f7fffffffffffffffffffffffffffffff5d576e7357a4501ddfe92f46681b20a08111156113ec578686826040517fad4aac760000000000000000000000000000000000000000000000000000000081526004016103c09392919061204a565b8260ff16601b1415801561140457508260ff16601c14155b15611441578686846040517fe578897e0000000000000000000000000000000000000000000000000000000081526004016103c09392919061206e565b600184036114ae576040805160008152602081018083528a905260ff851691810191909152606081018390526080810182905260019060a0015b6020604051602081039080840390855afa15801561149d573d6000803e3d6000fd5b505050602060405103519450611586565b6002840361154b576040517f19457468657265756d205369676e6564204d6573736167653a0a3332000000006020820152603c8101899052600190605c01604080517fffffffffffffffffffffffffffffffffffffffffffffffffffffffffffffffe08184030181528282528051602091820120600084529083018083525260ff861690820152606081018490526080810183905260a00161147b565b86868560016040517f9dfba8520000000000000000000000000000000000000000000000000000000081526004016103c09493929190612095565b73ffffffffffffffffffffffffffffffffffffffff85166115d75786866040517f6c1719d20000000000000000000000000000000000000000000000000000000081526004016103c0929190612023565b505050509392505050565b60008083836115f2600182612037565b81811061160157611601611d9c565b919091013560f81c915050600181148061161b5750600281145b15611660578473ffffffffffffffffffffffffffffffffffffffff1661164287868661131f565b73ffffffffffffffffffffffffffffffffffffffff16149150611786565b6003810361174b5773ffffffffffffffffffffffffffffffffffffffff8516631626ba7e8786600087611694600182612037565b926116a193929190611f0b565b6040518463ffffffff1660e01b81526004016116bf939291906120c1565b602060405180830381865afa1580156116dc573d6000803e3d6000fd5b505050506040513d601f19601f8201168201806040525081019061170091906120e4565b7fffffffff00000000000000000000000000000000000000000000000000000000167f1626ba7e00000000000000000000000000000000000000000000000000000000149150611786565b83838260006040517f9dfba8520000000000000000000000000000000000000000000000000000000081526004016103c09493929190612095565b50949350505050565b6040517f53657175656e636520737461746963206469676573743a0a0000000000000000602082015260388101829052600090605801610816565b7fffffffff00000000000000000000000000000000000000000000000000000000811681146103d257600080fd5b60006020828403121561180a57600080fd5b8135610317816117ca565b60008083601f84011261182757600080fd5b50813567ffffffffffffffff81111561183f57600080fd5b60208301915083602082850101111561185757600080fd5b9250929050565b60008060006040848603121561187357600080fd5b83359250602084013567ffffffffffffffff81111561189157600080fd5b61189d86828701611815565b9497909650939450505050565b600080600080604085870312156118c057600080fd5b843567ffffffffffffffff808211156118d857600080fd5b6118e488838901611815565b909650945060208701359150808211156118fd57600080fd5b5061190a87828801611815565b95989497509550505050565b60006020828403121561192857600080fd5b5035919050565b60008083601f84011261194157600080fd5b50813567ffffffffffffffff81111561195957600080fd5b6020830191508360208260051b850101111561185757600080fd5b6000806020838503121561198757600080fd5b823567ffffffffffffffff81111561199e57600080fd5b6119aa8582860161192f565b90969095509350505050565b6000806000806000606086880312156119ce57600080fd5b853567ffffffffffffffff808211156119e657600080fd5b6119f289838a0161192f565b9097509550602088013594506040880135915080821115611a1257600080fd5b50611a1f88828901611815565b969995985093965092949392505050565b7f4e487b7100000000000000000000000000000000000000000000000000000000600052604160045260246000fd5b600060208284031215611a7157600080fd5b813567ffffffffffffffff80821115611a8957600080fd5b818401915084601f830112611a9d57600080fd5b813581811115611aaf57611aaf611a30565b604051601f82017fffffffffffffffffffffffffffffffffffffffffffffffffffffffffffffffe0908116603f01168101908382118183101715611af557611af5611a30565b81604052828152876020848701011115611b0e57600080fd5b826020860160208301376000928101602001929092525095945050505050565b8183823760009101908152919050565b80358015158114611b4e57600080fd5b919050565b803573ffffffffffffffffffffffffffffffffffffffff81168114611b4e57600080fd5b8183528181602085013750600060208284010152600060207fffffffffffffffffffffffffffffffffffffffffffffffffffffffffffffffe0601f840116840101905092915050565b818352600060208085019450848460051b86018460005b87811015611cff57838303895281357fffffffffffffffffffffffffffffffffffffffffffffffffffffffffffffff41883603018112611c1657600080fd5b870160c0611c2382611b3e565b15158552611c32878301611b3e565b15158588015260408281013590860152606073ffffffffffffffffffffffffffffffffffffffff611c64828501611b53565b16908601526080828101359086015260a080830135368490037fffffffffffffffffffffffffffffffffffffffffffffffffffffffffffffffe1018112611caa57600080fd5b90920187810192903567ffffffffffffffff811115611cc857600080fd5b803603841315611cd757600080fd5b8282880152611ce98388018286611b77565b9c89019c96505050928601925050600101611bd7565b5090979650505050505050565b60408152600560408201527f73656c663a000000000000000000000000000000000000000000000000000000606082015260806020820152600061037b608083018486611bc0565b60408152600660408201527f67756573743a0000000000000000000000000000000000000000000000000000606082015260806020820152600061037b608083018486611bc0565b7f4e487b7100000000000000000000000000000000000000000000000000000000600052603260045260246000fd5b600082357fffffffffffffffffffffffffffffffffffffffffffffffffffffffffffffff41833603018112611dff57600080fd5b9190910192915050565b600060208284031215611e1b57600080fd5b61031782611b3e565b600060208284031215611e3657600080fd5b61031782611b53565b60008083357fffffffffffffffffffffffffffffffffffffffffffffffffffffffffffffffe1843603018112611e7457600080fd5b83018035915067ffffffffffffffff821115611e8f57600080fd5b60200191503681900382131561185757600080fd5b7f4e487b7100000000000000000000000000000000000000000000000000000000600052601160045260246000fd5b60007fffffffffffffffffffffffffffffffffffffffffffffffffffffffffffffffff8203611f0457611f04611ea4565b5060010190565b60008085851115611f1b57600080fd5b83861115611f2857600080fd5b5050820193919092039150565b808201808211156102cb576102cb611ea4565b606081526000611f5c606083018688611b77565b6020830194909452506040015292915050565b82815260006020604081840152835180604085015260005b81811015611fa357858101830151858201606001528201611f87565b5060006060828601015260607fffffffffffffffffffffffffffffffffffffffffffffffffffffffffffffffe0601f830116850101925050509392505050565b84815273ffffffffffffffffffffffffffffffffffffffff84166020820152606060408201526000612019606083018486611b77565b9695505050505050565b60208152600061037b602083018486611b77565b818103818111156102cb576102cb611ea4565b60408152600061205e604083018587611b77565b9050826020830152949350505050565b604081526000612082604083018587611b77565b905060ff83166020830152949350505050565b6060815260006120a9606083018688611b77565b60208301949094525090151560409091015292915050565b8381526040602082015260006120db604083018486611b77565b95945050505050565b6000602082840312156120f657600080fd5b8151610317816117ca56fea2646970667358221220bee73eb30cfa01fe71819f2f5092b01a4c803b4fb92e0a4e700d47ff596892ab64736f6c63430008120033",
  "linkReferences": {},
  "deployedLinkReferences": {}
}