{"abi":[{"type":"function","name":"PAYMASTER_DATA_OFFSET","inputs":[],"outputs":[{"name":"","type":"uint256","internalType":"uint256"}],"stateMutability":"view"},{"type":"function","name":"PAYMASTER_POSTOP_GAS_OFFSET","inputs":[],"outputs":[{"name":"","type":"uint256","internalType":"uint256"}],"stateMutability":"view"},{"type":"function","name":"PAYMASTER_VALIDATION_GAS_OFFSET","inputs":[],"outputs":[{"name":"","type":"uint256","internalType":"uint256"}],"stateMutability":"view"}],"bytecode":{"object":"0x60808060405234601957610111908161001f823930815050f35b600080fdfe6080806040526004361015601257600080fd5b60003560e01c90816325093e1b1460a957508063b29a8ff41460755763ede3150214603c57600080fd5b60007ffffffffffffffffffffffffffffffffffffffffffffffffffffffffffffffffc360112607057602060405160348152f35b600080fd5b60007ffffffffffffffffffffffffffffffffffffffffffffffffffffffffffffffffc360112607057602060405160148152f35b60007ffffffffffffffffffffffffffffffffffffffffffffffffffffffffffffffffc36011260705780602460209252f3fea264697066735822122015a9e5bf0ae87122c9bff5b1524c579e5259cb69acc74e4b639beb361a5a24d264736f6c634300081c0033","linkReferences":{}},"methodIdentifiers":{"PAYMASTER_DATA_OFFSET()":"ede31502","PAYMASTER_POSTOP_GAS_OFFSET()":"25093e1b","PAYMASTER_VALIDATION_GAS_OFFSET()":"b29a8ff4"},"id":5}