{
  "_format": "hh-sol-artifact-1",
  "contractName": "Hooks",
  "sourceName": "src/modules/Hooks.sol",
  "abi": [
    {
      "inputs": [
        {
          "internalType": "bytes4",
          "name": "selector",
          "type": "bytes4"
        }
      ],
      "name": "HookAlreadyExists",
      "type": "error"
    },
    {
      "inputs": [
        {
          "internalType": "bytes4",
          "name": "selector",
          "type": "bytes4"
        }
      ],
      "name": "HookDoesNotExist",
      "type": "error"
    },
    {
      "inputs": [
        {
          "internalType": "address",
          "name": "_sender",
          "type": "address"
        }
      ],
      "name": "OnlySelf",
      "type": "error"
    },
    {
      "anonymous": false,
      "inputs": [
        {
          "indexed": false,
          "internalType": "bytes4",
          "name": "selector",
          "type": "bytes4"
        },
        {
          "indexed": false,
          "internalType": "address",
          "name": "implementation",
          "type": "address"
        }
      ],
      "name": "DefinedHook",
      "type": "event"
    },
    {
      "stateMutability": "payable",
      "type": "fallback"
    },
    {
      "inputs": [
        {
          "internalType": "bytes4",
          "name": "selector",
          "type": "bytes4"
        },
        {
          "internalType": "address",
          "name": "implementation",
          "type": "address"
        }
      ],
      "name": "addHook",
      "outputs": [],
      "stateMutability": "payable",
      "type": "function"
    },
    {
      "inputs": [
        {
          "internalType": "address",
          "name": "",
          "type": "address"
        },
        {
          "internalType": "address",
          "name": "",
          "type": "address"
        },
        {
          "internalType": "uint256[]",
          "name": "",
          "type": "uint256[]"
        },
        {
          "internalType": "uint256[]",
          "name": "",
          "type": "uint256[]"
        },
        {
          "internalType": "bytes",
          "name": "",
          "type": "bytes"
        }
      ],
      "name": "onERC1155BatchReceived",
      "outputs": [
        {
          "internalType": "bytes4",
          "name": "",
          "type": "bytes4"
        }
      ],
      "stateMutability": "pure",
      "type": "function"
    },
    {
      "inputs": [
        {
          "internalType": "address",
          "name": "",
          "type": "address"
        },
        {
          "internalType": "address",
          "name": "",
          "type": "address"
        },
        {
          "internalType": "uint256",
          "name": "",
          "type": "uint256"
        },
        {
          "internalType": "uint256",
          "name": "",
          "type": "uint256"
        },
        {
          "internalType": "bytes",
          "name": "",
          "type": "bytes"
        }
      ],
      "name": "onERC1155Received",
      "outputs": [
        {
          "internalType": "bytes4",
          "name": "",
          "type": "bytes4"
        }
      ],
      "stateMutability": "pure",
      "type": "function"
    },
    {
      "inputs": [
        {
          "internalType": "address",
          "name": "",
          "type": "address"
        },
        {
          "internalType": "address",
          "name": "",
          "type": "address"
        },
        {
          "internalType": "uint256",
          "name": "",
          "type": "uint256"
        },
        {
          "internalType": "bytes",
          "name": "",
          "type": "bytes"
        }
      ],
      "name": "onERC721Received",
      "outputs": [
        {
          "internalType": "bytes4",
          "name": "",
          "type": "bytes4"
        }
      ],
      "stateMutability": "pure",
      "type": "function"
    },
    {
      "inputs": [
        {
          "internalType": "bytes4",
          "name": "selector",
          "type": "bytes4"
        }
      ],
      "name": "readHook",
      "outputs": [
        {
          "internalType": "address",
          "name": "",
          "type": "address"
        }
      ],
      "stateMutability": "view",
      "type": "function"
    },
    {
      "inputs": [
        {
          "internalType": "bytes4",
          "name": "selector",
          "type": "bytes4"
        }
      ],
      "name": "removeHook",
      "outputs": [],
      "stateMutability": "payable",
      "type": "function"
    },
    {
      "inputs": [
        {
          "internalType": "address",
          "name": "",
          "type": "address"
        },
        {
          "internalType": "uint256",
          "name": "",
          "type": "uint256"
        },
        {
          "internalType": "bytes",
          "name": "",
          "type": "bytes"
        }
      ],
      "name": "tokenReceived",
      "outputs": [
        {
          "internalType": "bytes4",
          "name": "",
          "type": "bytes4"
        }
      ],
      "stateMutability": "pure",
      "type": "function"
    },
    {
      "inputs": [
        {
          "internalType": "address",
          "name": "operator",
          "type": "address"
        },
        {
          "internalType": "address",
          "name": "from",
          "type": "address"
        },
        {
          "internalType": "address",
          "name": "to",
          "type": "address"
        },
        {
          "internalType": "uint256",
          "name": "amount",
          "type": "uint256"
        },
        {
          "internalType": "bytes",
          "name": "data",
          "type": "bytes"
        },
        {
          "internalType": "bytes",
          "name": "operatorData",
          "type": "bytes"
        }
      ],
      "name": "tokensReceived",
      "outputs": [],
      "stateMutability": "nonpayable",
      "type": "function"
    },
    {
      "stateMutability": "payable",
      "type": "receive"
    }
  ],
  "bytecode": "0x6080604052348015600f57600080fd5b50610ab18061001f6000396000f3fe60806040526004361061007e5760003560e01c80638943ec021161004e5780638943ec0214610240578063b93ea7ad14610284578063bc197c8114610297578063f23a6e61146102df57610085565b806223de2914610148578063150b7a021461016d5780631a9b2337146101e85780634fcf3eca1461022d57610085565b3661008557005b600436106101465760006100a161009c3683610631565b610325565b905073ffffffffffffffffffffffffffffffffffffffff811615610144576000808273ffffffffffffffffffffffffffffffffffffffff166000366040516100ea929190610697565b600060405180830381855af49150503d8060008114610125576040519150601f19603f3d011682016040523d82523d6000602084013e61012a565b606091505b50915091508161013c57805160208201fd5b805160208201f35b505b005b34801561015457600080fd5b50610146610163366004610719565b5050505050505050565b34801561017957600080fd5b506101b26101883660046107c9565b7f150b7a020000000000000000000000000000000000000000000000000000000095945050505050565b6040517fffffffff0000000000000000000000000000000000000000000000000000000090911681526020015b60405180910390f35b3480156101f457600080fd5b50610208610203366004610868565b610379565b60405173ffffffffffffffffffffffffffffffffffffffff90911681526020016101df565b61014661023b366004610868565b610384565b34801561024c57600080fd5b506101b261025b36600461088a565b7f8943ec0200000000000000000000000000000000000000000000000000000000949350505050565b6101466102923660046108e4565b61044e565b3480156102a357600080fd5b506101b26102b236600461095c565b7fbc197c810000000000000000000000000000000000000000000000000000000098975050505050505050565b3480156102eb57600080fd5b506101b26102fa366004610a03565b7ff23a6e61000000000000000000000000000000000000000000000000000000009695505050505050565b60006103737fbe27a319efc8734e89e26ba4bc95f5c788584163b959f03fa04e2d7ab4b9a1207fffffffff000000000000000000000000000000000000000000000000000000008416610513565b92915050565b600061037382610325565b3330146103c4576040517fa19dbf000000000000000000000000000000000000000000000000000000000081523360048201526024015b60405180910390fd5b60006103cf82610325565b73ffffffffffffffffffffffffffffffffffffffff1603610440576040517f1c3812cc0000000000000000000000000000000000000000000000000000000081527fffffffff00000000000000000000000000000000000000000000000000000000821660048201526024016103bb565b61044b816000610571565b50565b333014610489576040517fa19dbf000000000000000000000000000000000000000000000000000000000081523360048201526024016103bb565b600061049483610325565b73ffffffffffffffffffffffffffffffffffffffff1614610505576040517f5b4d6d6a0000000000000000000000000000000000000000000000000000000081527fffffffff00000000000000000000000000000000000000000000000000000000831660048201526024016103bb565b61050f8282610571565b5050565b6000808383604051602001610532929190918252602082015260400190565b604080517fffffffffffffffffffffffffffffffffffffffffffffffffffffffffffffffe0818403018152919052805160209091012054949350505050565b604080517fbe27a319efc8734e89e26ba4bc95f5c788584163b959f03fa04e2d7ab4b9a1206020808301919091527fffffffff000000000000000000000000000000000000000000000000000000008516828401819052835180840385018152606084018086528151919093012073ffffffffffffffffffffffffffffffffffffffff8616908190559152608082015290517f0d7fc113eaf016db4681a1ba86d083ce3e0961f321062a75ac2b0aeb33deeed19181900360a00190a15050565b80357fffffffff000000000000000000000000000000000000000000000000000000008116906004841015610690577fffffffff00000000000000000000000000000000000000000000000000000000808560040360031b1b82161691505b5092915050565b8183823760009101908152919050565b803573ffffffffffffffffffffffffffffffffffffffff811681146106cb57600080fd5b919050565b60008083601f8401126106e257600080fd5b50813567ffffffffffffffff8111156106fa57600080fd5b60208301915083602082850101111561071257600080fd5b9250929050565b60008060008060008060008060c0898b03121561073557600080fd5b61073e896106a7565b975061074c60208a016106a7565b965061075a60408a016106a7565b955060608901359450608089013567ffffffffffffffff81111561077d57600080fd5b6107898b828c016106d0565b90955093505060a089013567ffffffffffffffff8111156107a957600080fd5b6107b58b828c016106d0565b999c989b5096995094979396929594505050565b6000806000806000608086880312156107e157600080fd5b6107ea866106a7565b94506107f8602087016106a7565b935060408601359250606086013567ffffffffffffffff81111561081b57600080fd5b610827888289016106d0565b969995985093965092949392505050565b80357fffffffff00000000000000000000000000000000000000000000000000000000811681146106cb57600080fd5b60006020828403121561087a57600080fd5b61088382610838565b9392505050565b600080600080606085870312156108a057600080fd5b6108a9856106a7565b935060208501359250604085013567ffffffffffffffff8111156108cc57600080fd5b6108d8878288016106d0565b95989497509550505050565b600080604083850312156108f757600080fd5b61090083610838565b915061090e602084016106a7565b90509250929050565b60008083601f84011261092957600080fd5b50813567ffffffffffffffff81111561094157600080fd5b6020830191508360208260051b850101111561071257600080fd5b60008060008060008060008060a0898b03121561097857600080fd5b610981896106a7565b975061098f60208a016106a7565b9650604089013567ffffffffffffffff8111156109ab57600080fd5b6109b78b828c01610917565b909750955050606089013567ffffffffffffffff8111156109d757600080fd5b6109e38b828c01610917565b909550935050608089013567ffffffffffffffff8111156107a957600080fd5b60008060008060008060a08789031215610a1c57600080fd5b610a25876106a7565b9550610a33602088016106a7565b94506040870135935060608701359250608087013567ffffffffffffffff811115610a5d57600080fd5b610a6989828a016106d0565b979a969950949750929593949250505056fea264697066735822122044d8904c5384c7171bf0bf5bbc4e44a50e8611efad200bf14c7a43cbf9400a3164736f6c634300081b0033",
  "linkReferences": {},
  "deployedLinkReferences": {}
}