{
  "_format": "hh-sol-artifact-1",
  "contractName": "Hooks",
  "sourceName": "src/modules/Hooks.sol",
  "abi": [
    {
      "inputs": [
        {
          "internalType": "bytes4",
          "name": "signature",
          "type": "bytes4"
        }
      ],
      "name": "HookAlreadyExists",
      "type": "error"
    },
    {
      "inputs": [
        {
          "internalType": "bytes4",
          "name": "signature",
          "type": "bytes4"
        }
      ],
      "name": "HookDoesNotExist",
      "type": "error"
    },
    {
      "inputs": [
        {
          "internalType": "address",
          "name": "_sender",
          "type": "address"
        }
      ],
      "name": "OnlySelf",
      "type": "error"
    },
    {
      "anonymous": false,
      "inputs": [
        {
          "indexed": false,
          "internalType": "bytes4",
          "name": "signature",
          "type": "bytes4"
        },
        {
          "indexed": false,
          "internalType": "address",
          "name": "implementation",
          "type": "address"
        }
      ],
      "name": "DefinedHook",
      "type": "event"
    },
    {
      "stateMutability": "payable",
      "type": "fallback"
    },
    {
      "inputs": [
        {
          "internalType": "bytes4",
          "name": "signature",
          "type": "bytes4"
        },
        {
          "internalType": "address",
          "name": "implementation",
          "type": "address"
        }
      ],
      "name": "addHook",
      "outputs": [],
      "stateMutability": "payable",
      "type": "function"
    },
    {
      "inputs": [
        {
          "internalType": "address",
          "name": "",
          "type": "address"
        },
        {
          "internalType": "address",
          "name": "",
          "type": "address"
        },
        {
          "internalType": "uint256[]",
          "name": "",
          "type": "uint256[]"
        },
        {
          "internalType": "uint256[]",
          "name": "",
          "type": "uint256[]"
        },
        {
          "internalType": "bytes",
          "name": "",
          "type": "bytes"
        }
      ],
      "name": "onERC1155BatchReceived",
      "outputs": [
        {
          "internalType": "bytes4",
          "name": "",
          "type": "bytes4"
        }
      ],
      "stateMutability": "pure",
      "type": "function"
    },
    {
      "inputs": [
        {
          "internalType": "address",
          "name": "",
          "type": "address"
        },
        {
          "internalType": "address",
          "name": "",
          "type": "address"
        },
        {
          "internalType": "uint256",
          "name": "",
          "type": "uint256"
        },
        {
          "internalType": "uint256",
          "name": "",
          "type": "uint256"
        },
        {
          "internalType": "bytes",
          "name": "",
          "type": "bytes"
        }
      ],
      "name": "onERC1155Received",
      "outputs": [
        {
          "internalType": "bytes4",
          "name": "",
          "type": "bytes4"
        }
      ],
      "stateMutability": "pure",
      "type": "function"
    },
    {
      "inputs": [
        {
          "internalType": "address",
          "name": "",
          "type": "address"
        },
        {
          "internalType": "address",
          "name": "",
          "type": "address"
        },
        {
          "internalType": "uint256",
          "name": "",
          "type": "uint256"
        },
        {
          "internalType": "bytes",
          "name": "",
          "type": "bytes"
        }
      ],
      "name": "onERC721Received",
      "outputs": [
        {
          "internalType": "bytes4",
          "name": "",
          "type": "bytes4"
        }
      ],
      "stateMutability": "pure",
      "type": "function"
    },
    {
      "inputs": [
        {
          "internalType": "bytes4",
          "name": "signature",
          "type": "bytes4"
        }
      ],
      "name": "readHook",
      "outputs": [
        {
          "internalType": "address",
          "name": "",
          "type": "address"
        }
      ],
      "stateMutability": "view",
      "type": "function"
    },
    {
      "inputs": [
        {
          "internalType": "bytes4",
          "name": "signature",
          "type": "bytes4"
        }
      ],
      "name": "removeHook",
      "outputs": [],
      "stateMutability": "payable",
      "type": "function"
    },
    {
      "inputs": [
        {
          "internalType": "address",
          "name": "",
          "type": "address"
        },
        {
          "internalType": "uint256",
          "name": "",
          "type": "uint256"
        },
        {
          "internalType": "bytes",
          "name": "",
          "type": "bytes"
        }
      ],
      "name": "tokenReceived",
      "outputs": [],
      "stateMutability": "nonpayable",
      "type": "function"
    },
    {
      "stateMutability": "payable",
      "type": "receive"
    }
  ],
  "bytecode": "0x6080604052348015600f57600080fd5b506109cf8061001f6000396000f3fe6080604052600436106100745760003560e01c80638943ec021161004e5780638943ec0214610211578063b93ea7ad14610232578063bc197c8114610245578063f23a6e611461028d5761007b565b8063150b7a021461013e5780631a9b2337146101b95780634fcf3eca146101fe5761007b565b3661007b57005b6004361061013c57600061009761009236836105df565b6102d3565b905073ffffffffffffffffffffffffffffffffffffffff81161561013a576000808273ffffffffffffffffffffffffffffffffffffffff166000366040516100e0929190610645565b600060405180830381855af49150503d806000811461011b576040519150601f19603f3d011682016040523d82523d6000602084013e610120565b606091505b50915091508161013257805160208201fd5b805160208201f35b505b005b34801561014a57600080fd5b506101836101593660046106c7565b7f150b7a020000000000000000000000000000000000000000000000000000000095945050505050565b6040517fffffffff0000000000000000000000000000000000000000000000000000000090911681526020015b60405180910390f35b3480156101c557600080fd5b506101d96101d4366004610766565b610327565b60405173ffffffffffffffffffffffffffffffffffffffff90911681526020016101b0565b61013c61020c366004610766565b610332565b34801561021d57600080fd5b5061013c61022c366004610788565b50505050565b61013c6102403660046107e2565b6103fc565b34801561025157600080fd5b5061018361026036600461085a565b7fbc197c810000000000000000000000000000000000000000000000000000000098975050505050505050565b34801561029957600080fd5b506101836102a8366004610921565b7ff23a6e61000000000000000000000000000000000000000000000000000000009695505050505050565b60006103217fbe27a319efc8734e89e26ba4bc95f5c788584163b959f03fa04e2d7ab4b9a1207fffffffff0000000000000000000000000000000000000000000000000000000084166104c1565b92915050565b6000610321826102d3565b333014610372576040517fa19dbf000000000000000000000000000000000000000000000000000000000081523360048201526024015b60405180910390fd5b600061037d826102d3565b73ffffffffffffffffffffffffffffffffffffffff16036103ee576040517f1c3812cc0000000000000000000000000000000000000000000000000000000081527fffffffff0000000000000000000000000000000000000000000000000000000082166004820152602401610369565b6103f981600061051f565b50565b333014610437576040517fa19dbf00000000000000000000000000000000000000000000000000000000008152336004820152602401610369565b6000610442836102d3565b73ffffffffffffffffffffffffffffffffffffffff16146104b3576040517f5b4d6d6a0000000000000000000000000000000000000000000000000000000081527fffffffff0000000000000000000000000000000000000000000000000000000083166004820152602401610369565b6104bd828261051f565b5050565b60008083836040516020016104e0929190918252602082015260400190565b604080517fffffffffffffffffffffffffffffffffffffffffffffffffffffffffffffffe0818403018152919052805160209091012054949350505050565b604080517fbe27a319efc8734e89e26ba4bc95f5c788584163b959f03fa04e2d7ab4b9a1206020808301919091527fffffffff000000000000000000000000000000000000000000000000000000008516828401819052835180840385018152606084018086528151919093012073ffffffffffffffffffffffffffffffffffffffff8616908190559152608082015290517f0d7fc113eaf016db4681a1ba86d083ce3e0961f321062a75ac2b0aeb33deeed19181900360a00190a15050565b80357fffffffff00000000000000000000000000000000000000000000000000000000811690600484101561063e577fffffffff00000000000000000000000000000000000000000000000000000000808560040360031b1b82161691505b5092915050565b8183823760009101908152919050565b803573ffffffffffffffffffffffffffffffffffffffff8116811461067957600080fd5b919050565b60008083601f84011261069057600080fd5b50813567ffffffffffffffff8111156106a857600080fd5b6020830191508360208285010111156106c057600080fd5b9250929050565b6000806000806000608086880312156106df57600080fd5b6106e886610655565b94506106f660208701610655565b935060408601359250606086013567ffffffffffffffff81111561071957600080fd5b6107258882890161067e565b969995985093965092949392505050565b80357fffffffff000000000000000000000000000000000000000000000000000000008116811461067957600080fd5b60006020828403121561077857600080fd5b61078182610736565b9392505050565b6000806000806060858703121561079e57600080fd5b6107a785610655565b935060208501359250604085013567ffffffffffffffff8111156107ca57600080fd5b6107d68782880161067e565b95989497509550505050565b600080604083850312156107f557600080fd5b6107fe83610736565b915061080c60208401610655565b90509250929050565b60008083601f84011261082757600080fd5b50813567ffffffffffffffff81111561083f57600080fd5b6020830191508360208260051b85010111156106c057600080fd5b60008060008060008060008060a0898b03121561087657600080fd5b61087f89610655565b975061088d60208a01610655565b9650604089013567ffffffffffffffff8111156108a957600080fd5b6108b58b828c01610815565b909750955050606089013567ffffffffffffffff8111156108d557600080fd5b6108e18b828c01610815565b909550935050608089013567ffffffffffffffff81111561090157600080fd5b61090d8b828c0161067e565b999c989b5096995094979396929594505050565b60008060008060008060a0878903121561093a57600080fd5b61094387610655565b955061095160208801610655565b94506040870135935060608701359250608087013567ffffffffffffffff81111561097b57600080fd5b61098789828a0161067e565b979a969950949750929593949250505056fea26469706673582212207401ad4ec542e2cf3e76158237f91d283186cc551ec49e40776d68dc127e999464736f6c634300081b0033",
  "linkReferences": {},
  "deployedLinkReferences": {}
}