{
  "_format": "hh-sol-artifact-1",
  "contractName": "Hooks",
  "sourceName": "src/modules/Hooks.sol",
  "abi": [
    {
      "inputs": [
        {
          "internalType": "bytes4",
          "name": "signature",
          "type": "bytes4"
        }
      ],
      "name": "HookAlreadyExists",
      "type": "error"
    },
    {
      "inputs": [
        {
          "internalType": "bytes4",
          "name": "signature",
          "type": "bytes4"
        }
      ],
      "name": "HookDoesNotExist",
      "type": "error"
    },
    {
      "inputs": [
        {
          "internalType": "address",
          "name": "_sender",
          "type": "address"
        }
      ],
      "name": "OnlySelf",
      "type": "error"
    },
    {
      "anonymous": false,
      "inputs": [
        {
          "indexed": false,
          "internalType": "bytes4",
          "name": "signature",
          "type": "bytes4"
        },
        {
          "indexed": false,
          "internalType": "address",
          "name": "implementation",
          "type": "address"
        }
      ],
      "name": "DefinedHook",
      "type": "event"
    },
    {
      "stateMutability": "payable",
      "type": "fallback"
    },
    {
      "inputs": [
        {
          "internalType": "bytes4",
          "name": "signature",
          "type": "bytes4"
        },
        {
          "internalType": "address",
          "name": "implementation",
          "type": "address"
        }
      ],
      "name": "addHook",
      "outputs": [],
      "stateMutability": "nonpayable",
      "type": "function"
    },
    {
      "inputs": [
        {
          "internalType": "address",
          "name": "",
          "type": "address"
        },
        {
          "internalType": "address",
          "name": "",
          "type": "address"
        },
        {
          "internalType": "uint256[]",
          "name": "",
          "type": "uint256[]"
        },
        {
          "internalType": "uint256[]",
          "name": "",
          "type": "uint256[]"
        },
        {
          "internalType": "bytes",
          "name": "",
          "type": "bytes"
        }
      ],
      "name": "onERC1155BatchReceived",
      "outputs": [
        {
          "internalType": "bytes4",
          "name": "",
          "type": "bytes4"
        }
      ],
      "stateMutability": "pure",
      "type": "function"
    },
    {
      "inputs": [
        {
          "internalType": "address",
          "name": "",
          "type": "address"
        },
        {
          "internalType": "address",
          "name": "",
          "type": "address"
        },
        {
          "internalType": "uint256",
          "name": "",
          "type": "uint256"
        },
        {
          "internalType": "uint256",
          "name": "",
          "type": "uint256"
        },
        {
          "internalType": "bytes",
          "name": "",
          "type": "bytes"
        }
      ],
      "name": "onERC1155Received",
      "outputs": [
        {
          "internalType": "bytes4",
          "name": "",
          "type": "bytes4"
        }
      ],
      "stateMutability": "pure",
      "type": "function"
    },
    {
      "inputs": [
        {
          "internalType": "address",
          "name": "",
          "type": "address"
        },
        {
          "internalType": "address",
          "name": "",
          "type": "address"
        },
        {
          "internalType": "uint256",
          "name": "",
          "type": "uint256"
        },
        {
          "internalType": "bytes",
          "name": "",
          "type": "bytes"
        }
      ],
      "name": "onERC721Received",
      "outputs": [
        {
          "internalType": "bytes4",
          "name": "",
          "type": "bytes4"
        }
      ],
      "stateMutability": "pure",
      "type": "function"
    },
    {
      "inputs": [
        {
          "internalType": "bytes4",
          "name": "signature",
          "type": "bytes4"
        }
      ],
      "name": "readHook",
      "outputs": [
        {
          "internalType": "address",
          "name": "",
          "type": "address"
        }
      ],
      "stateMutability": "view",
      "type": "function"
    },
    {
      "inputs": [
        {
          "internalType": "bytes4",
          "name": "signature",
          "type": "bytes4"
        }
      ],
      "name": "removeHook",
      "outputs": [],
      "stateMutability": "nonpayable",
      "type": "function"
    },
    {
      "inputs": [
        {
          "internalType": "address",
          "name": "",
          "type": "address"
        },
        {
          "internalType": "uint256",
          "name": "",
          "type": "uint256"
        },
        {
          "internalType": "bytes",
          "name": "",
          "type": "bytes"
        }
      ],
      "name": "tokenReceived",
      "outputs": [],
      "stateMutability": "nonpayable",
      "type": "function"
    },
    {
      "stateMutability": "payable",
      "type": "receive"
    }
  ],
  "bytecode": "0x6080604052348015600f57600080fd5b506109e98061001f6000396000f3fe6080604052600436106100745760003560e01c80638943ec021161004e5780638943ec021461021e578063b93ea7ad1461023f578063bc197c811461025f578063f23a6e61146102a75761007b565b8063150b7a021461013e5780631a9b2337146101b95780634fcf3eca146101fe5761007b565b3661007b57005b6004361061013c57600061009761009236836105f9565b6102ed565b905073ffffffffffffffffffffffffffffffffffffffff81161561013a576000808273ffffffffffffffffffffffffffffffffffffffff166000366040516100e092919061065f565b600060405180830381855af49150503d806000811461011b576040519150601f19603f3d011682016040523d82523d6000602084013e610120565b606091505b50915091508161013257805160208201fd5b805160208201f35b505b005b34801561014a57600080fd5b506101836101593660046106e1565b7f150b7a020000000000000000000000000000000000000000000000000000000095945050505050565b6040517fffffffff0000000000000000000000000000000000000000000000000000000090911681526020015b60405180910390f35b3480156101c557600080fd5b506101d96101d4366004610780565b610341565b60405173ffffffffffffffffffffffffffffffffffffffff90911681526020016101b0565b34801561020a57600080fd5b5061013c610219366004610780565b61034c565b34801561022a57600080fd5b5061013c6102393660046107a2565b50505050565b34801561024b57600080fd5b5061013c61025a3660046107fc565b610416565b34801561026b57600080fd5b5061018361027a366004610874565b7fbc197c810000000000000000000000000000000000000000000000000000000098975050505050505050565b3480156102b357600080fd5b506101836102c236600461093b565b7ff23a6e61000000000000000000000000000000000000000000000000000000009695505050505050565b600061033b7fbe27a319efc8734e89e26ba4bc95f5c788584163b959f03fa04e2d7ab4b9a1207fffffffff0000000000000000000000000000000000000000000000000000000084166104db565b92915050565b600061033b826102ed565b33301461038c576040517fa19dbf000000000000000000000000000000000000000000000000000000000081523360048201526024015b60405180910390fd5b6000610397826102ed565b73ffffffffffffffffffffffffffffffffffffffff1603610408576040517f1c3812cc0000000000000000000000000000000000000000000000000000000081527fffffffff0000000000000000000000000000000000000000000000000000000082166004820152602401610383565b610413816000610539565b50565b333014610451576040517fa19dbf00000000000000000000000000000000000000000000000000000000008152336004820152602401610383565b600061045c836102ed565b73ffffffffffffffffffffffffffffffffffffffff16146104cd576040517f5b4d6d6a0000000000000000000000000000000000000000000000000000000081527fffffffff0000000000000000000000000000000000000000000000000000000083166004820152602401610383565b6104d78282610539565b5050565b60008083836040516020016104fa929190918252602082015260400190565b604080517fffffffffffffffffffffffffffffffffffffffffffffffffffffffffffffffe0818403018152919052805160209091012054949350505050565b604080517fbe27a319efc8734e89e26ba4bc95f5c788584163b959f03fa04e2d7ab4b9a1206020808301919091527fffffffff000000000000000000000000000000000000000000000000000000008516828401819052835180840385018152606084018086528151919093012073ffffffffffffffffffffffffffffffffffffffff8616908190559152608082015290517f0d7fc113eaf016db4681a1ba86d083ce3e0961f321062a75ac2b0aeb33deeed19181900360a00190a15050565b80357fffffffff000000000000000000000000000000000000000000000000000000008116906004841015610658577fffffffff00000000000000000000000000000000000000000000000000000000808560040360031b1b82161691505b5092915050565b8183823760009101908152919050565b803573ffffffffffffffffffffffffffffffffffffffff8116811461069357600080fd5b919050565b60008083601f8401126106aa57600080fd5b50813567ffffffffffffffff8111156106c257600080fd5b6020830191508360208285010111156106da57600080fd5b9250929050565b6000806000806000608086880312156106f957600080fd5b6107028661066f565b94506107106020870161066f565b935060408601359250606086013567ffffffffffffffff81111561073357600080fd5b61073f88828901610698565b969995985093965092949392505050565b80357fffffffff000000000000000000000000000000000000000000000000000000008116811461069357600080fd5b60006020828403121561079257600080fd5b61079b82610750565b9392505050565b600080600080606085870312156107b857600080fd5b6107c18561066f565b935060208501359250604085013567ffffffffffffffff8111156107e457600080fd5b6107f087828801610698565b95989497509550505050565b6000806040838503121561080f57600080fd5b61081883610750565b91506108266020840161066f565b90509250929050565b60008083601f84011261084157600080fd5b50813567ffffffffffffffff81111561085957600080fd5b6020830191508360208260051b85010111156106da57600080fd5b60008060008060008060008060a0898b03121561089057600080fd5b6108998961066f565b97506108a760208a0161066f565b9650604089013567ffffffffffffffff8111156108c357600080fd5b6108cf8b828c0161082f565b909750955050606089013567ffffffffffffffff8111156108ef57600080fd5b6108fb8b828c0161082f565b909550935050608089013567ffffffffffffffff81111561091b57600080fd5b6109278b828c01610698565b999c989b5096995094979396929594505050565b60008060008060008060a0878903121561095457600080fd5b61095d8761066f565b955061096b6020880161066f565b94506040870135935060608701359250608087013567ffffffffffffffff81111561099557600080fd5b6109a189828a01610698565b979a969950949750929593949250505056fea2646970667358221220562b7783e5cf22af5741b4065f06b85b0cc24d342fbb65670de9e8f11b579f8864736f6c634300081b0033",
  "linkReferences": {},
  "deployedLinkReferences": {}
}