{"abi":[{"type":"function","name":"VALUE_TRACKING_ADDRESS","inputs":[],"outputs":[{"name":"","type":"address","internalType":"address"}],"stateMutability":"view"},{"type":"function","name":"getLimitUsage","inputs":[{"name":"wallet","type":"address","internalType":"address"},{"name":"usageHash","type":"bytes32","internalType":"bytes32"}],"outputs":[{"name":"","type":"uint256","internalType":"uint256"}],"stateMutability":"view"},{"type":"function","name":"incrementUsageLimit","inputs":[{"name":"limits","type":"tuple[]","internalType":"struct UsageLimit[]","components":[{"name":"usageHash","type":"bytes32","internalType":"bytes32"},{"name":"usageAmount","type":"uint256","internalType":"uint256"}]}],"outputs":[],"stateMutability":"nonpayable"},{"type":"function","name":"recoverSapientSignature","inputs":[{"name":"payload","type":"tuple","internalType":"struct Payload.Decoded","components":[{"name":"kind","type":"uint8","internalType":"uint8"},{"name":"noChainId","type":"bool","internalType":"bool"},{"name":"calls","type":"tuple[]","internalType":"struct Payload.Call[]","components":[{"name":"to","type":"address","internalType":"address"},{"name":"value","type":"uint256","internalType":"uint256"},{"name":"data","type":"bytes","internalType":"bytes"},{"name":"gasLimit","type":"uint256","internalType":"uint256"},{"name":"delegateCall","type":"bool","internalType":"bool"},{"name":"onlyFallback","type":"bool","internalType":"bool"},{"name":"behaviorOnError","type":"uint256","internalType":"uint256"}]},{"name":"space","type":"uint256","internalType":"uint256"},{"name":"nonce","type":"uint256","internalType":"uint256"},{"name":"message","type":"bytes","internalType":"bytes"},{"name":"imageHash","type":"bytes32","internalType":"bytes32"},{"name":"digest","type":"bytes32","internalType":"bytes32"},{"name":"parentWallets","type":"address[]","internalType":"address[]"}]},{"name":"encodedSignature","type":"bytes","internalType":"bytes"}],"outputs":[{"name":"","type":"bytes32","internalType":"bytes32"}],"stateMutability":"view"},{"type":"function","name":"validatePermission","inputs":[{"name":"permission","type":"tuple","internalType":"struct Permission","components":[{"name":"target","type":"address","internalType":"address"},{"name":"rules","type":"tuple[]","internalType":"struct ParameterRule[]","components":[{"name":"cumulative","type":"bool","internalType":"bool"},{"name":"operation","type":"uint8","internalType":"enum ParameterOperation"},{"name":"value","type":"bytes32","internalType":"bytes32"},{"name":"offset","type":"uint256","internalType":"uint256"},{"name":"mask","type":"bytes32","internalType":"bytes32"}]}]},{"name":"call","type":"tuple","internalType":"struct Payload.Call","components":[{"name":"to","type":"address","internalType":"address"},{"name":"value","type":"uint256","internalType":"uint256"},{"name":"data","type":"bytes","internalType":"bytes"},{"name":"gasLimit","type":"uint256","internalType":"uint256"},{"name":"delegateCall","type":"bool","internalType":"bool"},{"name":"onlyFallback","type":"bool","internalType":"bool"},{"name":"behaviorOnError","type":"uint256","internalType":"uint256"}]},{"name":"wallet","type":"address","internalType":"address"},{"name":"signer","type":"address","internalType":"address"},{"name":"usageLimits","type":"tuple[]","internalType":"struct UsageLimit[]","components":[{"name":"usageHash","type":"bytes32","internalType":"bytes32"},{"name":"usageAmount","type":"uint256","internalType":"uint256"}]}],"outputs":[{"name":"","type":"bool","internalType":"bool"},{"name":"newUsageLimits","type":"tuple[]","internalType":"struct UsageLimit[]","components":[{"name":"usageHash","type":"bytes32","internalType":"bytes32"},{"name":"usageAmount","type":"uint256","internalType":"uint256"}]}],"stateMutability":"view"},{"type":"event","name":"LimitUsageUpdated","inputs":[{"name":"wallet","type":"address","indexed":false,"internalType":"address"},{"name":"usageHash","type":"bytes32","indexed":false,"internalType":"bytes32"},{"name":"usageAmount","type":"uint256","indexed":false,"internalType":"uint256"}],"anonymous":false},{"type":"error","name":"BlacklistedAddress","inputs":[{"name":"target","type":"address","internalType":"address"}]},{"type":"error","name":"InvalidAttestation","inputs":[]},{"type":"error","name":"InvalidBlacklist","inputs":[]},{"type":"error","name":"InvalidCallsLength","inputs":[]},{"type":"error","name":"InvalidChainId","inputs":[{"name":"invalidChainId","type":"uint256","internalType":"uint256"}]},{"type":"error","name":"InvalidDelegateCall","inputs":[]},{"type":"error","name":"InvalidIdentitySigner","inputs":[]},{"type":"error","name":"InvalidImplicitResult","inputs":[]},{"type":"error","name":"InvalidLimitUsageIncrement","inputs":[]},{"type":"error","name":"InvalidNodeType","inputs":[{"name":"flag","type":"uint256","internalType":"uint256"}]},{"type":"error","name":"InvalidPayloadKind","inputs":[]},{"type":"error","name":"InvalidPermission","inputs":[]},{"type":"error","name":"InvalidSelfCall","inputs":[]},{"type":"error","name":"InvalidSessionSigner","inputs":[{"name":"invalidSigner","type":"address","internalType":"address"}]},{"type":"error","name":"InvalidValue","inputs":[]},{"type":"error","name":"MissingPermission","inputs":[]},{"type":"error","name":"SessionExpired","inputs":[{"name":"deadline","type":"uint256","internalType":"uint256"}]}],"bytecode":{"object":"0x608080604052346015576134c3908161001b8239f35b600080fdfe6080604052600436101561001257600080fd5b60003560e01c806313792a4a1461006757806323b3713e14610062578063313dade71461005d57806342de1418146100585763f916f3b21461005357600080fd5b610623565b6105a6565b6103df565b610184565b3461013a5760407ffffffffffffffffffffffffffffffffffffffffffffffffffffffffffffffffc36011261013a5760043567ffffffffffffffff811161013a576101207ffffffffffffffffffffffffffffffffffffffffffffffffffffffffffffffffc823603011261013a5760243567ffffffffffffffff811161013a573660238201121561013a57806004013567ffffffffffffffff811161013a57366024828401011161013a57610136926024610126930190600401610950565b6040519081529081906020820190565b0390f35b600080fd5b73ffffffffffffffffffffffffffffffffffffffff81160361013a57565b6044359061016a8261013f565b565b6064359061016a8261013f565b359061016a8261013f565b3461013a5760407ffffffffffffffffffffffffffffffffffffffffffffffffffffffffffffffffc36011261013a576004356101bf8161013f565b73ffffffffffffffffffffffffffffffffffffffff602435911660005260006020526040600020906000526020526020604060002054604051908152f35b7f4e487b7100000000000000000000000000000000000000000000000000000000600052604160045260246000fd5b6040810190811067ffffffffffffffff82111761024857604052565b6101fd565b60a0810190811067ffffffffffffffff82111761024857604052565b90601f7fffffffffffffffffffffffffffffffffffffffffffffffffffffffffffffffe0910116810190811067ffffffffffffffff82111761024857604052565b6040519061016a604083610269565b6040519061016a60e083610269565b67ffffffffffffffff81116102485760051b60200190565b8015150361013a57565b359061016a826102e0565b908160e091031261013a5790565b81601f8201121561013a5780359061031a826102c8565b926103286040519485610269565b82845260208085019360061b8301019181831161013a57602001925b828410610352575050505090565b60408483031261013a576020604091825161036c8161022c565b863581528287013583820152815201930192610344565b906020808351928381520192019060005b8181106103a15750505090565b8251805185526020908101518186015260409094019390920191600101610394565b6040906103dc9392151581528160208201520190610383565b90565b3461013a5760a07ffffffffffffffffffffffffffffffffffffffffffffffffffffffffffffffffc36011261013a5760043567ffffffffffffffff811161013a5760407ffffffffffffffffffffffffffffffffffffffffffffffffffffffffffffffffc823603011261013a57604051906104598261022c565b80600401356104678161013f565b825260248101359067ffffffffffffffff821161013a57013660238201121561013a576004810135610498816102c8565b916104a66040519384610269565b8183526020600460a08286019402830101019036821161013a57602401915b81831061054057505050602082015260243567ffffffffffffffff811161013a576104f49036906004016102f5565b906104fd61015d565b61050561016c565b906084359367ffffffffffffffff851161013a5761052a610530953690600401610303565b93610f74565b90610136604051928392836103c3565b60a08336031261013a57604051906105578261024d565b8335610562816102e0565b8252602084013590600482101561013a57826020928360a09501526040860135604082015260608601356060820152608086013560808201528152019201916104c5565b3461013a5760207ffffffffffffffffffffffffffffffffffffffffffffffffffffffffffffffffc36011261013a5760043567ffffffffffffffff811161013a573660238201121561013a57806004013567ffffffffffffffff811161013a573660248260061b8401011161013a57602461062192016112bd565b005b3461013a5760007ffffffffffffffffffffffffffffffffffffffffffffffffffffffffffffffffc36011261013a57602060405173eeeeeeeeeeeeeeeeeeeeeeeeeeeeeeeeeeeeeeee8152f35b3560ff8116810361013a5790565b9035907fffffffffffffffffffffffffffffffffffffffffffffffffffffffffffffffe18136030182121561013a570180359067ffffffffffffffff821161013a57602001918160051b3603831361013a57565b604051906060820182811067ffffffffffffffff821117610248576040526000604083828152606060208201520152565b9061070d826102c8565b61071a6040519182610269565b8281527fffffffffffffffffffffffffffffffffffffffffffffffffffffffffffffffe061074882946102c8565b019060005b82811061075957505050565b6020906107646106d2565b8282850101520161074d565b7f4e487b7100000000000000000000000000000000000000000000000000000000600052603260045260246000fd5b91908110156107df5760051b810135907fffffffffffffffffffffffffffffffffffffffffffffffffffffffffffffff218136030182121561013a570190565b610770565b356103dc816102e0565b80518210156107df5760209160051b010190565b6040519061080f8261022c565b60006020838281520152565b6040519061082a602083610269565b600080835282815b82811061083e57505050565b602090610849610802565b82828501015201610832565b9061085f826102c8565b61086c6040519182610269565b8281527fffffffffffffffffffffffffffffffffffffffffffffffffffffffffffffffe061089a82946102c8565b019060005b8281106108ab57505050565b6020906108b6610802565b8282850101520161089f565b7f4e487b7100000000000000000000000000000000000000000000000000000000600052601160045260246000fd5b7fffffffffffffffffffffffffffffffffffffffffffffffffffffffffffffffff811461091e5760010190565b6108c2565b907fffffffffffffffffffffffffffffffffffffffffffffffffffffffffffffffff820191821161091e57565b919060ff61095d84610670565b16610dd7576040830191610971838561067e565b905015610dad57610985918495939561159c565b9161099a610993858361067e565b9050610703565b9060009460808501955b6109ae828461067e565b9050811015610cde576109cb816109c5848661067e565b9061079f565b6109d7608082016107e4565b610cb4576109e68289516107ee565b51805115610a305760019291816060610a196020610a2a95015173ffffffffffffffffffffffffffffffffffffffff1690565b9101519060408b0151923390611fe2565b016109a4565b91959392969050610a3f6106d2565b96602083019460005b8751811015610c9357610a95610a7c610a61838b6107ee565b515173ffffffffffffffffffffffffffffffffffffffff1690565b73ffffffffffffffffffffffffffffffffffffffff1690565b15610b5c57610aa7610a61828a6107ee565b73ffffffffffffffffffffffffffffffffffffffff610add610a7c8a5173ffffffffffffffffffffffffffffffffffffffff1690565b911614610aec57600101610a48565b9097929850610b45610b569295968a600196610b3c60406060610b30610b138f8a906107ee565b51965b5173ffffffffffffffffffffffffffffffffffffffff1690565b94015192015160ff1690565b9133888c6119c6565b610b4f82896107ee565b52866107ee565b50610a2a565b90979298610b45908a600196610b3c60406060610b308d610bb4610b569b9e9f610b9a905173ffffffffffffffffffffffffffffffffffffffff1690565b73ffffffffffffffffffffffffffffffffffffffff168952565b610bbc61081b565b6020890152610c8a610be2825173ffffffffffffffffffffffffffffffffffffffff1690565b855173ffffffffffffffffffffffffffffffffffffffff9091166020820190815273eeeeeeeeeeeeeeeeeeeeeeeeeeeeeeeeeeeeeeee604083015290610c5381606081015b037fffffffffffffffffffffffffffffffffffffffffffffffffffffffffffffffe08101835282610269565b5190203373ffffffffffffffffffffffffffffffffffffffff16600052600060205260406000209060005260205260406000205490565b84890152610b16565b90979298610b45908a600196610b3c60406060610b30610b56999c9d610b16565b7faa25f2ad0000000000000000000000000000000000000000000000000000000060005260046000fd5b509392945090610cee8151610703565b9260009260005b8351811015610d70576020610d0a82866107ee565b5101515115801590610d59575b610d24575b600101610cf5565b93610d51600191610d3587876107ee565b51610d40828a6107ee565b52610d4b81896107ee565b506108f1565b949050610d1c565b506040610d6682866107ee565b5101511515610d17565b509094610da49250610da994938452610d9e610d97610d8f838561067e565b93909461067e565b9050610923565b9161079f565b612278565b5190565b7f542f0af50000000000000000000000000000000000000000000000000000000060005260046000fd5b7f720521200000000000000000000000000000000000000000000000000000000060005260046000fd5b356103dc8161013f565b906001820180921161091e57565b9190820180921161091e57565b9035907fffffffffffffffffffffffffffffffffffffffffffffffffffffffffffffffe18136030182121561013a570180359067ffffffffffffffff821161013a5760200191813603831361013a57565b60041115610e8157565b7f4e487b7100000000000000000000000000000000000000000000000000000000600052602160045260246000fd5b9392919073ffffffffffffffffffffffffffffffffffffffff16845260606020850152602060a085019173ffffffffffffffffffffffffffffffffffffffff81511660608701520151604060808601528051809252602060c0860191019160005b818110610f2357505060409150930152565b909183518051151582526020810151906004821015610e815782608060a092602094856001970152604081015160408401526060810151606084015201516080820152019401910192919092610f11565b949091929394610f98815173ffffffffffffffffffffffffffffffffffffffff1690565b73ffffffffffffffffffffffffffffffffffffffff610fb9610a7c86610e01565b9116036112a257855192610fdc610fd7602084019586515190610e19565b610855565b9460005b88518110156110135780610ff66001928b6107ee565b51611001828a6107ee565b5261100c81896107ee565b5001610fe0565b50909294919395875160005b885180518210156112915781611034916107ee565b516110586110456040890189610e26565b5060608301519081013591602090910190565b506080820151169061106a8151151590565b61113d575b60208101805161107e81610e77565b61108781610e77565b6110ad5750604001510361109f576001905b0161101f565b506000989750505050505050565b600381516110ba81610e77565b6110c381610e77565b036110da5750604001511061109f57600190611099565b600181516110e781610e77565b6110f081610e77565b036111075750604001511461109f57600190611099565b6002905161111481610e77565b61111d81610e77565b1461112d575b5050600190611099565b604001511161109f573880611123565b9691989795929093998a610c276111608c6040519283918c602084019687610eb0565b5190209660009361116f610802565b9c60005b87518110156112795761118681896107ee565b51511561122c578a611198828a6107ee565b5151146111a757600101611173565b6020949e50879a9198939c9d96506111c5906111da939c96986107ee565b519284840151915b82156111e5575b50610e19565b91829101529061106f565b6112249192506112158b73ffffffffffffffffffffffffffffffffffffffff166000526000602052604060002090565b90600052602052604060002090565b5490386111d4565b6020949e506111da929b95509761127389899c99959e9f98939a61126d906112526102aa565b978c895260008a8a01528861126783836107ee565b526107ee565b50610e0b565b976111cd565b5096946020939d929b9c956111da929b95979a6111cd565b505083525060019650909450505050565b509250505060009190565b91908110156107df5760061b0190565b60005b8281106112cc57505050565b60206112d98285856112ad565b013561131e6112e98386866112ad565b353373ffffffffffffffffffffffffffffffffffffffff16600052600060205260406000209060005260205260406000205490565b1161139857807f42063b8d32ac0a88f94053143bb30a789b3d5dfabb27d6c8a54e23d4fef30851606061135460019487876112ad565b3560206113628589896112ad565b0135336000526000602052604060002082600052602052806040600020556040519133835260208301526040820152a1016112c0565b7e2a700a0000000000000000000000000000000000000000000000000000000060005260046000fd5b604051906113ce8261024d565b6060608083600081526000602082015282604082015282808201520152565b9060041161013a5790600490565b9093929384831161013a57841161013a578101920390565b604051906114208261022c565b6000602083606081520152565b6040519060c0820182811067ffffffffffffffff8211176102485760405281600081526000602082015260006040820152600060608201526060608082015260a0611476611413565b910152565b90611485826102c8565b6114926040519182610269565b8281527fffffffffffffffffffffffffffffffffffffffffffffffffffffffffffffffe06114c082946102c8565b019060005b8281106114d157505050565b6020906114dc61142d565b828285010152016114c5565b6040513d6000823e3d90fd5b604051906080820182811067ffffffffffffffff8211176102485760405281600081526000602082015260006040820152606061147661142d565b90611539826102c8565b6115466040519182610269565b8281527fffffffffffffffffffffffffffffffffffffffffffffffffffffffffffffffe061157482946102c8565b019060005b82811061158557505050565b6020906115906114f4565b82828501015201611579565b909162ffffff926115ab6113c1565b50600091813560e81c60039516906115e26115da6115d46115cc858a610e19565b8985886113fb565b90612579565b939097610e19565b602087019473ffffffffffffffffffffffffffffffffffffffff61161a875173ffffffffffffffffffffffffffffffffffffffff1690565b161561190a5750600181019392919083013560f81c906116398261147b565b9560005b83811061183e5750505015159081611835575b5061180b576040840193611664858261067e565b9490506116708561152f565b95608088019687526000945b86861061168e57505050505050505090565b6116aa6116996114f4565b918681013560f81c91600190910190565b608082161515835296908251156117eb57607f1684518110156117c15760006116e961172b996116dc602094896107ee565b5160608701525b89612ab4565b9b9092916117048b6116ff896109c58d8461067e565b612c3b565b92604051948594859094939260ff6060936080840197845216602083015260408201520152565b838052039060015afa156117bc57611766610a7c600051610b166020860191829073ffffffffffffffffffffffffffffffffffffffff169052565b156117875761177f816001938b519061126783836107ee565b50019461167c565b7fc1e84ed6000000000000000000000000000000000000000000000000000000006000526117b86024906000600452565b6000fd5b6114e8565b7fbd8ba84d0000000000000000000000000000000000000000000000000000000060005260046000fd5b60006116e961172b99611806602094604088019060ff169052565b6116e3565b7feb6252040000000000000000000000000000000000000000000000000000000060005260046000fd5b90501538611650565b611866906020600061185d6118739a61185561142d565b50878b6129fe565b8a959195612ab4565b9c90929161170488612af7565b838052039060015afa156117bc5760005173ffffffffffffffffffffffffffffffffffffffff6118ba610a7c865173ffffffffffffffffffffffffffffffffffffffff1690565b9116036118e0576001916118ce828b6107ee565b526118d9818a6107ee565b500161163d565b7f9e5c658b0000000000000000000000000000000000000000000000000000000060005260046000fd5b807f9e5c658b0000000000000000000000000000000000000000000000000000000060049252fd5b6040519061193f8261024d565b60606080836000815260006020820152600060408201526000838201520152565b919091357fffffffff0000000000000000000000000000000000000000000000000000000081169260048110611994575050565b7fffffffff00000000000000000000000000000000000000000000000000000000929350829060040360031b1b161690565b939594909291926119d56106d2565b506119de611932565b9660005b8151811015611d45576119f8610a6182846107ee565b73ffffffffffffffffffffffffffffffffffffffff808716911614611a1f576001016119e2565b90611a3092939495969798506107ee565b51945b73ffffffffffffffffffffffffffffffffffffffff611a66875173ffffffffffffffffffffffffffffffffffffffff1690565b1615611d0157602086015180151580611cf7575b611cca5750606086015167ffffffffffffffff1680151580611cb7575b611c805750906109c5826040611aae94019061067e565b91611abb608084016107e4565b610cb457611ac883610e01565b73ffffffffffffffffffffffffffffffffffffffff163014611bce576080850160ff815151931692831015611ba457611b1592611b0591516107ee565b5190602087019484865193610f74565b9015611b7a5760209252013580611b63575b5060408083015191015110611b395790565b7faa7feadc0000000000000000000000000000000000000000000000000000000060005260046000fd5b611b7260408401918251610e19565b905238611b27565b7f868a64de0000000000000000000000000000000000000000000000000000000060005260046000fd5b7f3f904dc00000000000000000000000000000000000000000000000000000000060005260046000fd5b50509150506020611bf4611bee611be86040850185610e26565b906113ed565b90611960565b9101351590811591611c33575b50611c095790565b7f540733ea0000000000000000000000000000000000000000000000000000000060005260046000fd5b7f42de14180000000000000000000000000000000000000000000000000000000091507fffffffff0000000000000000000000000000000000000000000000000000000016141538611c01565b7fb1bbfdd50000000000000000000000000000000000000000000000000000000060005267ffffffffffffffff1660045260246000fd5b5067ffffffffffffffff81164211611a97565b7f331003b30000000000000000000000000000000000000000000000000000000060005260045260246000fd5b5046811415611a7a565b7fc1e84ed60000000000000000000000000000000000000000000000000000000060005273ffffffffffffffffffffffffffffffffffffffff841660045260246000fd5b505090919293959495611a33565b9081602091031261013a575190565b60005b838110611d755750506000910152565b8181015183820152602001611d65565b907fffffffffffffffffffffffffffffffffffffffffffffffffffffffffffffffe0601f602093611dc181518092818752878088019101611d62565b0116010190565b601f82602094937fffffffffffffffffffffffffffffffffffffffffffffffffffffffffffffffe0938186528686013760008582860101520116010190565b9073ffffffffffffffffffffffffffffffffffffffff8235611e288161013f565b1681526020820135602082015260408201357fffffffffffffffffffffffffffffffffffffffffffffffffffffffffffffffe18336030181121561013a57820160208135910167ffffffffffffffff821161013a57813603811361013a57611ea060c09291839260e0604087015260e0860191611dc8565b9360608101356060850152611ec3611eba608083016102ea565b15156080860152565b611edb611ed260a083016102ea565b151560a0860152565b013591015290565b73ffffffffffffffffffffffffffffffffffffffff6103dc94921681526060602082015273ffffffffffffffffffffffffffffffffffffffff83511660608201527fffffffff000000000000000000000000000000000000000000000000000000006020840151166080820152604083015160a0820152606083015160c082015260a0611f80608085015160c060e0850152610120840190611d85565b930151927fffffffffffffffffffffffffffffffffffffffffffffffffffffffffffffffa082820301610100830152602067ffffffffffffffff81611fce8751604086526040860190611d85565b960151169101526040818403910152611e07565b92939091612007610a7c865173ffffffffffffffffffffffffffffffffffffffff1690565b73ffffffffffffffffffffffffffffffffffffffff8216036121bf5761202f608085016107e4565b610cb45761203d8282612d8a565b61217c57506120549061204f84610e01565b612d8a565b61212e576020820135611b3957602082612076610a7c610a7c6120ac96610e01565b60405180809681947f9d043a66000000000000000000000000000000000000000000000000000000008352898860048501611ee3565b03915afa9182156117bc576000926120fb575b506120ca9192612e55565b036120d157565b7f0881ad5d0000000000000000000000000000000000000000000000000000000060005260046000fd5b6120ca92506121219060203d602011612127575b6121198183610269565b810190611d53565b916120bf565b503d61210f565b6117b861213a83610e01565b7fd33f19e70000000000000000000000000000000000000000000000000000000060005273ffffffffffffffffffffffffffffffffffffffff16600452602490565b7fd33f19e70000000000000000000000000000000000000000000000000000000060005273ffffffffffffffffffffffffffffffffffffffff1660045260246000fd5b7fc1e84ed60000000000000000000000000000000000000000000000000000000060005273ffffffffffffffffffffffffffffffffffffffff1660045260246000fd5b9060206103dc928181520190610383565b92919267ffffffffffffffff8211610248576040519161225b601f82017fffffffffffffffffffffffffffffffffffffffffffffffffffffffffffffffe01660200184610269565b82948184528183011161013a578281602093846000960137010152565b908051612283575050565b61228c82610e01565b73ffffffffffffffffffffffffffffffffffffffff1630148015906124ae575b61139857600092835b825185101561230a576122d89060206122ce87866107ee565b5101515190610e19565b9360406122e582856107ee565b5101516122f6575b600101936122b5565b936123026001916108f1565b9490506122ed565b61231691939450610855565b60009081935b83518510156124435760005b602061233487876107ee565b51015151811015612381578061237a61235d60019360206123558b8b6107ee565b5101516107ee565b5195612368816108f1565b9661237382886107ee565b52856107ee565b5001612328565b509493600190604061239382876107ee565b5101516123a3575b01939461231c565b61243d6123b3610a6183886107ee565b6040516123ff81610c27602082019485602073eeeeeeeeeeeeeeeeeeeeeeeeeeeeeeeeeeeeeeee9193929373ffffffffffffffffffffffffffffffffffffffff60408201951681520152565b51902094604061240f84896107ee565b51015161241a6102aa565b968752602087015261242b816108f1565b9561243682876107ee565b52846107ee565b5061239b565b9493506124a09250612499915060405161248b81610c2760208201947f42de141800000000000000000000000000000000000000000000000000000000865260248301612202565b519020926040810190610e26565b3691612213565b602081519101200361139857565b50600160c083013514156122ac565b906124c7826102c8565b6124d46040519182610269565b8281527fffffffffffffffffffffffffffffffffffffffffffffffffffffffffffffffe061250282946102c8565b019060005b82811061251357505050565b60209061251e611932565b82828501015201612507565b90612534826102c8565b6125416040519182610269565b8281527fffffffffffffffffffffffffffffffffffffffffffffffffffffffffffffffe061256f82946102c8565b0190602036910137565b916125826113c1565b60009384908190612595605e87046124bd565b91606085019283525b8681106125ae5750505152929150565b8181013560fc81901c97916001019060f81c81891561294f57506001891461291d576002891461277857600389146126ad575060048814612618577f0ad9979000000000000000000000000000000000000000000000000000000000600052600488905260246000fd5b90919293949596506020860173ffffffffffffffffffffffffffffffffffffffff612657825173ffffffffffffffffffffffffffffffffffffffff1690565b166118e0578382013560601c815260149091019061267d9061267890610b16565b613086565b865180156126a7579061269891600052602052604060002090565b86525b9594939291909561259e565b50612698565b9890919293949596975061180b57600f60019816600f8114612767575b81906126d58161252a565b604089019081528a60005b83811061272857505050506126fa826127009285876113fb565b90613012565b86518015612722579061271b91600052602052604060002090565b865261269b565b5061271b565b61275f958881013560601c9060140196906127448386516107ee565b9073ffffffffffffffffffffffffffffffffffffffff169052565b018b906126e0565b50600281019083013560f01c6126ca565b6127db9698506127d36127e492600f6115d4939c96979a95989c169087929190928160031b7fffffffffffffffffffffffffffffffffffffffffffffffffffffffffffffffff6001821b019185013590610100031c16920190565b979088610e19565b809787876113fb565b93909593612906575b6020860173ffffffffffffffffffffffffffffffffffffffff612824825173ffffffffffffffffffffffffffffffffffffffff1690565b1661289c575b5060005b6060870151805182101561286b579061286461284c826001946107ee565b519b8a51612859826108f1565b9d61126783836107ee565b500161282e565b5050929096959391979486518015156000146128955761271b915190600052602052604060002090565b505161271b565b602089016128c1610a7c825173ffffffffffffffffffffffffffffffffffffffff1690565b6118e0576128e6612900925173ffffffffffffffffffffffffffffffffffffffff1690565b73ffffffffffffffffffffffffffffffffffffffff169052565b3861282a565b9161180b57600191604086015160408901526127ed565b508551969750949593949293919290916020820191840135908015612722579061271b91600052602052604060002090565b92939495969798505050612961611932565b8184018035606090811c8352601482013560208401526034820135604084015260549091013560c01c908201529461299d605c83018486612f07565b80939160808901526129b09185876113fb565b6129b991612fbd565b87516129f292919080156129f857906129da91600052602052604060002090565b885285516129e7826108f1565b9761126783836107ee565b5061269b565b506129da565b612aa991939293612aa362ffffff612a7e6018612a1961142d565b987fffffffff000000000000000000000000000000000000000000000000000000006014888301803560601c8d5201351660208b01520160208682013591019060408a015260208682013591019060608a01528560039092919283013560e81c920190565b911690612a99612499612a918484610e19565b8387896113fb565b6080890152610e19565b916130ea565b929060a08201529190565b8101916040602084359401359201601b7f7fffffffffffffffffffffffffffffffffffffffffffffffffffffffffffffff84169360ff1c0160ff811161091e5791565b73ffffffffffffffffffffffffffffffffffffffff81511690612c1a7fffffffff00000000000000000000000000000000000000000000000000000000602083015116610c277fffffff0000000000000000000000000000000000000000000000000000000000604085015194606081015190608081015191612c096008602360a062ffffff87511695015180517fffffffffffffffff00000000000000000000000000000000000000000000000060208251930151916040519a8b9460e81b166020850152612bd08151809260208888019101611d62565b83019160c01b168382015203017fffffffffffffffffffffffffffffffffffffffffffffffffffffffffffffffe8810187520185610269565b604051978896602088019a8b613135565b51902090565b9080601f8301121561013a578160206103dc93359101612213565b906020810135612c4a816102e0565b15612d1a576000915b608060608301359201359160e08236031261013a57612c706102b9565b91612c7a81610179565b83526020810135602084015260408101359067ffffffffffffffff821161013a57612c1a9360c0612cf292612cb5610c279536908301612c20565b604084015260608101356060840152612cd0608082016102ea565b6080840152612ce160a082016102ea565b60a0840152013560c08201526131ed565b6040519485936020850197889290916080949284526020840152604083015260608201520190565b4691612c53565b907fffffffffffffffffffffffffffffffffffffffffffffffffffffffffffffffff820191821360011661091e57565b906001820191600060018412911290801582169115161761091e57565b9190916000838201938412911290801582169115161761091e57565b600082517fffffffffffffffffffffffffffffffffffffffffffffffffffffffffffffffff810190811360011661091e57905b81811315612dce5750505050600090565b808203600082128382128116908483139015161761091e57612df4906002900582612d6e565b90612e02610b1683876107ee565b73ffffffffffffffffffffffffffffffffffffffff8581169116808203612e2f5750505050505050600190565b1015612e445750612e3f90612d51565b612dbd565b9150612e4f90612d21565b90612dbd565b9060405160208101907f616363657074496d706c69636974526571756573740000000000000000000000825260158152612e90603582610269565b5190209160406060820151910151907fffffffffffffffffffffffffffffffffffffffff000000000000000000000000604051936020850195865260601b1660408401526054830152607482015260748152612c1a609482610269565b60405190612efa8261022c565b6060602083600081520152565b60018301939281013560f81c612f1c816102c8565b92612f2a6040519485610269565b8184527fffffffffffffffffffffffffffffffffffffffffffffffffffffffffffffffe0612f57836102c8565b0160005b818110612f9e5750506000925b828410612f7757505050509190565b90919295612f88600191848461333f565b9790612f9482886107ee565b5201929190612f68565b602090612fad95939495612eed565b8282890101520193929193612f5b565b90612c1a60016020926040519381859282840197600089526021850137820101828101600081525003017fffffffffffffffffffffffffffffffffffffffffffffffffffffffffffffffe08101835282610269565b90612c1a600160209260405193818592828401977f030000000000000000000000000000000000000000000000000000000000000089526021850137820101828101600081525003017fffffffffffffffffffffffffffffffffffffffffffffffffffffffffffffffe08101835282610269565b6040517fffffffffffffffffffffffffffffffffffffffff00000000000000000000000060208201927f0400000000000000000000000000000000000000000000000000000000000000845260601b16602182015260158152612c1a603582610269565b92916130f4611413565b9060038101908581013560e81c0194600386019182811161091e5761249960039361312292600b97856113fb565b83528501013560c01c6020820152920190565b9390927fffffffff00000000000000000000000000000000000000000000000000000000605b989796937fffffffffffffffffffffffffffffffffffffffff0000000000000000000000007fffffff00000000000000000000000000000000000000000000000000000000009660601b1687521660148601526018850152603884015260e81b1660588201526131d48251809360208785019101611d62565b016131e88251809360208685019101611d62565b010190565b73ffffffffffffffffffffffffffffffffffffffff81511690602081015190604081015160208151910120906060810151608082015115159060c060a08401511515930151936040519560208701977f0603985259a953da1f65a522f589c17bd1d0117ec1d3abb7c0788aef251ef437895260408801526060870152608086015260a085015260c084015260e08301526101008201526101008152612c1a61012082610269565b9061329e826102c8565b6132ab6040519182610269565b8281527fffffffffffffffffffffffffffffffffffffffffffffffffffffffffffffffe06132d982946102c8565b019060005b8281106132ea57505050565b6020906040516132f98161024d565b60008152600083820152600060408201526000606082015260006080820152828285010152016132de565b60ff166004811015610e815790565b6004821015610e815752565b60ff93929150613394613384613367613356612eed565b948481013560601c91601490910190565b73ffffffffffffffffffffffffffffffffffffffff909116855290565b8281013560f81c91600190910190565b941661339f81613294565b602084019081526000925b8284106133b957505050509190565b9091929561347261345461343661340c6134298b602061342261341a6134158c6133f160019c8e60019092919283013560f81c920190565b989091613404888f8516151592516107ee565b519015159052565b60011c607f1690565b613324565b928b516107ee565b5101613333565b8581013591602090910190565b9060406134448c89516107ee565b5101528481013591602090910190565b9060606134628b88516107ee565b5101528381013591602090910190565b979060806134818387516107ee565b510152019291906133aa56fea2646970667358221220fbec8fcf4e138324c4467036ee1507b2f8aa2752bfcb89890b736efe2f2497c664736f6c634300081c0033","linkReferences":{}},"methodIdentifiers":{"VALUE_TRACKING_ADDRESS()":"f916f3b2","getLimitUsage(address,bytes32)":"23b3713e","incrementUsageLimit((bytes32,uint256)[])":"42de1418","recoverSapientSignature((uint8,bool,(address,uint256,bytes,uint256,bool,bool,uint256)[],uint256,uint256,bytes,bytes32,bytes32,address[]),bytes)":"13792a4a","validatePermission((address,(bool,uint8,bytes32,uint256,bytes32)[]),(address,uint256,bytes,uint256,bool,bool,uint256),address,address,(bytes32,uint256)[])":"313dade7"},"id":34}