{
  "_format": "hh-sol-artifact-1",
  "contractName": "Passkeys",
  "sourceName": "src/extensions/passkeys/Passkeys.sol",
  "abi": [
    {
      "inputs": [
        {
          "components": [
            {
              "internalType": "bytes",
              "name": "authenticatorData",
              "type": "bytes"
            },
            {
              "internalType": "string",
              "name": "clientDataJSON",
              "type": "string"
            },
            {
              "internalType": "uint256",
              "name": "challengeIndex",
              "type": "uint256"
            },
            {
              "internalType": "uint256",
              "name": "typeIndex",
              "type": "uint256"
            },
            {
              "internalType": "bytes32",
              "name": "r",
              "type": "bytes32"
            },
            {
              "internalType": "bytes32",
              "name": "s",
              "type": "bytes32"
            }
          ],
          "internalType": "struct WebAuthn.WebAuthnAuth",
          "name": "_webAuthnAuth",
          "type": "tuple"
        },
        {
          "internalType": "bool",
          "name": "_requireUserVerification",
          "type": "bool"
        },
        {
          "internalType": "bytes32",
          "name": "_x",
          "type": "bytes32"
        },
        {
          "internalType": "bytes32",
          "name": "_y",
          "type": "bytes32"
        }
      ],
      "name": "InvalidPasskeySignature",
      "type": "error"
    },
    {
      "inputs": [
        {
          "internalType": "bytes32",
          "name": "_digest",
          "type": "bytes32"
        },
        {
          "internalType": "bytes",
          "name": "_signature",
          "type": "bytes"
        }
      ],
      "name": "isValidSapientSignatureCompact",
      "outputs": [
        {
          "internalType": "bytes32",
          "name": "",
          "type": "bytes32"
        }
      ],
      "stateMutability": "view",
      "type": "function"
    }
  ],
  "bytecode": "0x6080604052348015600f57600080fd5b50610b528061001f6000396000f3fe608060405234801561001057600080fd5b506004361061002b5760003560e01c8063957d2b2314610030575b600080fd5b61004361003e366004610730565b610055565b60405190815260200160405180910390f35b60008060008060006100678787610103565b935093509350935061009d8860405160200161008591815260200190565b6040516020818303038152906040528486858561044f565b6100e457838383836040517f12a693e60000000000000000000000000000000000000000000000000000000081526004016100db9493929190610812565b60405180910390fd5b6000918252602090815260408083209383529290522095945050505050565b6040805160c081018252606080825260208201819052600092820183905281018290526080810182905260a081018290529080808086868281610148576101486108b8565b7fff000000000000000000000000000000000000000000000000000000000000009201359182169250507f200000000000000000000000000000000000000000000000000000000000000016600003610420577f010000000000000000000000000000000000000000000000000000000000000081161515935060ff600160f983901c8116810182169160fa84901c8216820181169160fb85901c8116810182169160fc86901c82168201169060006008860282811b7fffffffffffffffffffffffffffffffffffffffffffffffffffffffffffffffff018e840135610100929092039190911c168683018093508192505050600081830190508d8d84908392610254939291906108e7565b8080601f016020809104026020016040519081016040528093929190818152602001838380828437600081840152601f19601f820116905080830192505050505050508c60000181905250809250505060006102f28d8d848892810135600884026101008190039190911c7fffffffffffffffffffffffffffffffffffffffffffffffffffffffffffffffff600190921b9190910116939201919050565b8093508192505050600081830190508d8d84908392610313939291906108e7565b8080601f01602080910402602001604051908101604052809392919081815260200183838082843760009201919091525050505060208d015291505060016008840290811b7fffffffffffffffffffffffffffffffffffffffffffffffffffffffffffffffff018d830135610100929092039190911c1683820160408c0191909152905060016008830290811b7fffffffffffffffffffffffffffffffffffffffffffffffffffffffffffffffff018d830135610100929092039190911c1682820160608c019190915290508b8101356020820160808c019190915290508b8101356020820160a08c019190915290508b8101356020820190985090508b81013596505050505050610445565b61042d866001818a6108e7565b81019061043a9190610a32565b929750909550935091505b5092959194509250565b600080600061046088600180610589565b905060208601518051602082019150604088015160608901518451600d81017f226368616c6c656e6765223a220000000000000000000000000000000000000060981c87528484820110602282868901015160001a14168160138901208286890120141685846014011085851760801c107f2274797065223a22776562617574686e2e67657422000000000000000000000060581c8589015160581c14161698505080865250505087515189151560021b600117808160218c510151161460208311881616965050851561055d57602089510181810180516020600160208601856020868a8c60025afa60011b5afa51915295503d905061055d57fe5b505050821561057e5761057b8287608001518860a00151888861069a565b92505b505095945050505050565b606083518015610692576003600282010460021b60405192507f4142434445464748494a4b4c4d4e4f505152535455565758595a616263646566601f526106708515027f6768696a6b6c6d6e6f707172737475767778797a303132333435363738392d5f18603f52602083018181018388602001018051600082525b60038a0199508951603f8160121c1651600053603f81600c1c1651600153603f8160061c1651600253603f8116516003535060005184526004840193508284106106055790526020016040527f3d3d000000000000000000000000000000000000000000000000000000000000600384066002048083039190915260008615159091029182900352900382525b509392505050565b6000604051868152856020820152846040820152836060820152826080820152600080526020600060a0836101005afa503d6106fa5760203d60a0836dd01ea45f9efd5c54f037fa57ea1a5afa503d6106fa5763d0d5039b3d526004601cfd5b506000516001147f7fffffff800000007fffffffffffffffde737d56d38bcf4279dce5617e3192a8851110905095945050505050565b60008060006040848603121561074557600080fd5b83359250602084013567ffffffffffffffff81111561076357600080fd5b8401601f8101861361077457600080fd5b803567ffffffffffffffff81111561078b57600080fd5b86602082840101111561079d57600080fd5b939660209190910195509293505050565b6000815180845260005b818110156107d4576020818501810151868301820152016107b8565b5060006020828601015260207fffffffffffffffffffffffffffffffffffffffffffffffffffffffffffffffe0601f83011685010191505092915050565b608081526000855160c0608084015261082f6101408401826107ae565b905060208701517fffffffffffffffffffffffffffffffffffffffffffffffffffffffffffffff808483030160a085015261086a82826107ae565b604089015160c0860152606089015160e0860152608089015161010086015260a0890151610120860152871515602086015292506108a6915050565b60408201939093526060015292915050565b7f4e487b7100000000000000000000000000000000000000000000000000000000600052603260045260246000fd5b600080858511156108f757600080fd5b8386111561090457600080fd5b5050820193919092039150565b7f4e487b7100000000000000000000000000000000000000000000000000000000600052604160045260246000fd5b60405160c0810167ffffffffffffffff8111828210171561096357610963610911565b60405290565b600082601f83011261097a57600080fd5b81356020830160008067ffffffffffffffff84111561099b5761099b610911565b506040517fffffffffffffffffffffffffffffffffffffffffffffffffffffffffffffffe0601f85018116603f0116810181811067ffffffffffffffff821117156109e8576109e8610911565b604052838152905080828401871015610a0057600080fd5b838360208301376000602085830101528094505050505092915050565b80358015158114610a2d57600080fd5b919050565b60008060008060808587031215610a4857600080fd5b843567ffffffffffffffff811115610a5f57600080fd5b850160c08188031215610a7157600080fd5b610a79610940565b813567ffffffffffffffff811115610a9057600080fd5b610a9c89828501610969565b825250602082013567ffffffffffffffff811115610ab957600080fd5b610ac589828501610969565b60208381019190915260408481013590840152606080850135908401526080808501359084015260a09384013593830193909352509450610b07908601610a1d565b9396939550505050604082013591606001359056fea2646970667358221220ce280aa83d6bc31b90336b8f952027695a23d2bf859216ba2e9ae1a591c353ce64736f6c634300081b0033",
  "linkReferences": {},
  "deployedLinkReferences": {}
}