{
  "_format": "hh-sol-artifact-1",
  "contractName": "Passkeys",
  "sourceName": "src/extensions/passkeys/Passkeys.sol",
  "abi": [
    {
      "inputs": [
        {
          "components": [
            {
              "internalType": "bytes",
              "name": "authenticatorData",
              "type": "bytes"
            },
            {
              "internalType": "string",
              "name": "clientDataJSON",
              "type": "string"
            },
            {
              "internalType": "uint256",
              "name": "challengeIndex",
              "type": "uint256"
            },
            {
              "internalType": "uint256",
              "name": "typeIndex",
              "type": "uint256"
            },
            {
              "internalType": "bytes32",
              "name": "r",
              "type": "bytes32"
            },
            {
              "internalType": "bytes32",
              "name": "s",
              "type": "bytes32"
            }
          ],
          "internalType": "struct WebAuthn.WebAuthnAuth",
          "name": "_webAuthnAuth",
          "type": "tuple"
        },
        {
          "internalType": "bool",
          "name": "_requireUserVerification",
          "type": "bool"
        },
        {
          "internalType": "bytes32",
          "name": "_x",
          "type": "bytes32"
        },
        {
          "internalType": "bytes32",
          "name": "_y",
          "type": "bytes32"
        }
      ],
      "name": "InvalidPasskeySignature",
      "type": "error"
    },
    {
      "inputs": [
        {
          "internalType": "bytes32",
          "name": "_digest",
          "type": "bytes32"
        },
        {
          "internalType": "bytes",
          "name": "_signature",
          "type": "bytes"
        }
      ],
      "name": "recoverSapientSignatureCompact",
      "outputs": [
        {
          "internalType": "bytes32",
          "name": "",
          "type": "bytes32"
        }
      ],
      "stateMutability": "view",
      "type": "function"
    }
  ],
  "bytecode": "0x6080604052348015600f57600080fd5b50610be78061001f6000396000f3fe608060405234801561001057600080fd5b506004361061002b5760003560e01c8063898bd92114610030575b600080fd5b61004361003e3660046107ba565b610055565b60405190815260200160405180910390f35b6000806000806000806100688888610100565b945094509450945094506100a08960405160200161008891815260200190565b60405160208183030381529060405285878686610492565b6100e757848484846040517f12a693e60000000000000000000000000000000000000000000000000000000081526004016100de949392919061089c565b60405180910390fd5b6100f3848484846105cc565b9998505050505050505050565b6040805160c081018252606080825260208201819052600092820183905281018290526080810182905260a0810182905290808080808787828161014657610146610942565b7fff000000000000000000000000000000000000000000000000000000000000009201359182169250507f200000000000000000000000000000000000000000000000000000000000000016600003610460577f010000000000000000000000000000000000000000000000000000000000000081161515945060ff600160f983901c8116810182169160fa84901c8216820181169160fb85901c8116810182169160fc86901c8216820116907f4000000000000000000000000000000000000000000000000000000000000000861615610225578c81013596506020015b60006102738e8e848992810135600884026101008190039190911c7fffffffffffffffffffffffffffffffffffffffffffffffffffffffffffffffff600190921b9190910116939201919050565b8093508192505050600081830190508e8e8490839261029493929190610971565b8080601f016020809104026020016040519081016040528093929190818152602001838380828437600081840152601f19601f820116905080830192505050505050508d60000181905250809250505060006103328e8e848892810135600884026101008190039190911c7fffffffffffffffffffffffffffffffffffffffffffffffffffffffffffffffff600190921b9190910116939201919050565b8093508192505050600081830190508e8e8490839261035393929190610971565b8080601f01602080910402602001604051908101604052809392919081815260200183838082843760009201919091525050505060208e015291505060016008840290811b7fffffffffffffffffffffffffffffffffffffffffffffffffffffffffffffffff018e830135610100929092039190911c1683820160408d0191909152905060016008830290811b7fffffffffffffffffffffffffffffffffffffffffffffffffffffffffffffffff018e830135610100929092039190911c1682820160608d019190915290508c8101356020820160808d019190915290508c8101356020820160a08d019190915290508c8101356020820190995090508c81013597505050505050610487565b61046d876001818b610971565b81019061047a9190610abc565b9399509197509550935091505b509295509295909350565b60008060006104a388600180610613565b905060208601518051602082019150604088015160608901518451600d81017f226368616c6c656e6765223a220000000000000000000000000000000000000060981c87528484820110602282868901015160001a14168160138901208286890120141685846014011085851760801c107f2274797065223a22776562617574686e2e67657422000000000000000000000060581c8589015160581c14161698505080865250505087515189151560021b600117808160218c51015116146020831188161696505085156105a057602089510181810180516020600160208601856020868a8c60025afa60011b5afa51915295503d90506105a057fe5b50505082156105c1576105be8287608001518860a001518888610724565b92505b505095945050505050565b60008381526020839052604081208560006105f1828660009182526020526040902090565b9050610607838260009182526020526040902090565b98975050505050505050565b60608351801561071c576003600282010460021b60405192507f4142434445464748494a4b4c4d4e4f505152535455565758595a616263646566601f526106708515027f6768696a6b6c6d6e6f707172737475767778797a303132333435363738392d5f18603f52602083018181018388602001018051600082525b60038a0199508951603f8160121c1651600053603f81600c1c1651600153603f8160061c1651600253603f81165160035350600051845260048401935082841061068f5790526020016040527f3d3d000000000000000000000000000000000000000000000000000000000000600384066002048083039190915260008615159091029182900352900382525b509392505050565b6000604051868152856020820152846040820152836060820152826080820152600080526020600060a0836101005afa503d6107845760203d60a0836dd01ea45f9efd5c54f037fa57ea1a5afa503d6107845763d0d5039b3d526004601cfd5b506000516001147f7fffffff800000007fffffffffffffffde737d56d38bcf4279dce5617e3192a8851110905095945050505050565b6000806000604084860312156107cf57600080fd5b83359250602084013567ffffffffffffffff8111156107ed57600080fd5b8401601f810186136107fe57600080fd5b803567ffffffffffffffff81111561081557600080fd5b86602082840101111561082757600080fd5b939660209190910195509293505050565b6000815180845260005b8181101561085e57602081850181015186830182015201610842565b5060006020828601015260207fffffffffffffffffffffffffffffffffffffffffffffffffffffffffffffffe0601f83011685010191505092915050565b608081526000855160c060808401526108b9610140840182610838565b905060208701517fffffffffffffffffffffffffffffffffffffffffffffffffffffffffffffff808483030160a08501526108f48282610838565b604089015160c0860152606089015160e0860152608089015161010086015260a089015161012086015287151560208601529250610930915050565b60408201939093526060015292915050565b7f4e487b7100000000000000000000000000000000000000000000000000000000600052603260045260246000fd5b6000808585111561098157600080fd5b8386111561098e57600080fd5b5050820193919092039150565b7f4e487b7100000000000000000000000000000000000000000000000000000000600052604160045260246000fd5b60405160c0810167ffffffffffffffff811182821017156109ed576109ed61099b565b60405290565b600082601f830112610a0457600080fd5b81356020830160008067ffffffffffffffff841115610a2557610a2561099b565b506040517fffffffffffffffffffffffffffffffffffffffffffffffffffffffffffffffe0601f85018116603f0116810181811067ffffffffffffffff82111715610a7257610a7261099b565b604052838152905080828401871015610a8a57600080fd5b838360208301376000602085830101528094505050505092915050565b80358015158114610ab757600080fd5b919050565b600080600080600060a08688031215610ad457600080fd5b853567ffffffffffffffff811115610aeb57600080fd5b860160c08189031215610afd57600080fd5b610b056109ca565b813567ffffffffffffffff811115610b1c57600080fd5b610b288a8285016109f3565b825250602082013567ffffffffffffffff811115610b4557600080fd5b610b518a8285016109f3565b60208381019190915260408481013590840152606080850135908401526080808501359084015260a09384013593830193909352509550610b93908701610aa7565b9497949650505050604083013592606081013592608090910135915056fea2646970667358221220d47ea73cebbc75ef2cecd09eabaab23924d785b1c9ac7c31726fe5b5d2f79ab964736f6c634300081b0033",
  "linkReferences": {},
  "deployedLinkReferences": {}
}