{
  "_format": "hh-sol-artifact-1",
  "contractName": "MainModule",
  "sourceName": "contracts/modules/MainModule.sol",
  "abi": [
    {
      "inputs": [
        {
          "internalType": "address",
          "name": "_factory",
          "type": "address"
        },
        {
          "internalType": "address",
          "name": "_mainModuleUpgradable",
          "type": "address"
        }
      ],
      "stateMutability": "nonpayable",
      "type": "constructor"
    },
    {
      "inputs": [
        {
          "internalType": "uint256",
          "name": "_space",
          "type": "uint256"
        },
        {
          "internalType": "uint256",
          "name": "_provided",
          "type": "uint256"
        },
        {
          "internalType": "uint256",
          "name": "_current",
          "type": "uint256"
        }
      ],
      "name": "BadNonce",
      "type": "error"
    },
    {
      "inputs": [
        {
          "internalType": "bytes4",
          "name": "_signature",
          "type": "bytes4"
        }
      ],
      "name": "HookAlreadyExists",
      "type": "error"
    },
    {
      "inputs": [
        {
          "internalType": "bytes4",
          "name": "_signature",
          "type": "bytes4"
        }
      ],
      "name": "HookDoesNotExist",
      "type": "error"
    },
    {
      "inputs": [],
      "name": "ImageHashIsZero",
      "type": "error"
    },
    {
      "inputs": [
        {
          "internalType": "address",
          "name": "_implementation",
          "type": "address"
        }
      ],
      "name": "InvalidImplementation",
      "type": "error"
    },
    {
      "inputs": [
        {
          "internalType": "bytes32",
          "name": "_hash",
          "type": "bytes32"
        },
        {
          "internalType": "address",
          "name": "_addr",
          "type": "address"
        },
        {
          "internalType": "bytes",
          "name": "_signature",
          "type": "bytes"
        }
      ],
      "name": "InvalidNestedSignature",
      "type": "error"
    },
    {
      "inputs": [
        {
          "internalType": "bytes",
          "name": "_signature",
          "type": "bytes"
        },
        {
          "internalType": "bytes32",
          "name": "_s",
          "type": "bytes32"
        }
      ],
      "name": "InvalidSValue",
      "type": "error"
    },
    {
      "inputs": [
        {
          "internalType": "bytes32",
          "name": "_hash",
          "type": "bytes32"
        },
        {
          "internalType": "bytes",
          "name": "_signature",
          "type": "bytes"
        }
      ],
      "name": "InvalidSignature",
      "type": "error"
    },
    {
      "inputs": [
        {
          "internalType": "uint256",
          "name": "_flag",
          "type": "uint256"
        }
      ],
      "name": "InvalidSignatureFlag",
      "type": "error"
    },
    {
      "inputs": [
        {
          "internalType": "bytes",
          "name": "_signature",
          "type": "bytes"
        }
      ],
      "name": "InvalidSignatureLength",
      "type": "error"
    },
    {
      "inputs": [
        {
          "internalType": "bytes1",
          "name": "_type",
          "type": "bytes1"
        }
      ],
      "name": "InvalidSignatureType",
      "type": "error"
    },
    {
      "inputs": [
        {
          "internalType": "bytes",
          "name": "_signature",
          "type": "bytes"
        },
        {
          "internalType": "uint256",
          "name": "_v",
          "type": "uint256"
        }
      ],
      "name": "InvalidVValue",
      "type": "error"
    },
    {
      "inputs": [
        {
          "internalType": "bytes",
          "name": "_signature",
          "type": "bytes"
        },
        {
          "internalType": "uint256",
          "name": "threshold",
          "type": "uint256"
        },
        {
          "internalType": "uint256",
          "name": "_weight",
          "type": "uint256"
        }
      ],
      "name": "LowWeightChainedSignature",
      "type": "error"
    },
    {
      "inputs": [
        {
          "internalType": "uint256",
          "name": "_index",
          "type": "uint256"
        },
        {
          "internalType": "uint256",
          "name": "_requested",
          "type": "uint256"
        },
        {
          "internalType": "uint256",
          "name": "_available",
          "type": "uint256"
        }
      ],
      "name": "NotEnoughGas",
      "type": "error"
    },
    {
      "inputs": [],
      "name": "OnlyDelegatecall",
      "type": "error"
    },
    {
      "inputs": [
        {
          "internalType": "address",
          "name": "_sender",
          "type": "address"
        },
        {
          "internalType": "address",
          "name": "_self",
          "type": "address"
        }
      ],
      "name": "OnlySelfAuth",
      "type": "error"
    },
    {
      "inputs": [
        {
          "internalType": "bytes",
          "name": "_signature",
          "type": "bytes"
        }
      ],
      "name": "SignerIsAddress0",
      "type": "error"
    },
    {
      "inputs": [
        {
          "internalType": "bytes",
          "name": "_signature",
          "type": "bytes"
        },
        {
          "internalType": "uint256",
          "name": "_type",
          "type": "uint256"
        },
        {
          "internalType": "bool",
          "name": "_recoverMode",
          "type": "bool"
        }
      ],
      "name": "UnsupportedSignatureType",
      "type": "error"
    },
    {
      "inputs": [
        {
          "internalType": "uint256",
          "name": "_current",
          "type": "uint256"
        },
        {
          "internalType": "uint256",
          "name": "_prev",
          "type": "uint256"
        }
      ],
      "name": "WrongChainedCheckpointOrder",
      "type": "error"
    },
    {
      "anonymous": false,
      "inputs": [
        {
          "indexed": false,
          "internalType": "address",
          "name": "_contract",
          "type": "address"
        }
      ],
      "name": "CreatedContract",
      "type": "event"
    },
    {
      "anonymous": false,
      "inputs": [
        {
          "indexed": false,
          "internalType": "bytes32",
          "name": "_hash",
          "type": "bytes32"
        }
      ],
      "name": "IPFSRootUpdated",
      "type": "event"
    },
    {
      "anonymous": false,
      "inputs": [
        {
          "indexed": false,
          "internalType": "bytes32",
          "name": "newImageHash",
          "type": "bytes32"
        }
      ],
      "name": "ImageHashUpdated",
      "type": "event"
    },
    {
      "anonymous": false,
      "inputs": [
        {
          "indexed": false,
          "internalType": "address",
          "name": "newImplementation",
          "type": "address"
        }
      ],
      "name": "ImplementationUpdated",
      "type": "event"
    },
    {
      "anonymous": false,
      "inputs": [
        {
          "indexed": false,
          "internalType": "uint256",
          "name": "_space",
          "type": "uint256"
        },
        {
          "indexed": false,
          "internalType": "uint256",
          "name": "_newNonce",
          "type": "uint256"
        }
      ],
      "name": "NonceChange",
      "type": "event"
    },
    {
      "anonymous": false,
      "inputs": [
        {
          "indexed": true,
          "internalType": "bytes32",
          "name": "_imageHash",
          "type": "bytes32"
        },
        {
          "indexed": false,
          "internalType": "uint256",
          "name": "_expiration",
          "type": "uint256"
        }
      ],
      "name": "SetExtraImageHash",
      "type": "event"
    },
    {
      "anonymous": false,
      "inputs": [
        {
          "indexed": true,
          "internalType": "bytes32",
          "name": "_tx",
          "type": "bytes32"
        },
        {
          "indexed": false,
          "internalType": "uint256",
          "name": "_index",
          "type": "uint256"
        }
      ],
      "name": "TxExecuted",
      "type": "event"
    },
    {
      "anonymous": false,
      "inputs": [
        {
          "indexed": true,
          "internalType": "bytes32",
          "name": "_tx",
          "type": "bytes32"
        },
        {
          "indexed": false,
          "internalType": "uint256",
          "name": "_index",
          "type": "uint256"
        },
        {
          "indexed": false,
          "internalType": "bytes",
          "name": "_reason",
          "type": "bytes"
        }
      ],
      "name": "TxFailed",
      "type": "event"
    },
    {
      "stateMutability": "payable",
      "type": "fallback"
    },
    {
      "inputs": [],
      "name": "FACTORY",
      "outputs": [
        {
          "internalType": "address",
          "name": "",
          "type": "address"
        }
      ],
      "stateMutability": "view",
      "type": "function"
    },
    {
      "inputs": [],
      "name": "INIT_CODE_HASH",
      "outputs": [
        {
          "internalType": "bytes32",
          "name": "",
          "type": "bytes32"
        }
      ],
      "stateMutability": "view",
      "type": "function"
    },
    {
      "inputs": [],
      "name": "SET_IMAGE_HASH_TYPE_HASH",
      "outputs": [
        {
          "internalType": "bytes32",
          "name": "",
          "type": "bytes32"
        }
      ],
      "stateMutability": "view",
      "type": "function"
    },
    {
      "inputs": [],
      "name": "UPGRADEABLE_IMPLEMENTATION",
      "outputs": [
        {
          "internalType": "address",
          "name": "",
          "type": "address"
        }
      ],
      "stateMutability": "view",
      "type": "function"
    },
    {
      "inputs": [
        {
          "internalType": "bytes4",
          "name": "_signature",
          "type": "bytes4"
        },
        {
          "internalType": "address",
          "name": "_implementation",
          "type": "address"
        }
      ],
      "name": "addHook",
      "outputs": [],
      "stateMutability": "nonpayable",
      "type": "function"
    },
    {
      "inputs": [
        {
          "internalType": "bytes32[]",
          "name": "_imageHashes",
          "type": "bytes32[]"
        }
      ],
      "name": "clearExtraImageHashes",
      "outputs": [],
      "stateMutability": "nonpayable",
      "type": "function"
    },
    {
      "inputs": [
        {
          "internalType": "bytes",
          "name": "_code",
          "type": "bytes"
        }
      ],
      "name": "createContract",
      "outputs": [
        {
          "internalType": "address",
          "name": "addr",
          "type": "address"
        }
      ],
      "stateMutability": "payable",
      "type": "function"
    },
    {
      "inputs": [
        {
          "components": [
            {
              "internalType": "bool",
              "name": "delegateCall",
              "type": "bool"
            },
            {
              "internalType": "bool",
              "name": "revertOnError",
              "type": "bool"
            },
            {
              "internalType": "uint256",
              "name": "gasLimit",
              "type": "uint256"
            },
            {
              "internalType": "address",
              "name": "target",
              "type": "address"
            },
            {
              "internalType": "uint256",
              "name": "value",
              "type": "uint256"
            },
            {
              "internalType": "bytes",
              "name": "data",
              "type": "bytes"
            }
          ],
          "internalType": "struct IModuleCalls.Transaction[]",
          "name": "_txs",
          "type": "tuple[]"
        },
        {
          "internalType": "uint256",
          "name": "_nonce",
          "type": "uint256"
        },
        {
          "internalType": "bytes",
          "name": "_signature",
          "type": "bytes"
        }
      ],
      "name": "execute",
      "outputs": [],
      "stateMutability": "nonpayable",
      "type": "function"
    },
    {
      "inputs": [
        {
          "internalType": "bytes32",
          "name": "_imageHash",
          "type": "bytes32"
        }
      ],
      "name": "extraImageHash",
      "outputs": [
        {
          "internalType": "uint256",
          "name": "",
          "type": "uint256"
        }
      ],
      "stateMutability": "view",
      "type": "function"
    },
    {
      "inputs": [],
      "name": "ipfsRoot",
      "outputs": [
        {
          "internalType": "string",
          "name": "",
          "type": "string"
        }
      ],
      "stateMutability": "view",
      "type": "function"
    },
    {
      "inputs": [],
      "name": "ipfsRootBytes32",
      "outputs": [
        {
          "internalType": "bytes32",
          "name": "",
          "type": "bytes32"
        }
      ],
      "stateMutability": "view",
      "type": "function"
    },
    {
      "inputs": [
        {
          "internalType": "bytes32",
          "name": "_hash",
          "type": "bytes32"
        },
        {
          "internalType": "bytes",
          "name": "_signatures",
          "type": "bytes"
        }
      ],
      "name": "isValidSignature",
      "outputs": [
        {
          "internalType": "bytes4",
          "name": "",
          "type": "bytes4"
        }
      ],
      "stateMutability": "view",
      "type": "function"
    },
    {
      "inputs": [
        {
          "internalType": "bytes",
          "name": "_data",
          "type": "bytes"
        },
        {
          "internalType": "bytes",
          "name": "_signatures",
          "type": "bytes"
        }
      ],
      "name": "isValidSignature",
      "outputs": [
        {
          "internalType": "bytes4",
          "name": "",
          "type": "bytes4"
        }
      ],
      "stateMutability": "view",
      "type": "function"
    },
    {
      "inputs": [],
      "name": "nonce",
      "outputs": [
        {
          "internalType": "uint256",
          "name": "",
          "type": "uint256"
        }
      ],
      "stateMutability": "view",
      "type": "function"
    },
    {
      "inputs": [
        {
          "internalType": "address",
          "name": "",
          "type": "address"
        },
        {
          "internalType": "address",
          "name": "",
          "type": "address"
        },
        {
          "internalType": "uint256[]",
          "name": "",
          "type": "uint256[]"
        },
        {
          "internalType": "uint256[]",
          "name": "",
          "type": "uint256[]"
        },
        {
          "internalType": "bytes",
          "name": "",
          "type": "bytes"
        }
      ],
      "name": "onERC1155BatchReceived",
      "outputs": [
        {
          "internalType": "bytes4",
          "name": "",
          "type": "bytes4"
        }
      ],
      "stateMutability": "nonpayable",
      "type": "function"
    },
    {
      "inputs": [
        {
          "internalType": "address",
          "name": "",
          "type": "address"
        },
        {
          "internalType": "address",
          "name": "",
          "type": "address"
        },
        {
          "internalType": "uint256",
          "name": "",
          "type": "uint256"
        },
        {
          "internalType": "uint256",
          "name": "",
          "type": "uint256"
        },
        {
          "internalType": "bytes",
          "name": "",
          "type": "bytes"
        }
      ],
      "name": "onERC1155Received",
      "outputs": [
        {
          "internalType": "bytes4",
          "name": "",
          "type": "bytes4"
        }
      ],
      "stateMutability": "nonpayable",
      "type": "function"
    },
    {
      "inputs": [
        {
          "internalType": "address",
          "name": "",
          "type": "address"
        },
        {
          "internalType": "address",
          "name": "",
          "type": "address"
        },
        {
          "internalType": "uint256",
          "name": "",
          "type": "uint256"
        },
        {
          "internalType": "bytes",
          "name": "",
          "type": "bytes"
        }
      ],
      "name": "onERC721Received",
      "outputs": [
        {
          "internalType": "bytes4",
          "name": "",
          "type": "bytes4"
        }
      ],
      "stateMutability": "nonpayable",
      "type": "function"
    },
    {
      "inputs": [
        {
          "internalType": "bytes4",
          "name": "_signature",
          "type": "bytes4"
        }
      ],
      "name": "readHook",
      "outputs": [
        {
          "internalType": "address",
          "name": "",
          "type": "address"
        }
      ],
      "stateMutability": "view",
      "type": "function"
    },
    {
      "inputs": [
        {
          "internalType": "uint256",
          "name": "_space",
          "type": "uint256"
        }
      ],
      "name": "readNonce",
      "outputs": [
        {
          "internalType": "uint256",
          "name": "",
          "type": "uint256"
        }
      ],
      "stateMutability": "view",
      "type": "function"
    },
    {
      "inputs": [
        {
          "internalType": "bytes4",
          "name": "_signature",
          "type": "bytes4"
        }
      ],
      "name": "removeHook",
      "outputs": [],
      "stateMutability": "nonpayable",
      "type": "function"
    },
    {
      "inputs": [
        {
          "components": [
            {
              "internalType": "bool",
              "name": "delegateCall",
              "type": "bool"
            },
            {
              "internalType": "bool",
              "name": "revertOnError",
              "type": "bool"
            },
            {
              "internalType": "uint256",
              "name": "gasLimit",
              "type": "uint256"
            },
            {
              "internalType": "address",
              "name": "target",
              "type": "address"
            },
            {
              "internalType": "uint256",
              "name": "value",
              "type": "uint256"
            },
            {
              "internalType": "bytes",
              "name": "data",
              "type": "bytes"
            }
          ],
          "internalType": "struct IModuleCalls.Transaction[]",
          "name": "_txs",
          "type": "tuple[]"
        }
      ],
      "name": "selfExecute",
      "outputs": [],
      "stateMutability": "nonpayable",
      "type": "function"
    },
    {
      "inputs": [
        {
          "internalType": "bytes32",
          "name": "_imageHash",
          "type": "bytes32"
        },
        {
          "internalType": "uint256",
          "name": "_expiration",
          "type": "uint256"
        }
      ],
      "name": "setExtraImageHash",
      "outputs": [],
      "stateMutability": "nonpayable",
      "type": "function"
    },
    {
      "inputs": [
        {
          "internalType": "bytes32",
          "name": "_digest",
          "type": "bytes32"
        },
        {
          "internalType": "bytes",
          "name": "_signature",
          "type": "bytes"
        }
      ],
      "name": "signatureRecovery",
      "outputs": [
        {
          "internalType": "uint256",
          "name": "threshold",
          "type": "uint256"
        },
        {
          "internalType": "uint256",
          "name": "weight",
          "type": "uint256"
        },
        {
          "internalType": "bytes32",
          "name": "imageHash",
          "type": "bytes32"
        },
        {
          "internalType": "bytes32",
          "name": "subdigest",
          "type": "bytes32"
        },
        {
          "internalType": "uint256",
          "name": "checkpoint",
          "type": "uint256"
        }
      ],
      "stateMutability": "view",
      "type": "function"
    },
    {
      "inputs": [
        {
          "internalType": "bytes4",
          "name": "_interfaceID",
          "type": "bytes4"
        }
      ],
      "name": "supportsInterface",
      "outputs": [
        {
          "internalType": "bool",
          "name": "",
          "type": "bool"
        }
      ],
      "stateMutability": "pure",
      "type": "function"
    },
    {
      "inputs": [
        {
          "internalType": "bytes32",
          "name": "_hash",
          "type": "bytes32"
        }
      ],
      "name": "updateIPFSRoot",
      "outputs": [],
      "stateMutability": "nonpayable",
      "type": "function"
    },
    {
      "inputs": [
        {
          "internalType": "bytes32",
          "name": "_imageHash",
          "type": "bytes32"
        }
      ],
      "name": "updateImageHash",
      "outputs": [],
      "stateMutability": "nonpayable",
      "type": "function"
    },
    {
      "inputs": [
        {
          "internalType": "bytes32",
          "name": "_imageHash",
          "type": "bytes32"
        },
        {
          "internalType": "bytes32",
          "name": "_ipfsRoot",
          "type": "bytes32"
        }
      ],
      "name": "updateImageHashAndIPFS",
      "outputs": [],
      "stateMutability": "nonpayable",
      "type": "function"
    },
    {
      "inputs": [
        {
          "internalType": "address",
          "name": "_implementation",
          "type": "address"
        }
      ],
      "name": "updateImplementation",
      "outputs": [],
      "stateMutability": "nonpayable",
      "type": "function"
    },
    {
      "stateMutability": "payable",
      "type": "receive"
    }
  ],
  "bytecode": "0x6101006040523480156200001257600080fd5b50604051620038fd380380620038fd8339810160408190526200003591620000c2565b30608052604080516060810190915260288082528391839160009190620038d560208301396040516200006e91903090602001620000fa565b60408051601f19818403018152919052805160209091012060a052506001600160a01b0391821660c0521660e052506200012e9050565b80516001600160a01b0381168114620000bd57600080fd5b919050565b60008060408385031215620000d657600080fd5b620000e183620000a5565b9150620000f160208401620000a5565b90509250929050565b6000835160005b818110156200011d576020818701810151858301520162000101565b509190910191825250602001919050565b60805160a05160c05160e0516137586200017d600039600081816105aa015261152301526000818161047a01526124e8015260008181610418015261251901526000610cad01526137586000f3fe6080604052600436106101bb5760003560e01c80637a9a1628116100ec578063a4ab5f9f1161008a578063bc197c8111610064578063bc197c8114610696578063c71f1f96146106de578063d0748f71146106f3578063f23a6e6114610713576101c2565b8063a4ab5f9f14610641578063affed0e014610661578063b93ea7ad14610676576101c2565b80638c3f5563116100c65780638c3f5563146105cc5780638efa6441146105ec57806390042baf1461060e578063a38cef1914610621576101c2565b80637a9a162814610530578063853c506814610550578063888eeec614610598576101c2565b8063257671f5116101595780634598154f116101335780634598154f1461049c5780634fcf3eca146104bc57806357c56d6b146104dc57806361c2926c14610510576101c2565b8063257671f51461040657806329561426146104485780632dd3100014610468576101c2565b8063150b7a0211610195578063150b7a021461030b5780631626ba7e146103815780631a9b2337146103a157806320c13b0b146103e6576101c2565b806301ffc9a714610296578063025b22bc146102cb578063038dbaac146102eb576101c2565b366101c257005b60006101f16000357fffffffff0000000000000000000000000000000000000000000000000000000016610759565b905073ffffffffffffffffffffffffffffffffffffffff811615610294576000808273ffffffffffffffffffffffffffffffffffffffff1660003660405161023a929190612bb6565b600060405180830381855af49150503d8060008114610275576040519150601f19603f3d011682016040523d82523d6000602084013e61027a565b606091505b50915091508161028c57805160208201fd5b805160208201f35b005b3480156102a257600080fd5b506102b66102b1366004612bf4565b6107ad565b60405190151581526020015b60405180910390f35b3480156102d757600080fd5b506102946102e6366004612c3a565b6107b8565b3480156102f757600080fd5b50610294610306366004612ca1565b61080a565b34801561031757600080fd5b50610350610326366004612d25565b7f150b7a020000000000000000000000000000000000000000000000000000000095945050505050565b6040517fffffffff0000000000000000000000000000000000000000000000000000000090911681526020016102c2565b34801561038d57600080fd5b5061035061039c366004612d94565b610915565b3480156103ad57600080fd5b506103c16103bc366004612bf4565b610962565b60405173ffffffffffffffffffffffffffffffffffffffff90911681526020016102c2565b3480156103f257600080fd5b50610350610401366004612de0565b61096d565b34801561041257600080fd5b5061043a7f000000000000000000000000000000000000000000000000000000000000000081565b6040519081526020016102c2565b34801561045457600080fd5b50610294610463366004612e4c565b6109d2565b34801561047457600080fd5b506103c17f000000000000000000000000000000000000000000000000000000000000000081565b3480156104a857600080fd5b506102946104b7366004612e65565b610a1c565b3480156104c857600080fd5b506102946104d7366004612bf4565b610ae1565b3480156104e857600080fd5b5061043a7f8713a7c4465f6fbee2b6e9d6646d1d9f83fec929edfc4baf661f3c865bdd04d181565b34801561051c57600080fd5b5061029461052b366004612ca1565b610c10565b34801561053c57600080fd5b5061029461054b366004612e87565b610c96565b34801561055c57600080fd5b5061057061056b366004612d94565b610d9b565b604080519586526020860194909452928401919091526060830152608082015260a0016102c2565b3480156105a457600080fd5b506103c17f000000000000000000000000000000000000000000000000000000000000000081565b3480156105d857600080fd5b5061043a6105e7366004612e4c565b610f63565b3480156105f857600080fd5b50610601610f8f565b6040516102c29190612f5e565b6103c161061c366004612fa0565b611010565b34801561062d57600080fd5b5061029461063c366004612e4c565b6110ac565b34801561064d57600080fd5b5061043a61065c366004612e4c565b6110f6565b34801561066d57600080fd5b5061043a611101565b34801561068257600080fd5b5061029461069136600461306f565b611112565b3480156106a257600080fd5b506103506106b13660046130a4565b7fbc197c810000000000000000000000000000000000000000000000000000000098975050505050505050565b3480156106ea57600080fd5b5061043a61125b565b3480156106ff57600080fd5b5061029461070e366004612e65565b611285565b34801561071f57600080fd5b5061035061072e36600461315f565b7ff23a6e61000000000000000000000000000000000000000000000000000000009695505050505050565b60006107a77fbe27a319efc8734e89e26ba4bc95f5c788584163b959f03fa04e2d7ab4b9a1207fffffffff0000000000000000000000000000000000000000000000000000000084166112d8565b92915050565b60006107a782611336565b3330146107fe576040517fe12588940000000000000000000000000000000000000000000000000000000081523360048201523060248201526044015b60405180910390fd5b61080781611392565b50565b33301461084b576040517fe12588940000000000000000000000000000000000000000000000000000000081523360048201523060248201526044016107f5565b8060005b8181101561090f57600084848381811061086b5761086b6131d7565b9050602002013590506108cb816000604080517f849e7bdc245db17e50b9f43086f1914d70eb4dab6dd89af4d541d53353ad97de602080830191909152818301859052825180830384018152606090920190925280519101208190555050565b807f804f6171d6008d9e16ee3aa0561fec328397f4ba2827a6605db388cfdefa3b0c60006040516108fe91815260200190565b60405180910390a25060010161084f565b50505050565b60008061092385858561144d565b509050801561095557507f1626ba7e00000000000000000000000000000000000000000000000000000000905061095b565b50600090505b9392505050565b60006107a782610759565b6000806109928686604051610983929190612bb6565b6040518091039020858561144d565b50905080156109c457507f20c13b0b0000000000000000000000000000000000000000000000000000000090506109ca565b50600090505b949350505050565b333014610a13576040517fe12588940000000000000000000000000000000000000000000000000000000081523360048201523060248201526044016107f5565b6108078161148b565b333014610a5d576040517fe12588940000000000000000000000000000000000000000000000000000000081523360048201523060248201526044016107f5565b604080517f849e7bdc245db17e50b9f43086f1914d70eb4dab6dd89af4d541d53353ad97de602080830191909152818301859052825180830384018152606083019384905280519101208390559082905282907f804f6171d6008d9e16ee3aa0561fec328397f4ba2827a6605db388cfdefa3b0c9060800160405180910390a25050565b333014610b22576040517fe12588940000000000000000000000000000000000000000000000000000000081523360048201523060248201526044016107f5565b6000610b2d82610759565b73ffffffffffffffffffffffffffffffffffffffff1603610b9e576040517f1c3812cc0000000000000000000000000000000000000000000000000000000081527fffffffff00000000000000000000000000000000000000000000000000000000821660048201526024016107f5565b604080517fbe27a319efc8734e89e26ba4bc95f5c788584163b959f03fa04e2d7ab4b9a1206020808301919091527fffffffff00000000000000000000000000000000000000000000000000000000841682840152825180830384018152606090920190925280519101206000905550565b333014610c51576040517fe12588940000000000000000000000000000000000000000000000000000000081523360048201523060248201526044016107f5565b6000610c848383604051602001610c699291906133ae565b60405160208183030381529060405280519060200120611547565b9050610c918184846115cc565b505050565b73ffffffffffffffffffffffffffffffffffffffff7f0000000000000000000000000000000000000000000000000000000000000000163003610d05576040517f0a57d61d00000000000000000000000000000000000000000000000000000000815260040160405180910390fd5b610d0e83611754565b600080610d46858888604051602001610d29939291906133f6565b60405160208183030381529060405280519060200120858561144d565b9150915081610d87578084846040517f8f4a234f0000000000000000000000000000000000000000000000000000000081526004016107f593929190613419565b610d928188886115cc565b50505050505050565b60008060008060008087876000818110610db757610db76131d7565b909101357fff00000000000000000000000000000000000000000000000000000000000000169150819050610e0d57610def89611547565b9250610dfc838989611851565b92985090965094509150610f589050565b7fff0000000000000000000000000000000000000000000000000000000000000081811601610e4c57610e3f89611547565b9250610dfc8389896118a2565b7ffe000000000000000000000000000000000000000000000000000000000000007fff00000000000000000000000000000000000000000000000000000000000000821601610e9e57610e3f896118ce565b7ffd000000000000000000000000000000000000000000000000000000000000007fff00000000000000000000000000000000000000000000000000000000000000821601610f0257610ef289898961193b565b9550955095509550955050610f58565b6040517f6085cd820000000000000000000000000000000000000000000000000000000081527fff00000000000000000000000000000000000000000000000000000000000000821660048201526024016107f5565b939792965093509350565b60006107a77f8d0bf1fd623d628c741362c1289948e57b3e2905218c676d3e69abee36d6ae2e836112d8565b6060610fec610fe7610f9f61125b565b6040517f017012200000000000000000000000000000000000000000000000000000000060208201526024810191909152604401604051602081830303815290604052611ab8565b611cd1565b604051602001610ffc9190613433565b604051602081830303815290604052905090565b6000333014611053576040517fe12588940000000000000000000000000000000000000000000000000000000081523360048201523060248201526044016107f5565b81516020830134f060405173ffffffffffffffffffffffffffffffffffffffff821681529091507fa506ad4e7f05eceba62a023c3219e5bd98a615f4fa87e2afb08a2da5cf62bf0c9060200160405180910390a1919050565b3330146110ed576040517fe12588940000000000000000000000000000000000000000000000000000000081523360048201523060248201526044016107f5565b61080781611cfa565b60006107a782611d53565b600061110d6000610f63565b905090565b333014611153576040517fe12588940000000000000000000000000000000000000000000000000000000081523360048201523060248201526044016107f5565b600061115e83610759565b73ffffffffffffffffffffffffffffffffffffffff16146111cf576040517f5b4d6d6a0000000000000000000000000000000000000000000000000000000081527fffffffff00000000000000000000000000000000000000000000000000000000831660048201526024016107f5565b604080517fbe27a319efc8734e89e26ba4bc95f5c788584163b959f03fa04e2d7ab4b9a1206020808301919091527fffffffff000000000000000000000000000000000000000000000000000000008516828401528251808303840181526060909201909252805191012073ffffffffffffffffffffffffffffffffffffffff821690555050565b5050565b600061110d7f0eecac93ced8722d209199364cda3bc33da3bc3a23daef6be49ebd780511d0335490565b3330146112c6576040517fe12588940000000000000000000000000000000000000000000000000000000081523360048201523060248201526044016107f5565b6112cf8261148b565b61125781611cfa565b60008083836040516020016112f7929190918252602082015260400190565b604080517fffffffffffffffffffffffffffffffffffffffffffffffffffffffffffffffe0818403018152919052805160209091012054949350505050565b60007f6ffbd451000000000000000000000000000000000000000000000000000000007fffffffff0000000000000000000000000000000000000000000000000000000083160161138957506001919050565b6107a782611d7f565b73ffffffffffffffffffffffffffffffffffffffff81163b6113f8576040517f0c76093700000000000000000000000000000000000000000000000000000000815273ffffffffffffffffffffffffffffffffffffffff821660048201526024016107f5565b611400813055565b60405173ffffffffffffffffffffffffffffffffffffffff821681527f310ba5f1d2ed074b51e2eccd052a47ae9ab7c6b800d1fca3db3999d6a592ca03906020015b60405180910390a150565b6000806000806000611460888888610d9b565b5096509194509250905082821080159061147e575061147e81611ec0565b9450505050935093915050565b806114c2576040517f4294d12700000000000000000000000000000000000000000000000000000000815260040160405180910390fd5b6114eb7fea7157fa25e3aa17d0ae2d5280fa4e24d421c61842aa85e45194e1145aa72bf8829055565b6040518181527f307ed6bd941ee9fc80f369c94af5fa11e25bab5102a6140191756c5474a30bfa9060200160405180910390a16108077f0000000000000000000000000000000000000000000000000000000000000000611392565b6040517f190100000000000000000000000000000000000000000000000000000000000060208201524660228201527fffffffffffffffffffffffffffffffffffffffff0000000000000000000000003060601b166042820152605681018290526000906076015b604051602081830303815290604052805190602001209050919050565b8060005b8181101561174d57368484838181106115eb576115eb6131d7565b90506020028101906115fd9190613478565b90506040810135805a10156116525782815a6040517f2bb3e3ba0000000000000000000000000000000000000000000000000000000081526004810193909352602483019190915260448201526064016107f5565b600061166160208401846134b6565b156116a0576116996116796080850160608601612c3a565b83156116855783611687565b5a5b61169460a08701876134d1565b611ecb565b90506116db565b6116d86116b36080850160608601612c3a565b608085013584156116c457846116c6565b5a5b6116d360a08801886134d1565b611ee6565b90505b801561172057877f5c4eeb02dabf8976016ab414d617f9a162936dcace3cdef8c69ef6e262ad5ae78560405161171391815260200190565b60405180910390a2611742565b61174261173360408501602086016134b6565b898661173d611f03565b611f22565b5050506001016115d0565b5050505050565b606081901c6bffffffffffffffffffffffff8216600061177383610f63565b90508181146117bf576040517f9b6514f40000000000000000000000000000000000000000000000000000000081526004810184905260248101839052604481018290526064016107f5565b604080517f8d0bf1fd623d628c741362c1289948e57b3e2905218c676d3e69abee36d6ae2e60208083019190915281830186905282518083038401815260609092019092528051910120600183019081905560408051858152602081018390527f1f180c27086c7a39ea2a7b25239d1ab92348f07ca7bb59d1438fcf527568f881910160405180910390a15050505050565b600080808061186c87611867876006818b613536565b611f70565b6000908152873560f01c6020818152604080842084526002909a013560e01c908190529890912090999198509695509350505050565b60008080806118bd876118b8876001818b613536565b611851565b935093509350935093509350935093565b6040517f190100000000000000000000000000000000000000000000000000000000000060208201526000602282018190527fffffffffffffffffffffffffffffffffffffffff0000000000000000000000003060601b16604283015260568201839052906076016115af565b6000808080806004600188013560e81c82611956838361358f565b90506119688b61056b83868d8f613536565b939b50919950975095509350878710156119c05761198881848b8d613536565b89896040517fb006aba00000000000000000000000000000000000000000000000000000000081526004016107f594939291906135a2565b8092505b88831015611aaa5760038301928a013560e81c91506119e3838361358f565b90506000611a056119f388612406565b8c8c8790869261056b93929190613536565b939c50919a5098509091505088881015611a5d57611a2582858c8e613536565b8a8a6040517fb006aba00000000000000000000000000000000000000000000000000000000081526004016107f594939291906135a2565b848110611aa0576040517f37daf62b00000000000000000000000000000000000000000000000000000000815260048101829052602481018690526044016107f5565b93509150816119c4565b505050939792965093509350565b8051606090600381901b60006005600483010467ffffffffffffffff811115611ae357611ae3612f71565b6040519080825280601f01601f191660200182016040528015611b0d576020820181803683370190505b5090506000806000805b86811015611c2157888181518110611b3157611b316131d7565b01602001516008948501949390931b60f89390931c92909217915b60058410611c19576040805180820190915260208082527f6162636465666768696a6b6c6d6e6f707172737475767778797a323334353637818301527ffffffffffffffffffffffffffffffffffffffffffffffffffffffffffffffffb90950194601f85871c16908110611bc257611bc26131d7565b602001015160f81c60f81b858381518110611bdf57611bdf6131d7565b60200101907effffffffffffffffffffffffffffffffffffffffffffffffffffffffffffff1916908160001a905350600190910190611b4c565b600101611b17565b508215611cc5576040518060400160405280602081526020017f6162636465666768696a6b6c6d6e6f707172737475767778797a3233343536378152508360050383901b601f1681518110611c7857611c786131d7565b602001015160f81c60f81b848281518110611c9557611c956131d7565b60200101907effffffffffffffffffffffffffffffffffffffffffffffffffffffffffffff1916908160001a9053505b50919695505050505050565b606081604051602001611ce491906135c9565b6040516020818303038152906040529050919050565b611d237f0eecac93ced8722d209199364cda3bc33da3bc3a23daef6be49ebd780511d033829055565b6040518181527f20d3ef1b5738a9f6d7beae515432206e7a8e2740ca6dcf46a952190ad01bcb5190602001611442565b60006107a77f849e7bdc245db17e50b9f43086f1914d70eb4dab6dd89af4d541d53353ad97de836112d8565b60007fffffffff0000000000000000000000000000000000000000000000000000000082167fec6aba50000000000000000000000000000000000000000000000000000000001480611e1257507fffffffff0000000000000000000000000000000000000000000000000000000082167f4e2312e000000000000000000000000000000000000000000000000000000000145b80611e5e57507fffffffff0000000000000000000000000000000000000000000000000000000082167f150b7a0200000000000000000000000000000000000000000000000000000000145b80611eaa57507fffffffff0000000000000000000000000000000000000000000000000000000082167fc0ee0b8a00000000000000000000000000000000000000000000000000000000145b15611eb757506001919050565b6107a78261243a565b60006107a782612496565b60006040518284823760008084838989f49695505050505050565b6000604051828482376000808483898b8af1979650505050505050565b60603d604051915060208201818101604052818352816000823e505090565b8315611f3057805160208201fd5b827fab46c69f7f32e1bf09b0725853da82a211e5402a0600296ab499a2fb5ea3b4198383604051611f6292919061360e565b60405180910390a250505050565b60008060005b838110156123fd57600181019085013560f81c7fffffffffffffffffffffffffffffffffffffffffffffffffffffffffffffffff810161201757601582019186013560f881901c9060581c73ffffffffffffffffffffffffffffffffffffffff81169074ff000000000000000000000000000000000000000016811785611ffd578061200c565b60008681526020829052604090205b955050505050611f76565b806120ad5760018201918681013560f81c9060430160006120438a61203e84888c8e613536565b6125c4565b60ff841697909701969194508491905060a083901b74ff00000000000000000000000000000000000000001673ffffffffffffffffffffffffffffffffffffffff8216178661209257806120a1565b60008781526020829052604090205b96505050505050611f76565b600281036121d5576000808784013560f881901c9060581c73ffffffffffffffffffffffffffffffffffffffff16601586019550909250905060008885013560e81c600386018162ffffff1691508096508192505050600081860190506121268b848c8c8a90869261212193929190613536565b612887565b61216e578a8361213883898d8f613536565b6040517f9a9462320000000000000000000000000000000000000000000000000000000081526004016107f59493929190613627565b60ff8416979097019694508460a084901b74ff00000000000000000000000000000000000000001673ffffffffffffffffffffffffffffffffffffffff841617876121b957806121c8565b60008881526020829052604090205b9750505050505050611f76565b60038103612208576020820191860135836121f057806121ff565b60008481526020829052604090205b93505050611f76565b60048103612254576003808301928781013560e81c91908201016000806122358b61186785898d8f613536565b60009889526020526040909720969097019650909350611f7692505050565b6006810361235c5760008287013560f81c60018401935060ff16905060008784013560f01c60028501945061ffff16905060008885013560e81c600386018162ffffff1691508096508192505050600081860190506000806122c28d8d8d8b90879261186793929190613536565b939850889390925090508482106122d857988501985b604080517f53657175656e6365206e657374656420636f6e6669673a0a0000000000000000602080830191909152603882018490526058820188905260788083018a905283518084039091018152609890920190925280519101208961233e578061234d565b60008a81526020829052604090205b99505050505050505050611f76565b600581036123c8576020820191860135878103612397577fffffffffffffffffffffffffffffffffffffffffffffffffffffffffffffffff94505b60006123a282612a34565b9050846123af57806123be565b60008581526020829052604090205b9450505050611f76565b6040517fb2505f7c000000000000000000000000000000000000000000000000000000008152600481018290526024016107f5565b50935093915050565b7f8713a7c4465f6fbee2b6e9d6646d1d9f83fec929edfc4baf661f3c865bdd04d160009081526020829052604081206107a7565b60007fe4a77bbc000000000000000000000000000000000000000000000000000000007fffffffff0000000000000000000000000000000000000000000000000000000083160161248d57506001919050565b6107a782612a6f565b6000612598826040517fff0000000000000000000000000000000000000000000000000000000000000060208201527fffffffffffffffffffffffffffffffffffffffff0000000000000000000000007f000000000000000000000000000000000000000000000000000000000000000060601b166021820152603581018290527f000000000000000000000000000000000000000000000000000000000000000060558201526000903090607501604080517fffffffffffffffffffffffffffffffffffffffffffffffffffffffffffffffe0818403018152919052805160209091012073ffffffffffffffffffffffffffffffffffffffff161492915050565b156125a557506001919050565b60006125b083611d53565b9050801580159061095b5750421092915050565b6000604282146126045782826040517f2ee17a3d0000000000000000000000000000000000000000000000000000000081526004016107f5929190613667565b600061261d61261460018561367b565b85013560f81c90565b60ff169050604084013560f81c843560208601357f7fffffffffffffffffffffffffffffff5d576e7357a4501ddfe92f46681b20a0811115612691578686826040517fad4aac760000000000000000000000000000000000000000000000000000000081526004016107f59392919061368e565b8260ff16601b141580156126a957508260ff16601c14155b156126e6578686846040517fe578897e0000000000000000000000000000000000000000000000000000000081526004016107f5939291906136b2565b60018403612753576040805160008152602081018083528a905260ff851691810191909152606081018390526080810182905260019060a0015b6020604051602081039080840390855afa158015612742573d6000803e3d6000fd5b50505060206040510351945061282b565b600284036127f0576040517f19457468657265756d205369676e6564204d6573736167653a0a3332000000006020820152603c8101899052600190605c01604080517fffffffffffffffffffffffffffffffffffffffffffffffffffffffffffffffe08184030181528282528051602091820120600084529083018083525260ff861690820152606081018490526080810183905260a001612720565b86868560016040517f9dfba8520000000000000000000000000000000000000000000000000000000081526004016107f594939291906136d9565b73ffffffffffffffffffffffffffffffffffffffff851661287c5786866040517f6c1719d20000000000000000000000000000000000000000000000000000000081526004016107f5929190613667565b505050509392505050565b600080838361289760018261367b565b8181106128a6576128a66131d7565b919091013560f81c91505060018114806128c05750600281145b15612905578473ffffffffffffffffffffffffffffffffffffffff166128e78786866125c4565b73ffffffffffffffffffffffffffffffffffffffff16149150612a2b565b600381036129f05773ffffffffffffffffffffffffffffffffffffffff8516631626ba7e878660008761293960018261367b565b9261294693929190613536565b6040518463ffffffff1660e01b815260040161296493929190613419565b602060405180830381865afa158015612981573d6000803e3d6000fd5b505050506040513d601f19601f820116820180604052508101906129a59190613705565b7fffffffff00000000000000000000000000000000000000000000000000000000167f1626ba7e00000000000000000000000000000000000000000000000000000000149150612a2b565b83838260006040517f9dfba8520000000000000000000000000000000000000000000000000000000081526004016107f594939291906136d9565b50949350505050565b6040517f53657175656e636520737461746963206469676573743a0a00000000000000006020820152603881018290526000906058016115af565b60006107a78260007ffda4dd44000000000000000000000000000000000000000000000000000000007fffffffff00000000000000000000000000000000000000000000000000000000831601612ac857506001919050565b6107a78260007fffffffff0000000000000000000000000000000000000000000000000000000082167fac6a444e000000000000000000000000000000000000000000000000000000001480612b5f57507fffffffff0000000000000000000000000000000000000000000000000000000082167f36e7817500000000000000000000000000000000000000000000000000000000145b15612b6c57506001919050565b7f01ffc9a7000000000000000000000000000000000000000000000000000000007fffffffff000000000000000000000000000000000000000000000000000000008316146107a7565b8183823760009101908152919050565b7fffffffff000000000000000000000000000000000000000000000000000000008116811461080757600080fd5b600060208284031215612c0657600080fd5b813561095b81612bc6565b803573ffffffffffffffffffffffffffffffffffffffff81168114612c3557600080fd5b919050565b600060208284031215612c4c57600080fd5b61095b82612c11565b60008083601f840112612c6757600080fd5b50813567ffffffffffffffff811115612c7f57600080fd5b6020830191508360208260051b8501011115612c9a57600080fd5b9250929050565b60008060208385031215612cb457600080fd5b823567ffffffffffffffff811115612ccb57600080fd5b612cd785828601612c55565b90969095509350505050565b60008083601f840112612cf557600080fd5b50813567ffffffffffffffff811115612d0d57600080fd5b602083019150836020828501011115612c9a57600080fd5b600080600080600060808688031215612d3d57600080fd5b612d4686612c11565b9450612d5460208701612c11565b935060408601359250606086013567ffffffffffffffff811115612d7757600080fd5b612d8388828901612ce3565b969995985093965092949392505050565b600080600060408486031215612da957600080fd5b83359250602084013567ffffffffffffffff811115612dc757600080fd5b612dd386828701612ce3565b9497909650939450505050565b60008060008060408587031215612df657600080fd5b843567ffffffffffffffff80821115612e0e57600080fd5b612e1a88838901612ce3565b90965094506020870135915080821115612e3357600080fd5b50612e4087828801612ce3565b95989497509550505050565b600060208284031215612e5e57600080fd5b5035919050565b60008060408385031215612e7857600080fd5b50508035926020909101359150565b600080600080600060608688031215612e9f57600080fd5b853567ffffffffffffffff80821115612eb757600080fd5b612ec389838a01612c55565b9097509550602088013594506040880135915080821115612ee357600080fd5b50612d8388828901612ce3565b60005b83811015612f0b578181015183820152602001612ef3565b50506000910152565b60008151808452612f2c816020860160208601612ef0565b601f017fffffffffffffffffffffffffffffffffffffffffffffffffffffffffffffffe0169290920160200192915050565b60208152600061095b6020830184612f14565b7f4e487b7100000000000000000000000000000000000000000000000000000000600052604160045260246000fd5b600060208284031215612fb257600080fd5b813567ffffffffffffffff80821115612fca57600080fd5b818401915084601f830112612fde57600080fd5b813581811115612ff057612ff0612f71565b604051601f82017fffffffffffffffffffffffffffffffffffffffffffffffffffffffffffffffe0908116603f0116810190838211818310171561303657613036612f71565b8160405282815287602084870101111561304f57600080fd5b826020860160208301376000928101602001929092525095945050505050565b6000806040838503121561308257600080fd5b823561308d81612bc6565b915061309b60208401612c11565b90509250929050565b60008060008060008060008060a0898b0312156130c057600080fd5b6130c989612c11565b97506130d760208a01612c11565b9650604089013567ffffffffffffffff808211156130f457600080fd5b6131008c838d01612c55565b909850965060608b013591508082111561311957600080fd5b6131258c838d01612c55565b909650945060808b013591508082111561313e57600080fd5b5061314b8b828c01612ce3565b999c989b5096995094979396929594505050565b60008060008060008060a0878903121561317857600080fd5b61318187612c11565b955061318f60208801612c11565b94506040870135935060608701359250608087013567ffffffffffffffff8111156131b957600080fd5b6131c589828a01612ce3565b979a9699509497509295939492505050565b7f4e487b7100000000000000000000000000000000000000000000000000000000600052603260045260246000fd5b80358015158114612c3557600080fd5b8183528181602085013750600060208284010152600060207fffffffffffffffffffffffffffffffffffffffffffffffffffffffffffffffe0601f840116840101905092915050565b81835260006020808501808196508560051b810191508460005b878110156133a157828403895281357fffffffffffffffffffffffffffffffffffffffffffffffffffffffffffffff418836030181126132b857600080fd5b870160c06132c582613206565b151586526132d4878301613206565b15158688015260408281013590870152606073ffffffffffffffffffffffffffffffffffffffff613306828501612c11565b16908701526080828101359087015260a080830135368490037fffffffffffffffffffffffffffffffffffffffffffffffffffffffffffffffe101811261334c57600080fd5b90920187810192903567ffffffffffffffff81111561336a57600080fd5b80360384131561337957600080fd5b828289015261338b8389018286613216565b9c89019c97505050928601925050600101613279565b5091979650505050505050565b60408152600560408201527f73656c663a00000000000000000000000000000000000000000000000000000060608201526080602082015260006109ca60808301848661325f565b83815260406020820152600061341060408301848661325f565b95945050505050565b838152604060208201526000613410604083018486613216565b7f697066733a2f2f0000000000000000000000000000000000000000000000000081526000825161346b816007850160208701612ef0565b9190910160070192915050565b600082357fffffffffffffffffffffffffffffffffffffffffffffffffffffffffffffff418336030181126134ac57600080fd5b9190910192915050565b6000602082840312156134c857600080fd5b61095b82613206565b60008083357fffffffffffffffffffffffffffffffffffffffffffffffffffffffffffffffe184360301811261350657600080fd5b83018035915067ffffffffffffffff82111561352157600080fd5b602001915036819003821315612c9a57600080fd5b6000808585111561354657600080fd5b8386111561355357600080fd5b5050820193919092039150565b7f4e487b7100000000000000000000000000000000000000000000000000000000600052601160045260246000fd5b808201808211156107a7576107a7613560565b6060815260006135b6606083018688613216565b6020830194909452506040015292915050565b7f6200000000000000000000000000000000000000000000000000000000000000815260008251613601816001850160208701612ef0565b9190910160010192915050565b8281526040602082015260006109ca6040830184612f14565b84815273ffffffffffffffffffffffffffffffffffffffff8416602082015260606040820152600061365d606083018486613216565b9695505050505050565b6020815260006109ca602083018486613216565b818103818111156107a7576107a7613560565b6040815260006136a2604083018587613216565b9050826020830152949350505050565b6040815260006136c6604083018587613216565b905060ff83166020830152949350505050565b6060815260006136ed606083018688613216565b60208301949094525090151560409091015292915050565b60006020828403121561371757600080fd5b815161095b81612bc656fea2646970667358221220aae23e256f1f61739c2ec09cbb7f3834d5f1cc708d6309991ebade986c866c5064736f6c63430008120033603a600e3d39601a805130553df3363d3d373d3d3d363d30545af43d82803e903d91601857fd5bf3",
  "linkReferences": {},
  "deployedLinkReferences": {}
}