{"abi":[{"type":"receive","stateMutability":"payable"},{"type":"function","name":"addStake","inputs":[{"name":"unstakeDelaySec","type":"uint32","internalType":"uint32"}],"outputs":[],"stateMutability":"payable"},{"type":"function","name":"balanceOf","inputs":[{"name":"account","type":"address","internalType":"address"}],"outputs":[{"name":"","type":"uint256","internalType":"uint256"}],"stateMutability":"view"},{"type":"function","name":"delegateAndRevert","inputs":[{"name":"target","type":"address","internalType":"address"},{"name":"data","type":"bytes","internalType":"bytes"}],"outputs":[],"stateMutability":"nonpayable"},{"type":"function","name":"depositTo","inputs":[{"name":"account","type":"address","internalType":"address"}],"outputs":[],"stateMutability":"payable"},{"type":"function","name":"deposits","inputs":[{"name":"","type":"address","internalType":"address"}],"outputs":[{"name":"deposit","type":"uint256","internalType":"uint256"},{"name":"staked","type":"bool","internalType":"bool"},{"name":"stake","type":"uint112","internalType":"uint112"},{"name":"unstakeDelaySec","type":"uint32","internalType":"uint32"},{"name":"withdrawTime","type":"uint48","internalType":"uint48"}],"stateMutability":"view"},{"type":"function","name":"getDepositInfo","inputs":[{"name":"account","type":"address","internalType":"address"}],"outputs":[{"name":"info","type":"tuple","internalType":"struct IStakeManager.DepositInfo","components":[{"name":"deposit","type":"uint256","internalType":"uint256"},{"name":"staked","type":"bool","internalType":"bool"},{"name":"stake","type":"uint112","internalType":"uint112"},{"name":"unstakeDelaySec","type":"uint32","internalType":"uint32"},{"name":"withdrawTime","type":"uint48","internalType":"uint48"}]}],"stateMutability":"view"},{"type":"function","name":"getNonce","inputs":[{"name":"sender","type":"address","internalType":"address"},{"name":"key","type":"uint192","internalType":"uint192"}],"outputs":[{"name":"nonce","type":"uint256","internalType":"uint256"}],"stateMutability":"view"},{"type":"function","name":"getSenderAddress","inputs":[{"name":"initCode","type":"bytes","internalType":"bytes"}],"outputs":[],"stateMutability":"nonpayable"},{"type":"function","name":"getUserOpHash","inputs":[{"name":"userOp","type":"tuple","internalType":"struct PackedUserOperation","components":[{"name":"sender","type":"address","internalType":"address"},{"name":"nonce","type":"uint256","internalType":"uint256"},{"name":"initCode","type":"bytes","internalType":"bytes"},{"name":"callData","type":"bytes","internalType":"bytes"},{"name":"accountGasLimits","type":"bytes32","internalType":"bytes32"},{"name":"preVerificationGas","type":"uint256","internalType":"uint256"},{"name":"gasFees","type":"bytes32","internalType":"bytes32"},{"name":"paymasterAndData","type":"bytes","internalType":"bytes"},{"name":"signature","type":"bytes","internalType":"bytes"}]}],"outputs":[{"name":"","type":"bytes32","internalType":"bytes32"}],"stateMutability":"view"},{"type":"function","name":"handleAggregatedOps","inputs":[{"name":"opsPerAggregator","type":"tuple[]","internalType":"struct IEntryPoint.UserOpsPerAggregator[]","components":[{"name":"userOps","type":"tuple[]","internalType":"struct PackedUserOperation[]","components":[{"name":"sender","type":"address","internalType":"address"},{"name":"nonce","type":"uint256","internalType":"uint256"},{"name":"initCode","type":"bytes","internalType":"bytes"},{"name":"callData","type":"bytes","internalType":"bytes"},{"name":"accountGasLimits","type":"bytes32","internalType":"bytes32"},{"name":"preVerificationGas","type":"uint256","internalType":"uint256"},{"name":"gasFees","type":"bytes32","internalType":"bytes32"},{"name":"paymasterAndData","type":"bytes","internalType":"bytes"},{"name":"signature","type":"bytes","internalType":"bytes"}]},{"name":"aggregator","type":"address","internalType":"contract IAggregator"},{"name":"signature","type":"bytes","internalType":"bytes"}]},{"name":"beneficiary","type":"address","internalType":"address payable"}],"outputs":[],"stateMutability":"nonpayable"},{"type":"function","name":"handleOps","inputs":[{"name":"ops","type":"tuple[]","internalType":"struct PackedUserOperation[]","components":[{"name":"sender","type":"address","internalType":"address"},{"name":"nonce","type":"uint256","internalType":"uint256"},{"name":"initCode","type":"bytes","internalType":"bytes"},{"name":"callData","type":"bytes","internalType":"bytes"},{"name":"accountGasLimits","type":"bytes32","internalType":"bytes32"},{"name":"preVerificationGas","type":"uint256","internalType":"uint256"},{"name":"gasFees","type":"bytes32","internalType":"bytes32"},{"name":"paymasterAndData","type":"bytes","internalType":"bytes"},{"name":"signature","type":"bytes","internalType":"bytes"}]},{"name":"beneficiary","type":"address","internalType":"address payable"}],"outputs":[],"stateMutability":"nonpayable"},{"type":"function","name":"incrementNonce","inputs":[{"name":"key","type":"uint192","internalType":"uint192"}],"outputs":[],"stateMutability":"nonpayable"},{"type":"function","name":"innerHandleOp","inputs":[{"name":"callData","type":"bytes","internalType":"bytes"},{"name":"opInfo","type":"tuple","internalType":"struct EntryPoint.UserOpInfo","components":[{"name":"mUserOp","type":"tuple","internalType":"struct EntryPoint.MemoryUserOp","components":[{"name":"sender","type":"address","internalType":"address"},{"name":"nonce","type":"uint256","internalType":"uint256"},{"name":"verificationGasLimit","type":"uint256","internalType":"uint256"},{"name":"callGasLimit","type":"uint256","internalType":"uint256"},{"name":"paymasterVerificationGasLimit","type":"uint256","internalType":"uint256"},{"name":"paymasterPostOpGasLimit","type":"uint256","internalType":"uint256"},{"name":"preVerificationGas","type":"uint256","internalType":"uint256"},{"name":"paymaster","type":"address","internalType":"address"},{"name":"maxFeePerGas","type":"uint256","internalType":"uint256"},{"name":"maxPriorityFeePerGas","type":"uint256","internalType":"uint256"}]},{"name":"userOpHash","type":"bytes32","internalType":"bytes32"},{"name":"prefund","type":"uint256","internalType":"uint256"},{"name":"contextOffset","type":"uint256","internalType":"uint256"},{"name":"preOpGas","type":"uint256","internalType":"uint256"}]},{"name":"context","type":"bytes","internalType":"bytes"}],"outputs":[{"name":"actualGasCost","type":"uint256","internalType":"uint256"}],"stateMutability":"nonpayable"},{"type":"function","name":"nonceSequenceNumber","inputs":[{"name":"","type":"address","internalType":"address"},{"name":"","type":"uint192","internalType":"uint192"}],"outputs":[{"name":"","type":"uint256","internalType":"uint256"}],"stateMutability":"view"},{"type":"function","name":"supportsInterface","inputs":[{"name":"interfaceId","type":"bytes4","internalType":"bytes4"}],"outputs":[{"name":"","type":"bool","internalType":"bool"}],"stateMutability":"view"},{"type":"function","name":"unlockStake","inputs":[],"outputs":[],"stateMutability":"nonpayable"},{"type":"function","name":"withdrawStake","inputs":[{"name":"withdrawAddress","type":"address","internalType":"address payable"}],"outputs":[],"stateMutability":"nonpayable"},{"type":"function","name":"withdrawTo","inputs":[{"name":"withdrawAddress","type":"address","internalType":"address payable"},{"name":"withdrawAmount","type":"uint256","internalType":"uint256"}],"outputs":[],"stateMutability":"nonpayable"},{"type":"event","name":"AccountDeployed","inputs":[{"name":"userOpHash","type":"bytes32","indexed":true,"internalType":"bytes32"},{"name":"sender","type":"address","indexed":true,"internalType":"address"},{"name":"factory","type":"address","indexed":false,"internalType":"address"},{"name":"paymaster","type":"address","indexed":false,"internalType":"address"}],"anonymous":false},{"type":"event","name":"BeforeExecution","inputs":[],"anonymous":false},{"type":"event","name":"Deposited","inputs":[{"name":"account","type":"address","indexed":true,"internalType":"address"},{"name":"totalDeposit","type":"uint256","indexed":false,"internalType":"uint256"}],"anonymous":false},{"type":"event","name":"PostOpRevertReason","inputs":[{"name":"userOpHash","type":"bytes32","indexed":true,"internalType":"bytes32"},{"name":"sender","type":"address","indexed":true,"internalType":"address"},{"name":"nonce","type":"uint256","indexed":false,"internalType":"uint256"},{"name":"revertReason","type":"bytes","indexed":false,"internalType":"bytes"}],"anonymous":false},{"type":"event","name":"SignatureAggregatorChanged","inputs":[{"name":"aggregator","type":"address","indexed":true,"internalType":"address"}],"anonymous":false},{"type":"event","name":"StakeLocked","inputs":[{"name":"account","type":"address","indexed":true,"internalType":"address"},{"name":"totalStaked","type":"uint256","indexed":false,"internalType":"uint256"},{"name":"unstakeDelaySec","type":"uint256","indexed":false,"internalType":"uint256"}],"anonymous":false},{"type":"event","name":"StakeUnlocked","inputs":[{"name":"account","type":"address","indexed":true,"internalType":"address"},{"name":"withdrawTime","type":"uint256","indexed":false,"internalType":"uint256"}],"anonymous":false},{"type":"event","name":"StakeWithdrawn","inputs":[{"name":"account","type":"address","indexed":true,"internalType":"address"},{"name":"withdrawAddress","type":"address","indexed":false,"internalType":"address"},{"name":"amount","type":"uint256","indexed":false,"internalType":"uint256"}],"anonymous":false},{"type":"event","name":"UserOperationEvent","inputs":[{"name":"userOpHash","type":"bytes32","indexed":true,"internalType":"bytes32"},{"name":"sender","type":"address","indexed":true,"internalType":"address"},{"name":"paymaster","type":"address","indexed":true,"internalType":"address"},{"name":"nonce","type":"uint256","indexed":false,"internalType":"uint256"},{"name":"success","type":"bool","indexed":false,"internalType":"bool"},{"name":"actualGasCost","type":"uint256","indexed":false,"internalType":"uint256"},{"name":"actualGasUsed","type":"uint256","indexed":false,"internalType":"uint256"}],"anonymous":false},{"type":"event","name":"UserOperationPrefundTooLow","inputs":[{"name":"userOpHash","type":"bytes32","indexed":true,"internalType":"bytes32"},{"name":"sender","type":"address","indexed":true,"internalType":"address"},{"name":"nonce","type":"uint256","indexed":false,"internalType":"uint256"}],"anonymous":false},{"type":"event","name":"UserOperationRevertReason","inputs":[{"name":"userOpHash","type":"bytes32","indexed":true,"internalType":"bytes32"},{"name":"sender","type":"address","indexed":true,"internalType":"address"},{"name":"nonce","type":"uint256","indexed":false,"internalType":"uint256"},{"name":"revertReason","type":"bytes","indexed":false,"internalType":"bytes"}],"anonymous":false},{"type":"event","name":"Withdrawn","inputs":[{"name":"account","type":"address","indexed":true,"internalType":"address"},{"name":"withdrawAddress","type":"address","indexed":false,"internalType":"address"},{"name":"amount","type":"uint256","indexed":false,"internalType":"uint256"}],"anonymous":false},{"type":"error","name":"DelegateAndRevert","inputs":[{"name":"success","type":"bool","internalType":"bool"},{"name":"ret","type":"bytes","internalType":"bytes"}]},{"type":"error","name":"FailedOp","inputs":[{"name":"opIndex","type":"uint256","internalType":"uint256"},{"name":"reason","type":"string","internalType":"string"}]},{"type":"error","name":"FailedOpWithRevert","inputs":[{"name":"opIndex","type":"uint256","internalType":"uint256"},{"name":"reason","type":"string","internalType":"string"},{"name":"inner","type":"bytes","internalType":"bytes"}]},{"type":"error","name":"PostOpReverted","inputs":[{"name":"returnData","type":"bytes","internalType":"bytes"}]},{"type":"error","name":"ReentrancyGuardReentrantCall","inputs":[]},{"type":"error","name":"SenderAddressResult","inputs":[{"name":"sender","type":"address","internalType":"address"}]},{"type":"error","name":"SignatureValidationFailed","inputs":[{"name":"aggregator","type":"address","internalType":"address"}]}],"bytecode":{"object":"0x60a08060405234607a57600160025561021f8181016001600160401b0381118382101760645782916140a6833903906000f0801560585760805260405161402690816100808239608051818181610d38015261329d0152f35b6040513d6000823e3d90fd5b634e487b7160e01b600052604160045260246000fd5b600080fdfe60806040526004361015610024575b361561001957600080fd5b61002233612782565b005b6000803560e01c806242dc5314611b5b57806301ffc9a714611a085780630396cb60146116d45780630bd28e3b1461163f5780631b2e01b8146115ac578063205c28781461141857806322cdde4c1461139257806335567e1a146112da5780635287ce12146111d457806370a0823114611172578063765e827f14610eab578063850aaf6214610dea5780639b249f6914610c8e578063b760faf914610c50578063bb9fe6bf14610a76578063c23a5cea146107f3578063dbed18e0146101a35763fc7e286d146100f5575061000e565b346101a05760207ffffffffffffffffffffffffffffffffffffffffffffffffffffffffffffffffc3601126101a057604060a09173ffffffffffffffffffffffffffffffffffffffff61014661228c565b168152806020522065ffffffffffff6001825492015460405192835260ff8116151560208401526dffffffffffffffffffffffffffff8160081c16604084015263ffffffff8160781c16606084015260981c166080820152f35b80fd5b50346101a0576101b236612304565b906101be939293612a07565b8291835b828110610593575090916101d5906125b6565b9183845b8281106102fd5750507fbb47ee3e183a558b1a2ff0874b079f3fc5478b7454eacf2bfc5af2ff5878f9728480a183928491855b81811061024b57866102438787837f575ff3acadd5ab348fe1855e217e0f3678f8d767d7494c9f9fefbee2e17cca4d8180a2613c8a565b600160025580f35b6102a561025982848b6127d0565b73ffffffffffffffffffffffffffffffffffffffff61027a60208301612864565b167f575ff3acadd5ab348fe1855e217e0f3678f8d767d7494c9f9fefbee2e17cca4d8a80a280612810565b9088915b8083106102bb5750505060010161020c565b909195976102f46102ee6001926102e88c6102d78c888a6126d7565b6102e1828d612694565b51916135fe565b9061241b565b99612457565b960191906102a9565b6103088184896127d0565b60206103206103178380612810565b92909301612864565b9173ffffffffffffffffffffffffffffffffffffffff899316905b82841061034e57505050506001016101d9565b9091929461039073ffffffffffffffffffffffffffffffffffffffff610389610377848d612694565b516103838a89886126d7565b85612a40565b9290613f4e565b9116850361052e576104c9576103ba73ffffffffffffffffffffffffffffffffffffffff91613f4e565b9116610464576103d9576103cf600191612457565b950192919061033b565b60a486604051907f220266b6000000000000000000000000000000000000000000000000000000008252600482015260406024820152602160448201527f41413332207061796d61737465722065787069726564206f72206e6f7420647560648201527f65000000000000000000000000000000000000000000000000000000000000006084820152fd5b608487604051907f220266b6000000000000000000000000000000000000000000000000000000008252600482015260406024820152601460448201527f41413334207369676e6174757265206572726f720000000000000000000000006064820152fd5b608487604051907f220266b6000000000000000000000000000000000000000000000000000000008252600482015260406024820152601760448201527f414132322065787069726564206f72206e6f74206475650000000000000000006064820152fd5b608488604051907f220266b6000000000000000000000000000000000000000000000000000000008252600482015260406024820152601460448201527f41413234207369676e6174757265206572726f720000000000000000000000006064820152fd5b61059e8184886127d0565b936105a98580612810565b919073ffffffffffffffffffffffffffffffffffffffff6105cc60208901612864565b16966001881461079557876105f8575b505060019293949550906105ef9161241b565b939291016101c2565b806040610606920190612885565b889291923b15610791579189916040519384927f2dd8113300000000000000000000000000000000000000000000000000000000845287604485016040600487015252606484019260648960051b860101938187907ffffffffffffffffffffffffffffffffffffffffffffffffffffffffffffffee181360301905b8c831061072c5750505050508383037ffffffffffffffffffffffffffffffffffffffffffffffffffffffffffffffffc01602485015284939283926106c692612743565b03818b5afa9182610713575b505061070457602487877f86a9f750000000000000000000000000000000000000000000000000000000008252600452fd5b93945084936105ef60016105dc565b8161071d916121d5565b6107285787386106d2565b8780fd5b9295977fffffffffffffffffffffffffffffffffffffffffffffffffffffffffffffff9c91949950879295970301855287358381121561078c57602061077760019385839401612926565b9901950193018f979593919289979593610682565b508f80fd5b8980fd5b60646040517f08c379a000000000000000000000000000000000000000000000000000000000815260206004820152601760248201527f4141393620696e76616c69642061676772656761746f720000000000000000006044820152fd5b50346101a05760207ffffffffffffffffffffffffffffffffffffffffffffffffffffffffffffffffc3601126101a05761082b61228c565b33825281602052600160408320018054906dffffffffffffffffffffffffffff8260081c16918215610a185760981c65ffffffffffff1680156109ba57421061095c5780547fffffffffffffff000000000000000000000000000000000000000000000000ff1690556040805173ffffffffffffffffffffffffffffffffffffffff84811682526020820184905285948594859485949193929133917fb7c918e0e249f999e965cafeb6c664271b3f4317d296461500e71da39f0cbda391a2165af16108f5612491565b50156108fe5780f35b60646040517f08c379a000000000000000000000000000000000000000000000000000000000815260206004820152601860248201527f6661696c656420746f207769746864726177207374616b6500000000000000006044820152fd5b60646040517f08c379a000000000000000000000000000000000000000000000000000000000815260206004820152601b60248201527f5374616b65207769746864726177616c206973206e6f742064756500000000006044820152fd5b60646040517f08c379a000000000000000000000000000000000000000000000000000000000815260206004820152601d60248201527f6d7573742063616c6c20756e6c6f636b5374616b6528292066697273740000006044820152fd5b60646040517f08c379a000000000000000000000000000000000000000000000000000000000815260206004820152601460248201527f4e6f207374616b6520746f2077697468647261770000000000000000000000006044820152fd5b50346101a057807ffffffffffffffffffffffffffffffffffffffffffffffffffffffffffffffffc3601126101a0573381528060205260016040822001805463ffffffff8160781c16908115610bf25760ff1615610b945765ffffffffffff4216019065ffffffffffff8211610b675780547fffffffffffffff000000000000ffffffffffffffffffffffffffffffffffff001678ffffffffffff00000000000000000000000000000000000000609884901b1617905560405165ffffffffffff909116815233907ffa9b3c14cc825c412c9ed81b3ba365a5b459439403f18829e572ed53a4180f0a90602090a280f35b6024837f4e487b710000000000000000000000000000000000000000000000000000000081526011600452fd5b60646040517f08c379a000000000000000000000000000000000000000000000000000000000815260206004820152601160248201527f616c726561647920756e7374616b696e670000000000000000000000000000006044820152fd5b60646040517f08c379a000000000000000000000000000000000000000000000000000000000815260206004820152600a60248201527f6e6f74207374616b6564000000000000000000000000000000000000000000006044820152fd5b5060207ffffffffffffffffffffffffffffffffffffffffffffffffffffffffffffffffc3601126101a057610c8b610c8661228c565b612782565b80f35b50346101a05760207ffffffffffffffffffffffffffffffffffffffffffffffffffffffffffffffffc3601126101a05760043567ffffffffffffffff8111610de6576020610ce3610d1e9236906004016122af565b60405193849283927f570e1a360000000000000000000000000000000000000000000000000000000084528560048501526024840191612743565b03818573ffffffffffffffffffffffffffffffffffffffff7f0000000000000000000000000000000000000000000000000000000000000000165af1908115610ddb57829173ffffffffffffffffffffffffffffffffffffffff9160249491610dac575b507f6ca7b80600000000000000000000000000000000000000000000000000000000835216600452fd5b610dce915060203d602011610dd4575b610dc681836121d5565b810190612717565b38610d82565b503d610dbc565b6040513d84823e3d90fd5b5080fd5b50346101a05760407ffffffffffffffffffffffffffffffffffffffffffffffffffffffffffffffffc3601126101a05780610e2361228c565b60243567ffffffffffffffff8111610ea757610e439036906004016122af565b90816040519283928337810184815203915af4610e5e612491565b90610ea36040519283927f99410554000000000000000000000000000000000000000000000000000000008452151560048401526040602484015260448301906123be565b0390fd5b5050fd5b50346101a057610eba36612304565b929190610ec5612a07565b610ece816125b6565b91835b828110610f46575083927fbb47ee3e183a558b1a2ff0874b079f3fc5478b7454eacf2bfc5af2ff5878f9728580a184925b808410610f1457856102438689613c8a565b90919293600190610f3b610f298785886126d7565b610f338887612694565b5190886135fe565b019401929190610f02565b610f7a73ffffffffffffffffffffffffffffffffffffffff610389610f6e8488969798612694565b516103838589896126d7565b911661110d576110a857610fa273ffffffffffffffffffffffffffffffffffffffff91613f4e565b911661104357610fb85760010192919092610ed1565b60a490604051907f220266b6000000000000000000000000000000000000000000000000000000008252600482015260406024820152602160448201527f41413332207061796d61737465722065787069726564206f72206e6f7420647560648201527f65000000000000000000000000000000000000000000000000000000000000006084820152fd5b608482604051907f220266b6000000000000000000000000000000000000000000000000000000008252600482015260406024820152601460448201527f41413334207369676e6174757265206572726f720000000000000000000000006064820152fd5b608482604051907f220266b6000000000000000000000000000000000000000000000000000000008252600482015260406024820152601760448201527f414132322065787069726564206f72206e6f74206475650000000000000000006064820152fd5b608483604051907f220266b6000000000000000000000000000000000000000000000000000000008252600482015260406024820152601460448201527f41413234207369676e6174757265206572726f720000000000000000000000006064820152fd5b50346101a05760207ffffffffffffffffffffffffffffffffffffffffffffffffffffffffffffffffc3601126101a057604060209173ffffffffffffffffffffffffffffffffffffffff6111c461228c565b1681528083522054604051908152f35b50346101a05760207ffffffffffffffffffffffffffffffffffffffffffffffffffffffffffffffffc3601126101a057604060a09173ffffffffffffffffffffffffffffffffffffffff61122661228c565b826080855161123481612151565b82815282602082015282878201528260608201520152168152806020522065ffffffffffff60405161126581612151565b63ffffffff60018454948584520154916dffffffffffffffffffffffffffff6020820160ff8516151581526040830190828660081c1682528660806060860195878960781c168752019660981c1686526040519788525115156020880152511660408601525116606084015251166080820152f35b50346101a05760407ffffffffffffffffffffffffffffffffffffffffffffffffffffffffffffffffc3601126101a057602090604061131761228c565b9173ffffffffffffffffffffffffffffffffffffffff6113356122dd565b93168152600184522077ffffffffffffffffffffffffffffffffffffffffffffffff821660005282526040600020547fffffffffffffffffffffffffffffffffffffffffffffffff00000000000000006040519260401b16178152f35b50346101a05760207ffffffffffffffffffffffffffffffffffffffffffffffffffffffffffffffffc3601126101a0576004359067ffffffffffffffff82116101a0576101207ffffffffffffffffffffffffffffffffffffffffffffffffffffffffffffffffc83360301126101a0576020611410836004016124c1565b604051908152f35b50346101a05760407ffffffffffffffffffffffffffffffffffffffffffffffffffffffffffffffffc3601126101a05761145061228c565b6024359033835282602052604083209081549182841161154e578480808673ffffffffffffffffffffffffffffffffffffffff82968396611491848b612484565b90556040805173ffffffffffffffffffffffffffffffffffffffff831681526020810185905233917fd1c19fbcd4551a5edfb66d43d2e337c04837afda3482b42bdf569a8fccdae5fb91a2165af16114e7612491565b50156114f05780f35b60646040517f08c379a000000000000000000000000000000000000000000000000000000000815260206004820152601260248201527f6661696c656420746f20776974686472617700000000000000000000000000006044820152fd5b60646040517f08c379a000000000000000000000000000000000000000000000000000000000815260206004820152601960248201527f576974686472617720616d6f756e7420746f6f206c61726765000000000000006044820152fd5b50346101a05760407ffffffffffffffffffffffffffffffffffffffffffffffffffffffffffffffffc3601126101a05777ffffffffffffffffffffffffffffffffffffffffffffffff60406115ff61228c565b9273ffffffffffffffffffffffffffffffffffffffff61161d6122dd565b9416815260016020522091166000526020526020604060002054604051908152f35b50346101a05760207ffffffffffffffffffffffffffffffffffffffffffffffffffffffffffffffffc3601126101a05760043577ffffffffffffffffffffffffffffffffffffffffffffffff81168103610de657338252600160205277ffffffffffffffffffffffffffffffffffffffffffffffff60408320911660005260205260406000206116cf8154612457565b905580f35b5060207ffffffffffffffffffffffffffffffffffffffffffffffffffffffffffffffffc3601126101a05760043563ffffffff8116809103610de65733825281602052604082209080156119aa57600182015463ffffffff8160781c16821061194c57611755906dffffffffffffffffffffffffffff349160081c1661241b565b9182156118ee576dffffffffffffffffffffffffffff8311611890575460405161185c9161178282612151565b8152600160208083018281526dffffffffffffffffffffffffffff8716604080860191825260608601888152608087018b8152338c52948b9052908a209551865591519490930180549351915192517fffffffffffffff0000000000000000000000000000000000000000000000000090941660ff951515959095169490941760089190911b6effffffffffffffffffffffffffff00161760789190911b72ffffffff000000000000000000000000000000161760989190911b78ffffffffffff0000000000000000000000000000000000000016179055565b60405191825260208201527fa5ae833d0bb1dcd632d98a8b70973e8516812898e19bf27b70071ebc8dc52c0160403392a280f35b60646040517f08c379a000000000000000000000000000000000000000000000000000000000815260206004820152600e60248201527f7374616b65206f766572666c6f770000000000000000000000000000000000006044820152fd5b60646040517f08c379a000000000000000000000000000000000000000000000000000000000815260206004820152601260248201527f6e6f207374616b652073706563696669656400000000000000000000000000006044820152fd5b60646040517f08c379a000000000000000000000000000000000000000000000000000000000815260206004820152601c60248201527f63616e6e6f7420646563726561736520756e7374616b652074696d65000000006044820152fd5b60646040517f08c379a000000000000000000000000000000000000000000000000000000000815260206004820152601a60248201527f6d757374207370656369667920756e7374616b652064656c61790000000000006044820152fd5b50346101a05760207ffffffffffffffffffffffffffffffffffffffffffffffffffffffffffffffffc3601126101a0576004357fffffffff000000000000000000000000000000000000000000000000000000008116809103610de657807f60fc6b6e0000000000000000000000000000000000000000000000000000000060209214908115611b31575b8115611b07575b8115611add575b8115611ab3575b506040519015158152f35b7f01ffc9a70000000000000000000000000000000000000000000000000000000091501482611aa8565b7f3e84f0210000000000000000000000000000000000000000000000000000000081149150611aa1565b7fcf28ef970000000000000000000000000000000000000000000000000000000081149150611a9a565b7f915074d80000000000000000000000000000000000000000000000000000000081149150611a93565b50346101a0576102007ffffffffffffffffffffffffffffffffffffffffffffffffffffffffffffffffc3601126101a05760043567ffffffffffffffff8111610de65736602382011215610de657611bbd903690602481600401359101612250565b907fffffffffffffffffffffffffffffffffffffffffffffffffffffffffffffffdc36016101c08112610de65761014060405191611bfa83612151565b12610de657604051611c0b8161219c565b60243573ffffffffffffffffffffffffffffffffffffffff8116810361214d57815260443560208201526064356040820152608435606082015260a435608082015260c43560a082015260e43560c08201526101043573ffffffffffffffffffffffffffffffffffffffff8116810361214d5760e08201526101243561010082015261014435610120820152815260208101610164358152604082016101843581526101a435606084015260808301906101c43582526101e43567ffffffffffffffff811161214957611ce29036906004016122af565b935a903033036120eb57865190606082015199603f5a0260061c61271060a08501518d0101116120c3578990819b81519182611fee575b50505050505090611d32915a9003845101943691612250565b5a92855194611d4086613daf565b9273ffffffffffffffffffffffffffffffffffffffff60e088015116908115600014611ea257505073ffffffffffffffffffffffffffffffffffffffff865116945b5a9003019460a06060820151910151019051850390818111611e8e575b50508302905191818310600014611e305750506003851015611e0357602094600203611ddb576114109293508093611dd681613edc565b613dd9565b5050507fdeadaa51000000000000000000000000000000000000000000000000000000008152fd5b6024847f4e487b710000000000000000000000000000000000000000000000000000000081526021600452fd5b81611e419296939794970390613d7b565b506003821015611e6157509282611e5c926020951590613e5b565b611410565b807f4e487b7100000000000000000000000000000000000000000000000000000000602492526021600452fd5b6064919003600a0204909301923880611d9f565b819691968151611eb4575b5050611d82565b60038c1015611fc15760028c0315611ead5760a089015190803b15611fbd57918b918d83611f1e956040518097819682957f7c627b2100000000000000000000000000000000000000000000000000000000845260048401526080602484015260848301906123be565b8c8b0260448301528c60648301520393f19081611fa9575b50611fa257610ea3893d6108008111611f99575b60405191602082840101604052818352602083013e6040519182917fad7954bc0000000000000000000000000000000000000000000000000000000083526020600484015260248301906123be565b50610800611f4a565b3880611ead565b8a611fb6919b929b6121d5565b9838611f36565b8b80fd5b60248b7f4e487b710000000000000000000000000000000000000000000000000000000081526021600452fd5b9083809392602073ffffffffffffffffffffffffffffffffffffffff895116910192f115612020575b88818080611d19565b611d32939299503d9061080082116120b9575b604051916020818401016040528083528a602084013e815161205e575b505050600197909138612017565b7f1c4fada7374c0a9ee8841fc38afe82932dc0f8e69012e927f061a8bae611a201905191602073ffffffffffffffffffffffffffffffffffffffff8551169401516120ae60405192839283612401565b0390a3388080612050565b6108009150612033565b60208a7fdeaddead000000000000000000000000000000000000000000000000000000008152fd5b60646040517f08c379a000000000000000000000000000000000000000000000000000000000815260206004820152601760248201527f4141393220696e7465726e616c2063616c6c206f6e6c790000000000000000006044820152fd5b8580fd5b8380fd5b60a0810190811067ffffffffffffffff82111761216d57604052565b7f4e487b7100000000000000000000000000000000000000000000000000000000600052604160045260246000fd5b610140810190811067ffffffffffffffff82111761216d57604052565b6060810190811067ffffffffffffffff82111761216d57604052565b90601f7fffffffffffffffffffffffffffffffffffffffffffffffffffffffffffffffe0910116810190811067ffffffffffffffff82111761216d57604052565b67ffffffffffffffff811161216d57601f017fffffffffffffffffffffffffffffffffffffffffffffffffffffffffffffffe01660200190565b92919261225c82612216565b9161226a60405193846121d5565b829481845281830111612287578281602093846000960137010152565b600080fd5b6004359073ffffffffffffffffffffffffffffffffffffffff8216820361228757565b9181601f840112156122875782359167ffffffffffffffff8311612287576020838186019501011161228757565b6024359077ffffffffffffffffffffffffffffffffffffffffffffffff8216820361228757565b9060407ffffffffffffffffffffffffffffffffffffffffffffffffffffffffffffffffc8301126122875760043567ffffffffffffffff81116122875760040160009280601f8301121561214d5781359367ffffffffffffffff85116101a057506020808301928560051b01011161228757919060243573ffffffffffffffffffffffffffffffffffffffff811681036122875790565b60005b8381106123ae5750506000910152565b818101518382015260200161239e565b907fffffffffffffffffffffffffffffffffffffffffffffffffffffffffffffffe0601f6020936123fa8151809281875287808801910161239b565b0116010190565b6040906124189392815281602082015201906123be565b90565b9190820180921161242857565b7f4e487b7100000000000000000000000000000000000000000000000000000000600052601160045260246000fd5b7fffffffffffffffffffffffffffffffffffffffffffffffffffffffffffffffff81146124285760010190565b9190820391821161242857565b3d156124bc573d906124a282612216565b916124b060405193846121d5565b82523d6000602084013e565b606090565b6124ce6040820182612885565b908160405191823720906124e56060820182612885565b9081604051918237209060c06124fe60e0830183612885565b9081604051918237209160405193602085019573ffffffffffffffffffffffffffffffffffffffff83351687526020830135604087015260608601526080850152608081013560a085015260a081013582850152013560e08301526101008201526101008152612570610120826121d5565b51902060405160208101918252306040820152466060820152606081526125986080826121d5565b51902090565b67ffffffffffffffff811161216d5760051b60200190565b906125c08261259e565b6125cd60405191826121d5565b8281527fffffffffffffffffffffffffffffffffffffffffffffffffffffffffffffffe06125fb829461259e565b019060005b82811061260c57505050565b60209060405161261b81612151565b6040516126278161219c565b60008152600084820152600060408201526000606082015260006080820152600060a0820152600060c0820152600060e082015260006101008201526000610120820152815260008382015260006040820152600060608201526000608082015282828501015201612600565b80518210156126a85760209160051b010190565b7f4e487b7100000000000000000000000000000000000000000000000000000000600052603260045260246000fd5b91908110156126a85760051b810135907ffffffffffffffffffffffffffffffffffffffffffffffffffffffffffffffee181360301821215612287570190565b90816020910312612287575173ffffffffffffffffffffffffffffffffffffffff811681036122875790565b601f82602094937fffffffffffffffffffffffffffffffffffffffffffffffffffffffffffffffe0938186528686013760008582860101520116010190565b7f2da466a7b24304f47e87fa2e1e5a81b9831ce54fec19055ce277ca2f39ba42c4602073ffffffffffffffffffffffffffffffffffffffff6127c43485613d7b565b936040519485521692a2565b91908110156126a85760051b810135907fffffffffffffffffffffffffffffffffffffffffffffffffffffffffffffffa181360301821215612287570190565b9035907fffffffffffffffffffffffffffffffffffffffffffffffffffffffffffffffe181360301821215612287570180359067ffffffffffffffff821161228757602001918160051b3603831361228757565b3573ffffffffffffffffffffffffffffffffffffffff811681036122875790565b9035907fffffffffffffffffffffffffffffffffffffffffffffffffffffffffffffffe181360301821215612287570180359067ffffffffffffffff82116122875760200191813603831361228757565b90357fffffffffffffffffffffffffffffffffffffffffffffffffffffffffffffffe18236030181121561228757016020813591019167ffffffffffffffff821161228757813603831361228757565b80359173ffffffffffffffffffffffffffffffffffffffff831683036122875773ffffffffffffffffffffffffffffffffffffffff61241893168152602082013560208201526129f86129ec6129b361299861298560408701876128d6565b6101206040880152610120870191612743565b6129a560608701876128d6565b908683036060880152612743565b6080850135608085015260a085013560a085015260c085013560c08501526129de60e08601866128d6565b9085830360e0870152612743565b926101008101906128d6565b91610100818503910152612743565b6002805414612a165760028055565b7f3ee5aeb50000000000000000000000000000000000000000000000000000000060005260046000fd5b929190916000915a93815194813573ffffffffffffffffffffffffffffffffffffffff811680910361228757865260208601956020830135875260808301356fffffffffffffffffffffffffffffffff8160801c911690604083019060608401928352815260a08501359460c0840186815260c0820135906fffffffffffffffffffffffffffffffff8260801c92169161012087019061010088019384528152612aed60e0850185612885565b9081156135e2576034821061358457816014116122875780359082602411612287576014810135926034116122875760240135608090811c60a08b015291821c9189019190915260601c60e08801525b612b46846124c1565b9460208b0195865280519687845117815117916effffffffffffffffffffffffffffff60808b01938451179460a08c019586511788511790511711613526575190510190510190510190510190510292875173ffffffffffffffffffffffffffffffffffffffff81511690612bbe6040850185612885565b908161321b575b505060e0015173ffffffffffffffffffffffffffffffffffffffff161590612c2760206000846131f9575b875160405193849283927f19822f7c0000000000000000000000000000000000000000000000000000000084528a60048501613f2c565b038160008689f1600091816131c5575b50612cdf573d8f6108008211612cd5575b604051916020818401016040528083526000602084013e610ea36040519283927f65c8fd4d000000000000000000000000000000000000000000000000000000008452600484015260606024840152600d60648401527f4141323320726576657274656400000000000000000000000000000000000000608484015260a0604484015260a48301906123be565b6108009150612c48565b9161313f575b509a73ffffffffffffffffffffffffffffffffffffffff8651169051906000526001602052604060002077ffffffffffffffffffffffffffffffffffffffffffffffff8260401c1660005260205267ffffffffffffffff604060002091825492612d4e84612457565b905516036130da575a8603116130755773ffffffffffffffffffffffffffffffffffffffff60e0606095015116612d9d575b50508495969798506040608095015260608501525a900301910152565b600098509192505a9186519073ffffffffffffffffffffffffffffffffffffffff60e08301511691828b528a60205260408b2080548781106130105787900390556080015192516040517f52b7512c000000000000000000000000000000000000000000000000000000008152928b928492839185918391612e24918c9160048501613f2c565b039287f18991829082612f8b575b5050612edb573d8b6108008211612ed1575b604051916020818401016040528083526000602084013e610ea36040519283927f65c8fd4d000000000000000000000000000000000000000000000000000000008452600484015260606024840152600d60648401527f4141333320726576657274656400000000000000000000000000000000000000608484015260a0604484015260a48301906123be565b6108009150612e44565b9991929394959697989998925a900311612f0057508796909594939291608038612d80565b60a490604051907f220266b6000000000000000000000000000000000000000000000000000000008252600482015260406024820152602760448201527f41413336206f766572207061796d6173746572566572696669636174696f6e4760648201527f61734c696d6974000000000000000000000000000000000000000000000000006084820152fd5b919a5091503d8083833e612f9f81836121d5565b8101916040828403126101a057815167ffffffffffffffff8111610de657820183601f82011215610de657805191612fd683612216565b94612fe460405196876121d5565b838652602084840101116101a05750602092916130069184808701910161239b565b0151983880612e32565b60848f604051907f220266b6000000000000000000000000000000000000000000000000000000008252600482015260406024820152601e60448201527f41413331207061796d6173746572206465706f73697420746f6f206c6f7700006064820152fd5b60848b604051907f220266b6000000000000000000000000000000000000000000000000000000008252600482015260406024820152601e60448201527f41413236206f76657220766572696669636174696f6e4761734c696d697400006064820152fd5b60848c604051907f220266b6000000000000000000000000000000000000000000000000000000008252600482015260406024820152601a60448201527f4141323520696e76616c6964206163636f756e74206e6f6e63650000000000006064820152fd5b60005260006020526040600020805480871161316057869003905538612ce5565b60848f604051907f220266b6000000000000000000000000000000000000000000000000000000008252600482015260406024820152601760448201527f41413231206469646e2774207061792070726566756e640000000000000000006064820152fd5b9091506020813d6020116131f1575b816131e1602093836121d5565b8101031261228757519038612c37565b3d91506131d4565b8381528082526040812054898111156132125750612bf0565b90508803612bf0565b909173ffffffffffffffffffffffffffffffffffffffff81511692833b6134bf5760408d510151602060405180927f570e1a360000000000000000000000000000000000000000000000000000000082528260048301528160008161328460248201898c612743565b039273ffffffffffffffffffffffffffffffffffffffff7f00000000000000000000000000000000000000000000000000000000000000001690f19081156134b357600091613494575b5073ffffffffffffffffffffffffffffffffffffffff8116801561342b5785036133c3573b1561335c576014116122875773ffffffffffffffffffffffffffffffffffffffff928c7fd51a9c61267aa6196961883ecf5ff2da6619c37dac0fa92122513fb32c032d2d604060e0953587878d5195510151168883519260601c1682526020820152a391612bc5565b505060848f604051907f220266b6000000000000000000000000000000000000000000000000000000008252600482015260406024820152602060448201527f4141313520696e6974436f6465206d757374206372656174652073656e6465726064820152fd5b50505060848f604051907f220266b6000000000000000000000000000000000000000000000000000000008252600482015260406024820152602060448201527f4141313420696e6974436f6465206d7573742072657475726e2073656e6465726064820152fd5b5050505060848f604051907f220266b6000000000000000000000000000000000000000000000000000000008252600482015260406024820152601b60448201527f4141313320696e6974436f6465206661696c6564206f72204f4f4700000000006064820152fd5b6134ad915060203d602011610dd457610dc681836121d5565b386132ce565b6040513d6000823e3d90fd5b505060848f604051907f220266b6000000000000000000000000000000000000000000000000000000008252600482015260406024820152601f60448201527f414131302073656e64657220616c726561647920636f6e7374727563746564006064820152fd5b60646040517f08c379a000000000000000000000000000000000000000000000000000000000815260206004820152601860248201527f41413934206761732076616c756573206f766572666c6f7700000000000000006044820152fd5b60646040517f08c379a000000000000000000000000000000000000000000000000000000000815260206004820152601d60248201527f4141393320696e76616c6964207061796d6173746572416e64446174610000006044820152fd5b5050600060e088015260006080880152600060a0880152612b3d565b9092915a606082015160405195866136196060830183612885565b600060038211613c82575b7fffffffff00000000000000000000000000000000000000000000000000000000167f8dd7712f0000000000000000000000000000000000000000000000000000000003613b135750505060006137326138526136c06136f2602095868a01516040519384927f8dd7712f000000000000000000000000000000000000000000000000000000008a850152604060248501526064840190612926565b906044830152037fffffffffffffffffffffffffffffffffffffffffffffffffffffffffffffffe081018352826121d5565b6138266040519384927e42dc53000000000000000000000000000000000000000000000000000000008885015261020060248501526102248401906123be565b6137f5604484018b60806101a091610120815173ffffffffffffffffffffffffffffffffffffffff8151168652602081015160208701526040810151604087015260608101516060870152838101518487015260a081015160a087015260c081015160c087015273ffffffffffffffffffffffffffffffffffffffff60e08201511660e087015261010081015161010087015201516101208501526020810151610140850152604081015161016085015260608101516101808501520151910152565b7fffffffffffffffffffffffffffffffffffffffffffffffffffffffffffffffdc83820301610204840152876123be565b037fffffffffffffffffffffffffffffffffffffffffffffffffffffffffffffffe081018352826121d5565b828151910182305af1600051966040521561386e575b50505050565b90919293945060003d602014613b04575b7fdeaddead00000000000000000000000000000000000000000000000000000000810361390b57608485604051907f220266b6000000000000000000000000000000000000000000000000000000008252600482015260406024820152600f60448201527f41413935206f7574206f662067617300000000000000000000000000000000006064820152fd5b92935090917fdeadaa51000000000000000000000000000000000000000000000000000000000361396e5750613953613948613963925a90612484565b60808401519061241b565b604083015183611dd68295613edc565b905b38808080613868565b906139f59060208401518451907ff62676f440ff169a3a9afdbf812e89e7f95975ee8e5c31214ffdef631c5f4792602073ffffffffffffffffffffffffffffffffffffffff8451169301513d906108008211613afa575b604051916020818401016040528083526000602084013e6139eb60405192839283612401565b0390a35a90612484565b613a05608084019182519061241b565b60005a928192865195613a1787613daf565b9373ffffffffffffffffffffffffffffffffffffffff60e0890151168015600014613ae45750505073ffffffffffffffffffffffffffffffffffffffff865116945b5a9003019460a06060820151910151019051850390818111613ad0575b50508302604085015192818410600014613aa857505080611e6157509081613aa29293611dd681613edc565b90613965565b613ab89082849397950390613d7b565b50611e61575090826000613acb93613e5b565b613aa2565b6064919003600a0204909301923880613a76565b969151613af2575b50613a59565b945038613aec565b61080091506139c5565b5060206000803e60005161387f565b613c789350613c4c91613b58917e42dc530000000000000000000000000000000000000000000000000000000060208601526102006024860152610224850191612743565b613c1b604484018860806101a091610120815173ffffffffffffffffffffffffffffffffffffffff8151168652602081015160208701526040810151604087015260608101516060870152838101518487015260a081015160a087015260c081015160c087015273ffffffffffffffffffffffffffffffffffffffff60e08201511660e087015261010081015161010087015201516101208501526020810151610140850152604081015161016085015260608101516101808501520151910152565b7fffffffffffffffffffffffffffffffffffffffffffffffffffffffffffffffdc83820301610204840152846123be565b037fffffffffffffffffffffffffffffffffffffffffffffffffffffffffffffffe081018852876121d5565b6020600087613852565b508135613624565b73ffffffffffffffffffffffffffffffffffffffff168015613d1d57600080809381935af1613cb7612491565b5015613cbf57565b60646040517f08c379a000000000000000000000000000000000000000000000000000000000815260206004820152601f60248201527f41413931206661696c65642073656e6420746f2062656e6566696369617279006044820152fd5b60646040517f08c379a000000000000000000000000000000000000000000000000000000000815260206004820152601860248201527f4141393020696e76616c69642062656e656669636961727900000000000000006044820152fd5b73ffffffffffffffffffffffffffffffffffffffff166000526000602052613da9604060002091825461241b565b80915590565b610120610100820151910151808214613dd557480180821015613dd0575090565b905090565b5090565b9190917f49628fd1471006c1482da88028e9ce4dbb080b815c9b0344d39e5a8e6ec1419f6080602083015192519473ffffffffffffffffffffffffffffffffffffffff86511694602073ffffffffffffffffffffffffffffffffffffffff60e089015116970151916040519283526000602084015260408301526060820152a4565b9060807f49628fd1471006c1482da88028e9ce4dbb080b815c9b0344d39e5a8e6ec1419f91602084015193519573ffffffffffffffffffffffffffffffffffffffff87511695602073ffffffffffffffffffffffffffffffffffffffff60e08a015116980151926040519384521515602084015260408301526060820152a4565b60208101519051907f67b4fa9642f42120bf031f3051d1824b0fe25627945b27b8a6a65d5761d5482e60208073ffffffffffffffffffffffffffffffffffffffff855116940151604051908152a3565b613f4460409295949395606083526060830190612926565b9460208201520152565b8015613fe757600060408051613f63816121b9565b828152826020820152015273ffffffffffffffffffffffffffffffffffffffff81169065ffffffffffff8160a01c16908115613fd9575b60409060d01c9165ffffffffffff825191613fb4836121b9565b8583528460208401521691829101524211908115613fd157509091565b905042109091565b65ffffffffffff9150613f9a565b5060009060009056fea264697066735822122053cff36420b73d687262c5ce49a271be19edb1070e10d0d74244ded13dffb2ba64736f6c634300081c003360808060405234601557610204908161001b8239f35b600080fdfe6080600436101561000f57600080fd5b60003560e01c63570e1a361461002457600080fd5b346101c95760207ffffffffffffffffffffffffffffffffffffffffffffffffffffffffffffffffc3601126101c95760043567ffffffffffffffff81116101c957366023820112156101c957806004013567ffffffffffffffff81116101c95736602482840101116101c957600092816014116101c5577fffffffffffffffffffffffffffffffffffffffffffffffffffffffffffffffec82019167ffffffffffffffff8311610198577fffffffffffffffffffffffffffffffffffffffffffffffffffffffffffffffe0603f81600b8401160116820182811067ffffffffffffffff82111761016b5760246020959387600c819795829560405286845289840196603889018837830101525193013560601c5af190519015610163575b60209073ffffffffffffffffffffffffffffffffffffffff60405191168152f35b506000610142565b6024867f4e487b710000000000000000000000000000000000000000000000000000000081526041600452fd5b6024857f4e487b710000000000000000000000000000000000000000000000000000000081526041600452fd5b8380fd5b600080fdfea2646970667358221220f305957a6db6c0beba40f0ede0597742ea8b2755dc11ebb11d41da55dda59eed64736f6c634300081c0033","linkReferences":{}},"methodIdentifiers":{"addStake(uint32)":"0396cb60","balanceOf(address)":"70a08231","delegateAndRevert(address,bytes)":"850aaf62","depositTo(address)":"b760faf9","deposits(address)":"fc7e286d","getDepositInfo(address)":"5287ce12","getNonce(address,uint192)":"35567e1a","getSenderAddress(bytes)":"9b249f69","getUserOpHash((address,uint256,bytes,bytes,bytes32,uint256,bytes32,bytes,bytes))":"22cdde4c","handleAggregatedOps(((address,uint256,bytes,bytes,bytes32,uint256,bytes32,bytes,bytes)[],address,bytes)[],address)":"dbed18e0","handleOps((address,uint256,bytes,bytes,bytes32,uint256,bytes32,bytes,bytes)[],address)":"765e827f","incrementNonce(uint192)":"0bd28e3b","innerHandleOp(bytes,((address,uint256,uint256,uint256,uint256,uint256,uint256,address,uint256,uint256),bytes32,uint256,uint256,uint256),bytes)":"0042dc53","nonceSequenceNumber(address,uint192)":"1b2e01b8","supportsInterface(bytes4)":"01ffc9a7","unlockStake()":"bb9fe6bf","withdrawStake(address)":"c23a5cea","withdrawTo(address,uint256)":"205c2878"},"id":0}