{"abi":[{"type":"function","name":"receiveValue","inputs":[],"outputs":[],"stateMutability":"payable"}],"bytecode":{"object":"0x608080604052346013576086908160198239f35b600080fdfe6004361015600c57600080fd5b60003560e01c63f83bac8e14602057600080fd5b60007ffffffffffffffffffffffffffffffffffffffffffffffffffffffffffffffffc360112604b57005b600080fdfea2646970667358221220a25b8fca822a4a161d02a2938689c6f0a7f3e27cc70d47459595ca437359da7564736f6c634300081c0033","linkReferences":{}},"methodIdentifiers":{"receiveValue()":"f83bac8e"},"id":119}