{
  "_format": "hh-sol-artifact-1",
  "contractName": "Factory",
  "sourceName": "src/Factory.sol",
  "abi": [
    {
      "inputs": [
        {
          "internalType": "address",
          "name": "_mainModule",
          "type": "address"
        },
        {
          "internalType": "bytes32",
          "name": "_salt",
          "type": "bytes32"
        }
      ],
      "name": "DeployFailed",
      "type": "error"
    },
    {
      "inputs": [
        {
          "internalType": "address",
          "name": "_mainModule",
          "type": "address"
        },
        {
          "internalType": "bytes32",
          "name": "_salt",
          "type": "bytes32"
        }
      ],
      "name": "deploy",
      "outputs": [
        {
          "internalType": "address",
          "name": "_contract",
          "type": "address"
        }
      ],
      "stateMutability": "payable",
      "type": "function"
    }
  ],
  "bytecode": "0x6080604052348015600e575f5ffd5b5061035a8061001c5f395ff3fe60806040526004361061001d575f3560e01c806332c02a1414610021575b5f5ffd5b61003b600480360381019061003691906101ba565b610051565b6040516100489190610207565b60405180910390f35b5f5f6040518060600160405280602c81526020016102f9602c91398473ffffffffffffffffffffffffffffffffffffffff1660405160200161009492919061029b565b60405160208183030381529060405290508281516020830134f591505f73ffffffffffffffffffffffffffffffffffffffff168273ffffffffffffffffffffffffffffffffffffffff16036101225783836040517f8caac8050000000000000000000000000000000000000000000000000000000081526004016101199291906102d1565b60405180910390fd5b5092915050565b5f5ffd5b5f73ffffffffffffffffffffffffffffffffffffffff82169050919050565b5f6101568261012d565b9050919050565b6101668161014c565b8114610170575f5ffd5b50565b5f813590506101818161015d565b92915050565b5f819050919050565b61019981610187565b81146101a3575f5ffd5b50565b5f813590506101b481610190565b92915050565b5f5f604083850312156101d0576101cf610129565b5b5f6101dd85828601610173565b92505060206101ee858286016101a6565b9150509250929050565b6102018161014c565b82525050565b5f60208201905061021a5f8301846101f8565b92915050565b5f81519050919050565b5f81905092915050565b8281835e5f83830152505050565b5f61024c82610220565b610256818561022a565b9350610266818560208601610234565b80840191505092915050565b5f819050919050565b5f819050919050565b61029561029082610272565b61027b565b82525050565b5f6102a68285610242565b91506102b28284610284565b6020820191508190509392505050565b6102cb81610187565b82525050565b5f6040820190506102e45f8301856101f8565b6102f160208301846102c2565b939250505056fe603e600e3d39601e805130553df33d3d34601c57363d3d373d363d30545af43d82803e903d91601c57fd5bf3a264697066735822122009e132ab9d1c11bdbac018e6131534eb4d4460c20d453928a5a0b89cf4ecf4fc64736f6c634300081c0033",
  "linkReferences": {},
  "deployedLinkReferences": {}
}