{
  "_format": "hh-sol-artifact-1",
  "contractName": "Factory",
  "sourceName": "src/Factory.sol",
  "abi": [
    {
      "inputs": [
        {
          "internalType": "address",
          "name": "_mainModule",
          "type": "address"
        },
        {
          "internalType": "bytes32",
          "name": "_salt",
          "type": "bytes32"
        }
      ],
      "name": "DeployFailed",
      "type": "error"
    },
    {
      "inputs": [
        {
          "internalType": "address",
          "name": "_mainModule",
          "type": "address"
        },
        {
          "internalType": "bytes32",
          "name": "_salt",
          "type": "bytes32"
        }
      ],
      "name": "deploy",
      "outputs": [
        {
          "internalType": "address",
          "name": "_contract",
          "type": "address"
        }
      ],
      "stateMutability": "payable",
      "type": "function"
    }
  ],
  "bytecode": "0x6080604052348015600f57600080fd5b506102128061001f6000396000f3fe60806040526004361061001e5760003560e01c806332c02a1414610023575b600080fd5b610036610031366004610136565b61005f565b60405173ffffffffffffffffffffffffffffffffffffffff909116815260200160405180910390f35b6000806040518060600160405280602f81526020016101ae602f91398473ffffffffffffffffffffffffffffffffffffffff166040516020016100a392919061017b565b60405160208183030381529060405290508281516020830134f5915073ffffffffffffffffffffffffffffffffffffffff821661012f576040517f8caac80500000000000000000000000000000000000000000000000000000000815273ffffffffffffffffffffffffffffffffffffffff851660048201526024810184905260440160405180910390fd5b5092915050565b6000806040838503121561014957600080fd5b823573ffffffffffffffffffffffffffffffffffffffff8116811461016d57600080fd5b946020939093013593505050565b6000835160005b8181101561019c5760208187018101518583015201610182565b50919091019182525060200191905056fe6041600e3d396021805130553df33d3d36153402601f57363d3d373d363d30545af43d82803e903d91601f57fd5bf3a2646970667358221220582ddd47dbc7f5542987d5eb31f1e7b7d907c9ba839bf6a9c945b9b2069b265a64736f6c634300081c0033",
  "linkReferences": {},
  "deployedLinkReferences": {}
}