{
  "_format": "hh-sol-artifact-1",
  "contractName": "Stage2Auth",
  "sourceName": "src/modules/auth/Stage2Auth.sol",
  "abi": [
    {
      "inputs": [],
      "name": "ImageHashIsZero",
      "type": "error"
    },
    {
      "inputs": [
        {
          "components": [
            {
              "internalType": "uint8",
              "name": "kind",
              "type": "uint8"
            },
            {
              "internalType": "bool",
              "name": "noChainId",
              "type": "bool"
            },
            {
              "components": [
                {
                  "internalType": "address",
                  "name": "to",
                  "type": "address"
                },
                {
                  "internalType": "uint256",
                  "name": "value",
                  "type": "uint256"
                },
                {
                  "internalType": "bytes",
                  "name": "data",
                  "type": "bytes"
                },
                {
                  "internalType": "uint256",
                  "name": "gasLimit",
                  "type": "uint256"
                },
                {
                  "internalType": "bool",
                  "name": "delegateCall",
                  "type": "bool"
                },
                {
                  "internalType": "bool",
                  "name": "onlyFallback",
                  "type": "bool"
                },
                {
                  "internalType": "uint256",
                  "name": "behaviorOnError",
                  "type": "uint256"
                }
              ],
              "internalType": "struct Payload.Call[]",
              "name": "calls",
              "type": "tuple[]"
            },
            {
              "internalType": "uint256",
              "name": "space",
              "type": "uint256"
            },
            {
              "internalType": "uint256",
              "name": "nonce",
              "type": "uint256"
            },
            {
              "internalType": "bytes",
              "name": "message",
              "type": "bytes"
            },
            {
              "internalType": "bytes32",
              "name": "imageHash",
              "type": "bytes32"
            },
            {
              "internalType": "bytes32",
              "name": "digest",
              "type": "bytes32"
            },
            {
              "internalType": "address[]",
              "name": "parentWallets",
              "type": "address[]"
            }
          ],
          "internalType": "struct Payload.Decoded",
          "name": "_payload",
          "type": "tuple"
        },
        {
          "internalType": "bytes32",
          "name": "_subdigest",
          "type": "bytes32"
        },
        {
          "internalType": "address",
          "name": "_signer",
          "type": "address"
        },
        {
          "internalType": "bytes",
          "name": "_signature",
          "type": "bytes"
        }
      ],
      "name": "InvalidNestedSignature",
      "type": "error"
    },
    {
      "inputs": [
        {
          "components": [
            {
              "internalType": "uint8",
              "name": "kind",
              "type": "uint8"
            },
            {
              "internalType": "bool",
              "name": "noChainId",
              "type": "bool"
            },
            {
              "components": [
                {
                  "internalType": "address",
                  "name": "to",
                  "type": "address"
                },
                {
                  "internalType": "uint256",
                  "name": "value",
                  "type": "uint256"
                },
                {
                  "internalType": "bytes",
                  "name": "data",
                  "type": "bytes"
                },
                {
                  "internalType": "uint256",
                  "name": "gasLimit",
                  "type": "uint256"
                },
                {
                  "internalType": "bool",
                  "name": "delegateCall",
                  "type": "bool"
                },
                {
                  "internalType": "bool",
                  "name": "onlyFallback",
                  "type": "bool"
                },
                {
                  "internalType": "uint256",
                  "name": "behaviorOnError",
                  "type": "uint256"
                }
              ],
              "internalType": "struct Payload.Call[]",
              "name": "calls",
              "type": "tuple[]"
            },
            {
              "internalType": "uint256",
              "name": "space",
              "type": "uint256"
            },
            {
              "internalType": "uint256",
              "name": "nonce",
              "type": "uint256"
            },
            {
              "internalType": "bytes",
              "name": "message",
              "type": "bytes"
            },
            {
              "internalType": "bytes32",
              "name": "imageHash",
              "type": "bytes32"
            },
            {
              "internalType": "bytes32",
              "name": "digest",
              "type": "bytes32"
            },
            {
              "internalType": "address[]",
              "name": "parentWallets",
              "type": "address[]"
            }
          ],
          "internalType": "struct Payload.Decoded",
          "name": "_payload",
          "type": "tuple"
        },
        {
          "internalType": "bytes",
          "name": "_signature",
          "type": "bytes"
        }
      ],
      "name": "InvalidSapientSignature",
      "type": "error"
    },
    {
      "inputs": [
        {
          "internalType": "uint256",
          "name": "_flag",
          "type": "uint256"
        }
      ],
      "name": "InvalidSignatureFlag",
      "type": "error"
    },
    {
      "inputs": [
        {
          "internalType": "uint256",
          "name": "_threshold",
          "type": "uint256"
        },
        {
          "internalType": "uint256",
          "name": "_weight",
          "type": "uint256"
        }
      ],
      "name": "InvalidSignatureWeight",
      "type": "error"
    },
    {
      "inputs": [
        {
          "internalType": "bytes32",
          "name": "_opHash",
          "type": "bytes32"
        },
        {
          "internalType": "uint256",
          "name": "_expires",
          "type": "uint256"
        }
      ],
      "name": "InvalidStaticSignature",
      "type": "error"
    },
    {
      "inputs": [
        {
          "internalType": "bytes",
          "name": "_signature",
          "type": "bytes"
        },
        {
          "internalType": "uint256",
          "name": "_threshold",
          "type": "uint256"
        },
        {
          "internalType": "uint256",
          "name": "_weight",
          "type": "uint256"
        }
      ],
      "name": "LowWeightChainedSignature",
      "type": "error"
    },
    {
      "inputs": [
        {
          "internalType": "address",
          "name": "_sender",
          "type": "address"
        }
      ],
      "name": "OnlySelf",
      "type": "error"
    },
    {
      "inputs": [
        {
          "components": [
            {
              "internalType": "bytes32",
              "name": "imageHash",
              "type": "bytes32"
            },
            {
              "internalType": "uint256",
              "name": "checkpoint",
              "type": "uint256"
            }
          ],
          "internalType": "struct Snapshot",
          "name": "_snapshot",
          "type": "tuple"
        }
      ],
      "name": "UnusedSnapshot",
      "type": "error"
    },
    {
      "inputs": [
        {
          "internalType": "uint256",
          "name": "_nextCheckpoint",
          "type": "uint256"
        },
        {
          "internalType": "uint256",
          "name": "_checkpoint",
          "type": "uint256"
        }
      ],
      "name": "WrongChainedCheckpointOrder",
      "type": "error"
    },
    {
      "anonymous": false,
      "inputs": [
        {
          "indexed": false,
          "internalType": "bytes32",
          "name": "newImageHash",
          "type": "bytes32"
        }
      ],
      "name": "ImageHashUpdated",
      "type": "event"
    },
    {
      "anonymous": false,
      "inputs": [
        {
          "indexed": false,
          "internalType": "address",
          "name": "newImplementation",
          "type": "address"
        }
      ],
      "name": "ImplementationUpdated",
      "type": "event"
    },
    {
      "anonymous": false,
      "inputs": [
        {
          "indexed": false,
          "internalType": "bytes32",
          "name": "_hash",
          "type": "bytes32"
        },
        {
          "indexed": false,
          "internalType": "address",
          "name": "_address",
          "type": "address"
        },
        {
          "indexed": false,
          "internalType": "uint96",
          "name": "_timestamp",
          "type": "uint96"
        }
      ],
      "name": "StaticSignatureSet",
      "type": "event"
    },
    {
      "inputs": [],
      "name": "getImplementation",
      "outputs": [
        {
          "internalType": "address",
          "name": "",
          "type": "address"
        }
      ],
      "stateMutability": "view",
      "type": "function"
    },
    {
      "inputs": [],
      "name": "imageHash",
      "outputs": [
        {
          "internalType": "bytes32",
          "name": "",
          "type": "bytes32"
        }
      ],
      "stateMutability": "view",
      "type": "function"
    },
    {
      "inputs": [
        {
          "internalType": "bytes32",
          "name": "_hash",
          "type": "bytes32"
        },
        {
          "internalType": "bytes",
          "name": "_signature",
          "type": "bytes"
        }
      ],
      "name": "isValidSignature",
      "outputs": [
        {
          "internalType": "bytes4",
          "name": "",
          "type": "bytes4"
        }
      ],
      "stateMutability": "view",
      "type": "function"
    },
    {
      "inputs": [
        {
          "components": [
            {
              "internalType": "uint8",
              "name": "kind",
              "type": "uint8"
            },
            {
              "internalType": "bool",
              "name": "noChainId",
              "type": "bool"
            },
            {
              "components": [
                {
                  "internalType": "address",
                  "name": "to",
                  "type": "address"
                },
                {
                  "internalType": "uint256",
                  "name": "value",
                  "type": "uint256"
                },
                {
                  "internalType": "bytes",
                  "name": "data",
                  "type": "bytes"
                },
                {
                  "internalType": "uint256",
                  "name": "gasLimit",
                  "type": "uint256"
                },
                {
                  "internalType": "bool",
                  "name": "delegateCall",
                  "type": "bool"
                },
                {
                  "internalType": "bool",
                  "name": "onlyFallback",
                  "type": "bool"
                },
                {
                  "internalType": "uint256",
                  "name": "behaviorOnError",
                  "type": "uint256"
                }
              ],
              "internalType": "struct Payload.Call[]",
              "name": "calls",
              "type": "tuple[]"
            },
            {
              "internalType": "uint256",
              "name": "space",
              "type": "uint256"
            },
            {
              "internalType": "uint256",
              "name": "nonce",
              "type": "uint256"
            },
            {
              "internalType": "bytes",
              "name": "message",
              "type": "bytes"
            },
            {
              "internalType": "bytes32",
              "name": "imageHash",
              "type": "bytes32"
            },
            {
              "internalType": "bytes32",
              "name": "digest",
              "type": "bytes32"
            },
            {
              "internalType": "address[]",
              "name": "parentWallets",
              "type": "address[]"
            }
          ],
          "internalType": "struct Payload.Decoded",
          "name": "_payload",
          "type": "tuple"
        },
        {
          "internalType": "bytes",
          "name": "_signature",
          "type": "bytes"
        }
      ],
      "name": "recoverPartialSignature",
      "outputs": [
        {
          "internalType": "uint256",
          "name": "threshold",
          "type": "uint256"
        },
        {
          "internalType": "uint256",
          "name": "weight",
          "type": "uint256"
        },
        {
          "internalType": "bool",
          "name": "isValidImage",
          "type": "bool"
        },
        {
          "internalType": "bytes32",
          "name": "imageHash",
          "type": "bytes32"
        },
        {
          "internalType": "uint256",
          "name": "checkpoint",
          "type": "uint256"
        },
        {
          "internalType": "bytes32",
          "name": "opHash",
          "type": "bytes32"
        }
      ],
      "stateMutability": "view",
      "type": "function"
    },
    {
      "inputs": [
        {
          "components": [
            {
              "internalType": "uint8",
              "name": "kind",
              "type": "uint8"
            },
            {
              "internalType": "bool",
              "name": "noChainId",
              "type": "bool"
            },
            {
              "components": [
                {
                  "internalType": "address",
                  "name": "to",
                  "type": "address"
                },
                {
                  "internalType": "uint256",
                  "name": "value",
                  "type": "uint256"
                },
                {
                  "internalType": "bytes",
                  "name": "data",
                  "type": "bytes"
                },
                {
                  "internalType": "uint256",
                  "name": "gasLimit",
                  "type": "uint256"
                },
                {
                  "internalType": "bool",
                  "name": "delegateCall",
                  "type": "bool"
                },
                {
                  "internalType": "bool",
                  "name": "onlyFallback",
                  "type": "bool"
                },
                {
                  "internalType": "uint256",
                  "name": "behaviorOnError",
                  "type": "uint256"
                }
              ],
              "internalType": "struct Payload.Call[]",
              "name": "calls",
              "type": "tuple[]"
            },
            {
              "internalType": "uint256",
              "name": "space",
              "type": "uint256"
            },
            {
              "internalType": "uint256",
              "name": "nonce",
              "type": "uint256"
            },
            {
              "internalType": "bytes",
              "name": "message",
              "type": "bytes"
            },
            {
              "internalType": "bytes32",
              "name": "imageHash",
              "type": "bytes32"
            },
            {
              "internalType": "bytes32",
              "name": "digest",
              "type": "bytes32"
            },
            {
              "internalType": "address[]",
              "name": "parentWallets",
              "type": "address[]"
            }
          ],
          "internalType": "struct Payload.Decoded",
          "name": "_payload",
          "type": "tuple"
        },
        {
          "internalType": "bytes",
          "name": "_signature",
          "type": "bytes"
        }
      ],
      "name": "recoverSapientSignature",
      "outputs": [
        {
          "internalType": "bytes32",
          "name": "",
          "type": "bytes32"
        }
      ],
      "stateMutability": "view",
      "type": "function"
    },
    {
      "inputs": [
        {
          "internalType": "bytes32",
          "name": "_hash",
          "type": "bytes32"
        },
        {
          "internalType": "address",
          "name": "_address",
          "type": "address"
        },
        {
          "internalType": "uint96",
          "name": "_timestamp",
          "type": "uint96"
        }
      ],
      "name": "setStaticSignature",
      "outputs": [],
      "stateMutability": "nonpayable",
      "type": "function"
    },
    {
      "inputs": [
        {
          "internalType": "bytes32",
          "name": "_imageHash",
          "type": "bytes32"
        }
      ],
      "name": "updateImageHash",
      "outputs": [],
      "stateMutability": "nonpayable",
      "type": "function"
    },
    {
      "inputs": [
        {
          "internalType": "address",
          "name": "_implementation",
          "type": "address"
        }
      ],
      "name": "updateImplementation",
      "outputs": [],
      "stateMutability": "payable",
      "type": "function"
    }
  ],
  "bytecode": "0x6080604052348015600f57600080fd5b50612b898061001f6000396000f3fe60806040526004361061007b5760003560e01c806351605d801161004e57806351605d8014610139578063aaf10f421461014e578063ad55366b14610188578063f727ef1c146101db57600080fd5b8063025b22bc1461008057806313792a4a146100955780631626ba7e146100c85780632956142614610119575b600080fd5b61009361008e3660046120b3565b6101fb565b005b3480156100a157600080fd5b506100b56100b0366004612457565b610247565b6040519081526020015b60405180910390f35b3480156100d457600080fd5b506100e86100e336600461259e565b6103b2565b6040517fffffffff0000000000000000000000000000000000000000000000000000000090911681526020016100bf565b34801561012557600080fd5b506100936101343660046125d1565b610448565b34801561014557600080fd5b506100b561048c565b34801561015a57600080fd5b506101636104bb565b60405173ffffffffffffffffffffffffffffffffffffffff90911681526020016100bf565b34801561019457600080fd5b506101a86101a3366004612457565b6104c5565b604080519687526020870195909552921515938501939093526060840152608083019190915260a082015260c0016100bf565b3480156101e757600080fd5b506100936101f63660046125ea565b6104ff565b33301461023b576040517fa19dbf000000000000000000000000000000000000000000000000000000000081523360048201526024015b60405180910390fd5b610244816105ba565b50565b60008084610100015151600161025d919061263b565b67ffffffffffffffff811115610275576102756120ce565b60405190808252806020026020018201604052801561029e578160200160208202803683370190505b50905060005b856101000151518110156103105785610100015181815181106102c9576102c9612675565b60200260200101518282815181106102e3576102e3612675565b73ffffffffffffffffffffffffffffffffffffffff909216602092830291909101909101526001016102a4565b503381866101000151518151811061032a5761032a612675565b73ffffffffffffffffffffffffffffffffffffffff909216602092830291909101909101526101008501819052600061036486868661060f565b509050806103a4578585856040517ff58cc8b500000000000000000000000000000000000000000000000000000000815260040161023293929190612927565b5060019150505b9392505050565b604080516101208101825260006020820181905260609282018390528282018190526080820181905260a0820183905260c082018190526101008201929092526003815260e081018590528161040982868661060f565b5090508061041d5750600091506103ab9050565b507f20c13b0b0000000000000000000000000000000000000000000000000000000095945050505050565b333014610483576040517fa19dbf00000000000000000000000000000000000000000000000000000000008152336004820152602401610232565b610244816107a0565b60006104b67fea7157fa25e3aa17d0ae2d5280fa4e24d421c61842aa85e45194e1145aa72bf85490565b905090565b60006104b6305490565b6000806000806000806104dc898989600080610830565b9399509197509450925090506104f183610b55565b935093975093979195509350565b33301461053a576040517fa19dbf00000000000000000000000000000000000000000000000000000000008152336004820152602401610232565b6105538383836bffffffffffffffffffffffff16610b8c565b6040805184815273ffffffffffffffffffffffffffffffffffffffff841660208201526bffffffffffffffffffffffff83168183015290517febf265acfac1c01de588ed7ef49743b9c3ce8d6d1edeaf510a1f5453228515b19181900360600190a1505050565b6105c2813055565b60405173ffffffffffffffffffffffffffffffffffffffff821681527f310ba5f1d2ed074b51e2eccd052a47ae9ab7c6b800d1fca3db3999d6a592ca03906020015b60405180910390a150565b60008060008484600081811061062757610627612675565b7fff000000000000000000000000000000000000000000000000000000000000009201359182169250507f800000000000000000000000000000000000000000000000000000000000000090811690036107265761068486610c1b565b915060008061069284610c96565b91509150428110156106da576040517f9fa4fe540000000000000000000000000000000000000000000000000000000081526004810185905260248101829052604401610232565b73ffffffffffffffffffffffffffffffffffffffff82161580610712575073ffffffffffffffffffffffffffffffffffffffff821633145b156107235760019450505050610798565b50505b6000806000610739898989600080610830565b985092955090935091505082821015610788576040517ffd41fcba0000000000000000000000000000000000000000000000000000000081526004810184905260248101839052604401610232565b61079181610b55565b9550505050505b935093915050565b806107d7576040517f4294d12700000000000000000000000000000000000000000000000000000000815260040160405180910390fd5b6108007fea7157fa25e3aa17d0ae2d5280fa4e24d421c61842aa85e45194e1145aa72bf8829055565b6040518181527f307ed6bd941ee9fc80f369c94af5fa11e25bab5102a6140191756c5474a30bfa90602001610604565b6040805180820182526000808252602082018190529182918291829182918a3560f81c9160019180841614801561087b575073ffffffffffffffffffffffffffffffffffffffff8916155b15610997578b82013560601c9850601490910190896109975760038201918c013560e81c60008d848e6108ae858361263b565b926108bb93929190612957565b8080601f016020809104026020016040519081016040528093929190818152602001838380828437600092019190915250506040517fccce3bc80000000000000000000000000000000000000000000000000000000081529293505073ffffffffffffffffffffffffffffffffffffffff8d169163ccce3bc891506109469030908590600401612981565b6040805180830381865afa158015610962573d6000803e3d6000fd5b505050506040513d601f19601f8201168201806040525081019061098691906129b8565b9250610992828561263b565b935050505b826001166001036109d1576109bf8d8a838f8f879080926109ba93929190612957565b610ce2565b97509750975097509750505050610b48565b6002838116811460208f015283901c60071660016008820290811b7fffffffffffffffffffffffffffffffffffffffffffffffffffffffffffffffff018e850135610100929092039190911c16838201909650925060009050610a3c6001600586901c81169061263b565b60016008820290811b7fffffffffffffffffffffffffffffffffffffffffffffffffffffffffffffffff018f860135610100929092039190911c1699509092019150610a878d610c1b565b9350610aa58d858e8e86908092610aa093929190612957565b610f2e565b600090815260208a815260408083208352888252808320835273ffffffffffffffffffffffffffffffffffffffff8d1690915290208251919850965015801590610af0575080518614155b8015610b00575080602001518511155b15610b44576040517fccbb534f0000000000000000000000000000000000000000000000000000000081528151600482015260208201516024820152604401610232565b5050505b9550955095509550959050565b60008115801590610b8657507fea7157fa25e3aa17d0ae2d5280fa4e24d421c61842aa85e45194e1145aa72bf85482145b92915050565b610c167fc852adf5e97c2fc3b38f405671e91b7af1697ef0287577f227ef10494c2a8e86847fffffffffffffffffffffffffffffffffffffffff000000000000000000000000606086901b166bffffffffffffffffffffffff8516176040805160208082019590955280820193909352805180840382018152606090930190528151919092012055565b505050565b600080610c2c836020015130611912565b90506000610c39846119df565b6040517f1901000000000000000000000000000000000000000000000000000000000000602082015260228101849052604281018290529091506062015b6040516020818303038152906040528051906020012092505050919050565b60008080610cc47fc852adf5e97c2fc3b38f405671e91b7af1697ef0287577f227ef10494c2a8e8685611c35565b606081901c956bffffffffffffffffffffffff909116945092505050565b6000806000806000610d44604051806101200160405280600060ff168152602001600015158152602001606081526020016000815260200160008152602001606081526020016000801916815260200160008019168152602001606081525090565b6002815260007fffffffffffffffffffffffffffffffffffffffffffffffffffffffffffffffff5b88821015610ebb5760038201916000908b013560e81c610d8c848261263b565b9150600090508a8214610da0576000610da2565b8d5b905060007fffffffffffffffffffffffffffffffffffffffffffffffffffffffffffffffff8414610dd35785610dd5565b8f5b9050610df5818e8e88908792610ded93929190612957565b600186610830565b50929d50909b50995097508a8a1015610e52578c8c86908592610e1a93929190612957565b8c8c6040517fb006aba00000000000000000000000000000000000000000000000000000000081526004016102329493929190612a09565b829450888e6000015103610e655760008e525b838810610ea8576040517f37daf62b0000000000000000000000000000000000000000000000000000000081526004810189905260248101859052604401610232565b505060c084018790529150849050610d6c565b8a5115801590610ecf57508a602001518511155b15610f13576040517fccbb534f0000000000000000000000000000000000000000000000000000000081528b51600482015260208c01516024820152604401610232565b610f1c8d610c1b565b93505050509550955095509550959050565b60008060005b8381101561190857600181019085013560f881901c9060fc1c8061105157600f82166000819003610f6c5750600183019287013560f81c5b60408051600080825260208281018085528d9052601b8c89019182013560ff81811c928301908116868801529235606086018190527f7fffffffffffffffffffffffffffffffffffffffffffffffffffffffffffffff82166080870181905296909a0199959094919390929160019060a0015b6020604051602081039080840390855afa158015611001573d6000803e3d6000fd5b5050506020604051035190508660ff168c019b506000611024828960ff16611c93565b90508b6110315780611040565b60008c81526020829052604090205b9b5050505050505050505050610f34565b600181036110b557600f821660008190036110735750600183019287013560f81c5b601484019388013560601c600061108d8260ff8516611c93565b90508661109a57806110a9565b60008781526020829052604090205b96505050505050610f34565b6002810361129c576003821660008190036110d75750600183019287013560f81c5b60008489013560601c60148601955090506003600285901c16600060016008830290811b7fffffffffffffffffffffffffffffffffffffffffffffffffffffffffffffffff018c890135610100929092039190911c168288018098508192505050600081880190506320c13b0b60e01b7bffffffffffffffffffffffffffffffffffffffffffffffffffffffff19168473ffffffffffffffffffffffffffffffffffffffff16631626ba7e8f8f8f8d90879261119593929190612957565b6040518463ffffffff1660e01b81526004016111b393929190612a30565b602060405180830381865afa1580156111d0573d6000803e3d6000fd5b505050506040513d601f19601f820116820180604052508101906111f49190612a4a565b7fffffffff000000000000000000000000000000000000000000000000000000001614611257578d8d858e8e6040517ff734863a000000000000000000000000000000000000000000000000000000008152600401610232959493929190612a8c565b8097508460ff168a0199506000611271858760ff16611c93565b90508961127e578061128d565b60008a81526020829052604090205b99505050505050505050610f34565b600381036112d0576020830192870135846112b757806112c6565b60008581526020829052604090205b9450505050610f34565b6004810361137657600f8216600060016008830290811b7fffffffffffffffffffffffffffffffffffffffffffffffffffffffffffffffff018a870135610100929092039190911c168583018096508192505050600081860190506000806113458e8e8e8e8c908892610aa093929190612957565b91509150829750818a019950611365898260009182526020526040902090565b985082975050505050505050610f34565b60068103611440576003600283901c16600081900361139c5750600183019287013560f81c5b6003831660008190036113b65750600284019388013560f01c5b6000858a013560e81c600387018162ffffff1691508097508192505050600081870190506000806113f48f8f8f8f8d908892610aa093929190612957565b9150915082985084821061140757998501995b6000611414828789611cfa565b90508a6114215780611430565b60008b81526020829052604090205b9a50505050505050505050610f34565b600581036114ad57602083019287013588810361147b577fffffffffffffffffffffffffffffffffffffffffffffffffffffffffffffffff95505b600061148682611d5e565b90508561149357806114a2565b60008681526020829052604090205b955050505050610f34565b600781036115b357600f821660008190036114cf5750600183019287013560f81c5b600080858a0135602087019650915089860135602087016040517f19457468657265756d205369676e6564204d6573736167653a0a3332000000006020820152603c81018e905290975090915060ff82901c907f7fffffffffffffffffffffffffffffffffffffffffffffffffffffffffffffff831690601b830190600090600190605c01604080517fffffffffffffffffffffffffffffffffffffffffffffffffffffffffffffffe08184030181528282528051602091820120600084529083018083525260ff851690820152606081018890526080810185905260a001610fdf565b6008810361160757602083019287013560006115cf8b82611db2565b90508082036115fc577fffffffffffffffffffffffffffffffffffffffffffffffffffffffffffffffff96505b600061108d82611e2d565b6009810361176d576003821660008190036116295750600183019287013560f81c5b60008489013560601c601486019550905060006003600286901c1660016008820290811b7fffffffffffffffffffffffffffffffffffffffffffffffffffffffffffffffff018c890135610100929092039190911c168188018098508193505050506000818701905060008373ffffffffffffffffffffffffffffffffffffffff166313792a4a8f8e8e8c9087926116c393929190612957565b6040518463ffffffff1660e01b81526004016116e193929190612927565b602060405180830381865afa1580156116fe573d6000803e3d6000fd5b505050506040513d601f19601f820116820180604052508101906117229190612ae0565b90508197508460ff168a019950600061173f858760ff1684611e68565b90508961174c578061175b565b60008a81526020829052604090205b99508298505050505050505050610f34565b600a81036118d35760038216600081900361178f5750600183019287013560f81c5b60008489013560601c60148601955090506003600285901c16600060016008830290811b7fffffffffffffffffffffffffffffffffffffffffffffffffffffffffffffffff018c890135610100929092039190911c1682880180985081925050506000818801905060008473ffffffffffffffffffffffffffffffffffffffff1663898bd9218f8f8f8d90879261182893929190612957565b6040518463ffffffff1660e01b815260040161184693929190612a30565b602060405180830381865afa158015611863573d6000803e3d6000fd5b505050506040513d601f19601f820116820180604052508101906118879190612ae0565b90508198508560ff168b019a5060006118a4868860ff1684611e68565b90508a6118b157806118c0565b60008b81526020829052604090205b9a50829950505050505050505050610f34565b6040517fb2505f7c00000000000000000000000000000000000000000000000000000000815260048101829052602401610232565b5094509492505050565b60007f8b73c3c69bb8fe3d512ecc4cf759cc79239f7b179b0ffacaa9a75d522b39400f7f4aa45ca7ad825ceb1bf35643f0a58c295239df563b1b565c2485f96477c563187f2a80e1ef1d7842f27f2e6be0972bb708b9a135c38860dbe73c27c3486c34f4de856119825746611985565b60005b6040805160208101959095528401929092526060830152608082015273ffffffffffffffffffffffffffffffffffffffff831660a082015260c0015b60405160208183030381529060405280519060200120905092915050565b6000806119f0836101000151611ed6565b835190915060ff16611a63576000611a0b8460400151611f59565b606080860151608080880151604080517f11e1e4079a79a66e4ade50033cfe2678cdd5341d2dfe5ef9513edb1a0be147a260208201529081018690529384019290925282015260a0810184905290915060c001610c77565b825160ff167fffffffffffffffffffffffffffffffffffffffffffffffffffffffffffffffff01611af35760a08301518051602091820120604080517fe19a3b94fc3c7ece3f890d98a99bc422615537a08dea0603fa8425867d87d46693810193909352820152606081018290526080015b60405160208183030381529060405280519060200120915050919050565b825160ff167ffffffffffffffffffffffffffffffffffffffffffffffffffffffffffffffffe01611b635760c0830151604080517f11fdeb7e8373a1aa96bfac8d0ea91526b2c5d15e5cee20e0543e780258f3e8e460208201529081019190915260608101829052608001611ad5565b825160ff167ffffffffffffffffffffffffffffffffffffffffffffffffffffffffffffffffd01611bd35760e0830151604080517fe19a3b94fc3c7ece3f890d98a99bc422615537a08dea0603fa8425867d87d46660208201529081019190915260608101829052608001611ad5565b6040517f08c379a000000000000000000000000000000000000000000000000000000000815260206004820152601060248201527f556e737570706f72746564206b696e64000000000000000000000000000000006044820152606401610232565b6000808383604051602001611c54929190918252602082015260400190565b604080517fffffffffffffffffffffffffffffffffffffffffffffffffffffffffffffffe0818403018152919052805160209091012054949350505050565b6040517f53657175656e6365207369676e65723a0a00000000000000000000000000000060208201527fffffffffffffffffffffffffffffffffffffffff000000000000000000000000606084901b166031820152604581018290526000906065016119c1565b6040517f53657175656e6365206e657374656420636f6e6669673a0a000000000000000060208201526038810184905260588101839052607881018290526000906098015b6040516020818303038152906040528051906020012090509392505050565b6040517f53657175656e636520737461746963206469676573743a0a00000000000000006020820152603881018290526000906058015b604051602081830303815290604052805190602001209050919050565b600080611dc3846020015184611912565b90506000611dd0856119df565b6040517f190100000000000000000000000000000000000000000000000000000000000060208201526022810184905260428101829052909150606201604051602081830303815290604052805190602001209250505092915050565b604080517f53657175656e636520616e792061646472657373207375626469676573743a0a6020820152908101829052600090606001611d95565b6040517f53657175656e63652073617069656e7420636f6e6669673a0a0000000000000060208201527fffffffffffffffffffffffffffffffffffffffff000000000000000000000000606085901b166039820152604d8101839052606d8101829052600090608d01611d3f565b6000606060005b8351811015611f4a5781848281518110611ef957611ef9612675565b6020026020010151604051602001611f12929190612af9565b604080517fffffffffffffffffffffffffffffffffffffffffffffffffffffffffffffffe08184030181529190529150600101611edd565b50805160209091012092915050565b6000606060005b8351811015611f4a576000611f8d858381518110611f8057611f80612675565b6020026020010151611fdb565b90508281604051602001611fa2929190612b31565b604080517fffffffffffffffffffffffffffffffffffffffffffffffffffffffffffffffe0818403018152919052925050600101611f60565b60007f0603985259a953da1f65a522f589c17bd1d0117ec1d3abb7c0788aef251ef43782600001518360200151846040015180519060200120856060015186608001518760a001518860c00151604051602001611d9598979695949392919097885273ffffffffffffffffffffffffffffffffffffffff969096166020880152604087019490945260608601929092526080850152151560a0840152151560c083015260e08201526101000190565b803573ffffffffffffffffffffffffffffffffffffffff811681146120ae57600080fd5b919050565b6000602082840312156120c557600080fd5b6103ab8261208a565b7f4e487b7100000000000000000000000000000000000000000000000000000000600052604160045260246000fd5b60405160e0810167ffffffffffffffff81118282101715612120576121206120ce565b60405290565b604051610120810167ffffffffffffffff81118282101715612120576121206120ce565b604051601f82017fffffffffffffffffffffffffffffffffffffffffffffffffffffffffffffffe016810167ffffffffffffffff81118282101715612191576121916120ce565b604052919050565b803560ff811681146120ae57600080fd5b803580151581146120ae57600080fd5b600067ffffffffffffffff8211156121d4576121d46120ce565b5060051b60200190565b600082601f8301126121ef57600080fd5b813567ffffffffffffffff811115612209576122096120ce565b61223a60207fffffffffffffffffffffffffffffffffffffffffffffffffffffffffffffffe0601f8401160161214a565b81815284602083860101111561224f57600080fd5b816020850160208301376000918101602001919091529392505050565b600082601f83011261227d57600080fd5b813561229061228b826121ba565b61214a565b8082825260208201915060208360051b8601019250858311156122b257600080fd5b602085015b8381101561239f57803567ffffffffffffffff8111156122d657600080fd5b860160e08189037fffffffffffffffffffffffffffffffffffffffffffffffffffffffffffffffe001121561230a57600080fd5b6123126120fd565b61231e6020830161208a565b815260408201356020820152606082013567ffffffffffffffff81111561234457600080fd5b6123538a6020838601016121de565b6040830152506080820135606082015261236f60a083016121aa565b608082015261238060c083016121aa565b60a082015260e0919091013560c08201528352602092830192016122b7565b5095945050505050565b600082601f8301126123ba57600080fd5b81356123c861228b826121ba565b8082825260208201915060208360051b8601019250858311156123ea57600080fd5b602085015b8381101561239f576124008161208a565b8352602092830192016123ef565b60008083601f84011261242057600080fd5b50813567ffffffffffffffff81111561243857600080fd5b60208301915083602082850101111561245057600080fd5b9250929050565b60008060006040848603121561246c57600080fd5b833567ffffffffffffffff81111561248357600080fd5b8401610120818703121561249657600080fd5b61249e612126565b6124a782612199565b81526124b5602083016121aa565b6020820152604082013567ffffffffffffffff8111156124d457600080fd5b6124e08882850161226c565b604083015250606082810135908201526080808301359082015260a082013567ffffffffffffffff81111561251457600080fd5b612520888285016121de565b60a08301525060c0828101359082015260e0808301359082015261010082013567ffffffffffffffff81111561255557600080fd5b612561888285016123a9565b61010083015250935050602084013567ffffffffffffffff81111561258557600080fd5b6125918682870161240e565b9497909650939450505050565b6000806000604084860312156125b357600080fd5b83359250602084013567ffffffffffffffff81111561258557600080fd5b6000602082840312156125e357600080fd5b5035919050565b6000806000606084860312156125ff57600080fd5b8335925061260f6020850161208a565b915060408401356bffffffffffffffffffffffff8116811461263057600080fd5b809150509250925092565b80820180821115610b86577f4e487b7100000000000000000000000000000000000000000000000000000000600052601160045260246000fd5b7f4e487b7100000000000000000000000000000000000000000000000000000000600052603260045260246000fd5b60005b838110156126bf5781810151838201526020016126a7565b50506000910152565b600081518084526126e08160208601602086016126a4565b601f017fffffffffffffffffffffffffffffffffffffffffffffffffffffffffffffffe0169290920160200192915050565b600082825180855260208501945060208160051b8301016020850160005b838110156127e2577fffffffffffffffffffffffffffffffffffffffffffffffffffffffffffffffe0858403018852815173ffffffffffffffffffffffffffffffffffffffff815116845260208101516020850152604081015160e0604086015261279e60e08601826126c8565b6060838101519087015260808084015115159087015260a08084015115159087015260c0928301519290950191909152506020978801979190910190600101612730565b50909695505050505050565b600081518084526020840193506020830160005b8281101561283657815173ffffffffffffffffffffffffffffffffffffffff16865260209586019590910190600101612802565b5093949350505050565b805160ff1682526000602082015161285c602085018215159052565b5060408201516101206040850152612878610120850182612712565b9050606083015160608501526080830151608085015260a083015184820360a08601526128a582826126c8565b91505060c083015160c085015260e083015160e08501526101008301518482036101008601526128d582826127ee565b95945050505050565b8183528181602085013750600060208284010152600060207fffffffffffffffffffffffffffffffffffffffffffffffffffffffffffffffe0601f840116840101905092915050565b60408152600061293a6040830186612840565b828103602084015261294d8185876128de565b9695505050505050565b6000808585111561296757600080fd5b8386111561297457600080fd5b5050820193919092039150565b73ffffffffffffffffffffffffffffffffffffffff831681526040602082015260006129b060408301846126c8565b949350505050565b600060408284031280156129cb57600080fd5b506040805190810167ffffffffffffffff811182821017156129ef576129ef6120ce565b604052825181526020928301519281019290925250919050565b606081526000612a1d6060830186886128de565b6020830194909452506040015292915050565b8381526040602082015260006128d56040830184866128de565b600060208284031215612a5c57600080fd5b81517fffffffff00000000000000000000000000000000000000000000000000000000811681146103ab57600080fd5b608081526000612a9f6080830188612840565b86602084015273ffffffffffffffffffffffffffffffffffffffff861660408401528281036060840152612ad48185876128de565b98975050505050505050565b600060208284031215612af257600080fd5b5051919050565b604081526000612b0c60408301856126c8565b905073ffffffffffffffffffffffffffffffffffffffff831660208301529392505050565b60008351612b438184602088016126a4565b919091019182525060200191905056fea26469706673582212204445df635a080c4992ceff50b3ac2f757b39f51c2d7a6eabe8ff0ee192e002f964736f6c634300081b0033",
  "linkReferences": {},
  "deployedLinkReferences": {}
}