{
  "_format": "hh-sol-artifact-1",
  "contractName": "Stage2Auth",
  "sourceName": "src/modules/auth/Stage2Auth.sol",
  "abi": [
    {
      "inputs": [],
      "name": "ImageHashIsZero",
      "type": "error"
    },
    {
      "inputs": [
        {
          "internalType": "bytes32",
          "name": "_opHash",
          "type": "bytes32"
        },
        {
          "internalType": "address",
          "name": "_signer",
          "type": "address"
        },
        {
          "internalType": "bytes",
          "name": "_signature",
          "type": "bytes"
        }
      ],
      "name": "InvalidERC1271Signature",
      "type": "error"
    },
    {
      "inputs": [
        {
          "internalType": "uint8",
          "name": "kind",
          "type": "uint8"
        }
      ],
      "name": "InvalidKind",
      "type": "error"
    },
    {
      "inputs": [
        {
          "components": [
            {
              "internalType": "uint8",
              "name": "kind",
              "type": "uint8"
            },
            {
              "internalType": "bool",
              "name": "noChainId",
              "type": "bool"
            },
            {
              "components": [
                {
                  "internalType": "address",
                  "name": "to",
                  "type": "address"
                },
                {
                  "internalType": "uint256",
                  "name": "value",
                  "type": "uint256"
                },
                {
                  "internalType": "bytes",
                  "name": "data",
                  "type": "bytes"
                },
                {
                  "internalType": "uint256",
                  "name": "gasLimit",
                  "type": "uint256"
                },
                {
                  "internalType": "bool",
                  "name": "delegateCall",
                  "type": "bool"
                },
                {
                  "internalType": "bool",
                  "name": "onlyFallback",
                  "type": "bool"
                },
                {
                  "internalType": "uint256",
                  "name": "behaviorOnError",
                  "type": "uint256"
                }
              ],
              "internalType": "struct Payload.Call[]",
              "name": "calls",
              "type": "tuple[]"
            },
            {
              "internalType": "uint256",
              "name": "space",
              "type": "uint256"
            },
            {
              "internalType": "uint256",
              "name": "nonce",
              "type": "uint256"
            },
            {
              "internalType": "bytes",
              "name": "message",
              "type": "bytes"
            },
            {
              "internalType": "bytes32",
              "name": "imageHash",
              "type": "bytes32"
            },
            {
              "internalType": "bytes32",
              "name": "digest",
              "type": "bytes32"
            },
            {
              "internalType": "address[]",
              "name": "parentWallets",
              "type": "address[]"
            }
          ],
          "internalType": "struct Payload.Decoded",
          "name": "_payload",
          "type": "tuple"
        },
        {
          "internalType": "bytes",
          "name": "_signature",
          "type": "bytes"
        }
      ],
      "name": "InvalidSapientSignature",
      "type": "error"
    },
    {
      "inputs": [
        {
          "internalType": "uint256",
          "name": "_flag",
          "type": "uint256"
        }
      ],
      "name": "InvalidSignatureFlag",
      "type": "error"
    },
    {
      "inputs": [
        {
          "internalType": "uint256",
          "name": "_threshold",
          "type": "uint256"
        },
        {
          "internalType": "uint256",
          "name": "_weight",
          "type": "uint256"
        }
      ],
      "name": "InvalidSignatureWeight",
      "type": "error"
    },
    {
      "inputs": [
        {
          "internalType": "bytes32",
          "name": "_opHash",
          "type": "bytes32"
        },
        {
          "internalType": "uint256",
          "name": "_expires",
          "type": "uint256"
        }
      ],
      "name": "InvalidStaticSignatureExpired",
      "type": "error"
    },
    {
      "inputs": [
        {
          "internalType": "bytes32",
          "name": "_opHash",
          "type": "bytes32"
        },
        {
          "internalType": "address",
          "name": "_caller",
          "type": "address"
        },
        {
          "internalType": "address",
          "name": "_expectedCaller",
          "type": "address"
        }
      ],
      "name": "InvalidStaticSignatureWrongCaller",
      "type": "error"
    },
    {
      "inputs": [
        {
          "internalType": "bytes",
          "name": "_signature",
          "type": "bytes"
        },
        {
          "internalType": "uint256",
          "name": "_threshold",
          "type": "uint256"
        },
        {
          "internalType": "uint256",
          "name": "_weight",
          "type": "uint256"
        }
      ],
      "name": "LowWeightChainedSignature",
      "type": "error"
    },
    {
      "inputs": [
        {
          "internalType": "address",
          "name": "_sender",
          "type": "address"
        }
      ],
      "name": "OnlySelf",
      "type": "error"
    },
    {
      "inputs": [
        {
          "components": [
            {
              "internalType": "bytes32",
              "name": "imageHash",
              "type": "bytes32"
            },
            {
              "internalType": "uint256",
              "name": "checkpoint",
              "type": "uint256"
            }
          ],
          "internalType": "struct Snapshot",
          "name": "_snapshot",
          "type": "tuple"
        }
      ],
      "name": "UnusedSnapshot",
      "type": "error"
    },
    {
      "inputs": [
        {
          "internalType": "uint256",
          "name": "_nextCheckpoint",
          "type": "uint256"
        },
        {
          "internalType": "uint256",
          "name": "_checkpoint",
          "type": "uint256"
        }
      ],
      "name": "WrongChainedCheckpointOrder",
      "type": "error"
    },
    {
      "anonymous": false,
      "inputs": [
        {
          "indexed": false,
          "internalType": "bytes32",
          "name": "newImageHash",
          "type": "bytes32"
        }
      ],
      "name": "ImageHashUpdated",
      "type": "event"
    },
    {
      "anonymous": false,
      "inputs": [
        {
          "indexed": false,
          "internalType": "address",
          "name": "newImplementation",
          "type": "address"
        }
      ],
      "name": "ImplementationUpdated",
      "type": "event"
    },
    {
      "anonymous": false,
      "inputs": [
        {
          "indexed": false,
          "internalType": "bytes32",
          "name": "_hash",
          "type": "bytes32"
        },
        {
          "indexed": false,
          "internalType": "address",
          "name": "_address",
          "type": "address"
        },
        {
          "indexed": false,
          "internalType": "uint96",
          "name": "_timestamp",
          "type": "uint96"
        }
      ],
      "name": "StaticSignatureSet",
      "type": "event"
    },
    {
      "inputs": [],
      "name": "getImplementation",
      "outputs": [
        {
          "internalType": "address",
          "name": "",
          "type": "address"
        }
      ],
      "stateMutability": "view",
      "type": "function"
    },
    {
      "inputs": [
        {
          "internalType": "bytes32",
          "name": "_hash",
          "type": "bytes32"
        }
      ],
      "name": "getStaticSignature",
      "outputs": [
        {
          "internalType": "address",
          "name": "",
          "type": "address"
        },
        {
          "internalType": "uint256",
          "name": "",
          "type": "uint256"
        }
      ],
      "stateMutability": "view",
      "type": "function"
    },
    {
      "inputs": [],
      "name": "imageHash",
      "outputs": [
        {
          "internalType": "bytes32",
          "name": "",
          "type": "bytes32"
        }
      ],
      "stateMutability": "view",
      "type": "function"
    },
    {
      "inputs": [
        {
          "internalType": "bytes32",
          "name": "_hash",
          "type": "bytes32"
        },
        {
          "internalType": "bytes",
          "name": "_signature",
          "type": "bytes"
        }
      ],
      "name": "isValidSignature",
      "outputs": [
        {
          "internalType": "bytes4",
          "name": "",
          "type": "bytes4"
        }
      ],
      "stateMutability": "view",
      "type": "function"
    },
    {
      "inputs": [
        {
          "components": [
            {
              "internalType": "uint8",
              "name": "kind",
              "type": "uint8"
            },
            {
              "internalType": "bool",
              "name": "noChainId",
              "type": "bool"
            },
            {
              "components": [
                {
                  "internalType": "address",
                  "name": "to",
                  "type": "address"
                },
                {
                  "internalType": "uint256",
                  "name": "value",
                  "type": "uint256"
                },
                {
                  "internalType": "bytes",
                  "name": "data",
                  "type": "bytes"
                },
                {
                  "internalType": "uint256",
                  "name": "gasLimit",
                  "type": "uint256"
                },
                {
                  "internalType": "bool",
                  "name": "delegateCall",
                  "type": "bool"
                },
                {
                  "internalType": "bool",
                  "name": "onlyFallback",
                  "type": "bool"
                },
                {
                  "internalType": "uint256",
                  "name": "behaviorOnError",
                  "type": "uint256"
                }
              ],
              "internalType": "struct Payload.Call[]",
              "name": "calls",
              "type": "tuple[]"
            },
            {
              "internalType": "uint256",
              "name": "space",
              "type": "uint256"
            },
            {
              "internalType": "uint256",
              "name": "nonce",
              "type": "uint256"
            },
            {
              "internalType": "bytes",
              "name": "message",
              "type": "bytes"
            },
            {
              "internalType": "bytes32",
              "name": "imageHash",
              "type": "bytes32"
            },
            {
              "internalType": "bytes32",
              "name": "digest",
              "type": "bytes32"
            },
            {
              "internalType": "address[]",
              "name": "parentWallets",
              "type": "address[]"
            }
          ],
          "internalType": "struct Payload.Decoded",
          "name": "_payload",
          "type": "tuple"
        },
        {
          "internalType": "bytes",
          "name": "_signature",
          "type": "bytes"
        }
      ],
      "name": "recoverPartialSignature",
      "outputs": [
        {
          "internalType": "uint256",
          "name": "threshold",
          "type": "uint256"
        },
        {
          "internalType": "uint256",
          "name": "weight",
          "type": "uint256"
        },
        {
          "internalType": "bool",
          "name": "isValidImage",
          "type": "bool"
        },
        {
          "internalType": "bytes32",
          "name": "imageHash",
          "type": "bytes32"
        },
        {
          "internalType": "uint256",
          "name": "checkpoint",
          "type": "uint256"
        },
        {
          "internalType": "bytes32",
          "name": "opHash",
          "type": "bytes32"
        }
      ],
      "stateMutability": "view",
      "type": "function"
    },
    {
      "inputs": [
        {
          "components": [
            {
              "internalType": "uint8",
              "name": "kind",
              "type": "uint8"
            },
            {
              "internalType": "bool",
              "name": "noChainId",
              "type": "bool"
            },
            {
              "components": [
                {
                  "internalType": "address",
                  "name": "to",
                  "type": "address"
                },
                {
                  "internalType": "uint256",
                  "name": "value",
                  "type": "uint256"
                },
                {
                  "internalType": "bytes",
                  "name": "data",
                  "type": "bytes"
                },
                {
                  "internalType": "uint256",
                  "name": "gasLimit",
                  "type": "uint256"
                },
                {
                  "internalType": "bool",
                  "name": "delegateCall",
                  "type": "bool"
                },
                {
                  "internalType": "bool",
                  "name": "onlyFallback",
                  "type": "bool"
                },
                {
                  "internalType": "uint256",
                  "name": "behaviorOnError",
                  "type": "uint256"
                }
              ],
              "internalType": "struct Payload.Call[]",
              "name": "calls",
              "type": "tuple[]"
            },
            {
              "internalType": "uint256",
              "name": "space",
              "type": "uint256"
            },
            {
              "internalType": "uint256",
              "name": "nonce",
              "type": "uint256"
            },
            {
              "internalType": "bytes",
              "name": "message",
              "type": "bytes"
            },
            {
              "internalType": "bytes32",
              "name": "imageHash",
              "type": "bytes32"
            },
            {
              "internalType": "bytes32",
              "name": "digest",
              "type": "bytes32"
            },
            {
              "internalType": "address[]",
              "name": "parentWallets",
              "type": "address[]"
            }
          ],
          "internalType": "struct Payload.Decoded",
          "name": "_payload",
          "type": "tuple"
        },
        {
          "internalType": "bytes",
          "name": "_signature",
          "type": "bytes"
        }
      ],
      "name": "recoverSapientSignature",
      "outputs": [
        {
          "internalType": "bytes32",
          "name": "",
          "type": "bytes32"
        }
      ],
      "stateMutability": "view",
      "type": "function"
    },
    {
      "inputs": [
        {
          "internalType": "bytes32",
          "name": "_hash",
          "type": "bytes32"
        },
        {
          "internalType": "address",
          "name": "_address",
          "type": "address"
        },
        {
          "internalType": "uint96",
          "name": "_timestamp",
          "type": "uint96"
        }
      ],
      "name": "setStaticSignature",
      "outputs": [],
      "stateMutability": "nonpayable",
      "type": "function"
    },
    {
      "inputs": [
        {
          "internalType": "bytes32",
          "name": "_imageHash",
          "type": "bytes32"
        }
      ],
      "name": "updateImageHash",
      "outputs": [],
      "stateMutability": "nonpayable",
      "type": "function"
    },
    {
      "inputs": [
        {
          "internalType": "address",
          "name": "_implementation",
          "type": "address"
        }
      ],
      "name": "updateImplementation",
      "outputs": [],
      "stateMutability": "payable",
      "type": "function"
    }
  ],
  "bytecode": "0x6080604052348015600f57600080fd5b50612bfb8061001f6000396000f3fe6080604052600436106100965760003560e01c806351605d8011610069578063aaf10f421161004e578063aaf10f42146101b5578063ad55366b146101ef578063f727ef1c1461024257600080fd5b806351605d801461015457806392dcb3fc1461016957600080fd5b8063025b22bc1461009b57806313792a4a146100b05780631626ba7e146100e35780632956142614610134575b600080fd5b6100ae6100a936600461212f565b610262565b005b3480156100bc57600080fd5b506100d06100cb3660046124d3565b6102ae565b6040519081526020015b60405180910390f35b3480156100ef57600080fd5b506101036100fe36600461261a565b610419565b6040517fffffffff0000000000000000000000000000000000000000000000000000000090911681526020016100da565b34801561014057600080fd5b506100ae61014f36600461264d565b6104af565b34801561016057600080fd5b506100d06104f3565b34801561017557600080fd5b5061018961018436600461264d565b610522565b6040805173ffffffffffffffffffffffffffffffffffffffff90931683526020830191909152016100da565b3480156101c157600080fd5b506101ca610537565b60405173ffffffffffffffffffffffffffffffffffffffff90911681526020016100da565b3480156101fb57600080fd5b5061020f61020a3660046124d3565b610541565b604080519687526020870195909552921515938501939093526060840152608083019190915260a082015260c0016100da565b34801561024e57600080fd5b506100ae61025d366004612666565b61057b565b3330146102a2576040517fa19dbf000000000000000000000000000000000000000000000000000000000081523360048201526024015b60405180910390fd5b6102ab81610636565b50565b6000808461010001515160016102c491906126b7565b67ffffffffffffffff8111156102dc576102dc61214a565b604051908082528060200260200182016040528015610305578160200160208202803683370190505b50905060005b85610100015151811015610377578561010001518181518110610330576103306126f1565b602002602001015182828151811061034a5761034a6126f1565b73ffffffffffffffffffffffffffffffffffffffff9092166020928302919091019091015260010161030b565b5033818661010001515181518110610391576103916126f1565b73ffffffffffffffffffffffffffffffffffffffff90921660209283029190910190910152610100850181905260006103cb86868661068b565b5090508061040b578585856040517ff58cc8b5000000000000000000000000000000000000000000000000000000008152600401610299939291906129a3565b5060019150505b9392505050565b604080516101208101825260006020820181905260609282018390528282018190526080820181905260a0820183905260c082018190526101008201929092526003815260e081018590528161047082868661068b565b509050806104845750600091506104129050565b507f20c13b0b0000000000000000000000000000000000000000000000000000000095945050505050565b3330146104ea576040517fa19dbf00000000000000000000000000000000000000000000000000000000008152336004820152602401610299565b6102ab81610872565b600061051d7fea7157fa25e3aa17d0ae2d5280fa4e24d421c61842aa85e45194e1145aa72bf85490565b905090565b60008061052e83610902565b91509150915091565b600061051d305490565b60008060008060008061055889898960008061094e565b93995091975094509250905061056d83610c73565b935093975093979195509350565b3330146105b6576040517fa19dbf00000000000000000000000000000000000000000000000000000000008152336004820152602401610299565b6105cf8383836bffffffffffffffffffffffff16610caa565b6040805184815273ffffffffffffffffffffffffffffffffffffffff841660208201526bffffffffffffffffffffffff83168183015290517febf265acfac1c01de588ed7ef49743b9c3ce8d6d1edeaf510a1f5453228515b19181900360600190a1505050565b61063e813055565b60405173ffffffffffffffffffffffffffffffffffffffff821681527f310ba5f1d2ed074b51e2eccd052a47ae9ab7c6b800d1fca3db3999d6a592ca03906020015b60405180910390a150565b6000806000848460008181106106a3576106a36126f1565b7fff000000000000000000000000000000000000000000000000000000000000009201359182169250507f800000000000000000000000000000000000000000000000000000000000000090811690036107f85761070086610d39565b915060008061070e84610902565b91509150428111610755576040517ff95b6ab70000000000000000000000000000000000000000000000000000000081526004810185905260248101829052604401610299565b73ffffffffffffffffffffffffffffffffffffffff821615801590610790575073ffffffffffffffffffffffffffffffffffffffff82163314155b156107ec576040517f8945c3130000000000000000000000000000000000000000000000000000000081526004810185905233602482015273ffffffffffffffffffffffffffffffffffffffff83166044820152606401610299565b6001945050505061086a565b600080600061080b89898960008061094e565b98509295509093509150508282101561085a576040517ffd41fcba0000000000000000000000000000000000000000000000000000000081526004810184905260248101839052604401610299565b61086381610c73565b9550505050505b935093915050565b806108a9576040517f4294d12700000000000000000000000000000000000000000000000000000000815260040160405180910390fd5b6108d27fea7157fa25e3aa17d0ae2d5280fa4e24d421c61842aa85e45194e1145aa72bf8829055565b6040518181527f307ed6bd941ee9fc80f369c94af5fa11e25bab5102a6140191756c5474a30bfa90602001610680565b600080806109307fc852adf5e97c2fc3b38f405671e91b7af1697ef0287577f227ef10494c2a8e8685610db4565b606081901c956bffffffffffffffffffffffff909116945092505050565b6040805180820182526000808252602082018190529182918291829182918a3560f81c91600191808416148015610999575073ffffffffffffffffffffffffffffffffffffffff8916155b15610ab5578b82013560601c985060149091019089610ab55760038201918c013560e81c60008d848e6109cc85836126b7565b926109d9939291906129d3565b8080601f016020809104026020016040519081016040528093929190818152602001838380828437600092019190915250506040517fccce3bc80000000000000000000000000000000000000000000000000000000081529293505073ffffffffffffffffffffffffffffffffffffffff8d169163ccce3bc89150610a6490309085906004016129fd565b6040805180830381865afa158015610a80573d6000803e3d6000fd5b505050506040513d601f19601f82011682018060405250810190610aa49190612a34565b9250610ab082856126b7565b935050505b82600116600103610aef57610add8d8a838f8f87908092610ad8939291906129d3565b610e12565b97509750975097509750505050610c66565b6002838116811460208f015283901c60071660016008820290811b7fffffffffffffffffffffffffffffffffffffffffffffffffffffffffffffffff018e850135610100929092039190911c16838201909650925060009050610b5a6001600586901c8116906126b7565b60016008820290811b7fffffffffffffffffffffffffffffffffffffffffffffffffffffffffffffffff018f860135610100929092039190911c1699509092019150610ba58d610d39565b9350610bc38d858e8e86908092610bbe939291906129d3565b611058565b600090815260208a815260408083208352888252808320835273ffffffffffffffffffffffffffffffffffffffff8d1690915290208251919850965015801590610c0e575080518614155b8015610c1e575080602001518511155b15610c62576040517fccbb534f0000000000000000000000000000000000000000000000000000000081528151600482015260208201516024820152604401610299565b5050505b9550955095509550959050565b60008115801590610ca457507fea7157fa25e3aa17d0ae2d5280fa4e24d421c61842aa85e45194e1145aa72bf85482145b92915050565b610d347fc852adf5e97c2fc3b38f405671e91b7af1697ef0287577f227ef10494c2a8e86847fffffffffffffffffffffffffffffffffffffffff000000000000000000000000606086901b166bffffffffffffffffffffffff8516176040805160208082019590955280820193909352805180840382018152606090930190528151919092012055565b505050565b600080610d4a836020015130611a4a565b90506000610d5784611b17565b6040517f1901000000000000000000000000000000000000000000000000000000000000602082015260228101849052604281018290529091506062015b6040516020818303038152906040528051906020012092505050919050565b6000808383604051602001610dd3929190918252602082015260400190565b604080517fffffffffffffffffffffffffffffffffffffffffffffffffffffffffffffffe0818403018152919052805160209091012054949350505050565b6000806000806000610e74604051806101200160405280600060ff168152602001600015158152602001606081526020016000815260200160008152602001606081526020016000801916815260200160008019168152602001606081525090565b6002815260007fffffffffffffffffffffffffffffffffffffffffffffffffffffffffffffffff5b888210156110005760038201916000908b013560e81c610ebc84826126b7565b9150600090508a8214610ed0576000610ed2565b8d5b90507fffffffffffffffffffffffffffffffffffffffffffffffffffffffffffffffff8303610f2a57610f198f8d8d87908692610f11939291906129d3565b60018561094e565b939d50919b50995097509550610f4c565b610f40858d8d87908692610f11939291906129d3565b50929c50909a50985096505b89891015610f9857610f6082858d8f6129d3565b8b8b6040517fb006aba00000000000000000000000000000000000000000000000000000000081526004016102999493929190612a85565b819350878d6000015103610fab5760008d525b828710610fee576040517f37daf62b0000000000000000000000000000000000000000000000000000000081526004810188905260248101849052604401610299565b5060c084018790529150849050610e9c565b8a511580159061101457508a602001518511155b15610c62576040517fccbb534f0000000000000000000000000000000000000000000000000000000081528b51600482015260208c01516024820152604401610299565b60008060005b83811015611a4057600181019085013560f881901c9060fc1c8061117b57600f821660008190036110965750600183019287013560f81c5b60408051600080825260208281018085528d9052601b8c89019182013560ff81811c928301908116868801529235606086018190527f7fffffffffffffffffffffffffffffffffffffffffffffffffffffffffffffff82166080870181905296909a0199959094919390929160019060a0015b6020604051602081039080840390855afa15801561112b573d6000803e3d6000fd5b5050506020604051035190508660ff168c019b50600061114e828960ff16611d83565b90508b61115b578061116a565b60008c81526020829052604090205b9b505050505050505050505061105e565b600181036111df57600f8216600081900361119d5750600183019287013560f81c5b601484019388013560601c60006111b78260ff8516611d83565b9050866111c457806111d3565b60008781526020829052604090205b9650505050505061105e565b600281036113d4576003821660008190036112015750600183019287013560f81c5b60008489013560601c60148601955090506003600285901c16600060016008830290811b7fffffffffffffffffffffffffffffffffffffffffffffffffffffffffffffffff018c890135610100929092039190911c168288018098508192505050600081880190506320c13b0b60e01b7bffffffffffffffffffffffffffffffffffffffffffffffffffffffff19168473ffffffffffffffffffffffffffffffffffffffff16631626ba7e8f8f8f8d9087926112bf939291906129d3565b6040518463ffffffff1660e01b81526004016112dd93929190612aac565b602060405180830381865afa1580156112fa573d6000803e3d6000fd5b505050506040513d601f19601f8201168201806040525081019061131e9190612ac6565b7fffffffff00000000000000000000000000000000000000000000000000000000161461138f578c848d8d8b908592611359939291906129d3565b6040517fb2fed7ae0000000000000000000000000000000000000000000000000000000081526004016102999493929190612b08565b8097508460ff168a01995060006113a9858760ff16611d83565b9050896113b657806113c5565b60008a81526020829052604090205b9950505050505050505061105e565b60038103611408576020830192870135846113ef57806113fe565b60008581526020829052604090205b945050505061105e565b600481036114ae57600f8216600060016008830290811b7fffffffffffffffffffffffffffffffffffffffffffffffffffffffffffffffff018a870135610100929092039190911c1685830180965081925050506000818601905060008061147d8e8e8e8e8c908892610bbe939291906129d3565b91509150829750818a01995061149d898260009182526020526040902090565b98508297505050505050505061105e565b60068103611578576003600283901c1660008190036114d45750600183019287013560f81c5b6003831660008190036114ee5750600284019388013560f01c5b6000858a013560e81c600387018162ffffff16915080975081925050506000818701905060008061152c8f8f8f8f8d908892610bbe939291906129d3565b9150915082985084821061153f57998501995b600061154c828789611dea565b90508a6115595780611568565b60008b81526020829052604090205b9a5050505050505050505061105e565b600581036115e55760208301928701358881036115b3577fffffffffffffffffffffffffffffffffffffffffffffffffffffffffffffffff95505b60006115be82611e4e565b9050856115cb57806115da565b60008681526020829052604090205b95505050505061105e565b600781036116eb57600f821660008190036116075750600183019287013560f81c5b600080858a0135602087019650915089860135602087016040517f19457468657265756d205369676e6564204d6573736167653a0a3332000000006020820152603c81018e905290975090915060ff82901c907f7fffffffffffffffffffffffffffffffffffffffffffffffffffffffffffffff831690601b830190600090600190605c01604080517fffffffffffffffffffffffffffffffffffffffffffffffffffffffffffffffe08184030181528282528051602091820120600084529083018083525260ff851690820152606081018890526080810185905260a001611109565b6008810361173f57602083019287013560006117078b82611ea2565b9050808203611734577fffffffffffffffffffffffffffffffffffffffffffffffffffffffffffffffff96505b60006111b782611f1d565b600981036118a5576003821660008190036117615750600183019287013560f81c5b60008489013560601c601486019550905060006003600286901c1660016008820290811b7fffffffffffffffffffffffffffffffffffffffffffffffffffffffffffffffff018c890135610100929092039190911c168188018098508193505050506000818701905060008373ffffffffffffffffffffffffffffffffffffffff166313792a4a8f8e8e8c9087926117fb939291906129d3565b6040518463ffffffff1660e01b8152600401611819939291906129a3565b602060405180830381865afa158015611836573d6000803e3d6000fd5b505050506040513d601f19601f8201168201806040525081019061185a9190612b3e565b90508197508460ff168a0199506000611877858760ff1684611f58565b9050896118845780611893565b60008a81526020829052604090205b9950829850505050505050505061105e565b600a8103611a0b576003821660008190036118c75750600183019287013560f81c5b60008489013560601c60148601955090506003600285901c16600060016008830290811b7fffffffffffffffffffffffffffffffffffffffffffffffffffffffffffffffff018c890135610100929092039190911c1682880180985081925050506000818801905060008473ffffffffffffffffffffffffffffffffffffffff1663898bd9218f8f8f8d908792611960939291906129d3565b6040518463ffffffff1660e01b815260040161197e93929190612aac565b602060405180830381865afa15801561199b573d6000803e3d6000fd5b505050506040513d601f19601f820116820180604052508101906119bf9190612b3e565b90508198508560ff168b019a5060006119dc868860ff1684611f58565b90508a6119e957806119f8565b60008b81526020829052604090205b9a5082995050505050505050505061105e565b6040517fb2505f7c00000000000000000000000000000000000000000000000000000000815260048101829052602401610299565b5094509492505050565b60007f8b73c3c69bb8fe3d512ecc4cf759cc79239f7b179b0ffacaa9a75d522b39400f7f4aa45ca7ad825ceb1bf35643f0a58c295239df563b1b565c2485f96477c563187f2a80e1ef1d7842f27f2e6be0972bb708b9a135c38860dbe73c27c3486c34f4de85611aba5746611abd565b60005b6040805160208101959095528401929092526060830152608082015273ffffffffffffffffffffffffffffffffffffffff831660a082015260c0015b60405160208183030381529060405280519060200120905092915050565b600080826101000151604051602001611b309190612b57565b604080517fffffffffffffffffffffffffffffffffffffffffffffffffffffffffffffffe08184030181529190528051602090910120835190915060ff16611bd9576000611b818460400151611fc6565b606080860151608080880151604080517f11e1e4079a79a66e4ade50033cfe2678cdd5341d2dfe5ef9513edb1a0be147a260208201529081018690529384019290925282015260a0810184905290915060c001610d95565b825160ff167fffffffffffffffffffffffffffffffffffffffffffffffffffffffffffffffff01611c695760a08301518051602091820120604080517fe19a3b94fc3c7ece3f890d98a99bc422615537a08dea0603fa8425867d87d46693810193909352820152606081018290526080015b60405160208183030381529060405280519060200120915050919050565b825160ff167ffffffffffffffffffffffffffffffffffffffffffffffffffffffffffffffffe01611cd95760c0830151604080517f11fdeb7e8373a1aa96bfac8d0ea91526b2c5d15e5cee20e0543e780258f3e8e460208201529081019190915260608101829052608001611c4b565b825160ff167ffffffffffffffffffffffffffffffffffffffffffffffffffffffffffffffffd01611d495760e0830151604080517fe19a3b94fc3c7ece3f890d98a99bc422615537a08dea0603fa8425867d87d46660208201529081019190915260608101829052608001611c4b565b82516040517f0481832000000000000000000000000000000000000000000000000000000000815260ff9091166004820152602401610299565b6040517f53657175656e6365207369676e65723a0a00000000000000000000000000000060208201527fffffffffffffffffffffffffffffffffffffffff000000000000000000000000606084901b16603182015260458101829052600090606501611af9565b6040517f53657175656e6365206e657374656420636f6e6669673a0a000000000000000060208201526038810184905260588101839052607881018290526000906098015b6040516020818303038152906040528051906020012090509392505050565b6040517f53657175656e636520737461746963206469676573743a0a00000000000000006020820152603881018290526000906058015b604051602081830303815290604052805190602001209050919050565b600080611eb3846020015184611a4a565b90506000611ec085611b17565b6040517f190100000000000000000000000000000000000000000000000000000000000060208201526022810184905260428101829052909150606201604051602081830303815290604052805190602001209250505092915050565b604080517f53657175656e636520616e792061646472657373207375626469676573743a0a6020820152908101829052600090606001611e85565b6040517f53657175656e63652073617069656e7420636f6e6669673a0a0000000000000060208201527fffffffffffffffffffffffffffffffffffffffff000000000000000000000000606085901b166039820152604d8101839052606d8101829052600090608d01611e2f565b6000606060005b8351811015612048576000611ffa858381518110611fed57611fed6126f1565b6020026020010151612057565b9050828160405160200161200f929190612ba3565b604080517fffffffffffffffffffffffffffffffffffffffffffffffffffffffffffffffe0818403018152919052925050600101611fcd565b50805160209091012092915050565b60007f0603985259a953da1f65a522f589c17bd1d0117ec1d3abb7c0788aef251ef43782600001518360200151846040015180519060200120856060015186608001518760a001518860c00151604051602001611e8598979695949392919097885273ffffffffffffffffffffffffffffffffffffffff969096166020880152604087019490945260608601929092526080850152151560a0840152151560c083015260e08201526101000190565b803573ffffffffffffffffffffffffffffffffffffffff8116811461212a57600080fd5b919050565b60006020828403121561214157600080fd5b61041282612106565b7f4e487b7100000000000000000000000000000000000000000000000000000000600052604160045260246000fd5b60405160e0810167ffffffffffffffff8111828210171561219c5761219c61214a565b60405290565b604051610120810167ffffffffffffffff8111828210171561219c5761219c61214a565b604051601f82017fffffffffffffffffffffffffffffffffffffffffffffffffffffffffffffffe016810167ffffffffffffffff8111828210171561220d5761220d61214a565b604052919050565b803560ff8116811461212a57600080fd5b8035801515811461212a57600080fd5b600067ffffffffffffffff8211156122505761225061214a565b5060051b60200190565b600082601f83011261226b57600080fd5b813567ffffffffffffffff8111156122855761228561214a565b6122b660207fffffffffffffffffffffffffffffffffffffffffffffffffffffffffffffffe0601f840116016121c6565b8181528460208386010111156122cb57600080fd5b816020850160208301376000918101602001919091529392505050565b600082601f8301126122f957600080fd5b813561230c61230782612236565b6121c6565b8082825260208201915060208360051b86010192508583111561232e57600080fd5b602085015b8381101561241b57803567ffffffffffffffff81111561235257600080fd5b860160e08189037fffffffffffffffffffffffffffffffffffffffffffffffffffffffffffffffe001121561238657600080fd5b61238e612179565b61239a60208301612106565b815260408201356020820152606082013567ffffffffffffffff8111156123c057600080fd5b6123cf8a60208386010161225a565b604083015250608082013560608201526123eb60a08301612226565b60808201526123fc60c08301612226565b60a082015260e0919091013560c0820152835260209283019201612333565b5095945050505050565b600082601f83011261243657600080fd5b813561244461230782612236565b8082825260208201915060208360051b86010192508583111561246657600080fd5b602085015b8381101561241b5761247c81612106565b83526020928301920161246b565b60008083601f84011261249c57600080fd5b50813567ffffffffffffffff8111156124b457600080fd5b6020830191508360208285010111156124cc57600080fd5b9250929050565b6000806000604084860312156124e857600080fd5b833567ffffffffffffffff8111156124ff57600080fd5b8401610120818703121561251257600080fd5b61251a6121a2565b61252382612215565b815261253160208301612226565b6020820152604082013567ffffffffffffffff81111561255057600080fd5b61255c888285016122e8565b604083015250606082810135908201526080808301359082015260a082013567ffffffffffffffff81111561259057600080fd5b61259c8882850161225a565b60a08301525060c0828101359082015260e0808301359082015261010082013567ffffffffffffffff8111156125d157600080fd5b6125dd88828501612425565b61010083015250935050602084013567ffffffffffffffff81111561260157600080fd5b61260d8682870161248a565b9497909650939450505050565b60008060006040848603121561262f57600080fd5b83359250602084013567ffffffffffffffff81111561260157600080fd5b60006020828403121561265f57600080fd5b5035919050565b60008060006060848603121561267b57600080fd5b8335925061268b60208501612106565b915060408401356bffffffffffffffffffffffff811681146126ac57600080fd5b809150509250925092565b80820180821115610ca4577f4e487b7100000000000000000000000000000000000000000000000000000000600052601160045260246000fd5b7f4e487b7100000000000000000000000000000000000000000000000000000000600052603260045260246000fd5b60005b8381101561273b578181015183820152602001612723565b50506000910152565b6000815180845261275c816020860160208601612720565b601f017fffffffffffffffffffffffffffffffffffffffffffffffffffffffffffffffe0169290920160200192915050565b600082825180855260208501945060208160051b8301016020850160005b8381101561285e577fffffffffffffffffffffffffffffffffffffffffffffffffffffffffffffffe0858403018852815173ffffffffffffffffffffffffffffffffffffffff815116845260208101516020850152604081015160e0604086015261281a60e0860182612744565b6060838101519087015260808084015115159087015260a08084015115159087015260c09283015192909501919091525060209788019791909101906001016127ac565b50909695505050505050565b600081518084526020840193506020830160005b828110156128b257815173ffffffffffffffffffffffffffffffffffffffff1686526020958601959091019060010161287e565b5093949350505050565b805160ff168252600060208201516128d8602085018215159052565b50604082015161012060408501526128f461012085018261278e565b9050606083015160608501526080830151608085015260a083015184820360a08601526129218282612744565b91505060c083015160c085015260e083015160e0850152610100830151848203610100860152612951828261286a565b95945050505050565b8183528181602085013750600060208284010152600060207fffffffffffffffffffffffffffffffffffffffffffffffffffffffffffffffe0601f840116840101905092915050565b6040815260006129b660408301866128bc565b82810360208401526129c981858761295a565b9695505050505050565b600080858511156129e357600080fd5b838611156129f057600080fd5b5050820193919092039150565b73ffffffffffffffffffffffffffffffffffffffff83168152604060208201526000612a2c6040830184612744565b949350505050565b60006040828403128015612a4757600080fd5b506040805190810167ffffffffffffffff81118282101715612a6b57612a6b61214a565b604052825181526020928301519281019290925250919050565b606081526000612a9960608301868861295a565b6020830194909452506040015292915050565b83815260406020820152600061295160408301848661295a565b600060208284031215612ad857600080fd5b81517fffffffff000000000000000000000000000000000000000000000000000000008116811461041257600080fd5b84815273ffffffffffffffffffffffffffffffffffffffff841660208201526060604082015260006129c960608301848661295a565b600060208284031215612b5057600080fd5b5051919050565b8151600090829060208501835b82811015612b9857815173ffffffffffffffffffffffffffffffffffffffff16845260209384019390910190600101612b64565b509195945050505050565b60008351612bb5818460208801612720565b919091019182525060200191905056fea2646970667358221220d1b9b3f5a823c9be659b634de7552322377f9aa9476af42e00cbc02d2f2b61eb64736f6c634300081b0033",
  "linkReferences": {},
  "deployedLinkReferences": {}
}