{
  "_format": "hh-sol-artifact-1",
  "contractName": "Stage2Auth",
  "sourceName": "src/modules/auth/Stage2Auth.sol",
  "abi": [
    {
      "inputs": [],
      "name": "ImageHashIsZero",
      "type": "error"
    },
    {
      "inputs": [
        {
          "components": [
            {
              "internalType": "uint8",
              "name": "kind",
              "type": "uint8"
            },
            {
              "internalType": "bool",
              "name": "noChainId",
              "type": "bool"
            },
            {
              "components": [
                {
                  "internalType": "address",
                  "name": "to",
                  "type": "address"
                },
                {
                  "internalType": "uint256",
                  "name": "value",
                  "type": "uint256"
                },
                {
                  "internalType": "bytes",
                  "name": "data",
                  "type": "bytes"
                },
                {
                  "internalType": "uint256",
                  "name": "gasLimit",
                  "type": "uint256"
                },
                {
                  "internalType": "bool",
                  "name": "delegateCall",
                  "type": "bool"
                },
                {
                  "internalType": "bool",
                  "name": "onlyFallback",
                  "type": "bool"
                },
                {
                  "internalType": "uint256",
                  "name": "behaviorOnError",
                  "type": "uint256"
                }
              ],
              "internalType": "struct Payload.Call[]",
              "name": "calls",
              "type": "tuple[]"
            },
            {
              "internalType": "uint256",
              "name": "space",
              "type": "uint256"
            },
            {
              "internalType": "uint256",
              "name": "nonce",
              "type": "uint256"
            },
            {
              "internalType": "bytes",
              "name": "message",
              "type": "bytes"
            },
            {
              "internalType": "bytes32",
              "name": "imageHash",
              "type": "bytes32"
            },
            {
              "internalType": "bytes32",
              "name": "digest",
              "type": "bytes32"
            },
            {
              "internalType": "address[]",
              "name": "parentWallets",
              "type": "address[]"
            }
          ],
          "internalType": "struct Payload.Decoded",
          "name": "_payload",
          "type": "tuple"
        },
        {
          "internalType": "bytes32",
          "name": "_subdigest",
          "type": "bytes32"
        },
        {
          "internalType": "address",
          "name": "_signer",
          "type": "address"
        },
        {
          "internalType": "bytes",
          "name": "_signature",
          "type": "bytes"
        }
      ],
      "name": "InvalidNestedSignature",
      "type": "error"
    },
    {
      "inputs": [
        {
          "components": [
            {
              "internalType": "uint8",
              "name": "kind",
              "type": "uint8"
            },
            {
              "internalType": "bool",
              "name": "noChainId",
              "type": "bool"
            },
            {
              "components": [
                {
                  "internalType": "address",
                  "name": "to",
                  "type": "address"
                },
                {
                  "internalType": "uint256",
                  "name": "value",
                  "type": "uint256"
                },
                {
                  "internalType": "bytes",
                  "name": "data",
                  "type": "bytes"
                },
                {
                  "internalType": "uint256",
                  "name": "gasLimit",
                  "type": "uint256"
                },
                {
                  "internalType": "bool",
                  "name": "delegateCall",
                  "type": "bool"
                },
                {
                  "internalType": "bool",
                  "name": "onlyFallback",
                  "type": "bool"
                },
                {
                  "internalType": "uint256",
                  "name": "behaviorOnError",
                  "type": "uint256"
                }
              ],
              "internalType": "struct Payload.Call[]",
              "name": "calls",
              "type": "tuple[]"
            },
            {
              "internalType": "uint256",
              "name": "space",
              "type": "uint256"
            },
            {
              "internalType": "uint256",
              "name": "nonce",
              "type": "uint256"
            },
            {
              "internalType": "bytes",
              "name": "message",
              "type": "bytes"
            },
            {
              "internalType": "bytes32",
              "name": "imageHash",
              "type": "bytes32"
            },
            {
              "internalType": "bytes32",
              "name": "digest",
              "type": "bytes32"
            },
            {
              "internalType": "address[]",
              "name": "parentWallets",
              "type": "address[]"
            }
          ],
          "internalType": "struct Payload.Decoded",
          "name": "_payload",
          "type": "tuple"
        },
        {
          "internalType": "bytes",
          "name": "_signature",
          "type": "bytes"
        }
      ],
      "name": "InvalidSapientSignature",
      "type": "error"
    },
    {
      "inputs": [
        {
          "internalType": "uint256",
          "name": "_flag",
          "type": "uint256"
        }
      ],
      "name": "InvalidSignatureFlag",
      "type": "error"
    },
    {
      "inputs": [
        {
          "internalType": "bytes32",
          "name": "_opHash",
          "type": "bytes32"
        },
        {
          "internalType": "uint256",
          "name": "_expires",
          "type": "uint256"
        }
      ],
      "name": "InvalidStaticSignature",
      "type": "error"
    },
    {
      "inputs": [
        {
          "internalType": "bytes",
          "name": "_signature",
          "type": "bytes"
        },
        {
          "internalType": "uint256",
          "name": "_threshold",
          "type": "uint256"
        },
        {
          "internalType": "uint256",
          "name": "_weight",
          "type": "uint256"
        }
      ],
      "name": "LowWeightChainedSignature",
      "type": "error"
    },
    {
      "inputs": [
        {
          "internalType": "address",
          "name": "_sender",
          "type": "address"
        }
      ],
      "name": "OnlySelf",
      "type": "error"
    },
    {
      "inputs": [
        {
          "components": [
            {
              "internalType": "bytes32",
              "name": "imageHash",
              "type": "bytes32"
            },
            {
              "internalType": "uint256",
              "name": "checkpoint",
              "type": "uint256"
            }
          ],
          "internalType": "struct Snapshot",
          "name": "_snapshot",
          "type": "tuple"
        }
      ],
      "name": "UnusedSnapshot",
      "type": "error"
    },
    {
      "inputs": [
        {
          "internalType": "uint256",
          "name": "_nextCheckpoint",
          "type": "uint256"
        },
        {
          "internalType": "uint256",
          "name": "_checkpoint",
          "type": "uint256"
        }
      ],
      "name": "WrongChainedCheckpointOrder",
      "type": "error"
    },
    {
      "anonymous": false,
      "inputs": [
        {
          "indexed": false,
          "internalType": "bytes32",
          "name": "newImageHash",
          "type": "bytes32"
        }
      ],
      "name": "ImageHashUpdated",
      "type": "event"
    },
    {
      "anonymous": false,
      "inputs": [
        {
          "indexed": false,
          "internalType": "address",
          "name": "newImplementation",
          "type": "address"
        }
      ],
      "name": "ImplementationUpdated",
      "type": "event"
    },
    {
      "anonymous": false,
      "inputs": [
        {
          "indexed": false,
          "internalType": "bytes32",
          "name": "_hash",
          "type": "bytes32"
        },
        {
          "indexed": false,
          "internalType": "address",
          "name": "_address",
          "type": "address"
        },
        {
          "indexed": false,
          "internalType": "uint96",
          "name": "_timestamp",
          "type": "uint96"
        }
      ],
      "name": "StaticSignatureSet",
      "type": "event"
    },
    {
      "inputs": [],
      "name": "getImplementation",
      "outputs": [
        {
          "internalType": "address",
          "name": "",
          "type": "address"
        }
      ],
      "stateMutability": "view",
      "type": "function"
    },
    {
      "inputs": [],
      "name": "imageHash",
      "outputs": [
        {
          "internalType": "bytes32",
          "name": "",
          "type": "bytes32"
        }
      ],
      "stateMutability": "view",
      "type": "function"
    },
    {
      "inputs": [
        {
          "components": [
            {
              "internalType": "uint8",
              "name": "kind",
              "type": "uint8"
            },
            {
              "internalType": "bool",
              "name": "noChainId",
              "type": "bool"
            },
            {
              "components": [
                {
                  "internalType": "address",
                  "name": "to",
                  "type": "address"
                },
                {
                  "internalType": "uint256",
                  "name": "value",
                  "type": "uint256"
                },
                {
                  "internalType": "bytes",
                  "name": "data",
                  "type": "bytes"
                },
                {
                  "internalType": "uint256",
                  "name": "gasLimit",
                  "type": "uint256"
                },
                {
                  "internalType": "bool",
                  "name": "delegateCall",
                  "type": "bool"
                },
                {
                  "internalType": "bool",
                  "name": "onlyFallback",
                  "type": "bool"
                },
                {
                  "internalType": "uint256",
                  "name": "behaviorOnError",
                  "type": "uint256"
                }
              ],
              "internalType": "struct Payload.Call[]",
              "name": "calls",
              "type": "tuple[]"
            },
            {
              "internalType": "uint256",
              "name": "space",
              "type": "uint256"
            },
            {
              "internalType": "uint256",
              "name": "nonce",
              "type": "uint256"
            },
            {
              "internalType": "bytes",
              "name": "message",
              "type": "bytes"
            },
            {
              "internalType": "bytes32",
              "name": "imageHash",
              "type": "bytes32"
            },
            {
              "internalType": "bytes32",
              "name": "digest",
              "type": "bytes32"
            },
            {
              "internalType": "address[]",
              "name": "parentWallets",
              "type": "address[]"
            }
          ],
          "internalType": "struct Payload.Decoded",
          "name": "_payload",
          "type": "tuple"
        },
        {
          "internalType": "bytes",
          "name": "_signature",
          "type": "bytes"
        }
      ],
      "name": "isValidSapientSignature",
      "outputs": [
        {
          "internalType": "bytes32",
          "name": "",
          "type": "bytes32"
        }
      ],
      "stateMutability": "view",
      "type": "function"
    },
    {
      "inputs": [
        {
          "internalType": "bytes32",
          "name": "_hash",
          "type": "bytes32"
        },
        {
          "internalType": "bytes",
          "name": "_signature",
          "type": "bytes"
        }
      ],
      "name": "isValidSignature",
      "outputs": [
        {
          "internalType": "bytes4",
          "name": "",
          "type": "bytes4"
        }
      ],
      "stateMutability": "view",
      "type": "function"
    },
    {
      "inputs": [
        {
          "components": [
            {
              "internalType": "uint8",
              "name": "kind",
              "type": "uint8"
            },
            {
              "internalType": "bool",
              "name": "noChainId",
              "type": "bool"
            },
            {
              "components": [
                {
                  "internalType": "address",
                  "name": "to",
                  "type": "address"
                },
                {
                  "internalType": "uint256",
                  "name": "value",
                  "type": "uint256"
                },
                {
                  "internalType": "bytes",
                  "name": "data",
                  "type": "bytes"
                },
                {
                  "internalType": "uint256",
                  "name": "gasLimit",
                  "type": "uint256"
                },
                {
                  "internalType": "bool",
                  "name": "delegateCall",
                  "type": "bool"
                },
                {
                  "internalType": "bool",
                  "name": "onlyFallback",
                  "type": "bool"
                },
                {
                  "internalType": "uint256",
                  "name": "behaviorOnError",
                  "type": "uint256"
                }
              ],
              "internalType": "struct Payload.Call[]",
              "name": "calls",
              "type": "tuple[]"
            },
            {
              "internalType": "uint256",
              "name": "space",
              "type": "uint256"
            },
            {
              "internalType": "uint256",
              "name": "nonce",
              "type": "uint256"
            },
            {
              "internalType": "bytes",
              "name": "message",
              "type": "bytes"
            },
            {
              "internalType": "bytes32",
              "name": "imageHash",
              "type": "bytes32"
            },
            {
              "internalType": "bytes32",
              "name": "digest",
              "type": "bytes32"
            },
            {
              "internalType": "address[]",
              "name": "parentWallets",
              "type": "address[]"
            }
          ],
          "internalType": "struct Payload.Decoded",
          "name": "_payload",
          "type": "tuple"
        },
        {
          "internalType": "bytes",
          "name": "_signature",
          "type": "bytes"
        }
      ],
      "name": "recoverPartialSignature",
      "outputs": [
        {
          "internalType": "uint256",
          "name": "threshold",
          "type": "uint256"
        },
        {
          "internalType": "uint256",
          "name": "weight",
          "type": "uint256"
        },
        {
          "internalType": "bool",
          "name": "isValidImage",
          "type": "bool"
        },
        {
          "internalType": "bytes32",
          "name": "imageHash",
          "type": "bytes32"
        },
        {
          "internalType": "uint256",
          "name": "checkpoint",
          "type": "uint256"
        },
        {
          "internalType": "bytes32",
          "name": "opHash",
          "type": "bytes32"
        }
      ],
      "stateMutability": "view",
      "type": "function"
    },
    {
      "inputs": [
        {
          "internalType": "bytes32",
          "name": "_hash",
          "type": "bytes32"
        },
        {
          "internalType": "address",
          "name": "_address",
          "type": "address"
        },
        {
          "internalType": "uint96",
          "name": "_timestamp",
          "type": "uint96"
        }
      ],
      "name": "setStaticSignature",
      "outputs": [],
      "stateMutability": "nonpayable",
      "type": "function"
    },
    {
      "inputs": [
        {
          "internalType": "bytes32",
          "name": "_imageHash",
          "type": "bytes32"
        }
      ],
      "name": "updateImageHash",
      "outputs": [],
      "stateMutability": "nonpayable",
      "type": "function"
    },
    {
      "inputs": [
        {
          "internalType": "address",
          "name": "_implementation",
          "type": "address"
        }
      ],
      "name": "updateImplementation",
      "outputs": [],
      "stateMutability": "payable",
      "type": "function"
    }
  ],
  "bytecode": "0x6080604052348015600f57600080fd5b50612b468061001f6000396000f3fe60806040526004361061007b5760003560e01c8063aaf10f421161004e578063aaf10f421461012e578063ad55366b14610168578063ca707850146101bb578063f727ef1c146101db57600080fd5b8063025b22bc146100805780631626ba7e1461009557806329561426146100eb57806351605d801461010b575b600080fd5b61009361008e366004612070565b6101fb565b005b3480156100a157600080fd5b506100b56100b03660046120d4565b610247565b6040517fffffffff0000000000000000000000000000000000000000000000000000000090911681526020015b60405180910390f35b3480156100f757600080fd5b50610093610106366004612120565b6102df565b34801561011757600080fd5b50610120610323565b6040519081526020016100e2565b34801561013a57600080fd5b50610143610352565b60405173ffffffffffffffffffffffffffffffffffffffff90911681526020016100e2565b34801561017457600080fd5b50610188610183366004612479565b61035c565b604080519687526020870195909552921515938501939093526060840152608083019190915260a082015260c0016100e2565b3480156101c757600080fd5b506101206101d6366004612479565b610396565b3480156101e757600080fd5b506100936101f63660046125a7565b6104ff565b33301461023b576040517fa19dbf000000000000000000000000000000000000000000000000000000000081523360048201526024015b60405180910390fd5b610244816105ba565b50565b604080516101208101825260006020820181905260609282018390528282018190526080820181905260a0820183905260c082018190526101008201929092526003815260e081018590528161029e82868661060f565b509050806102b25750600091506102d89050565b507f20c13b0b000000000000000000000000000000000000000000000000000000009150505b9392505050565b33301461031a576040517fa19dbf00000000000000000000000000000000000000000000000000000000008152336004820152602401610232565b6102448161075d565b600061034d7fea7157fa25e3aa17d0ae2d5280fa4e24d421c61842aa85e45194e1145aa72bf85490565b905090565b600061034d305490565b6000806000806000806103738989896000806107ed565b93995091975094509250905061038883610b12565b935093975093979195509350565b6000808461010001515160016103ac91906125f8565b67ffffffffffffffff8111156103c4576103c4612139565b6040519080825280602002602001820160405280156103ed578160200160208202803683370190505b50905060005b8561010001515181101561045f57856101000151818151811061041857610418612632565b602002602001015182828151811061043257610432612632565b73ffffffffffffffffffffffffffffffffffffffff909216602092830291909101909101526001016103f3565b503381866101000151518151811061047957610479612632565b73ffffffffffffffffffffffffffffffffffffffff90921660209283029190910190910152610100850181905260006104b386868661060f565b509050806104f3578585856040517ff58cc8b5000000000000000000000000000000000000000000000000000000008152600401610232939291906128e4565b50600195945050505050565b33301461053a576040517fa19dbf00000000000000000000000000000000000000000000000000000000008152336004820152602401610232565b6105538383836bffffffffffffffffffffffff16610b49565b6040805184815273ffffffffffffffffffffffffffffffffffffffff841660208201526bffffffffffffffffffffffff83168183015290517febf265acfac1c01de588ed7ef49743b9c3ce8d6d1edeaf510a1f5453228515b19181900360600190a1505050565b6105c2813055565b60405173ffffffffffffffffffffffffffffffffffffffff821681527f310ba5f1d2ed074b51e2eccd052a47ae9ab7c6b800d1fca3db3999d6a592ca03906020015b60405180910390a150565b60008060008484600081811061062757610627612632565b7fff000000000000000000000000000000000000000000000000000000000000009201359182169250507f800000000000000000000000000000000000000000000000000000000000000090811690036107265761068486610bd8565b915060008061069284610c53565b91509150428110156106da576040517f9fa4fe540000000000000000000000000000000000000000000000000000000081526004810185905260248101829052604401610232565b73ffffffffffffffffffffffffffffffffffffffff82161580610712575073ffffffffffffffffffffffffffffffffffffffff821633145b156107235760019450505050610755565b50505b60008060006107398989896000806107ed565b9850929550909350915061074e905081610b12565b9550505050505b935093915050565b80610794576040517f4294d12700000000000000000000000000000000000000000000000000000000815260040160405180910390fd5b6107bd7fea7157fa25e3aa17d0ae2d5280fa4e24d421c61842aa85e45194e1145aa72bf8829055565b6040518181527f307ed6bd941ee9fc80f369c94af5fa11e25bab5102a6140191756c5474a30bfa90602001610604565b6040805180820182526000808252602082018190529182918291829182918a3560f81c91600191808416148015610838575073ffffffffffffffffffffffffffffffffffffffff8916155b15610954578b82013560601c9850601490910190896109545760038201918c013560e81c60008d848e61086b85836125f8565b9261087893929190612914565b8080601f016020809104026020016040519081016040528093929190818152602001838380828437600092019190915250506040517fccce3bc80000000000000000000000000000000000000000000000000000000081529293505073ffffffffffffffffffffffffffffffffffffffff8d169163ccce3bc89150610903903090859060040161293e565b6040805180830381865afa15801561091f573d6000803e3d6000fd5b505050506040513d601f19601f820116820180604052508101906109439190612975565b925061094f82856125f8565b935050505b8260011660010361098e5761097c8d8a838f8f8790809261097793929190612914565b610c9f565b97509750975097509750505050610b05565b6002838116811460208f015283901c60071660016008820290811b7fffffffffffffffffffffffffffffffffffffffffffffffffffffffffffffffff018e850135610100929092039190911c168382019096509250600090506109f96001600586901c8116906125f8565b60016008820290811b7fffffffffffffffffffffffffffffffffffffffffffffffffffffffffffffffff018f860135610100929092039190911c1699509092019150610a448d610bd8565b9350610a628d858e8e86908092610a5d93929190612914565b610eeb565b600090815260208a815260408083208352888252808320835273ffffffffffffffffffffffffffffffffffffffff8d1690915290208251919850965015801590610aad575080518614155b8015610abd575080602001518511155b15610b01576040517fccbb534f0000000000000000000000000000000000000000000000000000000081528151600482015260208201516024820152604401610232565b5050505b9550955095509550959050565b60008115801590610b4357507fea7157fa25e3aa17d0ae2d5280fa4e24d421c61842aa85e45194e1145aa72bf85482145b92915050565b610bd37fc852adf5e97c2fc3b38f405671e91b7af1697ef0287577f227ef10494c2a8e86847fffffffffffffffffffffffffffffffffffffffff000000000000000000000000606086901b166bffffffffffffffffffffffff8516176040805160208082019590955280820193909352805180840382018152606090930190528151919092012055565b505050565b600080610be98360200151306118cf565b90506000610bf68461199c565b6040517f1901000000000000000000000000000000000000000000000000000000000000602082015260228101849052604281018290529091506062015b6040516020818303038152906040528051906020012092505050919050565b60008080610c817fc852adf5e97c2fc3b38f405671e91b7af1697ef0287577f227ef10494c2a8e8685611bf2565b606081901c956bffffffffffffffffffffffff909116945092505050565b6000806000806000610d01604051806101200160405280600060ff168152602001600015158152602001606081526020016000815260200160008152602001606081526020016000801916815260200160008019168152602001606081525090565b6002815260007fffffffffffffffffffffffffffffffffffffffffffffffffffffffffffffffff5b88821015610e785760038201916000908b013560e81c610d4984826125f8565b9150600090508a8214610d5d576000610d5f565b8d5b905060007fffffffffffffffffffffffffffffffffffffffffffffffffffffffffffffffff8414610d905785610d92565b8f5b9050610db2818e8e88908792610daa93929190612914565b6001866107ed565b50929d50909b50995097508a8a1015610e0f578c8c86908592610dd793929190612914565b8c8c6040517fb006aba000000000000000000000000000000000000000000000000000000000815260040161023294939291906129c6565b829450888e6000015103610e225760008e525b838810610e65576040517f37daf62b0000000000000000000000000000000000000000000000000000000081526004810189905260248101859052604401610232565b505060c084018790529150849050610d29565b8a5115801590610e8c57508a602001518511155b15610ed0576040517fccbb534f0000000000000000000000000000000000000000000000000000000081528b51600482015260208c01516024820152604401610232565b610ed98d610bd8565b93505050509550955095509550959050565b60008060005b838110156118c557600181019085013560f881901c9060fc1c8061100e57600f82166000819003610f295750600183019287013560f81c5b60408051600080825260208281018085528d9052601b8c89019182013560ff81811c928301908116868801529235606086018190527f7fffffffffffffffffffffffffffffffffffffffffffffffffffffffffffffff82166080870181905296909a0199959094919390929160019060a0015b6020604051602081039080840390855afa158015610fbe573d6000803e3d6000fd5b5050506020604051035190508660ff168c019b506000610fe1828960ff16611c50565b90508b610fee5780610ffd565b60008c81526020829052604090205b9b5050505050505050505050610ef1565b6001810361107257600f821660008190036110305750600183019287013560f81c5b601484019388013560601c600061104a8260ff8516611c50565b9050866110575780611066565b60008781526020829052604090205b96505050505050610ef1565b60028103611259576003821660008190036110945750600183019287013560f81c5b60008489013560601c60148601955090506003600285901c16600060016008830290811b7fffffffffffffffffffffffffffffffffffffffffffffffffffffffffffffffff018c890135610100929092039190911c168288018098508192505050600081880190506320c13b0b60e01b7bffffffffffffffffffffffffffffffffffffffffffffffffffffffff19168473ffffffffffffffffffffffffffffffffffffffff16631626ba7e8f8f8f8d90879261115293929190612914565b6040518463ffffffff1660e01b8152600401611170939291906129ed565b602060405180830381865afa15801561118d573d6000803e3d6000fd5b505050506040513d601f19601f820116820180604052508101906111b19190612a07565b7fffffffff000000000000000000000000000000000000000000000000000000001614611214578d8d858e8e6040517ff734863a000000000000000000000000000000000000000000000000000000008152600401610232959493929190612a49565b8097508460ff168a019950600061122e858760ff16611c50565b90508961123b578061124a565b60008a81526020829052604090205b99505050505050505050610ef1565b6003810361128d576020830192870135846112745780611283565b60008581526020829052604090205b9450505050610ef1565b6004810361133357600f8216600060016008830290811b7fffffffffffffffffffffffffffffffffffffffffffffffffffffffffffffffff018a870135610100929092039190911c168583018096508192505050600081860190506000806113028e8e8e8e8c908892610a5d93929190612914565b91509150829750818a019950611322898260009182526020526040902090565b985082975050505050505050610ef1565b600681036113fd576003600283901c1660008190036113595750600183019287013560f81c5b6003831660008190036113735750600284019388013560f01c5b6000858a013560e81c600387018162ffffff1691508097508192505050600081870190506000806113b18f8f8f8f8d908892610a5d93929190612914565b915091508298508482106113c457998501995b60006113d1828789611cb7565b90508a6113de57806113ed565b60008b81526020829052604090205b9a50505050505050505050610ef1565b6005810361146a576020830192870135888103611438577fffffffffffffffffffffffffffffffffffffffffffffffffffffffffffffffff95505b600061144382611d1b565b905085611450578061145f565b60008681526020829052604090205b955050505050610ef1565b6007810361157057600f8216600081900361148c5750600183019287013560f81c5b600080858a0135602087019650915089860135602087016040517f19457468657265756d205369676e6564204d6573736167653a0a3332000000006020820152603c81018e905290975090915060ff82901c907f7fffffffffffffffffffffffffffffffffffffffffffffffffffffffffffffff831690601b830190600090600190605c01604080517fffffffffffffffffffffffffffffffffffffffffffffffffffffffffffffffe08184030181528282528051602091820120600084529083018083525260ff851690820152606081018890526080810185905260a001610f9c565b600881036115c4576020830192870135600061158c8b82611d6f565b90508082036115b9577fffffffffffffffffffffffffffffffffffffffffffffffffffffffffffffffff96505b600061104a82611dea565b6009810361172a576003821660008190036115e65750600183019287013560f81c5b60008489013560601c601486019550905060006003600286901c1660016008820290811b7fffffffffffffffffffffffffffffffffffffffffffffffffffffffffffffffff018c890135610100929092039190911c168188018098508193505050506000818701905060008373ffffffffffffffffffffffffffffffffffffffff1663ca7078508f8e8e8c90879261168093929190612914565b6040518463ffffffff1660e01b815260040161169e939291906128e4565b602060405180830381865afa1580156116bb573d6000803e3d6000fd5b505050506040513d601f19601f820116820180604052508101906116df9190612a9d565b90508197508460ff168a01995060006116fc858760ff1684611e25565b9050896117095780611718565b60008a81526020829052604090205b99508298505050505050505050610ef1565b600a81036118905760038216600081900361174c5750600183019287013560f81c5b60008489013560601c60148601955090506003600285901c16600060016008830290811b7fffffffffffffffffffffffffffffffffffffffffffffffffffffffffffffffff018c890135610100929092039190911c1682880180985081925050506000818801905060008473ffffffffffffffffffffffffffffffffffffffff1663957d2b238f8f8f8d9087926117e593929190612914565b6040518463ffffffff1660e01b8152600401611803939291906129ed565b602060405180830381865afa158015611820573d6000803e3d6000fd5b505050506040513d601f19601f820116820180604052508101906118449190612a9d565b90508198508560ff168b019a506000611861868860ff1684611e25565b90508a61186e578061187d565b60008b81526020829052604090205b9a50829950505050505050505050610ef1565b6040517fb2505f7c00000000000000000000000000000000000000000000000000000000815260048101829052602401610232565b5094509492505050565b60007f8b73c3c69bb8fe3d512ecc4cf759cc79239f7b179b0ffacaa9a75d522b39400f7f4aa45ca7ad825ceb1bf35643f0a58c295239df563b1b565c2485f96477c563187f2a80e1ef1d7842f27f2e6be0972bb708b9a135c38860dbe73c27c3486c34f4de8561193f5746611942565b60005b6040805160208101959095528401929092526060830152608082015273ffffffffffffffffffffffffffffffffffffffff831660a082015260c0015b60405160208183030381529060405280519060200120905092915050565b6000806119ad836101000151611e93565b835190915060ff16611a205760006119c88460400151611f16565b606080860151608080880151604080517f11e1e4079a79a66e4ade50033cfe2678cdd5341d2dfe5ef9513edb1a0be147a260208201529081018690529384019290925282015260a0810184905290915060c001610c34565b825160ff167fffffffffffffffffffffffffffffffffffffffffffffffffffffffffffffffff01611ab05760a08301518051602091820120604080517fe19a3b94fc3c7ece3f890d98a99bc422615537a08dea0603fa8425867d87d46693810193909352820152606081018290526080015b60405160208183030381529060405280519060200120915050919050565b825160ff167ffffffffffffffffffffffffffffffffffffffffffffffffffffffffffffffffe01611b205760c0830151604080517f11fdeb7e8373a1aa96bfac8d0ea91526b2c5d15e5cee20e0543e780258f3e8e460208201529081019190915260608101829052608001611a92565b825160ff167ffffffffffffffffffffffffffffffffffffffffffffffffffffffffffffffffd01611b905760e0830151604080517f402e923b91e918306019e73f589362164a6a059499a504699c66feabbb3e262460208201529081019190915260608101829052608001611a92565b6040517f08c379a000000000000000000000000000000000000000000000000000000000815260206004820152601060248201527f556e737570706f72746564206b696e64000000000000000000000000000000006044820152606401610232565b6000808383604051602001611c11929190918252602082015260400190565b604080517fffffffffffffffffffffffffffffffffffffffffffffffffffffffffffffffe0818403018152919052805160209091012054949350505050565b6040517f53657175656e6365207369676e65723a0a00000000000000000000000000000060208201527fffffffffffffffffffffffffffffffffffffffff000000000000000000000000606084901b1660318201526045810182905260009060650161197e565b6040517f53657175656e6365206e657374656420636f6e6669673a0a000000000000000060208201526038810184905260588101839052607881018290526000906098015b6040516020818303038152906040528051906020012090509392505050565b6040517f53657175656e636520737461746963206469676573743a0a00000000000000006020820152603881018290526000906058015b604051602081830303815290604052805190602001209050919050565b600080611d808460200151846118cf565b90506000611d8d8561199c565b6040517f190100000000000000000000000000000000000000000000000000000000000060208201526022810184905260428101829052909150606201604051602081830303815290604052805190602001209250505092915050565b604080517f53657175656e636520616e792061646472657373207375626469676573743a0a6020820152908101829052600090606001611d52565b6040517f53657175656e63652073617069656e7420636f6e6669673a0a0000000000000060208201527fffffffffffffffffffffffffffffffffffffffff000000000000000000000000606085901b166039820152604d8101839052606d8101829052600090608d01611cfc565b6000606060005b8351811015611f075781848281518110611eb657611eb6612632565b6020026020010151604051602001611ecf929190612ab6565b604080517fffffffffffffffffffffffffffffffffffffffffffffffffffffffffffffffe08184030181529190529150600101611e9a565b50805160209091012092915050565b6000606060005b8351811015611f07576000611f4a858381518110611f3d57611f3d612632565b6020026020010151611f98565b90508281604051602001611f5f929190612aee565b604080517fffffffffffffffffffffffffffffffffffffffffffffffffffffffffffffffe0818403018152919052925050600101611f1d565b60007f0603985259a953da1f65a522f589c17bd1d0117ec1d3abb7c0788aef251ef43782600001518360200151846040015180519060200120856060015186608001518760a001518860c00151604051602001611d5298979695949392919097885273ffffffffffffffffffffffffffffffffffffffff969096166020880152604087019490945260608601929092526080850152151560a0840152151560c083015260e08201526101000190565b803573ffffffffffffffffffffffffffffffffffffffff8116811461206b57600080fd5b919050565b60006020828403121561208257600080fd5b6102d882612047565b60008083601f84011261209d57600080fd5b50813567ffffffffffffffff8111156120b557600080fd5b6020830191508360208285010111156120cd57600080fd5b9250929050565b6000806000604084860312156120e957600080fd5b83359250602084013567ffffffffffffffff81111561210757600080fd5b6121138682870161208b565b9497909650939450505050565b60006020828403121561213257600080fd5b5035919050565b7f4e487b7100000000000000000000000000000000000000000000000000000000600052604160045260246000fd5b60405160e0810167ffffffffffffffff8111828210171561218b5761218b612139565b60405290565b604051610120810167ffffffffffffffff8111828210171561218b5761218b612139565b604051601f82017fffffffffffffffffffffffffffffffffffffffffffffffffffffffffffffffe016810167ffffffffffffffff811182821017156121fc576121fc612139565b604052919050565b803560ff8116811461206b57600080fd5b8035801515811461206b57600080fd5b600067ffffffffffffffff82111561223f5761223f612139565b5060051b60200190565b600082601f83011261225a57600080fd5b813567ffffffffffffffff81111561227457612274612139565b6122a560207fffffffffffffffffffffffffffffffffffffffffffffffffffffffffffffffe0601f840116016121b5565b8181528460208386010111156122ba57600080fd5b816020850160208301376000918101602001919091529392505050565b600082601f8301126122e857600080fd5b81356122fb6122f682612225565b6121b5565b8082825260208201915060208360051b86010192508583111561231d57600080fd5b602085015b8381101561240a57803567ffffffffffffffff81111561234157600080fd5b860160e08189037fffffffffffffffffffffffffffffffffffffffffffffffffffffffffffffffe001121561237557600080fd5b61237d612168565b61238960208301612047565b815260408201356020820152606082013567ffffffffffffffff8111156123af57600080fd5b6123be8a602083860101612249565b604083015250608082013560608201526123da60a08301612215565b60808201526123eb60c08301612215565b60a082015260e0919091013560c0820152835260209283019201612322565b5095945050505050565b600082601f83011261242557600080fd5b81356124336122f682612225565b8082825260208201915060208360051b86010192508583111561245557600080fd5b602085015b8381101561240a5761246b81612047565b83526020928301920161245a565b60008060006040848603121561248e57600080fd5b833567ffffffffffffffff8111156124a557600080fd5b840161012081870312156124b857600080fd5b6124c0612191565b6124c982612204565b81526124d760208301612215565b6020820152604082013567ffffffffffffffff8111156124f657600080fd5b612502888285016122d7565b604083015250606082810135908201526080808301359082015260a082013567ffffffffffffffff81111561253657600080fd5b61254288828501612249565b60a08301525060c0828101359082015260e0808301359082015261010082013567ffffffffffffffff81111561257757600080fd5b61258388828501612414565b61010083015250935050602084013567ffffffffffffffff81111561210757600080fd5b6000806000606084860312156125bc57600080fd5b833592506125cc60208501612047565b915060408401356bffffffffffffffffffffffff811681146125ed57600080fd5b809150509250925092565b80820180821115610b43577f4e487b7100000000000000000000000000000000000000000000000000000000600052601160045260246000fd5b7f4e487b7100000000000000000000000000000000000000000000000000000000600052603260045260246000fd5b60005b8381101561267c578181015183820152602001612664565b50506000910152565b6000815180845261269d816020860160208601612661565b601f017fffffffffffffffffffffffffffffffffffffffffffffffffffffffffffffffe0169290920160200192915050565b600082825180855260208501945060208160051b8301016020850160005b8381101561279f577fffffffffffffffffffffffffffffffffffffffffffffffffffffffffffffffe0858403018852815173ffffffffffffffffffffffffffffffffffffffff815116845260208101516020850152604081015160e0604086015261275b60e0860182612685565b6060838101519087015260808084015115159087015260a08084015115159087015260c09283015192909501919091525060209788019791909101906001016126ed565b50909695505050505050565b600081518084526020840193506020830160005b828110156127f357815173ffffffffffffffffffffffffffffffffffffffff168652602095860195909101906001016127bf565b5093949350505050565b805160ff16825260006020820151612819602085018215159052565b50604082015161012060408501526128356101208501826126cf565b9050606083015160608501526080830151608085015260a083015184820360a08601526128628282612685565b91505060c083015160c085015260e083015160e085015261010083015184820361010086015261289282826127ab565b95945050505050565b8183528181602085013750600060208284010152600060207fffffffffffffffffffffffffffffffffffffffffffffffffffffffffffffffe0601f840116840101905092915050565b6040815260006128f760408301866127fd565b828103602084015261290a81858761289b565b9695505050505050565b6000808585111561292457600080fd5b8386111561293157600080fd5b5050820193919092039150565b73ffffffffffffffffffffffffffffffffffffffff8316815260406020820152600061296d6040830184612685565b949350505050565b6000604082840312801561298857600080fd5b506040805190810167ffffffffffffffff811182821017156129ac576129ac612139565b604052825181526020928301519281019290925250919050565b6060815260006129da60608301868861289b565b6020830194909452506040015292915050565b83815260406020820152600061289260408301848661289b565b600060208284031215612a1957600080fd5b81517fffffffff00000000000000000000000000000000000000000000000000000000811681146102d857600080fd5b608081526000612a5c60808301886127fd565b86602084015273ffffffffffffffffffffffffffffffffffffffff861660408401528281036060840152612a9181858761289b565b98975050505050505050565b600060208284031215612aaf57600080fd5b5051919050565b604081526000612ac96040830185612685565b905073ffffffffffffffffffffffffffffffffffffffff831660208301529392505050565b60008351612b00818460208801612661565b919091019182525060200191905056fea2646970667358221220d5167ac42f9ef912e086bfb8bd1d2bf0ec647a222e5695ab24657e6c28c9b18e64736f6c634300081b0033",
  "linkReferences": {},
  "deployedLinkReferences": {}
}