{"abi":[{"type":"function","name":"forwardValue","inputs":[{"name":"to","type":"address","internalType":"address"},{"name":"value","type":"uint256","internalType":"uint256"}],"outputs":[],"stateMutability":"payable"}],"bytecode":{"object":"0x608080604052346015576101df908161001b8239f35b600080fdfe6080604052600436101561001257600080fd5b60003560e01c6398f850f11461002757600080fd5b60407ffffffffffffffffffffffffffffffffffffffffffffffffffffffffffffffffc3601126101a45760043573ffffffffffffffffffffffffffffffffffffffff811681036101a457600080808093602435905af13d1561019f573d67ffffffffffffffff811161017057604051907fffffffffffffffffffffffffffffffffffffffffffffffffffffffffffffffe0603f81601f8401160116820182811067ffffffffffffffff821117610170576040528152600060203d92013e5b156100ec57005b60846040517f08c379a000000000000000000000000000000000000000000000000000000000815260206004820152602760248201527f56616c7565466f727761726465723a204661696c656420746f20666f7277617260448201527f642076616c7565000000000000000000000000000000000000000000000000006064820152fd5b7f4e487b7100000000000000000000000000000000000000000000000000000000600052604160045260246000fd5b6100e5565b600080fdfea26469706673582212202be6945764e0b5559f80e39222d4f9396eb44eb555d9eedadf5f7886f757467164736f6c634300081c0033","linkReferences":{}},"methodIdentifiers":{"forwardValue(address,uint256)":"98f850f1"},"id":122}