{"abi":[{"type":"function","name":"createSender","inputs":[{"name":"initCode","type":"bytes","internalType":"bytes"}],"outputs":[{"name":"sender","type":"address","internalType":"address"}],"stateMutability":"nonpayable"}],"bytecode":{"object":"0x60808060405234601557610204908161001b8239f35b600080fdfe6080600436101561000f57600080fd5b60003560e01c63570e1a361461002457600080fd5b346101c95760207ffffffffffffffffffffffffffffffffffffffffffffffffffffffffffffffffc3601126101c95760043567ffffffffffffffff81116101c957366023820112156101c957806004013567ffffffffffffffff81116101c95736602482840101116101c957600092816014116101c5577fffffffffffffffffffffffffffffffffffffffffffffffffffffffffffffffec82019167ffffffffffffffff8311610198577fffffffffffffffffffffffffffffffffffffffffffffffffffffffffffffffe0603f81600b8401160116820182811067ffffffffffffffff82111761016b5760246020959387600c819795829560405286845289840196603889018837830101525193013560601c5af190519015610163575b60209073ffffffffffffffffffffffffffffffffffffffff60405191168152f35b506000610142565b6024867f4e487b710000000000000000000000000000000000000000000000000000000081526041600452fd5b6024857f4e487b710000000000000000000000000000000000000000000000000000000081526041600452fd5b8380fd5b600080fdfea2646970667358221220f305957a6db6c0beba40f0ede0597742ea8b2755dc11ebb11d41da55dda59eed64736f6c634300081c0033","linkReferences":{}},"methodIdentifiers":{"createSender(bytes)":"570e1a36"},"id":3}