{
  "_format": "hh-sol-artifact-1",
  "contractName": "ModuleMock",
  "sourceName": "contracts/mocks/ModuleMock.sol",
  "abi": [
    {
      "anonymous": false,
      "inputs": [],
      "name": "Pong",
      "type": "event"
    },
    {
      "inputs": [],
      "name": "ping",
      "outputs": [],
      "stateMutability": "nonpayable",
      "type": "function"
    }
  ],
  "bytecode": "0x6080604052348015600f57600080fd5b5060968061001e6000396000f3fe6080604052348015600f57600080fd5b506004361060285760003560e01c80635c36b18614602d575b600080fd5b60336035565b005b6040517f4d015fcc2a20c24d7be893b3a525eac864b5a53a5f88ef7201a600465c73314e90600090a156fea26469706673582212203904834e87e80d5ef1cbc8cfe81668e9b8ce7423cf9d9e393ef4ccd7d8e5582e64736f6c63430008120033",
  "linkReferences": {},
  "deployedLinkReferences": {}
}