{
  "_format": "hh-sol-artifact-1",
  "contractName": "Stage2Module",
  "sourceName": "src/Stage2Module.sol",
  "abi": [
    {
      "inputs": [
        {
          "internalType": "uint256",
          "name": "_space",
          "type": "uint256"
        },
        {
          "internalType": "uint256",
          "name": "_provided",
          "type": "uint256"
        },
        {
          "internalType": "uint256",
          "name": "_current",
          "type": "uint256"
        }
      ],
      "name": "BadNonce",
      "type": "error"
    },
    {
      "inputs": [
        {
          "internalType": "bytes4",
          "name": "signature",
          "type": "bytes4"
        }
      ],
      "name": "HookAlreadyExists",
      "type": "error"
    },
    {
      "inputs": [
        {
          "internalType": "bytes4",
          "name": "signature",
          "type": "bytes4"
        }
      ],
      "name": "HookDoesNotExist",
      "type": "error"
    },
    {
      "inputs": [],
      "name": "ImageHashIsZero",
      "type": "error"
    },
    {
      "inputs": [
        {
          "internalType": "bytes32",
          "name": "_opHash",
          "type": "bytes32"
        },
        {
          "internalType": "address",
          "name": "_signer",
          "type": "address"
        },
        {
          "internalType": "bytes",
          "name": "_signature",
          "type": "bytes"
        }
      ],
      "name": "InvalidERC1271Signature",
      "type": "error"
    },
    {
      "inputs": [
        {
          "internalType": "uint8",
          "name": "kind",
          "type": "uint8"
        }
      ],
      "name": "InvalidKind",
      "type": "error"
    },
    {
      "inputs": [
        {
          "components": [
            {
              "internalType": "uint8",
              "name": "kind",
              "type": "uint8"
            },
            {
              "internalType": "bool",
              "name": "noChainId",
              "type": "bool"
            },
            {
              "components": [
                {
                  "internalType": "address",
                  "name": "to",
                  "type": "address"
                },
                {
                  "internalType": "uint256",
                  "name": "value",
                  "type": "uint256"
                },
                {
                  "internalType": "bytes",
                  "name": "data",
                  "type": "bytes"
                },
                {
                  "internalType": "uint256",
                  "name": "gasLimit",
                  "type": "uint256"
                },
                {
                  "internalType": "bool",
                  "name": "delegateCall",
                  "type": "bool"
                },
                {
                  "internalType": "bool",
                  "name": "onlyFallback",
                  "type": "bool"
                },
                {
                  "internalType": "uint256",
                  "name": "behaviorOnError",
                  "type": "uint256"
                }
              ],
              "internalType": "struct Payload.Call[]",
              "name": "calls",
              "type": "tuple[]"
            },
            {
              "internalType": "uint256",
              "name": "space",
              "type": "uint256"
            },
            {
              "internalType": "uint256",
              "name": "nonce",
              "type": "uint256"
            },
            {
              "internalType": "bytes",
              "name": "message",
              "type": "bytes"
            },
            {
              "internalType": "bytes32",
              "name": "imageHash",
              "type": "bytes32"
            },
            {
              "internalType": "bytes32",
              "name": "digest",
              "type": "bytes32"
            },
            {
              "internalType": "address[]",
              "name": "parentWallets",
              "type": "address[]"
            }
          ],
          "internalType": "struct Payload.Decoded",
          "name": "_payload",
          "type": "tuple"
        },
        {
          "internalType": "bytes",
          "name": "_signature",
          "type": "bytes"
        }
      ],
      "name": "InvalidSapientSignature",
      "type": "error"
    },
    {
      "inputs": [
        {
          "components": [
            {
              "internalType": "uint8",
              "name": "kind",
              "type": "uint8"
            },
            {
              "internalType": "bool",
              "name": "noChainId",
              "type": "bool"
            },
            {
              "components": [
                {
                  "internalType": "address",
                  "name": "to",
                  "type": "address"
                },
                {
                  "internalType": "uint256",
                  "name": "value",
                  "type": "uint256"
                },
                {
                  "internalType": "bytes",
                  "name": "data",
                  "type": "bytes"
                },
                {
                  "internalType": "uint256",
                  "name": "gasLimit",
                  "type": "uint256"
                },
                {
                  "internalType": "bool",
                  "name": "delegateCall",
                  "type": "bool"
                },
                {
                  "internalType": "bool",
                  "name": "onlyFallback",
                  "type": "bool"
                },
                {
                  "internalType": "uint256",
                  "name": "behaviorOnError",
                  "type": "uint256"
                }
              ],
              "internalType": "struct Payload.Call[]",
              "name": "calls",
              "type": "tuple[]"
            },
            {
              "internalType": "uint256",
              "name": "space",
              "type": "uint256"
            },
            {
              "internalType": "uint256",
              "name": "nonce",
              "type": "uint256"
            },
            {
              "internalType": "bytes",
              "name": "message",
              "type": "bytes"
            },
            {
              "internalType": "bytes32",
              "name": "imageHash",
              "type": "bytes32"
            },
            {
              "internalType": "bytes32",
              "name": "digest",
              "type": "bytes32"
            },
            {
              "internalType": "address[]",
              "name": "parentWallets",
              "type": "address[]"
            }
          ],
          "internalType": "struct Payload.Decoded",
          "name": "_payload",
          "type": "tuple"
        },
        {
          "internalType": "bytes",
          "name": "_signature",
          "type": "bytes"
        }
      ],
      "name": "InvalidSignature",
      "type": "error"
    },
    {
      "inputs": [
        {
          "internalType": "uint256",
          "name": "_flag",
          "type": "uint256"
        }
      ],
      "name": "InvalidSignatureFlag",
      "type": "error"
    },
    {
      "inputs": [
        {
          "internalType": "uint256",
          "name": "_threshold",
          "type": "uint256"
        },
        {
          "internalType": "uint256",
          "name": "_weight",
          "type": "uint256"
        }
      ],
      "name": "InvalidSignatureWeight",
      "type": "error"
    },
    {
      "inputs": [
        {
          "internalType": "bytes32",
          "name": "_opHash",
          "type": "bytes32"
        },
        {
          "internalType": "uint256",
          "name": "_expires",
          "type": "uint256"
        }
      ],
      "name": "InvalidStaticSignatureExpired",
      "type": "error"
    },
    {
      "inputs": [
        {
          "internalType": "bytes32",
          "name": "_opHash",
          "type": "bytes32"
        },
        {
          "internalType": "address",
          "name": "_caller",
          "type": "address"
        },
        {
          "internalType": "address",
          "name": "_expectedCaller",
          "type": "address"
        }
      ],
      "name": "InvalidStaticSignatureWrongCaller",
      "type": "error"
    },
    {
      "inputs": [
        {
          "internalType": "bytes",
          "name": "_signature",
          "type": "bytes"
        },
        {
          "internalType": "uint256",
          "name": "_threshold",
          "type": "uint256"
        },
        {
          "internalType": "uint256",
          "name": "_weight",
          "type": "uint256"
        }
      ],
      "name": "LowWeightChainedSignature",
      "type": "error"
    },
    {
      "inputs": [
        {
          "components": [
            {
              "internalType": "uint8",
              "name": "kind",
              "type": "uint8"
            },
            {
              "internalType": "bool",
              "name": "noChainId",
              "type": "bool"
            },
            {
              "components": [
                {
                  "internalType": "address",
                  "name": "to",
                  "type": "address"
                },
                {
                  "internalType": "uint256",
                  "name": "value",
                  "type": "uint256"
                },
                {
                  "internalType": "bytes",
                  "name": "data",
                  "type": "bytes"
                },
                {
                  "internalType": "uint256",
                  "name": "gasLimit",
                  "type": "uint256"
                },
                {
                  "internalType": "bool",
                  "name": "delegateCall",
                  "type": "bool"
                },
                {
                  "internalType": "bool",
                  "name": "onlyFallback",
                  "type": "bool"
                },
                {
                  "internalType": "uint256",
                  "name": "behaviorOnError",
                  "type": "uint256"
                }
              ],
              "internalType": "struct Payload.Call[]",
              "name": "calls",
              "type": "tuple[]"
            },
            {
              "internalType": "uint256",
              "name": "space",
              "type": "uint256"
            },
            {
              "internalType": "uint256",
              "name": "nonce",
              "type": "uint256"
            },
            {
              "internalType": "bytes",
              "name": "message",
              "type": "bytes"
            },
            {
              "internalType": "bytes32",
              "name": "imageHash",
              "type": "bytes32"
            },
            {
              "internalType": "bytes32",
              "name": "digest",
              "type": "bytes32"
            },
            {
              "internalType": "address[]",
              "name": "parentWallets",
              "type": "address[]"
            }
          ],
          "internalType": "struct Payload.Decoded",
          "name": "_payload",
          "type": "tuple"
        },
        {
          "internalType": "uint256",
          "name": "_index",
          "type": "uint256"
        },
        {
          "internalType": "uint256",
          "name": "_gasLeft",
          "type": "uint256"
        }
      ],
      "name": "NotEnoughGas",
      "type": "error"
    },
    {
      "inputs": [
        {
          "internalType": "address",
          "name": "_sender",
          "type": "address"
        }
      ],
      "name": "OnlySelf",
      "type": "error"
    },
    {
      "inputs": [
        {
          "components": [
            {
              "internalType": "uint8",
              "name": "kind",
              "type": "uint8"
            },
            {
              "internalType": "bool",
              "name": "noChainId",
              "type": "bool"
            },
            {
              "components": [
                {
                  "internalType": "address",
                  "name": "to",
                  "type": "address"
                },
                {
                  "internalType": "uint256",
                  "name": "value",
                  "type": "uint256"
                },
                {
                  "internalType": "bytes",
                  "name": "data",
                  "type": "bytes"
                },
                {
                  "internalType": "uint256",
                  "name": "gasLimit",
                  "type": "uint256"
                },
                {
                  "internalType": "bool",
                  "name": "delegateCall",
                  "type": "bool"
                },
                {
                  "internalType": "bool",
                  "name": "onlyFallback",
                  "type": "bool"
                },
                {
                  "internalType": "uint256",
                  "name": "behaviorOnError",
                  "type": "uint256"
                }
              ],
              "internalType": "struct Payload.Call[]",
              "name": "calls",
              "type": "tuple[]"
            },
            {
              "internalType": "uint256",
              "name": "space",
              "type": "uint256"
            },
            {
              "internalType": "uint256",
              "name": "nonce",
              "type": "uint256"
            },
            {
              "internalType": "bytes",
              "name": "message",
              "type": "bytes"
            },
            {
              "internalType": "bytes32",
              "name": "imageHash",
              "type": "bytes32"
            },
            {
              "internalType": "bytes32",
              "name": "digest",
              "type": "bytes32"
            },
            {
              "internalType": "address[]",
              "name": "parentWallets",
              "type": "address[]"
            }
          ],
          "internalType": "struct Payload.Decoded",
          "name": "_payload",
          "type": "tuple"
        },
        {
          "internalType": "uint256",
          "name": "_index",
          "type": "uint256"
        },
        {
          "internalType": "bytes",
          "name": "_returnData",
          "type": "bytes"
        }
      ],
      "name": "Reverted",
      "type": "error"
    },
    {
      "inputs": [
        {
          "components": [
            {
              "internalType": "bytes32",
              "name": "imageHash",
              "type": "bytes32"
            },
            {
              "internalType": "uint256",
              "name": "checkpoint",
              "type": "uint256"
            }
          ],
          "internalType": "struct Snapshot",
          "name": "_snapshot",
          "type": "tuple"
        }
      ],
      "name": "UnusedSnapshot",
      "type": "error"
    },
    {
      "inputs": [
        {
          "internalType": "uint256",
          "name": "_nextCheckpoint",
          "type": "uint256"
        },
        {
          "internalType": "uint256",
          "name": "_checkpoint",
          "type": "uint256"
        }
      ],
      "name": "WrongChainedCheckpointOrder",
      "type": "error"
    },
    {
      "anonymous": false,
      "inputs": [
        {
          "indexed": false,
          "internalType": "bytes32",
          "name": "_opHash",
          "type": "bytes32"
        },
        {
          "indexed": false,
          "internalType": "uint256",
          "name": "_index",
          "type": "uint256"
        },
        {
          "indexed": false,
          "internalType": "bytes",
          "name": "_returnData",
          "type": "bytes"
        }
      ],
      "name": "CallAborted",
      "type": "event"
    },
    {
      "anonymous": false,
      "inputs": [
        {
          "indexed": false,
          "internalType": "bytes32",
          "name": "_opHash",
          "type": "bytes32"
        },
        {
          "indexed": false,
          "internalType": "uint256",
          "name": "_index",
          "type": "uint256"
        },
        {
          "indexed": false,
          "internalType": "bytes",
          "name": "_returnData",
          "type": "bytes"
        }
      ],
      "name": "CallFailed",
      "type": "event"
    },
    {
      "anonymous": false,
      "inputs": [
        {
          "indexed": false,
          "internalType": "bytes32",
          "name": "_opHash",
          "type": "bytes32"
        },
        {
          "indexed": false,
          "internalType": "uint256",
          "name": "_index",
          "type": "uint256"
        }
      ],
      "name": "CallSkipped",
      "type": "event"
    },
    {
      "anonymous": false,
      "inputs": [
        {
          "indexed": false,
          "internalType": "bytes32",
          "name": "_opHash",
          "type": "bytes32"
        },
        {
          "indexed": false,
          "internalType": "uint256",
          "name": "_index",
          "type": "uint256"
        }
      ],
      "name": "CallSucceeded",
      "type": "event"
    },
    {
      "anonymous": false,
      "inputs": [
        {
          "indexed": false,
          "internalType": "bytes4",
          "name": "signature",
          "type": "bytes4"
        },
        {
          "indexed": false,
          "internalType": "address",
          "name": "implementation",
          "type": "address"
        }
      ],
      "name": "DefinedHook",
      "type": "event"
    },
    {
      "anonymous": false,
      "inputs": [
        {
          "indexed": false,
          "internalType": "bytes32",
          "name": "newImageHash",
          "type": "bytes32"
        }
      ],
      "name": "ImageHashUpdated",
      "type": "event"
    },
    {
      "anonymous": false,
      "inputs": [
        {
          "indexed": false,
          "internalType": "address",
          "name": "newImplementation",
          "type": "address"
        }
      ],
      "name": "ImplementationUpdated",
      "type": "event"
    },
    {
      "anonymous": false,
      "inputs": [
        {
          "indexed": false,
          "internalType": "uint256",
          "name": "_space",
          "type": "uint256"
        },
        {
          "indexed": false,
          "internalType": "uint256",
          "name": "_newNonce",
          "type": "uint256"
        }
      ],
      "name": "NonceChange",
      "type": "event"
    },
    {
      "anonymous": false,
      "inputs": [
        {
          "indexed": false,
          "internalType": "bytes32",
          "name": "_hash",
          "type": "bytes32"
        },
        {
          "indexed": false,
          "internalType": "address",
          "name": "_address",
          "type": "address"
        },
        {
          "indexed": false,
          "internalType": "uint96",
          "name": "_timestamp",
          "type": "uint96"
        }
      ],
      "name": "StaticSignatureSet",
      "type": "event"
    },
    {
      "stateMutability": "payable",
      "type": "fallback"
    },
    {
      "inputs": [
        {
          "internalType": "bytes4",
          "name": "signature",
          "type": "bytes4"
        },
        {
          "internalType": "address",
          "name": "implementation",
          "type": "address"
        }
      ],
      "name": "addHook",
      "outputs": [],
      "stateMutability": "payable",
      "type": "function"
    },
    {
      "inputs": [
        {
          "internalType": "bytes",
          "name": "_payload",
          "type": "bytes"
        },
        {
          "internalType": "bytes",
          "name": "_signature",
          "type": "bytes"
        }
      ],
      "name": "execute",
      "outputs": [],
      "stateMutability": "payable",
      "type": "function"
    },
    {
      "inputs": [],
      "name": "getImplementation",
      "outputs": [
        {
          "internalType": "address",
          "name": "",
          "type": "address"
        }
      ],
      "stateMutability": "view",
      "type": "function"
    },
    {
      "inputs": [
        {
          "internalType": "bytes32",
          "name": "_hash",
          "type": "bytes32"
        }
      ],
      "name": "getStaticSignature",
      "outputs": [
        {
          "internalType": "address",
          "name": "",
          "type": "address"
        },
        {
          "internalType": "uint256",
          "name": "",
          "type": "uint256"
        }
      ],
      "stateMutability": "view",
      "type": "function"
    },
    {
      "inputs": [],
      "name": "imageHash",
      "outputs": [
        {
          "internalType": "bytes32",
          "name": "",
          "type": "bytes32"
        }
      ],
      "stateMutability": "view",
      "type": "function"
    },
    {
      "inputs": [
        {
          "internalType": "bytes32",
          "name": "_hash",
          "type": "bytes32"
        },
        {
          "internalType": "bytes",
          "name": "_signature",
          "type": "bytes"
        }
      ],
      "name": "isValidSignature",
      "outputs": [
        {
          "internalType": "bytes4",
          "name": "",
          "type": "bytes4"
        }
      ],
      "stateMutability": "view",
      "type": "function"
    },
    {
      "inputs": [
        {
          "internalType": "address",
          "name": "",
          "type": "address"
        },
        {
          "internalType": "address",
          "name": "",
          "type": "address"
        },
        {
          "internalType": "uint256[]",
          "name": "",
          "type": "uint256[]"
        },
        {
          "internalType": "uint256[]",
          "name": "",
          "type": "uint256[]"
        },
        {
          "internalType": "bytes",
          "name": "",
          "type": "bytes"
        }
      ],
      "name": "onERC1155BatchReceived",
      "outputs": [
        {
          "internalType": "bytes4",
          "name": "",
          "type": "bytes4"
        }
      ],
      "stateMutability": "pure",
      "type": "function"
    },
    {
      "inputs": [
        {
          "internalType": "address",
          "name": "",
          "type": "address"
        },
        {
          "internalType": "address",
          "name": "",
          "type": "address"
        },
        {
          "internalType": "uint256",
          "name": "",
          "type": "uint256"
        },
        {
          "internalType": "uint256",
          "name": "",
          "type": "uint256"
        },
        {
          "internalType": "bytes",
          "name": "",
          "type": "bytes"
        }
      ],
      "name": "onERC1155Received",
      "outputs": [
        {
          "internalType": "bytes4",
          "name": "",
          "type": "bytes4"
        }
      ],
      "stateMutability": "pure",
      "type": "function"
    },
    {
      "inputs": [
        {
          "internalType": "address",
          "name": "",
          "type": "address"
        },
        {
          "internalType": "address",
          "name": "",
          "type": "address"
        },
        {
          "internalType": "uint256",
          "name": "",
          "type": "uint256"
        },
        {
          "internalType": "bytes",
          "name": "",
          "type": "bytes"
        }
      ],
      "name": "onERC721Received",
      "outputs": [
        {
          "internalType": "bytes4",
          "name": "",
          "type": "bytes4"
        }
      ],
      "stateMutability": "pure",
      "type": "function"
    },
    {
      "inputs": [
        {
          "internalType": "bytes4",
          "name": "signature",
          "type": "bytes4"
        }
      ],
      "name": "readHook",
      "outputs": [
        {
          "internalType": "address",
          "name": "",
          "type": "address"
        }
      ],
      "stateMutability": "view",
      "type": "function"
    },
    {
      "inputs": [
        {
          "internalType": "uint256",
          "name": "_space",
          "type": "uint256"
        }
      ],
      "name": "readNonce",
      "outputs": [
        {
          "internalType": "uint256",
          "name": "",
          "type": "uint256"
        }
      ],
      "stateMutability": "view",
      "type": "function"
    },
    {
      "inputs": [
        {
          "components": [
            {
              "internalType": "uint8",
              "name": "kind",
              "type": "uint8"
            },
            {
              "internalType": "bool",
              "name": "noChainId",
              "type": "bool"
            },
            {
              "components": [
                {
                  "internalType": "address",
                  "name": "to",
                  "type": "address"
                },
                {
                  "internalType": "uint256",
                  "name": "value",
                  "type": "uint256"
                },
                {
                  "internalType": "bytes",
                  "name": "data",
                  "type": "bytes"
                },
                {
                  "internalType": "uint256",
                  "name": "gasLimit",
                  "type": "uint256"
                },
                {
                  "internalType": "bool",
                  "name": "delegateCall",
                  "type": "bool"
                },
                {
                  "internalType": "bool",
                  "name": "onlyFallback",
                  "type": "bool"
                },
                {
                  "internalType": "uint256",
                  "name": "behaviorOnError",
                  "type": "uint256"
                }
              ],
              "internalType": "struct Payload.Call[]",
              "name": "calls",
              "type": "tuple[]"
            },
            {
              "internalType": "uint256",
              "name": "space",
              "type": "uint256"
            },
            {
              "internalType": "uint256",
              "name": "nonce",
              "type": "uint256"
            },
            {
              "internalType": "bytes",
              "name": "message",
              "type": "bytes"
            },
            {
              "internalType": "bytes32",
              "name": "imageHash",
              "type": "bytes32"
            },
            {
              "internalType": "bytes32",
              "name": "digest",
              "type": "bytes32"
            },
            {
              "internalType": "address[]",
              "name": "parentWallets",
              "type": "address[]"
            }
          ],
          "internalType": "struct Payload.Decoded",
          "name": "_payload",
          "type": "tuple"
        },
        {
          "internalType": "bytes",
          "name": "_signature",
          "type": "bytes"
        }
      ],
      "name": "recoverPartialSignature",
      "outputs": [
        {
          "internalType": "uint256",
          "name": "threshold",
          "type": "uint256"
        },
        {
          "internalType": "uint256",
          "name": "weight",
          "type": "uint256"
        },
        {
          "internalType": "bool",
          "name": "isValidImage",
          "type": "bool"
        },
        {
          "internalType": "bytes32",
          "name": "imageHash",
          "type": "bytes32"
        },
        {
          "internalType": "uint256",
          "name": "checkpoint",
          "type": "uint256"
        },
        {
          "internalType": "bytes32",
          "name": "opHash",
          "type": "bytes32"
        }
      ],
      "stateMutability": "view",
      "type": "function"
    },
    {
      "inputs": [
        {
          "components": [
            {
              "internalType": "uint8",
              "name": "kind",
              "type": "uint8"
            },
            {
              "internalType": "bool",
              "name": "noChainId",
              "type": "bool"
            },
            {
              "components": [
                {
                  "internalType": "address",
                  "name": "to",
                  "type": "address"
                },
                {
                  "internalType": "uint256",
                  "name": "value",
                  "type": "uint256"
                },
                {
                  "internalType": "bytes",
                  "name": "data",
                  "type": "bytes"
                },
                {
                  "internalType": "uint256",
                  "name": "gasLimit",
                  "type": "uint256"
                },
                {
                  "internalType": "bool",
                  "name": "delegateCall",
                  "type": "bool"
                },
                {
                  "internalType": "bool",
                  "name": "onlyFallback",
                  "type": "bool"
                },
                {
                  "internalType": "uint256",
                  "name": "behaviorOnError",
                  "type": "uint256"
                }
              ],
              "internalType": "struct Payload.Call[]",
              "name": "calls",
              "type": "tuple[]"
            },
            {
              "internalType": "uint256",
              "name": "space",
              "type": "uint256"
            },
            {
              "internalType": "uint256",
              "name": "nonce",
              "type": "uint256"
            },
            {
              "internalType": "bytes",
              "name": "message",
              "type": "bytes"
            },
            {
              "internalType": "bytes32",
              "name": "imageHash",
              "type": "bytes32"
            },
            {
              "internalType": "bytes32",
              "name": "digest",
              "type": "bytes32"
            },
            {
              "internalType": "address[]",
              "name": "parentWallets",
              "type": "address[]"
            }
          ],
          "internalType": "struct Payload.Decoded",
          "name": "_payload",
          "type": "tuple"
        },
        {
          "internalType": "bytes",
          "name": "_signature",
          "type": "bytes"
        }
      ],
      "name": "recoverSapientSignature",
      "outputs": [
        {
          "internalType": "bytes32",
          "name": "",
          "type": "bytes32"
        }
      ],
      "stateMutability": "view",
      "type": "function"
    },
    {
      "inputs": [
        {
          "internalType": "bytes4",
          "name": "signature",
          "type": "bytes4"
        }
      ],
      "name": "removeHook",
      "outputs": [],
      "stateMutability": "payable",
      "type": "function"
    },
    {
      "inputs": [
        {
          "internalType": "bytes",
          "name": "_payload",
          "type": "bytes"
        }
      ],
      "name": "selfExecute",
      "outputs": [],
      "stateMutability": "payable",
      "type": "function"
    },
    {
      "inputs": [
        {
          "internalType": "bytes32",
          "name": "_hash",
          "type": "bytes32"
        },
        {
          "internalType": "address",
          "name": "_address",
          "type": "address"
        },
        {
          "internalType": "uint96",
          "name": "_timestamp",
          "type": "uint96"
        }
      ],
      "name": "setStaticSignature",
      "outputs": [],
      "stateMutability": "nonpayable",
      "type": "function"
    },
    {
      "inputs": [
        {
          "internalType": "address",
          "name": "",
          "type": "address"
        },
        {
          "internalType": "uint256",
          "name": "",
          "type": "uint256"
        },
        {
          "internalType": "bytes",
          "name": "",
          "type": "bytes"
        }
      ],
      "name": "tokenReceived",
      "outputs": [],
      "stateMutability": "nonpayable",
      "type": "function"
    },
    {
      "inputs": [
        {
          "internalType": "bytes32",
          "name": "_imageHash",
          "type": "bytes32"
        }
      ],
      "name": "updateImageHash",
      "outputs": [],
      "stateMutability": "nonpayable",
      "type": "function"
    },
    {
      "inputs": [
        {
          "internalType": "address",
          "name": "_implementation",
          "type": "address"
        }
      ],
      "name": "updateImplementation",
      "outputs": [],
      "stateMutability": "payable",
      "type": "function"
    },
    {
      "stateMutability": "payable",
      "type": "receive"
    }
  ],
  "bytecode": "0x608060405260043610610117575f3560e01c80636ea445771161009f578063ad55366b11610063578063ad55366b14610475578063b93ea7ad146104b6578063bc197c81146104d2578063f23a6e611461050e578063f727ef1c1461054a5761011e565b80636ea445771461038e5780638943ec02146103aa5780638c3f5563146103d257806392dcb3fc1461040e578063aaf10f421461044b5761011e565b80631a9b2337116100e65780631a9b2337146102c85780631f6a1eb91461030457806329561426146103205780634fcf3eca1461034857806351605d80146103645761011e565b8063025b22bc146101f857806313792a4a14610214578063150b7a02146102505780631626ba7e1461028c5761011e565b3661011e57005b60045f369050106101f6575f61013f5f369061013a9190613484565b610572565b90505f73ffffffffffffffffffffffffffffffffffffffff168173ffffffffffffffffffffffffffffffffffffffff16146101f4575f5f8273ffffffffffffffffffffffffffffffffffffffff165f3660405161019d92919061351e565b5f60405180830381855af49150503d805f81146101d5576040519150601f19603f3d011682016040523d82523d5f602084013e6101da565b606091505b5091509150816101ec57805160208201fd5b805160208201f35b505b005b610212600480360381019061020d91906135a1565b6105c7565b005b34801561021f575f5ffd5b5061023a60048036038101906102359190613bcc565b610643565b6040516102479190613c54565b60405180910390f35b34801561025b575f5ffd5b5061027660048036038101906102719190613c6d565b6107f2565b6040516102839190613d00565b60405180910390f35b348015610297575f5ffd5b506102b260048036038101906102ad9190613d19565b610806565b6040516102bf9190613d00565b60405180910390f35b3480156102d3575f5ffd5b506102ee60048036038101906102e99190613da0565b610860565b6040516102fb9190613dda565b60405180910390f35b61031e60048036038101906103199190613df3565b610871565b005b34801561032b575f5ffd5b5061034660048036038101906103419190613e71565b610900565b005b610362600480360381019061035d9190613da0565b61097c565b005b34801561036f575f5ffd5b50610378610a71565b6040516103859190613c54565b60405180910390f35b6103a860048036038101906103a39190613e9c565b610aa2565b005b3480156103b5575f5ffd5b506103d060048036038101906103cb9190613ee7565b610b41565b005b3480156103dd575f5ffd5b506103f860048036038101906103f39190613f58565b610b47565b6040516104059190613f92565b60405180910390f35b348015610419575f5ffd5b50610434600480360381019061042f9190613e71565b610b7f565b604051610442929190613fab565b60405180910390f35b348015610456575f5ffd5b5061045f610b93565b60405161046c9190613dda565b60405180910390f35b348015610480575f5ffd5b5061049b60048036038101906104969190613bcc565b610ba1565b6040516104ad96959493929190613fe1565b60405180910390f35b6104d060048036038101906104cb9190614040565b610bdf565b005b3480156104dd575f5ffd5b506104f860048036038101906104f391906140d3565b610cd5565b6040516105059190613d00565b60405180910390f35b348015610519575f5ffd5b50610534600480360381019061052f91906141aa565b610cec565b6040516105419190613d00565b60405180910390f35b348015610555575f5ffd5b50610570600480360381019061056b9190614281565b610d01565b005b5f6105be7fbe27a319efc8734e89e26ba4bc95f5c788584163b959f03fa04e2d7ab4b9a1205f1b837bffffffffffffffffffffffffffffffffffffffffffffffffffffffff1916610dca565b5f1c9050919050565b3073ffffffffffffffffffffffffffffffffffffffff163373ffffffffffffffffffffffffffffffffffffffff161461063757336040517fa19dbf0000000000000000000000000000000000000000000000000000000000815260040161062e9190613dda565b60405180910390fd5b61064081610e02565b50565b5f5f60018561010001515161065891906142fe565b67ffffffffffffffff811115610671576106706135e0565b5b60405190808252806020026020018201604052801561069f5781602001602082028036833780820191505090505b5090505f5f90505b8561010001515181101561072f5785610100015181815181106106cd576106cc614331565b5b60200260200101518282815181106106e8576106e7614331565b5b602002602001019073ffffffffffffffffffffffffffffffffffffffff16908173ffffffffffffffffffffffffffffffffffffffff168152505080806001019150506106a7565b503381866101000151518151811061074a57610749614331565b5b602002602001019073ffffffffffffffffffffffffffffffffffffffff16908173ffffffffffffffffffffffffffffffffffffffff1681525050808561010001819052505f61079a868686610e45565b509050806107e3578585856040517ff58cc8b50000000000000000000000000000000000000000000000000000000081526004016107da93929190614711565b60405180910390fd5b60015f1b925050509392505050565b5f63150b7a0260e01b905095945050505050565b5f61080f61338f565b6003815f019060ff16908160ff1681525050848160e00181815250505f610837828686610e45565b5090508061084c575f60e01b92505050610859565b6320c13b0b60e01b925050505b9392505050565b5f61086a82610572565b9050919050565b5f5a90505f6108808686611035565b9050610894816060015182608001516114d7565b5f5f6108a1838787610e45565b91509150816108eb578286866040517fa2b6d61b0000000000000000000000000000000000000000000000000000000081526004016108e293929190614711565b60405180910390fd5b6108f684828561157b565b5050505050505050565b3073ffffffffffffffffffffffffffffffffffffffff163373ffffffffffffffffffffffffffffffffffffffff161461097057336040517fa19dbf000000000000000000000000000000000000000000000000000000000081526004016109679190613dda565b60405180910390fd5b610979816118ad565b50565b3073ffffffffffffffffffffffffffffffffffffffff163373ffffffffffffffffffffffffffffffffffffffff16146109ec57336040517fa19dbf000000000000000000000000000000000000000000000000000000000081526004016109e39190613dda565b60405180910390fd5b5f73ffffffffffffffffffffffffffffffffffffffff16610a0c82610572565b73ffffffffffffffffffffffffffffffffffffffff1603610a6457806040517f1c3812cc000000000000000000000000000000000000000000000000000000008152600401610a5b9190613d00565b60405180910390fd5b610a6e815f61194e565b50565b5f610a9d7fea7157fa25e3aa17d0ae2d5280fa4e24d421c61842aa85e45194e1145aa72bf85f1b6119ef565b905090565b3073ffffffffffffffffffffffffffffffffffffffff163373ffffffffffffffffffffffffffffffffffffffff1614610b1257336040517fa19dbf00000000000000000000000000000000000000000000000000000000008152600401610b099190613dda565b60405180910390fd5b5f5a90505f610b218484611035565b90505f610b2d826119f9565b9050610b3a83828461157b565b5050505050565b50505050565b5f610b767f8d0bf1fd623d628c741362c1289948e57b3e2905218c676d3e69abee36d6ae2e5f1b835f1b610dca565b5f1c9050919050565b5f5f610b8a83611a49565b91509150915091565b5f610b9c611a9a565b905090565b5f5f5f5f5f5f610bb48989895f5f611aa2565b809550819650829750839950849a505050505050610bd183611ddf565b935093975093979195509350565b3073ffffffffffffffffffffffffffffffffffffffff163373ffffffffffffffffffffffffffffffffffffffff1614610c4f57336040517fa19dbf00000000000000000000000000000000000000000000000000000000008152600401610c469190613dda565b60405180910390fd5b5f73ffffffffffffffffffffffffffffffffffffffff16610c6f83610572565b73ffffffffffffffffffffffffffffffffffffffff1614610cc757816040517f5b4d6d6a000000000000000000000000000000000000000000000000000000008152600401610cbe9190613d00565b60405180910390fd5b610cd1828261194e565b5050565b5f63bc197c8160e01b905098975050505050505050565b5f63f23a6e6160e01b90509695505050505050565b3073ffffffffffffffffffffffffffffffffffffffff163373ffffffffffffffffffffffffffffffffffffffff1614610d7157336040517fa19dbf00000000000000000000000000000000000000000000000000000000008152600401610d689190613dda565b60405180910390fd5b610d8a8383836bffffffffffffffffffffffff16611df0565b7febf265acfac1c01de588ed7ef49743b9c3ce8d6d1edeaf510a1f5453228515b1838383604051610dbd93929190614757565b60405180910390a1505050565b5f5f8383604051602001610ddf92919061478c565b604051602081830303815290604052805190602001209050805491505092915050565b610e0b81611e4e565b7f310ba5f1d2ed074b51e2eccd052a47ae9ab7c6b800d1fca3db3999d6a592ca0381604051610e3a9190613dda565b60405180910390a150565b5f5f5f84845f818110610e5b57610e5a614331565b5b9050013560f81c60f81b9050608060f81b608060f81b82167effffffffffffffffffffffffffffffffffffffffffffffffffffffffffffff191603610fb457610ea3866119f9565b91505f5f610eb084611a49565b91509150428111610efa5783816040517ff95b6ab7000000000000000000000000000000000000000000000000000000008152600401610ef19291906147b3565b60405180910390fd5b5f73ffffffffffffffffffffffffffffffffffffffff168273ffffffffffffffffffffffffffffffffffffffff1614158015610f6257503373ffffffffffffffffffffffffffffffffffffffff168273ffffffffffffffffffffffffffffffffffffffff1614155b15610fa8578333836040517f8945c313000000000000000000000000000000000000000000000000000000008152600401610f9f939291906147da565b60405180910390fd5b6001945050505061102d565b5f5f5f610fc48989895f5f611aa2565b9050809850819450829550839650505050508282101561101d5782826040517ffd41fcba00000000000000000000000000000000000000000000000000000000815260040161101492919061480f565b60405180910390fd5b61102681611ddf565b9550505050505b935093915050565b61103d61338f565b5f815f019060ff16908160ff16815250505f5f61105a8585611e54565b915060ff16915060018083160361107a575f8360600181815250506110b6565b61108f818686611e6a9290919263ffffffff16565b8173ffffffffffffffffffffffffffffffffffffffff169150846060018193508281525050505b5f6007600184901c1690505f8111156110f3576110e582828888611e9b9190939291909392919063ffffffff16565b856080018194508281525050505b5f601080851603611107576001905061115f565b60208085160361113a57611126838888611ec89290919263ffffffff16565b8161ffff169150809450819250505061115e565b61114f838888611ee79290919263ffffffff16565b8160ff16915080945081925050505b5b8067ffffffffffffffff811115611179576111786135e0565b5b6040519080825280602002602001820160405280156111b257816020015b61119f6133da565b8152602001906001900390816111975790505b5085604001819052505f5f90505b818110156114cc575f6111de858a8a611ee79290919263ffffffff16565b8096508192505050600180821660ff160361124d57308760400151838151811061120b5761120a614331565b5b60200260200101515f019073ffffffffffffffffffffffffffffffffffffffff16908173ffffffffffffffffffffffffffffffffffffffff16815250506112b9565b611262858a8a611f029290919263ffffffff16565b8860400151848151811061127957611278614331565b5b60200260200101515f018197508273ffffffffffffffffffffffffffffffffffffffff1673ffffffffffffffffffffffffffffffffffffffff1681525050505b600280821660ff1603611307576112db858a8a611f339290919263ffffffff16565b886040015184815181106112f2576112f1614331565b5b60200260200101516020018197508281525050505b600480821660ff16036113cf575f61132a868b8b611f499290919263ffffffff16565b8162ffffff169150809750819250505089898790838961134a91906142fe565b926113579392919061483e565b8080601f0160208091040260200160405190810160405280939291908181526020018383808284375f81840152601f19601f82011690508083019250505050505050886040015184815181106113b0576113af614331565b5b60200260200101516040018190525080866113cb91906142fe565b9550505b600880821660ff160361141d576113f1858a8a611f339290919263ffffffff16565b8860400151848151811061140857611407614331565b5b60200260200101516060018197508281525050505b601080821660ff16148760400151838151811061143d5761143c614331565b5b60200260200101516080019015159081151581525050602080821660ff16148760400151838151811061147357611472614331565b5b602002602001015160a0019015159081151581525050600660c0821660ff16901c60ff16876040015183815181106114ae576114ad614331565b5b602002602001015160c00181815250505080806001019150506111c0565b505050505092915050565b5f6114e183610b47565b905081811461152b578282826040517f9b6514f400000000000000000000000000000000000000000000000000000000815260040161152293929190614878565b60405180910390fd5b5f60018301905061153c8482611f69565b7f1f180c27086c7a39ea2a7b25239d1ab92348f07ca7bb59d1438fcf527568f881848260405161156d92919061480f565b60405180910390a150505050565b5f5f90505f82604001515190505f5f90505b818110156118a5575f846040015182815181106115ad576115ac614331565b5b6020026020010151905083156115c5575f935061160f565b8060a001511561160e577f9ae934bf8a986157c889a24c3b3fa85e74b7e4ee4b1f8fc6e7362cb4c1d19d8b86836040516116009291906147b3565b60405180910390a150611898565b5b5f816060015190505f81141580156116265750805a105b1561166c5785835a6040517f21395274000000000000000000000000000000000000000000000000000000008152600401611663939291906148ad565b60405180910390fd5b5f8260800151156117215761171a835f01515f841461168b578361168d565b5a5b634c4e814c60e01b8b8d898b8e606001518b604001516040516024016116b896959493929190614921565b604051602081830303815290604052907bffffffffffffffffffffffffffffffffffffffffffffffffffffffff19166020820180517bffffffffffffffffffffffffffffffffffffffffffffffffffffffff8381831617835250505050611f9e565b9050611749565b611746835f015184602001515f851461173a578461173c565b5a5b8660400151611fb3565b90505b8061185b575f60ff168360c00151036117aa57600195507f115f347c00e69f252cd6b63c4f81022a9564c6befe8aa719cb74640a4a306f0d888561178b611fca565b60405161179a93929190614987565b60405180910390a1505050611898565b600160ff168360c00151036118015786846117c3611fca565b6040517f7f6b0bb10000000000000000000000000000000000000000000000000000000081526004016117f8939291906149c3565b60405180910390fd5b600260ff168360c001510361185a577fc2c704302430fe0dc8d95f272e2f4e54bbbc51a3327fd5d75ab41f9fc8fd129b888561183b611fca565b60405161184a93929190614987565b60405180910390a15050506118a5565b5b7f5a589b1d8062f33451d29cae3dabd9b2e36c62aee644178c600977ca8dda661a888560405161188c9291906147b3565b60405180910390a15050505b808060010191505061158d565b505050505050565b5f5f1b81036118e8576040517f4294d12700000000000000000000000000000000000000000000000000000000815260040160405180910390fd5b6119147fea7157fa25e3aa17d0ae2d5280fa4e24d421c61842aa85e45194e1145aa72bf85f1b82611fe8565b7f307ed6bd941ee9fc80f369c94af5fa11e25bab5102a6140191756c5474a30bfa816040516119439190613c54565b60405180910390a150565b6119b27fbe27a319efc8734e89e26ba4bc95f5c788584163b959f03fa04e2d7ab4b9a1205f1b837bffffffffffffffffffffffffffffffffffffffffffffffffffffffff19168373ffffffffffffffffffffffffffffffffffffffff165f1b611fef565b7f0d7fc113eaf016db4681a1ba86d083ce3e0961f321062a75ac2b0aeb33deeed182826040516119e3929190614a06565b60405180910390a15050565b5f81549050919050565b5f5f611a09836020015130612024565b90505f611a15846120c8565b90508181604051602001611a2a929190614aa1565b6040516020818303038152906040528051906020012092505050919050565b5f5f5f611a787fc852adf5e97c2fc3b38f405671e91b7af1697ef0287577f227ef10494c2a8e865f1b85610dca565b5f1c9050606081901c816bffffffffffffffffffffffff169250925050915091565b5f3054905090565b5f5f5f5f5f5f5f611ab38b8b611e54565b915060ff169150611ac261342b565b6040808416148015611aff57505f73ffffffffffffffffffffffffffffffffffffffff168973ffffffffffffffffffffffffffffffffffffffff16145b15611c3b57611b19828d8d611f029290919263ffffffff16565b809350819a50505089611c3a575f611b3c838e8e611f499290919263ffffffff16565b8162ffffff16915080945081925050505f8d8d85908487611b5d91906142fe565b92611b6a9392919061483e565b8080601f0160208091040260200160405190810160405280939291908181526020018383808284375f81840152601f19601f8201169050808301925050505050505090508a73ffffffffffffffffffffffffffffffffffffffff1663ccce3bc830836040518363ffffffff1660e01b8152600401611be9929190614ad7565b6040805180830381865afa158015611c03573d5f5f3e3d5ffd5b505050506040513d601f19601f82011682018060405250810190611c279190614b7a565b92508184611c3591906142fe565b935050505b5b600180841603611c7457611c628d8a838f8f87908092611c5d9392919061483e565b6122fc565b97509750975097509750505050611dd2565b6002808416148d60200190151590811515815250505f6002601c8516901c9050611cb083828f8f611e9b9190939291909392919063ffffffff16565b8094508197505050505f6001600560208616901c611cce91906142fe565b9050611cec83828f8f611e9b9190939291909392919063ffffffff16565b809450819a50505050611cfe8d6119f9565b9350611d1c8d858e8e86908092611d179392919061483e565b612561565b8097508198505050611d3086895f1b6130de565b9550611d3e86865f1b6130de565b9550611d62868a73ffffffffffffffffffffffffffffffffffffffff165f1b6130de565b95505f5f1b815f015114158015611d7c575085815f015114155b8015611d8c575080602001518511155b15611dce57806040517fccbb534f000000000000000000000000000000000000000000000000000000008152600401611dc59190614bd2565b60405180910390fd5b5050505b9550955095509550959050565b5f611de9826130f2565b9050919050565b611e497fc852adf5e97c2fc3b38f405671e91b7af1697ef0287577f227ef10494c2a8e865f1b846bffffffffffffffffffffffff841660608673ffffffffffffffffffffffffffffffffffffffff16901b175f1b611fef565b505050565b80305550565b5f5f83358060f81c925060019150509250929050565b5f5f8483013573ffffffffffffffffffffffffffffffffffffffff8160601c16925060148401915050935093915050565b5f5f858401356008840261010003600180866008021b0382821c1693508486019250505094509492505050565b5f5f8483013561ffff8160f01c16925060028401915050935093915050565b5f5f848301358060f81c925060018401915050935093915050565b5f5f8483013573ffffffffffffffffffffffffffffffffffffffff8160601c16925060148401915050935093915050565b5f5f848301359150602083019050935093915050565b5f5f8483013562ffffff8160e81c16925060038401915050935093915050565b611f9a7f8d0bf1fd623d628c741362c1289948e57b3e2905218c676d3e69abee36d6ae2e5f1b835f1b835f1b611fef565b5050565b5f5f5f8351602085018787f490509392505050565b5f5f5f835160208501878988f19050949350505050565b60603d604051915060208201818101604052818352815f823e505090565b8082555050565b5f838360405160200161200392919061478c565b60405160208183030381529060405280519060200120905081815550505050565b5f7f8b73c3c69bb8fe3d512ecc4cf759cc79239f7b179b0ffacaa9a75d522b39400f7f4aa45ca7ad825ceb1bf35643f0a58c295239df563b1b565c2485f96477c563187f2a80e1ef1d7842f27f2e6be0972bb708b9a135c38860dbe73c27c3486c34f4de856120935746612095565b5f5b856040516020016120aa959493929190614beb565b60405160208183030381529060405280519060200120905092915050565b5f5f8261010001516040516020016120e09190614cc8565b6040516020818303038152906040528051906020012090505f60ff16835f015160ff1603612178575f6121168460400151613135565b90507f11e1e4079a79a66e4ade50033cfe2678cdd5341d2dfe5ef9513edb1a0be147a2818560600151866080015185604051602001612159959493929190614cde565b60405160208183030381529060405280519060200120925050506122f7565b600160ff16835f015160ff16036121e7577fe19a3b94fc3c7ece3f890d98a99bc422615537a08dea0603fa8425867d87d4668360a0015180519060200120826040516020016121c993929190614d2f565b604051602081830303815290604052805190602001209150506122f7565b600260ff16835f015160ff160361224f577f11fdeb7e8373a1aa96bfac8d0ea91526b2c5d15e5cee20e0543e780258f3e8e48360c001518260405160200161223193929190614d2f565b604051602081830303815290604052805190602001209150506122f7565b600360ff16835f015160ff16036122b7577fe19a3b94fc3c7ece3f890d98a99bc422615537a08dea0603fa8425867d87d4668360e001518260405160200161229993929190614d2f565b604051602081830303815290604052805190602001209150506122f7565b825f01516040517f048183200000000000000000000000000000000000000000000000000000000081526004016122ee9190614d73565b60405180910390fd5b919050565b5f5f5f5f5f61230961338f565b6002815f019060ff16908160ff16815250505f5f7fffffffffffffffffffffffffffffffffffffffffffffffffffffffffffffffff90505b898990508210156124f6575f5f612363848d8d611f499290919263ffffffff16565b8162ffffff1691508095508192505050838161237f91906142fe565b9150505f8b8b90508214612393575f612395565b8d5b90507fffffffffffffffffffffffffffffffffffffffffffffffffffffffffffffffff83036123f5576123dc8f8d8d879086926123d49392919061483e565b600185611aa2565b809a50819b50829c50839d50849e505050505050612425565b612413858d8d8790869261240b9392919061483e565b600185611aa2565b50809a50819b50829c50839d50505050505b89891015612480578b8b8590849261243f9392919061483e565b8b8b6040517fb006aba00000000000000000000000000000000000000000000000000000000081526004016124779493929190614d8c565b60405180910390fd5b819350878d5f015103612499575f5f1b8d5f0181815250505b8287106124df5786836040517f37daf62b0000000000000000000000000000000000000000000000000000000081526004016124d692919061480f565b60405180910390fd5b878560c00181815250508692508193505050612341565b5f5f1b8b5f01511415801561250f57508a602001518511155b15612551578a6040517fccbb534f0000000000000000000000000000000000000000000000000000000081526004016125489190614bd2565b60405180910390fd5b5050509550955095509550959050565b5f5f5f5b848490508110156130d4575f612586828787611ee79290919263ffffffff16565b8160ff16915080935081925050505f600460f08316901c90505f81036126de575f600f831690505f8160ff16036125d5576125cc848989611ee79290919263ffffffff16565b80955081925050505b5f5f6125ec868b8b6131af9290919263ffffffff16565b8097508193505050612609868b8b6131af9290919263ffffffff16565b80975081925050505f60ff82901c5f1c90505f7f7fffffffffffffffffffffffffffffffffffffffffffffffffffffffffffffff835f1c165f1b90505f601b830190505f60018f8388866040515f815260200160405260405161266f9493929190614dca565b6020604051602081039080840390855afa15801561268f573d5f5f3e3d5ffd5b5050506020604051035190508660ff168c019b505f6126b1828960ff166131c5565b90505f5f1b8c036126c257806126cd565b6126cc8c826130de565b5b9b5050505050505050505050612565565b60018103612769575f600f831690505f8160ff16036127155761270c848989611ee79290919263ffffffff16565b80955081925050505b5f61272b858a8a611f029290919263ffffffff16565b80965081925050505f612741828460ff166131c5565b90505f5f1b8703612752578061275d565b61275c87826130de565b5b96505050505050612565565b60028103612968575f6003831690505f8160ff16036127a057612797848989611ee79290919263ffffffff16565b80955081925050505b5f6127b6858a8a611f029290919263ffffffff16565b80965081925050505f6002600c861660ff16901c60ff1690505f6127ec87838d8d611e9b9190939291909392919063ffffffff16565b80985081925050505f81880190506320c13b0b60e01b7bffffffffffffffffffffffffffffffffffffffffffffffffffffffff19168473ffffffffffffffffffffffffffffffffffffffff16631626ba7e8f8f8f8d9087926128509392919061483e565b6040518463ffffffff1660e01b815260040161286e93929190614e0d565b602060405180830381865afa158015612889573d5f5f3e3d5ffd5b505050506040513d601f19601f820116820180604052508101906128ad9190614e51565b7bffffffffffffffffffffffffffffffffffffffffffffffffffffffff191614612924578c848d8d8b9085926128e59392919061483e565b6040517fb2fed7ae00000000000000000000000000000000000000000000000000000000815260040161291b9493929190614e7c565b60405180910390fd5b8097508460ff168a0199505f61293d858760ff166131c5565b90505f5f1b8a0361294e5780612959565b6129588a826130de565b5b99505050505050505050612565565b600381036129b2575f6129868489896131af9290919263ffffffff16565b80955081925050505f5f1b850361299d57806129a8565b6129a785826130de565b5b9450505050612565565b60048103612a34575f600f831660ff1690505f6129e185838b8b611e9b9190939291909392919063ffffffff16565b80965081925050505f81860190505f5f612a0d8e8e8e8e8c908892612a089392919061483e565b612561565b91509150829750818a019950612a2389826130de565b985082975050505050505050612565565b60068103612b44575f6002600c841660ff16901c60ff1690505f8103612a7857612a69848989611ee79290919263ffffffff16565b8160ff16915080955081925050505b5f6003841660ff1690505f8103612aae57612a9e858a8a611ec89290919263ffffffff16565b8161ffff16915080965081925050505b5f612ac4868b8b611f499290919263ffffffff16565b8162ffffff16915080975081925050505f81870190505f5f612af88f8f8f8f8d908892612af39392919061483e565b612561565b91509150829850848210612b0c57858b019a505b5f612b188287896131f7565b90505f5f1b8b03612b295780612b34565b612b338b826130de565b5b9a50505050505050505050612565565b60058103612bc6575f612b628489896131af9290919263ffffffff16565b8095508192505050888103612b95577fffffffffffffffffffffffffffffffffffffffffffffffffffffffffffffffff95505b5f612b9f8261322c565b90505f5f1b8603612bb05780612bbb565b612bba86826130de565b5b955050505050612565565b60078103612d2c575f600f831690505f8160ff1603612bfd57612bf4848989611ee79290919263ffffffff16565b80955081925050505b5f5f612c14868b8b6131af9290919263ffffffff16565b8097508193505050612c31868b8b6131af9290919263ffffffff16565b80975081925050505f60ff82901c5f1c90505f7f7fffffffffffffffffffffffffffffffffffffffffffffffffffffffffffffff835f1c165f1b90505f601b830190505f60018f604051602001612c889190614f04565b604051602081830303815290604052805190602001208388866040515f8152602001604052604051612cbd9493929190614dca565b6020604051602081039080840390855afa158015612cdd573d5f5f3e3d5ffd5b5050506020604051035190508660ff168c019b505f612cff828960ff166131c5565b90505f5f1b8c03612d105780612d1b565b612d1a8c826130de565b5b9b5050505050505050505050612565565b60088103612dc5575f612d4a8489896131af9290919263ffffffff16565b80955081925050505f612d665f8c61325b90919063ffffffff16565b9050808203612d93577fffffffffffffffffffffffffffffffffffffffffffffffffffffffffffffffff96505b5f612d9d826132ac565b90505f5f1b8703612dae5780612db9565b612db887826130de565b5b96505050505050612565565b60098103612f2e575f6003831690505f8160ff1603612dfc57612df3848989611ee79290919263ffffffff16565b80955081925050505b5f612e12858a8a611f029290919263ffffffff16565b80965081925050505f5f6002600c871660ff16901c60ff169050612e4887828d8d611e9b9190939291909392919063ffffffff16565b8098508193505050505f81870190505f8373ffffffffffffffffffffffffffffffffffffffff166313792a4a8f8e8e8c908792612e879392919061483e565b6040518463ffffffff1660e01b8152600401612ea593929190614f29565b602060405180830381865afa158015612ec0573d5f5f3e3d5ffd5b505050506040513d601f19601f82011682018060405250810190612ee49190614f60565b90508197508460ff168a0199505f612f00858760ff16846132db565b90505f5f1b8a03612f115780612f1c565b612f1b8a826130de565b5b99508298505050505050505050612565565b600a8103613097575f6003831690505f8160ff1603612f6557612f5c848989611ee79290919263ffffffff16565b80955081925050505b5f612f7b858a8a611f029290919263ffffffff16565b80965081925050505f6002600c861660ff16901c60ff1690505f612fb187838d8d611e9b9190939291909392919063ffffffff16565b80985081925050505f81880190505f8473ffffffffffffffffffffffffffffffffffffffff1663898bd9218f8f8f8d908792612fef9392919061483e565b6040518463ffffffff1660e01b815260040161300d93929190614e0d565b602060405180830381865afa158015613028573d5f5f3e3d5ffd5b505050506040513d601f19601f8201168201806040525081019061304c9190614f60565b90508198508560ff168b019a505f613068868860ff16846132db565b90505f5f1b8b036130795780613084565b6130838b826130de565b5b9a50829950505050505050505050612565565b806040517fb2505f7c0000000000000000000000000000000000000000000000000000000081526004016130cb9190613f92565b60405180910390fd5b5094509492505050565b5f825f528160205260405f20905092915050565b5f5f5f1b821415801561312e575061312b7fea7157fa25e3aa17d0ae2d5280fa4e24d421c61842aa85e45194e1145aa72bf85f1b6119ef565b82145b9050919050565b5f60605f5f90505b835181101561319e575f61316a85838151811061315d5761315c614331565b5b6020026020010151613310565b9050828160405160200161317f929190614fbb565b604051602081830303815290604052925050808060010191505061313d565b508080519060200120915050919050565b5f5f848301359150602083019050935093915050565b5f82826040516020016131d9929190615091565b60405160208183030381529060405280519060200120905092915050565b5f83838360405160200161320d93929190615111565b6040516020818303038152906040528051906020012090509392505050565b5f8160405160200161323e91906151a2565b604051602081830303815290604052805190602001209050919050565b5f5f61326b846020015184612024565b90505f613277856120c8565b9050818160405160200161328c929190614aa1565b604051602081830303815290604052805190602001209250505092915050565b5f816040516020016132be9190615211565b604051602081830303815290604052805190602001209050919050565b5f8383836040516020016132f193929190615280565b6040516020818303038152906040528051906020012090509392505050565b5f7f0603985259a953da1f65a522f589c17bd1d0117ec1d3abb7c0788aef251ef437825f01518360200151846040015180519060200120856060015186608001518760a001518860c001516040516020016133729897969594939291906152c7565b604051602081830303815290604052805190602001209050919050565b6040518061012001604052805f60ff1681526020015f15158152602001606081526020015f81526020015f8152602001606081526020015f81526020015f8152602001606081525090565b6040518060e001604052805f73ffffffffffffffffffffffffffffffffffffffff1681526020015f8152602001606081526020015f81526020015f151581526020015f151581526020015f81525090565b60405180604001604052805f81526020015f81525090565b5f82905092915050565b5f7fffffffff0000000000000000000000000000000000000000000000000000000082169050919050565b5f82821b905092915050565b5f61348f8383613443565b8261349a813561344d565b925060048210156134da576134d57fffffffff0000000000000000000000000000000000000000000000000000000083600403600802613478565b831692505b505092915050565b5f81905092915050565b828183375f83830152505050565b5f61350583856134e2565b93506135128385846134ec565b82840190509392505050565b5f61352a8284866134fa565b91508190509392505050565b5f604051905090565b5f5ffd5b5f5ffd5b5f73ffffffffffffffffffffffffffffffffffffffff82169050919050565b5f61357082613547565b9050919050565b61358081613566565b811461358a575f5ffd5b50565b5f8135905061359b81613577565b92915050565b5f602082840312156135b6576135b561353f565b5b5f6135c38482850161358d565b91505092915050565b5f5ffd5b5f601f19601f8301169050919050565b7f4e487b71000000000000000000000000000000000000000000000000000000005f52604160045260245ffd5b613616826135d0565b810181811067ffffffffffffffff82111715613635576136346135e0565b5b80604052505050565b5f613647613536565b9050613653828261360d565b919050565b5f5ffd5b5f60ff82169050919050565b6136718161365c565b811461367b575f5ffd5b50565b5f8135905061368c81613668565b92915050565b5f8115159050919050565b6136a681613692565b81146136b0575f5ffd5b50565b5f813590506136c18161369d565b92915050565b5f5ffd5b5f67ffffffffffffffff8211156136e5576136e46135e0565b5b602082029050602081019050919050565b5f5ffd5b5f819050919050565b61370c816136fa565b8114613716575f5ffd5b50565b5f8135905061372781613703565b92915050565b5f5ffd5b5f67ffffffffffffffff82111561374b5761374a6135e0565b5b613754826135d0565b9050602081019050919050565b5f61377361376e84613731565b61363e565b90508281526020810184848401111561378f5761378e61372d565b5b61379a8482856134ec565b509392505050565b5f82601f8301126137b6576137b56136c7565b5b81356137c6848260208601613761565b91505092915050565b5f60e082840312156137e4576137e36135cc565b5b6137ee60e061363e565b90505f6137fd8482850161358d565b5f83015250602061381084828501613719565b602083015250604082013567ffffffffffffffff81111561383457613833613658565b5b613840848285016137a2565b604083015250606061385484828501613719565b6060830152506080613868848285016136b3565b60808301525060a061387c848285016136b3565b60a08301525060c061389084828501613719565b60c08301525092915050565b5f6138ae6138a9846136cb565b61363e565b905080838252602082019050602084028301858111156138d1576138d06136f6565b5b835b8181101561391857803567ffffffffffffffff8111156138f6576138f56136c7565b5b80860161390389826137cf565b855260208501945050506020810190506138d3565b5050509392505050565b5f82601f830112613936576139356136c7565b5b813561394684826020860161389c565b91505092915050565b5f819050919050565b6139618161394f565b811461396b575f5ffd5b50565b5f8135905061397c81613958565b92915050565b5f67ffffffffffffffff82111561399c5761399b6135e0565b5b602082029050602081019050919050565b5f6139bf6139ba84613982565b61363e565b905080838252602082019050602084028301858111156139e2576139e16136f6565b5b835b81811015613a0b57806139f7888261358d565b8452602084019350506020810190506139e4565b5050509392505050565b5f82601f830112613a2957613a286136c7565b5b8135613a398482602086016139ad565b91505092915050565b5f6101208284031215613a5857613a576135cc565b5b613a6361012061363e565b90505f613a728482850161367e565b5f830152506020613a85848285016136b3565b602083015250604082013567ffffffffffffffff811115613aa957613aa8613658565b5b613ab584828501613922565b6040830152506060613ac984828501613719565b6060830152506080613add84828501613719565b60808301525060a082013567ffffffffffffffff811115613b0157613b00613658565b5b613b0d848285016137a2565b60a08301525060c0613b218482850161396e565b60c08301525060e0613b358482850161396e565b60e08301525061010082013567ffffffffffffffff811115613b5a57613b59613658565b5b613b6684828501613a15565b6101008301525092915050565b5f5ffd5b5f5f83601f840112613b8c57613b8b6136c7565b5b8235905067ffffffffffffffff811115613ba957613ba8613b73565b5b602083019150836001820283011115613bc557613bc46136f6565b5b9250929050565b5f5f5f60408486031215613be357613be261353f565b5b5f84013567ffffffffffffffff811115613c0057613bff613543565b5b613c0c86828701613a42565b935050602084013567ffffffffffffffff811115613c2d57613c2c613543565b5b613c3986828701613b77565b92509250509250925092565b613c4e8161394f565b82525050565b5f602082019050613c675f830184613c45565b92915050565b5f5f5f5f5f60808688031215613c8657613c8561353f565b5b5f613c938882890161358d565b9550506020613ca48882890161358d565b9450506040613cb588828901613719565b935050606086013567ffffffffffffffff811115613cd657613cd5613543565b5b613ce288828901613b77565b92509250509295509295909350565b613cfa8161344d565b82525050565b5f602082019050613d135f830184613cf1565b92915050565b5f5f5f60408486031215613d3057613d2f61353f565b5b5f613d3d8682870161396e565b935050602084013567ffffffffffffffff811115613d5e57613d5d613543565b5b613d6a86828701613b77565b92509250509250925092565b613d7f8161344d565b8114613d89575f5ffd5b50565b5f81359050613d9a81613d76565b92915050565b5f60208284031215613db557613db461353f565b5b5f613dc284828501613d8c565b91505092915050565b613dd481613566565b82525050565b5f602082019050613ded5f830184613dcb565b92915050565b5f5f5f5f60408587031215613e0b57613e0a61353f565b5b5f85013567ffffffffffffffff811115613e2857613e27613543565b5b613e3487828801613b77565b9450945050602085013567ffffffffffffffff811115613e5757613e56613543565b5b613e6387828801613b77565b925092505092959194509250565b5f60208284031215613e8657613e8561353f565b5b5f613e938482850161396e565b91505092915050565b5f5f60208385031215613eb257613eb161353f565b5b5f83013567ffffffffffffffff811115613ecf57613ece613543565b5b613edb85828601613b77565b92509250509250929050565b5f5f5f5f60608587031215613eff57613efe61353f565b5b5f613f0c8782880161358d565b9450506020613f1d87828801613719565b935050604085013567ffffffffffffffff811115613f3e57613f3d613543565b5b613f4a87828801613b77565b925092505092959194509250565b5f60208284031215613f6d57613f6c61353f565b5b5f613f7a84828501613719565b91505092915050565b613f8c816136fa565b82525050565b5f602082019050613fa55f830184613f83565b92915050565b5f604082019050613fbe5f830185613dcb565b613fcb6020830184613f83565b9392505050565b613fdb81613692565b82525050565b5f60c082019050613ff45f830189613f83565b6140016020830188613f83565b61400e6040830187613fd2565b61401b6060830186613c45565b6140286080830185613f83565b61403560a0830184613c45565b979650505050505050565b5f5f604083850312156140565761405561353f565b5b5f61406385828601613d8c565b92505060206140748582860161358d565b9150509250929050565b5f5f83601f840112614093576140926136c7565b5b8235905067ffffffffffffffff8111156140b0576140af613b73565b5b6020830191508360208202830111156140cc576140cb6136f6565b5b9250929050565b5f5f5f5f5f5f5f5f60a0898b0312156140ef576140ee61353f565b5b5f6140fc8b828c0161358d565b985050602061410d8b828c0161358d565b975050604089013567ffffffffffffffff81111561412e5761412d613543565b5b61413a8b828c0161407e565b9650965050606089013567ffffffffffffffff81111561415d5761415c613543565b5b6141698b828c0161407e565b9450945050608089013567ffffffffffffffff81111561418c5761418b613543565b5b6141988b828c01613b77565b92509250509295985092959890939650565b5f5f5f5f5f5f60a087890312156141c4576141c361353f565b5b5f6141d189828a0161358d565b96505060206141e289828a0161358d565b95505060406141f389828a01613719565b945050606061420489828a01613719565b935050608087013567ffffffffffffffff81111561422557614224613543565b5b61423189828a01613b77565b92509250509295509295509295565b5f6bffffffffffffffffffffffff82169050919050565b61426081614240565b811461426a575f5ffd5b50565b5f8135905061427b81614257565b92915050565b5f5f5f606084860312156142985761429761353f565b5b5f6142a58682870161396e565b93505060206142b68682870161358d565b92505060406142c78682870161426d565b9150509250925092565b7f4e487b71000000000000000000000000000000000000000000000000000000005f52601160045260245ffd5b5f614308826136fa565b9150614313836136fa565b925082820190508082111561432b5761432a6142d1565b5b92915050565b7f4e487b71000000000000000000000000000000000000000000000000000000005f52603260045260245ffd5b6143678161365c565b82525050565b61437681613692565b82525050565b5f81519050919050565b5f82825260208201905092915050565b5f819050602082019050919050565b6143ae81613566565b82525050565b6143bd816136fa565b82525050565b5f81519050919050565b5f82825260208201905092915050565b8281835e5f83830152505050565b5f6143f5826143c3565b6143ff81856143cd565b935061440f8185602086016143dd565b614418816135d0565b840191505092915050565b5f60e083015f8301516144385f8601826143a5565b50602083015161444b60208601826143b4565b506040830151848203604086015261446382826143eb565b915050606083015161447860608601826143b4565b50608083015161448b608086018261436d565b5060a083015161449e60a086018261436d565b5060c08301516144b160c08601826143b4565b508091505092915050565b5f6144c78383614423565b905092915050565b5f602082019050919050565b5f6144e58261437c565b6144ef8185614386565b93508360208202850161450185614396565b805f5b8581101561453c578484038952815161451d85826144bc565b9450614528836144cf565b925060208a01995050600181019050614504565b50829750879550505050505092915050565b6145578161394f565b82525050565b5f81519050919050565b5f82825260208201905092915050565b5f819050602082019050919050565b5f61459183836143a5565b60208301905092915050565b5f602082019050919050565b5f6145b38261455d565b6145bd8185614567565b93506145c883614577565b805f5b838110156145f85781516145df8882614586565b97506145ea8361459d565b9250506001810190506145cb565b5085935050505092915050565b5f61012083015f83015161461b5f86018261435e565b50602083015161462e602086018261436d565b506040830151848203604086015261464682826144db565b915050606083015161465b60608601826143b4565b50608083015161466e60808601826143b4565b5060a083015184820360a086015261468682826143eb565b91505060c083015161469b60c086018261454e565b5060e08301516146ae60e086018261454e565b506101008301518482036101008601526146c882826145a9565b9150508091505092915050565b5f82825260208201905092915050565b5f6146f083856146d5565b93506146fd8385846134ec565b614706836135d0565b840190509392505050565b5f6040820190508181035f8301526147298186614605565b9050818103602083015261473e8184866146e5565b9050949350505050565b61475181614240565b82525050565b5f60608201905061476a5f830186613c45565b6147776020830185613dcb565b6147846040830184614748565b949350505050565b5f60408201905061479f5f830185613c45565b6147ac6020830184613c45565b9392505050565b5f6040820190506147c65f830185613c45565b6147d36020830184613f83565b9392505050565b5f6060820190506147ed5f830186613c45565b6147fa6020830185613dcb565b6148076040830184613dcb565b949350505050565b5f6040820190506148225f830185613f83565b61482f6020830184613f83565b9392505050565b5f5ffd5b5f5ffd5b5f5f8585111561485157614850614836565b5b838611156148625761486161483a565b5b6001850283019150848603905094509492505050565b5f60608201905061488b5f830186613f83565b6148986020830185613f83565b6148a56040830184613f83565b949350505050565b5f6060820190508181035f8301526148c58186614605565b90506148d46020830185613f83565b6148e16040830184613f83565b949350505050565b5f6148f3826143c3565b6148fd81856146d5565b935061490d8185602086016143dd565b614916816135d0565b840191505092915050565b5f60c0820190506149345f830189613c45565b6149416020830188613f83565b61494e6040830187613f83565b61495b6060830186613f83565b6149686080830185613f83565b81810360a083015261497a81846148e9565b9050979650505050505050565b5f60608201905061499a5f830186613c45565b6149a76020830185613f83565b81810360408301526149b981846148e9565b9050949350505050565b5f6060820190508181035f8301526149db8186614605565b90506149ea6020830185613f83565b81810360408301526149fc81846148e9565b9050949350505050565b5f604082019050614a195f830185613cf1565b614a266020830184613dcb565b9392505050565b5f81905092915050565b7f19010000000000000000000000000000000000000000000000000000000000005f82015250565b5f614a6b600283614a2d565b9150614a7682614a37565b600282019050919050565b5f819050919050565b614a9b614a968261394f565b614a81565b82525050565b5f614aab82614a5f565b9150614ab78285614a8a565b602082019150614ac78284614a8a565b6020820191508190509392505050565b5f604082019050614aea5f830185613dcb565b8181036020830152614afc81846148e9565b90509392505050565b5f81519050614b1381613958565b92915050565b5f81519050614b2781613703565b92915050565b5f60408284031215614b4257614b416135cc565b5b614b4c604061363e565b90505f614b5b84828501614b05565b5f830152506020614b6e84828501614b19565b60208301525092915050565b5f60408284031215614b8f57614b8e61353f565b5b5f614b9c84828501614b2d565b91505092915050565b604082015f820151614bb95f85018261454e565b506020820151614bcc60208501826143b4565b50505050565b5f604082019050614be55f830184614ba5565b92915050565b5f60a082019050614bfe5f830188613c45565b614c0b6020830187613c45565b614c186040830186613c45565b614c256060830185613f83565b614c326080830184613dcb565b9695505050505050565b5f81905092915050565b614c4f81613566565b82525050565b5f614c608383614c46565b60208301905092915050565b5f614c768261455d565b614c808185614c3c565b9350614c8b83614577565b805f5b83811015614cbb578151614ca28882614c55565b9750614cad8361459d565b925050600181019050614c8e565b5085935050505092915050565b5f614cd38284614c6c565b915081905092915050565b5f60a082019050614cf15f830188613c45565b614cfe6020830187613c45565b614d0b6040830186613f83565b614d186060830185613f83565b614d256080830184613c45565b9695505050505050565b5f606082019050614d425f830186613c45565b614d4f6020830185613c45565b614d5c6040830184613c45565b949350505050565b614d6d8161365c565b82525050565b5f602082019050614d865f830184614d64565b92915050565b5f6060820190508181035f830152614da58186886146e5565b9050614db46020830185613f83565b614dc16040830184613f83565b95945050505050565b5f608082019050614ddd5f830187613c45565b614dea6020830186614d64565b614df76040830185613c45565b614e046060830184613c45565b95945050505050565b5f604082019050614e205f830186613c45565b8181036020830152614e338184866146e5565b9050949350505050565b5f81519050614e4b81613d76565b92915050565b5f60208284031215614e6657614e6561353f565b5b5f614e7384828501614e3d565b91505092915050565b5f606082019050614e8f5f830187613c45565b614e9c6020830186613dcb565b8181036040830152614eaf8184866146e5565b905095945050505050565b7f19457468657265756d205369676e6564204d6573736167653a0a3332000000005f82015250565b5f614eee601c83614a2d565b9150614ef982614eba565b601c82019050919050565b5f614f0e82614ee2565b9150614f1a8284614a8a565b60208201915081905092915050565b5f6040820190508181035f830152614f418186614605565b90508181036020830152614f568184866146e5565b9050949350505050565b5f60208284031215614f7557614f7461353f565b5b5f614f8284828501614b05565b91505092915050565b5f614f95826143c3565b614f9f81856134e2565b9350614faf8185602086016143dd565b80840191505092915050565b5f614fc68285614f8b565b9150614fd28284614a8a565b6020820191508190509392505050565b7f53657175656e6365207369676e65723a0a0000000000000000000000000000005f82015250565b5f615016601183614a2d565b915061502182614fe2565b601182019050919050565b5f8160601b9050919050565b5f6150428261502c565b9050919050565b5f61505382615038565b9050919050565b61506b61506682613566565b615049565b82525050565b5f819050919050565b61508b615086826136fa565b615071565b82525050565b5f61509b8261500a565b91506150a7828561505a565b6014820191506150b7828461507a565b6020820191508190509392505050565b7f53657175656e6365206e657374656420636f6e6669673a0a00000000000000005f82015250565b5f6150fb601883614a2d565b9150615106826150c7565b601882019050919050565b5f61511b826150ef565b91506151278286614a8a565b602082019150615137828561507a565b602082019150615147828461507a565b602082019150819050949350505050565b7f53657175656e636520737461746963206469676573743a0a00000000000000005f82015250565b5f61518c601883614a2d565b915061519782615158565b601882019050919050565b5f6151ac82615180565b91506151b88284614a8a565b60208201915081905092915050565b7f53657175656e636520616e792061646472657373207375626469676573743a0a5f82015250565b5f6151fb602083614a2d565b9150615206826151c7565b602082019050919050565b5f61521b826151ef565b91506152278284614a8a565b60208201915081905092915050565b7f53657175656e63652073617069656e7420636f6e6669673a0a000000000000005f82015250565b5f61526a601983614a2d565b915061527582615236565b601982019050919050565b5f61528a8261525e565b9150615296828661505a565b6014820191506152a6828561507a565b6020820191506152b68284614a8a565b602082019150819050949350505050565b5f610100820190506152db5f83018b613c45565b6152e8602083018a613dcb565b6152f56040830189613f83565b6153026060830188613c45565b61530f6080830187613f83565b61531c60a0830186613fd2565b61532960c0830185613fd2565b61533660e0830184613f83565b999850505050505050505056fea26469706673582212201e48576cbe5bb3b73d7e8577d0bfae83c8eff61c6a3e9597cb1efaf8ad258b3064736f6c634300081c0033",
  "linkReferences": {},
  "deployedLinkReferences": {}
}