{
  "_format": "hh-sol-artifact-1",
  "contractName": "Stage2Module",
  "sourceName": "src/Stage2Module.sol",
  "abi": [
    {
      "inputs": [
        {
          "internalType": "uint256",
          "name": "_space",
          "type": "uint256"
        },
        {
          "internalType": "uint256",
          "name": "_provided",
          "type": "uint256"
        },
        {
          "internalType": "uint256",
          "name": "_current",
          "type": "uint256"
        }
      ],
      "name": "BadNonce",
      "type": "error"
    },
    {
      "inputs": [
        {
          "internalType": "bytes4",
          "name": "signature",
          "type": "bytes4"
        }
      ],
      "name": "HookAlreadyExists",
      "type": "error"
    },
    {
      "inputs": [
        {
          "internalType": "bytes4",
          "name": "signature",
          "type": "bytes4"
        }
      ],
      "name": "HookDoesNotExist",
      "type": "error"
    },
    {
      "inputs": [],
      "name": "ImageHashIsZero",
      "type": "error"
    },
    {
      "inputs": [
        {
          "components": [
            {
              "internalType": "uint8",
              "name": "kind",
              "type": "uint8"
            },
            {
              "internalType": "bool",
              "name": "noChainId",
              "type": "bool"
            },
            {
              "components": [
                {
                  "internalType": "address",
                  "name": "to",
                  "type": "address"
                },
                {
                  "internalType": "uint256",
                  "name": "value",
                  "type": "uint256"
                },
                {
                  "internalType": "bytes",
                  "name": "data",
                  "type": "bytes"
                },
                {
                  "internalType": "uint256",
                  "name": "gasLimit",
                  "type": "uint256"
                },
                {
                  "internalType": "bool",
                  "name": "delegateCall",
                  "type": "bool"
                },
                {
                  "internalType": "bool",
                  "name": "onlyFallback",
                  "type": "bool"
                },
                {
                  "internalType": "uint256",
                  "name": "behaviorOnError",
                  "type": "uint256"
                }
              ],
              "internalType": "struct Payload.Call[]",
              "name": "calls",
              "type": "tuple[]"
            },
            {
              "internalType": "uint256",
              "name": "space",
              "type": "uint256"
            },
            {
              "internalType": "uint256",
              "name": "nonce",
              "type": "uint256"
            },
            {
              "internalType": "bytes",
              "name": "message",
              "type": "bytes"
            },
            {
              "internalType": "bytes32",
              "name": "imageHash",
              "type": "bytes32"
            },
            {
              "internalType": "bytes32",
              "name": "digest",
              "type": "bytes32"
            },
            {
              "internalType": "address[]",
              "name": "parentWallets",
              "type": "address[]"
            }
          ],
          "internalType": "struct Payload.Decoded",
          "name": "_payload",
          "type": "tuple"
        },
        {
          "internalType": "bytes32",
          "name": "_subdigest",
          "type": "bytes32"
        },
        {
          "internalType": "address",
          "name": "_signer",
          "type": "address"
        },
        {
          "internalType": "bytes",
          "name": "_signature",
          "type": "bytes"
        }
      ],
      "name": "InvalidNestedSignature",
      "type": "error"
    },
    {
      "inputs": [
        {
          "components": [
            {
              "internalType": "uint8",
              "name": "kind",
              "type": "uint8"
            },
            {
              "internalType": "bool",
              "name": "noChainId",
              "type": "bool"
            },
            {
              "components": [
                {
                  "internalType": "address",
                  "name": "to",
                  "type": "address"
                },
                {
                  "internalType": "uint256",
                  "name": "value",
                  "type": "uint256"
                },
                {
                  "internalType": "bytes",
                  "name": "data",
                  "type": "bytes"
                },
                {
                  "internalType": "uint256",
                  "name": "gasLimit",
                  "type": "uint256"
                },
                {
                  "internalType": "bool",
                  "name": "delegateCall",
                  "type": "bool"
                },
                {
                  "internalType": "bool",
                  "name": "onlyFallback",
                  "type": "bool"
                },
                {
                  "internalType": "uint256",
                  "name": "behaviorOnError",
                  "type": "uint256"
                }
              ],
              "internalType": "struct Payload.Call[]",
              "name": "calls",
              "type": "tuple[]"
            },
            {
              "internalType": "uint256",
              "name": "space",
              "type": "uint256"
            },
            {
              "internalType": "uint256",
              "name": "nonce",
              "type": "uint256"
            },
            {
              "internalType": "bytes",
              "name": "message",
              "type": "bytes"
            },
            {
              "internalType": "bytes32",
              "name": "imageHash",
              "type": "bytes32"
            },
            {
              "internalType": "bytes32",
              "name": "digest",
              "type": "bytes32"
            },
            {
              "internalType": "address[]",
              "name": "parentWallets",
              "type": "address[]"
            }
          ],
          "internalType": "struct Payload.Decoded",
          "name": "_payload",
          "type": "tuple"
        },
        {
          "internalType": "bytes",
          "name": "_signature",
          "type": "bytes"
        }
      ],
      "name": "InvalidSapientSignature",
      "type": "error"
    },
    {
      "inputs": [
        {
          "components": [
            {
              "internalType": "uint8",
              "name": "kind",
              "type": "uint8"
            },
            {
              "internalType": "bool",
              "name": "noChainId",
              "type": "bool"
            },
            {
              "components": [
                {
                  "internalType": "address",
                  "name": "to",
                  "type": "address"
                },
                {
                  "internalType": "uint256",
                  "name": "value",
                  "type": "uint256"
                },
                {
                  "internalType": "bytes",
                  "name": "data",
                  "type": "bytes"
                },
                {
                  "internalType": "uint256",
                  "name": "gasLimit",
                  "type": "uint256"
                },
                {
                  "internalType": "bool",
                  "name": "delegateCall",
                  "type": "bool"
                },
                {
                  "internalType": "bool",
                  "name": "onlyFallback",
                  "type": "bool"
                },
                {
                  "internalType": "uint256",
                  "name": "behaviorOnError",
                  "type": "uint256"
                }
              ],
              "internalType": "struct Payload.Call[]",
              "name": "calls",
              "type": "tuple[]"
            },
            {
              "internalType": "uint256",
              "name": "space",
              "type": "uint256"
            },
            {
              "internalType": "uint256",
              "name": "nonce",
              "type": "uint256"
            },
            {
              "internalType": "bytes",
              "name": "message",
              "type": "bytes"
            },
            {
              "internalType": "bytes32",
              "name": "imageHash",
              "type": "bytes32"
            },
            {
              "internalType": "bytes32",
              "name": "digest",
              "type": "bytes32"
            },
            {
              "internalType": "address[]",
              "name": "parentWallets",
              "type": "address[]"
            }
          ],
          "internalType": "struct Payload.Decoded",
          "name": "_payload",
          "type": "tuple"
        },
        {
          "internalType": "bytes",
          "name": "_signature",
          "type": "bytes"
        }
      ],
      "name": "InvalidSignature",
      "type": "error"
    },
    {
      "inputs": [
        {
          "internalType": "uint256",
          "name": "_flag",
          "type": "uint256"
        }
      ],
      "name": "InvalidSignatureFlag",
      "type": "error"
    },
    {
      "inputs": [
        {
          "internalType": "bytes32",
          "name": "_opHash",
          "type": "bytes32"
        },
        {
          "internalType": "uint256",
          "name": "_expires",
          "type": "uint256"
        }
      ],
      "name": "InvalidStaticSignature",
      "type": "error"
    },
    {
      "inputs": [
        {
          "internalType": "bytes",
          "name": "_signature",
          "type": "bytes"
        },
        {
          "internalType": "uint256",
          "name": "_threshold",
          "type": "uint256"
        },
        {
          "internalType": "uint256",
          "name": "_weight",
          "type": "uint256"
        }
      ],
      "name": "LowWeightChainedSignature",
      "type": "error"
    },
    {
      "inputs": [
        {
          "components": [
            {
              "internalType": "uint8",
              "name": "kind",
              "type": "uint8"
            },
            {
              "internalType": "bool",
              "name": "noChainId",
              "type": "bool"
            },
            {
              "components": [
                {
                  "internalType": "address",
                  "name": "to",
                  "type": "address"
                },
                {
                  "internalType": "uint256",
                  "name": "value",
                  "type": "uint256"
                },
                {
                  "internalType": "bytes",
                  "name": "data",
                  "type": "bytes"
                },
                {
                  "internalType": "uint256",
                  "name": "gasLimit",
                  "type": "uint256"
                },
                {
                  "internalType": "bool",
                  "name": "delegateCall",
                  "type": "bool"
                },
                {
                  "internalType": "bool",
                  "name": "onlyFallback",
                  "type": "bool"
                },
                {
                  "internalType": "uint256",
                  "name": "behaviorOnError",
                  "type": "uint256"
                }
              ],
              "internalType": "struct Payload.Call[]",
              "name": "calls",
              "type": "tuple[]"
            },
            {
              "internalType": "uint256",
              "name": "space",
              "type": "uint256"
            },
            {
              "internalType": "uint256",
              "name": "nonce",
              "type": "uint256"
            },
            {
              "internalType": "bytes",
              "name": "message",
              "type": "bytes"
            },
            {
              "internalType": "bytes32",
              "name": "imageHash",
              "type": "bytes32"
            },
            {
              "internalType": "bytes32",
              "name": "digest",
              "type": "bytes32"
            },
            {
              "internalType": "address[]",
              "name": "parentWallets",
              "type": "address[]"
            }
          ],
          "internalType": "struct Payload.Decoded",
          "name": "_payload",
          "type": "tuple"
        },
        {
          "internalType": "uint256",
          "name": "_index",
          "type": "uint256"
        },
        {
          "internalType": "uint256",
          "name": "_gasLeft",
          "type": "uint256"
        }
      ],
      "name": "NotEnoughGas",
      "type": "error"
    },
    {
      "inputs": [
        {
          "internalType": "address",
          "name": "_sender",
          "type": "address"
        }
      ],
      "name": "OnlySelf",
      "type": "error"
    },
    {
      "inputs": [
        {
          "components": [
            {
              "internalType": "uint8",
              "name": "kind",
              "type": "uint8"
            },
            {
              "internalType": "bool",
              "name": "noChainId",
              "type": "bool"
            },
            {
              "components": [
                {
                  "internalType": "address",
                  "name": "to",
                  "type": "address"
                },
                {
                  "internalType": "uint256",
                  "name": "value",
                  "type": "uint256"
                },
                {
                  "internalType": "bytes",
                  "name": "data",
                  "type": "bytes"
                },
                {
                  "internalType": "uint256",
                  "name": "gasLimit",
                  "type": "uint256"
                },
                {
                  "internalType": "bool",
                  "name": "delegateCall",
                  "type": "bool"
                },
                {
                  "internalType": "bool",
                  "name": "onlyFallback",
                  "type": "bool"
                },
                {
                  "internalType": "uint256",
                  "name": "behaviorOnError",
                  "type": "uint256"
                }
              ],
              "internalType": "struct Payload.Call[]",
              "name": "calls",
              "type": "tuple[]"
            },
            {
              "internalType": "uint256",
              "name": "space",
              "type": "uint256"
            },
            {
              "internalType": "uint256",
              "name": "nonce",
              "type": "uint256"
            },
            {
              "internalType": "bytes",
              "name": "message",
              "type": "bytes"
            },
            {
              "internalType": "bytes32",
              "name": "imageHash",
              "type": "bytes32"
            },
            {
              "internalType": "bytes32",
              "name": "digest",
              "type": "bytes32"
            },
            {
              "internalType": "address[]",
              "name": "parentWallets",
              "type": "address[]"
            }
          ],
          "internalType": "struct Payload.Decoded",
          "name": "_payload",
          "type": "tuple"
        },
        {
          "internalType": "uint256",
          "name": "_index",
          "type": "uint256"
        },
        {
          "internalType": "bytes",
          "name": "_returnData",
          "type": "bytes"
        }
      ],
      "name": "Reverted",
      "type": "error"
    },
    {
      "inputs": [
        {
          "components": [
            {
              "internalType": "bytes32",
              "name": "imageHash",
              "type": "bytes32"
            },
            {
              "internalType": "uint256",
              "name": "checkpoint",
              "type": "uint256"
            }
          ],
          "internalType": "struct Snapshot",
          "name": "_snapshot",
          "type": "tuple"
        }
      ],
      "name": "UnusedSnapshot",
      "type": "error"
    },
    {
      "inputs": [
        {
          "internalType": "uint256",
          "name": "_nextCheckpoint",
          "type": "uint256"
        },
        {
          "internalType": "uint256",
          "name": "_checkpoint",
          "type": "uint256"
        }
      ],
      "name": "WrongChainedCheckpointOrder",
      "type": "error"
    },
    {
      "anonymous": false,
      "inputs": [
        {
          "indexed": false,
          "internalType": "bytes32",
          "name": "_opHash",
          "type": "bytes32"
        },
        {
          "indexed": false,
          "internalType": "uint256",
          "name": "_index",
          "type": "uint256"
        }
      ],
      "name": "CallAborted",
      "type": "event"
    },
    {
      "anonymous": false,
      "inputs": [
        {
          "indexed": false,
          "internalType": "bytes32",
          "name": "_opHash",
          "type": "bytes32"
        },
        {
          "indexed": false,
          "internalType": "uint256",
          "name": "_index",
          "type": "uint256"
        }
      ],
      "name": "CallFailed",
      "type": "event"
    },
    {
      "anonymous": false,
      "inputs": [
        {
          "indexed": false,
          "internalType": "bytes32",
          "name": "_opHash",
          "type": "bytes32"
        },
        {
          "indexed": false,
          "internalType": "uint256",
          "name": "_index",
          "type": "uint256"
        }
      ],
      "name": "CallSkipped",
      "type": "event"
    },
    {
      "anonymous": false,
      "inputs": [
        {
          "indexed": false,
          "internalType": "bytes32",
          "name": "_opHash",
          "type": "bytes32"
        },
        {
          "indexed": false,
          "internalType": "uint256",
          "name": "_index",
          "type": "uint256"
        }
      ],
      "name": "CallSuccess",
      "type": "event"
    },
    {
      "anonymous": false,
      "inputs": [
        {
          "indexed": false,
          "internalType": "bytes4",
          "name": "signature",
          "type": "bytes4"
        },
        {
          "indexed": false,
          "internalType": "address",
          "name": "implementation",
          "type": "address"
        }
      ],
      "name": "DefinedHook",
      "type": "event"
    },
    {
      "anonymous": false,
      "inputs": [
        {
          "indexed": false,
          "internalType": "bytes32",
          "name": "newImageHash",
          "type": "bytes32"
        }
      ],
      "name": "ImageHashUpdated",
      "type": "event"
    },
    {
      "anonymous": false,
      "inputs": [
        {
          "indexed": false,
          "internalType": "address",
          "name": "newImplementation",
          "type": "address"
        }
      ],
      "name": "ImplementationUpdated",
      "type": "event"
    },
    {
      "anonymous": false,
      "inputs": [
        {
          "indexed": false,
          "internalType": "uint256",
          "name": "_space",
          "type": "uint256"
        },
        {
          "indexed": false,
          "internalType": "uint256",
          "name": "_newNonce",
          "type": "uint256"
        }
      ],
      "name": "NonceChange",
      "type": "event"
    },
    {
      "anonymous": false,
      "inputs": [
        {
          "indexed": false,
          "internalType": "bytes32",
          "name": "_hash",
          "type": "bytes32"
        },
        {
          "indexed": false,
          "internalType": "address",
          "name": "_address",
          "type": "address"
        },
        {
          "indexed": false,
          "internalType": "uint96",
          "name": "_timestamp",
          "type": "uint96"
        }
      ],
      "name": "StaticSignatureSet",
      "type": "event"
    },
    {
      "stateMutability": "payable",
      "type": "fallback"
    },
    {
      "inputs": [
        {
          "internalType": "bytes4",
          "name": "signature",
          "type": "bytes4"
        },
        {
          "internalType": "address",
          "name": "implementation",
          "type": "address"
        }
      ],
      "name": "addHook",
      "outputs": [],
      "stateMutability": "payable",
      "type": "function"
    },
    {
      "inputs": [
        {
          "internalType": "bytes",
          "name": "_payload",
          "type": "bytes"
        },
        {
          "internalType": "bytes",
          "name": "_signature",
          "type": "bytes"
        }
      ],
      "name": "execute",
      "outputs": [],
      "stateMutability": "payable",
      "type": "function"
    },
    {
      "inputs": [],
      "name": "getImplementation",
      "outputs": [
        {
          "internalType": "address",
          "name": "",
          "type": "address"
        }
      ],
      "stateMutability": "view",
      "type": "function"
    },
    {
      "inputs": [],
      "name": "imageHash",
      "outputs": [
        {
          "internalType": "bytes32",
          "name": "",
          "type": "bytes32"
        }
      ],
      "stateMutability": "view",
      "type": "function"
    },
    {
      "inputs": [
        {
          "components": [
            {
              "internalType": "uint8",
              "name": "kind",
              "type": "uint8"
            },
            {
              "internalType": "bool",
              "name": "noChainId",
              "type": "bool"
            },
            {
              "components": [
                {
                  "internalType": "address",
                  "name": "to",
                  "type": "address"
                },
                {
                  "internalType": "uint256",
                  "name": "value",
                  "type": "uint256"
                },
                {
                  "internalType": "bytes",
                  "name": "data",
                  "type": "bytes"
                },
                {
                  "internalType": "uint256",
                  "name": "gasLimit",
                  "type": "uint256"
                },
                {
                  "internalType": "bool",
                  "name": "delegateCall",
                  "type": "bool"
                },
                {
                  "internalType": "bool",
                  "name": "onlyFallback",
                  "type": "bool"
                },
                {
                  "internalType": "uint256",
                  "name": "behaviorOnError",
                  "type": "uint256"
                }
              ],
              "internalType": "struct Payload.Call[]",
              "name": "calls",
              "type": "tuple[]"
            },
            {
              "internalType": "uint256",
              "name": "space",
              "type": "uint256"
            },
            {
              "internalType": "uint256",
              "name": "nonce",
              "type": "uint256"
            },
            {
              "internalType": "bytes",
              "name": "message",
              "type": "bytes"
            },
            {
              "internalType": "bytes32",
              "name": "imageHash",
              "type": "bytes32"
            },
            {
              "internalType": "bytes32",
              "name": "digest",
              "type": "bytes32"
            },
            {
              "internalType": "address[]",
              "name": "parentWallets",
              "type": "address[]"
            }
          ],
          "internalType": "struct Payload.Decoded",
          "name": "_payload",
          "type": "tuple"
        },
        {
          "internalType": "bytes",
          "name": "_signature",
          "type": "bytes"
        }
      ],
      "name": "isValidSapientSignature",
      "outputs": [
        {
          "internalType": "bytes32",
          "name": "",
          "type": "bytes32"
        }
      ],
      "stateMutability": "view",
      "type": "function"
    },
    {
      "inputs": [
        {
          "internalType": "bytes32",
          "name": "_hash",
          "type": "bytes32"
        },
        {
          "internalType": "bytes",
          "name": "_signature",
          "type": "bytes"
        }
      ],
      "name": "isValidSignature",
      "outputs": [
        {
          "internalType": "bytes4",
          "name": "",
          "type": "bytes4"
        }
      ],
      "stateMutability": "view",
      "type": "function"
    },
    {
      "inputs": [
        {
          "internalType": "address",
          "name": "",
          "type": "address"
        },
        {
          "internalType": "address",
          "name": "",
          "type": "address"
        },
        {
          "internalType": "uint256[]",
          "name": "",
          "type": "uint256[]"
        },
        {
          "internalType": "uint256[]",
          "name": "",
          "type": "uint256[]"
        },
        {
          "internalType": "bytes",
          "name": "",
          "type": "bytes"
        }
      ],
      "name": "onERC1155BatchReceived",
      "outputs": [
        {
          "internalType": "bytes4",
          "name": "",
          "type": "bytes4"
        }
      ],
      "stateMutability": "pure",
      "type": "function"
    },
    {
      "inputs": [
        {
          "internalType": "address",
          "name": "",
          "type": "address"
        },
        {
          "internalType": "address",
          "name": "",
          "type": "address"
        },
        {
          "internalType": "uint256",
          "name": "",
          "type": "uint256"
        },
        {
          "internalType": "uint256",
          "name": "",
          "type": "uint256"
        },
        {
          "internalType": "bytes",
          "name": "",
          "type": "bytes"
        }
      ],
      "name": "onERC1155Received",
      "outputs": [
        {
          "internalType": "bytes4",
          "name": "",
          "type": "bytes4"
        }
      ],
      "stateMutability": "pure",
      "type": "function"
    },
    {
      "inputs": [
        {
          "internalType": "address",
          "name": "",
          "type": "address"
        },
        {
          "internalType": "address",
          "name": "",
          "type": "address"
        },
        {
          "internalType": "uint256",
          "name": "",
          "type": "uint256"
        },
        {
          "internalType": "bytes",
          "name": "",
          "type": "bytes"
        }
      ],
      "name": "onERC721Received",
      "outputs": [
        {
          "internalType": "bytes4",
          "name": "",
          "type": "bytes4"
        }
      ],
      "stateMutability": "pure",
      "type": "function"
    },
    {
      "inputs": [
        {
          "internalType": "bytes4",
          "name": "signature",
          "type": "bytes4"
        }
      ],
      "name": "readHook",
      "outputs": [
        {
          "internalType": "address",
          "name": "",
          "type": "address"
        }
      ],
      "stateMutability": "view",
      "type": "function"
    },
    {
      "inputs": [
        {
          "internalType": "uint256",
          "name": "_space",
          "type": "uint256"
        }
      ],
      "name": "readNonce",
      "outputs": [
        {
          "internalType": "uint256",
          "name": "",
          "type": "uint256"
        }
      ],
      "stateMutability": "view",
      "type": "function"
    },
    {
      "inputs": [
        {
          "components": [
            {
              "internalType": "uint8",
              "name": "kind",
              "type": "uint8"
            },
            {
              "internalType": "bool",
              "name": "noChainId",
              "type": "bool"
            },
            {
              "components": [
                {
                  "internalType": "address",
                  "name": "to",
                  "type": "address"
                },
                {
                  "internalType": "uint256",
                  "name": "value",
                  "type": "uint256"
                },
                {
                  "internalType": "bytes",
                  "name": "data",
                  "type": "bytes"
                },
                {
                  "internalType": "uint256",
                  "name": "gasLimit",
                  "type": "uint256"
                },
                {
                  "internalType": "bool",
                  "name": "delegateCall",
                  "type": "bool"
                },
                {
                  "internalType": "bool",
                  "name": "onlyFallback",
                  "type": "bool"
                },
                {
                  "internalType": "uint256",
                  "name": "behaviorOnError",
                  "type": "uint256"
                }
              ],
              "internalType": "struct Payload.Call[]",
              "name": "calls",
              "type": "tuple[]"
            },
            {
              "internalType": "uint256",
              "name": "space",
              "type": "uint256"
            },
            {
              "internalType": "uint256",
              "name": "nonce",
              "type": "uint256"
            },
            {
              "internalType": "bytes",
              "name": "message",
              "type": "bytes"
            },
            {
              "internalType": "bytes32",
              "name": "imageHash",
              "type": "bytes32"
            },
            {
              "internalType": "bytes32",
              "name": "digest",
              "type": "bytes32"
            },
            {
              "internalType": "address[]",
              "name": "parentWallets",
              "type": "address[]"
            }
          ],
          "internalType": "struct Payload.Decoded",
          "name": "_payload",
          "type": "tuple"
        },
        {
          "internalType": "bytes",
          "name": "_signature",
          "type": "bytes"
        }
      ],
      "name": "recoverPartialSignature",
      "outputs": [
        {
          "internalType": "uint256",
          "name": "threshold",
          "type": "uint256"
        },
        {
          "internalType": "uint256",
          "name": "weight",
          "type": "uint256"
        },
        {
          "internalType": "bool",
          "name": "isValidImage",
          "type": "bool"
        },
        {
          "internalType": "bytes32",
          "name": "imageHash",
          "type": "bytes32"
        },
        {
          "internalType": "uint256",
          "name": "checkpoint",
          "type": "uint256"
        },
        {
          "internalType": "bytes32",
          "name": "opHash",
          "type": "bytes32"
        }
      ],
      "stateMutability": "view",
      "type": "function"
    },
    {
      "inputs": [
        {
          "internalType": "bytes4",
          "name": "signature",
          "type": "bytes4"
        }
      ],
      "name": "removeHook",
      "outputs": [],
      "stateMutability": "payable",
      "type": "function"
    },
    {
      "inputs": [
        {
          "internalType": "bytes",
          "name": "_payload",
          "type": "bytes"
        }
      ],
      "name": "selfExecute",
      "outputs": [],
      "stateMutability": "payable",
      "type": "function"
    },
    {
      "inputs": [
        {
          "internalType": "bytes32",
          "name": "_hash",
          "type": "bytes32"
        },
        {
          "internalType": "address",
          "name": "_address",
          "type": "address"
        },
        {
          "internalType": "uint96",
          "name": "_timestamp",
          "type": "uint96"
        }
      ],
      "name": "setStaticSignature",
      "outputs": [],
      "stateMutability": "nonpayable",
      "type": "function"
    },
    {
      "inputs": [
        {
          "internalType": "address",
          "name": "",
          "type": "address"
        },
        {
          "internalType": "uint256",
          "name": "",
          "type": "uint256"
        },
        {
          "internalType": "bytes",
          "name": "",
          "type": "bytes"
        }
      ],
      "name": "tokenReceived",
      "outputs": [],
      "stateMutability": "nonpayable",
      "type": "function"
    },
    {
      "inputs": [
        {
          "internalType": "bytes32",
          "name": "_imageHash",
          "type": "bytes32"
        }
      ],
      "name": "updateImageHash",
      "outputs": [],
      "stateMutability": "nonpayable",
      "type": "function"
    },
    {
      "inputs": [
        {
          "internalType": "address",
          "name": "_implementation",
          "type": "address"
        }
      ],
      "name": "updateImplementation",
      "outputs": [],
      "stateMutability": "payable",
      "type": "function"
    },
    {
      "stateMutability": "payable",
      "type": "receive"
    }
  ],
  "bytecode": "0x6080604052348015600f57600080fd5b50613de48061001f6000396000f3fe60806040526004361061012d5760003560e01c80638943ec02116100a5578063b93ea7ad11610074578063ca70785011610059578063ca7078501461046a578063f23a6e611461048a578063f727ef1c146104d057610134565b8063b93ea7ad1461040f578063bc197c811461042257610134565b80638943ec02146103665780638c3f556314610387578063aaf10f42146103a7578063ad55366b146103bc57610134565b80631f6a1eb9116100fc5780634fcf3eca116100e15780634fcf3eca1461031d57806351605d80146103305780636ea445771461035357610134565b80631f6a1eb9146102ea57806329561426146102fd57610134565b8063025b22bc146101f7578063150b7a021461020a5780631626ba7e146102855780631a9b2337146102a557610134565b3661013457005b600436106101f557600061015061014b3683612edc565b6104f0565b905073ffffffffffffffffffffffffffffffffffffffff8116156101f3576000808273ffffffffffffffffffffffffffffffffffffffff16600036604051610199929190612f42565b600060405180830381855af49150503d80600081146101d4576040519150601f19603f3d011682016040523d82523d6000602084013e6101d9565b606091505b5091509150816101eb57805160208201fd5b805160208201f35b505b005b6101f5610205366004612f7b565b610544565b34801561021657600080fd5b5061024f610225366004612fdf565b7f150b7a020000000000000000000000000000000000000000000000000000000095945050505050565b6040517fffffffff0000000000000000000000000000000000000000000000000000000090911681526020015b60405180910390f35b34801561029157600080fd5b5061024f6102a036600461304e565b610590565b3480156102b157600080fd5b506102c56102c03660046130c8565b610628565b60405173ffffffffffffffffffffffffffffffffffffffff909116815260200161027c565b6101f56102f83660046130e5565b610633565b34801561030957600080fd5b506101f5610318366004613156565b6106b5565b6101f561032b3660046130c8565b6106f9565b34801561033c57600080fd5b506103456107bb565b60405190815260200161027c565b6101f561036136600461316f565b6107ea565b34801561037257600080fd5b506101f56103813660046131b1565b50505050565b34801561039357600080fd5b506103456103a2366004613156565b61084a565b3480156103b357600080fd5b506102c5610876565b3480156103c857600080fd5b506103dc6103d7366004613533565b610880565b604080519687526020870195909552921515938501939093526060840152608083019190915260a082015260c00161027c565b6101f561041d366004613661565b6108ba565b34801561042e57600080fd5b5061024f61043d3660046136db565b7fbc197c810000000000000000000000000000000000000000000000000000000098975050505050505050565b34801561047657600080fd5b50610345610485366004613533565b61097f565b34801561049657600080fd5b5061024f6104a53660046137a2565b7ff23a6e61000000000000000000000000000000000000000000000000000000009695505050505050565b3480156104dc57600080fd5b506101f56104eb36600461381a565b610ae8565b600061053e7fbe27a319efc8734e89e26ba4bc95f5c788584163b959f03fa04e2d7ab4b9a1207fffffffff000000000000000000000000000000000000000000000000000000008416610ba3565b92915050565b333014610584576040517fa19dbf000000000000000000000000000000000000000000000000000000000081523360048201526024015b60405180910390fd5b61058d81610c01565b50565b604080516101208101825260006020820181905260609282018390528282018190526080820181905260a0820183905260c082018190526101008201929092526003815260e08101859052816105e7828686610c56565b509050806105fb5750600091506106219050565b507f20c13b0b000000000000000000000000000000000000000000000000000000009150505b9392505050565b600061053e826104f0565b600061063f8585610da4565b9050610653816060015182608001516111c2565b600080610661838686610c56565b91509150816106a2578285856040517fa2b6d61b00000000000000000000000000000000000000000000000000000000815260040161057b93929190613aee565b6106ac81846112aa565b50505050505050565b3330146106f0576040517fa19dbf0000000000000000000000000000000000000000000000000000000000815233600482015260240161057b565b61058d8161153c565b333014610734576040517fa19dbf0000000000000000000000000000000000000000000000000000000000815233600482015260240161057b565b600061073f826104f0565b73ffffffffffffffffffffffffffffffffffffffff16036107b0576040517f1c3812cc0000000000000000000000000000000000000000000000000000000081527fffffffff000000000000000000000000000000000000000000000000000000008216600482015260240161057b565b61058d8160006115cc565b60006107e57fea7157fa25e3aa17d0ae2d5280fa4e24d421c61842aa85e45194e1145aa72bf85490565b905090565b333014610825576040517fa19dbf0000000000000000000000000000000000000000000000000000000000815233600482015260240161057b565b60006108318383610da4565b9050600061083e8261168c565b905061038181836112aa565b600061053e7f8d0bf1fd623d628c741362c1289948e57b3e2905218c676d3e69abee36d6ae2e83610ba3565b60006107e5305490565b600080600080600080610897898989600080611707565b9399509197509450925090506108ac83611a2c565b935093975093979195509350565b3330146108f5576040517fa19dbf0000000000000000000000000000000000000000000000000000000000815233600482015260240161057b565b6000610900836104f0565b73ffffffffffffffffffffffffffffffffffffffff1614610971576040517f5b4d6d6a0000000000000000000000000000000000000000000000000000000081527fffffffff000000000000000000000000000000000000000000000000000000008316600482015260240161057b565b61097b82826115cc565b5050565b6000808461010001515160016109959190613b1e565b67ffffffffffffffff8111156109ad576109ad6131f3565b6040519080825280602002602001820160405280156109d6578160200160208202803683370190505b50905060005b85610100015151811015610a48578561010001518181518110610a0157610a01613b58565b6020026020010151828281518110610a1b57610a1b613b58565b73ffffffffffffffffffffffffffffffffffffffff909216602092830291909101909101526001016109dc565b5033818661010001515181518110610a6257610a62613b58565b73ffffffffffffffffffffffffffffffffffffffff9092166020928302919091019091015261010085018190526000610a9c868686610c56565b50905080610adc578585856040517ff58cc8b500000000000000000000000000000000000000000000000000000000815260040161057b93929190613aee565b50600195945050505050565b333014610b23576040517fa19dbf0000000000000000000000000000000000000000000000000000000000815233600482015260240161057b565b610b3c8383836bffffffffffffffffffffffff16611a37565b6040805184815273ffffffffffffffffffffffffffffffffffffffff841660208201526bffffffffffffffffffffffff83168183015290517febf265acfac1c01de588ed7ef49743b9c3ce8d6d1edeaf510a1f5453228515b19181900360600190a1505050565b6000808383604051602001610bc2929190918252602082015260400190565b604080517fffffffffffffffffffffffffffffffffffffffffffffffffffffffffffffffe0818403018152919052805160209091012054949350505050565b610c09813055565b60405173ffffffffffffffffffffffffffffffffffffffff821681527f310ba5f1d2ed074b51e2eccd052a47ae9ab7c6b800d1fca3db3999d6a592ca03906020015b60405180910390a150565b600080600084846000818110610c6e57610c6e613b58565b7fff000000000000000000000000000000000000000000000000000000000000009201359182169250507f80000000000000000000000000000000000000000000000000000000000000009081169003610d6d57610ccb8661168c565b9150600080610cd984611ac6565b9150915042811015610d21576040517f9fa4fe54000000000000000000000000000000000000000000000000000000008152600481018590526024810182905260440161057b565b73ffffffffffffffffffffffffffffffffffffffff82161580610d59575073ffffffffffffffffffffffffffffffffffffffff821633145b15610d6a5760019450505050610d9c565b50505b6000806000610d80898989600080611707565b98509295509093509150610d95905081611a2c565b9550505050505b935093915050565b604080516101208101825260008082526020820181905260609282018390528282018190526080820181905260a0820183905260c0820181905260e0820152610100810191909152823560f81c60018082168103610e085760006060840152610e19565b84810135606090811c908401526014015b6007600183901c168015610e6c5760016008820290811b7fffffffffffffffffffffffffffffffffffffffffffffffffffffffffffffffff0187840135610100929092039190911c166080850152908101905b600083601016601003610e8157506001610eaa565b83602016602003610e9d5750600282019186013560f01c610eaa565b50600182019186013560f81c5b8067ffffffffffffffff811115610ec357610ec36131f3565b604051908082528060200260200182016040528015610f4e57816020015b610f3b6040518060e00160405280600073ffffffffffffffffffffffffffffffffffffffff168152602001600081526020016060815260200160008152602001600015158152602001600015158152602001600081525090565b815260200190600190039081610ee15790505b50604086015260005b818110156111b75760018085019489013560f81c908082169003610fb6573087604001518381518110610f8c57610f8c613b58565b602090810291909101015173ffffffffffffffffffffffffffffffffffffffff9091169052611000565b8489013560601c6014860188604001518481518110610fd757610fd7613b58565b602090810291909101015173ffffffffffffffffffffffffffffffffffffffff90921690915294505b6002808216900361103e5784890135602086018860400151848151811061102957611029613b58565b60200260200101516020018197508281525050505b600480821690036110d657600385019489013560e81c89868a6110618483613b1e565b9261106e93929190613b87565b8080601f01602080910402602001604051908101604052809392919081815260200183838082843760009201919091525050505060408901518051859081106110b9576110b9613b58565b6020908102919091010151604001526110d28187613b1e565b9550505b60088082169003611114578489013560208601886040015184815181106110ff576110ff613b58565b60200260200101516060018197508281525050505b8060101660ff166010148760400151838151811061113457611134613b58565b602002602001015160800190151590811515815250508060201660ff166020148760400151838151811061116a5761116a613b58565b602090810291909101015190151560a090910152604087015180516003600684901c1691908490811061119f5761119f613b58565b602090810291909101015160c0015250600101610f57565b505050505092915050565b60006111cd8361084a565b9050818114611219576040517f9b6514f400000000000000000000000000000000000000000000000000000000815260048101849052602481018390526044810182905260640161057b565b604080517f8d0bf1fd623d628c741362c1289948e57b3e2905218c676d3e69abee36d6ae2e60208083019190915281830186905282518083038401815260609092019092528051910120600183019081905560408051858152602081018390527f1f180c27086c7a39ea2a7b25239d1ab92348f07ca7bb59d1438fcf527568f881910160405180910390a150505050565b604081015151600090815b81811015611535576000846040015182815181106112d5576112d5613b58565b602002602001015190508060a0015180156112ee575083155b15611336576040805187815260208101849052600095507f9ae934bf8a986157c889a24c3b3fa85e74b7e4ee4b1f8fc6e7362cb4c1d19d8b910160405180910390a15061152d565b606081015180158015906113495750805a105b156113865785835a6040517f2139527400000000000000000000000000000000000000000000000000000000815260040161057b93929190613bb1565b60008260800151156113ac576113a58360000151838560400151611b12565b90506113c7565b6113c483600001518460200151848660400151611b28565b90505b806114f05760c083015161141a576040805189815260208101869052600197507f20832642214d5218c6428e71d8d2ddd9ad15a81ad2be8154d8c2e3ab08293fcb910160405180910390a150505061152d565b60c08301517fffffffffffffffffffffffffffffffffffffffffffffffffffffffffffffffff0161148457868461144f611b40565b6040517f7f6b0bb100000000000000000000000000000000000000000000000000000000815260040161057b93929190613bd6565b60c08301517ffffffffffffffffffffffffffffffffffffffffffffffffffffffffffffffffe016114f05760408051898152602081018690527f5b5cb72c79981de49f1f950d4d8d62397e2fc2b772e1b788a640025075ab47c3910160405180910390a1505050611535565b60408051898152602081018690527fec670aed5ee1e72eb3eb601271be4b3f312e71f17eebdf10c1a0ab5a3af30ffd910160405180910390a15050505b6001016112b5565b5050505050565b80611573576040517f4294d12700000000000000000000000000000000000000000000000000000000815260040160405180910390fd5b61159c7fea7157fa25e3aa17d0ae2d5280fa4e24d421c61842aa85e45194e1145aa72bf8829055565b6040518181527f307ed6bd941ee9fc80f369c94af5fa11e25bab5102a6140191756c5474a30bfa90602001610c4b565b604080517fbe27a319efc8734e89e26ba4bc95f5c788584163b959f03fa04e2d7ab4b9a1206020808301919091527fffffffff000000000000000000000000000000000000000000000000000000008516828401819052835180840385018152606084018086528151919093012073ffffffffffffffffffffffffffffffffffffffff8616908190559152608082015290517f0d7fc113eaf016db4681a1ba86d083ce3e0961f321062a75ac2b0aeb33deeed19181900360a00190a15050565b60008061169d836020015130611b5f565b905060006116aa84611c2c565b6040517f1901000000000000000000000000000000000000000000000000000000000000602082015260228101849052604281018290529091506062015b6040516020818303038152906040528051906020012092505050919050565b6040805180820182526000808252602082018190529182918291829182918a3560f81c91600191808416148015611752575073ffffffffffffffffffffffffffffffffffffffff8916155b1561186e578b82013560601c98506014909101908961186e5760038201918c013560e81c60008d848e6117858583613b1e565b9261179293929190613b87565b8080601f016020809104026020016040519081016040528093929190818152602001838380828437600092019190915250506040517fccce3bc80000000000000000000000000000000000000000000000000000000081529293505073ffffffffffffffffffffffffffffffffffffffff8d169163ccce3bc8915061181d9030908590600401613c01565b6040805180830381865afa158015611839573d6000803e3d6000fd5b505050506040513d601f19601f8201168201806040525081019061185d9190613c38565b92506118698285613b1e565b935050505b826001166001036118a8576118968d8a838f8f8790809261189193929190613b87565b611e82565b97509750975097509750505050611a1f565b6002838116811460208f015283901c60071660016008820290811b7fffffffffffffffffffffffffffffffffffffffffffffffffffffffffffffffff018e850135610100929092039190911c168382019096509250600090506119136001600586901c811690613b1e565b60016008820290811b7fffffffffffffffffffffffffffffffffffffffffffffffffffffffffffffffff018f860135610100929092039190911c169950909201915061195e8d61168c565b935061197c8d858e8e8690809261197793929190613b87565b6120ce565b600090815260208a815260408083208352888252808320835273ffffffffffffffffffffffffffffffffffffffff8d16909152902082519198509650158015906119c7575080518614155b80156119d7575080602001518511155b15611a1b576040517fccbb534f000000000000000000000000000000000000000000000000000000008152815160048201526020820151602482015260440161057b565b5050505b9550955095509550959050565b600061053e82612ab2565b611ac17fc852adf5e97c2fc3b38f405671e91b7af1697ef0287577f227ef10494c2a8e86847fffffffffffffffffffffffffffffffffffffffff000000000000000000000000606086901b166bffffffffffffffffffffffff8516176040805160208082019590955280820193909352805180840382018152606090930190528151919092012055565b505050565b60008080611af47fc852adf5e97c2fc3b38f405671e91b7af1697ef0287577f227ef10494c2a8e8685610ba3565b606081901c956bffffffffffffffffffffffff909116945092505050565b60008060008351602085018787f4949350505050565b6000806000835160208501878988f195945050505050565b60603d604051915060208201818101604052818352816000823e505090565b60007f8b73c3c69bb8fe3d512ecc4cf759cc79239f7b179b0ffacaa9a75d522b39400f7f4aa45ca7ad825ceb1bf35643f0a58c295239df563b1b565c2485f96477c563187f2a80e1ef1d7842f27f2e6be0972bb708b9a135c38860dbe73c27c3486c34f4de85611bcf5746611bd2565b60005b6040805160208101959095528401929092526060830152608082015273ffffffffffffffffffffffffffffffffffffffff831660a082015260c0015b60405160208183030381529060405280519060200120905092915050565b600080611c3d836101000151612ae5565b835190915060ff16611cb0576000611c588460400151612b68565b606080860151608080880151604080517f11e1e4079a79a66e4ade50033cfe2678cdd5341d2dfe5ef9513edb1a0be147a260208201529081018690529384019290925282015260a0810184905290915060c0016116e8565b825160ff167fffffffffffffffffffffffffffffffffffffffffffffffffffffffffffffffff01611d405760a08301518051602091820120604080517fe19a3b94fc3c7ece3f890d98a99bc422615537a08dea0603fa8425867d87d46693810193909352820152606081018290526080015b60405160208183030381529060405280519060200120915050919050565b825160ff167ffffffffffffffffffffffffffffffffffffffffffffffffffffffffffffffffe01611db05760c0830151604080517f11fdeb7e8373a1aa96bfac8d0ea91526b2c5d15e5cee20e0543e780258f3e8e460208201529081019190915260608101829052608001611d22565b825160ff167ffffffffffffffffffffffffffffffffffffffffffffffffffffffffffffffffd01611e205760e0830151604080517f402e923b91e918306019e73f589362164a6a059499a504699c66feabbb3e262460208201529081019190915260608101829052608001611d22565b6040517f08c379a000000000000000000000000000000000000000000000000000000000815260206004820152601060248201527f556e737570706f72746564206b696e6400000000000000000000000000000000604482015260640161057b565b6000806000806000611ee4604051806101200160405280600060ff168152602001600015158152602001606081526020016000815260200160008152602001606081526020016000801916815260200160008019168152602001606081525090565b6002815260007fffffffffffffffffffffffffffffffffffffffffffffffffffffffffffffffff5b8882101561205b5760038201916000908b013560e81c611f2c8482613b1e565b9150600090508a8214611f40576000611f42565b8d5b905060007fffffffffffffffffffffffffffffffffffffffffffffffffffffffffffffffff8414611f735785611f75565b8f5b9050611f95818e8e88908792611f8d93929190613b87565b600186611707565b50929d50909b50995097508a8a1015611ff2578c8c86908592611fba93929190613b87565b8c8c6040517fb006aba000000000000000000000000000000000000000000000000000000000815260040161057b9493929190613c89565b829450888e60000151036120055760008e525b838810612048576040517f37daf62b000000000000000000000000000000000000000000000000000000008152600481018990526024810185905260440161057b565b505060c084018790529150849050611f0c565b8a511580159061206f57508a602001518511155b156120b3576040517fccbb534f0000000000000000000000000000000000000000000000000000000081528b51600482015260208c0151602482015260440161057b565b6120bc8d61168c565b93505050509550955095509550959050565b60008060005b83811015612aa857600181019085013560f881901c9060fc1c806121f157600f8216600081900361210c5750600183019287013560f81c5b60408051600080825260208281018085528d9052601b8c89019182013560ff81811c928301908116868801529235606086018190527f7fffffffffffffffffffffffffffffffffffffffffffffffffffffffffffffff82166080870181905296909a0199959094919390929160019060a0015b6020604051602081039080840390855afa1580156121a1573d6000803e3d6000fd5b5050506020604051035190508660ff168c019b5060006121c4828960ff16612bea565b90508b6121d157806121e0565b60008c81526020829052604090205b9b50505050505050505050506120d4565b6001810361225557600f821660008190036122135750600183019287013560f81c5b601484019388013560601c600061222d8260ff8516612bea565b90508661223a5780612249565b60008781526020829052604090205b965050505050506120d4565b6002810361243c576003821660008190036122775750600183019287013560f81c5b60008489013560601c60148601955090506003600285901c16600060016008830290811b7fffffffffffffffffffffffffffffffffffffffffffffffffffffffffffffffff018c890135610100929092039190911c168288018098508192505050600081880190506320c13b0b60e01b7bffffffffffffffffffffffffffffffffffffffffffffffffffffffff19168473ffffffffffffffffffffffffffffffffffffffff16631626ba7e8f8f8f8d90879261233593929190613b87565b6040518463ffffffff1660e01b815260040161235393929190613cb0565b602060405180830381865afa158015612370573d6000803e3d6000fd5b505050506040513d601f19601f820116820180604052508101906123949190613cca565b7fffffffff0000000000000000000000000000000000000000000000000000000016146123f7578d8d858e8e6040517ff734863a00000000000000000000000000000000000000000000000000000000815260040161057b959493929190613ce7565b8097508460ff168a0199506000612411858760ff16612bea565b90508961241e578061242d565b60008a81526020829052604090205b995050505050505050506120d4565b60038103612470576020830192870135846124575780612466565b60008581526020829052604090205b94505050506120d4565b6004810361251657600f8216600060016008830290811b7fffffffffffffffffffffffffffffffffffffffffffffffffffffffffffffffff018a870135610100929092039190911c168583018096508192505050600081860190506000806124e58e8e8e8e8c90889261197793929190613b87565b91509150829750818a019950612505898260009182526020526040902090565b9850829750505050505050506120d4565b600681036125e0576003600283901c16600081900361253c5750600183019287013560f81c5b6003831660008190036125565750600284019388013560f01c5b6000858a013560e81c600387018162ffffff1691508097508192505050600081870190506000806125948f8f8f8f8d90889261197793929190613b87565b915091508298508482106125a757998501995b60006125b4828789612c51565b90508a6125c157806125d0565b60008b81526020829052604090205b9a505050505050505050506120d4565b6005810361264d57602083019287013588810361261b577fffffffffffffffffffffffffffffffffffffffffffffffffffffffffffffffff95505b600061262682612cb5565b9050856126335780612642565b60008681526020829052604090205b9550505050506120d4565b6007810361275357600f8216600081900361266f5750600183019287013560f81c5b600080858a0135602087019650915089860135602087016040517f19457468657265756d205369676e6564204d6573736167653a0a3332000000006020820152603c81018e905290975090915060ff82901c907f7fffffffffffffffffffffffffffffffffffffffffffffffffffffffffffffff831690601b830190600090600190605c01604080517fffffffffffffffffffffffffffffffffffffffffffffffffffffffffffffffe08184030181528282528051602091820120600084529083018083525260ff851690820152606081018890526080810185905260a00161217f565b600881036127a7576020830192870135600061276f8b82612d09565b905080820361279c577fffffffffffffffffffffffffffffffffffffffffffffffffffffffffffffffff96505b600061222d82612d84565b6009810361290d576003821660008190036127c95750600183019287013560f81c5b60008489013560601c601486019550905060006003600286901c1660016008820290811b7fffffffffffffffffffffffffffffffffffffffffffffffffffffffffffffffff018c890135610100929092039190911c168188018098508193505050506000818701905060008373ffffffffffffffffffffffffffffffffffffffff1663ca7078508f8e8e8c90879261286393929190613b87565b6040518463ffffffff1660e01b815260040161288193929190613aee565b602060405180830381865afa15801561289e573d6000803e3d6000fd5b505050506040513d601f19601f820116820180604052508101906128c29190613d3b565b90508197508460ff168a01995060006128df858760ff1684612dbf565b9050896128ec57806128fb565b60008a81526020829052604090205b995082985050505050505050506120d4565b600a8103612a735760038216600081900361292f5750600183019287013560f81c5b60008489013560601c60148601955090506003600285901c16600060016008830290811b7fffffffffffffffffffffffffffffffffffffffffffffffffffffffffffffffff018c890135610100929092039190911c1682880180985081925050506000818801905060008473ffffffffffffffffffffffffffffffffffffffff1663957d2b238f8f8f8d9087926129c893929190613b87565b6040518463ffffffff1660e01b81526004016129e693929190613cb0565b602060405180830381865afa158015612a03573d6000803e3d6000fd5b505050506040513d601f19601f82011682018060405250810190612a279190613d3b565b90508198508560ff168b019a506000612a44868860ff1684612dbf565b90508a612a515780612a60565b60008b81526020829052604090205b9a508299505050505050505050506120d4565b6040517fb2505f7c0000000000000000000000000000000000000000000000000000000081526004810182905260240161057b565b5094509492505050565b6000811580159061053e5750507fea7157fa25e3aa17d0ae2d5280fa4e24d421c61842aa85e45194e1145aa72bf8541490565b6000606060005b8351811015612b595781848281518110612b0857612b08613b58565b6020026020010151604051602001612b21929190613d54565b604080517fffffffffffffffffffffffffffffffffffffffffffffffffffffffffffffffe08184030181529190529150600101612aec565b50805160209091012092915050565b6000606060005b8351811015612b59576000612b9c858381518110612b8f57612b8f613b58565b6020026020010151612e2d565b90508281604051602001612bb1929190613d8c565b604080517fffffffffffffffffffffffffffffffffffffffffffffffffffffffffffffffe0818403018152919052925050600101612b6f565b6040517f53657175656e6365207369676e65723a0a00000000000000000000000000000060208201527fffffffffffffffffffffffffffffffffffffffff000000000000000000000000606084901b16603182015260458101829052600090606501611c0e565b6040517f53657175656e6365206e657374656420636f6e6669673a0a000000000000000060208201526038810184905260588101839052607881018290526000906098015b6040516020818303038152906040528051906020012090509392505050565b6040517f53657175656e636520737461746963206469676573743a0a00000000000000006020820152603881018290526000906058015b604051602081830303815290604052805190602001209050919050565b600080612d1a846020015184611b5f565b90506000612d2785611c2c565b6040517f190100000000000000000000000000000000000000000000000000000000000060208201526022810184905260428101829052909150606201604051602081830303815290604052805190602001209250505092915050565b604080517f53657175656e636520616e792061646472657373207375626469676573743a0a6020820152908101829052600090606001612cec565b6040517f53657175656e63652073617069656e7420636f6e6669673a0a0000000000000060208201527fffffffffffffffffffffffffffffffffffffffff000000000000000000000000606085901b166039820152604d8101839052606d8101829052600090608d01612c96565b60007f0603985259a953da1f65a522f589c17bd1d0117ec1d3abb7c0788aef251ef43782600001518360200151846040015180519060200120856060015186608001518760a001518860c00151604051602001612cec98979695949392919097885273ffffffffffffffffffffffffffffffffffffffff969096166020880152604087019490945260608601929092526080850152151560a0840152151560c083015260e08201526101000190565b80357fffffffff000000000000000000000000000000000000000000000000000000008116906004841015612f3b577fffffffff00000000000000000000000000000000000000000000000000000000808560040360031b1b82161691505b5092915050565b8183823760009101908152919050565b803573ffffffffffffffffffffffffffffffffffffffff81168114612f7657600080fd5b919050565b600060208284031215612f8d57600080fd5b61062182612f52565b60008083601f840112612fa857600080fd5b50813567ffffffffffffffff811115612fc057600080fd5b602083019150836020828501011115612fd857600080fd5b9250929050565b600080600080600060808688031215612ff757600080fd5b61300086612f52565b945061300e60208701612f52565b935060408601359250606086013567ffffffffffffffff81111561303157600080fd5b61303d88828901612f96565b969995985093965092949392505050565b60008060006040848603121561306357600080fd5b83359250602084013567ffffffffffffffff81111561308157600080fd5b61308d86828701612f96565b9497909650939450505050565b7fffffffff000000000000000000000000000000000000000000000000000000008116811461058d57600080fd5b6000602082840312156130da57600080fd5b81356106218161309a565b600080600080604085870312156130fb57600080fd5b843567ffffffffffffffff81111561311257600080fd5b61311e87828801612f96565b909550935050602085013567ffffffffffffffff81111561313e57600080fd5b61314a87828801612f96565b95989497509550505050565b60006020828403121561316857600080fd5b5035919050565b6000806020838503121561318257600080fd5b823567ffffffffffffffff81111561319957600080fd5b6131a585828601612f96565b90969095509350505050565b600080600080606085870312156131c757600080fd5b6131d085612f52565b935060208501359250604085013567ffffffffffffffff81111561313e57600080fd5b7f4e487b7100000000000000000000000000000000000000000000000000000000600052604160045260246000fd5b60405160e0810167ffffffffffffffff81118282101715613245576132456131f3565b60405290565b604051610120810167ffffffffffffffff81118282101715613245576132456131f3565b604051601f82017fffffffffffffffffffffffffffffffffffffffffffffffffffffffffffffffe016810167ffffffffffffffff811182821017156132b6576132b66131f3565b604052919050565b803560ff81168114612f7657600080fd5b80358015158114612f7657600080fd5b600067ffffffffffffffff8211156132f9576132f96131f3565b5060051b60200190565b600082601f83011261331457600080fd5b813567ffffffffffffffff81111561332e5761332e6131f3565b61335f60207fffffffffffffffffffffffffffffffffffffffffffffffffffffffffffffffe0601f8401160161326f565b81815284602083860101111561337457600080fd5b816020850160208301376000918101602001919091529392505050565b600082601f8301126133a257600080fd5b81356133b56133b0826132df565b61326f565b8082825260208201915060208360051b8601019250858311156133d757600080fd5b602085015b838110156134c457803567ffffffffffffffff8111156133fb57600080fd5b860160e08189037fffffffffffffffffffffffffffffffffffffffffffffffffffffffffffffffe001121561342f57600080fd5b613437613222565b61344360208301612f52565b815260408201356020820152606082013567ffffffffffffffff81111561346957600080fd5b6134788a602083860101613303565b6040830152506080820135606082015261349460a083016132cf565b60808201526134a560c083016132cf565b60a082015260e0919091013560c08201528352602092830192016133dc565b5095945050505050565b600082601f8301126134df57600080fd5b81356134ed6133b0826132df565b8082825260208201915060208360051b86010192508583111561350f57600080fd5b602085015b838110156134c45761352581612f52565b835260209283019201613514565b60008060006040848603121561354857600080fd5b833567ffffffffffffffff81111561355f57600080fd5b8401610120818703121561357257600080fd5b61357a61324b565b613583826132be565b8152613591602083016132cf565b6020820152604082013567ffffffffffffffff8111156135b057600080fd5b6135bc88828501613391565b604083015250606082810135908201526080808301359082015260a082013567ffffffffffffffff8111156135f057600080fd5b6135fc88828501613303565b60a08301525060c0828101359082015260e0808301359082015261010082013567ffffffffffffffff81111561363157600080fd5b61363d888285016134ce565b61010083015250935050602084013567ffffffffffffffff81111561308157600080fd5b6000806040838503121561367457600080fd5b823561367f8161309a565b915061368d60208401612f52565b90509250929050565b60008083601f8401126136a857600080fd5b50813567ffffffffffffffff8111156136c057600080fd5b6020830191508360208260051b8501011115612fd857600080fd5b60008060008060008060008060a0898b0312156136f757600080fd5b61370089612f52565b975061370e60208a01612f52565b9650604089013567ffffffffffffffff81111561372a57600080fd5b6137368b828c01613696565b909750955050606089013567ffffffffffffffff81111561375657600080fd5b6137628b828c01613696565b909550935050608089013567ffffffffffffffff81111561378257600080fd5b61378e8b828c01612f96565b999c989b5096995094979396929594505050565b60008060008060008060a087890312156137bb57600080fd5b6137c487612f52565b95506137d260208801612f52565b94506040870135935060608701359250608087013567ffffffffffffffff8111156137fc57600080fd5b61380889828a01612f96565b979a9699509497509295939492505050565b60008060006060848603121561382f57600080fd5b8335925061383f60208501612f52565b915060408401356bffffffffffffffffffffffff8116811461386057600080fd5b809150509250925092565b60005b8381101561388657818101518382015260200161386e565b50506000910152565b600081518084526138a781602086016020860161386b565b601f017fffffffffffffffffffffffffffffffffffffffffffffffffffffffffffffffe0169290920160200192915050565b600082825180855260208501945060208160051b8301016020850160005b838110156139a9577fffffffffffffffffffffffffffffffffffffffffffffffffffffffffffffffe0858403018852815173ffffffffffffffffffffffffffffffffffffffff815116845260208101516020850152604081015160e0604086015261396560e086018261388f565b6060838101519087015260808084015115159087015260a08084015115159087015260c09283015192909501919091525060209788019791909101906001016138f7565b50909695505050505050565b600081518084526020840193506020830160005b828110156139fd57815173ffffffffffffffffffffffffffffffffffffffff168652602095860195909101906001016139c9565b5093949350505050565b805160ff16825260006020820151613a23602085018215159052565b5060408201516101206040850152613a3f6101208501826138d9565b9050606083015160608501526080830151608085015260a083015184820360a0860152613a6c828261388f565b91505060c083015160c085015260e083015160e0850152610100830151848203610100860152613a9c82826139b5565b95945050505050565b8183528181602085013750600060208284010152600060207fffffffffffffffffffffffffffffffffffffffffffffffffffffffffffffffe0601f840116840101905092915050565b604081526000613b016040830186613a07565b8281036020840152613b14818587613aa5565b9695505050505050565b8082018082111561053e577f4e487b7100000000000000000000000000000000000000000000000000000000600052601160045260246000fd5b7f4e487b7100000000000000000000000000000000000000000000000000000000600052603260045260246000fd5b60008085851115613b9757600080fd5b83861115613ba457600080fd5b5050820193919092039150565b606081526000613bc46060830186613a07565b60208301949094525060400152919050565b606081526000613be96060830186613a07565b8460208401528281036040840152613b14818561388f565b73ffffffffffffffffffffffffffffffffffffffff83168152604060208201526000613c30604083018461388f565b949350505050565b60006040828403128015613c4b57600080fd5b506040805190810167ffffffffffffffff81118282101715613c6f57613c6f6131f3565b604052825181526020928301519281019290925250919050565b606081526000613c9d606083018688613aa5565b6020830194909452506040015292915050565b838152604060208201526000613a9c604083018486613aa5565b600060208284031215613cdc57600080fd5b81516106218161309a565b608081526000613cfa6080830188613a07565b86602084015273ffffffffffffffffffffffffffffffffffffffff861660408401528281036060840152613d2f818587613aa5565b98975050505050505050565b600060208284031215613d4d57600080fd5b5051919050565b604081526000613d67604083018561388f565b905073ffffffffffffffffffffffffffffffffffffffff831660208301529392505050565b60008351613d9e81846020880161386b565b919091019182525060200191905056fea2646970667358221220ee163cc9c809819cd5fee257b1be9874b2cc893910bf8528287c2856c020cc9d64736f6c634300081b0033",
  "linkReferences": {},
  "deployedLinkReferences": {}
}