{
  "_format": "hh-sol-artifact-1",
  "contractName": "Stage2Module",
  "sourceName": "src/Stage2Module.sol",
  "abi": [
    {
      "inputs": [
        {
          "internalType": "uint256",
          "name": "_space",
          "type": "uint256"
        },
        {
          "internalType": "uint256",
          "name": "_provided",
          "type": "uint256"
        },
        {
          "internalType": "uint256",
          "name": "_current",
          "type": "uint256"
        }
      ],
      "name": "BadNonce",
      "type": "error"
    },
    {
      "inputs": [
        {
          "internalType": "bytes4",
          "name": "selector",
          "type": "bytes4"
        }
      ],
      "name": "HookAlreadyExists",
      "type": "error"
    },
    {
      "inputs": [
        {
          "internalType": "bytes4",
          "name": "selector",
          "type": "bytes4"
        }
      ],
      "name": "HookDoesNotExist",
      "type": "error"
    },
    {
      "inputs": [],
      "name": "ImageHashIsZero",
      "type": "error"
    },
    {
      "inputs": [
        {
          "internalType": "bytes32",
          "name": "_opHash",
          "type": "bytes32"
        },
        {
          "internalType": "address",
          "name": "_signer",
          "type": "address"
        },
        {
          "internalType": "bytes",
          "name": "_signature",
          "type": "bytes"
        }
      ],
      "name": "InvalidERC1271Signature",
      "type": "error"
    },
    {
      "inputs": [
        {
          "internalType": "uint8",
          "name": "kind",
          "type": "uint8"
        }
      ],
      "name": "InvalidKind",
      "type": "error"
    },
    {
      "inputs": [
        {
          "components": [
            {
              "internalType": "uint8",
              "name": "kind",
              "type": "uint8"
            },
            {
              "internalType": "bool",
              "name": "noChainId",
              "type": "bool"
            },
            {
              "components": [
                {
                  "internalType": "address",
                  "name": "to",
                  "type": "address"
                },
                {
                  "internalType": "uint256",
                  "name": "value",
                  "type": "uint256"
                },
                {
                  "internalType": "bytes",
                  "name": "data",
                  "type": "bytes"
                },
                {
                  "internalType": "uint256",
                  "name": "gasLimit",
                  "type": "uint256"
                },
                {
                  "internalType": "bool",
                  "name": "delegateCall",
                  "type": "bool"
                },
                {
                  "internalType": "bool",
                  "name": "onlyFallback",
                  "type": "bool"
                },
                {
                  "internalType": "uint256",
                  "name": "behaviorOnError",
                  "type": "uint256"
                }
              ],
              "internalType": "struct Payload.Call[]",
              "name": "calls",
              "type": "tuple[]"
            },
            {
              "internalType": "uint256",
              "name": "space",
              "type": "uint256"
            },
            {
              "internalType": "uint256",
              "name": "nonce",
              "type": "uint256"
            },
            {
              "internalType": "bytes",
              "name": "message",
              "type": "bytes"
            },
            {
              "internalType": "bytes32",
              "name": "imageHash",
              "type": "bytes32"
            },
            {
              "internalType": "bytes32",
              "name": "digest",
              "type": "bytes32"
            },
            {
              "internalType": "address[]",
              "name": "parentWallets",
              "type": "address[]"
            }
          ],
          "internalType": "struct Payload.Decoded",
          "name": "_payload",
          "type": "tuple"
        },
        {
          "internalType": "bytes",
          "name": "_signature",
          "type": "bytes"
        }
      ],
      "name": "InvalidSapientSignature",
      "type": "error"
    },
    {
      "inputs": [
        {
          "components": [
            {
              "internalType": "uint8",
              "name": "kind",
              "type": "uint8"
            },
            {
              "internalType": "bool",
              "name": "noChainId",
              "type": "bool"
            },
            {
              "components": [
                {
                  "internalType": "address",
                  "name": "to",
                  "type": "address"
                },
                {
                  "internalType": "uint256",
                  "name": "value",
                  "type": "uint256"
                },
                {
                  "internalType": "bytes",
                  "name": "data",
                  "type": "bytes"
                },
                {
                  "internalType": "uint256",
                  "name": "gasLimit",
                  "type": "uint256"
                },
                {
                  "internalType": "bool",
                  "name": "delegateCall",
                  "type": "bool"
                },
                {
                  "internalType": "bool",
                  "name": "onlyFallback",
                  "type": "bool"
                },
                {
                  "internalType": "uint256",
                  "name": "behaviorOnError",
                  "type": "uint256"
                }
              ],
              "internalType": "struct Payload.Call[]",
              "name": "calls",
              "type": "tuple[]"
            },
            {
              "internalType": "uint256",
              "name": "space",
              "type": "uint256"
            },
            {
              "internalType": "uint256",
              "name": "nonce",
              "type": "uint256"
            },
            {
              "internalType": "bytes",
              "name": "message",
              "type": "bytes"
            },
            {
              "internalType": "bytes32",
              "name": "imageHash",
              "type": "bytes32"
            },
            {
              "internalType": "bytes32",
              "name": "digest",
              "type": "bytes32"
            },
            {
              "internalType": "address[]",
              "name": "parentWallets",
              "type": "address[]"
            }
          ],
          "internalType": "struct Payload.Decoded",
          "name": "_payload",
          "type": "tuple"
        },
        {
          "internalType": "bytes",
          "name": "_signature",
          "type": "bytes"
        }
      ],
      "name": "InvalidSignature",
      "type": "error"
    },
    {
      "inputs": [
        {
          "internalType": "uint256",
          "name": "_flag",
          "type": "uint256"
        }
      ],
      "name": "InvalidSignatureFlag",
      "type": "error"
    },
    {
      "inputs": [
        {
          "internalType": "uint256",
          "name": "_threshold",
          "type": "uint256"
        },
        {
          "internalType": "uint256",
          "name": "_weight",
          "type": "uint256"
        }
      ],
      "name": "InvalidSignatureWeight",
      "type": "error"
    },
    {
      "inputs": [
        {
          "internalType": "bytes32",
          "name": "_opHash",
          "type": "bytes32"
        },
        {
          "internalType": "uint256",
          "name": "_expires",
          "type": "uint256"
        }
      ],
      "name": "InvalidStaticSignatureExpired",
      "type": "error"
    },
    {
      "inputs": [
        {
          "internalType": "bytes32",
          "name": "_opHash",
          "type": "bytes32"
        },
        {
          "internalType": "address",
          "name": "_caller",
          "type": "address"
        },
        {
          "internalType": "address",
          "name": "_expectedCaller",
          "type": "address"
        }
      ],
      "name": "InvalidStaticSignatureWrongCaller",
      "type": "error"
    },
    {
      "inputs": [
        {
          "internalType": "bytes",
          "name": "_signature",
          "type": "bytes"
        },
        {
          "internalType": "uint256",
          "name": "_threshold",
          "type": "uint256"
        },
        {
          "internalType": "uint256",
          "name": "_weight",
          "type": "uint256"
        }
      ],
      "name": "LowWeightChainedSignature",
      "type": "error"
    },
    {
      "inputs": [
        {
          "components": [
            {
              "internalType": "uint8",
              "name": "kind",
              "type": "uint8"
            },
            {
              "internalType": "bool",
              "name": "noChainId",
              "type": "bool"
            },
            {
              "components": [
                {
                  "internalType": "address",
                  "name": "to",
                  "type": "address"
                },
                {
                  "internalType": "uint256",
                  "name": "value",
                  "type": "uint256"
                },
                {
                  "internalType": "bytes",
                  "name": "data",
                  "type": "bytes"
                },
                {
                  "internalType": "uint256",
                  "name": "gasLimit",
                  "type": "uint256"
                },
                {
                  "internalType": "bool",
                  "name": "delegateCall",
                  "type": "bool"
                },
                {
                  "internalType": "bool",
                  "name": "onlyFallback",
                  "type": "bool"
                },
                {
                  "internalType": "uint256",
                  "name": "behaviorOnError",
                  "type": "uint256"
                }
              ],
              "internalType": "struct Payload.Call[]",
              "name": "calls",
              "type": "tuple[]"
            },
            {
              "internalType": "uint256",
              "name": "space",
              "type": "uint256"
            },
            {
              "internalType": "uint256",
              "name": "nonce",
              "type": "uint256"
            },
            {
              "internalType": "bytes",
              "name": "message",
              "type": "bytes"
            },
            {
              "internalType": "bytes32",
              "name": "imageHash",
              "type": "bytes32"
            },
            {
              "internalType": "bytes32",
              "name": "digest",
              "type": "bytes32"
            },
            {
              "internalType": "address[]",
              "name": "parentWallets",
              "type": "address[]"
            }
          ],
          "internalType": "struct Payload.Decoded",
          "name": "_payload",
          "type": "tuple"
        },
        {
          "internalType": "uint256",
          "name": "_index",
          "type": "uint256"
        },
        {
          "internalType": "uint256",
          "name": "_gasLeft",
          "type": "uint256"
        }
      ],
      "name": "NotEnoughGas",
      "type": "error"
    },
    {
      "inputs": [
        {
          "internalType": "address",
          "name": "_sender",
          "type": "address"
        }
      ],
      "name": "OnlySelf",
      "type": "error"
    },
    {
      "inputs": [
        {
          "components": [
            {
              "internalType": "uint8",
              "name": "kind",
              "type": "uint8"
            },
            {
              "internalType": "bool",
              "name": "noChainId",
              "type": "bool"
            },
            {
              "components": [
                {
                  "internalType": "address",
                  "name": "to",
                  "type": "address"
                },
                {
                  "internalType": "uint256",
                  "name": "value",
                  "type": "uint256"
                },
                {
                  "internalType": "bytes",
                  "name": "data",
                  "type": "bytes"
                },
                {
                  "internalType": "uint256",
                  "name": "gasLimit",
                  "type": "uint256"
                },
                {
                  "internalType": "bool",
                  "name": "delegateCall",
                  "type": "bool"
                },
                {
                  "internalType": "bool",
                  "name": "onlyFallback",
                  "type": "bool"
                },
                {
                  "internalType": "uint256",
                  "name": "behaviorOnError",
                  "type": "uint256"
                }
              ],
              "internalType": "struct Payload.Call[]",
              "name": "calls",
              "type": "tuple[]"
            },
            {
              "internalType": "uint256",
              "name": "space",
              "type": "uint256"
            },
            {
              "internalType": "uint256",
              "name": "nonce",
              "type": "uint256"
            },
            {
              "internalType": "bytes",
              "name": "message",
              "type": "bytes"
            },
            {
              "internalType": "bytes32",
              "name": "imageHash",
              "type": "bytes32"
            },
            {
              "internalType": "bytes32",
              "name": "digest",
              "type": "bytes32"
            },
            {
              "internalType": "address[]",
              "name": "parentWallets",
              "type": "address[]"
            }
          ],
          "internalType": "struct Payload.Decoded",
          "name": "_payload",
          "type": "tuple"
        },
        {
          "internalType": "uint256",
          "name": "_index",
          "type": "uint256"
        },
        {
          "internalType": "bytes",
          "name": "_returnData",
          "type": "bytes"
        }
      ],
      "name": "Reverted",
      "type": "error"
    },
    {
      "inputs": [
        {
          "components": [
            {
              "internalType": "bytes32",
              "name": "imageHash",
              "type": "bytes32"
            },
            {
              "internalType": "uint256",
              "name": "checkpoint",
              "type": "uint256"
            }
          ],
          "internalType": "struct Snapshot",
          "name": "_snapshot",
          "type": "tuple"
        }
      ],
      "name": "UnusedSnapshot",
      "type": "error"
    },
    {
      "inputs": [
        {
          "internalType": "uint256",
          "name": "_nextCheckpoint",
          "type": "uint256"
        },
        {
          "internalType": "uint256",
          "name": "_checkpoint",
          "type": "uint256"
        }
      ],
      "name": "WrongChainedCheckpointOrder",
      "type": "error"
    },
    {
      "anonymous": false,
      "inputs": [
        {
          "indexed": false,
          "internalType": "bytes32",
          "name": "_opHash",
          "type": "bytes32"
        },
        {
          "indexed": false,
          "internalType": "uint256",
          "name": "_index",
          "type": "uint256"
        },
        {
          "indexed": false,
          "internalType": "bytes",
          "name": "_returnData",
          "type": "bytes"
        }
      ],
      "name": "CallAborted",
      "type": "event"
    },
    {
      "anonymous": false,
      "inputs": [
        {
          "indexed": false,
          "internalType": "bytes32",
          "name": "_opHash",
          "type": "bytes32"
        },
        {
          "indexed": false,
          "internalType": "uint256",
          "name": "_index",
          "type": "uint256"
        },
        {
          "indexed": false,
          "internalType": "bytes",
          "name": "_returnData",
          "type": "bytes"
        }
      ],
      "name": "CallFailed",
      "type": "event"
    },
    {
      "anonymous": false,
      "inputs": [
        {
          "indexed": false,
          "internalType": "bytes32",
          "name": "_opHash",
          "type": "bytes32"
        },
        {
          "indexed": false,
          "internalType": "uint256",
          "name": "_index",
          "type": "uint256"
        }
      ],
      "name": "CallSkipped",
      "type": "event"
    },
    {
      "anonymous": false,
      "inputs": [
        {
          "indexed": false,
          "internalType": "bytes32",
          "name": "_opHash",
          "type": "bytes32"
        },
        {
          "indexed": false,
          "internalType": "uint256",
          "name": "_index",
          "type": "uint256"
        }
      ],
      "name": "CallSucceeded",
      "type": "event"
    },
    {
      "anonymous": false,
      "inputs": [
        {
          "indexed": false,
          "internalType": "bytes4",
          "name": "selector",
          "type": "bytes4"
        },
        {
          "indexed": false,
          "internalType": "address",
          "name": "implementation",
          "type": "address"
        }
      ],
      "name": "DefinedHook",
      "type": "event"
    },
    {
      "anonymous": false,
      "inputs": [
        {
          "indexed": false,
          "internalType": "bytes32",
          "name": "newImageHash",
          "type": "bytes32"
        }
      ],
      "name": "ImageHashUpdated",
      "type": "event"
    },
    {
      "anonymous": false,
      "inputs": [
        {
          "indexed": false,
          "internalType": "address",
          "name": "newImplementation",
          "type": "address"
        }
      ],
      "name": "ImplementationUpdated",
      "type": "event"
    },
    {
      "anonymous": false,
      "inputs": [
        {
          "indexed": false,
          "internalType": "uint256",
          "name": "_space",
          "type": "uint256"
        },
        {
          "indexed": false,
          "internalType": "uint256",
          "name": "_newNonce",
          "type": "uint256"
        }
      ],
      "name": "NonceChange",
      "type": "event"
    },
    {
      "anonymous": false,
      "inputs": [
        {
          "indexed": false,
          "internalType": "bytes32",
          "name": "_hash",
          "type": "bytes32"
        },
        {
          "indexed": false,
          "internalType": "address",
          "name": "_address",
          "type": "address"
        },
        {
          "indexed": false,
          "internalType": "uint96",
          "name": "_timestamp",
          "type": "uint96"
        }
      ],
      "name": "StaticSignatureSet",
      "type": "event"
    },
    {
      "stateMutability": "payable",
      "type": "fallback"
    },
    {
      "inputs": [
        {
          "internalType": "bytes4",
          "name": "selector",
          "type": "bytes4"
        },
        {
          "internalType": "address",
          "name": "implementation",
          "type": "address"
        }
      ],
      "name": "addHook",
      "outputs": [],
      "stateMutability": "payable",
      "type": "function"
    },
    {
      "inputs": [
        {
          "internalType": "bytes",
          "name": "_payload",
          "type": "bytes"
        },
        {
          "internalType": "bytes",
          "name": "_signature",
          "type": "bytes"
        }
      ],
      "name": "execute",
      "outputs": [],
      "stateMutability": "payable",
      "type": "function"
    },
    {
      "inputs": [],
      "name": "getImplementation",
      "outputs": [
        {
          "internalType": "address",
          "name": "",
          "type": "address"
        }
      ],
      "stateMutability": "view",
      "type": "function"
    },
    {
      "inputs": [
        {
          "internalType": "bytes32",
          "name": "_hash",
          "type": "bytes32"
        }
      ],
      "name": "getStaticSignature",
      "outputs": [
        {
          "internalType": "address",
          "name": "",
          "type": "address"
        },
        {
          "internalType": "uint256",
          "name": "",
          "type": "uint256"
        }
      ],
      "stateMutability": "view",
      "type": "function"
    },
    {
      "inputs": [],
      "name": "imageHash",
      "outputs": [
        {
          "internalType": "bytes32",
          "name": "",
          "type": "bytes32"
        }
      ],
      "stateMutability": "view",
      "type": "function"
    },
    {
      "inputs": [
        {
          "internalType": "bytes32",
          "name": "_hash",
          "type": "bytes32"
        },
        {
          "internalType": "bytes",
          "name": "_signature",
          "type": "bytes"
        }
      ],
      "name": "isValidSignature",
      "outputs": [
        {
          "internalType": "bytes4",
          "name": "",
          "type": "bytes4"
        }
      ],
      "stateMutability": "view",
      "type": "function"
    },
    {
      "inputs": [
        {
          "internalType": "address",
          "name": "",
          "type": "address"
        },
        {
          "internalType": "address",
          "name": "",
          "type": "address"
        },
        {
          "internalType": "uint256[]",
          "name": "",
          "type": "uint256[]"
        },
        {
          "internalType": "uint256[]",
          "name": "",
          "type": "uint256[]"
        },
        {
          "internalType": "bytes",
          "name": "",
          "type": "bytes"
        }
      ],
      "name": "onERC1155BatchReceived",
      "outputs": [
        {
          "internalType": "bytes4",
          "name": "",
          "type": "bytes4"
        }
      ],
      "stateMutability": "pure",
      "type": "function"
    },
    {
      "inputs": [
        {
          "internalType": "address",
          "name": "",
          "type": "address"
        },
        {
          "internalType": "address",
          "name": "",
          "type": "address"
        },
        {
          "internalType": "uint256",
          "name": "",
          "type": "uint256"
        },
        {
          "internalType": "uint256",
          "name": "",
          "type": "uint256"
        },
        {
          "internalType": "bytes",
          "name": "",
          "type": "bytes"
        }
      ],
      "name": "onERC1155Received",
      "outputs": [
        {
          "internalType": "bytes4",
          "name": "",
          "type": "bytes4"
        }
      ],
      "stateMutability": "pure",
      "type": "function"
    },
    {
      "inputs": [
        {
          "internalType": "address",
          "name": "",
          "type": "address"
        },
        {
          "internalType": "address",
          "name": "",
          "type": "address"
        },
        {
          "internalType": "uint256",
          "name": "",
          "type": "uint256"
        },
        {
          "internalType": "bytes",
          "name": "",
          "type": "bytes"
        }
      ],
      "name": "onERC721Received",
      "outputs": [
        {
          "internalType": "bytes4",
          "name": "",
          "type": "bytes4"
        }
      ],
      "stateMutability": "pure",
      "type": "function"
    },
    {
      "inputs": [
        {
          "internalType": "bytes4",
          "name": "selector",
          "type": "bytes4"
        }
      ],
      "name": "readHook",
      "outputs": [
        {
          "internalType": "address",
          "name": "",
          "type": "address"
        }
      ],
      "stateMutability": "view",
      "type": "function"
    },
    {
      "inputs": [
        {
          "internalType": "uint256",
          "name": "_space",
          "type": "uint256"
        }
      ],
      "name": "readNonce",
      "outputs": [
        {
          "internalType": "uint256",
          "name": "",
          "type": "uint256"
        }
      ],
      "stateMutability": "view",
      "type": "function"
    },
    {
      "inputs": [
        {
          "components": [
            {
              "internalType": "uint8",
              "name": "kind",
              "type": "uint8"
            },
            {
              "internalType": "bool",
              "name": "noChainId",
              "type": "bool"
            },
            {
              "components": [
                {
                  "internalType": "address",
                  "name": "to",
                  "type": "address"
                },
                {
                  "internalType": "uint256",
                  "name": "value",
                  "type": "uint256"
                },
                {
                  "internalType": "bytes",
                  "name": "data",
                  "type": "bytes"
                },
                {
                  "internalType": "uint256",
                  "name": "gasLimit",
                  "type": "uint256"
                },
                {
                  "internalType": "bool",
                  "name": "delegateCall",
                  "type": "bool"
                },
                {
                  "internalType": "bool",
                  "name": "onlyFallback",
                  "type": "bool"
                },
                {
                  "internalType": "uint256",
                  "name": "behaviorOnError",
                  "type": "uint256"
                }
              ],
              "internalType": "struct Payload.Call[]",
              "name": "calls",
              "type": "tuple[]"
            },
            {
              "internalType": "uint256",
              "name": "space",
              "type": "uint256"
            },
            {
              "internalType": "uint256",
              "name": "nonce",
              "type": "uint256"
            },
            {
              "internalType": "bytes",
              "name": "message",
              "type": "bytes"
            },
            {
              "internalType": "bytes32",
              "name": "imageHash",
              "type": "bytes32"
            },
            {
              "internalType": "bytes32",
              "name": "digest",
              "type": "bytes32"
            },
            {
              "internalType": "address[]",
              "name": "parentWallets",
              "type": "address[]"
            }
          ],
          "internalType": "struct Payload.Decoded",
          "name": "_payload",
          "type": "tuple"
        },
        {
          "internalType": "bytes",
          "name": "_signature",
          "type": "bytes"
        }
      ],
      "name": "recoverPartialSignature",
      "outputs": [
        {
          "internalType": "uint256",
          "name": "threshold",
          "type": "uint256"
        },
        {
          "internalType": "uint256",
          "name": "weight",
          "type": "uint256"
        },
        {
          "internalType": "bool",
          "name": "isValidImage",
          "type": "bool"
        },
        {
          "internalType": "bytes32",
          "name": "imageHash",
          "type": "bytes32"
        },
        {
          "internalType": "uint256",
          "name": "checkpoint",
          "type": "uint256"
        },
        {
          "internalType": "bytes32",
          "name": "opHash",
          "type": "bytes32"
        }
      ],
      "stateMutability": "view",
      "type": "function"
    },
    {
      "inputs": [
        {
          "components": [
            {
              "internalType": "uint8",
              "name": "kind",
              "type": "uint8"
            },
            {
              "internalType": "bool",
              "name": "noChainId",
              "type": "bool"
            },
            {
              "components": [
                {
                  "internalType": "address",
                  "name": "to",
                  "type": "address"
                },
                {
                  "internalType": "uint256",
                  "name": "value",
                  "type": "uint256"
                },
                {
                  "internalType": "bytes",
                  "name": "data",
                  "type": "bytes"
                },
                {
                  "internalType": "uint256",
                  "name": "gasLimit",
                  "type": "uint256"
                },
                {
                  "internalType": "bool",
                  "name": "delegateCall",
                  "type": "bool"
                },
                {
                  "internalType": "bool",
                  "name": "onlyFallback",
                  "type": "bool"
                },
                {
                  "internalType": "uint256",
                  "name": "behaviorOnError",
                  "type": "uint256"
                }
              ],
              "internalType": "struct Payload.Call[]",
              "name": "calls",
              "type": "tuple[]"
            },
            {
              "internalType": "uint256",
              "name": "space",
              "type": "uint256"
            },
            {
              "internalType": "uint256",
              "name": "nonce",
              "type": "uint256"
            },
            {
              "internalType": "bytes",
              "name": "message",
              "type": "bytes"
            },
            {
              "internalType": "bytes32",
              "name": "imageHash",
              "type": "bytes32"
            },
            {
              "internalType": "bytes32",
              "name": "digest",
              "type": "bytes32"
            },
            {
              "internalType": "address[]",
              "name": "parentWallets",
              "type": "address[]"
            }
          ],
          "internalType": "struct Payload.Decoded",
          "name": "_payload",
          "type": "tuple"
        },
        {
          "internalType": "bytes",
          "name": "_signature",
          "type": "bytes"
        }
      ],
      "name": "recoverSapientSignature",
      "outputs": [
        {
          "internalType": "bytes32",
          "name": "",
          "type": "bytes32"
        }
      ],
      "stateMutability": "view",
      "type": "function"
    },
    {
      "inputs": [
        {
          "internalType": "bytes4",
          "name": "selector",
          "type": "bytes4"
        }
      ],
      "name": "removeHook",
      "outputs": [],
      "stateMutability": "payable",
      "type": "function"
    },
    {
      "inputs": [
        {
          "internalType": "bytes",
          "name": "_payload",
          "type": "bytes"
        }
      ],
      "name": "selfExecute",
      "outputs": [],
      "stateMutability": "payable",
      "type": "function"
    },
    {
      "inputs": [
        {
          "internalType": "bytes32",
          "name": "_hash",
          "type": "bytes32"
        },
        {
          "internalType": "address",
          "name": "_address",
          "type": "address"
        },
        {
          "internalType": "uint96",
          "name": "_timestamp",
          "type": "uint96"
        }
      ],
      "name": "setStaticSignature",
      "outputs": [],
      "stateMutability": "nonpayable",
      "type": "function"
    },
    {
      "inputs": [
        {
          "internalType": "address",
          "name": "",
          "type": "address"
        },
        {
          "internalType": "uint256",
          "name": "",
          "type": "uint256"
        },
        {
          "internalType": "bytes",
          "name": "",
          "type": "bytes"
        }
      ],
      "name": "tokenReceived",
      "outputs": [
        {
          "internalType": "bytes4",
          "name": "",
          "type": "bytes4"
        }
      ],
      "stateMutability": "pure",
      "type": "function"
    },
    {
      "inputs": [
        {
          "internalType": "address",
          "name": "operator",
          "type": "address"
        },
        {
          "internalType": "address",
          "name": "from",
          "type": "address"
        },
        {
          "internalType": "address",
          "name": "to",
          "type": "address"
        },
        {
          "internalType": "uint256",
          "name": "amount",
          "type": "uint256"
        },
        {
          "internalType": "bytes",
          "name": "data",
          "type": "bytes"
        },
        {
          "internalType": "bytes",
          "name": "operatorData",
          "type": "bytes"
        }
      ],
      "name": "tokensReceived",
      "outputs": [],
      "stateMutability": "nonpayable",
      "type": "function"
    },
    {
      "inputs": [
        {
          "internalType": "bytes32",
          "name": "_imageHash",
          "type": "bytes32"
        }
      ],
      "name": "updateImageHash",
      "outputs": [],
      "stateMutability": "nonpayable",
      "type": "function"
    },
    {
      "inputs": [
        {
          "internalType": "address",
          "name": "_implementation",
          "type": "address"
        }
      ],
      "name": "updateImplementation",
      "outputs": [],
      "stateMutability": "payable",
      "type": "function"
    },
    {
      "stateMutability": "payable",
      "type": "receive"
    }
  ],
  "bytecode": "0x6080604052348015600f57600080fd5b5061407f8061001f6000396000f3fe6080604052600436106101625760003560e01c80636ea44577116100c0578063ad55366b11610074578063bc197c8111610059578063bc197c811461050b578063f23a6e6114610553578063f727ef1c1461059957610169565b8063ad55366b146104a5578063b93ea7ad146104f857610169565b80638c3f5563116100a55780638c3f55631461042457806392dcb3fc14610444578063aaf10f421461049057610169565b80636ea44577146103cd5780638943ec02146103e057610169565b80631a9b23371161011757806329561426116100fc57806329561426146103855780634fcf3eca146103a557806351605d80146103b857610169565b80631a9b23371461032d5780631f6a1eb91461037257610169565b806313792a4a1161014857806313792a4a14610264578063150b7a02146102975780631626ba7e1461030d57610169565b806223de291461022c578063025b22bc1461025157610169565b3661016957005b6004361061022a5760006101856101803683613075565b6105b9565b905073ffffffffffffffffffffffffffffffffffffffff811615610228576000808273ffffffffffffffffffffffffffffffffffffffff166000366040516101ce9291906130db565b600060405180830381855af49150503d8060008114610209576040519150601f19603f3d011682016040523d82523d6000602084013e61020e565b606091505b50915091508161022057805160208201fd5b805160208201f35b505b005b34801561023857600080fd5b5061022a61024736600461315d565b5050505050505050565b61022a61025f36600461320d565b61060d565b34801561027057600080fd5b5061028461027f366004613568565b610659565b6040519081526020015b60405180910390f35b3480156102a357600080fd5b506102dc6102b23660046136af565b7f150b7a020000000000000000000000000000000000000000000000000000000095945050505050565b6040517fffffffff00000000000000000000000000000000000000000000000000000000909116815260200161028e565b34801561031957600080fd5b506102dc61032836600461371e565b6107c4565b34801561033957600080fd5b5061034d61034836600461377f565b61085b565b60405173ffffffffffffffffffffffffffffffffffffffff909116815260200161028e565b61022a61038036600461379c565b610866565b34801561039157600080fd5b5061022a6103a036600461380d565b6108e5565b61022a6103b336600461377f565b610929565b3480156103c457600080fd5b506102846109eb565b61022a6103db366004613826565b610a1a565b3480156103ec57600080fd5b506102dc6103fb366004613868565b7f8943ec0200000000000000000000000000000000000000000000000000000000949350505050565b34801561043057600080fd5b5061028461043f36600461380d565b610a87565b34801561045057600080fd5b5061046461045f36600461380d565b610ab3565b6040805173ffffffffffffffffffffffffffffffffffffffff909316835260208301919091520161028e565b34801561049c57600080fd5b5061034d610ac8565b3480156104b157600080fd5b506104c56104c0366004613568565b610ad2565b604080519687526020870195909552921515938501939093526060840152608083019190915260a082015260c00161028e565b61022a6105063660046138aa565b610b0c565b34801561051757600080fd5b506102dc610526366004613924565b7fbc197c810000000000000000000000000000000000000000000000000000000098975050505050505050565b34801561055f57600080fd5b506102dc61056e3660046139cb565b7ff23a6e61000000000000000000000000000000000000000000000000000000009695505050505050565b3480156105a557600080fd5b5061022a6105b4366004613a43565b610bd1565b60006106077fbe27a319efc8734e89e26ba4bc95f5c788584163b959f03fa04e2d7ab4b9a1207fffffffff000000000000000000000000000000000000000000000000000000008416610c8c565b92915050565b33301461064d576040517fa19dbf000000000000000000000000000000000000000000000000000000000081523360048201526024015b60405180910390fd5b61065681610cea565b50565b60008084610100015151600161066f9190613ac3565b67ffffffffffffffff81111561068757610687613228565b6040519080825280602002602001820160405280156106b0578160200160208202803683370190505b50905060005b856101000151518110156107225785610100015181815181106106db576106db613ad6565b60200260200101518282815181106106f5576106f5613ad6565b73ffffffffffffffffffffffffffffffffffffffff909216602092830291909101909101526001016106b6565b503381866101000151518151811061073c5761073c613ad6565b73ffffffffffffffffffffffffffffffffffffffff9092166020928302919091019091015261010085018190526000610776868686610d3f565b509050806107b6578585856040517ff58cc8b500000000000000000000000000000000000000000000000000000000815260040161064493929190613d7e565b5060019150505b9392505050565b604080516101208101825260006020820181905260609282018390528282018190526080820181905260a0820183905260c082018190526101008201929092526003815260e08101859052600061081c828686610d3f565b509050806108305750600091506107bd9050565b507f1626ba7e0000000000000000000000000000000000000000000000000000000095945050505050565b6000610607826105b9565b60005a905060006108778686610f26565b905061088b81606001518260800151611344565b600080610899838787610d3f565b91509150816108da578286866040517fa2b6d61b00000000000000000000000000000000000000000000000000000000815260040161064493929190613d7e565b61024784828561142c565b333014610920576040517fa19dbf00000000000000000000000000000000000000000000000000000000008152336004820152602401610644565b6106568161178b565b333014610964576040517fa19dbf00000000000000000000000000000000000000000000000000000000008152336004820152602401610644565b600061096f826105b9565b73ffffffffffffffffffffffffffffffffffffffff16036109e0576040517f1c3812cc0000000000000000000000000000000000000000000000000000000081527fffffffff0000000000000000000000000000000000000000000000000000000082166004820152602401610644565b61065681600061181b565b6000610a157fea7157fa25e3aa17d0ae2d5280fa4e24d421c61842aa85e45194e1145aa72bf85490565b905090565b333014610a55576040517fa19dbf00000000000000000000000000000000000000000000000000000000008152336004820152602401610644565b60005a90506000610a668484610f26565b90506000610a73826118db565b9050610a8083828461142c565b5050505050565b60006106077f8d0bf1fd623d628c741362c1289948e57b3e2905218c676d3e69abee36d6ae2e83610c8c565b600080610abf83611956565b91509150915091565b6000610a15305490565b600080600080600080610ae98989896000806119a2565b939950919750945092509050610afe83611cc7565b935093975093979195509350565b333014610b47576040517fa19dbf00000000000000000000000000000000000000000000000000000000008152336004820152602401610644565b6000610b52836105b9565b73ffffffffffffffffffffffffffffffffffffffff1614610bc3576040517f5b4d6d6a0000000000000000000000000000000000000000000000000000000081527fffffffff0000000000000000000000000000000000000000000000000000000083166004820152602401610644565b610bcd828261181b565b5050565b333014610c0c576040517fa19dbf00000000000000000000000000000000000000000000000000000000008152336004820152602401610644565b610c258383836bffffffffffffffffffffffff16611cd2565b6040805184815273ffffffffffffffffffffffffffffffffffffffff841660208201526bffffffffffffffffffffffff83168183015290517febf265acfac1c01de588ed7ef49743b9c3ce8d6d1edeaf510a1f5453228515b19181900360600190a1505050565b6000808383604051602001610cab929190918252602082015260400190565b604080517fffffffffffffffffffffffffffffffffffffffffffffffffffffffffffffffe0818403018152919052805160209091012054949350505050565b610cf2813055565b60405173ffffffffffffffffffffffffffffffffffffffff821681527f310ba5f1d2ed074b51e2eccd052a47ae9ab7c6b800d1fca3db3999d6a592ca03906020015b60405180910390a150565b600080600084846000818110610d5757610d57613ad6565b7fff000000000000000000000000000000000000000000000000000000000000009201359182169250507f80000000000000000000000000000000000000000000000000000000000000009081169003610eac57610db4866118db565b9150600080610dc284611956565b91509150428111610e09576040517ff95b6ab70000000000000000000000000000000000000000000000000000000081526004810185905260248101829052604401610644565b73ffffffffffffffffffffffffffffffffffffffff821615801590610e44575073ffffffffffffffffffffffffffffffffffffffff82163314155b15610ea0576040517f8945c3130000000000000000000000000000000000000000000000000000000081526004810185905233602482015273ffffffffffffffffffffffffffffffffffffffff83166044820152606401610644565b60019450505050610f1e565b6000806000610ebf8989896000806119a2565b985092955090935091505082821015610f0e576040517ffd41fcba0000000000000000000000000000000000000000000000000000000081526004810184905260248101839052604401610644565b610f1781611cc7565b9550505050505b935093915050565b604080516101208101825260008082526020820181905260609282018390528282018190526080820181905260a0820183905260c0820181905260e0820152610100810191909152823560f81c60018082168103610f8a5760006060840152610f9b565b84810135606090811c908401526014015b6007600183901c168015610fee5760016008820290811b7fffffffffffffffffffffffffffffffffffffffffffffffffffffffffffffffff0187840135610100929092039190911c166080850152908101905b6000836010166010036110035750600161102c565b8360201660200361101f5750600282019186013560f01c61102c565b50600182019186013560f81c5b8067ffffffffffffffff81111561104557611045613228565b6040519080825280602002602001820160405280156110d057816020015b6110bd6040518060e00160405280600073ffffffffffffffffffffffffffffffffffffffff168152602001600081526020016060815260200160008152602001600015158152602001600015158152602001600081525090565b8152602001906001900390816110635790505b50604086015260005b818110156113395760018085019489013560f81c90808216900361113857308760400151838151811061110e5761110e613ad6565b602090810291909101015173ffffffffffffffffffffffffffffffffffffffff9091169052611182565b8489013560601c601486018860400151848151811061115957611159613ad6565b602090810291909101015173ffffffffffffffffffffffffffffffffffffffff90921690915294505b600280821690036111c0578489013560208601886040015184815181106111ab576111ab613ad6565b60200260200101516020018197508281525050505b6004808216900361125857600385019489013560e81c89868a6111e38483613ac3565b926111f093929190613dae565b8080601f016020809104026020016040519081016040528093929190818152602001838380828437600092019190915250505050604089015180518590811061123b5761123b613ad6565b6020908102919091010151604001526112548187613ac3565b9550505b600880821690036112965784890135602086018860400151848151811061128157611281613ad6565b60200260200101516060018197508281525050505b8060101660ff16601014876040015183815181106112b6576112b6613ad6565b602002602001015160800190151590811515815250508060201660ff16602014876040015183815181106112ec576112ec613ad6565b602090810291909101015190151560a090910152604087015180516003600684901c1691908490811061132157611321613ad6565b602090810291909101015160c00152506001016110d9565b505050505092915050565b600061134f83610a87565b905081811461139b576040517f9b6514f4000000000000000000000000000000000000000000000000000000008152600481018490526024810183905260448101829052606401610644565b604080517f8d0bf1fd623d628c741362c1289948e57b3e2905218c676d3e69abee36d6ae2e60208083019190915281830186905282518083038401815260609092019092528051910120600183019081905560408051858152602081018390527f1f180c27086c7a39ea2a7b25239d1ab92348f07ca7bb59d1438fcf527568f881910160405180910390a150505050565b604081015151600090815b818110156117835760008460400151828151811061145757611457613ad6565b602002602001015190508060a001518015611470575083155b156114b45760408051878152602081018490527f9ae934bf8a986157c889a24c3b3fa85e74b7e4ee4b1f8fc6e7362cb4c1d19d8b910160405180910390a15061177b565b60608101516000945080158015906114cb5750805a105b156115085785835a6040517f2139527400000000000000000000000000000000000000000000000000000000815260040161064493929190613dd8565b60008260800151156115dc5782516115d59083156115265783611528565b5a5b634c4e814c60e01b8b8d898b8e606001518b6040015160405160240161155396959493929190613dfd565b604080517fffffffffffffffffffffffffffffffffffffffffffffffffffffffffffffffe08184030181529190526020810180517bffffffffffffffffffffffffffffffffffffffffffffffffffffffff167fffffffff0000000000000000000000000000000000000000000000000000000090931692909217909152611d61565b9050611603565b82516020840151611600919084156115f457846115f6565b5a5b8660400151611d77565b90505b8061173e5760c083015161165f57600195507f115f347c00e69f252cd6b63c4f81022a9564c6befe8aa719cb74640a4a306f0d8885611640611d8f565b60405161164f93929190613e3a565b60405180910390a150505061177b565b60c08301517fffffffffffffffffffffffffffffffffffffffffffffffffffffffffffffffff016116c9578684611694611d8f565b6040517f7f6b0bb100000000000000000000000000000000000000000000000000000000815260040161064493929190613e59565b60c08301517ffffffffffffffffffffffffffffffffffffffffffffffffffffffffffffffffe0161173e577fc2c704302430fe0dc8d95f272e2f4e54bbbc51a3327fd5d75ab41f9fc8fd129b888561171f611d8f565b60405161172e93929190613e3a565b60405180910390a1505050611783565b60408051898152602081018690527f5a589b1d8062f33451d29cae3dabd9b2e36c62aee644178c600977ca8dda661a910160405180910390a15050505b600101611437565b505050505050565b806117c2576040517f4294d12700000000000000000000000000000000000000000000000000000000815260040160405180910390fd5b6117eb7fea7157fa25e3aa17d0ae2d5280fa4e24d421c61842aa85e45194e1145aa72bf8829055565b6040518181527f307ed6bd941ee9fc80f369c94af5fa11e25bab5102a6140191756c5474a30bfa90602001610d34565b604080517fbe27a319efc8734e89e26ba4bc95f5c788584163b959f03fa04e2d7ab4b9a1206020808301919091527fffffffff000000000000000000000000000000000000000000000000000000008516828401819052835180840385018152606084018086528151919093012073ffffffffffffffffffffffffffffffffffffffff8616908190559152608082015290517f0d7fc113eaf016db4681a1ba86d083ce3e0961f321062a75ac2b0aeb33deeed19181900360a00190a15050565b6000806118ec836020015130611dae565b905060006118f984611e7b565b6040517f1901000000000000000000000000000000000000000000000000000000000000602082015260228101849052604281018290529091506062015b6040516020818303038152906040528051906020012092505050919050565b600080806119847fc852adf5e97c2fc3b38f405671e91b7af1697ef0287577f227ef10494c2a8e8685610c8c565b606081901c956bffffffffffffffffffffffff909116945092505050565b6040805180820182526000808252602082018190529182918291829182918a3560f81c916001918084161480156119ed575073ffffffffffffffffffffffffffffffffffffffff8916155b15611b09578b82013560601c985060149091019089611b095760038201918c013560e81c60008d848e611a208583613ac3565b92611a2d93929190613dae565b8080601f016020809104026020016040519081016040528093929190818152602001838380828437600092019190915250506040517fccce3bc80000000000000000000000000000000000000000000000000000000081529293505073ffffffffffffffffffffffffffffffffffffffff8d169163ccce3bc89150611ab89030908590600401613e84565b6040805180830381865afa158015611ad4573d6000803e3d6000fd5b505050506040513d601f19601f82011682018060405250810190611af89190613ebb565b9250611b048285613ac3565b935050505b82600116600103611b4357611b318d8a838f8f87908092611b2c93929190613dae565b6120e7565b97509750975097509750505050611cba565b6002838116811460208f015283901c60071660016008820290811b7fffffffffffffffffffffffffffffffffffffffffffffffffffffffffffffffff018e850135610100929092039190911c16838201909650925060009050611bae6001600586901c811690613ac3565b60016008820290811b7fffffffffffffffffffffffffffffffffffffffffffffffffffffffffffffffff018f860135610100929092039190911c1699509092019150611bf98d6118db565b9350611c178d858e8e86908092611c1293929190613dae565b61232b565b600090815260208a815260408083208352888252808320835273ffffffffffffffffffffffffffffffffffffffff8d1690915290208251919850965015801590611c62575080518614155b8015611c72575080602001518511155b15611cb6576040517fccbb534f0000000000000000000000000000000000000000000000000000000081528151600482015260208201516024820152604401610644565b5050505b9550955095509550959050565b600061060782612c52565b611d5c7fc852adf5e97c2fc3b38f405671e91b7af1697ef0287577f227ef10494c2a8e86847fffffffffffffffffffffffffffffffffffffffff000000000000000000000000606086901b166bffffffffffffffffffffffff8516176040805160208082019590955280820193909352805180840382018152606090930190528151919092012055565b505050565b60008060008351602085018787f4949350505050565b6000806000835160208501878988f195945050505050565b60603d604051915060208201818101604052818352816000823e505090565b60007f8b73c3c69bb8fe3d512ecc4cf759cc79239f7b179b0ffacaa9a75d522b39400f7f4aa45ca7ad825ceb1bf35643f0a58c295239df563b1b565c2485f96477c563187f2a80e1ef1d7842f27f2e6be0972bb708b9a135c38860dbe73c27c3486c34f4de85611e1e5746611e21565b60005b6040805160208101959095528401929092526060830152608082015273ffffffffffffffffffffffffffffffffffffffff831660a082015260c0015b60405160208183030381529060405280519060200120905092915050565b600080826101000151604051602001611e949190613f0c565b604080517fffffffffffffffffffffffffffffffffffffffffffffffffffffffffffffffe08184030181529190528051602090910120835190915060ff16611f3d576000611ee58460400151612c85565b606085810151608080880151604080517f11e1e4079a79a66e4ade50033cfe2678cdd5341d2dfe5ef9513edb1a0be147a260208201529081018690529384019290925282015260a0810184905290915060c001611937565b825160ff167fffffffffffffffffffffffffffffffffffffffffffffffffffffffffffffffff01611fcd5760a08301518051602091820120604080517fe19a3b94fc3c7ece3f890d98a99bc422615537a08dea0603fa8425867d87d46693810193909352820152606081018290526080015b60405160208183030381529060405280519060200120915050919050565b825160ff167ffffffffffffffffffffffffffffffffffffffffffffffffffffffffffffffffe0161203d5760c0830151604080517f11fdeb7e8373a1aa96bfac8d0ea91526b2c5d15e5cee20e0543e780258f3e8e460208201529081019190915260608101829052608001611faf565b825160ff167ffffffffffffffffffffffffffffffffffffffffffffffffffffffffffffffffd016120ad5760e0830151604080517fe19a3b94fc3c7ece3f890d98a99bc422615537a08dea0603fa8425867d87d46660208201529081019190915260608101829052608001611faf565b82516040517f0481832000000000000000000000000000000000000000000000000000000000815260ff9091166004820152602401610644565b6000806000806000612149604051806101200160405280600060ff168152602001600015158152602001606081526020016000815260200160008152602001606081526020016000801916815260200160008019168152602001606081525090565b6002815260007fffffffffffffffffffffffffffffffffffffffffffffffffffffffffffffffff5b888210156122d35760038201916000908b013560e81c6121918482613ac3565b9150600090508a82146121a55760006121a7565b8d5b90507fffffffffffffffffffffffffffffffffffffffffffffffffffffffffffffffff83036121ff576121ee8f8d8d879086926121e693929190613dae565b6001856119a2565b939d50919b50995097509550612221565b612215858d8d879086926121e693929190613dae565b50929c50909a50985096505b8989101561226d5761223582858d8f613dae565b8b8b6040517fb006aba00000000000000000000000000000000000000000000000000000000081526004016106449493929190613f58565b819350878d60000151036122805760008d525b8287106122c3576040517f37daf62b0000000000000000000000000000000000000000000000000000000081526004810188905260248101849052604401610644565b50505060c0820185905283612171565b8a51158015906122e757508a602001518511155b15611cb6576040517fccbb534f0000000000000000000000000000000000000000000000000000000081528b51600482015260208c01516024820152604401610644565b60008060005b83811015612c4857600181019085013560f881901c9060fc1c8061243657600f821660008190036123695750600183019287013560f81c5b600080806123788b8b89612d33565b809a5081945082955083965050505050600060018d838686604051600081526020016040526040516123c6949392919093845260ff9290921660208401526040830152606082015260800190565b6020604051602081039080840390855afa1580156123e8573d6000803e3d6000fd5b5050506020604051035190508460ff168a019950600061240b828760ff16612d86565b9050896124185780612427565b60008a81526020829052604090205b99505050505050505050612331565b6001810361249a57600f821660008190036124585750600183019287013560f81c5b601484019388013560601c60006124728260ff8516612d86565b90508661247f578061248e565b60008781526020829052604090205b96505050505050612331565b60028103612664576003821660008190036124bc5750600183019287013560f81c5b60008489013560601c60148601955090506003600285901c16600060016008830290811b7fffffffffffffffffffffffffffffffffffffffffffffffffffffffffffffffff018c890135610100929092039190911c16828801809850819250505060008188019050631626ba7e60e01b7bffffffffffffffffffffffffffffffffffffffffffffffffffffffff19168473ffffffffffffffffffffffffffffffffffffffff16631626ba7e8f8f8f8d90879261257a93929190613dae565b6040518463ffffffff1660e01b815260040161259893929190613f7f565b602060405180830381865afa1580156125b5573d6000803e3d6000fd5b505050506040513d601f19601f820116820180604052508101906125d99190613f99565b7fffffffff00000000000000000000000000000000000000000000000000000000161461264a578c848d8d8b90859261261493929190613dae565b6040517fb2fed7ae0000000000000000000000000000000000000000000000000000000081526004016106449493929190613fb6565b8097508460ff168a019950600061240b858760ff16612d86565b600381036126985760208301928701358461267f578061268e565b60008581526020829052604090205b9450505050612331565b6004810361273b57600f8216600060016008830290811b7fffffffffffffffffffffffffffffffffffffffffffffffffffffffffffffffff018a870135610100929092039190911c1685830180965081925050506000818601905060008061270d8e8e8e8e8c908892611c1293929190613dae565b91509150829750818a01995061272d898260009182526020526040902090565b985050505050505050612331565b60068103612805576003600283901c1660008190036127615750600183019287013560f81c5b60038316600081900361277b5750600284019388013560f01c5b6000858a013560e81c600387018162ffffff1691508097508192505050600081870190506000806127b98f8f8f8f8d908892611c1293929190613dae565b915091508298508482106127cc57998501995b60006127d9828789612ded565b90508a6127e657806127f5565b60008b81526020829052604090205b9a50505050505050505050612331565b60058103612872576020830192870135888103612840577fffffffffffffffffffffffffffffffffffffffffffffffffffffffffffffffff95505b600061284b82612e51565b9050856128585780612867565b60008681526020829052604090205b955050505050612331565b6007810361295057600f821660008190036128945750600183019287013560f81c5b600080806128a38b8b89612d33565b604051909a5092955090935091506000906001906128f1908f906020017f19457468657265756d205369676e6564204d6573736167653a0a3332000000008152601c810191909152603c0190565b604080517fffffffffffffffffffffffffffffffffffffffffffffffffffffffffffffffe08184030181528282528051602091820120600084529083018083525260ff851690820152606081018690526080810185905260a0016123c6565b600881036129a4576020830192870135600061296c8b82612ea5565b9050808203612999577fffffffffffffffffffffffffffffffffffffffffffffffffffffffffffffffff96505b600061247283612f20565b60098103612adc576003821660008190036129c65750600183019287013560f81c5b60008489013560601c601486019550905060006003600286901c1660016008820290811b7fffffffffffffffffffffffffffffffffffffffffffffffffffffffffffffffff018c890135610100929092039190911c168188018098508193505050506000818701905060008373ffffffffffffffffffffffffffffffffffffffff166313792a4a8f8e8e8c908792612a6093929190613dae565b6040518463ffffffff1660e01b8152600401612a7e93929190613d7e565b602060405180830381865afa158015612a9b573d6000803e3d6000fd5b505050506040513d601f19601f82011682018060405250810190612abf9190613fec565b90508197508460ff168a019950600061240b858760ff1684612f5b565b600a8103612c1357600382166000819003612afe5750600183019287013560f81c5b60008489013560601c60148601955090506003600285901c16600060016008830290811b7fffffffffffffffffffffffffffffffffffffffffffffffffffffffffffffffff018c890135610100929092039190911c1682880180985081925050506000818801905060008473ffffffffffffffffffffffffffffffffffffffff1663898bd9218f8f8f8d908792612b9793929190613dae565b6040518463ffffffff1660e01b8152600401612bb593929190613f7f565b602060405180830381865afa158015612bd2573d6000803e3d6000fd5b505050506040513d601f19601f82011682018060405250810190612bf69190613fec565b90508198508560ff168b019a5060006127d9868860ff1684612f5b565b6040517fb2505f7c00000000000000000000000000000000000000000000000000000000815260048101829052602401610644565b5094509492505050565b600081158015906106075750507fea7157fa25e3aa17d0ae2d5280fa4e24d421c61842aa85e45194e1145aa72bf8541490565b600080825167ffffffffffffffff811115612ca257612ca2613228565b604051908082528060200260200182016040528015612ccb578160200160208202803683370190505b50905060005b8351811015612d2157612cfc848281518110612cef57612cef613ad6565b6020026020010151612fc9565b828281518110612d0e57612d0e613ad6565b6020908102919091010152600101612cd1565b5080604051602001611faf9190614005565b828101803590602001357f7fffffffffffffffffffffffffffffffffffffffffffffffffffffffffffffff811690600090604085019060ff81901c612d7981601b614030565b9350505093509350935093565b6040517f53657175656e6365207369676e65723a0a00000000000000000000000000000060208201527fffffffffffffffffffffffffffffffffffffffff000000000000000000000000606084901b16603182015260458101829052600090606501611e5d565b6040517f53657175656e6365206e657374656420636f6e6669673a0a000000000000000060208201526038810184905260588101839052607881018290526000906098015b6040516020818303038152906040528051906020012090509392505050565b6040517f53657175656e636520737461746963206469676573743a0a00000000000000006020820152603881018290526000906058015b604051602081830303815290604052805190602001209050919050565b600080612eb6846020015184611dae565b90506000612ec385611e7b565b6040517f190100000000000000000000000000000000000000000000000000000000000060208201526022810184905260428101829052909150606201604051602081830303815290604052805190602001209250505092915050565b604080517f53657175656e636520616e792061646472657373207375626469676573743a0a6020820152908101829052600090606001612e88565b6040517f53657175656e63652073617069656e7420636f6e6669673a0a0000000000000060208201527fffffffffffffffffffffffffffffffffffffffff000000000000000000000000606085901b166039820152604d8101839052606d8101829052600090608d01612e32565b80516020808301516040808501518051908401206060860151608087015160a088015160c08901519451600098612e88987f0603985259a953da1f65a522f589c17bd1d0117ec1d3abb7c0788aef251ef4379891979196959493920197885273ffffffffffffffffffffffffffffffffffffffff969096166020880152604087019490945260608601929092526080850152151560a0840152151560c083015260e08201526101000190565b80357fffffffff0000000000000000000000000000000000000000000000000000000081169060048410156130d4577fffffffff00000000000000000000000000000000000000000000000000000000808560040360031b1b82161691505b5092915050565b8183823760009101908152919050565b803573ffffffffffffffffffffffffffffffffffffffff8116811461310f57600080fd5b919050565b60008083601f84011261312657600080fd5b50813567ffffffffffffffff81111561313e57600080fd5b60208301915083602082850101111561315657600080fd5b9250929050565b60008060008060008060008060c0898b03121561317957600080fd5b613182896130eb565b975061319060208a016130eb565b965061319e60408a016130eb565b955060608901359450608089013567ffffffffffffffff8111156131c157600080fd5b6131cd8b828c01613114565b90955093505060a089013567ffffffffffffffff8111156131ed57600080fd5b6131f98b828c01613114565b999c989b5096995094979396929594505050565b60006020828403121561321f57600080fd5b6107bd826130eb565b7f4e487b7100000000000000000000000000000000000000000000000000000000600052604160045260246000fd5b60405160e0810167ffffffffffffffff8111828210171561327a5761327a613228565b60405290565b604051610120810167ffffffffffffffff8111828210171561327a5761327a613228565b604051601f82017fffffffffffffffffffffffffffffffffffffffffffffffffffffffffffffffe016810167ffffffffffffffff811182821017156132eb576132eb613228565b604052919050565b803560ff8116811461310f57600080fd5b8035801515811461310f57600080fd5b600067ffffffffffffffff82111561332e5761332e613228565b5060051b60200190565b600082601f83011261334957600080fd5b813567ffffffffffffffff81111561336357613363613228565b61339460207fffffffffffffffffffffffffffffffffffffffffffffffffffffffffffffffe0601f840116016132a4565b8181528460208386010111156133a957600080fd5b816020850160208301376000918101602001919091529392505050565b600082601f8301126133d757600080fd5b81356133ea6133e582613314565b6132a4565b8082825260208201915060208360051b86010192508583111561340c57600080fd5b602085015b838110156134f957803567ffffffffffffffff81111561343057600080fd5b860160e08189037fffffffffffffffffffffffffffffffffffffffffffffffffffffffffffffffe001121561346457600080fd5b61346c613257565b613478602083016130eb565b815260408201356020820152606082013567ffffffffffffffff81111561349e57600080fd5b6134ad8a602083860101613338565b604083015250608082013560608201526134c960a08301613304565b60808201526134da60c08301613304565b60a082015260e0919091013560c0820152835260209283019201613411565b5095945050505050565b600082601f83011261351457600080fd5b81356135226133e582613314565b8082825260208201915060208360051b86010192508583111561354457600080fd5b602085015b838110156134f95761355a816130eb565b835260209283019201613549565b60008060006040848603121561357d57600080fd5b833567ffffffffffffffff81111561359457600080fd5b840161012081870312156135a757600080fd5b6135af613280565b6135b8826132f3565b81526135c660208301613304565b6020820152604082013567ffffffffffffffff8111156135e557600080fd5b6135f1888285016133c6565b604083015250606082810135908201526080808301359082015260a082013567ffffffffffffffff81111561362557600080fd5b61363188828501613338565b60a08301525060c0828101359082015260e0808301359082015261010082013567ffffffffffffffff81111561366657600080fd5b61367288828501613503565b61010083015250935050602084013567ffffffffffffffff81111561369657600080fd5b6136a286828701613114565b9497909650939450505050565b6000806000806000608086880312156136c757600080fd5b6136d0866130eb565b94506136de602087016130eb565b935060408601359250606086013567ffffffffffffffff81111561370157600080fd5b61370d88828901613114565b969995985093965092949392505050565b60008060006040848603121561373357600080fd5b83359250602084013567ffffffffffffffff81111561369657600080fd5b7fffffffff000000000000000000000000000000000000000000000000000000008116811461065657600080fd5b60006020828403121561379157600080fd5b81356107bd81613751565b600080600080604085870312156137b257600080fd5b843567ffffffffffffffff8111156137c957600080fd5b6137d587828801613114565b909550935050602085013567ffffffffffffffff8111156137f557600080fd5b61380187828801613114565b95989497509550505050565b60006020828403121561381f57600080fd5b5035919050565b6000806020838503121561383957600080fd5b823567ffffffffffffffff81111561385057600080fd5b61385c85828601613114565b90969095509350505050565b6000806000806060858703121561387e57600080fd5b613887856130eb565b935060208501359250604085013567ffffffffffffffff8111156137f557600080fd5b600080604083850312156138bd57600080fd5b82356138c881613751565b91506138d6602084016130eb565b90509250929050565b60008083601f8401126138f157600080fd5b50813567ffffffffffffffff81111561390957600080fd5b6020830191508360208260051b850101111561315657600080fd5b60008060008060008060008060a0898b03121561394057600080fd5b613949896130eb565b975061395760208a016130eb565b9650604089013567ffffffffffffffff81111561397357600080fd5b61397f8b828c016138df565b909750955050606089013567ffffffffffffffff81111561399f57600080fd5b6139ab8b828c016138df565b909550935050608089013567ffffffffffffffff8111156131ed57600080fd5b60008060008060008060a087890312156139e457600080fd5b6139ed876130eb565b95506139fb602088016130eb565b94506040870135935060608701359250608087013567ffffffffffffffff811115613a2557600080fd5b613a3189828a01613114565b979a9699509497509295939492505050565b600080600060608486031215613a5857600080fd5b83359250613a68602085016130eb565b915060408401356bffffffffffffffffffffffff81168114613a8957600080fd5b809150509250925092565b7f4e487b7100000000000000000000000000000000000000000000000000000000600052601160045260246000fd5b8082018082111561060757610607613a94565b7f4e487b7100000000000000000000000000000000000000000000000000000000600052603260045260246000fd5b6000815180845260005b81811015613b2b57602081850181015186830182015201613b0f565b5060006020828601015260207fffffffffffffffffffffffffffffffffffffffffffffffffffffffffffffffe0601f83011685010191505092915050565b600082825180855260208501945060208160051b8301016020850160005b83811015613c39577fffffffffffffffffffffffffffffffffffffffffffffffffffffffffffffffe0858403018852815173ffffffffffffffffffffffffffffffffffffffff815116845260208101516020850152604081015160e06040860152613bf560e0860182613b05565b6060838101519087015260808084015115159087015260a08084015115159087015260c0928301519290950191909152506020978801979190910190600101613b87565b50909695505050505050565b600081518084526020840193506020830160005b82811015613c8d57815173ffffffffffffffffffffffffffffffffffffffff16865260209586019590910190600101613c59565b5093949350505050565b805160ff16825260006020820151613cb3602085018215159052565b5060408201516101206040850152613ccf610120850182613b69565b9050606083015160608501526080830151608085015260a083015184820360a0860152613cfc8282613b05565b91505060c083015160c085015260e083015160e0850152610100830151848203610100860152613d2c8282613c45565b95945050505050565b8183528181602085013750600060208284010152600060207fffffffffffffffffffffffffffffffffffffffffffffffffffffffffffffffe0601f840116840101905092915050565b604081526000613d916040830186613c97565b8281036020840152613da4818587613d35565b9695505050505050565b60008085851115613dbe57600080fd5b83861115613dcb57600080fd5b5050820193919092039150565b606081526000613deb6060830186613c97565b60208301949094525060400152919050565b86815285602082015284604082015283606082015282608082015260c060a08201526000613e2e60c0830184613b05565b98975050505050505050565b838152826020820152606060408201526000613d2c6060830184613b05565b606081526000613e6c6060830186613c97565b8460208401528281036040840152613da48185613b05565b73ffffffffffffffffffffffffffffffffffffffff83168152604060208201526000613eb36040830184613b05565b949350505050565b60006040828403128015613ece57600080fd5b506040805190810167ffffffffffffffff81118282101715613ef257613ef2613228565b604052825181526020928301519281019290925250919050565b8151600090829060208501835b82811015613f4d57815173ffffffffffffffffffffffffffffffffffffffff16845260209384019390910190600101613f19565b509195945050505050565b606081526000613f6c606083018688613d35565b6020830194909452506040015292915050565b838152604060208201526000613d2c604083018486613d35565b600060208284031215613fab57600080fd5b81516107bd81613751565b84815273ffffffffffffffffffffffffffffffffffffffff84166020820152606060408201526000613da4606083018486613d35565b600060208284031215613ffe57600080fd5b5051919050565b8151600090829060208501835b82811015613f4d578151845260209384019390910190600101614012565b60ff818116838216019081111561060757610607613a9456fea26469706673582212200bd4251522c550bb03481c696423ea2d718f822ac8f158f26362eb0c2e5ddc8364736f6c634300081b0033",
  "deployedBytecode": "0x608060405260043610610142575f3560e01c80636ea44577116100b5578063aaf10f421161006e578063aaf10f4214610540578063ad55366b1461056a578063b93ea7ad146105ab578063bc197c81146105c7578063f23a6e6114610603578063f727ef1c1461063f57610149565b80636ea445771461041d5780638943ec02146104395780638c3f55631461047557806392dcb3fc146104b15780639c145aed146104ee578063a65d69d41461051657610149565b806319822f7c1161010757806319822f7c1461031b5780631a9b2337146103575780631f6a1eb91461039357806329561426146103af5780634fcf3eca146103d757806351605d80146103f357610149565b806223de2914610223578063025b22bc1461024b57806313792a4a14610267578063150b7a02146102a35780631626ba7e146102df57610149565b3661014957005b60045f36905010610221575f61016a5f369061016591906139db565b610667565b90505f73ffffffffffffffffffffffffffffffffffffffff168173ffffffffffffffffffffffffffffffffffffffff161461021f575f5f8273ffffffffffffffffffffffffffffffffffffffff165f366040516101c8929190613a75565b5f60405180830381855af49150503d805f8114610200576040519150601f19603f3d011682016040523d82523d5f602084013e610205565b606091505b50915091508161021757805160208201fd5b805160208201f35b505b005b34801561022e575f5ffd5b5061024960048036038101906102449190613b8c565b6106bc565b005b61026560048036038101906102609190613c56565b6106c6565b005b348015610272575f5ffd5b5061028d600480360381019061028891906141ed565b610742565b60405161029a9190614275565b60405180910390f35b3480156102ae575f5ffd5b506102c960048036038101906102c4919061428e565b6108f1565b6040516102d69190614321565b60405180910390f35b3480156102ea575f5ffd5b506103056004803603810190610300919061433a565b610905565b6040516103129190614321565b60405180910390f35b348015610326575f5ffd5b50610341600480360381019061033c91906143ba565b610947565b60405161034e9190614435565b60405180910390f35b348015610362575f5ffd5b5061037d60048036038101906103789190614478565b610bd7565b60405161038a91906144b2565b60405180910390f35b6103ad60048036038101906103a891906144cb565b610be8565b005b3480156103ba575f5ffd5b506103d560048036038101906103d09190614549565b610c77565b005b6103f160048036038101906103ec9190614478565b610cf3565b005b3480156103fe575f5ffd5b50610407610de8565b6040516104149190614275565b60405180910390f35b61043760048036038101906104329190614574565b610e19565b005b348015610444575f5ffd5b5061045f600480360381019061045a91906145bf565b610eb8565b60405161046c9190614321565b60405180910390f35b348015610480575f5ffd5b5061049b60048036038101906104969190614630565b610ecb565b6040516104a89190614435565b60405180910390f35b3480156104bc575f5ffd5b506104d760048036038101906104d29190614549565b610f03565b6040516104e592919061465b565b60405180910390f35b3480156104f9575f5ffd5b50610514600480360381019061050f9190614574565b610f17565b005b348015610521575f5ffd5b5061052a611098565b60405161053791906144b2565b60405180910390f35b34801561054b575f5ffd5b506105546110bc565b60405161056191906144b2565b60405180910390f35b348015610575575f5ffd5b50610590600480360381019061058b91906141ed565b6110ca565b6040516105a296959493929190614691565b60405180910390f35b6105c560048036038101906105c091906146f0565b611108565b005b3480156105d2575f5ffd5b506105ed60048036038101906105e89190614783565b6111fe565b6040516105fa9190614321565b60405180910390f35b34801561060e575f5ffd5b506106296004803603810190610624919061485a565b611215565b6040516106369190614321565b60405180910390f35b34801561064a575f5ffd5b5061066560048036038101906106609190614931565b61122a565b005b5f6106b37fbe27a319efc8734e89e26ba4bc95f5c788584163b959f03fa04e2d7ab4b9a1205f1b837bffffffffffffffffffffffffffffffffffffffffffffffffffffffff19166112f3565b5f1c9050919050565b5050505050505050565b3073ffffffffffffffffffffffffffffffffffffffff163373ffffffffffffffffffffffffffffffffffffffff161461073657336040517fa19dbf0000000000000000000000000000000000000000000000000000000000815260040161072d91906144b2565b60405180910390fd5b61073f8161132b565b50565b5f5f60018561010001515161075791906149ae565b67ffffffffffffffff8111156107705761076f613c95565b5b60405190808252806020026020018201604052801561079e5781602001602082028036833780820191505090505b5090505f5f90505b8561010001515181101561082e5785610100015181815181106107cc576107cb6149e1565b5b60200260200101518282815181106107e7576107e66149e1565b5b602002602001019073ffffffffffffffffffffffffffffffffffffffff16908173ffffffffffffffffffffffffffffffffffffffff168152505080806001019150506107a6565b5033818661010001515181518110610849576108486149e1565b5b602002602001019073ffffffffffffffffffffffffffffffffffffffff16908173ffffffffffffffffffffffffffffffffffffffff1681525050808561010001819052505f61089986868661136e565b509050806108e2578585856040517ff58cc8b50000000000000000000000000000000000000000000000000000000081526004016108d993929190614dc1565b60405180910390fd5b60015f1b925050509392505050565b5f63150b7a0260e01b905095945050505050565b5f5f6109108561155e565b90505f61091e82868661136e565b50905080610933575f60e01b92505050610940565b631626ba7e60e01b925050505b9392505050565b5f5f73ffffffffffffffffffffffffffffffffffffffff167f000000000000000000000000000000000000000000000000000000000000000073ffffffffffffffffffffffffffffffffffffffff16036109cd576040517fd13d783500000000000000000000000000000000000000000000000000000000815260040160405180910390fd5b7f000000000000000000000000000000000000000000000000000000000000000073ffffffffffffffffffffffffffffffffffffffff163373ffffffffffffffffffffffffffffffffffffffff1614610a5d57336040517f400b7ae7000000000000000000000000000000000000000000000000000000008152600401610a5491906144b2565b60405180910390fd5b5f8214610aed577f000000000000000000000000000000000000000000000000000000000000000073ffffffffffffffffffffffffffffffffffffffff1663b760faf983306040518363ffffffff1660e01b8152600401610abe91906144b2565b5f604051808303818588803b158015610ad5575f5ffd5b505af1158015610ae7573d5f5f3e3d5ffd5b50505050505b631626ba7e60e01b7bffffffffffffffffffffffffffffffffffffffffffffffffffffffff19163073ffffffffffffffffffffffffffffffffffffffff16631626ba7e8587806101000190610b429190614e04565b6040518463ffffffff1660e01b8152600401610b6093929190614e66565b602060405180830381865afa158015610b7b573d5f5f3e3d5ffd5b505050506040513d601f19601f82011682018060405250810190610b9f9190614eaa565b7bffffffffffffffffffffffffffffffffffffffffffffffffffffffff191614610bcc5760019050610bd0565b5f90505b9392505050565b5f610be182610667565b9050919050565b5f5a90505f610bf78686611587565b9050610c0b81606001518260800151611a29565b5f5f610c1883878761136e565b9150915081610c62578286866040517fa2b6d61b000000000000000000000000000000000000000000000000000000008152600401610c5993929190614dc1565b60405180910390fd5b610c6d848285611acd565b5050505050505050565b3073ffffffffffffffffffffffffffffffffffffffff163373ffffffffffffffffffffffffffffffffffffffff1614610ce757336040517fa19dbf00000000000000000000000000000000000000000000000000000000008152600401610cde91906144b2565b60405180910390fd5b610cf081611dfd565b50565b3073ffffffffffffffffffffffffffffffffffffffff163373ffffffffffffffffffffffffffffffffffffffff1614610d6357336040517fa19dbf00000000000000000000000000000000000000000000000000000000008152600401610d5a91906144b2565b60405180910390fd5b5f73ffffffffffffffffffffffffffffffffffffffff16610d8382610667565b73ffffffffffffffffffffffffffffffffffffffff1603610ddb57806040517f1c3812cc000000000000000000000000000000000000000000000000000000008152600401610dd29190614321565b60405180910390fd5b610de5815f611e9e565b50565b5f610e147fea7157fa25e3aa17d0ae2d5280fa4e24d421c61842aa85e45194e1145aa72bf85f1b611f3f565b905090565b3073ffffffffffffffffffffffffffffffffffffffff163373ffffffffffffffffffffffffffffffffffffffff1614610e8957336040517fa19dbf00000000000000000000000000000000000000000000000000000000008152600401610e8091906144b2565b60405180910390fd5b5f5a90505f610e988484611587565b90505f610ea482611f49565b9050610eb1838284611acd565b5050505050565b5f638943ec0260e01b9050949350505050565b5f610efa7f8d0bf1fd623d628c741362c1289948e57b3e2905218c676d3e69abee36d6ae2e5f1b835f1b6112f3565b5f1c9050919050565b5f5f610f0e83611f99565b91509150915091565b5f73ffffffffffffffffffffffffffffffffffffffff167f000000000000000000000000000000000000000000000000000000000000000073ffffffffffffffffffffffffffffffffffffffff1603610f9c576040517fd13d783500000000000000000000000000000000000000000000000000000000815260040160405180910390fd5b7f000000000000000000000000000000000000000000000000000000000000000073ffffffffffffffffffffffffffffffffffffffff163373ffffffffffffffffffffffffffffffffffffffff161461102c57336040517f400b7ae700000000000000000000000000000000000000000000000000000000815260040161102391906144b2565b60405180910390fd5b3073ffffffffffffffffffffffffffffffffffffffff16636ea4457783836040518363ffffffff1660e01b8152600401611067929190614ed5565b5f604051808303815f87803b15801561107e575f5ffd5b505af1158015611090573d5f5f3e3d5ffd5b505050505050565b7f000000000000000000000000000000000000000000000000000000000000000081565b5f6110c5611fea565b905090565b5f5f5f5f5f5f6110dd8989895f5f611ff2565b809550819650829750839950849a5050505050506110fa8361232f565b935093975093979195509350565b3073ffffffffffffffffffffffffffffffffffffffff163373ffffffffffffffffffffffffffffffffffffffff161461117857336040517fa19dbf0000000000000000000000000000000000000000000000000000000000815260040161116f91906144b2565b60405180910390fd5b5f73ffffffffffffffffffffffffffffffffffffffff1661119883610667565b73ffffffffffffffffffffffffffffffffffffffff16146111f057816040517f5b4d6d6a0000000000000000000000000000000000000000000000000000000081526004016111e79190614321565b60405180910390fd5b6111fa8282611e9e565b5050565b5f63bc197c8160e01b905098975050505050505050565b5f63f23a6e6160e01b90509695505050505050565b3073ffffffffffffffffffffffffffffffffffffffff163373ffffffffffffffffffffffffffffffffffffffff161461129a57336040517fa19dbf0000000000000000000000000000000000000000000000000000000000815260040161129191906144b2565b60405180910390fd5b6112b38383836bffffffffffffffffffffffff16612340565b7febf265acfac1c01de588ed7ef49743b9c3ce8d6d1edeaf510a1f5453228515b18383836040516112e693929190614f06565b60405180910390a1505050565b5f5f8383604051602001611308929190614f3b565b604051602081830303815290604052805190602001209050805491505092915050565b6113348161239e565b7f310ba5f1d2ed074b51e2eccd052a47ae9ab7c6b800d1fca3db3999d6a592ca038160405161136391906144b2565b60405180910390a150565b5f5f5f84845f818110611384576113836149e1565b5b9050013560f81c60f81b9050608060f81b608060f81b82167effffffffffffffffffffffffffffffffffffffffffffffffffffffffffffff1916036114dd576113cc86611f49565b91505f5f6113d984611f99565b915091504281116114235783816040517ff95b6ab700000000000000000000000000000000000000000000000000000000815260040161141a929190614f62565b60405180910390fd5b5f73ffffffffffffffffffffffffffffffffffffffff168273ffffffffffffffffffffffffffffffffffffffff161415801561148b57503373ffffffffffffffffffffffffffffffffffffffff168273ffffffffffffffffffffffffffffffffffffffff1614155b156114d1578333836040517f8945c3130000000000000000000000000000000000000000000000000000000081526004016114c893929190614f89565b60405180910390fd5b60019450505050611556565b5f5f5f6114ed8989895f5f611ff2565b905080985081945082955083965050505050828210156115465782826040517ffd41fcba00000000000000000000000000000000000000000000000000000000815260040161153d929190614fbe565b60405180910390fd5b61154f8161232f565b9550505050505b935093915050565b6115666138e6565b6003815f019060ff16908160ff1681525050818160e0018181525050919050565b61158f6138e6565b5f815f019060ff16908160ff16815250505f5f6115ac85856123a4565b915060ff1691506001808316036115cc575f836060018181525050611608565b6115e18186866123ba9290919263ffffffff16565b8173ffffffffffffffffffffffffffffffffffffffff169150846060018193508281525050505b5f6007600184901c1690505f81111561164557611637828288886123d59190939291909392919063ffffffff16565b856080018194508281525050505b5f60108085160361165957600190506116b1565b60208085160361168c576116788388886124029290919263ffffffff16565b8161ffff16915080945081925050506116b0565b6116a183888861241d9290919263ffffffff16565b8160ff16915080945081925050505b5b8067ffffffffffffffff8111156116cb576116ca613c95565b5b60405190808252806020026020018201604052801561170457816020015b6116f1613931565b8152602001906001900390816116e95790505b5085604001819052505f5f90505b81811015611a1e575f611730858a8a61241d9290919263ffffffff16565b8096508192505050600180821660ff160361179f57308760400151838151811061175d5761175c6149e1565b5b60200260200101515f019073ffffffffffffffffffffffffffffffffffffffff16908173ffffffffffffffffffffffffffffffffffffffff168152505061180b565b6117b4858a8a6124389290919263ffffffff16565b886040015184815181106117cb576117ca6149e1565b5b60200260200101515f018197508273ffffffffffffffffffffffffffffffffffffffff1673ffffffffffffffffffffffffffffffffffffffff1681525050505b600280821660ff16036118595761182d858a8a6124699290919263ffffffff16565b88604001518481518110611844576118436149e1565b5b60200260200101516020018197508281525050505b600480821660ff1603611921575f61187c868b8b61247f9290919263ffffffff16565b8162ffffff169150809750819250505089898790838961189c91906149ae565b926118a993929190614fed565b8080601f0160208091040260200160405190810160405280939291908181526020018383808284375f81840152601f19601f8201169050808301925050505050505088604001518481518110611902576119016149e1565b5b602002602001015160400181905250808661191d91906149ae565b9550505b600880821660ff160361196f57611943858a8a6124699290919263ffffffff16565b8860400151848151811061195a576119596149e1565b5b60200260200101516060018197508281525050505b601080821660ff16148760400151838151811061198f5761198e6149e1565b5b60200260200101516080019015159081151581525050602080821660ff1614876040015183815181106119c5576119c46149e1565b5b602002602001015160a0019015159081151581525050600660c0821660ff16901c60ff1687604001518381518110611a00576119ff6149e1565b5b602002602001015160c0018181525050508080600101915050611712565b505050505092915050565b5f611a3383610ecb565b9050818114611a7d578282826040517f9b6514f4000000000000000000000000000000000000000000000000000000008152600401611a7493929190615027565b60405180910390fd5b5f600183019050611a8e848261249a565b7f1f180c27086c7a39ea2a7b25239d1ab92348f07ca7bb59d1438fcf527568f8818482604051611abf929190614fbe565b60405180910390a150505050565b5f5f90505f82604001515190505f5f90505b81811015611df5575f84604001518281518110611aff57611afe6149e1565b5b602002602001015190508060a001518015611b18575083155b15611b5c577f9ae934bf8a986157c889a24c3b3fa85e74b7e4ee4b1f8fc6e7362cb4c1d19d8b8683604051611b4e929190614f62565b60405180910390a150611de8565b5f93505f816060015190505f8114158015611b765750805a105b15611bbc5785835a6040517f21395274000000000000000000000000000000000000000000000000000000008152600401611bb39392919061505c565b60405180910390fd5b5f826080015115611c7157611c6a835f01515f8414611bdb5783611bdd565b5a5b634c4e814c60e01b8b8d898b8e606001518b60400151604051602401611c08969594939291906150d0565b604051602081830303815290604052907bffffffffffffffffffffffffffffffffffffffffffffffffffffffff19166020820180517bffffffffffffffffffffffffffffffffffffffffffffffffffffffff83818316178352505050506124cf565b9050611c99565b611c96835f015184602001515f8514611c8a5784611c8c565b5a5b86604001516124e4565b90505b80611dab575f60ff168360c0015103611cfa57600195507f115f347c00e69f252cd6b63c4f81022a9564c6befe8aa719cb74640a4a306f0d8885611cdb6124fb565b604051611cea93929190615136565b60405180910390a1505050611de8565b600160ff168360c0015103611d51578684611d136124fb565b6040517f7f6b0bb1000000000000000000000000000000000000000000000000000000008152600401611d4893929190615172565b60405180910390fd5b600260ff168360c0015103611daa577fc2c704302430fe0dc8d95f272e2f4e54bbbc51a3327fd5d75ab41f9fc8fd129b8885611d8b6124fb565b604051611d9a93929190615136565b60405180910390a1505050611df5565b5b7f5a589b1d8062f33451d29cae3dabd9b2e36c62aee644178c600977ca8dda661a8885604051611ddc929190614f62565b60405180910390a15050505b8080600101915050611adf565b505050505050565b5f5f1b8103611e38576040517f4294d12700000000000000000000000000000000000000000000000000000000815260040160405180910390fd5b611e647fea7157fa25e3aa17d0ae2d5280fa4e24d421c61842aa85e45194e1145aa72bf85f1b82612519565b7f307ed6bd941ee9fc80f369c94af5fa11e25bab5102a6140191756c5474a30bfa81604051611e939190614275565b60405180910390a150565b611f027fbe27a319efc8734e89e26ba4bc95f5c788584163b959f03fa04e2d7ab4b9a1205f1b837bffffffffffffffffffffffffffffffffffffffffffffffffffffffff19168373ffffffffffffffffffffffffffffffffffffffff165f1b612520565b7f0d7fc113eaf016db4681a1ba86d083ce3e0961f321062a75ac2b0aeb33deeed18282604051611f339291906151b5565b60405180910390a15050565b5f81549050919050565b5f5f611f59836020015130612555565b90505f611f65846125ff565b90508181604051602001611f7a929190615250565b6040516020818303038152906040528051906020012092505050919050565b5f5f5f611fc87fc852adf5e97c2fc3b38f405671e91b7af1697ef0287577f227ef10494c2a8e865f1b856112f3565b5f1c9050606081901c816bffffffffffffffffffffffff169250925050915091565b5f3054905090565b5f5f5f5f5f5f5f6120038b8b6123a4565b915060ff169150612012613982565b604080841614801561204f57505f73ffffffffffffffffffffffffffffffffffffffff168973ffffffffffffffffffffffffffffffffffffffff16145b1561218b57612069828d8d6124389290919263ffffffff16565b809350819a5050508961218a575f61208c838e8e61247f9290919263ffffffff16565b8162ffffff16915080945081925050505f8d8d859084876120ad91906149ae565b926120ba93929190614fed565b8080601f0160208091040260200160405190810160405280939291908181526020018383808284375f81840152601f19601f8201169050808301925050505050505090508a73ffffffffffffffffffffffffffffffffffffffff1663ccce3bc830836040518363ffffffff1660e01b8152600401612139929190615286565b6040805180830381865afa158015612153573d5f5f3e3d5ffd5b505050506040513d601f19601f820116820180604052508101906121779190615329565b9250818461218591906149ae565b935050505b5b6001808416036121c4576121b28d8a838f8f879080926121ad93929190614fed565b61283b565b97509750975097509750505050612322565b6002808416148d60200190151590811515815250505f6002601c8516901c905061220083828f8f6123d59190939291909392919063ffffffff16565b8094508197505050505f6001600560208616901c61221e91906149ae565b905061223c83828f8f6123d59190939291909392919063ffffffff16565b809450819a5050505061224e8d611f49565b935061226c8d858e8e8690809261226793929190614fed565b612a9d565b809750819850505061228086895f1b61356f565b955061228e86865f1b61356f565b95506122b2868a73ffffffffffffffffffffffffffffffffffffffff165f1b61356f565b95505f5f1b815f0151141580156122cc575085815f015114155b80156122dc575080602001518511155b1561231e57806040517fccbb534f0000000000000000000000000000000000000000000000000000000081526004016123159190615381565b60405180910390fd5b5050505b9550955095509550959050565b5f61233982613583565b9050919050565b6123997fc852adf5e97c2fc3b38f405671e91b7af1697ef0287577f227ef10494c2a8e865f1b846bffffffffffffffffffffffff841660608673ffffffffffffffffffffffffffffffffffffffff16901b175f1b612520565b505050565b80305550565b5f5f83358060f81c925060019150509250929050565b5f5f848301358060601c925060148401915050935093915050565b5f5f858401356008840261010003600180866008021b0382821c1693508486019250505094509492505050565b5f5f848301358060f01c925060028401915050935093915050565b5f5f848301358060f81c925060018401915050935093915050565b5f5f8483013573ffffffffffffffffffffffffffffffffffffffff8160601c16925060148401915050935093915050565b5f5f848301359150602083019050935093915050565b5f5f848301358060e81c925060038401915050935093915050565b6124cb7f8d0bf1fd623d628c741362c1289948e57b3e2905218c676d3e69abee36d6ae2e5f1b835f1b835f1b612520565b5050565b5f5f5f8351602085018787f490509392505050565b5f5f5f835160208501878988f19050949350505050565b60603d604051915060208201818101604052818352815f823e505090565b8082555050565b5f8383604051602001612534929190614f3b565b60405160208183030381529060405280519060200120905081815550505050565b5f7f8b73c3c69bb8fe3d512ecc4cf759cc79239f7b179b0ffacaa9a75d522b39400f5f1b7f4aa45ca7ad825ceb1bf35643f0a58c295239df563b1b565c2485f96477c563185f1b7f2a80e1ef1d7842f27f2e6be0972bb708b9a135c38860dbe73c27c3486c34f4de5f1b856125ca57466125cc565b5f5b856040516020016125e195949392919061539a565b60405160208183030381529060405280519060200120905092915050565b5f5f8261010001516040516020016126179190615477565b6040516020818303038152906040528051906020012090505f60ff16835f015160ff16036126b1575f61264d84604001516135c6565b90507f11e1e4079a79a66e4ade50033cfe2678cdd5341d2dfe5ef9513edb1a0be147a25f1b81856060015186608001518560405160200161269295949392919061548d565b6040516020818303038152906040528051906020012092505050612836565b600160ff16835f015160ff1603612722577fe19a3b94fc3c7ece3f890d98a99bc422615537a08dea0603fa8425867d87d4665f1b8360a001518051906020012082604051602001612704939291906154de565b60405160208183030381529060405280519060200120915050612836565b600260ff16835f015160ff160361278c577f11fdeb7e8373a1aa96bfac8d0ea91526b2c5d15e5cee20e0543e780258f3e8e45f1b8360c001518260405160200161276e939291906154de565b60405160208183030381529060405280519060200120915050612836565b600360ff16835f015160ff16036127f6577fe19a3b94fc3c7ece3f890d98a99bc422615537a08dea0603fa8425867d87d4665f1b8360e00151826040516020016127d8939291906154de565b60405160208183030381529060405280519060200120915050612836565b825f01516040517f0481832000000000000000000000000000000000000000000000000000000000815260040161282d9190615522565b60405180910390fd5b919050565b5f5f5f5f5f6128486138e6565b6002815f019060ff16908160ff16815250505f5f7fffffffffffffffffffffffffffffffffffffffffffffffffffffffffffffffff90505b89899050821015612a32575f5f6128a2848d8d61247f9290919263ffffffff16565b8162ffffff169150809550819250505083816128be91906149ae565b9150505f8b8b905082146128d2575f6128d4565b8d5b90507fffffffffffffffffffffffffffffffffffffffffffffffffffffffffffffffff83036129345761291b8f8d8d8790869261291393929190614fed565b600185611ff2565b809a50819b50829c50839d50849e505050505050612964565b612952858d8d8790869261294a93929190614fed565b600185611ff2565b50809a50819b50829c50839d50505050505b898910156129bf578b8b8590849261297e93929190614fed565b8b8b6040517fb006aba00000000000000000000000000000000000000000000000000000000081526004016129b6949392919061553b565b60405180910390fd5b819350878d5f0151036129d8575f5f1b8d5f0181815250505b828710612a1e5786836040517f37daf62b000000000000000000000000000000000000000000000000000000008152600401612a15929190614fbe565b60405180910390fd5b878560c00181815250508692505050612880565b5f5f1b8b5f015114158015612a4b57508a602001518511155b15612a8d578a6040517fccbb534f000000000000000000000000000000000000000000000000000000008152600401612a849190615381565b60405180910390fd5b5050509550955095509550959050565b5f5f5f5b84849050811015613565575f612ac282878761241d9290919263ffffffff16565b8160ff16915080935081925050505f600460f08316901c90505f8103612bc9575f600f831690505f8160ff1603612b1157612b0884898961241d9290919263ffffffff16565b80955081925050505b5f5f5f612b29878c8c6136a19290919263ffffffff16565b809a50819450829550839650505050505f60018d8386866040515f8152602001604052604051612b5c9493929190615579565b6020604051602081039080840390855afa158015612b7c573d5f5f3e3d5ffd5b5050506020604051035190508460ff168a0199505f612b9e828760ff16613704565b90505f5f1b8a03612baf5780612bba565b612bb98a8261356f565b5b99505050505050505050612aa1565b60018103612c54575f600f831690505f8160ff1603612c0057612bf784898961241d9290919263ffffffff16565b80955081925050505b5f612c16858a8a6124389290919263ffffffff16565b80965081925050505f612c2c828460ff16613704565b90505f5f1b8703612c3d5780612c48565b612c47878261356f565b5b96505050505050612aa1565b60028103612e53575f6003831690505f8160ff1603612c8b57612c8284898961241d9290919263ffffffff16565b80955081925050505b5f612ca1858a8a6124389290919263ffffffff16565b80965081925050505f6002600c861660ff16901c60ff1690505f612cd787838d8d6123d59190939291909392919063ffffffff16565b80985081925050505f8188019050631626ba7e60e01b7bffffffffffffffffffffffffffffffffffffffffffffffffffffffff19168473ffffffffffffffffffffffffffffffffffffffff16631626ba7e8f8f8f8d908792612d3b93929190614fed565b6040518463ffffffff1660e01b8152600401612d59939291906155bc565b602060405180830381865afa158015612d74573d5f5f3e3d5ffd5b505050506040513d601f19601f82011682018060405250810190612d989190614eaa565b7bffffffffffffffffffffffffffffffffffffffffffffffffffffffff191614612e0f578c848d8d8b908592612dd093929190614fed565b6040517fb2fed7ae000000000000000000000000000000000000000000000000000000008152600401612e0694939291906155ec565b60405180910390fd5b8097508460ff168a0199505f612e28858760ff16613704565b90505f5f1b8a03612e395780612e44565b612e438a8261356f565b5b99505050505050505050612aa1565b60038103612e9d575f612e718489896137369290919263ffffffff16565b80955081925050505f5f1b8503612e885780612e93565b612e92858261356f565b5b9450505050612aa1565b60048103612f1c575f600f831660ff1690505f612ecc85838b8b6123d59190939291909392919063ffffffff16565b80965081925050505f81860190505f5f612ef88e8e8e8e8c908892612ef393929190614fed565b612a9d565b91509150829750818a019950612f0e898261356f565b985050505050505050612aa1565b6006810361302c575f6002600c841660ff16901c60ff1690505f8103612f6057612f5184898961241d9290919263ffffffff16565b8160ff16915080955081925050505b5f6003841660ff1690505f8103612f9657612f86858a8a6124029290919263ffffffff16565b8161ffff16915080965081925050505b5f612fac868b8b61247f9290919263ffffffff16565b8162ffffff16915080975081925050505f81870190505f5f612fe08f8f8f8f8d908892612fdb93929190614fed565b612a9d565b91509150829850848210612ff457858b019a505b5f61300082878961374c565b90505f5f1b8b03613011578061301c565b61301b8b8261356f565b5b9a50505050505050505050612aa1565b600581036130ae575f61304a8489896137369290919263ffffffff16565b809550819250505088810361307d577fffffffffffffffffffffffffffffffffffffffffffffffffffffffffffffffff95505b5f61308782613781565b90505f5f1b860361309857806130a3565b6130a2868261356f565b5b955050505050612aa1565b600781036131c3575f600f831690505f8160ff16036130e5576130dc84898961241d9290919263ffffffff16565b80955081925050505b5f5f5f6130fd878c8c6136a19290919263ffffffff16565b809a50819450829550839650505050505f60018d6040516020016131219190615674565b604051602081830303815290604052805190602001208386866040515f81526020016040526040516131569493929190615579565b6020604051602081039080840390855afa158015613176573d5f5f3e3d5ffd5b5050506020604051035190508460ff168a0199505f613198828760ff16613704565b90505f5f1b8a036131a957806131b4565b6131b38a8261356f565b5b99505050505050505050612aa1565b6008810361325c575f6131e18489896137369290919263ffffffff16565b80955081925050505f6131fd5f8c6137b090919063ffffffff16565b905080820361322a577fffffffffffffffffffffffffffffffffffffffffffffffffffffffffffffffff96505b5f61323483613801565b90505f5f1b87036132455780613250565b61324f878261356f565b5b96505050505050612aa1565b600981036133c2575f6003831690505f8160ff16036132935761328a84898961241d9290919263ffffffff16565b80955081925050505b5f6132a9858a8a6124389290919263ffffffff16565b80965081925050505f5f6002600c871660ff16901c60ff1690506132df87828d8d6123d59190939291909392919063ffffffff16565b8098508193505050505f81870190505f8373ffffffffffffffffffffffffffffffffffffffff166313792a4a8f8e8e8c90879261331e93929190614fed565b6040518463ffffffff1660e01b815260040161333c93929190615699565b602060405180830381865afa158015613357573d5f5f3e3d5ffd5b505050506040513d601f19601f8201168201806040525081019061337b91906156d0565b90508197508460ff168a0199505f613397858760ff1684613830565b90505f5f1b8a036133a857806133b3565b6133b28a8261356f565b5b99505050505050505050612aa1565b600a8103613528575f6003831690505f8160ff16036133f9576133f084898961241d9290919263ffffffff16565b80955081925050505b5f61340f858a8a6124389290919263ffffffff16565b80965081925050505f6002600c861660ff16901c60ff1690505f61344587838d8d6123d59190939291909392919063ffffffff16565b80985081925050505f81880190505f8473ffffffffffffffffffffffffffffffffffffffff1663898bd9218f8f8f8d90879261348393929190614fed565b6040518463ffffffff1660e01b81526004016134a1939291906155bc565b602060405180830381865afa1580156134bc573d5f5f3e3d5ffd5b505050506040513d601f19601f820116820180604052508101906134e091906156d0565b90508198508560ff168b019a505f6134fc868860ff1684613830565b90505f5f1b8b0361350d5780613518565b6135178b8261356f565b5b9a50505050505050505050612aa1565b806040517fb2505f7c00000000000000000000000000000000000000000000000000000000815260040161355c9190614435565b60405180910390fd5b5094509492505050565b5f825f528160205260405f20905092915050565b5f5f5f1b82141580156135bf57506135bc7fea7157fa25e3aa17d0ae2d5280fa4e24d421c61842aa85e45194e1145aa72bf85f1b611f3f565b82145b9050919050565b5f5f825167ffffffffffffffff8111156135e3576135e2613c95565b5b6040519080825280602002602001820160405280156136115781602001602082028036833780820191505090505b5090505f5f90505b835181101561367157613645848281518110613638576136376149e1565b5b6020026020010151613865565b828281518110613658576136576149e1565b5b6020026020010181815250508080600101915050613619565b508060405160200161368391906157ac565b60405160208183030381529060405280519060200120915050919050565b5f5f5f5f5f8786013594506020880186013590506040860191505f60ff82901c90507f7fffffffffffffffffffffffffffffffffffffffffffffffffffffffffffffff82165f1b9450601b816136f791906157c2565b9350505093509350935093565b5f82826040516020016137189291906158a5565b60405160208183030381529060405280519060200120905092915050565b5f5f848301359150602083019050935093915050565b5f83838360405160200161376293929190615925565b6040516020818303038152906040528051906020012090509392505050565b5f8160405160200161379391906159b6565b604051602081830303815290604052805190602001209050919050565b5f5f6137c0846020015184612555565b90505f6137cc856125ff565b905081816040516020016137e1929190615250565b604051602081830303815290604052805190602001209250505092915050565b5f816040516020016138139190615a25565b604051602081830303815290604052805190602001209050919050565b5f83838360405160200161384693929190615a94565b6040516020818303038152906040528051906020012090509392505050565b5f7f0603985259a953da1f65a522f589c17bd1d0117ec1d3abb7c0788aef251ef4375f1b825f01518360200151846040015180519060200120856060015186608001518760a001518860c001516040516020016138c9989796959493929190615adb565b604051602081830303815290604052805190602001209050919050565b6040518061012001604052805f60ff1681526020015f15158152602001606081526020015f81526020015f8152602001606081526020015f81526020015f8152602001606081525090565b6040518060e001604052805f73ffffffffffffffffffffffffffffffffffffffff1681526020015f8152602001606081526020015f81526020015f151581526020015f151581526020015f81525090565b60405180604001604052805f81526020015f81525090565b5f82905092915050565b5f7fffffffff0000000000000000000000000000000000000000000000000000000082169050919050565b5f82821b905092915050565b5f6139e6838361399a565b826139f181356139a4565b92506004821015613a3157613a2c7fffffffff00000000000000000000000000000000000000000000000000000000836004036008026139cf565b831692505b505092915050565b5f81905092915050565b828183375f83830152505050565b5f613a5c8385613a39565b9350613a69838584613a43565b82840190509392505050565b5f613a81828486613a51565b91508190509392505050565b5f604051905090565b5f5ffd5b5f5ffd5b5f73ffffffffffffffffffffffffffffffffffffffff82169050919050565b5f613ac782613a9e565b9050919050565b613ad781613abd565b8114613ae1575f5ffd5b50565b5f81359050613af281613ace565b92915050565b5f819050919050565b613b0a81613af8565b8114613b14575f5ffd5b50565b5f81359050613b2581613b01565b92915050565b5f5ffd5b5f5ffd5b5f5ffd5b5f5f83601f840112613b4c57613b4b613b2b565b5b8235905067ffffffffffffffff811115613b6957613b68613b2f565b5b602083019150836001820283011115613b8557613b84613b33565b5b9250929050565b5f5f5f5f5f5f5f5f60c0898b031215613ba857613ba7613a96565b5b5f613bb58b828c01613ae4565b9850506020613bc68b828c01613ae4565b9750506040613bd78b828c01613ae4565b9650506060613be88b828c01613b17565b955050608089013567ffffffffffffffff811115613c0957613c08613a9a565b5b613c158b828c01613b37565b945094505060a089013567ffffffffffffffff811115613c3857613c37613a9a565b5b613c448b828c01613b37565b92509250509295985092959890939650565b5f60208284031215613c6b57613c6a613a96565b5b5f613c7884828501613ae4565b91505092915050565b5f5ffd5b5f601f19601f8301169050919050565b7f4e487b71000000000000000000000000000000000000000000000000000000005f52604160045260245ffd5b613ccb82613c85565b810181811067ffffffffffffffff82111715613cea57613ce9613c95565b5b80604052505050565b5f613cfc613a8d565b9050613d088282613cc2565b919050565b5f5ffd5b5f60ff82169050919050565b613d2681613d11565b8114613d30575f5ffd5b50565b5f81359050613d4181613d1d565b92915050565b5f8115159050919050565b613d5b81613d47565b8114613d65575f5ffd5b50565b5f81359050613d7681613d52565b92915050565b5f67ffffffffffffffff821115613d9657613d95613c95565b5b602082029050602081019050919050565b5f5ffd5b5f67ffffffffffffffff821115613dc557613dc4613c95565b5b613dce82613c85565b9050602081019050919050565b5f613ded613de884613dab565b613cf3565b905082815260208101848484011115613e0957613e08613da7565b5b613e14848285613a43565b509392505050565b5f82601f830112613e3057613e2f613b2b565b5b8135613e40848260208601613ddb565b91505092915050565b5f60e08284031215613e5e57613e5d613c81565b5b613e6860e0613cf3565b90505f613e7784828501613ae4565b5f830152506020613e8a84828501613b17565b602083015250604082013567ffffffffffffffff811115613eae57613ead613d0d565b5b613eba84828501613e1c565b6040830152506060613ece84828501613b17565b6060830152506080613ee284828501613d68565b60808301525060a0613ef684828501613d68565b60a08301525060c0613f0a84828501613b17565b60c08301525092915050565b5f613f28613f2384613d7c565b613cf3565b90508083825260208201905060208402830185811115613f4b57613f4a613b33565b5b835b81811015613f9257803567ffffffffffffffff811115613f7057613f6f613b2b565b5b808601613f7d8982613e49565b85526020850194505050602081019050613f4d565b5050509392505050565b5f82601f830112613fb057613faf613b2b565b5b8135613fc0848260208601613f16565b91505092915050565b5f819050919050565b613fdb81613fc9565b8114613fe5575f5ffd5b50565b5f81359050613ff681613fd2565b92915050565b5f67ffffffffffffffff82111561401657614015613c95565b5b602082029050602081019050919050565b5f61403961403484613ffc565b613cf3565b9050808382526020820190506020840283018581111561405c5761405b613b33565b5b835b8181101561408557806140718882613ae4565b84526020840193505060208101905061405e565b5050509392505050565b5f82601f8301126140a3576140a2613b2b565b5b81356140b3848260208601614027565b91505092915050565b5f61012082840312156140d2576140d1613c81565b5b6140dd610120613cf3565b90505f6140ec84828501613d33565b5f8301525060206140ff84828501613d68565b602083015250604082013567ffffffffffffffff81111561412357614122613d0d565b5b61412f84828501613f9c565b604083015250606061414384828501613b17565b606083015250608061415784828501613b17565b60808301525060a082013567ffffffffffffffff81111561417b5761417a613d0d565b5b61418784828501613e1c565b60a08301525060c061419b84828501613fe8565b60c08301525060e06141af84828501613fe8565b60e08301525061010082013567ffffffffffffffff8111156141d4576141d3613d0d565b5b6141e08482850161408f565b6101008301525092915050565b5f5f5f6040848603121561420457614203613a96565b5b5f84013567ffffffffffffffff81111561422157614220613a9a565b5b61422d868287016140bc565b935050602084013567ffffffffffffffff81111561424e5761424d613a9a565b5b61425a86828701613b37565b92509250509250925092565b61426f81613fc9565b82525050565b5f6020820190506142885f830184614266565b92915050565b5f5f5f5f5f608086880312156142a7576142a6613a96565b5b5f6142b488828901613ae4565b95505060206142c588828901613ae4565b94505060406142d688828901613b17565b935050606086013567ffffffffffffffff8111156142f7576142f6613a9a565b5b61430388828901613b37565b92509250509295509295909350565b61431b816139a4565b82525050565b5f6020820190506143345f830184614312565b92915050565b5f5f5f6040848603121561435157614350613a96565b5b5f61435e86828701613fe8565b935050602084013567ffffffffffffffff81111561437f5761437e613a9a565b5b61438b86828701613b37565b92509250509250925092565b5f5ffd5b5f61012082840312156143b1576143b0614397565b5b81905092915050565b5f5f5f606084860312156143d1576143d0613a96565b5b5f84013567ffffffffffffffff8111156143ee576143ed613a9a565b5b6143fa8682870161439b565b935050602061440b86828701613fe8565b925050604061441c86828701613b17565b9150509250925092565b61442f81613af8565b82525050565b5f6020820190506144485f830184614426565b92915050565b614457816139a4565b8114614461575f5ffd5b50565b5f813590506144728161444e565b92915050565b5f6020828403121561448d5761448c613a96565b5b5f61449a84828501614464565b91505092915050565b6144ac81613abd565b82525050565b5f6020820190506144c55f8301846144a3565b92915050565b5f5f5f5f604085870312156144e3576144e2613a96565b5b5f85013567ffffffffffffffff811115614500576144ff613a9a565b5b61450c87828801613b37565b9450945050602085013567ffffffffffffffff81111561452f5761452e613a9a565b5b61453b87828801613b37565b925092505092959194509250565b5f6020828403121561455e5761455d613a96565b5b5f61456b84828501613fe8565b91505092915050565b5f5f6020838503121561458a57614589613a96565b5b5f83013567ffffffffffffffff8111156145a7576145a6613a9a565b5b6145b385828601613b37565b92509250509250929050565b5f5f5f5f606085870312156145d7576145d6613a96565b5b5f6145e487828801613ae4565b94505060206145f587828801613b17565b935050604085013567ffffffffffffffff81111561461657614615613a9a565b5b61462287828801613b37565b925092505092959194509250565b5f6020828403121561464557614644613a96565b5b5f61465284828501613b17565b91505092915050565b5f60408201905061466e5f8301856144a3565b61467b6020830184614426565b9392505050565b61468b81613d47565b82525050565b5f60c0820190506146a45f830189614426565b6146b16020830188614426565b6146be6040830187614682565b6146cb6060830186614266565b6146d86080830185614426565b6146e560a0830184614266565b979650505050505050565b5f5f6040838503121561470657614705613a96565b5b5f61471385828601614464565b925050602061472485828601613ae4565b9150509250929050565b5f5f83601f84011261474357614742613b2b565b5b8235905067ffffffffffffffff8111156147605761475f613b2f565b5b60208301915083602082028301111561477c5761477b613b33565b5b9250929050565b5f5f5f5f5f5f5f5f60a0898b03121561479f5761479e613a96565b5b5f6147ac8b828c01613ae4565b98505060206147bd8b828c01613ae4565b975050604089013567ffffffffffffffff8111156147de576147dd613a9a565b5b6147ea8b828c0161472e565b9650965050606089013567ffffffffffffffff81111561480d5761480c613a9a565b5b6148198b828c0161472e565b9450945050608089013567ffffffffffffffff81111561483c5761483b613a9a565b5b6148488b828c01613b37565b92509250509295985092959890939650565b5f5f5f5f5f5f60a0878903121561487457614873613a96565b5b5f61488189828a01613ae4565b965050602061489289828a01613ae4565b95505060406148a389828a01613b17565b94505060606148b489828a01613b17565b935050608087013567ffffffffffffffff8111156148d5576148d4613a9a565b5b6148e189828a01613b37565b92509250509295509295509295565b5f6bffffffffffffffffffffffff82169050919050565b614910816148f0565b811461491a575f5ffd5b50565b5f8135905061492b81614907565b92915050565b5f5f5f6060848603121561494857614947613a96565b5b5f61495586828701613fe8565b935050602061496686828701613ae4565b92505060406149778682870161491d565b9150509250925092565b7f4e487b71000000000000000000000000000000000000000000000000000000005f52601160045260245ffd5b5f6149b882613af8565b91506149c383613af8565b92508282019050808211156149db576149da614981565b5b92915050565b7f4e487b71000000000000000000000000000000000000000000000000000000005f52603260045260245ffd5b614a1781613d11565b82525050565b614a2681613d47565b82525050565b5f81519050919050565b5f82825260208201905092915050565b5f819050602082019050919050565b614a5e81613abd565b82525050565b614a6d81613af8565b82525050565b5f81519050919050565b5f82825260208201905092915050565b8281835e5f83830152505050565b5f614aa582614a73565b614aaf8185614a7d565b9350614abf818560208601614a8d565b614ac881613c85565b840191505092915050565b5f60e083015f830151614ae85f860182614a55565b506020830151614afb6020860182614a64565b5060408301518482036040860152614b138282614a9b565b9150506060830151614b286060860182614a64565b506080830151614b3b6080860182614a1d565b5060a0830151614b4e60a0860182614a1d565b5060c0830151614b6160c0860182614a64565b508091505092915050565b5f614b778383614ad3565b905092915050565b5f602082019050919050565b5f614b9582614a2c565b614b9f8185614a36565b935083602082028501614bb185614a46565b805f5b85811015614bec5784840389528151614bcd8582614b6c565b9450614bd883614b7f565b925060208a01995050600181019050614bb4565b50829750879550505050505092915050565b614c0781613fc9565b82525050565b5f81519050919050565b5f82825260208201905092915050565b5f819050602082019050919050565b5f614c418383614a55565b60208301905092915050565b5f602082019050919050565b5f614c6382614c0d565b614c6d8185614c17565b9350614c7883614c27565b805f5b83811015614ca8578151614c8f8882614c36565b9750614c9a83614c4d565b925050600181019050614c7b565b5085935050505092915050565b5f61012083015f830151614ccb5f860182614a0e565b506020830151614cde6020860182614a1d565b5060408301518482036040860152614cf68282614b8b565b9150506060830151614d0b6060860182614a64565b506080830151614d1e6080860182614a64565b5060a083015184820360a0860152614d368282614a9b565b91505060c0830151614d4b60c0860182614bfe565b5060e0830151614d5e60e0860182614bfe565b50610100830151848203610100860152614d788282614c59565b9150508091505092915050565b5f82825260208201905092915050565b5f614da08385614d85565b9350614dad838584613a43565b614db683613c85565b840190509392505050565b5f6040820190508181035f830152614dd98186614cb5565b90508181036020830152614dee818486614d95565b9050949350505050565b5f5ffd5b5f5ffd5b5f5ffd5b5f5f83356001602003843603038112614e2057614e1f614df8565b5b80840192508235915067ffffffffffffffff821115614e4257614e41614dfc565b5b602083019250600182023603831315614e5e57614e5d614e00565b5b509250929050565b5f604082019050614e795f830186614266565b8181036020830152614e8c818486614d95565b9050949350505050565b5f81519050614ea48161444e565b92915050565b5f60208284031215614ebf57614ebe613a96565b5b5f614ecc84828501614e96565b91505092915050565b5f6020820190508181035f830152614eee818486614d95565b90509392505050565b614f00816148f0565b82525050565b5f606082019050614f195f830186614266565b614f2660208301856144a3565b614f336040830184614ef7565b949350505050565b5f604082019050614f4e5f830185614266565b614f5b6020830184614266565b9392505050565b5f604082019050614f755f830185614266565b614f826020830184614426565b9392505050565b5f606082019050614f9c5f830186614266565b614fa960208301856144a3565b614fb660408301846144a3565b949350505050565b5f604082019050614fd15f830185614426565b614fde6020830184614426565b9392505050565b5f5ffd5b5f5ffd5b5f5f8585111561500057614fff614fe5565b5b8386111561501157615010614fe9565b5b6001850283019150848603905094509492505050565b5f60608201905061503a5f830186614426565b6150476020830185614426565b6150546040830184614426565b949350505050565b5f6060820190508181035f8301526150748186614cb5565b90506150836020830185614426565b6150906040830184614426565b949350505050565b5f6150a282614a73565b6150ac8185614d85565b93506150bc818560208601614a8d565b6150c581613c85565b840191505092915050565b5f60c0820190506150e35f830189614266565b6150f06020830188614426565b6150fd6040830187614426565b61510a6060830186614426565b6151176080830185614426565b81810360a08301526151298184615098565b9050979650505050505050565b5f6060820190506151495f830186614266565b6151566020830185614426565b81810360408301526151688184615098565b9050949350505050565b5f6060820190508181035f83015261518a8186614cb5565b90506151996020830185614426565b81810360408301526151ab8184615098565b9050949350505050565b5f6040820190506151c85f830185614312565b6151d560208301846144a3565b9392505050565b5f81905092915050565b7f19010000000000000000000000000000000000000000000000000000000000005f82015250565b5f61521a6002836151dc565b9150615225826151e6565b600282019050919050565b5f819050919050565b61524a61524582613fc9565b615230565b82525050565b5f61525a8261520e565b91506152668285615239565b6020820191506152768284615239565b6020820191508190509392505050565b5f6040820190506152995f8301856144a3565b81810360208301526152ab8184615098565b90509392505050565b5f815190506152c281613fd2565b92915050565b5f815190506152d681613b01565b92915050565b5f604082840312156152f1576152f0613c81565b5b6152fb6040613cf3565b90505f61530a848285016152b4565b5f83015250602061531d848285016152c8565b60208301525092915050565b5f6040828403121561533e5761533d613a96565b5b5f61534b848285016152dc565b91505092915050565b604082015f8201516153685f850182614bfe565b50602082015161537b6020850182614a64565b50505050565b5f6040820190506153945f830184615354565b92915050565b5f60a0820190506153ad5f830188614266565b6153ba6020830187614266565b6153c76040830186614266565b6153d46060830185614426565b6153e160808301846144a3565b9695505050505050565b5f81905092915050565b6153fe81613abd565b82525050565b5f61540f83836153f5565b60208301905092915050565b5f61542582614c0d565b61542f81856153eb565b935061543a83614c27565b805f5b8381101561546a5781516154518882615404565b975061545c83614c4d565b92505060018101905061543d565b5085935050505092915050565b5f615482828461541b565b915081905092915050565b5f60a0820190506154a05f830188614266565b6154ad6020830187614266565b6154ba6040830186614426565b6154c76060830185614426565b6154d46080830184614266565b9695505050505050565b5f6060820190506154f15f830186614266565b6154fe6020830185614266565b61550b6040830184614266565b949350505050565b61551c81613d11565b82525050565b5f6020820190506155355f830184615513565b92915050565b5f6060820190508181035f830152615554818688614d95565b90506155636020830185614426565b6155706040830184614426565b95945050505050565b5f60808201905061558c5f830187614266565b6155996020830186615513565b6155a66040830185614266565b6155b36060830184614266565b95945050505050565b5f6040820190506155cf5f830186614266565b81810360208301526155e2818486614d95565b9050949350505050565b5f6060820190506155ff5f830187614266565b61560c60208301866144a3565b818103604083015261561f818486614d95565b905095945050505050565b7f19457468657265756d205369676e6564204d6573736167653a0a3332000000005f82015250565b5f61565e601c836151dc565b91506156698261562a565b601c82019050919050565b5f61567e82615652565b915061568a8284615239565b60208201915081905092915050565b5f6040820190508181035f8301526156b18186614cb5565b905081810360208301526156c6818486614d95565b9050949350505050565b5f602082840312156156e5576156e4613a96565b5b5f6156f2848285016152b4565b91505092915050565b5f81519050919050565b5f81905092915050565b5f819050602082019050919050565b61572781613fc9565b82525050565b5f615738838361571e565b60208301905092915050565b5f602082019050919050565b5f61575a826156fb565b6157648185615705565b935061576f8361570f565b805f5b8381101561579f578151615786888261572d565b975061579183615744565b925050600181019050615772565b5085935050505092915050565b5f6157b78284615750565b915081905092915050565b5f6157cc82613d11565b91506157d783613d11565b9250828201905060ff8111156157f0576157ef614981565b5b92915050565b7f53657175656e6365207369676e65723a0a0000000000000000000000000000005f82015250565b5f61582a6011836151dc565b9150615835826157f6565b601182019050919050565b5f8160601b9050919050565b5f61585682615840565b9050919050565b5f6158678261584c565b9050919050565b61587f61587a82613abd565b61585d565b82525050565b5f819050919050565b61589f61589a82613af8565b615885565b82525050565b5f6158af8261581e565b91506158bb828561586e565b6014820191506158cb828461588e565b6020820191508190509392505050565b7f53657175656e6365206e657374656420636f6e6669673a0a00000000000000005f82015250565b5f61590f6018836151dc565b915061591a826158db565b601882019050919050565b5f61592f82615903565b915061593b8286615239565b60208201915061594b828561588e565b60208201915061595b828461588e565b602082019150819050949350505050565b7f53657175656e636520737461746963206469676573743a0a00000000000000005f82015250565b5f6159a06018836151dc565b91506159ab8261596c565b601882019050919050565b5f6159c082615994565b91506159cc8284615239565b60208201915081905092915050565b7f53657175656e636520616e792061646472657373207375626469676573743a0a5f82015250565b5f615a0f6020836151dc565b9150615a1a826159db565b602082019050919050565b5f615a2f82615a03565b9150615a3b8284615239565b60208201915081905092915050565b7f53657175656e63652073617069656e7420636f6e6669673a0a000000000000005f82015250565b5f615a7e6019836151dc565b9150615a8982615a4a565b601982019050919050565b5f615a9e82615a72565b9150615aaa828661586e565b601482019150615aba828561588e565b602082019150615aca8284615239565b602082019150819050949350505050565b5f61010082019050615aef5f83018b614266565b615afc602083018a6144a3565b615b096040830189614426565b615b166060830188614266565b615b236080830187614426565b615b3060a0830186614682565b615b3d60c0830185614682565b615b4a60e0830184614426565b999850505050505050505056fea2646970667358221220fe91e9aedaa0c3db4981e764d903cfba3ce4902403769200b250f99a6827f5bd64736f6c634300081c0033",
  "linkReferences": {},
  "deployedLinkReferences": {}
}